{
  "contractName": "ApplyCV",
  "abi": [
    {
      "inputs": [
        {
          "internalType": "uint256",
          "name": "",
          "type": "uint256"
        }
      ],
      "name": "cvs",
      "outputs": [
        {
          "internalType": "address",
          "name": "studentOwner",
          "type": "address"
        },
        {
          "internalType": "address",
          "name": "businessOwner",
          "type": "address"
        },
        {
          "internalType": "string",
          "name": "jobTitle",
          "type": "string"
        },
        {
          "internalType": "string",
          "name": "coverLetter",
          "type": "string"
        },
        {
          "internalType": "string",
          "name": "statusCV",
          "type": "string"
        }
      ],
      "stateMutability": "view",
      "type": "function"
    },
    {
      "inputs": [
        {
          "internalType": "uint256",
          "name": "",
          "type": "uint256"
        }
      ],
      "name": "recruits",
      "outputs": [
        {
          "internalType": "address",
          "name": "businessOwner",
          "type": "address"
        },
        {
          "internalType": "string",
          "name": "jobTitle",
          "type": "string"
        },
        {
          "internalType": "string",
          "name": "jobDescription",
          "type": "string"
        }
      ],
      "stateMutability": "view",
      "type": "function"
    },
    {
      "inputs": [
        {
          "internalType": "uint256",
          "name": "",
          "type": "uint256"
        }
      ],
      "name": "reviews",
      "outputs": [
        {
          "internalType": "address",
          "name": "studentOwner",
          "type": "address"
        },
        {
          "internalType": "address",
          "name": "businessOwner",
          "type": "address"
        },
        {
          "internalType": "string",
          "name": "content",
          "type": "string"
        }
      ],
      "stateMutability": "view",
      "type": "function"
    },
    {
      "inputs": [
        {
          "internalType": "address",
          "name": "_studentOwner",
          "type": "address"
        },
        {
          "internalType": "address",
          "name": "_businessOwner",
          "type": "address"
        },
        {
          "internalType": "string",
          "name": "_jobTitle",
          "type": "string"
        },
        {
          "internalType": "string",
          "name": "_coverLetter",
          "type": "string"
        }
      ],
      "name": "addCV",
      "outputs": [],
      "stateMutability": "nonpayable",
      "type": "function"
    },
    {
      "inputs": [
        {
          "internalType": "address",
          "name": "_studentOwner",
          "type": "address"
        },
        {
          "internalType": "address",
          "name": "_businessOwner",
          "type": "address"
        },
        {
          "internalType": "string",
          "name": "_jobTitle",
          "type": "string"
        }
      ],
      "name": "checkCV",
      "outputs": [
        {
          "internalType": "uint256",
          "name": "x",
          "type": "uint256"
        }
      ],
      "stateMutability": "view",
      "type": "function"
    },
    {
      "inputs": [
        {
          "internalType": "address",
          "name": "_studentOwner",
          "type": "address"
        },
        {
          "internalType": "address",
          "name": "_businessOwner",
          "type": "address"
        },
        {
          "internalType": "string",
          "name": "_jobTitle",
          "type": "string"
        },
        {
          "internalType": "string",
          "name": "_statusCV",
          "type": "string"
        }
      ],
      "name": "interviewCV",
      "outputs": [],
      "stateMutability": "nonpayable",
      "type": "function"
    },
    {
      "inputs": [
        {
          "internalType": "address",
          "name": "_studentOwner",
          "type": "address"
        },
        {
          "internalType": "address",
          "name": "_businessOwner",
          "type": "address"
        },
        {
          "internalType": "string",
          "name": "_jobTitle",
          "type": "string"
        },
        {
          "internalType": "string",
          "name": "_statusCV",
          "type": "string"
        }
      ],
      "name": "onboardCV",
      "outputs": [],
      "stateMutability": "nonpayable",
      "type": "function"
    },
    {
      "inputs": [
        {
          "internalType": "address",
          "name": "_businessOwner",
          "type": "address"
        }
      ],
      "name": "getCV",
      "outputs": [
        {
          "internalType": "address[]",
          "name": "",
          "type": "address[]"
        },
        {
          "internalType": "address[]",
          "name": "",
          "type": "address[]"
        },
        {
          "internalType": "string[]",
          "name": "",
          "type": "string[]"
        },
        {
          "internalType": "string[]",
          "name": "",
          "type": "string[]"
        },
        {
          "internalType": "string[]",
          "name": "",
          "type": "string[]"
        }
      ],
      "stateMutability": "view",
      "type": "function"
    },
    {
      "inputs": [
        {
          "internalType": "address",
          "name": "_businessOwner",
          "type": "address"
        },
        {
          "internalType": "string",
          "name": "_jobTitle",
          "type": "string"
        },
        {
          "internalType": "string",
          "name": "_jobDescription",
          "type": "string"
        }
      ],
      "name": "addRecruit",
      "outputs": [],
      "stateMutability": "nonpayable",
      "type": "function"
    },
    {
      "inputs": [
        {
          "internalType": "address",
          "name": "_businessOwner",
          "type": "address"
        }
      ],
      "name": "getRecruit",
      "outputs": [
        {
          "internalType": "string[]",
          "name": "",
          "type": "string[]"
        },
        {
          "internalType": "string[]",
          "name": "",
          "type": "string[]"
        }
      ],
      "stateMutability": "view",
      "type": "function"
    },
    {
      "inputs": [
        {
          "internalType": "address",
          "name": "_studentOwner",
          "type": "address"
        },
        {
          "internalType": "address",
          "name": "_businessOwner",
          "type": "address"
        },
        {
          "internalType": "string",
          "name": "_content",
          "type": "string"
        }
      ],
      "name": "addReview",
      "outputs": [],
      "stateMutability": "nonpayable",
      "type": "function"
    },
    {
      "inputs": [
        {
          "internalType": "address",
          "name": "_studentOwner",
          "type": "address"
        },
        {
          "internalType": "address",
          "name": "_businessOwner",
          "type": "address"
        }
      ],
      "name": "getReview",
      "outputs": [
        {
          "internalType": "address",
          "name": "studentOwner",
          "type": "address"
        },
        {
          "internalType": "address",
          "name": "businessOwner",
          "type": "address"
        },
        {
          "internalType": "string",
          "name": "content",
          "type": "string"
        }
      ],
      "stateMutability": "view",
      "type": "function"
    }
  ],
  "bytecode": "0x608060405234801561001057600080fd5b506125c9806100206000396000f3fe608060405234801561001057600080fd5b50600436106100b35760003560e01c8063ae8f00d311610071578063ae8f00d3146101ba578063ce1ec5bb146101d6578063cee5c7f314610207578063dc1e475f14610223578063e83ddcea1461023f578063e9daa70a14610271576100b3565b80624e56cf146100b85780630299779f146100d45780630b5e50ed14610104578063381a3bf7146101365780637aedcde51461016a578063844bb4601461019e575b600080fd5b6100d260048036038101906100cd9190611d49565b6102a3565b005b6100ee60048036038101906100e99190611de8565b610448565b6040516100fb9190611e70565b60405180910390f35b61011e60048036038101906101199190611eb7565b6105c3565b60405161012d93929190611f7b565b60405180910390f35b610150600480360381019061014b9190611fc0565b61072d565b6040516101619594939291906121b7565b60405180910390f35b610184600480360381019061017f9190611eb7565b610d1e565b60405161019595949392919061222d565b60405180910390f35b6101b860048036038101906101b39190611d49565b610f3c565b005b6101d460048036038101906101cf9190611de8565b6110e1565b005b6101f060048036038101906101eb9190611fc0565b611205565b6040516101fe929190612295565b60405180910390f35b610221600480360381019061021c91906122cc565b6114f9565b005b61023d60048036038101906102389190611d49565b6115dd565b005b61025960048036038101906102549190611eb7565b61177d565b60405161026893929190612357565b60405180910390f35b61028b60048036038101906102869190612395565b61187f565b60405161029a93929190612357565b60405180910390f35b60005b600080549050811015610441578473ffffffffffffffffffffffffffffffffffffffff16600082815481106102de576102dd6123d5565b5b906000526020600020906005020160000160009054906101000a900473ffffffffffffffffffffffffffffffffffffffff1673ffffffffffffffffffffffffffffffffffffffff161480156103a357508373ffffffffffffffffffffffffffffffffffffffff1660008281548110610359576103586123d5565b5b906000526020600020906005020160010160009054906101000a900473ffffffffffffffffffffffffffffffffffffffff1673ffffffffffffffffffffffffffffffffffffffff16145b80156103ee57508280519060200120600082815481106103c6576103c56123d5565b5b90600052602060002090600502016002016040516103e49190612504565b6040518091039020145b1561042e578160008281548110610408576104076123d5565b5b9060005260206000209060050201600401908051906020019061042c929190611aee565b505b80806104399061254a565b9150506102a6565b5050505050565b600080600090505b6000805490508110156105ba578473ffffffffffffffffffffffffffffffffffffffff1660008281548110610488576104876123d5565b5b906000526020600020906005020160000160009054906101000a900473ffffffffffffffffffffffffffffffffffffffff1673ffffffffffffffffffffffffffffffffffffffff1614801561054d57508373ffffffffffffffffffffffffffffffffffffffff1660008281548110610503576105026123d5565b5b906000526020600020906005020160010160009054906101000a900473ffffffffffffffffffffffffffffffffffffffff1673ffffffffffffffffffffffffffffffffffffffff16145b801561059857508280519060200120600082815481106105705761056f6123d5565b5b906000526020600020906005020160020160405161058e9190612504565b6040518091039020145b156105a75760019150506105bc565b80806105b29061254a565b915050610450565b505b9392505050565b600181815481106105d357600080fd5b90600052602060002090600302016000915090508060000160009054906101000a900473ffffffffffffffffffffffffffffffffffffffff169080600101805461061c90612433565b80601f016020809104026020016040519081016040528092919081815260200182805461064890612433565b80156106955780601f1061066a57610100808354040283529160200191610695565b820191906000526020600020905b81548152906001019060200180831161067857829003601f168201915b5050505050908060020180546106aa90612433565b80601f01602080910402602001604051908101604052809291908181526020018280546106d690612433565b80156107235780601f106106f857610100808354040283529160200191610723565b820191906000526020600020905b81548152906001019060200180831161070657829003601f168201915b5050505050905083565b60608060608060606000808054905067ffffffffffffffff81111561075557610754611c1e565b5b6040519080825280602002602001820160405280156107835781602001602082028036833780820191505090505b5090506000808054905067ffffffffffffffff8111156107a6576107a5611c1e565b5b6040519080825280602002602001820160405280156107d45781602001602082028036833780820191505090505b5090506000808054905067ffffffffffffffff8111156107f7576107f6611c1e565b5b60405190808252806020026020018201604052801561082a57816020015b60608152602001906001900390816108155790505b5090506000808054905067ffffffffffffffff81111561084d5761084c611c1e565b5b60405190808252806020026020018201604052801561088057816020015b606081526020019060019003908161086b5790505b5090506000808054905067ffffffffffffffff8111156108a3576108a2611c1e565b5b6040519080825280602002602001820160405280156108d657816020015b60608152602001906001900390816108c15790505b50905060005b600080549050811015610d00578b73ffffffffffffffffffffffffffffffffffffffff1660008281548110610914576109136123d5565b5b906000526020600020906005020160010160009054906101000a900473ffffffffffffffffffffffffffffffffffffffff1673ffffffffffffffffffffffffffffffffffffffff161415610ced5760008181548110610976576109756123d5565b5b906000526020600020906005020160000160009054906101000a900473ffffffffffffffffffffffffffffffffffffffff168682815181106109bb576109ba6123d5565b5b602002602001019073ffffffffffffffffffffffffffffffffffffffff16908173ffffffffffffffffffffffffffffffffffffffff168152505060008181548110610a0957610a086123d5565b5b906000526020600020906005020160010160009054906101000a900473ffffffffffffffffffffffffffffffffffffffff16858281518110610a4e57610a4d6123d5565b5b602002602001019073ffffffffffffffffffffffffffffffffffffffff16908173ffffffffffffffffffffffffffffffffffffffff168152505060008181548110610a9c57610a9b6123d5565b5b90600052602060002090600502016002018054610ab890612433565b80601f0160208091040260200160405190810160405280929190818152602001828054610ae490612433565b8015610b315780601f10610b0657610100808354040283529160200191610b31565b820191906000526020600020905b815481529060010190602001808311610b1457829003601f168201915b5050505050848281518110610b4957610b486123d5565b5b602002602001018190525060008181548110610b6857610b676123d5565b5b90600052602060002090600502016003018054610b8490612433565b80601f0160208091040260200160405190810160405280929190818152602001828054610bb090612433565b8015610bfd5780601f10610bd257610100808354040283529160200191610bfd565b820191906000526020600020905b815481529060010190602001808311610be057829003601f168201915b5050505050838281518110610c1557610c146123d5565b5b602002602001018190525060008181548110610c3457610c336123d5565b5b90600052602060002090600502016004018054610c5090612433565b80601f0160208091040260200160405190810160405280929190818152602001828054610c7c90612433565b8015610cc95780601f10610c9e57610100808354040283529160200191610cc9565b820191906000526020600020905b815481529060010190602001808311610cac57829003601f168201915b5050505050828281518110610ce157610ce06123d5565b5b60200260200101819052505b8080610cf89061254a565b9150506108dc565b50848484848499509950995099509950505050505091939590929450565b60008181548110610d2e57600080fd5b90600052602060002090600502016000915090508060000160009054906101000a900473ffffffffffffffffffffffffffffffffffffffff16908060010160009054906101000a900473ffffffffffffffffffffffffffffffffffffffff1690806002018054610d9d90612433565b80601f0160208091040260200160405190810160405280929190818152602001828054610dc990612433565b8015610e165780601f10610deb57610100808354040283529160200191610e16565b820191906000526020600020905b815481529060010190602001808311610df957829003601f168201915b505050505090806003018054610e2b90612433565b80601f0160208091040260200160405190810160405280929190818152602001828054610e5790612433565b8015610ea45780601f10610e7957610100808354040283529160200191610ea4565b820191906000526020600020905b815481529060010190602001808311610e8757829003601f168201915b505050505090806004018054610eb990612433565b80601f0160208091040260200160405190810160405280929190818152602001828054610ee590612433565b8015610f325780601f10610f0757610100808354040283529160200191610f32565b820191906000526020600020905b815481529060010190602001808311610f1557829003601f168201915b5050505050905085565b60005b6000805490508110156110da578473ffffffffffffffffffffffffffffffffffffffff1660008281548110610f7757610f766123d5565b5b906000526020600020906005020160000160009054906101000a900473ffffffffffffffffffffffffffffffffffffffff1673ffffffffffffffffffffffffffffffffffffffff1614801561103c57508373ffffffffffffffffffffffffffffffffffffffff1660008281548110610ff257610ff16123d5565b5b906000526020600020906005020160010160009054906101000a900473ffffffffffffffffffffffffffffffffffffffff1673ffffffffffffffffffffffffffffffffffffffff16145b8015611087575082805190602001206000828154811061105f5761105e6123d5565b5b906000526020600020906005020160020160405161107d9190612504565b6040518091039020145b156110c75781600082815481106110a1576110a06123d5565b5b906000526020600020906005020160040190805190602001906110c5929190611aee565b505b80806110d29061254a565b915050610f3f565b5050505050565b600260405180606001604052808573ffffffffffffffffffffffffffffffffffffffff1681526020018473ffffffffffffffffffffffffffffffffffffffff16815260200183815250908060018154018082558091505060019003906000526020600020906003020160009091909190915060008201518160000160006101000a81548173ffffffffffffffffffffffffffffffffffffffff021916908373ffffffffffffffffffffffffffffffffffffffff16021790555060208201518160010160006101000a81548173ffffffffffffffffffffffffffffffffffffffff021916908373ffffffffffffffffffffffffffffffffffffffff16021790555060408201518160020190805190602001906111fd929190611aee565b505050505050565b606080600060018054905067ffffffffffffffff81111561122957611228611c1e565b5b60405190808252806020026020018201604052801561125c57816020015b60608152602001906001900390816112475790505b509050600060018054905067ffffffffffffffff8111156112805761127f611c1e565b5b6040519080825280602002602001820160405280156112b357816020015b606081526020019060019003908161129e5790505b50905060005b6001805490508110156114eb578573ffffffffffffffffffffffffffffffffffffffff16600182815481106112f1576112f06123d5565b5b906000526020600020906003020160000160009054906101000a900473ffffffffffffffffffffffffffffffffffffffff1673ffffffffffffffffffffffffffffffffffffffff1614156114d85760018181548110611353576113526123d5565b5b9060005260206000209060030201600101805461136f90612433565b80601f016020809104026020016040519081016040528092919081815260200182805461139b90612433565b80156113e85780601f106113bd576101008083540402835291602001916113e8565b820191906000526020600020905b8154815290600101906020018083116113cb57829003601f168201915b5050505050838281518110611400576113ff6123d5565b5b60200260200101819052506001818154811061141f5761141e6123d5565b5b9060005260206000209060030201600201805461143b90612433565b80601f016020809104026020016040519081016040528092919081815260200182805461146790612433565b80156114b45780601f10611489576101008083540402835291602001916114b4565b820191906000526020600020905b81548152906001019060200180831161149757829003601f168201915b50505050508282815181106114cc576114cb6123d5565b5b60200260200101819052505b80806114e39061254a565b9150506112b9565b508181935093505050915091565b600160405180606001604052808573ffffffffffffffffffffffffffffffffffffffff16815260200184815260200183815250908060018154018082558091505060019003906000526020600020906003020160009091909190915060008201518160000160006101000a81548173ffffffffffffffffffffffffffffffffffffffff021916908373ffffffffffffffffffffffffffffffffffffffff16021790555060208201518160010190805190602001906115b8929190611aee565b5060408201518160020190805190602001906115d5929190611aee565b505050505050565b60006040518060a001604052808673ffffffffffffffffffffffffffffffffffffffff1681526020018573ffffffffffffffffffffffffffffffffffffffff1681526020018481526020018381526020016040518060400160405280600981526020017f53637265656e696e670000000000000000000000000000000000000000000000815250815250908060018154018082558091505060019003906000526020600020906005020160009091909190915060008201518160000160006101000a81548173ffffffffffffffffffffffffffffffffffffffff021916908373ffffffffffffffffffffffffffffffffffffffff16021790555060208201518160010160006101000a81548173ffffffffffffffffffffffffffffffffffffffff021916908373ffffffffffffffffffffffffffffffffffffffff160217905550604082015181600201908051906020019061173a929190611aee565b506060820151816003019080519060200190611757929190611aee565b506080820151816004019080519060200190611774929190611aee565b50505050505050565b6002818154811061178d57600080fd5b90600052602060002090600302016000915090508060000160009054906101000a900473ffffffffffffffffffffffffffffffffffffffff16908060010160009054906101000a900473ffffffffffffffffffffffffffffffffffffffff16908060020180546117fc90612433565b80601f016020809104026020016040519081016040528092919081815260200182805461182890612433565b80156118755780601f1061184a57610100808354040283529160200191611875565b820191906000526020600020905b81548152906001019060200180831161185857829003601f168201915b5050505050905083565b600080606060005b600280549050811015611ae5578473ffffffffffffffffffffffffffffffffffffffff16600282815481106118bf576118be6123d5565b5b906000526020600020906003020160010160009054906101000a900473ffffffffffffffffffffffffffffffffffffffff1673ffffffffffffffffffffffffffffffffffffffff1614801561198457508573ffffffffffffffffffffffffffffffffffffffff166002828154811061193a576119396123d5565b5b906000526020600020906003020160000160009054906101000a900473ffffffffffffffffffffffffffffffffffffffff1673ffffffffffffffffffffffffffffffffffffffff16145b15611ad2576002818154811061199d5761199c6123d5565b5b906000526020600020906003020160000160009054906101000a900473ffffffffffffffffffffffffffffffffffffffff16600282815481106119e3576119e26123d5565b5b906000526020600020906003020160010160009054906101000a900473ffffffffffffffffffffffffffffffffffffffff1660028381548110611a2957611a286123d5565b5b9060005260206000209060030201600201808054611a4690612433565b80601f0160208091040260200160405190810160405280929190818152602001828054611a7290612433565b8015611abf5780601f10611a9457610100808354040283529160200191611abf565b820191906000526020600020905b815481529060010190602001808311611aa257829003601f168201915b5050505050905093509350935050611ae7565b8080611add9061254a565b915050611887565b505b9250925092565b828054611afa90612433565b90600052602060002090601f016020900481019282611b1c5760008555611b63565b82601f10611b3557805160ff1916838001178555611b63565b82800160010185558215611b63579182015b82811115611b62578251825591602001919060010190611b47565b5b509050611b709190611b74565b5090565b5b80821115611b8d576000816000905550600101611b75565b5090565b6000604051905090565b600080fd5b600080fd5b600073ffffffffffffffffffffffffffffffffffffffff82169050919050565b6000611bd082611ba5565b9050919050565b611be081611bc5565b8114611beb57600080fd5b50565b600081359050611bfd81611bd7565b92915050565b600080fd5b600080fd5b6000601f19601f8301169050919050565b7f4e487b7100000000000000000000000000000000000000000000000000000000600052604160045260246000fd5b611c5682611c0d565b810181811067ffffffffffffffff82111715611c7557611c74611c1e565b5b80604052505050565b6000611c88611b91565b9050611c948282611c4d565b919050565b600067ffffffffffffffff821115611cb457611cb3611c1e565b5b611cbd82611c0d565b9050602081019050919050565b82818337600083830152505050565b6000611cec611ce784611c99565b611c7e565b905082815260208101848484011115611d0857611d07611c08565b5b611d13848285611cca565b509392505050565b600082601f830112611d3057611d2f611c03565b5b8135611d40848260208601611cd9565b91505092915050565b60008060008060808587031215611d6357611d62611b9b565b5b6000611d7187828801611bee565b9450506020611d8287828801611bee565b935050604085013567ffffffffffffffff811115611da357611da2611ba0565b5b611daf87828801611d1b565b925050606085013567ffffffffffffffff811115611dd057611dcf611ba0565b5b611ddc87828801611d1b565b91505092959194509250565b600080600060608486031215611e0157611e00611b9b565b5b6000611e0f86828701611bee565b9350506020611e2086828701611bee565b925050604084013567ffffffffffffffff811115611e4157611e40611ba0565b5b611e4d86828701611d1b565b9150509250925092565b6000819050919050565b611e6a81611e57565b82525050565b6000602082019050611e856000830184611e61565b92915050565b611e9481611e57565b8114611e9f57600080fd5b50565b600081359050611eb181611e8b565b92915050565b600060208284031215611ecd57611ecc611b9b565b5b6000611edb84828501611ea2565b91505092915050565b611eed81611bc5565b82525050565b600081519050919050565b600082825260208201905092915050565b60005b83811015611f2d578082015181840152602081019050611f12565b83811115611f3c576000848401525b50505050565b6000611f4d82611ef3565b611f578185611efe565b9350611f67818560208601611f0f565b611f7081611c0d565b840191505092915050565b6000606082019050611f906000830186611ee4565b8181036020830152611fa28185611f42565b90508181036040830152611fb68184611f42565b9050949350505050565b600060208284031215611fd657611fd5611b9b565b5b6000611fe484828501611bee565b91505092915050565b600081519050919050565b600082825260208201905092915050565b6000819050602082019050919050565b61202281611bc5565b82525050565b60006120348383612019565b60208301905092915050565b6000602082019050919050565b600061205882611fed565b6120628185611ff8565b935061206d83612009565b8060005b8381101561209e5781516120858882612028565b975061209083612040565b925050600181019050612071565b5085935050505092915050565b600081519050919050565b600082825260208201905092915050565b6000819050602082019050919050565b600082825260208201905092915050565b60006120f382611ef3565b6120fd81856120d7565b935061210d818560208601611f0f565b61211681611c0d565b840191505092915050565b600061212d83836120e8565b905092915050565b6000602082019050919050565b600061214d826120ab565b61215781856120b6565b935083602082028501612169856120c7565b8060005b858110156121a557848403895281516121868582612121565b945061219183612135565b925060208a0199505060018101905061216d565b50829750879550505050505092915050565b600060a08201905081810360008301526121d1818861204d565b905081810360208301526121e5818761204d565b905081810360408301526121f98186612142565b9050818103606083015261220d8185612142565b905081810360808301526122218184612142565b90509695505050505050565b600060a0820190506122426000830188611ee4565b61224f6020830187611ee4565b81810360408301526122618186611f42565b905081810360608301526122758185611f42565b905081810360808301526122898184611f42565b90509695505050505050565b600060408201905081810360008301526122af8185612142565b905081810360208301526122c38184612142565b90509392505050565b6000806000606084860312156122e5576122e4611b9b565b5b60006122f386828701611bee565b935050602084013567ffffffffffffffff81111561231457612313611ba0565b5b61232086828701611d1b565b925050604084013567ffffffffffffffff81111561234157612340611ba0565b5b61234d86828701611d1b565b9150509250925092565b600060608201905061236c6000830186611ee4565b6123796020830185611ee4565b818103604083015261238b8184611f42565b9050949350505050565b600080604083850312156123ac576123ab611b9b565b5b60006123ba85828601611bee565b92505060206123cb85828601611bee565b9150509250929050565b7f4e487b7100000000000000000000000000000000000000000000000000000000600052603260045260246000fd5b7f4e487b7100000000000000000000000000000000000000000000000000000000600052602260045260246000fd5b6000600282049050600182168061244b57607f821691505b6020821081141561245f5761245e612404565b5b50919050565b600081905092915050565b60008190508160005260206000209050919050565b6000815461249281612433565b61249c8186612465565b945060018216600081146124b757600181146124c8576124fb565b60ff198316865281860193506124fb565b6124d185612470565b60005b838110156124f3578154818901526001820191506020810190506124d4565b838801955050505b50505092915050565b60006125108284612485565b915081905092915050565b7f4e487b7100000000000000000000000000000000000000000000000000000000600052601160045260246000fd5b600061255582611e57565b91507fffffffffffffffffffffffffffffffffffffffffffffffffffffffffffffffff8214156125885761258761251b565b5b60018201905091905056fea264697066735822122046e760f855caaea8b54ff025a4727c983a0e576b9e122beae6840f21c74cfbb264736f6c634300080b0033",
  "immutableReferences": {},
  "source": "// SPDX-License-Identifier: MIT\r\npragma solidity >=0.4.22 <0.9.0;\r\n\r\n// Lu tr CV\r\ncontract ApplyCV {\r\n\r\n    // Khai bo cu trc lu tr thng tin np CV\r\n    struct CV {\r\n        address studentOwner;\r\n        address businessOwner;\r\n        string jobTitle;\r\n        string coverLetter;\r\n        string statusCV;\r\n    }\r\n\r\n    // Khai bo cu trc lu tr thng tin tuyn dng\r\n    struct Recruit {\r\n        address businessOwner;\r\n        string jobTitle;\r\n        string jobDescription;\r\n    }\r\n\r\n    // Khai bo cu trc lu tr thng tin nh gi thc tp\r\n    struct Review {\r\n        address studentOwner;\r\n        address businessOwner;\r\n        string content;\r\n    }\r\n\r\n    // Khai bo cc mng  lu tr thng tin\r\n    CV[] public cvs;\r\n    Recruit[] public recruits;\r\n    Review[] public reviews;\r\n\r\n    // Chc nng np CV\r\n    function addCV(\r\n        address _studentOwner, \r\n        address _businessOwner, \r\n        string memory _jobTitle, \r\n        string memory _coverLetter) public {\r\n            cvs.push(CV(_studentOwner, _businessOwner, _jobTitle, _coverLetter, \"Screening\"));\r\n    }\r\n\r\n    // Chc nng kim tra sinh vin  np CV cha?\r\n    function checkCV(\r\n        address _studentOwner, \r\n        address _businessOwner, \r\n        string memory _jobTitle) public view returns(uint x) {\r\n            for(uint i=0; i<cvs.length; i++){\r\n                if((cvs[i].studentOwner == _studentOwner) && (cvs[i].businessOwner == _businessOwner) && (keccak256(bytes(cvs[i].jobTitle)) == keccak256(bytes(_jobTitle)))){\r\n                    return 1;\r\n                }\r\n            }\r\n    }\r\n\r\n    //Chc nng duyt CV vo vng interview\r\n    function interviewCV(\r\n        address _studentOwner, \r\n        address _businessOwner, \r\n        string memory _jobTitle,\r\n        string memory _statusCV) public {\r\n            for(uint i=0; i<cvs.length; i++){\r\n                if((cvs[i].studentOwner == _studentOwner) && (cvs[i].businessOwner == _businessOwner) && (keccak256(bytes(cvs[i].jobTitle)) == keccak256(bytes(_jobTitle)))){\r\n                    cvs[i].statusCV = _statusCV;\r\n                }\r\n            }\r\n    }\r\n\r\n    //Chc nng duyt CV vo vng onboard\r\n    function onboardCV(\r\n        address _studentOwner, \r\n        address _businessOwner, \r\n        string memory _jobTitle,\r\n        string memory _statusCV) public {\r\n            for(uint i=0; i<cvs.length; i++){\r\n                if((cvs[i].studentOwner == _studentOwner) && (cvs[i].businessOwner == _businessOwner) && (keccak256(bytes(cvs[i].jobTitle)) == keccak256(bytes(_jobTitle)))){\r\n                    cvs[i].statusCV = _statusCV;\r\n                }\r\n            }\r\n    }\r\n\r\n    // Chc nng ly danh sch CV theo doanh nghip\r\n    function getCV(address _businessOwner) public view returns(\r\n        address[] memory, \r\n        address[] memory, \r\n        string[] memory, \r\n        string[] memory,\r\n        string[] memory)  {\r\n            address[] memory studentOwners = new address[](cvs.length);\r\n            address[] memory businessOwners = new address[](cvs.length);\r\n            string[] memory jobTitles = new string[](cvs.length);\r\n            string[] memory coverLetters = new string[](cvs.length);\r\n            string[] memory statusCVs = new string[](cvs.length);\r\n            for(uint i=0; i<cvs.length;i++){\r\n                if(cvs[i].businessOwner == _businessOwner) {\r\n                    studentOwners[i] = cvs[i].studentOwner;\r\n                    businessOwners[i] = cvs[i].businessOwner;\r\n                    jobTitles[i] = cvs[i].jobTitle;\r\n                    coverLetters[i] = cvs[i].coverLetter;\r\n                    statusCVs[i] = cvs[i].statusCV;\r\n                }\r\n            }\r\n            return (studentOwners, businessOwners, jobTitles, coverLetters, statusCVs);\r\n    }\r\n\r\n    // Chc nng thm thng tin tuyn dng\r\n    function addRecruit(\r\n        address _businessOwner,\r\n        string memory _jobTitle,\r\n        string memory _jobDescription) public {\r\n            recruits.push(Recruit(_businessOwner, _jobTitle, _jobDescription));\r\n    }\r\n\r\n    // Chc nng ly thng tin tuyn dng\r\n    function getRecruit(address _businessOwner) public view returns(\r\n        string[] memory, \r\n        string[] memory) {\r\n            string[] memory jobTitles = new string[](recruits.length);\r\n            string[] memory jobDescriptions = new string[](recruits.length);\r\n            for(uint i=0; i<recruits.length;i++){\r\n                if(recruits[i].businessOwner == _businessOwner) {\r\n                    jobTitles[i] = recruits[i].jobTitle;\r\n                    jobDescriptions[i] = recruits[i].jobDescription;\r\n                }\r\n            }\r\n            return (jobTitles, jobDescriptions);\r\n    }\r\n\r\n    // Chc nng lu tr nh gi thc tp ca tng sinh vin\r\n    function addReview(\r\n        address _studentOwner, \r\n        address _businessOwner, \r\n        string memory _content) public {\r\n            reviews.push(Review(_studentOwner, _businessOwner, _content));\r\n    }\r\n\r\n    // Chc nng ly thng tin nh gi thc tp\r\n    function getReview(\r\n        address _studentOwner, \r\n        address _businessOwner) public view returns(\r\n            address studentOwner, \r\n            address businessOwner, \r\n            string memory content)  {\r\n                for(uint i=0; i<reviews.length;i++){\r\n                    if(reviews[i].businessOwner == _businessOwner && reviews[i].studentOwner == _studentOwner) {\r\n                        return(reviews[i].studentOwner,\r\n                                reviews[i].businessOwner,\r\n                                reviews[i].content);\r\n                    }\r\n                }\r\n    }\r\n\r\n}",
  "sourcePath": "C:\\Users\\19520\\Documents\\NCKH_Blockchain\\SolidityProgramming\\ProjectResearch\\SmartCV\\SmartContract\\contracts\\SmartCV_Apply.sol",
  "compiler": {
    "name": "solc",
    "version": "0.8.11+commit.d7f03943.Emscripten.clang"
  },
  "schemaVersion": "3.4.4",
  "updatedAt": "2022-07-18T04:46:41.202Z",
  "devdoc": {
    "kind": "dev",
    "methods": {},
    "version": 1
  },
  "userdoc": {
    "kind": "user",
    "methods": {},
    "version": 1
  }
}