{
  "contractName": "ApplyCV",
  "abi": [
    {
      "inputs": [
        {
          "internalType": "uint256",
          "name": "",
          "type": "uint256"
        }
      ],
      "name": "cvs",
      "outputs": [
        {
          "internalType": "address",
          "name": "studentOwner",
          "type": "address"
        },
        {
          "internalType": "address",
          "name": "businessOwner",
          "type": "address"
        },
        {
          "internalType": "string",
          "name": "jobTitle",
          "type": "string"
        },
        {
          "internalType": "string",
          "name": "coverLetter",
          "type": "string"
        },
        {
          "internalType": "string",
          "name": "statusCV",
          "type": "string"
        }
      ],
      "stateMutability": "view",
      "type": "function"
    },
    {
      "inputs": [
        {
          "internalType": "uint256",
          "name": "",
          "type": "uint256"
        }
      ],
      "name": "recruits",
      "outputs": [
        {
          "internalType": "address",
          "name": "businessOwner",
          "type": "address"
        },
        {
          "internalType": "bytes32",
          "name": "codeRecruit",
          "type": "bytes32"
        },
        {
          "internalType": "string",
          "name": "jobTitle",
          "type": "string"
        },
        {
          "internalType": "string",
          "name": "jobDescription",
          "type": "string"
        },
        {
          "internalType": "string",
          "name": "recruitDate",
          "type": "string"
        },
        {
          "internalType": "uint256",
          "name": "amount",
          "type": "uint256"
        }
      ],
      "stateMutability": "view",
      "type": "function"
    },
    {
      "inputs": [
        {
          "internalType": "uint256",
          "name": "",
          "type": "uint256"
        }
      ],
      "name": "reviews",
      "outputs": [
        {
          "internalType": "address",
          "name": "studentOwner",
          "type": "address"
        },
        {
          "internalType": "address",
          "name": "businessOwner",
          "type": "address"
        },
        {
          "internalType": "string",
          "name": "content",
          "type": "string"
        }
      ],
      "stateMutability": "view",
      "type": "function"
    },
    {
      "inputs": [
        {
          "internalType": "address",
          "name": "_studentOwner",
          "type": "address"
        },
        {
          "internalType": "address",
          "name": "_businessOwner",
          "type": "address"
        },
        {
          "internalType": "string",
          "name": "_jobTitle",
          "type": "string"
        },
        {
          "internalType": "string",
          "name": "_coverLetter",
          "type": "string"
        }
      ],
      "name": "addCV",
      "outputs": [],
      "stateMutability": "nonpayable",
      "type": "function"
    },
    {
      "inputs": [
        {
          "internalType": "address",
          "name": "_studentOwner",
          "type": "address"
        },
        {
          "internalType": "address",
          "name": "_businessOwner",
          "type": "address"
        },
        {
          "internalType": "string",
          "name": "_jobTitle",
          "type": "string"
        }
      ],
      "name": "checkCV",
      "outputs": [
        {
          "internalType": "uint256",
          "name": "x",
          "type": "uint256"
        }
      ],
      "stateMutability": "view",
      "type": "function"
    },
    {
      "inputs": [
        {
          "internalType": "address",
          "name": "_studentOwner",
          "type": "address"
        },
        {
          "internalType": "address",
          "name": "_businessOwner",
          "type": "address"
        },
        {
          "internalType": "string",
          "name": "_jobTitle",
          "type": "string"
        },
        {
          "internalType": "string",
          "name": "_statusCV",
          "type": "string"
        }
      ],
      "name": "interviewCV",
      "outputs": [],
      "stateMutability": "nonpayable",
      "type": "function"
    },
    {
      "inputs": [
        {
          "internalType": "address",
          "name": "_studentOwner",
          "type": "address"
        },
        {
          "internalType": "address",
          "name": "_businessOwner",
          "type": "address"
        },
        {
          "internalType": "string",
          "name": "_jobTitle",
          "type": "string"
        },
        {
          "internalType": "string",
          "name": "_statusCV",
          "type": "string"
        }
      ],
      "name": "onboardCV",
      "outputs": [],
      "stateMutability": "nonpayable",
      "type": "function"
    },
    {
      "inputs": [
        {
          "internalType": "address",
          "name": "_businessOwner",
          "type": "address"
        }
      ],
      "name": "getCV",
      "outputs": [
        {
          "internalType": "address[]",
          "name": "",
          "type": "address[]"
        },
        {
          "internalType": "address[]",
          "name": "",
          "type": "address[]"
        },
        {
          "internalType": "string[]",
          "name": "",
          "type": "string[]"
        },
        {
          "internalType": "string[]",
          "name": "",
          "type": "string[]"
        },
        {
          "internalType": "string[]",
          "name": "",
          "type": "string[]"
        }
      ],
      "stateMutability": "view",
      "type": "function"
    },
    {
      "inputs": [
        {
          "internalType": "address",
          "name": "_businessOwner",
          "type": "address"
        }
      ],
      "name": "checkNumCV",
      "outputs": [
        {
          "internalType": "uint256",
          "name": "x",
          "type": "uint256"
        }
      ],
      "stateMutability": "view",
      "type": "function"
    },
    {
      "inputs": [
        {
          "internalType": "address",
          "name": "_businessOwner",
          "type": "address"
        },
        {
          "internalType": "string",
          "name": "_jobTitle",
          "type": "string"
        },
        {
          "internalType": "string",
          "name": "_jobDescription",
          "type": "string"
        },
        {
          "internalType": "string",
          "name": "_recruitDate",
          "type": "string"
        },
        {
          "internalType": "uint256",
          "name": "_amount",
          "type": "uint256"
        }
      ],
      "name": "addRecruit",
      "outputs": [],
      "stateMutability": "nonpayable",
      "type": "function"
    },
    {
      "inputs": [
        {
          "internalType": "address",
          "name": "_businessOwner",
          "type": "address"
        },
        {
          "internalType": "string",
          "name": "_jobTitle",
          "type": "string"
        },
        {
          "internalType": "string",
          "name": "_recruitDate",
          "type": "string"
        }
      ],
      "name": "checkAmountRecruit",
      "outputs": [
        {
          "internalType": "uint256",
          "name": "x",
          "type": "uint256"
        }
      ],
      "stateMutability": "view",
      "type": "function"
    },
    {
      "inputs": [
        {
          "internalType": "address",
          "name": "_businessOwner",
          "type": "address"
        }
      ],
      "name": "getRecruit",
      "outputs": [
        {
          "internalType": "bytes32[]",
          "name": "",
          "type": "bytes32[]"
        },
        {
          "internalType": "string[]",
          "name": "",
          "type": "string[]"
        },
        {
          "internalType": "string[]",
          "name": "",
          "type": "string[]"
        },
        {
          "internalType": "string[]",
          "name": "",
          "type": "string[]"
        },
        {
          "internalType": "uint256[]",
          "name": "",
          "type": "uint256[]"
        }
      ],
      "stateMutability": "view",
      "type": "function"
    },
    {
      "inputs": [
        {
          "internalType": "address",
          "name": "_studentOwner",
          "type": "address"
        },
        {
          "internalType": "address",
          "name": "_businessOwner",
          "type": "address"
        },
        {
          "internalType": "string",
          "name": "_content",
          "type": "string"
        }
      ],
      "name": "addReview",
      "outputs": [],
      "stateMutability": "nonpayable",
      "type": "function"
    },
    {
      "inputs": [
        {
          "internalType": "address",
          "name": "_studentOwner",
          "type": "address"
        },
        {
          "internalType": "address",
          "name": "_businessOwner",
          "type": "address"
        }
      ],
      "name": "getReview",
      "outputs": [
        {
          "internalType": "address",
          "name": "studentOwner",
          "type": "address"
        },
        {
          "internalType": "address",
          "name": "businessOwner",
          "type": "address"
        },
        {
          "internalType": "string",
          "name": "content",
          "type": "string"
        }
      ],
      "stateMutability": "view",
      "type": "function"
    }
  ],
  "bytecode": "0x608060405234801561001057600080fd5b50612f49806100206000396000f3fe608060405234801561001057600080fd5b50600436106100e95760003560e01c8063ae8f00d31161008c578063dc1e475f11610066578063dc1e475f146102a3578063e83ddcea146102bf578063e9daa70a146102f1578063f7a7b83d14610323576100e9565b8063ae8f00d314610223578063ce1ec5bb1461023f578063dae7debd14610273576100e9565b8063381a3bf7116100c8578063381a3bf71461016f5780637aedcde5146101a3578063844bb460146101d757806386b87ba2146101f3576100e9565b80624e56cf146100ee5780630299779f1461010a5780630b5e50ed1461013a575b600080fd5b6101086004803603810190610103919061233f565b61033f565b005b610124600480360381019061011f91906123de565b6104e4565b6040516101319190612466565b60405180910390f35b610154600480360381019061014f91906124ad565b61065f565b6040516101669695949392919061258a565b60405180910390f35b61018960048036038101906101849190612600565b610863565b60405161019a9594939291906127f7565b60405180910390f35b6101bd60048036038101906101b891906124ad565b610e54565b6040516101ce95949392919061286d565b60405180910390f35b6101f160048036038101906101ec919061233f565b611072565b005b61020d600480360381019061020891906128d5565b611217565b60405161021a9190612466565b60405180910390f35b61023d600480360381019061023891906123de565b611347565b005b61025960048036038101906102549190612600565b61146b565b60405161026a959493929190612adc565b60405180910390f35b61028d60048036038101906102889190612600565b6119c5565b60405161029a9190612466565b60405180910390f35b6102bd60048036038101906102b8919061233f565b611a82565b005b6102d960048036038101906102d491906124ad565b611c22565b6040516102e893929190612b52565b60405180910390f35b61030b60048036038101906103069190612b90565b611d24565b60405161031a93929190612b52565b60405180910390f35b61033d60048036038101906103389190612bd0565b611f93565b005b60005b6000805490508110156104dd578473ffffffffffffffffffffffffffffffffffffffff166000828154811061037a57610379612c9f565b5b906000526020600020906005020160000160009054906101000a900473ffffffffffffffffffffffffffffffffffffffff1673ffffffffffffffffffffffffffffffffffffffff1614801561043f57508373ffffffffffffffffffffffffffffffffffffffff16600082815481106103f5576103f4612c9f565b5b906000526020600020906005020160010160009054906101000a900473ffffffffffffffffffffffffffffffffffffffff1673ffffffffffffffffffffffffffffffffffffffff16145b801561048a575082805190602001206000828154811061046257610461612c9f565b5b90600052602060002090600502016002016040516104809190612dce565b6040518091039020145b156104ca5781600082815481106104a4576104a3612c9f565b5b906000526020600020906005020160040190805190602001906104c89291906120e4565b505b80806104d590612e14565b915050610342565b5050505050565b600080600090505b600080549050811015610656578473ffffffffffffffffffffffffffffffffffffffff166000828154811061052457610523612c9f565b5b906000526020600020906005020160000160009054906101000a900473ffffffffffffffffffffffffffffffffffffffff1673ffffffffffffffffffffffffffffffffffffffff161480156105e957508373ffffffffffffffffffffffffffffffffffffffff166000828154811061059f5761059e612c9f565b5b906000526020600020906005020160010160009054906101000a900473ffffffffffffffffffffffffffffffffffffffff1673ffffffffffffffffffffffffffffffffffffffff16145b8015610634575082805190602001206000828154811061060c5761060b612c9f565b5b906000526020600020906005020160020160405161062a9190612dce565b6040518091039020145b15610643576001915050610658565b808061064e90612e14565b9150506104ec565b505b9392505050565b6001818154811061066f57600080fd5b90600052602060002090600602016000915090508060000160009054906101000a900473ffffffffffffffffffffffffffffffffffffffff16908060010154908060020180546106be90612cfd565b80601f01602080910402602001604051908101604052809291908181526020018280546106ea90612cfd565b80156107375780601f1061070c57610100808354040283529160200191610737565b820191906000526020600020905b81548152906001019060200180831161071a57829003601f168201915b50505050509080600301805461074c90612cfd565b80601f016020809104026020016040519081016040528092919081815260200182805461077890612cfd565b80156107c55780601f1061079a576101008083540402835291602001916107c5565b820191906000526020600020905b8154815290600101906020018083116107a857829003601f168201915b5050505050908060040180546107da90612cfd565b80601f016020809104026020016040519081016040528092919081815260200182805461080690612cfd565b80156108535780601f1061082857610100808354040283529160200191610853565b820191906000526020600020905b81548152906001019060200180831161083657829003601f168201915b5050505050908060050154905086565b60608060608060606000808054905067ffffffffffffffff81111561088b5761088a612214565b5b6040519080825280602002602001820160405280156108b95781602001602082028036833780820191505090505b5090506000808054905067ffffffffffffffff8111156108dc576108db612214565b5b60405190808252806020026020018201604052801561090a5781602001602082028036833780820191505090505b5090506000808054905067ffffffffffffffff81111561092d5761092c612214565b5b60405190808252806020026020018201604052801561096057816020015b606081526020019060019003908161094b5790505b5090506000808054905067ffffffffffffffff81111561098357610982612214565b5b6040519080825280602002602001820160405280156109b657816020015b60608152602001906001900390816109a15790505b5090506000808054905067ffffffffffffffff8111156109d9576109d8612214565b5b604051908082528060200260200182016040528015610a0c57816020015b60608152602001906001900390816109f75790505b50905060005b600080549050811015610e36578b73ffffffffffffffffffffffffffffffffffffffff1660008281548110610a4a57610a49612c9f565b5b906000526020600020906005020160010160009054906101000a900473ffffffffffffffffffffffffffffffffffffffff1673ffffffffffffffffffffffffffffffffffffffff161415610e235760008181548110610aac57610aab612c9f565b5b906000526020600020906005020160000160009054906101000a900473ffffffffffffffffffffffffffffffffffffffff16868281518110610af157610af0612c9f565b5b602002602001019073ffffffffffffffffffffffffffffffffffffffff16908173ffffffffffffffffffffffffffffffffffffffff168152505060008181548110610b3f57610b3e612c9f565b5b906000526020600020906005020160010160009054906101000a900473ffffffffffffffffffffffffffffffffffffffff16858281518110610b8457610b83612c9f565b5b602002602001019073ffffffffffffffffffffffffffffffffffffffff16908173ffffffffffffffffffffffffffffffffffffffff168152505060008181548110610bd257610bd1612c9f565b5b90600052602060002090600502016002018054610bee90612cfd565b80601f0160208091040260200160405190810160405280929190818152602001828054610c1a90612cfd565b8015610c675780601f10610c3c57610100808354040283529160200191610c67565b820191906000526020600020905b815481529060010190602001808311610c4a57829003601f168201915b5050505050848281518110610c7f57610c7e612c9f565b5b602002602001018190525060008181548110610c9e57610c9d612c9f565b5b90600052602060002090600502016003018054610cba90612cfd565b80601f0160208091040260200160405190810160405280929190818152602001828054610ce690612cfd565b8015610d335780601f10610d0857610100808354040283529160200191610d33565b820191906000526020600020905b815481529060010190602001808311610d1657829003601f168201915b5050505050838281518110610d4b57610d4a612c9f565b5b602002602001018190525060008181548110610d6a57610d69612c9f565b5b90600052602060002090600502016004018054610d8690612cfd565b80601f0160208091040260200160405190810160405280929190818152602001828054610db290612cfd565b8015610dff5780601f10610dd457610100808354040283529160200191610dff565b820191906000526020600020905b815481529060010190602001808311610de257829003601f168201915b5050505050828281518110610e1757610e16612c9f565b5b60200260200101819052505b8080610e2e90612e14565b915050610a12565b50848484848499509950995099509950505050505091939590929450565b60008181548110610e6457600080fd5b90600052602060002090600502016000915090508060000160009054906101000a900473ffffffffffffffffffffffffffffffffffffffff16908060010160009054906101000a900473ffffffffffffffffffffffffffffffffffffffff1690806002018054610ed390612cfd565b80601f0160208091040260200160405190810160405280929190818152602001828054610eff90612cfd565b8015610f4c5780601f10610f2157610100808354040283529160200191610f4c565b820191906000526020600020905b815481529060010190602001808311610f2f57829003601f168201915b505050505090806003018054610f6190612cfd565b80601f0160208091040260200160405190810160405280929190818152602001828054610f8d90612cfd565b8015610fda5780601f10610faf57610100808354040283529160200191610fda565b820191906000526020600020905b815481529060010190602001808311610fbd57829003601f168201915b505050505090806004018054610fef90612cfd565b80601f016020809104026020016040519081016040528092919081815260200182805461101b90612cfd565b80156110685780601f1061103d57610100808354040283529160200191611068565b820191906000526020600020905b81548152906001019060200180831161104b57829003601f168201915b5050505050905085565b60005b600080549050811015611210578473ffffffffffffffffffffffffffffffffffffffff16600082815481106110ad576110ac612c9f565b5b906000526020600020906005020160000160009054906101000a900473ffffffffffffffffffffffffffffffffffffffff1673ffffffffffffffffffffffffffffffffffffffff1614801561117257508373ffffffffffffffffffffffffffffffffffffffff166000828154811061112857611127612c9f565b5b906000526020600020906005020160010160009054906101000a900473ffffffffffffffffffffffffffffffffffffffff1673ffffffffffffffffffffffffffffffffffffffff16145b80156111bd575082805190602001206000828154811061119557611194612c9f565b5b90600052602060002090600502016002016040516111b39190612dce565b6040518091039020145b156111fd5781600082815481106111d7576111d6612c9f565b5b906000526020600020906005020160040190805190602001906111fb9291906120e4565b505b808061120890612e14565b915050611075565b5050505050565b600080600090505b60018054905081101561133e578473ffffffffffffffffffffffffffffffffffffffff166001828154811061125757611256612c9f565b5b906000526020600020906006020160000160009054906101000a900473ffffffffffffffffffffffffffffffffffffffff1673ffffffffffffffffffffffffffffffffffffffff161480156112f8575083836040516020016112ba929190612e99565b60405160208183030381529060405280519060200120600182815481106112e4576112e3612c9f565b5b906000526020600020906006020160010154145b1561132b576001818154811061131157611310612c9f565b5b906000526020600020906006020160050154915050611340565b808061133690612e14565b91505061121f565b505b9392505050565b600260405180606001604052808573ffffffffffffffffffffffffffffffffffffffff1681526020018473ffffffffffffffffffffffffffffffffffffffff16815260200183815250908060018154018082558091505060019003906000526020600020906003020160009091909190915060008201518160000160006101000a81548173ffffffffffffffffffffffffffffffffffffffff021916908373ffffffffffffffffffffffffffffffffffffffff16021790555060208201518160010160006101000a81548173ffffffffffffffffffffffffffffffffffffffff021916908373ffffffffffffffffffffffffffffffffffffffff16021790555060408201518160020190805190602001906114639291906120e4565b505050505050565b6060806060806060600060018054905067ffffffffffffffff81111561149457611493612214565b5b6040519080825280602002602001820160405280156114c25781602001602082028036833780820191505090505b509050600060018054905067ffffffffffffffff8111156114e6576114e5612214565b5b60405190808252806020026020018201604052801561151957816020015b60608152602001906001900390816115045790505b509050600060018054905067ffffffffffffffff81111561153d5761153c612214565b5b60405190808252806020026020018201604052801561157057816020015b606081526020019060019003908161155b5790505b509050600060018054905067ffffffffffffffff81111561159457611593612214565b5b6040519080825280602002602001820160405280156115c757816020015b60608152602001906001900390816115b25790505b509050600060018054905067ffffffffffffffff8111156115eb576115ea612214565b5b6040519080825280602002602001820160405280156116195781602001602082028036833780820191505090505b50905060005b6001805490508110156119a7578b73ffffffffffffffffffffffffffffffffffffffff166001828154811061165757611656612c9f565b5b906000526020600020906006020160000160009054906101000a900473ffffffffffffffffffffffffffffffffffffffff1673ffffffffffffffffffffffffffffffffffffffff16141561199457600181815481106116b9576116b8612c9f565b5b9060005260206000209060060201600101548682815181106116de576116dd612c9f565b5b602002602001018181525050600181815481106116fe576116fd612c9f565b5b9060005260206000209060060201600201805461171a90612cfd565b80601f016020809104026020016040519081016040528092919081815260200182805461174690612cfd565b80156117935780601f1061176857610100808354040283529160200191611793565b820191906000526020600020905b81548152906001019060200180831161177657829003601f168201915b50505050508582815181106117ab576117aa612c9f565b5b6020026020010181905250600181815481106117ca576117c9612c9f565b5b906000526020600020906006020160030180546117e690612cfd565b80601f016020809104026020016040519081016040528092919081815260200182805461181290612cfd565b801561185f5780601f106118345761010080835404028352916020019161185f565b820191906000526020600020905b81548152906001019060200180831161184257829003601f168201915b505050505084828151811061187757611876612c9f565b5b60200260200101819052506001818154811061189657611895612c9f565b5b906000526020600020906006020160040180546118b290612cfd565b80601f01602080910402602001604051908101604052809291908181526020018280546118de90612cfd565b801561192b5780601f106119005761010080835404028352916020019161192b565b820191906000526020600020905b81548152906001019060200180831161190e57829003601f168201915b505050505083828151811061194357611942612c9f565b5b60200260200101819052506001818154811061196257611961612c9f565b5b90600052602060002090600602016005015482828151811061198757611986612c9f565b5b6020026020010181815250505b808061199f90612e14565b91505061161f565b50848484848499509950995099509950505050505091939590929450565b6000806000905060005b600080549050811015611a78578373ffffffffffffffffffffffffffffffffffffffff1660008281548110611a0757611a06612c9f565b5b906000526020600020906005020160010160009054906101000a900473ffffffffffffffffffffffffffffffffffffffff1673ffffffffffffffffffffffffffffffffffffffff161415611a6557600182611a629190612ebd565b91505b8080611a7090612e14565b9150506119cf565b5080915050919050565b60006040518060a001604052808673ffffffffffffffffffffffffffffffffffffffff1681526020018573ffffffffffffffffffffffffffffffffffffffff1681526020018481526020018381526020016040518060400160405280600981526020017f53637265656e696e670000000000000000000000000000000000000000000000815250815250908060018154018082558091505060019003906000526020600020906005020160009091909190915060008201518160000160006101000a81548173ffffffffffffffffffffffffffffffffffffffff021916908373ffffffffffffffffffffffffffffffffffffffff16021790555060208201518160010160006101000a81548173ffffffffffffffffffffffffffffffffffffffff021916908373ffffffffffffffffffffffffffffffffffffffff1602179055506040820151816002019080519060200190611bdf9291906120e4565b506060820151816003019080519060200190611bfc9291906120e4565b506080820151816004019080519060200190611c199291906120e4565b50505050505050565b60028181548110611c3257600080fd5b90600052602060002090600302016000915090508060000160009054906101000a900473ffffffffffffffffffffffffffffffffffffffff16908060010160009054906101000a900473ffffffffffffffffffffffffffffffffffffffff1690806002018054611ca190612cfd565b80601f0160208091040260200160405190810160405280929190818152602001828054611ccd90612cfd565b8015611d1a5780601f10611cef57610100808354040283529160200191611d1a565b820191906000526020600020905b815481529060010190602001808311611cfd57829003601f168201915b5050505050905083565b600080606060005b600280549050811015611f8a578473ffffffffffffffffffffffffffffffffffffffff1660028281548110611d6457611d63612c9f565b5b906000526020600020906003020160010160009054906101000a900473ffffffffffffffffffffffffffffffffffffffff1673ffffffffffffffffffffffffffffffffffffffff16148015611e2957508573ffffffffffffffffffffffffffffffffffffffff1660028281548110611ddf57611dde612c9f565b5b906000526020600020906003020160000160009054906101000a900473ffffffffffffffffffffffffffffffffffffffff1673ffffffffffffffffffffffffffffffffffffffff16145b15611f775760028181548110611e4257611e41612c9f565b5b906000526020600020906003020160000160009054906101000a900473ffffffffffffffffffffffffffffffffffffffff1660028281548110611e8857611e87612c9f565b5b906000526020600020906003020160010160009054906101000a900473ffffffffffffffffffffffffffffffffffffffff1660028381548110611ece57611ecd612c9f565b5b9060005260206000209060030201600201808054611eeb90612cfd565b80601f0160208091040260200160405190810160405280929190818152602001828054611f1790612cfd565b8015611f645780601f10611f3957610100808354040283529160200191611f64565b820191906000526020600020905b815481529060010190602001808311611f4757829003601f168201915b5050505050905093509350935050611f8c565b8080611f8290612e14565b915050611d2c565b505b9250925092565b60016040518060c001604052808773ffffffffffffffffffffffffffffffffffffffff1681526020018685604051602001611fcf929190612e99565b60405160208183030381529060405280519060200120815260200186815260200185815260200184815260200183815250908060018154018082558091505060019003906000526020600020906006020160009091909190915060008201518160000160006101000a81548173ffffffffffffffffffffffffffffffffffffffff021916908373ffffffffffffffffffffffffffffffffffffffff1602179055506020820151816001015560408201518160020190805190602001906120969291906120e4565b5060608201518160030190805190602001906120b39291906120e4565b5060808201518160040190805190602001906120d09291906120e4565b5060a0820151816005015550505050505050565b8280546120f090612cfd565b90600052602060002090601f0160209004810192826121125760008555612159565b82601f1061212b57805160ff1916838001178555612159565b82800160010185558215612159579182015b8281111561215857825182559160200191906001019061213d565b5b509050612166919061216a565b5090565b5b8082111561218357600081600090555060010161216b565b5090565b6000604051905090565b600080fd5b600080fd5b600073ffffffffffffffffffffffffffffffffffffffff82169050919050565b60006121c68261219b565b9050919050565b6121d6816121bb565b81146121e157600080fd5b50565b6000813590506121f3816121cd565b92915050565b600080fd5b600080fd5b6000601f19601f8301169050919050565b7f4e487b7100000000000000000000000000000000000000000000000000000000600052604160045260246000fd5b61224c82612203565b810181811067ffffffffffffffff8211171561226b5761226a612214565b5b80604052505050565b600061227e612187565b905061228a8282612243565b919050565b600067ffffffffffffffff8211156122aa576122a9612214565b5b6122b382612203565b9050602081019050919050565b82818337600083830152505050565b60006122e26122dd8461228f565b612274565b9050828152602081018484840111156122fe576122fd6121fe565b5b6123098482856122c0565b509392505050565b600082601f830112612326576123256121f9565b5b81356123368482602086016122cf565b91505092915050565b6000806000806080858703121561235957612358612191565b5b6000612367878288016121e4565b9450506020612378878288016121e4565b935050604085013567ffffffffffffffff81111561239957612398612196565b5b6123a587828801612311565b925050606085013567ffffffffffffffff8111156123c6576123c5612196565b5b6123d287828801612311565b91505092959194509250565b6000806000606084860312156123f7576123f6612191565b5b6000612405868287016121e4565b9350506020612416868287016121e4565b925050604084013567ffffffffffffffff81111561243757612436612196565b5b61244386828701612311565b9150509250925092565b6000819050919050565b6124608161244d565b82525050565b600060208201905061247b6000830184612457565b92915050565b61248a8161244d565b811461249557600080fd5b50565b6000813590506124a781612481565b92915050565b6000602082840312156124c3576124c2612191565b5b60006124d184828501612498565b91505092915050565b6124e3816121bb565b82525050565b6000819050919050565b6124fc816124e9565b82525050565b600081519050919050565b600082825260208201905092915050565b60005b8381101561253c578082015181840152602081019050612521565b8381111561254b576000848401525b50505050565b600061255c82612502565b612566818561250d565b935061257681856020860161251e565b61257f81612203565b840191505092915050565b600060c08201905061259f60008301896124da565b6125ac60208301886124f3565b81810360408301526125be8187612551565b905081810360608301526125d28186612551565b905081810360808301526125e68185612551565b90506125f560a0830184612457565b979650505050505050565b60006020828403121561261657612615612191565b5b6000612624848285016121e4565b91505092915050565b600081519050919050565b600082825260208201905092915050565b6000819050602082019050919050565b612662816121bb565b82525050565b60006126748383612659565b60208301905092915050565b6000602082019050919050565b60006126988261262d565b6126a28185612638565b93506126ad83612649565b8060005b838110156126de5781516126c58882612668565b97506126d083612680565b9250506001810190506126b1565b5085935050505092915050565b600081519050919050565b600082825260208201905092915050565b6000819050602082019050919050565b600082825260208201905092915050565b600061273382612502565b61273d8185612717565b935061274d81856020860161251e565b61275681612203565b840191505092915050565b600061276d8383612728565b905092915050565b6000602082019050919050565b600061278d826126eb565b61279781856126f6565b9350836020820285016127a985612707565b8060005b858110156127e557848403895281516127c68582612761565b94506127d183612775565b925060208a019950506001810190506127ad565b50829750879550505050505092915050565b600060a0820190508181036000830152612811818861268d565b90508181036020830152612825818761268d565b905081810360408301526128398186612782565b9050818103606083015261284d8185612782565b905081810360808301526128618184612782565b90509695505050505050565b600060a08201905061288260008301886124da565b61288f60208301876124da565b81810360408301526128a18186612551565b905081810360608301526128b58185612551565b905081810360808301526128c98184612551565b90509695505050505050565b6000806000606084860312156128ee576128ed612191565b5b60006128fc868287016121e4565b935050602084013567ffffffffffffffff81111561291d5761291c612196565b5b61292986828701612311565b925050604084013567ffffffffffffffff81111561294a57612949612196565b5b61295686828701612311565b9150509250925092565b600081519050919050565b600082825260208201905092915050565b6000819050602082019050919050565b612995816124e9565b82525050565b60006129a7838361298c565b60208301905092915050565b6000602082019050919050565b60006129cb82612960565b6129d5818561296b565b93506129e08361297c565b8060005b83811015612a115781516129f8888261299b565b9750612a03836129b3565b9250506001810190506129e4565b5085935050505092915050565b600081519050919050565b600082825260208201905092915050565b6000819050602082019050919050565b612a538161244d565b82525050565b6000612a658383612a4a565b60208301905092915050565b6000602082019050919050565b6000612a8982612a1e565b612a938185612a29565b9350612a9e83612a3a565b8060005b83811015612acf578151612ab68882612a59565b9750612ac183612a71565b925050600181019050612aa2565b5085935050505092915050565b600060a0820190508181036000830152612af681886129c0565b90508181036020830152612b0a8187612782565b90508181036040830152612b1e8186612782565b90508181036060830152612b328185612782565b90508181036080830152612b468184612a7e565b90509695505050505050565b6000606082019050612b6760008301866124da565b612b7460208301856124da565b8181036040830152612b868184612551565b9050949350505050565b60008060408385031215612ba757612ba6612191565b5b6000612bb5858286016121e4565b9250506020612bc6858286016121e4565b9150509250929050565b600080600080600060a08688031215612bec57612beb612191565b5b6000612bfa888289016121e4565b955050602086013567ffffffffffffffff811115612c1b57612c1a612196565b5b612c2788828901612311565b945050604086013567ffffffffffffffff811115612c4857612c47612196565b5b612c5488828901612311565b935050606086013567ffffffffffffffff811115612c7557612c74612196565b5b612c8188828901612311565b9250506080612c9288828901612498565b9150509295509295909350565b7f4e487b7100000000000000000000000000000000000000000000000000000000600052603260045260246000fd5b7f4e487b7100000000000000000000000000000000000000000000000000000000600052602260045260246000fd5b60006002820490506001821680612d1557607f821691505b60208210811415612d2957612d28612cce565b5b50919050565b600081905092915050565b60008190508160005260206000209050919050565b60008154612d5c81612cfd565b612d668186612d2f565b94506001821660008114612d815760018114612d9257612dc5565b60ff19831686528186019350612dc5565b612d9b85612d3a565b60005b83811015612dbd57815481890152600182019150602081019050612d9e565b838801955050505b50505092915050565b6000612dda8284612d4f565b915081905092915050565b7f4e487b7100000000000000000000000000000000000000000000000000000000600052601160045260246000fd5b6000612e1f8261244d565b91507fffffffffffffffffffffffffffffffffffffffffffffffffffffffffffffffff821415612e5257612e51612de5565b5b600182019050919050565b600081905092915050565b6000612e7382612502565b612e7d8185612e5d565b9350612e8d81856020860161251e565b80840191505092915050565b6000612ea58285612e68565b9150612eb18284612e68565b91508190509392505050565b6000612ec88261244d565b9150612ed38361244d565b9250827fffffffffffffffffffffffffffffffffffffffffffffffffffffffffffffffff03821115612f0857612f07612de5565b5b82820190509291505056fea264697066735822122068aa446e0a6dd2f15e350182de69e7b934713a4462984fc4897ac8e5ea6347b864736f6c634300080b0033",
  "immutableReferences": {},
  "source": "// SPDX-License-Identifier: MIT\r\npragma solidity >=0.4.22 <0.9.0;\r\n\r\n// Lu tr CV\r\ncontract ApplyCV {\r\n\r\n    // Khai bo cu trc lu tr thng tin np CV\r\n    struct CV {\r\n        address studentOwner;\r\n        address businessOwner;\r\n        string jobTitle;\r\n        string coverLetter;\r\n        string statusCV;\r\n    }\r\n\r\n    // Khai bo cu trc lu tr thng tin tuyn dng\r\n    struct Recruit {\r\n        address businessOwner;\r\n        bytes32 codeRecruit;\r\n        string jobTitle;\r\n        string jobDescription;\r\n        string recruitDate;\r\n        uint amount;\r\n    }\r\n\r\n    // Khai bo cu trc lu tr thng tin nh gi thc tp\r\n    struct Review {\r\n        address studentOwner;\r\n        address businessOwner;\r\n        string content;\r\n    }\r\n\r\n    // Khai bo cc mng  lu tr thng tin\r\n    CV[] public cvs;\r\n    Recruit[] public recruits;\r\n    Review[] public reviews;\r\n\r\n    // Chc nng np CV\r\n    function addCV(\r\n        address _studentOwner, \r\n        address _businessOwner, \r\n        string memory _jobTitle, \r\n        string memory _coverLetter) public {\r\n            cvs.push(\r\n                CV(_studentOwner,\r\n                    _businessOwner,\r\n                    _jobTitle,\r\n                    _coverLetter,\r\n                    \"Screening\")\r\n                );\r\n    }\r\n\r\n    // Chc nng kim tra sinh vin  np CV cha?\r\n    function checkCV(\r\n        address _studentOwner, \r\n        address _businessOwner, \r\n        string memory _jobTitle) public view returns(uint x) {\r\n            for(uint i=0; i<cvs.length; i++){\r\n                if((cvs[i].studentOwner == _studentOwner) && (cvs[i].businessOwner == _businessOwner) && (keccak256(bytes(cvs[i].jobTitle)) == keccak256(bytes(_jobTitle)))){\r\n                    return 1;\r\n                }\r\n            }\r\n    }\r\n\r\n    //Chc nng duyt CV vo vng interview\r\n    function interviewCV(\r\n        address _studentOwner, \r\n        address _businessOwner, \r\n        string memory _jobTitle,\r\n        string memory _statusCV) public {\r\n            for(uint i=0; i<cvs.length; i++){\r\n                if((cvs[i].studentOwner == _studentOwner) && (cvs[i].businessOwner == _businessOwner) && (keccak256(bytes(cvs[i].jobTitle)) == keccak256(bytes(_jobTitle)))){\r\n                    cvs[i].statusCV = _statusCV;\r\n                }\r\n            }\r\n    }\r\n\r\n    //Chc nng duyt CV vo vng onboard\r\n    function onboardCV(\r\n        address _studentOwner, \r\n        address _businessOwner, \r\n        string memory _jobTitle,\r\n        string memory _statusCV) public {\r\n            for(uint i=0; i<cvs.length; i++){\r\n                if((cvs[i].studentOwner == _studentOwner) && (cvs[i].businessOwner == _businessOwner) && (keccak256(bytes(cvs[i].jobTitle)) == keccak256(bytes(_jobTitle)))){\r\n                    cvs[i].statusCV = _statusCV;\r\n                }\r\n            }\r\n    }\r\n\r\n    // Chc nng ly danh sch CV theo doanh nghip\r\n    function getCV(address _businessOwner) public view returns(\r\n        address[] memory, \r\n        address[] memory, \r\n        string[] memory, \r\n        string[] memory,\r\n        string[] memory)  {\r\n            address[] memory studentOwners = new address[](cvs.length);\r\n            address[] memory businessOwners = new address[](cvs.length);\r\n            string[] memory jobTitles = new string[](cvs.length);\r\n            string[] memory coverLetters = new string[](cvs.length);\r\n            string[] memory statusCVs = new string[](cvs.length);\r\n            for(uint i=0; i<cvs.length;i++){\r\n                if(cvs[i].businessOwner == _businessOwner) {\r\n                    studentOwners[i] = cvs[i].studentOwner;\r\n                    businessOwners[i] = cvs[i].businessOwner;\r\n                    jobTitles[i] = cvs[i].jobTitle;\r\n                    coverLetters[i] = cvs[i].coverLetter;\r\n                    statusCVs[i] = cvs[i].statusCV;\r\n                }\r\n            }\r\n            return (studentOwners, businessOwners, jobTitles, coverLetters, statusCVs);\r\n    }\r\n\r\n    // Chc nng kim tra s lng CV np vo theo doanh nghip\r\n    function checkNumCV(address _businessOwner) public view returns(uint x) {\r\n            uint _count = 0;\r\n            for(uint i=0; i<cvs.length; i++){\r\n                if(cvs[i].businessOwner == _businessOwner){\r\n                    _count += 1;\r\n                }\r\n            }\r\n            return _count;\r\n    }\r\n\r\n    // Chc nng thm thng tin tuyn dng\r\n    function addRecruit(\r\n        address _businessOwner,\r\n        string memory _jobTitle,\r\n        string memory _jobDescription,\r\n        string memory _recruitDate,\r\n        uint _amount) public {\r\n            recruits.push(\r\n                Recruit(_businessOwner,\r\n                        keccak256(bytes(string(abi.encodePacked(_jobTitle, _recruitDate)))),\r\n                        _jobTitle,\r\n                        _jobDescription,\r\n                        _recruitDate,\r\n                        _amount)\r\n                );\r\n    }\r\n\r\n    // Chc nng kim tra s lng tuyn dng\r\n    function checkAmountRecruit(\r\n        address _businessOwner,\r\n        string memory _jobTitle,\r\n        string memory _recruitDate) public view returns(uint x) {\r\n            for(uint i=0; i<recruits.length; i++){\r\n                if((recruits[i].businessOwner == _businessOwner) && (recruits[i].codeRecruit == keccak256(bytes(string(abi.encodePacked(_jobTitle, _recruitDate)))))){\r\n                    return recruits[i].amount;\r\n                }\r\n            }\r\n    }\r\n\r\n    // Chc nng ly thng tin tuyn dng\r\n    function getRecruit(address _businessOwner) public view returns(\r\n        bytes32[] memory,\r\n        string[] memory, \r\n        string[] memory,\r\n        string[] memory,\r\n        uint[] memory) {\r\n            bytes32[] memory codeRecruits = new bytes32[](recruits.length);\r\n            string[] memory jobTitles = new string[](recruits.length);\r\n            string[] memory jobDescriptions = new string[](recruits.length);\r\n            string[] memory recruitDates = new string[](recruits.length);\r\n            uint[] memory amounts = new uint[](recruits.length);\r\n            for(uint i=0; i<recruits.length;i++){\r\n                if(recruits[i].businessOwner == _businessOwner) {\r\n                    codeRecruits[i] = recruits[i].codeRecruit;\r\n                    jobTitles[i] = recruits[i].jobTitle;\r\n                    jobDescriptions[i] = recruits[i].jobDescription;\r\n                    recruitDates[i] = recruits[i].recruitDate;\r\n                    amounts[i] = recruits[i].amount;\r\n                }\r\n            }\r\n            return (codeRecruits, jobTitles, jobDescriptions, recruitDates, amounts);\r\n    }\r\n\r\n    // Chc nng lu tr nh gi thc tp ca tng sinh vin\r\n    function addReview(\r\n        address _studentOwner, \r\n        address _businessOwner, \r\n        string memory _content) public {\r\n            reviews.push(\r\n                Review(_studentOwner, \r\n                        _businessOwner, \r\n                        _content)\r\n                );\r\n    }\r\n\r\n    // Chc nng ly thng tin nh gi thc tp\r\n    function getReview(\r\n        address _studentOwner, \r\n        address _businessOwner) public view returns(\r\n            address studentOwner, \r\n            address businessOwner, \r\n            string memory content)  {\r\n                for(uint i=0; i<reviews.length;i++){\r\n                    if(reviews[i].businessOwner == _businessOwner && reviews[i].studentOwner == _studentOwner) {\r\n                        return(reviews[i].studentOwner,\r\n                                reviews[i].businessOwner,\r\n                                reviews[i].content);\r\n                    }\r\n                }\r\n    }\r\n}",
  "sourcePath": "C:\\Users\\19520\\Documents\\NCKH_Blockchain\\SolidityProgramming\\ProjectResearch\\SmartCV\\SmartContract\\contracts\\SmartCV_Apply.sol",
  "compiler": {
    "name": "solc",
    "version": "0.8.11+commit.d7f03943.Emscripten.clang"
  },
  "schemaVersion": "3.4.4",
  "updatedAt": "2022-07-27T14:33:50.531Z",
  "devdoc": {
    "kind": "dev",
    "methods": {},
    "version": 1
  },
  "userdoc": {
    "kind": "user",
    "methods": {},
    "version": 1
  }
}