{
  "contractName": "ApplyCV",
  "abi": [
    {
      "inputs": [
        {
          "internalType": "uint256",
          "name": "",
          "type": "uint256"
        }
      ],
      "name": "cvs",
      "outputs": [
        {
          "internalType": "address",
          "name": "studentOwner",
          "type": "address"
        },
        {
          "internalType": "address",
          "name": "businessOwner",
          "type": "address"
        }
      ],
      "stateMutability": "view",
      "type": "function"
    },
    {
      "inputs": [
        {
          "internalType": "address",
          "name": "_studentOwner",
          "type": "address"
        },
        {
          "internalType": "address",
          "name": "_businessOwner",
          "type": "address"
        }
      ],
      "name": "addCV",
      "outputs": [],
      "stateMutability": "nonpayable",
      "type": "function"
    },
    {
      "inputs": [
        {
          "internalType": "address",
          "name": "_businessOwner",
          "type": "address"
        }
      ],
      "name": "getCV",
      "outputs": [
        {
          "internalType": "address[]",
          "name": "",
          "type": "address[]"
        },
        {
          "internalType": "address[]",
          "name": "",
          "type": "address[]"
        }
      ],
      "stateMutability": "view",
      "type": "function"
    }
  ],
  "bytecode": "0x608060405234801561001057600080fd5b5061081a806100206000396000f3fe608060405234801561001057600080fd5b50600436106100415760003560e01c80630b88dd5514610046578063381a3bf7146100625780637aedcde514610093575b600080fd5b610060600480360381019061005b9190610511565b6100c4565b005b61007c60048036038101906100779190610551565b6101c4565b60405161008a92919061063c565b60405180910390f35b6100ad60048036038101906100a891906106a9565b61043a565b6040516100bb9291906106e5565b60405180910390f35b600060405180604001604052808473ffffffffffffffffffffffffffffffffffffffff1681526020018373ffffffffffffffffffffffffffffffffffffffff16815250908060018154018082558091505060019003906000526020600020906002020160009091909190915060008201518160000160006101000a81548173ffffffffffffffffffffffffffffffffffffffff021916908373ffffffffffffffffffffffffffffffffffffffff16021790555060208201518160010160006101000a81548173ffffffffffffffffffffffffffffffffffffffff021916908373ffffffffffffffffffffffffffffffffffffffff16021790555050505050565b6060806000808054905067ffffffffffffffff8111156101e7576101e661070e565b5b6040519080825280602002602001820160405280156102155781602001602082028036833780820191505090505b5090506000808054905067ffffffffffffffff8111156102385761023761070e565b5b6040519080825280602002602001820160405280156102665781602001602082028036833780820191505090505b50905060005b60008054905081101561042c578573ffffffffffffffffffffffffffffffffffffffff16600082815481106102a4576102a361073d565b5b906000526020600020906002020160010160009054906101000a900473ffffffffffffffffffffffffffffffffffffffff1673ffffffffffffffffffffffffffffffffffffffff16141561041957600081815481106103065761030561073d565b5b906000526020600020906002020160000160009054906101000a900473ffffffffffffffffffffffffffffffffffffffff1683828151811061034b5761034a61073d565b5b602002602001019073ffffffffffffffffffffffffffffffffffffffff16908173ffffffffffffffffffffffffffffffffffffffff1681525050600081815481106103995761039861073d565b5b906000526020600020906002020160010160009054906101000a900473ffffffffffffffffffffffffffffffffffffffff168282815181106103de576103dd61073d565b5b602002602001019073ffffffffffffffffffffffffffffffffffffffff16908173ffffffffffffffffffffffffffffffffffffffff16815250505b80806104249061079b565b91505061026c565b508181935093505050915091565b6000818154811061044a57600080fd5b90600052602060002090600202016000915090508060000160009054906101000a900473ffffffffffffffffffffffffffffffffffffffff16908060010160009054906101000a900473ffffffffffffffffffffffffffffffffffffffff16905082565b600080fd5b600073ffffffffffffffffffffffffffffffffffffffff82169050919050565b60006104de826104b3565b9050919050565b6104ee816104d3565b81146104f957600080fd5b50565b60008135905061050b816104e5565b92915050565b60008060408385031215610528576105276104ae565b5b6000610536858286016104fc565b9250506020610547858286016104fc565b9150509250929050565b600060208284031215610567576105666104ae565b5b6000610575848285016104fc565b91505092915050565b600081519050919050565b600082825260208201905092915050565b6000819050602082019050919050565b6105b3816104d3565b82525050565b60006105c583836105aa565b60208301905092915050565b6000602082019050919050565b60006105e98261057e565b6105f38185610589565b93506105fe8361059a565b8060005b8381101561062f57815161061688826105b9565b9750610621836105d1565b925050600181019050610602565b5085935050505092915050565b6000604082019050818103600083015261065681856105de565b9050818103602083015261066a81846105de565b90509392505050565b6000819050919050565b61068681610673565b811461069157600080fd5b50565b6000813590506106a38161067d565b92915050565b6000602082840312156106bf576106be6104ae565b5b60006106cd84828501610694565b91505092915050565b6106df816104d3565b82525050565b60006040820190506106fa60008301856106d6565b61070760208301846106d6565b9392505050565b7f4e487b7100000000000000000000000000000000000000000000000000000000600052604160045260246000fd5b7f4e487b7100000000000000000000000000000000000000000000000000000000600052603260045260246000fd5b7f4e487b7100000000000000000000000000000000000000000000000000000000600052601160045260246000fd5b60006107a682610673565b91507fffffffffffffffffffffffffffffffffffffffffffffffffffffffffffffffff8214156107d9576107d861076c565b5b60018201905091905056fea26469706673582212201914c2b4b8eeb4a8559abbea39de69718a04f4acd604df6fb7aad5567a98f3d564736f6c634300080b0033",
  "immutableReferences": {},
  "source": "// SPDX-License-Identifier: MIT\r\npragma solidity >=0.4.22 <0.9.0;\r\n\r\n//Lu tr CV\r\ncontract ApplyCV {\r\n    struct CV {\r\n        address studentOwner;\r\n        address businessOwner;\r\n    }\r\n\r\n    // struct Review {\r\n    //     address _owner;\r\n    //     address _b_owner;\r\n    //     string _content;\r\n    // }\r\n\r\n    CV[] public cvs;\r\n    // Review[] public reviews;\r\n\r\n    //Nhn CV\r\n    function addCV (address _studentOwner, address _businessOwner) public {\r\n            cvs.push(CV(_studentOwner, _businessOwner));\r\n    }\r\n\r\n    //Ly danh sch CV theo doanh nghip\r\n    function getCV(address _businessOwner) public view returns(address[] memory, address[] memory)  {\r\n        address[] memory studentOwners = new address[](cvs.length);\r\n        address[] memory businessOwners = new address[](cvs.length);\r\n        for(uint i=0; i<cvs.length;i++){\r\n            if(cvs[i].businessOwner == _businessOwner) {\r\n                studentOwners[i] = cvs[i].studentOwner;\r\n                businessOwners[i] = cvs[i].businessOwner;\r\n            }\r\n        }\r\n        return (studentOwners, businessOwners);\r\n    }\r\n}",
  "sourcePath": "C:\\Users\\19520\\Documents\\NCKH_Blockchain\\SolidityProgramming\\ProjectResearch\\SmartCV\\SmartContract\\contracts\\SmartCV_Apply.sol",
  "compiler": {
    "name": "solc",
    "version": "0.8.11+commit.d7f03943.Emscripten.clang"
  },
  "schemaVersion": "3.4.4",
  "updatedAt": "2022-06-27T03:13:11.618Z",
  "devdoc": {
    "kind": "dev",
    "methods": {},
    "version": 1
  },
  "userdoc": {
    "kind": "user",
    "methods": {},
    "version": 1
  }
}