{
  "contractName": "ApplyCV",
  "abi": [
    {
      "inputs": [
        {
          "internalType": "uint256",
          "name": "",
          "type": "uint256"
        }
      ],
      "name": "cvs",
      "outputs": [
        {
          "internalType": "address",
          "name": "studentOwner",
          "type": "address"
        },
        {
          "internalType": "address",
          "name": "businessOwner",
          "type": "address"
        },
        {
          "internalType": "string",
          "name": "jobTitle",
          "type": "string"
        },
        {
          "internalType": "string",
          "name": "coverLetter",
          "type": "string"
        }
      ],
      "stateMutability": "view",
      "type": "function"
    },
    {
      "inputs": [
        {
          "internalType": "uint256",
          "name": "",
          "type": "uint256"
        }
      ],
      "name": "recruits",
      "outputs": [
        {
          "internalType": "address",
          "name": "businessOwner",
          "type": "address"
        },
        {
          "internalType": "string",
          "name": "jobTitle",
          "type": "string"
        },
        {
          "internalType": "string",
          "name": "jobDescription",
          "type": "string"
        }
      ],
      "stateMutability": "view",
      "type": "function"
    },
    {
      "inputs": [
        {
          "internalType": "uint256",
          "name": "",
          "type": "uint256"
        }
      ],
      "name": "reviews",
      "outputs": [
        {
          "internalType": "address",
          "name": "studentOwner",
          "type": "address"
        },
        {
          "internalType": "address",
          "name": "businessOwner",
          "type": "address"
        },
        {
          "internalType": "string",
          "name": "content",
          "type": "string"
        }
      ],
      "stateMutability": "view",
      "type": "function"
    },
    {
      "inputs": [
        {
          "internalType": "address",
          "name": "_studentOwner",
          "type": "address"
        },
        {
          "internalType": "address",
          "name": "_businessOwner",
          "type": "address"
        },
        {
          "internalType": "string",
          "name": "_jobTitle",
          "type": "string"
        },
        {
          "internalType": "string",
          "name": "_coverLetter",
          "type": "string"
        }
      ],
      "name": "addCV",
      "outputs": [],
      "stateMutability": "nonpayable",
      "type": "function"
    },
    {
      "inputs": [
        {
          "internalType": "address",
          "name": "_businessOwner",
          "type": "address"
        }
      ],
      "name": "getCV",
      "outputs": [
        {
          "internalType": "address[]",
          "name": "",
          "type": "address[]"
        },
        {
          "internalType": "address[]",
          "name": "",
          "type": "address[]"
        },
        {
          "internalType": "string[]",
          "name": "",
          "type": "string[]"
        },
        {
          "internalType": "string[]",
          "name": "",
          "type": "string[]"
        }
      ],
      "stateMutability": "view",
      "type": "function"
    },
    {
      "inputs": [
        {
          "internalType": "address",
          "name": "_businessOwner",
          "type": "address"
        },
        {
          "internalType": "string",
          "name": "_jobTitle",
          "type": "string"
        },
        {
          "internalType": "string",
          "name": "_jobDescription",
          "type": "string"
        }
      ],
      "name": "addRecruit",
      "outputs": [],
      "stateMutability": "nonpayable",
      "type": "function"
    },
    {
      "inputs": [
        {
          "internalType": "address",
          "name": "_businessOwner",
          "type": "address"
        }
      ],
      "name": "getRecruit",
      "outputs": [
        {
          "internalType": "string[]",
          "name": "",
          "type": "string[]"
        },
        {
          "internalType": "string[]",
          "name": "",
          "type": "string[]"
        }
      ],
      "stateMutability": "view",
      "type": "function"
    },
    {
      "inputs": [
        {
          "internalType": "address",
          "name": "_studentOwner",
          "type": "address"
        },
        {
          "internalType": "address",
          "name": "_businessOwner",
          "type": "address"
        },
        {
          "internalType": "string",
          "name": "_content",
          "type": "string"
        }
      ],
      "name": "addReview",
      "outputs": [],
      "stateMutability": "nonpayable",
      "type": "function"
    },
    {
      "inputs": [
        {
          "internalType": "address",
          "name": "_studentOwner",
          "type": "address"
        },
        {
          "internalType": "address",
          "name": "_businessOwner",
          "type": "address"
        }
      ],
      "name": "getReview",
      "outputs": [
        {
          "internalType": "address",
          "name": "studentOwner",
          "type": "address"
        },
        {
          "internalType": "address",
          "name": "businessOwner",
          "type": "address"
        },
        {
          "internalType": "string",
          "name": "content",
          "type": "string"
        }
      ],
      "stateMutability": "view",
      "type": "function"
    }
  ],
  "bytecode": "0x608060405234801561001057600080fd5b50611d60806100206000396000f3fe608060405234801561001057600080fd5b50600436106100935760003560e01c8063ce1ec5bb11610066578063ce1ec5bb1461014c578063cee5c7f31461017d578063dc1e475f14610199578063e83ddcea146101b5578063e9daa70a146101e757610093565b80630b5e50ed14610098578063381a3bf7146100ca5780637aedcde5146100fd578063ae8f00d314610130575b600080fd5b6100b260048036038101906100ad919061147c565b610219565b6040516100c193929190611583565b60405180910390f35b6100e460048036038101906100df91906115f4565b610383565b6040516100f494939291906117eb565b60405180910390f35b6101176004803603810190610112919061147c565b61084a565b604051610127949392919061184c565b60405180910390f35b61014a600480360381019061014591906119d4565b6109da565b005b610166600480360381019061016191906115f4565b610afe565b604051610174929190611a43565b60405180910390f35b61019760048036038101906101929190611a7a565b610df2565b005b6101b360048036038101906101ae9190611b05565b610ed6565b005b6101cf60048036038101906101ca919061147c565b61101e565b6040516101de93929190611ba4565b60405180910390f35b61020160048036038101906101fc9190611be2565b611120565b60405161021093929190611ba4565b60405180910390f35b6001818154811061022957600080fd5b90600052602060002090600302016000915090508060000160009054906101000a900473ffffffffffffffffffffffffffffffffffffffff169080600101805461027290611c51565b80601f016020809104026020016040519081016040528092919081815260200182805461029e90611c51565b80156102eb5780601f106102c0576101008083540402835291602001916102eb565b820191906000526020600020905b8154815290600101906020018083116102ce57829003601f168201915b50505050509080600201805461030090611c51565b80601f016020809104026020016040519081016040528092919081815260200182805461032c90611c51565b80156103795780601f1061034e57610100808354040283529160200191610379565b820191906000526020600020905b81548152906001019060200180831161035c57829003601f168201915b5050505050905083565b6060806060806000808054905067ffffffffffffffff8111156103a9576103a86118a9565b5b6040519080825280602002602001820160405280156103d75781602001602082028036833780820191505090505b5090506000808054905067ffffffffffffffff8111156103fa576103f96118a9565b5b6040519080825280602002602001820160405280156104285781602001602082028036833780820191505090505b5090506000808054905067ffffffffffffffff81111561044b5761044a6118a9565b5b60405190808252806020026020018201604052801561047e57816020015b60608152602001906001900390816104695790505b5090506000808054905067ffffffffffffffff8111156104a1576104a06118a9565b5b6040519080825280602002602001820160405280156104d457816020015b60608152602001906001900390816104bf5790505b50905060005b600080549050811015610832578973ffffffffffffffffffffffffffffffffffffffff166000828154811061051257610511611c83565b5b906000526020600020906004020160010160009054906101000a900473ffffffffffffffffffffffffffffffffffffffff1673ffffffffffffffffffffffffffffffffffffffff16141561081f576000818154811061057457610573611c83565b5b906000526020600020906004020160000160009054906101000a900473ffffffffffffffffffffffffffffffffffffffff168582815181106105b9576105b8611c83565b5b602002602001019073ffffffffffffffffffffffffffffffffffffffff16908173ffffffffffffffffffffffffffffffffffffffff16815250506000818154811061060757610606611c83565b5b906000526020600020906004020160010160009054906101000a900473ffffffffffffffffffffffffffffffffffffffff1684828151811061064c5761064b611c83565b5b602002602001019073ffffffffffffffffffffffffffffffffffffffff16908173ffffffffffffffffffffffffffffffffffffffff16815250506000818154811061069a57610699611c83565b5b906000526020600020906004020160020180546106b690611c51565b80601f01602080910402602001604051908101604052809291908181526020018280546106e290611c51565b801561072f5780601f106107045761010080835404028352916020019161072f565b820191906000526020600020905b81548152906001019060200180831161071257829003601f168201915b505050505083828151811061074757610746611c83565b5b60200260200101819052506000818154811061076657610765611c83565b5b9060005260206000209060040201600301805461078290611c51565b80601f01602080910402602001604051908101604052809291908181526020018280546107ae90611c51565b80156107fb5780601f106107d0576101008083540402835291602001916107fb565b820191906000526020600020905b8154815290600101906020018083116107de57829003601f168201915b505050505082828151811061081357610812611c83565b5b60200260200101819052505b808061082a90611ce1565b9150506104da565b50838383839750975097509750505050509193509193565b6000818154811061085a57600080fd5b90600052602060002090600402016000915090508060000160009054906101000a900473ffffffffffffffffffffffffffffffffffffffff16908060010160009054906101000a900473ffffffffffffffffffffffffffffffffffffffff16908060020180546108c990611c51565b80601f01602080910402602001604051908101604052809291908181526020018280546108f590611c51565b80156109425780601f1061091757610100808354040283529160200191610942565b820191906000526020600020905b81548152906001019060200180831161092557829003601f168201915b50505050509080600301805461095790611c51565b80601f016020809104026020016040519081016040528092919081815260200182805461098390611c51565b80156109d05780601f106109a5576101008083540402835291602001916109d0565b820191906000526020600020905b8154815290600101906020018083116109b357829003601f168201915b5050505050905084565b600260405180606001604052808573ffffffffffffffffffffffffffffffffffffffff1681526020018473ffffffffffffffffffffffffffffffffffffffff16815260200183815250908060018154018082558091505060019003906000526020600020906003020160009091909190915060008201518160000160006101000a81548173ffffffffffffffffffffffffffffffffffffffff021916908373ffffffffffffffffffffffffffffffffffffffff16021790555060208201518160010160006101000a81548173ffffffffffffffffffffffffffffffffffffffff021916908373ffffffffffffffffffffffffffffffffffffffff1602179055506040820151816002019080519060200190610af692919061138f565b505050505050565b606080600060018054905067ffffffffffffffff811115610b2257610b216118a9565b5b604051908082528060200260200182016040528015610b5557816020015b6060815260200190600190039081610b405790505b509050600060018054905067ffffffffffffffff811115610b7957610b786118a9565b5b604051908082528060200260200182016040528015610bac57816020015b6060815260200190600190039081610b975790505b50905060005b600180549050811015610de4578573ffffffffffffffffffffffffffffffffffffffff1660018281548110610bea57610be9611c83565b5b906000526020600020906003020160000160009054906101000a900473ffffffffffffffffffffffffffffffffffffffff1673ffffffffffffffffffffffffffffffffffffffff161415610dd15760018181548110610c4c57610c4b611c83565b5b90600052602060002090600302016001018054610c6890611c51565b80601f0160208091040260200160405190810160405280929190818152602001828054610c9490611c51565b8015610ce15780601f10610cb657610100808354040283529160200191610ce1565b820191906000526020600020905b815481529060010190602001808311610cc457829003601f168201915b5050505050838281518110610cf957610cf8611c83565b5b602002602001018190525060018181548110610d1857610d17611c83565b5b90600052602060002090600302016002018054610d3490611c51565b80601f0160208091040260200160405190810160405280929190818152602001828054610d6090611c51565b8015610dad5780601f10610d8257610100808354040283529160200191610dad565b820191906000526020600020905b815481529060010190602001808311610d9057829003601f168201915b5050505050828281518110610dc557610dc4611c83565b5b60200260200101819052505b8080610ddc90611ce1565b915050610bb2565b508181935093505050915091565b600160405180606001604052808573ffffffffffffffffffffffffffffffffffffffff16815260200184815260200183815250908060018154018082558091505060019003906000526020600020906003020160009091909190915060008201518160000160006101000a81548173ffffffffffffffffffffffffffffffffffffffff021916908373ffffffffffffffffffffffffffffffffffffffff1602179055506020820151816001019080519060200190610eb192919061138f565b506040820151816002019080519060200190610ece92919061138f565b505050505050565b600060405180608001604052808673ffffffffffffffffffffffffffffffffffffffff1681526020018573ffffffffffffffffffffffffffffffffffffffff16815260200184815260200183815250908060018154018082558091505060019003906000526020600020906004020160009091909190915060008201518160000160006101000a81548173ffffffffffffffffffffffffffffffffffffffff021916908373ffffffffffffffffffffffffffffffffffffffff16021790555060208201518160010160006101000a81548173ffffffffffffffffffffffffffffffffffffffff021916908373ffffffffffffffffffffffffffffffffffffffff1602179055506040820151816002019080519060200190610ff892919061138f565b50606082015181600301908051906020019061101592919061138f565b50505050505050565b6002818154811061102e57600080fd5b90600052602060002090600302016000915090508060000160009054906101000a900473ffffffffffffffffffffffffffffffffffffffff16908060010160009054906101000a900473ffffffffffffffffffffffffffffffffffffffff169080600201805461109d90611c51565b80601f01602080910402602001604051908101604052809291908181526020018280546110c990611c51565b80156111165780601f106110eb57610100808354040283529160200191611116565b820191906000526020600020905b8154815290600101906020018083116110f957829003601f168201915b5050505050905083565b600080606060005b600280549050811015611386578473ffffffffffffffffffffffffffffffffffffffff16600282815481106111605761115f611c83565b5b906000526020600020906003020160010160009054906101000a900473ffffffffffffffffffffffffffffffffffffffff1673ffffffffffffffffffffffffffffffffffffffff1614801561122557508573ffffffffffffffffffffffffffffffffffffffff16600282815481106111db576111da611c83565b5b906000526020600020906003020160000160009054906101000a900473ffffffffffffffffffffffffffffffffffffffff1673ffffffffffffffffffffffffffffffffffffffff16145b15611373576002818154811061123e5761123d611c83565b5b906000526020600020906003020160000160009054906101000a900473ffffffffffffffffffffffffffffffffffffffff166002828154811061128457611283611c83565b5b906000526020600020906003020160010160009054906101000a900473ffffffffffffffffffffffffffffffffffffffff16600283815481106112ca576112c9611c83565b5b90600052602060002090600302016002018080546112e790611c51565b80601f016020809104026020016040519081016040528092919081815260200182805461131390611c51565b80156113605780601f1061133557610100808354040283529160200191611360565b820191906000526020600020905b81548152906001019060200180831161134357829003601f168201915b5050505050905093509350935050611388565b808061137e90611ce1565b915050611128565b505b9250925092565b82805461139b90611c51565b90600052602060002090601f0160209004810192826113bd5760008555611404565b82601f106113d657805160ff1916838001178555611404565b82800160010185558215611404579182015b828111156114035782518255916020019190600101906113e8565b5b5090506114119190611415565b5090565b5b8082111561142e576000816000905550600101611416565b5090565b6000604051905090565b600080fd5b600080fd5b6000819050919050565b61145981611446565b811461146457600080fd5b50565b60008135905061147681611450565b92915050565b6000602082840312156114925761149161143c565b5b60006114a084828501611467565b91505092915050565b600073ffffffffffffffffffffffffffffffffffffffff82169050919050565b60006114d4826114a9565b9050919050565b6114e4816114c9565b82525050565b600081519050919050565b600082825260208201905092915050565b60005b83811015611524578082015181840152602081019050611509565b83811115611533576000848401525b50505050565b6000601f19601f8301169050919050565b6000611555826114ea565b61155f81856114f5565b935061156f818560208601611506565b61157881611539565b840191505092915050565b600060608201905061159860008301866114db565b81810360208301526115aa818561154a565b905081810360408301526115be818461154a565b9050949350505050565b6115d1816114c9565b81146115dc57600080fd5b50565b6000813590506115ee816115c8565b92915050565b60006020828403121561160a5761160961143c565b5b6000611618848285016115df565b91505092915050565b600081519050919050565b600082825260208201905092915050565b6000819050602082019050919050565b611656816114c9565b82525050565b6000611668838361164d565b60208301905092915050565b6000602082019050919050565b600061168c82611621565b611696818561162c565b93506116a18361163d565b8060005b838110156116d25781516116b9888261165c565b97506116c483611674565b9250506001810190506116a5565b5085935050505092915050565b600081519050919050565b600082825260208201905092915050565b6000819050602082019050919050565b600082825260208201905092915050565b6000611727826114ea565b611731818561170b565b9350611741818560208601611506565b61174a81611539565b840191505092915050565b6000611761838361171c565b905092915050565b6000602082019050919050565b6000611781826116df565b61178b81856116ea565b93508360208202850161179d856116fb565b8060005b858110156117d957848403895281516117ba8582611755565b94506117c583611769565b925060208a019950506001810190506117a1565b50829750879550505050505092915050565b600060808201905081810360008301526118058187611681565b905081810360208301526118198186611681565b9050818103604083015261182d8185611776565b905081810360608301526118418184611776565b905095945050505050565b600060808201905061186160008301876114db565b61186e60208301866114db565b8181036040830152611880818561154a565b90508181036060830152611894818461154a565b905095945050505050565b600080fd5b600080fd5b7f4e487b7100000000000000000000000000000000000000000000000000000000600052604160045260246000fd5b6118e182611539565b810181811067ffffffffffffffff82111715611900576118ff6118a9565b5b80604052505050565b6000611913611432565b905061191f82826118d8565b919050565b600067ffffffffffffffff82111561193f5761193e6118a9565b5b61194882611539565b9050602081019050919050565b82818337600083830152505050565b600061197761197284611924565b611909565b905082815260208101848484011115611993576119926118a4565b5b61199e848285611955565b509392505050565b600082601f8301126119bb576119ba61189f565b5b81356119cb848260208601611964565b91505092915050565b6000806000606084860312156119ed576119ec61143c565b5b60006119fb868287016115df565b9350506020611a0c868287016115df565b925050604084013567ffffffffffffffff811115611a2d57611a2c611441565b5b611a39868287016119a6565b9150509250925092565b60006040820190508181036000830152611a5d8185611776565b90508181036020830152611a718184611776565b90509392505050565b600080600060608486031215611a9357611a9261143c565b5b6000611aa1868287016115df565b935050602084013567ffffffffffffffff811115611ac257611ac1611441565b5b611ace868287016119a6565b925050604084013567ffffffffffffffff811115611aef57611aee611441565b5b611afb868287016119a6565b9150509250925092565b60008060008060808587031215611b1f57611b1e61143c565b5b6000611b2d878288016115df565b9450506020611b3e878288016115df565b935050604085013567ffffffffffffffff811115611b5f57611b5e611441565b5b611b6b878288016119a6565b925050606085013567ffffffffffffffff811115611b8c57611b8b611441565b5b611b98878288016119a6565b91505092959194509250565b6000606082019050611bb960008301866114db565b611bc660208301856114db565b8181036040830152611bd8818461154a565b9050949350505050565b60008060408385031215611bf957611bf861143c565b5b6000611c07858286016115df565b9250506020611c18858286016115df565b9150509250929050565b7f4e487b7100000000000000000000000000000000000000000000000000000000600052602260045260246000fd5b60006002820490506001821680611c6957607f821691505b60208210811415611c7d57611c7c611c22565b5b50919050565b7f4e487b7100000000000000000000000000000000000000000000000000000000600052603260045260246000fd5b7f4e487b7100000000000000000000000000000000000000000000000000000000600052601160045260246000fd5b6000611cec82611446565b91507fffffffffffffffffffffffffffffffffffffffffffffffffffffffffffffffff821415611d1f57611d1e611cb2565b5b60018201905091905056fea26469706673582212207928d5689544d31d4763b309ae201ae60d06df712b29da9b5ba3be75ac92ae2464736f6c634300080b0033",
  "immutableReferences": {},
  "source": "// SPDX-License-Identifier: MIT\r\npragma solidity >=0.4.22 <0.9.0;\r\n\r\n//Lu tr CV\r\ncontract ApplyCV {\r\n\r\n    //Khai bo cu trc lu tr thng tin np CV\r\n    struct CV {\r\n        address studentOwner;\r\n        address businessOwner;\r\n        string jobTitle;\r\n        string coverLetter;\r\n    }\r\n\r\n    //Khai bo cu trc lu tr thng tin tuyn dng\r\n    struct Recruit {\r\n        address businessOwner;\r\n        string jobTitle;\r\n        string jobDescription;\r\n    }\r\n\r\n    //Khai bo cu trc lu tr thng tin nh gi thc tp\r\n    struct Review {\r\n        address studentOwner;\r\n        address businessOwner;\r\n        string content;\r\n    }\r\n\r\n    //Khai bo cc mng  lu tr thng tin\r\n    CV[] public cvs;\r\n    Recruit[] public recruits;\r\n    Review[] public reviews;\r\n\r\n    //Chc nng np CV\r\n    function addCV (\r\n        address _studentOwner, \r\n        address _businessOwner, \r\n        string memory _jobTitle, \r\n        string memory _coverLetter) public {\r\n            cvs.push(CV(_studentOwner, _businessOwner, _jobTitle, _coverLetter));\r\n    }\r\n\r\n    //Chc nng ly danh sch CV theo doanh nghip\r\n    function getCV(address _businessOwner) public view returns(\r\n        address[] memory, \r\n        address[] memory, \r\n        string[] memory, \r\n        string[] memory)  {\r\n            address[] memory studentOwners = new address[](cvs.length);\r\n            address[] memory businessOwners = new address[](cvs.length);\r\n            string[] memory jobTitles = new string[](cvs.length);\r\n            string[] memory coverLetters = new string[](cvs.length);\r\n            for(uint i=0; i<cvs.length;i++){\r\n                if(cvs[i].businessOwner == _businessOwner) {\r\n                    studentOwners[i] = cvs[i].studentOwner;\r\n                    businessOwners[i] = cvs[i].businessOwner;\r\n                    jobTitles[i] = cvs[i].jobTitle;\r\n                    coverLetters[i] = cvs[i].coverLetter;\r\n                }\r\n            }\r\n            return (studentOwners, businessOwners, jobTitles, coverLetters);\r\n    }\r\n\r\n    //Chc nng thm thng tin tuyn dng\r\n    function addRecruit (\r\n        address _businessOwner,\r\n        string memory _jobTitle,\r\n        string memory _jobDescription) public {\r\n            recruits.push(Recruit(_businessOwner, _jobTitle, _jobDescription));\r\n    }\r\n\r\n    //Chc nng ly thng tin tuyn dng\r\n    function getRecruit(address _businessOwner) public view returns(\r\n        string[] memory, \r\n        string[] memory) {\r\n            string[] memory jobTitles = new string[](recruits.length);\r\n            string[] memory jobDescriptions = new string[](recruits.length);\r\n            for(uint i=0; i<recruits.length;i++){\r\n                if(recruits[i].businessOwner == _businessOwner) {\r\n                    jobTitles[i] = recruits[i].jobTitle;\r\n                    jobDescriptions[i] = recruits[i].jobDescription;\r\n                }\r\n            }\r\n            return (jobTitles, jobDescriptions);\r\n    }\r\n\r\n    //Chc nng lu tr nh gi thc tp ca tng sinh vin\r\n    function addReview (\r\n        address _studentOwner, \r\n        address _businessOwner, \r\n        string memory _content) public {\r\n            reviews.push(Review(_studentOwner, _businessOwner, _content));\r\n    }\r\n\r\n    //Chc nng ly thng tin nh gi thc tp\r\n    function getReview(\r\n        address _studentOwner, \r\n        address _businessOwner) public view returns(\r\n            address studentOwner, \r\n            address businessOwner, \r\n            string memory content)  {\r\n                for(uint i=0; i<reviews.length;i++){\r\n                    if(reviews[i].businessOwner == _businessOwner && reviews[i].studentOwner == _studentOwner) {\r\n                        return(reviews[i].studentOwner,\r\n                                reviews[i].businessOwner,\r\n                                reviews[i].content);\r\n                    }\r\n                }\r\n    }\r\n\r\n}",
  "sourcePath": "C:\\Users\\19520\\Documents\\NCKH_Blockchain\\SolidityProgramming\\ProjectResearch\\SmartCV\\SmartContract\\contracts\\SmartCV_Apply.sol",
  "compiler": {
    "name": "solc",
    "version": "0.8.11+commit.d7f03943.Emscripten.clang"
  },
  "schemaVersion": "3.4.4",
  "updatedAt": "2022-07-10T08:52:21.681Z",
  "devdoc": {
    "kind": "dev",
    "methods": {},
    "version": 1
  },
  "userdoc": {
    "kind": "user",
    "methods": {},
    "version": 1
  }
}