{
  "contractName": "ListStudent",
  "abi": [
    {
      "inputs": [
        {
          "internalType": "uint256",
          "name": "",
          "type": "uint256"
        }
      ],
      "name": "listSVs",
      "outputs": [
        {
          "internalType": "address",
          "name": "studentOwner",
          "type": "address"
        },
        {
          "internalType": "string",
          "name": "name",
          "type": "string"
        },
        {
          "internalType": "string",
          "name": "birthDay",
          "type": "string"
        },
        {
          "internalType": "string",
          "name": "professionalTitle",
          "type": "string"
        },
        {
          "internalType": "string",
          "name": "email",
          "type": "string"
        },
        {
          "internalType": "string",
          "name": "github",
          "type": "string"
        },
        {
          "internalType": "string",
          "name": "linkedin",
          "type": "string"
        },
        {
          "internalType": "string",
          "name": "password",
          "type": "string"
        }
      ],
      "stateMutability": "view",
      "type": "function"
    },
    {
      "inputs": [
        {
          "internalType": "uint256",
          "name": "",
          "type": "uint256"
        }
      ],
      "name": "listSkills",
      "outputs": [
        {
          "internalType": "address",
          "name": "studentOwner",
          "type": "address"
        },
        {
          "internalType": "string",
          "name": "title",
          "type": "string"
        },
        {
          "internalType": "uint256",
          "name": "level",
          "type": "uint256"
        }
      ],
      "stateMutability": "view",
      "type": "function"
    },
    {
      "inputs": [
        {
          "internalType": "address",
          "name": "_studentOwner",
          "type": "address"
        },
        {
          "internalType": "string",
          "name": "_name",
          "type": "string"
        },
        {
          "internalType": "string",
          "name": "_birthDay",
          "type": "string"
        },
        {
          "internalType": "string",
          "name": "_professionalTitle",
          "type": "string"
        },
        {
          "internalType": "string",
          "name": "_email",
          "type": "string"
        },
        {
          "internalType": "string",
          "name": "_github",
          "type": "string"
        },
        {
          "internalType": "string",
          "name": "_linked",
          "type": "string"
        },
        {
          "internalType": "string",
          "name": "_password",
          "type": "string"
        }
      ],
      "name": "addSV",
      "outputs": [],
      "stateMutability": "nonpayable",
      "type": "function"
    },
    {
      "inputs": [],
      "name": "getListSV",
      "outputs": [
        {
          "internalType": "address[]",
          "name": "",
          "type": "address[]"
        },
        {
          "internalType": "string[]",
          "name": "",
          "type": "string[]"
        },
        {
          "internalType": "string[]",
          "name": "",
          "type": "string[]"
        },
        {
          "internalType": "string[]",
          "name": "",
          "type": "string[]"
        },
        {
          "internalType": "string[]",
          "name": "",
          "type": "string[]"
        },
        {
          "internalType": "string[]",
          "name": "",
          "type": "string[]"
        },
        {
          "internalType": "string[]",
          "name": "",
          "type": "string[]"
        },
        {
          "internalType": "string[]",
          "name": "",
          "type": "string[]"
        }
      ],
      "stateMutability": "view",
      "type": "function"
    },
    {
      "inputs": [
        {
          "internalType": "address",
          "name": "_studentOwner",
          "type": "address"
        }
      ],
      "name": "getProfile",
      "outputs": [
        {
          "internalType": "address",
          "name": "studentOwner",
          "type": "address"
        },
        {
          "internalType": "string",
          "name": "name",
          "type": "string"
        },
        {
          "internalType": "string",
          "name": "birthDay",
          "type": "string"
        },
        {
          "internalType": "string",
          "name": "professionalTitle",
          "type": "string"
        },
        {
          "internalType": "string",
          "name": "email",
          "type": "string"
        },
        {
          "internalType": "string",
          "name": "github",
          "type": "string"
        },
        {
          "internalType": "string",
          "name": "linkedin",
          "type": "string"
        },
        {
          "internalType": "string",
          "name": "password",
          "type": "string"
        }
      ],
      "stateMutability": "view",
      "type": "function"
    },
    {
      "inputs": [
        {
          "internalType": "address",
          "name": "_studentOwner",
          "type": "address"
        },
        {
          "internalType": "string",
          "name": "_password",
          "type": "string"
        }
      ],
      "name": "checkSV",
      "outputs": [
        {
          "internalType": "uint256",
          "name": "x",
          "type": "uint256"
        }
      ],
      "stateMutability": "view",
      "type": "function"
    },
    {
      "inputs": [
        {
          "internalType": "address",
          "name": "_studentOwner",
          "type": "address"
        }
      ],
      "name": "checkExistSV",
      "outputs": [
        {
          "internalType": "uint256",
          "name": "x",
          "type": "uint256"
        }
      ],
      "stateMutability": "view",
      "type": "function"
    },
    {
      "inputs": [
        {
          "internalType": "address",
          "name": "_studentOwner",
          "type": "address"
        },
        {
          "internalType": "string",
          "name": "_title",
          "type": "string"
        },
        {
          "internalType": "uint256",
          "name": "_level",
          "type": "uint256"
        }
      ],
      "name": "addSkill",
      "outputs": [],
      "stateMutability": "nonpayable",
      "type": "function"
    },
    {
      "inputs": [
        {
          "internalType": "address",
          "name": "_studentOwner",
          "type": "address"
        },
        {
          "internalType": "string",
          "name": "_title",
          "type": "string"
        }
      ],
      "name": "checkSkill",
      "outputs": [
        {
          "internalType": "uint256",
          "name": "x",
          "type": "uint256"
        }
      ],
      "stateMutability": "view",
      "type": "function"
    },
    {
      "inputs": [
        {
          "internalType": "address",
          "name": "_studentOwner",
          "type": "address"
        }
      ],
      "name": "checkNumSkill",
      "outputs": [
        {
          "internalType": "uint256",
          "name": "x",
          "type": "uint256"
        }
      ],
      "stateMutability": "view",
      "type": "function"
    },
    {
      "inputs": [
        {
          "internalType": "address",
          "name": "_studentOwner",
          "type": "address"
        }
      ],
      "name": "getSkill",
      "outputs": [
        {
          "internalType": "string[]",
          "name": "",
          "type": "string[]"
        },
        {
          "internalType": "uint256[]",
          "name": "",
          "type": "uint256[]"
        }
      ],
      "stateMutability": "view",
      "type": "function"
    }
  ],
  "bytecode": "0x608060405234801561001057600080fd5b50612c5a806100206000396000f3fe608060405234801561001057600080fd5b50600436106100a95760003560e01c8063716b5ab411610071578063716b5ab41461019a5780638e891393146101ca578063961ecb5b146101fa5780639fea8e101461022a578063ac4b204914610246578063d64b691314610277576100a9565b80630f53a470146100ae578063174ceeab146100e55780633aff2cc51461011557806360ccb204146101475780636704710714610163575b600080fd5b6100c860048036038101906100c39190612066565b61029c565b6040516100dc98979695949392919061213b565b60405180910390f35b6100ff60048036038101906100fa919061231f565b610885565b60405161010c9190612394565b60405180910390f35b61012f600480360381019061012a91906123db565b610983565b60405161013e93929190612408565b60405180910390f35b610161600480360381019061015c9190612446565b610a65565b005b61017d600480360381019061017891906123db565b610b87565b60405161019198979695949392919061213b565b60405180910390f35b6101b460048036038101906101af919061231f565b610fb7565b6040516101c19190612394565b60405180910390f35b6101e460048036038101906101df9190612066565b6110b5565b6040516101f19190612394565b60405180910390f35b610214600480360381019061020f9190612066565b611172565b6040516102219190612394565b60405180910390f35b610244600480360381019061023f91906124b5565b611224565b005b610260600480360381019061025b9190612066565b6113bd565b60405161026e9291906127f9565b60405180910390f35b61027f611625565b6040516102939897969594939291906128ee565b60405180910390f35b6000606080606080606080606060005b600080549050811015610878578973ffffffffffffffffffffffffffffffffffffffff16600082815481106102e4576102e36129a4565b5b906000526020600020906008020160000160009054906101000a900473ffffffffffffffffffffffffffffffffffffffff1673ffffffffffffffffffffffffffffffffffffffff1614156108655760008181548110610346576103456129a4565b5b906000526020600020906008020160000160009054906101000a900473ffffffffffffffffffffffffffffffffffffffff166000828154811061038c5761038b6129a4565b5b9060005260206000209060080201600101600083815481106103b1576103b06129a4565b5b9060005260206000209060080201600201600084815481106103d6576103d56129a4565b5b9060005260206000209060080201600301600085815481106103fb576103fa6129a4565b5b9060005260206000209060080201600401600086815481106104205761041f6129a4565b5b906000526020600020906008020160050160008781548110610445576104446129a4565b5b90600052602060002090600802016006016000888154811061046a576104696129a4565b5b906000526020600020906008020160070186805461048790612a02565b80601f01602080910402602001604051908101604052809291908181526020018280546104b390612a02565b80156105005780601f106104d557610100808354040283529160200191610500565b820191906000526020600020905b8154815290600101906020018083116104e357829003601f168201915b5050505050965085805461051390612a02565b80601f016020809104026020016040519081016040528092919081815260200182805461053f90612a02565b801561058c5780601f106105615761010080835404028352916020019161058c565b820191906000526020600020905b81548152906001019060200180831161056f57829003601f168201915b5050505050955084805461059f90612a02565b80601f01602080910402602001604051908101604052809291908181526020018280546105cb90612a02565b80156106185780601f106105ed57610100808354040283529160200191610618565b820191906000526020600020905b8154815290600101906020018083116105fb57829003601f168201915b5050505050945083805461062b90612a02565b80601f016020809104026020016040519081016040528092919081815260200182805461065790612a02565b80156106a45780601f10610679576101008083540402835291602001916106a4565b820191906000526020600020905b81548152906001019060200180831161068757829003601f168201915b505050505093508280546106b790612a02565b80601f01602080910402602001604051908101604052809291908181526020018280546106e390612a02565b80156107305780601f1061070557610100808354040283529160200191610730565b820191906000526020600020905b81548152906001019060200180831161071357829003601f168201915b5050505050925081805461074390612a02565b80601f016020809104026020016040519081016040528092919081815260200182805461076f90612a02565b80156107bc5780601f10610791576101008083540402835291602001916107bc565b820191906000526020600020905b81548152906001019060200180831161079f57829003601f168201915b505050505091508080546107cf90612a02565b80601f01602080910402602001604051908101604052809291908181526020018280546107fb90612a02565b80156108485780601f1061081d57610100808354040283529160200191610848565b820191906000526020600020905b81548152906001019060200180831161082b57829003601f168201915b50505050509050985098509850985098509850985098505061087a565b808061087090612a63565b9150506102ac565b505b919395975091939597565b600080600090505b60008054905081101561097b578373ffffffffffffffffffffffffffffffffffffffff16600082815481106108c5576108c46129a4565b5b906000526020600020906008020160000160009054906101000a900473ffffffffffffffffffffffffffffffffffffffff1673ffffffffffffffffffffffffffffffffffffffff161480156109595750828051906020012060008281548110610931576109306129a4565b5b906000526020600020906008020160070160405161094f9190612b4b565b6040518091039020145b1561096857600191505061097d565b808061097390612a63565b91505061088d565b505b92915050565b6001818154811061099357600080fd5b90600052602060002090600302016000915090508060000160009054906101000a900473ffffffffffffffffffffffffffffffffffffffff16908060010180546109dc90612a02565b80601f0160208091040260200160405190810160405280929190818152602001828054610a0890612a02565b8015610a555780601f10610a2a57610100808354040283529160200191610a55565b820191906000526020600020905b815481529060010190602001808311610a3857829003601f168201915b5050505050908060020154905083565b60008110158015610a77575060648111155b610ab6576040517f08c379a0000000000000000000000000000000000000000000000000000000008152600401610aad90612bae565b60405180910390fd5b600160405180606001604052808573ffffffffffffffffffffffffffffffffffffffff16815260200184815260200183815250908060018154018082558091505060019003906000526020600020906003020160009091909190915060008201518160000160006101000a81548173ffffffffffffffffffffffffffffffffffffffff021916908373ffffffffffffffffffffffffffffffffffffffff1602179055506020820151816001019080519060200190610b75929190611f51565b50604082015181600201555050505050565b60008181548110610b9757600080fd5b90600052602060002090600802016000915090508060000160009054906101000a900473ffffffffffffffffffffffffffffffffffffffff1690806001018054610be090612a02565b80601f0160208091040260200160405190810160405280929190818152602001828054610c0c90612a02565b8015610c595780601f10610c2e57610100808354040283529160200191610c59565b820191906000526020600020905b815481529060010190602001808311610c3c57829003601f168201915b505050505090806002018054610c6e90612a02565b80601f0160208091040260200160405190810160405280929190818152602001828054610c9a90612a02565b8015610ce75780601f10610cbc57610100808354040283529160200191610ce7565b820191906000526020600020905b815481529060010190602001808311610cca57829003601f168201915b505050505090806003018054610cfc90612a02565b80601f0160208091040260200160405190810160405280929190818152602001828054610d2890612a02565b8015610d755780601f10610d4a57610100808354040283529160200191610d75565b820191906000526020600020905b815481529060010190602001808311610d5857829003601f168201915b505050505090806004018054610d8a90612a02565b80601f0160208091040260200160405190810160405280929190818152602001828054610db690612a02565b8015610e035780601f10610dd857610100808354040283529160200191610e03565b820191906000526020600020905b815481529060010190602001808311610de657829003601f168201915b505050505090806005018054610e1890612a02565b80601f0160208091040260200160405190810160405280929190818152602001828054610e4490612a02565b8015610e915780601f10610e6657610100808354040283529160200191610e91565b820191906000526020600020905b815481529060010190602001808311610e7457829003601f168201915b505050505090806006018054610ea690612a02565b80601f0160208091040260200160405190810160405280929190818152602001828054610ed290612a02565b8015610f1f5780601f10610ef457610100808354040283529160200191610f1f565b820191906000526020600020905b815481529060010190602001808311610f0257829003601f168201915b505050505090806007018054610f3490612a02565b80601f0160208091040260200160405190810160405280929190818152602001828054610f6090612a02565b8015610fad5780601f10610f8257610100808354040283529160200191610fad565b820191906000526020600020905b815481529060010190602001808311610f9057829003601f168201915b5050505050905088565b600080600090505b6001805490508110156110ad578373ffffffffffffffffffffffffffffffffffffffff1660018281548110610ff757610ff66129a4565b5b906000526020600020906003020160000160009054906101000a900473ffffffffffffffffffffffffffffffffffffffff1673ffffffffffffffffffffffffffffffffffffffff1614801561108b5750828051906020012060018281548110611063576110626129a4565b5b90600052602060002090600302016001016040516110819190612b4b565b6040518091039020145b1561109a5760019150506110af565b80806110a590612a63565b915050610fbf565b505b92915050565b6000806000905060005b600180549050811015611168578373ffffffffffffffffffffffffffffffffffffffff16600182815481106110f7576110f66129a4565b5b906000526020600020906003020160000160009054906101000a900473ffffffffffffffffffffffffffffffffffffffff1673ffffffffffffffffffffffffffffffffffffffff161415611155576001826111529190612bce565b91505b808061116090612a63565b9150506110bf565b5080915050919050565b600080600090505b60008054905081101561121d578273ffffffffffffffffffffffffffffffffffffffff16600082815481106111b2576111b16129a4565b5b906000526020600020906008020160000160009054906101000a900473ffffffffffffffffffffffffffffffffffffffff1673ffffffffffffffffffffffffffffffffffffffff16141561120a57600191505061121f565b808061121590612a63565b91505061117a565b505b919050565b60006040518061010001604052808a73ffffffffffffffffffffffffffffffffffffffff16815260200189815260200188815260200187815260200186815260200185815260200184815260200183815250908060018154018082558091505060019003906000526020600020906008020160009091909190915060008201518160000160006101000a81548173ffffffffffffffffffffffffffffffffffffffff021916908373ffffffffffffffffffffffffffffffffffffffff1602179055506020820151816001019080519060200190611302929190611f51565b50604082015181600201908051906020019061131f929190611f51565b50606082015181600301908051906020019061133c929190611f51565b506080820151816004019080519060200190611359929190611f51565b5060a0820151816005019080519060200190611376929190611f51565b5060c0820151816006019080519060200190611393929190611f51565b5060e08201518160070190805190602001906113b0929190611f51565b5050505050505050505050565b606080600060018054905067ffffffffffffffff8111156113e1576113e06121f4565b5b60405190808252806020026020018201604052801561141457816020015b60608152602001906001900390816113ff5790505b509050600060018054905067ffffffffffffffff811115611438576114376121f4565b5b6040519080825280602002602001820160405280156114665781602001602082028036833780820191505090505b50905060005b600180549050811015611617578573ffffffffffffffffffffffffffffffffffffffff16600182815481106114a4576114a36129a4565b5b906000526020600020906003020160000160009054906101000a900473ffffffffffffffffffffffffffffffffffffffff1673ffffffffffffffffffffffffffffffffffffffff1614156116045760018181548110611506576115056129a4565b5b9060005260206000209060030201600101805461152290612a02565b80601f016020809104026020016040519081016040528092919081815260200182805461154e90612a02565b801561159b5780601f106115705761010080835404028352916020019161159b565b820191906000526020600020905b81548152906001019060200180831161157e57829003601f168201915b50505050508382815181106115b3576115b26129a4565b5b6020026020010181905250600181815481106115d2576115d16129a4565b5b9060005260206000209060030201600201548282815181106115f7576115f66129a4565b5b6020026020010181815250505b808061160f90612a63565b91505061146c565b508181935093505050915091565b6060806060806060806060806000808054905067ffffffffffffffff811115611651576116506121f4565b5b60405190808252806020026020018201604052801561167f5781602001602082028036833780820191505090505b5090506000808054905067ffffffffffffffff8111156116a2576116a16121f4565b5b6040519080825280602002602001820160405280156116d557816020015b60608152602001906001900390816116c05790505b5090506000808054905067ffffffffffffffff8111156116f8576116f76121f4565b5b60405190808252806020026020018201604052801561172b57816020015b60608152602001906001900390816117165790505b5090506000808054905067ffffffffffffffff81111561174e5761174d6121f4565b5b60405190808252806020026020018201604052801561178157816020015b606081526020019060019003908161176c5790505b5090506000808054905067ffffffffffffffff8111156117a4576117a36121f4565b5b6040519080825280602002602001820160405280156117d757816020015b60608152602001906001900390816117c25790505b5090506000808054905067ffffffffffffffff8111156117fa576117f96121f4565b5b60405190808252806020026020018201604052801561182d57816020015b60608152602001906001900390816118185790505b5090506000808054905067ffffffffffffffff8111156118505761184f6121f4565b5b60405190808252806020026020018201604052801561188357816020015b606081526020019060019003908161186e5790505b5090506000808054905067ffffffffffffffff8111156118a6576118a56121f4565b5b6040519080825280602002602001820160405280156118d957816020015b60608152602001906001900390816118c45790505b50905060005b600080549050811015611f265760008181548110611900576118ff6129a4565b5b906000526020600020906008020160000160009054906101000a900473ffffffffffffffffffffffffffffffffffffffff16898281518110611945576119446129a4565b5b602002602001019073ffffffffffffffffffffffffffffffffffffffff16908173ffffffffffffffffffffffffffffffffffffffff168152505060008181548110611993576119926129a4565b5b906000526020600020906008020160010180546119af90612a02565b80601f01602080910402602001604051908101604052809291908181526020018280546119db90612a02565b8015611a285780601f106119fd57610100808354040283529160200191611a28565b820191906000526020600020905b815481529060010190602001808311611a0b57829003601f168201915b5050505050888281518110611a4057611a3f6129a4565b5b602002602001018190525060008181548110611a5f57611a5e6129a4565b5b90600052602060002090600802016002018054611a7b90612a02565b80601f0160208091040260200160405190810160405280929190818152602001828054611aa790612a02565b8015611af45780601f10611ac957610100808354040283529160200191611af4565b820191906000526020600020905b815481529060010190602001808311611ad757829003601f168201915b5050505050878281518110611b0c57611b0b6129a4565b5b602002602001018190525060008181548110611b2b57611b2a6129a4565b5b90600052602060002090600802016003018054611b4790612a02565b80601f0160208091040260200160405190810160405280929190818152602001828054611b7390612a02565b8015611bc05780601f10611b9557610100808354040283529160200191611bc0565b820191906000526020600020905b815481529060010190602001808311611ba357829003601f168201915b5050505050868281518110611bd857611bd76129a4565b5b602002602001018190525060008181548110611bf757611bf66129a4565b5b90600052602060002090600802016004018054611c1390612a02565b80601f0160208091040260200160405190810160405280929190818152602001828054611c3f90612a02565b8015611c8c5780601f10611c6157610100808354040283529160200191611c8c565b820191906000526020600020905b815481529060010190602001808311611c6f57829003601f168201915b5050505050858281518110611ca457611ca36129a4565b5b602002602001018190525060008181548110611cc357611cc26129a4565b5b90600052602060002090600802016005018054611cdf90612a02565b80601f0160208091040260200160405190810160405280929190818152602001828054611d0b90612a02565b8015611d585780601f10611d2d57610100808354040283529160200191611d58565b820191906000526020600020905b815481529060010190602001808311611d3b57829003601f168201915b5050505050848281518110611d7057611d6f6129a4565b5b602002602001018190525060008181548110611d8f57611d8e6129a4565b5b90600052602060002090600802016006018054611dab90612a02565b80601f0160208091040260200160405190810160405280929190818152602001828054611dd790612a02565b8015611e245780601f10611df957610100808354040283529160200191611e24565b820191906000526020600020905b815481529060010190602001808311611e0757829003601f168201915b5050505050838281518110611e3c57611e3b6129a4565b5b602002602001018190525060008181548110611e5b57611e5a6129a4565b5b90600052602060002090600802016007018054611e7790612a02565b80601f0160208091040260200160405190810160405280929190818152602001828054611ea390612a02565b8015611ef05780601f10611ec557610100808354040283529160200191611ef0565b820191906000526020600020905b815481529060010190602001808311611ed357829003601f168201915b5050505050828281518110611f0857611f076129a4565b5b60200260200101819052508080611f1e90612a63565b9150506118df565b5087878787878787879f509f509f509f509f509f509f509f5050505050505050509091929394959697565b828054611f5d90612a02565b90600052602060002090601f016020900481019282611f7f5760008555611fc6565b82601f10611f9857805160ff1916838001178555611fc6565b82800160010185558215611fc6579182015b82811115611fc5578251825591602001919060010190611faa565b5b509050611fd39190611fd7565b5090565b5b80821115611ff0576000816000905550600101611fd8565b5090565b6000604051905090565b600080fd5b600080fd5b600073ffffffffffffffffffffffffffffffffffffffff82169050919050565b600061203382612008565b9050919050565b61204381612028565b811461204e57600080fd5b50565b6000813590506120608161203a565b92915050565b60006020828403121561207c5761207b611ffe565b5b600061208a84828501612051565b91505092915050565b61209c81612028565b82525050565b600081519050919050565b600082825260208201905092915050565b60005b838110156120dc5780820151818401526020810190506120c1565b838111156120eb576000848401525b50505050565b6000601f19601f8301169050919050565b600061210d826120a2565b61211781856120ad565b93506121278185602086016120be565b612130816120f1565b840191505092915050565b600061010082019050612151600083018b612093565b8181036020830152612163818a612102565b905081810360408301526121778189612102565b9050818103606083015261218b8188612102565b9050818103608083015261219f8187612102565b905081810360a08301526121b38186612102565b905081810360c08301526121c78185612102565b905081810360e08301526121db8184612102565b90509998505050505050505050565b600080fd5b600080fd5b7f4e487b7100000000000000000000000000000000000000000000000000000000600052604160045260246000fd5b61222c826120f1565b810181811067ffffffffffffffff8211171561224b5761224a6121f4565b5b80604052505050565b600061225e611ff4565b905061226a8282612223565b919050565b600067ffffffffffffffff82111561228a576122896121f4565b5b612293826120f1565b9050602081019050919050565b82818337600083830152505050565b60006122c26122bd8461226f565b612254565b9050828152602081018484840111156122de576122dd6121ef565b5b6122e98482856122a0565b509392505050565b600082601f830112612306576123056121ea565b5b81356123168482602086016122af565b91505092915050565b6000806040838503121561233657612335611ffe565b5b600061234485828601612051565b925050602083013567ffffffffffffffff81111561236557612364612003565b5b612371858286016122f1565b9150509250929050565b6000819050919050565b61238e8161237b565b82525050565b60006020820190506123a96000830184612385565b92915050565b6123b88161237b565b81146123c357600080fd5b50565b6000813590506123d5816123af565b92915050565b6000602082840312156123f1576123f0611ffe565b5b60006123ff848285016123c6565b91505092915050565b600060608201905061241d6000830186612093565b818103602083015261242f8185612102565b905061243e6040830184612385565b949350505050565b60008060006060848603121561245f5761245e611ffe565b5b600061246d86828701612051565b935050602084013567ffffffffffffffff81111561248e5761248d612003565b5b61249a868287016122f1565b92505060406124ab868287016123c6565b9150509250925092565b600080600080600080600080610100898b0312156124d6576124d5611ffe565b5b60006124e48b828c01612051565b985050602089013567ffffffffffffffff81111561250557612504612003565b5b6125118b828c016122f1565b975050604089013567ffffffffffffffff81111561253257612531612003565b5b61253e8b828c016122f1565b965050606089013567ffffffffffffffff81111561255f5761255e612003565b5b61256b8b828c016122f1565b955050608089013567ffffffffffffffff81111561258c5761258b612003565b5b6125988b828c016122f1565b94505060a089013567ffffffffffffffff8111156125b9576125b8612003565b5b6125c58b828c016122f1565b93505060c089013567ffffffffffffffff8111156125e6576125e5612003565b5b6125f28b828c016122f1565b92505060e089013567ffffffffffffffff81111561261357612612612003565b5b61261f8b828c016122f1565b9150509295985092959890939650565b600081519050919050565b600082825260208201905092915050565b6000819050602082019050919050565b600082825260208201905092915050565b6000612677826120a2565b612681818561265b565b93506126918185602086016120be565b61269a816120f1565b840191505092915050565b60006126b1838361266c565b905092915050565b6000602082019050919050565b60006126d18261262f565b6126db818561263a565b9350836020820285016126ed8561264b565b8060005b85811015612729578484038952815161270a85826126a5565b9450612715836126b9565b925060208a019950506001810190506126f1565b50829750879550505050505092915050565b600081519050919050565b600082825260208201905092915050565b6000819050602082019050919050565b6127708161237b565b82525050565b60006127828383612767565b60208301905092915050565b6000602082019050919050565b60006127a68261273b565b6127b08185612746565b93506127bb83612757565b8060005b838110156127ec5781516127d38882612776565b97506127de8361278e565b9250506001810190506127bf565b5085935050505092915050565b6000604082019050818103600083015261281381856126c6565b90508181036020830152612827818461279b565b90509392505050565b600081519050919050565b600082825260208201905092915050565b6000819050602082019050919050565b61286581612028565b82525050565b6000612877838361285c565b60208301905092915050565b6000602082019050919050565b600061289b82612830565b6128a5818561283b565b93506128b08361284c565b8060005b838110156128e15781516128c8888261286b565b97506128d383612883565b9250506001810190506128b4565b5085935050505092915050565b6000610100820190508181036000830152612909818b612890565b9050818103602083015261291d818a6126c6565b9050818103604083015261293181896126c6565b9050818103606083015261294581886126c6565b9050818103608083015261295981876126c6565b905081810360a083015261296d81866126c6565b905081810360c083015261298181856126c6565b905081810360e083015261299581846126c6565b90509998505050505050505050565b7f4e487b7100000000000000000000000000000000000000000000000000000000600052603260045260246000fd5b7f4e487b7100000000000000000000000000000000000000000000000000000000600052602260045260246000fd5b60006002820490506001821680612a1a57607f821691505b60208210811415612a2e57612a2d6129d3565b5b50919050565b7f4e487b7100000000000000000000000000000000000000000000000000000000600052601160045260246000fd5b6000612a6e8261237b565b91507fffffffffffffffffffffffffffffffffffffffffffffffffffffffffffffffff821415612aa157612aa0612a34565b5b600182019050919050565b600081905092915050565b60008190508160005260206000209050919050565b60008154612ad981612a02565b612ae38186612aac565b94506001821660008114612afe5760018114612b0f57612b42565b60ff19831686528186019350612b42565b612b1885612ab7565b60005b83811015612b3a57815481890152600182019150602081019050612b1b565b838801955050505b50505092915050565b6000612b578284612acc565b915081905092915050565b7f4c6576656c206f6620736b696c6c20696e636f72726563742e00000000000000600082015250565b6000612b986019836120ad565b9150612ba382612b62565b602082019050919050565b60006020820190508181036000830152612bc781612b8b565b9050919050565b6000612bd98261237b565b9150612be48361237b565b9250827fffffffffffffffffffffffffffffffffffffffffffffffffffffffffffffffff03821115612c1957612c18612a34565b5b82820190509291505056fea26469706673582212205b4ba4b72f765c63c94636c48eb316972c83d58b82d105f0efa9a2ddc2d66e2b64736f6c634300080b0033",
  "immutableReferences": {},
  "source": "// SPDX-License-Identifier: MIT\r\npragma solidity >=0.4.22 <0.9.0;\r\n\r\n// Lu tr danh sch sinh vin\r\ncontract ListStudent {\r\n\r\n    // Khai bo cu trc lu tr thng tin sinh vin\r\n    struct ListSV {\r\n        address studentOwner;\r\n        string name; \r\n        string birthDay; \r\n        string professionalTitle;\r\n        string email;\r\n        string github; \r\n        string linkedin;\r\n        string password;\r\n    }\r\n\r\n    // Khai bo cu trc lu tr thng tin k nng ca sinh vin\r\n    struct ListSkill {\r\n        address studentOwner;\r\n        string title; \r\n        uint level;\r\n    }\r\n\r\n    // Khai bo cc mng  lu tr thng tin\r\n    ListSV[] public listSVs;\r\n    ListSkill[] public listSkills;\r\n\r\n    // Chc nng thm thng tin sinh vin\r\n    function addSV (\r\n        address _studentOwner,\r\n        string memory _name,\r\n        string memory _birthDay,\r\n        string memory _professionalTitle,\r\n        string memory _email,\r\n        string memory _github,\r\n        string memory _linked,\r\n        string memory _password) public {\r\n            listSVs.push(\r\n                ListSV(_studentOwner, \r\n                        _name, \r\n                        _birthDay, \r\n                        _professionalTitle, \r\n                        _email, \r\n                        _github, \r\n                        _linked, \r\n                        _password)\r\n                );\r\n    }\r\n\r\n    // Chc nng ly danh sch sinh vin  thm\r\n    function getListSV() public view returns(\r\n        address[] memory, \r\n        string[] memory, \r\n        string[] memory, \r\n        string[] memory, \r\n        string[] memory, \r\n        string[] memory, \r\n        string[] memory, \r\n        string[] memory) {\r\n            address[] memory studentOwners = new address[](listSVs.length);\r\n            string[] memory names = new string[](listSVs.length);\r\n            string[] memory birthDays = new string[](listSVs.length);\r\n            string[] memory professionalTitles = new string[](listSVs.length);\r\n            string[] memory emails = new string[](listSVs.length);\r\n            string[] memory githubs = new string[](listSVs.length);\r\n            string[] memory linkedins = new string[](listSVs.length);\r\n            string[] memory passwords = new string[](listSVs.length);\r\n            for(uint i=0; i<listSVs.length;i++){\r\n                studentOwners[i] = listSVs[i].studentOwner;\r\n                names[i] = listSVs[i].name;\r\n                birthDays[i] = listSVs[i].birthDay;\r\n                professionalTitles[i] = listSVs[i].professionalTitle;\r\n                emails[i] = listSVs[i].email;\r\n                githubs[i] = listSVs[i].github;\r\n                linkedins[i] = listSVs[i].linkedin;\r\n                passwords[i] = listSVs[i].password;\r\n            }\r\n            return (studentOwners, names, birthDays, professionalTitles, emails, githubs, linkedins, passwords);\r\n    }\r\n\r\n    // Chc nng ly thng tin ca sinh vin\r\n    function getProfile(address _studentOwner) public view returns(\r\n        address studentOwner, \r\n        string memory name, \r\n        string memory birthDay, \r\n        string memory professionalTitle, \r\n        string memory email, \r\n        string memory github, \r\n        string memory linkedin,\r\n        string memory password) {\r\n            for(uint i=0; i<listSVs.length;i++){\r\n                if(listSVs[i].studentOwner == _studentOwner){\r\n                    return (listSVs[i].studentOwner,\r\n                            listSVs[i].name, \r\n                            listSVs[i].birthDay, \r\n                            listSVs[i].professionalTitle, \r\n                            listSVs[i].email, \r\n                            listSVs[i].github, \r\n                            listSVs[i].linkedin,\r\n                            listSVs[i].password);\r\n                }\r\n            }\r\n    }\r\n\r\n    // Chc nng kim tra sinh vin  ng k hay cha?\r\n    function checkSV(\r\n        address _studentOwner, \r\n        string memory _password) public view returns(uint x) {\r\n            for(uint i=0; i<listSVs.length; i++){\r\n                if((listSVs[i].studentOwner == _studentOwner) && (keccak256(bytes(listSVs[i].password)) == keccak256(bytes(_password)))){\r\n                    return 1;\r\n                }\r\n            }\r\n    }\r\n\r\n    // Chc nng kim tra a ch sinh vin  tn ti hay cha?\r\n    function checkExistSV(address _studentOwner) public view returns(uint x) {\r\n            for(uint i=0; i<listSVs.length; i++){\r\n                if(listSVs[i].studentOwner == _studentOwner){\r\n                    return 1;\r\n                }\r\n            }\r\n    }\r\n\r\n    // Chc nng thm thng tin k nng ca sinh vin\r\n    function addSkill(\r\n        address _studentOwner,\r\n        string memory _title, \r\n        uint _level) public {\r\n            require(_level >=0 && _level <=100, \"Level of skill incorrect.\"); //Mc  ca k nng c tnh theo thang im t 0 n 100\r\n            listSkills.push(ListSkill(_studentOwner, _title, _level));\r\n    }\r\n\r\n    // Chc nng kim tra sinh vin  thm k nng  hay cha?\r\n    function checkSkill(\r\n        address _studentOwner, \r\n        string memory _title) public view returns(uint x) {\r\n            for(uint i=0; i<listSkills.length; i++){\r\n                if((listSkills[i].studentOwner == _studentOwner) && (keccak256(bytes(listSkills[i].title)) == keccak256(bytes(_title)))){\r\n                    return 1;\r\n                }\r\n            }\r\n    }\r\n\r\n    // Chc nng m s lng k nng ca sinh vin\r\n    function checkNumSkill(\r\n        address _studentOwner) public view returns(uint x) {\r\n            uint _count = 0;\r\n            for(uint i=0; i<listSkills.length; i++){\r\n                if(listSkills[i].studentOwner == _studentOwner){\r\n                    _count += 1;\r\n                }\r\n            }\r\n            return _count;\r\n    }\r\n\r\n    // Chc nng ly thng tin k nng ca sinh vin\r\n    function getSkill(address _studentOwner) public view returns(\r\n        string[] memory,\r\n        uint[] memory) {\r\n            string[] memory titles = new string[](listSkills.length);\r\n            uint[] memory levels = new uint[](listSkills.length);\r\n            for(uint i=0; i<listSkills.length;i++){\r\n                if(listSkills[i].studentOwner == _studentOwner) {\r\n                    titles[i] = listSkills[i].title;\r\n                    levels[i] = listSkills[i].level;\r\n                }\r\n            }\r\n            return (titles, levels);\r\n    }\r\n    \r\n}",
  "sourcePath": "C:\\Users\\19520\\Documents\\NCKH_Blockchain\\SolidityProgramming\\ProjectResearch\\SmartCV\\SmartContract\\contracts\\SmartCV_ListStudent.sol",
  "compiler": {
    "name": "solc",
    "version": "0.8.11+commit.d7f03943.Emscripten.clang"
  },
  "schemaVersion": "3.4.4",
  "updatedAt": "2022-07-19T02:01:42.475Z",
  "devdoc": {
    "kind": "dev",
    "methods": {},
    "version": 1
  },
  "userdoc": {
    "kind": "user",
    "methods": {},
    "version": 1
  }
}