{
  "contractName": "ListIIG",
  "abi": [
    {
      "inputs": [
        {
          "internalType": "uint256",
          "name": "",
          "type": "uint256"
        }
      ],
      "name": "iigInfos",
      "outputs": [
        {
          "internalType": "address",
          "name": "iigOwner",
          "type": "address"
        },
        {
          "internalType": "string",
          "name": "name",
          "type": "string"
        },
        {
          "internalType": "string",
          "name": "country",
          "type": "string"
        },
        {
          "internalType": "string",
          "name": "facebook",
          "type": "string"
        },
        {
          "internalType": "string",
          "name": "website",
          "type": "string"
        },
        {
          "internalType": "string",
          "name": "linkedin",
          "type": "string"
        },
        {
          "internalType": "string",
          "name": "password",
          "type": "string"
        }
      ],
      "stateMutability": "view",
      "type": "function"
    },
    {
      "inputs": [
        {
          "internalType": "uint256",
          "name": "",
          "type": "uint256"
        }
      ],
      "name": "iigLRResults",
      "outputs": [
        {
          "internalType": "address",
          "name": "iigOwner",
          "type": "address"
        },
        {
          "internalType": "address",
          "name": "studentOwner",
          "type": "address"
        },
        {
          "internalType": "string",
          "name": "testDate",
          "type": "string"
        },
        {
          "internalType": "uint256",
          "name": "listeningScore",
          "type": "uint256"
        },
        {
          "internalType": "uint256",
          "name": "readingScore",
          "type": "uint256"
        },
        {
          "internalType": "uint256",
          "name": "totalScore",
          "type": "uint256"
        }
      ],
      "stateMutability": "view",
      "type": "function"
    },
    {
      "inputs": [
        {
          "internalType": "uint256",
          "name": "",
          "type": "uint256"
        }
      ],
      "name": "iigSWResults",
      "outputs": [
        {
          "internalType": "address",
          "name": "iigOwner",
          "type": "address"
        },
        {
          "internalType": "address",
          "name": "studentOwner",
          "type": "address"
        },
        {
          "internalType": "string",
          "name": "testDate",
          "type": "string"
        },
        {
          "internalType": "uint256",
          "name": "speakingScore",
          "type": "uint256"
        },
        {
          "internalType": "uint256",
          "name": "writingScore",
          "type": "uint256"
        },
        {
          "internalType": "uint256",
          "name": "totalScore",
          "type": "uint256"
        }
      ],
      "stateMutability": "view",
      "type": "function"
    },
    {
      "inputs": [
        {
          "internalType": "address",
          "name": "_iigOwner",
          "type": "address"
        },
        {
          "internalType": "string",
          "name": "_name",
          "type": "string"
        },
        {
          "internalType": "string",
          "name": "_country",
          "type": "string"
        },
        {
          "internalType": "string",
          "name": "_facebook",
          "type": "string"
        },
        {
          "internalType": "string",
          "name": "_website",
          "type": "string"
        },
        {
          "internalType": "string",
          "name": "_linkedin",
          "type": "string"
        },
        {
          "internalType": "string",
          "name": "_password",
          "type": "string"
        }
      ],
      "name": "addIIG",
      "outputs": [],
      "stateMutability": "nonpayable",
      "type": "function"
    },
    {
      "inputs": [],
      "name": "getListIIG",
      "outputs": [
        {
          "internalType": "address[]",
          "name": "",
          "type": "address[]"
        },
        {
          "internalType": "string[]",
          "name": "",
          "type": "string[]"
        },
        {
          "internalType": "string[]",
          "name": "",
          "type": "string[]"
        },
        {
          "internalType": "string[]",
          "name": "",
          "type": "string[]"
        },
        {
          "internalType": "string[]",
          "name": "",
          "type": "string[]"
        },
        {
          "internalType": "string[]",
          "name": "",
          "type": "string[]"
        },
        {
          "internalType": "string[]",
          "name": "",
          "type": "string[]"
        }
      ],
      "stateMutability": "view",
      "type": "function"
    },
    {
      "inputs": [
        {
          "internalType": "address",
          "name": "_iigOwner",
          "type": "address"
        }
      ],
      "name": "getProfile",
      "outputs": [
        {
          "internalType": "address",
          "name": "iigOwner",
          "type": "address"
        },
        {
          "internalType": "string",
          "name": "name",
          "type": "string"
        },
        {
          "internalType": "string",
          "name": "country",
          "type": "string"
        },
        {
          "internalType": "string",
          "name": "facebook",
          "type": "string"
        },
        {
          "internalType": "string",
          "name": "website",
          "type": "string"
        },
        {
          "internalType": "string",
          "name": "linkedin",
          "type": "string"
        }
      ],
      "stateMutability": "view",
      "type": "function"
    },
    {
      "inputs": [
        {
          "internalType": "address",
          "name": "_iigOwner",
          "type": "address"
        },
        {
          "internalType": "string",
          "name": "_password",
          "type": "string"
        }
      ],
      "name": "checkIIG",
      "outputs": [
        {
          "internalType": "uint256",
          "name": "x",
          "type": "uint256"
        }
      ],
      "stateMutability": "view",
      "type": "function"
    },
    {
      "inputs": [
        {
          "internalType": "address",
          "name": "_iigOwner",
          "type": "address"
        }
      ],
      "name": "checkExistIIG",
      "outputs": [
        {
          "internalType": "uint256",
          "name": "x",
          "type": "uint256"
        }
      ],
      "stateMutability": "view",
      "type": "function"
    },
    {
      "inputs": [
        {
          "internalType": "address",
          "name": "_iigOwner",
          "type": "address"
        },
        {
          "internalType": "address",
          "name": "_studentOwner",
          "type": "address"
        },
        {
          "internalType": "string",
          "name": "_testDate",
          "type": "string"
        },
        {
          "internalType": "uint256",
          "name": "_listeningScore",
          "type": "uint256"
        },
        {
          "internalType": "uint256",
          "name": "_readingScore",
          "type": "uint256"
        }
      ],
      "name": "addLRResult",
      "outputs": [],
      "stateMutability": "nonpayable",
      "type": "function"
    },
    {
      "inputs": [
        {
          "internalType": "address",
          "name": "_iigOwner",
          "type": "address"
        }
      ],
      "name": "getListLRResult",
      "outputs": [
        {
          "internalType": "address[]",
          "name": "",
          "type": "address[]"
        },
        {
          "internalType": "address[]",
          "name": "",
          "type": "address[]"
        },
        {
          "internalType": "string[]",
          "name": "",
          "type": "string[]"
        },
        {
          "internalType": "uint256[]",
          "name": "",
          "type": "uint256[]"
        },
        {
          "internalType": "uint256[]",
          "name": "",
          "type": "uint256[]"
        },
        {
          "internalType": "uint256[]",
          "name": "",
          "type": "uint256[]"
        }
      ],
      "stateMutability": "view",
      "type": "function"
    },
    {
      "inputs": [
        {
          "internalType": "address",
          "name": "_studentOwner",
          "type": "address"
        }
      ],
      "name": "getLRResult",
      "outputs": [
        {
          "internalType": "address",
          "name": "studentOwners",
          "type": "address"
        },
        {
          "internalType": "uint256",
          "name": "maxScore",
          "type": "uint256"
        }
      ],
      "stateMutability": "view",
      "type": "function"
    },
    {
      "inputs": [
        {
          "internalType": "address",
          "name": "_studentOwner",
          "type": "address"
        },
        {
          "internalType": "string",
          "name": "_testDate",
          "type": "string"
        }
      ],
      "name": "checkExistLRResult",
      "outputs": [
        {
          "internalType": "uint256",
          "name": "x",
          "type": "uint256"
        }
      ],
      "stateMutability": "view",
      "type": "function"
    },
    {
      "inputs": [
        {
          "internalType": "address",
          "name": "_iigOwner",
          "type": "address"
        },
        {
          "internalType": "address",
          "name": "_studentOwner",
          "type": "address"
        },
        {
          "internalType": "string",
          "name": "_testDate",
          "type": "string"
        },
        {
          "internalType": "uint256",
          "name": "_speakingScore",
          "type": "uint256"
        },
        {
          "internalType": "uint256",
          "name": "_writingScore",
          "type": "uint256"
        }
      ],
      "name": "addSWResult",
      "outputs": [],
      "stateMutability": "nonpayable",
      "type": "function"
    },
    {
      "inputs": [
        {
          "internalType": "address",
          "name": "_iigOwner",
          "type": "address"
        }
      ],
      "name": "getListSWResult",
      "outputs": [
        {
          "internalType": "address[]",
          "name": "",
          "type": "address[]"
        },
        {
          "internalType": "address[]",
          "name": "",
          "type": "address[]"
        },
        {
          "internalType": "string[]",
          "name": "",
          "type": "string[]"
        },
        {
          "internalType": "uint256[]",
          "name": "",
          "type": "uint256[]"
        },
        {
          "internalType": "uint256[]",
          "name": "",
          "type": "uint256[]"
        },
        {
          "internalType": "uint256[]",
          "name": "",
          "type": "uint256[]"
        }
      ],
      "stateMutability": "view",
      "type": "function"
    },
    {
      "inputs": [
        {
          "internalType": "address",
          "name": "_studentOwner",
          "type": "address"
        }
      ],
      "name": "getSWResult",
      "outputs": [
        {
          "internalType": "address",
          "name": "studentOwners",
          "type": "address"
        },
        {
          "internalType": "uint256",
          "name": "maxScore",
          "type": "uint256"
        }
      ],
      "stateMutability": "view",
      "type": "function"
    },
    {
      "inputs": [
        {
          "internalType": "address",
          "name": "_studentOwner",
          "type": "address"
        },
        {
          "internalType": "string",
          "name": "_testDate",
          "type": "string"
        }
      ],
      "name": "checkExistSWResult",
      "outputs": [
        {
          "internalType": "uint256",
          "name": "x",
          "type": "uint256"
        }
      ],
      "stateMutability": "view",
      "type": "function"
    }
  ],
  "bytecode": "0x608060405234801561001057600080fd5b50613d10806100206000396000f3fe608060405234801561001057600080fd5b50600436106101005760003560e01c80638f8724a911610097578063d767573e11610066578063d767573e14610346578063dd8f3edc14610362578063e9dfbf6f1461037e578063ea10ada0146103ae57610100565b80638f8724a91461027a5780639e8aee6e146102af578063a9846eb0146102e0578063d18db3f21461031557610100565b806344fd6e22116100d357806344fd6e22146101bc57806349f47a55146101ec578063508580eb1461022157806384ae91311461025657610100565b806309bef62a146101055780630f53a4701461013b5780631ababd291461017057806324e660371461018c575b600080fd5b61011f600480360381019061011a9190612eb9565b6103de565b6040516101329796959493929190612fc0565b60405180910390f35b61015560048036038101906101509190613085565b610780565b604051610167969594939291906130b2565b60405180910390f35b61018a6004803603810190610185919061326b565b610bfe565b005b6101a660048036038101906101a19190613302565b610e01565b6040516101b3919061336d565b60405180910390f35b6101d660048036038101906101d19190613085565b610eff565b6040516101e3919061336d565b60405180910390f35b61020660048036038101906102019190612eb9565b610fb1565b60405161021896959493929190613388565b60405180910390f35b61023b60048036038101906102369190613085565b6110c5565b60405161024d96959493929190613678565b60405180910390f35b61025e61163f565b6040516102719796959493929190613703565b60405180910390f35b610294600480360381019061028f9190613085565b611e43565b6040516102a696959493929190613678565b60405180910390f35b6102c960048036038101906102c49190613085565b6123bd565b6040516102d79291906137a3565b60405180910390f35b6102fa60048036038101906102f59190612eb9565b612580565b60405161030c96959493929190613388565b60405180910390f35b61032f600480360381019061032a9190613085565b612694565b60405161033d9291906137a3565b60405180910390f35b610360600480360381019061035b919061326b565b612857565b005b61037c600480360381019061037791906137cc565b612a5c565b005b61039860048036038101906103939190613302565b612bd0565b6040516103a5919061336d565b60405180910390f35b6103c860048036038101906103c39190613302565b612cce565b6040516103d5919061336d565b60405180910390f35b600081815481106103ee57600080fd5b90600052602060002090600702016000915090508060000160009054906101000a900473ffffffffffffffffffffffffffffffffffffffff169080600101805461043790613945565b80601f016020809104026020016040519081016040528092919081815260200182805461046390613945565b80156104b05780601f10610485576101008083540402835291602001916104b0565b820191906000526020600020905b81548152906001019060200180831161049357829003601f168201915b5050505050908060020180546104c590613945565b80601f01602080910402602001604051908101604052809291908181526020018280546104f190613945565b801561053e5780601f106105135761010080835404028352916020019161053e565b820191906000526020600020905b81548152906001019060200180831161052157829003601f168201915b50505050509080600301805461055390613945565b80601f016020809104026020016040519081016040528092919081815260200182805461057f90613945565b80156105cc5780601f106105a1576101008083540402835291602001916105cc565b820191906000526020600020905b8154815290600101906020018083116105af57829003601f168201915b5050505050908060040180546105e190613945565b80601f016020809104026020016040519081016040528092919081815260200182805461060d90613945565b801561065a5780601f1061062f5761010080835404028352916020019161065a565b820191906000526020600020905b81548152906001019060200180831161063d57829003601f168201915b50505050509080600501805461066f90613945565b80601f016020809104026020016040519081016040528092919081815260200182805461069b90613945565b80156106e85780601f106106bd576101008083540402835291602001916106e8565b820191906000526020600020905b8154815290600101906020018083116106cb57829003601f168201915b5050505050908060060180546106fd90613945565b80601f016020809104026020016040519081016040528092919081815260200182805461072990613945565b80156107765780601f1061074b57610100808354040283529160200191610776565b820191906000526020600020905b81548152906001019060200180831161075957829003601f168201915b5050505050905087565b6000606080606080606060005b600080549050811015610bf3578773ffffffffffffffffffffffffffffffffffffffff16600082815481106107c5576107c4613977565b5b906000526020600020906007020160000160009054906101000a900473ffffffffffffffffffffffffffffffffffffffff1673ffffffffffffffffffffffffffffffffffffffff161415610be0576000818154811061082757610826613977565b5b906000526020600020906007020160000160009054906101000a900473ffffffffffffffffffffffffffffffffffffffff166000828154811061086d5761086c613977565b5b90600052602060002090600702016001016000838154811061089257610891613977565b5b9060005260206000209060070201600201600084815481106108b7576108b6613977565b5b9060005260206000209060070201600301600085815481106108dc576108db613977565b5b90600052602060002090600702016004016000868154811061090157610900613977565b5b906000526020600020906007020160050184805461091e90613945565b80601f016020809104026020016040519081016040528092919081815260200182805461094a90613945565b80156109975780601f1061096c57610100808354040283529160200191610997565b820191906000526020600020905b81548152906001019060200180831161097a57829003601f168201915b505050505094508380546109aa90613945565b80601f01602080910402602001604051908101604052809291908181526020018280546109d690613945565b8015610a235780601f106109f857610100808354040283529160200191610a23565b820191906000526020600020905b815481529060010190602001808311610a0657829003601f168201915b50505050509350828054610a3690613945565b80601f0160208091040260200160405190810160405280929190818152602001828054610a6290613945565b8015610aaf5780601f10610a8457610100808354040283529160200191610aaf565b820191906000526020600020905b815481529060010190602001808311610a9257829003601f168201915b50505050509250818054610ac290613945565b80601f0160208091040260200160405190810160405280929190818152602001828054610aee90613945565b8015610b3b5780601f10610b1057610100808354040283529160200191610b3b565b820191906000526020600020905b815481529060010190602001808311610b1e57829003601f168201915b50505050509150808054610b4e90613945565b80601f0160208091040260200160405190810160405280929190818152602001828054610b7a90613945565b8015610bc75780601f10610b9c57610100808354040283529160200191610bc7565b820191906000526020600020905b815481529060010190602001808311610baa57829003601f168201915b5050505050905096509650965096509650965050610bf5565b8080610beb906139d5565b91505061078d565b505b91939550919395565b60008210158015610c10575060c88211155b610c4f576040517f08c379a0000000000000000000000000000000000000000000000000000000008152600401610c4690613a6a565b60405180910390fd5b60008110158015610c61575060c88111155b610ca0576040517f08c379a0000000000000000000000000000000000000000000000000000000008152600401610c9790613ad6565b60405180910390fd5b60026040518060c001604052808773ffffffffffffffffffffffffffffffffffffffff1681526020018673ffffffffffffffffffffffffffffffffffffffff1681526020018581526020018481526020018381526020018385610d039190613af6565b815250908060018154018082558091505060019003906000526020600020906006020160009091909190915060008201518160000160006101000a81548173ffffffffffffffffffffffffffffffffffffffff021916908373ffffffffffffffffffffffffffffffffffffffff16021790555060208201518160010160006101000a81548173ffffffffffffffffffffffffffffffffffffffff021916908373ffffffffffffffffffffffffffffffffffffffff1602179055506040820151816002019080519060200190610dd9929190612dcc565b50606082015181600301556080820151816004015560a0820151816005015550505050505050565b600080600090505b600080549050811015610ef7578373ffffffffffffffffffffffffffffffffffffffff1660008281548110610e4157610e40613977565b5b906000526020600020906007020160000160009054906101000a900473ffffffffffffffffffffffffffffffffffffffff1673ffffffffffffffffffffffffffffffffffffffff16148015610ed55750828051906020012060008281548110610ead57610eac613977565b5b9060005260206000209060070201600601604051610ecb9190613beb565b6040518091039020145b15610ee4576001915050610ef9565b8080610eef906139d5565b915050610e09565b505b92915050565b600080600090505b600080549050811015610faa578273ffffffffffffffffffffffffffffffffffffffff1660008281548110610f3f57610f3e613977565b5b906000526020600020906007020160000160009054906101000a900473ffffffffffffffffffffffffffffffffffffffff1673ffffffffffffffffffffffffffffffffffffffff161415610f97576001915050610fac565b8080610fa2906139d5565b915050610f07565b505b919050565b60028181548110610fc157600080fd5b90600052602060002090600602016000915090508060000160009054906101000a900473ffffffffffffffffffffffffffffffffffffffff16908060010160009054906101000a900473ffffffffffffffffffffffffffffffffffffffff169080600201805461103090613945565b80601f016020809104026020016040519081016040528092919081815260200182805461105c90613945565b80156110a95780601f1061107e576101008083540402835291602001916110a9565b820191906000526020600020905b81548152906001019060200180831161108c57829003601f168201915b5050505050908060030154908060040154908060050154905086565b606080606080606080600060018054905067ffffffffffffffff8111156110ef576110ee613140565b5b60405190808252806020026020018201604052801561111d5781602001602082028036833780820191505090505b509050600060018054905067ffffffffffffffff81111561114157611140613140565b5b60405190808252806020026020018201604052801561116f5781602001602082028036833780820191505090505b509050600060018054905067ffffffffffffffff81111561119357611192613140565b5b6040519080825280602002602001820160405280156111c657816020015b60608152602001906001900390816111b15790505b509050600060018054905067ffffffffffffffff8111156111ea576111e9613140565b5b6040519080825280602002602001820160405280156112185781602001602082028036833780820191505090505b509050600060018054905067ffffffffffffffff81111561123c5761123b613140565b5b60405190808252806020026020018201604052801561126a5781602001602082028036833780820191505090505b509050600060018054905067ffffffffffffffff81111561128e5761128d613140565b5b6040519080825280602002602001820160405280156112bc5781602001602082028036833780820191505090505b50905060005b60018054905081101561161d578d73ffffffffffffffffffffffffffffffffffffffff16600182815481106112fa576112f9613977565b5b906000526020600020906006020160000160009054906101000a900473ffffffffffffffffffffffffffffffffffffffff1673ffffffffffffffffffffffffffffffffffffffff16141561160a576001818154811061135c5761135b613977565b5b906000526020600020906006020160000160009054906101000a900473ffffffffffffffffffffffffffffffffffffffff168782815181106113a1576113a0613977565b5b602002602001019073ffffffffffffffffffffffffffffffffffffffff16908173ffffffffffffffffffffffffffffffffffffffff1681525050600181815481106113ef576113ee613977565b5b906000526020600020906006020160010160009054906101000a900473ffffffffffffffffffffffffffffffffffffffff1686828151811061143457611433613977565b5b602002602001019073ffffffffffffffffffffffffffffffffffffffff16908173ffffffffffffffffffffffffffffffffffffffff16815250506001818154811061148257611481613977565b5b9060005260206000209060060201600201805461149e90613945565b80601f01602080910402602001604051908101604052809291908181526020018280546114ca90613945565b80156115175780601f106114ec57610100808354040283529160200191611517565b820191906000526020600020905b8154815290600101906020018083116114fa57829003601f168201915b505050505085828151811061152f5761152e613977565b5b60200260200101819052506001818154811061154e5761154d613977565b5b90600052602060002090600602016003015484828151811061157357611572613977565b5b6020026020010181815250506001818154811061159357611592613977565b5b9060005260206000209060060201600401548382815181106115b8576115b7613977565b5b602002602001018181525050600181815481106115d8576115d7613977565b5b9060005260206000209060060201600501548282815181106115fd576115fc613977565b5b6020026020010181815250505b8080611615906139d5565b9150506112c2565b508585858585859b509b509b509b509b509b5050505050505091939550919395565b60608060608060608060606000808054905067ffffffffffffffff81111561166a57611669613140565b5b6040519080825280602002602001820160405280156116985781602001602082028036833780820191505090505b5090506000808054905067ffffffffffffffff8111156116bb576116ba613140565b5b6040519080825280602002602001820160405280156116ee57816020015b60608152602001906001900390816116d95790505b5090506000808054905067ffffffffffffffff81111561171157611710613140565b5b60405190808252806020026020018201604052801561174457816020015b606081526020019060019003908161172f5790505b5090506000808054905067ffffffffffffffff81111561176757611766613140565b5b60405190808252806020026020018201604052801561179a57816020015b60608152602001906001900390816117855790505b5090506000808054905067ffffffffffffffff8111156117bd576117bc613140565b5b6040519080825280602002602001820160405280156117f057816020015b60608152602001906001900390816117db5790505b5090506000808054905067ffffffffffffffff81111561181357611812613140565b5b60405190808252806020026020018201604052801561184657816020015b60608152602001906001900390816118315790505b5090506000808054905067ffffffffffffffff81111561186957611868613140565b5b60405190808252806020026020018201604052801561189c57816020015b60608152602001906001900390816118875790505b50905060005b600080549050811015611e1d57600081815481106118c3576118c2613977565b5b906000526020600020906007020160000160009054906101000a900473ffffffffffffffffffffffffffffffffffffffff1688828151811061190857611907613977565b5b602002602001019073ffffffffffffffffffffffffffffffffffffffff16908173ffffffffffffffffffffffffffffffffffffffff16815250506000818154811061195657611955613977565b5b9060005260206000209060070201600101805461197290613945565b80601f016020809104026020016040519081016040528092919081815260200182805461199e90613945565b80156119eb5780601f106119c0576101008083540402835291602001916119eb565b820191906000526020600020905b8154815290600101906020018083116119ce57829003601f168201915b5050505050878281518110611a0357611a02613977565b5b602002602001018190525060008181548110611a2257611a21613977565b5b90600052602060002090600702016002018054611a3e90613945565b80601f0160208091040260200160405190810160405280929190818152602001828054611a6a90613945565b8015611ab75780601f10611a8c57610100808354040283529160200191611ab7565b820191906000526020600020905b815481529060010190602001808311611a9a57829003601f168201915b5050505050868281518110611acf57611ace613977565b5b602002602001018190525060008181548110611aee57611aed613977565b5b90600052602060002090600702016003018054611b0a90613945565b80601f0160208091040260200160405190810160405280929190818152602001828054611b3690613945565b8015611b835780601f10611b5857610100808354040283529160200191611b83565b820191906000526020600020905b815481529060010190602001808311611b6657829003601f168201915b5050505050858281518110611b9b57611b9a613977565b5b602002602001018190525060008181548110611bba57611bb9613977565b5b90600052602060002090600702016004018054611bd690613945565b80601f0160208091040260200160405190810160405280929190818152602001828054611c0290613945565b8015611c4f5780601f10611c2457610100808354040283529160200191611c4f565b820191906000526020600020905b815481529060010190602001808311611c3257829003601f168201915b5050505050848281518110611c6757611c66613977565b5b602002602001018190525060008181548110611c8657611c85613977565b5b90600052602060002090600702016005018054611ca290613945565b80601f0160208091040260200160405190810160405280929190818152602001828054611cce90613945565b8015611d1b5780601f10611cf057610100808354040283529160200191611d1b565b820191906000526020600020905b815481529060010190602001808311611cfe57829003601f168201915b5050505050838281518110611d3357611d32613977565b5b602002602001018190525060008181548110611d5257611d51613977565b5b90600052602060002090600702016006018054611d6e90613945565b80601f0160208091040260200160405190810160405280929190818152602001828054611d9a90613945565b8015611de75780601f10611dbc57610100808354040283529160200191611de7565b820191906000526020600020905b815481529060010190602001808311611dca57829003601f168201915b5050505050828281518110611dff57611dfe613977565b5b60200260200101819052508080611e15906139d5565b9150506118a2565b50868686868686869d509d509d509d509d509d509d505050505050505090919293949596565b606080606080606080600060028054905067ffffffffffffffff811115611e6d57611e6c613140565b5b604051908082528060200260200182016040528015611e9b5781602001602082028036833780820191505090505b509050600060028054905067ffffffffffffffff811115611ebf57611ebe613140565b5b604051908082528060200260200182016040528015611eed5781602001602082028036833780820191505090505b509050600060028054905067ffffffffffffffff811115611f1157611f10613140565b5b604051908082528060200260200182016040528015611f4457816020015b6060815260200190600190039081611f2f5790505b509050600060028054905067ffffffffffffffff811115611f6857611f67613140565b5b604051908082528060200260200182016040528015611f965781602001602082028036833780820191505090505b509050600060028054905067ffffffffffffffff811115611fba57611fb9613140565b5b604051908082528060200260200182016040528015611fe85781602001602082028036833780820191505090505b509050600060028054905067ffffffffffffffff81111561200c5761200b613140565b5b60405190808252806020026020018201604052801561203a5781602001602082028036833780820191505090505b50905060005b60028054905081101561239b578d73ffffffffffffffffffffffffffffffffffffffff166002828154811061207857612077613977565b5b906000526020600020906006020160000160009054906101000a900473ffffffffffffffffffffffffffffffffffffffff1673ffffffffffffffffffffffffffffffffffffffff16141561238857600281815481106120da576120d9613977565b5b906000526020600020906006020160000160009054906101000a900473ffffffffffffffffffffffffffffffffffffffff1687828151811061211f5761211e613977565b5b602002602001019073ffffffffffffffffffffffffffffffffffffffff16908173ffffffffffffffffffffffffffffffffffffffff16815250506002818154811061216d5761216c613977565b5b906000526020600020906006020160010160009054906101000a900473ffffffffffffffffffffffffffffffffffffffff168682815181106121b2576121b1613977565b5b602002602001019073ffffffffffffffffffffffffffffffffffffffff16908173ffffffffffffffffffffffffffffffffffffffff168152505060028181548110612200576121ff613977565b5b9060005260206000209060060201600201805461221c90613945565b80601f016020809104026020016040519081016040528092919081815260200182805461224890613945565b80156122955780601f1061226a57610100808354040283529160200191612295565b820191906000526020600020905b81548152906001019060200180831161227857829003601f168201915b50505050508582815181106122ad576122ac613977565b5b6020026020010181905250600281815481106122cc576122cb613977565b5b9060005260206000209060060201600301548482815181106122f1576122f0613977565b5b6020026020010181815250506002818154811061231157612310613977565b5b90600052602060002090600602016004015483828151811061233657612335613977565b5b6020026020010181815250506002818154811061235657612355613977565b5b90600052602060002090600602016005015482828151811061237b5761237a613977565b5b6020026020010181815250505b8080612393906139d5565b915050612040565b508585858585859b509b509b509b509b509b5050505050505091939550919395565b600080600060028054905067ffffffffffffffff8111156123e1576123e0613140565b5b60405190808252806020026020018201604052801561240f5781602001602082028036833780820191505090505b50905060005b6002805490508110156124f4578473ffffffffffffffffffffffffffffffffffffffff166002828154811061244d5761244c613977565b5b906000526020600020906006020160010160009054906101000a900473ffffffffffffffffffffffffffffffffffffffff1673ffffffffffffffffffffffffffffffffffffffff1614156124e157600281815481106124af576124ae613977565b5b9060005260206000209060060201600501548282815181106124d4576124d3613977565b5b6020026020010181815250505b80806124ec906139d5565b915050612415565b508060008151811061250957612508613977565b5b602002602001015191506000600190505b81518110156125765781818151811061253657612535613977565b5b60200260200101518310156125635781818151811061255857612557613977565b5b602002602001015192505b808061256e906139d5565b91505061251a565b5083925050915091565b6001818154811061259057600080fd5b90600052602060002090600602016000915090508060000160009054906101000a900473ffffffffffffffffffffffffffffffffffffffff16908060010160009054906101000a900473ffffffffffffffffffffffffffffffffffffffff16908060020180546125ff90613945565b80601f016020809104026020016040519081016040528092919081815260200182805461262b90613945565b80156126785780601f1061264d57610100808354040283529160200191612678565b820191906000526020600020905b81548152906001019060200180831161265b57829003601f168201915b5050505050908060030154908060040154908060050154905086565b600080600060018054905067ffffffffffffffff8111156126b8576126b7613140565b5b6040519080825280602002602001820160405280156126e65781602001602082028036833780820191505090505b50905060005b6001805490508110156127cb578473ffffffffffffffffffffffffffffffffffffffff166001828154811061272457612723613977565b5b906000526020600020906006020160010160009054906101000a900473ffffffffffffffffffffffffffffffffffffffff1673ffffffffffffffffffffffffffffffffffffffff1614156127b8576001818154811061278657612785613977565b5b9060005260206000209060060201600501548282815181106127ab576127aa613977565b5b6020026020010181815250505b80806127c3906139d5565b9150506126ec565b50806000815181106127e0576127df613977565b5b602002602001015191506000600190505b815181101561284d5781818151811061280d5761280c613977565b5b602002602001015183101561283a5781818151811061282f5761282e613977565b5b602002602001015192505b8080612845906139d5565b9150506127f1565b5083925050915091565b6000821015801561286a57506101ef8211155b6128a9576040517f08c379a00000000000000000000000000000000000000000000000000000000081526004016128a090613c4e565b60405180910390fd5b600081101580156128bc57506101ef8111155b6128fb576040517f08c379a00000000000000000000000000000000000000000000000000000000081526004016128f290613cba565b60405180910390fd5b60016040518060c001604052808773ffffffffffffffffffffffffffffffffffffffff1681526020018673ffffffffffffffffffffffffffffffffffffffff168152602001858152602001848152602001838152602001838561295e9190613af6565b815250908060018154018082558091505060019003906000526020600020906006020160009091909190915060008201518160000160006101000a81548173ffffffffffffffffffffffffffffffffffffffff021916908373ffffffffffffffffffffffffffffffffffffffff16021790555060208201518160010160006101000a81548173ffffffffffffffffffffffffffffffffffffffff021916908373ffffffffffffffffffffffffffffffffffffffff1602179055506040820151816002019080519060200190612a34929190612dcc565b50606082015181600301556080820151816004015560a0820151816005015550505050505050565b60006040518060e001604052808973ffffffffffffffffffffffffffffffffffffffff16815260200188815260200187815260200186815260200185815260200184815260200183815250908060018154018082558091505060019003906000526020600020906007020160009091909190915060008201518160000160006101000a81548173ffffffffffffffffffffffffffffffffffffffff021916908373ffffffffffffffffffffffffffffffffffffffff1602179055506020820151816001019080519060200190612b33929190612dcc565b506040820151816002019080519060200190612b50929190612dcc565b506060820151816003019080519060200190612b6d929190612dcc565b506080820151816004019080519060200190612b8a929190612dcc565b5060a0820151816005019080519060200190612ba7929190612dcc565b5060c0820151816006019080519060200190612bc4929190612dcc565b50505050505050505050565b600080600090505b600180549050811015612cc6578373ffffffffffffffffffffffffffffffffffffffff1660018281548110612c1057612c0f613977565b5b906000526020600020906006020160010160009054906101000a900473ffffffffffffffffffffffffffffffffffffffff1673ffffffffffffffffffffffffffffffffffffffff16148015612ca45750828051906020012060018281548110612c7c57612c7b613977565b5b9060005260206000209060060201600201604051612c9a9190613beb565b6040518091039020145b15612cb3576001915050612cc8565b8080612cbe906139d5565b915050612bd8565b505b92915050565b600080600090505b600280549050811015612dc4578373ffffffffffffffffffffffffffffffffffffffff1660028281548110612d0e57612d0d613977565b5b906000526020600020906006020160010160009054906101000a900473ffffffffffffffffffffffffffffffffffffffff1673ffffffffffffffffffffffffffffffffffffffff16148015612da25750828051906020012060028281548110612d7a57612d79613977565b5b9060005260206000209060060201600201604051612d989190613beb565b6040518091039020145b15612db1576001915050612dc6565b8080612dbc906139d5565b915050612cd6565b505b92915050565b828054612dd890613945565b90600052602060002090601f016020900481019282612dfa5760008555612e41565b82601f10612e1357805160ff1916838001178555612e41565b82800160010185558215612e41579182015b82811115612e40578251825591602001919060010190612e25565b5b509050612e4e9190612e52565b5090565b5b80821115612e6b576000816000905550600101612e53565b5090565b6000604051905090565b600080fd5b600080fd5b6000819050919050565b612e9681612e83565b8114612ea157600080fd5b50565b600081359050612eb381612e8d565b92915050565b600060208284031215612ecf57612ece612e79565b5b6000612edd84828501612ea4565b91505092915050565b600073ffffffffffffffffffffffffffffffffffffffff82169050919050565b6000612f1182612ee6565b9050919050565b612f2181612f06565b82525050565b600081519050919050565b600082825260208201905092915050565b60005b83811015612f61578082015181840152602081019050612f46565b83811115612f70576000848401525b50505050565b6000601f19601f8301169050919050565b6000612f9282612f27565b612f9c8185612f32565b9350612fac818560208601612f43565b612fb581612f76565b840191505092915050565b600060e082019050612fd5600083018a612f18565b8181036020830152612fe78189612f87565b90508181036040830152612ffb8188612f87565b9050818103606083015261300f8187612f87565b905081810360808301526130238186612f87565b905081810360a08301526130378185612f87565b905081810360c083015261304b8184612f87565b905098975050505050505050565b61306281612f06565b811461306d57600080fd5b50565b60008135905061307f81613059565b92915050565b60006020828403121561309b5761309a612e79565b5b60006130a984828501613070565b91505092915050565b600060c0820190506130c76000830189612f18565b81810360208301526130d98188612f87565b905081810360408301526130ed8187612f87565b905081810360608301526131018186612f87565b905081810360808301526131158185612f87565b905081810360a08301526131298184612f87565b9050979650505050505050565b600080fd5b600080fd5b7f4e487b7100000000000000000000000000000000000000000000000000000000600052604160045260246000fd5b61317882612f76565b810181811067ffffffffffffffff8211171561319757613196613140565b5b80604052505050565b60006131aa612e6f565b90506131b6828261316f565b919050565b600067ffffffffffffffff8211156131d6576131d5613140565b5b6131df82612f76565b9050602081019050919050565b82818337600083830152505050565b600061320e613209846131bb565b6131a0565b90508281526020810184848401111561322a5761322961313b565b5b6132358482856131ec565b509392505050565b600082601f83011261325257613251613136565b5b81356132628482602086016131fb565b91505092915050565b600080600080600060a0868803121561328757613286612e79565b5b600061329588828901613070565b95505060206132a688828901613070565b945050604086013567ffffffffffffffff8111156132c7576132c6612e7e565b5b6132d38882890161323d565b93505060606132e488828901612ea4565b92505060806132f588828901612ea4565b9150509295509295909350565b6000806040838503121561331957613318612e79565b5b600061332785828601613070565b925050602083013567ffffffffffffffff81111561334857613347612e7e565b5b6133548582860161323d565b9150509250929050565b61336781612e83565b82525050565b6000602082019050613382600083018461335e565b92915050565b600060c08201905061339d6000830189612f18565b6133aa6020830188612f18565b81810360408301526133bc8187612f87565b90506133cb606083018661335e565b6133d8608083018561335e565b6133e560a083018461335e565b979650505050505050565b600081519050919050565b600082825260208201905092915050565b6000819050602082019050919050565b61342581612f06565b82525050565b6000613437838361341c565b60208301905092915050565b6000602082019050919050565b600061345b826133f0565b61346581856133fb565b93506134708361340c565b8060005b838110156134a1578151613488888261342b565b975061349383613443565b925050600181019050613474565b5085935050505092915050565b600081519050919050565b600082825260208201905092915050565b6000819050602082019050919050565b600082825260208201905092915050565b60006134f682612f27565b61350081856134da565b9350613510818560208601612f43565b61351981612f76565b840191505092915050565b600061353083836134eb565b905092915050565b6000602082019050919050565b6000613550826134ae565b61355a81856134b9565b93508360208202850161356c856134ca565b8060005b858110156135a857848403895281516135898582613524565b945061359483613538565b925060208a01995050600181019050613570565b50829750879550505050505092915050565b600081519050919050565b600082825260208201905092915050565b6000819050602082019050919050565b6135ef81612e83565b82525050565b600061360183836135e6565b60208301905092915050565b6000602082019050919050565b6000613625826135ba565b61362f81856135c5565b935061363a836135d6565b8060005b8381101561366b57815161365288826135f5565b975061365d8361360d565b92505060018101905061363e565b5085935050505092915050565b600060c08201905081810360008301526136928189613450565b905081810360208301526136a68188613450565b905081810360408301526136ba8187613545565b905081810360608301526136ce818661361a565b905081810360808301526136e2818561361a565b905081810360a08301526136f6818461361a565b9050979650505050505050565b600060e082019050818103600083015261371d818a613450565b905081810360208301526137318189613545565b905081810360408301526137458188613545565b905081810360608301526137598187613545565b9050818103608083015261376d8186613545565b905081810360a08301526137818185613545565b905081810360c08301526137958184613545565b905098975050505050505050565b60006040820190506137b86000830185612f18565b6137c5602083018461335e565b9392505050565b600080600080600080600060e0888a0312156137eb576137ea612e79565b5b60006137f98a828b01613070565b975050602088013567ffffffffffffffff81111561381a57613819612e7e565b5b6138268a828b0161323d565b965050604088013567ffffffffffffffff81111561384757613846612e7e565b5b6138538a828b0161323d565b955050606088013567ffffffffffffffff81111561387457613873612e7e565b5b6138808a828b0161323d565b945050608088013567ffffffffffffffff8111156138a1576138a0612e7e565b5b6138ad8a828b0161323d565b93505060a088013567ffffffffffffffff8111156138ce576138cd612e7e565b5b6138da8a828b0161323d565b92505060c088013567ffffffffffffffff8111156138fb576138fa612e7e565b5b6139078a828b0161323d565b91505092959891949750929550565b7f4e487b7100000000000000000000000000000000000000000000000000000000600052602260045260246000fd5b6000600282049050600182168061395d57607f821691505b6020821081141561397157613970613916565b5b50919050565b7f4e487b7100000000000000000000000000000000000000000000000000000000600052603260045260246000fd5b7f4e487b7100000000000000000000000000000000000000000000000000000000600052601160045260246000fd5b60006139e082612e83565b91507fffffffffffffffffffffffffffffffffffffffffffffffffffffffffffffffff821415613a1357613a126139a6565b5b600182019050919050565b7f537065616b696e672053636f726520696e636f72726563742e00000000000000600082015250565b6000613a54601983612f32565b9150613a5f82613a1e565b602082019050919050565b60006020820190508181036000830152613a8381613a47565b9050919050565b7f57726974696e672053636f726520696e636f72726563742e0000000000000000600082015250565b6000613ac0601883612f32565b9150613acb82613a8a565b602082019050919050565b60006020820190508181036000830152613aef81613ab3565b9050919050565b6000613b0182612e83565b9150613b0c83612e83565b9250827fffffffffffffffffffffffffffffffffffffffffffffffffffffffffffffffff03821115613b4157613b406139a6565b5b828201905092915050565b600081905092915050565b60008190508160005260206000209050919050565b60008154613b7981613945565b613b838186613b4c565b94506001821660008114613b9e5760018114613baf57613be2565b60ff19831686528186019350613be2565b613bb885613b57565b60005b83811015613bda57815481890152600182019150602081019050613bbb565b838801955050505b50505092915050565b6000613bf78284613b6c565b915081905092915050565b7f4c697374656e696e672053636f726520696e636f72726563742e000000000000600082015250565b6000613c38601a83612f32565b9150613c4382613c02565b602082019050919050565b60006020820190508181036000830152613c6781613c2b565b9050919050565b7f52656164696e672053636f726520696e636f72726563742e0000000000000000600082015250565b6000613ca4601883612f32565b9150613caf82613c6e565b602082019050919050565b60006020820190508181036000830152613cd381613c97565b905091905056fea26469706673582212206122729b2a98ca2b9d8885b009736917c8e145364ea64b13ec7b72a7b2ff57dc64736f6c634300080b0033",
  "immutableReferences": {},
  "source": "// SPDX-License-Identifier: MIT\r\npragma solidity >=0.4.22 <0.9.0;\r\n\r\n// Lu tr danh sch IIG\r\ncontract ListIIG {\r\n\r\n    // Khai bo cu trc lu tr thng tin IIG\r\n    struct IIGInfo {\r\n        address iigOwner;\r\n        string name;\r\n        string country;\r\n        string facebook;\r\n        string website;\r\n        string linkedin;\r\n        string password;\r\n    }\r\n\r\n    // Khai bo cu trc lu tr thng tin im thi Listening - Reading IIG\r\n    struct IIGLRResult {\r\n        address iigOwner;\r\n        address studentOwner;\r\n        string testDate;\r\n        uint listeningScore;\r\n        uint readingScore;\r\n        uint totalScore;\r\n    }\r\n\r\n    // Khai bo cu trc lu tr thng tin im thi Speaking - Writing IIG\r\n    struct IIGSWResult {\r\n        address iigOwner;\r\n        address studentOwner;\r\n        string testDate;\r\n        uint speakingScore;\r\n        uint writingScore;\r\n        uint totalScore;\r\n    }\r\n\r\n\r\n    // Khai bo mng  lu tr thng tin\r\n    IIGInfo[] public iigInfos;\r\n    IIGLRResult[] public iigLRResults;\r\n    IIGSWResult[] public iigSWResults;\r\n\r\n    // Chc nng thm thng tin IGG\r\n    function addIIG (\r\n        address _iigOwner,\r\n        string memory _name,\r\n        string memory _country,\r\n        string memory _facebook,\r\n        string memory _website,\r\n        string memory _linkedin,\r\n        string memory _password) public {\r\n            iigInfos.push(\r\n                IIGInfo(_iigOwner, \r\n                        _name, \r\n                        _country, \r\n                        _facebook, \r\n                        _website, \r\n                        _linkedin, \r\n                        _password)\r\n                );\r\n    }\r\n\r\n    // Chc nng ly danh sch IIG  thm\r\n    function getListIIG() public view returns(\r\n        address[] memory, \r\n        string[] memory, \r\n        string[] memory, \r\n        string[] memory, \r\n        string[] memory, \r\n        string[] memory, \r\n        string[] memory) {\r\n            address[] memory iigOwners = new address[](iigInfos.length);\r\n            string[] memory names = new string[](iigInfos.length);\r\n            string[] memory countrys = new string[](iigInfos.length);\r\n            string[] memory facebooks = new string[](iigInfos.length);\r\n            string[] memory websites = new string[](iigInfos.length);\r\n            string[] memory linkedins = new string[](iigInfos.length);\r\n            string[] memory passwords = new string[](iigInfos.length);\r\n            for(uint i=0; i<iigInfos.length;i++){\r\n                iigOwners[i] = iigInfos[i].iigOwner;\r\n                names[i] = iigInfos[i].name;\r\n                countrys[i] = iigInfos[i].country;\r\n                facebooks[i] = iigInfos[i].facebook;\r\n                websites[i] = iigInfos[i].website;\r\n                linkedins[i] = iigInfos[i].linkedin;\r\n                passwords[i] = iigInfos[i].password;\r\n            }\r\n            return (iigOwners, names, countrys, facebooks, websites, linkedins, passwords);\r\n    }\r\n\r\n    // Chc nng ly thng tin ca IIG\r\n    function getProfile(address _iigOwner) public view returns(\r\n        address iigOwner, \r\n        string memory name, \r\n        string memory country, \r\n        string memory facebook, \r\n        string memory website, \r\n        string memory linkedin) {\r\n            for(uint i=0; i<iigInfos.length;i++){\r\n                if(iigInfos[i].iigOwner == _iigOwner){\r\n                    return (iigInfos[i].iigOwner,\r\n                            iigInfos[i].name, \r\n                            iigInfos[i].country, \r\n                            iigInfos[i].facebook, \r\n                            iigInfos[i].website, \r\n                            iigInfos[i].linkedin);\r\n                }\r\n            }\r\n    }\r\n\r\n    // Chc nng kim tra IIG  ng k hay cha?\r\n    function checkIIG(\r\n        address _iigOwner, \r\n        string memory _password) public view returns(uint x) {\r\n            for(uint i=0; i<iigInfos.length; i++){\r\n                if((iigInfos[i].iigOwner == _iigOwner) && (keccak256(bytes(iigInfos[i].password)) == keccak256(bytes(_password)))){\r\n                    return 1;\r\n                }\r\n            }\r\n    }\r\n\r\n    // Chc nng kim tra a ch IIG  tn ti hay cha?\r\n    function checkExistIIG(address _iigOwner) public view returns(uint x) {\r\n            for(uint i=0; i<iigInfos.length; i++){\r\n                if(iigInfos[i].iigOwner == _iigOwner){\r\n                    return 1;\r\n                }\r\n            }\r\n    }\r\n\r\n    // Chc nng thm thng tin im thi Listening - Reading (Kim tra c nhp nhiu ln thi ca 1 sinh vin chung 1 ngy khng?)\r\n    function addLRResult (\r\n        address _iigOwner,\r\n        address _studentOwner,\r\n        string memory _testDate,\r\n        uint _listeningScore,\r\n        uint _readingScore) public {\r\n            require(_listeningScore >=0 && _listeningScore <=495, \"Listening Score incorrect.\");\r\n            require(_readingScore >=0 && _readingScore <=495, \"Reading Score incorrect.\");\r\n            iigLRResults.push(\r\n                IIGLRResult(_iigOwner, \r\n                        _studentOwner, \r\n                        _testDate, \r\n                        _listeningScore, \r\n                        _readingScore,\r\n                        (_listeningScore + _readingScore))\r\n                );\r\n    }\r\n\r\n    // Chc nng ly danh sch im thi Listening - Reading  thm\r\n    function getListLRResult(address _iigOwner) public view returns(\r\n        address[] memory,\r\n        address[] memory,\r\n        string[] memory,\r\n        uint[] memory,\r\n        uint[] memory,\r\n        uint[] memory) {\r\n            address[] memory iigOwners = new address[](iigLRResults.length);\r\n            address[] memory studentOwners = new address[](iigLRResults.length);\r\n            string[] memory testDates = new string[](iigLRResults.length);\r\n            uint[] memory listeningScores = new uint[](iigLRResults.length);\r\n            uint[] memory readingScores = new uint[](iigLRResults.length);\r\n            uint[] memory totalScores = new uint[](iigLRResults.length);\r\n            for(uint i=0; i<iigLRResults.length;i++){\r\n                if(iigLRResults[i].iigOwner == _iigOwner){\r\n                    iigOwners[i] = iigLRResults[i].iigOwner;\r\n                    studentOwners[i] = iigLRResults[i].studentOwner;\r\n                    testDates[i] = iigLRResults[i].testDate;\r\n                    listeningScores[i] = iigLRResults[i].listeningScore;\r\n                    readingScores[i] = iigLRResults[i].readingScore;\r\n                    totalScores[i] = iigLRResults[i].totalScore;\r\n                }\r\n            }\r\n            return (iigOwners, studentOwners, testDates, listeningScores, readingScores, totalScores);\r\n    }\r\n\r\n    // Chc nng ly thng tin im thi Listening - Reading\r\n    function getLRResult(address _studentOwner) public view returns(\r\n        address studentOwners,\r\n        uint maxScore) {\r\n            uint[] memory totalScores = new uint[](iigLRResults.length);\r\n            for(uint i=0; i<iigLRResults.length;i++){\r\n                if(iigLRResults[i].studentOwner == _studentOwner){\r\n                    totalScores[i] = iigLRResults[i].totalScore;\r\n                }\r\n            }\r\n            maxScore = totalScores[0];\r\n            for(uint i=1; i<totalScores.length;i++){\r\n                if(maxScore < totalScores[i]){\r\n                    maxScore = totalScores[i];\r\n                }\r\n            }\r\n            return (_studentOwner, maxScore);\r\n    }\r\n\r\n    // Chc nng kim tra kt qu ngy thi Listening - Reading ca sinh vin  tn ti hay cha?\r\n    function checkExistLRResult(\r\n        address _studentOwner, \r\n        string memory _testDate) public view returns(uint x) {\r\n            for(uint i=0; i<iigLRResults.length; i++){\r\n                if((iigLRResults[i].studentOwner == _studentOwner) && (keccak256(bytes(iigLRResults[i].testDate)) == keccak256(bytes(_testDate)))){\r\n                    return 1;\r\n                }\r\n            }\r\n    }\r\n\r\n    // Chc nng thm thng tin im thi Speaking - Writing\r\n    function addSWResult (\r\n        address _iigOwner,\r\n        address _studentOwner,\r\n        string memory _testDate,\r\n        uint _speakingScore,\r\n        uint _writingScore) public {\r\n            require(_speakingScore >=0 && _speakingScore <=200, \"Speaking Score incorrect.\");\r\n            require(_writingScore >=0 && _writingScore <=200, \"Writing Score incorrect.\");\r\n            iigSWResults.push(\r\n                IIGSWResult(_iigOwner, \r\n                        _studentOwner, \r\n                        _testDate, \r\n                        _speakingScore, \r\n                        _writingScore,\r\n                        (_speakingScore + _writingScore))\r\n                );\r\n    }\r\n\r\n    // Chc nng ly danh sch im thi Speaking - Writing  thm\r\n    function getListSWResult(address _iigOwner) public view returns(\r\n        address[] memory,\r\n        address[] memory,\r\n        string[] memory,\r\n        uint[] memory,\r\n        uint[] memory,\r\n        uint[] memory) {\r\n            address[] memory iigOwners = new address[](iigSWResults.length);\r\n            address[] memory studentOwners = new address[](iigSWResults.length);\r\n            string[] memory testDates = new string[](iigSWResults.length);\r\n            uint[] memory speakingScores = new uint[](iigSWResults.length);\r\n            uint[] memory writingScores = new uint[](iigSWResults.length);\r\n            uint[] memory totalScores = new uint[](iigSWResults.length);\r\n            for(uint i=0; i<iigSWResults.length;i++){\r\n                if(iigSWResults[i].iigOwner == _iigOwner){\r\n                    iigOwners[i] = iigSWResults[i].iigOwner;\r\n                    studentOwners[i] = iigSWResults[i].studentOwner;\r\n                    testDates[i] = iigSWResults[i].testDate;\r\n                    speakingScores[i] = iigSWResults[i].speakingScore;\r\n                    writingScores[i] = iigSWResults[i].writingScore;\r\n                    totalScores[i] = iigSWResults[i].totalScore;\r\n                }\r\n            }\r\n            return (iigOwners, studentOwners, testDates, speakingScores, writingScores, totalScores);\r\n    }\r\n\r\n    // Chc nng ly thng tin im thi Speaking - Writing\r\n    function getSWResult(address _studentOwner) public view returns(\r\n        address studentOwners,\r\n        uint maxScore) {\r\n            uint[] memory totalScores = new uint[](iigSWResults.length);\r\n            for(uint i=0; i<iigSWResults.length;i++){\r\n                if(iigSWResults[i].studentOwner == _studentOwner){\r\n                    totalScores[i] = iigSWResults[i].totalScore;\r\n                }\r\n            }\r\n            maxScore = totalScores[0];\r\n            for(uint i=1; i<totalScores.length;i++){\r\n                if(maxScore < totalScores[i]){\r\n                    maxScore = totalScores[i];\r\n                }\r\n            }\r\n            return (_studentOwner, maxScore);\r\n    }\r\n    \r\n    // Chc nng kim tra kt qu ngy thi Speaking - Writing ca sinh vin  tn ti hay cha?\r\n    function checkExistSWResult(\r\n        address _studentOwner, \r\n        string memory _testDate) public view returns(uint x) {\r\n            for(uint i=0; i<iigSWResults.length; i++){\r\n                if((iigSWResults[i].studentOwner == _studentOwner) && (keccak256(bytes(iigSWResults[i].testDate)) == keccak256(bytes(_testDate)))){\r\n                    return 1;\r\n                }\r\n            }\r\n    }\r\n}",
  "sourcePath": "C:\\Users\\19520\\Documents\\NCKH_Blockchain\\SolidityProgramming\\ProjectResearch\\SmartCV\\SmartContract\\contracts\\SmartCV_ListIIG.sol",
  "compiler": {
    "name": "solc",
    "version": "0.8.11+commit.d7f03943.Emscripten.clang"
  },
  "schemaVersion": "3.4.4",
  "updatedAt": "2022-07-19T04:18:50.286Z",
  "devdoc": {
    "kind": "dev",
    "methods": {},
    "version": 1
  },
  "userdoc": {
    "kind": "user",
    "methods": {},
    "version": 1
  }
}