{
  "contractName": "ListStudent",
  "abi": [
    {
      "inputs": [
        {
          "internalType": "uint256",
          "name": "",
          "type": "uint256"
        }
      ],
      "name": "listSVs",
      "outputs": [
        {
          "internalType": "address",
          "name": "studentOwner",
          "type": "address"
        },
        {
          "internalType": "string",
          "name": "name",
          "type": "string"
        },
        {
          "internalType": "string",
          "name": "birthDay",
          "type": "string"
        },
        {
          "internalType": "string",
          "name": "professionalTitle",
          "type": "string"
        },
        {
          "internalType": "string",
          "name": "email",
          "type": "string"
        },
        {
          "internalType": "string",
          "name": "github",
          "type": "string"
        },
        {
          "internalType": "string",
          "name": "linkedin",
          "type": "string"
        },
        {
          "internalType": "string",
          "name": "password",
          "type": "string"
        }
      ],
      "stateMutability": "view",
      "type": "function"
    },
    {
      "inputs": [
        {
          "internalType": "uint256",
          "name": "",
          "type": "uint256"
        }
      ],
      "name": "listSkills",
      "outputs": [
        {
          "internalType": "address",
          "name": "studentOwner",
          "type": "address"
        },
        {
          "internalType": "string",
          "name": "title",
          "type": "string"
        },
        {
          "internalType": "uint256",
          "name": "level",
          "type": "uint256"
        }
      ],
      "stateMutability": "view",
      "type": "function"
    },
    {
      "inputs": [
        {
          "internalType": "address",
          "name": "_studentOwner",
          "type": "address"
        },
        {
          "internalType": "string",
          "name": "_name",
          "type": "string"
        },
        {
          "internalType": "string",
          "name": "_birthDay",
          "type": "string"
        },
        {
          "internalType": "string",
          "name": "_professionalTitle",
          "type": "string"
        },
        {
          "internalType": "string",
          "name": "_email",
          "type": "string"
        },
        {
          "internalType": "string",
          "name": "_github",
          "type": "string"
        },
        {
          "internalType": "string",
          "name": "_linked",
          "type": "string"
        },
        {
          "internalType": "string",
          "name": "_password",
          "type": "string"
        }
      ],
      "name": "addSV",
      "outputs": [],
      "stateMutability": "nonpayable",
      "type": "function"
    },
    {
      "inputs": [
        {
          "internalType": "address",
          "name": "_studentOwner",
          "type": "address"
        }
      ],
      "name": "getListSV",
      "outputs": [
        {
          "internalType": "string",
          "name": "name",
          "type": "string"
        },
        {
          "internalType": "string",
          "name": "birthDay",
          "type": "string"
        },
        {
          "internalType": "string",
          "name": "professionalTitle",
          "type": "string"
        },
        {
          "internalType": "string",
          "name": "email",
          "type": "string"
        },
        {
          "internalType": "string",
          "name": "github",
          "type": "string"
        },
        {
          "internalType": "string",
          "name": "linkedin",
          "type": "string"
        }
      ],
      "stateMutability": "view",
      "type": "function"
    },
    {
      "inputs": [
        {
          "internalType": "address",
          "name": "_studentOwner",
          "type": "address"
        },
        {
          "internalType": "string",
          "name": "_password",
          "type": "string"
        }
      ],
      "name": "checkStudent",
      "outputs": [
        {
          "internalType": "uint256",
          "name": "x",
          "type": "uint256"
        }
      ],
      "stateMutability": "view",
      "type": "function"
    },
    {
      "inputs": [
        {
          "internalType": "address",
          "name": "_studentOwner",
          "type": "address"
        },
        {
          "internalType": "string",
          "name": "_title",
          "type": "string"
        },
        {
          "internalType": "uint256",
          "name": "_level",
          "type": "uint256"
        }
      ],
      "name": "addSkill",
      "outputs": [],
      "stateMutability": "nonpayable",
      "type": "function"
    },
    {
      "inputs": [
        {
          "internalType": "address",
          "name": "_studentOwner",
          "type": "address"
        }
      ],
      "name": "getSkill",
      "outputs": [
        {
          "internalType": "string[]",
          "name": "",
          "type": "string[]"
        },
        {
          "internalType": "uint256[]",
          "name": "",
          "type": "uint256[]"
        }
      ],
      "stateMutability": "view",
      "type": "function"
    }
  ],
  "bytecode": "0x608060405234801561001057600080fd5b50611d9e806100206000396000f3fe608060405234801561001057600080fd5b506004361061007d5760003560e01c80638ac62b2b1161005b5780638ac62b2b1461010757806398947ec4146101375780639fea8e101461016c578063ac4b2049146101885761007d565b80633aff2cc51461008257806360ccb204146100b457806367047107146100d0575b600080fd5b61009c600480360381019061009791906112c1565b6101b9565b6040516100ab939291906113d7565b60405180910390f35b6100ce60048036038101906100c99190611576565b61029b565b005b6100ea60048036038101906100e591906112c1565b6103bd565b6040516100fe9897969594939291906115e5565b60405180910390f35b610121600480360381019061011c9190611694565b6107ed565b60405161012e91906116f0565b60405180910390f35b610151600480360381019061014c919061170b565b6108eb565b60405161016396959493929190611738565b60405180910390f35b610186600480360381019061018191906117c3565b610dd3565b005b6101a2600480360381019061019d919061170b565b610f6c565b6040516101b0929190611b07565b60405180910390f35b600181815481106101c957600080fd5b90600052602060002090600302016000915090508060000160009054906101000a900473ffffffffffffffffffffffffffffffffffffffff169080600101805461021290611b6d565b80601f016020809104026020016040519081016040528092919081815260200182805461023e90611b6d565b801561028b5780601f106102605761010080835404028352916020019161028b565b820191906000526020600020905b81548152906001019060200180831161026e57829003601f168201915b5050505050908060020154905083565b600081101580156102ad575060648111155b6102ec576040517f08c379a00000000000000000000000000000000000000000000000000000000081526004016102e390611beb565b60405180910390fd5b600160405180606001604052808573ffffffffffffffffffffffffffffffffffffffff16815260200184815260200183815250908060018154018082558091505060019003906000526020600020906003020160009091909190915060008201518160000160006101000a81548173ffffffffffffffffffffffffffffffffffffffff021916908373ffffffffffffffffffffffffffffffffffffffff16021790555060208201518160010190805190602001906103ab9291906111d4565b50604082015181600201555050505050565b600081815481106103cd57600080fd5b90600052602060002090600802016000915090508060000160009054906101000a900473ffffffffffffffffffffffffffffffffffffffff169080600101805461041690611b6d565b80601f016020809104026020016040519081016040528092919081815260200182805461044290611b6d565b801561048f5780601f106104645761010080835404028352916020019161048f565b820191906000526020600020905b81548152906001019060200180831161047257829003601f168201915b5050505050908060020180546104a490611b6d565b80601f01602080910402602001604051908101604052809291908181526020018280546104d090611b6d565b801561051d5780601f106104f25761010080835404028352916020019161051d565b820191906000526020600020905b81548152906001019060200180831161050057829003601f168201915b50505050509080600301805461053290611b6d565b80601f016020809104026020016040519081016040528092919081815260200182805461055e90611b6d565b80156105ab5780601f10610580576101008083540402835291602001916105ab565b820191906000526020600020905b81548152906001019060200180831161058e57829003601f168201915b5050505050908060040180546105c090611b6d565b80601f01602080910402602001604051908101604052809291908181526020018280546105ec90611b6d565b80156106395780601f1061060e57610100808354040283529160200191610639565b820191906000526020600020905b81548152906001019060200180831161061c57829003601f168201915b50505050509080600501805461064e90611b6d565b80601f016020809104026020016040519081016040528092919081815260200182805461067a90611b6d565b80156106c75780601f1061069c576101008083540402835291602001916106c7565b820191906000526020600020905b8154815290600101906020018083116106aa57829003601f168201915b5050505050908060060180546106dc90611b6d565b80601f016020809104026020016040519081016040528092919081815260200182805461070890611b6d565b80156107555780601f1061072a57610100808354040283529160200191610755565b820191906000526020600020905b81548152906001019060200180831161073857829003601f168201915b50505050509080600701805461076a90611b6d565b80601f016020809104026020016040519081016040528092919081815260200182805461079690611b6d565b80156107e35780601f106107b8576101008083540402835291602001916107e3565b820191906000526020600020905b8154815290600101906020018083116107c657829003601f168201915b5050505050905088565b600080600090505b6000805490508110156108e3578373ffffffffffffffffffffffffffffffffffffffff166000828154811061082d5761082c611c0b565b5b906000526020600020906008020160000160009054906101000a900473ffffffffffffffffffffffffffffffffffffffff1673ffffffffffffffffffffffffffffffffffffffff161480156108c1575082805190602001206000828154811061089957610898611c0b565b5b90600052602060002090600802016007016040516108b79190611cd9565b6040518091039020145b156108d05760019150506108e5565b80806108db90611d1f565b9150506107f5565b505b92915050565b60608060608060608060005b600080549050811015610dc8578773ffffffffffffffffffffffffffffffffffffffff166000828154811061092f5761092e611c0b565b5b906000526020600020906008020160000160009054906101000a900473ffffffffffffffffffffffffffffffffffffffff1673ffffffffffffffffffffffffffffffffffffffff161415610db5576000818154811061099157610990611c0b565b5b9060005260206000209060080201600101600082815481106109b6576109b5611c0b565b5b9060005260206000209060080201600201600083815481106109db576109da611c0b565b5b906000526020600020906008020160030160008481548110610a00576109ff611c0b565b5b906000526020600020906008020160040160008581548110610a2557610a24611c0b565b5b906000526020600020906008020160050160008681548110610a4a57610a49611c0b565b5b9060005260206000209060080201600601858054610a6790611b6d565b80601f0160208091040260200160405190810160405280929190818152602001828054610a9390611b6d565b8015610ae05780601f10610ab557610100808354040283529160200191610ae0565b820191906000526020600020905b815481529060010190602001808311610ac357829003601f168201915b50505050509550848054610af390611b6d565b80601f0160208091040260200160405190810160405280929190818152602001828054610b1f90611b6d565b8015610b6c5780601f10610b4157610100808354040283529160200191610b6c565b820191906000526020600020905b815481529060010190602001808311610b4f57829003601f168201915b50505050509450838054610b7f90611b6d565b80601f0160208091040260200160405190810160405280929190818152602001828054610bab90611b6d565b8015610bf85780601f10610bcd57610100808354040283529160200191610bf8565b820191906000526020600020905b815481529060010190602001808311610bdb57829003601f168201915b50505050509350828054610c0b90611b6d565b80601f0160208091040260200160405190810160405280929190818152602001828054610c3790611b6d565b8015610c845780601f10610c5957610100808354040283529160200191610c84565b820191906000526020600020905b815481529060010190602001808311610c6757829003601f168201915b50505050509250818054610c9790611b6d565b80601f0160208091040260200160405190810160405280929190818152602001828054610cc390611b6d565b8015610d105780601f10610ce557610100808354040283529160200191610d10565b820191906000526020600020905b815481529060010190602001808311610cf357829003601f168201915b50505050509150808054610d2390611b6d565b80601f0160208091040260200160405190810160405280929190818152602001828054610d4f90611b6d565b8015610d9c5780601f10610d7157610100808354040283529160200191610d9c565b820191906000526020600020905b815481529060010190602001808311610d7f57829003601f168201915b5050505050905096509650965096509650965050610dca565b8080610dc090611d1f565b9150506108f7565b505b91939550919395565b60006040518061010001604052808a73ffffffffffffffffffffffffffffffffffffffff16815260200189815260200188815260200187815260200186815260200185815260200184815260200183815250908060018154018082558091505060019003906000526020600020906008020160009091909190915060008201518160000160006101000a81548173ffffffffffffffffffffffffffffffffffffffff021916908373ffffffffffffffffffffffffffffffffffffffff1602179055506020820151816001019080519060200190610eb19291906111d4565b506040820151816002019080519060200190610ece9291906111d4565b506060820151816003019080519060200190610eeb9291906111d4565b506080820151816004019080519060200190610f089291906111d4565b5060a0820151816005019080519060200190610f259291906111d4565b5060c0820151816006019080519060200190610f429291906111d4565b5060e0820151816007019080519060200190610f5f9291906111d4565b5050505050505050505050565b606080600060018054905067ffffffffffffffff811115610f9057610f8f61144b565b5b604051908082528060200260200182016040528015610fc357816020015b6060815260200190600190039081610fae5790505b509050600060018054905067ffffffffffffffff811115610fe757610fe661144b565b5b6040519080825280602002602001820160405280156110155781602001602082028036833780820191505090505b50905060005b6001805490508110156111c6578573ffffffffffffffffffffffffffffffffffffffff166001828154811061105357611052611c0b565b5b906000526020600020906003020160000160009054906101000a900473ffffffffffffffffffffffffffffffffffffffff1673ffffffffffffffffffffffffffffffffffffffff1614156111b357600181815481106110b5576110b4611c0b565b5b906000526020600020906003020160010180546110d190611b6d565b80601f01602080910402602001604051908101604052809291908181526020018280546110fd90611b6d565b801561114a5780601f1061111f5761010080835404028352916020019161114a565b820191906000526020600020905b81548152906001019060200180831161112d57829003601f168201915b505050505083828151811061116257611161611c0b565b5b60200260200101819052506001818154811061118157611180611c0b565b5b9060005260206000209060030201600201548282815181106111a6576111a5611c0b565b5b6020026020010181815250505b80806111be90611d1f565b91505061101b565b508181935093505050915091565b8280546111e090611b6d565b90600052602060002090601f0160209004810192826112025760008555611249565b82601f1061121b57805160ff1916838001178555611249565b82800160010185558215611249579182015b8281111561124857825182559160200191906001019061122d565b5b509050611256919061125a565b5090565b5b8082111561127357600081600090555060010161125b565b5090565b6000604051905090565b600080fd5b600080fd5b6000819050919050565b61129e8161128b565b81146112a957600080fd5b50565b6000813590506112bb81611295565b92915050565b6000602082840312156112d7576112d6611281565b5b60006112e5848285016112ac565b91505092915050565b600073ffffffffffffffffffffffffffffffffffffffff82169050919050565b6000611319826112ee565b9050919050565b6113298161130e565b82525050565b600081519050919050565b600082825260208201905092915050565b60005b8381101561136957808201518184015260208101905061134e565b83811115611378576000848401525b50505050565b6000601f19601f8301169050919050565b600061139a8261132f565b6113a4818561133a565b93506113b481856020860161134b565b6113bd8161137e565b840191505092915050565b6113d18161128b565b82525050565b60006060820190506113ec6000830186611320565b81810360208301526113fe818561138f565b905061140d60408301846113c8565b949350505050565b61141e8161130e565b811461142957600080fd5b50565b60008135905061143b81611415565b92915050565b600080fd5b600080fd5b7f4e487b7100000000000000000000000000000000000000000000000000000000600052604160045260246000fd5b6114838261137e565b810181811067ffffffffffffffff821117156114a2576114a161144b565b5b80604052505050565b60006114b5611277565b90506114c1828261147a565b919050565b600067ffffffffffffffff8211156114e1576114e061144b565b5b6114ea8261137e565b9050602081019050919050565b82818337600083830152505050565b6000611519611514846114c6565b6114ab565b90508281526020810184848401111561153557611534611446565b5b6115408482856114f7565b509392505050565b600082601f83011261155d5761155c611441565b5b813561156d848260208601611506565b91505092915050565b60008060006060848603121561158f5761158e611281565b5b600061159d8682870161142c565b935050602084013567ffffffffffffffff8111156115be576115bd611286565b5b6115ca86828701611548565b92505060406115db868287016112ac565b9150509250925092565b6000610100820190506115fb600083018b611320565b818103602083015261160d818a61138f565b90508181036040830152611621818961138f565b90508181036060830152611635818861138f565b90508181036080830152611649818761138f565b905081810360a083015261165d818661138f565b905081810360c0830152611671818561138f565b905081810360e0830152611685818461138f565b90509998505050505050505050565b600080604083850312156116ab576116aa611281565b5b60006116b98582860161142c565b925050602083013567ffffffffffffffff8111156116da576116d9611286565b5b6116e685828601611548565b9150509250929050565b600060208201905061170560008301846113c8565b92915050565b60006020828403121561172157611720611281565b5b600061172f8482850161142c565b91505092915050565b600060c0820190508181036000830152611752818961138f565b90508181036020830152611766818861138f565b9050818103604083015261177a818761138f565b9050818103606083015261178e818661138f565b905081810360808301526117a2818561138f565b905081810360a08301526117b6818461138f565b9050979650505050505050565b600080600080600080600080610100898b0312156117e4576117e3611281565b5b60006117f28b828c0161142c565b985050602089013567ffffffffffffffff81111561181357611812611286565b5b61181f8b828c01611548565b975050604089013567ffffffffffffffff8111156118405761183f611286565b5b61184c8b828c01611548565b965050606089013567ffffffffffffffff81111561186d5761186c611286565b5b6118798b828c01611548565b955050608089013567ffffffffffffffff81111561189a57611899611286565b5b6118a68b828c01611548565b94505060a089013567ffffffffffffffff8111156118c7576118c6611286565b5b6118d38b828c01611548565b93505060c089013567ffffffffffffffff8111156118f4576118f3611286565b5b6119008b828c01611548565b92505060e089013567ffffffffffffffff81111561192157611920611286565b5b61192d8b828c01611548565b9150509295985092959890939650565b600081519050919050565b600082825260208201905092915050565b6000819050602082019050919050565b600082825260208201905092915050565b60006119858261132f565b61198f8185611969565b935061199f81856020860161134b565b6119a88161137e565b840191505092915050565b60006119bf838361197a565b905092915050565b6000602082019050919050565b60006119df8261193d565b6119e98185611948565b9350836020820285016119fb85611959565b8060005b85811015611a375784840389528151611a1885826119b3565b9450611a23836119c7565b925060208a019950506001810190506119ff565b50829750879550505050505092915050565b600081519050919050565b600082825260208201905092915050565b6000819050602082019050919050565b611a7e8161128b565b82525050565b6000611a908383611a75565b60208301905092915050565b6000602082019050919050565b6000611ab482611a49565b611abe8185611a54565b9350611ac983611a65565b8060005b83811015611afa578151611ae18882611a84565b9750611aec83611a9c565b925050600181019050611acd565b5085935050505092915050565b60006040820190508181036000830152611b2181856119d4565b90508181036020830152611b358184611aa9565b90509392505050565b7f4e487b7100000000000000000000000000000000000000000000000000000000600052602260045260246000fd5b60006002820490506001821680611b8557607f821691505b60208210811415611b9957611b98611b3e565b5b50919050565b7f4c6576656c206f6620736b696c6c20696e636f72726563742e00000000000000600082015250565b6000611bd560198361133a565b9150611be082611b9f565b602082019050919050565b60006020820190508181036000830152611c0481611bc8565b9050919050565b7f4e487b7100000000000000000000000000000000000000000000000000000000600052603260045260246000fd5b600081905092915050565b60008190508160005260206000209050919050565b60008154611c6781611b6d565b611c718186611c3a565b94506001821660008114611c8c5760018114611c9d57611cd0565b60ff19831686528186019350611cd0565b611ca685611c45565b60005b83811015611cc857815481890152600182019150602081019050611ca9565b838801955050505b50505092915050565b6000611ce58284611c5a565b915081905092915050565b7f4e487b7100000000000000000000000000000000000000000000000000000000600052601160045260246000fd5b6000611d2a8261128b565b91507fffffffffffffffffffffffffffffffffffffffffffffffffffffffffffffffff821415611d5d57611d5c611cf0565b5b60018201905091905056fea2646970667358221220f9f5acc937aaa80c4d31bceb56911d2274bdcacc49d0b3e268ae4e13e4b2651264736f6c634300080b0033",
  "immutableReferences": {},
  "source": "// SPDX-License-Identifier: MIT\r\npragma solidity >=0.4.22 <0.9.0;\r\n\r\n//Lu tr danh sch sinh vin\r\ncontract ListStudent {\r\n\r\n    struct ListSV {\r\n        address studentOwner;\r\n        string name; \r\n        string birthDay; \r\n        string professionalTitle;\r\n        string email;\r\n        string github; \r\n        string linkedin;\r\n        string password;\r\n    }\r\n    struct ListSkill {\r\n        address studentOwner;\r\n        string title; \r\n        uint level;\r\n    }\r\n    \r\n    ListSV[] public listSVs;\r\n    ListSkill[] public listSkills;\r\n\r\n    function addSV (\r\n        address _studentOwner,\r\n        string memory _name,\r\n        string memory _birthDay,\r\n        string memory _professionalTitle,\r\n        string memory _email,\r\n        string memory _github,\r\n        string memory _linked,\r\n        string memory _password) public {\r\n            listSVs.push(ListSV(_studentOwner, _name, _birthDay, _professionalTitle, _email, _github, _linked, _password));\r\n    }\r\n\r\n    function getListSV(address _studentOwner) public view returns(string memory name,string memory birthDay,string memory professionalTitle,string memory email,string memory github,string memory linkedin) {\r\n        for(uint i=0; i<listSVs.length;i++){\r\n            if(listSVs[i].studentOwner == _studentOwner){\r\n                return (listSVs[i].name, \r\n                listSVs[i].birthDay, \r\n                listSVs[i].professionalTitle, \r\n                listSVs[i].email, \r\n                listSVs[i].github, \r\n                listSVs[i].linkedin);\r\n            } \r\n        }  \r\n    }\r\n\r\n    function checkStudent(address _studentOwner, string memory _password) public view returns(uint x) {\r\n        for(uint i=0; i<listSVs.length;i++){\r\n            if((listSVs[i].studentOwner == _studentOwner) && (keccak256(bytes(listSVs[i].password)) == keccak256(bytes(_password)))){\r\n                return 1;\r\n            }\r\n        }\r\n    }\r\n\r\n    function addSkill(\r\n        address _studentOwner,\r\n        string memory _title, \r\n        uint _level) public {\r\n            require(_level >=0 && _level <=100, \"Level of skill incorrect.\");\r\n            listSkills.push(ListSkill(_studentOwner, _title, _level));\r\n    }\r\n\r\n    function getSkill(address _studentOwner) public view returns(string[] memory,uint[] memory) {\r\n        string[] memory titles = new string[](listSkills.length);\r\n        uint[] memory levels = new uint[](listSkills.length);\r\n        for(uint i=0; i<listSkills.length;i++){\r\n            if(listSkills[i].studentOwner == _studentOwner) {\r\n                titles[i] = listSkills[i].title;\r\n                levels[i] = listSkills[i].level;\r\n            }\r\n        }\r\n        return (titles, levels);\r\n    }\r\n    \r\n}",
  "sourcePath": "C:\\Users\\19520\\Documents\\NCKH_Blockchain\\SolidityProgramming\\ProjectResearch\\SmartCV\\SmartContract\\contracts\\SmartCV_ListStudent.sol",
  "compiler": {
    "name": "solc",
    "version": "0.8.11+commit.d7f03943.Emscripten.clang"
  },
  "schemaVersion": "3.4.4",
  "updatedAt": "2022-06-25T15:49:45.115Z",
  "devdoc": {
    "kind": "dev",
    "methods": {},
    "version": 1
  },
  "userdoc": {
    "kind": "user",
    "methods": {},
    "version": 1
  }
}