{
  "contractName": "ListIIG",
  "abi": [
    {
      "inputs": [
        {
          "internalType": "uint256",
          "name": "",
          "type": "uint256"
        }
      ],
      "name": "iigInfos",
      "outputs": [
        {
          "internalType": "address",
          "name": "iigOwner",
          "type": "address"
        },
        {
          "internalType": "string",
          "name": "name",
          "type": "string"
        },
        {
          "internalType": "string",
          "name": "country",
          "type": "string"
        },
        {
          "internalType": "string",
          "name": "facebook",
          "type": "string"
        },
        {
          "internalType": "string",
          "name": "website",
          "type": "string"
        },
        {
          "internalType": "string",
          "name": "linkedin",
          "type": "string"
        },
        {
          "internalType": "string",
          "name": "password",
          "type": "string"
        }
      ],
      "stateMutability": "view",
      "type": "function"
    },
    {
      "inputs": [
        {
          "internalType": "uint256",
          "name": "",
          "type": "uint256"
        }
      ],
      "name": "iigLRResults",
      "outputs": [
        {
          "internalType": "bytes4",
          "name": "codeLRResult",
          "type": "bytes4"
        },
        {
          "internalType": "address",
          "name": "iigOwner",
          "type": "address"
        },
        {
          "internalType": "address",
          "name": "studentOwner",
          "type": "address"
        },
        {
          "internalType": "string",
          "name": "testDate",
          "type": "string"
        },
        {
          "internalType": "uint256",
          "name": "shiftTest",
          "type": "uint256"
        },
        {
          "internalType": "string",
          "name": "expireDate",
          "type": "string"
        },
        {
          "internalType": "uint256",
          "name": "listeningScore",
          "type": "uint256"
        },
        {
          "internalType": "uint256",
          "name": "readingScore",
          "type": "uint256"
        },
        {
          "internalType": "uint256",
          "name": "totalScore",
          "type": "uint256"
        }
      ],
      "stateMutability": "view",
      "type": "function"
    },
    {
      "inputs": [
        {
          "internalType": "uint256",
          "name": "",
          "type": "uint256"
        }
      ],
      "name": "iigRequests",
      "outputs": [
        {
          "internalType": "bytes4",
          "name": "codeRequest",
          "type": "bytes4"
        },
        {
          "internalType": "address",
          "name": "studentOwner",
          "type": "address"
        },
        {
          "internalType": "address",
          "name": "iigOwner",
          "type": "address"
        },
        {
          "internalType": "string",
          "name": "identityCard",
          "type": "string"
        },
        {
          "internalType": "string",
          "name": "requestDate",
          "type": "string"
        },
        {
          "internalType": "string",
          "name": "statusRequest",
          "type": "string"
        }
      ],
      "stateMutability": "view",
      "type": "function"
    },
    {
      "inputs": [
        {
          "internalType": "uint256",
          "name": "",
          "type": "uint256"
        }
      ],
      "name": "iigSWResults",
      "outputs": [
        {
          "internalType": "bytes4",
          "name": "codeSWResult",
          "type": "bytes4"
        },
        {
          "internalType": "address",
          "name": "iigOwner",
          "type": "address"
        },
        {
          "internalType": "address",
          "name": "studentOwner",
          "type": "address"
        },
        {
          "internalType": "string",
          "name": "testDate",
          "type": "string"
        },
        {
          "internalType": "uint256",
          "name": "shiftTest",
          "type": "uint256"
        },
        {
          "internalType": "string",
          "name": "expireDate",
          "type": "string"
        },
        {
          "internalType": "uint256",
          "name": "speakingScore",
          "type": "uint256"
        },
        {
          "internalType": "uint256",
          "name": "writingScore",
          "type": "uint256"
        },
        {
          "internalType": "uint256",
          "name": "totalScore",
          "type": "uint256"
        }
      ],
      "stateMutability": "view",
      "type": "function"
    },
    {
      "inputs": [
        {
          "internalType": "address",
          "name": "_iigOwner",
          "type": "address"
        },
        {
          "internalType": "string",
          "name": "_name",
          "type": "string"
        },
        {
          "internalType": "string",
          "name": "_country",
          "type": "string"
        },
        {
          "internalType": "string",
          "name": "_facebook",
          "type": "string"
        },
        {
          "internalType": "string",
          "name": "_website",
          "type": "string"
        },
        {
          "internalType": "string",
          "name": "_linkedin",
          "type": "string"
        },
        {
          "internalType": "string",
          "name": "_password",
          "type": "string"
        }
      ],
      "name": "addIIG",
      "outputs": [],
      "stateMutability": "nonpayable",
      "type": "function"
    },
    {
      "inputs": [
        {
          "internalType": "address",
          "name": "_iigOwner",
          "type": "address"
        },
        {
          "internalType": "string",
          "name": "_name",
          "type": "string"
        },
        {
          "internalType": "string",
          "name": "_country",
          "type": "string"
        },
        {
          "internalType": "string",
          "name": "_facebook",
          "type": "string"
        },
        {
          "internalType": "string",
          "name": "_website",
          "type": "string"
        },
        {
          "internalType": "string",
          "name": "_linkedin",
          "type": "string"
        }
      ],
      "name": "editIIG",
      "outputs": [],
      "stateMutability": "nonpayable",
      "type": "function"
    },
    {
      "inputs": [],
      "name": "getListIIG",
      "outputs": [
        {
          "internalType": "address[]",
          "name": "",
          "type": "address[]"
        },
        {
          "internalType": "string[]",
          "name": "",
          "type": "string[]"
        },
        {
          "internalType": "string[]",
          "name": "",
          "type": "string[]"
        },
        {
          "internalType": "string[]",
          "name": "",
          "type": "string[]"
        },
        {
          "internalType": "string[]",
          "name": "",
          "type": "string[]"
        },
        {
          "internalType": "string[]",
          "name": "",
          "type": "string[]"
        },
        {
          "internalType": "string[]",
          "name": "",
          "type": "string[]"
        }
      ],
      "stateMutability": "view",
      "type": "function"
    },
    {
      "inputs": [
        {
          "internalType": "address",
          "name": "_iigOwner",
          "type": "address"
        }
      ],
      "name": "getProfile",
      "outputs": [
        {
          "internalType": "address",
          "name": "iigOwner",
          "type": "address"
        },
        {
          "internalType": "string",
          "name": "name",
          "type": "string"
        },
        {
          "internalType": "string",
          "name": "country",
          "type": "string"
        },
        {
          "internalType": "string",
          "name": "facebook",
          "type": "string"
        },
        {
          "internalType": "string",
          "name": "website",
          "type": "string"
        },
        {
          "internalType": "string",
          "name": "linkedin",
          "type": "string"
        }
      ],
      "stateMutability": "view",
      "type": "function"
    },
    {
      "inputs": [
        {
          "internalType": "address",
          "name": "_iigOwner",
          "type": "address"
        },
        {
          "internalType": "string",
          "name": "_password",
          "type": "string"
        }
      ],
      "name": "checkIIG",
      "outputs": [
        {
          "internalType": "uint256",
          "name": "x",
          "type": "uint256"
        }
      ],
      "stateMutability": "view",
      "type": "function"
    },
    {
      "inputs": [
        {
          "internalType": "address",
          "name": "_iigOwner",
          "type": "address"
        }
      ],
      "name": "checkExistIIG",
      "outputs": [
        {
          "internalType": "uint256",
          "name": "x",
          "type": "uint256"
        }
      ],
      "stateMutability": "view",
      "type": "function"
    },
    {
      "inputs": [
        {
          "internalType": "address",
          "name": "_studentOwner",
          "type": "address"
        },
        {
          "internalType": "address",
          "name": "_iigOwner",
          "type": "address"
        },
        {
          "internalType": "string",
          "name": "_identityCard",
          "type": "string"
        },
        {
          "internalType": "string",
          "name": "_requestDate",
          "type": "string"
        }
      ],
      "name": "addRequest",
      "outputs": [],
      "stateMutability": "nonpayable",
      "type": "function"
    },
    {
      "inputs": [
        {
          "internalType": "address",
          "name": "_iigOwner",
          "type": "address"
        }
      ],
      "name": "getListRequest",
      "outputs": [
        {
          "internalType": "bytes4[]",
          "name": "",
          "type": "bytes4[]"
        },
        {
          "internalType": "address[]",
          "name": "",
          "type": "address[]"
        },
        {
          "internalType": "address[]",
          "name": "",
          "type": "address[]"
        },
        {
          "internalType": "string[]",
          "name": "",
          "type": "string[]"
        },
        {
          "internalType": "string[]",
          "name": "",
          "type": "string[]"
        },
        {
          "internalType": "string[]",
          "name": "",
          "type": "string[]"
        }
      ],
      "stateMutability": "view",
      "type": "function"
    },
    {
      "inputs": [
        {
          "internalType": "address",
          "name": "_iigOwner",
          "type": "address"
        },
        {
          "internalType": "address",
          "name": "_studentOwner",
          "type": "address"
        }
      ],
      "name": "getListRequestStudent",
      "outputs": [
        {
          "internalType": "bytes4[]",
          "name": "",
          "type": "bytes4[]"
        },
        {
          "internalType": "address[]",
          "name": "",
          "type": "address[]"
        },
        {
          "internalType": "address[]",
          "name": "",
          "type": "address[]"
        },
        {
          "internalType": "string[]",
          "name": "",
          "type": "string[]"
        },
        {
          "internalType": "string[]",
          "name": "",
          "type": "string[]"
        },
        {
          "internalType": "string[]",
          "name": "",
          "type": "string[]"
        }
      ],
      "stateMutability": "view",
      "type": "function"
    },
    {
      "inputs": [
        {
          "internalType": "address",
          "name": "_studentOwner",
          "type": "address"
        },
        {
          "internalType": "address",
          "name": "_iigOwner",
          "type": "address"
        }
      ],
      "name": "checkRequest",
      "outputs": [
        {
          "internalType": "uint256",
          "name": "x",
          "type": "uint256"
        }
      ],
      "stateMutability": "view",
      "type": "function"
    },
    {
      "inputs": [
        {
          "internalType": "address",
          "name": "_studentOwner",
          "type": "address"
        },
        {
          "internalType": "address",
          "name": "_iigOwner",
          "type": "address"
        },
        {
          "internalType": "bytes4",
          "name": "_codeRequest",
          "type": "bytes4"
        },
        {
          "internalType": "string",
          "name": "_statusRequest",
          "type": "string"
        }
      ],
      "name": "confirmRequest",
      "outputs": [],
      "stateMutability": "nonpayable",
      "type": "function"
    },
    {
      "inputs": [
        {
          "internalType": "address",
          "name": "_iigOwner",
          "type": "address"
        },
        {
          "internalType": "address",
          "name": "_studentOwner",
          "type": "address"
        },
        {
          "internalType": "string",
          "name": "_testDate",
          "type": "string"
        },
        {
          "internalType": "uint256",
          "name": "_shiftTest",
          "type": "uint256"
        },
        {
          "internalType": "string",
          "name": "_expireDate",
          "type": "string"
        },
        {
          "internalType": "uint256",
          "name": "_listeningScore",
          "type": "uint256"
        },
        {
          "internalType": "uint256",
          "name": "_readingScore",
          "type": "uint256"
        }
      ],
      "name": "addLRResult",
      "outputs": [],
      "stateMutability": "nonpayable",
      "type": "function"
    },
    {
      "inputs": [
        {
          "internalType": "address",
          "name": "_iigOwner",
          "type": "address"
        },
        {
          "internalType": "address",
          "name": "_studentOwner",
          "type": "address"
        }
      ],
      "name": "getListLRResult",
      "outputs": [
        {
          "internalType": "string[]",
          "name": "",
          "type": "string[]"
        },
        {
          "internalType": "uint256[]",
          "name": "",
          "type": "uint256[]"
        },
        {
          "internalType": "string[]",
          "name": "",
          "type": "string[]"
        },
        {
          "internalType": "uint256[]",
          "name": "",
          "type": "uint256[]"
        },
        {
          "internalType": "uint256[]",
          "name": "",
          "type": "uint256[]"
        },
        {
          "internalType": "uint256[]",
          "name": "",
          "type": "uint256[]"
        }
      ],
      "stateMutability": "view",
      "type": "function"
    },
    {
      "inputs": [
        {
          "internalType": "address",
          "name": "_iigOwner",
          "type": "address"
        },
        {
          "internalType": "address",
          "name": "_studentOwner",
          "type": "address"
        },
        {
          "internalType": "string",
          "name": "_testDate",
          "type": "string"
        },
        {
          "internalType": "uint256",
          "name": "_shiftTest",
          "type": "uint256"
        }
      ],
      "name": "getLRResult",
      "outputs": [
        {
          "internalType": "string",
          "name": "testDate",
          "type": "string"
        },
        {
          "internalType": "uint256",
          "name": "shiftTest",
          "type": "uint256"
        },
        {
          "internalType": "string",
          "name": "expireDate",
          "type": "string"
        },
        {
          "internalType": "uint256",
          "name": "listeningScore",
          "type": "uint256"
        },
        {
          "internalType": "uint256",
          "name": "readingScore",
          "type": "uint256"
        },
        {
          "internalType": "uint256",
          "name": "totalScore",
          "type": "uint256"
        }
      ],
      "stateMutability": "view",
      "type": "function"
    },
    {
      "inputs": [
        {
          "internalType": "address",
          "name": "_studentOwner",
          "type": "address"
        },
        {
          "internalType": "string",
          "name": "_testDate",
          "type": "string"
        },
        {
          "internalType": "uint256",
          "name": "_shiftTest",
          "type": "uint256"
        }
      ],
      "name": "checkExistLRResult",
      "outputs": [
        {
          "internalType": "uint256",
          "name": "x",
          "type": "uint256"
        }
      ],
      "stateMutability": "view",
      "type": "function"
    },
    {
      "inputs": [
        {
          "internalType": "address",
          "name": "_iigOwner",
          "type": "address"
        },
        {
          "internalType": "address",
          "name": "_studentOwner",
          "type": "address"
        },
        {
          "internalType": "string",
          "name": "_testDate",
          "type": "string"
        },
        {
          "internalType": "uint256",
          "name": "_shiftTest",
          "type": "uint256"
        },
        {
          "internalType": "string",
          "name": "_expireDate",
          "type": "string"
        },
        {
          "internalType": "uint256",
          "name": "_speakingScore",
          "type": "uint256"
        },
        {
          "internalType": "uint256",
          "name": "_writingScore",
          "type": "uint256"
        }
      ],
      "name": "addSWResult",
      "outputs": [],
      "stateMutability": "nonpayable",
      "type": "function"
    },
    {
      "inputs": [
        {
          "internalType": "address",
          "name": "_iigOwner",
          "type": "address"
        },
        {
          "internalType": "address",
          "name": "_studentOwner",
          "type": "address"
        }
      ],
      "name": "getListSWResult",
      "outputs": [
        {
          "internalType": "string[]",
          "name": "",
          "type": "string[]"
        },
        {
          "internalType": "uint256[]",
          "name": "",
          "type": "uint256[]"
        },
        {
          "internalType": "string[]",
          "name": "",
          "type": "string[]"
        },
        {
          "internalType": "uint256[]",
          "name": "",
          "type": "uint256[]"
        },
        {
          "internalType": "uint256[]",
          "name": "",
          "type": "uint256[]"
        },
        {
          "internalType": "uint256[]",
          "name": "",
          "type": "uint256[]"
        }
      ],
      "stateMutability": "view",
      "type": "function"
    },
    {
      "inputs": [
        {
          "internalType": "address",
          "name": "_iigOwner",
          "type": "address"
        },
        {
          "internalType": "address",
          "name": "_studentOwner",
          "type": "address"
        },
        {
          "internalType": "string",
          "name": "_testDate",
          "type": "string"
        },
        {
          "internalType": "uint256",
          "name": "_shiftTest",
          "type": "uint256"
        }
      ],
      "name": "getSWResult",
      "outputs": [
        {
          "internalType": "string",
          "name": "testDate",
          "type": "string"
        },
        {
          "internalType": "uint256",
          "name": "shiftTest",
          "type": "uint256"
        },
        {
          "internalType": "string",
          "name": "expireDate",
          "type": "string"
        },
        {
          "internalType": "uint256",
          "name": "speakingScore",
          "type": "uint256"
        },
        {
          "internalType": "uint256",
          "name": "writingScore",
          "type": "uint256"
        },
        {
          "internalType": "uint256",
          "name": "totalScore",
          "type": "uint256"
        }
      ],
      "stateMutability": "view",
      "type": "function"
    },
    {
      "inputs": [
        {
          "internalType": "address",
          "name": "_studentOwner",
          "type": "address"
        },
        {
          "internalType": "string",
          "name": "_testDate",
          "type": "string"
        },
        {
          "internalType": "uint256",
          "name": "_shiftTest",
          "type": "uint256"
        }
      ],
      "name": "checkExistSWResult",
      "outputs": [
        {
          "internalType": "uint256",
          "name": "x",
          "type": "uint256"
        }
      ],
      "stateMutability": "view",
      "type": "function"
    }
  ],
  "bytecode": "0x608060405234801561001057600080fd5b50616ace80620000216000396000f3fe608060405234801561001057600080fd5b506004361061014d5760003560e01c806380d95162116100c3578063a9846eb01161007c578063a9846eb01461046b578063b351d176146104a3578063bc72af7d146104bf578063dd8f3edc146104f4578063f1857d2114610510578063fe933225146105405761014d565b806380d951621461037557806384ae9131146103a55780638a8f1d05146103c9578063948195ed146103e55780639fa7247a14610401578063a76d2579146104365761014d565b80630f53a470116101155780630f53a4701461025757806324e660371461028c578063323cc7c5146102bc57806344fd6e22146102f157806349f47a55146103215780636cf871df146103595761014d565b8063018d934a146101525780630381b0131461018257806306ed1e89146101b757806309bef62a146101ec5780630c3f988214610222575b600080fd5b61016c6004803603810190610167919061532c565b61055c565b6040516101799190615385565b60405180910390f35b61019c60048036038101906101979190615512565b61070b565b6040516101ae9695949392919061561d565b60405180910390f35b6101d160048036038101906101cc919061532c565b610ad0565b6040516101e396959493929190615856565b60405180910390f35b610206600480360381019061020191906158e1565b6110b7565b604051610219979695949392919061591d565b60405180910390f35b61023c6004803603810190610237919061532c565b611459565b60405161024e96959493929190615b5e565b60405180910390f35b610271600480360381019061026c9190615be9565b611bb5565b60405161028396959493929190615c16565b60405180910390f35b6102a660048036038101906102a19190615c9a565b612033565b6040516102b39190615385565b60405180910390f35b6102d660048036038101906102d191906158e1565b612131565b6040516102e896959493929190615d05565b60405180910390f35b61030b60048036038101906103069190615be9565b612362565b6040516103189190615385565b60405180910390f35b61033b600480360381019061033691906158e1565b612414565b60405161035099989796959493929190615d7b565b60405180910390f35b610373600480360381019061036e9190615e16565b6125cf565b005b61038f600480360381019061038a9190615f2f565b612797565b60405161039c9190615385565b60405180910390f35b6103ad6128cf565b6040516103c09796959493929190615f9e565b60405180910390f35b6103e360048036038101906103de919061603e565b6130d3565b005b6103ff60048036038101906103fa9190616118565b61347c565b005b61041b60048036038101906104169190615be9565b6136d7565b60405161042d96959493929190615b5e565b60405180910390f35b610450600480360381019061044b9190615512565b613db6565b6040516104629695949392919061561d565b60405180910390f35b610485600480360381019061048091906158e1565b61417b565b60405161049a99989796959493929190615d7b565b60405180910390f35b6104bd60048036038101906104b891906161e3565b614336565b005b6104d960048036038101906104d4919061532c565b6145dd565b6040516104eb96959493929190615856565b60405180910390f35b61050e60048036038101906105099190616266565b614bc4565b005b61052a60048036038101906105259190615f2f565b614d38565b6040516105379190615385565b60405180910390f35b61055a6004803603810190610555919061603e565b614e70565b005b600080600090505b600180549050811015610703578373ffffffffffffffffffffffffffffffffffffffff166001828154811061059c5761059b6163b0565b5b906000526020600020906005020160000160049054906101000a900473ffffffffffffffffffffffffffffffffffffffff1673ffffffffffffffffffffffffffffffffffffffff1614801561066157508273ffffffffffffffffffffffffffffffffffffffff1660018281548110610617576106166163b0565b5b906000526020600020906005020160010160009054906101000a900473ffffffffffffffffffffffffffffffffffffffff1673ffffffffffffffffffffffffffffffffffffffff16145b80156106e157506040518060400160405280600781526020017f57616974696e670000000000000000000000000000000000000000000000000081525080519060200120600182815481106106b9576106b86163b0565b5b90600052602060002090600502016004016040516106d791906164df565b6040518091039020145b156106f0576001915050610705565b80806106fb90616525565b915050610564565b505b92915050565b606060006060600080600080600090505b600280549050811015610ac1578a73ffffffffffffffffffffffffffffffffffffffff1660028281548110610754576107536163b0565b5b906000526020600020906008020160000160049054906101000a900473ffffffffffffffffffffffffffffffffffffffff1673ffffffffffffffffffffffffffffffffffffffff1614801561081957508973ffffffffffffffffffffffffffffffffffffffff16600282815481106107cf576107ce6163b0565b5b906000526020600020906008020160010160009054906101000a900473ffffffffffffffffffffffffffffffffffffffff1673ffffffffffffffffffffffffffffffffffffffff16145b801561089d575088886040516020016108339291906165cb565b604051602081830303815290604052805190602001206002828154811061085d5761085c6163b0565b5b906000526020600020906008020160000160009054906101000a900460e01b7bffffffffffffffffffffffffffffffffffffffffffffffffffffffff1916145b15610aae57600281815481106108b6576108b56163b0565b5b9060005260206000209060080201600201600282815481106108db576108da6163b0565b5b90600052602060002090600802016003015460028381548110610901576109006163b0565b5b906000526020600020906008020160040160028481548110610926576109256163b0565b5b9060005260206000209060080201600501546002858154811061094c5761094b6163b0565b5b90600052602060002090600802016006015460028681548110610972576109716163b0565b5b9060005260206000209060080201600701548580546109909061640e565b80601f01602080910402602001604051908101604052809291908181526020018280546109bc9061640e565b8015610a095780601f106109de57610100808354040283529160200191610a09565b820191906000526020600020905b8154815290600101906020018083116109ec57829003601f168201915b50505050509550838054610a1c9061640e565b80601f0160208091040260200160405190810160405280929190818152602001828054610a489061640e565b8015610a955780601f10610a6a57610100808354040283529160200191610a95565b820191906000526020600020905b815481529060010190602001808311610a7857829003601f168201915b5050505050935096509650965096509650965050610ac3565b8080610ab990616525565b91505061071c565b505b9499939850945094509450565b606080606080606080600060038054905067ffffffffffffffff811115610afa57610af96153bb565b5b604051908082528060200260200182016040528015610b2d57816020015b6060815260200190600190039081610b185790505b509050600060038054905067ffffffffffffffff811115610b5157610b506153bb565b5b604051908082528060200260200182016040528015610b7f5781602001602082028036833780820191505090505b509050600060038054905067ffffffffffffffff811115610ba357610ba26153bb565b5b604051908082528060200260200182016040528015610bd657816020015b6060815260200190600190039081610bc15790505b509050600060038054905067ffffffffffffffff811115610bfa57610bf96153bb565b5b604051908082528060200260200182016040528015610c285781602001602082028036833780820191505090505b509050600060038054905067ffffffffffffffff811115610c4c57610c4b6153bb565b5b604051908082528060200260200182016040528015610c7a5781602001602082028036833780820191505090505b509050600060038054905067ffffffffffffffff811115610c9e57610c9d6153bb565b5b604051908082528060200260200182016040528015610ccc5781602001602082028036833780820191505090505b50905060005b600380549050811015611094578e73ffffffffffffffffffffffffffffffffffffffff1660028281548110610d0a57610d096163b0565b5b906000526020600020906008020160000160049054906101000a900473ffffffffffffffffffffffffffffffffffffffff1673ffffffffffffffffffffffffffffffffffffffff16148015610dcf57508d73ffffffffffffffffffffffffffffffffffffffff1660028281548110610d8557610d846163b0565b5b906000526020600020906008020160010160009054906101000a900473ffffffffffffffffffffffffffffffffffffffff1673ffffffffffffffffffffffffffffffffffffffff16145b156110815760038181548110610de857610de76163b0565b5b90600052602060002090600802016002018054610e049061640e565b80601f0160208091040260200160405190810160405280929190818152602001828054610e309061640e565b8015610e7d5780601f10610e5257610100808354040283529160200191610e7d565b820191906000526020600020905b815481529060010190602001808311610e6057829003601f168201915b5050505050878281518110610e9557610e946163b0565b5b602002602001018190525060038181548110610eb457610eb36163b0565b5b906000526020600020906008020160030154868281518110610ed957610ed86163b0565b5b60200260200101818152505060038181548110610ef957610ef86163b0565b5b90600052602060002090600802016004018054610f159061640e565b80601f0160208091040260200160405190810160405280929190818152602001828054610f419061640e565b8015610f8e5780601f10610f6357610100808354040283529160200191610f8e565b820191906000526020600020905b815481529060010190602001808311610f7157829003601f168201915b5050505050858281518110610fa657610fa56163b0565b5b602002602001018190525060038181548110610fc557610fc46163b0565b5b906000526020600020906008020160050154848281518110610fea57610fe96163b0565b5b6020026020010181815250506003818154811061100a576110096163b0565b5b90600052602060002090600802016006015483828151811061102f5761102e6163b0565b5b6020026020010181815250506003818154811061104f5761104e6163b0565b5b906000526020600020906008020160070154828281518110611074576110736163b0565b5b6020026020010181815250505b808061108c90616525565b915050610cd2565b508585858585859b509b509b509b509b509b505050505050509295509295509295565b600081815481106110c757600080fd5b90600052602060002090600702016000915090508060000160009054906101000a900473ffffffffffffffffffffffffffffffffffffffff16908060010180546111109061640e565b80601f016020809104026020016040519081016040528092919081815260200182805461113c9061640e565b80156111895780601f1061115e57610100808354040283529160200191611189565b820191906000526020600020905b81548152906001019060200180831161116c57829003601f168201915b50505050509080600201805461119e9061640e565b80601f01602080910402602001604051908101604052809291908181526020018280546111ca9061640e565b80156112175780601f106111ec57610100808354040283529160200191611217565b820191906000526020600020905b8154815290600101906020018083116111fa57829003601f168201915b50505050509080600301805461122c9061640e565b80601f01602080910402602001604051908101604052809291908181526020018280546112589061640e565b80156112a55780601f1061127a576101008083540402835291602001916112a5565b820191906000526020600020905b81548152906001019060200180831161128857829003601f168201915b5050505050908060040180546112ba9061640e565b80601f01602080910402602001604051908101604052809291908181526020018280546112e69061640e565b80156113335780601f1061130857610100808354040283529160200191611333565b820191906000526020600020905b81548152906001019060200180831161131657829003601f168201915b5050505050908060050180546113489061640e565b80601f01602080910402602001604051908101604052809291908181526020018280546113749061640e565b80156113c15780601f10611396576101008083540402835291602001916113c1565b820191906000526020600020905b8154815290600101906020018083116113a457829003601f168201915b5050505050908060060180546113d69061640e565b80601f01602080910402602001604051908101604052809291908181526020018280546114029061640e565b801561144f5780601f106114245761010080835404028352916020019161144f565b820191906000526020600020905b81548152906001019060200180831161143257829003601f168201915b5050505050905087565b606080606080606080600060018054905067ffffffffffffffff811115611483576114826153bb565b5b6040519080825280602002602001820160405280156114b15781602001602082028036833780820191505090505b509050600060018054905067ffffffffffffffff8111156114d5576114d46153bb565b5b6040519080825280602002602001820160405280156115035781602001602082028036833780820191505090505b509050600060018054905067ffffffffffffffff811115611527576115266153bb565b5b6040519080825280602002602001820160405280156115555781602001602082028036833780820191505090505b509050600060018054905067ffffffffffffffff811115611579576115786153bb565b5b6040519080825280602002602001820160405280156115ac57816020015b60608152602001906001900390816115975790505b509050600060018054905067ffffffffffffffff8111156115d0576115cf6153bb565b5b60405190808252806020026020018201604052801561160357816020015b60608152602001906001900390816115ee5790505b509050600060018054905067ffffffffffffffff811115611627576116266153bb565b5b60405190808252806020026020018201604052801561165a57816020015b60608152602001906001900390816116455790505b50905060005b600180549050811015611b92578e73ffffffffffffffffffffffffffffffffffffffff1660018281548110611698576116976163b0565b5b906000526020600020906005020160010160009054906101000a900473ffffffffffffffffffffffffffffffffffffffff1673ffffffffffffffffffffffffffffffffffffffff1614801561175d57508d73ffffffffffffffffffffffffffffffffffffffff1660018281548110611713576117126163b0565b5b906000526020600020906005020160000160049054906101000a900473ffffffffffffffffffffffffffffffffffffffff1673ffffffffffffffffffffffffffffffffffffffff16145b15611b7f5760018181548110611776576117756163b0565b5b906000526020600020906005020160000160009054906101000a900460e01b8782815181106117a8576117a76163b0565b5b60200260200101907bffffffffffffffffffffffffffffffffffffffffffffffffffffffff191690817bffffffffffffffffffffffffffffffffffffffffffffffffffffffff19168152505060018181548110611808576118076163b0565b5b906000526020600020906005020160000160049054906101000a900473ffffffffffffffffffffffffffffffffffffffff1686828151811061184d5761184c6163b0565b5b602002602001019073ffffffffffffffffffffffffffffffffffffffff16908173ffffffffffffffffffffffffffffffffffffffff16815250506001818154811061189b5761189a6163b0565b5b906000526020600020906005020160010160009054906101000a900473ffffffffffffffffffffffffffffffffffffffff168582815181106118e0576118df6163b0565b5b602002602001019073ffffffffffffffffffffffffffffffffffffffff16908173ffffffffffffffffffffffffffffffffffffffff16815250506001818154811061192e5761192d6163b0565b5b9060005260206000209060050201600201805461194a9061640e565b80601f01602080910402602001604051908101604052809291908181526020018280546119769061640e565b80156119c35780601f10611998576101008083540402835291602001916119c3565b820191906000526020600020905b8154815290600101906020018083116119a657829003601f168201915b50505050508482815181106119db576119da6163b0565b5b6020026020010181905250600181815481106119fa576119f96163b0565b5b90600052602060002090600502016003018054611a169061640e565b80601f0160208091040260200160405190810160405280929190818152602001828054611a429061640e565b8015611a8f5780601f10611a6457610100808354040283529160200191611a8f565b820191906000526020600020905b815481529060010190602001808311611a7257829003601f168201915b5050505050838281518110611aa757611aa66163b0565b5b602002602001018190525060018181548110611ac657611ac56163b0565b5b90600052602060002090600502016004018054611ae29061640e565b80601f0160208091040260200160405190810160405280929190818152602001828054611b0e9061640e565b8015611b5b5780601f10611b3057610100808354040283529160200191611b5b565b820191906000526020600020905b815481529060010190602001808311611b3e57829003601f168201915b5050505050828281518110611b7357611b726163b0565b5b60200260200101819052505b8080611b8a90616525565b915050611660565b508585858585859b509b509b509b509b509b505050505050509295509295509295565b6000606080606080606060005b600080549050811015612028578773ffffffffffffffffffffffffffffffffffffffff1660008281548110611bfa57611bf96163b0565b5b906000526020600020906007020160000160009054906101000a900473ffffffffffffffffffffffffffffffffffffffff1673ffffffffffffffffffffffffffffffffffffffff1614156120155760008181548110611c5c57611c5b6163b0565b5b906000526020600020906007020160000160009054906101000a900473ffffffffffffffffffffffffffffffffffffffff1660008281548110611ca257611ca16163b0565b5b906000526020600020906007020160010160008381548110611cc757611cc66163b0565b5b906000526020600020906007020160020160008481548110611cec57611ceb6163b0565b5b906000526020600020906007020160030160008581548110611d1157611d106163b0565b5b906000526020600020906007020160040160008681548110611d3657611d356163b0565b5b9060005260206000209060070201600501848054611d539061640e565b80601f0160208091040260200160405190810160405280929190818152602001828054611d7f9061640e565b8015611dcc5780601f10611da157610100808354040283529160200191611dcc565b820191906000526020600020905b815481529060010190602001808311611daf57829003601f168201915b50505050509450838054611ddf9061640e565b80601f0160208091040260200160405190810160405280929190818152602001828054611e0b9061640e565b8015611e585780601f10611e2d57610100808354040283529160200191611e58565b820191906000526020600020905b815481529060010190602001808311611e3b57829003601f168201915b50505050509350828054611e6b9061640e565b80601f0160208091040260200160405190810160405280929190818152602001828054611e979061640e565b8015611ee45780601f10611eb957610100808354040283529160200191611ee4565b820191906000526020600020905b815481529060010190602001808311611ec757829003601f168201915b50505050509250818054611ef79061640e565b80601f0160208091040260200160405190810160405280929190818152602001828054611f239061640e565b8015611f705780601f10611f4557610100808354040283529160200191611f70565b820191906000526020600020905b815481529060010190602001808311611f5357829003601f168201915b50505050509150808054611f839061640e565b80601f0160208091040260200160405190810160405280929190818152602001828054611faf9061640e565b8015611ffc5780601f10611fd157610100808354040283529160200191611ffc565b820191906000526020600020905b815481529060010190602001808311611fdf57829003601f168201915b505050505090509650965096509650965096505061202a565b808061202090616525565b915050611bc2565b505b91939550919395565b600080600090505b600080549050811015612129578373ffffffffffffffffffffffffffffffffffffffff1660008281548110612073576120726163b0565b5b906000526020600020906007020160000160009054906101000a900473ffffffffffffffffffffffffffffffffffffffff1673ffffffffffffffffffffffffffffffffffffffff1614801561210757508280519060200120600082815481106120df576120de6163b0565b5b90600052602060002090600702016006016040516120fd91906164df565b6040518091039020145b1561211657600191505061212b565b808061212190616525565b91505061203b565b505b92915050565b6001818154811061214157600080fd5b90600052602060002090600502016000915090508060000160009054906101000a900460e01b908060000160049054906101000a900473ffffffffffffffffffffffffffffffffffffffff16908060010160009054906101000a900473ffffffffffffffffffffffffffffffffffffffff16908060020180546121c39061640e565b80601f01602080910402602001604051908101604052809291908181526020018280546121ef9061640e565b801561223c5780601f106122115761010080835404028352916020019161223c565b820191906000526020600020905b81548152906001019060200180831161221f57829003601f168201915b5050505050908060030180546122519061640e565b80601f016020809104026020016040519081016040528092919081815260200182805461227d9061640e565b80156122ca5780601f1061229f576101008083540402835291602001916122ca565b820191906000526020600020905b8154815290600101906020018083116122ad57829003601f168201915b5050505050908060040180546122df9061640e565b80601f016020809104026020016040519081016040528092919081815260200182805461230b9061640e565b80156123585780601f1061232d57610100808354040283529160200191612358565b820191906000526020600020905b81548152906001019060200180831161233b57829003601f168201915b5050505050905086565b600080600090505b60008054905081101561240d578273ffffffffffffffffffffffffffffffffffffffff16600082815481106123a2576123a16163b0565b5b906000526020600020906007020160000160009054906101000a900473ffffffffffffffffffffffffffffffffffffffff1673ffffffffffffffffffffffffffffffffffffffff1614156123fa57600191505061240f565b808061240590616525565b91505061236a565b505b919050565b6003818154811061242457600080fd5b90600052602060002090600802016000915090508060000160009054906101000a900460e01b908060000160049054906101000a900473ffffffffffffffffffffffffffffffffffffffff16908060010160009054906101000a900473ffffffffffffffffffffffffffffffffffffffff16908060020180546124a69061640e565b80601f01602080910402602001604051908101604052809291908181526020018280546124d29061640e565b801561251f5780601f106124f45761010080835404028352916020019161251f565b820191906000526020600020905b81548152906001019060200180831161250257829003601f168201915b50505050509080600301549080600401805461253a9061640e565b80601f01602080910402602001604051908101604052809291908181526020018280546125669061640e565b80156125b35780601f10612588576101008083540402835291602001916125b3565b820191906000526020600020905b81548152906001019060200180831161259657829003601f168201915b5050505050908060050154908060060154908060070154905089565b60005b60008054905081101561278e578673ffffffffffffffffffffffffffffffffffffffff166000828154811061260a576126096163b0565b5b906000526020600020906007020160000160009054906101000a900473ffffffffffffffffffffffffffffffffffffffff1673ffffffffffffffffffffffffffffffffffffffff16141561277b57856000828154811061266d5761266c6163b0565b5b90600052602060002090600702016001019080519060200190612691929190615217565b5084600082815481106126a7576126a66163b0565b5b906000526020600020906007020160020190805190602001906126cb929190615217565b5083600082815481106126e1576126e06163b0565b5b90600052602060002090600702016003019080519060200190612705929190615217565b50826000828154811061271b5761271a6163b0565b5b9060005260206000209060070201600401908051906020019061273f929190615217565b508160008281548110612755576127546163b0565b5b90600052602060002090600702016005019080519060200190612779929190615217565b505b808061278690616525565b9150506125d2565b50505050505050565b600080600090505b6002805490508110156128c6578473ffffffffffffffffffffffffffffffffffffffff16600282815481106127d7576127d66163b0565b5b906000526020600020906008020160010160009054906101000a900473ffffffffffffffffffffffffffffffffffffffff1673ffffffffffffffffffffffffffffffffffffffff161480156128a45750838360405160200161283a9291906165cb565b6040516020818303038152906040528051906020012060028281548110612864576128636163b0565b5b906000526020600020906008020160000160009054906101000a900460e01b7bffffffffffffffffffffffffffffffffffffffffffffffffffffffff1916145b156128b35760019150506128c8565b80806128be90616525565b91505061279f565b505b9392505050565b60608060608060608060606000808054905067ffffffffffffffff8111156128fa576128f96153bb565b5b6040519080825280602002602001820160405280156129285781602001602082028036833780820191505090505b5090506000808054905067ffffffffffffffff81111561294b5761294a6153bb565b5b60405190808252806020026020018201604052801561297e57816020015b60608152602001906001900390816129695790505b5090506000808054905067ffffffffffffffff8111156129a1576129a06153bb565b5b6040519080825280602002602001820160405280156129d457816020015b60608152602001906001900390816129bf5790505b5090506000808054905067ffffffffffffffff8111156129f7576129f66153bb565b5b604051908082528060200260200182016040528015612a2a57816020015b6060815260200190600190039081612a155790505b5090506000808054905067ffffffffffffffff811115612a4d57612a4c6153bb565b5b604051908082528060200260200182016040528015612a8057816020015b6060815260200190600190039081612a6b5790505b5090506000808054905067ffffffffffffffff811115612aa357612aa26153bb565b5b604051908082528060200260200182016040528015612ad657816020015b6060815260200190600190039081612ac15790505b5090506000808054905067ffffffffffffffff811115612af957612af86153bb565b5b604051908082528060200260200182016040528015612b2c57816020015b6060815260200190600190039081612b175790505b50905060005b6000805490508110156130ad5760008181548110612b5357612b526163b0565b5b906000526020600020906007020160000160009054906101000a900473ffffffffffffffffffffffffffffffffffffffff16888281518110612b9857612b976163b0565b5b602002602001019073ffffffffffffffffffffffffffffffffffffffff16908173ffffffffffffffffffffffffffffffffffffffff168152505060008181548110612be657612be56163b0565b5b90600052602060002090600702016001018054612c029061640e565b80601f0160208091040260200160405190810160405280929190818152602001828054612c2e9061640e565b8015612c7b5780601f10612c5057610100808354040283529160200191612c7b565b820191906000526020600020905b815481529060010190602001808311612c5e57829003601f168201915b5050505050878281518110612c9357612c926163b0565b5b602002602001018190525060008181548110612cb257612cb16163b0565b5b90600052602060002090600702016002018054612cce9061640e565b80601f0160208091040260200160405190810160405280929190818152602001828054612cfa9061640e565b8015612d475780601f10612d1c57610100808354040283529160200191612d47565b820191906000526020600020905b815481529060010190602001808311612d2a57829003601f168201915b5050505050868281518110612d5f57612d5e6163b0565b5b602002602001018190525060008181548110612d7e57612d7d6163b0565b5b90600052602060002090600702016003018054612d9a9061640e565b80601f0160208091040260200160405190810160405280929190818152602001828054612dc69061640e565b8015612e135780601f10612de857610100808354040283529160200191612e13565b820191906000526020600020905b815481529060010190602001808311612df657829003601f168201915b5050505050858281518110612e2b57612e2a6163b0565b5b602002602001018190525060008181548110612e4a57612e496163b0565b5b90600052602060002090600702016004018054612e669061640e565b80601f0160208091040260200160405190810160405280929190818152602001828054612e929061640e565b8015612edf5780601f10612eb457610100808354040283529160200191612edf565b820191906000526020600020905b815481529060010190602001808311612ec257829003601f168201915b5050505050848281518110612ef757612ef66163b0565b5b602002602001018190525060008181548110612f1657612f156163b0565b5b90600052602060002090600702016005018054612f329061640e565b80601f0160208091040260200160405190810160405280929190818152602001828054612f5e9061640e565b8015612fab5780601f10612f8057610100808354040283529160200191612fab565b820191906000526020600020905b815481529060010190602001808311612f8e57829003601f168201915b5050505050838281518110612fc357612fc26163b0565b5b602002602001018190525060008181548110612fe257612fe16163b0565b5b90600052602060002090600702016006018054612ffe9061640e565b80601f016020809104026020016040519081016040528092919081815260200182805461302a9061640e565b80156130775780601f1061304c57610100808354040283529160200191613077565b820191906000526020600020905b81548152906001019060200180831161305a57829003601f168201915b505050505082828151811061308f5761308e6163b0565b5b602002602001018190525080806130a590616525565b915050612b32565b50868686868686869d509d509d509d509d509d509d505050505050505090919293949596565b60016130de88612362565b1461311e576040517f08c379a00000000000000000000000000000000000000000000000000000000081526004016131159061663f565b60405180910390fd5b600061312b878787612797565b1461316b576040517f08c379a0000000000000000000000000000000000000000000000000000000008152600401613162906166ab565b60405180910390fd5b600184148061317a5750600284145b806131855750600384145b806131905750600484145b6131cf576040517f08c379a00000000000000000000000000000000000000000000000000000000081526004016131c690616717565b60405180910390fd5b600082101580156131e257506101ef8211155b613221576040517f08c379a000000000000000000000000000000000000000000000000000000000815260040161321890616783565b60405180910390fd5b6000811015801561323457506101ef8111155b613273576040517f08c379a000000000000000000000000000000000000000000000000000000000815260040161326a906167ef565b60405180910390fd5b600260405180610120016040528087876040516020016132949291906165cb565b604051602081830303815290604052805190602001207bffffffffffffffffffffffffffffffffffffffffffffffffffffffff191681526020018973ffffffffffffffffffffffffffffffffffffffff1681526020018873ffffffffffffffffffffffffffffffffffffffff1681526020018781526020018681526020018581526020018481526020018381526020018385613330919061680f565b815250908060018154018082558091505060019003906000526020600020906008020160009091909190915060008201518160000160006101000a81548163ffffffff021916908360e01c021790555060208201518160000160046101000a81548173ffffffffffffffffffffffffffffffffffffffff021916908373ffffffffffffffffffffffffffffffffffffffff16021790555060408201518160010160006101000a81548173ffffffffffffffffffffffffffffffffffffffff021916908373ffffffffffffffffffffffffffffffffffffffff160217905550606082015181600201908051906020019061342a929190615217565b506080820151816003015560a0820151816004019080519060200190613451929190615217565b5060c0820151816005015560e082015181600601556101008201518160070155505050505050505050565b6000613488858561055c565b146134c8576040517f08c379a00000000000000000000000000000000000000000000000000000000081526004016134bf906168b1565b60405180910390fd5b60016040518060c00160405280836040516020016134e691906168d1565b604051602081830303815290604052805190602001207bffffffffffffffffffffffffffffffffffffffffffffffffffffffff191681526020018673ffffffffffffffffffffffffffffffffffffffff1681526020018573ffffffffffffffffffffffffffffffffffffffff1681526020018481526020018381526020016040518060400160405280600781526020017f57616974696e6700000000000000000000000000000000000000000000000000815250815250908060018154018082558091505060019003906000526020600020906005020160009091909190915060008201518160000160006101000a81548163ffffffff021916908360e01c021790555060208201518160000160046101000a81548173ffffffffffffffffffffffffffffffffffffffff021916908373ffffffffffffffffffffffffffffffffffffffff16021790555060408201518160010160006101000a81548173ffffffffffffffffffffffffffffffffffffffff021916908373ffffffffffffffffffffffffffffffffffffffff1602179055506060820151816002019080519060200190613694929190615217565b5060808201518160030190805190602001906136b1929190615217565b5060a08201518160040190805190602001906136ce929190615217565b50505050505050565b606080606080606080600060018054905067ffffffffffffffff811115613701576137006153bb565b5b60405190808252806020026020018201604052801561372f5781602001602082028036833780820191505090505b509050600060018054905067ffffffffffffffff811115613753576137526153bb565b5b6040519080825280602002602001820160405280156137815781602001602082028036833780820191505090505b509050600060018054905067ffffffffffffffff8111156137a5576137a46153bb565b5b6040519080825280602002602001820160405280156137d35781602001602082028036833780820191505090505b509050600060018054905067ffffffffffffffff8111156137f7576137f66153bb565b5b60405190808252806020026020018201604052801561382a57816020015b60608152602001906001900390816138155790505b509050600060018054905067ffffffffffffffff81111561384e5761384d6153bb565b5b60405190808252806020026020018201604052801561388157816020015b606081526020019060019003908161386c5790505b509050600060018054905067ffffffffffffffff8111156138a5576138a46153bb565b5b6040519080825280602002602001820160405280156138d857816020015b60608152602001906001900390816138c35790505b50905060005b600180549050811015613d94578d73ffffffffffffffffffffffffffffffffffffffff1660018281548110613916576139156163b0565b5b906000526020600020906005020160010160009054906101000a900473ffffffffffffffffffffffffffffffffffffffff1673ffffffffffffffffffffffffffffffffffffffff161415613d815760018181548110613978576139776163b0565b5b906000526020600020906005020160000160009054906101000a900460e01b8782815181106139aa576139a96163b0565b5b60200260200101907bffffffffffffffffffffffffffffffffffffffffffffffffffffffff191690817bffffffffffffffffffffffffffffffffffffffffffffffffffffffff19168152505060018181548110613a0a57613a096163b0565b5b906000526020600020906005020160000160049054906101000a900473ffffffffffffffffffffffffffffffffffffffff16868281518110613a4f57613a4e6163b0565b5b602002602001019073ffffffffffffffffffffffffffffffffffffffff16908173ffffffffffffffffffffffffffffffffffffffff168152505060018181548110613a9d57613a9c6163b0565b5b906000526020600020906005020160010160009054906101000a900473ffffffffffffffffffffffffffffffffffffffff16858281518110613ae257613ae16163b0565b5b602002602001019073ffffffffffffffffffffffffffffffffffffffff16908173ffffffffffffffffffffffffffffffffffffffff168152505060018181548110613b3057613b2f6163b0565b5b90600052602060002090600502016002018054613b4c9061640e565b80601f0160208091040260200160405190810160405280929190818152602001828054613b789061640e565b8015613bc55780601f10613b9a57610100808354040283529160200191613bc5565b820191906000526020600020905b815481529060010190602001808311613ba857829003601f168201915b5050505050848281518110613bdd57613bdc6163b0565b5b602002602001018190525060018181548110613bfc57613bfb6163b0565b5b90600052602060002090600502016003018054613c189061640e565b80601f0160208091040260200160405190810160405280929190818152602001828054613c449061640e565b8015613c915780601f10613c6657610100808354040283529160200191613c91565b820191906000526020600020905b815481529060010190602001808311613c7457829003601f168201915b5050505050838281518110613ca957613ca86163b0565b5b602002602001018190525060018181548110613cc857613cc76163b0565b5b90600052602060002090600502016004018054613ce49061640e565b80601f0160208091040260200160405190810160405280929190818152602001828054613d109061640e565b8015613d5d5780601f10613d3257610100808354040283529160200191613d5d565b820191906000526020600020905b815481529060010190602001808311613d4057829003601f168201915b5050505050828281518110613d7557613d746163b0565b5b60200260200101819052505b8080613d8c90616525565b9150506138de565b508585858585859b509b509b509b509b509b5050505050505091939550919395565b606060006060600080600080600090505b60038054905081101561416c578a73ffffffffffffffffffffffffffffffffffffffff1660038281548110613dff57613dfe6163b0565b5b906000526020600020906008020160000160049054906101000a900473ffffffffffffffffffffffffffffffffffffffff1673ffffffffffffffffffffffffffffffffffffffff16148015613ec457508973ffffffffffffffffffffffffffffffffffffffff1660038281548110613e7a57613e796163b0565b5b906000526020600020906008020160010160009054906101000a900473ffffffffffffffffffffffffffffffffffffffff1673ffffffffffffffffffffffffffffffffffffffff16145b8015613f4857508888604051602001613ede9291906165cb565b6040516020818303038152906040528051906020012060038281548110613f0857613f076163b0565b5b906000526020600020906008020160000160009054906101000a900460e01b7bffffffffffffffffffffffffffffffffffffffffffffffffffffffff1916145b156141595760038181548110613f6157613f606163b0565b5b906000526020600020906008020160020160038281548110613f8657613f856163b0565b5b90600052602060002090600802016003015460038381548110613fac57613fab6163b0565b5b906000526020600020906008020160040160038481548110613fd157613fd06163b0565b5b90600052602060002090600802016005015460038581548110613ff757613ff66163b0565b5b9060005260206000209060080201600601546003868154811061401d5761401c6163b0565b5b90600052602060002090600802016007015485805461403b9061640e565b80601f01602080910402602001604051908101604052809291908181526020018280546140679061640e565b80156140b45780601f10614089576101008083540402835291602001916140b4565b820191906000526020600020905b81548152906001019060200180831161409757829003601f168201915b505050505095508380546140c79061640e565b80601f01602080910402602001604051908101604052809291908181526020018280546140f39061640e565b80156141405780601f1061411557610100808354040283529160200191614140565b820191906000526020600020905b81548152906001019060200180831161412357829003601f168201915b505050505093509650965096509650965096505061416e565b808061416490616525565b915050613dc7565b505b9499939850945094509450565b6002818154811061418b57600080fd5b90600052602060002090600802016000915090508060000160009054906101000a900460e01b908060000160049054906101000a900473ffffffffffffffffffffffffffffffffffffffff16908060010160009054906101000a900473ffffffffffffffffffffffffffffffffffffffff169080600201805461420d9061640e565b80601f01602080910402602001604051908101604052809291908181526020018280546142399061640e565b80156142865780601f1061425b57610100808354040283529160200191614286565b820191906000526020600020905b81548152906001019060200180831161426957829003601f168201915b5050505050908060030154908060040180546142a19061640e565b80601f01602080910402602001604051908101604052809291908181526020018280546142cd9061640e565b801561431a5780601f106142ef5761010080835404028352916020019161431a565b820191906000526020600020905b8154815290600101906020018083116142fd57829003601f168201915b5050505050908060050154908060060154908060070154905089565b6040518060400160405280600881526020017f416363657074656400000000000000000000000000000000000000000000000081525080519060200120818051906020012014806143c957506040518060400160405280600881526020017f4465636c696e6564000000000000000000000000000000000000000000000000815250805190602001208180519060200120145b614408576040517f08c379a00000000000000000000000000000000000000000000000000000000081526004016143ff90616934565b60405180910390fd5b60005b6001805490508110156145d6578473ffffffffffffffffffffffffffffffffffffffff1660018281548110614443576144426163b0565b5b906000526020600020906005020160000160049054906101000a900473ffffffffffffffffffffffffffffffffffffffff1673ffffffffffffffffffffffffffffffffffffffff1614801561450857508373ffffffffffffffffffffffffffffffffffffffff16600182815481106144be576144bd6163b0565b5b906000526020600020906005020160010160009054906101000a900473ffffffffffffffffffffffffffffffffffffffff1673ffffffffffffffffffffffffffffffffffffffff16145b80156145835750827bffffffffffffffffffffffffffffffffffffffffffffffffffffffff191660018281548110614543576145426163b0565b5b906000526020600020906005020160000160009054906101000a900460e01b7bffffffffffffffffffffffffffffffffffffffffffffffffffffffff1916145b156145c357816001828154811061459d5761459c6163b0565b5b906000526020600020906005020160040190805190602001906145c1929190615217565b505b80806145ce90616525565b91505061440b565b5050505050565b606080606080606080600060028054905067ffffffffffffffff811115614607576146066153bb565b5b60405190808252806020026020018201604052801561463a57816020015b60608152602001906001900390816146255790505b509050600060028054905067ffffffffffffffff81111561465e5761465d6153bb565b5b60405190808252806020026020018201604052801561468c5781602001602082028036833780820191505090505b509050600060028054905067ffffffffffffffff8111156146b0576146af6153bb565b5b6040519080825280602002602001820160405280156146e357816020015b60608152602001906001900390816146ce5790505b509050600060028054905067ffffffffffffffff811115614707576147066153bb565b5b6040519080825280602002602001820160405280156147355781602001602082028036833780820191505090505b509050600060028054905067ffffffffffffffff811115614759576147586153bb565b5b6040519080825280602002602001820160405280156147875781602001602082028036833780820191505090505b509050600060028054905067ffffffffffffffff8111156147ab576147aa6153bb565b5b6040519080825280602002602001820160405280156147d95781602001602082028036833780820191505090505b50905060005b600280549050811015614ba1578e73ffffffffffffffffffffffffffffffffffffffff1660028281548110614817576148166163b0565b5b906000526020600020906008020160000160049054906101000a900473ffffffffffffffffffffffffffffffffffffffff1673ffffffffffffffffffffffffffffffffffffffff161480156148dc57508d73ffffffffffffffffffffffffffffffffffffffff1660028281548110614892576148916163b0565b5b906000526020600020906008020160010160009054906101000a900473ffffffffffffffffffffffffffffffffffffffff1673ffffffffffffffffffffffffffffffffffffffff16145b15614b8e57600281815481106148f5576148f46163b0565b5b906000526020600020906008020160020180546149119061640e565b80601f016020809104026020016040519081016040528092919081815260200182805461493d9061640e565b801561498a5780601f1061495f5761010080835404028352916020019161498a565b820191906000526020600020905b81548152906001019060200180831161496d57829003601f168201915b50505050508782815181106149a2576149a16163b0565b5b6020026020010181905250600281815481106149c1576149c06163b0565b5b9060005260206000209060080201600301548682815181106149e6576149e56163b0565b5b60200260200101818152505060028181548110614a0657614a056163b0565b5b90600052602060002090600802016004018054614a229061640e565b80601f0160208091040260200160405190810160405280929190818152602001828054614a4e9061640e565b8015614a9b5780601f10614a7057610100808354040283529160200191614a9b565b820191906000526020600020905b815481529060010190602001808311614a7e57829003601f168201915b5050505050858281518110614ab357614ab26163b0565b5b602002602001018190525060028181548110614ad257614ad16163b0565b5b906000526020600020906008020160050154848281518110614af757614af66163b0565b5b60200260200101818152505060028181548110614b1757614b166163b0565b5b906000526020600020906008020160060154838281518110614b3c57614b3b6163b0565b5b60200260200101818152505060028181548110614b5c57614b5b6163b0565b5b906000526020600020906008020160070154828281518110614b8157614b806163b0565b5b6020026020010181815250505b8080614b9990616525565b9150506147df565b508585858585859b509b509b509b509b509b505050505050509295509295509295565b60006040518060e001604052808973ffffffffffffffffffffffffffffffffffffffff16815260200188815260200187815260200186815260200185815260200184815260200183815250908060018154018082558091505060019003906000526020600020906007020160009091909190915060008201518160000160006101000a81548173ffffffffffffffffffffffffffffffffffffffff021916908373ffffffffffffffffffffffffffffffffffffffff1602179055506020820151816001019080519060200190614c9b929190615217565b506040820151816002019080519060200190614cb8929190615217565b506060820151816003019080519060200190614cd5929190615217565b506080820151816004019080519060200190614cf2929190615217565b5060a0820151816005019080519060200190614d0f929190615217565b5060c0820151816006019080519060200190614d2c929190615217565b50505050505050505050565b600080600090505b600380549050811015614e67578473ffffffffffffffffffffffffffffffffffffffff1660028281548110614d7857614d776163b0565b5b906000526020600020906008020160010160009054906101000a900473ffffffffffffffffffffffffffffffffffffffff1673ffffffffffffffffffffffffffffffffffffffff16148015614e4557508383604051602001614ddb9291906165cb565b6040516020818303038152906040528051906020012060028281548110614e0557614e046163b0565b5b906000526020600020906008020160000160009054906101000a900460e01b7bffffffffffffffffffffffffffffffffffffffffffffffffffffffff1916145b15614e54576001915050614e69565b8080614e5f90616525565b915050614d40565b505b9392505050565b6001614e7b88612362565b14614ebb576040517f08c379a0000000000000000000000000000000000000000000000000000000008152600401614eb29061663f565b60405180910390fd5b6000614ec8878787614d38565b14614f08576040517f08c379a0000000000000000000000000000000000000000000000000000000008152600401614eff906169a0565b60405180910390fd5b6001841480614f175750600284145b80614f225750600384145b80614f2d5750600484145b614f6c576040517f08c379a0000000000000000000000000000000000000000000000000000000008152600401614f6390616717565b60405180910390fd5b60008210158015614f7e575060c88211155b614fbd576040517f08c379a0000000000000000000000000000000000000000000000000000000008152600401614fb490616a0c565b60405180910390fd5b60008110158015614fcf575060c88111155b61500e576040517f08c379a000000000000000000000000000000000000000000000000000000000815260040161500590616a78565b60405180910390fd5b6003604051806101200160405280878760405160200161502f9291906165cb565b604051602081830303815290604052805190602001207bffffffffffffffffffffffffffffffffffffffffffffffffffffffff191681526020018973ffffffffffffffffffffffffffffffffffffffff1681526020018873ffffffffffffffffffffffffffffffffffffffff16815260200187815260200186815260200185815260200184815260200183815260200183856150cb919061680f565b815250908060018154018082558091505060019003906000526020600020906008020160009091909190915060008201518160000160006101000a81548163ffffffff021916908360e01c021790555060208201518160000160046101000a81548173ffffffffffffffffffffffffffffffffffffffff021916908373ffffffffffffffffffffffffffffffffffffffff16021790555060408201518160010160006101000a81548173ffffffffffffffffffffffffffffffffffffffff021916908373ffffffffffffffffffffffffffffffffffffffff16021790555060608201518160020190805190602001906151c5929190615217565b506080820151816003015560a08201518160040190805190602001906151ec929190615217565b5060c0820151816005015560e082015181600601556101008201518160070155505050505050505050565b8280546152239061640e565b90600052602060002090601f016020900481019282615245576000855561528c565b82601f1061525e57805160ff191683800117855561528c565b8280016001018555821561528c579182015b8281111561528b578251825591602001919060010190615270565b5b509050615299919061529d565b5090565b5b808211156152b657600081600090555060010161529e565b5090565b6000604051905090565b600080fd5b600080fd5b600073ffffffffffffffffffffffffffffffffffffffff82169050919050565b60006152f9826152ce565b9050919050565b615309816152ee565b811461531457600080fd5b50565b60008135905061532681615300565b92915050565b60008060408385031215615343576153426152c4565b5b600061535185828601615317565b925050602061536285828601615317565b9150509250929050565b6000819050919050565b61537f8161536c565b82525050565b600060208201905061539a6000830184615376565b92915050565b600080fd5b600080fd5b6000601f19601f8301169050919050565b7f4e487b7100000000000000000000000000000000000000000000000000000000600052604160045260246000fd5b6153f3826153aa565b810181811067ffffffffffffffff82111715615412576154116153bb565b5b80604052505050565b60006154256152ba565b905061543182826153ea565b919050565b600067ffffffffffffffff821115615451576154506153bb565b5b61545a826153aa565b9050602081019050919050565b82818337600083830152505050565b600061548961548484615436565b61541b565b9050828152602081018484840111156154a5576154a46153a5565b5b6154b0848285615467565b509392505050565b600082601f8301126154cd576154cc6153a0565b5b81356154dd848260208601615476565b91505092915050565b6154ef8161536c565b81146154fa57600080fd5b50565b60008135905061550c816154e6565b92915050565b6000806000806080858703121561552c5761552b6152c4565b5b600061553a87828801615317565b945050602061554b87828801615317565b935050604085013567ffffffffffffffff81111561556c5761556b6152c9565b5b615578878288016154b8565b9250506060615589878288016154fd565b91505092959194509250565b600081519050919050565b600082825260208201905092915050565b60005b838110156155cf5780820151818401526020810190506155b4565b838111156155de576000848401525b50505050565b60006155ef82615595565b6155f981856155a0565b93506156098185602086016155b1565b615612816153aa565b840191505092915050565b600060c082019050818103600083015261563781896155e4565b90506156466020830188615376565b818103604083015261565881876155e4565b90506156676060830186615376565b6156746080830185615376565b61568160a0830184615376565b979650505050505050565b600081519050919050565b600082825260208201905092915050565b6000819050602082019050919050565b600082825260208201905092915050565b60006156d482615595565b6156de81856156b8565b93506156ee8185602086016155b1565b6156f7816153aa565b840191505092915050565b600061570e83836156c9565b905092915050565b6000602082019050919050565b600061572e8261568c565b6157388185615697565b93508360208202850161574a856156a8565b8060005b8581101561578657848403895281516157678582615702565b945061577283615716565b925060208a0199505060018101905061574e565b50829750879550505050505092915050565b600081519050919050565b600082825260208201905092915050565b6000819050602082019050919050565b6157cd8161536c565b82525050565b60006157df83836157c4565b60208301905092915050565b6000602082019050919050565b600061580382615798565b61580d81856157a3565b9350615818836157b4565b8060005b8381101561584957815161583088826157d3565b975061583b836157eb565b92505060018101905061581c565b5085935050505092915050565b600060c08201905081810360008301526158708189615723565b9050818103602083015261588481886157f8565b905081810360408301526158988187615723565b905081810360608301526158ac81866157f8565b905081810360808301526158c081856157f8565b905081810360a08301526158d481846157f8565b9050979650505050505050565b6000602082840312156158f7576158f66152c4565b5b6000615905848285016154fd565b91505092915050565b615917816152ee565b82525050565b600060e082019050615932600083018a61590e565b818103602083015261594481896155e4565b9050818103604083015261595881886155e4565b9050818103606083015261596c81876155e4565b9050818103608083015261598081866155e4565b905081810360a083015261599481856155e4565b905081810360c08301526159a881846155e4565b905098975050505050505050565b600081519050919050565b600082825260208201905092915050565b6000819050602082019050919050565b60007fffffffff0000000000000000000000000000000000000000000000000000000082169050919050565b615a17816159e2565b82525050565b6000615a298383615a0e565b60208301905092915050565b6000602082019050919050565b6000615a4d826159b6565b615a5781856159c1565b9350615a62836159d2565b8060005b83811015615a93578151615a7a8882615a1d565b9750615a8583615a35565b925050600181019050615a66565b5085935050505092915050565b600081519050919050565b600082825260208201905092915050565b6000819050602082019050919050565b615ad5816152ee565b82525050565b6000615ae78383615acc565b60208301905092915050565b6000602082019050919050565b6000615b0b82615aa0565b615b158185615aab565b9350615b2083615abc565b8060005b83811015615b51578151615b388882615adb565b9750615b4383615af3565b925050600181019050615b24565b5085935050505092915050565b600060c0820190508181036000830152615b788189615a42565b90508181036020830152615b8c8188615b00565b90508181036040830152615ba08187615b00565b90508181036060830152615bb48186615723565b90508181036080830152615bc88185615723565b905081810360a0830152615bdc8184615723565b9050979650505050505050565b600060208284031215615bff57615bfe6152c4565b5b6000615c0d84828501615317565b91505092915050565b600060c082019050615c2b600083018961590e565b8181036020830152615c3d81886155e4565b90508181036040830152615c5181876155e4565b90508181036060830152615c6581866155e4565b90508181036080830152615c7981856155e4565b905081810360a0830152615c8d81846155e4565b9050979650505050505050565b60008060408385031215615cb157615cb06152c4565b5b6000615cbf85828601615317565b925050602083013567ffffffffffffffff811115615ce057615cdf6152c9565b5b615cec858286016154b8565b9150509250929050565b615cff816159e2565b82525050565b600060c082019050615d1a6000830189615cf6565b615d27602083018861590e565b615d34604083018761590e565b8181036060830152615d4681866155e4565b90508181036080830152615d5a81856155e4565b905081810360a0830152615d6e81846155e4565b9050979650505050505050565b600061012082019050615d91600083018c615cf6565b615d9e602083018b61590e565b615dab604083018a61590e565b8181036060830152615dbd81896155e4565b9050615dcc6080830188615376565b81810360a0830152615dde81876155e4565b9050615ded60c0830186615376565b615dfa60e0830185615376565b615e08610100830184615376565b9a9950505050505050505050565b60008060008060008060c08789031215615e3357615e326152c4565b5b6000615e4189828a01615317565b965050602087013567ffffffffffffffff811115615e6257615e616152c9565b5b615e6e89828a016154b8565b955050604087013567ffffffffffffffff811115615e8f57615e8e6152c9565b5b615e9b89828a016154b8565b945050606087013567ffffffffffffffff811115615ebc57615ebb6152c9565b5b615ec889828a016154b8565b935050608087013567ffffffffffffffff811115615ee957615ee86152c9565b5b615ef589828a016154b8565b92505060a087013567ffffffffffffffff811115615f1657615f156152c9565b5b615f2289828a016154b8565b9150509295509295509295565b600080600060608486031215615f4857615f476152c4565b5b6000615f5686828701615317565b935050602084013567ffffffffffffffff811115615f7757615f766152c9565b5b615f83868287016154b8565b9250506040615f94868287016154fd565b9150509250925092565b600060e0820190508181036000830152615fb8818a615b00565b90508181036020830152615fcc8189615723565b90508181036040830152615fe08188615723565b90508181036060830152615ff48187615723565b905081810360808301526160088186615723565b905081810360a083015261601c8185615723565b905081810360c08301526160308184615723565b905098975050505050505050565b600080600080600080600060e0888a03121561605d5761605c6152c4565b5b600061606b8a828b01615317565b975050602061607c8a828b01615317565b965050604088013567ffffffffffffffff81111561609d5761609c6152c9565b5b6160a98a828b016154b8565b95505060606160ba8a828b016154fd565b945050608088013567ffffffffffffffff8111156160db576160da6152c9565b5b6160e78a828b016154b8565b93505060a06160f88a828b016154fd565b92505060c06161098a828b016154fd565b91505092959891949750929550565b60008060008060808587031215616132576161316152c4565b5b600061614087828801615317565b945050602061615187828801615317565b935050604085013567ffffffffffffffff811115616172576161716152c9565b5b61617e878288016154b8565b925050606085013567ffffffffffffffff81111561619f5761619e6152c9565b5b6161ab878288016154b8565b91505092959194509250565b6161c0816159e2565b81146161cb57600080fd5b50565b6000813590506161dd816161b7565b92915050565b600080600080608085870312156161fd576161fc6152c4565b5b600061620b87828801615317565b945050602061621c87828801615317565b935050604061622d878288016161ce565b925050606085013567ffffffffffffffff81111561624e5761624d6152c9565b5b61625a878288016154b8565b91505092959194509250565b600080600080600080600060e0888a031215616285576162846152c4565b5b60006162938a828b01615317565b975050602088013567ffffffffffffffff8111156162b4576162b36152c9565b5b6162c08a828b016154b8565b965050604088013567ffffffffffffffff8111156162e1576162e06152c9565b5b6162ed8a828b016154b8565b955050606088013567ffffffffffffffff81111561630e5761630d6152c9565b5b61631a8a828b016154b8565b945050608088013567ffffffffffffffff81111561633b5761633a6152c9565b5b6163478a828b016154b8565b93505060a088013567ffffffffffffffff811115616368576163676152c9565b5b6163748a828b016154b8565b92505060c088013567ffffffffffffffff811115616395576163946152c9565b5b6163a18a828b016154b8565b91505092959891949750929550565b7f4e487b7100000000000000000000000000000000000000000000000000000000600052603260045260246000fd5b7f4e487b7100000000000000000000000000000000000000000000000000000000600052602260045260246000fd5b6000600282049050600182168061642657607f821691505b6020821081141561643a576164396163df565b5b50919050565b600081905092915050565b60008190508160005260206000209050919050565b6000815461646d8161640e565b6164778186616440565b9450600182166000811461649257600181146164a3576164d6565b60ff198316865281860193506164d6565b6164ac8561644b565b60005b838110156164ce578154818901526001820191506020810190506164af565b838801955050505b50505092915050565b60006164eb8284616460565b915081905092915050565b7f4e487b7100000000000000000000000000000000000000000000000000000000600052601160045260246000fd5b60006165308261536c565b91507fffffffffffffffffffffffffffffffffffffffffffffffffffffffffffffffff821415616563576165626164f6565b5b600182019050919050565b600081905092915050565b600061658482615595565b61658e818561656e565b935061659e8185602086016155b1565b80840191505092915050565b6000819050919050565b6165c56165c08261536c565b6165aa565b82525050565b60006165d78285616579565b91506165e382846165b4565b6020820191508190509392505050565b7f4e6f7420666f756e64206f776e65722e00000000000000000000000000000000600082015250565b60006166296010836155a0565b9150616634826165f3565b602082019050919050565b600060208201905081810360008301526166588161661c565b9050919050565b7f4475706c6963617465204c5220526573756c742e000000000000000000000000600082015250565b60006166956014836155a0565b91506166a08261665f565b602082019050919050565b600060208201905081810360008301526166c481616688565b9050919050565b7f5368696674205465737420696e636f72726563742e0000000000000000000000600082015250565b60006167016015836155a0565b915061670c826166cb565b602082019050919050565b60006020820190508181036000830152616730816166f4565b9050919050565b7f4c697374656e696e672053636f726520696e636f72726563742e000000000000600082015250565b600061676d601a836155a0565b915061677882616737565b602082019050919050565b6000602082019050818103600083015261679c81616760565b9050919050565b7f52656164696e672053636f726520696e636f72726563742e0000000000000000600082015250565b60006167d96018836155a0565b91506167e4826167a3565b602082019050919050565b60006020820190508181036000830152616808816167cc565b9050919050565b600061681a8261536c565b91506168258361536c565b9250827fffffffffffffffffffffffffffffffffffffffffffffffffffffffffffffffff0382111561685a576168596164f6565b5b828201905092915050565b7f57616974696e6720666f7220636f6e6669726d6174696f6e2e00000000000000600082015250565b600061689b6019836155a0565b91506168a682616865565b602082019050919050565b600060208201905081810360008301526168ca8161688e565b9050919050565b60006168dd8284616579565b915081905092915050565b7f537461747573205265717565737420696e636f72726563742e00000000000000600082015250565b600061691e6019836155a0565b9150616929826168e8565b602082019050919050565b6000602082019050818103600083015261694d81616911565b9050919050565b7f4475706c696361746520535720526573756c742e000000000000000000000000600082015250565b600061698a6014836155a0565b915061699582616954565b602082019050919050565b600060208201905081810360008301526169b98161697d565b9050919050565b7f537065616b696e672053636f726520696e636f72726563742e00000000000000600082015250565b60006169f66019836155a0565b9150616a01826169c0565b602082019050919050565b60006020820190508181036000830152616a25816169e9565b9050919050565b7f57726974696e672053636f726520696e636f72726563742e0000000000000000600082015250565b6000616a626018836155a0565b9150616a6d82616a2c565b602082019050919050565b60006020820190508181036000830152616a9181616a55565b905091905056fea2646970667358221220f138d85a9748853b4915bc3c039c9674ab5fd1887177effadba569f4e91953b464736f6c634300080b0033",
  "immutableReferences": {},
  "source": "// SPDX-License-Identifier: MIT\r\npragma solidity >=0.4.22 <0.9.0;\r\n\r\n// Lu tr danh sch IIG\r\ncontract ListIIG {\r\n\r\n    // Khai bo cu trc lu tr thng tin IIG\r\n    struct IIGInfo {\r\n        address iigOwner;\r\n        string name;\r\n        string country;\r\n        string facebook;\r\n        string website;\r\n        string linkedin;\r\n        string password;\r\n    }\r\n\r\n    // Khai bo cu trc lu tr thng tin yu cu chng ch IIG ca sinh vin\r\n    struct IIGRequest {\r\n        bytes4 codeRequest;\r\n        address studentOwner;\r\n        address iigOwner;\r\n        string identityCard;\r\n        string requestDate;\r\n        string statusRequest;\r\n    }\r\n\r\n    // Khai bo cu trc lu tr thng tin im thi Listening - Reading IIG\r\n    struct IIGLRResult {\r\n        bytes4 codeLRResult;\r\n        address iigOwner;\r\n        address studentOwner;\r\n        string testDate;\r\n        uint shiftTest;\r\n        string expireDate;\r\n        uint listeningScore;\r\n        uint readingScore;\r\n        uint totalScore;\r\n    }\r\n\r\n    // Khai bo cu trc lu tr thng tin im thi Speaking - Writing IIG\r\n    struct IIGSWResult {\r\n        bytes4 codeSWResult;\r\n        address iigOwner;\r\n        address studentOwner;\r\n        string testDate;\r\n        uint shiftTest;\r\n        string expireDate;\r\n        uint speakingScore;\r\n        uint writingScore;\r\n        uint totalScore;\r\n    }\r\n\r\n    // Khai bo mng  lu tr thng tin\r\n    IIGInfo[] public iigInfos;\r\n    IIGRequest[] public iigRequests;\r\n    IIGLRResult[] public iigLRResults;\r\n    IIGSWResult[] public iigSWResults;\r\n\r\n    // Chc nng thm thng tin IGG\r\n    function addIIG (\r\n        address _iigOwner,\r\n        string memory _name,\r\n        string memory _country,\r\n        string memory _facebook,\r\n        string memory _website,\r\n        string memory _linkedin,\r\n        string memory _password) public {\r\n            iigInfos.push(\r\n                IIGInfo(_iigOwner, \r\n                        _name, \r\n                        _country, \r\n                        _facebook,\r\n                        _website, \r\n                        _linkedin, \r\n                        _password)\r\n                );\r\n    }\r\n\r\n    // Chc nng chnh sa thng tin IGG\r\n    function editIIG (\r\n        address _iigOwner,\r\n        string memory _name,\r\n        string memory _country,\r\n        string memory _facebook,\r\n        string memory _website,\r\n        string memory _linkedin) public {\r\n            for(uint i=0; i<iigInfos.length;i++){\r\n                if(iigInfos[i].iigOwner == _iigOwner){\r\n                    iigInfos[i].name = _name;\r\n                    iigInfos[i].country = _country;\r\n                    iigInfos[i].facebook = _facebook;\r\n                    iigInfos[i].website = _website;\r\n                    iigInfos[i].linkedin = _linkedin;\r\n                }\r\n            }\r\n    }\r\n\r\n    // Chc nng ly danh sch IIG  thm\r\n    function getListIIG() public view returns(\r\n        address[] memory, \r\n        string[] memory, \r\n        string[] memory, \r\n        string[] memory, \r\n        string[] memory, \r\n        string[] memory, \r\n        string[] memory) {\r\n            address[] memory iigOwners = new address[](iigInfos.length);\r\n            string[] memory names = new string[](iigInfos.length);\r\n            string[] memory countrys = new string[](iigInfos.length);\r\n            string[] memory facebooks = new string[](iigInfos.length);\r\n            string[] memory websites = new string[](iigInfos.length);\r\n            string[] memory linkedins = new string[](iigInfos.length);\r\n            string[] memory passwords = new string[](iigInfos.length);\r\n            for(uint i=0; i<iigInfos.length;i++){\r\n                iigOwners[i] = iigInfos[i].iigOwner;\r\n                names[i] = iigInfos[i].name;\r\n                countrys[i] = iigInfos[i].country;\r\n                facebooks[i] = iigInfos[i].facebook;\r\n                websites[i] = iigInfos[i].website;\r\n                linkedins[i] = iigInfos[i].linkedin;\r\n                passwords[i] = iigInfos[i].password;\r\n            }\r\n            return (iigOwners, names, countrys, facebooks, websites, linkedins, passwords);\r\n    }\r\n\r\n    // Chc nng ly thng tin ca IIG\r\n    function getProfile(address _iigOwner) public view returns(\r\n        address iigOwner, \r\n        string memory name, \r\n        string memory country, \r\n        string memory facebook, \r\n        string memory website, \r\n        string memory linkedin) {\r\n            for(uint i=0; i<iigInfos.length;i++){\r\n                if(iigInfos[i].iigOwner == _iigOwner){\r\n                    return (iigInfos[i].iigOwner,\r\n                            iigInfos[i].name, \r\n                            iigInfos[i].country, \r\n                            iigInfos[i].facebook, \r\n                            iigInfos[i].website, \r\n                            iigInfos[i].linkedin);\r\n                }\r\n            }\r\n    }\r\n\r\n    // Chc nng kim tra IIG  ng k hay cha?\r\n    function checkIIG(\r\n        address _iigOwner, \r\n        string memory _password) public view returns(uint x) {\r\n            for(uint i=0; i<iigInfos.length; i++){\r\n                if((iigInfos[i].iigOwner == _iigOwner) && (keccak256(bytes(iigInfos[i].password)) == keccak256(bytes(_password)))){\r\n                    return 1;\r\n                }\r\n            }\r\n    }\r\n\r\n    // Chc nng kim tra a ch IIG  tn ti hay cha?\r\n    function checkExistIIG(address _iigOwner) public view returns(uint x) {\r\n        for(uint i=0; i<iigInfos.length; i++){\r\n            if(iigInfos[i].iigOwner == _iigOwner){\r\n                return 1;\r\n            }\r\n        }\r\n    }\r\n\r\n    // Chc nng thm thng tin yu cu chng ch IIG\r\n    function addRequest (\r\n        address _studentOwner,\r\n        address _iigOwner,\r\n        string memory _identityCard,\r\n        string memory _requestDate) public {\r\n            require(checkRequest(_studentOwner, _iigOwner) == 0, \"Waiting for confirmation.\");\r\n            iigRequests.push(\r\n                IIGRequest(bytes4(keccak256(abi.encodePacked(_requestDate))),\r\n                        _studentOwner, \r\n                        _iigOwner,\r\n                        _identityCard,\r\n                        _requestDate,\r\n                        \"Waiting\")\r\n                );\r\n    }\r\n\r\n    // Chc nng ly danh sch yu cu chng ch IIG\r\n    function getListRequest(address _iigOwner) public view returns(\r\n        bytes4[] memory,\r\n        address[] memory, \r\n        address[] memory,\r\n        string[] memory,\r\n        string[] memory,\r\n        string[] memory) {\r\n            bytes4[] memory codeRequests = new bytes4[](iigRequests.length);\r\n            address[] memory studentOwners = new address[](iigRequests.length);\r\n            address[] memory iigOwners = new address[](iigRequests.length);\r\n            string[] memory identityCards = new string[](iigRequests.length);\r\n            string[] memory requestDates = new string[](iigRequests.length);\r\n            string[] memory statusRequests = new string[](iigRequests.length);\r\n            for(uint i=0; i<iigRequests.length;i++){\r\n                if(iigRequests[i].iigOwner == _iigOwner){\r\n                    codeRequests[i] = iigRequests[i].codeRequest;\r\n                    studentOwners[i] = iigRequests[i].studentOwner;\r\n                    iigOwners[i] = iigRequests[i].iigOwner;\r\n                    identityCards[i] = iigRequests[i].identityCard;\r\n                    requestDates[i] = iigRequests[i].requestDate;\r\n                    statusRequests[i] = iigRequests[i].statusRequest;\r\n                }\r\n            }\r\n            return (codeRequests, studentOwners, iigOwners, identityCards, requestDates, statusRequests);\r\n    }\r\n\r\n    // Chc nng ly danh sch yu cu chng ch IIG theo sinh vin\r\n    function getListRequestStudent(address _iigOwner, address _studentOwner) public view returns(\r\n        bytes4[] memory,\r\n        address[] memory, \r\n        address[] memory,\r\n        string[] memory,\r\n        string[] memory,\r\n        string[] memory) {\r\n            bytes4[] memory codeRequests = new bytes4[](iigRequests.length);\r\n            address[] memory studentOwners = new address[](iigRequests.length);\r\n            address[] memory iigOwners = new address[](iigRequests.length);\r\n            string[] memory identityCards = new string[](iigRequests.length);\r\n            string[] memory requestDates = new string[](iigRequests.length);\r\n            string[] memory statusRequests = new string[](iigRequests.length);\r\n            for(uint i=0; i<iigRequests.length;i++){\r\n                if((iigRequests[i].iigOwner == _iigOwner) && (iigRequests[i].studentOwner == _studentOwner)){\r\n                    codeRequests[i] = iigRequests[i].codeRequest;\r\n                    studentOwners[i] = iigRequests[i].studentOwner;\r\n                    iigOwners[i] = iigRequests[i].iigOwner;\r\n                    identityCards[i] = iigRequests[i].identityCard;\r\n                    requestDates[i] = iigRequests[i].requestDate;\r\n                    statusRequests[i] = iigRequests[i].statusRequest;\r\n                }\r\n            }\r\n            return (codeRequests, studentOwners, iigOwners, identityCards, requestDates, statusRequests);\r\n    }\r\n\r\n    //Chc nng kim tra yu cu chng ch IIG\r\n    function checkRequest(\r\n        address _studentOwner, \r\n        address _iigOwner) public view returns(uint x) {\r\n            for(uint i=0; i<iigRequests.length; i++){\r\n                if((iigRequests[i].studentOwner == _studentOwner) && (iigRequests[i].iigOwner == _iigOwner) && (keccak256(bytes(iigRequests[i].statusRequest)) == keccak256(bytes(\"Waiting\")))){\r\n                    return 1;\r\n                }\r\n            }\r\n    }\r\n\r\n    //Chc nng duyt yu cu chng ch IIG\r\n    function confirmRequest(\r\n        address _studentOwner, \r\n        address _iigOwner,\r\n        bytes4 _codeRequest,\r\n        string memory _statusRequest) public {\r\n            require(keccak256(bytes(_statusRequest)) == keccak256(bytes(\"Accepted\")) || keccak256(bytes(_statusRequest)) == keccak256(bytes(\"Declined\")), \"Status Request incorrect.\");\r\n            for(uint i=0; i<iigRequests.length; i++){\r\n                if((iigRequests[i].studentOwner == _studentOwner) && (iigRequests[i].iigOwner == _iigOwner) && (iigRequests[i].codeRequest == _codeRequest)){\r\n                    iigRequests[i].statusRequest = _statusRequest;\r\n                }\r\n            }\r\n    }\r\n\r\n    // Chc nng thm thng tin im thi Listening - Reading (Kim tra c nhp nhiu ln thi ca 1 sinh vin chung 1 ngy khng?)\r\n    function addLRResult (\r\n        address _iigOwner,\r\n        address _studentOwner,\r\n        string memory _testDate,\r\n        uint _shiftTest,\r\n        string memory _expireDate,\r\n        uint _listeningScore,\r\n        uint _readingScore) public {\r\n            require(checkExistIIG(_iigOwner) == 1, \"Not found owner.\");\r\n            require(checkExistLRResult(_studentOwner, _testDate, _shiftTest) == 0, \"Duplicate LR Result.\");\r\n            require(_shiftTest == 1 || _shiftTest == 2 || _shiftTest == 3 || _shiftTest == 4, \"Shift Test incorrect.\");\r\n            require(_listeningScore >=0 && _listeningScore <=495, \"Listening Score incorrect.\");\r\n            require(_readingScore >=0 && _readingScore <=495, \"Reading Score incorrect.\");\r\n            iigLRResults.push(\r\n                IIGLRResult(bytes4(keccak256(abi.encodePacked(_testDate, _shiftTest))),\r\n                        _iigOwner, \r\n                        _studentOwner, \r\n                        _testDate,\r\n                        _shiftTest,\r\n                        _expireDate,\r\n                        _listeningScore, \r\n                        _readingScore,\r\n                        (_listeningScore + _readingScore))\r\n                );\r\n    }\r\n\r\n    // Chc nng ly danh sch im thi Listening - Reading  thm\r\n    function getListLRResult(\r\n        address _iigOwner, \r\n        address _studentOwner) public view returns(\r\n            string[] memory,\r\n            uint[] memory,\r\n            string[] memory,\r\n            uint[] memory,\r\n            uint[] memory,\r\n            uint[] memory) {\r\n                string[] memory testDates = new string[](iigLRResults.length);\r\n                uint[] memory shiftTests = new uint[](iigLRResults.length);\r\n                string[] memory expireDates = new string[](iigLRResults.length);\r\n                uint[] memory listeningScores = new uint[](iigLRResults.length);\r\n                uint[] memory readingScores = new uint[](iigLRResults.length);\r\n                uint[] memory totalScores = new uint[](iigLRResults.length);\r\n                for(uint i=0; i<iigLRResults.length;i++){\r\n                    if((iigLRResults[i].iigOwner == _iigOwner) && (iigLRResults[i].studentOwner == _studentOwner)){\r\n                        testDates[i] = iigLRResults[i].testDate;\r\n                        shiftTests[i] = iigLRResults[i].shiftTest;\r\n                        expireDates[i] = iigLRResults[i].expireDate;\r\n                        listeningScores[i] = iigLRResults[i].listeningScore;\r\n                        readingScores[i] = iigLRResults[i].readingScore;\r\n                        totalScores[i] = iigLRResults[i].totalScore;\r\n                    }\r\n                }\r\n                return (testDates, shiftTests, expireDates, listeningScores, readingScores, totalScores);\r\n    }\r\n\r\n    // Chc nng ly im thi Listening - Reading ca sinh vin\r\n    function getLRResult(\r\n        address _iigOwner, \r\n        address _studentOwner,\r\n        string memory _testDate,\r\n        uint _shiftTest) public view returns(\r\n            string memory testDate,\r\n            uint shiftTest,\r\n            string memory expireDate,\r\n            uint listeningScore,\r\n            uint readingScore,\r\n            uint totalScore) {\r\n                for(uint i=0; i<iigLRResults.length;i++){\r\n                    if((iigLRResults[i].iigOwner == _iigOwner) && (iigLRResults[i].studentOwner == _studentOwner) && (iigLRResults[i].codeLRResult == keccak256(bytes(string(abi.encodePacked(_testDate, _shiftTest)))))){\r\n                        return(iigLRResults[i].testDate,\r\n                                iigLRResults[i].shiftTest,\r\n                                iigLRResults[i].expireDate,\r\n                                iigLRResults[i].listeningScore,\r\n                                iigLRResults[i].readingScore,\r\n                                iigLRResults[i].totalScore);\r\n                    }\r\n                }\r\n    }\r\n\r\n    // Chc nng kim tra kt qu ngy thi Listening - Reading ca sinh vin  tn ti hay cha?\r\n    function checkExistLRResult(\r\n        address _studentOwner, \r\n        string memory _testDate,\r\n        uint _shiftTest) public view returns(uint x) {\r\n            for(uint i=0; i<iigLRResults.length; i++){\r\n                if((iigLRResults[i].studentOwner == _studentOwner) && (iigLRResults[i].codeLRResult == keccak256(bytes(string(abi.encodePacked(_testDate, _shiftTest)))))){\r\n                    return 1;\r\n                }\r\n            }\r\n    }\r\n\r\n    // Chc nng thm thng tin im thi Speaking - Writing\r\n    function addSWResult (\r\n        address _iigOwner,\r\n        address _studentOwner,\r\n        string memory _testDate,\r\n        uint _shiftTest,\r\n        string memory _expireDate,\r\n        uint _speakingScore,\r\n        uint _writingScore) public {\r\n            require(checkExistIIG(_iigOwner) == 1, \"Not found owner.\");\r\n            require(checkExistSWResult(_studentOwner, _testDate, _shiftTest) == 0, \"Duplicate SW Result.\");\r\n            require(_shiftTest == 1 || _shiftTest == 2 || _shiftTest == 3 || _shiftTest == 4, \"Shift Test incorrect.\");\r\n            require(_speakingScore >=0 && _speakingScore <=200, \"Speaking Score incorrect.\");\r\n            require(_writingScore >=0 && _writingScore <=200, \"Writing Score incorrect.\");\r\n            iigSWResults.push(\r\n                IIGSWResult(bytes4(keccak256(abi.encodePacked(_testDate, _shiftTest))),\r\n                        _iigOwner, \r\n                        _studentOwner, \r\n                        _testDate,\r\n                        _shiftTest,\r\n                        _expireDate,\r\n                        _speakingScore, \r\n                        _writingScore,\r\n                        (_speakingScore + _writingScore))\r\n                );\r\n    }\r\n\r\n    // Chc nng ly danh sch im thi Speaking - Writing  thm\r\n    function getListSWResult(address _iigOwner, address _studentOwner) public view returns(\r\n        string[] memory,\r\n        uint[] memory,\r\n        string[] memory,\r\n        uint[] memory,\r\n        uint[] memory,\r\n        uint[] memory) {\r\n            string[] memory testDates = new string[](iigSWResults.length);\r\n            uint[] memory shiftTests = new uint[](iigSWResults.length);\r\n            string[] memory expireDates = new string[](iigSWResults.length);\r\n            uint[] memory speakingScores = new uint[](iigSWResults.length);\r\n            uint[] memory writingScores = new uint[](iigSWResults.length);\r\n            uint[] memory totalScores = new uint[](iigSWResults.length);\r\n            for(uint i=0; i<iigSWResults.length;i++){\r\n                if((iigLRResults[i].iigOwner == _iigOwner) && (iigLRResults[i].studentOwner == _studentOwner)){\r\n                    testDates[i] = iigSWResults[i].testDate;\r\n                    shiftTests[i] = iigSWResults[i].shiftTest;\r\n                    expireDates[i] = iigSWResults[i].expireDate;\r\n                    speakingScores[i] = iigSWResults[i].speakingScore;\r\n                    writingScores[i] = iigSWResults[i].writingScore;\r\n                    totalScores[i] = iigSWResults[i].totalScore;\r\n                }\r\n            }\r\n            return (testDates, shiftTests, expireDates, speakingScores, writingScores, totalScores);\r\n    }\r\n\r\n    // Chc nng ly im thi Speaking - Writing ca sinh vin\r\n    function getSWResult(\r\n        address _iigOwner, \r\n        address _studentOwner,\r\n        string memory _testDate,\r\n        uint _shiftTest) public view returns(\r\n            string memory testDate,\r\n            uint shiftTest,\r\n            string memory expireDate,\r\n            uint speakingScore,\r\n            uint writingScore,\r\n            uint totalScore) {\r\n                for(uint i=0; i<iigSWResults.length;i++){\r\n                    if((iigSWResults[i].iigOwner == _iigOwner) && (iigSWResults[i].studentOwner == _studentOwner) && (iigSWResults[i].codeSWResult == keccak256(bytes(string(abi.encodePacked(_testDate, _shiftTest)))))){\r\n                        return(iigSWResults[i].testDate,\r\n                                iigSWResults[i].shiftTest,\r\n                                iigSWResults[i].expireDate,\r\n                                iigSWResults[i].speakingScore,\r\n                                iigSWResults[i].writingScore,\r\n                                iigSWResults[i].totalScore);\r\n                    }\r\n                }\r\n    }\r\n    \r\n    // Chc nng kim tra kt qu ngy thi Speaking - Writing ca sinh vin  tn ti hay cha?\r\n    function checkExistSWResult(\r\n        address _studentOwner,\r\n        string memory _testDate,\r\n        uint _shiftTest) public view returns(uint x) {\r\n            for(uint i=0; i<iigSWResults.length; i++){\r\n                if((iigLRResults[i].studentOwner == _studentOwner) && (iigLRResults[i].codeLRResult == keccak256(bytes(string(abi.encodePacked(_testDate, _shiftTest)))))){\r\n                    return 1;\r\n                }\r\n            }\r\n    }\r\n}",
  "sourcePath": "C:\\Users\\19520\\Documents\\NCKH_Blockchain\\SolidityProgramming\\ProjectResearch\\SmartCV\\SmartContract\\contracts\\SmartCV_ListIIG.sol",
  "compiler": {
    "name": "solc",
    "version": "0.8.11+commit.d7f03943.Emscripten.clang"
  },
  "schemaVersion": "3.4.4",
  "updatedAt": "2022-07-30T16:10:32.414Z",
  "devdoc": {
    "kind": "dev",
    "methods": {},
    "version": 1
  },
  "userdoc": {
    "kind": "user",
    "methods": {},
    "version": 1
  }
}