{
  "contractName": "ListIIG",
  "abi": [
    {
      "inputs": [
        {
          "internalType": "uint256",
          "name": "",
          "type": "uint256"
        }
      ],
      "name": "iigInfos",
      "outputs": [
        {
          "internalType": "address",
          "name": "iigOwner",
          "type": "address"
        },
        {
          "internalType": "string",
          "name": "name",
          "type": "string"
        },
        {
          "internalType": "string",
          "name": "country",
          "type": "string"
        },
        {
          "internalType": "string",
          "name": "facebook",
          "type": "string"
        },
        {
          "internalType": "string",
          "name": "website",
          "type": "string"
        },
        {
          "internalType": "string",
          "name": "linkedin",
          "type": "string"
        },
        {
          "internalType": "string",
          "name": "password",
          "type": "string"
        }
      ],
      "stateMutability": "view",
      "type": "function"
    },
    {
      "inputs": [
        {
          "internalType": "uint256",
          "name": "",
          "type": "uint256"
        }
      ],
      "name": "iigLRResults",
      "outputs": [
        {
          "internalType": "bytes4",
          "name": "codeLRResult",
          "type": "bytes4"
        },
        {
          "internalType": "address",
          "name": "iigOwner",
          "type": "address"
        },
        {
          "internalType": "address",
          "name": "studentOwner",
          "type": "address"
        },
        {
          "internalType": "string",
          "name": "testDate",
          "type": "string"
        },
        {
          "internalType": "uint256",
          "name": "shiftTest",
          "type": "uint256"
        },
        {
          "internalType": "string",
          "name": "expireDate",
          "type": "string"
        },
        {
          "internalType": "uint256",
          "name": "listeningScore",
          "type": "uint256"
        },
        {
          "internalType": "uint256",
          "name": "readingScore",
          "type": "uint256"
        },
        {
          "internalType": "uint256",
          "name": "totalScore",
          "type": "uint256"
        }
      ],
      "stateMutability": "view",
      "type": "function"
    },
    {
      "inputs": [
        {
          "internalType": "uint256",
          "name": "",
          "type": "uint256"
        }
      ],
      "name": "iigRequests",
      "outputs": [
        {
          "internalType": "bytes4",
          "name": "codeRequest",
          "type": "bytes4"
        },
        {
          "internalType": "address",
          "name": "studentOwner",
          "type": "address"
        },
        {
          "internalType": "address",
          "name": "iigOwner",
          "type": "address"
        },
        {
          "internalType": "string",
          "name": "identityCard",
          "type": "string"
        },
        {
          "internalType": "string",
          "name": "requestDate",
          "type": "string"
        },
        {
          "internalType": "string",
          "name": "statusRequest",
          "type": "string"
        }
      ],
      "stateMutability": "view",
      "type": "function"
    },
    {
      "inputs": [
        {
          "internalType": "uint256",
          "name": "",
          "type": "uint256"
        }
      ],
      "name": "iigSWResults",
      "outputs": [
        {
          "internalType": "bytes4",
          "name": "codeSWResult",
          "type": "bytes4"
        },
        {
          "internalType": "address",
          "name": "iigOwner",
          "type": "address"
        },
        {
          "internalType": "address",
          "name": "studentOwner",
          "type": "address"
        },
        {
          "internalType": "string",
          "name": "testDate",
          "type": "string"
        },
        {
          "internalType": "uint256",
          "name": "shiftTest",
          "type": "uint256"
        },
        {
          "internalType": "string",
          "name": "expireDate",
          "type": "string"
        },
        {
          "internalType": "uint256",
          "name": "speakingScore",
          "type": "uint256"
        },
        {
          "internalType": "uint256",
          "name": "writingScore",
          "type": "uint256"
        },
        {
          "internalType": "uint256",
          "name": "totalScore",
          "type": "uint256"
        }
      ],
      "stateMutability": "view",
      "type": "function"
    },
    {
      "inputs": [
        {
          "internalType": "address",
          "name": "_iigOwner",
          "type": "address"
        },
        {
          "internalType": "string",
          "name": "_name",
          "type": "string"
        },
        {
          "internalType": "string",
          "name": "_country",
          "type": "string"
        },
        {
          "internalType": "string",
          "name": "_facebook",
          "type": "string"
        },
        {
          "internalType": "string",
          "name": "_website",
          "type": "string"
        },
        {
          "internalType": "string",
          "name": "_linkedin",
          "type": "string"
        },
        {
          "internalType": "string",
          "name": "_password",
          "type": "string"
        }
      ],
      "name": "addIIG",
      "outputs": [],
      "stateMutability": "nonpayable",
      "type": "function"
    },
    {
      "inputs": [
        {
          "internalType": "address",
          "name": "_iigOwner",
          "type": "address"
        },
        {
          "internalType": "string",
          "name": "_name",
          "type": "string"
        },
        {
          "internalType": "string",
          "name": "_country",
          "type": "string"
        },
        {
          "internalType": "string",
          "name": "_facebook",
          "type": "string"
        },
        {
          "internalType": "string",
          "name": "_website",
          "type": "string"
        },
        {
          "internalType": "string",
          "name": "_linkedin",
          "type": "string"
        }
      ],
      "name": "editIIG",
      "outputs": [],
      "stateMutability": "nonpayable",
      "type": "function"
    },
    {
      "inputs": [],
      "name": "getListIIG",
      "outputs": [
        {
          "internalType": "address[]",
          "name": "",
          "type": "address[]"
        },
        {
          "internalType": "string[]",
          "name": "",
          "type": "string[]"
        },
        {
          "internalType": "string[]",
          "name": "",
          "type": "string[]"
        },
        {
          "internalType": "string[]",
          "name": "",
          "type": "string[]"
        },
        {
          "internalType": "string[]",
          "name": "",
          "type": "string[]"
        },
        {
          "internalType": "string[]",
          "name": "",
          "type": "string[]"
        },
        {
          "internalType": "string[]",
          "name": "",
          "type": "string[]"
        }
      ],
      "stateMutability": "view",
      "type": "function"
    },
    {
      "inputs": [
        {
          "internalType": "address",
          "name": "_iigOwner",
          "type": "address"
        }
      ],
      "name": "getProfile",
      "outputs": [
        {
          "internalType": "address",
          "name": "iigOwner",
          "type": "address"
        },
        {
          "internalType": "string",
          "name": "name",
          "type": "string"
        },
        {
          "internalType": "string",
          "name": "country",
          "type": "string"
        },
        {
          "internalType": "string",
          "name": "facebook",
          "type": "string"
        },
        {
          "internalType": "string",
          "name": "website",
          "type": "string"
        },
        {
          "internalType": "string",
          "name": "linkedin",
          "type": "string"
        }
      ],
      "stateMutability": "view",
      "type": "function"
    },
    {
      "inputs": [
        {
          "internalType": "address",
          "name": "_iigOwner",
          "type": "address"
        },
        {
          "internalType": "string",
          "name": "_password",
          "type": "string"
        }
      ],
      "name": "checkIIG",
      "outputs": [
        {
          "internalType": "uint256",
          "name": "x",
          "type": "uint256"
        }
      ],
      "stateMutability": "view",
      "type": "function"
    },
    {
      "inputs": [
        {
          "internalType": "address",
          "name": "_iigOwner",
          "type": "address"
        }
      ],
      "name": "checkExistIIG",
      "outputs": [
        {
          "internalType": "uint256",
          "name": "x",
          "type": "uint256"
        }
      ],
      "stateMutability": "view",
      "type": "function"
    },
    {
      "inputs": [
        {
          "internalType": "address",
          "name": "_studentOwner",
          "type": "address"
        },
        {
          "internalType": "address",
          "name": "_iigOwner",
          "type": "address"
        },
        {
          "internalType": "string",
          "name": "_identityCard",
          "type": "string"
        },
        {
          "internalType": "string",
          "name": "_requestDate",
          "type": "string"
        }
      ],
      "name": "addRequest",
      "outputs": [],
      "stateMutability": "nonpayable",
      "type": "function"
    },
    {
      "inputs": [
        {
          "internalType": "address",
          "name": "_iigOwner",
          "type": "address"
        }
      ],
      "name": "getListRequest",
      "outputs": [
        {
          "internalType": "bytes4[]",
          "name": "",
          "type": "bytes4[]"
        },
        {
          "internalType": "address[]",
          "name": "",
          "type": "address[]"
        },
        {
          "internalType": "address[]",
          "name": "",
          "type": "address[]"
        },
        {
          "internalType": "string[]",
          "name": "",
          "type": "string[]"
        },
        {
          "internalType": "string[]",
          "name": "",
          "type": "string[]"
        },
        {
          "internalType": "string[]",
          "name": "",
          "type": "string[]"
        }
      ],
      "stateMutability": "view",
      "type": "function"
    },
    {
      "inputs": [
        {
          "internalType": "address",
          "name": "_iigOwner",
          "type": "address"
        },
        {
          "internalType": "address",
          "name": "_studentOwner",
          "type": "address"
        }
      ],
      "name": "getListRequestStudent",
      "outputs": [
        {
          "internalType": "bytes4[]",
          "name": "",
          "type": "bytes4[]"
        },
        {
          "internalType": "address[]",
          "name": "",
          "type": "address[]"
        },
        {
          "internalType": "address[]",
          "name": "",
          "type": "address[]"
        },
        {
          "internalType": "string[]",
          "name": "",
          "type": "string[]"
        },
        {
          "internalType": "string[]",
          "name": "",
          "type": "string[]"
        },
        {
          "internalType": "string[]",
          "name": "",
          "type": "string[]"
        }
      ],
      "stateMutability": "view",
      "type": "function"
    },
    {
      "inputs": [
        {
          "internalType": "address",
          "name": "_studentOwner",
          "type": "address"
        },
        {
          "internalType": "address",
          "name": "_iigOwner",
          "type": "address"
        }
      ],
      "name": "checkRequest",
      "outputs": [
        {
          "internalType": "uint256",
          "name": "x",
          "type": "uint256"
        }
      ],
      "stateMutability": "view",
      "type": "function"
    },
    {
      "inputs": [
        {
          "internalType": "address",
          "name": "_studentOwner",
          "type": "address"
        },
        {
          "internalType": "address",
          "name": "_iigOwner",
          "type": "address"
        },
        {
          "internalType": "bytes4",
          "name": "_codeRequest",
          "type": "bytes4"
        },
        {
          "internalType": "string",
          "name": "_statusRequest",
          "type": "string"
        }
      ],
      "name": "confirmRequest",
      "outputs": [],
      "stateMutability": "nonpayable",
      "type": "function"
    },
    {
      "inputs": [
        {
          "internalType": "address",
          "name": "_iigOwner",
          "type": "address"
        },
        {
          "internalType": "address",
          "name": "_studentOwner",
          "type": "address"
        },
        {
          "internalType": "string",
          "name": "_testDate",
          "type": "string"
        },
        {
          "internalType": "uint256",
          "name": "_shiftTest",
          "type": "uint256"
        },
        {
          "internalType": "string",
          "name": "_expireDate",
          "type": "string"
        },
        {
          "internalType": "uint256",
          "name": "_listeningScore",
          "type": "uint256"
        },
        {
          "internalType": "uint256",
          "name": "_readingScore",
          "type": "uint256"
        }
      ],
      "name": "addLRResult",
      "outputs": [],
      "stateMutability": "nonpayable",
      "type": "function"
    },
    {
      "inputs": [
        {
          "internalType": "address",
          "name": "_iigOwner",
          "type": "address"
        },
        {
          "internalType": "address",
          "name": "_studentOwner",
          "type": "address"
        }
      ],
      "name": "getListLRResult",
      "outputs": [
        {
          "internalType": "string[]",
          "name": "",
          "type": "string[]"
        },
        {
          "internalType": "uint256[]",
          "name": "",
          "type": "uint256[]"
        },
        {
          "internalType": "string[]",
          "name": "",
          "type": "string[]"
        },
        {
          "internalType": "uint256[]",
          "name": "",
          "type": "uint256[]"
        },
        {
          "internalType": "uint256[]",
          "name": "",
          "type": "uint256[]"
        },
        {
          "internalType": "uint256[]",
          "name": "",
          "type": "uint256[]"
        }
      ],
      "stateMutability": "view",
      "type": "function"
    },
    {
      "inputs": [
        {
          "internalType": "address",
          "name": "_iigOwner",
          "type": "address"
        },
        {
          "internalType": "address",
          "name": "_studentOwner",
          "type": "address"
        },
        {
          "internalType": "string",
          "name": "_testDate",
          "type": "string"
        },
        {
          "internalType": "uint256",
          "name": "_shiftTest",
          "type": "uint256"
        }
      ],
      "name": "getLRResult",
      "outputs": [
        {
          "internalType": "string",
          "name": "testDate",
          "type": "string"
        },
        {
          "internalType": "uint256",
          "name": "shiftTest",
          "type": "uint256"
        },
        {
          "internalType": "string",
          "name": "expireDate",
          "type": "string"
        },
        {
          "internalType": "uint256",
          "name": "listeningScore",
          "type": "uint256"
        },
        {
          "internalType": "uint256",
          "name": "readingScore",
          "type": "uint256"
        },
        {
          "internalType": "uint256",
          "name": "totalScore",
          "type": "uint256"
        }
      ],
      "stateMutability": "view",
      "type": "function"
    },
    {
      "inputs": [
        {
          "internalType": "address",
          "name": "_studentOwner",
          "type": "address"
        },
        {
          "internalType": "string",
          "name": "_testDate",
          "type": "string"
        },
        {
          "internalType": "uint256",
          "name": "_shiftTest",
          "type": "uint256"
        }
      ],
      "name": "checkExistLRResult",
      "outputs": [
        {
          "internalType": "uint256",
          "name": "x",
          "type": "uint256"
        }
      ],
      "stateMutability": "view",
      "type": "function"
    },
    {
      "inputs": [
        {
          "internalType": "address",
          "name": "_iigOwner",
          "type": "address"
        },
        {
          "internalType": "address",
          "name": "_studentOwner",
          "type": "address"
        },
        {
          "internalType": "string",
          "name": "_testDate",
          "type": "string"
        },
        {
          "internalType": "uint256",
          "name": "_shiftTest",
          "type": "uint256"
        },
        {
          "internalType": "string",
          "name": "_expireDate",
          "type": "string"
        },
        {
          "internalType": "uint256",
          "name": "_speakingScore",
          "type": "uint256"
        },
        {
          "internalType": "uint256",
          "name": "_writingScore",
          "type": "uint256"
        }
      ],
      "name": "addSWResult",
      "outputs": [],
      "stateMutability": "nonpayable",
      "type": "function"
    },
    {
      "inputs": [
        {
          "internalType": "address",
          "name": "_iigOwner",
          "type": "address"
        },
        {
          "internalType": "address",
          "name": "_studentOwner",
          "type": "address"
        }
      ],
      "name": "getListSWResult",
      "outputs": [
        {
          "internalType": "string[]",
          "name": "",
          "type": "string[]"
        },
        {
          "internalType": "uint256[]",
          "name": "",
          "type": "uint256[]"
        },
        {
          "internalType": "string[]",
          "name": "",
          "type": "string[]"
        },
        {
          "internalType": "uint256[]",
          "name": "",
          "type": "uint256[]"
        },
        {
          "internalType": "uint256[]",
          "name": "",
          "type": "uint256[]"
        },
        {
          "internalType": "uint256[]",
          "name": "",
          "type": "uint256[]"
        }
      ],
      "stateMutability": "view",
      "type": "function"
    },
    {
      "inputs": [
        {
          "internalType": "address",
          "name": "_iigOwner",
          "type": "address"
        },
        {
          "internalType": "address",
          "name": "_studentOwner",
          "type": "address"
        },
        {
          "internalType": "string",
          "name": "_testDate",
          "type": "string"
        },
        {
          "internalType": "uint256",
          "name": "_shiftTest",
          "type": "uint256"
        }
      ],
      "name": "getSWResult",
      "outputs": [
        {
          "internalType": "string",
          "name": "testDate",
          "type": "string"
        },
        {
          "internalType": "uint256",
          "name": "shiftTest",
          "type": "uint256"
        },
        {
          "internalType": "string",
          "name": "expireDate",
          "type": "string"
        },
        {
          "internalType": "uint256",
          "name": "speakingScore",
          "type": "uint256"
        },
        {
          "internalType": "uint256",
          "name": "writingScore",
          "type": "uint256"
        },
        {
          "internalType": "uint256",
          "name": "totalScore",
          "type": "uint256"
        }
      ],
      "stateMutability": "view",
      "type": "function"
    },
    {
      "inputs": [
        {
          "internalType": "address",
          "name": "_studentOwner",
          "type": "address"
        },
        {
          "internalType": "string",
          "name": "_testDate",
          "type": "string"
        },
        {
          "internalType": "uint256",
          "name": "_shiftTest",
          "type": "uint256"
        }
      ],
      "name": "checkExistSWResult",
      "outputs": [
        {
          "internalType": "uint256",
          "name": "x",
          "type": "uint256"
        }
      ],
      "stateMutability": "view",
      "type": "function"
    }
  ],
  "bytecode": "0x608060405234801561001057600080fd5b50616b5e80620000216000396000f3fe608060405234801561001057600080fd5b506004361061014d5760003560e01c806380d95162116100c3578063a9846eb01161007c578063a9846eb01461046b578063b351d176146104a3578063bc72af7d146104bf578063dd8f3edc146104f4578063f1857d2114610510578063fe933225146105405761014d565b806380d951621461037557806384ae9131146103a55780638a8f1d05146103c9578063948195ed146103e55780639fa7247a14610401578063a76d2579146104365761014d565b80630f53a470116101155780630f53a4701461025757806324e660371461028c578063323cc7c5146102bc57806344fd6e22146102f157806349f47a55146103215780636cf871df146103595761014d565b8063018d934a146101525780630381b0131461018257806306ed1e89146101b757806309bef62a146101ec5780630c3f988214610222575b600080fd5b61016c6004803603810190610167919061535c565b61055c565b60405161017991906153b5565b60405180910390f35b61019c60048036038101906101979190615542565b61070b565b6040516101ae9695949392919061564d565b60405180910390f35b6101d160048036038101906101cc919061535c565b610ad0565b6040516101e396959493929190615886565b60405180910390f35b61020660048036038101906102019190615911565b6110b7565b604051610219979695949392919061594d565b60405180910390f35b61023c6004803603810190610237919061535c565b611459565b60405161024e96959493929190615b8e565b60405180910390f35b610271600480360381019061026c9190615c19565b611bb5565b60405161028396959493929190615c46565b60405180910390f35b6102a660048036038101906102a19190615cca565b612033565b6040516102b391906153b5565b60405180910390f35b6102d660048036038101906102d19190615911565b612131565b6040516102e896959493929190615d35565b60405180910390f35b61030b60048036038101906103069190615c19565b612362565b60405161031891906153b5565b60405180910390f35b61033b60048036038101906103369190615911565b612414565b60405161035099989796959493929190615dab565b60405180910390f35b610373600480360381019061036e9190615e46565b6125cf565b005b61038f600480360381019061038a9190615f5f565b612797565b60405161039c91906153b5565b60405180910390f35b6103ad6128cf565b6040516103c09796959493929190615fce565b60405180910390f35b6103e360048036038101906103de919061606e565b6130d3565b005b6103ff60048036038101906103fa9190616148565b6134ac565b005b61041b60048036038101906104169190615c19565b613707565b60405161042d96959493929190615b8e565b60405180910390f35b610450600480360381019061044b9190615542565b613de6565b6040516104629695949392919061564d565b60405180910390f35b61048560048036038101906104809190615911565b6141ab565b60405161049a99989796959493929190615dab565b60405180910390f35b6104bd60048036038101906104b89190616213565b614366565b005b6104d960048036038101906104d4919061535c565b61460d565b6040516104eb96959493929190615886565b60405180910390f35b61050e60048036038101906105099190616296565b614bf4565b005b61052a60048036038101906105259190615f5f565b614d68565b60405161053791906153b5565b60405180910390f35b61055a6004803603810190610555919061606e565b614ea0565b005b600080600090505b600180549050811015610703578373ffffffffffffffffffffffffffffffffffffffff166001828154811061059c5761059b6163e0565b5b906000526020600020906005020160000160049054906101000a900473ffffffffffffffffffffffffffffffffffffffff1673ffffffffffffffffffffffffffffffffffffffff1614801561066157508273ffffffffffffffffffffffffffffffffffffffff1660018281548110610617576106166163e0565b5b906000526020600020906005020160010160009054906101000a900473ffffffffffffffffffffffffffffffffffffffff1673ffffffffffffffffffffffffffffffffffffffff16145b80156106e157506040518060400160405280600781526020017f57616974696e670000000000000000000000000000000000000000000000000081525080519060200120600182815481106106b9576106b86163e0565b5b90600052602060002090600502016004016040516106d7919061650f565b6040518091039020145b156106f0576001915050610705565b80806106fb90616555565b915050610564565b505b92915050565b606060006060600080600080600090505b600280549050811015610ac1578a73ffffffffffffffffffffffffffffffffffffffff1660028281548110610754576107536163e0565b5b906000526020600020906008020160000160049054906101000a900473ffffffffffffffffffffffffffffffffffffffff1673ffffffffffffffffffffffffffffffffffffffff1614801561081957508973ffffffffffffffffffffffffffffffffffffffff16600282815481106107cf576107ce6163e0565b5b906000526020600020906008020160010160009054906101000a900473ffffffffffffffffffffffffffffffffffffffff1673ffffffffffffffffffffffffffffffffffffffff16145b801561089d575088886040516020016108339291906165fb565b604051602081830303815290604052805190602001206002828154811061085d5761085c6163e0565b5b906000526020600020906008020160000160009054906101000a900460e01b7bffffffffffffffffffffffffffffffffffffffffffffffffffffffff1916145b15610aae57600281815481106108b6576108b56163e0565b5b9060005260206000209060080201600201600282815481106108db576108da6163e0565b5b90600052602060002090600802016003015460028381548110610901576109006163e0565b5b906000526020600020906008020160040160028481548110610926576109256163e0565b5b9060005260206000209060080201600501546002858154811061094c5761094b6163e0565b5b90600052602060002090600802016006015460028681548110610972576109716163e0565b5b9060005260206000209060080201600701548580546109909061643e565b80601f01602080910402602001604051908101604052809291908181526020018280546109bc9061643e565b8015610a095780601f106109de57610100808354040283529160200191610a09565b820191906000526020600020905b8154815290600101906020018083116109ec57829003601f168201915b50505050509550838054610a1c9061643e565b80601f0160208091040260200160405190810160405280929190818152602001828054610a489061643e565b8015610a955780601f10610a6a57610100808354040283529160200191610a95565b820191906000526020600020905b815481529060010190602001808311610a7857829003601f168201915b5050505050935096509650965096509650965050610ac3565b8080610ab990616555565b91505061071c565b505b9499939850945094509450565b606080606080606080600060038054905067ffffffffffffffff811115610afa57610af96153eb565b5b604051908082528060200260200182016040528015610b2d57816020015b6060815260200190600190039081610b185790505b509050600060038054905067ffffffffffffffff811115610b5157610b506153eb565b5b604051908082528060200260200182016040528015610b7f5781602001602082028036833780820191505090505b509050600060038054905067ffffffffffffffff811115610ba357610ba26153eb565b5b604051908082528060200260200182016040528015610bd657816020015b6060815260200190600190039081610bc15790505b509050600060038054905067ffffffffffffffff811115610bfa57610bf96153eb565b5b604051908082528060200260200182016040528015610c285781602001602082028036833780820191505090505b509050600060038054905067ffffffffffffffff811115610c4c57610c4b6153eb565b5b604051908082528060200260200182016040528015610c7a5781602001602082028036833780820191505090505b509050600060038054905067ffffffffffffffff811115610c9e57610c9d6153eb565b5b604051908082528060200260200182016040528015610ccc5781602001602082028036833780820191505090505b50905060005b600380549050811015611094578e73ffffffffffffffffffffffffffffffffffffffff1660028281548110610d0a57610d096163e0565b5b906000526020600020906008020160000160049054906101000a900473ffffffffffffffffffffffffffffffffffffffff1673ffffffffffffffffffffffffffffffffffffffff16148015610dcf57508d73ffffffffffffffffffffffffffffffffffffffff1660028281548110610d8557610d846163e0565b5b906000526020600020906008020160010160009054906101000a900473ffffffffffffffffffffffffffffffffffffffff1673ffffffffffffffffffffffffffffffffffffffff16145b156110815760038181548110610de857610de76163e0565b5b90600052602060002090600802016002018054610e049061643e565b80601f0160208091040260200160405190810160405280929190818152602001828054610e309061643e565b8015610e7d5780601f10610e5257610100808354040283529160200191610e7d565b820191906000526020600020905b815481529060010190602001808311610e6057829003601f168201915b5050505050878281518110610e9557610e946163e0565b5b602002602001018190525060038181548110610eb457610eb36163e0565b5b906000526020600020906008020160030154868281518110610ed957610ed86163e0565b5b60200260200101818152505060038181548110610ef957610ef86163e0565b5b90600052602060002090600802016004018054610f159061643e565b80601f0160208091040260200160405190810160405280929190818152602001828054610f419061643e565b8015610f8e5780601f10610f6357610100808354040283529160200191610f8e565b820191906000526020600020905b815481529060010190602001808311610f7157829003601f168201915b5050505050858281518110610fa657610fa56163e0565b5b602002602001018190525060038181548110610fc557610fc46163e0565b5b906000526020600020906008020160050154848281518110610fea57610fe96163e0565b5b6020026020010181815250506003818154811061100a576110096163e0565b5b90600052602060002090600802016006015483828151811061102f5761102e6163e0565b5b6020026020010181815250506003818154811061104f5761104e6163e0565b5b906000526020600020906008020160070154828281518110611074576110736163e0565b5b6020026020010181815250505b808061108c90616555565b915050610cd2565b508585858585859b509b509b509b509b509b505050505050509295509295509295565b600081815481106110c757600080fd5b90600052602060002090600702016000915090508060000160009054906101000a900473ffffffffffffffffffffffffffffffffffffffff16908060010180546111109061643e565b80601f016020809104026020016040519081016040528092919081815260200182805461113c9061643e565b80156111895780601f1061115e57610100808354040283529160200191611189565b820191906000526020600020905b81548152906001019060200180831161116c57829003601f168201915b50505050509080600201805461119e9061643e565b80601f01602080910402602001604051908101604052809291908181526020018280546111ca9061643e565b80156112175780601f106111ec57610100808354040283529160200191611217565b820191906000526020600020905b8154815290600101906020018083116111fa57829003601f168201915b50505050509080600301805461122c9061643e565b80601f01602080910402602001604051908101604052809291908181526020018280546112589061643e565b80156112a55780601f1061127a576101008083540402835291602001916112a5565b820191906000526020600020905b81548152906001019060200180831161128857829003601f168201915b5050505050908060040180546112ba9061643e565b80601f01602080910402602001604051908101604052809291908181526020018280546112e69061643e565b80156113335780601f1061130857610100808354040283529160200191611333565b820191906000526020600020905b81548152906001019060200180831161131657829003601f168201915b5050505050908060050180546113489061643e565b80601f01602080910402602001604051908101604052809291908181526020018280546113749061643e565b80156113c15780601f10611396576101008083540402835291602001916113c1565b820191906000526020600020905b8154815290600101906020018083116113a457829003601f168201915b5050505050908060060180546113d69061643e565b80601f01602080910402602001604051908101604052809291908181526020018280546114029061643e565b801561144f5780601f106114245761010080835404028352916020019161144f565b820191906000526020600020905b81548152906001019060200180831161143257829003601f168201915b5050505050905087565b606080606080606080600060018054905067ffffffffffffffff811115611483576114826153eb565b5b6040519080825280602002602001820160405280156114b15781602001602082028036833780820191505090505b509050600060018054905067ffffffffffffffff8111156114d5576114d46153eb565b5b6040519080825280602002602001820160405280156115035781602001602082028036833780820191505090505b509050600060018054905067ffffffffffffffff811115611527576115266153eb565b5b6040519080825280602002602001820160405280156115555781602001602082028036833780820191505090505b509050600060018054905067ffffffffffffffff811115611579576115786153eb565b5b6040519080825280602002602001820160405280156115ac57816020015b60608152602001906001900390816115975790505b509050600060018054905067ffffffffffffffff8111156115d0576115cf6153eb565b5b60405190808252806020026020018201604052801561160357816020015b60608152602001906001900390816115ee5790505b509050600060018054905067ffffffffffffffff811115611627576116266153eb565b5b60405190808252806020026020018201604052801561165a57816020015b60608152602001906001900390816116455790505b50905060005b600180549050811015611b92578e73ffffffffffffffffffffffffffffffffffffffff1660018281548110611698576116976163e0565b5b906000526020600020906005020160010160009054906101000a900473ffffffffffffffffffffffffffffffffffffffff1673ffffffffffffffffffffffffffffffffffffffff1614801561175d57508d73ffffffffffffffffffffffffffffffffffffffff1660018281548110611713576117126163e0565b5b906000526020600020906005020160000160049054906101000a900473ffffffffffffffffffffffffffffffffffffffff1673ffffffffffffffffffffffffffffffffffffffff16145b15611b7f5760018181548110611776576117756163e0565b5b906000526020600020906005020160000160009054906101000a900460e01b8782815181106117a8576117a76163e0565b5b60200260200101907bffffffffffffffffffffffffffffffffffffffffffffffffffffffff191690817bffffffffffffffffffffffffffffffffffffffffffffffffffffffff19168152505060018181548110611808576118076163e0565b5b906000526020600020906005020160000160049054906101000a900473ffffffffffffffffffffffffffffffffffffffff1686828151811061184d5761184c6163e0565b5b602002602001019073ffffffffffffffffffffffffffffffffffffffff16908173ffffffffffffffffffffffffffffffffffffffff16815250506001818154811061189b5761189a6163e0565b5b906000526020600020906005020160010160009054906101000a900473ffffffffffffffffffffffffffffffffffffffff168582815181106118e0576118df6163e0565b5b602002602001019073ffffffffffffffffffffffffffffffffffffffff16908173ffffffffffffffffffffffffffffffffffffffff16815250506001818154811061192e5761192d6163e0565b5b9060005260206000209060050201600201805461194a9061643e565b80601f01602080910402602001604051908101604052809291908181526020018280546119769061643e565b80156119c35780601f10611998576101008083540402835291602001916119c3565b820191906000526020600020905b8154815290600101906020018083116119a657829003601f168201915b50505050508482815181106119db576119da6163e0565b5b6020026020010181905250600181815481106119fa576119f96163e0565b5b90600052602060002090600502016003018054611a169061643e565b80601f0160208091040260200160405190810160405280929190818152602001828054611a429061643e565b8015611a8f5780601f10611a6457610100808354040283529160200191611a8f565b820191906000526020600020905b815481529060010190602001808311611a7257829003601f168201915b5050505050838281518110611aa757611aa66163e0565b5b602002602001018190525060018181548110611ac657611ac56163e0565b5b90600052602060002090600502016004018054611ae29061643e565b80601f0160208091040260200160405190810160405280929190818152602001828054611b0e9061643e565b8015611b5b5780601f10611b3057610100808354040283529160200191611b5b565b820191906000526020600020905b815481529060010190602001808311611b3e57829003601f168201915b5050505050828281518110611b7357611b726163e0565b5b60200260200101819052505b8080611b8a90616555565b915050611660565b508585858585859b509b509b509b509b509b505050505050509295509295509295565b6000606080606080606060005b600080549050811015612028578773ffffffffffffffffffffffffffffffffffffffff1660008281548110611bfa57611bf96163e0565b5b906000526020600020906007020160000160009054906101000a900473ffffffffffffffffffffffffffffffffffffffff1673ffffffffffffffffffffffffffffffffffffffff1614156120155760008181548110611c5c57611c5b6163e0565b5b906000526020600020906007020160000160009054906101000a900473ffffffffffffffffffffffffffffffffffffffff1660008281548110611ca257611ca16163e0565b5b906000526020600020906007020160010160008381548110611cc757611cc66163e0565b5b906000526020600020906007020160020160008481548110611cec57611ceb6163e0565b5b906000526020600020906007020160030160008581548110611d1157611d106163e0565b5b906000526020600020906007020160040160008681548110611d3657611d356163e0565b5b9060005260206000209060070201600501848054611d539061643e565b80601f0160208091040260200160405190810160405280929190818152602001828054611d7f9061643e565b8015611dcc5780601f10611da157610100808354040283529160200191611dcc565b820191906000526020600020905b815481529060010190602001808311611daf57829003601f168201915b50505050509450838054611ddf9061643e565b80601f0160208091040260200160405190810160405280929190818152602001828054611e0b9061643e565b8015611e585780601f10611e2d57610100808354040283529160200191611e58565b820191906000526020600020905b815481529060010190602001808311611e3b57829003601f168201915b50505050509350828054611e6b9061643e565b80601f0160208091040260200160405190810160405280929190818152602001828054611e979061643e565b8015611ee45780601f10611eb957610100808354040283529160200191611ee4565b820191906000526020600020905b815481529060010190602001808311611ec757829003601f168201915b50505050509250818054611ef79061643e565b80601f0160208091040260200160405190810160405280929190818152602001828054611f239061643e565b8015611f705780601f10611f4557610100808354040283529160200191611f70565b820191906000526020600020905b815481529060010190602001808311611f5357829003601f168201915b50505050509150808054611f839061643e565b80601f0160208091040260200160405190810160405280929190818152602001828054611faf9061643e565b8015611ffc5780601f10611fd157610100808354040283529160200191611ffc565b820191906000526020600020905b815481529060010190602001808311611fdf57829003601f168201915b505050505090509650965096509650965096505061202a565b808061202090616555565b915050611bc2565b505b91939550919395565b600080600090505b600080549050811015612129578373ffffffffffffffffffffffffffffffffffffffff1660008281548110612073576120726163e0565b5b906000526020600020906007020160000160009054906101000a900473ffffffffffffffffffffffffffffffffffffffff1673ffffffffffffffffffffffffffffffffffffffff1614801561210757508280519060200120600082815481106120df576120de6163e0565b5b90600052602060002090600702016006016040516120fd919061650f565b6040518091039020145b1561211657600191505061212b565b808061212190616555565b91505061203b565b505b92915050565b6001818154811061214157600080fd5b90600052602060002090600502016000915090508060000160009054906101000a900460e01b908060000160049054906101000a900473ffffffffffffffffffffffffffffffffffffffff16908060010160009054906101000a900473ffffffffffffffffffffffffffffffffffffffff16908060020180546121c39061643e565b80601f01602080910402602001604051908101604052809291908181526020018280546121ef9061643e565b801561223c5780601f106122115761010080835404028352916020019161223c565b820191906000526020600020905b81548152906001019060200180831161221f57829003601f168201915b5050505050908060030180546122519061643e565b80601f016020809104026020016040519081016040528092919081815260200182805461227d9061643e565b80156122ca5780601f1061229f576101008083540402835291602001916122ca565b820191906000526020600020905b8154815290600101906020018083116122ad57829003601f168201915b5050505050908060040180546122df9061643e565b80601f016020809104026020016040519081016040528092919081815260200182805461230b9061643e565b80156123585780601f1061232d57610100808354040283529160200191612358565b820191906000526020600020905b81548152906001019060200180831161233b57829003601f168201915b5050505050905086565b600080600090505b60008054905081101561240d578273ffffffffffffffffffffffffffffffffffffffff16600082815481106123a2576123a16163e0565b5b906000526020600020906007020160000160009054906101000a900473ffffffffffffffffffffffffffffffffffffffff1673ffffffffffffffffffffffffffffffffffffffff1614156123fa57600191505061240f565b808061240590616555565b91505061236a565b505b919050565b6003818154811061242457600080fd5b90600052602060002090600802016000915090508060000160009054906101000a900460e01b908060000160049054906101000a900473ffffffffffffffffffffffffffffffffffffffff16908060010160009054906101000a900473ffffffffffffffffffffffffffffffffffffffff16908060020180546124a69061643e565b80601f01602080910402602001604051908101604052809291908181526020018280546124d29061643e565b801561251f5780601f106124f45761010080835404028352916020019161251f565b820191906000526020600020905b81548152906001019060200180831161250257829003601f168201915b50505050509080600301549080600401805461253a9061643e565b80601f01602080910402602001604051908101604052809291908181526020018280546125669061643e565b80156125b35780601f10612588576101008083540402835291602001916125b3565b820191906000526020600020905b81548152906001019060200180831161259657829003601f168201915b5050505050908060050154908060060154908060070154905089565b60005b60008054905081101561278e578673ffffffffffffffffffffffffffffffffffffffff166000828154811061260a576126096163e0565b5b906000526020600020906007020160000160009054906101000a900473ffffffffffffffffffffffffffffffffffffffff1673ffffffffffffffffffffffffffffffffffffffff16141561277b57856000828154811061266d5761266c6163e0565b5b90600052602060002090600702016001019080519060200190612691929190615247565b5084600082815481106126a7576126a66163e0565b5b906000526020600020906007020160020190805190602001906126cb929190615247565b5083600082815481106126e1576126e06163e0565b5b90600052602060002090600702016003019080519060200190612705929190615247565b50826000828154811061271b5761271a6163e0565b5b9060005260206000209060070201600401908051906020019061273f929190615247565b508160008281548110612755576127546163e0565b5b90600052602060002090600702016005019080519060200190612779929190615247565b505b808061278690616555565b9150506125d2565b50505050505050565b600080600090505b6002805490508110156128c6578473ffffffffffffffffffffffffffffffffffffffff16600282815481106127d7576127d66163e0565b5b906000526020600020906008020160010160009054906101000a900473ffffffffffffffffffffffffffffffffffffffff1673ffffffffffffffffffffffffffffffffffffffff161480156128a45750838360405160200161283a9291906165fb565b6040516020818303038152906040528051906020012060028281548110612864576128636163e0565b5b906000526020600020906008020160000160009054906101000a900460e01b7bffffffffffffffffffffffffffffffffffffffffffffffffffffffff1916145b156128b35760019150506128c8565b80806128be90616555565b91505061279f565b505b9392505050565b60608060608060608060606000808054905067ffffffffffffffff8111156128fa576128f96153eb565b5b6040519080825280602002602001820160405280156129285781602001602082028036833780820191505090505b5090506000808054905067ffffffffffffffff81111561294b5761294a6153eb565b5b60405190808252806020026020018201604052801561297e57816020015b60608152602001906001900390816129695790505b5090506000808054905067ffffffffffffffff8111156129a1576129a06153eb565b5b6040519080825280602002602001820160405280156129d457816020015b60608152602001906001900390816129bf5790505b5090506000808054905067ffffffffffffffff8111156129f7576129f66153eb565b5b604051908082528060200260200182016040528015612a2a57816020015b6060815260200190600190039081612a155790505b5090506000808054905067ffffffffffffffff811115612a4d57612a4c6153eb565b5b604051908082528060200260200182016040528015612a8057816020015b6060815260200190600190039081612a6b5790505b5090506000808054905067ffffffffffffffff811115612aa357612aa26153eb565b5b604051908082528060200260200182016040528015612ad657816020015b6060815260200190600190039081612ac15790505b5090506000808054905067ffffffffffffffff811115612af957612af86153eb565b5b604051908082528060200260200182016040528015612b2c57816020015b6060815260200190600190039081612b175790505b50905060005b6000805490508110156130ad5760008181548110612b5357612b526163e0565b5b906000526020600020906007020160000160009054906101000a900473ffffffffffffffffffffffffffffffffffffffff16888281518110612b9857612b976163e0565b5b602002602001019073ffffffffffffffffffffffffffffffffffffffff16908173ffffffffffffffffffffffffffffffffffffffff168152505060008181548110612be657612be56163e0565b5b90600052602060002090600702016001018054612c029061643e565b80601f0160208091040260200160405190810160405280929190818152602001828054612c2e9061643e565b8015612c7b5780601f10612c5057610100808354040283529160200191612c7b565b820191906000526020600020905b815481529060010190602001808311612c5e57829003601f168201915b5050505050878281518110612c9357612c926163e0565b5b602002602001018190525060008181548110612cb257612cb16163e0565b5b90600052602060002090600702016002018054612cce9061643e565b80601f0160208091040260200160405190810160405280929190818152602001828054612cfa9061643e565b8015612d475780601f10612d1c57610100808354040283529160200191612d47565b820191906000526020600020905b815481529060010190602001808311612d2a57829003601f168201915b5050505050868281518110612d5f57612d5e6163e0565b5b602002602001018190525060008181548110612d7e57612d7d6163e0565b5b90600052602060002090600702016003018054612d9a9061643e565b80601f0160208091040260200160405190810160405280929190818152602001828054612dc69061643e565b8015612e135780601f10612de857610100808354040283529160200191612e13565b820191906000526020600020905b815481529060010190602001808311612df657829003601f168201915b5050505050858281518110612e2b57612e2a6163e0565b5b602002602001018190525060008181548110612e4a57612e496163e0565b5b90600052602060002090600702016004018054612e669061643e565b80601f0160208091040260200160405190810160405280929190818152602001828054612e929061643e565b8015612edf5780601f10612eb457610100808354040283529160200191612edf565b820191906000526020600020905b815481529060010190602001808311612ec257829003601f168201915b5050505050848281518110612ef757612ef66163e0565b5b602002602001018190525060008181548110612f1657612f156163e0565b5b90600052602060002090600702016005018054612f329061643e565b80601f0160208091040260200160405190810160405280929190818152602001828054612f5e9061643e565b8015612fab5780601f10612f8057610100808354040283529160200191612fab565b820191906000526020600020905b815481529060010190602001808311612f8e57829003601f168201915b5050505050838281518110612fc357612fc26163e0565b5b602002602001018190525060008181548110612fe257612fe16163e0565b5b90600052602060002090600702016006018054612ffe9061643e565b80601f016020809104026020016040519081016040528092919081815260200182805461302a9061643e565b80156130775780601f1061304c57610100808354040283529160200191613077565b820191906000526020600020905b81548152906001019060200180831161305a57829003601f168201915b505050505082828151811061308f5761308e6163e0565b5b602002602001018190525080806130a590616555565b915050612b32565b50868686868686869d509d509d509d509d509d509d505050505050505090919293949596565b60016130de88612362565b1461311e576040517f08c379a00000000000000000000000000000000000000000000000000000000081526004016131159061666f565b60405180910390fd5b600061312b878787612797565b1461316b576040517f08c379a0000000000000000000000000000000000000000000000000000000008152600401613162906166db565b60405180910390fd5b600184148061317a5750600284145b806131855750600384145b806131905750600484145b6131cf576040517f08c379a00000000000000000000000000000000000000000000000000000000081526004016131c690616747565b60405180910390fd5b600082101580156131e257506101ef8211155b80156131fa575060006005836131f89190616796565b145b613239576040517f08c379a000000000000000000000000000000000000000000000000000000000815260040161323090616813565b60405180910390fd5b6000811015801561324c57506101ef8111155b8015613264575060006005836132629190616796565b145b6132a3576040517f08c379a000000000000000000000000000000000000000000000000000000000815260040161329a9061687f565b60405180910390fd5b600260405180610120016040528087876040516020016132c49291906165fb565b604051602081830303815290604052805190602001207bffffffffffffffffffffffffffffffffffffffffffffffffffffffff191681526020018973ffffffffffffffffffffffffffffffffffffffff1681526020018873ffffffffffffffffffffffffffffffffffffffff1681526020018781526020018681526020018581526020018481526020018381526020018385613360919061689f565b815250908060018154018082558091505060019003906000526020600020906008020160009091909190915060008201518160000160006101000a81548163ffffffff021916908360e01c021790555060208201518160000160046101000a81548173ffffffffffffffffffffffffffffffffffffffff021916908373ffffffffffffffffffffffffffffffffffffffff16021790555060408201518160010160006101000a81548173ffffffffffffffffffffffffffffffffffffffff021916908373ffffffffffffffffffffffffffffffffffffffff160217905550606082015181600201908051906020019061345a929190615247565b506080820151816003015560a0820151816004019080519060200190613481929190615247565b5060c0820151816005015560e082015181600601556101008201518160070155505050505050505050565b60006134b8858561055c565b146134f8576040517f08c379a00000000000000000000000000000000000000000000000000000000081526004016134ef90616941565b60405180910390fd5b60016040518060c00160405280836040516020016135169190616961565b604051602081830303815290604052805190602001207bffffffffffffffffffffffffffffffffffffffffffffffffffffffff191681526020018673ffffffffffffffffffffffffffffffffffffffff1681526020018573ffffffffffffffffffffffffffffffffffffffff1681526020018481526020018381526020016040518060400160405280600781526020017f57616974696e6700000000000000000000000000000000000000000000000000815250815250908060018154018082558091505060019003906000526020600020906005020160009091909190915060008201518160000160006101000a81548163ffffffff021916908360e01c021790555060208201518160000160046101000a81548173ffffffffffffffffffffffffffffffffffffffff021916908373ffffffffffffffffffffffffffffffffffffffff16021790555060408201518160010160006101000a81548173ffffffffffffffffffffffffffffffffffffffff021916908373ffffffffffffffffffffffffffffffffffffffff16021790555060608201518160020190805190602001906136c4929190615247565b5060808201518160030190805190602001906136e1929190615247565b5060a08201518160040190805190602001906136fe929190615247565b50505050505050565b606080606080606080600060018054905067ffffffffffffffff811115613731576137306153eb565b5b60405190808252806020026020018201604052801561375f5781602001602082028036833780820191505090505b509050600060018054905067ffffffffffffffff811115613783576137826153eb565b5b6040519080825280602002602001820160405280156137b15781602001602082028036833780820191505090505b509050600060018054905067ffffffffffffffff8111156137d5576137d46153eb565b5b6040519080825280602002602001820160405280156138035781602001602082028036833780820191505090505b509050600060018054905067ffffffffffffffff811115613827576138266153eb565b5b60405190808252806020026020018201604052801561385a57816020015b60608152602001906001900390816138455790505b509050600060018054905067ffffffffffffffff81111561387e5761387d6153eb565b5b6040519080825280602002602001820160405280156138b157816020015b606081526020019060019003908161389c5790505b509050600060018054905067ffffffffffffffff8111156138d5576138d46153eb565b5b60405190808252806020026020018201604052801561390857816020015b60608152602001906001900390816138f35790505b50905060005b600180549050811015613dc4578d73ffffffffffffffffffffffffffffffffffffffff1660018281548110613946576139456163e0565b5b906000526020600020906005020160010160009054906101000a900473ffffffffffffffffffffffffffffffffffffffff1673ffffffffffffffffffffffffffffffffffffffff161415613db157600181815481106139a8576139a76163e0565b5b906000526020600020906005020160000160009054906101000a900460e01b8782815181106139da576139d96163e0565b5b60200260200101907bffffffffffffffffffffffffffffffffffffffffffffffffffffffff191690817bffffffffffffffffffffffffffffffffffffffffffffffffffffffff19168152505060018181548110613a3a57613a396163e0565b5b906000526020600020906005020160000160049054906101000a900473ffffffffffffffffffffffffffffffffffffffff16868281518110613a7f57613a7e6163e0565b5b602002602001019073ffffffffffffffffffffffffffffffffffffffff16908173ffffffffffffffffffffffffffffffffffffffff168152505060018181548110613acd57613acc6163e0565b5b906000526020600020906005020160010160009054906101000a900473ffffffffffffffffffffffffffffffffffffffff16858281518110613b1257613b116163e0565b5b602002602001019073ffffffffffffffffffffffffffffffffffffffff16908173ffffffffffffffffffffffffffffffffffffffff168152505060018181548110613b6057613b5f6163e0565b5b90600052602060002090600502016002018054613b7c9061643e565b80601f0160208091040260200160405190810160405280929190818152602001828054613ba89061643e565b8015613bf55780601f10613bca57610100808354040283529160200191613bf5565b820191906000526020600020905b815481529060010190602001808311613bd857829003601f168201915b5050505050848281518110613c0d57613c0c6163e0565b5b602002602001018190525060018181548110613c2c57613c2b6163e0565b5b90600052602060002090600502016003018054613c489061643e565b80601f0160208091040260200160405190810160405280929190818152602001828054613c749061643e565b8015613cc15780601f10613c9657610100808354040283529160200191613cc1565b820191906000526020600020905b815481529060010190602001808311613ca457829003601f168201915b5050505050838281518110613cd957613cd86163e0565b5b602002602001018190525060018181548110613cf857613cf76163e0565b5b90600052602060002090600502016004018054613d149061643e565b80601f0160208091040260200160405190810160405280929190818152602001828054613d409061643e565b8015613d8d5780601f10613d6257610100808354040283529160200191613d8d565b820191906000526020600020905b815481529060010190602001808311613d7057829003601f168201915b5050505050828281518110613da557613da46163e0565b5b60200260200101819052505b8080613dbc90616555565b91505061390e565b508585858585859b509b509b509b509b509b5050505050505091939550919395565b606060006060600080600080600090505b60038054905081101561419c578a73ffffffffffffffffffffffffffffffffffffffff1660038281548110613e2f57613e2e6163e0565b5b906000526020600020906008020160000160049054906101000a900473ffffffffffffffffffffffffffffffffffffffff1673ffffffffffffffffffffffffffffffffffffffff16148015613ef457508973ffffffffffffffffffffffffffffffffffffffff1660038281548110613eaa57613ea96163e0565b5b906000526020600020906008020160010160009054906101000a900473ffffffffffffffffffffffffffffffffffffffff1673ffffffffffffffffffffffffffffffffffffffff16145b8015613f7857508888604051602001613f0e9291906165fb565b6040516020818303038152906040528051906020012060038281548110613f3857613f376163e0565b5b906000526020600020906008020160000160009054906101000a900460e01b7bffffffffffffffffffffffffffffffffffffffffffffffffffffffff1916145b156141895760038181548110613f9157613f906163e0565b5b906000526020600020906008020160020160038281548110613fb657613fb56163e0565b5b90600052602060002090600802016003015460038381548110613fdc57613fdb6163e0565b5b906000526020600020906008020160040160038481548110614001576140006163e0565b5b90600052602060002090600802016005015460038581548110614027576140266163e0565b5b9060005260206000209060080201600601546003868154811061404d5761404c6163e0565b5b90600052602060002090600802016007015485805461406b9061643e565b80601f01602080910402602001604051908101604052809291908181526020018280546140979061643e565b80156140e45780601f106140b9576101008083540402835291602001916140e4565b820191906000526020600020905b8154815290600101906020018083116140c757829003601f168201915b505050505095508380546140f79061643e565b80601f01602080910402602001604051908101604052809291908181526020018280546141239061643e565b80156141705780601f1061414557610100808354040283529160200191614170565b820191906000526020600020905b81548152906001019060200180831161415357829003601f168201915b505050505093509650965096509650965096505061419e565b808061419490616555565b915050613df7565b505b9499939850945094509450565b600281815481106141bb57600080fd5b90600052602060002090600802016000915090508060000160009054906101000a900460e01b908060000160049054906101000a900473ffffffffffffffffffffffffffffffffffffffff16908060010160009054906101000a900473ffffffffffffffffffffffffffffffffffffffff169080600201805461423d9061643e565b80601f01602080910402602001604051908101604052809291908181526020018280546142699061643e565b80156142b65780601f1061428b576101008083540402835291602001916142b6565b820191906000526020600020905b81548152906001019060200180831161429957829003601f168201915b5050505050908060030154908060040180546142d19061643e565b80601f01602080910402602001604051908101604052809291908181526020018280546142fd9061643e565b801561434a5780601f1061431f5761010080835404028352916020019161434a565b820191906000526020600020905b81548152906001019060200180831161432d57829003601f168201915b5050505050908060050154908060060154908060070154905089565b6040518060400160405280600881526020017f416363657074656400000000000000000000000000000000000000000000000081525080519060200120818051906020012014806143f957506040518060400160405280600881526020017f4465636c696e6564000000000000000000000000000000000000000000000000815250805190602001208180519060200120145b614438576040517f08c379a000000000000000000000000000000000000000000000000000000000815260040161442f906169c4565b60405180910390fd5b60005b600180549050811015614606578473ffffffffffffffffffffffffffffffffffffffff1660018281548110614473576144726163e0565b5b906000526020600020906005020160000160049054906101000a900473ffffffffffffffffffffffffffffffffffffffff1673ffffffffffffffffffffffffffffffffffffffff1614801561453857508373ffffffffffffffffffffffffffffffffffffffff16600182815481106144ee576144ed6163e0565b5b906000526020600020906005020160010160009054906101000a900473ffffffffffffffffffffffffffffffffffffffff1673ffffffffffffffffffffffffffffffffffffffff16145b80156145b35750827bffffffffffffffffffffffffffffffffffffffffffffffffffffffff191660018281548110614573576145726163e0565b5b906000526020600020906005020160000160009054906101000a900460e01b7bffffffffffffffffffffffffffffffffffffffffffffffffffffffff1916145b156145f35781600182815481106145cd576145cc6163e0565b5b906000526020600020906005020160040190805190602001906145f1929190615247565b505b80806145fe90616555565b91505061443b565b5050505050565b606080606080606080600060028054905067ffffffffffffffff811115614637576146366153eb565b5b60405190808252806020026020018201604052801561466a57816020015b60608152602001906001900390816146555790505b509050600060028054905067ffffffffffffffff81111561468e5761468d6153eb565b5b6040519080825280602002602001820160405280156146bc5781602001602082028036833780820191505090505b509050600060028054905067ffffffffffffffff8111156146e0576146df6153eb565b5b60405190808252806020026020018201604052801561471357816020015b60608152602001906001900390816146fe5790505b509050600060028054905067ffffffffffffffff811115614737576147366153eb565b5b6040519080825280602002602001820160405280156147655781602001602082028036833780820191505090505b509050600060028054905067ffffffffffffffff811115614789576147886153eb565b5b6040519080825280602002602001820160405280156147b75781602001602082028036833780820191505090505b509050600060028054905067ffffffffffffffff8111156147db576147da6153eb565b5b6040519080825280602002602001820160405280156148095781602001602082028036833780820191505090505b50905060005b600280549050811015614bd1578e73ffffffffffffffffffffffffffffffffffffffff1660028281548110614847576148466163e0565b5b906000526020600020906008020160000160049054906101000a900473ffffffffffffffffffffffffffffffffffffffff1673ffffffffffffffffffffffffffffffffffffffff1614801561490c57508d73ffffffffffffffffffffffffffffffffffffffff16600282815481106148c2576148c16163e0565b5b906000526020600020906008020160010160009054906101000a900473ffffffffffffffffffffffffffffffffffffffff1673ffffffffffffffffffffffffffffffffffffffff16145b15614bbe5760028181548110614925576149246163e0565b5b906000526020600020906008020160020180546149419061643e565b80601f016020809104026020016040519081016040528092919081815260200182805461496d9061643e565b80156149ba5780601f1061498f576101008083540402835291602001916149ba565b820191906000526020600020905b81548152906001019060200180831161499d57829003601f168201915b50505050508782815181106149d2576149d16163e0565b5b6020026020010181905250600281815481106149f1576149f06163e0565b5b906000526020600020906008020160030154868281518110614a1657614a156163e0565b5b60200260200101818152505060028181548110614a3657614a356163e0565b5b90600052602060002090600802016004018054614a529061643e565b80601f0160208091040260200160405190810160405280929190818152602001828054614a7e9061643e565b8015614acb5780601f10614aa057610100808354040283529160200191614acb565b820191906000526020600020905b815481529060010190602001808311614aae57829003601f168201915b5050505050858281518110614ae357614ae26163e0565b5b602002602001018190525060028181548110614b0257614b016163e0565b5b906000526020600020906008020160050154848281518110614b2757614b266163e0565b5b60200260200101818152505060028181548110614b4757614b466163e0565b5b906000526020600020906008020160060154838281518110614b6c57614b6b6163e0565b5b60200260200101818152505060028181548110614b8c57614b8b6163e0565b5b906000526020600020906008020160070154828281518110614bb157614bb06163e0565b5b6020026020010181815250505b8080614bc990616555565b91505061480f565b508585858585859b509b509b509b509b509b505050505050509295509295509295565b60006040518060e001604052808973ffffffffffffffffffffffffffffffffffffffff16815260200188815260200187815260200186815260200185815260200184815260200183815250908060018154018082558091505060019003906000526020600020906007020160009091909190915060008201518160000160006101000a81548173ffffffffffffffffffffffffffffffffffffffff021916908373ffffffffffffffffffffffffffffffffffffffff1602179055506020820151816001019080519060200190614ccb929190615247565b506040820151816002019080519060200190614ce8929190615247565b506060820151816003019080519060200190614d05929190615247565b506080820151816004019080519060200190614d22929190615247565b5060a0820151816005019080519060200190614d3f929190615247565b5060c0820151816006019080519060200190614d5c929190615247565b50505050505050505050565b600080600090505b600380549050811015614e97578473ffffffffffffffffffffffffffffffffffffffff1660028281548110614da857614da76163e0565b5b906000526020600020906008020160010160009054906101000a900473ffffffffffffffffffffffffffffffffffffffff1673ffffffffffffffffffffffffffffffffffffffff16148015614e7557508383604051602001614e0b9291906165fb565b6040516020818303038152906040528051906020012060028281548110614e3557614e346163e0565b5b906000526020600020906008020160000160009054906101000a900460e01b7bffffffffffffffffffffffffffffffffffffffffffffffffffffffff1916145b15614e84576001915050614e99565b8080614e8f90616555565b915050614d70565b505b9392505050565b6001614eab88612362565b14614eeb576040517f08c379a0000000000000000000000000000000000000000000000000000000008152600401614ee29061666f565b60405180910390fd5b6000614ef8878787614d68565b14614f38576040517f08c379a0000000000000000000000000000000000000000000000000000000008152600401614f2f90616a30565b60405180910390fd5b6001841480614f475750600284145b80614f525750600384145b80614f5d5750600484145b614f9c576040517f08c379a0000000000000000000000000000000000000000000000000000000008152600401614f9390616747565b60405180910390fd5b60008210158015614fae575060c88211155b614fed576040517f08c379a0000000000000000000000000000000000000000000000000000000008152600401614fe490616a9c565b60405180910390fd5b60008110158015614fff575060c88111155b61503e576040517f08c379a000000000000000000000000000000000000000000000000000000000815260040161503590616b08565b60405180910390fd5b6003604051806101200160405280878760405160200161505f9291906165fb565b604051602081830303815290604052805190602001207bffffffffffffffffffffffffffffffffffffffffffffffffffffffff191681526020018973ffffffffffffffffffffffffffffffffffffffff1681526020018873ffffffffffffffffffffffffffffffffffffffff16815260200187815260200186815260200185815260200184815260200183815260200183856150fb919061689f565b815250908060018154018082558091505060019003906000526020600020906008020160009091909190915060008201518160000160006101000a81548163ffffffff021916908360e01c021790555060208201518160000160046101000a81548173ffffffffffffffffffffffffffffffffffffffff021916908373ffffffffffffffffffffffffffffffffffffffff16021790555060408201518160010160006101000a81548173ffffffffffffffffffffffffffffffffffffffff021916908373ffffffffffffffffffffffffffffffffffffffff16021790555060608201518160020190805190602001906151f5929190615247565b506080820151816003015560a082015181600401908051906020019061521c929190615247565b5060c0820151816005015560e082015181600601556101008201518160070155505050505050505050565b8280546152539061643e565b90600052602060002090601f01602090048101928261527557600085556152bc565b82601f1061528e57805160ff19168380011785556152bc565b828001600101855582156152bc579182015b828111156152bb5782518255916020019190600101906152a0565b5b5090506152c991906152cd565b5090565b5b808211156152e65760008160009055506001016152ce565b5090565b6000604051905090565b600080fd5b600080fd5b600073ffffffffffffffffffffffffffffffffffffffff82169050919050565b6000615329826152fe565b9050919050565b6153398161531e565b811461534457600080fd5b50565b60008135905061535681615330565b92915050565b60008060408385031215615373576153726152f4565b5b600061538185828601615347565b925050602061539285828601615347565b9150509250929050565b6000819050919050565b6153af8161539c565b82525050565b60006020820190506153ca60008301846153a6565b92915050565b600080fd5b600080fd5b6000601f19601f8301169050919050565b7f4e487b7100000000000000000000000000000000000000000000000000000000600052604160045260246000fd5b615423826153da565b810181811067ffffffffffffffff82111715615442576154416153eb565b5b80604052505050565b60006154556152ea565b9050615461828261541a565b919050565b600067ffffffffffffffff821115615481576154806153eb565b5b61548a826153da565b9050602081019050919050565b82818337600083830152505050565b60006154b96154b484615466565b61544b565b9050828152602081018484840111156154d5576154d46153d5565b5b6154e0848285615497565b509392505050565b600082601f8301126154fd576154fc6153d0565b5b813561550d8482602086016154a6565b91505092915050565b61551f8161539c565b811461552a57600080fd5b50565b60008135905061553c81615516565b92915050565b6000806000806080858703121561555c5761555b6152f4565b5b600061556a87828801615347565b945050602061557b87828801615347565b935050604085013567ffffffffffffffff81111561559c5761559b6152f9565b5b6155a8878288016154e8565b92505060606155b98782880161552d565b91505092959194509250565b600081519050919050565b600082825260208201905092915050565b60005b838110156155ff5780820151818401526020810190506155e4565b8381111561560e576000848401525b50505050565b600061561f826155c5565b61562981856155d0565b93506156398185602086016155e1565b615642816153da565b840191505092915050565b600060c08201905081810360008301526156678189615614565b905061567660208301886153a6565b81810360408301526156888187615614565b905061569760608301866153a6565b6156a460808301856153a6565b6156b160a08301846153a6565b979650505050505050565b600081519050919050565b600082825260208201905092915050565b6000819050602082019050919050565b600082825260208201905092915050565b6000615704826155c5565b61570e81856156e8565b935061571e8185602086016155e1565b615727816153da565b840191505092915050565b600061573e83836156f9565b905092915050565b6000602082019050919050565b600061575e826156bc565b61576881856156c7565b93508360208202850161577a856156d8565b8060005b858110156157b657848403895281516157978582615732565b94506157a283615746565b925060208a0199505060018101905061577e565b50829750879550505050505092915050565b600081519050919050565b600082825260208201905092915050565b6000819050602082019050919050565b6157fd8161539c565b82525050565b600061580f83836157f4565b60208301905092915050565b6000602082019050919050565b6000615833826157c8565b61583d81856157d3565b9350615848836157e4565b8060005b838110156158795781516158608882615803565b975061586b8361581b565b92505060018101905061584c565b5085935050505092915050565b600060c08201905081810360008301526158a08189615753565b905081810360208301526158b48188615828565b905081810360408301526158c88187615753565b905081810360608301526158dc8186615828565b905081810360808301526158f08185615828565b905081810360a08301526159048184615828565b9050979650505050505050565b600060208284031215615927576159266152f4565b5b60006159358482850161552d565b91505092915050565b6159478161531e565b82525050565b600060e082019050615962600083018a61593e565b81810360208301526159748189615614565b905081810360408301526159888188615614565b9050818103606083015261599c8187615614565b905081810360808301526159b08186615614565b905081810360a08301526159c48185615614565b905081810360c08301526159d88184615614565b905098975050505050505050565b600081519050919050565b600082825260208201905092915050565b6000819050602082019050919050565b60007fffffffff0000000000000000000000000000000000000000000000000000000082169050919050565b615a4781615a12565b82525050565b6000615a598383615a3e565b60208301905092915050565b6000602082019050919050565b6000615a7d826159e6565b615a8781856159f1565b9350615a9283615a02565b8060005b83811015615ac3578151615aaa8882615a4d565b9750615ab583615a65565b925050600181019050615a96565b5085935050505092915050565b600081519050919050565b600082825260208201905092915050565b6000819050602082019050919050565b615b058161531e565b82525050565b6000615b178383615afc565b60208301905092915050565b6000602082019050919050565b6000615b3b82615ad0565b615b458185615adb565b9350615b5083615aec565b8060005b83811015615b81578151615b688882615b0b565b9750615b7383615b23565b925050600181019050615b54565b5085935050505092915050565b600060c0820190508181036000830152615ba88189615a72565b90508181036020830152615bbc8188615b30565b90508181036040830152615bd08187615b30565b90508181036060830152615be48186615753565b90508181036080830152615bf88185615753565b905081810360a0830152615c0c8184615753565b9050979650505050505050565b600060208284031215615c2f57615c2e6152f4565b5b6000615c3d84828501615347565b91505092915050565b600060c082019050615c5b600083018961593e565b8181036020830152615c6d8188615614565b90508181036040830152615c818187615614565b90508181036060830152615c958186615614565b90508181036080830152615ca98185615614565b905081810360a0830152615cbd8184615614565b9050979650505050505050565b60008060408385031215615ce157615ce06152f4565b5b6000615cef85828601615347565b925050602083013567ffffffffffffffff811115615d1057615d0f6152f9565b5b615d1c858286016154e8565b9150509250929050565b615d2f81615a12565b82525050565b600060c082019050615d4a6000830189615d26565b615d57602083018861593e565b615d64604083018761593e565b8181036060830152615d768186615614565b90508181036080830152615d8a8185615614565b905081810360a0830152615d9e8184615614565b9050979650505050505050565b600061012082019050615dc1600083018c615d26565b615dce602083018b61593e565b615ddb604083018a61593e565b8181036060830152615ded8189615614565b9050615dfc60808301886153a6565b81810360a0830152615e0e8187615614565b9050615e1d60c08301866153a6565b615e2a60e08301856153a6565b615e386101008301846153a6565b9a9950505050505050505050565b60008060008060008060c08789031215615e6357615e626152f4565b5b6000615e7189828a01615347565b965050602087013567ffffffffffffffff811115615e9257615e916152f9565b5b615e9e89828a016154e8565b955050604087013567ffffffffffffffff811115615ebf57615ebe6152f9565b5b615ecb89828a016154e8565b945050606087013567ffffffffffffffff811115615eec57615eeb6152f9565b5b615ef889828a016154e8565b935050608087013567ffffffffffffffff811115615f1957615f186152f9565b5b615f2589828a016154e8565b92505060a087013567ffffffffffffffff811115615f4657615f456152f9565b5b615f5289828a016154e8565b9150509295509295509295565b600080600060608486031215615f7857615f776152f4565b5b6000615f8686828701615347565b935050602084013567ffffffffffffffff811115615fa757615fa66152f9565b5b615fb3868287016154e8565b9250506040615fc48682870161552d565b9150509250925092565b600060e0820190508181036000830152615fe8818a615b30565b90508181036020830152615ffc8189615753565b905081810360408301526160108188615753565b905081810360608301526160248187615753565b905081810360808301526160388186615753565b905081810360a083015261604c8185615753565b905081810360c08301526160608184615753565b905098975050505050505050565b600080600080600080600060e0888a03121561608d5761608c6152f4565b5b600061609b8a828b01615347565b97505060206160ac8a828b01615347565b965050604088013567ffffffffffffffff8111156160cd576160cc6152f9565b5b6160d98a828b016154e8565b95505060606160ea8a828b0161552d565b945050608088013567ffffffffffffffff81111561610b5761610a6152f9565b5b6161178a828b016154e8565b93505060a06161288a828b0161552d565b92505060c06161398a828b0161552d565b91505092959891949750929550565b60008060008060808587031215616162576161616152f4565b5b600061617087828801615347565b945050602061618187828801615347565b935050604085013567ffffffffffffffff8111156161a2576161a16152f9565b5b6161ae878288016154e8565b925050606085013567ffffffffffffffff8111156161cf576161ce6152f9565b5b6161db878288016154e8565b91505092959194509250565b6161f081615a12565b81146161fb57600080fd5b50565b60008135905061620d816161e7565b92915050565b6000806000806080858703121561622d5761622c6152f4565b5b600061623b87828801615347565b945050602061624c87828801615347565b935050604061625d878288016161fe565b925050606085013567ffffffffffffffff81111561627e5761627d6152f9565b5b61628a878288016154e8565b91505092959194509250565b600080600080600080600060e0888a0312156162b5576162b46152f4565b5b60006162c38a828b01615347565b975050602088013567ffffffffffffffff8111156162e4576162e36152f9565b5b6162f08a828b016154e8565b965050604088013567ffffffffffffffff811115616311576163106152f9565b5b61631d8a828b016154e8565b955050606088013567ffffffffffffffff81111561633e5761633d6152f9565b5b61634a8a828b016154e8565b945050608088013567ffffffffffffffff81111561636b5761636a6152f9565b5b6163778a828b016154e8565b93505060a088013567ffffffffffffffff811115616398576163976152f9565b5b6163a48a828b016154e8565b92505060c088013567ffffffffffffffff8111156163c5576163c46152f9565b5b6163d18a828b016154e8565b91505092959891949750929550565b7f4e487b7100000000000000000000000000000000000000000000000000000000600052603260045260246000fd5b7f4e487b7100000000000000000000000000000000000000000000000000000000600052602260045260246000fd5b6000600282049050600182168061645657607f821691505b6020821081141561646a5761646961640f565b5b50919050565b600081905092915050565b60008190508160005260206000209050919050565b6000815461649d8161643e565b6164a78186616470565b945060018216600081146164c257600181146164d357616506565b60ff19831686528186019350616506565b6164dc8561647b565b60005b838110156164fe578154818901526001820191506020810190506164df565b838801955050505b50505092915050565b600061651b8284616490565b915081905092915050565b7f4e487b7100000000000000000000000000000000000000000000000000000000600052601160045260246000fd5b60006165608261539c565b91507fffffffffffffffffffffffffffffffffffffffffffffffffffffffffffffffff82141561659357616592616526565b5b600182019050919050565b600081905092915050565b60006165b4826155c5565b6165be818561659e565b93506165ce8185602086016155e1565b80840191505092915050565b6000819050919050565b6165f56165f08261539c565b6165da565b82525050565b600061660782856165a9565b915061661382846165e4565b6020820191508190509392505050565b7f4e6f7420666f756e64206f776e65722e00000000000000000000000000000000600082015250565b60006166596010836155d0565b915061666482616623565b602082019050919050565b600060208201905081810360008301526166888161664c565b9050919050565b7f4475706c6963617465204c5220526573756c742e000000000000000000000000600082015250565b60006166c56014836155d0565b91506166d08261668f565b602082019050919050565b600060208201905081810360008301526166f4816166b8565b9050919050565b7f5368696674205465737420696e636f72726563742e0000000000000000000000600082015250565b60006167316015836155d0565b915061673c826166fb565b602082019050919050565b6000602082019050818103600083015261676081616724565b9050919050565b7f4e487b7100000000000000000000000000000000000000000000000000000000600052601260045260246000fd5b60006167a18261539c565b91506167ac8361539c565b9250826167bc576167bb616767565b5b828206905092915050565b7f4c697374656e696e672053636f726520696e636f72726563742e000000000000600082015250565b60006167fd601a836155d0565b9150616808826167c7565b602082019050919050565b6000602082019050818103600083015261682c816167f0565b9050919050565b7f52656164696e672053636f726520696e636f72726563742e0000000000000000600082015250565b60006168696018836155d0565b915061687482616833565b602082019050919050565b600060208201905081810360008301526168988161685c565b9050919050565b60006168aa8261539c565b91506168b58361539c565b9250827fffffffffffffffffffffffffffffffffffffffffffffffffffffffffffffffff038211156168ea576168e9616526565b5b828201905092915050565b7f57616974696e6720666f7220636f6e6669726d6174696f6e2e00000000000000600082015250565b600061692b6019836155d0565b9150616936826168f5565b602082019050919050565b6000602082019050818103600083015261695a8161691e565b9050919050565b600061696d82846165a9565b915081905092915050565b7f537461747573205265717565737420696e636f72726563742e00000000000000600082015250565b60006169ae6019836155d0565b91506169b982616978565b602082019050919050565b600060208201905081810360008301526169dd816169a1565b9050919050565b7f4475706c696361746520535720526573756c742e000000000000000000000000600082015250565b6000616a1a6014836155d0565b9150616a25826169e4565b602082019050919050565b60006020820190508181036000830152616a4981616a0d565b9050919050565b7f537065616b696e672053636f726520696e636f72726563742e00000000000000600082015250565b6000616a866019836155d0565b9150616a9182616a50565b602082019050919050565b60006020820190508181036000830152616ab581616a79565b9050919050565b7f57726974696e672053636f726520696e636f72726563742e0000000000000000600082015250565b6000616af26018836155d0565b9150616afd82616abc565b602082019050919050565b60006020820190508181036000830152616b2181616ae5565b905091905056fea26469706673582212207f8fdfdef090ab00a0a71f78eba01f19286680817157206d326474de5ae4b12564736f6c634300080b0033",
  "immutableReferences": {},
  "source": "// SPDX-License-Identifier: MIT\r\npragma solidity >=0.4.22 <0.9.0;\r\n\r\n// Lu tr danh sch IIG\r\ncontract ListIIG {\r\n\r\n    // Khai bo cu trc lu tr thng tin IIG\r\n    struct IIGInfo {\r\n        address iigOwner;\r\n        string name;\r\n        string country;\r\n        string facebook;\r\n        string website;\r\n        string linkedin;\r\n        string password;\r\n    }\r\n\r\n    // Khai bo cu trc lu tr thng tin yu cu chng ch IIG ca sinh vin\r\n    struct IIGRequest {\r\n        bytes4 codeRequest;\r\n        address studentOwner;\r\n        address iigOwner;\r\n        string identityCard;\r\n        string requestDate;\r\n        string statusRequest;\r\n    }\r\n\r\n    // Khai bo cu trc lu tr thng tin im thi Listening - Reading IIG\r\n    struct IIGLRResult {\r\n        bytes4 codeLRResult;\r\n        address iigOwner;\r\n        address studentOwner;\r\n        string testDate;\r\n        uint shiftTest;\r\n        string expireDate;\r\n        uint listeningScore;\r\n        uint readingScore;\r\n        uint totalScore;\r\n    }\r\n\r\n    // Khai bo cu trc lu tr thng tin im thi Speaking - Writing IIG\r\n    struct IIGSWResult {\r\n        bytes4 codeSWResult;\r\n        address iigOwner;\r\n        address studentOwner;\r\n        string testDate;\r\n        uint shiftTest;\r\n        string expireDate;\r\n        uint speakingScore;\r\n        uint writingScore;\r\n        uint totalScore;\r\n    }\r\n\r\n    // Khai bo mng  lu tr thng tin\r\n    IIGInfo[] public iigInfos;\r\n    IIGRequest[] public iigRequests;\r\n    IIGLRResult[] public iigLRResults;\r\n    IIGSWResult[] public iigSWResults;\r\n\r\n    // Chc nng thm thng tin IGG\r\n    function addIIG (\r\n        address _iigOwner,\r\n        string memory _name,\r\n        string memory _country,\r\n        string memory _facebook,\r\n        string memory _website,\r\n        string memory _linkedin,\r\n        string memory _password) public {\r\n            iigInfos.push(\r\n                IIGInfo(_iigOwner, \r\n                        _name, \r\n                        _country, \r\n                        _facebook,\r\n                        _website, \r\n                        _linkedin, \r\n                        _password)\r\n                );\r\n    }\r\n\r\n    // Chc nng chnh sa thng tin IGG\r\n    function editIIG (\r\n        address _iigOwner,\r\n        string memory _name,\r\n        string memory _country,\r\n        string memory _facebook,\r\n        string memory _website,\r\n        string memory _linkedin) public {\r\n            for(uint i=0; i<iigInfos.length;i++){\r\n                if(iigInfos[i].iigOwner == _iigOwner){\r\n                    iigInfos[i].name = _name;\r\n                    iigInfos[i].country = _country;\r\n                    iigInfos[i].facebook = _facebook;\r\n                    iigInfos[i].website = _website;\r\n                    iigInfos[i].linkedin = _linkedin;\r\n                }\r\n            }\r\n    }\r\n\r\n    // Chc nng ly danh sch IIG  thm\r\n    function getListIIG() public view returns(\r\n        address[] memory, \r\n        string[] memory, \r\n        string[] memory, \r\n        string[] memory, \r\n        string[] memory, \r\n        string[] memory, \r\n        string[] memory) {\r\n            address[] memory iigOwners = new address[](iigInfos.length);\r\n            string[] memory names = new string[](iigInfos.length);\r\n            string[] memory countrys = new string[](iigInfos.length);\r\n            string[] memory facebooks = new string[](iigInfos.length);\r\n            string[] memory websites = new string[](iigInfos.length);\r\n            string[] memory linkedins = new string[](iigInfos.length);\r\n            string[] memory passwords = new string[](iigInfos.length);\r\n            for(uint i=0; i<iigInfos.length;i++){\r\n                iigOwners[i] = iigInfos[i].iigOwner;\r\n                names[i] = iigInfos[i].name;\r\n                countrys[i] = iigInfos[i].country;\r\n                facebooks[i] = iigInfos[i].facebook;\r\n                websites[i] = iigInfos[i].website;\r\n                linkedins[i] = iigInfos[i].linkedin;\r\n                passwords[i] = iigInfos[i].password;\r\n            }\r\n            return (iigOwners, names, countrys, facebooks, websites, linkedins, passwords);\r\n    }\r\n\r\n    // Chc nng ly thng tin ca IIG\r\n    function getProfile(address _iigOwner) public view returns(\r\n        address iigOwner, \r\n        string memory name, \r\n        string memory country, \r\n        string memory facebook, \r\n        string memory website, \r\n        string memory linkedin) {\r\n            for(uint i=0; i<iigInfos.length;i++){\r\n                if(iigInfos[i].iigOwner == _iigOwner){\r\n                    return (iigInfos[i].iigOwner,\r\n                            iigInfos[i].name, \r\n                            iigInfos[i].country, \r\n                            iigInfos[i].facebook, \r\n                            iigInfos[i].website, \r\n                            iigInfos[i].linkedin);\r\n                }\r\n            }\r\n    }\r\n\r\n    // Chc nng kim tra IIG  ng k hay cha?\r\n    function checkIIG(\r\n        address _iigOwner, \r\n        string memory _password) public view returns(uint x) {\r\n            for(uint i=0; i<iigInfos.length; i++){\r\n                if((iigInfos[i].iigOwner == _iigOwner) && (keccak256(bytes(iigInfos[i].password)) == keccak256(bytes(_password)))){\r\n                    return 1;\r\n                }\r\n            }\r\n    }\r\n\r\n    // Chc nng kim tra a ch IIG  tn ti hay cha?\r\n    function checkExistIIG(address _iigOwner) public view returns(uint x) {\r\n        for(uint i=0; i<iigInfos.length; i++){\r\n            if(iigInfos[i].iigOwner == _iigOwner){\r\n                return 1;\r\n            }\r\n        }\r\n    }\r\n\r\n    // Chc nng thm thng tin yu cu chng ch IIG\r\n    function addRequest (\r\n        address _studentOwner,\r\n        address _iigOwner,\r\n        string memory _identityCard,\r\n        string memory _requestDate) public {\r\n            require(checkRequest(_studentOwner, _iigOwner) == 0, \"Waiting for confirmation.\");\r\n            iigRequests.push(\r\n                IIGRequest(bytes4(keccak256(abi.encodePacked(_requestDate))),\r\n                        _studentOwner, \r\n                        _iigOwner,\r\n                        _identityCard,\r\n                        _requestDate,\r\n                        \"Waiting\")\r\n                );\r\n    }\r\n\r\n    // Chc nng ly danh sch yu cu chng ch IIG\r\n    function getListRequest(address _iigOwner) public view returns(\r\n        bytes4[] memory,\r\n        address[] memory, \r\n        address[] memory,\r\n        string[] memory,\r\n        string[] memory,\r\n        string[] memory) {\r\n            bytes4[] memory codeRequests = new bytes4[](iigRequests.length);\r\n            address[] memory studentOwners = new address[](iigRequests.length);\r\n            address[] memory iigOwners = new address[](iigRequests.length);\r\n            string[] memory identityCards = new string[](iigRequests.length);\r\n            string[] memory requestDates = new string[](iigRequests.length);\r\n            string[] memory statusRequests = new string[](iigRequests.length);\r\n            for(uint i=0; i<iigRequests.length;i++){\r\n                if(iigRequests[i].iigOwner == _iigOwner){\r\n                    codeRequests[i] = iigRequests[i].codeRequest;\r\n                    studentOwners[i] = iigRequests[i].studentOwner;\r\n                    iigOwners[i] = iigRequests[i].iigOwner;\r\n                    identityCards[i] = iigRequests[i].identityCard;\r\n                    requestDates[i] = iigRequests[i].requestDate;\r\n                    statusRequests[i] = iigRequests[i].statusRequest;\r\n                }\r\n            }\r\n            return (codeRequests, studentOwners, iigOwners, identityCards, requestDates, statusRequests);\r\n    }\r\n\r\n    // Chc nng ly danh sch yu cu chng ch IIG theo sinh vin\r\n    function getListRequestStudent(address _iigOwner, address _studentOwner) public view returns(\r\n        bytes4[] memory,\r\n        address[] memory, \r\n        address[] memory,\r\n        string[] memory,\r\n        string[] memory,\r\n        string[] memory) {\r\n            bytes4[] memory codeRequests = new bytes4[](iigRequests.length);\r\n            address[] memory studentOwners = new address[](iigRequests.length);\r\n            address[] memory iigOwners = new address[](iigRequests.length);\r\n            string[] memory identityCards = new string[](iigRequests.length);\r\n            string[] memory requestDates = new string[](iigRequests.length);\r\n            string[] memory statusRequests = new string[](iigRequests.length);\r\n            for(uint i=0; i<iigRequests.length;i++){\r\n                if((iigRequests[i].iigOwner == _iigOwner) && (iigRequests[i].studentOwner == _studentOwner)){\r\n                    codeRequests[i] = iigRequests[i].codeRequest;\r\n                    studentOwners[i] = iigRequests[i].studentOwner;\r\n                    iigOwners[i] = iigRequests[i].iigOwner;\r\n                    identityCards[i] = iigRequests[i].identityCard;\r\n                    requestDates[i] = iigRequests[i].requestDate;\r\n                    statusRequests[i] = iigRequests[i].statusRequest;\r\n                }\r\n            }\r\n            return (codeRequests, studentOwners, iigOwners, identityCards, requestDates, statusRequests);\r\n    }\r\n\r\n    //Chc nng kim tra yu cu chng ch IIG\r\n    function checkRequest(\r\n        address _studentOwner, \r\n        address _iigOwner) public view returns(uint x) {\r\n            for(uint i=0; i<iigRequests.length; i++){\r\n                if((iigRequests[i].studentOwner == _studentOwner) && (iigRequests[i].iigOwner == _iigOwner) && (keccak256(bytes(iigRequests[i].statusRequest)) == keccak256(bytes(\"Waiting\")))){\r\n                    return 1;\r\n                }\r\n            }\r\n    }\r\n\r\n    //Chc nng duyt yu cu chng ch IIG\r\n    function confirmRequest(\r\n        address _studentOwner, \r\n        address _iigOwner,\r\n        bytes4 _codeRequest,\r\n        string memory _statusRequest) public {\r\n            require(keccak256(bytes(_statusRequest)) == keccak256(bytes(\"Accepted\")) || keccak256(bytes(_statusRequest)) == keccak256(bytes(\"Declined\")), \"Status Request incorrect.\");\r\n            for(uint i=0; i<iigRequests.length; i++){\r\n                if((iigRequests[i].studentOwner == _studentOwner) && (iigRequests[i].iigOwner == _iigOwner) && (iigRequests[i].codeRequest == _codeRequest)){\r\n                    iigRequests[i].statusRequest = _statusRequest;\r\n                }\r\n            }\r\n    }\r\n\r\n    // Chc nng thm thng tin im thi Listening - Reading (Kim tra c nhp nhiu ln thi ca 1 sinh vin chung 1 ngy khng?)\r\n    function addLRResult (\r\n        address _iigOwner,\r\n        address _studentOwner,\r\n        string memory _testDate,\r\n        uint _shiftTest,\r\n        string memory _expireDate,\r\n        uint _listeningScore,\r\n        uint _readingScore) public {\r\n            require(checkExistIIG(_iigOwner) == 1, \"Not found owner.\");\r\n            require(checkExistLRResult(_studentOwner, _testDate, _shiftTest) == 0, \"Duplicate LR Result.\");\r\n            require(_shiftTest == 1 || _shiftTest == 2 || _shiftTest == 3 || _shiftTest == 4, \"Shift Test incorrect.\");\r\n            require((_listeningScore >=0 && _listeningScore <=495) && (_listeningScore % 5 == 0), \"Listening Score incorrect.\");\r\n            require((_readingScore >=0 && _readingScore <=495) && (_listeningScore % 5 == 0), \"Reading Score incorrect.\");\r\n            iigLRResults.push(\r\n                IIGLRResult(bytes4(keccak256(abi.encodePacked(_testDate, _shiftTest))),\r\n                        _iigOwner, \r\n                        _studentOwner, \r\n                        _testDate,\r\n                        _shiftTest,\r\n                        _expireDate,\r\n                        _listeningScore, \r\n                        _readingScore,\r\n                        (_listeningScore + _readingScore))\r\n                );\r\n    }\r\n\r\n    // Chc nng ly danh sch im thi Listening - Reading  thm\r\n    function getListLRResult(\r\n        address _iigOwner, \r\n        address _studentOwner) public view returns(\r\n            string[] memory,\r\n            uint[] memory,\r\n            string[] memory,\r\n            uint[] memory,\r\n            uint[] memory,\r\n            uint[] memory) {\r\n                string[] memory testDates = new string[](iigLRResults.length);\r\n                uint[] memory shiftTests = new uint[](iigLRResults.length);\r\n                string[] memory expireDates = new string[](iigLRResults.length);\r\n                uint[] memory listeningScores = new uint[](iigLRResults.length);\r\n                uint[] memory readingScores = new uint[](iigLRResults.length);\r\n                uint[] memory totalScores = new uint[](iigLRResults.length);\r\n                for(uint i=0; i<iigLRResults.length;i++){\r\n                    if((iigLRResults[i].iigOwner == _iigOwner) && (iigLRResults[i].studentOwner == _studentOwner)){\r\n                        testDates[i] = iigLRResults[i].testDate;\r\n                        shiftTests[i] = iigLRResults[i].shiftTest;\r\n                        expireDates[i] = iigLRResults[i].expireDate;\r\n                        listeningScores[i] = iigLRResults[i].listeningScore;\r\n                        readingScores[i] = iigLRResults[i].readingScore;\r\n                        totalScores[i] = iigLRResults[i].totalScore;\r\n                    }\r\n                }\r\n                return (testDates, shiftTests, expireDates, listeningScores, readingScores, totalScores);\r\n    }\r\n\r\n    // Chc nng ly im thi Listening - Reading ca sinh vin\r\n    function getLRResult(\r\n        address _iigOwner, \r\n        address _studentOwner,\r\n        string memory _testDate,\r\n        uint _shiftTest) public view returns(\r\n            string memory testDate,\r\n            uint shiftTest,\r\n            string memory expireDate,\r\n            uint listeningScore,\r\n            uint readingScore,\r\n            uint totalScore) {\r\n                for(uint i=0; i<iigLRResults.length;i++){\r\n                    if((iigLRResults[i].iigOwner == _iigOwner) && (iigLRResults[i].studentOwner == _studentOwner) && (iigLRResults[i].codeLRResult == keccak256(bytes(string(abi.encodePacked(_testDate, _shiftTest)))))){\r\n                        return(iigLRResults[i].testDate,\r\n                                iigLRResults[i].shiftTest,\r\n                                iigLRResults[i].expireDate,\r\n                                iigLRResults[i].listeningScore,\r\n                                iigLRResults[i].readingScore,\r\n                                iigLRResults[i].totalScore);\r\n                    }\r\n                }\r\n    }\r\n\r\n    // Chc nng kim tra kt qu ngy thi Listening - Reading ca sinh vin  tn ti hay cha?\r\n    function checkExistLRResult(\r\n        address _studentOwner, \r\n        string memory _testDate,\r\n        uint _shiftTest) public view returns(uint x) {\r\n            for(uint i=0; i<iigLRResults.length; i++){\r\n                if((iigLRResults[i].studentOwner == _studentOwner) && (iigLRResults[i].codeLRResult == keccak256(bytes(string(abi.encodePacked(_testDate, _shiftTest)))))){\r\n                    return 1;\r\n                }\r\n            }\r\n    }\r\n\r\n    // Chc nng thm thng tin im thi Speaking - Writing\r\n    function addSWResult (\r\n        address _iigOwner,\r\n        address _studentOwner,\r\n        string memory _testDate,\r\n        uint _shiftTest,\r\n        string memory _expireDate,\r\n        uint _speakingScore,\r\n        uint _writingScore) public {\r\n            require(checkExistIIG(_iigOwner) == 1, \"Not found owner.\");\r\n            require(checkExistSWResult(_studentOwner, _testDate, _shiftTest) == 0, \"Duplicate SW Result.\");\r\n            require(_shiftTest == 1 || _shiftTest == 2 || _shiftTest == 3 || _shiftTest == 4, \"Shift Test incorrect.\");\r\n            require(_speakingScore >=0 && _speakingScore <=200, \"Speaking Score incorrect.\");\r\n            require(_writingScore >=0 && _writingScore <=200, \"Writing Score incorrect.\");\r\n            iigSWResults.push(\r\n                IIGSWResult(bytes4(keccak256(abi.encodePacked(_testDate, _shiftTest))),\r\n                        _iigOwner, \r\n                        _studentOwner, \r\n                        _testDate,\r\n                        _shiftTest,\r\n                        _expireDate,\r\n                        _speakingScore, \r\n                        _writingScore,\r\n                        (_speakingScore + _writingScore))\r\n                );\r\n    }\r\n\r\n    // Chc nng ly danh sch im thi Speaking - Writing  thm\r\n    function getListSWResult(address _iigOwner, address _studentOwner) public view returns(\r\n        string[] memory,\r\n        uint[] memory,\r\n        string[] memory,\r\n        uint[] memory,\r\n        uint[] memory,\r\n        uint[] memory) {\r\n            string[] memory testDates = new string[](iigSWResults.length);\r\n            uint[] memory shiftTests = new uint[](iigSWResults.length);\r\n            string[] memory expireDates = new string[](iigSWResults.length);\r\n            uint[] memory speakingScores = new uint[](iigSWResults.length);\r\n            uint[] memory writingScores = new uint[](iigSWResults.length);\r\n            uint[] memory totalScores = new uint[](iigSWResults.length);\r\n            for(uint i=0; i<iigSWResults.length;i++){\r\n                if((iigLRResults[i].iigOwner == _iigOwner) && (iigLRResults[i].studentOwner == _studentOwner)){\r\n                    testDates[i] = iigSWResults[i].testDate;\r\n                    shiftTests[i] = iigSWResults[i].shiftTest;\r\n                    expireDates[i] = iigSWResults[i].expireDate;\r\n                    speakingScores[i] = iigSWResults[i].speakingScore;\r\n                    writingScores[i] = iigSWResults[i].writingScore;\r\n                    totalScores[i] = iigSWResults[i].totalScore;\r\n                }\r\n            }\r\n            return (testDates, shiftTests, expireDates, speakingScores, writingScores, totalScores);\r\n    }\r\n\r\n    // Chc nng ly im thi Speaking - Writing ca sinh vin\r\n    function getSWResult(\r\n        address _iigOwner, \r\n        address _studentOwner,\r\n        string memory _testDate,\r\n        uint _shiftTest) public view returns(\r\n            string memory testDate,\r\n            uint shiftTest,\r\n            string memory expireDate,\r\n            uint speakingScore,\r\n            uint writingScore,\r\n            uint totalScore) {\r\n                for(uint i=0; i<iigSWResults.length;i++){\r\n                    if((iigSWResults[i].iigOwner == _iigOwner) && (iigSWResults[i].studentOwner == _studentOwner) && (iigSWResults[i].codeSWResult == keccak256(bytes(string(abi.encodePacked(_testDate, _shiftTest)))))){\r\n                        return(iigSWResults[i].testDate,\r\n                                iigSWResults[i].shiftTest,\r\n                                iigSWResults[i].expireDate,\r\n                                iigSWResults[i].speakingScore,\r\n                                iigSWResults[i].writingScore,\r\n                                iigSWResults[i].totalScore);\r\n                    }\r\n                }\r\n    }\r\n    \r\n    // Chc nng kim tra kt qu ngy thi Speaking - Writing ca sinh vin  tn ti hay cha?\r\n    function checkExistSWResult(\r\n        address _studentOwner,\r\n        string memory _testDate,\r\n        uint _shiftTest) public view returns(uint x) {\r\n            for(uint i=0; i<iigSWResults.length; i++){\r\n                if((iigLRResults[i].studentOwner == _studentOwner) && (iigLRResults[i].codeLRResult == keccak256(bytes(string(abi.encodePacked(_testDate, _shiftTest)))))){\r\n                    return 1;\r\n                }\r\n            }\r\n    }\r\n}",
  "sourcePath": "C:\\Users\\19520\\Documents\\NCKH_Blockchain\\SolidityProgramming\\ProjectResearch\\SmartCV\\SmartContract\\contracts\\SmartCV_ListIIG.sol",
  "compiler": {
    "name": "solc",
    "version": "0.8.11+commit.d7f03943.Emscripten.clang"
  },
  "schemaVersion": "3.4.4",
  "updatedAt": "2022-07-31T07:39:51.564Z",
  "devdoc": {
    "kind": "dev",
    "methods": {},
    "version": 1
  },
  "userdoc": {
    "kind": "user",
    "methods": {},
    "version": 1
  }
}