{
  "contractName": "ListIIG",
  "abi": [
    {
      "inputs": [
        {
          "internalType": "uint256",
          "name": "",
          "type": "uint256"
        }
      ],
      "name": "iigInfos",
      "outputs": [
        {
          "internalType": "address",
          "name": "iigOwner",
          "type": "address"
        },
        {
          "internalType": "string",
          "name": "name",
          "type": "string"
        },
        {
          "internalType": "string",
          "name": "country",
          "type": "string"
        },
        {
          "internalType": "string",
          "name": "facebook",
          "type": "string"
        },
        {
          "internalType": "string",
          "name": "website",
          "type": "string"
        },
        {
          "internalType": "string",
          "name": "linkedin",
          "type": "string"
        },
        {
          "internalType": "string",
          "name": "password",
          "type": "string"
        }
      ],
      "stateMutability": "view",
      "type": "function"
    },
    {
      "inputs": [
        {
          "internalType": "uint256",
          "name": "",
          "type": "uint256"
        }
      ],
      "name": "iigLRResults",
      "outputs": [
        {
          "internalType": "address",
          "name": "iigOwner",
          "type": "address"
        },
        {
          "internalType": "address",
          "name": "studentOwner",
          "type": "address"
        },
        {
          "internalType": "string",
          "name": "testDate",
          "type": "string"
        },
        {
          "internalType": "uint256",
          "name": "listeningScore",
          "type": "uint256"
        },
        {
          "internalType": "uint256",
          "name": "readingScore",
          "type": "uint256"
        },
        {
          "internalType": "uint256",
          "name": "totalScore",
          "type": "uint256"
        }
      ],
      "stateMutability": "view",
      "type": "function"
    },
    {
      "inputs": [
        {
          "internalType": "uint256",
          "name": "",
          "type": "uint256"
        }
      ],
      "name": "iigSWResults",
      "outputs": [
        {
          "internalType": "address",
          "name": "iigOwner",
          "type": "address"
        },
        {
          "internalType": "address",
          "name": "studentOwner",
          "type": "address"
        },
        {
          "internalType": "string",
          "name": "testDate",
          "type": "string"
        },
        {
          "internalType": "uint256",
          "name": "speakingScore",
          "type": "uint256"
        },
        {
          "internalType": "uint256",
          "name": "writingScore",
          "type": "uint256"
        },
        {
          "internalType": "uint256",
          "name": "totalScore",
          "type": "uint256"
        }
      ],
      "stateMutability": "view",
      "type": "function"
    },
    {
      "inputs": [
        {
          "internalType": "address",
          "name": "_iigOwner",
          "type": "address"
        },
        {
          "internalType": "string",
          "name": "_name",
          "type": "string"
        },
        {
          "internalType": "string",
          "name": "_country",
          "type": "string"
        },
        {
          "internalType": "string",
          "name": "_facebook",
          "type": "string"
        },
        {
          "internalType": "string",
          "name": "_website",
          "type": "string"
        },
        {
          "internalType": "string",
          "name": "_linkedin",
          "type": "string"
        },
        {
          "internalType": "string",
          "name": "_password",
          "type": "string"
        }
      ],
      "name": "addIIG",
      "outputs": [],
      "stateMutability": "nonpayable",
      "type": "function"
    },
    {
      "inputs": [],
      "name": "getListIIG",
      "outputs": [
        {
          "internalType": "address[]",
          "name": "",
          "type": "address[]"
        },
        {
          "internalType": "string[]",
          "name": "",
          "type": "string[]"
        },
        {
          "internalType": "string[]",
          "name": "",
          "type": "string[]"
        },
        {
          "internalType": "string[]",
          "name": "",
          "type": "string[]"
        },
        {
          "internalType": "string[]",
          "name": "",
          "type": "string[]"
        },
        {
          "internalType": "string[]",
          "name": "",
          "type": "string[]"
        },
        {
          "internalType": "string[]",
          "name": "",
          "type": "string[]"
        }
      ],
      "stateMutability": "view",
      "type": "function"
    },
    {
      "inputs": [
        {
          "internalType": "address",
          "name": "_iigOwner",
          "type": "address"
        }
      ],
      "name": "getProfile",
      "outputs": [
        {
          "internalType": "address",
          "name": "iigOwner",
          "type": "address"
        },
        {
          "internalType": "string",
          "name": "name",
          "type": "string"
        },
        {
          "internalType": "string",
          "name": "country",
          "type": "string"
        },
        {
          "internalType": "string",
          "name": "facebook",
          "type": "string"
        },
        {
          "internalType": "string",
          "name": "website",
          "type": "string"
        },
        {
          "internalType": "string",
          "name": "linkedin",
          "type": "string"
        }
      ],
      "stateMutability": "view",
      "type": "function"
    },
    {
      "inputs": [
        {
          "internalType": "address",
          "name": "_iigOwner",
          "type": "address"
        },
        {
          "internalType": "string",
          "name": "_password",
          "type": "string"
        }
      ],
      "name": "checkIIG",
      "outputs": [
        {
          "internalType": "uint256",
          "name": "x",
          "type": "uint256"
        }
      ],
      "stateMutability": "view",
      "type": "function"
    },
    {
      "inputs": [
        {
          "internalType": "address",
          "name": "_iigOwner",
          "type": "address"
        }
      ],
      "name": "checkExistIIG",
      "outputs": [
        {
          "internalType": "uint256",
          "name": "x",
          "type": "uint256"
        }
      ],
      "stateMutability": "view",
      "type": "function"
    },
    {
      "inputs": [
        {
          "internalType": "address",
          "name": "_iigOwner",
          "type": "address"
        },
        {
          "internalType": "address",
          "name": "_studentOwner",
          "type": "address"
        },
        {
          "internalType": "string",
          "name": "_testDate",
          "type": "string"
        },
        {
          "internalType": "uint256",
          "name": "_listeningScore",
          "type": "uint256"
        },
        {
          "internalType": "uint256",
          "name": "_readingScore",
          "type": "uint256"
        }
      ],
      "name": "addLRResult",
      "outputs": [],
      "stateMutability": "nonpayable",
      "type": "function"
    },
    {
      "inputs": [
        {
          "internalType": "address",
          "name": "_iigOwner",
          "type": "address"
        }
      ],
      "name": "getListLRResult",
      "outputs": [
        {
          "internalType": "address[]",
          "name": "",
          "type": "address[]"
        },
        {
          "internalType": "address[]",
          "name": "",
          "type": "address[]"
        },
        {
          "internalType": "string[]",
          "name": "",
          "type": "string[]"
        },
        {
          "internalType": "uint256[]",
          "name": "",
          "type": "uint256[]"
        },
        {
          "internalType": "uint256[]",
          "name": "",
          "type": "uint256[]"
        },
        {
          "internalType": "uint256[]",
          "name": "",
          "type": "uint256[]"
        }
      ],
      "stateMutability": "view",
      "type": "function"
    },
    {
      "inputs": [
        {
          "internalType": "address",
          "name": "_studentOwner",
          "type": "address"
        }
      ],
      "name": "getRCResult",
      "outputs": [
        {
          "internalType": "address",
          "name": "studentOwners",
          "type": "address"
        },
        {
          "internalType": "uint256",
          "name": "maxScore",
          "type": "uint256"
        }
      ],
      "stateMutability": "view",
      "type": "function"
    },
    {
      "inputs": [
        {
          "internalType": "address",
          "name": "_iigOwner",
          "type": "address"
        },
        {
          "internalType": "address",
          "name": "_studentOwner",
          "type": "address"
        },
        {
          "internalType": "string",
          "name": "_testDate",
          "type": "string"
        },
        {
          "internalType": "uint256",
          "name": "_speakingScore",
          "type": "uint256"
        },
        {
          "internalType": "uint256",
          "name": "_writingScore",
          "type": "uint256"
        }
      ],
      "name": "addSWResult",
      "outputs": [],
      "stateMutability": "nonpayable",
      "type": "function"
    },
    {
      "inputs": [
        {
          "internalType": "address",
          "name": "_iigOwner",
          "type": "address"
        }
      ],
      "name": "getListSWResult",
      "outputs": [
        {
          "internalType": "address[]",
          "name": "",
          "type": "address[]"
        },
        {
          "internalType": "address[]",
          "name": "",
          "type": "address[]"
        },
        {
          "internalType": "string[]",
          "name": "",
          "type": "string[]"
        },
        {
          "internalType": "uint256[]",
          "name": "",
          "type": "uint256[]"
        },
        {
          "internalType": "uint256[]",
          "name": "",
          "type": "uint256[]"
        },
        {
          "internalType": "uint256[]",
          "name": "",
          "type": "uint256[]"
        }
      ],
      "stateMutability": "view",
      "type": "function"
    },
    {
      "inputs": [
        {
          "internalType": "address",
          "name": "_studentOwner",
          "type": "address"
        }
      ],
      "name": "getSWResult",
      "outputs": [
        {
          "internalType": "address",
          "name": "studentOwners",
          "type": "address"
        },
        {
          "internalType": "uint256",
          "name": "maxScore",
          "type": "uint256"
        }
      ],
      "stateMutability": "view",
      "type": "function"
    }
  ],
  "bytecode": "0x608060405234801561001057600080fd5b506137a8806100206000396000f3fe608060405234801561001057600080fd5b50600436106100ea5760003560e01c8063776f11101161008c5780639e8aee6e116100665780639e8aee6e146102ca578063a9846eb0146102fb578063d767573e14610330578063dd8f3edc1461034c576100ea565b8063776f11101461024057806384ae9131146102715780638f8724a914610295576100ea565b806324e66037116100c857806324e660371461017657806344fd6e22146101a657806349f47a55146101d6578063508580eb1461020b576100ea565b806309bef62a146100ef5780630f53a470146101255780631ababd291461015a575b600080fd5b61010960048036038101906101049190612b01565b610368565b60405161011c9796959493929190612c08565b60405180910390f35b61013f600480360381019061013a9190612ccd565b61070a565b60405161015196959493929190612cfa565b60405180910390f35b610174600480360381019061016f9190612eb3565b610b88565b005b610190600480360381019061018b9190612f4a565b610ce9565b60405161019d9190612fb5565b60405180910390f35b6101c060048036038101906101bb9190612ccd565b610de7565b6040516101cd9190612fb5565b60405180910390f35b6101f060048036038101906101eb9190612b01565b610e99565b60405161020296959493929190612fd0565b60405180910390f35b61022560048036038101906102209190612ccd565b610fad565b604051610237969594939291906132c0565b60405180910390f35b61025a60048036038101906102559190612ccd565b611527565b60405161026892919061334b565b60405180910390f35b6102796116ea565b60405161028c9796959493929190613374565b60405180910390f35b6102af60048036038101906102aa9190612ccd565b611eee565b6040516102c1969594939291906132c0565b60405180910390f35b6102e460048036038101906102df9190612ccd565b612468565b6040516102f292919061334b565b60405180910390f35b61031560048036038101906103109190612b01565b61262b565b60405161032796959493929190612fd0565b60405180910390f35b61034a60048036038101906103459190612eb3565b61273f565b005b61036660048036038101906103619190613414565b6128a0565b005b6000818154811061037857600080fd5b90600052602060002090600702016000915090508060000160009054906101000a900473ffffffffffffffffffffffffffffffffffffffff16908060010180546103c19061358d565b80601f01602080910402602001604051908101604052809291908181526020018280546103ed9061358d565b801561043a5780601f1061040f5761010080835404028352916020019161043a565b820191906000526020600020905b81548152906001019060200180831161041d57829003601f168201915b50505050509080600201805461044f9061358d565b80601f016020809104026020016040519081016040528092919081815260200182805461047b9061358d565b80156104c85780601f1061049d576101008083540402835291602001916104c8565b820191906000526020600020905b8154815290600101906020018083116104ab57829003601f168201915b5050505050908060030180546104dd9061358d565b80601f01602080910402602001604051908101604052809291908181526020018280546105099061358d565b80156105565780601f1061052b57610100808354040283529160200191610556565b820191906000526020600020905b81548152906001019060200180831161053957829003601f168201915b50505050509080600401805461056b9061358d565b80601f01602080910402602001604051908101604052809291908181526020018280546105979061358d565b80156105e45780601f106105b9576101008083540402835291602001916105e4565b820191906000526020600020905b8154815290600101906020018083116105c757829003601f168201915b5050505050908060050180546105f99061358d565b80601f01602080910402602001604051908101604052809291908181526020018280546106259061358d565b80156106725780601f1061064757610100808354040283529160200191610672565b820191906000526020600020905b81548152906001019060200180831161065557829003601f168201915b5050505050908060060180546106879061358d565b80601f01602080910402602001604051908101604052809291908181526020018280546106b39061358d565b80156107005780601f106106d557610100808354040283529160200191610700565b820191906000526020600020905b8154815290600101906020018083116106e357829003601f168201915b5050505050905087565b6000606080606080606060005b600080549050811015610b7d578773ffffffffffffffffffffffffffffffffffffffff166000828154811061074f5761074e6135bf565b5b906000526020600020906007020160000160009054906101000a900473ffffffffffffffffffffffffffffffffffffffff1673ffffffffffffffffffffffffffffffffffffffff161415610b6a57600081815481106107b1576107b06135bf565b5b906000526020600020906007020160000160009054906101000a900473ffffffffffffffffffffffffffffffffffffffff16600082815481106107f7576107f66135bf565b5b90600052602060002090600702016001016000838154811061081c5761081b6135bf565b5b906000526020600020906007020160020160008481548110610841576108406135bf565b5b906000526020600020906007020160030160008581548110610866576108656135bf565b5b90600052602060002090600702016004016000868154811061088b5761088a6135bf565b5b90600052602060002090600702016005018480546108a89061358d565b80601f01602080910402602001604051908101604052809291908181526020018280546108d49061358d565b80156109215780601f106108f657610100808354040283529160200191610921565b820191906000526020600020905b81548152906001019060200180831161090457829003601f168201915b505050505094508380546109349061358d565b80601f01602080910402602001604051908101604052809291908181526020018280546109609061358d565b80156109ad5780601f10610982576101008083540402835291602001916109ad565b820191906000526020600020905b81548152906001019060200180831161099057829003601f168201915b505050505093508280546109c09061358d565b80601f01602080910402602001604051908101604052809291908181526020018280546109ec9061358d565b8015610a395780601f10610a0e57610100808354040283529160200191610a39565b820191906000526020600020905b815481529060010190602001808311610a1c57829003601f168201915b50505050509250818054610a4c9061358d565b80601f0160208091040260200160405190810160405280929190818152602001828054610a789061358d565b8015610ac55780601f10610a9a57610100808354040283529160200191610ac5565b820191906000526020600020905b815481529060010190602001808311610aa857829003601f168201915b50505050509150808054610ad89061358d565b80601f0160208091040260200160405190810160405280929190818152602001828054610b049061358d565b8015610b515780601f10610b2657610100808354040283529160200191610b51565b820191906000526020600020905b815481529060010190602001808311610b3457829003601f168201915b5050505050905096509650965096509650965050610b7f565b8080610b759061361d565b915050610717565b505b91939550919395565b60026040518060c001604052808773ffffffffffffffffffffffffffffffffffffffff1681526020018673ffffffffffffffffffffffffffffffffffffffff1681526020018581526020018481526020018381526020018385610beb9190613666565b815250908060018154018082558091505060019003906000526020600020906006020160009091909190915060008201518160000160006101000a81548173ffffffffffffffffffffffffffffffffffffffff021916908373ffffffffffffffffffffffffffffffffffffffff16021790555060208201518160010160006101000a81548173ffffffffffffffffffffffffffffffffffffffff021916908373ffffffffffffffffffffffffffffffffffffffff1602179055506040820151816002019080519060200190610cc1929190612a14565b50606082015181600301556080820151816004015560a0820151816005015550505050505050565b600080600090505b600080549050811015610ddf578373ffffffffffffffffffffffffffffffffffffffff1660008281548110610d2957610d286135bf565b5b906000526020600020906007020160000160009054906101000a900473ffffffffffffffffffffffffffffffffffffffff1673ffffffffffffffffffffffffffffffffffffffff16148015610dbd5750828051906020012060008281548110610d9557610d946135bf565b5b9060005260206000209060070201600601604051610db3919061375b565b6040518091039020145b15610dcc576001915050610de1565b8080610dd79061361d565b915050610cf1565b505b92915050565b600080600090505b600080549050811015610e92578273ffffffffffffffffffffffffffffffffffffffff1660008281548110610e2757610e266135bf565b5b906000526020600020906007020160000160009054906101000a900473ffffffffffffffffffffffffffffffffffffffff1673ffffffffffffffffffffffffffffffffffffffff161415610e7f576001915050610e94565b8080610e8a9061361d565b915050610def565b505b919050565b60028181548110610ea957600080fd5b90600052602060002090600602016000915090508060000160009054906101000a900473ffffffffffffffffffffffffffffffffffffffff16908060010160009054906101000a900473ffffffffffffffffffffffffffffffffffffffff1690806002018054610f189061358d565b80601f0160208091040260200160405190810160405280929190818152602001828054610f449061358d565b8015610f915780601f10610f6657610100808354040283529160200191610f91565b820191906000526020600020905b815481529060010190602001808311610f7457829003601f168201915b5050505050908060030154908060040154908060050154905086565b606080606080606080600060018054905067ffffffffffffffff811115610fd757610fd6612d88565b5b6040519080825280602002602001820160405280156110055781602001602082028036833780820191505090505b509050600060018054905067ffffffffffffffff81111561102957611028612d88565b5b6040519080825280602002602001820160405280156110575781602001602082028036833780820191505090505b509050600060018054905067ffffffffffffffff81111561107b5761107a612d88565b5b6040519080825280602002602001820160405280156110ae57816020015b60608152602001906001900390816110995790505b509050600060018054905067ffffffffffffffff8111156110d2576110d1612d88565b5b6040519080825280602002602001820160405280156111005781602001602082028036833780820191505090505b509050600060018054905067ffffffffffffffff81111561112457611123612d88565b5b6040519080825280602002602001820160405280156111525781602001602082028036833780820191505090505b509050600060018054905067ffffffffffffffff81111561117657611175612d88565b5b6040519080825280602002602001820160405280156111a45781602001602082028036833780820191505090505b50905060005b600180549050811015611505578d73ffffffffffffffffffffffffffffffffffffffff16600182815481106111e2576111e16135bf565b5b906000526020600020906006020160000160009054906101000a900473ffffffffffffffffffffffffffffffffffffffff1673ffffffffffffffffffffffffffffffffffffffff1614156114f25760018181548110611244576112436135bf565b5b906000526020600020906006020160000160009054906101000a900473ffffffffffffffffffffffffffffffffffffffff16878281518110611289576112886135bf565b5b602002602001019073ffffffffffffffffffffffffffffffffffffffff16908173ffffffffffffffffffffffffffffffffffffffff1681525050600181815481106112d7576112d66135bf565b5b906000526020600020906006020160010160009054906101000a900473ffffffffffffffffffffffffffffffffffffffff1686828151811061131c5761131b6135bf565b5b602002602001019073ffffffffffffffffffffffffffffffffffffffff16908173ffffffffffffffffffffffffffffffffffffffff16815250506001818154811061136a576113696135bf565b5b906000526020600020906006020160020180546113869061358d565b80601f01602080910402602001604051908101604052809291908181526020018280546113b29061358d565b80156113ff5780601f106113d4576101008083540402835291602001916113ff565b820191906000526020600020905b8154815290600101906020018083116113e257829003601f168201915b5050505050858281518110611417576114166135bf565b5b602002602001018190525060018181548110611436576114356135bf565b5b90600052602060002090600602016003015484828151811061145b5761145a6135bf565b5b6020026020010181815250506001818154811061147b5761147a6135bf565b5b9060005260206000209060060201600401548382815181106114a05761149f6135bf565b5b602002602001018181525050600181815481106114c0576114bf6135bf565b5b9060005260206000209060060201600501548282815181106114e5576114e46135bf565b5b6020026020010181815250505b80806114fd9061361d565b9150506111aa565b508585858585859b509b509b509b509b509b5050505050505091939550919395565b600080600060018054905067ffffffffffffffff81111561154b5761154a612d88565b5b6040519080825280602002602001820160405280156115795781602001602082028036833780820191505090505b50905060005b60018054905081101561165e578473ffffffffffffffffffffffffffffffffffffffff16600182815481106115b7576115b66135bf565b5b906000526020600020906006020160010160009054906101000a900473ffffffffffffffffffffffffffffffffffffffff1673ffffffffffffffffffffffffffffffffffffffff16141561164b5760018181548110611619576116186135bf565b5b90600052602060002090600602016005015482828151811061163e5761163d6135bf565b5b6020026020010181815250505b80806116569061361d565b91505061157f565b5080600081518110611673576116726135bf565b5b602002602001015191506000600190505b81518110156116e0578181815181106116a05761169f6135bf565b5b60200260200101518310156116cd578181815181106116c2576116c16135bf565b5b602002602001015192505b80806116d89061361d565b915050611684565b5083925050915091565b60608060608060608060606000808054905067ffffffffffffffff81111561171557611714612d88565b5b6040519080825280602002602001820160405280156117435781602001602082028036833780820191505090505b5090506000808054905067ffffffffffffffff81111561176657611765612d88565b5b60405190808252806020026020018201604052801561179957816020015b60608152602001906001900390816117845790505b5090506000808054905067ffffffffffffffff8111156117bc576117bb612d88565b5b6040519080825280602002602001820160405280156117ef57816020015b60608152602001906001900390816117da5790505b5090506000808054905067ffffffffffffffff81111561181257611811612d88565b5b60405190808252806020026020018201604052801561184557816020015b60608152602001906001900390816118305790505b5090506000808054905067ffffffffffffffff81111561186857611867612d88565b5b60405190808252806020026020018201604052801561189b57816020015b60608152602001906001900390816118865790505b5090506000808054905067ffffffffffffffff8111156118be576118bd612d88565b5b6040519080825280602002602001820160405280156118f157816020015b60608152602001906001900390816118dc5790505b5090506000808054905067ffffffffffffffff81111561191457611913612d88565b5b60405190808252806020026020018201604052801561194757816020015b60608152602001906001900390816119325790505b50905060005b600080549050811015611ec8576000818154811061196e5761196d6135bf565b5b906000526020600020906007020160000160009054906101000a900473ffffffffffffffffffffffffffffffffffffffff168882815181106119b3576119b26135bf565b5b602002602001019073ffffffffffffffffffffffffffffffffffffffff16908173ffffffffffffffffffffffffffffffffffffffff168152505060008181548110611a0157611a006135bf565b5b90600052602060002090600702016001018054611a1d9061358d565b80601f0160208091040260200160405190810160405280929190818152602001828054611a499061358d565b8015611a965780601f10611a6b57610100808354040283529160200191611a96565b820191906000526020600020905b815481529060010190602001808311611a7957829003601f168201915b5050505050878281518110611aae57611aad6135bf565b5b602002602001018190525060008181548110611acd57611acc6135bf565b5b90600052602060002090600702016002018054611ae99061358d565b80601f0160208091040260200160405190810160405280929190818152602001828054611b159061358d565b8015611b625780601f10611b3757610100808354040283529160200191611b62565b820191906000526020600020905b815481529060010190602001808311611b4557829003601f168201915b5050505050868281518110611b7a57611b796135bf565b5b602002602001018190525060008181548110611b9957611b986135bf565b5b90600052602060002090600702016003018054611bb59061358d565b80601f0160208091040260200160405190810160405280929190818152602001828054611be19061358d565b8015611c2e5780601f10611c0357610100808354040283529160200191611c2e565b820191906000526020600020905b815481529060010190602001808311611c1157829003601f168201915b5050505050858281518110611c4657611c456135bf565b5b602002602001018190525060008181548110611c6557611c646135bf565b5b90600052602060002090600702016004018054611c819061358d565b80601f0160208091040260200160405190810160405280929190818152602001828054611cad9061358d565b8015611cfa5780601f10611ccf57610100808354040283529160200191611cfa565b820191906000526020600020905b815481529060010190602001808311611cdd57829003601f168201915b5050505050848281518110611d1257611d116135bf565b5b602002602001018190525060008181548110611d3157611d306135bf565b5b90600052602060002090600702016005018054611d4d9061358d565b80601f0160208091040260200160405190810160405280929190818152602001828054611d799061358d565b8015611dc65780601f10611d9b57610100808354040283529160200191611dc6565b820191906000526020600020905b815481529060010190602001808311611da957829003601f168201915b5050505050838281518110611dde57611ddd6135bf565b5b602002602001018190525060008181548110611dfd57611dfc6135bf565b5b90600052602060002090600702016006018054611e199061358d565b80601f0160208091040260200160405190810160405280929190818152602001828054611e459061358d565b8015611e925780601f10611e6757610100808354040283529160200191611e92565b820191906000526020600020905b815481529060010190602001808311611e7557829003601f168201915b5050505050828281518110611eaa57611ea96135bf565b5b60200260200101819052508080611ec09061361d565b91505061194d565b50868686868686869d509d509d509d509d509d509d505050505050505090919293949596565b606080606080606080600060028054905067ffffffffffffffff811115611f1857611f17612d88565b5b604051908082528060200260200182016040528015611f465781602001602082028036833780820191505090505b509050600060028054905067ffffffffffffffff811115611f6a57611f69612d88565b5b604051908082528060200260200182016040528015611f985781602001602082028036833780820191505090505b509050600060028054905067ffffffffffffffff811115611fbc57611fbb612d88565b5b604051908082528060200260200182016040528015611fef57816020015b6060815260200190600190039081611fda5790505b509050600060028054905067ffffffffffffffff81111561201357612012612d88565b5b6040519080825280602002602001820160405280156120415781602001602082028036833780820191505090505b509050600060028054905067ffffffffffffffff81111561206557612064612d88565b5b6040519080825280602002602001820160405280156120935781602001602082028036833780820191505090505b509050600060028054905067ffffffffffffffff8111156120b7576120b6612d88565b5b6040519080825280602002602001820160405280156120e55781602001602082028036833780820191505090505b50905060005b600280549050811015612446578d73ffffffffffffffffffffffffffffffffffffffff1660028281548110612123576121226135bf565b5b906000526020600020906006020160000160009054906101000a900473ffffffffffffffffffffffffffffffffffffffff1673ffffffffffffffffffffffffffffffffffffffff1614156124335760028181548110612185576121846135bf565b5b906000526020600020906006020160000160009054906101000a900473ffffffffffffffffffffffffffffffffffffffff168782815181106121ca576121c96135bf565b5b602002602001019073ffffffffffffffffffffffffffffffffffffffff16908173ffffffffffffffffffffffffffffffffffffffff168152505060028181548110612218576122176135bf565b5b906000526020600020906006020160010160009054906101000a900473ffffffffffffffffffffffffffffffffffffffff1686828151811061225d5761225c6135bf565b5b602002602001019073ffffffffffffffffffffffffffffffffffffffff16908173ffffffffffffffffffffffffffffffffffffffff1681525050600281815481106122ab576122aa6135bf565b5b906000526020600020906006020160020180546122c79061358d565b80601f01602080910402602001604051908101604052809291908181526020018280546122f39061358d565b80156123405780601f1061231557610100808354040283529160200191612340565b820191906000526020600020905b81548152906001019060200180831161232357829003601f168201915b5050505050858281518110612358576123576135bf565b5b602002602001018190525060028181548110612377576123766135bf565b5b90600052602060002090600602016003015484828151811061239c5761239b6135bf565b5b602002602001018181525050600281815481106123bc576123bb6135bf565b5b9060005260206000209060060201600401548382815181106123e1576123e06135bf565b5b60200260200101818152505060028181548110612401576124006135bf565b5b906000526020600020906006020160050154828281518110612426576124256135bf565b5b6020026020010181815250505b808061243e9061361d565b9150506120eb565b508585858585859b509b509b509b509b509b5050505050505091939550919395565b600080600060028054905067ffffffffffffffff81111561248c5761248b612d88565b5b6040519080825280602002602001820160405280156124ba5781602001602082028036833780820191505090505b50905060005b60028054905081101561259f578473ffffffffffffffffffffffffffffffffffffffff16600282815481106124f8576124f76135bf565b5b906000526020600020906006020160010160009054906101000a900473ffffffffffffffffffffffffffffffffffffffff1673ffffffffffffffffffffffffffffffffffffffff16141561258c576002818154811061255a576125596135bf565b5b90600052602060002090600602016005015482828151811061257f5761257e6135bf565b5b6020026020010181815250505b80806125979061361d565b9150506124c0565b50806000815181106125b4576125b36135bf565b5b602002602001015191506000600190505b8151811015612621578181815181106125e1576125e06135bf565b5b602002602001015183101561260e57818181518110612603576126026135bf565b5b602002602001015192505b80806126199061361d565b9150506125c5565b5083925050915091565b6001818154811061263b57600080fd5b90600052602060002090600602016000915090508060000160009054906101000a900473ffffffffffffffffffffffffffffffffffffffff16908060010160009054906101000a900473ffffffffffffffffffffffffffffffffffffffff16908060020180546126aa9061358d565b80601f01602080910402602001604051908101604052809291908181526020018280546126d69061358d565b80156127235780601f106126f857610100808354040283529160200191612723565b820191906000526020600020905b81548152906001019060200180831161270657829003601f168201915b5050505050908060030154908060040154908060050154905086565b60016040518060c001604052808773ffffffffffffffffffffffffffffffffffffffff1681526020018673ffffffffffffffffffffffffffffffffffffffff16815260200185815260200184815260200183815260200183856127a29190613666565b815250908060018154018082558091505060019003906000526020600020906006020160009091909190915060008201518160000160006101000a81548173ffffffffffffffffffffffffffffffffffffffff021916908373ffffffffffffffffffffffffffffffffffffffff16021790555060208201518160010160006101000a81548173ffffffffffffffffffffffffffffffffffffffff021916908373ffffffffffffffffffffffffffffffffffffffff1602179055506040820151816002019080519060200190612878929190612a14565b50606082015181600301556080820151816004015560a0820151816005015550505050505050565b60006040518060e001604052808973ffffffffffffffffffffffffffffffffffffffff16815260200188815260200187815260200186815260200185815260200184815260200183815250908060018154018082558091505060019003906000526020600020906007020160009091909190915060008201518160000160006101000a81548173ffffffffffffffffffffffffffffffffffffffff021916908373ffffffffffffffffffffffffffffffffffffffff1602179055506020820151816001019080519060200190612977929190612a14565b506040820151816002019080519060200190612994929190612a14565b5060608201518160030190805190602001906129b1929190612a14565b5060808201518160040190805190602001906129ce929190612a14565b5060a08201518160050190805190602001906129eb929190612a14565b5060c0820151816006019080519060200190612a08929190612a14565b50505050505050505050565b828054612a209061358d565b90600052602060002090601f016020900481019282612a425760008555612a89565b82601f10612a5b57805160ff1916838001178555612a89565b82800160010185558215612a89579182015b82811115612a88578251825591602001919060010190612a6d565b5b509050612a969190612a9a565b5090565b5b80821115612ab3576000816000905550600101612a9b565b5090565b6000604051905090565b600080fd5b600080fd5b6000819050919050565b612ade81612acb565b8114612ae957600080fd5b50565b600081359050612afb81612ad5565b92915050565b600060208284031215612b1757612b16612ac1565b5b6000612b2584828501612aec565b91505092915050565b600073ffffffffffffffffffffffffffffffffffffffff82169050919050565b6000612b5982612b2e565b9050919050565b612b6981612b4e565b82525050565b600081519050919050565b600082825260208201905092915050565b60005b83811015612ba9578082015181840152602081019050612b8e565b83811115612bb8576000848401525b50505050565b6000601f19601f8301169050919050565b6000612bda82612b6f565b612be48185612b7a565b9350612bf4818560208601612b8b565b612bfd81612bbe565b840191505092915050565b600060e082019050612c1d600083018a612b60565b8181036020830152612c2f8189612bcf565b90508181036040830152612c438188612bcf565b90508181036060830152612c578187612bcf565b90508181036080830152612c6b8186612bcf565b905081810360a0830152612c7f8185612bcf565b905081810360c0830152612c938184612bcf565b905098975050505050505050565b612caa81612b4e565b8114612cb557600080fd5b50565b600081359050612cc781612ca1565b92915050565b600060208284031215612ce357612ce2612ac1565b5b6000612cf184828501612cb8565b91505092915050565b600060c082019050612d0f6000830189612b60565b8181036020830152612d218188612bcf565b90508181036040830152612d358187612bcf565b90508181036060830152612d498186612bcf565b90508181036080830152612d5d8185612bcf565b905081810360a0830152612d718184612bcf565b9050979650505050505050565b600080fd5b600080fd5b7f4e487b7100000000000000000000000000000000000000000000000000000000600052604160045260246000fd5b612dc082612bbe565b810181811067ffffffffffffffff82111715612ddf57612dde612d88565b5b80604052505050565b6000612df2612ab7565b9050612dfe8282612db7565b919050565b600067ffffffffffffffff821115612e1e57612e1d612d88565b5b612e2782612bbe565b9050602081019050919050565b82818337600083830152505050565b6000612e56612e5184612e03565b612de8565b905082815260208101848484011115612e7257612e71612d83565b5b612e7d848285612e34565b509392505050565b600082601f830112612e9a57612e99612d7e565b5b8135612eaa848260208601612e43565b91505092915050565b600080600080600060a08688031215612ecf57612ece612ac1565b5b6000612edd88828901612cb8565b9550506020612eee88828901612cb8565b945050604086013567ffffffffffffffff811115612f0f57612f0e612ac6565b5b612f1b88828901612e85565b9350506060612f2c88828901612aec565b9250506080612f3d88828901612aec565b9150509295509295909350565b60008060408385031215612f6157612f60612ac1565b5b6000612f6f85828601612cb8565b925050602083013567ffffffffffffffff811115612f9057612f8f612ac6565b5b612f9c85828601612e85565b9150509250929050565b612faf81612acb565b82525050565b6000602082019050612fca6000830184612fa6565b92915050565b600060c082019050612fe56000830189612b60565b612ff26020830188612b60565b81810360408301526130048187612bcf565b90506130136060830186612fa6565b6130206080830185612fa6565b61302d60a0830184612fa6565b979650505050505050565b600081519050919050565b600082825260208201905092915050565b6000819050602082019050919050565b61306d81612b4e565b82525050565b600061307f8383613064565b60208301905092915050565b6000602082019050919050565b60006130a382613038565b6130ad8185613043565b93506130b883613054565b8060005b838110156130e95781516130d08882613073565b97506130db8361308b565b9250506001810190506130bc565b5085935050505092915050565b600081519050919050565b600082825260208201905092915050565b6000819050602082019050919050565b600082825260208201905092915050565b600061313e82612b6f565b6131488185613122565b9350613158818560208601612b8b565b61316181612bbe565b840191505092915050565b60006131788383613133565b905092915050565b6000602082019050919050565b6000613198826130f6565b6131a28185613101565b9350836020820285016131b485613112565b8060005b858110156131f057848403895281516131d1858261316c565b94506131dc83613180565b925060208a019950506001810190506131b8565b50829750879550505050505092915050565b600081519050919050565b600082825260208201905092915050565b6000819050602082019050919050565b61323781612acb565b82525050565b6000613249838361322e565b60208301905092915050565b6000602082019050919050565b600061326d82613202565b613277818561320d565b93506132828361321e565b8060005b838110156132b357815161329a888261323d565b97506132a583613255565b925050600181019050613286565b5085935050505092915050565b600060c08201905081810360008301526132da8189613098565b905081810360208301526132ee8188613098565b90508181036040830152613302818761318d565b905081810360608301526133168186613262565b9050818103608083015261332a8185613262565b905081810360a083015261333e8184613262565b9050979650505050505050565b60006040820190506133606000830185612b60565b61336d6020830184612fa6565b9392505050565b600060e082019050818103600083015261338e818a613098565b905081810360208301526133a2818961318d565b905081810360408301526133b6818861318d565b905081810360608301526133ca818761318d565b905081810360808301526133de818661318d565b905081810360a08301526133f2818561318d565b905081810360c0830152613406818461318d565b905098975050505050505050565b600080600080600080600060e0888a03121561343357613432612ac1565b5b60006134418a828b01612cb8565b975050602088013567ffffffffffffffff81111561346257613461612ac6565b5b61346e8a828b01612e85565b965050604088013567ffffffffffffffff81111561348f5761348e612ac6565b5b61349b8a828b01612e85565b955050606088013567ffffffffffffffff8111156134bc576134bb612ac6565b5b6134c88a828b01612e85565b945050608088013567ffffffffffffffff8111156134e9576134e8612ac6565b5b6134f58a828b01612e85565b93505060a088013567ffffffffffffffff81111561351657613515612ac6565b5b6135228a828b01612e85565b92505060c088013567ffffffffffffffff81111561354357613542612ac6565b5b61354f8a828b01612e85565b91505092959891949750929550565b7f4e487b7100000000000000000000000000000000000000000000000000000000600052602260045260246000fd5b600060028204905060018216806135a557607f821691505b602082108114156135b9576135b861355e565b5b50919050565b7f4e487b7100000000000000000000000000000000000000000000000000000000600052603260045260246000fd5b7f4e487b7100000000000000000000000000000000000000000000000000000000600052601160045260246000fd5b600061362882612acb565b91507fffffffffffffffffffffffffffffffffffffffffffffffffffffffffffffffff82141561365b5761365a6135ee565b5b600182019050919050565b600061367182612acb565b915061367c83612acb565b9250827fffffffffffffffffffffffffffffffffffffffffffffffffffffffffffffffff038211156136b1576136b06135ee565b5b828201905092915050565b600081905092915050565b60008190508160005260206000209050919050565b600081546136e98161358d565b6136f381866136bc565b9450600182166000811461370e576001811461371f57613752565b60ff19831686528186019350613752565b613728856136c7565b60005b8381101561374a5781548189015260018201915060208101905061372b565b838801955050505b50505092915050565b600061376782846136dc565b91508190509291505056fea264697066735822122009cd2881ea94de790e80a494014be1f510a69061add3e1626ea3143088ef535464736f6c634300080b0033",
  "immutableReferences": {},
  "source": "// SPDX-License-Identifier: MIT\r\npragma solidity >=0.4.22 <0.9.0;\r\n\r\n// Lu tr danh sch IIG\r\ncontract ListIIG {\r\n\r\n    // Khai bo cu trc lu tr thng tin IIG\r\n    struct IIGInfo {\r\n        address iigOwner;\r\n        string name;\r\n        string country;\r\n        string facebook;\r\n        string website;\r\n        string linkedin;\r\n        string password;\r\n    }\r\n\r\n    // Khai bo cu trc lu tr thng tin im thi Listening - Reading IIG\r\n    struct IIGLRResult {\r\n        address iigOwner;\r\n        address studentOwner;\r\n        string testDate;\r\n        uint listeningScore;\r\n        uint readingScore;\r\n        uint totalScore;\r\n    }\r\n\r\n    // Khai bo cu trc lu tr thng tin im thi Speaking - Writing IIG\r\n    struct IIGSWResult {\r\n        address iigOwner;\r\n        address studentOwner;\r\n        string testDate;\r\n        uint speakingScore;\r\n        uint writingScore;\r\n        uint totalScore;\r\n    }\r\n\r\n\r\n    // Khai bo mng  lu tr thng tin\r\n    IIGInfo[] public iigInfos;\r\n    IIGLRResult[] public iigLRResults;\r\n    IIGSWResult[] public iigSWResults;\r\n\r\n    // Chc nng thm thng tin IGG\r\n    function addIIG (\r\n        address _iigOwner,\r\n        string memory _name,\r\n        string memory _country,\r\n        string memory _facebook,\r\n        string memory _website,\r\n        string memory _linkedin,\r\n        string memory _password) public {\r\n            iigInfos.push(\r\n                IIGInfo(_iigOwner, \r\n                        _name, \r\n                        _country, \r\n                        _facebook, \r\n                        _website, \r\n                        _linkedin, \r\n                        _password)\r\n                );\r\n    }\r\n\r\n    // Chc nng ly danh sch IIG  thm\r\n    function getListIIG() public view returns(\r\n        address[] memory, \r\n        string[] memory, \r\n        string[] memory, \r\n        string[] memory, \r\n        string[] memory, \r\n        string[] memory, \r\n        string[] memory) {\r\n            address[] memory iigOwners = new address[](iigInfos.length);\r\n            string[] memory names = new string[](iigInfos.length);\r\n            string[] memory countrys = new string[](iigInfos.length);\r\n            string[] memory facebooks = new string[](iigInfos.length);\r\n            string[] memory websites = new string[](iigInfos.length);\r\n            string[] memory linkedins = new string[](iigInfos.length);\r\n            string[] memory passwords = new string[](iigInfos.length);\r\n            for(uint i=0; i<iigInfos.length;i++){\r\n                iigOwners[i] = iigInfos[i].iigOwner;\r\n                names[i] = iigInfos[i].name;\r\n                countrys[i] = iigInfos[i].country;\r\n                facebooks[i] = iigInfos[i].facebook;\r\n                websites[i] = iigInfos[i].website;\r\n                linkedins[i] = iigInfos[i].linkedin;\r\n                passwords[i] = iigInfos[i].password;\r\n            }\r\n            return (iigOwners, names, countrys, facebooks, websites, linkedins, passwords);\r\n    }\r\n\r\n    // Chc nng ly thng tin ca IIG\r\n    function getProfile(address _iigOwner) public view returns(\r\n        address iigOwner, \r\n        string memory name, \r\n        string memory country, \r\n        string memory facebook, \r\n        string memory website, \r\n        string memory linkedin) {\r\n            for(uint i=0; i<iigInfos.length;i++){\r\n                if(iigInfos[i].iigOwner == _iigOwner){\r\n                    return (iigInfos[i].iigOwner,\r\n                            iigInfos[i].name, \r\n                            iigInfos[i].country, \r\n                            iigInfos[i].facebook, \r\n                            iigInfos[i].website, \r\n                            iigInfos[i].linkedin);\r\n                }\r\n            }\r\n    }\r\n\r\n    // Chc nng kim tra IIG  ng k hay cha?\r\n    function checkIIG(\r\n        address _iigOwner, \r\n        string memory _password) public view returns(uint x) {\r\n            for(uint i=0; i<iigInfos.length; i++){\r\n                if((iigInfos[i].iigOwner == _iigOwner) && (keccak256(bytes(iigInfos[i].password)) == keccak256(bytes(_password)))){\r\n                    return 1;\r\n                }\r\n            }\r\n    }\r\n\r\n    // Chc nng kim tra a ch IIG  tn ti hay cha?\r\n    function checkExistIIG(address _iigOwner) public view returns(uint x) {\r\n            for(uint i=0; i<iigInfos.length; i++){\r\n                if(iigInfos[i].iigOwner == _iigOwner){\r\n                    return 1;\r\n                }\r\n            }\r\n    }\r\n\r\n    // Chc nng thm thng tin im thi Listening - Reading\r\n    function addLRResult (\r\n        address _iigOwner,\r\n        address _studentOwner,\r\n        string memory _testDate,\r\n        uint _listeningScore,\r\n        uint _readingScore) public {\r\n            iigLRResults.push(\r\n                IIGLRResult(_iigOwner, \r\n                        _studentOwner, \r\n                        _testDate, \r\n                        _listeningScore, \r\n                        _readingScore,\r\n                        (_listeningScore + _readingScore))\r\n                );\r\n    }\r\n\r\n    // Chc nng ly danh sch im thi Listening - Reading  thm\r\n    function getListLRResult(address _iigOwner) public view returns(\r\n        address[] memory,\r\n        address[] memory,\r\n        string[] memory,\r\n        uint[] memory,\r\n        uint[] memory,\r\n        uint[] memory) {\r\n            address[] memory iigOwners = new address[](iigLRResults.length);\r\n            address[] memory studentOwners = new address[](iigLRResults.length);\r\n            string[] memory testDates = new string[](iigLRResults.length);\r\n            uint[] memory listeningScores = new uint[](iigLRResults.length);\r\n            uint[] memory readingScores = new uint[](iigLRResults.length);\r\n            uint[] memory totalScores = new uint[](iigLRResults.length);\r\n            for(uint i=0; i<iigLRResults.length;i++){\r\n                if(iigLRResults[i].iigOwner == _iigOwner){\r\n                    iigOwners[i] = iigLRResults[i].iigOwner;\r\n                    studentOwners[i] = iigLRResults[i].studentOwner;\r\n                    testDates[i] = iigLRResults[i].testDate;\r\n                    listeningScores[i] = iigLRResults[i].listeningScore;\r\n                    readingScores[i] = iigLRResults[i].readingScore;\r\n                    totalScores[i] = iigLRResults[i].totalScore;\r\n                }\r\n            }\r\n            return (iigOwners, studentOwners, testDates, listeningScores, readingScores, totalScores);\r\n    }\r\n\r\n    // Chc nng ly thng tin im thi Listening - Reading\r\n    function getRCResult(address _studentOwner) public view returns(\r\n        address studentOwners,\r\n        uint maxScore) {\r\n            uint[] memory totalScores = new uint[](iigLRResults.length);\r\n            for(uint i=0; i<iigLRResults.length;i++){\r\n                if(iigLRResults[i].studentOwner == _studentOwner){\r\n                    totalScores[i] = iigLRResults[i].totalScore;\r\n                }\r\n            }\r\n            maxScore = totalScores[0];\r\n            for(uint i=1; i<totalScores.length;i++){\r\n                if(maxScore < totalScores[i]){\r\n                    maxScore = totalScores[i];\r\n                }\r\n            }\r\n            return (_studentOwner, maxScore);\r\n    }\r\n\r\n    // Chc nng thm thng tin im thi Speaking - Writing\r\n    function addSWResult (\r\n        address _iigOwner,\r\n        address _studentOwner,\r\n        string memory _testDate,\r\n        uint _speakingScore,\r\n        uint _writingScore) public {\r\n            iigSWResults.push(\r\n                IIGSWResult(_iigOwner, \r\n                        _studentOwner, \r\n                        _testDate, \r\n                        _speakingScore, \r\n                        _writingScore,\r\n                        (_speakingScore + _writingScore))\r\n                );\r\n    }\r\n\r\n    // Chc nng ly danh sch im thi Speaking - Writing  thm\r\n    function getListSWResult(address _iigOwner) public view returns(\r\n        address[] memory,\r\n        address[] memory,\r\n        string[] memory,\r\n        uint[] memory,\r\n        uint[] memory,\r\n        uint[] memory) {\r\n            address[] memory iigOwners = new address[](iigSWResults.length);\r\n            address[] memory studentOwners = new address[](iigSWResults.length);\r\n            string[] memory testDates = new string[](iigSWResults.length);\r\n            uint[] memory speakingScores = new uint[](iigSWResults.length);\r\n            uint[] memory writingScores = new uint[](iigSWResults.length);\r\n            uint[] memory totalScores = new uint[](iigSWResults.length);\r\n            for(uint i=0; i<iigSWResults.length;i++){\r\n                if(iigSWResults[i].iigOwner == _iigOwner){\r\n                    iigOwners[i] = iigSWResults[i].iigOwner;\r\n                    studentOwners[i] = iigSWResults[i].studentOwner;\r\n                    testDates[i] = iigSWResults[i].testDate;\r\n                    speakingScores[i] = iigSWResults[i].speakingScore;\r\n                    writingScores[i] = iigSWResults[i].writingScore;\r\n                    totalScores[i] = iigSWResults[i].totalScore;\r\n                }\r\n            }\r\n            return (iigOwners, studentOwners, testDates, speakingScores, writingScores, totalScores);\r\n    }\r\n\r\n    // Chc nng ly thng tin im thi Speaking - Writing\r\n    function getSWResult(address _studentOwner) public view returns(\r\n        address studentOwners,\r\n        uint maxScore) {\r\n            uint[] memory totalScores = new uint[](iigSWResults.length);\r\n            for(uint i=0; i<iigSWResults.length;i++){\r\n                if(iigSWResults[i].studentOwner == _studentOwner){\r\n                    totalScores[i] = iigSWResults[i].totalScore;\r\n                }\r\n            }\r\n            maxScore = totalScores[0];\r\n            for(uint i=1; i<totalScores.length;i++){\r\n                if(maxScore < totalScores[i]){\r\n                    maxScore = totalScores[i];\r\n                }\r\n            }\r\n            return (_studentOwner, maxScore);\r\n    }\r\n    \r\n}",
  "sourcePath": "C:\\Users\\19520\\Documents\\NCKH_Blockchain\\SolidityProgramming\\ProjectResearch\\SmartCV\\SmartContract\\contracts\\SmartCV_ListIIG.sol",
  "compiler": {
    "name": "solc",
    "version": "0.8.11+commit.d7f03943.Emscripten.clang"
  },
  "schemaVersion": "3.4.4",
  "updatedAt": "2022-07-18T04:46:41.310Z",
  "devdoc": {
    "kind": "dev",
    "methods": {},
    "version": 1
  },
  "userdoc": {
    "kind": "user",
    "methods": {},
    "version": 1
  }
}