{
  "contractName": "ListIIG",
  "abi": [
    {
      "inputs": [
        {
          "internalType": "uint256",
          "name": "",
          "type": "uint256"
        }
      ],
      "name": "iigInfos",
      "outputs": [
        {
          "internalType": "address",
          "name": "iigOwner",
          "type": "address"
        },
        {
          "internalType": "string",
          "name": "name",
          "type": "string"
        },
        {
          "internalType": "string",
          "name": "country",
          "type": "string"
        },
        {
          "internalType": "string",
          "name": "facebook",
          "type": "string"
        },
        {
          "internalType": "string",
          "name": "website",
          "type": "string"
        },
        {
          "internalType": "string",
          "name": "linkedin",
          "type": "string"
        },
        {
          "internalType": "string",
          "name": "password",
          "type": "string"
        }
      ],
      "stateMutability": "view",
      "type": "function"
    },
    {
      "inputs": [
        {
          "internalType": "uint256",
          "name": "",
          "type": "uint256"
        }
      ],
      "name": "iigLRResults",
      "outputs": [
        {
          "internalType": "address",
          "name": "iigOwner",
          "type": "address"
        },
        {
          "internalType": "address",
          "name": "studentOwner",
          "type": "address"
        },
        {
          "internalType": "string",
          "name": "testDate",
          "type": "string"
        },
        {
          "internalType": "string",
          "name": "shiftTest",
          "type": "string"
        },
        {
          "internalType": "string",
          "name": "expireDate",
          "type": "string"
        },
        {
          "internalType": "uint256",
          "name": "listeningScore",
          "type": "uint256"
        },
        {
          "internalType": "uint256",
          "name": "readingScore",
          "type": "uint256"
        },
        {
          "internalType": "uint256",
          "name": "totalScore",
          "type": "uint256"
        }
      ],
      "stateMutability": "view",
      "type": "function"
    },
    {
      "inputs": [
        {
          "internalType": "uint256",
          "name": "",
          "type": "uint256"
        }
      ],
      "name": "iigRequests",
      "outputs": [
        {
          "internalType": "address",
          "name": "studentOwner",
          "type": "address"
        },
        {
          "internalType": "address",
          "name": "iigOwner",
          "type": "address"
        },
        {
          "internalType": "string",
          "name": "statusRequest",
          "type": "string"
        }
      ],
      "stateMutability": "view",
      "type": "function"
    },
    {
      "inputs": [
        {
          "internalType": "uint256",
          "name": "",
          "type": "uint256"
        }
      ],
      "name": "iigSWResults",
      "outputs": [
        {
          "internalType": "address",
          "name": "iigOwner",
          "type": "address"
        },
        {
          "internalType": "address",
          "name": "studentOwner",
          "type": "address"
        },
        {
          "internalType": "string",
          "name": "testDate",
          "type": "string"
        },
        {
          "internalType": "string",
          "name": "shiftTest",
          "type": "string"
        },
        {
          "internalType": "string",
          "name": "expireDate",
          "type": "string"
        },
        {
          "internalType": "uint256",
          "name": "speakingScore",
          "type": "uint256"
        },
        {
          "internalType": "uint256",
          "name": "writingScore",
          "type": "uint256"
        },
        {
          "internalType": "uint256",
          "name": "totalScore",
          "type": "uint256"
        }
      ],
      "stateMutability": "view",
      "type": "function"
    },
    {
      "inputs": [
        {
          "internalType": "address",
          "name": "_iigOwner",
          "type": "address"
        },
        {
          "internalType": "string",
          "name": "_name",
          "type": "string"
        },
        {
          "internalType": "string",
          "name": "_country",
          "type": "string"
        },
        {
          "internalType": "string",
          "name": "_facebook",
          "type": "string"
        },
        {
          "internalType": "string",
          "name": "_website",
          "type": "string"
        },
        {
          "internalType": "string",
          "name": "_linkedin",
          "type": "string"
        },
        {
          "internalType": "string",
          "name": "_password",
          "type": "string"
        }
      ],
      "name": "addIIG",
      "outputs": [],
      "stateMutability": "nonpayable",
      "type": "function"
    },
    {
      "inputs": [],
      "name": "getListIIG",
      "outputs": [
        {
          "internalType": "address[]",
          "name": "",
          "type": "address[]"
        },
        {
          "internalType": "string[]",
          "name": "",
          "type": "string[]"
        },
        {
          "internalType": "string[]",
          "name": "",
          "type": "string[]"
        },
        {
          "internalType": "string[]",
          "name": "",
          "type": "string[]"
        },
        {
          "internalType": "string[]",
          "name": "",
          "type": "string[]"
        },
        {
          "internalType": "string[]",
          "name": "",
          "type": "string[]"
        },
        {
          "internalType": "string[]",
          "name": "",
          "type": "string[]"
        }
      ],
      "stateMutability": "view",
      "type": "function"
    },
    {
      "inputs": [
        {
          "internalType": "address",
          "name": "_iigOwner",
          "type": "address"
        }
      ],
      "name": "getProfile",
      "outputs": [
        {
          "internalType": "address",
          "name": "iigOwner",
          "type": "address"
        },
        {
          "internalType": "string",
          "name": "name",
          "type": "string"
        },
        {
          "internalType": "string",
          "name": "country",
          "type": "string"
        },
        {
          "internalType": "string",
          "name": "facebook",
          "type": "string"
        },
        {
          "internalType": "string",
          "name": "website",
          "type": "string"
        },
        {
          "internalType": "string",
          "name": "linkedin",
          "type": "string"
        }
      ],
      "stateMutability": "view",
      "type": "function"
    },
    {
      "inputs": [
        {
          "internalType": "address",
          "name": "_iigOwner",
          "type": "address"
        },
        {
          "internalType": "string",
          "name": "_password",
          "type": "string"
        }
      ],
      "name": "checkIIG",
      "outputs": [
        {
          "internalType": "uint256",
          "name": "x",
          "type": "uint256"
        }
      ],
      "stateMutability": "view",
      "type": "function"
    },
    {
      "inputs": [
        {
          "internalType": "address",
          "name": "_iigOwner",
          "type": "address"
        }
      ],
      "name": "checkExistIIG",
      "outputs": [
        {
          "internalType": "uint256",
          "name": "x",
          "type": "uint256"
        }
      ],
      "stateMutability": "view",
      "type": "function"
    },
    {
      "inputs": [
        {
          "internalType": "address",
          "name": "_studentOwner",
          "type": "address"
        },
        {
          "internalType": "address",
          "name": "_iigOwner",
          "type": "address"
        }
      ],
      "name": "addRequest",
      "outputs": [],
      "stateMutability": "nonpayable",
      "type": "function"
    },
    {
      "inputs": [
        {
          "internalType": "address",
          "name": "_iigOwner",
          "type": "address"
        }
      ],
      "name": "getListRequest",
      "outputs": [
        {
          "internalType": "address[]",
          "name": "",
          "type": "address[]"
        },
        {
          "internalType": "address[]",
          "name": "",
          "type": "address[]"
        },
        {
          "internalType": "string[]",
          "name": "",
          "type": "string[]"
        }
      ],
      "stateMutability": "view",
      "type": "function"
    },
    {
      "inputs": [
        {
          "internalType": "address",
          "name": "_studentOwner",
          "type": "address"
        },
        {
          "internalType": "address",
          "name": "_iigOwner",
          "type": "address"
        },
        {
          "internalType": "string",
          "name": "_statusRequest",
          "type": "string"
        }
      ],
      "name": "confirmRequest",
      "outputs": [],
      "stateMutability": "nonpayable",
      "type": "function"
    },
    {
      "inputs": [
        {
          "internalType": "address",
          "name": "_iigOwner",
          "type": "address"
        },
        {
          "internalType": "address",
          "name": "_studentOwner",
          "type": "address"
        },
        {
          "internalType": "string",
          "name": "_testDate",
          "type": "string"
        },
        {
          "internalType": "string",
          "name": "_shiftTest",
          "type": "string"
        },
        {
          "internalType": "string",
          "name": "_expireDate",
          "type": "string"
        },
        {
          "internalType": "uint256",
          "name": "_listeningScore",
          "type": "uint256"
        },
        {
          "internalType": "uint256",
          "name": "_readingScore",
          "type": "uint256"
        }
      ],
      "name": "addLRResult",
      "outputs": [],
      "stateMutability": "nonpayable",
      "type": "function"
    },
    {
      "inputs": [
        {
          "internalType": "address",
          "name": "_iigOwner",
          "type": "address"
        },
        {
          "internalType": "address",
          "name": "_studentOwner",
          "type": "address"
        }
      ],
      "name": "getListLRResult",
      "outputs": [
        {
          "internalType": "string[]",
          "name": "",
          "type": "string[]"
        },
        {
          "internalType": "string[]",
          "name": "",
          "type": "string[]"
        },
        {
          "internalType": "string[]",
          "name": "",
          "type": "string[]"
        },
        {
          "internalType": "uint256[]",
          "name": "",
          "type": "uint256[]"
        },
        {
          "internalType": "uint256[]",
          "name": "",
          "type": "uint256[]"
        },
        {
          "internalType": "uint256[]",
          "name": "",
          "type": "uint256[]"
        }
      ],
      "stateMutability": "view",
      "type": "function"
    },
    {
      "inputs": [
        {
          "internalType": "address",
          "name": "_studentOwner",
          "type": "address"
        },
        {
          "internalType": "string",
          "name": "_testDate",
          "type": "string"
        },
        {
          "internalType": "string",
          "name": "_shiftTest",
          "type": "string"
        }
      ],
      "name": "checkExistLRResult",
      "outputs": [
        {
          "internalType": "uint256",
          "name": "x",
          "type": "uint256"
        }
      ],
      "stateMutability": "view",
      "type": "function"
    },
    {
      "inputs": [
        {
          "internalType": "address",
          "name": "_iigOwner",
          "type": "address"
        },
        {
          "internalType": "address",
          "name": "_studentOwner",
          "type": "address"
        },
        {
          "internalType": "string",
          "name": "_testDate",
          "type": "string"
        },
        {
          "internalType": "string",
          "name": "_shiftTest",
          "type": "string"
        },
        {
          "internalType": "string",
          "name": "_expireDate",
          "type": "string"
        },
        {
          "internalType": "uint256",
          "name": "_speakingScore",
          "type": "uint256"
        },
        {
          "internalType": "uint256",
          "name": "_writingScore",
          "type": "uint256"
        }
      ],
      "name": "addSWResult",
      "outputs": [],
      "stateMutability": "nonpayable",
      "type": "function"
    },
    {
      "inputs": [
        {
          "internalType": "address",
          "name": "_iigOwner",
          "type": "address"
        },
        {
          "internalType": "address",
          "name": "_studentOwner",
          "type": "address"
        }
      ],
      "name": "getListSWResult",
      "outputs": [
        {
          "internalType": "string[]",
          "name": "",
          "type": "string[]"
        },
        {
          "internalType": "string[]",
          "name": "",
          "type": "string[]"
        },
        {
          "internalType": "string[]",
          "name": "",
          "type": "string[]"
        },
        {
          "internalType": "uint256[]",
          "name": "",
          "type": "uint256[]"
        },
        {
          "internalType": "uint256[]",
          "name": "",
          "type": "uint256[]"
        },
        {
          "internalType": "uint256[]",
          "name": "",
          "type": "uint256[]"
        }
      ],
      "stateMutability": "view",
      "type": "function"
    },
    {
      "inputs": [
        {
          "internalType": "address",
          "name": "_studentOwner",
          "type": "address"
        },
        {
          "internalType": "string",
          "name": "_testDate",
          "type": "string"
        },
        {
          "internalType": "string",
          "name": "_shiftTest",
          "type": "string"
        }
      ],
      "name": "checkExistSWResult",
      "outputs": [
        {
          "internalType": "uint256",
          "name": "x",
          "type": "uint256"
        }
      ],
      "stateMutability": "view",
      "type": "function"
    }
  ],
  "bytecode": "0x608060405234801561001057600080fd5b506148ac806100206000396000f3fe608060405234801561001057600080fd5b50600436106101155760003560e01c80637829b41e116100a25780639fa7247a116100715780639fa7247a1461035b578063a9846eb01461038d578063bc72af7d146103c4578063d23a4ee1146103f9578063dd8f3edc1461041557610115565b80637829b41e146102cf57806381d8b62c146102ff57806384ae91311461031b578063895af4f11461033f57610115565b80630f53a470116100e95780630f53a470146101d157806324e6603714610206578063323cc7c51461023657806344fd6e221461026857806349f47a551461029857610115565b8062220cf71461011a5780630265275c1461013657806306ed1e891461016657806309bef62a1461019b575b600080fd5b610134600480360381019061012f91906139d4565b610431565b005b610150600480360381019061014b9190613aca565b61067f565b60405161015d9190613b64565b60405180910390f35b610180600480360381019061017b9190613b7f565b6107c9565b60405161019296959493929190613dc7565b60405180910390f35b6101b560048036038101906101b09190613e52565b610e3c565b6040516101c89796959493929190613ed8565b60405180910390f35b6101eb60048036038101906101e69190613f71565b6111de565b6040516101fd96959493929190613f9e565b60405180910390f35b610220600480360381019061021b9190614022565b61165c565b60405161022d9190613b64565b60405180910390f35b610250600480360381019061024b9190613e52565b61175a565b60405161025f9392919061407e565b60405180910390f35b610282600480360381019061027d9190613f71565b61185c565b60405161028f9190613b64565b60405180910390f35b6102b260048036038101906102ad9190613e52565b61190e565b6040516102c69897969594939291906140bc565b60405180910390f35b6102e960048036038101906102e49190613aca565b611b3e565b6040516102f69190613b64565b60405180910390f35b6103196004803603810190610314919061414f565b611c88565b005b610323611de1565b604051610336979695949392919061427c565b60405180910390f35b61035960048036038101906103549190613b7f565b6125e5565b005b61037560048036038101906103709190613f71565b61273d565b6040516103849392919061431c565b60405180910390f35b6103a760048036038101906103a29190613e52565b612ae0565b6040516103bb9897969594939291906140bc565b60405180910390f35b6103de60048036038101906103d99190613b7f565b612d10565b6040516103f096959493929190613dc7565b60405180910390f35b610413600480360381019061040e91906139d4565b613383565b005b61042f600480360381019061042a9190614368565b6135cf565b005b6000821015801561044457506101ef8211155b610483576040517f08c379a000000000000000000000000000000000000000000000000000000000815260040161047a906144fe565b60405180910390fd5b6000811015801561049657506101ef8111155b6104d5576040517f08c379a00000000000000000000000000000000000000000000000000000000081526004016104cc9061456a565b60405180910390fd5b60026040518061010001604052808973ffffffffffffffffffffffffffffffffffffffff1681526020018873ffffffffffffffffffffffffffffffffffffffff168152602001878152602001868152602001858152602001848152602001838152602001838561054591906145b9565b815250908060018154018082558091505060019003906000526020600020906008020160009091909190915060008201518160000160006101000a81548173ffffffffffffffffffffffffffffffffffffffff021916908373ffffffffffffffffffffffffffffffffffffffff16021790555060208201518160010160006101000a81548173ffffffffffffffffffffffffffffffffffffffff021916908373ffffffffffffffffffffffffffffffffffffffff160217905550604082015181600201908051906020019061061b929190613743565b506060820151816003019080519060200190610638929190613743565b506080820151816004019080519060200190610655929190613743565b5060a0820151816005015560c0820151816006015560e08201518160070155505050505050505050565b600080600090505b6002805490508110156107c0578473ffffffffffffffffffffffffffffffffffffffff16600282815481106106bf576106be61460f565b5b906000526020600020906008020160010160009054906101000a900473ffffffffffffffffffffffffffffffffffffffff1673ffffffffffffffffffffffffffffffffffffffff16148015610753575083805190602001206002828154811061072b5761072a61460f565b5b9060005260206000209060080201600201604051610749919061473e565b6040518091039020145b801561079e57508280519060200120600282815481106107765761077561460f565b5b9060005260206000209060080201600301604051610794919061473e565b6040518091039020145b156107ad5760019150506107c2565b80806107b890614755565b915050610687565b505b9392505050565b606080606080606080600060038054905067ffffffffffffffff8111156107f3576107f2613873565b5b60405190808252806020026020018201604052801561082657816020015b60608152602001906001900390816108115790505b509050600060038054905067ffffffffffffffff81111561084a57610849613873565b5b60405190808252806020026020018201604052801561087d57816020015b60608152602001906001900390816108685790505b509050600060038054905067ffffffffffffffff8111156108a1576108a0613873565b5b6040519080825280602002602001820160405280156108d457816020015b60608152602001906001900390816108bf5790505b509050600060038054905067ffffffffffffffff8111156108f8576108f7613873565b5b6040519080825280602002602001820160405280156109265781602001602082028036833780820191505090505b509050600060038054905067ffffffffffffffff81111561094a57610949613873565b5b6040519080825280602002602001820160405280156109785781602001602082028036833780820191505090505b509050600060038054905067ffffffffffffffff81111561099c5761099b613873565b5b6040519080825280602002602001820160405280156109ca5781602001602082028036833780820191505090505b50905060005b600380549050811015610e19578e73ffffffffffffffffffffffffffffffffffffffff1660028281548110610a0857610a0761460f565b5b906000526020600020906008020160000160009054906101000a900473ffffffffffffffffffffffffffffffffffffffff1673ffffffffffffffffffffffffffffffffffffffff16148015610acd57508d73ffffffffffffffffffffffffffffffffffffffff1660028281548110610a8357610a8261460f565b5b906000526020600020906008020160010160009054906101000a900473ffffffffffffffffffffffffffffffffffffffff1673ffffffffffffffffffffffffffffffffffffffff16145b15610e065760038181548110610ae657610ae561460f565b5b90600052602060002090600802016002018054610b029061466d565b80601f0160208091040260200160405190810160405280929190818152602001828054610b2e9061466d565b8015610b7b5780601f10610b5057610100808354040283529160200191610b7b565b820191906000526020600020905b815481529060010190602001808311610b5e57829003601f168201915b5050505050878281518110610b9357610b9261460f565b5b602002602001018190525060038181548110610bb257610bb161460f565b5b90600052602060002090600802016003018054610bce9061466d565b80601f0160208091040260200160405190810160405280929190818152602001828054610bfa9061466d565b8015610c475780601f10610c1c57610100808354040283529160200191610c47565b820191906000526020600020905b815481529060010190602001808311610c2a57829003601f168201915b5050505050868281518110610c5f57610c5e61460f565b5b602002602001018190525060038181548110610c7e57610c7d61460f565b5b90600052602060002090600802016004018054610c9a9061466d565b80601f0160208091040260200160405190810160405280929190818152602001828054610cc69061466d565b8015610d135780601f10610ce857610100808354040283529160200191610d13565b820191906000526020600020905b815481529060010190602001808311610cf657829003601f168201915b5050505050858281518110610d2b57610d2a61460f565b5b602002602001018190525060038181548110610d4a57610d4961460f565b5b906000526020600020906008020160050154848281518110610d6f57610d6e61460f565b5b60200260200101818152505060038181548110610d8f57610d8e61460f565b5b906000526020600020906008020160060154838281518110610db457610db361460f565b5b60200260200101818152505060038181548110610dd457610dd361460f565b5b906000526020600020906008020160070154828281518110610df957610df861460f565b5b6020026020010181815250505b8080610e1190614755565b9150506109d0565b508585858585859b509b509b509b509b509b505050505050509295509295509295565b60008181548110610e4c57600080fd5b90600052602060002090600702016000915090508060000160009054906101000a900473ffffffffffffffffffffffffffffffffffffffff1690806001018054610e959061466d565b80601f0160208091040260200160405190810160405280929190818152602001828054610ec19061466d565b8015610f0e5780601f10610ee357610100808354040283529160200191610f0e565b820191906000526020600020905b815481529060010190602001808311610ef157829003601f168201915b505050505090806002018054610f239061466d565b80601f0160208091040260200160405190810160405280929190818152602001828054610f4f9061466d565b8015610f9c5780601f10610f7157610100808354040283529160200191610f9c565b820191906000526020600020905b815481529060010190602001808311610f7f57829003601f168201915b505050505090806003018054610fb19061466d565b80601f0160208091040260200160405190810160405280929190818152602001828054610fdd9061466d565b801561102a5780601f10610fff5761010080835404028352916020019161102a565b820191906000526020600020905b81548152906001019060200180831161100d57829003601f168201915b50505050509080600401805461103f9061466d565b80601f016020809104026020016040519081016040528092919081815260200182805461106b9061466d565b80156110b85780601f1061108d576101008083540402835291602001916110b8565b820191906000526020600020905b81548152906001019060200180831161109b57829003601f168201915b5050505050908060050180546110cd9061466d565b80601f01602080910402602001604051908101604052809291908181526020018280546110f99061466d565b80156111465780601f1061111b57610100808354040283529160200191611146565b820191906000526020600020905b81548152906001019060200180831161112957829003601f168201915b50505050509080600601805461115b9061466d565b80601f01602080910402602001604051908101604052809291908181526020018280546111879061466d565b80156111d45780601f106111a9576101008083540402835291602001916111d4565b820191906000526020600020905b8154815290600101906020018083116111b757829003601f168201915b5050505050905087565b6000606080606080606060005b600080549050811015611651578773ffffffffffffffffffffffffffffffffffffffff16600082815481106112235761122261460f565b5b906000526020600020906007020160000160009054906101000a900473ffffffffffffffffffffffffffffffffffffffff1673ffffffffffffffffffffffffffffffffffffffff16141561163e57600081815481106112855761128461460f565b5b906000526020600020906007020160000160009054906101000a900473ffffffffffffffffffffffffffffffffffffffff16600082815481106112cb576112ca61460f565b5b9060005260206000209060070201600101600083815481106112f0576112ef61460f565b5b9060005260206000209060070201600201600084815481106113155761131461460f565b5b90600052602060002090600702016003016000858154811061133a5761133961460f565b5b90600052602060002090600702016004016000868154811061135f5761135e61460f565b5b906000526020600020906007020160050184805461137c9061466d565b80601f01602080910402602001604051908101604052809291908181526020018280546113a89061466d565b80156113f55780601f106113ca576101008083540402835291602001916113f5565b820191906000526020600020905b8154815290600101906020018083116113d857829003601f168201915b505050505094508380546114089061466d565b80601f01602080910402602001604051908101604052809291908181526020018280546114349061466d565b80156114815780601f1061145657610100808354040283529160200191611481565b820191906000526020600020905b81548152906001019060200180831161146457829003601f168201915b505050505093508280546114949061466d565b80601f01602080910402602001604051908101604052809291908181526020018280546114c09061466d565b801561150d5780601f106114e25761010080835404028352916020019161150d565b820191906000526020600020905b8154815290600101906020018083116114f057829003601f168201915b505050505092508180546115209061466d565b80601f016020809104026020016040519081016040528092919081815260200182805461154c9061466d565b80156115995780601f1061156e57610100808354040283529160200191611599565b820191906000526020600020905b81548152906001019060200180831161157c57829003601f168201915b505050505091508080546115ac9061466d565b80601f01602080910402602001604051908101604052809291908181526020018280546115d89061466d565b80156116255780601f106115fa57610100808354040283529160200191611625565b820191906000526020600020905b81548152906001019060200180831161160857829003601f168201915b5050505050905096509650965096509650965050611653565b808061164990614755565b9150506111eb565b505b91939550919395565b600080600090505b600080549050811015611752578373ffffffffffffffffffffffffffffffffffffffff166000828154811061169c5761169b61460f565b5b906000526020600020906007020160000160009054906101000a900473ffffffffffffffffffffffffffffffffffffffff1673ffffffffffffffffffffffffffffffffffffffff1614801561173057508280519060200120600082815481106117085761170761460f565b5b9060005260206000209060070201600601604051611726919061473e565b6040518091039020145b1561173f576001915050611754565b808061174a90614755565b915050611664565b505b92915050565b6001818154811061176a57600080fd5b90600052602060002090600302016000915090508060000160009054906101000a900473ffffffffffffffffffffffffffffffffffffffff16908060010160009054906101000a900473ffffffffffffffffffffffffffffffffffffffff16908060020180546117d99061466d565b80601f01602080910402602001604051908101604052809291908181526020018280546118059061466d565b80156118525780601f1061182757610100808354040283529160200191611852565b820191906000526020600020905b81548152906001019060200180831161183557829003601f168201915b5050505050905083565b600080600090505b600080549050811015611907578273ffffffffffffffffffffffffffffffffffffffff166000828154811061189c5761189b61460f565b5b906000526020600020906007020160000160009054906101000a900473ffffffffffffffffffffffffffffffffffffffff1673ffffffffffffffffffffffffffffffffffffffff1614156118f4576001915050611909565b80806118ff90614755565b915050611864565b505b919050565b6003818154811061191e57600080fd5b90600052602060002090600802016000915090508060000160009054906101000a900473ffffffffffffffffffffffffffffffffffffffff16908060010160009054906101000a900473ffffffffffffffffffffffffffffffffffffffff169080600201805461198d9061466d565b80601f01602080910402602001604051908101604052809291908181526020018280546119b99061466d565b8015611a065780601f106119db57610100808354040283529160200191611a06565b820191906000526020600020905b8154815290600101906020018083116119e957829003601f168201915b505050505090806003018054611a1b9061466d565b80601f0160208091040260200160405190810160405280929190818152602001828054611a479061466d565b8015611a945780601f10611a6957610100808354040283529160200191611a94565b820191906000526020600020905b815481529060010190602001808311611a7757829003601f168201915b505050505090806004018054611aa99061466d565b80601f0160208091040260200160405190810160405280929190818152602001828054611ad59061466d565b8015611b225780601f10611af757610100808354040283529160200191611b22565b820191906000526020600020905b815481529060010190602001808311611b0557829003601f168201915b5050505050908060050154908060060154908060070154905088565b600080600090505b600380549050811015611c7f578473ffffffffffffffffffffffffffffffffffffffff1660028281548110611b7e57611b7d61460f565b5b906000526020600020906008020160010160009054906101000a900473ffffffffffffffffffffffffffffffffffffffff1673ffffffffffffffffffffffffffffffffffffffff16148015611c125750838051906020012060028281548110611bea57611be961460f565b5b9060005260206000209060080201600201604051611c08919061473e565b6040518091039020145b8015611c5d5750828051906020012060028281548110611c3557611c3461460f565b5b9060005260206000209060080201600301604051611c53919061473e565b6040518091039020145b15611c6c576001915050611c81565b8080611c7790614755565b915050611b46565b505b9392505050565b60005b600180549050811015611ddb578373ffffffffffffffffffffffffffffffffffffffff1660018281548110611cc357611cc261460f565b5b906000526020600020906003020160000160009054906101000a900473ffffffffffffffffffffffffffffffffffffffff1673ffffffffffffffffffffffffffffffffffffffff16148015611d8857508273ffffffffffffffffffffffffffffffffffffffff1660018281548110611d3e57611d3d61460f565b5b906000526020600020906003020160010160009054906101000a900473ffffffffffffffffffffffffffffffffffffffff1673ffffffffffffffffffffffffffffffffffffffff16145b15611dc8578160018281548110611da257611da161460f565b5b90600052602060002090600302016002019080519060200190611dc6929190613743565b505b8080611dd390614755565b915050611c8b565b50505050565b60608060608060608060606000808054905067ffffffffffffffff811115611e0c57611e0b613873565b5b604051908082528060200260200182016040528015611e3a5781602001602082028036833780820191505090505b5090506000808054905067ffffffffffffffff811115611e5d57611e5c613873565b5b604051908082528060200260200182016040528015611e9057816020015b6060815260200190600190039081611e7b5790505b5090506000808054905067ffffffffffffffff811115611eb357611eb2613873565b5b604051908082528060200260200182016040528015611ee657816020015b6060815260200190600190039081611ed15790505b5090506000808054905067ffffffffffffffff811115611f0957611f08613873565b5b604051908082528060200260200182016040528015611f3c57816020015b6060815260200190600190039081611f275790505b5090506000808054905067ffffffffffffffff811115611f5f57611f5e613873565b5b604051908082528060200260200182016040528015611f9257816020015b6060815260200190600190039081611f7d5790505b5090506000808054905067ffffffffffffffff811115611fb557611fb4613873565b5b604051908082528060200260200182016040528015611fe857816020015b6060815260200190600190039081611fd35790505b5090506000808054905067ffffffffffffffff81111561200b5761200a613873565b5b60405190808252806020026020018201604052801561203e57816020015b60608152602001906001900390816120295790505b50905060005b6000805490508110156125bf57600081815481106120655761206461460f565b5b906000526020600020906007020160000160009054906101000a900473ffffffffffffffffffffffffffffffffffffffff168882815181106120aa576120a961460f565b5b602002602001019073ffffffffffffffffffffffffffffffffffffffff16908173ffffffffffffffffffffffffffffffffffffffff1681525050600081815481106120f8576120f761460f565b5b906000526020600020906007020160010180546121149061466d565b80601f01602080910402602001604051908101604052809291908181526020018280546121409061466d565b801561218d5780601f106121625761010080835404028352916020019161218d565b820191906000526020600020905b81548152906001019060200180831161217057829003601f168201915b50505050508782815181106121a5576121a461460f565b5b6020026020010181905250600081815481106121c4576121c361460f565b5b906000526020600020906007020160020180546121e09061466d565b80601f016020809104026020016040519081016040528092919081815260200182805461220c9061466d565b80156122595780601f1061222e57610100808354040283529160200191612259565b820191906000526020600020905b81548152906001019060200180831161223c57829003601f168201915b50505050508682815181106122715761227061460f565b5b6020026020010181905250600081815481106122905761228f61460f565b5b906000526020600020906007020160030180546122ac9061466d565b80601f01602080910402602001604051908101604052809291908181526020018280546122d89061466d565b80156123255780601f106122fa57610100808354040283529160200191612325565b820191906000526020600020905b81548152906001019060200180831161230857829003601f168201915b505050505085828151811061233d5761233c61460f565b5b60200260200101819052506000818154811061235c5761235b61460f565b5b906000526020600020906007020160040180546123789061466d565b80601f01602080910402602001604051908101604052809291908181526020018280546123a49061466d565b80156123f15780601f106123c6576101008083540402835291602001916123f1565b820191906000526020600020905b8154815290600101906020018083116123d457829003601f168201915b50505050508482815181106124095761240861460f565b5b6020026020010181905250600081815481106124285761242761460f565b5b906000526020600020906007020160050180546124449061466d565b80601f01602080910402602001604051908101604052809291908181526020018280546124709061466d565b80156124bd5780601f10612492576101008083540402835291602001916124bd565b820191906000526020600020905b8154815290600101906020018083116124a057829003601f168201915b50505050508382815181106124d5576124d461460f565b5b6020026020010181905250600081815481106124f4576124f361460f565b5b906000526020600020906007020160060180546125109061466d565b80601f016020809104026020016040519081016040528092919081815260200182805461253c9061466d565b80156125895780601f1061255e57610100808354040283529160200191612589565b820191906000526020600020905b81548152906001019060200180831161256c57829003601f168201915b50505050508282815181106125a1576125a061460f565b5b602002602001018190525080806125b790614755565b915050612044565b50868686868686869d509d509d509d509d509d509d505050505050505090919293949596565b600160405180606001604052808473ffffffffffffffffffffffffffffffffffffffff1681526020018373ffffffffffffffffffffffffffffffffffffffff1681526020016040518060400160405280600781526020017f57616974696e6700000000000000000000000000000000000000000000000000815250815250908060018154018082558091505060019003906000526020600020906003020160009091909190915060008201518160000160006101000a81548173ffffffffffffffffffffffffffffffffffffffff021916908373ffffffffffffffffffffffffffffffffffffffff16021790555060208201518160010160006101000a81548173ffffffffffffffffffffffffffffffffffffffff021916908373ffffffffffffffffffffffffffffffffffffffff1602179055506040820151816002019080519060200190612736929190613743565b5050505050565b6060806060600060018054905067ffffffffffffffff81111561276357612762613873565b5b6040519080825280602002602001820160405280156127915781602001602082028036833780820191505090505b509050600060018054905067ffffffffffffffff8111156127b5576127b4613873565b5b6040519080825280602002602001820160405280156127e35781602001602082028036833780820191505090505b509050600060018054905067ffffffffffffffff81111561280757612806613873565b5b60405190808252806020026020018201604052801561283a57816020015b60608152602001906001900390816128255790505b50905060005b600180549050811015612acc578773ffffffffffffffffffffffffffffffffffffffff16600182815481106128785761287761460f565b5b906000526020600020906003020160010160009054906101000a900473ffffffffffffffffffffffffffffffffffffffff1673ffffffffffffffffffffffffffffffffffffffff161415612ab957600181815481106128da576128d961460f565b5b906000526020600020906003020160000160009054906101000a900473ffffffffffffffffffffffffffffffffffffffff1684828151811061291f5761291e61460f565b5b602002602001019073ffffffffffffffffffffffffffffffffffffffff16908173ffffffffffffffffffffffffffffffffffffffff16815250506001818154811061296d5761296c61460f565b5b906000526020600020906003020160010160009054906101000a900473ffffffffffffffffffffffffffffffffffffffff168382815181106129b2576129b161460f565b5b602002602001019073ffffffffffffffffffffffffffffffffffffffff16908173ffffffffffffffffffffffffffffffffffffffff168152505060018181548110612a00576129ff61460f565b5b90600052602060002090600302016002018054612a1c9061466d565b80601f0160208091040260200160405190810160405280929190818152602001828054612a489061466d565b8015612a955780601f10612a6a57610100808354040283529160200191612a95565b820191906000526020600020905b815481529060010190602001808311612a7857829003601f168201915b5050505050828281518110612aad57612aac61460f565b5b60200260200101819052505b8080612ac490614755565b915050612840565b508282829550955095505050509193909250565b60028181548110612af057600080fd5b90600052602060002090600802016000915090508060000160009054906101000a900473ffffffffffffffffffffffffffffffffffffffff16908060010160009054906101000a900473ffffffffffffffffffffffffffffffffffffffff1690806002018054612b5f9061466d565b80601f0160208091040260200160405190810160405280929190818152602001828054612b8b9061466d565b8015612bd85780601f10612bad57610100808354040283529160200191612bd8565b820191906000526020600020905b815481529060010190602001808311612bbb57829003601f168201915b505050505090806003018054612bed9061466d565b80601f0160208091040260200160405190810160405280929190818152602001828054612c199061466d565b8015612c665780601f10612c3b57610100808354040283529160200191612c66565b820191906000526020600020905b815481529060010190602001808311612c4957829003601f168201915b505050505090806004018054612c7b9061466d565b80601f0160208091040260200160405190810160405280929190818152602001828054612ca79061466d565b8015612cf45780601f10612cc957610100808354040283529160200191612cf4565b820191906000526020600020905b815481529060010190602001808311612cd757829003601f168201915b5050505050908060050154908060060154908060070154905088565b606080606080606080600060028054905067ffffffffffffffff811115612d3a57612d39613873565b5b604051908082528060200260200182016040528015612d6d57816020015b6060815260200190600190039081612d585790505b509050600060028054905067ffffffffffffffff811115612d9157612d90613873565b5b604051908082528060200260200182016040528015612dc457816020015b6060815260200190600190039081612daf5790505b509050600060028054905067ffffffffffffffff811115612de857612de7613873565b5b604051908082528060200260200182016040528015612e1b57816020015b6060815260200190600190039081612e065790505b509050600060028054905067ffffffffffffffff811115612e3f57612e3e613873565b5b604051908082528060200260200182016040528015612e6d5781602001602082028036833780820191505090505b509050600060028054905067ffffffffffffffff811115612e9157612e90613873565b5b604051908082528060200260200182016040528015612ebf5781602001602082028036833780820191505090505b509050600060028054905067ffffffffffffffff811115612ee357612ee2613873565b5b604051908082528060200260200182016040528015612f115781602001602082028036833780820191505090505b50905060005b600280549050811015613360578e73ffffffffffffffffffffffffffffffffffffffff1660028281548110612f4f57612f4e61460f565b5b906000526020600020906008020160000160009054906101000a900473ffffffffffffffffffffffffffffffffffffffff1673ffffffffffffffffffffffffffffffffffffffff1614801561301457508d73ffffffffffffffffffffffffffffffffffffffff1660028281548110612fca57612fc961460f565b5b906000526020600020906008020160010160009054906101000a900473ffffffffffffffffffffffffffffffffffffffff1673ffffffffffffffffffffffffffffffffffffffff16145b1561334d576002818154811061302d5761302c61460f565b5b906000526020600020906008020160020180546130499061466d565b80601f01602080910402602001604051908101604052809291908181526020018280546130759061466d565b80156130c25780601f10613097576101008083540402835291602001916130c2565b820191906000526020600020905b8154815290600101906020018083116130a557829003601f168201915b50505050508782815181106130da576130d961460f565b5b6020026020010181905250600281815481106130f9576130f861460f565b5b906000526020600020906008020160030180546131159061466d565b80601f01602080910402602001604051908101604052809291908181526020018280546131419061466d565b801561318e5780601f106131635761010080835404028352916020019161318e565b820191906000526020600020905b81548152906001019060200180831161317157829003601f168201915b50505050508682815181106131a6576131a561460f565b5b6020026020010181905250600281815481106131c5576131c461460f565b5b906000526020600020906008020160040180546131e19061466d565b80601f016020809104026020016040519081016040528092919081815260200182805461320d9061466d565b801561325a5780601f1061322f5761010080835404028352916020019161325a565b820191906000526020600020905b81548152906001019060200180831161323d57829003601f168201915b50505050508582815181106132725761327161460f565b5b6020026020010181905250600281815481106132915761329061460f565b5b9060005260206000209060080201600501548482815181106132b6576132b561460f565b5b602002602001018181525050600281815481106132d6576132d561460f565b5b9060005260206000209060080201600601548382815181106132fb576132fa61460f565b5b6020026020010181815250506002818154811061331b5761331a61460f565b5b9060005260206000209060080201600701548282815181106133405761333f61460f565b5b6020026020010181815250505b808061335890614755565b915050612f17565b508585858585859b509b509b509b509b509b505050505050509295509295509295565b60008210158015613395575060c88211155b6133d4576040517f08c379a00000000000000000000000000000000000000000000000000000000081526004016133cb906147ea565b60405180910390fd5b600081101580156133e6575060c88111155b613425576040517f08c379a000000000000000000000000000000000000000000000000000000000815260040161341c90614856565b60405180910390fd5b60036040518061010001604052808973ffffffffffffffffffffffffffffffffffffffff1681526020018873ffffffffffffffffffffffffffffffffffffffff168152602001878152602001868152602001858152602001848152602001838152602001838561349591906145b9565b815250908060018154018082558091505060019003906000526020600020906008020160009091909190915060008201518160000160006101000a81548173ffffffffffffffffffffffffffffffffffffffff021916908373ffffffffffffffffffffffffffffffffffffffff16021790555060208201518160010160006101000a81548173ffffffffffffffffffffffffffffffffffffffff021916908373ffffffffffffffffffffffffffffffffffffffff160217905550604082015181600201908051906020019061356b929190613743565b506060820151816003019080519060200190613588929190613743565b5060808201518160040190805190602001906135a5929190613743565b5060a0820151816005015560c0820151816006015560e08201518160070155505050505050505050565b60006040518060e001604052808973ffffffffffffffffffffffffffffffffffffffff16815260200188815260200187815260200186815260200185815260200184815260200183815250908060018154018082558091505060019003906000526020600020906007020160009091909190915060008201518160000160006101000a81548173ffffffffffffffffffffffffffffffffffffffff021916908373ffffffffffffffffffffffffffffffffffffffff16021790555060208201518160010190805190602001906136a6929190613743565b5060408201518160020190805190602001906136c3929190613743565b5060608201518160030190805190602001906136e0929190613743565b5060808201518160040190805190602001906136fd929190613743565b5060a082015181600501908051906020019061371a929190613743565b5060c0820151816006019080519060200190613737929190613743565b50505050505050505050565b82805461374f9061466d565b90600052602060002090601f01602090048101928261377157600085556137b8565b82601f1061378a57805160ff19168380011785556137b8565b828001600101855582156137b8579182015b828111156137b757825182559160200191906001019061379c565b5b5090506137c591906137c9565b5090565b5b808211156137e25760008160009055506001016137ca565b5090565b6000604051905090565b600080fd5b600080fd5b600073ffffffffffffffffffffffffffffffffffffffff82169050919050565b6000613825826137fa565b9050919050565b6138358161381a565b811461384057600080fd5b50565b6000813590506138528161382c565b92915050565b600080fd5b600080fd5b6000601f19601f8301169050919050565b7f4e487b7100000000000000000000000000000000000000000000000000000000600052604160045260246000fd5b6138ab82613862565b810181811067ffffffffffffffff821117156138ca576138c9613873565b5b80604052505050565b60006138dd6137e6565b90506138e982826138a2565b919050565b600067ffffffffffffffff82111561390957613908613873565b5b61391282613862565b9050602081019050919050565b82818337600083830152505050565b600061394161393c846138ee565b6138d3565b90508281526020810184848401111561395d5761395c61385d565b5b61396884828561391f565b509392505050565b600082601f83011261398557613984613858565b5b813561399584826020860161392e565b91505092915050565b6000819050919050565b6139b18161399e565b81146139bc57600080fd5b50565b6000813590506139ce816139a8565b92915050565b600080600080600080600060e0888a0312156139f3576139f26137f0565b5b6000613a018a828b01613843565b9750506020613a128a828b01613843565b965050604088013567ffffffffffffffff811115613a3357613a326137f5565b5b613a3f8a828b01613970565b955050606088013567ffffffffffffffff811115613a6057613a5f6137f5565b5b613a6c8a828b01613970565b945050608088013567ffffffffffffffff811115613a8d57613a8c6137f5565b5b613a998a828b01613970565b93505060a0613aaa8a828b016139bf565b92505060c0613abb8a828b016139bf565b91505092959891949750929550565b600080600060608486031215613ae357613ae26137f0565b5b6000613af186828701613843565b935050602084013567ffffffffffffffff811115613b1257613b116137f5565b5b613b1e86828701613970565b925050604084013567ffffffffffffffff811115613b3f57613b3e6137f5565b5b613b4b86828701613970565b9150509250925092565b613b5e8161399e565b82525050565b6000602082019050613b796000830184613b55565b92915050565b60008060408385031215613b9657613b956137f0565b5b6000613ba485828601613843565b9250506020613bb585828601613843565b9150509250929050565b600081519050919050565b600082825260208201905092915050565b6000819050602082019050919050565b600081519050919050565b600082825260208201905092915050565b60005b83811015613c25578082015181840152602081019050613c0a565b83811115613c34576000848401525b50505050565b6000613c4582613beb565b613c4f8185613bf6565b9350613c5f818560208601613c07565b613c6881613862565b840191505092915050565b6000613c7f8383613c3a565b905092915050565b6000602082019050919050565b6000613c9f82613bbf565b613ca98185613bca565b935083602082028501613cbb85613bdb565b8060005b85811015613cf75784840389528151613cd88582613c73565b9450613ce383613c87565b925060208a01995050600181019050613cbf565b50829750879550505050505092915050565b600081519050919050565b600082825260208201905092915050565b6000819050602082019050919050565b613d3e8161399e565b82525050565b6000613d508383613d35565b60208301905092915050565b6000602082019050919050565b6000613d7482613d09565b613d7e8185613d14565b9350613d8983613d25565b8060005b83811015613dba578151613da18882613d44565b9750613dac83613d5c565b925050600181019050613d8d565b5085935050505092915050565b600060c0820190508181036000830152613de18189613c94565b90508181036020830152613df58188613c94565b90508181036040830152613e098187613c94565b90508181036060830152613e1d8186613d69565b90508181036080830152613e318185613d69565b905081810360a0830152613e458184613d69565b9050979650505050505050565b600060208284031215613e6857613e676137f0565b5b6000613e76848285016139bf565b91505092915050565b613e888161381a565b82525050565b600082825260208201905092915050565b6000613eaa82613beb565b613eb48185613e8e565b9350613ec4818560208601613c07565b613ecd81613862565b840191505092915050565b600060e082019050613eed600083018a613e7f565b8181036020830152613eff8189613e9f565b90508181036040830152613f138188613e9f565b90508181036060830152613f278187613e9f565b90508181036080830152613f3b8186613e9f565b905081810360a0830152613f4f8185613e9f565b905081810360c0830152613f638184613e9f565b905098975050505050505050565b600060208284031215613f8757613f866137f0565b5b6000613f9584828501613843565b91505092915050565b600060c082019050613fb36000830189613e7f565b8181036020830152613fc58188613e9f565b90508181036040830152613fd98187613e9f565b90508181036060830152613fed8186613e9f565b905081810360808301526140018185613e9f565b905081810360a08301526140158184613e9f565b9050979650505050505050565b60008060408385031215614039576140386137f0565b5b600061404785828601613843565b925050602083013567ffffffffffffffff811115614068576140676137f5565b5b61407485828601613970565b9150509250929050565b60006060820190506140936000830186613e7f565b6140a06020830185613e7f565b81810360408301526140b28184613e9f565b9050949350505050565b6000610100820190506140d2600083018b613e7f565b6140df602083018a613e7f565b81810360408301526140f18189613e9f565b905081810360608301526141058188613e9f565b905081810360808301526141198187613e9f565b905061412860a0830186613b55565b61413560c0830185613b55565b61414260e0830184613b55565b9998505050505050505050565b600080600060608486031215614168576141676137f0565b5b600061417686828701613843565b935050602061418786828701613843565b925050604084013567ffffffffffffffff8111156141a8576141a76137f5565b5b6141b486828701613970565b9150509250925092565b600081519050919050565b600082825260208201905092915050565b6000819050602082019050919050565b6141f38161381a565b82525050565b600061420583836141ea565b60208301905092915050565b6000602082019050919050565b6000614229826141be565b61423381856141c9565b935061423e836141da565b8060005b8381101561426f57815161425688826141f9565b975061426183614211565b925050600181019050614242565b5085935050505092915050565b600060e0820190508181036000830152614296818a61421e565b905081810360208301526142aa8189613c94565b905081810360408301526142be8188613c94565b905081810360608301526142d28187613c94565b905081810360808301526142e68186613c94565b905081810360a08301526142fa8185613c94565b905081810360c083015261430e8184613c94565b905098975050505050505050565b60006060820190508181036000830152614336818661421e565b9050818103602083015261434a818561421e565b9050818103604083015261435e8184613c94565b9050949350505050565b600080600080600080600060e0888a031215614387576143866137f0565b5b60006143958a828b01613843565b975050602088013567ffffffffffffffff8111156143b6576143b56137f5565b5b6143c28a828b01613970565b965050604088013567ffffffffffffffff8111156143e3576143e26137f5565b5b6143ef8a828b01613970565b955050606088013567ffffffffffffffff8111156144105761440f6137f5565b5b61441c8a828b01613970565b945050608088013567ffffffffffffffff81111561443d5761443c6137f5565b5b6144498a828b01613970565b93505060a088013567ffffffffffffffff81111561446a576144696137f5565b5b6144768a828b01613970565b92505060c088013567ffffffffffffffff811115614497576144966137f5565b5b6144a38a828b01613970565b91505092959891949750929550565b7f4c697374656e696e672053636f726520696e636f72726563742e000000000000600082015250565b60006144e8601a83613e8e565b91506144f3826144b2565b602082019050919050565b60006020820190508181036000830152614517816144db565b9050919050565b7f52656164696e672053636f726520696e636f72726563742e0000000000000000600082015250565b6000614554601883613e8e565b915061455f8261451e565b602082019050919050565b6000602082019050818103600083015261458381614547565b9050919050565b7f4e487b7100000000000000000000000000000000000000000000000000000000600052601160045260246000fd5b60006145c48261399e565b91506145cf8361399e565b9250827fffffffffffffffffffffffffffffffffffffffffffffffffffffffffffffffff038211156146045761460361458a565b5b828201905092915050565b7f4e487b7100000000000000000000000000000000000000000000000000000000600052603260045260246000fd5b7f4e487b7100000000000000000000000000000000000000000000000000000000600052602260045260246000fd5b6000600282049050600182168061468557607f821691505b602082108114156146995761469861463e565b5b50919050565b600081905092915050565b60008190508160005260206000209050919050565b600081546146cc8161466d565b6146d6818661469f565b945060018216600081146146f1576001811461470257614735565b60ff19831686528186019350614735565b61470b856146aa565b60005b8381101561472d5781548189015260018201915060208101905061470e565b838801955050505b50505092915050565b600061474a82846146bf565b915081905092915050565b60006147608261399e565b91507fffffffffffffffffffffffffffffffffffffffffffffffffffffffffffffffff8214156147935761479261458a565b5b600182019050919050565b7f537065616b696e672053636f726520696e636f72726563742e00000000000000600082015250565b60006147d4601983613e8e565b91506147df8261479e565b602082019050919050565b60006020820190508181036000830152614803816147c7565b9050919050565b7f57726974696e672053636f726520696e636f72726563742e0000000000000000600082015250565b6000614840601883613e8e565b915061484b8261480a565b602082019050919050565b6000602082019050818103600083015261486f81614833565b905091905056fea2646970667358221220742aedca46e0fc5bc9a7b58190401043527940d09ba727acbe64f581f6b5a9b464736f6c634300080b0033",
  "immutableReferences": {},
  "source": "// SPDX-License-Identifier: MIT\r\npragma solidity >=0.4.22 <0.9.0;\r\n\r\n// Lu tr danh sch IIG\r\ncontract ListIIG {\r\n\r\n    // Khai bo cu trc lu tr thng tin IIG\r\n    struct IIGInfo {\r\n        address iigOwner;\r\n        string name;\r\n        string country;\r\n        string facebook;\r\n        string website;\r\n        string linkedin;\r\n        string password;\r\n    }\r\n\r\n    // Khai bo cu trc lu tr thng tin yu cu chng ch IIG ca sinh vin\r\n    struct IIGRequest {\r\n        address studentOwner;\r\n        address iigOwner;\r\n        string statusRequest;\r\n    }\r\n\r\n    // Khai bo cu trc lu tr thng tin im thi Listening - Reading IIG\r\n    struct IIGLRResult {\r\n        address iigOwner;\r\n        address studentOwner;\r\n        string testDate;\r\n        string shiftTest;\r\n        string expireDate;\r\n        uint listeningScore;\r\n        uint readingScore;\r\n        uint totalScore;\r\n    }\r\n\r\n    // Khai bo cu trc lu tr thng tin im thi Speaking - Writing IIG\r\n    struct IIGSWResult {\r\n        address iigOwner;\r\n        address studentOwner;\r\n        string testDate;\r\n        string shiftTest;\r\n        string expireDate;\r\n        uint speakingScore;\r\n        uint writingScore;\r\n        uint totalScore;\r\n    }\r\n\r\n    // Khai bo mng  lu tr thng tin\r\n    IIGInfo[] public iigInfos;\r\n    IIGRequest[] public iigRequests;\r\n    IIGLRResult[] public iigLRResults;\r\n    IIGSWResult[] public iigSWResults;\r\n\r\n    // Chc nng thm thng tin IGG\r\n    function addIIG (\r\n        address _iigOwner,\r\n        string memory _name,\r\n        string memory _country,\r\n        string memory _facebook,\r\n        string memory _website,\r\n        string memory _linkedin,\r\n        string memory _password) public {\r\n            iigInfos.push(\r\n                IIGInfo(_iigOwner, \r\n                        _name, \r\n                        _country, \r\n                        _facebook,\r\n                        _website, \r\n                        _linkedin, \r\n                        _password)\r\n                );\r\n    }\r\n\r\n    // Chc nng ly danh sch IIG  thm\r\n    function getListIIG() public view returns(\r\n        address[] memory, \r\n        string[] memory, \r\n        string[] memory, \r\n        string[] memory, \r\n        string[] memory, \r\n        string[] memory, \r\n        string[] memory) {\r\n            address[] memory iigOwners = new address[](iigInfos.length);\r\n            string[] memory names = new string[](iigInfos.length);\r\n            string[] memory countrys = new string[](iigInfos.length);\r\n            string[] memory facebooks = new string[](iigInfos.length);\r\n            string[] memory websites = new string[](iigInfos.length);\r\n            string[] memory linkedins = new string[](iigInfos.length);\r\n            string[] memory passwords = new string[](iigInfos.length);\r\n            for(uint i=0; i<iigInfos.length;i++){\r\n                iigOwners[i] = iigInfos[i].iigOwner;\r\n                names[i] = iigInfos[i].name;\r\n                countrys[i] = iigInfos[i].country;\r\n                facebooks[i] = iigInfos[i].facebook;\r\n                websites[i] = iigInfos[i].website;\r\n                linkedins[i] = iigInfos[i].linkedin;\r\n                passwords[i] = iigInfos[i].password;\r\n            }\r\n            return (iigOwners, names, countrys, facebooks, websites, linkedins, passwords);\r\n    }\r\n\r\n    // Chc nng ly thng tin ca IIG\r\n    function getProfile(address _iigOwner) public view returns(\r\n        address iigOwner, \r\n        string memory name, \r\n        string memory country, \r\n        string memory facebook, \r\n        string memory website, \r\n        string memory linkedin) {\r\n            for(uint i=0; i<iigInfos.length;i++){\r\n                if(iigInfos[i].iigOwner == _iigOwner){\r\n                    return (iigInfos[i].iigOwner,\r\n                            iigInfos[i].name, \r\n                            iigInfos[i].country, \r\n                            iigInfos[i].facebook, \r\n                            iigInfos[i].website, \r\n                            iigInfos[i].linkedin);\r\n                }\r\n            }\r\n    }\r\n\r\n    // Chc nng kim tra IIG  ng k hay cha?\r\n    function checkIIG(\r\n        address _iigOwner, \r\n        string memory _password) public view returns(uint x) {\r\n            for(uint i=0; i<iigInfos.length; i++){\r\n                if((iigInfos[i].iigOwner == _iigOwner) && (keccak256(bytes(iigInfos[i].password)) == keccak256(bytes(_password)))){\r\n                    return 1;\r\n                }\r\n            }\r\n    }\r\n\r\n    // Chc nng kim tra a ch IIG  tn ti hay cha?\r\n    function checkExistIIG(address _iigOwner) public view returns(uint x) {\r\n        for(uint i=0; i<iigInfos.length; i++){\r\n            if(iigInfos[i].iigOwner == _iigOwner){\r\n                return 1;\r\n            }\r\n        }\r\n    }\r\n\r\n    // Chc nng thm thng tin yu cu chng ch IIG\r\n    function addRequest (\r\n        address _studentOwner,\r\n        address _iigOwner) public {\r\n            iigRequests.push(\r\n                IIGRequest(_studentOwner, \r\n                        _iigOwner, \r\n                        \"Waiting\")\r\n                );\r\n    }\r\n\r\n    // Chc nng ly danh sch yu cu chng ch IIG\r\n    function getListRequest(address _iigOwner) public view returns(\r\n        address[] memory, \r\n        address[] memory, \r\n        string[] memory) {\r\n            address[] memory studentOwners = new address[](iigRequests.length);\r\n            address[] memory iigOwners = new address[](iigRequests.length);\r\n            string[] memory statusRequests = new string[](iigRequests.length);\r\n            for(uint i=0; i<iigRequests.length;i++){\r\n                if(iigRequests[i].iigOwner == _iigOwner){\r\n                    studentOwners[i] = iigRequests[i].studentOwner;\r\n                    iigOwners[i] = iigRequests[i].iigOwner;\r\n                    statusRequests[i] = iigRequests[i].statusRequest;\r\n                }\r\n            }\r\n            return (studentOwners, iigOwners, statusRequests);\r\n    }\r\n\r\n    //Chc nng duyt yu cu chng ch IIG\r\n    function confirmRequest(\r\n        address _studentOwner, \r\n        address _iigOwner, \r\n        string memory _statusRequest) public {\r\n            for(uint i=0; i<iigRequests.length; i++){\r\n                if((iigRequests[i].studentOwner == _studentOwner) && (iigRequests[i].iigOwner == _iigOwner)){\r\n                    iigRequests[i].statusRequest = _statusRequest;\r\n                }\r\n            }\r\n    }\r\n\r\n    // Chc nng thm thng tin im thi Listening - Reading (Kim tra c nhp nhiu ln thi ca 1 sinh vin chung 1 ngy khng?)\r\n    function addLRResult (\r\n        address _iigOwner,\r\n        address _studentOwner,\r\n        string memory _testDate,\r\n        string memory _shiftTest,\r\n        string memory _expireDate,\r\n        uint _listeningScore,\r\n        uint _readingScore) public {\r\n            require(_listeningScore >=0 && _listeningScore <=495, \"Listening Score incorrect.\");\r\n            require(_readingScore >=0 && _readingScore <=495, \"Reading Score incorrect.\");\r\n            iigLRResults.push(\r\n                IIGLRResult(_iigOwner, \r\n                        _studentOwner, \r\n                        _testDate,\r\n                        _shiftTest,\r\n                        _expireDate,\r\n                        _listeningScore, \r\n                        _readingScore,\r\n                        (_listeningScore + _readingScore))\r\n                );\r\n    }\r\n\r\n    // Chc nng ly danh sch im thi Listening - Reading  thm\r\n    function getListLRResult(address _iigOwner, address _studentOwner) public view returns(\r\n        string[] memory,\r\n        string[] memory,\r\n        string[] memory,\r\n        uint[] memory,\r\n        uint[] memory,\r\n        uint[] memory) {\r\n            string[] memory testDates = new string[](iigLRResults.length);\r\n            string[] memory shiftTests = new string[](iigLRResults.length);\r\n            string[] memory expireDates = new string[](iigLRResults.length);\r\n            uint[] memory listeningScores = new uint[](iigLRResults.length);\r\n            uint[] memory readingScores = new uint[](iigLRResults.length);\r\n            uint[] memory totalScores = new uint[](iigLRResults.length);\r\n            for(uint i=0; i<iigLRResults.length;i++){\r\n                if((iigLRResults[i].iigOwner == _iigOwner) && (iigLRResults[i].studentOwner == _studentOwner)){\r\n                    testDates[i] = iigLRResults[i].testDate;\r\n                    shiftTests[i] = iigLRResults[i].shiftTest;\r\n                    expireDates[i] = iigLRResults[i].expireDate;\r\n                    listeningScores[i] = iigLRResults[i].listeningScore;\r\n                    readingScores[i] = iigLRResults[i].readingScore;\r\n                    totalScores[i] = iigLRResults[i].totalScore;\r\n                }\r\n            }\r\n            return (testDates, shiftTests, expireDates, listeningScores, readingScores, totalScores);\r\n    }\r\n\r\n    // Chc nng kim tra kt qu ngy thi Listening - Reading ca sinh vin  tn ti hay cha?\r\n    function checkExistLRResult(\r\n        address _studentOwner, \r\n        string memory _testDate,\r\n        string memory _shiftTest) public view returns(uint x) {\r\n            for(uint i=0; i<iigLRResults.length; i++){\r\n                if((iigLRResults[i].studentOwner == _studentOwner) && (keccak256(bytes(iigLRResults[i].testDate)) == keccak256(bytes(_testDate))) && (keccak256(bytes(iigLRResults[i].shiftTest)) == keccak256(bytes(_shiftTest)))){\r\n                    return 1;\r\n                }\r\n            }\r\n    }\r\n\r\n    // Chc nng thm thng tin im thi Speaking - Writing\r\n    function addSWResult (\r\n        address _iigOwner,\r\n        address _studentOwner,\r\n        string memory _testDate,\r\n        string memory _shiftTest,\r\n        string memory _expireDate,\r\n        uint _speakingScore,\r\n        uint _writingScore) public {\r\n            require(_speakingScore >=0 && _speakingScore <=200, \"Speaking Score incorrect.\");\r\n            require(_writingScore >=0 && _writingScore <=200, \"Writing Score incorrect.\");\r\n            iigSWResults.push(\r\n                IIGSWResult(_iigOwner, \r\n                        _studentOwner, \r\n                        _testDate,\r\n                        _shiftTest,\r\n                        _expireDate,\r\n                        _speakingScore, \r\n                        _writingScore,\r\n                        (_speakingScore + _writingScore))\r\n                );\r\n    }\r\n\r\n    // Chc nng ly danh sch im thi Speaking - Writing  thm\r\n    function getListSWResult(address _iigOwner, address _studentOwner) public view returns(\r\n        string[] memory,\r\n        string[] memory,\r\n        string[] memory,\r\n        uint[] memory,\r\n        uint[] memory,\r\n        uint[] memory) {\r\n            string[] memory testDates = new string[](iigSWResults.length);\r\n            string[] memory shiftTests = new string[](iigSWResults.length);\r\n            string[] memory expireDates = new string[](iigSWResults.length);\r\n            uint[] memory speakingScores = new uint[](iigSWResults.length);\r\n            uint[] memory writingScores = new uint[](iigSWResults.length);\r\n            uint[] memory totalScores = new uint[](iigSWResults.length);\r\n            for(uint i=0; i<iigSWResults.length;i++){\r\n                if((iigLRResults[i].iigOwner == _iigOwner) && (iigLRResults[i].studentOwner == _studentOwner)){\r\n                    testDates[i] = iigSWResults[i].testDate;\r\n                    shiftTests[i] = iigSWResults[i].shiftTest;\r\n                    expireDates[i] = iigSWResults[i].expireDate;\r\n                    speakingScores[i] = iigSWResults[i].speakingScore;\r\n                    writingScores[i] = iigSWResults[i].writingScore;\r\n                    totalScores[i] = iigSWResults[i].totalScore;\r\n                }\r\n            }\r\n            return (testDates, shiftTests, expireDates, speakingScores, writingScores, totalScores);\r\n    }\r\n    \r\n    // Chc nng kim tra kt qu ngy thi Speaking - Writing ca sinh vin  tn ti hay cha?\r\n    function checkExistSWResult(\r\n        address _studentOwner,\r\n        string memory _testDate,\r\n        string memory _shiftTest) public view returns(uint x) {\r\n            for(uint i=0; i<iigSWResults.length; i++){\r\n                if((iigLRResults[i].studentOwner == _studentOwner) && (keccak256(bytes(iigLRResults[i].testDate)) == keccak256(bytes(_testDate))) && (keccak256(bytes(iigLRResults[i].shiftTest)) == keccak256(bytes(_shiftTest)))){\r\n                    return 1;\r\n                }\r\n            }\r\n    }\r\n}",
  "sourcePath": "C:\\Users\\19520\\Documents\\NCKH_Blockchain\\SolidityProgramming\\ProjectResearch\\SmartCV\\SmartContract\\contracts\\SmartCV_ListIIG.sol",
  "compiler": {
    "name": "solc",
    "version": "0.8.11+commit.d7f03943.Emscripten.clang"
  },
  "schemaVersion": "3.4.4",
  "updatedAt": "2022-07-25T12:14:57.771Z",
  "devdoc": {
    "kind": "dev",
    "methods": {},
    "version": 1
  },
  "userdoc": {
    "kind": "user",
    "methods": {},
    "version": 1
  }
}