{
  "contractName": "ListStudent",
  "abi": [
    {
      "inputs": [
        {
          "internalType": "uint256",
          "name": "",
          "type": "uint256"
        }
      ],
      "name": "listSVs",
      "outputs": [
        {
          "internalType": "address",
          "name": "studentOwner",
          "type": "address"
        },
        {
          "internalType": "string",
          "name": "name",
          "type": "string"
        },
        {
          "internalType": "string",
          "name": "birthDay",
          "type": "string"
        },
        {
          "internalType": "string",
          "name": "professionalTitle",
          "type": "string"
        },
        {
          "internalType": "string",
          "name": "email",
          "type": "string"
        },
        {
          "internalType": "string",
          "name": "github",
          "type": "string"
        },
        {
          "internalType": "string",
          "name": "linkedin",
          "type": "string"
        },
        {
          "internalType": "string",
          "name": "password",
          "type": "string"
        }
      ],
      "stateMutability": "view",
      "type": "function"
    },
    {
      "inputs": [
        {
          "internalType": "uint256",
          "name": "",
          "type": "uint256"
        }
      ],
      "name": "listSkills",
      "outputs": [
        {
          "internalType": "address",
          "name": "studentOwner",
          "type": "address"
        },
        {
          "internalType": "string",
          "name": "title",
          "type": "string"
        },
        {
          "internalType": "uint256",
          "name": "level",
          "type": "uint256"
        }
      ],
      "stateMutability": "view",
      "type": "function"
    },
    {
      "inputs": [
        {
          "internalType": "address",
          "name": "_studentOwner",
          "type": "address"
        },
        {
          "internalType": "string",
          "name": "_name",
          "type": "string"
        },
        {
          "internalType": "string",
          "name": "_birthDay",
          "type": "string"
        },
        {
          "internalType": "string",
          "name": "_professionalTitle",
          "type": "string"
        },
        {
          "internalType": "string",
          "name": "_email",
          "type": "string"
        },
        {
          "internalType": "string",
          "name": "_github",
          "type": "string"
        },
        {
          "internalType": "string",
          "name": "_linked",
          "type": "string"
        },
        {
          "internalType": "string",
          "name": "_password",
          "type": "string"
        }
      ],
      "name": "addSV",
      "outputs": [],
      "stateMutability": "nonpayable",
      "type": "function"
    },
    {
      "inputs": [
        {
          "internalType": "address",
          "name": "_studentOwner",
          "type": "address"
        },
        {
          "internalType": "string",
          "name": "_name",
          "type": "string"
        },
        {
          "internalType": "string",
          "name": "_birthDay",
          "type": "string"
        },
        {
          "internalType": "string",
          "name": "_professionalTitle",
          "type": "string"
        },
        {
          "internalType": "string",
          "name": "_email",
          "type": "string"
        },
        {
          "internalType": "string",
          "name": "_github",
          "type": "string"
        },
        {
          "internalType": "string",
          "name": "_linkedin",
          "type": "string"
        }
      ],
      "name": "editSV",
      "outputs": [],
      "stateMutability": "nonpayable",
      "type": "function"
    },
    {
      "inputs": [],
      "name": "getListSV",
      "outputs": [
        {
          "internalType": "address[]",
          "name": "",
          "type": "address[]"
        },
        {
          "internalType": "string[]",
          "name": "",
          "type": "string[]"
        },
        {
          "internalType": "string[]",
          "name": "",
          "type": "string[]"
        },
        {
          "internalType": "string[]",
          "name": "",
          "type": "string[]"
        },
        {
          "internalType": "string[]",
          "name": "",
          "type": "string[]"
        },
        {
          "internalType": "string[]",
          "name": "",
          "type": "string[]"
        },
        {
          "internalType": "string[]",
          "name": "",
          "type": "string[]"
        },
        {
          "internalType": "string[]",
          "name": "",
          "type": "string[]"
        }
      ],
      "stateMutability": "view",
      "type": "function"
    },
    {
      "inputs": [
        {
          "internalType": "address",
          "name": "_studentOwner",
          "type": "address"
        }
      ],
      "name": "getProfile",
      "outputs": [
        {
          "internalType": "address",
          "name": "studentOwner",
          "type": "address"
        },
        {
          "internalType": "string",
          "name": "name",
          "type": "string"
        },
        {
          "internalType": "string",
          "name": "birthDay",
          "type": "string"
        },
        {
          "internalType": "string",
          "name": "professionalTitle",
          "type": "string"
        },
        {
          "internalType": "string",
          "name": "email",
          "type": "string"
        },
        {
          "internalType": "string",
          "name": "github",
          "type": "string"
        },
        {
          "internalType": "string",
          "name": "linkedin",
          "type": "string"
        },
        {
          "internalType": "string",
          "name": "password",
          "type": "string"
        }
      ],
      "stateMutability": "view",
      "type": "function"
    },
    {
      "inputs": [
        {
          "internalType": "address",
          "name": "_studentOwner",
          "type": "address"
        },
        {
          "internalType": "string",
          "name": "_password",
          "type": "string"
        }
      ],
      "name": "checkSV",
      "outputs": [
        {
          "internalType": "uint256",
          "name": "x",
          "type": "uint256"
        }
      ],
      "stateMutability": "view",
      "type": "function"
    },
    {
      "inputs": [
        {
          "internalType": "address",
          "name": "_studentOwner",
          "type": "address"
        }
      ],
      "name": "checkExistSV",
      "outputs": [
        {
          "internalType": "uint256",
          "name": "x",
          "type": "uint256"
        }
      ],
      "stateMutability": "view",
      "type": "function"
    },
    {
      "inputs": [
        {
          "internalType": "address",
          "name": "_studentOwner",
          "type": "address"
        },
        {
          "internalType": "string",
          "name": "_title",
          "type": "string"
        },
        {
          "internalType": "uint256",
          "name": "_level",
          "type": "uint256"
        }
      ],
      "name": "addSkill",
      "outputs": [],
      "stateMutability": "nonpayable",
      "type": "function"
    },
    {
      "inputs": [
        {
          "internalType": "address",
          "name": "_studentOwner",
          "type": "address"
        },
        {
          "internalType": "string",
          "name": "_title",
          "type": "string"
        },
        {
          "internalType": "uint256",
          "name": "_level",
          "type": "uint256"
        }
      ],
      "name": "editSkill",
      "outputs": [],
      "stateMutability": "nonpayable",
      "type": "function"
    },
    {
      "inputs": [
        {
          "internalType": "address",
          "name": "_studentOwner",
          "type": "address"
        },
        {
          "internalType": "string",
          "name": "_title",
          "type": "string"
        }
      ],
      "name": "checkSkill",
      "outputs": [
        {
          "internalType": "uint256",
          "name": "x",
          "type": "uint256"
        }
      ],
      "stateMutability": "view",
      "type": "function"
    },
    {
      "inputs": [
        {
          "internalType": "address",
          "name": "_studentOwner",
          "type": "address"
        }
      ],
      "name": "checkNumSkill",
      "outputs": [
        {
          "internalType": "uint256",
          "name": "x",
          "type": "uint256"
        }
      ],
      "stateMutability": "view",
      "type": "function"
    },
    {
      "inputs": [
        {
          "internalType": "address",
          "name": "_studentOwner",
          "type": "address"
        }
      ],
      "name": "getSkill",
      "outputs": [
        {
          "internalType": "string[]",
          "name": "",
          "type": "string[]"
        },
        {
          "internalType": "uint256[]",
          "name": "",
          "type": "uint256[]"
        }
      ],
      "stateMutability": "view",
      "type": "function"
    }
  ],
  "bytecode": "0x608060405234801561001057600080fd5b50613170806100206000396000f3fe608060405234801561001057600080fd5b50600436106100cf5760003560e01c8063716b5ab41161008c5780639fea8e10116100665780639fea8e101461026c578063a06b883d14610288578063ac4b2049146102a4578063d64b6913146102d5576100cf565b8063716b5ab4146101dc5780638e8913931461020c578063961ecb5b1461023c576100cf565b80630f53a470146100d4578063174ceeab1461010b5780633aff2cc51461013b5780636098b0dd1461016d57806360ccb2041461018957806367047107146101a5575b600080fd5b6100ee60048036038101906100e99190612432565b6102fa565b604051610102989796959493929190612507565b60405180910390f35b610125600480360381019061012091906126eb565b6108e3565b6040516101329190612760565b60405180910390f35b610155600480360381019061015091906127a7565b6109e1565b604051610164939291906127d4565b60405180910390f35b61018760048036038101906101829190612812565b610ac3565b005b6101a3600480360381019061019e919061295c565b610cc6565b005b6101bf60048036038101906101ba91906127a7565b610de8565b6040516101d3989796959493929190612507565b60405180910390f35b6101f660048036038101906101f191906126eb565b611218565b6040516102039190612760565b60405180910390f35b61022660048036038101906102219190612432565b611316565b6040516102339190612760565b60405180910390f35b61025660048036038101906102519190612432565b6113d3565b6040516102639190612760565b60405180910390f35b610286600480360381019061028191906129cb565b611485565b005b6102a2600480360381019061029d919061295c565b61161e565b005b6102be60048036038101906102b99190612432565b611789565b6040516102cc929190612d0f565b60405180910390f35b6102dd6119f1565b6040516102f1989796959493929190612e04565b60405180910390f35b6000606080606080606080606060005b6000805490508110156108d6578973ffffffffffffffffffffffffffffffffffffffff166000828154811061034257610341612eba565b5b906000526020600020906008020160000160009054906101000a900473ffffffffffffffffffffffffffffffffffffffff1673ffffffffffffffffffffffffffffffffffffffff1614156108c357600081815481106103a4576103a3612eba565b5b906000526020600020906008020160000160009054906101000a900473ffffffffffffffffffffffffffffffffffffffff16600082815481106103ea576103e9612eba565b5b90600052602060002090600802016001016000838154811061040f5761040e612eba565b5b90600052602060002090600802016002016000848154811061043457610433612eba565b5b90600052602060002090600802016003016000858154811061045957610458612eba565b5b90600052602060002090600802016004016000868154811061047e5761047d612eba565b5b9060005260206000209060080201600501600087815481106104a3576104a2612eba565b5b9060005260206000209060080201600601600088815481106104c8576104c7612eba565b5b90600052602060002090600802016007018680546104e590612f18565b80601f016020809104026020016040519081016040528092919081815260200182805461051190612f18565b801561055e5780601f106105335761010080835404028352916020019161055e565b820191906000526020600020905b81548152906001019060200180831161054157829003601f168201915b5050505050965085805461057190612f18565b80601f016020809104026020016040519081016040528092919081815260200182805461059d90612f18565b80156105ea5780601f106105bf576101008083540402835291602001916105ea565b820191906000526020600020905b8154815290600101906020018083116105cd57829003601f168201915b505050505095508480546105fd90612f18565b80601f016020809104026020016040519081016040528092919081815260200182805461062990612f18565b80156106765780601f1061064b57610100808354040283529160200191610676565b820191906000526020600020905b81548152906001019060200180831161065957829003601f168201915b5050505050945083805461068990612f18565b80601f01602080910402602001604051908101604052809291908181526020018280546106b590612f18565b80156107025780601f106106d757610100808354040283529160200191610702565b820191906000526020600020905b8154815290600101906020018083116106e557829003601f168201915b5050505050935082805461071590612f18565b80601f016020809104026020016040519081016040528092919081815260200182805461074190612f18565b801561078e5780601f106107635761010080835404028352916020019161078e565b820191906000526020600020905b81548152906001019060200180831161077157829003601f168201915b505050505092508180546107a190612f18565b80601f01602080910402602001604051908101604052809291908181526020018280546107cd90612f18565b801561081a5780601f106107ef5761010080835404028352916020019161081a565b820191906000526020600020905b8154815290600101906020018083116107fd57829003601f168201915b5050505050915080805461082d90612f18565b80601f016020809104026020016040519081016040528092919081815260200182805461085990612f18565b80156108a65780601f1061087b576101008083540402835291602001916108a6565b820191906000526020600020905b81548152906001019060200180831161088957829003601f168201915b5050505050905098509850985098509850985098509850506108d8565b80806108ce90612f79565b91505061030a565b505b919395975091939597565b600080600090505b6000805490508110156109d9578373ffffffffffffffffffffffffffffffffffffffff166000828154811061092357610922612eba565b5b906000526020600020906008020160000160009054906101000a900473ffffffffffffffffffffffffffffffffffffffff1673ffffffffffffffffffffffffffffffffffffffff161480156109b7575082805190602001206000828154811061098f5761098e612eba565b5b90600052602060002090600802016007016040516109ad9190613061565b6040518091039020145b156109c65760019150506109db565b80806109d190612f79565b9150506108eb565b505b92915050565b600181815481106109f157600080fd5b90600052602060002090600302016000915090508060000160009054906101000a900473ffffffffffffffffffffffffffffffffffffffff1690806001018054610a3a90612f18565b80601f0160208091040260200160405190810160405280929190818152602001828054610a6690612f18565b8015610ab35780601f10610a8857610100808354040283529160200191610ab3565b820191906000526020600020905b815481529060010190602001808311610a9657829003601f168201915b5050505050908060020154905083565b60005b600080549050811015610cbc578773ffffffffffffffffffffffffffffffffffffffff1660008281548110610afe57610afd612eba565b5b906000526020600020906008020160000160009054906101000a900473ffffffffffffffffffffffffffffffffffffffff1673ffffffffffffffffffffffffffffffffffffffff161415610ca9578660008281548110610b6157610b60612eba565b5b90600052602060002090600802016001019080519060200190610b8592919061231d565b508560008281548110610b9b57610b9a612eba565b5b90600052602060002090600802016002019080519060200190610bbf92919061231d565b508460008281548110610bd557610bd4612eba565b5b90600052602060002090600802016003019080519060200190610bf992919061231d565b508360008281548110610c0f57610c0e612eba565b5b90600052602060002090600802016004019080519060200190610c3392919061231d565b508260008281548110610c4957610c48612eba565b5b90600052602060002090600802016005019080519060200190610c6d92919061231d565b508160008281548110610c8357610c82612eba565b5b90600052602060002090600802016006019080519060200190610ca792919061231d565b505b8080610cb490612f79565b915050610ac6565b5050505050505050565b60008110158015610cd8575060648111155b610d17576040517f08c379a0000000000000000000000000000000000000000000000000000000008152600401610d0e906130c4565b60405180910390fd5b600160405180606001604052808573ffffffffffffffffffffffffffffffffffffffff16815260200184815260200183815250908060018154018082558091505060019003906000526020600020906003020160009091909190915060008201518160000160006101000a81548173ffffffffffffffffffffffffffffffffffffffff021916908373ffffffffffffffffffffffffffffffffffffffff1602179055506020820151816001019080519060200190610dd692919061231d565b50604082015181600201555050505050565b60008181548110610df857600080fd5b90600052602060002090600802016000915090508060000160009054906101000a900473ffffffffffffffffffffffffffffffffffffffff1690806001018054610e4190612f18565b80601f0160208091040260200160405190810160405280929190818152602001828054610e6d90612f18565b8015610eba5780601f10610e8f57610100808354040283529160200191610eba565b820191906000526020600020905b815481529060010190602001808311610e9d57829003601f168201915b505050505090806002018054610ecf90612f18565b80601f0160208091040260200160405190810160405280929190818152602001828054610efb90612f18565b8015610f485780601f10610f1d57610100808354040283529160200191610f48565b820191906000526020600020905b815481529060010190602001808311610f2b57829003601f168201915b505050505090806003018054610f5d90612f18565b80601f0160208091040260200160405190810160405280929190818152602001828054610f8990612f18565b8015610fd65780601f10610fab57610100808354040283529160200191610fd6565b820191906000526020600020905b815481529060010190602001808311610fb957829003601f168201915b505050505090806004018054610feb90612f18565b80601f016020809104026020016040519081016040528092919081815260200182805461101790612f18565b80156110645780601f1061103957610100808354040283529160200191611064565b820191906000526020600020905b81548152906001019060200180831161104757829003601f168201915b50505050509080600501805461107990612f18565b80601f01602080910402602001604051908101604052809291908181526020018280546110a590612f18565b80156110f25780601f106110c7576101008083540402835291602001916110f2565b820191906000526020600020905b8154815290600101906020018083116110d557829003601f168201915b50505050509080600601805461110790612f18565b80601f016020809104026020016040519081016040528092919081815260200182805461113390612f18565b80156111805780601f1061115557610100808354040283529160200191611180565b820191906000526020600020905b81548152906001019060200180831161116357829003601f168201915b50505050509080600701805461119590612f18565b80601f01602080910402602001604051908101604052809291908181526020018280546111c190612f18565b801561120e5780601f106111e35761010080835404028352916020019161120e565b820191906000526020600020905b8154815290600101906020018083116111f157829003601f168201915b5050505050905088565b600080600090505b60018054905081101561130e578373ffffffffffffffffffffffffffffffffffffffff166001828154811061125857611257612eba565b5b906000526020600020906003020160000160009054906101000a900473ffffffffffffffffffffffffffffffffffffffff1673ffffffffffffffffffffffffffffffffffffffff161480156112ec57508280519060200120600182815481106112c4576112c3612eba565b5b90600052602060002090600302016001016040516112e29190613061565b6040518091039020145b156112fb576001915050611310565b808061130690612f79565b915050611220565b505b92915050565b6000806000905060005b6001805490508110156113c9578373ffffffffffffffffffffffffffffffffffffffff166001828154811061135857611357612eba565b5b906000526020600020906003020160000160009054906101000a900473ffffffffffffffffffffffffffffffffffffffff1673ffffffffffffffffffffffffffffffffffffffff1614156113b6576001826113b391906130e4565b91505b80806113c190612f79565b915050611320565b5080915050919050565b600080600090505b60008054905081101561147e578273ffffffffffffffffffffffffffffffffffffffff166000828154811061141357611412612eba565b5b906000526020600020906008020160000160009054906101000a900473ffffffffffffffffffffffffffffffffffffffff1673ffffffffffffffffffffffffffffffffffffffff16141561146b576001915050611480565b808061147690612f79565b9150506113db565b505b919050565b60006040518061010001604052808a73ffffffffffffffffffffffffffffffffffffffff16815260200189815260200188815260200187815260200186815260200185815260200184815260200183815250908060018154018082558091505060019003906000526020600020906008020160009091909190915060008201518160000160006101000a81548173ffffffffffffffffffffffffffffffffffffffff021916908373ffffffffffffffffffffffffffffffffffffffff160217905550602082015181600101908051906020019061156392919061231d565b50604082015181600201908051906020019061158092919061231d565b50606082015181600301908051906020019061159d92919061231d565b5060808201518160040190805190602001906115ba92919061231d565b5060a08201518160050190805190602001906115d792919061231d565b5060c08201518160060190805190602001906115f492919061231d565b5060e082015181600701908051906020019061161192919061231d565b5050505050505050505050565b60005b600180549050811015611783578373ffffffffffffffffffffffffffffffffffffffff166001828154811061165957611658612eba565b5b906000526020600020906003020160000160009054906101000a900473ffffffffffffffffffffffffffffffffffffffff1673ffffffffffffffffffffffffffffffffffffffff1614156117705783600182815481106116bc576116bb612eba565b5b906000526020600020906003020160000160006101000a81548173ffffffffffffffffffffffffffffffffffffffff021916908373ffffffffffffffffffffffffffffffffffffffff16021790555082600182815481106117205761171f612eba565b5b9060005260206000209060030201600101908051906020019061174492919061231d565b50816001828154811061175a57611759612eba565b5b9060005260206000209060030201600201819055505b808061177b90612f79565b915050611621565b50505050565b606080600060018054905067ffffffffffffffff8111156117ad576117ac6125c0565b5b6040519080825280602002602001820160405280156117e057816020015b60608152602001906001900390816117cb5790505b509050600060018054905067ffffffffffffffff811115611804576118036125c0565b5b6040519080825280602002602001820160405280156118325781602001602082028036833780820191505090505b50905060005b6001805490508110156119e3578573ffffffffffffffffffffffffffffffffffffffff16600182815481106118705761186f612eba565b5b906000526020600020906003020160000160009054906101000a900473ffffffffffffffffffffffffffffffffffffffff1673ffffffffffffffffffffffffffffffffffffffff1614156119d057600181815481106118d2576118d1612eba565b5b906000526020600020906003020160010180546118ee90612f18565b80601f016020809104026020016040519081016040528092919081815260200182805461191a90612f18565b80156119675780601f1061193c57610100808354040283529160200191611967565b820191906000526020600020905b81548152906001019060200180831161194a57829003601f168201915b505050505083828151811061197f5761197e612eba565b5b60200260200101819052506001818154811061199e5761199d612eba565b5b9060005260206000209060030201600201548282815181106119c3576119c2612eba565b5b6020026020010181815250505b80806119db90612f79565b915050611838565b508181935093505050915091565b6060806060806060806060806000808054905067ffffffffffffffff811115611a1d57611a1c6125c0565b5b604051908082528060200260200182016040528015611a4b5781602001602082028036833780820191505090505b5090506000808054905067ffffffffffffffff811115611a6e57611a6d6125c0565b5b604051908082528060200260200182016040528015611aa157816020015b6060815260200190600190039081611a8c5790505b5090506000808054905067ffffffffffffffff811115611ac457611ac36125c0565b5b604051908082528060200260200182016040528015611af757816020015b6060815260200190600190039081611ae25790505b5090506000808054905067ffffffffffffffff811115611b1a57611b196125c0565b5b604051908082528060200260200182016040528015611b4d57816020015b6060815260200190600190039081611b385790505b5090506000808054905067ffffffffffffffff811115611b7057611b6f6125c0565b5b604051908082528060200260200182016040528015611ba357816020015b6060815260200190600190039081611b8e5790505b5090506000808054905067ffffffffffffffff811115611bc657611bc56125c0565b5b604051908082528060200260200182016040528015611bf957816020015b6060815260200190600190039081611be45790505b5090506000808054905067ffffffffffffffff811115611c1c57611c1b6125c0565b5b604051908082528060200260200182016040528015611c4f57816020015b6060815260200190600190039081611c3a5790505b5090506000808054905067ffffffffffffffff811115611c7257611c716125c0565b5b604051908082528060200260200182016040528015611ca557816020015b6060815260200190600190039081611c905790505b50905060005b6000805490508110156122f25760008181548110611ccc57611ccb612eba565b5b906000526020600020906008020160000160009054906101000a900473ffffffffffffffffffffffffffffffffffffffff16898281518110611d1157611d10612eba565b5b602002602001019073ffffffffffffffffffffffffffffffffffffffff16908173ffffffffffffffffffffffffffffffffffffffff168152505060008181548110611d5f57611d5e612eba565b5b90600052602060002090600802016001018054611d7b90612f18565b80601f0160208091040260200160405190810160405280929190818152602001828054611da790612f18565b8015611df45780601f10611dc957610100808354040283529160200191611df4565b820191906000526020600020905b815481529060010190602001808311611dd757829003601f168201915b5050505050888281518110611e0c57611e0b612eba565b5b602002602001018190525060008181548110611e2b57611e2a612eba565b5b90600052602060002090600802016002018054611e4790612f18565b80601f0160208091040260200160405190810160405280929190818152602001828054611e7390612f18565b8015611ec05780601f10611e9557610100808354040283529160200191611ec0565b820191906000526020600020905b815481529060010190602001808311611ea357829003601f168201915b5050505050878281518110611ed857611ed7612eba565b5b602002602001018190525060008181548110611ef757611ef6612eba565b5b90600052602060002090600802016003018054611f1390612f18565b80601f0160208091040260200160405190810160405280929190818152602001828054611f3f90612f18565b8015611f8c5780601f10611f6157610100808354040283529160200191611f8c565b820191906000526020600020905b815481529060010190602001808311611f6f57829003601f168201915b5050505050868281518110611fa457611fa3612eba565b5b602002602001018190525060008181548110611fc357611fc2612eba565b5b90600052602060002090600802016004018054611fdf90612f18565b80601f016020809104026020016040519081016040528092919081815260200182805461200b90612f18565b80156120585780601f1061202d57610100808354040283529160200191612058565b820191906000526020600020905b81548152906001019060200180831161203b57829003601f168201915b50505050508582815181106120705761206f612eba565b5b60200260200101819052506000818154811061208f5761208e612eba565b5b906000526020600020906008020160050180546120ab90612f18565b80601f01602080910402602001604051908101604052809291908181526020018280546120d790612f18565b80156121245780601f106120f957610100808354040283529160200191612124565b820191906000526020600020905b81548152906001019060200180831161210757829003601f168201915b505050505084828151811061213c5761213b612eba565b5b60200260200101819052506000818154811061215b5761215a612eba565b5b9060005260206000209060080201600601805461217790612f18565b80601f01602080910402602001604051908101604052809291908181526020018280546121a390612f18565b80156121f05780601f106121c5576101008083540402835291602001916121f0565b820191906000526020600020905b8154815290600101906020018083116121d357829003601f168201915b505050505083828151811061220857612207612eba565b5b60200260200101819052506000818154811061222757612226612eba565b5b9060005260206000209060080201600701805461224390612f18565b80601f016020809104026020016040519081016040528092919081815260200182805461226f90612f18565b80156122bc5780601f10612291576101008083540402835291602001916122bc565b820191906000526020600020905b81548152906001019060200180831161229f57829003601f168201915b50505050508282815181106122d4576122d3612eba565b5b602002602001018190525080806122ea90612f79565b915050611cab565b5087878787878787879f509f509f509f509f509f509f509f5050505050505050509091929394959697565b82805461232990612f18565b90600052602060002090601f01602090048101928261234b5760008555612392565b82601f1061236457805160ff1916838001178555612392565b82800160010185558215612392579182015b82811115612391578251825591602001919060010190612376565b5b50905061239f91906123a3565b5090565b5b808211156123bc5760008160009055506001016123a4565b5090565b6000604051905090565b600080fd5b600080fd5b600073ffffffffffffffffffffffffffffffffffffffff82169050919050565b60006123ff826123d4565b9050919050565b61240f816123f4565b811461241a57600080fd5b50565b60008135905061242c81612406565b92915050565b600060208284031215612448576124476123ca565b5b60006124568482850161241d565b91505092915050565b612468816123f4565b82525050565b600081519050919050565b600082825260208201905092915050565b60005b838110156124a857808201518184015260208101905061248d565b838111156124b7576000848401525b50505050565b6000601f19601f8301169050919050565b60006124d98261246e565b6124e38185612479565b93506124f381856020860161248a565b6124fc816124bd565b840191505092915050565b60006101008201905061251d600083018b61245f565b818103602083015261252f818a6124ce565b9050818103604083015261254381896124ce565b9050818103606083015261255781886124ce565b9050818103608083015261256b81876124ce565b905081810360a083015261257f81866124ce565b905081810360c083015261259381856124ce565b905081810360e08301526125a781846124ce565b90509998505050505050505050565b600080fd5b600080fd5b7f4e487b7100000000000000000000000000000000000000000000000000000000600052604160045260246000fd5b6125f8826124bd565b810181811067ffffffffffffffff82111715612617576126166125c0565b5b80604052505050565b600061262a6123c0565b905061263682826125ef565b919050565b600067ffffffffffffffff821115612656576126556125c0565b5b61265f826124bd565b9050602081019050919050565b82818337600083830152505050565b600061268e6126898461263b565b612620565b9050828152602081018484840111156126aa576126a96125bb565b5b6126b584828561266c565b509392505050565b600082601f8301126126d2576126d16125b6565b5b81356126e284826020860161267b565b91505092915050565b60008060408385031215612702576127016123ca565b5b60006127108582860161241d565b925050602083013567ffffffffffffffff811115612731576127306123cf565b5b61273d858286016126bd565b9150509250929050565b6000819050919050565b61275a81612747565b82525050565b60006020820190506127756000830184612751565b92915050565b61278481612747565b811461278f57600080fd5b50565b6000813590506127a18161277b565b92915050565b6000602082840312156127bd576127bc6123ca565b5b60006127cb84828501612792565b91505092915050565b60006060820190506127e9600083018661245f565b81810360208301526127fb81856124ce565b905061280a6040830184612751565b949350505050565b600080600080600080600060e0888a031215612831576128306123ca565b5b600061283f8a828b0161241d565b975050602088013567ffffffffffffffff8111156128605761285f6123cf565b5b61286c8a828b016126bd565b965050604088013567ffffffffffffffff81111561288d5761288c6123cf565b5b6128998a828b016126bd565b955050606088013567ffffffffffffffff8111156128ba576128b96123cf565b5b6128c68a828b016126bd565b945050608088013567ffffffffffffffff8111156128e7576128e66123cf565b5b6128f38a828b016126bd565b93505060a088013567ffffffffffffffff811115612914576129136123cf565b5b6129208a828b016126bd565b92505060c088013567ffffffffffffffff811115612941576129406123cf565b5b61294d8a828b016126bd565b91505092959891949750929550565b600080600060608486031215612975576129746123ca565b5b60006129838682870161241d565b935050602084013567ffffffffffffffff8111156129a4576129a36123cf565b5b6129b0868287016126bd565b92505060406129c186828701612792565b9150509250925092565b600080600080600080600080610100898b0312156129ec576129eb6123ca565b5b60006129fa8b828c0161241d565b985050602089013567ffffffffffffffff811115612a1b57612a1a6123cf565b5b612a278b828c016126bd565b975050604089013567ffffffffffffffff811115612a4857612a476123cf565b5b612a548b828c016126bd565b965050606089013567ffffffffffffffff811115612a7557612a746123cf565b5b612a818b828c016126bd565b955050608089013567ffffffffffffffff811115612aa257612aa16123cf565b5b612aae8b828c016126bd565b94505060a089013567ffffffffffffffff811115612acf57612ace6123cf565b5b612adb8b828c016126bd565b93505060c089013567ffffffffffffffff811115612afc57612afb6123cf565b5b612b088b828c016126bd565b92505060e089013567ffffffffffffffff811115612b2957612b286123cf565b5b612b358b828c016126bd565b9150509295985092959890939650565b600081519050919050565b600082825260208201905092915050565b6000819050602082019050919050565b600082825260208201905092915050565b6000612b8d8261246e565b612b978185612b71565b9350612ba781856020860161248a565b612bb0816124bd565b840191505092915050565b6000612bc78383612b82565b905092915050565b6000602082019050919050565b6000612be782612b45565b612bf18185612b50565b935083602082028501612c0385612b61565b8060005b85811015612c3f5784840389528151612c208582612bbb565b9450612c2b83612bcf565b925060208a01995050600181019050612c07565b50829750879550505050505092915050565b600081519050919050565b600082825260208201905092915050565b6000819050602082019050919050565b612c8681612747565b82525050565b6000612c988383612c7d565b60208301905092915050565b6000602082019050919050565b6000612cbc82612c51565b612cc68185612c5c565b9350612cd183612c6d565b8060005b83811015612d02578151612ce98882612c8c565b9750612cf483612ca4565b925050600181019050612cd5565b5085935050505092915050565b60006040820190508181036000830152612d298185612bdc565b90508181036020830152612d3d8184612cb1565b90509392505050565b600081519050919050565b600082825260208201905092915050565b6000819050602082019050919050565b612d7b816123f4565b82525050565b6000612d8d8383612d72565b60208301905092915050565b6000602082019050919050565b6000612db182612d46565b612dbb8185612d51565b9350612dc683612d62565b8060005b83811015612df7578151612dde8882612d81565b9750612de983612d99565b925050600181019050612dca565b5085935050505092915050565b6000610100820190508181036000830152612e1f818b612da6565b90508181036020830152612e33818a612bdc565b90508181036040830152612e478189612bdc565b90508181036060830152612e5b8188612bdc565b90508181036080830152612e6f8187612bdc565b905081810360a0830152612e838186612bdc565b905081810360c0830152612e978185612bdc565b905081810360e0830152612eab8184612bdc565b90509998505050505050505050565b7f4e487b7100000000000000000000000000000000000000000000000000000000600052603260045260246000fd5b7f4e487b7100000000000000000000000000000000000000000000000000000000600052602260045260246000fd5b60006002820490506001821680612f3057607f821691505b60208210811415612f4457612f43612ee9565b5b50919050565b7f4e487b7100000000000000000000000000000000000000000000000000000000600052601160045260246000fd5b6000612f8482612747565b91507fffffffffffffffffffffffffffffffffffffffffffffffffffffffffffffffff821415612fb757612fb6612f4a565b5b600182019050919050565b600081905092915050565b60008190508160005260206000209050919050565b60008154612fef81612f18565b612ff98186612fc2565b94506001821660008114613014576001811461302557613058565b60ff19831686528186019350613058565b61302e85612fcd565b60005b8381101561305057815481890152600182019150602081019050613031565b838801955050505b50505092915050565b600061306d8284612fe2565b915081905092915050565b7f4c6576656c206f6620736b696c6c20696e636f72726563742e00000000000000600082015250565b60006130ae601983612479565b91506130b982613078565b602082019050919050565b600060208201905081810360008301526130dd816130a1565b9050919050565b60006130ef82612747565b91506130fa83612747565b9250827fffffffffffffffffffffffffffffffffffffffffffffffffffffffffffffffff0382111561312f5761312e612f4a565b5b82820190509291505056fea2646970667358221220089288158dd02f29e5e18680b51ee438273f32ff7570b7d5b3a4686f642d15bf64736f6c634300080b0033",
  "immutableReferences": {},
  "source": "// SPDX-License-Identifier: MIT\r\npragma solidity >=0.4.22 <0.9.0;\r\n\r\n// Lu tr danh sch sinh vin\r\ncontract ListStudent {\r\n\r\n    // Khai bo cu trc lu tr thng tin sinh vin\r\n    struct ListSV {\r\n        address studentOwner;\r\n        string name; \r\n        string birthDay; \r\n        string professionalTitle;\r\n        string email;\r\n        string github; \r\n        string linkedin;\r\n        string password;\r\n    }\r\n\r\n    // Khai bo cu trc lu tr thng tin k nng ca sinh vin\r\n    struct ListSkill {\r\n        address studentOwner;\r\n        string title; \r\n        uint level;\r\n    }\r\n\r\n    // Khai bo cc mng  lu tr thng tin\r\n    ListSV[] public listSVs;\r\n    ListSkill[] public listSkills;\r\n\r\n    // Chc nng thm thng tin sinh vin\r\n    function addSV (\r\n        address _studentOwner,\r\n        string memory _name,\r\n        string memory _birthDay,\r\n        string memory _professionalTitle,\r\n        string memory _email,\r\n        string memory _github,\r\n        string memory _linked,\r\n        string memory _password) public {\r\n            listSVs.push(\r\n                ListSV(_studentOwner, \r\n                        _name, \r\n                        _birthDay, \r\n                        _professionalTitle, \r\n                        _email, \r\n                        _github, \r\n                        _linked, \r\n                        _password)\r\n                );\r\n    }\r\n\r\n    // Chc nng chnh sa thng tin sinh vin\r\n    function editSV (\r\n        address _studentOwner,\r\n        string memory _name,\r\n        string memory _birthDay,\r\n        string memory _professionalTitle,\r\n        string memory _email,\r\n        string memory _github,\r\n        string memory _linkedin) public {\r\n            for(uint i=0; i<listSVs.length;i++){\r\n                if(listSVs[i].studentOwner == _studentOwner){\r\n                    listSVs[i].name = _name;\r\n                    listSVs[i].birthDay = _birthDay;\r\n                    listSVs[i].professionalTitle = _professionalTitle;\r\n                    listSVs[i].email = _email;\r\n                    listSVs[i].github = _github; \r\n                    listSVs[i].linkedin = _linkedin;\r\n                }\r\n            }\r\n    }\r\n\r\n    // Chc nng ly danh sch sinh vin  thm\r\n    function getListSV() public view returns(\r\n        address[] memory, \r\n        string[] memory, \r\n        string[] memory, \r\n        string[] memory, \r\n        string[] memory, \r\n        string[] memory, \r\n        string[] memory, \r\n        string[] memory) {\r\n            address[] memory studentOwners = new address[](listSVs.length);\r\n            string[] memory names = new string[](listSVs.length);\r\n            string[] memory birthDays = new string[](listSVs.length);\r\n            string[] memory professionalTitles = new string[](listSVs.length);\r\n            string[] memory emails = new string[](listSVs.length);\r\n            string[] memory githubs = new string[](listSVs.length);\r\n            string[] memory linkedins = new string[](listSVs.length);\r\n            string[] memory passwords = new string[](listSVs.length);\r\n            for(uint i=0; i<listSVs.length;i++){\r\n                studentOwners[i] = listSVs[i].studentOwner;\r\n                names[i] = listSVs[i].name;\r\n                birthDays[i] = listSVs[i].birthDay;\r\n                professionalTitles[i] = listSVs[i].professionalTitle;\r\n                emails[i] = listSVs[i].email;\r\n                githubs[i] = listSVs[i].github;\r\n                linkedins[i] = listSVs[i].linkedin;\r\n                passwords[i] = listSVs[i].password;\r\n            }\r\n            return (studentOwners, names, birthDays, professionalTitles, emails, githubs, linkedins, passwords);\r\n    }\r\n\r\n    // Chc nng ly thng tin ca sinh vin\r\n    function getProfile(address _studentOwner) public view returns(\r\n        address studentOwner, \r\n        string memory name, \r\n        string memory birthDay, \r\n        string memory professionalTitle, \r\n        string memory email, \r\n        string memory github, \r\n        string memory linkedin,\r\n        string memory password) {\r\n            for(uint i=0; i<listSVs.length;i++){\r\n                if(listSVs[i].studentOwner == _studentOwner){\r\n                    return (listSVs[i].studentOwner,\r\n                            listSVs[i].name, \r\n                            listSVs[i].birthDay, \r\n                            listSVs[i].professionalTitle, \r\n                            listSVs[i].email, \r\n                            listSVs[i].github, \r\n                            listSVs[i].linkedin,\r\n                            listSVs[i].password);\r\n                }\r\n            }\r\n    }\r\n\r\n    // Chc nng kim tra sinh vin  ng k hay cha?\r\n    function checkSV(\r\n        address _studentOwner, \r\n        string memory _password) public view returns(uint x) {\r\n            for(uint i=0; i<listSVs.length; i++){\r\n                if((listSVs[i].studentOwner == _studentOwner) && (keccak256(bytes(listSVs[i].password)) == keccak256(bytes(_password)))){\r\n                    return 1;\r\n                }\r\n            }\r\n    }\r\n\r\n    // Chc nng kim tra a ch sinh vin  tn ti hay cha?\r\n    function checkExistSV(address _studentOwner) public view returns(uint x) {\r\n            for(uint i=0; i<listSVs.length; i++){\r\n                if(listSVs[i].studentOwner == _studentOwner){\r\n                    return 1;\r\n                }\r\n            }\r\n    }\r\n\r\n    // Chc nng thm thng tin k nng ca sinh vin\r\n    function addSkill(\r\n        address _studentOwner,\r\n        string memory _title, \r\n        uint _level) public {\r\n            require(_level >=0 && _level <=100, \"Level of skill incorrect.\"); //Mc  ca k nng c tnh theo thang im t 0 n 100\r\n            listSkills.push(\r\n                ListSkill(_studentOwner, \r\n                            _title, \r\n                            _level)\r\n                );\r\n    }\r\n\r\n    // Chc nng chnh sa thng tin k nng ca sinh vin\r\n    function editSkill (\r\n        address _studentOwner,\r\n        string memory _title, \r\n        uint _level) public {\r\n            for(uint i=0; i<listSkills.length;i++){\r\n                if(listSkills[i].studentOwner == _studentOwner){\r\n                    listSkills[i].studentOwner = _studentOwner;\r\n                    listSkills[i].title = _title;\r\n                    listSkills[i].level = _level;\r\n                }\r\n            }\r\n    }\r\n\r\n    // Chc nng kim tra sinh vin  thm k nng  hay cha?\r\n    function checkSkill(\r\n        address _studentOwner, \r\n        string memory _title) public view returns(uint x) {\r\n            for(uint i=0; i<listSkills.length; i++){\r\n                if((listSkills[i].studentOwner == _studentOwner) && (keccak256(bytes(listSkills[i].title)) == keccak256(bytes(_title)))){\r\n                    return 1;\r\n                }\r\n            }\r\n    }\r\n\r\n    // Chc nng m s lng k nng ca sinh vin\r\n    function checkNumSkill(\r\n        address _studentOwner) public view returns(uint x) {\r\n            uint _count = 0;\r\n            for(uint i=0; i<listSkills.length; i++){\r\n                if(listSkills[i].studentOwner == _studentOwner){\r\n                    _count += 1;\r\n                }\r\n            }\r\n            return _count;\r\n    }\r\n\r\n    // Chc nng ly thng tin k nng ca sinh vin\r\n    function getSkill(address _studentOwner) public view returns(\r\n        string[] memory,\r\n        uint[] memory) {\r\n            string[] memory titles = new string[](listSkills.length);\r\n            uint[] memory levels = new uint[](listSkills.length);\r\n            for(uint i=0; i<listSkills.length;i++){\r\n                if(listSkills[i].studentOwner == _studentOwner) {\r\n                    titles[i] = listSkills[i].title;\r\n                    levels[i] = listSkills[i].level;\r\n                }\r\n            }\r\n            return (titles, levels);\r\n    }\r\n    \r\n}",
  "sourcePath": "C:\\Users\\19520\\Documents\\NCKH_Blockchain\\SolidityProgramming\\ProjectResearch\\SmartCV\\SmartContract\\contracts\\SmartCV_ListStudent.sol",
  "compiler": {
    "name": "solc",
    "version": "0.8.11+commit.d7f03943.Emscripten.clang"
  },
  "schemaVersion": "3.4.4",
  "updatedAt": "2022-07-25T12:14:57.895Z",
  "devdoc": {
    "kind": "dev",
    "methods": {},
    "version": 1
  },
  "userdoc": {
    "kind": "user",
    "methods": {},
    "version": 1
  }
}