{
  "contractName": "ListIIG",
  "abi": [
    {
      "inputs": [
        {
          "internalType": "uint256",
          "name": "",
          "type": "uint256"
        }
      ],
      "name": "iigInfos",
      "outputs": [
        {
          "internalType": "address",
          "name": "iigOwner",
          "type": "address"
        },
        {
          "internalType": "string",
          "name": "name",
          "type": "string"
        },
        {
          "internalType": "string",
          "name": "country",
          "type": "string"
        },
        {
          "internalType": "string",
          "name": "facebook",
          "type": "string"
        },
        {
          "internalType": "string",
          "name": "website",
          "type": "string"
        },
        {
          "internalType": "string",
          "name": "linkedin",
          "type": "string"
        },
        {
          "internalType": "string",
          "name": "password",
          "type": "string"
        }
      ],
      "stateMutability": "view",
      "type": "function"
    },
    {
      "inputs": [
        {
          "internalType": "uint256",
          "name": "",
          "type": "uint256"
        }
      ],
      "name": "iigLRResults",
      "outputs": [
        {
          "internalType": "bytes4",
          "name": "codeLRResult",
          "type": "bytes4"
        },
        {
          "internalType": "address",
          "name": "iigOwner",
          "type": "address"
        },
        {
          "internalType": "address",
          "name": "studentOwner",
          "type": "address"
        },
        {
          "internalType": "string",
          "name": "testDate",
          "type": "string"
        },
        {
          "internalType": "string",
          "name": "shiftTest",
          "type": "string"
        },
        {
          "internalType": "string",
          "name": "expireDate",
          "type": "string"
        },
        {
          "internalType": "uint256",
          "name": "listeningScore",
          "type": "uint256"
        },
        {
          "internalType": "uint256",
          "name": "readingScore",
          "type": "uint256"
        },
        {
          "internalType": "uint256",
          "name": "totalScore",
          "type": "uint256"
        }
      ],
      "stateMutability": "view",
      "type": "function"
    },
    {
      "inputs": [
        {
          "internalType": "uint256",
          "name": "",
          "type": "uint256"
        }
      ],
      "name": "iigRequests",
      "outputs": [
        {
          "internalType": "bytes4",
          "name": "codeRequest",
          "type": "bytes4"
        },
        {
          "internalType": "address",
          "name": "studentOwner",
          "type": "address"
        },
        {
          "internalType": "address",
          "name": "iigOwner",
          "type": "address"
        },
        {
          "internalType": "string",
          "name": "identityCard",
          "type": "string"
        },
        {
          "internalType": "string",
          "name": "requestDate",
          "type": "string"
        },
        {
          "internalType": "string",
          "name": "statusRequest",
          "type": "string"
        }
      ],
      "stateMutability": "view",
      "type": "function"
    },
    {
      "inputs": [
        {
          "internalType": "uint256",
          "name": "",
          "type": "uint256"
        }
      ],
      "name": "iigSWResults",
      "outputs": [
        {
          "internalType": "bytes4",
          "name": "codeSWResult",
          "type": "bytes4"
        },
        {
          "internalType": "address",
          "name": "iigOwner",
          "type": "address"
        },
        {
          "internalType": "address",
          "name": "studentOwner",
          "type": "address"
        },
        {
          "internalType": "string",
          "name": "testDate",
          "type": "string"
        },
        {
          "internalType": "string",
          "name": "shiftTest",
          "type": "string"
        },
        {
          "internalType": "string",
          "name": "expireDate",
          "type": "string"
        },
        {
          "internalType": "uint256",
          "name": "speakingScore",
          "type": "uint256"
        },
        {
          "internalType": "uint256",
          "name": "writingScore",
          "type": "uint256"
        },
        {
          "internalType": "uint256",
          "name": "totalScore",
          "type": "uint256"
        }
      ],
      "stateMutability": "view",
      "type": "function"
    },
    {
      "inputs": [
        {
          "internalType": "address",
          "name": "_iigOwner",
          "type": "address"
        },
        {
          "internalType": "string",
          "name": "_name",
          "type": "string"
        },
        {
          "internalType": "string",
          "name": "_country",
          "type": "string"
        },
        {
          "internalType": "string",
          "name": "_facebook",
          "type": "string"
        },
        {
          "internalType": "string",
          "name": "_website",
          "type": "string"
        },
        {
          "internalType": "string",
          "name": "_linkedin",
          "type": "string"
        },
        {
          "internalType": "string",
          "name": "_password",
          "type": "string"
        }
      ],
      "name": "addIIG",
      "outputs": [],
      "stateMutability": "nonpayable",
      "type": "function"
    },
    {
      "inputs": [
        {
          "internalType": "address",
          "name": "_iigOwner",
          "type": "address"
        },
        {
          "internalType": "string",
          "name": "_name",
          "type": "string"
        },
        {
          "internalType": "string",
          "name": "_country",
          "type": "string"
        },
        {
          "internalType": "string",
          "name": "_facebook",
          "type": "string"
        },
        {
          "internalType": "string",
          "name": "_website",
          "type": "string"
        },
        {
          "internalType": "string",
          "name": "_linkedin",
          "type": "string"
        }
      ],
      "name": "editIIG",
      "outputs": [],
      "stateMutability": "nonpayable",
      "type": "function"
    },
    {
      "inputs": [],
      "name": "getListIIG",
      "outputs": [
        {
          "internalType": "address[]",
          "name": "",
          "type": "address[]"
        },
        {
          "internalType": "string[]",
          "name": "",
          "type": "string[]"
        },
        {
          "internalType": "string[]",
          "name": "",
          "type": "string[]"
        },
        {
          "internalType": "string[]",
          "name": "",
          "type": "string[]"
        },
        {
          "internalType": "string[]",
          "name": "",
          "type": "string[]"
        },
        {
          "internalType": "string[]",
          "name": "",
          "type": "string[]"
        },
        {
          "internalType": "string[]",
          "name": "",
          "type": "string[]"
        }
      ],
      "stateMutability": "view",
      "type": "function"
    },
    {
      "inputs": [
        {
          "internalType": "address",
          "name": "_iigOwner",
          "type": "address"
        }
      ],
      "name": "getProfile",
      "outputs": [
        {
          "internalType": "address",
          "name": "iigOwner",
          "type": "address"
        },
        {
          "internalType": "string",
          "name": "name",
          "type": "string"
        },
        {
          "internalType": "string",
          "name": "country",
          "type": "string"
        },
        {
          "internalType": "string",
          "name": "facebook",
          "type": "string"
        },
        {
          "internalType": "string",
          "name": "website",
          "type": "string"
        },
        {
          "internalType": "string",
          "name": "linkedin",
          "type": "string"
        }
      ],
      "stateMutability": "view",
      "type": "function"
    },
    {
      "inputs": [
        {
          "internalType": "address",
          "name": "_iigOwner",
          "type": "address"
        },
        {
          "internalType": "string",
          "name": "_password",
          "type": "string"
        }
      ],
      "name": "checkIIG",
      "outputs": [
        {
          "internalType": "uint256",
          "name": "x",
          "type": "uint256"
        }
      ],
      "stateMutability": "view",
      "type": "function"
    },
    {
      "inputs": [
        {
          "internalType": "address",
          "name": "_iigOwner",
          "type": "address"
        }
      ],
      "name": "checkExistIIG",
      "outputs": [
        {
          "internalType": "uint256",
          "name": "x",
          "type": "uint256"
        }
      ],
      "stateMutability": "view",
      "type": "function"
    },
    {
      "inputs": [
        {
          "internalType": "address",
          "name": "_studentOwner",
          "type": "address"
        },
        {
          "internalType": "address",
          "name": "_iigOwner",
          "type": "address"
        },
        {
          "internalType": "string",
          "name": "_identityCard",
          "type": "string"
        },
        {
          "internalType": "string",
          "name": "_requestDate",
          "type": "string"
        }
      ],
      "name": "addRequest",
      "outputs": [],
      "stateMutability": "nonpayable",
      "type": "function"
    },
    {
      "inputs": [
        {
          "internalType": "address",
          "name": "_iigOwner",
          "type": "address"
        }
      ],
      "name": "getListRequest",
      "outputs": [
        {
          "internalType": "bytes4[]",
          "name": "",
          "type": "bytes4[]"
        },
        {
          "internalType": "address[]",
          "name": "",
          "type": "address[]"
        },
        {
          "internalType": "address[]",
          "name": "",
          "type": "address[]"
        },
        {
          "internalType": "string[]",
          "name": "",
          "type": "string[]"
        },
        {
          "internalType": "string[]",
          "name": "",
          "type": "string[]"
        },
        {
          "internalType": "string[]",
          "name": "",
          "type": "string[]"
        }
      ],
      "stateMutability": "view",
      "type": "function"
    },
    {
      "inputs": [
        {
          "internalType": "address",
          "name": "_iigOwner",
          "type": "address"
        },
        {
          "internalType": "address",
          "name": "_studentOwner",
          "type": "address"
        }
      ],
      "name": "getListRequestStudent",
      "outputs": [
        {
          "internalType": "bytes4[]",
          "name": "",
          "type": "bytes4[]"
        },
        {
          "internalType": "address[]",
          "name": "",
          "type": "address[]"
        },
        {
          "internalType": "address[]",
          "name": "",
          "type": "address[]"
        },
        {
          "internalType": "string[]",
          "name": "",
          "type": "string[]"
        },
        {
          "internalType": "string[]",
          "name": "",
          "type": "string[]"
        },
        {
          "internalType": "string[]",
          "name": "",
          "type": "string[]"
        }
      ],
      "stateMutability": "view",
      "type": "function"
    },
    {
      "inputs": [
        {
          "internalType": "address",
          "name": "_studentOwner",
          "type": "address"
        },
        {
          "internalType": "address",
          "name": "_iigOwner",
          "type": "address"
        }
      ],
      "name": "checkRequest",
      "outputs": [
        {
          "internalType": "uint256",
          "name": "x",
          "type": "uint256"
        }
      ],
      "stateMutability": "view",
      "type": "function"
    },
    {
      "inputs": [
        {
          "internalType": "address",
          "name": "_studentOwner",
          "type": "address"
        },
        {
          "internalType": "address",
          "name": "_iigOwner",
          "type": "address"
        },
        {
          "internalType": "bytes4",
          "name": "_codeRequest",
          "type": "bytes4"
        },
        {
          "internalType": "string",
          "name": "_statusRequest",
          "type": "string"
        }
      ],
      "name": "confirmRequest",
      "outputs": [],
      "stateMutability": "nonpayable",
      "type": "function"
    },
    {
      "inputs": [
        {
          "internalType": "address",
          "name": "_iigOwner",
          "type": "address"
        },
        {
          "internalType": "address",
          "name": "_studentOwner",
          "type": "address"
        },
        {
          "internalType": "string",
          "name": "_testDate",
          "type": "string"
        },
        {
          "internalType": "string",
          "name": "_shiftTest",
          "type": "string"
        },
        {
          "internalType": "string",
          "name": "_expireDate",
          "type": "string"
        },
        {
          "internalType": "uint256",
          "name": "_listeningScore",
          "type": "uint256"
        },
        {
          "internalType": "uint256",
          "name": "_readingScore",
          "type": "uint256"
        }
      ],
      "name": "addLRResult",
      "outputs": [],
      "stateMutability": "nonpayable",
      "type": "function"
    },
    {
      "inputs": [
        {
          "internalType": "address",
          "name": "_iigOwner",
          "type": "address"
        },
        {
          "internalType": "address",
          "name": "_studentOwner",
          "type": "address"
        }
      ],
      "name": "getListLRResult",
      "outputs": [
        {
          "internalType": "string[]",
          "name": "",
          "type": "string[]"
        },
        {
          "internalType": "string[]",
          "name": "",
          "type": "string[]"
        },
        {
          "internalType": "string[]",
          "name": "",
          "type": "string[]"
        },
        {
          "internalType": "uint256[]",
          "name": "",
          "type": "uint256[]"
        },
        {
          "internalType": "uint256[]",
          "name": "",
          "type": "uint256[]"
        },
        {
          "internalType": "uint256[]",
          "name": "",
          "type": "uint256[]"
        }
      ],
      "stateMutability": "view",
      "type": "function"
    },
    {
      "inputs": [
        {
          "internalType": "address",
          "name": "_iigOwner",
          "type": "address"
        },
        {
          "internalType": "address",
          "name": "_studentOwner",
          "type": "address"
        },
        {
          "internalType": "string",
          "name": "_testDate",
          "type": "string"
        },
        {
          "internalType": "string",
          "name": "_shiftTest",
          "type": "string"
        }
      ],
      "name": "getLRResult",
      "outputs": [
        {
          "internalType": "string",
          "name": "testDate",
          "type": "string"
        },
        {
          "internalType": "string",
          "name": "shiftTest",
          "type": "string"
        },
        {
          "internalType": "string",
          "name": "expireDate",
          "type": "string"
        },
        {
          "internalType": "uint256",
          "name": "listeningScore",
          "type": "uint256"
        },
        {
          "internalType": "uint256",
          "name": "readingScore",
          "type": "uint256"
        },
        {
          "internalType": "uint256",
          "name": "totalScore",
          "type": "uint256"
        }
      ],
      "stateMutability": "view",
      "type": "function"
    },
    {
      "inputs": [
        {
          "internalType": "address",
          "name": "_studentOwner",
          "type": "address"
        },
        {
          "internalType": "string",
          "name": "_testDate",
          "type": "string"
        },
        {
          "internalType": "string",
          "name": "_shiftTest",
          "type": "string"
        }
      ],
      "name": "checkExistLRResult",
      "outputs": [
        {
          "internalType": "uint256",
          "name": "x",
          "type": "uint256"
        }
      ],
      "stateMutability": "view",
      "type": "function"
    },
    {
      "inputs": [
        {
          "internalType": "address",
          "name": "_iigOwner",
          "type": "address"
        },
        {
          "internalType": "address",
          "name": "_studentOwner",
          "type": "address"
        },
        {
          "internalType": "string",
          "name": "_testDate",
          "type": "string"
        },
        {
          "internalType": "string",
          "name": "_shiftTest",
          "type": "string"
        },
        {
          "internalType": "string",
          "name": "_expireDate",
          "type": "string"
        },
        {
          "internalType": "uint256",
          "name": "_speakingScore",
          "type": "uint256"
        },
        {
          "internalType": "uint256",
          "name": "_writingScore",
          "type": "uint256"
        }
      ],
      "name": "addSWResult",
      "outputs": [],
      "stateMutability": "nonpayable",
      "type": "function"
    },
    {
      "inputs": [
        {
          "internalType": "address",
          "name": "_iigOwner",
          "type": "address"
        },
        {
          "internalType": "address",
          "name": "_studentOwner",
          "type": "address"
        }
      ],
      "name": "getListSWResult",
      "outputs": [
        {
          "internalType": "string[]",
          "name": "",
          "type": "string[]"
        },
        {
          "internalType": "string[]",
          "name": "",
          "type": "string[]"
        },
        {
          "internalType": "string[]",
          "name": "",
          "type": "string[]"
        },
        {
          "internalType": "uint256[]",
          "name": "",
          "type": "uint256[]"
        },
        {
          "internalType": "uint256[]",
          "name": "",
          "type": "uint256[]"
        },
        {
          "internalType": "uint256[]",
          "name": "",
          "type": "uint256[]"
        }
      ],
      "stateMutability": "view",
      "type": "function"
    },
    {
      "inputs": [
        {
          "internalType": "address",
          "name": "_iigOwner",
          "type": "address"
        },
        {
          "internalType": "address",
          "name": "_studentOwner",
          "type": "address"
        },
        {
          "internalType": "string",
          "name": "_testDate",
          "type": "string"
        },
        {
          "internalType": "string",
          "name": "_shiftTest",
          "type": "string"
        }
      ],
      "name": "getSWResult",
      "outputs": [
        {
          "internalType": "string",
          "name": "testDate",
          "type": "string"
        },
        {
          "internalType": "string",
          "name": "shiftTest",
          "type": "string"
        },
        {
          "internalType": "string",
          "name": "expireDate",
          "type": "string"
        },
        {
          "internalType": "uint256",
          "name": "speakingScore",
          "type": "uint256"
        },
        {
          "internalType": "uint256",
          "name": "writingScore",
          "type": "uint256"
        },
        {
          "internalType": "uint256",
          "name": "totalScore",
          "type": "uint256"
        }
      ],
      "stateMutability": "view",
      "type": "function"
    },
    {
      "inputs": [
        {
          "internalType": "address",
          "name": "_studentOwner",
          "type": "address"
        },
        {
          "internalType": "string",
          "name": "_testDate",
          "type": "string"
        },
        {
          "internalType": "string",
          "name": "_shiftTest",
          "type": "string"
        }
      ],
      "name": "checkExistSWResult",
      "outputs": [
        {
          "internalType": "uint256",
          "name": "x",
          "type": "uint256"
        }
      ],
      "stateMutability": "view",
      "type": "function"
    }
  ],
  "bytecode": "0x608060405234801561001057600080fd5b50616b9780620000216000396000f3fe608060405234801561001057600080fd5b506004361061014c5760003560e01c80634b38f2db116100c3578063a9846eb01161007c578063a9846eb014610465578063ac97812f1461049d578063b351d176146104d2578063bc72af7d146104ee578063d23a4ee114610523578063dd8f3edc1461053f5761014c565b80634b38f2db1461036f5780636cf871df146103a45780637829b41e146103c057806384ae9131146103f0578063948195ed146104145780639fa7247a146104305761014c565b80630c3f9882116101155780630c3f9882146102385780630f53a4701461026d57806324e66037146102a2578063323cc7c5146102d257806344fd6e221461030757806349f47a55146103375761014c565b8062220cf714610151578063018d934a1461016d5780630265275c1461019d57806306ed1e89146101cd57806309bef62a14610202575b600080fd5b61016b600480360381019061016691906156ab565b61055b565b005b610187600480360381019061018291906157a1565b610868565b60405161019491906157f0565b60405180910390f35b6101b760048036038101906101b2919061580b565b610a17565b6040516101c491906157f0565b60405180910390f35b6101e760048036038101906101e291906157a1565b610b4f565b6040516101f996959493929190615a9e565b60405180910390f35b61021c60048036038101906102179190615b29565b6111c2565b60405161022f9796959493929190615baf565b60405180910390f35b610252600480360381019061024d91906157a1565b611564565b60405161026496959493929190615df0565b60405180910390f35b61028760048036038101906102829190615e7b565b611cc0565b60405161029996959493929190615ea8565b60405180910390f35b6102bc60048036038101906102b79190615f2c565b61213e565b6040516102c991906157f0565b60405180910390f35b6102ec60048036038101906102e79190615b29565b61223c565b6040516102fe96959493929190615f97565b60405180910390f35b610321600480360381019061031c9190615e7b565b61246d565b60405161032e91906157f0565b60405180910390f35b610351600480360381019061034c9190615b29565b61251f565b6040516103669998979695949392919061600d565b60405180910390f35b610389600480360381019061038491906160af565b612762565b60405161039b9695949392919061614e565b60405180910390f35b6103be60048036038101906103b991906161c4565b612bb1565b005b6103da60048036038101906103d5919061580b565b612d79565b6040516103e791906157f0565b60405180910390f35b6103f8612eb1565b60405161040b97969594939291906162dd565b60405180910390f35b61042e600480360381019061042991906160af565b6136b5565b005b61044a60048036038101906104459190615e7b565b613910565b60405161045c96959493929190615df0565b60405180910390f35b61047f600480360381019061047a9190615b29565b613fef565b6040516104949998979695949392919061600d565b60405180910390f35b6104b760048036038101906104b291906160af565b614232565b6040516104c99695949392919061614e565b60405180910390f35b6104ec60048036038101906104e791906163a9565b614681565b005b610508600480360381019061050391906157a1565b614928565b60405161051a96959493929190615a9e565b60405180910390f35b61053d600480360381019061053891906156ab565b614f9b565b005b6105596004803603810190610554919061642c565b6152a6565b005b6000610568878787610a17565b146105a8576040517f08c379a000000000000000000000000000000000000000000000000000000000815260040161059f906165c2565b60405180910390fd5b600082101580156105bb57506101ef8211155b6105fa576040517f08c379a00000000000000000000000000000000000000000000000000000000081526004016105f19061662e565b60405180910390fd5b6000811015801561060d57506101ef8111155b61064c576040517f08c379a00000000000000000000000000000000000000000000000000000000081526004016106439061669a565b60405180910390fd5b6002604051806101200160405280878760405160200161066d9291906166f6565b604051602081830303815290604052805190602001207bffffffffffffffffffffffffffffffffffffffffffffffffffffffff191681526020018973ffffffffffffffffffffffffffffffffffffffff1681526020018873ffffffffffffffffffffffffffffffffffffffff16815260200187815260200186815260200185815260200184815260200183815260200183856107099190616749565b815250908060018154018082558091505060019003906000526020600020906008020160009091909190915060008201518160000160006101000a81548163ffffffff021916908360e01c021790555060208201518160000160046101000a81548173ffffffffffffffffffffffffffffffffffffffff021916908373ffffffffffffffffffffffffffffffffffffffff16021790555060408201518160010160006101000a81548173ffffffffffffffffffffffffffffffffffffffff021916908373ffffffffffffffffffffffffffffffffffffffff160217905550606082015181600201908051906020019061080392919061541a565b50608082015181600301908051906020019061082092919061541a565b5060a082015181600401908051906020019061083d92919061541a565b5060c0820151816005015560e082015181600601556101008201518160070155505050505050505050565b600080600090505b600180549050811015610a0f578373ffffffffffffffffffffffffffffffffffffffff16600182815481106108a8576108a761679f565b5b906000526020600020906005020160000160049054906101000a900473ffffffffffffffffffffffffffffffffffffffff1673ffffffffffffffffffffffffffffffffffffffff1614801561096d57508273ffffffffffffffffffffffffffffffffffffffff16600182815481106109235761092261679f565b5b906000526020600020906005020160010160009054906101000a900473ffffffffffffffffffffffffffffffffffffffff1673ffffffffffffffffffffffffffffffffffffffff16145b80156109ed57506040518060400160405280600781526020017f57616974696e670000000000000000000000000000000000000000000000000081525080519060200120600182815481106109c5576109c461679f565b5b90600052602060002090600502016004016040516109e391906168ce565b6040518091039020145b156109fc576001915050610a11565b8080610a07906168e5565b915050610870565b505b92915050565b600080600090505b600280549050811015610b46578473ffffffffffffffffffffffffffffffffffffffff1660028281548110610a5757610a5661679f565b5b906000526020600020906008020160010160009054906101000a900473ffffffffffffffffffffffffffffffffffffffff1673ffffffffffffffffffffffffffffffffffffffff16148015610b2457508383604051602001610aba9291906166f6565b6040516020818303038152906040528051906020012060028281548110610ae457610ae361679f565b5b906000526020600020906008020160000160009054906101000a900460e01b7bffffffffffffffffffffffffffffffffffffffffffffffffffffffff1916145b15610b33576001915050610b48565b8080610b3e906168e5565b915050610a1f565b505b9392505050565b606080606080606080600060038054905067ffffffffffffffff811115610b7957610b7861554a565b5b604051908082528060200260200182016040528015610bac57816020015b6060815260200190600190039081610b975790505b509050600060038054905067ffffffffffffffff811115610bd057610bcf61554a565b5b604051908082528060200260200182016040528015610c0357816020015b6060815260200190600190039081610bee5790505b509050600060038054905067ffffffffffffffff811115610c2757610c2661554a565b5b604051908082528060200260200182016040528015610c5a57816020015b6060815260200190600190039081610c455790505b509050600060038054905067ffffffffffffffff811115610c7e57610c7d61554a565b5b604051908082528060200260200182016040528015610cac5781602001602082028036833780820191505090505b509050600060038054905067ffffffffffffffff811115610cd057610ccf61554a565b5b604051908082528060200260200182016040528015610cfe5781602001602082028036833780820191505090505b509050600060038054905067ffffffffffffffff811115610d2257610d2161554a565b5b604051908082528060200260200182016040528015610d505781602001602082028036833780820191505090505b50905060005b60038054905081101561119f578e73ffffffffffffffffffffffffffffffffffffffff1660028281548110610d8e57610d8d61679f565b5b906000526020600020906008020160000160049054906101000a900473ffffffffffffffffffffffffffffffffffffffff1673ffffffffffffffffffffffffffffffffffffffff16148015610e5357508d73ffffffffffffffffffffffffffffffffffffffff1660028281548110610e0957610e0861679f565b5b906000526020600020906008020160010160009054906101000a900473ffffffffffffffffffffffffffffffffffffffff1673ffffffffffffffffffffffffffffffffffffffff16145b1561118c5760038181548110610e6c57610e6b61679f565b5b90600052602060002090600802016002018054610e88906167fd565b80601f0160208091040260200160405190810160405280929190818152602001828054610eb4906167fd565b8015610f015780601f10610ed657610100808354040283529160200191610f01565b820191906000526020600020905b815481529060010190602001808311610ee457829003601f168201915b5050505050878281518110610f1957610f1861679f565b5b602002602001018190525060038181548110610f3857610f3761679f565b5b90600052602060002090600802016003018054610f54906167fd565b80601f0160208091040260200160405190810160405280929190818152602001828054610f80906167fd565b8015610fcd5780601f10610fa257610100808354040283529160200191610fcd565b820191906000526020600020905b815481529060010190602001808311610fb057829003601f168201915b5050505050868281518110610fe557610fe461679f565b5b6020026020010181905250600381815481106110045761100361679f565b5b90600052602060002090600802016004018054611020906167fd565b80601f016020809104026020016040519081016040528092919081815260200182805461104c906167fd565b80156110995780601f1061106e57610100808354040283529160200191611099565b820191906000526020600020905b81548152906001019060200180831161107c57829003601f168201915b50505050508582815181106110b1576110b061679f565b5b6020026020010181905250600381815481106110d0576110cf61679f565b5b9060005260206000209060080201600501548482815181106110f5576110f461679f565b5b602002602001018181525050600381815481106111155761111461679f565b5b90600052602060002090600802016006015483828151811061113a5761113961679f565b5b6020026020010181815250506003818154811061115a5761115961679f565b5b90600052602060002090600802016007015482828151811061117f5761117e61679f565b5b6020026020010181815250505b8080611197906168e5565b915050610d56565b508585858585859b509b509b509b509b509b505050505050509295509295509295565b600081815481106111d257600080fd5b90600052602060002090600702016000915090508060000160009054906101000a900473ffffffffffffffffffffffffffffffffffffffff169080600101805461121b906167fd565b80601f0160208091040260200160405190810160405280929190818152602001828054611247906167fd565b80156112945780601f1061126957610100808354040283529160200191611294565b820191906000526020600020905b81548152906001019060200180831161127757829003601f168201915b5050505050908060020180546112a9906167fd565b80601f01602080910402602001604051908101604052809291908181526020018280546112d5906167fd565b80156113225780601f106112f757610100808354040283529160200191611322565b820191906000526020600020905b81548152906001019060200180831161130557829003601f168201915b505050505090806003018054611337906167fd565b80601f0160208091040260200160405190810160405280929190818152602001828054611363906167fd565b80156113b05780601f10611385576101008083540402835291602001916113b0565b820191906000526020600020905b81548152906001019060200180831161139357829003601f168201915b5050505050908060040180546113c5906167fd565b80601f01602080910402602001604051908101604052809291908181526020018280546113f1906167fd565b801561143e5780601f106114135761010080835404028352916020019161143e565b820191906000526020600020905b81548152906001019060200180831161142157829003601f168201915b505050505090806005018054611453906167fd565b80601f016020809104026020016040519081016040528092919081815260200182805461147f906167fd565b80156114cc5780601f106114a1576101008083540402835291602001916114cc565b820191906000526020600020905b8154815290600101906020018083116114af57829003601f168201915b5050505050908060060180546114e1906167fd565b80601f016020809104026020016040519081016040528092919081815260200182805461150d906167fd565b801561155a5780601f1061152f5761010080835404028352916020019161155a565b820191906000526020600020905b81548152906001019060200180831161153d57829003601f168201915b5050505050905087565b606080606080606080600060018054905067ffffffffffffffff81111561158e5761158d61554a565b5b6040519080825280602002602001820160405280156115bc5781602001602082028036833780820191505090505b509050600060018054905067ffffffffffffffff8111156115e0576115df61554a565b5b60405190808252806020026020018201604052801561160e5781602001602082028036833780820191505090505b509050600060018054905067ffffffffffffffff8111156116325761163161554a565b5b6040519080825280602002602001820160405280156116605781602001602082028036833780820191505090505b509050600060018054905067ffffffffffffffff8111156116845761168361554a565b5b6040519080825280602002602001820160405280156116b757816020015b60608152602001906001900390816116a25790505b509050600060018054905067ffffffffffffffff8111156116db576116da61554a565b5b60405190808252806020026020018201604052801561170e57816020015b60608152602001906001900390816116f95790505b509050600060018054905067ffffffffffffffff8111156117325761173161554a565b5b60405190808252806020026020018201604052801561176557816020015b60608152602001906001900390816117505790505b50905060005b600180549050811015611c9d578e73ffffffffffffffffffffffffffffffffffffffff16600182815481106117a3576117a261679f565b5b906000526020600020906005020160010160009054906101000a900473ffffffffffffffffffffffffffffffffffffffff1673ffffffffffffffffffffffffffffffffffffffff1614801561186857508d73ffffffffffffffffffffffffffffffffffffffff166001828154811061181e5761181d61679f565b5b906000526020600020906005020160000160049054906101000a900473ffffffffffffffffffffffffffffffffffffffff1673ffffffffffffffffffffffffffffffffffffffff16145b15611c8a57600181815481106118815761188061679f565b5b906000526020600020906005020160000160009054906101000a900460e01b8782815181106118b3576118b261679f565b5b60200260200101907bffffffffffffffffffffffffffffffffffffffffffffffffffffffff191690817bffffffffffffffffffffffffffffffffffffffffffffffffffffffff191681525050600181815481106119135761191261679f565b5b906000526020600020906005020160000160049054906101000a900473ffffffffffffffffffffffffffffffffffffffff168682815181106119585761195761679f565b5b602002602001019073ffffffffffffffffffffffffffffffffffffffff16908173ffffffffffffffffffffffffffffffffffffffff1681525050600181815481106119a6576119a561679f565b5b906000526020600020906005020160010160009054906101000a900473ffffffffffffffffffffffffffffffffffffffff168582815181106119eb576119ea61679f565b5b602002602001019073ffffffffffffffffffffffffffffffffffffffff16908173ffffffffffffffffffffffffffffffffffffffff168152505060018181548110611a3957611a3861679f565b5b90600052602060002090600502016002018054611a55906167fd565b80601f0160208091040260200160405190810160405280929190818152602001828054611a81906167fd565b8015611ace5780601f10611aa357610100808354040283529160200191611ace565b820191906000526020600020905b815481529060010190602001808311611ab157829003601f168201915b5050505050848281518110611ae657611ae561679f565b5b602002602001018190525060018181548110611b0557611b0461679f565b5b90600052602060002090600502016003018054611b21906167fd565b80601f0160208091040260200160405190810160405280929190818152602001828054611b4d906167fd565b8015611b9a5780601f10611b6f57610100808354040283529160200191611b9a565b820191906000526020600020905b815481529060010190602001808311611b7d57829003601f168201915b5050505050838281518110611bb257611bb161679f565b5b602002602001018190525060018181548110611bd157611bd061679f565b5b90600052602060002090600502016004018054611bed906167fd565b80601f0160208091040260200160405190810160405280929190818152602001828054611c19906167fd565b8015611c665780601f10611c3b57610100808354040283529160200191611c66565b820191906000526020600020905b815481529060010190602001808311611c4957829003601f168201915b5050505050828281518110611c7e57611c7d61679f565b5b60200260200101819052505b8080611c95906168e5565b91505061176b565b508585858585859b509b509b509b509b509b505050505050509295509295509295565b6000606080606080606060005b600080549050811015612133578773ffffffffffffffffffffffffffffffffffffffff1660008281548110611d0557611d0461679f565b5b906000526020600020906007020160000160009054906101000a900473ffffffffffffffffffffffffffffffffffffffff1673ffffffffffffffffffffffffffffffffffffffff1614156121205760008181548110611d6757611d6661679f565b5b906000526020600020906007020160000160009054906101000a900473ffffffffffffffffffffffffffffffffffffffff1660008281548110611dad57611dac61679f565b5b906000526020600020906007020160010160008381548110611dd257611dd161679f565b5b906000526020600020906007020160020160008481548110611df757611df661679f565b5b906000526020600020906007020160030160008581548110611e1c57611e1b61679f565b5b906000526020600020906007020160040160008681548110611e4157611e4061679f565b5b9060005260206000209060070201600501848054611e5e906167fd565b80601f0160208091040260200160405190810160405280929190818152602001828054611e8a906167fd565b8015611ed75780601f10611eac57610100808354040283529160200191611ed7565b820191906000526020600020905b815481529060010190602001808311611eba57829003601f168201915b50505050509450838054611eea906167fd565b80601f0160208091040260200160405190810160405280929190818152602001828054611f16906167fd565b8015611f635780601f10611f3857610100808354040283529160200191611f63565b820191906000526020600020905b815481529060010190602001808311611f4657829003601f168201915b50505050509350828054611f76906167fd565b80601f0160208091040260200160405190810160405280929190818152602001828054611fa2906167fd565b8015611fef5780601f10611fc457610100808354040283529160200191611fef565b820191906000526020600020905b815481529060010190602001808311611fd257829003601f168201915b50505050509250818054612002906167fd565b80601f016020809104026020016040519081016040528092919081815260200182805461202e906167fd565b801561207b5780601f106120505761010080835404028352916020019161207b565b820191906000526020600020905b81548152906001019060200180831161205e57829003601f168201915b5050505050915080805461208e906167fd565b80601f01602080910402602001604051908101604052809291908181526020018280546120ba906167fd565b80156121075780601f106120dc57610100808354040283529160200191612107565b820191906000526020600020905b8154815290600101906020018083116120ea57829003601f168201915b5050505050905096509650965096509650965050612135565b808061212b906168e5565b915050611ccd565b505b91939550919395565b600080600090505b600080549050811015612234578373ffffffffffffffffffffffffffffffffffffffff166000828154811061217e5761217d61679f565b5b906000526020600020906007020160000160009054906101000a900473ffffffffffffffffffffffffffffffffffffffff1673ffffffffffffffffffffffffffffffffffffffff1614801561221257508280519060200120600082815481106121ea576121e961679f565b5b906000526020600020906007020160060160405161220891906168ce565b6040518091039020145b15612221576001915050612236565b808061222c906168e5565b915050612146565b505b92915050565b6001818154811061224c57600080fd5b90600052602060002090600502016000915090508060000160009054906101000a900460e01b908060000160049054906101000a900473ffffffffffffffffffffffffffffffffffffffff16908060010160009054906101000a900473ffffffffffffffffffffffffffffffffffffffff16908060020180546122ce906167fd565b80601f01602080910402602001604051908101604052809291908181526020018280546122fa906167fd565b80156123475780601f1061231c57610100808354040283529160200191612347565b820191906000526020600020905b81548152906001019060200180831161232a57829003601f168201915b50505050509080600301805461235c906167fd565b80601f0160208091040260200160405190810160405280929190818152602001828054612388906167fd565b80156123d55780601f106123aa576101008083540402835291602001916123d5565b820191906000526020600020905b8154815290600101906020018083116123b857829003601f168201915b5050505050908060040180546123ea906167fd565b80601f0160208091040260200160405190810160405280929190818152602001828054612416906167fd565b80156124635780601f1061243857610100808354040283529160200191612463565b820191906000526020600020905b81548152906001019060200180831161244657829003601f168201915b5050505050905086565b600080600090505b600080549050811015612518578273ffffffffffffffffffffffffffffffffffffffff16600082815481106124ad576124ac61679f565b5b906000526020600020906007020160000160009054906101000a900473ffffffffffffffffffffffffffffffffffffffff1673ffffffffffffffffffffffffffffffffffffffff16141561250557600191505061251a565b8080612510906168e5565b915050612475565b505b919050565b6003818154811061252f57600080fd5b90600052602060002090600802016000915090508060000160009054906101000a900460e01b908060000160049054906101000a900473ffffffffffffffffffffffffffffffffffffffff16908060010160009054906101000a900473ffffffffffffffffffffffffffffffffffffffff16908060020180546125b1906167fd565b80601f01602080910402602001604051908101604052809291908181526020018280546125dd906167fd565b801561262a5780601f106125ff5761010080835404028352916020019161262a565b820191906000526020600020905b81548152906001019060200180831161260d57829003601f168201915b50505050509080600301805461263f906167fd565b80601f016020809104026020016040519081016040528092919081815260200182805461266b906167fd565b80156126b85780601f1061268d576101008083540402835291602001916126b8565b820191906000526020600020905b81548152906001019060200180831161269b57829003601f168201915b5050505050908060040180546126cd906167fd565b80601f01602080910402602001604051908101604052809291908181526020018280546126f9906167fd565b80156127465780601f1061271b57610100808354040283529160200191612746565b820191906000526020600020905b81548152906001019060200180831161272957829003601f168201915b5050505050908060050154908060060154908060070154905089565b6060806060600080600080600090505b600380549050811015612ba2578a73ffffffffffffffffffffffffffffffffffffffff16600382815481106127aa576127a961679f565b5b906000526020600020906008020160000160049054906101000a900473ffffffffffffffffffffffffffffffffffffffff1673ffffffffffffffffffffffffffffffffffffffff1614801561286f57508973ffffffffffffffffffffffffffffffffffffffff16600382815481106128255761282461679f565b5b906000526020600020906008020160010160009054906101000a900473ffffffffffffffffffffffffffffffffffffffff1673ffffffffffffffffffffffffffffffffffffffff16145b80156128f3575088886040516020016128899291906166f6565b60405160208183030381529060405280519060200120600382815481106128b3576128b261679f565b5b906000526020600020906008020160000160009054906101000a900460e01b7bffffffffffffffffffffffffffffffffffffffffffffffffffffffff1916145b15612b8f576003818154811061290c5761290b61679f565b5b9060005260206000209060080201600201600382815481106129315761293061679f565b5b9060005260206000209060080201600301600383815481106129565761295561679f565b5b90600052602060002090600802016004016003848154811061297b5761297a61679f565b5b906000526020600020906008020160050154600385815481106129a1576129a061679f565b5b906000526020600020906008020160060154600386815481106129c7576129c661679f565b5b9060005260206000209060080201600701548580546129e5906167fd565b80601f0160208091040260200160405190810160405280929190818152602001828054612a11906167fd565b8015612a5e5780601f10612a3357610100808354040283529160200191612a5e565b820191906000526020600020905b815481529060010190602001808311612a4157829003601f168201915b50505050509550848054612a71906167fd565b80601f0160208091040260200160405190810160405280929190818152602001828054612a9d906167fd565b8015612aea5780601f10612abf57610100808354040283529160200191612aea565b820191906000526020600020905b815481529060010190602001808311612acd57829003601f168201915b50505050509450838054612afd906167fd565b80601f0160208091040260200160405190810160405280929190818152602001828054612b29906167fd565b8015612b765780601f10612b4b57610100808354040283529160200191612b76565b820191906000526020600020905b815481529060010190602001808311612b5957829003601f168201915b5050505050935096509650965096509650965050612ba4565b8080612b9a906168e5565b915050612772565b505b9499939850945094509450565b60005b600080549050811015612d70578673ffffffffffffffffffffffffffffffffffffffff1660008281548110612bec57612beb61679f565b5b906000526020600020906007020160000160009054906101000a900473ffffffffffffffffffffffffffffffffffffffff1673ffffffffffffffffffffffffffffffffffffffff161415612d5d578560008281548110612c4f57612c4e61679f565b5b90600052602060002090600702016001019080519060200190612c7392919061541a565b508460008281548110612c8957612c8861679f565b5b90600052602060002090600702016002019080519060200190612cad92919061541a565b508360008281548110612cc357612cc261679f565b5b90600052602060002090600702016003019080519060200190612ce792919061541a565b508260008281548110612cfd57612cfc61679f565b5b90600052602060002090600702016004019080519060200190612d2192919061541a565b508160008281548110612d3757612d3661679f565b5b90600052602060002090600702016005019080519060200190612d5b92919061541a565b505b8080612d68906168e5565b915050612bb4565b50505050505050565b600080600090505b600380549050811015612ea8578473ffffffffffffffffffffffffffffffffffffffff1660028281548110612db957612db861679f565b5b906000526020600020906008020160010160009054906101000a900473ffffffffffffffffffffffffffffffffffffffff1673ffffffffffffffffffffffffffffffffffffffff16148015612e8657508383604051602001612e1c9291906166f6565b6040516020818303038152906040528051906020012060028281548110612e4657612e4561679f565b5b906000526020600020906008020160000160009054906101000a900460e01b7bffffffffffffffffffffffffffffffffffffffffffffffffffffffff1916145b15612e95576001915050612eaa565b8080612ea0906168e5565b915050612d81565b505b9392505050565b60608060608060608060606000808054905067ffffffffffffffff811115612edc57612edb61554a565b5b604051908082528060200260200182016040528015612f0a5781602001602082028036833780820191505090505b5090506000808054905067ffffffffffffffff811115612f2d57612f2c61554a565b5b604051908082528060200260200182016040528015612f6057816020015b6060815260200190600190039081612f4b5790505b5090506000808054905067ffffffffffffffff811115612f8357612f8261554a565b5b604051908082528060200260200182016040528015612fb657816020015b6060815260200190600190039081612fa15790505b5090506000808054905067ffffffffffffffff811115612fd957612fd861554a565b5b60405190808252806020026020018201604052801561300c57816020015b6060815260200190600190039081612ff75790505b5090506000808054905067ffffffffffffffff81111561302f5761302e61554a565b5b60405190808252806020026020018201604052801561306257816020015b606081526020019060019003908161304d5790505b5090506000808054905067ffffffffffffffff8111156130855761308461554a565b5b6040519080825280602002602001820160405280156130b857816020015b60608152602001906001900390816130a35790505b5090506000808054905067ffffffffffffffff8111156130db576130da61554a565b5b60405190808252806020026020018201604052801561310e57816020015b60608152602001906001900390816130f95790505b50905060005b60008054905081101561368f57600081815481106131355761313461679f565b5b906000526020600020906007020160000160009054906101000a900473ffffffffffffffffffffffffffffffffffffffff1688828151811061317a5761317961679f565b5b602002602001019073ffffffffffffffffffffffffffffffffffffffff16908173ffffffffffffffffffffffffffffffffffffffff1681525050600081815481106131c8576131c761679f565b5b906000526020600020906007020160010180546131e4906167fd565b80601f0160208091040260200160405190810160405280929190818152602001828054613210906167fd565b801561325d5780601f106132325761010080835404028352916020019161325d565b820191906000526020600020905b81548152906001019060200180831161324057829003601f168201915b50505050508782815181106132755761327461679f565b5b6020026020010181905250600081815481106132945761329361679f565b5b906000526020600020906007020160020180546132b0906167fd565b80601f01602080910402602001604051908101604052809291908181526020018280546132dc906167fd565b80156133295780601f106132fe57610100808354040283529160200191613329565b820191906000526020600020905b81548152906001019060200180831161330c57829003601f168201915b50505050508682815181106133415761334061679f565b5b6020026020010181905250600081815481106133605761335f61679f565b5b9060005260206000209060070201600301805461337c906167fd565b80601f01602080910402602001604051908101604052809291908181526020018280546133a8906167fd565b80156133f55780601f106133ca576101008083540402835291602001916133f5565b820191906000526020600020905b8154815290600101906020018083116133d857829003601f168201915b505050505085828151811061340d5761340c61679f565b5b60200260200101819052506000818154811061342c5761342b61679f565b5b90600052602060002090600702016004018054613448906167fd565b80601f0160208091040260200160405190810160405280929190818152602001828054613474906167fd565b80156134c15780601f10613496576101008083540402835291602001916134c1565b820191906000526020600020905b8154815290600101906020018083116134a457829003601f168201915b50505050508482815181106134d9576134d861679f565b5b6020026020010181905250600081815481106134f8576134f761679f565b5b90600052602060002090600702016005018054613514906167fd565b80601f0160208091040260200160405190810160405280929190818152602001828054613540906167fd565b801561358d5780601f106135625761010080835404028352916020019161358d565b820191906000526020600020905b81548152906001019060200180831161357057829003601f168201915b50505050508382815181106135a5576135a461679f565b5b6020026020010181905250600081815481106135c4576135c361679f565b5b906000526020600020906007020160060180546135e0906167fd565b80601f016020809104026020016040519081016040528092919081815260200182805461360c906167fd565b80156136595780601f1061362e57610100808354040283529160200191613659565b820191906000526020600020905b81548152906001019060200180831161363c57829003601f168201915b50505050508282815181106136715761367061679f565b5b60200260200101819052508080613687906168e5565b915050613114565b50868686868686869d509d509d509d509d509d509d505050505050505090919293949596565b60006136c18585610868565b14613701576040517f08c379a00000000000000000000000000000000000000000000000000000000081526004016136f89061697a565b60405180910390fd5b60016040518060c001604052808360405160200161371f919061699a565b604051602081830303815290604052805190602001207bffffffffffffffffffffffffffffffffffffffffffffffffffffffff191681526020018673ffffffffffffffffffffffffffffffffffffffff1681526020018573ffffffffffffffffffffffffffffffffffffffff1681526020018481526020018381526020016040518060400160405280600781526020017f57616974696e6700000000000000000000000000000000000000000000000000815250815250908060018154018082558091505060019003906000526020600020906005020160009091909190915060008201518160000160006101000a81548163ffffffff021916908360e01c021790555060208201518160000160046101000a81548173ffffffffffffffffffffffffffffffffffffffff021916908373ffffffffffffffffffffffffffffffffffffffff16021790555060408201518160010160006101000a81548173ffffffffffffffffffffffffffffffffffffffff021916908373ffffffffffffffffffffffffffffffffffffffff16021790555060608201518160020190805190602001906138cd92919061541a565b5060808201518160030190805190602001906138ea92919061541a565b5060a082015181600401908051906020019061390792919061541a565b50505050505050565b606080606080606080600060018054905067ffffffffffffffff81111561393a5761393961554a565b5b6040519080825280602002602001820160405280156139685781602001602082028036833780820191505090505b509050600060018054905067ffffffffffffffff81111561398c5761398b61554a565b5b6040519080825280602002602001820160405280156139ba5781602001602082028036833780820191505090505b509050600060018054905067ffffffffffffffff8111156139de576139dd61554a565b5b604051908082528060200260200182016040528015613a0c5781602001602082028036833780820191505090505b509050600060018054905067ffffffffffffffff811115613a3057613a2f61554a565b5b604051908082528060200260200182016040528015613a6357816020015b6060815260200190600190039081613a4e5790505b509050600060018054905067ffffffffffffffff811115613a8757613a8661554a565b5b604051908082528060200260200182016040528015613aba57816020015b6060815260200190600190039081613aa55790505b509050600060018054905067ffffffffffffffff811115613ade57613add61554a565b5b604051908082528060200260200182016040528015613b1157816020015b6060815260200190600190039081613afc5790505b50905060005b600180549050811015613fcd578d73ffffffffffffffffffffffffffffffffffffffff1660018281548110613b4f57613b4e61679f565b5b906000526020600020906005020160010160009054906101000a900473ffffffffffffffffffffffffffffffffffffffff1673ffffffffffffffffffffffffffffffffffffffff161415613fba5760018181548110613bb157613bb061679f565b5b906000526020600020906005020160000160009054906101000a900460e01b878281518110613be357613be261679f565b5b60200260200101907bffffffffffffffffffffffffffffffffffffffffffffffffffffffff191690817bffffffffffffffffffffffffffffffffffffffffffffffffffffffff19168152505060018181548110613c4357613c4261679f565b5b906000526020600020906005020160000160049054906101000a900473ffffffffffffffffffffffffffffffffffffffff16868281518110613c8857613c8761679f565b5b602002602001019073ffffffffffffffffffffffffffffffffffffffff16908173ffffffffffffffffffffffffffffffffffffffff168152505060018181548110613cd657613cd561679f565b5b906000526020600020906005020160010160009054906101000a900473ffffffffffffffffffffffffffffffffffffffff16858281518110613d1b57613d1a61679f565b5b602002602001019073ffffffffffffffffffffffffffffffffffffffff16908173ffffffffffffffffffffffffffffffffffffffff168152505060018181548110613d6957613d6861679f565b5b90600052602060002090600502016002018054613d85906167fd565b80601f0160208091040260200160405190810160405280929190818152602001828054613db1906167fd565b8015613dfe5780601f10613dd357610100808354040283529160200191613dfe565b820191906000526020600020905b815481529060010190602001808311613de157829003601f168201915b5050505050848281518110613e1657613e1561679f565b5b602002602001018190525060018181548110613e3557613e3461679f565b5b90600052602060002090600502016003018054613e51906167fd565b80601f0160208091040260200160405190810160405280929190818152602001828054613e7d906167fd565b8015613eca5780601f10613e9f57610100808354040283529160200191613eca565b820191906000526020600020905b815481529060010190602001808311613ead57829003601f168201915b5050505050838281518110613ee257613ee161679f565b5b602002602001018190525060018181548110613f0157613f0061679f565b5b90600052602060002090600502016004018054613f1d906167fd565b80601f0160208091040260200160405190810160405280929190818152602001828054613f49906167fd565b8015613f965780601f10613f6b57610100808354040283529160200191613f96565b820191906000526020600020905b815481529060010190602001808311613f7957829003601f168201915b5050505050828281518110613fae57613fad61679f565b5b60200260200101819052505b8080613fc5906168e5565b915050613b17565b508585858585859b509b509b509b509b509b5050505050505091939550919395565b60028181548110613fff57600080fd5b90600052602060002090600802016000915090508060000160009054906101000a900460e01b908060000160049054906101000a900473ffffffffffffffffffffffffffffffffffffffff16908060010160009054906101000a900473ffffffffffffffffffffffffffffffffffffffff1690806002018054614081906167fd565b80601f01602080910402602001604051908101604052809291908181526020018280546140ad906167fd565b80156140fa5780601f106140cf576101008083540402835291602001916140fa565b820191906000526020600020905b8154815290600101906020018083116140dd57829003601f168201915b50505050509080600301805461410f906167fd565b80601f016020809104026020016040519081016040528092919081815260200182805461413b906167fd565b80156141885780601f1061415d57610100808354040283529160200191614188565b820191906000526020600020905b81548152906001019060200180831161416b57829003601f168201915b50505050509080600401805461419d906167fd565b80601f01602080910402602001604051908101604052809291908181526020018280546141c9906167fd565b80156142165780601f106141eb57610100808354040283529160200191614216565b820191906000526020600020905b8154815290600101906020018083116141f957829003601f168201915b5050505050908060050154908060060154908060070154905089565b6060806060600080600080600090505b600280549050811015614672578a73ffffffffffffffffffffffffffffffffffffffff166002828154811061427a5761427961679f565b5b906000526020600020906008020160000160049054906101000a900473ffffffffffffffffffffffffffffffffffffffff1673ffffffffffffffffffffffffffffffffffffffff1614801561433f57508973ffffffffffffffffffffffffffffffffffffffff16600282815481106142f5576142f461679f565b5b906000526020600020906008020160010160009054906101000a900473ffffffffffffffffffffffffffffffffffffffff1673ffffffffffffffffffffffffffffffffffffffff16145b80156143c3575088886040516020016143599291906166f6565b60405160208183030381529060405280519060200120600282815481106143835761438261679f565b5b906000526020600020906008020160000160009054906101000a900460e01b7bffffffffffffffffffffffffffffffffffffffffffffffffffffffff1916145b1561465f57600281815481106143dc576143db61679f565b5b9060005260206000209060080201600201600282815481106144015761440061679f565b5b9060005260206000209060080201600301600283815481106144265761442561679f565b5b90600052602060002090600802016004016002848154811061444b5761444a61679f565b5b906000526020600020906008020160050154600285815481106144715761447061679f565b5b906000526020600020906008020160060154600286815481106144975761449661679f565b5b9060005260206000209060080201600701548580546144b5906167fd565b80601f01602080910402602001604051908101604052809291908181526020018280546144e1906167fd565b801561452e5780601f106145035761010080835404028352916020019161452e565b820191906000526020600020905b81548152906001019060200180831161451157829003601f168201915b50505050509550848054614541906167fd565b80601f016020809104026020016040519081016040528092919081815260200182805461456d906167fd565b80156145ba5780601f1061458f576101008083540402835291602001916145ba565b820191906000526020600020905b81548152906001019060200180831161459d57829003601f168201915b505050505094508380546145cd906167fd565b80601f01602080910402602001604051908101604052809291908181526020018280546145f9906167fd565b80156146465780601f1061461b57610100808354040283529160200191614646565b820191906000526020600020905b81548152906001019060200180831161462957829003601f168201915b5050505050935096509650965096509650965050614674565b808061466a906168e5565b915050614242565b505b9499939850945094509450565b6040518060400160405280600881526020017f4163636570746564000000000000000000000000000000000000000000000000815250805190602001208180519060200120148061471457506040518060400160405280600881526020017f4465636c696e6564000000000000000000000000000000000000000000000000815250805190602001208180519060200120145b614753576040517f08c379a000000000000000000000000000000000000000000000000000000000815260040161474a906169fd565b60405180910390fd5b60005b600180549050811015614921578473ffffffffffffffffffffffffffffffffffffffff166001828154811061478e5761478d61679f565b5b906000526020600020906005020160000160049054906101000a900473ffffffffffffffffffffffffffffffffffffffff1673ffffffffffffffffffffffffffffffffffffffff1614801561485357508373ffffffffffffffffffffffffffffffffffffffff16600182815481106148095761480861679f565b5b906000526020600020906005020160010160009054906101000a900473ffffffffffffffffffffffffffffffffffffffff1673ffffffffffffffffffffffffffffffffffffffff16145b80156148ce5750827bffffffffffffffffffffffffffffffffffffffffffffffffffffffff19166001828154811061488e5761488d61679f565b5b906000526020600020906005020160000160009054906101000a900460e01b7bffffffffffffffffffffffffffffffffffffffffffffffffffffffff1916145b1561490e5781600182815481106148e8576148e761679f565b5b9060005260206000209060050201600401908051906020019061490c92919061541a565b505b8080614919906168e5565b915050614756565b5050505050565b606080606080606080600060028054905067ffffffffffffffff8111156149525761495161554a565b5b60405190808252806020026020018201604052801561498557816020015b60608152602001906001900390816149705790505b509050600060028054905067ffffffffffffffff8111156149a9576149a861554a565b5b6040519080825280602002602001820160405280156149dc57816020015b60608152602001906001900390816149c75790505b509050600060028054905067ffffffffffffffff811115614a00576149ff61554a565b5b604051908082528060200260200182016040528015614a3357816020015b6060815260200190600190039081614a1e5790505b509050600060028054905067ffffffffffffffff811115614a5757614a5661554a565b5b604051908082528060200260200182016040528015614a855781602001602082028036833780820191505090505b509050600060028054905067ffffffffffffffff811115614aa957614aa861554a565b5b604051908082528060200260200182016040528015614ad75781602001602082028036833780820191505090505b509050600060028054905067ffffffffffffffff811115614afb57614afa61554a565b5b604051908082528060200260200182016040528015614b295781602001602082028036833780820191505090505b50905060005b600280549050811015614f78578e73ffffffffffffffffffffffffffffffffffffffff1660028281548110614b6757614b6661679f565b5b906000526020600020906008020160000160049054906101000a900473ffffffffffffffffffffffffffffffffffffffff1673ffffffffffffffffffffffffffffffffffffffff16148015614c2c57508d73ffffffffffffffffffffffffffffffffffffffff1660028281548110614be257614be161679f565b5b906000526020600020906008020160010160009054906101000a900473ffffffffffffffffffffffffffffffffffffffff1673ffffffffffffffffffffffffffffffffffffffff16145b15614f655760028181548110614c4557614c4461679f565b5b90600052602060002090600802016002018054614c61906167fd565b80601f0160208091040260200160405190810160405280929190818152602001828054614c8d906167fd565b8015614cda5780601f10614caf57610100808354040283529160200191614cda565b820191906000526020600020905b815481529060010190602001808311614cbd57829003601f168201915b5050505050878281518110614cf257614cf161679f565b5b602002602001018190525060028181548110614d1157614d1061679f565b5b90600052602060002090600802016003018054614d2d906167fd565b80601f0160208091040260200160405190810160405280929190818152602001828054614d59906167fd565b8015614da65780601f10614d7b57610100808354040283529160200191614da6565b820191906000526020600020905b815481529060010190602001808311614d8957829003601f168201915b5050505050868281518110614dbe57614dbd61679f565b5b602002602001018190525060028181548110614ddd57614ddc61679f565b5b90600052602060002090600802016004018054614df9906167fd565b80601f0160208091040260200160405190810160405280929190818152602001828054614e25906167fd565b8015614e725780601f10614e4757610100808354040283529160200191614e72565b820191906000526020600020905b815481529060010190602001808311614e5557829003601f168201915b5050505050858281518110614e8a57614e8961679f565b5b602002602001018190525060028181548110614ea957614ea861679f565b5b906000526020600020906008020160050154848281518110614ece57614ecd61679f565b5b60200260200101818152505060028181548110614eee57614eed61679f565b5b906000526020600020906008020160060154838281518110614f1357614f1261679f565b5b60200260200101818152505060028181548110614f3357614f3261679f565b5b906000526020600020906008020160070154828281518110614f5857614f5761679f565b5b6020026020010181815250505b8080614f70906168e5565b915050614b2f565b508585858585859b509b509b509b509b509b505050505050509295509295509295565b6000614fa8878787610a17565b14614fe8576040517f08c379a0000000000000000000000000000000000000000000000000000000008152600401614fdf90616a69565b60405180910390fd5b60008210158015614ffa575060c88211155b615039576040517f08c379a000000000000000000000000000000000000000000000000000000000815260040161503090616ad5565b60405180910390fd5b6000811015801561504b575060c88111155b61508a576040517f08c379a000000000000000000000000000000000000000000000000000000000815260040161508190616b41565b60405180910390fd5b600360405180610120016040528087876040516020016150ab9291906166f6565b604051602081830303815290604052805190602001207bffffffffffffffffffffffffffffffffffffffffffffffffffffffff191681526020018973ffffffffffffffffffffffffffffffffffffffff1681526020018873ffffffffffffffffffffffffffffffffffffffff16815260200187815260200186815260200185815260200184815260200183815260200183856151479190616749565b815250908060018154018082558091505060019003906000526020600020906008020160009091909190915060008201518160000160006101000a81548163ffffffff021916908360e01c021790555060208201518160000160046101000a81548173ffffffffffffffffffffffffffffffffffffffff021916908373ffffffffffffffffffffffffffffffffffffffff16021790555060408201518160010160006101000a81548173ffffffffffffffffffffffffffffffffffffffff021916908373ffffffffffffffffffffffffffffffffffffffff160217905550606082015181600201908051906020019061524192919061541a565b50608082015181600301908051906020019061525e92919061541a565b5060a082015181600401908051906020019061527b92919061541a565b5060c0820151816005015560e082015181600601556101008201518160070155505050505050505050565b60006040518060e001604052808973ffffffffffffffffffffffffffffffffffffffff16815260200188815260200187815260200186815260200185815260200184815260200183815250908060018154018082558091505060019003906000526020600020906007020160009091909190915060008201518160000160006101000a81548173ffffffffffffffffffffffffffffffffffffffff021916908373ffffffffffffffffffffffffffffffffffffffff160217905550602082015181600101908051906020019061537d92919061541a565b50604082015181600201908051906020019061539a92919061541a565b5060608201518160030190805190602001906153b792919061541a565b5060808201518160040190805190602001906153d492919061541a565b5060a08201518160050190805190602001906153f192919061541a565b5060c082015181600601908051906020019061540e92919061541a565b50505050505050505050565b828054615426906167fd565b90600052602060002090601f016020900481019282615448576000855561548f565b82601f1061546157805160ff191683800117855561548f565b8280016001018555821561548f579182015b8281111561548e578251825591602001919060010190615473565b5b50905061549c91906154a0565b5090565b5b808211156154b95760008160009055506001016154a1565b5090565b6000604051905090565b600080fd5b600080fd5b600073ffffffffffffffffffffffffffffffffffffffff82169050919050565b60006154fc826154d1565b9050919050565b61550c816154f1565b811461551757600080fd5b50565b60008135905061552981615503565b92915050565b600080fd5b600080fd5b6000601f19601f8301169050919050565b7f4e487b7100000000000000000000000000000000000000000000000000000000600052604160045260246000fd5b61558282615539565b810181811067ffffffffffffffff821117156155a1576155a061554a565b5b80604052505050565b60006155b46154bd565b90506155c08282615579565b919050565b600067ffffffffffffffff8211156155e0576155df61554a565b5b6155e982615539565b9050602081019050919050565b82818337600083830152505050565b6000615618615613846155c5565b6155aa565b90508281526020810184848401111561563457615633615534565b5b61563f8482856155f6565b509392505050565b600082601f83011261565c5761565b61552f565b5b813561566c848260208601615605565b91505092915050565b6000819050919050565b61568881615675565b811461569357600080fd5b50565b6000813590506156a58161567f565b92915050565b600080600080600080600060e0888a0312156156ca576156c96154c7565b5b60006156d88a828b0161551a565b97505060206156e98a828b0161551a565b965050604088013567ffffffffffffffff81111561570a576157096154cc565b5b6157168a828b01615647565b955050606088013567ffffffffffffffff811115615737576157366154cc565b5b6157438a828b01615647565b945050608088013567ffffffffffffffff811115615764576157636154cc565b5b6157708a828b01615647565b93505060a06157818a828b01615696565b92505060c06157928a828b01615696565b91505092959891949750929550565b600080604083850312156157b8576157b76154c7565b5b60006157c68582860161551a565b92505060206157d78582860161551a565b9150509250929050565b6157ea81615675565b82525050565b600060208201905061580560008301846157e1565b92915050565b600080600060608486031215615824576158236154c7565b5b60006158328682870161551a565b935050602084013567ffffffffffffffff811115615853576158526154cc565b5b61585f86828701615647565b925050604084013567ffffffffffffffff8111156158805761587f6154cc565b5b61588c86828701615647565b9150509250925092565b600081519050919050565b600082825260208201905092915050565b6000819050602082019050919050565b600081519050919050565b600082825260208201905092915050565b60005b838110156158fc5780820151818401526020810190506158e1565b8381111561590b576000848401525b50505050565b600061591c826158c2565b61592681856158cd565b93506159368185602086016158de565b61593f81615539565b840191505092915050565b60006159568383615911565b905092915050565b6000602082019050919050565b600061597682615896565b61598081856158a1565b935083602082028501615992856158b2565b8060005b858110156159ce57848403895281516159af858261594a565b94506159ba8361595e565b925060208a01995050600181019050615996565b50829750879550505050505092915050565b600081519050919050565b600082825260208201905092915050565b6000819050602082019050919050565b615a1581615675565b82525050565b6000615a278383615a0c565b60208301905092915050565b6000602082019050919050565b6000615a4b826159e0565b615a5581856159eb565b9350615a60836159fc565b8060005b83811015615a91578151615a788882615a1b565b9750615a8383615a33565b925050600181019050615a64565b5085935050505092915050565b600060c0820190508181036000830152615ab8818961596b565b90508181036020830152615acc818861596b565b90508181036040830152615ae0818761596b565b90508181036060830152615af48186615a40565b90508181036080830152615b088185615a40565b905081810360a0830152615b1c8184615a40565b9050979650505050505050565b600060208284031215615b3f57615b3e6154c7565b5b6000615b4d84828501615696565b91505092915050565b615b5f816154f1565b82525050565b600082825260208201905092915050565b6000615b81826158c2565b615b8b8185615b65565b9350615b9b8185602086016158de565b615ba481615539565b840191505092915050565b600060e082019050615bc4600083018a615b56565b8181036020830152615bd68189615b76565b90508181036040830152615bea8188615b76565b90508181036060830152615bfe8187615b76565b90508181036080830152615c128186615b76565b905081810360a0830152615c268185615b76565b905081810360c0830152615c3a8184615b76565b905098975050505050505050565b600081519050919050565b600082825260208201905092915050565b6000819050602082019050919050565b60007fffffffff0000000000000000000000000000000000000000000000000000000082169050919050565b615ca981615c74565b82525050565b6000615cbb8383615ca0565b60208301905092915050565b6000602082019050919050565b6000615cdf82615c48565b615ce98185615c53565b9350615cf483615c64565b8060005b83811015615d25578151615d0c8882615caf565b9750615d1783615cc7565b925050600181019050615cf8565b5085935050505092915050565b600081519050919050565b600082825260208201905092915050565b6000819050602082019050919050565b615d67816154f1565b82525050565b6000615d798383615d5e565b60208301905092915050565b6000602082019050919050565b6000615d9d82615d32565b615da78185615d3d565b9350615db283615d4e565b8060005b83811015615de3578151615dca8882615d6d565b9750615dd583615d85565b925050600181019050615db6565b5085935050505092915050565b600060c0820190508181036000830152615e0a8189615cd4565b90508181036020830152615e1e8188615d92565b90508181036040830152615e328187615d92565b90508181036060830152615e46818661596b565b90508181036080830152615e5a818561596b565b905081810360a0830152615e6e818461596b565b9050979650505050505050565b600060208284031215615e9157615e906154c7565b5b6000615e9f8482850161551a565b91505092915050565b600060c082019050615ebd6000830189615b56565b8181036020830152615ecf8188615b76565b90508181036040830152615ee38187615b76565b90508181036060830152615ef78186615b76565b90508181036080830152615f0b8185615b76565b905081810360a0830152615f1f8184615b76565b9050979650505050505050565b60008060408385031215615f4357615f426154c7565b5b6000615f518582860161551a565b925050602083013567ffffffffffffffff811115615f7257615f716154cc565b5b615f7e85828601615647565b9150509250929050565b615f9181615c74565b82525050565b600060c082019050615fac6000830189615f88565b615fb96020830188615b56565b615fc66040830187615b56565b8181036060830152615fd88186615b76565b90508181036080830152615fec8185615b76565b905081810360a08301526160008184615b76565b9050979650505050505050565b600061012082019050616023600083018c615f88565b616030602083018b615b56565b61603d604083018a615b56565b818103606083015261604f8189615b76565b905081810360808301526160638188615b76565b905081810360a08301526160778187615b76565b905061608660c08301866157e1565b61609360e08301856157e1565b6160a16101008301846157e1565b9a9950505050505050505050565b600080600080608085870312156160c9576160c86154c7565b5b60006160d78782880161551a565b94505060206160e88782880161551a565b935050604085013567ffffffffffffffff811115616109576161086154cc565b5b61611587828801615647565b925050606085013567ffffffffffffffff811115616136576161356154cc565b5b61614287828801615647565b91505092959194509250565b600060c08201905081810360008301526161688189615b76565b9050818103602083015261617c8188615b76565b905081810360408301526161908187615b76565b905061619f60608301866157e1565b6161ac60808301856157e1565b6161b960a08301846157e1565b979650505050505050565b60008060008060008060c087890312156161e1576161e06154c7565b5b60006161ef89828a0161551a565b965050602087013567ffffffffffffffff8111156162105761620f6154cc565b5b61621c89828a01615647565b955050604087013567ffffffffffffffff81111561623d5761623c6154cc565b5b61624989828a01615647565b945050606087013567ffffffffffffffff81111561626a576162696154cc565b5b61627689828a01615647565b935050608087013567ffffffffffffffff811115616297576162966154cc565b5b6162a389828a01615647565b92505060a087013567ffffffffffffffff8111156162c4576162c36154cc565b5b6162d089828a01615647565b9150509295509295509295565b600060e08201905081810360008301526162f7818a615d92565b9050818103602083015261630b818961596b565b9050818103604083015261631f818861596b565b90508181036060830152616333818761596b565b90508181036080830152616347818661596b565b905081810360a083015261635b818561596b565b905081810360c083015261636f818461596b565b905098975050505050505050565b61638681615c74565b811461639157600080fd5b50565b6000813590506163a38161637d565b92915050565b600080600080608085870312156163c3576163c26154c7565b5b60006163d18782880161551a565b94505060206163e28782880161551a565b93505060406163f387828801616394565b925050606085013567ffffffffffffffff811115616414576164136154cc565b5b61642087828801615647565b91505092959194509250565b600080600080600080600060e0888a03121561644b5761644a6154c7565b5b60006164598a828b0161551a565b975050602088013567ffffffffffffffff81111561647a576164796154cc565b5b6164868a828b01615647565b965050604088013567ffffffffffffffff8111156164a7576164a66154cc565b5b6164b38a828b01615647565b955050606088013567ffffffffffffffff8111156164d4576164d36154cc565b5b6164e08a828b01615647565b945050608088013567ffffffffffffffff811115616501576165006154cc565b5b61650d8a828b01615647565b93505060a088013567ffffffffffffffff81111561652e5761652d6154cc565b5b61653a8a828b01615647565b92505060c088013567ffffffffffffffff81111561655b5761655a6154cc565b5b6165678a828b01615647565b91505092959891949750929550565b7f4475706c6963617465204c5220526573756c742e000000000000000000000000600082015250565b60006165ac601483615b65565b91506165b782616576565b602082019050919050565b600060208201905081810360008301526165db8161659f565b9050919050565b7f4c697374656e696e672053636f726520696e636f72726563742e000000000000600082015250565b6000616618601a83615b65565b9150616623826165e2565b602082019050919050565b600060208201905081810360008301526166478161660b565b9050919050565b7f52656164696e672053636f726520696e636f72726563742e0000000000000000600082015250565b6000616684601883615b65565b915061668f8261664e565b602082019050919050565b600060208201905081810360008301526166b381616677565b9050919050565b600081905092915050565b60006166d0826158c2565b6166da81856166ba565b93506166ea8185602086016158de565b80840191505092915050565b600061670282856166c5565b915061670e82846166c5565b91508190509392505050565b7f4e487b7100000000000000000000000000000000000000000000000000000000600052601160045260246000fd5b600061675482615675565b915061675f83615675565b9250827fffffffffffffffffffffffffffffffffffffffffffffffffffffffffffffffff038211156167945761679361671a565b5b828201905092915050565b7f4e487b7100000000000000000000000000000000000000000000000000000000600052603260045260246000fd5b7f4e487b7100000000000000000000000000000000000000000000000000000000600052602260045260246000fd5b6000600282049050600182168061681557607f821691505b60208210811415616829576168286167ce565b5b50919050565b600081905092915050565b60008190508160005260206000209050919050565b6000815461685c816167fd565b616866818661682f565b945060018216600081146168815760018114616892576168c5565b60ff198316865281860193506168c5565b61689b8561683a565b60005b838110156168bd5781548189015260018201915060208101905061689e565b838801955050505b50505092915050565b60006168da828461684f565b915081905092915050565b60006168f082615675565b91507fffffffffffffffffffffffffffffffffffffffffffffffffffffffffffffffff8214156169235761692261671a565b5b600182019050919050565b7f57616974696e6720666f7220636f6e6669726d6174696f6e2e00000000000000600082015250565b6000616964601983615b65565b915061696f8261692e565b602082019050919050565b6000602082019050818103600083015261699381616957565b9050919050565b60006169a682846166c5565b915081905092915050565b7f537461747573205265717565737420696e636f72726563742e00000000000000600082015250565b60006169e7601983615b65565b91506169f2826169b1565b602082019050919050565b60006020820190508181036000830152616a16816169da565b9050919050565b7f4475706c696361746520535720526573756c742e000000000000000000000000600082015250565b6000616a53601483615b65565b9150616a5e82616a1d565b602082019050919050565b60006020820190508181036000830152616a8281616a46565b9050919050565b7f537065616b696e672053636f726520696e636f72726563742e00000000000000600082015250565b6000616abf601983615b65565b9150616aca82616a89565b602082019050919050565b60006020820190508181036000830152616aee81616ab2565b9050919050565b7f57726974696e672053636f726520696e636f72726563742e0000000000000000600082015250565b6000616b2b601883615b65565b9150616b3682616af5565b602082019050919050565b60006020820190508181036000830152616b5a81616b1e565b905091905056fea2646970667358221220d70b367c7b4afc022173915fc16887fe8e5c5e31a5d9396676310541c516687864736f6c634300080b0033",
  "immutableReferences": {},
  "source": "// SPDX-License-Identifier: MIT\r\npragma solidity >=0.4.22 <0.9.0;\r\n\r\n// Lu tr danh sch IIG\r\ncontract ListIIG {\r\n\r\n    // Khai bo cu trc lu tr thng tin IIG\r\n    struct IIGInfo {\r\n        address iigOwner;\r\n        string name;\r\n        string country;\r\n        string facebook;\r\n        string website;\r\n        string linkedin;\r\n        string password;\r\n    }\r\n\r\n    // Khai bo cu trc lu tr thng tin yu cu chng ch IIG ca sinh vin\r\n    struct IIGRequest {\r\n        bytes4 codeRequest;\r\n        address studentOwner;\r\n        address iigOwner;\r\n        string identityCard;\r\n        string requestDate;\r\n        string statusRequest;\r\n    }\r\n\r\n    // Khai bo cu trc lu tr thng tin im thi Listening - Reading IIG\r\n    struct IIGLRResult {\r\n        bytes4 codeLRResult;\r\n        address iigOwner;\r\n        address studentOwner;\r\n        string testDate;\r\n        string shiftTest;\r\n        string expireDate;\r\n        uint listeningScore;\r\n        uint readingScore;\r\n        uint totalScore;\r\n    }\r\n\r\n    // Khai bo cu trc lu tr thng tin im thi Speaking - Writing IIG\r\n    struct IIGSWResult {\r\n        bytes4 codeSWResult;\r\n        address iigOwner;\r\n        address studentOwner;\r\n        string testDate;\r\n        string shiftTest;\r\n        string expireDate;\r\n        uint speakingScore;\r\n        uint writingScore;\r\n        uint totalScore;\r\n    }\r\n\r\n    // Khai bo mng  lu tr thng tin\r\n    IIGInfo[] public iigInfos;\r\n    IIGRequest[] public iigRequests;\r\n    IIGLRResult[] public iigLRResults;\r\n    IIGSWResult[] public iigSWResults;\r\n\r\n    // Chc nng thm thng tin IGG\r\n    function addIIG (\r\n        address _iigOwner,\r\n        string memory _name,\r\n        string memory _country,\r\n        string memory _facebook,\r\n        string memory _website,\r\n        string memory _linkedin,\r\n        string memory _password) public {\r\n            iigInfos.push(\r\n                IIGInfo(_iigOwner, \r\n                        _name, \r\n                        _country, \r\n                        _facebook,\r\n                        _website, \r\n                        _linkedin, \r\n                        _password)\r\n                );\r\n    }\r\n\r\n    // Chc nng chnh sa thng tin IGG\r\n    function editIIG (\r\n        address _iigOwner,\r\n        string memory _name,\r\n        string memory _country,\r\n        string memory _facebook,\r\n        string memory _website,\r\n        string memory _linkedin) public {\r\n            for(uint i=0; i<iigInfos.length;i++){\r\n                if(iigInfos[i].iigOwner == _iigOwner){\r\n                    iigInfos[i].name = _name;\r\n                    iigInfos[i].country = _country;\r\n                    iigInfos[i].facebook = _facebook;\r\n                    iigInfos[i].website = _website;\r\n                    iigInfos[i].linkedin = _linkedin;\r\n                }\r\n            }\r\n    }\r\n\r\n    // Chc nng ly danh sch IIG  thm\r\n    function getListIIG() public view returns(\r\n        address[] memory, \r\n        string[] memory, \r\n        string[] memory, \r\n        string[] memory, \r\n        string[] memory, \r\n        string[] memory, \r\n        string[] memory) {\r\n            address[] memory iigOwners = new address[](iigInfos.length);\r\n            string[] memory names = new string[](iigInfos.length);\r\n            string[] memory countrys = new string[](iigInfos.length);\r\n            string[] memory facebooks = new string[](iigInfos.length);\r\n            string[] memory websites = new string[](iigInfos.length);\r\n            string[] memory linkedins = new string[](iigInfos.length);\r\n            string[] memory passwords = new string[](iigInfos.length);\r\n            for(uint i=0; i<iigInfos.length;i++){\r\n                iigOwners[i] = iigInfos[i].iigOwner;\r\n                names[i] = iigInfos[i].name;\r\n                countrys[i] = iigInfos[i].country;\r\n                facebooks[i] = iigInfos[i].facebook;\r\n                websites[i] = iigInfos[i].website;\r\n                linkedins[i] = iigInfos[i].linkedin;\r\n                passwords[i] = iigInfos[i].password;\r\n            }\r\n            return (iigOwners, names, countrys, facebooks, websites, linkedins, passwords);\r\n    }\r\n\r\n    // Chc nng ly thng tin ca IIG\r\n    function getProfile(address _iigOwner) public view returns(\r\n        address iigOwner, \r\n        string memory name, \r\n        string memory country, \r\n        string memory facebook, \r\n        string memory website, \r\n        string memory linkedin) {\r\n            for(uint i=0; i<iigInfos.length;i++){\r\n                if(iigInfos[i].iigOwner == _iigOwner){\r\n                    return (iigInfos[i].iigOwner,\r\n                            iigInfos[i].name, \r\n                            iigInfos[i].country, \r\n                            iigInfos[i].facebook, \r\n                            iigInfos[i].website, \r\n                            iigInfos[i].linkedin);\r\n                }\r\n            }\r\n    }\r\n\r\n    // Chc nng kim tra IIG  ng k hay cha?\r\n    function checkIIG(\r\n        address _iigOwner, \r\n        string memory _password) public view returns(uint x) {\r\n            for(uint i=0; i<iigInfos.length; i++){\r\n                if((iigInfos[i].iigOwner == _iigOwner) && (keccak256(bytes(iigInfos[i].password)) == keccak256(bytes(_password)))){\r\n                    return 1;\r\n                }\r\n            }\r\n    }\r\n\r\n    // Chc nng kim tra a ch IIG  tn ti hay cha?\r\n    function checkExistIIG(address _iigOwner) public view returns(uint x) {\r\n        for(uint i=0; i<iigInfos.length; i++){\r\n            if(iigInfos[i].iigOwner == _iigOwner){\r\n                return 1;\r\n            }\r\n        }\r\n    }\r\n\r\n    // Chc nng thm thng tin yu cu chng ch IIG\r\n    function addRequest (\r\n        address _studentOwner,\r\n        address _iigOwner,\r\n        string memory _identityCard,\r\n        string memory _requestDate) public {\r\n            require(checkRequest(_studentOwner, _iigOwner) == 0, \"Waiting for confirmation.\");\r\n            iigRequests.push(\r\n                IIGRequest(bytes4(keccak256(abi.encodePacked(_requestDate))),\r\n                        _studentOwner, \r\n                        _iigOwner,\r\n                        _identityCard,\r\n                        _requestDate,\r\n                        \"Waiting\")\r\n                );\r\n    }\r\n\r\n    // Chc nng ly danh sch yu cu chng ch IIG\r\n    function getListRequest(address _iigOwner) public view returns(\r\n        bytes4[] memory,\r\n        address[] memory, \r\n        address[] memory,\r\n        string[] memory,\r\n        string[] memory,\r\n        string[] memory) {\r\n            bytes4[] memory codeRequests = new bytes4[](iigRequests.length);\r\n            address[] memory studentOwners = new address[](iigRequests.length);\r\n            address[] memory iigOwners = new address[](iigRequests.length);\r\n            string[] memory identityCards = new string[](iigRequests.length);\r\n            string[] memory requestDates = new string[](iigRequests.length);\r\n            string[] memory statusRequests = new string[](iigRequests.length);\r\n            for(uint i=0; i<iigRequests.length;i++){\r\n                if(iigRequests[i].iigOwner == _iigOwner){\r\n                    codeRequests[i] = iigRequests[i].codeRequest;\r\n                    studentOwners[i] = iigRequests[i].studentOwner;\r\n                    iigOwners[i] = iigRequests[i].iigOwner;\r\n                    identityCards[i] = iigRequests[i].identityCard;\r\n                    requestDates[i] = iigRequests[i].requestDate;\r\n                    statusRequests[i] = iigRequests[i].statusRequest;\r\n                }\r\n            }\r\n            return (codeRequests, studentOwners, iigOwners, identityCards, requestDates, statusRequests);\r\n    }\r\n\r\n    // Chc nng ly danh sch yu cu chng ch IIG theo sinh vin\r\n    function getListRequestStudent(address _iigOwner, address _studentOwner) public view returns(\r\n        bytes4[] memory,\r\n        address[] memory, \r\n        address[] memory,\r\n        string[] memory,\r\n        string[] memory,\r\n        string[] memory) {\r\n            bytes4[] memory codeRequests = new bytes4[](iigRequests.length);\r\n            address[] memory studentOwners = new address[](iigRequests.length);\r\n            address[] memory iigOwners = new address[](iigRequests.length);\r\n            string[] memory identityCards = new string[](iigRequests.length);\r\n            string[] memory requestDates = new string[](iigRequests.length);\r\n            string[] memory statusRequests = new string[](iigRequests.length);\r\n            for(uint i=0; i<iigRequests.length;i++){\r\n                if((iigRequests[i].iigOwner == _iigOwner) && (iigRequests[i].studentOwner == _studentOwner)){\r\n                    codeRequests[i] = iigRequests[i].codeRequest;\r\n                    studentOwners[i] = iigRequests[i].studentOwner;\r\n                    iigOwners[i] = iigRequests[i].iigOwner;\r\n                    identityCards[i] = iigRequests[i].identityCard;\r\n                    requestDates[i] = iigRequests[i].requestDate;\r\n                    statusRequests[i] = iigRequests[i].statusRequest;\r\n                }\r\n            }\r\n            return (codeRequests, studentOwners, iigOwners, identityCards, requestDates, statusRequests);\r\n    }\r\n\r\n    //Chc nng kim tra yu cu chng ch IIG\r\n    function checkRequest(\r\n        address _studentOwner, \r\n        address _iigOwner) public view returns(uint x) {\r\n            for(uint i=0; i<iigRequests.length; i++){\r\n                if((iigRequests[i].studentOwner == _studentOwner) && (iigRequests[i].iigOwner == _iigOwner) && (keccak256(bytes(iigRequests[i].statusRequest)) == keccak256(bytes(\"Waiting\")))){\r\n                    return 1;\r\n                }\r\n            }\r\n    }\r\n\r\n    //Chc nng duyt yu cu chng ch IIG\r\n    function confirmRequest(\r\n        address _studentOwner, \r\n        address _iigOwner,\r\n        bytes4 _codeRequest,\r\n        string memory _statusRequest) public {\r\n            require(keccak256(bytes(_statusRequest)) == keccak256(bytes(\"Accepted\")) || keccak256(bytes(_statusRequest)) == keccak256(bytes(\"Declined\")), \"Status Request incorrect.\");\r\n            for(uint i=0; i<iigRequests.length; i++){\r\n                if((iigRequests[i].studentOwner == _studentOwner) && (iigRequests[i].iigOwner == _iigOwner) && (iigRequests[i].codeRequest == _codeRequest)){\r\n                    iigRequests[i].statusRequest = _statusRequest;\r\n                }\r\n            }\r\n    }\r\n\r\n    // Chc nng thm thng tin im thi Listening - Reading (Kim tra c nhp nhiu ln thi ca 1 sinh vin chung 1 ngy khng?)\r\n    function addLRResult (\r\n        address _iigOwner,\r\n        address _studentOwner,\r\n        string memory _testDate,\r\n        string memory _shiftTest,\r\n        string memory _expireDate,\r\n        uint _listeningScore,\r\n        uint _readingScore) public {\r\n            require(checkExistLRResult(_studentOwner, _testDate, _shiftTest) == 0, \"Duplicate LR Result.\");\r\n            require(_listeningScore >=0 && _listeningScore <=495, \"Listening Score incorrect.\");\r\n            require(_readingScore >=0 && _readingScore <=495, \"Reading Score incorrect.\");\r\n            iigLRResults.push(\r\n                IIGLRResult(bytes4(keccak256(abi.encodePacked(_testDate, _shiftTest))),\r\n                        _iigOwner, \r\n                        _studentOwner, \r\n                        _testDate,\r\n                        _shiftTest,\r\n                        _expireDate,\r\n                        _listeningScore, \r\n                        _readingScore,\r\n                        (_listeningScore + _readingScore))\r\n                );\r\n    }\r\n\r\n    // Chc nng ly danh sch im thi Listening - Reading  thm\r\n    function getListLRResult(\r\n        address _iigOwner, \r\n        address _studentOwner) public view returns(\r\n            string[] memory,\r\n            string[] memory,\r\n            string[] memory,\r\n            uint[] memory,\r\n            uint[] memory,\r\n            uint[] memory) {\r\n                string[] memory testDates = new string[](iigLRResults.length);\r\n                string[] memory shiftTests = new string[](iigLRResults.length);\r\n                string[] memory expireDates = new string[](iigLRResults.length);\r\n                uint[] memory listeningScores = new uint[](iigLRResults.length);\r\n                uint[] memory readingScores = new uint[](iigLRResults.length);\r\n                uint[] memory totalScores = new uint[](iigLRResults.length);\r\n                for(uint i=0; i<iigLRResults.length;i++){\r\n                    if((iigLRResults[i].iigOwner == _iigOwner) && (iigLRResults[i].studentOwner == _studentOwner)){\r\n                        testDates[i] = iigLRResults[i].testDate;\r\n                        shiftTests[i] = iigLRResults[i].shiftTest;\r\n                        expireDates[i] = iigLRResults[i].expireDate;\r\n                        listeningScores[i] = iigLRResults[i].listeningScore;\r\n                        readingScores[i] = iigLRResults[i].readingScore;\r\n                        totalScores[i] = iigLRResults[i].totalScore;\r\n                    }\r\n                }\r\n                return (testDates, shiftTests, expireDates, listeningScores, readingScores, totalScores);\r\n    }\r\n\r\n    // Chc nng ly im thi Listening - Reading ca sinh vin\r\n    function getLRResult(\r\n        address _iigOwner, \r\n        address _studentOwner,\r\n        string memory _testDate,\r\n        string memory _shiftTest) public view returns(\r\n            string memory testDate,\r\n            string memory shiftTest,\r\n            string memory expireDate,\r\n            uint listeningScore,\r\n            uint readingScore,\r\n            uint totalScore) {\r\n                for(uint i=0; i<iigLRResults.length;i++){\r\n                    if((iigLRResults[i].iigOwner == _iigOwner) && (iigLRResults[i].studentOwner == _studentOwner) && (iigLRResults[i].codeLRResult == keccak256(bytes(string(abi.encodePacked(_testDate, _shiftTest)))))){\r\n                        return(iigLRResults[i].testDate,\r\n                                iigLRResults[i].shiftTest,\r\n                                iigLRResults[i].expireDate,\r\n                                iigLRResults[i].listeningScore,\r\n                                iigLRResults[i].readingScore,\r\n                                iigLRResults[i].totalScore);\r\n                    }\r\n                }\r\n    }\r\n\r\n    // Chc nng kim tra kt qu ngy thi Listening - Reading ca sinh vin  tn ti hay cha?\r\n    function checkExistLRResult(\r\n        address _studentOwner, \r\n        string memory _testDate,\r\n        string memory _shiftTest) public view returns(uint x) {\r\n            for(uint i=0; i<iigLRResults.length; i++){\r\n                if((iigLRResults[i].studentOwner == _studentOwner) && (iigLRResults[i].codeLRResult == keccak256(bytes(string(abi.encodePacked(_testDate, _shiftTest)))))){\r\n                    return 1;\r\n                }\r\n            }\r\n    }\r\n\r\n    // Chc nng thm thng tin im thi Speaking - Writing\r\n    function addSWResult (\r\n        address _iigOwner,\r\n        address _studentOwner,\r\n        string memory _testDate,\r\n        string memory _shiftTest,\r\n        string memory _expireDate,\r\n        uint _speakingScore,\r\n        uint _writingScore) public {\r\n            require(checkExistLRResult(_studentOwner, _testDate, _shiftTest) == 0, \"Duplicate SW Result.\");\r\n            require(_speakingScore >=0 && _speakingScore <=200, \"Speaking Score incorrect.\");\r\n            require(_writingScore >=0 && _writingScore <=200, \"Writing Score incorrect.\");\r\n            iigSWResults.push(\r\n                IIGSWResult(bytes4(keccak256(abi.encodePacked(_testDate, _shiftTest))),\r\n                        _iigOwner, \r\n                        _studentOwner, \r\n                        _testDate,\r\n                        _shiftTest,\r\n                        _expireDate,\r\n                        _speakingScore, \r\n                        _writingScore,\r\n                        (_speakingScore + _writingScore))\r\n                );\r\n    }\r\n\r\n    // Chc nng ly danh sch im thi Speaking - Writing  thm\r\n    function getListSWResult(address _iigOwner, address _studentOwner) public view returns(\r\n        string[] memory,\r\n        string[] memory,\r\n        string[] memory,\r\n        uint[] memory,\r\n        uint[] memory,\r\n        uint[] memory) {\r\n            string[] memory testDates = new string[](iigSWResults.length);\r\n            string[] memory shiftTests = new string[](iigSWResults.length);\r\n            string[] memory expireDates = new string[](iigSWResults.length);\r\n            uint[] memory speakingScores = new uint[](iigSWResults.length);\r\n            uint[] memory writingScores = new uint[](iigSWResults.length);\r\n            uint[] memory totalScores = new uint[](iigSWResults.length);\r\n            for(uint i=0; i<iigSWResults.length;i++){\r\n                if((iigLRResults[i].iigOwner == _iigOwner) && (iigLRResults[i].studentOwner == _studentOwner)){\r\n                    testDates[i] = iigSWResults[i].testDate;\r\n                    shiftTests[i] = iigSWResults[i].shiftTest;\r\n                    expireDates[i] = iigSWResults[i].expireDate;\r\n                    speakingScores[i] = iigSWResults[i].speakingScore;\r\n                    writingScores[i] = iigSWResults[i].writingScore;\r\n                    totalScores[i] = iigSWResults[i].totalScore;\r\n                }\r\n            }\r\n            return (testDates, shiftTests, expireDates, speakingScores, writingScores, totalScores);\r\n    }\r\n\r\n    // Chc nng ly im thi Speaking - Writing ca sinh vin\r\n    function getSWResult(\r\n        address _iigOwner, \r\n        address _studentOwner,\r\n        string memory _testDate,\r\n        string memory _shiftTest) public view returns(\r\n            string memory testDate,\r\n            string memory shiftTest,\r\n            string memory expireDate,\r\n            uint speakingScore,\r\n            uint writingScore,\r\n            uint totalScore) {\r\n                for(uint i=0; i<iigSWResults.length;i++){\r\n                    if((iigSWResults[i].iigOwner == _iigOwner) && (iigSWResults[i].studentOwner == _studentOwner) && (iigSWResults[i].codeSWResult == keccak256(bytes(string(abi.encodePacked(_testDate, _shiftTest)))))){\r\n                        return(iigSWResults[i].testDate,\r\n                                iigSWResults[i].shiftTest,\r\n                                iigSWResults[i].expireDate,\r\n                                iigSWResults[i].speakingScore,\r\n                                iigSWResults[i].writingScore,\r\n                                iigSWResults[i].totalScore);\r\n                    }\r\n                }\r\n    }\r\n    \r\n    // Chc nng kim tra kt qu ngy thi Speaking - Writing ca sinh vin  tn ti hay cha?\r\n    function checkExistSWResult(\r\n        address _studentOwner,\r\n        string memory _testDate,\r\n        string memory _shiftTest) public view returns(uint x) {\r\n            for(uint i=0; i<iigSWResults.length; i++){\r\n                if((iigLRResults[i].studentOwner == _studentOwner) && (iigLRResults[i].codeLRResult == keccak256(bytes(string(abi.encodePacked(_testDate, _shiftTest)))))){\r\n                    return 1;\r\n                }\r\n            }\r\n    }\r\n}",
  "sourcePath": "C:\\Users\\19520\\Documents\\NCKH_Blockchain\\SolidityProgramming\\ProjectResearch\\SmartCV\\SmartContract\\contracts\\SmartCV_ListIIG.sol",
  "compiler": {
    "name": "solc",
    "version": "0.8.11+commit.d7f03943.Emscripten.clang"
  },
  "schemaVersion": "3.4.4",
  "updatedAt": "2022-07-30T05:05:37.106Z",
  "devdoc": {
    "kind": "dev",
    "methods": {},
    "version": 1
  },
  "userdoc": {
    "kind": "user",
    "methods": {},
    "version": 1
  }
}