{
  "contractName": "ListBusiness",
  "abi": [
    {
      "inputs": [
        {
          "internalType": "uint256",
          "name": "",
          "type": "uint256"
        }
      ],
      "name": "listDNs",
      "outputs": [
        {
          "internalType": "address",
          "name": "businessOwner",
          "type": "address"
        },
        {
          "internalType": "string",
          "name": "name",
          "type": "string"
        },
        {
          "internalType": "string",
          "name": "country",
          "type": "string"
        },
        {
          "internalType": "string",
          "name": "facebook",
          "type": "string"
        },
        {
          "internalType": "string",
          "name": "website",
          "type": "string"
        },
        {
          "internalType": "string",
          "name": "linkedin",
          "type": "string"
        },
        {
          "internalType": "string",
          "name": "focusArea",
          "type": "string"
        },
        {
          "internalType": "string",
          "name": "password",
          "type": "string"
        }
      ],
      "stateMutability": "view",
      "type": "function"
    },
    {
      "inputs": [
        {
          "internalType": "address",
          "name": "_businessOwner",
          "type": "address"
        },
        {
          "internalType": "string",
          "name": "_name",
          "type": "string"
        },
        {
          "internalType": "string",
          "name": "_country",
          "type": "string"
        },
        {
          "internalType": "string",
          "name": "_facebook",
          "type": "string"
        },
        {
          "internalType": "string",
          "name": "_website",
          "type": "string"
        },
        {
          "internalType": "string",
          "name": "_linkedin",
          "type": "string"
        },
        {
          "internalType": "string",
          "name": "_focusArea",
          "type": "string"
        },
        {
          "internalType": "string",
          "name": "_password",
          "type": "string"
        }
      ],
      "name": "addDN",
      "outputs": [],
      "stateMutability": "nonpayable",
      "type": "function"
    },
    {
      "inputs": [],
      "name": "getListDN",
      "outputs": [
        {
          "internalType": "address[]",
          "name": "",
          "type": "address[]"
        },
        {
          "internalType": "string[]",
          "name": "",
          "type": "string[]"
        },
        {
          "internalType": "string[]",
          "name": "",
          "type": "string[]"
        },
        {
          "internalType": "string[]",
          "name": "",
          "type": "string[]"
        },
        {
          "internalType": "string[]",
          "name": "",
          "type": "string[]"
        },
        {
          "internalType": "string[]",
          "name": "",
          "type": "string[]"
        },
        {
          "internalType": "string[]",
          "name": "",
          "type": "string[]"
        },
        {
          "internalType": "string[]",
          "name": "",
          "type": "string[]"
        }
      ],
      "stateMutability": "view",
      "type": "function"
    },
    {
      "inputs": [
        {
          "internalType": "address",
          "name": "_businessOwner",
          "type": "address"
        }
      ],
      "name": "getProfile",
      "outputs": [
        {
          "internalType": "address",
          "name": "businessOwner",
          "type": "address"
        },
        {
          "internalType": "string",
          "name": "name",
          "type": "string"
        },
        {
          "internalType": "string",
          "name": "country",
          "type": "string"
        },
        {
          "internalType": "string",
          "name": "facebook",
          "type": "string"
        },
        {
          "internalType": "string",
          "name": "website",
          "type": "string"
        },
        {
          "internalType": "string",
          "name": "linkedin",
          "type": "string"
        },
        {
          "internalType": "string",
          "name": "focusArea",
          "type": "string"
        }
      ],
      "stateMutability": "view",
      "type": "function"
    },
    {
      "inputs": [
        {
          "internalType": "address",
          "name": "_businessOwner",
          "type": "address"
        },
        {
          "internalType": "string",
          "name": "_password",
          "type": "string"
        }
      ],
      "name": "checkDN",
      "outputs": [
        {
          "internalType": "uint256",
          "name": "x",
          "type": "uint256"
        }
      ],
      "stateMutability": "view",
      "type": "function"
    },
    {
      "inputs": [
        {
          "internalType": "address",
          "name": "_businessOwner",
          "type": "address"
        }
      ],
      "name": "checkExistDN",
      "outputs": [
        {
          "internalType": "uint256",
          "name": "x",
          "type": "uint256"
        }
      ],
      "stateMutability": "view",
      "type": "function"
    }
  ],
  "bytecode": "0x608060405234801561001057600080fd5b5061228c806100206000396000f3fe608060405234801561001057600080fd5b50600436106100625760003560e01c80630f53a47014610067578063a7dba1841461009d578063bf44b303146100cd578063c6fe410a14610104578063cfafbc0c14610134578063e045b71014610159575b600080fd5b610081600480360381019061007c9190611863565b610175565b6040516100949796959493929190611938565b60405180910390f35b6100b760048036038101906100b29190611b06565b6106a9565b6040516100c49190611b7b565b60405180910390f35b6100e760048036038101906100e29190611bc2565b6107a7565b6040516100fb989796959493929190611bef565b60405180910390f35b61011e60048036038101906101199190611863565b610bd7565b60405161012b9190611b7b565b60405180910390f35b61013c610c89565b604051610150989796959493929190611e68565b60405180910390f35b610173600480360381019061016e9190611f1e565b6115b5565b005b600060608060608060608060005b60008054905081101561069c578873ffffffffffffffffffffffffffffffffffffffff16600082815481106101bb576101ba612098565b5b906000526020600020906008020160000160009054906101000a900473ffffffffffffffffffffffffffffffffffffffff1673ffffffffffffffffffffffffffffffffffffffff161415610689576000818154811061021d5761021c612098565b5b906000526020600020906008020160000160009054906101000a900473ffffffffffffffffffffffffffffffffffffffff166000828154811061026357610262612098565b5b90600052602060002090600802016001016000838154811061028857610287612098565b5b9060005260206000209060080201600201600084815481106102ad576102ac612098565b5b9060005260206000209060080201600301600085815481106102d2576102d1612098565b5b9060005260206000209060080201600401600086815481106102f7576102f6612098565b5b90600052602060002090600802016005016000878154811061031c5761031b612098565b5b9060005260206000209060080201600601858054610339906120f6565b80601f0160208091040260200160405190810160405280929190818152602001828054610365906120f6565b80156103b25780601f10610387576101008083540402835291602001916103b2565b820191906000526020600020905b81548152906001019060200180831161039557829003601f168201915b505050505095508480546103c5906120f6565b80601f01602080910402602001604051908101604052809291908181526020018280546103f1906120f6565b801561043e5780601f106104135761010080835404028352916020019161043e565b820191906000526020600020905b81548152906001019060200180831161042157829003601f168201915b50505050509450838054610451906120f6565b80601f016020809104026020016040519081016040528092919081815260200182805461047d906120f6565b80156104ca5780601f1061049f576101008083540402835291602001916104ca565b820191906000526020600020905b8154815290600101906020018083116104ad57829003601f168201915b505050505093508280546104dd906120f6565b80601f0160208091040260200160405190810160405280929190818152602001828054610509906120f6565b80156105565780601f1061052b57610100808354040283529160200191610556565b820191906000526020600020905b81548152906001019060200180831161053957829003601f168201915b50505050509250818054610569906120f6565b80601f0160208091040260200160405190810160405280929190818152602001828054610595906120f6565b80156105e25780601f106105b7576101008083540402835291602001916105e2565b820191906000526020600020905b8154815290600101906020018083116105c557829003601f168201915b505050505091508080546105f5906120f6565b80601f0160208091040260200160405190810160405280929190818152602001828054610621906120f6565b801561066e5780601f106106435761010080835404028352916020019161066e565b820191906000526020600020905b81548152906001019060200180831161065157829003601f168201915b5050505050905097509750975097509750975097505061069e565b808061069490612157565b915050610183565b505b919395979092949650565b600080600090505b60008054905081101561079f578373ffffffffffffffffffffffffffffffffffffffff16600082815481106106e9576106e8612098565b5b906000526020600020906008020160000160009054906101000a900473ffffffffffffffffffffffffffffffffffffffff1673ffffffffffffffffffffffffffffffffffffffff1614801561077d575082805190602001206000828154811061075557610754612098565b5b9060005260206000209060080201600701604051610773919061223f565b6040518091039020145b1561078c5760019150506107a1565b808061079790612157565b9150506106b1565b505b92915050565b600081815481106107b757600080fd5b90600052602060002090600802016000915090508060000160009054906101000a900473ffffffffffffffffffffffffffffffffffffffff1690806001018054610800906120f6565b80601f016020809104026020016040519081016040528092919081815260200182805461082c906120f6565b80156108795780601f1061084e57610100808354040283529160200191610879565b820191906000526020600020905b81548152906001019060200180831161085c57829003601f168201915b50505050509080600201805461088e906120f6565b80601f01602080910402602001604051908101604052809291908181526020018280546108ba906120f6565b80156109075780601f106108dc57610100808354040283529160200191610907565b820191906000526020600020905b8154815290600101906020018083116108ea57829003601f168201915b50505050509080600301805461091c906120f6565b80601f0160208091040260200160405190810160405280929190818152602001828054610948906120f6565b80156109955780601f1061096a57610100808354040283529160200191610995565b820191906000526020600020905b81548152906001019060200180831161097857829003601f168201915b5050505050908060040180546109aa906120f6565b80601f01602080910402602001604051908101604052809291908181526020018280546109d6906120f6565b8015610a235780601f106109f857610100808354040283529160200191610a23565b820191906000526020600020905b815481529060010190602001808311610a0657829003601f168201915b505050505090806005018054610a38906120f6565b80601f0160208091040260200160405190810160405280929190818152602001828054610a64906120f6565b8015610ab15780601f10610a8657610100808354040283529160200191610ab1565b820191906000526020600020905b815481529060010190602001808311610a9457829003601f168201915b505050505090806006018054610ac6906120f6565b80601f0160208091040260200160405190810160405280929190818152602001828054610af2906120f6565b8015610b3f5780601f10610b1457610100808354040283529160200191610b3f565b820191906000526020600020905b815481529060010190602001808311610b2257829003601f168201915b505050505090806007018054610b54906120f6565b80601f0160208091040260200160405190810160405280929190818152602001828054610b80906120f6565b8015610bcd5780601f10610ba257610100808354040283529160200191610bcd565b820191906000526020600020905b815481529060010190602001808311610bb057829003601f168201915b5050505050905088565b600080600090505b600080549050811015610c82578273ffffffffffffffffffffffffffffffffffffffff1660008281548110610c1757610c16612098565b5b906000526020600020906008020160000160009054906101000a900473ffffffffffffffffffffffffffffffffffffffff1673ffffffffffffffffffffffffffffffffffffffff161415610c6f576001915050610c84565b8080610c7a90612157565b915050610bdf565b505b919050565b6060806060806060806060806000808054905067ffffffffffffffff811115610cb557610cb46119db565b5b604051908082528060200260200182016040528015610ce35781602001602082028036833780820191505090505b5090506000808054905067ffffffffffffffff811115610d0657610d056119db565b5b604051908082528060200260200182016040528015610d3957816020015b6060815260200190600190039081610d245790505b5090506000808054905067ffffffffffffffff811115610d5c57610d5b6119db565b5b604051908082528060200260200182016040528015610d8f57816020015b6060815260200190600190039081610d7a5790505b5090506000808054905067ffffffffffffffff811115610db257610db16119db565b5b604051908082528060200260200182016040528015610de557816020015b6060815260200190600190039081610dd05790505b5090506000808054905067ffffffffffffffff811115610e0857610e076119db565b5b604051908082528060200260200182016040528015610e3b57816020015b6060815260200190600190039081610e265790505b5090506000808054905067ffffffffffffffff811115610e5e57610e5d6119db565b5b604051908082528060200260200182016040528015610e9157816020015b6060815260200190600190039081610e7c5790505b5090506000808054905067ffffffffffffffff811115610eb457610eb36119db565b5b604051908082528060200260200182016040528015610ee757816020015b6060815260200190600190039081610ed25790505b5090506000808054905067ffffffffffffffff811115610f0a57610f096119db565b5b604051908082528060200260200182016040528015610f3d57816020015b6060815260200190600190039081610f285790505b50905060005b60008054905081101561158a5760008181548110610f6457610f63612098565b5b906000526020600020906008020160000160009054906101000a900473ffffffffffffffffffffffffffffffffffffffff16898281518110610fa957610fa8612098565b5b602002602001019073ffffffffffffffffffffffffffffffffffffffff16908173ffffffffffffffffffffffffffffffffffffffff168152505060008181548110610ff757610ff6612098565b5b90600052602060002090600802016001018054611013906120f6565b80601f016020809104026020016040519081016040528092919081815260200182805461103f906120f6565b801561108c5780601f106110615761010080835404028352916020019161108c565b820191906000526020600020905b81548152906001019060200180831161106f57829003601f168201915b50505050508882815181106110a4576110a3612098565b5b6020026020010181905250600081815481106110c3576110c2612098565b5b906000526020600020906008020160020180546110df906120f6565b80601f016020809104026020016040519081016040528092919081815260200182805461110b906120f6565b80156111585780601f1061112d57610100808354040283529160200191611158565b820191906000526020600020905b81548152906001019060200180831161113b57829003601f168201915b50505050508782815181106111705761116f612098565b5b60200260200101819052506000818154811061118f5761118e612098565b5b906000526020600020906008020160030180546111ab906120f6565b80601f01602080910402602001604051908101604052809291908181526020018280546111d7906120f6565b80156112245780601f106111f957610100808354040283529160200191611224565b820191906000526020600020905b81548152906001019060200180831161120757829003601f168201915b505050505086828151811061123c5761123b612098565b5b60200260200101819052506000818154811061125b5761125a612098565b5b90600052602060002090600802016004018054611277906120f6565b80601f01602080910402602001604051908101604052809291908181526020018280546112a3906120f6565b80156112f05780601f106112c5576101008083540402835291602001916112f0565b820191906000526020600020905b8154815290600101906020018083116112d357829003601f168201915b505050505085828151811061130857611307612098565b5b60200260200101819052506000818154811061132757611326612098565b5b90600052602060002090600802016005018054611343906120f6565b80601f016020809104026020016040519081016040528092919081815260200182805461136f906120f6565b80156113bc5780601f10611391576101008083540402835291602001916113bc565b820191906000526020600020905b81548152906001019060200180831161139f57829003601f168201915b50505050508482815181106113d4576113d3612098565b5b6020026020010181905250600081815481106113f3576113f2612098565b5b9060005260206000209060080201600601805461140f906120f6565b80601f016020809104026020016040519081016040528092919081815260200182805461143b906120f6565b80156114885780601f1061145d57610100808354040283529160200191611488565b820191906000526020600020905b81548152906001019060200180831161146b57829003601f168201915b50505050508382815181106114a05761149f612098565b5b6020026020010181905250600081815481106114bf576114be612098565b5b906000526020600020906008020160070180546114db906120f6565b80601f0160208091040260200160405190810160405280929190818152602001828054611507906120f6565b80156115545780601f1061152957610100808354040283529160200191611554565b820191906000526020600020905b81548152906001019060200180831161153757829003601f168201915b505050505082828151811061156c5761156b612098565b5b6020026020010181905250808061158290612157565b915050610f43565b5087878787878787879f509f509f509f509f509f509f509f5050505050505050509091929394959697565b60006040518061010001604052808a73ffffffffffffffffffffffffffffffffffffffff16815260200189815260200188815260200187815260200186815260200185815260200184815260200183815250908060018154018082558091505060019003906000526020600020906008020160009091909190915060008201518160000160006101000a81548173ffffffffffffffffffffffffffffffffffffffff021916908373ffffffffffffffffffffffffffffffffffffffff160217905550602082015181600101908051906020019061169392919061174e565b5060408201518160020190805190602001906116b092919061174e565b5060608201518160030190805190602001906116cd92919061174e565b5060808201518160040190805190602001906116ea92919061174e565b5060a082015181600501908051906020019061170792919061174e565b5060c082015181600601908051906020019061172492919061174e565b5060e082015181600701908051906020019061174192919061174e565b5050505050505050505050565b82805461175a906120f6565b90600052602060002090601f01602090048101928261177c57600085556117c3565b82601f1061179557805160ff19168380011785556117c3565b828001600101855582156117c3579182015b828111156117c25782518255916020019190600101906117a7565b5b5090506117d091906117d4565b5090565b5b808211156117ed5760008160009055506001016117d5565b5090565b6000604051905090565b600080fd5b600080fd5b600073ffffffffffffffffffffffffffffffffffffffff82169050919050565b600061183082611805565b9050919050565b61184081611825565b811461184b57600080fd5b50565b60008135905061185d81611837565b92915050565b600060208284031215611879576118786117fb565b5b60006118878482850161184e565b91505092915050565b61189981611825565b82525050565b600081519050919050565b600082825260208201905092915050565b60005b838110156118d95780820151818401526020810190506118be565b838111156118e8576000848401525b50505050565b6000601f19601f8301169050919050565b600061190a8261189f565b61191481856118aa565b93506119248185602086016118bb565b61192d816118ee565b840191505092915050565b600060e08201905061194d600083018a611890565b818103602083015261195f81896118ff565b9050818103604083015261197381886118ff565b9050818103606083015261198781876118ff565b9050818103608083015261199b81866118ff565b905081810360a08301526119af81856118ff565b905081810360c08301526119c381846118ff565b905098975050505050505050565b600080fd5b600080fd5b7f4e487b7100000000000000000000000000000000000000000000000000000000600052604160045260246000fd5b611a13826118ee565b810181811067ffffffffffffffff82111715611a3257611a316119db565b5b80604052505050565b6000611a456117f1565b9050611a518282611a0a565b919050565b600067ffffffffffffffff821115611a7157611a706119db565b5b611a7a826118ee565b9050602081019050919050565b82818337600083830152505050565b6000611aa9611aa484611a56565b611a3b565b905082815260208101848484011115611ac557611ac46119d6565b5b611ad0848285611a87565b509392505050565b600082601f830112611aed57611aec6119d1565b5b8135611afd848260208601611a96565b91505092915050565b60008060408385031215611b1d57611b1c6117fb565b5b6000611b2b8582860161184e565b925050602083013567ffffffffffffffff811115611b4c57611b4b611800565b5b611b5885828601611ad8565b9150509250929050565b6000819050919050565b611b7581611b62565b82525050565b6000602082019050611b906000830184611b6c565b92915050565b611b9f81611b62565b8114611baa57600080fd5b50565b600081359050611bbc81611b96565b92915050565b600060208284031215611bd857611bd76117fb565b5b6000611be684828501611bad565b91505092915050565b600061010082019050611c05600083018b611890565b8181036020830152611c17818a6118ff565b90508181036040830152611c2b81896118ff565b90508181036060830152611c3f81886118ff565b90508181036080830152611c5381876118ff565b905081810360a0830152611c6781866118ff565b905081810360c0830152611c7b81856118ff565b905081810360e0830152611c8f81846118ff565b90509998505050505050505050565b600081519050919050565b600082825260208201905092915050565b6000819050602082019050919050565b611cd381611825565b82525050565b6000611ce58383611cca565b60208301905092915050565b6000602082019050919050565b6000611d0982611c9e565b611d138185611ca9565b9350611d1e83611cba565b8060005b83811015611d4f578151611d368882611cd9565b9750611d4183611cf1565b925050600181019050611d22565b5085935050505092915050565b600081519050919050565b600082825260208201905092915050565b6000819050602082019050919050565b600082825260208201905092915050565b6000611da48261189f565b611dae8185611d88565b9350611dbe8185602086016118bb565b611dc7816118ee565b840191505092915050565b6000611dde8383611d99565b905092915050565b6000602082019050919050565b6000611dfe82611d5c565b611e088185611d67565b935083602082028501611e1a85611d78565b8060005b85811015611e565784840389528151611e378582611dd2565b9450611e4283611de6565b925060208a01995050600181019050611e1e565b50829750879550505050505092915050565b6000610100820190508181036000830152611e83818b611cfe565b90508181036020830152611e97818a611df3565b90508181036040830152611eab8189611df3565b90508181036060830152611ebf8188611df3565b90508181036080830152611ed38187611df3565b905081810360a0830152611ee78186611df3565b905081810360c0830152611efb8185611df3565b905081810360e0830152611f0f8184611df3565b90509998505050505050505050565b600080600080600080600080610100898b031215611f3f57611f3e6117fb565b5b6000611f4d8b828c0161184e565b985050602089013567ffffffffffffffff811115611f6e57611f6d611800565b5b611f7a8b828c01611ad8565b975050604089013567ffffffffffffffff811115611f9b57611f9a611800565b5b611fa78b828c01611ad8565b965050606089013567ffffffffffffffff811115611fc857611fc7611800565b5b611fd48b828c01611ad8565b955050608089013567ffffffffffffffff811115611ff557611ff4611800565b5b6120018b828c01611ad8565b94505060a089013567ffffffffffffffff81111561202257612021611800565b5b61202e8b828c01611ad8565b93505060c089013567ffffffffffffffff81111561204f5761204e611800565b5b61205b8b828c01611ad8565b92505060e089013567ffffffffffffffff81111561207c5761207b611800565b5b6120888b828c01611ad8565b9150509295985092959890939650565b7f4e487b7100000000000000000000000000000000000000000000000000000000600052603260045260246000fd5b7f4e487b7100000000000000000000000000000000000000000000000000000000600052602260045260246000fd5b6000600282049050600182168061210e57607f821691505b60208210811415612122576121216120c7565b5b50919050565b7f4e487b7100000000000000000000000000000000000000000000000000000000600052601160045260246000fd5b600061216282611b62565b91507fffffffffffffffffffffffffffffffffffffffffffffffffffffffffffffffff82141561219557612194612128565b5b600182019050919050565b600081905092915050565b60008190508160005260206000209050919050565b600081546121cd816120f6565b6121d781866121a0565b945060018216600081146121f2576001811461220357612236565b60ff19831686528186019350612236565b61220c856121ab565b60005b8381101561222e5781548189015260018201915060208101905061220f565b838801955050505b50505092915050565b600061224b82846121c0565b91508190509291505056fea2646970667358221220be6d5762a3d6676b2fbb685084471402619cfef237f88042f05bb755a7490a5b64736f6c634300080b0033",
  "immutableReferences": {},
  "source": "// SPDX-License-Identifier: MIT\r\npragma solidity >=0.4.22 <0.9.0;\r\n\r\n// Lu tr danh sch doanh nghip\r\ncontract ListBusiness {\r\n\r\n    // Khai bo cu trc lu tr thng tin doanh nghip\r\n    struct ListDN {\r\n        address businessOwner;\r\n        string name;\r\n        string country;\r\n        string facebook;\r\n        string website;\r\n        string linkedin;\r\n        string focusArea;\r\n        string password;\r\n    }\r\n\r\n    // Khai bo mng  lu tr thng tin\r\n    ListDN[] public listDNs;\r\n\r\n    // Chc nng thm thng tin doanh nghip\r\n    function addDN (\r\n        address _businessOwner,\r\n        string memory _name,\r\n        string memory _country,\r\n        string memory _facebook,\r\n        string memory _website,\r\n        string memory _linkedin,\r\n        string memory _focusArea,\r\n        string memory _password) public {\r\n            listDNs.push(\r\n                ListDN(_businessOwner, \r\n                        _name, \r\n                        _country, \r\n                        _facebook, \r\n                        _website, \r\n                        _linkedin, \r\n                        _focusArea, \r\n                        _password)\r\n                );\r\n    }\r\n\r\n    // Chc nng ly danh sch doanh nghip  thm\r\n    function getListDN() public view returns(\r\n        address[] memory, \r\n        string[] memory, \r\n        string[] memory, \r\n        string[] memory, \r\n        string[] memory, \r\n        string[] memory, \r\n        string[] memory,\r\n        string[] memory) {\r\n            address[] memory businessOwners = new address[](listDNs.length);\r\n            string[] memory names = new string[](listDNs.length);\r\n            string[] memory countrys = new string[](listDNs.length);\r\n            string[] memory facebooks = new string[](listDNs.length);\r\n            string[] memory websites = new string[](listDNs.length);\r\n            string[] memory linkedins = new string[](listDNs.length);\r\n            string[] memory focusAreas = new string[](listDNs.length);\r\n            string[] memory passwords = new string[](listDNs.length);\r\n            for(uint i=0; i<listDNs.length;i++){\r\n                businessOwners[i] = listDNs[i].businessOwner;\r\n                names[i] = listDNs[i].name;\r\n                countrys[i] = listDNs[i].country;\r\n                facebooks[i] = listDNs[i].facebook;\r\n                websites[i] = listDNs[i].website;\r\n                linkedins[i] = listDNs[i].linkedin;\r\n                focusAreas[i] = listDNs[i].focusArea;\r\n                passwords[i] = listDNs[i].password;\r\n            }\r\n            return (businessOwners, names, countrys, facebooks, websites, linkedins, focusAreas, passwords);\r\n    }\r\n\r\n    // Chc nng ly thng tin ca doanh nghip\r\n    function getProfile(address _businessOwner) public view returns(\r\n        address businessOwner, \r\n        string memory name, \r\n        string memory country, \r\n        string memory facebook, \r\n        string memory website, \r\n        string memory linkedin, \r\n        string memory focusArea) {\r\n            for(uint i=0; i<listDNs.length;i++){\r\n                if(listDNs[i].businessOwner == _businessOwner){\r\n                    return (listDNs[i].businessOwner,\r\n                            listDNs[i].name, \r\n                            listDNs[i].country, \r\n                            listDNs[i].facebook, \r\n                            listDNs[i].website, \r\n                            listDNs[i].linkedin, \r\n                            listDNs[i].focusArea);\r\n                }\r\n            }\r\n    }\r\n\r\n    // Chc nng kim tra doanh nghip  ng k hay cha?\r\n    function checkDN(\r\n        address _businessOwner, \r\n        string memory _password) public view returns(uint x) {\r\n            for(uint i=0; i<listDNs.length; i++){\r\n                if((listDNs[i].businessOwner == _businessOwner) && (keccak256(bytes(listDNs[i].password)) == keccak256(bytes(_password)))){\r\n                    return 1;\r\n                }\r\n            }\r\n    }\r\n\r\n    // Chc nng kim tra a ch doanh nghip  tn ti hay cha?\r\n    function checkExistDN(address _businessOwner) public view returns(uint x) {\r\n            for(uint i=0; i<listDNs.length; i++){\r\n                if(listDNs[i].businessOwner == _businessOwner){\r\n                    return 1;\r\n                }\r\n            }\r\n    }\r\n    \r\n}",
  "sourcePath": "C:\\Users\\19520\\Documents\\NCKH_Blockchain\\SolidityProgramming\\ProjectResearch\\SmartCV\\SmartContract\\contracts\\SmartCV_ListBusiness.sol",
  "compiler": {
    "name": "solc",
    "version": "0.8.11+commit.d7f03943.Emscripten.clang"
  },
  "schemaVersion": "3.4.4",
  "updatedAt": "2022-07-18T04:46:41.284Z",
  "devdoc": {
    "kind": "dev",
    "methods": {},
    "version": 1
  },
  "userdoc": {
    "kind": "user",
    "methods": {},
    "version": 1
  }
}