{
  "contractName": "ListIIG",
  "abi": [
    {
      "inputs": [
        {
          "internalType": "uint256",
          "name": "",
          "type": "uint256"
        }
      ],
      "name": "iigInfos",
      "outputs": [
        {
          "internalType": "address",
          "name": "iigOwner",
          "type": "address"
        },
        {
          "internalType": "string",
          "name": "name",
          "type": "string"
        },
        {
          "internalType": "string",
          "name": "country",
          "type": "string"
        },
        {
          "internalType": "string",
          "name": "facebook",
          "type": "string"
        },
        {
          "internalType": "string",
          "name": "website",
          "type": "string"
        },
        {
          "internalType": "string",
          "name": "linkedin",
          "type": "string"
        },
        {
          "internalType": "string",
          "name": "password",
          "type": "string"
        }
      ],
      "stateMutability": "view",
      "type": "function"
    },
    {
      "inputs": [
        {
          "internalType": "uint256",
          "name": "",
          "type": "uint256"
        }
      ],
      "name": "iigLRResults",
      "outputs": [
        {
          "internalType": "bytes4",
          "name": "codeLRResult",
          "type": "bytes4"
        },
        {
          "internalType": "address",
          "name": "iigOwner",
          "type": "address"
        },
        {
          "internalType": "address",
          "name": "studentOwner",
          "type": "address"
        },
        {
          "internalType": "string",
          "name": "testDate",
          "type": "string"
        },
        {
          "internalType": "string",
          "name": "shiftTest",
          "type": "string"
        },
        {
          "internalType": "string",
          "name": "expireDate",
          "type": "string"
        },
        {
          "internalType": "uint256",
          "name": "listeningScore",
          "type": "uint256"
        },
        {
          "internalType": "uint256",
          "name": "readingScore",
          "type": "uint256"
        },
        {
          "internalType": "uint256",
          "name": "totalScore",
          "type": "uint256"
        }
      ],
      "stateMutability": "view",
      "type": "function"
    },
    {
      "inputs": [
        {
          "internalType": "uint256",
          "name": "",
          "type": "uint256"
        }
      ],
      "name": "iigRequests",
      "outputs": [
        {
          "internalType": "bytes4",
          "name": "codeRequest",
          "type": "bytes4"
        },
        {
          "internalType": "address",
          "name": "studentOwner",
          "type": "address"
        },
        {
          "internalType": "address",
          "name": "iigOwner",
          "type": "address"
        },
        {
          "internalType": "string",
          "name": "identityCard",
          "type": "string"
        },
        {
          "internalType": "string",
          "name": "requestDate",
          "type": "string"
        },
        {
          "internalType": "string",
          "name": "statusRequest",
          "type": "string"
        }
      ],
      "stateMutability": "view",
      "type": "function"
    },
    {
      "inputs": [
        {
          "internalType": "uint256",
          "name": "",
          "type": "uint256"
        }
      ],
      "name": "iigSWResults",
      "outputs": [
        {
          "internalType": "bytes4",
          "name": "codeSWResult",
          "type": "bytes4"
        },
        {
          "internalType": "address",
          "name": "iigOwner",
          "type": "address"
        },
        {
          "internalType": "address",
          "name": "studentOwner",
          "type": "address"
        },
        {
          "internalType": "string",
          "name": "testDate",
          "type": "string"
        },
        {
          "internalType": "string",
          "name": "shiftTest",
          "type": "string"
        },
        {
          "internalType": "string",
          "name": "expireDate",
          "type": "string"
        },
        {
          "internalType": "uint256",
          "name": "speakingScore",
          "type": "uint256"
        },
        {
          "internalType": "uint256",
          "name": "writingScore",
          "type": "uint256"
        },
        {
          "internalType": "uint256",
          "name": "totalScore",
          "type": "uint256"
        }
      ],
      "stateMutability": "view",
      "type": "function"
    },
    {
      "inputs": [
        {
          "internalType": "address",
          "name": "_iigOwner",
          "type": "address"
        },
        {
          "internalType": "string",
          "name": "_name",
          "type": "string"
        },
        {
          "internalType": "string",
          "name": "_country",
          "type": "string"
        },
        {
          "internalType": "string",
          "name": "_facebook",
          "type": "string"
        },
        {
          "internalType": "string",
          "name": "_website",
          "type": "string"
        },
        {
          "internalType": "string",
          "name": "_linkedin",
          "type": "string"
        },
        {
          "internalType": "string",
          "name": "_password",
          "type": "string"
        }
      ],
      "name": "addIIG",
      "outputs": [],
      "stateMutability": "nonpayable",
      "type": "function"
    },
    {
      "inputs": [
        {
          "internalType": "address",
          "name": "_iigOwner",
          "type": "address"
        },
        {
          "internalType": "string",
          "name": "_name",
          "type": "string"
        },
        {
          "internalType": "string",
          "name": "_country",
          "type": "string"
        },
        {
          "internalType": "string",
          "name": "_facebook",
          "type": "string"
        },
        {
          "internalType": "string",
          "name": "_website",
          "type": "string"
        },
        {
          "internalType": "string",
          "name": "_linkedin",
          "type": "string"
        }
      ],
      "name": "editIIG",
      "outputs": [],
      "stateMutability": "nonpayable",
      "type": "function"
    },
    {
      "inputs": [],
      "name": "getListIIG",
      "outputs": [
        {
          "internalType": "address[]",
          "name": "",
          "type": "address[]"
        },
        {
          "internalType": "string[]",
          "name": "",
          "type": "string[]"
        },
        {
          "internalType": "string[]",
          "name": "",
          "type": "string[]"
        },
        {
          "internalType": "string[]",
          "name": "",
          "type": "string[]"
        },
        {
          "internalType": "string[]",
          "name": "",
          "type": "string[]"
        },
        {
          "internalType": "string[]",
          "name": "",
          "type": "string[]"
        },
        {
          "internalType": "string[]",
          "name": "",
          "type": "string[]"
        }
      ],
      "stateMutability": "view",
      "type": "function"
    },
    {
      "inputs": [
        {
          "internalType": "address",
          "name": "_iigOwner",
          "type": "address"
        }
      ],
      "name": "getProfile",
      "outputs": [
        {
          "internalType": "address",
          "name": "iigOwner",
          "type": "address"
        },
        {
          "internalType": "string",
          "name": "name",
          "type": "string"
        },
        {
          "internalType": "string",
          "name": "country",
          "type": "string"
        },
        {
          "internalType": "string",
          "name": "facebook",
          "type": "string"
        },
        {
          "internalType": "string",
          "name": "website",
          "type": "string"
        },
        {
          "internalType": "string",
          "name": "linkedin",
          "type": "string"
        }
      ],
      "stateMutability": "view",
      "type": "function"
    },
    {
      "inputs": [
        {
          "internalType": "address",
          "name": "_iigOwner",
          "type": "address"
        },
        {
          "internalType": "string",
          "name": "_password",
          "type": "string"
        }
      ],
      "name": "checkIIG",
      "outputs": [
        {
          "internalType": "uint256",
          "name": "x",
          "type": "uint256"
        }
      ],
      "stateMutability": "view",
      "type": "function"
    },
    {
      "inputs": [
        {
          "internalType": "address",
          "name": "_iigOwner",
          "type": "address"
        }
      ],
      "name": "checkExistIIG",
      "outputs": [
        {
          "internalType": "uint256",
          "name": "x",
          "type": "uint256"
        }
      ],
      "stateMutability": "view",
      "type": "function"
    },
    {
      "inputs": [
        {
          "internalType": "address",
          "name": "_studentOwner",
          "type": "address"
        },
        {
          "internalType": "address",
          "name": "_iigOwner",
          "type": "address"
        },
        {
          "internalType": "string",
          "name": "_identityCard",
          "type": "string"
        },
        {
          "internalType": "string",
          "name": "_requestDate",
          "type": "string"
        }
      ],
      "name": "addRequest",
      "outputs": [],
      "stateMutability": "nonpayable",
      "type": "function"
    },
    {
      "inputs": [
        {
          "internalType": "address",
          "name": "_iigOwner",
          "type": "address"
        }
      ],
      "name": "getListRequest",
      "outputs": [
        {
          "internalType": "bytes4[]",
          "name": "",
          "type": "bytes4[]"
        },
        {
          "internalType": "address[]",
          "name": "",
          "type": "address[]"
        },
        {
          "internalType": "address[]",
          "name": "",
          "type": "address[]"
        },
        {
          "internalType": "string[]",
          "name": "",
          "type": "string[]"
        },
        {
          "internalType": "string[]",
          "name": "",
          "type": "string[]"
        },
        {
          "internalType": "string[]",
          "name": "",
          "type": "string[]"
        }
      ],
      "stateMutability": "view",
      "type": "function"
    },
    {
      "inputs": [
        {
          "internalType": "address",
          "name": "_iigOwner",
          "type": "address"
        },
        {
          "internalType": "address",
          "name": "_studentOwner",
          "type": "address"
        }
      ],
      "name": "getListRequestStudent",
      "outputs": [
        {
          "internalType": "bytes4[]",
          "name": "",
          "type": "bytes4[]"
        },
        {
          "internalType": "address[]",
          "name": "",
          "type": "address[]"
        },
        {
          "internalType": "address[]",
          "name": "",
          "type": "address[]"
        },
        {
          "internalType": "string[]",
          "name": "",
          "type": "string[]"
        },
        {
          "internalType": "string[]",
          "name": "",
          "type": "string[]"
        },
        {
          "internalType": "string[]",
          "name": "",
          "type": "string[]"
        }
      ],
      "stateMutability": "view",
      "type": "function"
    },
    {
      "inputs": [
        {
          "internalType": "address",
          "name": "_studentOwner",
          "type": "address"
        },
        {
          "internalType": "address",
          "name": "_iigOwner",
          "type": "address"
        },
        {
          "internalType": "bytes4",
          "name": "_codeRequest",
          "type": "bytes4"
        },
        {
          "internalType": "string",
          "name": "_statusRequest",
          "type": "string"
        }
      ],
      "name": "confirmRequest",
      "outputs": [],
      "stateMutability": "nonpayable",
      "type": "function"
    },
    {
      "inputs": [
        {
          "internalType": "address",
          "name": "_iigOwner",
          "type": "address"
        },
        {
          "internalType": "address",
          "name": "_studentOwner",
          "type": "address"
        },
        {
          "internalType": "string",
          "name": "_testDate",
          "type": "string"
        },
        {
          "internalType": "string",
          "name": "_shiftTest",
          "type": "string"
        },
        {
          "internalType": "string",
          "name": "_expireDate",
          "type": "string"
        },
        {
          "internalType": "uint256",
          "name": "_listeningScore",
          "type": "uint256"
        },
        {
          "internalType": "uint256",
          "name": "_readingScore",
          "type": "uint256"
        }
      ],
      "name": "addLRResult",
      "outputs": [],
      "stateMutability": "nonpayable",
      "type": "function"
    },
    {
      "inputs": [
        {
          "internalType": "address",
          "name": "_iigOwner",
          "type": "address"
        },
        {
          "internalType": "address",
          "name": "_studentOwner",
          "type": "address"
        }
      ],
      "name": "getListLRResult",
      "outputs": [
        {
          "internalType": "string[]",
          "name": "",
          "type": "string[]"
        },
        {
          "internalType": "string[]",
          "name": "",
          "type": "string[]"
        },
        {
          "internalType": "string[]",
          "name": "",
          "type": "string[]"
        },
        {
          "internalType": "uint256[]",
          "name": "",
          "type": "uint256[]"
        },
        {
          "internalType": "uint256[]",
          "name": "",
          "type": "uint256[]"
        },
        {
          "internalType": "uint256[]",
          "name": "",
          "type": "uint256[]"
        }
      ],
      "stateMutability": "view",
      "type": "function"
    },
    {
      "inputs": [
        {
          "internalType": "address",
          "name": "_iigOwner",
          "type": "address"
        },
        {
          "internalType": "address",
          "name": "_studentOwner",
          "type": "address"
        },
        {
          "internalType": "string",
          "name": "_testDate",
          "type": "string"
        },
        {
          "internalType": "string",
          "name": "_shiftTest",
          "type": "string"
        }
      ],
      "name": "getLRResult",
      "outputs": [
        {
          "internalType": "string",
          "name": "testDate",
          "type": "string"
        },
        {
          "internalType": "string",
          "name": "shiftTest",
          "type": "string"
        },
        {
          "internalType": "string",
          "name": "expireDate",
          "type": "string"
        },
        {
          "internalType": "uint256",
          "name": "listeningScore",
          "type": "uint256"
        },
        {
          "internalType": "uint256",
          "name": "readingScore",
          "type": "uint256"
        },
        {
          "internalType": "uint256",
          "name": "totalScore",
          "type": "uint256"
        }
      ],
      "stateMutability": "view",
      "type": "function"
    },
    {
      "inputs": [
        {
          "internalType": "address",
          "name": "_studentOwner",
          "type": "address"
        },
        {
          "internalType": "string",
          "name": "_testDate",
          "type": "string"
        },
        {
          "internalType": "string",
          "name": "_shiftTest",
          "type": "string"
        }
      ],
      "name": "checkExistLRResult",
      "outputs": [
        {
          "internalType": "uint256",
          "name": "x",
          "type": "uint256"
        }
      ],
      "stateMutability": "view",
      "type": "function"
    },
    {
      "inputs": [
        {
          "internalType": "address",
          "name": "_iigOwner",
          "type": "address"
        },
        {
          "internalType": "address",
          "name": "_studentOwner",
          "type": "address"
        },
        {
          "internalType": "string",
          "name": "_testDate",
          "type": "string"
        },
        {
          "internalType": "string",
          "name": "_shiftTest",
          "type": "string"
        },
        {
          "internalType": "string",
          "name": "_expireDate",
          "type": "string"
        },
        {
          "internalType": "uint256",
          "name": "_speakingScore",
          "type": "uint256"
        },
        {
          "internalType": "uint256",
          "name": "_writingScore",
          "type": "uint256"
        }
      ],
      "name": "addSWResult",
      "outputs": [],
      "stateMutability": "nonpayable",
      "type": "function"
    },
    {
      "inputs": [
        {
          "internalType": "address",
          "name": "_iigOwner",
          "type": "address"
        },
        {
          "internalType": "address",
          "name": "_studentOwner",
          "type": "address"
        }
      ],
      "name": "getListSWResult",
      "outputs": [
        {
          "internalType": "string[]",
          "name": "",
          "type": "string[]"
        },
        {
          "internalType": "string[]",
          "name": "",
          "type": "string[]"
        },
        {
          "internalType": "string[]",
          "name": "",
          "type": "string[]"
        },
        {
          "internalType": "uint256[]",
          "name": "",
          "type": "uint256[]"
        },
        {
          "internalType": "uint256[]",
          "name": "",
          "type": "uint256[]"
        },
        {
          "internalType": "uint256[]",
          "name": "",
          "type": "uint256[]"
        }
      ],
      "stateMutability": "view",
      "type": "function"
    },
    {
      "inputs": [
        {
          "internalType": "address",
          "name": "_iigOwner",
          "type": "address"
        },
        {
          "internalType": "address",
          "name": "_studentOwner",
          "type": "address"
        },
        {
          "internalType": "string",
          "name": "_testDate",
          "type": "string"
        },
        {
          "internalType": "string",
          "name": "_shiftTest",
          "type": "string"
        }
      ],
      "name": "getSWResult",
      "outputs": [
        {
          "internalType": "string",
          "name": "testDate",
          "type": "string"
        },
        {
          "internalType": "string",
          "name": "shiftTest",
          "type": "string"
        },
        {
          "internalType": "string",
          "name": "expireDate",
          "type": "string"
        },
        {
          "internalType": "uint256",
          "name": "speakingScore",
          "type": "uint256"
        },
        {
          "internalType": "uint256",
          "name": "writingScore",
          "type": "uint256"
        },
        {
          "internalType": "uint256",
          "name": "totalScore",
          "type": "uint256"
        }
      ],
      "stateMutability": "view",
      "type": "function"
    },
    {
      "inputs": [
        {
          "internalType": "address",
          "name": "_studentOwner",
          "type": "address"
        },
        {
          "internalType": "string",
          "name": "_testDate",
          "type": "string"
        },
        {
          "internalType": "string",
          "name": "_shiftTest",
          "type": "string"
        }
      ],
      "name": "checkExistSWResult",
      "outputs": [
        {
          "internalType": "uint256",
          "name": "x",
          "type": "uint256"
        }
      ],
      "stateMutability": "view",
      "type": "function"
    }
  ],
  "bytecode": "0x608060405234801561001057600080fd5b5061678380620000216000396000f3fe608060405234801561001057600080fd5b50600436106101415760003560e01c80636cf871df116100b8578063a9846eb01161007c578063a9846eb01461042a578063ac97812f14610462578063b351d17614610497578063bc72af7d146104b3578063d23a4ee1146104e8578063dd8f3edc1461050457610141565b80636cf871df146103695780637829b41e1461038557806384ae9131146103b5578063948195ed146103d95780639fa7247a146103f557610141565b80630f53a4701161010a5780630f53a4701461023257806324e6603714610267578063323cc7c51461029757806344fd6e22146102cc57806349f47a55146102fc5780634b38f2db1461033457610141565b8062220cf7146101465780630265275c1461016257806306ed1e891461019257806309bef62a146101c75780630c3f9882146101fd575b600080fd5b610160600480360381019061015b91906153db565b610520565b005b61017c600480360381019061017791906154d1565b6107e0565b604051610189919061556b565b60405180910390f35b6101ac60048036038101906101a79190615586565b610918565b6040516101be969594939291906157ce565b60405180910390f35b6101e160048036038101906101dc9190615859565b610f8b565b6040516101f497969594939291906158df565b60405180910390f35b61021760048036038101906102129190615586565b61132d565b60405161022996959493929190615b20565b60405180910390f35b61024c60048036038101906102479190615bab565b611a89565b60405161025e96959493929190615bd8565b60405180910390f35b610281600480360381019061027c9190615c5c565b611f07565b60405161028e919061556b565b60405180910390f35b6102b160048036038101906102ac9190615859565b612005565b6040516102c396959493929190615cc7565b60405180910390f35b6102e660048036038101906102e19190615bab565b612236565b6040516102f3919061556b565b60405180910390f35b61031660048036038101906103119190615859565b6122e8565b60405161032b99989796959493929190615d3d565b60405180910390f35b61034e60048036038101906103499190615ddf565b61252b565b60405161036096959493929190615e7e565b60405180910390f35b610383600480360381019061037e9190615ef4565b61297a565b005b61039f600480360381019061039a91906154d1565b612b42565b6040516103ac919061556b565b60405180910390f35b6103bd612c7a565b6040516103d0979695949392919061600d565b60405180910390f35b6103f360048036038101906103ee9190615ddf565b61347e565b005b61040f600480360381019061040a9190615bab565b61368d565b60405161042196959493929190615b20565b60405180910390f35b610444600480360381019061043f9190615859565b613d6c565b60405161045999989796959493929190615d3d565b60405180910390f35b61047c60048036038101906104779190615ddf565b613faf565b60405161048e96959493929190615e7e565b60405180910390f35b6104b160048036038101906104ac91906160d9565b6143fe565b005b6104cd60048036038101906104c89190615586565b6146a5565b6040516104df969594939291906157ce565b60405180910390f35b61050260048036038101906104fd91906153db565b614d18565b005b61051e6004803603810190610519919061615c565b614fd6565b005b6000821015801561053357506101ef8211155b610572576040517f08c379a0000000000000000000000000000000000000000000000000000000008152600401610569906162f2565b60405180910390fd5b6000811015801561058557506101ef8111155b6105c4576040517f08c379a00000000000000000000000000000000000000000000000000000000081526004016105bb9061635e565b60405180910390fd5b600260405180610120016040528087876040516020016105e59291906163ba565b604051602081830303815290604052805190602001207bffffffffffffffffffffffffffffffffffffffffffffffffffffffff191681526020018973ffffffffffffffffffffffffffffffffffffffff1681526020018873ffffffffffffffffffffffffffffffffffffffff1681526020018781526020018681526020018581526020018481526020018381526020018385610681919061640d565b815250908060018154018082558091505060019003906000526020600020906008020160009091909190915060008201518160000160006101000a81548163ffffffff021916908360e01c021790555060208201518160000160046101000a81548173ffffffffffffffffffffffffffffffffffffffff021916908373ffffffffffffffffffffffffffffffffffffffff16021790555060408201518160010160006101000a81548173ffffffffffffffffffffffffffffffffffffffff021916908373ffffffffffffffffffffffffffffffffffffffff160217905550606082015181600201908051906020019061077b92919061514a565b50608082015181600301908051906020019061079892919061514a565b5060a08201518160040190805190602001906107b592919061514a565b5060c0820151816005015560e082015181600601556101008201518160070155505050505050505050565b600080600090505b60028054905081101561090f578473ffffffffffffffffffffffffffffffffffffffff16600282815481106108205761081f616463565b5b906000526020600020906008020160010160009054906101000a900473ffffffffffffffffffffffffffffffffffffffff1673ffffffffffffffffffffffffffffffffffffffff161480156108ed575083836040516020016108839291906163ba565b60405160208183030381529060405280519060200120600282815481106108ad576108ac616463565b5b906000526020600020906008020160000160009054906101000a900460e01b7bffffffffffffffffffffffffffffffffffffffffffffffffffffffff1916145b156108fc576001915050610911565b808061090790616492565b9150506107e8565b505b9392505050565b606080606080606080600060038054905067ffffffffffffffff8111156109425761094161527a565b5b60405190808252806020026020018201604052801561097557816020015b60608152602001906001900390816109605790505b509050600060038054905067ffffffffffffffff8111156109995761099861527a565b5b6040519080825280602002602001820160405280156109cc57816020015b60608152602001906001900390816109b75790505b509050600060038054905067ffffffffffffffff8111156109f0576109ef61527a565b5b604051908082528060200260200182016040528015610a2357816020015b6060815260200190600190039081610a0e5790505b509050600060038054905067ffffffffffffffff811115610a4757610a4661527a565b5b604051908082528060200260200182016040528015610a755781602001602082028036833780820191505090505b509050600060038054905067ffffffffffffffff811115610a9957610a9861527a565b5b604051908082528060200260200182016040528015610ac75781602001602082028036833780820191505090505b509050600060038054905067ffffffffffffffff811115610aeb57610aea61527a565b5b604051908082528060200260200182016040528015610b195781602001602082028036833780820191505090505b50905060005b600380549050811015610f68578e73ffffffffffffffffffffffffffffffffffffffff1660028281548110610b5757610b56616463565b5b906000526020600020906008020160000160049054906101000a900473ffffffffffffffffffffffffffffffffffffffff1673ffffffffffffffffffffffffffffffffffffffff16148015610c1c57508d73ffffffffffffffffffffffffffffffffffffffff1660028281548110610bd257610bd1616463565b5b906000526020600020906008020160010160009054906101000a900473ffffffffffffffffffffffffffffffffffffffff1673ffffffffffffffffffffffffffffffffffffffff16145b15610f555760038181548110610c3557610c34616463565b5b90600052602060002090600802016002018054610c519061650a565b80601f0160208091040260200160405190810160405280929190818152602001828054610c7d9061650a565b8015610cca5780601f10610c9f57610100808354040283529160200191610cca565b820191906000526020600020905b815481529060010190602001808311610cad57829003601f168201915b5050505050878281518110610ce257610ce1616463565b5b602002602001018190525060038181548110610d0157610d00616463565b5b90600052602060002090600802016003018054610d1d9061650a565b80601f0160208091040260200160405190810160405280929190818152602001828054610d499061650a565b8015610d965780601f10610d6b57610100808354040283529160200191610d96565b820191906000526020600020905b815481529060010190602001808311610d7957829003601f168201915b5050505050868281518110610dae57610dad616463565b5b602002602001018190525060038181548110610dcd57610dcc616463565b5b90600052602060002090600802016004018054610de99061650a565b80601f0160208091040260200160405190810160405280929190818152602001828054610e159061650a565b8015610e625780601f10610e3757610100808354040283529160200191610e62565b820191906000526020600020905b815481529060010190602001808311610e4557829003601f168201915b5050505050858281518110610e7a57610e79616463565b5b602002602001018190525060038181548110610e9957610e98616463565b5b906000526020600020906008020160050154848281518110610ebe57610ebd616463565b5b60200260200101818152505060038181548110610ede57610edd616463565b5b906000526020600020906008020160060154838281518110610f0357610f02616463565b5b60200260200101818152505060038181548110610f2357610f22616463565b5b906000526020600020906008020160070154828281518110610f4857610f47616463565b5b6020026020010181815250505b8080610f6090616492565b915050610b1f565b508585858585859b509b509b509b509b509b505050505050509295509295509295565b60008181548110610f9b57600080fd5b90600052602060002090600702016000915090508060000160009054906101000a900473ffffffffffffffffffffffffffffffffffffffff1690806001018054610fe49061650a565b80601f01602080910402602001604051908101604052809291908181526020018280546110109061650a565b801561105d5780601f106110325761010080835404028352916020019161105d565b820191906000526020600020905b81548152906001019060200180831161104057829003601f168201915b5050505050908060020180546110729061650a565b80601f016020809104026020016040519081016040528092919081815260200182805461109e9061650a565b80156110eb5780601f106110c0576101008083540402835291602001916110eb565b820191906000526020600020905b8154815290600101906020018083116110ce57829003601f168201915b5050505050908060030180546111009061650a565b80601f016020809104026020016040519081016040528092919081815260200182805461112c9061650a565b80156111795780601f1061114e57610100808354040283529160200191611179565b820191906000526020600020905b81548152906001019060200180831161115c57829003601f168201915b50505050509080600401805461118e9061650a565b80601f01602080910402602001604051908101604052809291908181526020018280546111ba9061650a565b80156112075780601f106111dc57610100808354040283529160200191611207565b820191906000526020600020905b8154815290600101906020018083116111ea57829003601f168201915b50505050509080600501805461121c9061650a565b80601f01602080910402602001604051908101604052809291908181526020018280546112489061650a565b80156112955780601f1061126a57610100808354040283529160200191611295565b820191906000526020600020905b81548152906001019060200180831161127857829003601f168201915b5050505050908060060180546112aa9061650a565b80601f01602080910402602001604051908101604052809291908181526020018280546112d69061650a565b80156113235780601f106112f857610100808354040283529160200191611323565b820191906000526020600020905b81548152906001019060200180831161130657829003601f168201915b5050505050905087565b606080606080606080600060018054905067ffffffffffffffff8111156113575761135661527a565b5b6040519080825280602002602001820160405280156113855781602001602082028036833780820191505090505b509050600060018054905067ffffffffffffffff8111156113a9576113a861527a565b5b6040519080825280602002602001820160405280156113d75781602001602082028036833780820191505090505b509050600060018054905067ffffffffffffffff8111156113fb576113fa61527a565b5b6040519080825280602002602001820160405280156114295781602001602082028036833780820191505090505b509050600060018054905067ffffffffffffffff81111561144d5761144c61527a565b5b60405190808252806020026020018201604052801561148057816020015b606081526020019060019003908161146b5790505b509050600060018054905067ffffffffffffffff8111156114a4576114a361527a565b5b6040519080825280602002602001820160405280156114d757816020015b60608152602001906001900390816114c25790505b509050600060018054905067ffffffffffffffff8111156114fb576114fa61527a565b5b60405190808252806020026020018201604052801561152e57816020015b60608152602001906001900390816115195790505b50905060005b600180549050811015611a66578e73ffffffffffffffffffffffffffffffffffffffff166001828154811061156c5761156b616463565b5b906000526020600020906005020160010160009054906101000a900473ffffffffffffffffffffffffffffffffffffffff1673ffffffffffffffffffffffffffffffffffffffff1614801561163157508d73ffffffffffffffffffffffffffffffffffffffff16600182815481106115e7576115e6616463565b5b906000526020600020906005020160000160049054906101000a900473ffffffffffffffffffffffffffffffffffffffff1673ffffffffffffffffffffffffffffffffffffffff16145b15611a53576001818154811061164a57611649616463565b5b906000526020600020906005020160000160009054906101000a900460e01b87828151811061167c5761167b616463565b5b60200260200101907bffffffffffffffffffffffffffffffffffffffffffffffffffffffff191690817bffffffffffffffffffffffffffffffffffffffffffffffffffffffff191681525050600181815481106116dc576116db616463565b5b906000526020600020906005020160000160049054906101000a900473ffffffffffffffffffffffffffffffffffffffff1686828151811061172157611720616463565b5b602002602001019073ffffffffffffffffffffffffffffffffffffffff16908173ffffffffffffffffffffffffffffffffffffffff16815250506001818154811061176f5761176e616463565b5b906000526020600020906005020160010160009054906101000a900473ffffffffffffffffffffffffffffffffffffffff168582815181106117b4576117b3616463565b5b602002602001019073ffffffffffffffffffffffffffffffffffffffff16908173ffffffffffffffffffffffffffffffffffffffff16815250506001818154811061180257611801616463565b5b9060005260206000209060050201600201805461181e9061650a565b80601f016020809104026020016040519081016040528092919081815260200182805461184a9061650a565b80156118975780601f1061186c57610100808354040283529160200191611897565b820191906000526020600020905b81548152906001019060200180831161187a57829003601f168201915b50505050508482815181106118af576118ae616463565b5b6020026020010181905250600181815481106118ce576118cd616463565b5b906000526020600020906005020160030180546118ea9061650a565b80601f01602080910402602001604051908101604052809291908181526020018280546119169061650a565b80156119635780601f1061193857610100808354040283529160200191611963565b820191906000526020600020905b81548152906001019060200180831161194657829003601f168201915b505050505083828151811061197b5761197a616463565b5b60200260200101819052506001818154811061199a57611999616463565b5b906000526020600020906005020160040180546119b69061650a565b80601f01602080910402602001604051908101604052809291908181526020018280546119e29061650a565b8015611a2f5780601f10611a0457610100808354040283529160200191611a2f565b820191906000526020600020905b815481529060010190602001808311611a1257829003601f168201915b5050505050828281518110611a4757611a46616463565b5b60200260200101819052505b8080611a5e90616492565b915050611534565b508585858585859b509b509b509b509b509b505050505050509295509295509295565b6000606080606080606060005b600080549050811015611efc578773ffffffffffffffffffffffffffffffffffffffff1660008281548110611ace57611acd616463565b5b906000526020600020906007020160000160009054906101000a900473ffffffffffffffffffffffffffffffffffffffff1673ffffffffffffffffffffffffffffffffffffffff161415611ee95760008181548110611b3057611b2f616463565b5b906000526020600020906007020160000160009054906101000a900473ffffffffffffffffffffffffffffffffffffffff1660008281548110611b7657611b75616463565b5b906000526020600020906007020160010160008381548110611b9b57611b9a616463565b5b906000526020600020906007020160020160008481548110611bc057611bbf616463565b5b906000526020600020906007020160030160008581548110611be557611be4616463565b5b906000526020600020906007020160040160008681548110611c0a57611c09616463565b5b9060005260206000209060070201600501848054611c279061650a565b80601f0160208091040260200160405190810160405280929190818152602001828054611c539061650a565b8015611ca05780601f10611c7557610100808354040283529160200191611ca0565b820191906000526020600020905b815481529060010190602001808311611c8357829003601f168201915b50505050509450838054611cb39061650a565b80601f0160208091040260200160405190810160405280929190818152602001828054611cdf9061650a565b8015611d2c5780601f10611d0157610100808354040283529160200191611d2c565b820191906000526020600020905b815481529060010190602001808311611d0f57829003601f168201915b50505050509350828054611d3f9061650a565b80601f0160208091040260200160405190810160405280929190818152602001828054611d6b9061650a565b8015611db85780601f10611d8d57610100808354040283529160200191611db8565b820191906000526020600020905b815481529060010190602001808311611d9b57829003601f168201915b50505050509250818054611dcb9061650a565b80601f0160208091040260200160405190810160405280929190818152602001828054611df79061650a565b8015611e445780601f10611e1957610100808354040283529160200191611e44565b820191906000526020600020905b815481529060010190602001808311611e2757829003601f168201915b50505050509150808054611e579061650a565b80601f0160208091040260200160405190810160405280929190818152602001828054611e839061650a565b8015611ed05780601f10611ea557610100808354040283529160200191611ed0565b820191906000526020600020905b815481529060010190602001808311611eb357829003601f168201915b5050505050905096509650965096509650965050611efe565b8080611ef490616492565b915050611a96565b505b91939550919395565b600080600090505b600080549050811015611ffd578373ffffffffffffffffffffffffffffffffffffffff1660008281548110611f4757611f46616463565b5b906000526020600020906007020160000160009054906101000a900473ffffffffffffffffffffffffffffffffffffffff1673ffffffffffffffffffffffffffffffffffffffff16148015611fdb5750828051906020012060008281548110611fb357611fb2616463565b5b9060005260206000209060070201600601604051611fd191906165db565b6040518091039020145b15611fea576001915050611fff565b8080611ff590616492565b915050611f0f565b505b92915050565b6001818154811061201557600080fd5b90600052602060002090600502016000915090508060000160009054906101000a900460e01b908060000160049054906101000a900473ffffffffffffffffffffffffffffffffffffffff16908060010160009054906101000a900473ffffffffffffffffffffffffffffffffffffffff16908060020180546120979061650a565b80601f01602080910402602001604051908101604052809291908181526020018280546120c39061650a565b80156121105780601f106120e557610100808354040283529160200191612110565b820191906000526020600020905b8154815290600101906020018083116120f357829003601f168201915b5050505050908060030180546121259061650a565b80601f01602080910402602001604051908101604052809291908181526020018280546121519061650a565b801561219e5780601f106121735761010080835404028352916020019161219e565b820191906000526020600020905b81548152906001019060200180831161218157829003601f168201915b5050505050908060040180546121b39061650a565b80601f01602080910402602001604051908101604052809291908181526020018280546121df9061650a565b801561222c5780601f106122015761010080835404028352916020019161222c565b820191906000526020600020905b81548152906001019060200180831161220f57829003601f168201915b5050505050905086565b600080600090505b6000805490508110156122e1578273ffffffffffffffffffffffffffffffffffffffff166000828154811061227657612275616463565b5b906000526020600020906007020160000160009054906101000a900473ffffffffffffffffffffffffffffffffffffffff1673ffffffffffffffffffffffffffffffffffffffff1614156122ce5760019150506122e3565b80806122d990616492565b91505061223e565b505b919050565b600381815481106122f857600080fd5b90600052602060002090600802016000915090508060000160009054906101000a900460e01b908060000160049054906101000a900473ffffffffffffffffffffffffffffffffffffffff16908060010160009054906101000a900473ffffffffffffffffffffffffffffffffffffffff169080600201805461237a9061650a565b80601f01602080910402602001604051908101604052809291908181526020018280546123a69061650a565b80156123f35780601f106123c8576101008083540402835291602001916123f3565b820191906000526020600020905b8154815290600101906020018083116123d657829003601f168201915b5050505050908060030180546124089061650a565b80601f01602080910402602001604051908101604052809291908181526020018280546124349061650a565b80156124815780601f1061245657610100808354040283529160200191612481565b820191906000526020600020905b81548152906001019060200180831161246457829003601f168201915b5050505050908060040180546124969061650a565b80601f01602080910402602001604051908101604052809291908181526020018280546124c29061650a565b801561250f5780601f106124e45761010080835404028352916020019161250f565b820191906000526020600020905b8154815290600101906020018083116124f257829003601f168201915b5050505050908060050154908060060154908060070154905089565b6060806060600080600080600090505b60038054905081101561296b578a73ffffffffffffffffffffffffffffffffffffffff166003828154811061257357612572616463565b5b906000526020600020906008020160000160049054906101000a900473ffffffffffffffffffffffffffffffffffffffff1673ffffffffffffffffffffffffffffffffffffffff1614801561263857508973ffffffffffffffffffffffffffffffffffffffff16600382815481106125ee576125ed616463565b5b906000526020600020906008020160010160009054906101000a900473ffffffffffffffffffffffffffffffffffffffff1673ffffffffffffffffffffffffffffffffffffffff16145b80156126bc575088886040516020016126529291906163ba565b604051602081830303815290604052805190602001206003828154811061267c5761267b616463565b5b906000526020600020906008020160000160009054906101000a900460e01b7bffffffffffffffffffffffffffffffffffffffffffffffffffffffff1916145b1561295857600381815481106126d5576126d4616463565b5b9060005260206000209060080201600201600382815481106126fa576126f9616463565b5b90600052602060002090600802016003016003838154811061271f5761271e616463565b5b90600052602060002090600802016004016003848154811061274457612743616463565b5b9060005260206000209060080201600501546003858154811061276a57612769616463565b5b906000526020600020906008020160060154600386815481106127905761278f616463565b5b9060005260206000209060080201600701548580546127ae9061650a565b80601f01602080910402602001604051908101604052809291908181526020018280546127da9061650a565b80156128275780601f106127fc57610100808354040283529160200191612827565b820191906000526020600020905b81548152906001019060200180831161280a57829003601f168201915b5050505050955084805461283a9061650a565b80601f01602080910402602001604051908101604052809291908181526020018280546128669061650a565b80156128b35780601f10612888576101008083540402835291602001916128b3565b820191906000526020600020905b81548152906001019060200180831161289657829003601f168201915b505050505094508380546128c69061650a565b80601f01602080910402602001604051908101604052809291908181526020018280546128f29061650a565b801561293f5780601f106129145761010080835404028352916020019161293f565b820191906000526020600020905b81548152906001019060200180831161292257829003601f168201915b505050505093509650965096509650965096505061296d565b808061296390616492565b91505061253b565b505b9499939850945094509450565b60005b600080549050811015612b39578673ffffffffffffffffffffffffffffffffffffffff16600082815481106129b5576129b4616463565b5b906000526020600020906007020160000160009054906101000a900473ffffffffffffffffffffffffffffffffffffffff1673ffffffffffffffffffffffffffffffffffffffff161415612b26578560008281548110612a1857612a17616463565b5b90600052602060002090600702016001019080519060200190612a3c92919061514a565b508460008281548110612a5257612a51616463565b5b90600052602060002090600702016002019080519060200190612a7692919061514a565b508360008281548110612a8c57612a8b616463565b5b90600052602060002090600702016003019080519060200190612ab092919061514a565b508260008281548110612ac657612ac5616463565b5b90600052602060002090600702016004019080519060200190612aea92919061514a565b508160008281548110612b0057612aff616463565b5b90600052602060002090600702016005019080519060200190612b2492919061514a565b505b8080612b3190616492565b91505061297d565b50505050505050565b600080600090505b600380549050811015612c71578473ffffffffffffffffffffffffffffffffffffffff1660028281548110612b8257612b81616463565b5b906000526020600020906008020160010160009054906101000a900473ffffffffffffffffffffffffffffffffffffffff1673ffffffffffffffffffffffffffffffffffffffff16148015612c4f57508383604051602001612be59291906163ba565b6040516020818303038152906040528051906020012060028281548110612c0f57612c0e616463565b5b906000526020600020906008020160000160009054906101000a900460e01b7bffffffffffffffffffffffffffffffffffffffffffffffffffffffff1916145b15612c5e576001915050612c73565b8080612c6990616492565b915050612b4a565b505b9392505050565b60608060608060608060606000808054905067ffffffffffffffff811115612ca557612ca461527a565b5b604051908082528060200260200182016040528015612cd35781602001602082028036833780820191505090505b5090506000808054905067ffffffffffffffff811115612cf657612cf561527a565b5b604051908082528060200260200182016040528015612d2957816020015b6060815260200190600190039081612d145790505b5090506000808054905067ffffffffffffffff811115612d4c57612d4b61527a565b5b604051908082528060200260200182016040528015612d7f57816020015b6060815260200190600190039081612d6a5790505b5090506000808054905067ffffffffffffffff811115612da257612da161527a565b5b604051908082528060200260200182016040528015612dd557816020015b6060815260200190600190039081612dc05790505b5090506000808054905067ffffffffffffffff811115612df857612df761527a565b5b604051908082528060200260200182016040528015612e2b57816020015b6060815260200190600190039081612e165790505b5090506000808054905067ffffffffffffffff811115612e4e57612e4d61527a565b5b604051908082528060200260200182016040528015612e8157816020015b6060815260200190600190039081612e6c5790505b5090506000808054905067ffffffffffffffff811115612ea457612ea361527a565b5b604051908082528060200260200182016040528015612ed757816020015b6060815260200190600190039081612ec25790505b50905060005b6000805490508110156134585760008181548110612efe57612efd616463565b5b906000526020600020906007020160000160009054906101000a900473ffffffffffffffffffffffffffffffffffffffff16888281518110612f4357612f42616463565b5b602002602001019073ffffffffffffffffffffffffffffffffffffffff16908173ffffffffffffffffffffffffffffffffffffffff168152505060008181548110612f9157612f90616463565b5b90600052602060002090600702016001018054612fad9061650a565b80601f0160208091040260200160405190810160405280929190818152602001828054612fd99061650a565b80156130265780601f10612ffb57610100808354040283529160200191613026565b820191906000526020600020905b81548152906001019060200180831161300957829003601f168201915b505050505087828151811061303e5761303d616463565b5b60200260200101819052506000818154811061305d5761305c616463565b5b906000526020600020906007020160020180546130799061650a565b80601f01602080910402602001604051908101604052809291908181526020018280546130a59061650a565b80156130f25780601f106130c7576101008083540402835291602001916130f2565b820191906000526020600020905b8154815290600101906020018083116130d557829003601f168201915b505050505086828151811061310a57613109616463565b5b60200260200101819052506000818154811061312957613128616463565b5b906000526020600020906007020160030180546131459061650a565b80601f01602080910402602001604051908101604052809291908181526020018280546131719061650a565b80156131be5780601f10613193576101008083540402835291602001916131be565b820191906000526020600020905b8154815290600101906020018083116131a157829003601f168201915b50505050508582815181106131d6576131d5616463565b5b6020026020010181905250600081815481106131f5576131f4616463565b5b906000526020600020906007020160040180546132119061650a565b80601f016020809104026020016040519081016040528092919081815260200182805461323d9061650a565b801561328a5780601f1061325f5761010080835404028352916020019161328a565b820191906000526020600020905b81548152906001019060200180831161326d57829003601f168201915b50505050508482815181106132a2576132a1616463565b5b6020026020010181905250600081815481106132c1576132c0616463565b5b906000526020600020906007020160050180546132dd9061650a565b80601f01602080910402602001604051908101604052809291908181526020018280546133099061650a565b80156133565780601f1061332b57610100808354040283529160200191613356565b820191906000526020600020905b81548152906001019060200180831161333957829003601f168201915b505050505083828151811061336e5761336d616463565b5b60200260200101819052506000818154811061338d5761338c616463565b5b906000526020600020906007020160060180546133a99061650a565b80601f01602080910402602001604051908101604052809291908181526020018280546133d59061650a565b80156134225780601f106133f757610100808354040283529160200191613422565b820191906000526020600020905b81548152906001019060200180831161340557829003601f168201915b505050505082828151811061343a57613439616463565b5b6020026020010181905250808061345090616492565b915050612edd565b50868686868686869d509d509d509d509d509d509d505050505050505090919293949596565b60016040518060c001604052808360405160200161349c91906165f2565b604051602081830303815290604052805190602001207bffffffffffffffffffffffffffffffffffffffffffffffffffffffff191681526020018673ffffffffffffffffffffffffffffffffffffffff1681526020018573ffffffffffffffffffffffffffffffffffffffff1681526020018481526020018381526020016040518060400160405280600781526020017f57616974696e6700000000000000000000000000000000000000000000000000815250815250908060018154018082558091505060019003906000526020600020906005020160009091909190915060008201518160000160006101000a81548163ffffffff021916908360e01c021790555060208201518160000160046101000a81548173ffffffffffffffffffffffffffffffffffffffff021916908373ffffffffffffffffffffffffffffffffffffffff16021790555060408201518160010160006101000a81548173ffffffffffffffffffffffffffffffffffffffff021916908373ffffffffffffffffffffffffffffffffffffffff160217905550606082015181600201908051906020019061364a92919061514a565b50608082015181600301908051906020019061366792919061514a565b5060a082015181600401908051906020019061368492919061514a565b50505050505050565b606080606080606080600060018054905067ffffffffffffffff8111156136b7576136b661527a565b5b6040519080825280602002602001820160405280156136e55781602001602082028036833780820191505090505b509050600060018054905067ffffffffffffffff8111156137095761370861527a565b5b6040519080825280602002602001820160405280156137375781602001602082028036833780820191505090505b509050600060018054905067ffffffffffffffff81111561375b5761375a61527a565b5b6040519080825280602002602001820160405280156137895781602001602082028036833780820191505090505b509050600060018054905067ffffffffffffffff8111156137ad576137ac61527a565b5b6040519080825280602002602001820160405280156137e057816020015b60608152602001906001900390816137cb5790505b509050600060018054905067ffffffffffffffff8111156138045761380361527a565b5b60405190808252806020026020018201604052801561383757816020015b60608152602001906001900390816138225790505b509050600060018054905067ffffffffffffffff81111561385b5761385a61527a565b5b60405190808252806020026020018201604052801561388e57816020015b60608152602001906001900390816138795790505b50905060005b600180549050811015613d4a578d73ffffffffffffffffffffffffffffffffffffffff16600182815481106138cc576138cb616463565b5b906000526020600020906005020160010160009054906101000a900473ffffffffffffffffffffffffffffffffffffffff1673ffffffffffffffffffffffffffffffffffffffff161415613d37576001818154811061392e5761392d616463565b5b906000526020600020906005020160000160009054906101000a900460e01b8782815181106139605761395f616463565b5b60200260200101907bffffffffffffffffffffffffffffffffffffffffffffffffffffffff191690817bffffffffffffffffffffffffffffffffffffffffffffffffffffffff191681525050600181815481106139c0576139bf616463565b5b906000526020600020906005020160000160049054906101000a900473ffffffffffffffffffffffffffffffffffffffff16868281518110613a0557613a04616463565b5b602002602001019073ffffffffffffffffffffffffffffffffffffffff16908173ffffffffffffffffffffffffffffffffffffffff168152505060018181548110613a5357613a52616463565b5b906000526020600020906005020160010160009054906101000a900473ffffffffffffffffffffffffffffffffffffffff16858281518110613a9857613a97616463565b5b602002602001019073ffffffffffffffffffffffffffffffffffffffff16908173ffffffffffffffffffffffffffffffffffffffff168152505060018181548110613ae657613ae5616463565b5b90600052602060002090600502016002018054613b029061650a565b80601f0160208091040260200160405190810160405280929190818152602001828054613b2e9061650a565b8015613b7b5780601f10613b5057610100808354040283529160200191613b7b565b820191906000526020600020905b815481529060010190602001808311613b5e57829003601f168201915b5050505050848281518110613b9357613b92616463565b5b602002602001018190525060018181548110613bb257613bb1616463565b5b90600052602060002090600502016003018054613bce9061650a565b80601f0160208091040260200160405190810160405280929190818152602001828054613bfa9061650a565b8015613c475780601f10613c1c57610100808354040283529160200191613c47565b820191906000526020600020905b815481529060010190602001808311613c2a57829003601f168201915b5050505050838281518110613c5f57613c5e616463565b5b602002602001018190525060018181548110613c7e57613c7d616463565b5b90600052602060002090600502016004018054613c9a9061650a565b80601f0160208091040260200160405190810160405280929190818152602001828054613cc69061650a565b8015613d135780601f10613ce857610100808354040283529160200191613d13565b820191906000526020600020905b815481529060010190602001808311613cf657829003601f168201915b5050505050828281518110613d2b57613d2a616463565b5b60200260200101819052505b8080613d4290616492565b915050613894565b508585858585859b509b509b509b509b509b5050505050505091939550919395565b60028181548110613d7c57600080fd5b90600052602060002090600802016000915090508060000160009054906101000a900460e01b908060000160049054906101000a900473ffffffffffffffffffffffffffffffffffffffff16908060010160009054906101000a900473ffffffffffffffffffffffffffffffffffffffff1690806002018054613dfe9061650a565b80601f0160208091040260200160405190810160405280929190818152602001828054613e2a9061650a565b8015613e775780601f10613e4c57610100808354040283529160200191613e77565b820191906000526020600020905b815481529060010190602001808311613e5a57829003601f168201915b505050505090806003018054613e8c9061650a565b80601f0160208091040260200160405190810160405280929190818152602001828054613eb89061650a565b8015613f055780601f10613eda57610100808354040283529160200191613f05565b820191906000526020600020905b815481529060010190602001808311613ee857829003601f168201915b505050505090806004018054613f1a9061650a565b80601f0160208091040260200160405190810160405280929190818152602001828054613f469061650a565b8015613f935780601f10613f6857610100808354040283529160200191613f93565b820191906000526020600020905b815481529060010190602001808311613f7657829003601f168201915b5050505050908060050154908060060154908060070154905089565b6060806060600080600080600090505b6002805490508110156143ef578a73ffffffffffffffffffffffffffffffffffffffff1660028281548110613ff757613ff6616463565b5b906000526020600020906008020160000160049054906101000a900473ffffffffffffffffffffffffffffffffffffffff1673ffffffffffffffffffffffffffffffffffffffff161480156140bc57508973ffffffffffffffffffffffffffffffffffffffff166002828154811061407257614071616463565b5b906000526020600020906008020160010160009054906101000a900473ffffffffffffffffffffffffffffffffffffffff1673ffffffffffffffffffffffffffffffffffffffff16145b8015614140575088886040516020016140d69291906163ba565b6040516020818303038152906040528051906020012060028281548110614100576140ff616463565b5b906000526020600020906008020160000160009054906101000a900460e01b7bffffffffffffffffffffffffffffffffffffffffffffffffffffffff1916145b156143dc576002818154811061415957614158616463565b5b90600052602060002090600802016002016002828154811061417e5761417d616463565b5b9060005260206000209060080201600301600283815481106141a3576141a2616463565b5b9060005260206000209060080201600401600284815481106141c8576141c7616463565b5b906000526020600020906008020160050154600285815481106141ee576141ed616463565b5b9060005260206000209060080201600601546002868154811061421457614213616463565b5b9060005260206000209060080201600701548580546142329061650a565b80601f016020809104026020016040519081016040528092919081815260200182805461425e9061650a565b80156142ab5780601f10614280576101008083540402835291602001916142ab565b820191906000526020600020905b81548152906001019060200180831161428e57829003601f168201915b505050505095508480546142be9061650a565b80601f01602080910402602001604051908101604052809291908181526020018280546142ea9061650a565b80156143375780601f1061430c57610100808354040283529160200191614337565b820191906000526020600020905b81548152906001019060200180831161431a57829003601f168201915b5050505050945083805461434a9061650a565b80601f01602080910402602001604051908101604052809291908181526020018280546143769061650a565b80156143c35780601f10614398576101008083540402835291602001916143c3565b820191906000526020600020905b8154815290600101906020018083116143a657829003601f168201915b50505050509350965096509650965096509650506143f1565b80806143e790616492565b915050613fbf565b505b9499939850945094509450565b6040518060400160405280600881526020017f4163636570746564000000000000000000000000000000000000000000000000815250805190602001208180519060200120148061449157506040518060400160405280600881526020017f4465636c696e6564000000000000000000000000000000000000000000000000815250805190602001208180519060200120145b6144d0576040517f08c379a00000000000000000000000000000000000000000000000000000000081526004016144c790616655565b60405180910390fd5b60005b60018054905081101561469e578473ffffffffffffffffffffffffffffffffffffffff166001828154811061450b5761450a616463565b5b906000526020600020906005020160000160049054906101000a900473ffffffffffffffffffffffffffffffffffffffff1673ffffffffffffffffffffffffffffffffffffffff161480156145d057508373ffffffffffffffffffffffffffffffffffffffff166001828154811061458657614585616463565b5b906000526020600020906005020160010160009054906101000a900473ffffffffffffffffffffffffffffffffffffffff1673ffffffffffffffffffffffffffffffffffffffff16145b801561464b5750827bffffffffffffffffffffffffffffffffffffffffffffffffffffffff19166001828154811061460b5761460a616463565b5b906000526020600020906005020160000160009054906101000a900460e01b7bffffffffffffffffffffffffffffffffffffffffffffffffffffffff1916145b1561468b57816001828154811061466557614664616463565b5b9060005260206000209060050201600401908051906020019061468992919061514a565b505b808061469690616492565b9150506144d3565b5050505050565b606080606080606080600060028054905067ffffffffffffffff8111156146cf576146ce61527a565b5b60405190808252806020026020018201604052801561470257816020015b60608152602001906001900390816146ed5790505b509050600060028054905067ffffffffffffffff8111156147265761472561527a565b5b60405190808252806020026020018201604052801561475957816020015b60608152602001906001900390816147445790505b509050600060028054905067ffffffffffffffff81111561477d5761477c61527a565b5b6040519080825280602002602001820160405280156147b057816020015b606081526020019060019003908161479b5790505b509050600060028054905067ffffffffffffffff8111156147d4576147d361527a565b5b6040519080825280602002602001820160405280156148025781602001602082028036833780820191505090505b509050600060028054905067ffffffffffffffff8111156148265761482561527a565b5b6040519080825280602002602001820160405280156148545781602001602082028036833780820191505090505b509050600060028054905067ffffffffffffffff8111156148785761487761527a565b5b6040519080825280602002602001820160405280156148a65781602001602082028036833780820191505090505b50905060005b600280549050811015614cf5578e73ffffffffffffffffffffffffffffffffffffffff16600282815481106148e4576148e3616463565b5b906000526020600020906008020160000160049054906101000a900473ffffffffffffffffffffffffffffffffffffffff1673ffffffffffffffffffffffffffffffffffffffff161480156149a957508d73ffffffffffffffffffffffffffffffffffffffff166002828154811061495f5761495e616463565b5b906000526020600020906008020160010160009054906101000a900473ffffffffffffffffffffffffffffffffffffffff1673ffffffffffffffffffffffffffffffffffffffff16145b15614ce257600281815481106149c2576149c1616463565b5b906000526020600020906008020160020180546149de9061650a565b80601f0160208091040260200160405190810160405280929190818152602001828054614a0a9061650a565b8015614a575780601f10614a2c57610100808354040283529160200191614a57565b820191906000526020600020905b815481529060010190602001808311614a3a57829003601f168201915b5050505050878281518110614a6f57614a6e616463565b5b602002602001018190525060028181548110614a8e57614a8d616463565b5b90600052602060002090600802016003018054614aaa9061650a565b80601f0160208091040260200160405190810160405280929190818152602001828054614ad69061650a565b8015614b235780601f10614af857610100808354040283529160200191614b23565b820191906000526020600020905b815481529060010190602001808311614b0657829003601f168201915b5050505050868281518110614b3b57614b3a616463565b5b602002602001018190525060028181548110614b5a57614b59616463565b5b90600052602060002090600802016004018054614b769061650a565b80601f0160208091040260200160405190810160405280929190818152602001828054614ba29061650a565b8015614bef5780601f10614bc457610100808354040283529160200191614bef565b820191906000526020600020905b815481529060010190602001808311614bd257829003601f168201915b5050505050858281518110614c0757614c06616463565b5b602002602001018190525060028181548110614c2657614c25616463565b5b906000526020600020906008020160050154848281518110614c4b57614c4a616463565b5b60200260200101818152505060028181548110614c6b57614c6a616463565b5b906000526020600020906008020160060154838281518110614c9057614c8f616463565b5b60200260200101818152505060028181548110614cb057614caf616463565b5b906000526020600020906008020160070154828281518110614cd557614cd4616463565b5b6020026020010181815250505b8080614ced90616492565b9150506148ac565b508585858585859b509b509b509b509b509b505050505050509295509295509295565b60008210158015614d2a575060c88211155b614d69576040517f08c379a0000000000000000000000000000000000000000000000000000000008152600401614d60906166c1565b60405180910390fd5b60008110158015614d7b575060c88111155b614dba576040517f08c379a0000000000000000000000000000000000000000000000000000000008152600401614db19061672d565b60405180910390fd5b60036040518061012001604052808787604051602001614ddb9291906163ba565b604051602081830303815290604052805190602001207bffffffffffffffffffffffffffffffffffffffffffffffffffffffff191681526020018973ffffffffffffffffffffffffffffffffffffffff1681526020018873ffffffffffffffffffffffffffffffffffffffff1681526020018781526020018681526020018581526020018481526020018381526020018385614e77919061640d565b815250908060018154018082558091505060019003906000526020600020906008020160009091909190915060008201518160000160006101000a81548163ffffffff021916908360e01c021790555060208201518160000160046101000a81548173ffffffffffffffffffffffffffffffffffffffff021916908373ffffffffffffffffffffffffffffffffffffffff16021790555060408201518160010160006101000a81548173ffffffffffffffffffffffffffffffffffffffff021916908373ffffffffffffffffffffffffffffffffffffffff1602179055506060820151816002019080519060200190614f7192919061514a565b506080820151816003019080519060200190614f8e92919061514a565b5060a0820151816004019080519060200190614fab92919061514a565b5060c0820151816005015560e082015181600601556101008201518160070155505050505050505050565b60006040518060e001604052808973ffffffffffffffffffffffffffffffffffffffff16815260200188815260200187815260200186815260200185815260200184815260200183815250908060018154018082558091505060019003906000526020600020906007020160009091909190915060008201518160000160006101000a81548173ffffffffffffffffffffffffffffffffffffffff021916908373ffffffffffffffffffffffffffffffffffffffff16021790555060208201518160010190805190602001906150ad92919061514a565b5060408201518160020190805190602001906150ca92919061514a565b5060608201518160030190805190602001906150e792919061514a565b50608082015181600401908051906020019061510492919061514a565b5060a082015181600501908051906020019061512192919061514a565b5060c082015181600601908051906020019061513e92919061514a565b50505050505050505050565b8280546151569061650a565b90600052602060002090601f01602090048101928261517857600085556151bf565b82601f1061519157805160ff19168380011785556151bf565b828001600101855582156151bf579182015b828111156151be5782518255916020019190600101906151a3565b5b5090506151cc91906151d0565b5090565b5b808211156151e95760008160009055506001016151d1565b5090565b6000604051905090565b600080fd5b600080fd5b600073ffffffffffffffffffffffffffffffffffffffff82169050919050565b600061522c82615201565b9050919050565b61523c81615221565b811461524757600080fd5b50565b60008135905061525981615233565b92915050565b600080fd5b600080fd5b6000601f19601f8301169050919050565b7f4e487b7100000000000000000000000000000000000000000000000000000000600052604160045260246000fd5b6152b282615269565b810181811067ffffffffffffffff821117156152d1576152d061527a565b5b80604052505050565b60006152e46151ed565b90506152f082826152a9565b919050565b600067ffffffffffffffff8211156153105761530f61527a565b5b61531982615269565b9050602081019050919050565b82818337600083830152505050565b6000615348615343846152f5565b6152da565b90508281526020810184848401111561536457615363615264565b5b61536f848285615326565b509392505050565b600082601f83011261538c5761538b61525f565b5b813561539c848260208601615335565b91505092915050565b6000819050919050565b6153b8816153a5565b81146153c357600080fd5b50565b6000813590506153d5816153af565b92915050565b600080600080600080600060e0888a0312156153fa576153f96151f7565b5b60006154088a828b0161524a565b97505060206154198a828b0161524a565b965050604088013567ffffffffffffffff81111561543a576154396151fc565b5b6154468a828b01615377565b955050606088013567ffffffffffffffff811115615467576154666151fc565b5b6154738a828b01615377565b945050608088013567ffffffffffffffff811115615494576154936151fc565b5b6154a08a828b01615377565b93505060a06154b18a828b016153c6565b92505060c06154c28a828b016153c6565b91505092959891949750929550565b6000806000606084860312156154ea576154e96151f7565b5b60006154f88682870161524a565b935050602084013567ffffffffffffffff811115615519576155186151fc565b5b61552586828701615377565b925050604084013567ffffffffffffffff811115615546576155456151fc565b5b61555286828701615377565b9150509250925092565b615565816153a5565b82525050565b6000602082019050615580600083018461555c565b92915050565b6000806040838503121561559d5761559c6151f7565b5b60006155ab8582860161524a565b92505060206155bc8582860161524a565b9150509250929050565b600081519050919050565b600082825260208201905092915050565b6000819050602082019050919050565b600081519050919050565b600082825260208201905092915050565b60005b8381101561562c578082015181840152602081019050615611565b8381111561563b576000848401525b50505050565b600061564c826155f2565b61565681856155fd565b935061566681856020860161560e565b61566f81615269565b840191505092915050565b60006156868383615641565b905092915050565b6000602082019050919050565b60006156a6826155c6565b6156b081856155d1565b9350836020820285016156c2856155e2565b8060005b858110156156fe57848403895281516156df858261567a565b94506156ea8361568e565b925060208a019950506001810190506156c6565b50829750879550505050505092915050565b600081519050919050565b600082825260208201905092915050565b6000819050602082019050919050565b615745816153a5565b82525050565b6000615757838361573c565b60208301905092915050565b6000602082019050919050565b600061577b82615710565b615785818561571b565b93506157908361572c565b8060005b838110156157c15781516157a8888261574b565b97506157b383615763565b925050600181019050615794565b5085935050505092915050565b600060c08201905081810360008301526157e8818961569b565b905081810360208301526157fc818861569b565b90508181036040830152615810818761569b565b905081810360608301526158248186615770565b905081810360808301526158388185615770565b905081810360a083015261584c8184615770565b9050979650505050505050565b60006020828403121561586f5761586e6151f7565b5b600061587d848285016153c6565b91505092915050565b61588f81615221565b82525050565b600082825260208201905092915050565b60006158b1826155f2565b6158bb8185615895565b93506158cb81856020860161560e565b6158d481615269565b840191505092915050565b600060e0820190506158f4600083018a615886565b818103602083015261590681896158a6565b9050818103604083015261591a81886158a6565b9050818103606083015261592e81876158a6565b9050818103608083015261594281866158a6565b905081810360a083015261595681856158a6565b905081810360c083015261596a81846158a6565b905098975050505050505050565b600081519050919050565b600082825260208201905092915050565b6000819050602082019050919050565b60007fffffffff0000000000000000000000000000000000000000000000000000000082169050919050565b6159d9816159a4565b82525050565b60006159eb83836159d0565b60208301905092915050565b6000602082019050919050565b6000615a0f82615978565b615a198185615983565b9350615a2483615994565b8060005b83811015615a55578151615a3c88826159df565b9750615a47836159f7565b925050600181019050615a28565b5085935050505092915050565b600081519050919050565b600082825260208201905092915050565b6000819050602082019050919050565b615a9781615221565b82525050565b6000615aa98383615a8e565b60208301905092915050565b6000602082019050919050565b6000615acd82615a62565b615ad78185615a6d565b9350615ae283615a7e565b8060005b83811015615b13578151615afa8882615a9d565b9750615b0583615ab5565b925050600181019050615ae6565b5085935050505092915050565b600060c0820190508181036000830152615b3a8189615a04565b90508181036020830152615b4e8188615ac2565b90508181036040830152615b628187615ac2565b90508181036060830152615b76818661569b565b90508181036080830152615b8a818561569b565b905081810360a0830152615b9e818461569b565b9050979650505050505050565b600060208284031215615bc157615bc06151f7565b5b6000615bcf8482850161524a565b91505092915050565b600060c082019050615bed6000830189615886565b8181036020830152615bff81886158a6565b90508181036040830152615c1381876158a6565b90508181036060830152615c2781866158a6565b90508181036080830152615c3b81856158a6565b905081810360a0830152615c4f81846158a6565b9050979650505050505050565b60008060408385031215615c7357615c726151f7565b5b6000615c818582860161524a565b925050602083013567ffffffffffffffff811115615ca257615ca16151fc565b5b615cae85828601615377565b9150509250929050565b615cc1816159a4565b82525050565b600060c082019050615cdc6000830189615cb8565b615ce96020830188615886565b615cf66040830187615886565b8181036060830152615d0881866158a6565b90508181036080830152615d1c81856158a6565b905081810360a0830152615d3081846158a6565b9050979650505050505050565b600061012082019050615d53600083018c615cb8565b615d60602083018b615886565b615d6d604083018a615886565b8181036060830152615d7f81896158a6565b90508181036080830152615d9381886158a6565b905081810360a0830152615da781876158a6565b9050615db660c083018661555c565b615dc360e083018561555c565b615dd161010083018461555c565b9a9950505050505050505050565b60008060008060808587031215615df957615df86151f7565b5b6000615e078782880161524a565b9450506020615e188782880161524a565b935050604085013567ffffffffffffffff811115615e3957615e386151fc565b5b615e4587828801615377565b925050606085013567ffffffffffffffff811115615e6657615e656151fc565b5b615e7287828801615377565b91505092959194509250565b600060c0820190508181036000830152615e9881896158a6565b90508181036020830152615eac81886158a6565b90508181036040830152615ec081876158a6565b9050615ecf606083018661555c565b615edc608083018561555c565b615ee960a083018461555c565b979650505050505050565b60008060008060008060c08789031215615f1157615f106151f7565b5b6000615f1f89828a0161524a565b965050602087013567ffffffffffffffff811115615f4057615f3f6151fc565b5b615f4c89828a01615377565b955050604087013567ffffffffffffffff811115615f6d57615f6c6151fc565b5b615f7989828a01615377565b945050606087013567ffffffffffffffff811115615f9a57615f996151fc565b5b615fa689828a01615377565b935050608087013567ffffffffffffffff811115615fc757615fc66151fc565b5b615fd389828a01615377565b92505060a087013567ffffffffffffffff811115615ff457615ff36151fc565b5b61600089828a01615377565b9150509295509295509295565b600060e0820190508181036000830152616027818a615ac2565b9050818103602083015261603b818961569b565b9050818103604083015261604f818861569b565b90508181036060830152616063818761569b565b90508181036080830152616077818661569b565b905081810360a083015261608b818561569b565b905081810360c083015261609f818461569b565b905098975050505050505050565b6160b6816159a4565b81146160c157600080fd5b50565b6000813590506160d3816160ad565b92915050565b600080600080608085870312156160f3576160f26151f7565b5b60006161018782880161524a565b94505060206161128782880161524a565b9350506040616123878288016160c4565b925050606085013567ffffffffffffffff811115616144576161436151fc565b5b61615087828801615377565b91505092959194509250565b600080600080600080600060e0888a03121561617b5761617a6151f7565b5b60006161898a828b0161524a565b975050602088013567ffffffffffffffff8111156161aa576161a96151fc565b5b6161b68a828b01615377565b965050604088013567ffffffffffffffff8111156161d7576161d66151fc565b5b6161e38a828b01615377565b955050606088013567ffffffffffffffff811115616204576162036151fc565b5b6162108a828b01615377565b945050608088013567ffffffffffffffff811115616231576162306151fc565b5b61623d8a828b01615377565b93505060a088013567ffffffffffffffff81111561625e5761625d6151fc565b5b61626a8a828b01615377565b92505060c088013567ffffffffffffffff81111561628b5761628a6151fc565b5b6162978a828b01615377565b91505092959891949750929550565b7f4c697374656e696e672053636f726520696e636f72726563742e000000000000600082015250565b60006162dc601a83615895565b91506162e7826162a6565b602082019050919050565b6000602082019050818103600083015261630b816162cf565b9050919050565b7f52656164696e672053636f726520696e636f72726563742e0000000000000000600082015250565b6000616348601883615895565b915061635382616312565b602082019050919050565b600060208201905081810360008301526163778161633b565b9050919050565b600081905092915050565b6000616394826155f2565b61639e818561637e565b93506163ae81856020860161560e565b80840191505092915050565b60006163c68285616389565b91506163d28284616389565b91508190509392505050565b7f4e487b7100000000000000000000000000000000000000000000000000000000600052601160045260246000fd5b6000616418826153a5565b9150616423836153a5565b9250827fffffffffffffffffffffffffffffffffffffffffffffffffffffffffffffffff03821115616458576164576163de565b5b828201905092915050565b7f4e487b7100000000000000000000000000000000000000000000000000000000600052603260045260246000fd5b600061649d826153a5565b91507fffffffffffffffffffffffffffffffffffffffffffffffffffffffffffffffff8214156164d0576164cf6163de565b5b600182019050919050565b7f4e487b7100000000000000000000000000000000000000000000000000000000600052602260045260246000fd5b6000600282049050600182168061652257607f821691505b60208210811415616536576165356164db565b5b50919050565b600081905092915050565b60008190508160005260206000209050919050565b600081546165698161650a565b616573818661653c565b9450600182166000811461658e576001811461659f576165d2565b60ff198316865281860193506165d2565b6165a885616547565b60005b838110156165ca578154818901526001820191506020810190506165ab565b838801955050505b50505092915050565b60006165e7828461655c565b915081905092915050565b60006165fe8284616389565b915081905092915050565b7f537461747573205265717565737420696e636f72726563742e00000000000000600082015250565b600061663f601983615895565b915061664a82616609565b602082019050919050565b6000602082019050818103600083015261666e81616632565b9050919050565b7f537065616b696e672053636f726520696e636f72726563742e00000000000000600082015250565b60006166ab601983615895565b91506166b682616675565b602082019050919050565b600060208201905081810360008301526166da8161669e565b9050919050565b7f57726974696e672053636f726520696e636f72726563742e0000000000000000600082015250565b6000616717601883615895565b9150616722826166e1565b602082019050919050565b600060208201905081810360008301526167468161670a565b905091905056fea2646970667358221220b3904f6e2afe64774f3eca0164a2f9225bd289b1a9aba02c443886b8218cc00a64736f6c634300080b0033",
  "immutableReferences": {},
  "source": "// SPDX-License-Identifier: MIT\r\npragma solidity >=0.4.22 <0.9.0;\r\n\r\n// Lu tr danh sch IIG\r\ncontract ListIIG {\r\n\r\n    // Khai bo cu trc lu tr thng tin IIG\r\n    struct IIGInfo {\r\n        address iigOwner;\r\n        string name;\r\n        string country;\r\n        string facebook;\r\n        string website;\r\n        string linkedin;\r\n        string password;\r\n    }\r\n\r\n    // Khai bo cu trc lu tr thng tin yu cu chng ch IIG ca sinh vin\r\n    struct IIGRequest {\r\n        bytes4 codeRequest;\r\n        address studentOwner;\r\n        address iigOwner;\r\n        string identityCard;\r\n        string requestDate;\r\n        string statusRequest;\r\n    }\r\n\r\n    // Khai bo cu trc lu tr thng tin im thi Listening - Reading IIG\r\n    struct IIGLRResult {\r\n        bytes4 codeLRResult;\r\n        address iigOwner;\r\n        address studentOwner;\r\n        string testDate;\r\n        string shiftTest;\r\n        string expireDate;\r\n        uint listeningScore;\r\n        uint readingScore;\r\n        uint totalScore;\r\n    }\r\n\r\n    // Khai bo cu trc lu tr thng tin im thi Speaking - Writing IIG\r\n    struct IIGSWResult {\r\n        bytes4 codeSWResult;\r\n        address iigOwner;\r\n        address studentOwner;\r\n        string testDate;\r\n        string shiftTest;\r\n        string expireDate;\r\n        uint speakingScore;\r\n        uint writingScore;\r\n        uint totalScore;\r\n    }\r\n\r\n    // Khai bo mng  lu tr thng tin\r\n    IIGInfo[] public iigInfos;\r\n    IIGRequest[] public iigRequests;\r\n    IIGLRResult[] public iigLRResults;\r\n    IIGSWResult[] public iigSWResults;\r\n\r\n    // Chc nng thm thng tin IGG\r\n    function addIIG (\r\n        address _iigOwner,\r\n        string memory _name,\r\n        string memory _country,\r\n        string memory _facebook,\r\n        string memory _website,\r\n        string memory _linkedin,\r\n        string memory _password) public {\r\n            iigInfos.push(\r\n                IIGInfo(_iigOwner, \r\n                        _name, \r\n                        _country, \r\n                        _facebook,\r\n                        _website, \r\n                        _linkedin, \r\n                        _password)\r\n                );\r\n    }\r\n\r\n    // Chc nng chnh sa thng tin IGG\r\n    function editIIG (\r\n        address _iigOwner,\r\n        string memory _name,\r\n        string memory _country,\r\n        string memory _facebook,\r\n        string memory _website,\r\n        string memory _linkedin) public {\r\n            for(uint i=0; i<iigInfos.length;i++){\r\n                if(iigInfos[i].iigOwner == _iigOwner){\r\n                    iigInfos[i].name = _name;\r\n                    iigInfos[i].country = _country;\r\n                    iigInfos[i].facebook = _facebook;\r\n                    iigInfos[i].website = _website;\r\n                    iigInfos[i].linkedin = _linkedin;\r\n                }\r\n            }\r\n    }\r\n\r\n    // Chc nng ly danh sch IIG  thm\r\n    function getListIIG() public view returns(\r\n        address[] memory, \r\n        string[] memory, \r\n        string[] memory, \r\n        string[] memory, \r\n        string[] memory, \r\n        string[] memory, \r\n        string[] memory) {\r\n            address[] memory iigOwners = new address[](iigInfos.length);\r\n            string[] memory names = new string[](iigInfos.length);\r\n            string[] memory countrys = new string[](iigInfos.length);\r\n            string[] memory facebooks = new string[](iigInfos.length);\r\n            string[] memory websites = new string[](iigInfos.length);\r\n            string[] memory linkedins = new string[](iigInfos.length);\r\n            string[] memory passwords = new string[](iigInfos.length);\r\n            for(uint i=0; i<iigInfos.length;i++){\r\n                iigOwners[i] = iigInfos[i].iigOwner;\r\n                names[i] = iigInfos[i].name;\r\n                countrys[i] = iigInfos[i].country;\r\n                facebooks[i] = iigInfos[i].facebook;\r\n                websites[i] = iigInfos[i].website;\r\n                linkedins[i] = iigInfos[i].linkedin;\r\n                passwords[i] = iigInfos[i].password;\r\n            }\r\n            return (iigOwners, names, countrys, facebooks, websites, linkedins, passwords);\r\n    }\r\n\r\n    // Chc nng ly thng tin ca IIG\r\n    function getProfile(address _iigOwner) public view returns(\r\n        address iigOwner, \r\n        string memory name, \r\n        string memory country, \r\n        string memory facebook, \r\n        string memory website, \r\n        string memory linkedin) {\r\n            for(uint i=0; i<iigInfos.length;i++){\r\n                if(iigInfos[i].iigOwner == _iigOwner){\r\n                    return (iigInfos[i].iigOwner,\r\n                            iigInfos[i].name, \r\n                            iigInfos[i].country, \r\n                            iigInfos[i].facebook, \r\n                            iigInfos[i].website, \r\n                            iigInfos[i].linkedin);\r\n                }\r\n            }\r\n    }\r\n\r\n    // Chc nng kim tra IIG  ng k hay cha?\r\n    function checkIIG(\r\n        address _iigOwner, \r\n        string memory _password) public view returns(uint x) {\r\n            for(uint i=0; i<iigInfos.length; i++){\r\n                if((iigInfos[i].iigOwner == _iigOwner) && (keccak256(bytes(iigInfos[i].password)) == keccak256(bytes(_password)))){\r\n                    return 1;\r\n                }\r\n            }\r\n    }\r\n\r\n    // Chc nng kim tra a ch IIG  tn ti hay cha?\r\n    function checkExistIIG(address _iigOwner) public view returns(uint x) {\r\n        for(uint i=0; i<iigInfos.length; i++){\r\n            if(iigInfos[i].iigOwner == _iigOwner){\r\n                return 1;\r\n            }\r\n        }\r\n    }\r\n\r\n    // Chc nng thm thng tin yu cu chng ch IIG\r\n    function addRequest (\r\n        address _studentOwner,\r\n        address _iigOwner,\r\n        string memory _identityCard,\r\n        string memory _requestDate) public {\r\n            iigRequests.push(\r\n                IIGRequest(bytes4(keccak256(abi.encodePacked(_requestDate))),\r\n                        _studentOwner, \r\n                        _iigOwner,\r\n                        _identityCard,\r\n                        _requestDate,\r\n                        \"Waiting\")\r\n                );\r\n    }\r\n\r\n    // Chc nng ly danh sch yu cu chng ch IIG\r\n    function getListRequest(address _iigOwner) public view returns(\r\n        bytes4[] memory,\r\n        address[] memory, \r\n        address[] memory,\r\n        string[] memory,\r\n        string[] memory,\r\n        string[] memory) {\r\n            bytes4[] memory codeRequests = new bytes4[](iigRequests.length);\r\n            address[] memory studentOwners = new address[](iigRequests.length);\r\n            address[] memory iigOwners = new address[](iigRequests.length);\r\n            string[] memory identityCards = new string[](iigRequests.length);\r\n            string[] memory requestDates = new string[](iigRequests.length);\r\n            string[] memory statusRequests = new string[](iigRequests.length);\r\n            for(uint i=0; i<iigRequests.length;i++){\r\n                if(iigRequests[i].iigOwner == _iigOwner){\r\n                    codeRequests[i] = iigRequests[i].codeRequest;\r\n                    studentOwners[i] = iigRequests[i].studentOwner;\r\n                    iigOwners[i] = iigRequests[i].iigOwner;\r\n                    identityCards[i] = iigRequests[i].identityCard;\r\n                    requestDates[i] = iigRequests[i].requestDate;\r\n                    statusRequests[i] = iigRequests[i].statusRequest;\r\n                }\r\n            }\r\n            return (codeRequests, studentOwners, iigOwners, identityCards, requestDates, statusRequests);\r\n    }\r\n\r\n    // Chc nng ly danh sch yu cu chng ch IIG theo sinh vin\r\n    function getListRequestStudent(address _iigOwner, address _studentOwner) public view returns(\r\n        bytes4[] memory,\r\n        address[] memory, \r\n        address[] memory,\r\n        string[] memory,\r\n        string[] memory,\r\n        string[] memory) {\r\n            bytes4[] memory codeRequests = new bytes4[](iigRequests.length);\r\n            address[] memory studentOwners = new address[](iigRequests.length);\r\n            address[] memory iigOwners = new address[](iigRequests.length);\r\n            string[] memory identityCards = new string[](iigRequests.length);\r\n            string[] memory requestDates = new string[](iigRequests.length);\r\n            string[] memory statusRequests = new string[](iigRequests.length);\r\n            for(uint i=0; i<iigRequests.length;i++){\r\n                if((iigRequests[i].iigOwner == _iigOwner) && (iigRequests[i].studentOwner == _studentOwner)){\r\n                    codeRequests[i] = iigRequests[i].codeRequest;\r\n                    studentOwners[i] = iigRequests[i].studentOwner;\r\n                    iigOwners[i] = iigRequests[i].iigOwner;\r\n                    identityCards[i] = iigRequests[i].identityCard;\r\n                    requestDates[i] = iigRequests[i].requestDate;\r\n                    statusRequests[i] = iigRequests[i].statusRequest;\r\n                }\r\n            }\r\n            return (codeRequests, studentOwners, iigOwners, identityCards, requestDates, statusRequests);\r\n    }\r\n\r\n    //Chc nng duyt yu cu chng ch IIG\r\n    function confirmRequest(\r\n        address _studentOwner, \r\n        address _iigOwner,\r\n        bytes4 _codeRequest,\r\n        string memory _statusRequest) public {\r\n            require(keccak256(bytes(_statusRequest)) == keccak256(bytes(\"Accepted\")) || keccak256(bytes(_statusRequest)) == keccak256(bytes(\"Declined\")), \"Status Request incorrect.\");\r\n            for(uint i=0; i<iigRequests.length; i++){\r\n                if((iigRequests[i].studentOwner == _studentOwner) && (iigRequests[i].iigOwner == _iigOwner) && (iigRequests[i].codeRequest == _codeRequest)){\r\n                    iigRequests[i].statusRequest = _statusRequest;\r\n                }\r\n            }\r\n    }\r\n\r\n    // Chc nng thm thng tin im thi Listening - Reading (Kim tra c nhp nhiu ln thi ca 1 sinh vin chung 1 ngy khng?)\r\n    function addLRResult (\r\n        address _iigOwner,\r\n        address _studentOwner,\r\n        string memory _testDate,\r\n        string memory _shiftTest,\r\n        string memory _expireDate,\r\n        uint _listeningScore,\r\n        uint _readingScore) public {\r\n            require(_listeningScore >=0 && _listeningScore <=495, \"Listening Score incorrect.\");\r\n            require(_readingScore >=0 && _readingScore <=495, \"Reading Score incorrect.\");\r\n            iigLRResults.push(\r\n                IIGLRResult(bytes4(keccak256(abi.encodePacked(_testDate, _shiftTest))),\r\n                        _iigOwner, \r\n                        _studentOwner, \r\n                        _testDate,\r\n                        _shiftTest,\r\n                        _expireDate,\r\n                        _listeningScore, \r\n                        _readingScore,\r\n                        (_listeningScore + _readingScore))\r\n                );\r\n    }\r\n\r\n    // Chc nng ly danh sch im thi Listening - Reading  thm\r\n    function getListLRResult(\r\n        address _iigOwner, \r\n        address _studentOwner) public view returns(\r\n            string[] memory,\r\n            string[] memory,\r\n            string[] memory,\r\n            uint[] memory,\r\n            uint[] memory,\r\n            uint[] memory) {\r\n                string[] memory testDates = new string[](iigLRResults.length);\r\n                string[] memory shiftTests = new string[](iigLRResults.length);\r\n                string[] memory expireDates = new string[](iigLRResults.length);\r\n                uint[] memory listeningScores = new uint[](iigLRResults.length);\r\n                uint[] memory readingScores = new uint[](iigLRResults.length);\r\n                uint[] memory totalScores = new uint[](iigLRResults.length);\r\n                for(uint i=0; i<iigLRResults.length;i++){\r\n                    if((iigLRResults[i].iigOwner == _iigOwner) && (iigLRResults[i].studentOwner == _studentOwner)){\r\n                        testDates[i] = iigLRResults[i].testDate;\r\n                        shiftTests[i] = iigLRResults[i].shiftTest;\r\n                        expireDates[i] = iigLRResults[i].expireDate;\r\n                        listeningScores[i] = iigLRResults[i].listeningScore;\r\n                        readingScores[i] = iigLRResults[i].readingScore;\r\n                        totalScores[i] = iigLRResults[i].totalScore;\r\n                    }\r\n                }\r\n                return (testDates, shiftTests, expireDates, listeningScores, readingScores, totalScores);\r\n    }\r\n\r\n    // Chc nng ly im thi Listening - Reading ca sinh vin\r\n    function getLRResult(\r\n        address _iigOwner, \r\n        address _studentOwner,\r\n        string memory _testDate,\r\n        string memory _shiftTest) public view returns(\r\n            string memory testDate,\r\n            string memory shiftTest,\r\n            string memory expireDate,\r\n            uint listeningScore,\r\n            uint readingScore,\r\n            uint totalScore) {\r\n                for(uint i=0; i<iigLRResults.length;i++){\r\n                    if((iigLRResults[i].iigOwner == _iigOwner) && (iigLRResults[i].studentOwner == _studentOwner) && (iigLRResults[i].codeLRResult == keccak256(bytes(string(abi.encodePacked(_testDate, _shiftTest)))))){\r\n                        return(iigLRResults[i].testDate,\r\n                                iigLRResults[i].shiftTest,\r\n                                iigLRResults[i].expireDate,\r\n                                iigLRResults[i].listeningScore,\r\n                                iigLRResults[i].readingScore,\r\n                                iigLRResults[i].totalScore);\r\n                    }\r\n                }\r\n    }\r\n\r\n    // Chc nng kim tra kt qu ngy thi Listening - Reading ca sinh vin  tn ti hay cha?\r\n    function checkExistLRResult(\r\n        address _studentOwner, \r\n        string memory _testDate,\r\n        string memory _shiftTest) public view returns(uint x) {\r\n            for(uint i=0; i<iigLRResults.length; i++){\r\n                if((iigLRResults[i].studentOwner == _studentOwner) && (iigLRResults[i].codeLRResult == keccak256(bytes(string(abi.encodePacked(_testDate, _shiftTest)))))){\r\n                    return 1;\r\n                }\r\n            }\r\n    }\r\n\r\n    // Chc nng thm thng tin im thi Speaking - Writing\r\n    function addSWResult (\r\n        address _iigOwner,\r\n        address _studentOwner,\r\n        string memory _testDate,\r\n        string memory _shiftTest,\r\n        string memory _expireDate,\r\n        uint _speakingScore,\r\n        uint _writingScore) public {\r\n            require(_speakingScore >=0 && _speakingScore <=200, \"Speaking Score incorrect.\");\r\n            require(_writingScore >=0 && _writingScore <=200, \"Writing Score incorrect.\");\r\n            iigSWResults.push(\r\n                IIGSWResult(bytes4(keccak256(abi.encodePacked(_testDate, _shiftTest))),\r\n                        _iigOwner, \r\n                        _studentOwner, \r\n                        _testDate,\r\n                        _shiftTest,\r\n                        _expireDate,\r\n                        _speakingScore, \r\n                        _writingScore,\r\n                        (_speakingScore + _writingScore))\r\n                );\r\n    }\r\n\r\n    // Chc nng ly danh sch im thi Speaking - Writing  thm\r\n    function getListSWResult(address _iigOwner, address _studentOwner) public view returns(\r\n        string[] memory,\r\n        string[] memory,\r\n        string[] memory,\r\n        uint[] memory,\r\n        uint[] memory,\r\n        uint[] memory) {\r\n            string[] memory testDates = new string[](iigSWResults.length);\r\n            string[] memory shiftTests = new string[](iigSWResults.length);\r\n            string[] memory expireDates = new string[](iigSWResults.length);\r\n            uint[] memory speakingScores = new uint[](iigSWResults.length);\r\n            uint[] memory writingScores = new uint[](iigSWResults.length);\r\n            uint[] memory totalScores = new uint[](iigSWResults.length);\r\n            for(uint i=0; i<iigSWResults.length;i++){\r\n                if((iigLRResults[i].iigOwner == _iigOwner) && (iigLRResults[i].studentOwner == _studentOwner)){\r\n                    testDates[i] = iigSWResults[i].testDate;\r\n                    shiftTests[i] = iigSWResults[i].shiftTest;\r\n                    expireDates[i] = iigSWResults[i].expireDate;\r\n                    speakingScores[i] = iigSWResults[i].speakingScore;\r\n                    writingScores[i] = iigSWResults[i].writingScore;\r\n                    totalScores[i] = iigSWResults[i].totalScore;\r\n                }\r\n            }\r\n            return (testDates, shiftTests, expireDates, speakingScores, writingScores, totalScores);\r\n    }\r\n\r\n    // Chc nng ly im thi Speaking - Writing ca sinh vin\r\n    function getSWResult(\r\n        address _iigOwner, \r\n        address _studentOwner,\r\n        string memory _testDate,\r\n        string memory _shiftTest) public view returns(\r\n            string memory testDate,\r\n            string memory shiftTest,\r\n            string memory expireDate,\r\n            uint speakingScore,\r\n            uint writingScore,\r\n            uint totalScore) {\r\n                for(uint i=0; i<iigSWResults.length;i++){\r\n                    if((iigSWResults[i].iigOwner == _iigOwner) && (iigSWResults[i].studentOwner == _studentOwner) && (iigSWResults[i].codeSWResult == keccak256(bytes(string(abi.encodePacked(_testDate, _shiftTest)))))){\r\n                        return(iigSWResults[i].testDate,\r\n                                iigSWResults[i].shiftTest,\r\n                                iigSWResults[i].expireDate,\r\n                                iigSWResults[i].speakingScore,\r\n                                iigSWResults[i].writingScore,\r\n                                iigSWResults[i].totalScore);\r\n                    }\r\n                }\r\n    }\r\n    \r\n    // Chc nng kim tra kt qu ngy thi Speaking - Writing ca sinh vin  tn ti hay cha?\r\n    function checkExistSWResult(\r\n        address _studentOwner,\r\n        string memory _testDate,\r\n        string memory _shiftTest) public view returns(uint x) {\r\n            for(uint i=0; i<iigSWResults.length; i++){\r\n                if((iigLRResults[i].studentOwner == _studentOwner) && (iigLRResults[i].codeLRResult == keccak256(bytes(string(abi.encodePacked(_testDate, _shiftTest)))))){\r\n                    return 1;\r\n                }\r\n            }\r\n    }\r\n}",
  "sourcePath": "C:\\Users\\19520\\Documents\\NCKH_Blockchain\\SolidityProgramming\\ProjectResearch\\SmartCV\\SmartContract\\contracts\\SmartCV_ListIIG.sol",
  "compiler": {
    "name": "solc",
    "version": "0.8.11+commit.d7f03943.Emscripten.clang"
  },
  "schemaVersion": "3.4.4",
  "updatedAt": "2022-07-29T13:41:16.379Z",
  "devdoc": {
    "kind": "dev",
    "methods": {},
    "version": 1
  },
  "userdoc": {
    "kind": "user",
    "methods": {},
    "version": 1
  }
}