{
  "contractName": "ListStudent",
  "abi": [
    {
      "inputs": [
        {
          "internalType": "uint256",
          "name": "",
          "type": "uint256"
        }
      ],
      "name": "listSVs",
      "outputs": [
        {
          "internalType": "address",
          "name": "studentOwner",
          "type": "address"
        },
        {
          "internalType": "string",
          "name": "name",
          "type": "string"
        },
        {
          "internalType": "string",
          "name": "birthDay",
          "type": "string"
        },
        {
          "internalType": "string",
          "name": "professionalTitle",
          "type": "string"
        },
        {
          "internalType": "string",
          "name": "email",
          "type": "string"
        },
        {
          "internalType": "string",
          "name": "github",
          "type": "string"
        },
        {
          "internalType": "string",
          "name": "linkedin",
          "type": "string"
        },
        {
          "internalType": "string",
          "name": "password",
          "type": "string"
        }
      ],
      "stateMutability": "view",
      "type": "function"
    },
    {
      "inputs": [
        {
          "internalType": "uint256",
          "name": "",
          "type": "uint256"
        }
      ],
      "name": "listSkills",
      "outputs": [
        {
          "internalType": "address",
          "name": "studentOwner",
          "type": "address"
        },
        {
          "internalType": "string",
          "name": "title",
          "type": "string"
        },
        {
          "internalType": "uint256",
          "name": "level",
          "type": "uint256"
        }
      ],
      "stateMutability": "view",
      "type": "function"
    },
    {
      "inputs": [
        {
          "internalType": "address",
          "name": "_studentOwner",
          "type": "address"
        },
        {
          "internalType": "string",
          "name": "_name",
          "type": "string"
        },
        {
          "internalType": "string",
          "name": "_birthDay",
          "type": "string"
        },
        {
          "internalType": "string",
          "name": "_professionalTitle",
          "type": "string"
        },
        {
          "internalType": "string",
          "name": "_email",
          "type": "string"
        },
        {
          "internalType": "string",
          "name": "_github",
          "type": "string"
        },
        {
          "internalType": "string",
          "name": "_linked",
          "type": "string"
        },
        {
          "internalType": "string",
          "name": "_password",
          "type": "string"
        }
      ],
      "name": "addSV",
      "outputs": [],
      "stateMutability": "nonpayable",
      "type": "function"
    },
    {
      "inputs": [],
      "name": "getListSV",
      "outputs": [
        {
          "internalType": "address[]",
          "name": "",
          "type": "address[]"
        },
        {
          "internalType": "string[]",
          "name": "",
          "type": "string[]"
        },
        {
          "internalType": "string[]",
          "name": "",
          "type": "string[]"
        },
        {
          "internalType": "string[]",
          "name": "",
          "type": "string[]"
        },
        {
          "internalType": "string[]",
          "name": "",
          "type": "string[]"
        },
        {
          "internalType": "string[]",
          "name": "",
          "type": "string[]"
        },
        {
          "internalType": "string[]",
          "name": "",
          "type": "string[]"
        },
        {
          "internalType": "string[]",
          "name": "",
          "type": "string[]"
        }
      ],
      "stateMutability": "view",
      "type": "function"
    },
    {
      "inputs": [
        {
          "internalType": "address",
          "name": "_studentOwner",
          "type": "address"
        }
      ],
      "name": "getProfile",
      "outputs": [
        {
          "internalType": "address",
          "name": "studentOwner",
          "type": "address"
        },
        {
          "internalType": "string",
          "name": "name",
          "type": "string"
        },
        {
          "internalType": "string",
          "name": "birthDay",
          "type": "string"
        },
        {
          "internalType": "string",
          "name": "professionalTitle",
          "type": "string"
        },
        {
          "internalType": "string",
          "name": "email",
          "type": "string"
        },
        {
          "internalType": "string",
          "name": "github",
          "type": "string"
        },
        {
          "internalType": "string",
          "name": "linkedin",
          "type": "string"
        },
        {
          "internalType": "string",
          "name": "password",
          "type": "string"
        }
      ],
      "stateMutability": "view",
      "type": "function"
    },
    {
      "inputs": [
        {
          "internalType": "address",
          "name": "_studentOwner",
          "type": "address"
        },
        {
          "internalType": "string",
          "name": "_password",
          "type": "string"
        }
      ],
      "name": "checkSV",
      "outputs": [
        {
          "internalType": "uint256",
          "name": "x",
          "type": "uint256"
        }
      ],
      "stateMutability": "view",
      "type": "function"
    },
    {
      "inputs": [
        {
          "internalType": "address",
          "name": "_studentOwner",
          "type": "address"
        },
        {
          "internalType": "string",
          "name": "_title",
          "type": "string"
        },
        {
          "internalType": "uint256",
          "name": "_level",
          "type": "uint256"
        }
      ],
      "name": "addSkill",
      "outputs": [],
      "stateMutability": "nonpayable",
      "type": "function"
    },
    {
      "inputs": [
        {
          "internalType": "address",
          "name": "_studentOwner",
          "type": "address"
        },
        {
          "internalType": "string",
          "name": "_title",
          "type": "string"
        }
      ],
      "name": "checkSkill",
      "outputs": [
        {
          "internalType": "uint256",
          "name": "x",
          "type": "uint256"
        }
      ],
      "stateMutability": "view",
      "type": "function"
    },
    {
      "inputs": [
        {
          "internalType": "address",
          "name": "_studentOwner",
          "type": "address"
        }
      ],
      "name": "checkNumSkill",
      "outputs": [
        {
          "internalType": "uint256",
          "name": "x",
          "type": "uint256"
        }
      ],
      "stateMutability": "view",
      "type": "function"
    },
    {
      "inputs": [
        {
          "internalType": "address",
          "name": "_studentOwner",
          "type": "address"
        }
      ],
      "name": "getSkill",
      "outputs": [
        {
          "internalType": "string[]",
          "name": "",
          "type": "string[]"
        },
        {
          "internalType": "uint256[]",
          "name": "",
          "type": "uint256[]"
        }
      ],
      "stateMutability": "view",
      "type": "function"
    }
  ],
  "bytecode": "0x608060405234801561001057600080fd5b50612b6d806100206000396000f3fe608060405234801561001057600080fd5b506004361061009e5760003560e01c8063716b5ab411610066578063716b5ab41461018f5780638e891393146101bf5780639fea8e10146101ef578063ac4b20491461020b578063d64b69131461023c5761009e565b80630f53a470146100a3578063174ceeab146100da5780633aff2cc51461010a57806360ccb2041461013c5780636704710714610158575b600080fd5b6100bd60048036038101906100b89190611f79565b610261565b6040516100d198979695949392919061204e565b60405180910390f35b6100f460048036038101906100ef9190612232565b61084a565b60405161010191906122a7565b60405180910390f35b610124600480360381019061011f91906122ee565b610948565b6040516101339392919061231b565b60405180910390f35b61015660048036038101906101519190612359565b610a2a565b005b610172600480360381019061016d91906122ee565b610b4c565b60405161018698979695949392919061204e565b60405180910390f35b6101a960048036038101906101a49190612232565b610f7c565b6040516101b691906122a7565b60405180910390f35b6101d960048036038101906101d49190611f79565b61107a565b6040516101e691906122a7565b60405180910390f35b610209600480360381019061020491906123c8565b611137565b005b61022560048036038101906102209190611f79565b6112d0565b60405161023392919061270c565b60405180910390f35b610244611538565b604051610258989796959493929190612801565b60405180910390f35b6000606080606080606080606060005b60008054905081101561083d578973ffffffffffffffffffffffffffffffffffffffff16600082815481106102a9576102a86128b7565b5b906000526020600020906008020160000160009054906101000a900473ffffffffffffffffffffffffffffffffffffffff1673ffffffffffffffffffffffffffffffffffffffff16141561082a576000818154811061030b5761030a6128b7565b5b906000526020600020906008020160000160009054906101000a900473ffffffffffffffffffffffffffffffffffffffff1660008281548110610351576103506128b7565b5b906000526020600020906008020160010160008381548110610376576103756128b7565b5b90600052602060002090600802016002016000848154811061039b5761039a6128b7565b5b9060005260206000209060080201600301600085815481106103c0576103bf6128b7565b5b9060005260206000209060080201600401600086815481106103e5576103e46128b7565b5b90600052602060002090600802016005016000878154811061040a576104096128b7565b5b90600052602060002090600802016006016000888154811061042f5761042e6128b7565b5b906000526020600020906008020160070186805461044c90612915565b80601f016020809104026020016040519081016040528092919081815260200182805461047890612915565b80156104c55780601f1061049a576101008083540402835291602001916104c5565b820191906000526020600020905b8154815290600101906020018083116104a857829003601f168201915b505050505096508580546104d890612915565b80601f016020809104026020016040519081016040528092919081815260200182805461050490612915565b80156105515780601f1061052657610100808354040283529160200191610551565b820191906000526020600020905b81548152906001019060200180831161053457829003601f168201915b5050505050955084805461056490612915565b80601f016020809104026020016040519081016040528092919081815260200182805461059090612915565b80156105dd5780601f106105b2576101008083540402835291602001916105dd565b820191906000526020600020905b8154815290600101906020018083116105c057829003601f168201915b505050505094508380546105f090612915565b80601f016020809104026020016040519081016040528092919081815260200182805461061c90612915565b80156106695780601f1061063e57610100808354040283529160200191610669565b820191906000526020600020905b81548152906001019060200180831161064c57829003601f168201915b5050505050935082805461067c90612915565b80601f01602080910402602001604051908101604052809291908181526020018280546106a890612915565b80156106f55780601f106106ca576101008083540402835291602001916106f5565b820191906000526020600020905b8154815290600101906020018083116106d857829003601f168201915b5050505050925081805461070890612915565b80601f016020809104026020016040519081016040528092919081815260200182805461073490612915565b80156107815780601f1061075657610100808354040283529160200191610781565b820191906000526020600020905b81548152906001019060200180831161076457829003601f168201915b5050505050915080805461079490612915565b80601f01602080910402602001604051908101604052809291908181526020018280546107c090612915565b801561080d5780601f106107e25761010080835404028352916020019161080d565b820191906000526020600020905b8154815290600101906020018083116107f057829003601f168201915b50505050509050985098509850985098509850985098505061083f565b808061083590612976565b915050610271565b505b919395975091939597565b600080600090505b600080549050811015610940578373ffffffffffffffffffffffffffffffffffffffff166000828154811061088a576108896128b7565b5b906000526020600020906008020160000160009054906101000a900473ffffffffffffffffffffffffffffffffffffffff1673ffffffffffffffffffffffffffffffffffffffff1614801561091e57508280519060200120600082815481106108f6576108f56128b7565b5b90600052602060002090600802016007016040516109149190612a5e565b6040518091039020145b1561092d576001915050610942565b808061093890612976565b915050610852565b505b92915050565b6001818154811061095857600080fd5b90600052602060002090600302016000915090508060000160009054906101000a900473ffffffffffffffffffffffffffffffffffffffff16908060010180546109a190612915565b80601f01602080910402602001604051908101604052809291908181526020018280546109cd90612915565b8015610a1a5780601f106109ef57610100808354040283529160200191610a1a565b820191906000526020600020905b8154815290600101906020018083116109fd57829003601f168201915b5050505050908060020154905083565b60008110158015610a3c575060648111155b610a7b576040517f08c379a0000000000000000000000000000000000000000000000000000000008152600401610a7290612ac1565b60405180910390fd5b600160405180606001604052808573ffffffffffffffffffffffffffffffffffffffff16815260200184815260200183815250908060018154018082558091505060019003906000526020600020906003020160009091909190915060008201518160000160006101000a81548173ffffffffffffffffffffffffffffffffffffffff021916908373ffffffffffffffffffffffffffffffffffffffff1602179055506020820151816001019080519060200190610b3a929190611e64565b50604082015181600201555050505050565b60008181548110610b5c57600080fd5b90600052602060002090600802016000915090508060000160009054906101000a900473ffffffffffffffffffffffffffffffffffffffff1690806001018054610ba590612915565b80601f0160208091040260200160405190810160405280929190818152602001828054610bd190612915565b8015610c1e5780601f10610bf357610100808354040283529160200191610c1e565b820191906000526020600020905b815481529060010190602001808311610c0157829003601f168201915b505050505090806002018054610c3390612915565b80601f0160208091040260200160405190810160405280929190818152602001828054610c5f90612915565b8015610cac5780601f10610c8157610100808354040283529160200191610cac565b820191906000526020600020905b815481529060010190602001808311610c8f57829003601f168201915b505050505090806003018054610cc190612915565b80601f0160208091040260200160405190810160405280929190818152602001828054610ced90612915565b8015610d3a5780601f10610d0f57610100808354040283529160200191610d3a565b820191906000526020600020905b815481529060010190602001808311610d1d57829003601f168201915b505050505090806004018054610d4f90612915565b80601f0160208091040260200160405190810160405280929190818152602001828054610d7b90612915565b8015610dc85780601f10610d9d57610100808354040283529160200191610dc8565b820191906000526020600020905b815481529060010190602001808311610dab57829003601f168201915b505050505090806005018054610ddd90612915565b80601f0160208091040260200160405190810160405280929190818152602001828054610e0990612915565b8015610e565780601f10610e2b57610100808354040283529160200191610e56565b820191906000526020600020905b815481529060010190602001808311610e3957829003601f168201915b505050505090806006018054610e6b90612915565b80601f0160208091040260200160405190810160405280929190818152602001828054610e9790612915565b8015610ee45780601f10610eb957610100808354040283529160200191610ee4565b820191906000526020600020905b815481529060010190602001808311610ec757829003601f168201915b505050505090806007018054610ef990612915565b80601f0160208091040260200160405190810160405280929190818152602001828054610f2590612915565b8015610f725780601f10610f4757610100808354040283529160200191610f72565b820191906000526020600020905b815481529060010190602001808311610f5557829003601f168201915b5050505050905088565b600080600090505b600180549050811015611072578373ffffffffffffffffffffffffffffffffffffffff1660018281548110610fbc57610fbb6128b7565b5b906000526020600020906003020160000160009054906101000a900473ffffffffffffffffffffffffffffffffffffffff1673ffffffffffffffffffffffffffffffffffffffff161480156110505750828051906020012060018281548110611028576110276128b7565b5b90600052602060002090600302016001016040516110469190612a5e565b6040518091039020145b1561105f576001915050611074565b808061106a90612976565b915050610f84565b505b92915050565b6000806000905060005b60018054905081101561112d578373ffffffffffffffffffffffffffffffffffffffff16600182815481106110bc576110bb6128b7565b5b906000526020600020906003020160000160009054906101000a900473ffffffffffffffffffffffffffffffffffffffff1673ffffffffffffffffffffffffffffffffffffffff16141561111a576001826111179190612ae1565b91505b808061112590612976565b915050611084565b5080915050919050565b60006040518061010001604052808a73ffffffffffffffffffffffffffffffffffffffff16815260200189815260200188815260200187815260200186815260200185815260200184815260200183815250908060018154018082558091505060019003906000526020600020906008020160009091909190915060008201518160000160006101000a81548173ffffffffffffffffffffffffffffffffffffffff021916908373ffffffffffffffffffffffffffffffffffffffff1602179055506020820151816001019080519060200190611215929190611e64565b506040820151816002019080519060200190611232929190611e64565b50606082015181600301908051906020019061124f929190611e64565b50608082015181600401908051906020019061126c929190611e64565b5060a0820151816005019080519060200190611289929190611e64565b5060c08201518160060190805190602001906112a6929190611e64565b5060e08201518160070190805190602001906112c3929190611e64565b5050505050505050505050565b606080600060018054905067ffffffffffffffff8111156112f4576112f3612107565b5b60405190808252806020026020018201604052801561132757816020015b60608152602001906001900390816113125790505b509050600060018054905067ffffffffffffffff81111561134b5761134a612107565b5b6040519080825280602002602001820160405280156113795781602001602082028036833780820191505090505b50905060005b60018054905081101561152a578573ffffffffffffffffffffffffffffffffffffffff16600182815481106113b7576113b66128b7565b5b906000526020600020906003020160000160009054906101000a900473ffffffffffffffffffffffffffffffffffffffff1673ffffffffffffffffffffffffffffffffffffffff1614156115175760018181548110611419576114186128b7565b5b9060005260206000209060030201600101805461143590612915565b80601f016020809104026020016040519081016040528092919081815260200182805461146190612915565b80156114ae5780601f10611483576101008083540402835291602001916114ae565b820191906000526020600020905b81548152906001019060200180831161149157829003601f168201915b50505050508382815181106114c6576114c56128b7565b5b6020026020010181905250600181815481106114e5576114e46128b7565b5b90600052602060002090600302016002015482828151811061150a576115096128b7565b5b6020026020010181815250505b808061152290612976565b91505061137f565b508181935093505050915091565b6060806060806060806060806000808054905067ffffffffffffffff81111561156457611563612107565b5b6040519080825280602002602001820160405280156115925781602001602082028036833780820191505090505b5090506000808054905067ffffffffffffffff8111156115b5576115b4612107565b5b6040519080825280602002602001820160405280156115e857816020015b60608152602001906001900390816115d35790505b5090506000808054905067ffffffffffffffff81111561160b5761160a612107565b5b60405190808252806020026020018201604052801561163e57816020015b60608152602001906001900390816116295790505b5090506000808054905067ffffffffffffffff81111561166157611660612107565b5b60405190808252806020026020018201604052801561169457816020015b606081526020019060019003908161167f5790505b5090506000808054905067ffffffffffffffff8111156116b7576116b6612107565b5b6040519080825280602002602001820160405280156116ea57816020015b60608152602001906001900390816116d55790505b5090506000808054905067ffffffffffffffff81111561170d5761170c612107565b5b60405190808252806020026020018201604052801561174057816020015b606081526020019060019003908161172b5790505b5090506000808054905067ffffffffffffffff81111561176357611762612107565b5b60405190808252806020026020018201604052801561179657816020015b60608152602001906001900390816117815790505b5090506000808054905067ffffffffffffffff8111156117b9576117b8612107565b5b6040519080825280602002602001820160405280156117ec57816020015b60608152602001906001900390816117d75790505b50905060005b600080549050811015611e395760008181548110611813576118126128b7565b5b906000526020600020906008020160000160009054906101000a900473ffffffffffffffffffffffffffffffffffffffff16898281518110611858576118576128b7565b5b602002602001019073ffffffffffffffffffffffffffffffffffffffff16908173ffffffffffffffffffffffffffffffffffffffff1681525050600081815481106118a6576118a56128b7565b5b906000526020600020906008020160010180546118c290612915565b80601f01602080910402602001604051908101604052809291908181526020018280546118ee90612915565b801561193b5780601f106119105761010080835404028352916020019161193b565b820191906000526020600020905b81548152906001019060200180831161191e57829003601f168201915b5050505050888281518110611953576119526128b7565b5b602002602001018190525060008181548110611972576119716128b7565b5b9060005260206000209060080201600201805461198e90612915565b80601f01602080910402602001604051908101604052809291908181526020018280546119ba90612915565b8015611a075780601f106119dc57610100808354040283529160200191611a07565b820191906000526020600020905b8154815290600101906020018083116119ea57829003601f168201915b5050505050878281518110611a1f57611a1e6128b7565b5b602002602001018190525060008181548110611a3e57611a3d6128b7565b5b90600052602060002090600802016003018054611a5a90612915565b80601f0160208091040260200160405190810160405280929190818152602001828054611a8690612915565b8015611ad35780601f10611aa857610100808354040283529160200191611ad3565b820191906000526020600020905b815481529060010190602001808311611ab657829003601f168201915b5050505050868281518110611aeb57611aea6128b7565b5b602002602001018190525060008181548110611b0a57611b096128b7565b5b90600052602060002090600802016004018054611b2690612915565b80601f0160208091040260200160405190810160405280929190818152602001828054611b5290612915565b8015611b9f5780601f10611b7457610100808354040283529160200191611b9f565b820191906000526020600020905b815481529060010190602001808311611b8257829003601f168201915b5050505050858281518110611bb757611bb66128b7565b5b602002602001018190525060008181548110611bd657611bd56128b7565b5b90600052602060002090600802016005018054611bf290612915565b80601f0160208091040260200160405190810160405280929190818152602001828054611c1e90612915565b8015611c6b5780601f10611c4057610100808354040283529160200191611c6b565b820191906000526020600020905b815481529060010190602001808311611c4e57829003601f168201915b5050505050848281518110611c8357611c826128b7565b5b602002602001018190525060008181548110611ca257611ca16128b7565b5b90600052602060002090600802016006018054611cbe90612915565b80601f0160208091040260200160405190810160405280929190818152602001828054611cea90612915565b8015611d375780601f10611d0c57610100808354040283529160200191611d37565b820191906000526020600020905b815481529060010190602001808311611d1a57829003601f168201915b5050505050838281518110611d4f57611d4e6128b7565b5b602002602001018190525060008181548110611d6e57611d6d6128b7565b5b90600052602060002090600802016007018054611d8a90612915565b80601f0160208091040260200160405190810160405280929190818152602001828054611db690612915565b8015611e035780601f10611dd857610100808354040283529160200191611e03565b820191906000526020600020905b815481529060010190602001808311611de657829003601f168201915b5050505050828281518110611e1b57611e1a6128b7565b5b60200260200101819052508080611e3190612976565b9150506117f2565b5087878787878787879f509f509f509f509f509f509f509f5050505050505050509091929394959697565b828054611e7090612915565b90600052602060002090601f016020900481019282611e925760008555611ed9565b82601f10611eab57805160ff1916838001178555611ed9565b82800160010185558215611ed9579182015b82811115611ed8578251825591602001919060010190611ebd565b5b509050611ee69190611eea565b5090565b5b80821115611f03576000816000905550600101611eeb565b5090565b6000604051905090565b600080fd5b600080fd5b600073ffffffffffffffffffffffffffffffffffffffff82169050919050565b6000611f4682611f1b565b9050919050565b611f5681611f3b565b8114611f6157600080fd5b50565b600081359050611f7381611f4d565b92915050565b600060208284031215611f8f57611f8e611f11565b5b6000611f9d84828501611f64565b91505092915050565b611faf81611f3b565b82525050565b600081519050919050565b600082825260208201905092915050565b60005b83811015611fef578082015181840152602081019050611fd4565b83811115611ffe576000848401525b50505050565b6000601f19601f8301169050919050565b600061202082611fb5565b61202a8185611fc0565b935061203a818560208601611fd1565b61204381612004565b840191505092915050565b600061010082019050612064600083018b611fa6565b8181036020830152612076818a612015565b9050818103604083015261208a8189612015565b9050818103606083015261209e8188612015565b905081810360808301526120b28187612015565b905081810360a08301526120c68186612015565b905081810360c08301526120da8185612015565b905081810360e08301526120ee8184612015565b90509998505050505050505050565b600080fd5b600080fd5b7f4e487b7100000000000000000000000000000000000000000000000000000000600052604160045260246000fd5b61213f82612004565b810181811067ffffffffffffffff8211171561215e5761215d612107565b5b80604052505050565b6000612171611f07565b905061217d8282612136565b919050565b600067ffffffffffffffff82111561219d5761219c612107565b5b6121a682612004565b9050602081019050919050565b82818337600083830152505050565b60006121d56121d084612182565b612167565b9050828152602081018484840111156121f1576121f0612102565b5b6121fc8482856121b3565b509392505050565b600082601f830112612219576122186120fd565b5b81356122298482602086016121c2565b91505092915050565b6000806040838503121561224957612248611f11565b5b600061225785828601611f64565b925050602083013567ffffffffffffffff81111561227857612277611f16565b5b61228485828601612204565b9150509250929050565b6000819050919050565b6122a18161228e565b82525050565b60006020820190506122bc6000830184612298565b92915050565b6122cb8161228e565b81146122d657600080fd5b50565b6000813590506122e8816122c2565b92915050565b60006020828403121561230457612303611f11565b5b6000612312848285016122d9565b91505092915050565b60006060820190506123306000830186611fa6565b81810360208301526123428185612015565b90506123516040830184612298565b949350505050565b60008060006060848603121561237257612371611f11565b5b600061238086828701611f64565b935050602084013567ffffffffffffffff8111156123a1576123a0611f16565b5b6123ad86828701612204565b92505060406123be868287016122d9565b9150509250925092565b600080600080600080600080610100898b0312156123e9576123e8611f11565b5b60006123f78b828c01611f64565b985050602089013567ffffffffffffffff81111561241857612417611f16565b5b6124248b828c01612204565b975050604089013567ffffffffffffffff81111561244557612444611f16565b5b6124518b828c01612204565b965050606089013567ffffffffffffffff81111561247257612471611f16565b5b61247e8b828c01612204565b955050608089013567ffffffffffffffff81111561249f5761249e611f16565b5b6124ab8b828c01612204565b94505060a089013567ffffffffffffffff8111156124cc576124cb611f16565b5b6124d88b828c01612204565b93505060c089013567ffffffffffffffff8111156124f9576124f8611f16565b5b6125058b828c01612204565b92505060e089013567ffffffffffffffff81111561252657612525611f16565b5b6125328b828c01612204565b9150509295985092959890939650565b600081519050919050565b600082825260208201905092915050565b6000819050602082019050919050565b600082825260208201905092915050565b600061258a82611fb5565b612594818561256e565b93506125a4818560208601611fd1565b6125ad81612004565b840191505092915050565b60006125c4838361257f565b905092915050565b6000602082019050919050565b60006125e482612542565b6125ee818561254d565b9350836020820285016126008561255e565b8060005b8581101561263c578484038952815161261d85826125b8565b9450612628836125cc565b925060208a01995050600181019050612604565b50829750879550505050505092915050565b600081519050919050565b600082825260208201905092915050565b6000819050602082019050919050565b6126838161228e565b82525050565b6000612695838361267a565b60208301905092915050565b6000602082019050919050565b60006126b98261264e565b6126c38185612659565b93506126ce8361266a565b8060005b838110156126ff5781516126e68882612689565b97506126f1836126a1565b9250506001810190506126d2565b5085935050505092915050565b6000604082019050818103600083015261272681856125d9565b9050818103602083015261273a81846126ae565b90509392505050565b600081519050919050565b600082825260208201905092915050565b6000819050602082019050919050565b61277881611f3b565b82525050565b600061278a838361276f565b60208301905092915050565b6000602082019050919050565b60006127ae82612743565b6127b8818561274e565b93506127c38361275f565b8060005b838110156127f45781516127db888261277e565b97506127e683612796565b9250506001810190506127c7565b5085935050505092915050565b600061010082019050818103600083015261281c818b6127a3565b90508181036020830152612830818a6125d9565b9050818103604083015261284481896125d9565b9050818103606083015261285881886125d9565b9050818103608083015261286c81876125d9565b905081810360a083015261288081866125d9565b905081810360c083015261289481856125d9565b905081810360e08301526128a881846125d9565b90509998505050505050505050565b7f4e487b7100000000000000000000000000000000000000000000000000000000600052603260045260246000fd5b7f4e487b7100000000000000000000000000000000000000000000000000000000600052602260045260246000fd5b6000600282049050600182168061292d57607f821691505b60208210811415612941576129406128e6565b5b50919050565b7f4e487b7100000000000000000000000000000000000000000000000000000000600052601160045260246000fd5b60006129818261228e565b91507fffffffffffffffffffffffffffffffffffffffffffffffffffffffffffffffff8214156129b4576129b3612947565b5b600182019050919050565b600081905092915050565b60008190508160005260206000209050919050565b600081546129ec81612915565b6129f681866129bf565b94506001821660008114612a115760018114612a2257612a55565b60ff19831686528186019350612a55565b612a2b856129ca565b60005b83811015612a4d57815481890152600182019150602081019050612a2e565b838801955050505b50505092915050565b6000612a6a82846129df565b915081905092915050565b7f4c6576656c206f6620736b696c6c20696e636f72726563742e00000000000000600082015250565b6000612aab601983611fc0565b9150612ab682612a75565b602082019050919050565b60006020820190508181036000830152612ada81612a9e565b9050919050565b6000612aec8261228e565b9150612af78361228e565b9250827fffffffffffffffffffffffffffffffffffffffffffffffffffffffffffffffff03821115612b2c57612b2b612947565b5b82820190509291505056fea26469706673582212202a5c69314d28337ffc89a568693df105e873f5dce80180a6eea1dfa0d97a579d64736f6c634300080b0033",
  "immutableReferences": {},
  "source": "// SPDX-License-Identifier: MIT\r\npragma solidity >=0.4.22 <0.9.0;\r\n\r\n// Lu tr danh sch sinh vin\r\ncontract ListStudent {\r\n\r\n    // Khai bo cu trc lu tr thng tin sinh vin\r\n    struct ListSV {\r\n        address studentOwner;\r\n        string name; \r\n        string birthDay; \r\n        string professionalTitle;\r\n        string email;\r\n        string github; \r\n        string linkedin;\r\n        string password;\r\n    }\r\n\r\n    // Khai bo cu trc lu tr thng tin k nng ca sinh vin\r\n    struct ListSkill {\r\n        address studentOwner;\r\n        string title; \r\n        uint level;\r\n    }\r\n\r\n    // Khai bo cc mng  lu tr thng tin\r\n    ListSV[] public listSVs;\r\n    ListSkill[] public listSkills;\r\n\r\n    // Chc nng thm thng tin sinh vin\r\n    function addSV (\r\n        address _studentOwner,\r\n        string memory _name,\r\n        string memory _birthDay,\r\n        string memory _professionalTitle,\r\n        string memory _email,\r\n        string memory _github,\r\n        string memory _linked,\r\n        string memory _password) public {\r\n            listSVs.push(\r\n                ListSV(_studentOwner, \r\n                        _name, \r\n                        _birthDay, \r\n                        _professionalTitle, \r\n                        _email, \r\n                        _github, \r\n                        _linked, \r\n                        _password)\r\n                );\r\n    }\r\n\r\n    // Chc nng ly danh sch sinh vin  thm\r\n    function getListSV() public view returns(\r\n        address[] memory, \r\n        string[] memory, \r\n        string[] memory, \r\n        string[] memory, \r\n        string[] memory, \r\n        string[] memory, \r\n        string[] memory, \r\n        string[] memory) {\r\n            address[] memory studentOwners = new address[](listSVs.length);\r\n            string[] memory names = new string[](listSVs.length);\r\n            string[] memory birthDays = new string[](listSVs.length);\r\n            string[] memory professionalTitles = new string[](listSVs.length);\r\n            string[] memory emails = new string[](listSVs.length);\r\n            string[] memory githubs = new string[](listSVs.length);\r\n            string[] memory linkedins = new string[](listSVs.length);\r\n            string[] memory passwords = new string[](listSVs.length);\r\n            for(uint i=0; i<listSVs.length;i++){\r\n                studentOwners[i] = listSVs[i].studentOwner;\r\n                names[i] = listSVs[i].name;\r\n                birthDays[i] = listSVs[i].birthDay;\r\n                professionalTitles[i] = listSVs[i].professionalTitle;\r\n                emails[i] = listSVs[i].email;\r\n                githubs[i] = listSVs[i].github;\r\n                linkedins[i] = listSVs[i].linkedin;\r\n                passwords[i] = listSVs[i].password;\r\n            }\r\n            return (studentOwners, names, birthDays, professionalTitles, emails, githubs, linkedins, passwords);\r\n    }\r\n\r\n    // Chc nng ly thng tin ca sinh vin\r\n    function getProfile(address _studentOwner) public view returns(\r\n        address studentOwner, \r\n        string memory name, \r\n        string memory birthDay, \r\n        string memory professionalTitle, \r\n        string memory email, \r\n        string memory github, \r\n        string memory linkedin,\r\n        string memory password) {\r\n            for(uint i=0; i<listSVs.length;i++){\r\n                if(listSVs[i].studentOwner == _studentOwner){\r\n                    return (listSVs[i].studentOwner,\r\n                            listSVs[i].name, \r\n                            listSVs[i].birthDay, \r\n                            listSVs[i].professionalTitle, \r\n                            listSVs[i].email, \r\n                            listSVs[i].github, \r\n                            listSVs[i].linkedin,\r\n                            listSVs[i].password);\r\n                }\r\n            }\r\n    }\r\n\r\n    // Chc nng kim tra sinh vin  ng k hay cha?\r\n    function checkSV(\r\n        address _studentOwner, \r\n        string memory _password) public view returns(uint x) {\r\n            for(uint i=0; i<listSVs.length; i++){\r\n                if((listSVs[i].studentOwner == _studentOwner) && (keccak256(bytes(listSVs[i].password)) == keccak256(bytes(_password)))){\r\n                    return 1;\r\n                }\r\n            }\r\n    }\r\n\r\n    // Chc nng thm thng tin k nng ca sinh vin\r\n    function addSkill(\r\n        address _studentOwner,\r\n        string memory _title, \r\n        uint _level) public {\r\n            require(_level >=0 && _level <=100, \"Level of skill incorrect.\"); //Mc  ca k nng c tnh theo thang im t 0 n 100\r\n            listSkills.push(ListSkill(_studentOwner, _title, _level));\r\n    }\r\n\r\n    // Chc nng kim tra sinh vin  thm k nng  hay cha?\r\n    function checkSkill(\r\n        address _studentOwner, \r\n        string memory _title) public view returns(uint x) {\r\n            for(uint i=0; i<listSkills.length; i++){\r\n                if((listSkills[i].studentOwner == _studentOwner) && (keccak256(bytes(listSkills[i].title)) == keccak256(bytes(_title)))){\r\n                    return 1;\r\n                }\r\n            }\r\n    }\r\n\r\n    // Chc nng m s lng k nng ca sinh vin\r\n    function checkNumSkill(\r\n        address _studentOwner) public view returns(uint x) {\r\n            uint _count = 0;\r\n            for(uint i=0; i<listSkills.length; i++){\r\n                if(listSkills[i].studentOwner == _studentOwner){\r\n                    _count += 1;\r\n                }\r\n            }\r\n            return _count;\r\n    }\r\n\r\n    // Chc nng ly thng tin k nng ca sinh vin\r\n    function getSkill(address _studentOwner) public view returns(\r\n        string[] memory,\r\n        uint[] memory) {\r\n            string[] memory titles = new string[](listSkills.length);\r\n            uint[] memory levels = new uint[](listSkills.length);\r\n            for(uint i=0; i<listSkills.length;i++){\r\n                if(listSkills[i].studentOwner == _studentOwner) {\r\n                    titles[i] = listSkills[i].title;\r\n                    levels[i] = listSkills[i].level;\r\n                }\r\n            }\r\n            return (titles, levels);\r\n    }\r\n    \r\n}",
  "sourcePath": "C:\\Users\\19520\\Documents\\NCKH_Blockchain\\SolidityProgramming\\ProjectResearch\\SmartCV\\SmartContract\\contracts\\SmartCV_ListStudent.sol",
  "compiler": {
    "name": "solc",
    "version": "0.8.11+commit.d7f03943.Emscripten.clang"
  },
  "schemaVersion": "3.4.4",
  "updatedAt": "2022-07-10T14:20:29.728Z",
  "devdoc": {
    "kind": "dev",
    "methods": {},
    "version": 1
  },
  "userdoc": {
    "kind": "user",
    "methods": {},
    "version": 1
  }
}