{
  "contractName": "ListBusiness",
  "abi": [
    {
      "inputs": [
        {
          "internalType": "uint256",
          "name": "",
          "type": "uint256"
        }
      ],
      "name": "listDNs",
      "outputs": [
        {
          "internalType": "address",
          "name": "businessOwner",
          "type": "address"
        },
        {
          "internalType": "string",
          "name": "name",
          "type": "string"
        },
        {
          "internalType": "string",
          "name": "country",
          "type": "string"
        },
        {
          "internalType": "string",
          "name": "facebook",
          "type": "string"
        },
        {
          "internalType": "string",
          "name": "website",
          "type": "string"
        },
        {
          "internalType": "string",
          "name": "linkedin",
          "type": "string"
        },
        {
          "internalType": "string",
          "name": "focusArea",
          "type": "string"
        }
      ],
      "stateMutability": "view",
      "type": "function"
    },
    {
      "inputs": [
        {
          "internalType": "address",
          "name": "_businessOwner",
          "type": "address"
        },
        {
          "internalType": "string",
          "name": "_name",
          "type": "string"
        },
        {
          "internalType": "string",
          "name": "_country",
          "type": "string"
        },
        {
          "internalType": "string",
          "name": "_facebook",
          "type": "string"
        },
        {
          "internalType": "string",
          "name": "_website",
          "type": "string"
        },
        {
          "internalType": "string",
          "name": "_linkedin",
          "type": "string"
        },
        {
          "internalType": "string",
          "name": "_focusArea",
          "type": "string"
        }
      ],
      "name": "addDN",
      "outputs": [],
      "stateMutability": "nonpayable",
      "type": "function"
    },
    {
      "inputs": [],
      "name": "getListDN",
      "outputs": [
        {
          "internalType": "address[]",
          "name": "",
          "type": "address[]"
        },
        {
          "internalType": "string[]",
          "name": "",
          "type": "string[]"
        },
        {
          "internalType": "string[]",
          "name": "",
          "type": "string[]"
        },
        {
          "internalType": "string[]",
          "name": "",
          "type": "string[]"
        },
        {
          "internalType": "string[]",
          "name": "",
          "type": "string[]"
        },
        {
          "internalType": "string[]",
          "name": "",
          "type": "string[]"
        },
        {
          "internalType": "string[]",
          "name": "",
          "type": "string[]"
        }
      ],
      "stateMutability": "view",
      "type": "function"
    },
    {
      "inputs": [
        {
          "internalType": "address",
          "name": "_businessOwner",
          "type": "address"
        }
      ],
      "name": "getProfile",
      "outputs": [
        {
          "internalType": "address",
          "name": "businessOwner",
          "type": "address"
        },
        {
          "internalType": "string",
          "name": "name",
          "type": "string"
        },
        {
          "internalType": "string",
          "name": "country",
          "type": "string"
        },
        {
          "internalType": "string",
          "name": "facebook",
          "type": "string"
        },
        {
          "internalType": "string",
          "name": "website",
          "type": "string"
        },
        {
          "internalType": "string",
          "name": "linkedin",
          "type": "string"
        },
        {
          "internalType": "string",
          "name": "focusArea",
          "type": "string"
        }
      ],
      "stateMutability": "view",
      "type": "function"
    }
  ],
  "bytecode": "0x608060405234801561001057600080fd5b50611c58806100206000396000f3fe608060405234801561001057600080fd5b506004361061004c5760003560e01c80630f53a470146100515780631ed6aeec14610087578063bf44b303146100a3578063cfafbc0c146100d9575b600080fd5b61006b60048036038101906100669190611460565b6100fd565b60405161007e9796959493929190611535565b60405180910390f35b6100a1600480360381019061009c9190611703565b610631565b005b6100bd60048036038101906100b89190611883565b6107a5565b6040516100d09796959493929190611535565b60405180910390f35b6100e1610b47565b6040516100f49796959493929190611a7a565b60405180910390f35b600060608060608060608060005b600080549050811015610624578873ffffffffffffffffffffffffffffffffffffffff166000828154811061014357610142611b1a565b5b906000526020600020906007020160000160009054906101000a900473ffffffffffffffffffffffffffffffffffffffff1673ffffffffffffffffffffffffffffffffffffffff16141561061157600081815481106101a5576101a4611b1a565b5b906000526020600020906007020160000160009054906101000a900473ffffffffffffffffffffffffffffffffffffffff16600082815481106101eb576101ea611b1a565b5b9060005260206000209060070201600101600083815481106102105761020f611b1a565b5b90600052602060002090600702016002016000848154811061023557610234611b1a565b5b90600052602060002090600702016003016000858154811061025a57610259611b1a565b5b90600052602060002090600702016004016000868154811061027f5761027e611b1a565b5b9060005260206000209060070201600501600087815481106102a4576102a3611b1a565b5b90600052602060002090600702016006018580546102c190611b78565b80601f01602080910402602001604051908101604052809291908181526020018280546102ed90611b78565b801561033a5780601f1061030f5761010080835404028352916020019161033a565b820191906000526020600020905b81548152906001019060200180831161031d57829003601f168201915b5050505050955084805461034d90611b78565b80601f016020809104026020016040519081016040528092919081815260200182805461037990611b78565b80156103c65780601f1061039b576101008083540402835291602001916103c6565b820191906000526020600020905b8154815290600101906020018083116103a957829003601f168201915b505050505094508380546103d990611b78565b80601f016020809104026020016040519081016040528092919081815260200182805461040590611b78565b80156104525780601f1061042757610100808354040283529160200191610452565b820191906000526020600020905b81548152906001019060200180831161043557829003601f168201915b5050505050935082805461046590611b78565b80601f016020809104026020016040519081016040528092919081815260200182805461049190611b78565b80156104de5780601f106104b3576101008083540402835291602001916104de565b820191906000526020600020905b8154815290600101906020018083116104c157829003601f168201915b505050505092508180546104f190611b78565b80601f016020809104026020016040519081016040528092919081815260200182805461051d90611b78565b801561056a5780601f1061053f5761010080835404028352916020019161056a565b820191906000526020600020905b81548152906001019060200180831161054d57829003601f168201915b5050505050915080805461057d90611b78565b80601f01602080910402602001604051908101604052809291908181526020018280546105a990611b78565b80156105f65780601f106105cb576101008083540402835291602001916105f6565b820191906000526020600020905b8154815290600101906020018083116105d957829003601f168201915b50505050509050975097509750975097509750975050610626565b808061061c90611bd9565b91505061010b565b505b919395979092949650565b60006040518060e001604052808973ffffffffffffffffffffffffffffffffffffffff16815260200188815260200187815260200186815260200185815260200184815260200183815250908060018154018082558091505060019003906000526020600020906007020160009091909190915060008201518160000160006101000a81548173ffffffffffffffffffffffffffffffffffffffff021916908373ffffffffffffffffffffffffffffffffffffffff160217905550602082015181600101908051906020019061070892919061134b565b50604082015181600201908051906020019061072592919061134b565b50606082015181600301908051906020019061074292919061134b565b50608082015181600401908051906020019061075f92919061134b565b5060a082015181600501908051906020019061077c92919061134b565b5060c082015181600601908051906020019061079992919061134b565b50505050505050505050565b600081815481106107b557600080fd5b90600052602060002090600702016000915090508060000160009054906101000a900473ffffffffffffffffffffffffffffffffffffffff16908060010180546107fe90611b78565b80601f016020809104026020016040519081016040528092919081815260200182805461082a90611b78565b80156108775780601f1061084c57610100808354040283529160200191610877565b820191906000526020600020905b81548152906001019060200180831161085a57829003601f168201915b50505050509080600201805461088c90611b78565b80601f01602080910402602001604051908101604052809291908181526020018280546108b890611b78565b80156109055780601f106108da57610100808354040283529160200191610905565b820191906000526020600020905b8154815290600101906020018083116108e857829003601f168201915b50505050509080600301805461091a90611b78565b80601f016020809104026020016040519081016040528092919081815260200182805461094690611b78565b80156109935780601f1061096857610100808354040283529160200191610993565b820191906000526020600020905b81548152906001019060200180831161097657829003601f168201915b5050505050908060040180546109a890611b78565b80601f01602080910402602001604051908101604052809291908181526020018280546109d490611b78565b8015610a215780601f106109f657610100808354040283529160200191610a21565b820191906000526020600020905b815481529060010190602001808311610a0457829003601f168201915b505050505090806005018054610a3690611b78565b80601f0160208091040260200160405190810160405280929190818152602001828054610a6290611b78565b8015610aaf5780601f10610a8457610100808354040283529160200191610aaf565b820191906000526020600020905b815481529060010190602001808311610a9257829003601f168201915b505050505090806006018054610ac490611b78565b80601f0160208091040260200160405190810160405280929190818152602001828054610af090611b78565b8015610b3d5780601f10610b1257610100808354040283529160200191610b3d565b820191906000526020600020905b815481529060010190602001808311610b2057829003601f168201915b5050505050905087565b60608060608060608060606000808054905067ffffffffffffffff811115610b7257610b716115d8565b5b604051908082528060200260200182016040528015610ba05781602001602082028036833780820191505090505b5090506000808054905067ffffffffffffffff811115610bc357610bc26115d8565b5b604051908082528060200260200182016040528015610bf657816020015b6060815260200190600190039081610be15790505b5090506000808054905067ffffffffffffffff811115610c1957610c186115d8565b5b604051908082528060200260200182016040528015610c4c57816020015b6060815260200190600190039081610c375790505b5090506000808054905067ffffffffffffffff811115610c6f57610c6e6115d8565b5b604051908082528060200260200182016040528015610ca257816020015b6060815260200190600190039081610c8d5790505b5090506000808054905067ffffffffffffffff811115610cc557610cc46115d8565b5b604051908082528060200260200182016040528015610cf857816020015b6060815260200190600190039081610ce35790505b5090506000808054905067ffffffffffffffff811115610d1b57610d1a6115d8565b5b604051908082528060200260200182016040528015610d4e57816020015b6060815260200190600190039081610d395790505b5090506000808054905067ffffffffffffffff811115610d7157610d706115d8565b5b604051908082528060200260200182016040528015610da457816020015b6060815260200190600190039081610d8f5790505b50905060005b6000805490508110156113255760008181548110610dcb57610dca611b1a565b5b906000526020600020906007020160000160009054906101000a900473ffffffffffffffffffffffffffffffffffffffff16888281518110610e1057610e0f611b1a565b5b602002602001019073ffffffffffffffffffffffffffffffffffffffff16908173ffffffffffffffffffffffffffffffffffffffff168152505060008181548110610e5e57610e5d611b1a565b5b90600052602060002090600702016001018054610e7a90611b78565b80601f0160208091040260200160405190810160405280929190818152602001828054610ea690611b78565b8015610ef35780601f10610ec857610100808354040283529160200191610ef3565b820191906000526020600020905b815481529060010190602001808311610ed657829003601f168201915b5050505050878281518110610f0b57610f0a611b1a565b5b602002602001018190525060008181548110610f2a57610f29611b1a565b5b90600052602060002090600702016002018054610f4690611b78565b80601f0160208091040260200160405190810160405280929190818152602001828054610f7290611b78565b8015610fbf5780601f10610f9457610100808354040283529160200191610fbf565b820191906000526020600020905b815481529060010190602001808311610fa257829003601f168201915b5050505050868281518110610fd757610fd6611b1a565b5b602002602001018190525060008181548110610ff657610ff5611b1a565b5b9060005260206000209060070201600301805461101290611b78565b80601f016020809104026020016040519081016040528092919081815260200182805461103e90611b78565b801561108b5780601f106110605761010080835404028352916020019161108b565b820191906000526020600020905b81548152906001019060200180831161106e57829003601f168201915b50505050508582815181106110a3576110a2611b1a565b5b6020026020010181905250600081815481106110c2576110c1611b1a565b5b906000526020600020906007020160040180546110de90611b78565b80601f016020809104026020016040519081016040528092919081815260200182805461110a90611b78565b80156111575780601f1061112c57610100808354040283529160200191611157565b820191906000526020600020905b81548152906001019060200180831161113a57829003601f168201915b505050505084828151811061116f5761116e611b1a565b5b60200260200101819052506000818154811061118e5761118d611b1a565b5b906000526020600020906007020160050180546111aa90611b78565b80601f01602080910402602001604051908101604052809291908181526020018280546111d690611b78565b80156112235780601f106111f857610100808354040283529160200191611223565b820191906000526020600020905b81548152906001019060200180831161120657829003601f168201915b505050505083828151811061123b5761123a611b1a565b5b60200260200101819052506000818154811061125a57611259611b1a565b5b9060005260206000209060070201600601805461127690611b78565b80601f01602080910402602001604051908101604052809291908181526020018280546112a290611b78565b80156112ef5780601f106112c4576101008083540402835291602001916112ef565b820191906000526020600020905b8154815290600101906020018083116112d257829003601f168201915b505050505082828151811061130757611306611b1a565b5b6020026020010181905250808061131d90611bd9565b915050610daa565b50868686868686869d509d509d509d509d509d509d505050505050505090919293949596565b82805461135790611b78565b90600052602060002090601f01602090048101928261137957600085556113c0565b82601f1061139257805160ff19168380011785556113c0565b828001600101855582156113c0579182015b828111156113bf5782518255916020019190600101906113a4565b5b5090506113cd91906113d1565b5090565b5b808211156113ea5760008160009055506001016113d2565b5090565b6000604051905090565b600080fd5b600080fd5b600073ffffffffffffffffffffffffffffffffffffffff82169050919050565b600061142d82611402565b9050919050565b61143d81611422565b811461144857600080fd5b50565b60008135905061145a81611434565b92915050565b600060208284031215611476576114756113f8565b5b60006114848482850161144b565b91505092915050565b61149681611422565b82525050565b600081519050919050565b600082825260208201905092915050565b60005b838110156114d65780820151818401526020810190506114bb565b838111156114e5576000848401525b50505050565b6000601f19601f8301169050919050565b60006115078261149c565b61151181856114a7565b93506115218185602086016114b8565b61152a816114eb565b840191505092915050565b600060e08201905061154a600083018a61148d565b818103602083015261155c81896114fc565b9050818103604083015261157081886114fc565b9050818103606083015261158481876114fc565b9050818103608083015261159881866114fc565b905081810360a08301526115ac81856114fc565b905081810360c08301526115c081846114fc565b905098975050505050505050565b600080fd5b600080fd5b7f4e487b7100000000000000000000000000000000000000000000000000000000600052604160045260246000fd5b611610826114eb565b810181811067ffffffffffffffff8211171561162f5761162e6115d8565b5b80604052505050565b60006116426113ee565b905061164e8282611607565b919050565b600067ffffffffffffffff82111561166e5761166d6115d8565b5b611677826114eb565b9050602081019050919050565b82818337600083830152505050565b60006116a66116a184611653565b611638565b9050828152602081018484840111156116c2576116c16115d3565b5b6116cd848285611684565b509392505050565b600082601f8301126116ea576116e96115ce565b5b81356116fa848260208601611693565b91505092915050565b600080600080600080600060e0888a031215611722576117216113f8565b5b60006117308a828b0161144b565b975050602088013567ffffffffffffffff811115611751576117506113fd565b5b61175d8a828b016116d5565b965050604088013567ffffffffffffffff81111561177e5761177d6113fd565b5b61178a8a828b016116d5565b955050606088013567ffffffffffffffff8111156117ab576117aa6113fd565b5b6117b78a828b016116d5565b945050608088013567ffffffffffffffff8111156117d8576117d76113fd565b5b6117e48a828b016116d5565b93505060a088013567ffffffffffffffff811115611805576118046113fd565b5b6118118a828b016116d5565b92505060c088013567ffffffffffffffff811115611832576118316113fd565b5b61183e8a828b016116d5565b91505092959891949750929550565b6000819050919050565b6118608161184d565b811461186b57600080fd5b50565b60008135905061187d81611857565b92915050565b600060208284031215611899576118986113f8565b5b60006118a78482850161186e565b91505092915050565b600081519050919050565b600082825260208201905092915050565b6000819050602082019050919050565b6118e581611422565b82525050565b60006118f783836118dc565b60208301905092915050565b6000602082019050919050565b600061191b826118b0565b61192581856118bb565b9350611930836118cc565b8060005b8381101561196157815161194888826118eb565b975061195383611903565b925050600181019050611934565b5085935050505092915050565b600081519050919050565b600082825260208201905092915050565b6000819050602082019050919050565b600082825260208201905092915050565b60006119b68261149c565b6119c0818561199a565b93506119d08185602086016114b8565b6119d9816114eb565b840191505092915050565b60006119f083836119ab565b905092915050565b6000602082019050919050565b6000611a108261196e565b611a1a8185611979565b935083602082028501611a2c8561198a565b8060005b85811015611a685784840389528151611a4985826119e4565b9450611a54836119f8565b925060208a01995050600181019050611a30565b50829750879550505050505092915050565b600060e0820190508181036000830152611a94818a611910565b90508181036020830152611aa88189611a05565b90508181036040830152611abc8188611a05565b90508181036060830152611ad08187611a05565b90508181036080830152611ae48186611a05565b905081810360a0830152611af88185611a05565b905081810360c0830152611b0c8184611a05565b905098975050505050505050565b7f4e487b7100000000000000000000000000000000000000000000000000000000600052603260045260246000fd5b7f4e487b7100000000000000000000000000000000000000000000000000000000600052602260045260246000fd5b60006002820490506001821680611b9057607f821691505b60208210811415611ba457611ba3611b49565b5b50919050565b7f4e487b7100000000000000000000000000000000000000000000000000000000600052601160045260246000fd5b6000611be48261184d565b91507fffffffffffffffffffffffffffffffffffffffffffffffffffffffffffffffff821415611c1757611c16611baa565b5b60018201905091905056fea264697066735822122030b136bd9acf33a4554dd9b4b19199c12fb01ef22ef072174e05a66284c10b6364736f6c634300080b0033",
  "immutableReferences": {},
  "source": "// SPDX-License-Identifier: MIT\r\npragma solidity >=0.4.22 <0.9.0;\r\n\r\n//Lu tr danh sch doanh nghip\r\ncontract ListBusiness {\r\n\r\n    struct ListDN {\r\n        address businessOwner;\r\n        string name; \r\n        string country; \r\n        string facebook;\r\n        string website;\r\n        string linkedin;\r\n        string focusArea;\r\n    }\r\n\r\n    ListDN[] public listDNs;\r\n\r\n    function addDN (\r\n        address _businessOwner,\r\n        string memory _name,\r\n        string memory _country,\r\n        string memory _facebook,\r\n        string memory _website,\r\n        string memory _linkedin,\r\n        string memory _focusArea) public {\r\n            listDNs.push(ListDN(_businessOwner, _name, _country, _facebook, _website, _linkedin, _focusArea));\r\n    }\r\n\r\n    function getListDN() public view returns(address[] memory, string[] memory, string[] memory, string[] memory, string[] memory, string[] memory, string[] memory) {\r\n        address[] memory businessOwners = new address[](listDNs.length);\r\n        string[] memory names = new string[](listDNs.length);\r\n        string[] memory countrys = new string[](listDNs.length);\r\n        string[] memory facebooks = new string[](listDNs.length);\r\n        string[] memory websites = new string[](listDNs.length);\r\n        string[] memory linkedins = new string[](listDNs.length);\r\n        string[] memory focusAreas = new string[](listDNs.length);\r\n        for(uint i=0; i<listDNs.length;i++){\r\n            businessOwners[i] = listDNs[i].businessOwner;\r\n            names[i] = listDNs[i].name;\r\n            countrys[i] = listDNs[i].country;\r\n            facebooks[i] = listDNs[i].facebook;\r\n            websites[i] = listDNs[i].website;\r\n            linkedins[i] = listDNs[i].linkedin;\r\n            focusAreas[i] = listDNs[i].focusArea;\r\n        }\r\n        return (businessOwners, names, countrys, facebooks, websites, linkedins, focusAreas);\r\n    }\r\n\r\n    function getProfile(address _businessOwner) public view returns(\r\n        address businessOwner, \r\n        string memory name, \r\n        string memory country, \r\n        string memory facebook, \r\n        string memory website, \r\n        string memory linkedin, \r\n        string memory focusArea) {\r\n            for(uint i=0; i<listDNs.length;i++){\r\n                if(listDNs[i].businessOwner == _businessOwner){\r\n                    return (listDNs[i].businessOwner,\r\n                            listDNs[i].name, \r\n                            listDNs[i].country, \r\n                            listDNs[i].facebook, \r\n                            listDNs[i].website, \r\n                            listDNs[i].linkedin, \r\n                            listDNs[i].focusArea);\r\n                }\r\n            }\r\n    }\r\n    \r\n}",
  "sourcePath": "C:\\Users\\19520\\Documents\\NCKH_Blockchain\\SolidityProgramming\\ProjectResearch\\SmartCV\\SmartContract\\contracts\\SmartCV_ListBusiness.sol",
  "compiler": {
    "name": "solc",
    "version": "0.8.11+commit.d7f03943.Emscripten.clang"
  },
  "schemaVersion": "3.4.4",
  "updatedAt": "2022-06-27T03:13:11.702Z",
  "devdoc": {
    "kind": "dev",
    "methods": {},
    "version": 1
  },
  "userdoc": {
    "kind": "user",
    "methods": {},
    "version": 1
  }
}