{
  "contractName": "ListIIG",
  "abi": [
    {
      "inputs": [
        {
          "internalType": "uint256",
          "name": "",
          "type": "uint256"
        }
      ],
      "name": "iigInfos",
      "outputs": [
        {
          "internalType": "address",
          "name": "iigOwner",
          "type": "address"
        },
        {
          "internalType": "string",
          "name": "name",
          "type": "string"
        },
        {
          "internalType": "string",
          "name": "country",
          "type": "string"
        },
        {
          "internalType": "string",
          "name": "facebook",
          "type": "string"
        },
        {
          "internalType": "string",
          "name": "website",
          "type": "string"
        },
        {
          "internalType": "string",
          "name": "linkedin",
          "type": "string"
        },
        {
          "internalType": "string",
          "name": "password",
          "type": "string"
        }
      ],
      "stateMutability": "view",
      "type": "function"
    },
    {
      "inputs": [
        {
          "internalType": "uint256",
          "name": "",
          "type": "uint256"
        }
      ],
      "name": "iigLRResults",
      "outputs": [
        {
          "internalType": "bytes4",
          "name": "codeLRResult",
          "type": "bytes4"
        },
        {
          "internalType": "address",
          "name": "iigOwner",
          "type": "address"
        },
        {
          "internalType": "address",
          "name": "studentOwner",
          "type": "address"
        },
        {
          "internalType": "string",
          "name": "testDate",
          "type": "string"
        },
        {
          "internalType": "uint256",
          "name": "shiftTest",
          "type": "uint256"
        },
        {
          "internalType": "string",
          "name": "expireDate",
          "type": "string"
        },
        {
          "internalType": "uint256",
          "name": "listeningScore",
          "type": "uint256"
        },
        {
          "internalType": "uint256",
          "name": "readingScore",
          "type": "uint256"
        },
        {
          "internalType": "uint256",
          "name": "totalScore",
          "type": "uint256"
        }
      ],
      "stateMutability": "view",
      "type": "function"
    },
    {
      "inputs": [
        {
          "internalType": "uint256",
          "name": "",
          "type": "uint256"
        }
      ],
      "name": "iigRequests",
      "outputs": [
        {
          "internalType": "bytes4",
          "name": "codeRequest",
          "type": "bytes4"
        },
        {
          "internalType": "address",
          "name": "studentOwner",
          "type": "address"
        },
        {
          "internalType": "address",
          "name": "iigOwner",
          "type": "address"
        },
        {
          "internalType": "string",
          "name": "identityCard",
          "type": "string"
        },
        {
          "internalType": "string",
          "name": "requestDate",
          "type": "string"
        },
        {
          "internalType": "string",
          "name": "statusRequest",
          "type": "string"
        }
      ],
      "stateMutability": "view",
      "type": "function"
    },
    {
      "inputs": [
        {
          "internalType": "uint256",
          "name": "",
          "type": "uint256"
        }
      ],
      "name": "iigSWResults",
      "outputs": [
        {
          "internalType": "bytes4",
          "name": "codeSWResult",
          "type": "bytes4"
        },
        {
          "internalType": "address",
          "name": "iigOwner",
          "type": "address"
        },
        {
          "internalType": "address",
          "name": "studentOwner",
          "type": "address"
        },
        {
          "internalType": "string",
          "name": "testDate",
          "type": "string"
        },
        {
          "internalType": "uint256",
          "name": "shiftTest",
          "type": "uint256"
        },
        {
          "internalType": "string",
          "name": "expireDate",
          "type": "string"
        },
        {
          "internalType": "uint256",
          "name": "speakingScore",
          "type": "uint256"
        },
        {
          "internalType": "uint256",
          "name": "writingScore",
          "type": "uint256"
        },
        {
          "internalType": "uint256",
          "name": "totalScore",
          "type": "uint256"
        }
      ],
      "stateMutability": "view",
      "type": "function"
    },
    {
      "inputs": [
        {
          "internalType": "address",
          "name": "_iigOwner",
          "type": "address"
        },
        {
          "internalType": "string",
          "name": "_name",
          "type": "string"
        },
        {
          "internalType": "string",
          "name": "_country",
          "type": "string"
        },
        {
          "internalType": "string",
          "name": "_facebook",
          "type": "string"
        },
        {
          "internalType": "string",
          "name": "_website",
          "type": "string"
        },
        {
          "internalType": "string",
          "name": "_linkedin",
          "type": "string"
        },
        {
          "internalType": "string",
          "name": "_password",
          "type": "string"
        }
      ],
      "name": "addIIG",
      "outputs": [],
      "stateMutability": "nonpayable",
      "type": "function"
    },
    {
      "inputs": [
        {
          "internalType": "address",
          "name": "_iigOwner",
          "type": "address"
        },
        {
          "internalType": "string",
          "name": "_name",
          "type": "string"
        },
        {
          "internalType": "string",
          "name": "_country",
          "type": "string"
        },
        {
          "internalType": "string",
          "name": "_facebook",
          "type": "string"
        },
        {
          "internalType": "string",
          "name": "_website",
          "type": "string"
        },
        {
          "internalType": "string",
          "name": "_linkedin",
          "type": "string"
        }
      ],
      "name": "editIIG",
      "outputs": [],
      "stateMutability": "nonpayable",
      "type": "function"
    },
    {
      "inputs": [],
      "name": "getListIIG",
      "outputs": [
        {
          "internalType": "address[]",
          "name": "",
          "type": "address[]"
        },
        {
          "internalType": "string[]",
          "name": "",
          "type": "string[]"
        },
        {
          "internalType": "string[]",
          "name": "",
          "type": "string[]"
        },
        {
          "internalType": "string[]",
          "name": "",
          "type": "string[]"
        },
        {
          "internalType": "string[]",
          "name": "",
          "type": "string[]"
        },
        {
          "internalType": "string[]",
          "name": "",
          "type": "string[]"
        },
        {
          "internalType": "string[]",
          "name": "",
          "type": "string[]"
        }
      ],
      "stateMutability": "view",
      "type": "function"
    },
    {
      "inputs": [
        {
          "internalType": "address",
          "name": "_iigOwner",
          "type": "address"
        }
      ],
      "name": "getProfile",
      "outputs": [
        {
          "internalType": "address",
          "name": "iigOwner",
          "type": "address"
        },
        {
          "internalType": "string",
          "name": "name",
          "type": "string"
        },
        {
          "internalType": "string",
          "name": "country",
          "type": "string"
        },
        {
          "internalType": "string",
          "name": "facebook",
          "type": "string"
        },
        {
          "internalType": "string",
          "name": "website",
          "type": "string"
        },
        {
          "internalType": "string",
          "name": "linkedin",
          "type": "string"
        }
      ],
      "stateMutability": "view",
      "type": "function"
    },
    {
      "inputs": [
        {
          "internalType": "address",
          "name": "_iigOwner",
          "type": "address"
        },
        {
          "internalType": "string",
          "name": "_password",
          "type": "string"
        }
      ],
      "name": "checkIIG",
      "outputs": [
        {
          "internalType": "uint256",
          "name": "x",
          "type": "uint256"
        }
      ],
      "stateMutability": "view",
      "type": "function"
    },
    {
      "inputs": [
        {
          "internalType": "address",
          "name": "_iigOwner",
          "type": "address"
        }
      ],
      "name": "checkExistIIG",
      "outputs": [
        {
          "internalType": "uint256",
          "name": "x",
          "type": "uint256"
        }
      ],
      "stateMutability": "view",
      "type": "function"
    },
    {
      "inputs": [
        {
          "internalType": "address",
          "name": "_studentOwner",
          "type": "address"
        },
        {
          "internalType": "address",
          "name": "_iigOwner",
          "type": "address"
        },
        {
          "internalType": "string",
          "name": "_identityCard",
          "type": "string"
        },
        {
          "internalType": "string",
          "name": "_requestDate",
          "type": "string"
        }
      ],
      "name": "addRequest",
      "outputs": [],
      "stateMutability": "nonpayable",
      "type": "function"
    },
    {
      "inputs": [
        {
          "internalType": "address",
          "name": "_iigOwner",
          "type": "address"
        }
      ],
      "name": "getListRequest",
      "outputs": [
        {
          "internalType": "bytes4[]",
          "name": "",
          "type": "bytes4[]"
        },
        {
          "internalType": "address[]",
          "name": "",
          "type": "address[]"
        },
        {
          "internalType": "address[]",
          "name": "",
          "type": "address[]"
        },
        {
          "internalType": "string[]",
          "name": "",
          "type": "string[]"
        },
        {
          "internalType": "string[]",
          "name": "",
          "type": "string[]"
        },
        {
          "internalType": "string[]",
          "name": "",
          "type": "string[]"
        }
      ],
      "stateMutability": "view",
      "type": "function"
    },
    {
      "inputs": [
        {
          "internalType": "address",
          "name": "_iigOwner",
          "type": "address"
        },
        {
          "internalType": "address",
          "name": "_studentOwner",
          "type": "address"
        }
      ],
      "name": "getListRequestStudent",
      "outputs": [
        {
          "internalType": "bytes4[]",
          "name": "",
          "type": "bytes4[]"
        },
        {
          "internalType": "address[]",
          "name": "",
          "type": "address[]"
        },
        {
          "internalType": "address[]",
          "name": "",
          "type": "address[]"
        },
        {
          "internalType": "string[]",
          "name": "",
          "type": "string[]"
        },
        {
          "internalType": "string[]",
          "name": "",
          "type": "string[]"
        },
        {
          "internalType": "string[]",
          "name": "",
          "type": "string[]"
        }
      ],
      "stateMutability": "view",
      "type": "function"
    },
    {
      "inputs": [
        {
          "internalType": "address",
          "name": "_studentOwner",
          "type": "address"
        },
        {
          "internalType": "address",
          "name": "_iigOwner",
          "type": "address"
        }
      ],
      "name": "checkRequest",
      "outputs": [
        {
          "internalType": "uint256",
          "name": "x",
          "type": "uint256"
        }
      ],
      "stateMutability": "view",
      "type": "function"
    },
    {
      "inputs": [
        {
          "internalType": "address",
          "name": "_studentOwner",
          "type": "address"
        },
        {
          "internalType": "address",
          "name": "_iigOwner",
          "type": "address"
        },
        {
          "internalType": "bytes4",
          "name": "_codeRequest",
          "type": "bytes4"
        },
        {
          "internalType": "string",
          "name": "_statusRequest",
          "type": "string"
        }
      ],
      "name": "confirmRequest",
      "outputs": [],
      "stateMutability": "nonpayable",
      "type": "function"
    },
    {
      "inputs": [
        {
          "internalType": "address",
          "name": "_studentOwner",
          "type": "address"
        },
        {
          "internalType": "string",
          "name": "_testDate",
          "type": "string"
        },
        {
          "internalType": "uint256",
          "name": "_shiftTest",
          "type": "uint256"
        },
        {
          "internalType": "string",
          "name": "_expireDate",
          "type": "string"
        },
        {
          "internalType": "uint256",
          "name": "_listeningScore",
          "type": "uint256"
        },
        {
          "internalType": "uint256",
          "name": "_readingScore",
          "type": "uint256"
        }
      ],
      "name": "addLRResult",
      "outputs": [],
      "stateMutability": "nonpayable",
      "type": "function"
    },
    {
      "inputs": [
        {
          "internalType": "address",
          "name": "_iigOwner",
          "type": "address"
        },
        {
          "internalType": "address",
          "name": "_studentOwner",
          "type": "address"
        }
      ],
      "name": "getListLRResult",
      "outputs": [
        {
          "internalType": "string[]",
          "name": "",
          "type": "string[]"
        },
        {
          "internalType": "uint256[]",
          "name": "",
          "type": "uint256[]"
        },
        {
          "internalType": "string[]",
          "name": "",
          "type": "string[]"
        },
        {
          "internalType": "uint256[]",
          "name": "",
          "type": "uint256[]"
        },
        {
          "internalType": "uint256[]",
          "name": "",
          "type": "uint256[]"
        },
        {
          "internalType": "uint256[]",
          "name": "",
          "type": "uint256[]"
        }
      ],
      "stateMutability": "view",
      "type": "function"
    },
    {
      "inputs": [
        {
          "internalType": "address",
          "name": "_iigOwner",
          "type": "address"
        },
        {
          "internalType": "address",
          "name": "_studentOwner",
          "type": "address"
        },
        {
          "internalType": "string",
          "name": "_testDate",
          "type": "string"
        },
        {
          "internalType": "uint256",
          "name": "_shiftTest",
          "type": "uint256"
        }
      ],
      "name": "getLRResult",
      "outputs": [
        {
          "internalType": "string",
          "name": "testDate",
          "type": "string"
        },
        {
          "internalType": "uint256",
          "name": "shiftTest",
          "type": "uint256"
        },
        {
          "internalType": "string",
          "name": "expireDate",
          "type": "string"
        },
        {
          "internalType": "uint256",
          "name": "listeningScore",
          "type": "uint256"
        },
        {
          "internalType": "uint256",
          "name": "readingScore",
          "type": "uint256"
        },
        {
          "internalType": "uint256",
          "name": "totalScore",
          "type": "uint256"
        }
      ],
      "stateMutability": "view",
      "type": "function"
    },
    {
      "inputs": [
        {
          "internalType": "address",
          "name": "_studentOwner",
          "type": "address"
        },
        {
          "internalType": "string",
          "name": "_testDate",
          "type": "string"
        },
        {
          "internalType": "uint256",
          "name": "_shiftTest",
          "type": "uint256"
        }
      ],
      "name": "checkExistLRResult",
      "outputs": [
        {
          "internalType": "uint256",
          "name": "x",
          "type": "uint256"
        }
      ],
      "stateMutability": "view",
      "type": "function"
    },
    {
      "inputs": [
        {
          "internalType": "address",
          "name": "_studentOwner",
          "type": "address"
        },
        {
          "internalType": "string",
          "name": "_testDate",
          "type": "string"
        },
        {
          "internalType": "uint256",
          "name": "_shiftTest",
          "type": "uint256"
        },
        {
          "internalType": "string",
          "name": "_expireDate",
          "type": "string"
        },
        {
          "internalType": "uint256",
          "name": "_speakingScore",
          "type": "uint256"
        },
        {
          "internalType": "uint256",
          "name": "_writingScore",
          "type": "uint256"
        }
      ],
      "name": "addSWResult",
      "outputs": [],
      "stateMutability": "nonpayable",
      "type": "function"
    },
    {
      "inputs": [
        {
          "internalType": "address",
          "name": "_iigOwner",
          "type": "address"
        },
        {
          "internalType": "address",
          "name": "_studentOwner",
          "type": "address"
        }
      ],
      "name": "getListSWResult",
      "outputs": [
        {
          "internalType": "string[]",
          "name": "",
          "type": "string[]"
        },
        {
          "internalType": "uint256[]",
          "name": "",
          "type": "uint256[]"
        },
        {
          "internalType": "string[]",
          "name": "",
          "type": "string[]"
        },
        {
          "internalType": "uint256[]",
          "name": "",
          "type": "uint256[]"
        },
        {
          "internalType": "uint256[]",
          "name": "",
          "type": "uint256[]"
        },
        {
          "internalType": "uint256[]",
          "name": "",
          "type": "uint256[]"
        }
      ],
      "stateMutability": "view",
      "type": "function"
    },
    {
      "inputs": [
        {
          "internalType": "address",
          "name": "_iigOwner",
          "type": "address"
        },
        {
          "internalType": "address",
          "name": "_studentOwner",
          "type": "address"
        },
        {
          "internalType": "string",
          "name": "_testDate",
          "type": "string"
        },
        {
          "internalType": "uint256",
          "name": "_shiftTest",
          "type": "uint256"
        }
      ],
      "name": "getSWResult",
      "outputs": [
        {
          "internalType": "string",
          "name": "testDate",
          "type": "string"
        },
        {
          "internalType": "uint256",
          "name": "shiftTest",
          "type": "uint256"
        },
        {
          "internalType": "string",
          "name": "expireDate",
          "type": "string"
        },
        {
          "internalType": "uint256",
          "name": "speakingScore",
          "type": "uint256"
        },
        {
          "internalType": "uint256",
          "name": "writingScore",
          "type": "uint256"
        },
        {
          "internalType": "uint256",
          "name": "totalScore",
          "type": "uint256"
        }
      ],
      "stateMutability": "view",
      "type": "function"
    },
    {
      "inputs": [
        {
          "internalType": "address",
          "name": "_studentOwner",
          "type": "address"
        },
        {
          "internalType": "string",
          "name": "_testDate",
          "type": "string"
        },
        {
          "internalType": "uint256",
          "name": "_shiftTest",
          "type": "uint256"
        }
      ],
      "name": "checkExistSWResult",
      "outputs": [
        {
          "internalType": "uint256",
          "name": "x",
          "type": "uint256"
        }
      ],
      "stateMutability": "view",
      "type": "function"
    }
  ],
  "bytecode": "0x608060405234801561001057600080fd5b50616ac380620000216000396000f3fe608060405234801561001057600080fd5b506004361061014d5760003560e01c806349f47a55116100c3578063a76d25791161007c578063a76d257914610452578063a9846eb014610487578063b351d176146104bf578063bc72af7d146104db578063dd8f3edc14610510578063f1857d211461052c5761014d565b806349f47a55146103595780636cf871df1461039157806380d95162146103ad57806384ae9131146103dd578063948195ed146104015780639fa7247a1461041d5761014d565b80630c3f9882116101155780630c3f98821461023e5780630f53a470146102735780631eb30d63146102a857806324e66037146102c4578063323cc7c5146102f457806344fd6e22146103295761014d565b8063018d934a146101525780630381b0131461018257806306ed1e89146101b7578063099a5165146101ec57806309bef62a14610208575b600080fd5b61016c60048036038101906101679190615336565b61055c565b604051610179919061538f565b60405180910390f35b61019c6004803603810190610197919061551c565b61070b565b6040516101ae96959493929190615627565b60405180910390f35b6101d160048036038101906101cc9190615336565b610ad0565b6040516101e396959493929190615860565b60405180910390f35b610206600480360381019061020191906158eb565b6110b7565b005b610222600480360381019061021d91906159b0565b611463565b60405161023597969594939291906159ec565b60405180910390f35b61025860048036038101906102539190615336565b611805565b60405161026a96959493929190615c2d565b60405180910390f35b61028d60048036038101906102889190615cb8565b611f61565b60405161029f96959493929190615ce5565b60405180910390f35b6102c260048036038101906102bd91906158eb565b6123df565b005b6102de60048036038101906102d99190615d69565b61278d565b6040516102eb919061538f565b60405180910390f35b61030e600480360381019061030991906159b0565b61288b565b60405161032096959493929190615dd4565b60405180910390f35b610343600480360381019061033e9190615cb8565b612abc565b604051610350919061538f565b60405180910390f35b610373600480360381019061036e91906159b0565b612b6e565b60405161038899989796959493929190615e4a565b60405180910390f35b6103ab60048036038101906103a69190615ee5565b612d29565b005b6103c760048036038101906103c29190615ffe565b612ef1565b6040516103d4919061538f565b60405180910390f35b6103e5613029565b6040516103f8979695949392919061606d565b60405180910390f35b61041b6004803603810190610416919061610d565b61382d565b005b61043760048036038101906104329190615cb8565b613a88565b60405161044996959493929190615c2d565b60405180910390f35b61046c6004803603810190610467919061551c565b614167565b60405161047e96959493929190615627565b60405180910390f35b6104a1600480360381019061049c91906159b0565b61452c565b6040516104b699989796959493929190615e4a565b60405180910390f35b6104d960048036038101906104d491906161d8565b6146e7565b005b6104f560048036038101906104f09190615336565b61498e565b60405161050796959493929190615860565b60405180910390f35b61052a6004803603810190610525919061625b565b614f75565b005b61054660048036038101906105419190615ffe565b6150e9565b604051610553919061538f565b60405180910390f35b600080600090505b600180549050811015610703578373ffffffffffffffffffffffffffffffffffffffff166001828154811061059c5761059b6163a5565b5b906000526020600020906005020160000160049054906101000a900473ffffffffffffffffffffffffffffffffffffffff1673ffffffffffffffffffffffffffffffffffffffff1614801561066157508273ffffffffffffffffffffffffffffffffffffffff1660018281548110610617576106166163a5565b5b906000526020600020906005020160010160009054906101000a900473ffffffffffffffffffffffffffffffffffffffff1673ffffffffffffffffffffffffffffffffffffffff16145b80156106e157506040518060400160405280600781526020017f57616974696e670000000000000000000000000000000000000000000000000081525080519060200120600182815481106106b9576106b86163a5565b5b90600052602060002090600502016004016040516106d791906164d4565b6040518091039020145b156106f0576001915050610705565b80806106fb9061651a565b915050610564565b505b92915050565b606060006060600080600080600090505b600280549050811015610ac1578a73ffffffffffffffffffffffffffffffffffffffff1660028281548110610754576107536163a5565b5b906000526020600020906008020160000160049054906101000a900473ffffffffffffffffffffffffffffffffffffffff1673ffffffffffffffffffffffffffffffffffffffff1614801561081957508973ffffffffffffffffffffffffffffffffffffffff16600282815481106107cf576107ce6163a5565b5b906000526020600020906008020160010160009054906101000a900473ffffffffffffffffffffffffffffffffffffffff1673ffffffffffffffffffffffffffffffffffffffff16145b801561089d575088886040516020016108339291906165c0565b604051602081830303815290604052805190602001206002828154811061085d5761085c6163a5565b5b906000526020600020906008020160000160009054906101000a900460e01b7bffffffffffffffffffffffffffffffffffffffffffffffffffffffff1916145b15610aae57600281815481106108b6576108b56163a5565b5b9060005260206000209060080201600201600282815481106108db576108da6163a5565b5b90600052602060002090600802016003015460028381548110610901576109006163a5565b5b906000526020600020906008020160040160028481548110610926576109256163a5565b5b9060005260206000209060080201600501546002858154811061094c5761094b6163a5565b5b90600052602060002090600802016006015460028681548110610972576109716163a5565b5b90600052602060002090600802016007015485805461099090616403565b80601f01602080910402602001604051908101604052809291908181526020018280546109bc90616403565b8015610a095780601f106109de57610100808354040283529160200191610a09565b820191906000526020600020905b8154815290600101906020018083116109ec57829003601f168201915b50505050509550838054610a1c90616403565b80601f0160208091040260200160405190810160405280929190818152602001828054610a4890616403565b8015610a955780601f10610a6a57610100808354040283529160200191610a95565b820191906000526020600020905b815481529060010190602001808311610a7857829003601f168201915b5050505050935096509650965096509650965050610ac3565b8080610ab99061651a565b91505061071c565b505b9499939850945094509450565b606080606080606080600060038054905067ffffffffffffffff811115610afa57610af96153c5565b5b604051908082528060200260200182016040528015610b2d57816020015b6060815260200190600190039081610b185790505b509050600060038054905067ffffffffffffffff811115610b5157610b506153c5565b5b604051908082528060200260200182016040528015610b7f5781602001602082028036833780820191505090505b509050600060038054905067ffffffffffffffff811115610ba357610ba26153c5565b5b604051908082528060200260200182016040528015610bd657816020015b6060815260200190600190039081610bc15790505b509050600060038054905067ffffffffffffffff811115610bfa57610bf96153c5565b5b604051908082528060200260200182016040528015610c285781602001602082028036833780820191505090505b509050600060038054905067ffffffffffffffff811115610c4c57610c4b6153c5565b5b604051908082528060200260200182016040528015610c7a5781602001602082028036833780820191505090505b509050600060038054905067ffffffffffffffff811115610c9e57610c9d6153c5565b5b604051908082528060200260200182016040528015610ccc5781602001602082028036833780820191505090505b50905060005b600380549050811015611094578e73ffffffffffffffffffffffffffffffffffffffff1660028281548110610d0a57610d096163a5565b5b906000526020600020906008020160000160049054906101000a900473ffffffffffffffffffffffffffffffffffffffff1673ffffffffffffffffffffffffffffffffffffffff16148015610dcf57508d73ffffffffffffffffffffffffffffffffffffffff1660028281548110610d8557610d846163a5565b5b906000526020600020906008020160010160009054906101000a900473ffffffffffffffffffffffffffffffffffffffff1673ffffffffffffffffffffffffffffffffffffffff16145b156110815760038181548110610de857610de76163a5565b5b90600052602060002090600802016002018054610e0490616403565b80601f0160208091040260200160405190810160405280929190818152602001828054610e3090616403565b8015610e7d5780601f10610e5257610100808354040283529160200191610e7d565b820191906000526020600020905b815481529060010190602001808311610e6057829003601f168201915b5050505050878281518110610e9557610e946163a5565b5b602002602001018190525060038181548110610eb457610eb36163a5565b5b906000526020600020906008020160030154868281518110610ed957610ed86163a5565b5b60200260200101818152505060038181548110610ef957610ef86163a5565b5b90600052602060002090600802016004018054610f1590616403565b80601f0160208091040260200160405190810160405280929190818152602001828054610f4190616403565b8015610f8e5780601f10610f6357610100808354040283529160200191610f8e565b820191906000526020600020905b815481529060010190602001808311610f7157829003601f168201915b5050505050858281518110610fa657610fa56163a5565b5b602002602001018190525060038181548110610fc557610fc46163a5565b5b906000526020600020906008020160050154848281518110610fea57610fe96163a5565b5b6020026020010181815250506003818154811061100a576110096163a5565b5b90600052602060002090600802016006015483828151811061102f5761102e6163a5565b5b6020026020010181815250506003818154811061104f5761104e6163a5565b5b906000526020600020906008020160070154828281518110611074576110736163a5565b5b6020026020010181815250505b808061108c9061651a565b915050610cd2565b508585858585859b509b509b509b509b509b505050505050509295509295509295565b600033905060016110c782612abc565b14611107576040517f08c379a00000000000000000000000000000000000000000000000000000000081526004016110fe90616634565b60405180910390fd5b60006111148888886150e9565b14611154576040517f08c379a000000000000000000000000000000000000000000000000000000000815260040161114b906166a0565b60405180910390fd5b60018514806111635750600285145b8061116e5750600385145b806111795750600485145b6111b8576040517f08c379a00000000000000000000000000000000000000000000000000000000081526004016111af9061670c565b60405180910390fd5b600083101580156111ca575060c88311155b611209576040517f08c379a000000000000000000000000000000000000000000000000000000000815260040161120090616778565b60405180910390fd5b6000821015801561121b575060c88211155b61125a576040517f08c379a0000000000000000000000000000000000000000000000000000000008152600401611251906167e4565b60405180910390fd5b6003604051806101200160405280888860405160200161127b9291906165c0565b604051602081830303815290604052805190602001207bffffffffffffffffffffffffffffffffffffffffffffffffffffffff191681526020018373ffffffffffffffffffffffffffffffffffffffff1681526020018973ffffffffffffffffffffffffffffffffffffffff16815260200188815260200187815260200186815260200185815260200184815260200184866113179190616804565b815250908060018154018082558091505060019003906000526020600020906008020160009091909190915060008201518160000160006101000a81548163ffffffff021916908360e01c021790555060208201518160000160046101000a81548173ffffffffffffffffffffffffffffffffffffffff021916908373ffffffffffffffffffffffffffffffffffffffff16021790555060408201518160010160006101000a81548173ffffffffffffffffffffffffffffffffffffffff021916908373ffffffffffffffffffffffffffffffffffffffff1602179055506060820151816002019080519060200190611411929190615221565b506080820151816003015560a0820151816004019080519060200190611438929190615221565b5060c0820151816005015560e082015181600601556101008201518160070155505050505050505050565b6000818154811061147357600080fd5b90600052602060002090600702016000915090508060000160009054906101000a900473ffffffffffffffffffffffffffffffffffffffff16908060010180546114bc90616403565b80601f01602080910402602001604051908101604052809291908181526020018280546114e890616403565b80156115355780601f1061150a57610100808354040283529160200191611535565b820191906000526020600020905b81548152906001019060200180831161151857829003601f168201915b50505050509080600201805461154a90616403565b80601f016020809104026020016040519081016040528092919081815260200182805461157690616403565b80156115c35780601f10611598576101008083540402835291602001916115c3565b820191906000526020600020905b8154815290600101906020018083116115a657829003601f168201915b5050505050908060030180546115d890616403565b80601f016020809104026020016040519081016040528092919081815260200182805461160490616403565b80156116515780601f1061162657610100808354040283529160200191611651565b820191906000526020600020905b81548152906001019060200180831161163457829003601f168201915b50505050509080600401805461166690616403565b80601f016020809104026020016040519081016040528092919081815260200182805461169290616403565b80156116df5780601f106116b4576101008083540402835291602001916116df565b820191906000526020600020905b8154815290600101906020018083116116c257829003601f168201915b5050505050908060050180546116f490616403565b80601f016020809104026020016040519081016040528092919081815260200182805461172090616403565b801561176d5780601f106117425761010080835404028352916020019161176d565b820191906000526020600020905b81548152906001019060200180831161175057829003601f168201915b50505050509080600601805461178290616403565b80601f01602080910402602001604051908101604052809291908181526020018280546117ae90616403565b80156117fb5780601f106117d0576101008083540402835291602001916117fb565b820191906000526020600020905b8154815290600101906020018083116117de57829003601f168201915b5050505050905087565b606080606080606080600060018054905067ffffffffffffffff81111561182f5761182e6153c5565b5b60405190808252806020026020018201604052801561185d5781602001602082028036833780820191505090505b509050600060018054905067ffffffffffffffff811115611881576118806153c5565b5b6040519080825280602002602001820160405280156118af5781602001602082028036833780820191505090505b509050600060018054905067ffffffffffffffff8111156118d3576118d26153c5565b5b6040519080825280602002602001820160405280156119015781602001602082028036833780820191505090505b509050600060018054905067ffffffffffffffff811115611925576119246153c5565b5b60405190808252806020026020018201604052801561195857816020015b60608152602001906001900390816119435790505b509050600060018054905067ffffffffffffffff81111561197c5761197b6153c5565b5b6040519080825280602002602001820160405280156119af57816020015b606081526020019060019003908161199a5790505b509050600060018054905067ffffffffffffffff8111156119d3576119d26153c5565b5b604051908082528060200260200182016040528015611a0657816020015b60608152602001906001900390816119f15790505b50905060005b600180549050811015611f3e578e73ffffffffffffffffffffffffffffffffffffffff1660018281548110611a4457611a436163a5565b5b906000526020600020906005020160010160009054906101000a900473ffffffffffffffffffffffffffffffffffffffff1673ffffffffffffffffffffffffffffffffffffffff16148015611b0957508d73ffffffffffffffffffffffffffffffffffffffff1660018281548110611abf57611abe6163a5565b5b906000526020600020906005020160000160049054906101000a900473ffffffffffffffffffffffffffffffffffffffff1673ffffffffffffffffffffffffffffffffffffffff16145b15611f2b5760018181548110611b2257611b216163a5565b5b906000526020600020906005020160000160009054906101000a900460e01b878281518110611b5457611b536163a5565b5b60200260200101907bffffffffffffffffffffffffffffffffffffffffffffffffffffffff191690817bffffffffffffffffffffffffffffffffffffffffffffffffffffffff19168152505060018181548110611bb457611bb36163a5565b5b906000526020600020906005020160000160049054906101000a900473ffffffffffffffffffffffffffffffffffffffff16868281518110611bf957611bf86163a5565b5b602002602001019073ffffffffffffffffffffffffffffffffffffffff16908173ffffffffffffffffffffffffffffffffffffffff168152505060018181548110611c4757611c466163a5565b5b906000526020600020906005020160010160009054906101000a900473ffffffffffffffffffffffffffffffffffffffff16858281518110611c8c57611c8b6163a5565b5b602002602001019073ffffffffffffffffffffffffffffffffffffffff16908173ffffffffffffffffffffffffffffffffffffffff168152505060018181548110611cda57611cd96163a5565b5b90600052602060002090600502016002018054611cf690616403565b80601f0160208091040260200160405190810160405280929190818152602001828054611d2290616403565b8015611d6f5780601f10611d4457610100808354040283529160200191611d6f565b820191906000526020600020905b815481529060010190602001808311611d5257829003601f168201915b5050505050848281518110611d8757611d866163a5565b5b602002602001018190525060018181548110611da657611da56163a5565b5b90600052602060002090600502016003018054611dc290616403565b80601f0160208091040260200160405190810160405280929190818152602001828054611dee90616403565b8015611e3b5780601f10611e1057610100808354040283529160200191611e3b565b820191906000526020600020905b815481529060010190602001808311611e1e57829003601f168201915b5050505050838281518110611e5357611e526163a5565b5b602002602001018190525060018181548110611e7257611e716163a5565b5b90600052602060002090600502016004018054611e8e90616403565b80601f0160208091040260200160405190810160405280929190818152602001828054611eba90616403565b8015611f075780601f10611edc57610100808354040283529160200191611f07565b820191906000526020600020905b815481529060010190602001808311611eea57829003601f168201915b5050505050828281518110611f1f57611f1e6163a5565b5b60200260200101819052505b8080611f369061651a565b915050611a0c565b508585858585859b509b509b509b509b509b505050505050509295509295509295565b6000606080606080606060005b6000805490508110156123d4578773ffffffffffffffffffffffffffffffffffffffff1660008281548110611fa657611fa56163a5565b5b906000526020600020906007020160000160009054906101000a900473ffffffffffffffffffffffffffffffffffffffff1673ffffffffffffffffffffffffffffffffffffffff1614156123c15760008181548110612008576120076163a5565b5b906000526020600020906007020160000160009054906101000a900473ffffffffffffffffffffffffffffffffffffffff166000828154811061204e5761204d6163a5565b5b906000526020600020906007020160010160008381548110612073576120726163a5565b5b906000526020600020906007020160020160008481548110612098576120976163a5565b5b9060005260206000209060070201600301600085815481106120bd576120bc6163a5565b5b9060005260206000209060070201600401600086815481106120e2576120e16163a5565b5b90600052602060002090600702016005018480546120ff90616403565b80601f016020809104026020016040519081016040528092919081815260200182805461212b90616403565b80156121785780601f1061214d57610100808354040283529160200191612178565b820191906000526020600020905b81548152906001019060200180831161215b57829003601f168201915b5050505050945083805461218b90616403565b80601f01602080910402602001604051908101604052809291908181526020018280546121b790616403565b80156122045780601f106121d957610100808354040283529160200191612204565b820191906000526020600020905b8154815290600101906020018083116121e757829003601f168201915b5050505050935082805461221790616403565b80601f016020809104026020016040519081016040528092919081815260200182805461224390616403565b80156122905780601f1061226557610100808354040283529160200191612290565b820191906000526020600020905b81548152906001019060200180831161227357829003601f168201915b505050505092508180546122a390616403565b80601f01602080910402602001604051908101604052809291908181526020018280546122cf90616403565b801561231c5780601f106122f15761010080835404028352916020019161231c565b820191906000526020600020905b8154815290600101906020018083116122ff57829003601f168201915b5050505050915080805461232f90616403565b80601f016020809104026020016040519081016040528092919081815260200182805461235b90616403565b80156123a85780601f1061237d576101008083540402835291602001916123a8565b820191906000526020600020905b81548152906001019060200180831161238b57829003601f168201915b50505050509050965096509650965096509650506123d6565b80806123cc9061651a565b915050611f6e565b505b91939550919395565b600033905060016123ef82612abc565b1461242f576040517f08c379a000000000000000000000000000000000000000000000000000000000815260040161242690616634565b60405180910390fd5b600061243c888888612ef1565b1461247c576040517f08c379a0000000000000000000000000000000000000000000000000000000008152600401612473906168a6565b60405180910390fd5b600185148061248b5750600285145b806124965750600385145b806124a15750600485145b6124e0576040517f08c379a00000000000000000000000000000000000000000000000000000000081526004016124d79061670c565b60405180910390fd5b600083101580156124f357506101ef8311155b612532576040517f08c379a000000000000000000000000000000000000000000000000000000000815260040161252990616912565b60405180910390fd5b6000821015801561254557506101ef8211155b612584576040517f08c379a000000000000000000000000000000000000000000000000000000000815260040161257b9061697e565b60405180910390fd5b600260405180610120016040528088886040516020016125a59291906165c0565b604051602081830303815290604052805190602001207bffffffffffffffffffffffffffffffffffffffffffffffffffffffff191681526020018373ffffffffffffffffffffffffffffffffffffffff1681526020018973ffffffffffffffffffffffffffffffffffffffff16815260200188815260200187815260200186815260200185815260200184815260200184866126419190616804565b815250908060018154018082558091505060019003906000526020600020906008020160009091909190915060008201518160000160006101000a81548163ffffffff021916908360e01c021790555060208201518160000160046101000a81548173ffffffffffffffffffffffffffffffffffffffff021916908373ffffffffffffffffffffffffffffffffffffffff16021790555060408201518160010160006101000a81548173ffffffffffffffffffffffffffffffffffffffff021916908373ffffffffffffffffffffffffffffffffffffffff160217905550606082015181600201908051906020019061273b929190615221565b506080820151816003015560a0820151816004019080519060200190612762929190615221565b5060c0820151816005015560e082015181600601556101008201518160070155505050505050505050565b600080600090505b600080549050811015612883578373ffffffffffffffffffffffffffffffffffffffff16600082815481106127cd576127cc6163a5565b5b906000526020600020906007020160000160009054906101000a900473ffffffffffffffffffffffffffffffffffffffff1673ffffffffffffffffffffffffffffffffffffffff161480156128615750828051906020012060008281548110612839576128386163a5565b5b906000526020600020906007020160060160405161285791906164d4565b6040518091039020145b15612870576001915050612885565b808061287b9061651a565b915050612795565b505b92915050565b6001818154811061289b57600080fd5b90600052602060002090600502016000915090508060000160009054906101000a900460e01b908060000160049054906101000a900473ffffffffffffffffffffffffffffffffffffffff16908060010160009054906101000a900473ffffffffffffffffffffffffffffffffffffffff169080600201805461291d90616403565b80601f016020809104026020016040519081016040528092919081815260200182805461294990616403565b80156129965780601f1061296b57610100808354040283529160200191612996565b820191906000526020600020905b81548152906001019060200180831161297957829003601f168201915b5050505050908060030180546129ab90616403565b80601f01602080910402602001604051908101604052809291908181526020018280546129d790616403565b8015612a245780601f106129f957610100808354040283529160200191612a24565b820191906000526020600020905b815481529060010190602001808311612a0757829003601f168201915b505050505090806004018054612a3990616403565b80601f0160208091040260200160405190810160405280929190818152602001828054612a6590616403565b8015612ab25780601f10612a8757610100808354040283529160200191612ab2565b820191906000526020600020905b815481529060010190602001808311612a9557829003601f168201915b5050505050905086565b600080600090505b600080549050811015612b67578273ffffffffffffffffffffffffffffffffffffffff1660008281548110612afc57612afb6163a5565b5b906000526020600020906007020160000160009054906101000a900473ffffffffffffffffffffffffffffffffffffffff1673ffffffffffffffffffffffffffffffffffffffff161415612b54576001915050612b69565b8080612b5f9061651a565b915050612ac4565b505b919050565b60038181548110612b7e57600080fd5b90600052602060002090600802016000915090508060000160009054906101000a900460e01b908060000160049054906101000a900473ffffffffffffffffffffffffffffffffffffffff16908060010160009054906101000a900473ffffffffffffffffffffffffffffffffffffffff1690806002018054612c0090616403565b80601f0160208091040260200160405190810160405280929190818152602001828054612c2c90616403565b8015612c795780601f10612c4e57610100808354040283529160200191612c79565b820191906000526020600020905b815481529060010190602001808311612c5c57829003601f168201915b505050505090806003015490806004018054612c9490616403565b80601f0160208091040260200160405190810160405280929190818152602001828054612cc090616403565b8015612d0d5780601f10612ce257610100808354040283529160200191612d0d565b820191906000526020600020905b815481529060010190602001808311612cf057829003601f168201915b5050505050908060050154908060060154908060070154905089565b60005b600080549050811015612ee8578673ffffffffffffffffffffffffffffffffffffffff1660008281548110612d6457612d636163a5565b5b906000526020600020906007020160000160009054906101000a900473ffffffffffffffffffffffffffffffffffffffff1673ffffffffffffffffffffffffffffffffffffffff161415612ed5578560008281548110612dc757612dc66163a5565b5b90600052602060002090600702016001019080519060200190612deb929190615221565b508460008281548110612e0157612e006163a5565b5b90600052602060002090600702016002019080519060200190612e25929190615221565b508360008281548110612e3b57612e3a6163a5565b5b90600052602060002090600702016003019080519060200190612e5f929190615221565b508260008281548110612e7557612e746163a5565b5b90600052602060002090600702016004019080519060200190612e99929190615221565b508160008281548110612eaf57612eae6163a5565b5b90600052602060002090600702016005019080519060200190612ed3929190615221565b505b8080612ee09061651a565b915050612d2c565b50505050505050565b600080600090505b600280549050811015613020578473ffffffffffffffffffffffffffffffffffffffff1660028281548110612f3157612f306163a5565b5b906000526020600020906008020160010160009054906101000a900473ffffffffffffffffffffffffffffffffffffffff1673ffffffffffffffffffffffffffffffffffffffff16148015612ffe57508383604051602001612f949291906165c0565b6040516020818303038152906040528051906020012060028281548110612fbe57612fbd6163a5565b5b906000526020600020906008020160000160009054906101000a900460e01b7bffffffffffffffffffffffffffffffffffffffffffffffffffffffff1916145b1561300d576001915050613022565b80806130189061651a565b915050612ef9565b505b9392505050565b60608060608060608060606000808054905067ffffffffffffffff811115613054576130536153c5565b5b6040519080825280602002602001820160405280156130825781602001602082028036833780820191505090505b5090506000808054905067ffffffffffffffff8111156130a5576130a46153c5565b5b6040519080825280602002602001820160405280156130d857816020015b60608152602001906001900390816130c35790505b5090506000808054905067ffffffffffffffff8111156130fb576130fa6153c5565b5b60405190808252806020026020018201604052801561312e57816020015b60608152602001906001900390816131195790505b5090506000808054905067ffffffffffffffff811115613151576131506153c5565b5b60405190808252806020026020018201604052801561318457816020015b606081526020019060019003908161316f5790505b5090506000808054905067ffffffffffffffff8111156131a7576131a66153c5565b5b6040519080825280602002602001820160405280156131da57816020015b60608152602001906001900390816131c55790505b5090506000808054905067ffffffffffffffff8111156131fd576131fc6153c5565b5b60405190808252806020026020018201604052801561323057816020015b606081526020019060019003908161321b5790505b5090506000808054905067ffffffffffffffff811115613253576132526153c5565b5b60405190808252806020026020018201604052801561328657816020015b60608152602001906001900390816132715790505b50905060005b60008054905081101561380757600081815481106132ad576132ac6163a5565b5b906000526020600020906007020160000160009054906101000a900473ffffffffffffffffffffffffffffffffffffffff168882815181106132f2576132f16163a5565b5b602002602001019073ffffffffffffffffffffffffffffffffffffffff16908173ffffffffffffffffffffffffffffffffffffffff1681525050600081815481106133405761333f6163a5565b5b9060005260206000209060070201600101805461335c90616403565b80601f016020809104026020016040519081016040528092919081815260200182805461338890616403565b80156133d55780601f106133aa576101008083540402835291602001916133d5565b820191906000526020600020905b8154815290600101906020018083116133b857829003601f168201915b50505050508782815181106133ed576133ec6163a5565b5b60200260200101819052506000818154811061340c5761340b6163a5565b5b9060005260206000209060070201600201805461342890616403565b80601f016020809104026020016040519081016040528092919081815260200182805461345490616403565b80156134a15780601f10613476576101008083540402835291602001916134a1565b820191906000526020600020905b81548152906001019060200180831161348457829003601f168201915b50505050508682815181106134b9576134b86163a5565b5b6020026020010181905250600081815481106134d8576134d76163a5565b5b906000526020600020906007020160030180546134f490616403565b80601f016020809104026020016040519081016040528092919081815260200182805461352090616403565b801561356d5780601f106135425761010080835404028352916020019161356d565b820191906000526020600020905b81548152906001019060200180831161355057829003601f168201915b5050505050858281518110613585576135846163a5565b5b6020026020010181905250600081815481106135a4576135a36163a5565b5b906000526020600020906007020160040180546135c090616403565b80601f01602080910402602001604051908101604052809291908181526020018280546135ec90616403565b80156136395780601f1061360e57610100808354040283529160200191613639565b820191906000526020600020905b81548152906001019060200180831161361c57829003601f168201915b5050505050848281518110613651576136506163a5565b5b6020026020010181905250600081815481106136705761366f6163a5565b5b9060005260206000209060070201600501805461368c90616403565b80601f01602080910402602001604051908101604052809291908181526020018280546136b890616403565b80156137055780601f106136da57610100808354040283529160200191613705565b820191906000526020600020905b8154815290600101906020018083116136e857829003601f168201915b505050505083828151811061371d5761371c6163a5565b5b60200260200101819052506000818154811061373c5761373b6163a5565b5b9060005260206000209060070201600601805461375890616403565b80601f016020809104026020016040519081016040528092919081815260200182805461378490616403565b80156137d15780601f106137a6576101008083540402835291602001916137d1565b820191906000526020600020905b8154815290600101906020018083116137b457829003601f168201915b50505050508282815181106137e9576137e86163a5565b5b602002602001018190525080806137ff9061651a565b91505061328c565b50868686868686869d509d509d509d509d509d509d505050505050505090919293949596565b6000613839858561055c565b14613879576040517f08c379a0000000000000000000000000000000000000000000000000000000008152600401613870906169ea565b60405180910390fd5b60016040518060c00160405280836040516020016138979190616a0a565b604051602081830303815290604052805190602001207bffffffffffffffffffffffffffffffffffffffffffffffffffffffff191681526020018673ffffffffffffffffffffffffffffffffffffffff1681526020018573ffffffffffffffffffffffffffffffffffffffff1681526020018481526020018381526020016040518060400160405280600781526020017f57616974696e6700000000000000000000000000000000000000000000000000815250815250908060018154018082558091505060019003906000526020600020906005020160009091909190915060008201518160000160006101000a81548163ffffffff021916908360e01c021790555060208201518160000160046101000a81548173ffffffffffffffffffffffffffffffffffffffff021916908373ffffffffffffffffffffffffffffffffffffffff16021790555060408201518160010160006101000a81548173ffffffffffffffffffffffffffffffffffffffff021916908373ffffffffffffffffffffffffffffffffffffffff1602179055506060820151816002019080519060200190613a45929190615221565b506080820151816003019080519060200190613a62929190615221565b5060a0820151816004019080519060200190613a7f929190615221565b50505050505050565b606080606080606080600060018054905067ffffffffffffffff811115613ab257613ab16153c5565b5b604051908082528060200260200182016040528015613ae05781602001602082028036833780820191505090505b509050600060018054905067ffffffffffffffff811115613b0457613b036153c5565b5b604051908082528060200260200182016040528015613b325781602001602082028036833780820191505090505b509050600060018054905067ffffffffffffffff811115613b5657613b556153c5565b5b604051908082528060200260200182016040528015613b845781602001602082028036833780820191505090505b509050600060018054905067ffffffffffffffff811115613ba857613ba76153c5565b5b604051908082528060200260200182016040528015613bdb57816020015b6060815260200190600190039081613bc65790505b509050600060018054905067ffffffffffffffff811115613bff57613bfe6153c5565b5b604051908082528060200260200182016040528015613c3257816020015b6060815260200190600190039081613c1d5790505b509050600060018054905067ffffffffffffffff811115613c5657613c556153c5565b5b604051908082528060200260200182016040528015613c8957816020015b6060815260200190600190039081613c745790505b50905060005b600180549050811015614145578d73ffffffffffffffffffffffffffffffffffffffff1660018281548110613cc757613cc66163a5565b5b906000526020600020906005020160010160009054906101000a900473ffffffffffffffffffffffffffffffffffffffff1673ffffffffffffffffffffffffffffffffffffffff1614156141325760018181548110613d2957613d286163a5565b5b906000526020600020906005020160000160009054906101000a900460e01b878281518110613d5b57613d5a6163a5565b5b60200260200101907bffffffffffffffffffffffffffffffffffffffffffffffffffffffff191690817bffffffffffffffffffffffffffffffffffffffffffffffffffffffff19168152505060018181548110613dbb57613dba6163a5565b5b906000526020600020906005020160000160049054906101000a900473ffffffffffffffffffffffffffffffffffffffff16868281518110613e0057613dff6163a5565b5b602002602001019073ffffffffffffffffffffffffffffffffffffffff16908173ffffffffffffffffffffffffffffffffffffffff168152505060018181548110613e4e57613e4d6163a5565b5b906000526020600020906005020160010160009054906101000a900473ffffffffffffffffffffffffffffffffffffffff16858281518110613e9357613e926163a5565b5b602002602001019073ffffffffffffffffffffffffffffffffffffffff16908173ffffffffffffffffffffffffffffffffffffffff168152505060018181548110613ee157613ee06163a5565b5b90600052602060002090600502016002018054613efd90616403565b80601f0160208091040260200160405190810160405280929190818152602001828054613f2990616403565b8015613f765780601f10613f4b57610100808354040283529160200191613f76565b820191906000526020600020905b815481529060010190602001808311613f5957829003601f168201915b5050505050848281518110613f8e57613f8d6163a5565b5b602002602001018190525060018181548110613fad57613fac6163a5565b5b90600052602060002090600502016003018054613fc990616403565b80601f0160208091040260200160405190810160405280929190818152602001828054613ff590616403565b80156140425780601f1061401757610100808354040283529160200191614042565b820191906000526020600020905b81548152906001019060200180831161402557829003601f168201915b505050505083828151811061405a576140596163a5565b5b602002602001018190525060018181548110614079576140786163a5565b5b9060005260206000209060050201600401805461409590616403565b80601f01602080910402602001604051908101604052809291908181526020018280546140c190616403565b801561410e5780601f106140e35761010080835404028352916020019161410e565b820191906000526020600020905b8154815290600101906020018083116140f157829003601f168201915b5050505050828281518110614126576141256163a5565b5b60200260200101819052505b808061413d9061651a565b915050613c8f565b508585858585859b509b509b509b509b509b5050505050505091939550919395565b606060006060600080600080600090505b60038054905081101561451d578a73ffffffffffffffffffffffffffffffffffffffff16600382815481106141b0576141af6163a5565b5b906000526020600020906008020160000160049054906101000a900473ffffffffffffffffffffffffffffffffffffffff1673ffffffffffffffffffffffffffffffffffffffff1614801561427557508973ffffffffffffffffffffffffffffffffffffffff166003828154811061422b5761422a6163a5565b5b906000526020600020906008020160010160009054906101000a900473ffffffffffffffffffffffffffffffffffffffff1673ffffffffffffffffffffffffffffffffffffffff16145b80156142f95750888860405160200161428f9291906165c0565b60405160208183030381529060405280519060200120600382815481106142b9576142b86163a5565b5b906000526020600020906008020160000160009054906101000a900460e01b7bffffffffffffffffffffffffffffffffffffffffffffffffffffffff1916145b1561450a5760038181548110614312576143116163a5565b5b906000526020600020906008020160020160038281548110614337576143366163a5565b5b9060005260206000209060080201600301546003838154811061435d5761435c6163a5565b5b906000526020600020906008020160040160038481548110614382576143816163a5565b5b906000526020600020906008020160050154600385815481106143a8576143a76163a5565b5b906000526020600020906008020160060154600386815481106143ce576143cd6163a5565b5b9060005260206000209060080201600701548580546143ec90616403565b80601f016020809104026020016040519081016040528092919081815260200182805461441890616403565b80156144655780601f1061443a57610100808354040283529160200191614465565b820191906000526020600020905b81548152906001019060200180831161444857829003601f168201915b5050505050955083805461447890616403565b80601f01602080910402602001604051908101604052809291908181526020018280546144a490616403565b80156144f15780601f106144c6576101008083540402835291602001916144f1565b820191906000526020600020905b8154815290600101906020018083116144d457829003601f168201915b505050505093509650965096509650965096505061451f565b80806145159061651a565b915050614178565b505b9499939850945094509450565b6002818154811061453c57600080fd5b90600052602060002090600802016000915090508060000160009054906101000a900460e01b908060000160049054906101000a900473ffffffffffffffffffffffffffffffffffffffff16908060010160009054906101000a900473ffffffffffffffffffffffffffffffffffffffff16908060020180546145be90616403565b80601f01602080910402602001604051908101604052809291908181526020018280546145ea90616403565b80156146375780601f1061460c57610100808354040283529160200191614637565b820191906000526020600020905b81548152906001019060200180831161461a57829003601f168201915b50505050509080600301549080600401805461465290616403565b80601f016020809104026020016040519081016040528092919081815260200182805461467e90616403565b80156146cb5780601f106146a0576101008083540402835291602001916146cb565b820191906000526020600020905b8154815290600101906020018083116146ae57829003601f168201915b5050505050908060050154908060060154908060070154905089565b6040518060400160405280600881526020017f4163636570746564000000000000000000000000000000000000000000000000815250805190602001208180519060200120148061477a57506040518060400160405280600881526020017f4465636c696e6564000000000000000000000000000000000000000000000000815250805190602001208180519060200120145b6147b9576040517f08c379a00000000000000000000000000000000000000000000000000000000081526004016147b090616a6d565b60405180910390fd5b60005b600180549050811015614987578473ffffffffffffffffffffffffffffffffffffffff16600182815481106147f4576147f36163a5565b5b906000526020600020906005020160000160049054906101000a900473ffffffffffffffffffffffffffffffffffffffff1673ffffffffffffffffffffffffffffffffffffffff161480156148b957508373ffffffffffffffffffffffffffffffffffffffff166001828154811061486f5761486e6163a5565b5b906000526020600020906005020160010160009054906101000a900473ffffffffffffffffffffffffffffffffffffffff1673ffffffffffffffffffffffffffffffffffffffff16145b80156149345750827bffffffffffffffffffffffffffffffffffffffffffffffffffffffff1916600182815481106148f4576148f36163a5565b5b906000526020600020906005020160000160009054906101000a900460e01b7bffffffffffffffffffffffffffffffffffffffffffffffffffffffff1916145b1561497457816001828154811061494e5761494d6163a5565b5b90600052602060002090600502016004019080519060200190614972929190615221565b505b808061497f9061651a565b9150506147bc565b5050505050565b606080606080606080600060028054905067ffffffffffffffff8111156149b8576149b76153c5565b5b6040519080825280602002602001820160405280156149eb57816020015b60608152602001906001900390816149d65790505b509050600060028054905067ffffffffffffffff811115614a0f57614a0e6153c5565b5b604051908082528060200260200182016040528015614a3d5781602001602082028036833780820191505090505b509050600060028054905067ffffffffffffffff811115614a6157614a606153c5565b5b604051908082528060200260200182016040528015614a9457816020015b6060815260200190600190039081614a7f5790505b509050600060028054905067ffffffffffffffff811115614ab857614ab76153c5565b5b604051908082528060200260200182016040528015614ae65781602001602082028036833780820191505090505b509050600060028054905067ffffffffffffffff811115614b0a57614b096153c5565b5b604051908082528060200260200182016040528015614b385781602001602082028036833780820191505090505b509050600060028054905067ffffffffffffffff811115614b5c57614b5b6153c5565b5b604051908082528060200260200182016040528015614b8a5781602001602082028036833780820191505090505b50905060005b600280549050811015614f52578e73ffffffffffffffffffffffffffffffffffffffff1660028281548110614bc857614bc76163a5565b5b906000526020600020906008020160000160049054906101000a900473ffffffffffffffffffffffffffffffffffffffff1673ffffffffffffffffffffffffffffffffffffffff16148015614c8d57508d73ffffffffffffffffffffffffffffffffffffffff1660028281548110614c4357614c426163a5565b5b906000526020600020906008020160010160009054906101000a900473ffffffffffffffffffffffffffffffffffffffff1673ffffffffffffffffffffffffffffffffffffffff16145b15614f3f5760028181548110614ca657614ca56163a5565b5b90600052602060002090600802016002018054614cc290616403565b80601f0160208091040260200160405190810160405280929190818152602001828054614cee90616403565b8015614d3b5780601f10614d1057610100808354040283529160200191614d3b565b820191906000526020600020905b815481529060010190602001808311614d1e57829003601f168201915b5050505050878281518110614d5357614d526163a5565b5b602002602001018190525060028181548110614d7257614d716163a5565b5b906000526020600020906008020160030154868281518110614d9757614d966163a5565b5b60200260200101818152505060028181548110614db757614db66163a5565b5b90600052602060002090600802016004018054614dd390616403565b80601f0160208091040260200160405190810160405280929190818152602001828054614dff90616403565b8015614e4c5780601f10614e2157610100808354040283529160200191614e4c565b820191906000526020600020905b815481529060010190602001808311614e2f57829003601f168201915b5050505050858281518110614e6457614e636163a5565b5b602002602001018190525060028181548110614e8357614e826163a5565b5b906000526020600020906008020160050154848281518110614ea857614ea76163a5565b5b60200260200101818152505060028181548110614ec857614ec76163a5565b5b906000526020600020906008020160060154838281518110614eed57614eec6163a5565b5b60200260200101818152505060028181548110614f0d57614f0c6163a5565b5b906000526020600020906008020160070154828281518110614f3257614f316163a5565b5b6020026020010181815250505b8080614f4a9061651a565b915050614b90565b508585858585859b509b509b509b509b509b505050505050509295509295509295565b60006040518060e001604052808973ffffffffffffffffffffffffffffffffffffffff16815260200188815260200187815260200186815260200185815260200184815260200183815250908060018154018082558091505060019003906000526020600020906007020160009091909190915060008201518160000160006101000a81548173ffffffffffffffffffffffffffffffffffffffff021916908373ffffffffffffffffffffffffffffffffffffffff160217905550602082015181600101908051906020019061504c929190615221565b506040820151816002019080519060200190615069929190615221565b506060820151816003019080519060200190615086929190615221565b5060808201518160040190805190602001906150a3929190615221565b5060a08201518160050190805190602001906150c0929190615221565b5060c08201518160060190805190602001906150dd929190615221565b50505050505050505050565b600080600090505b600380549050811015615218578473ffffffffffffffffffffffffffffffffffffffff1660028281548110615129576151286163a5565b5b906000526020600020906008020160010160009054906101000a900473ffffffffffffffffffffffffffffffffffffffff1673ffffffffffffffffffffffffffffffffffffffff161480156151f65750838360405160200161518c9291906165c0565b60405160208183030381529060405280519060200120600282815481106151b6576151b56163a5565b5b906000526020600020906008020160000160009054906101000a900460e01b7bffffffffffffffffffffffffffffffffffffffffffffffffffffffff1916145b1561520557600191505061521a565b80806152109061651a565b9150506150f1565b505b9392505050565b82805461522d90616403565b90600052602060002090601f01602090048101928261524f5760008555615296565b82601f1061526857805160ff1916838001178555615296565b82800160010185558215615296579182015b8281111561529557825182559160200191906001019061527a565b5b5090506152a391906152a7565b5090565b5b808211156152c05760008160009055506001016152a8565b5090565b6000604051905090565b600080fd5b600080fd5b600073ffffffffffffffffffffffffffffffffffffffff82169050919050565b6000615303826152d8565b9050919050565b615313816152f8565b811461531e57600080fd5b50565b6000813590506153308161530a565b92915050565b6000806040838503121561534d5761534c6152ce565b5b600061535b85828601615321565b925050602061536c85828601615321565b9150509250929050565b6000819050919050565b61538981615376565b82525050565b60006020820190506153a46000830184615380565b92915050565b600080fd5b600080fd5b6000601f19601f8301169050919050565b7f4e487b7100000000000000000000000000000000000000000000000000000000600052604160045260246000fd5b6153fd826153b4565b810181811067ffffffffffffffff8211171561541c5761541b6153c5565b5b80604052505050565b600061542f6152c4565b905061543b82826153f4565b919050565b600067ffffffffffffffff82111561545b5761545a6153c5565b5b615464826153b4565b9050602081019050919050565b82818337600083830152505050565b600061549361548e84615440565b615425565b9050828152602081018484840111156154af576154ae6153af565b5b6154ba848285615471565b509392505050565b600082601f8301126154d7576154d66153aa565b5b81356154e7848260208601615480565b91505092915050565b6154f981615376565b811461550457600080fd5b50565b600081359050615516816154f0565b92915050565b60008060008060808587031215615536576155356152ce565b5b600061554487828801615321565b945050602061555587828801615321565b935050604085013567ffffffffffffffff811115615576576155756152d3565b5b615582878288016154c2565b925050606061559387828801615507565b91505092959194509250565b600081519050919050565b600082825260208201905092915050565b60005b838110156155d95780820151818401526020810190506155be565b838111156155e8576000848401525b50505050565b60006155f98261559f565b61560381856155aa565b93506156138185602086016155bb565b61561c816153b4565b840191505092915050565b600060c082019050818103600083015261564181896155ee565b90506156506020830188615380565b818103604083015261566281876155ee565b90506156716060830186615380565b61567e6080830185615380565b61568b60a0830184615380565b979650505050505050565b600081519050919050565b600082825260208201905092915050565b6000819050602082019050919050565b600082825260208201905092915050565b60006156de8261559f565b6156e881856156c2565b93506156f88185602086016155bb565b615701816153b4565b840191505092915050565b600061571883836156d3565b905092915050565b6000602082019050919050565b600061573882615696565b61574281856156a1565b935083602082028501615754856156b2565b8060005b858110156157905784840389528151615771858261570c565b945061577c83615720565b925060208a01995050600181019050615758565b50829750879550505050505092915050565b600081519050919050565b600082825260208201905092915050565b6000819050602082019050919050565b6157d781615376565b82525050565b60006157e983836157ce565b60208301905092915050565b6000602082019050919050565b600061580d826157a2565b61581781856157ad565b9350615822836157be565b8060005b8381101561585357815161583a88826157dd565b9750615845836157f5565b925050600181019050615826565b5085935050505092915050565b600060c082019050818103600083015261587a818961572d565b9050818103602083015261588e8188615802565b905081810360408301526158a2818761572d565b905081810360608301526158b68186615802565b905081810360808301526158ca8185615802565b905081810360a08301526158de8184615802565b9050979650505050505050565b60008060008060008060c08789031215615908576159076152ce565b5b600061591689828a01615321565b965050602087013567ffffffffffffffff811115615937576159366152d3565b5b61594389828a016154c2565b955050604061595489828a01615507565b945050606087013567ffffffffffffffff811115615975576159746152d3565b5b61598189828a016154c2565b935050608061599289828a01615507565b92505060a06159a389828a01615507565b9150509295509295509295565b6000602082840312156159c6576159c56152ce565b5b60006159d484828501615507565b91505092915050565b6159e6816152f8565b82525050565b600060e082019050615a01600083018a6159dd565b8181036020830152615a1381896155ee565b90508181036040830152615a2781886155ee565b90508181036060830152615a3b81876155ee565b90508181036080830152615a4f81866155ee565b905081810360a0830152615a6381856155ee565b905081810360c0830152615a7781846155ee565b905098975050505050505050565b600081519050919050565b600082825260208201905092915050565b6000819050602082019050919050565b60007fffffffff0000000000000000000000000000000000000000000000000000000082169050919050565b615ae681615ab1565b82525050565b6000615af88383615add565b60208301905092915050565b6000602082019050919050565b6000615b1c82615a85565b615b268185615a90565b9350615b3183615aa1565b8060005b83811015615b62578151615b498882615aec565b9750615b5483615b04565b925050600181019050615b35565b5085935050505092915050565b600081519050919050565b600082825260208201905092915050565b6000819050602082019050919050565b615ba4816152f8565b82525050565b6000615bb68383615b9b565b60208301905092915050565b6000602082019050919050565b6000615bda82615b6f565b615be48185615b7a565b9350615bef83615b8b565b8060005b83811015615c20578151615c078882615baa565b9750615c1283615bc2565b925050600181019050615bf3565b5085935050505092915050565b600060c0820190508181036000830152615c478189615b11565b90508181036020830152615c5b8188615bcf565b90508181036040830152615c6f8187615bcf565b90508181036060830152615c83818661572d565b90508181036080830152615c97818561572d565b905081810360a0830152615cab818461572d565b9050979650505050505050565b600060208284031215615cce57615ccd6152ce565b5b6000615cdc84828501615321565b91505092915050565b600060c082019050615cfa60008301896159dd565b8181036020830152615d0c81886155ee565b90508181036040830152615d2081876155ee565b90508181036060830152615d3481866155ee565b90508181036080830152615d4881856155ee565b905081810360a0830152615d5c81846155ee565b9050979650505050505050565b60008060408385031215615d8057615d7f6152ce565b5b6000615d8e85828601615321565b925050602083013567ffffffffffffffff811115615daf57615dae6152d3565b5b615dbb858286016154c2565b9150509250929050565b615dce81615ab1565b82525050565b600060c082019050615de96000830189615dc5565b615df660208301886159dd565b615e0360408301876159dd565b8181036060830152615e1581866155ee565b90508181036080830152615e2981856155ee565b905081810360a0830152615e3d81846155ee565b9050979650505050505050565b600061012082019050615e60600083018c615dc5565b615e6d602083018b6159dd565b615e7a604083018a6159dd565b8181036060830152615e8c81896155ee565b9050615e9b6080830188615380565b81810360a0830152615ead81876155ee565b9050615ebc60c0830186615380565b615ec960e0830185615380565b615ed7610100830184615380565b9a9950505050505050505050565b60008060008060008060c08789031215615f0257615f016152ce565b5b6000615f1089828a01615321565b965050602087013567ffffffffffffffff811115615f3157615f306152d3565b5b615f3d89828a016154c2565b955050604087013567ffffffffffffffff811115615f5e57615f5d6152d3565b5b615f6a89828a016154c2565b945050606087013567ffffffffffffffff811115615f8b57615f8a6152d3565b5b615f9789828a016154c2565b935050608087013567ffffffffffffffff811115615fb857615fb76152d3565b5b615fc489828a016154c2565b92505060a087013567ffffffffffffffff811115615fe557615fe46152d3565b5b615ff189828a016154c2565b9150509295509295509295565b600080600060608486031215616017576160166152ce565b5b600061602586828701615321565b935050602084013567ffffffffffffffff811115616046576160456152d3565b5b616052868287016154c2565b925050604061606386828701615507565b9150509250925092565b600060e0820190508181036000830152616087818a615bcf565b9050818103602083015261609b818961572d565b905081810360408301526160af818861572d565b905081810360608301526160c3818761572d565b905081810360808301526160d7818661572d565b905081810360a08301526160eb818561572d565b905081810360c08301526160ff818461572d565b905098975050505050505050565b60008060008060808587031215616127576161266152ce565b5b600061613587828801615321565b945050602061614687828801615321565b935050604085013567ffffffffffffffff811115616167576161666152d3565b5b616173878288016154c2565b925050606085013567ffffffffffffffff811115616194576161936152d3565b5b6161a0878288016154c2565b91505092959194509250565b6161b581615ab1565b81146161c057600080fd5b50565b6000813590506161d2816161ac565b92915050565b600080600080608085870312156161f2576161f16152ce565b5b600061620087828801615321565b945050602061621187828801615321565b9350506040616222878288016161c3565b925050606085013567ffffffffffffffff811115616243576162426152d3565b5b61624f878288016154c2565b91505092959194509250565b600080600080600080600060e0888a03121561627a576162796152ce565b5b60006162888a828b01615321565b975050602088013567ffffffffffffffff8111156162a9576162a86152d3565b5b6162b58a828b016154c2565b965050604088013567ffffffffffffffff8111156162d6576162d56152d3565b5b6162e28a828b016154c2565b955050606088013567ffffffffffffffff811115616303576163026152d3565b5b61630f8a828b016154c2565b945050608088013567ffffffffffffffff8111156163305761632f6152d3565b5b61633c8a828b016154c2565b93505060a088013567ffffffffffffffff81111561635d5761635c6152d3565b5b6163698a828b016154c2565b92505060c088013567ffffffffffffffff81111561638a576163896152d3565b5b6163968a828b016154c2565b91505092959891949750929550565b7f4e487b7100000000000000000000000000000000000000000000000000000000600052603260045260246000fd5b7f4e487b7100000000000000000000000000000000000000000000000000000000600052602260045260246000fd5b6000600282049050600182168061641b57607f821691505b6020821081141561642f5761642e6163d4565b5b50919050565b600081905092915050565b60008190508160005260206000209050919050565b6000815461646281616403565b61646c8186616435565b945060018216600081146164875760018114616498576164cb565b60ff198316865281860193506164cb565b6164a185616440565b60005b838110156164c3578154818901526001820191506020810190506164a4565b838801955050505b50505092915050565b60006164e08284616455565b915081905092915050565b7f4e487b7100000000000000000000000000000000000000000000000000000000600052601160045260246000fd5b600061652582615376565b91507fffffffffffffffffffffffffffffffffffffffffffffffffffffffffffffffff821415616558576165576164eb565b5b600182019050919050565b600081905092915050565b60006165798261559f565b6165838185616563565b93506165938185602086016155bb565b80840191505092915050565b6000819050919050565b6165ba6165b582615376565b61659f565b82525050565b60006165cc828561656e565b91506165d882846165a9565b6020820191508190509392505050565b7f4e6f7420666f756e64206f776e65722e00000000000000000000000000000000600082015250565b600061661e6010836155aa565b9150616629826165e8565b602082019050919050565b6000602082019050818103600083015261664d81616611565b9050919050565b7f4475706c696361746520535720526573756c742e000000000000000000000000600082015250565b600061668a6014836155aa565b915061669582616654565b602082019050919050565b600060208201905081810360008301526166b98161667d565b9050919050565b7f5368696674205465737420696e636f72726563742e0000000000000000000000600082015250565b60006166f66015836155aa565b9150616701826166c0565b602082019050919050565b60006020820190508181036000830152616725816166e9565b9050919050565b7f537065616b696e672053636f726520696e636f72726563742e00000000000000600082015250565b60006167626019836155aa565b915061676d8261672c565b602082019050919050565b6000602082019050818103600083015261679181616755565b9050919050565b7f57726974696e672053636f726520696e636f72726563742e0000000000000000600082015250565b60006167ce6018836155aa565b91506167d982616798565b602082019050919050565b600060208201905081810360008301526167fd816167c1565b9050919050565b600061680f82615376565b915061681a83615376565b9250827fffffffffffffffffffffffffffffffffffffffffffffffffffffffffffffffff0382111561684f5761684e6164eb565b5b828201905092915050565b7f4475706c6963617465204c5220526573756c742e000000000000000000000000600082015250565b60006168906014836155aa565b915061689b8261685a565b602082019050919050565b600060208201905081810360008301526168bf81616883565b9050919050565b7f4c697374656e696e672053636f726520696e636f72726563742e000000000000600082015250565b60006168fc601a836155aa565b9150616907826168c6565b602082019050919050565b6000602082019050818103600083015261692b816168ef565b9050919050565b7f52656164696e672053636f726520696e636f72726563742e0000000000000000600082015250565b60006169686018836155aa565b915061697382616932565b602082019050919050565b600060208201905081810360008301526169978161695b565b9050919050565b7f57616974696e6720666f7220636f6e6669726d6174696f6e2e00000000000000600082015250565b60006169d46019836155aa565b91506169df8261699e565b602082019050919050565b60006020820190508181036000830152616a03816169c7565b9050919050565b6000616a16828461656e565b915081905092915050565b7f537461747573205265717565737420696e636f72726563742e00000000000000600082015250565b6000616a576019836155aa565b9150616a6282616a21565b602082019050919050565b60006020820190508181036000830152616a8681616a4a565b905091905056fea26469706673582212204164c1149e19d2685b076d8a50f1a8a0cd206c0e83e9706f945d06b1d0d5356a64736f6c634300080b0033",
  "immutableReferences": {},
  "source": "// SPDX-License-Identifier: MIT\r\npragma solidity >=0.4.22 <0.9.0;\r\n\r\n// Lu tr danh sch IIG\r\ncontract ListIIG {\r\n\r\n    // Khai bo cu trc lu tr thng tin IIG\r\n    struct IIGInfo {\r\n        address iigOwner;\r\n        string name;\r\n        string country;\r\n        string facebook;\r\n        string website;\r\n        string linkedin;\r\n        string password;\r\n    }\r\n\r\n    // Khai bo cu trc lu tr thng tin yu cu chng ch IIG ca sinh vin\r\n    struct IIGRequest {\r\n        bytes4 codeRequest;\r\n        address studentOwner;\r\n        address iigOwner;\r\n        string identityCard;\r\n        string requestDate;\r\n        string statusRequest;\r\n    }\r\n\r\n    // Khai bo cu trc lu tr thng tin im thi Listening - Reading IIG\r\n    struct IIGLRResult {\r\n        bytes4 codeLRResult;\r\n        address iigOwner;\r\n        address studentOwner;\r\n        string testDate;\r\n        uint shiftTest;\r\n        string expireDate;\r\n        uint listeningScore;\r\n        uint readingScore;\r\n        uint totalScore;\r\n    }\r\n\r\n    // Khai bo cu trc lu tr thng tin im thi Speaking - Writing IIG\r\n    struct IIGSWResult {\r\n        bytes4 codeSWResult;\r\n        address iigOwner;\r\n        address studentOwner;\r\n        string testDate;\r\n        uint shiftTest;\r\n        string expireDate;\r\n        uint speakingScore;\r\n        uint writingScore;\r\n        uint totalScore;\r\n    }\r\n\r\n    // Khai bo mng  lu tr thng tin\r\n    IIGInfo[] public iigInfos;\r\n    IIGRequest[] public iigRequests;\r\n    IIGLRResult[] public iigLRResults;\r\n    IIGSWResult[] public iigSWResults;\r\n\r\n    // Chc nng thm thng tin IGG\r\n    function addIIG (\r\n        address _iigOwner,\r\n        string memory _name,\r\n        string memory _country,\r\n        string memory _facebook,\r\n        string memory _website,\r\n        string memory _linkedin,\r\n        string memory _password) public {\r\n            iigInfos.push(\r\n                IIGInfo(_iigOwner, \r\n                        _name, \r\n                        _country, \r\n                        _facebook,\r\n                        _website, \r\n                        _linkedin, \r\n                        _password)\r\n                );\r\n    }\r\n\r\n    // Chc nng chnh sa thng tin IGG\r\n    function editIIG (\r\n        address _iigOwner,\r\n        string memory _name,\r\n        string memory _country,\r\n        string memory _facebook,\r\n        string memory _website,\r\n        string memory _linkedin) public {\r\n            for(uint i=0; i<iigInfos.length;i++){\r\n                if(iigInfos[i].iigOwner == _iigOwner){\r\n                    iigInfos[i].name = _name;\r\n                    iigInfos[i].country = _country;\r\n                    iigInfos[i].facebook = _facebook;\r\n                    iigInfos[i].website = _website;\r\n                    iigInfos[i].linkedin = _linkedin;\r\n                }\r\n            }\r\n    }\r\n\r\n    // Chc nng ly danh sch IIG  thm\r\n    function getListIIG() public view returns(\r\n        address[] memory, \r\n        string[] memory, \r\n        string[] memory, \r\n        string[] memory, \r\n        string[] memory, \r\n        string[] memory, \r\n        string[] memory) {\r\n            address[] memory iigOwners = new address[](iigInfos.length);\r\n            string[] memory names = new string[](iigInfos.length);\r\n            string[] memory countrys = new string[](iigInfos.length);\r\n            string[] memory facebooks = new string[](iigInfos.length);\r\n            string[] memory websites = new string[](iigInfos.length);\r\n            string[] memory linkedins = new string[](iigInfos.length);\r\n            string[] memory passwords = new string[](iigInfos.length);\r\n            for(uint i=0; i<iigInfos.length;i++){\r\n                iigOwners[i] = iigInfos[i].iigOwner;\r\n                names[i] = iigInfos[i].name;\r\n                countrys[i] = iigInfos[i].country;\r\n                facebooks[i] = iigInfos[i].facebook;\r\n                websites[i] = iigInfos[i].website;\r\n                linkedins[i] = iigInfos[i].linkedin;\r\n                passwords[i] = iigInfos[i].password;\r\n            }\r\n            return (iigOwners, names, countrys, facebooks, websites, linkedins, passwords);\r\n    }\r\n\r\n    // Chc nng ly thng tin ca IIG\r\n    function getProfile(address _iigOwner) public view returns(\r\n        address iigOwner, \r\n        string memory name, \r\n        string memory country, \r\n        string memory facebook, \r\n        string memory website, \r\n        string memory linkedin) {\r\n            for(uint i=0; i<iigInfos.length;i++){\r\n                if(iigInfos[i].iigOwner == _iigOwner){\r\n                    return (iigInfos[i].iigOwner,\r\n                            iigInfos[i].name, \r\n                            iigInfos[i].country, \r\n                            iigInfos[i].facebook, \r\n                            iigInfos[i].website, \r\n                            iigInfos[i].linkedin);\r\n                }\r\n            }\r\n    }\r\n\r\n    // Chc nng kim tra IIG  ng k hay cha?\r\n    function checkIIG(\r\n        address _iigOwner, \r\n        string memory _password) public view returns(uint x) {\r\n            for(uint i=0; i<iigInfos.length; i++){\r\n                if((iigInfos[i].iigOwner == _iigOwner) && (keccak256(bytes(iigInfos[i].password)) == keccak256(bytes(_password)))){\r\n                    return 1;\r\n                }\r\n            }\r\n    }\r\n\r\n    // Chc nng kim tra a ch IIG  tn ti hay cha?\r\n    function checkExistIIG(address _iigOwner) public view returns(uint x) {\r\n        for(uint i=0; i<iigInfos.length; i++){\r\n            if(iigInfos[i].iigOwner == _iigOwner){\r\n                return 1;\r\n            }\r\n        }\r\n    }\r\n\r\n    // Chc nng thm thng tin yu cu chng ch IIG\r\n    function addRequest (\r\n        address _studentOwner,\r\n        address _iigOwner,\r\n        string memory _identityCard,\r\n        string memory _requestDate) public {\r\n            require(checkRequest(_studentOwner, _iigOwner) == 0, \"Waiting for confirmation.\");\r\n            iigRequests.push(\r\n                IIGRequest(bytes4(keccak256(abi.encodePacked(_requestDate))),\r\n                        _studentOwner, \r\n                        _iigOwner,\r\n                        _identityCard,\r\n                        _requestDate,\r\n                        \"Waiting\")\r\n                );\r\n    }\r\n\r\n    // Chc nng ly danh sch yu cu chng ch IIG\r\n    function getListRequest(address _iigOwner) public view returns(\r\n        bytes4[] memory,\r\n        address[] memory, \r\n        address[] memory,\r\n        string[] memory,\r\n        string[] memory,\r\n        string[] memory) {\r\n            bytes4[] memory codeRequests = new bytes4[](iigRequests.length);\r\n            address[] memory studentOwners = new address[](iigRequests.length);\r\n            address[] memory iigOwners = new address[](iigRequests.length);\r\n            string[] memory identityCards = new string[](iigRequests.length);\r\n            string[] memory requestDates = new string[](iigRequests.length);\r\n            string[] memory statusRequests = new string[](iigRequests.length);\r\n            for(uint i=0; i<iigRequests.length;i++){\r\n                if(iigRequests[i].iigOwner == _iigOwner){\r\n                    codeRequests[i] = iigRequests[i].codeRequest;\r\n                    studentOwners[i] = iigRequests[i].studentOwner;\r\n                    iigOwners[i] = iigRequests[i].iigOwner;\r\n                    identityCards[i] = iigRequests[i].identityCard;\r\n                    requestDates[i] = iigRequests[i].requestDate;\r\n                    statusRequests[i] = iigRequests[i].statusRequest;\r\n                }\r\n            }\r\n            return (codeRequests, studentOwners, iigOwners, identityCards, requestDates, statusRequests);\r\n    }\r\n\r\n    // Chc nng ly danh sch yu cu chng ch IIG theo sinh vin\r\n    function getListRequestStudent(address _iigOwner, address _studentOwner) public view returns(\r\n        bytes4[] memory,\r\n        address[] memory, \r\n        address[] memory,\r\n        string[] memory,\r\n        string[] memory,\r\n        string[] memory) {\r\n            bytes4[] memory codeRequests = new bytes4[](iigRequests.length);\r\n            address[] memory studentOwners = new address[](iigRequests.length);\r\n            address[] memory iigOwners = new address[](iigRequests.length);\r\n            string[] memory identityCards = new string[](iigRequests.length);\r\n            string[] memory requestDates = new string[](iigRequests.length);\r\n            string[] memory statusRequests = new string[](iigRequests.length);\r\n            for(uint i=0; i<iigRequests.length;i++){\r\n                if((iigRequests[i].iigOwner == _iigOwner) && (iigRequests[i].studentOwner == _studentOwner)){\r\n                    codeRequests[i] = iigRequests[i].codeRequest;\r\n                    studentOwners[i] = iigRequests[i].studentOwner;\r\n                    iigOwners[i] = iigRequests[i].iigOwner;\r\n                    identityCards[i] = iigRequests[i].identityCard;\r\n                    requestDates[i] = iigRequests[i].requestDate;\r\n                    statusRequests[i] = iigRequests[i].statusRequest;\r\n                }\r\n            }\r\n            return (codeRequests, studentOwners, iigOwners, identityCards, requestDates, statusRequests);\r\n    }\r\n\r\n    //Chc nng kim tra yu cu chng ch IIG\r\n    function checkRequest(\r\n        address _studentOwner, \r\n        address _iigOwner) public view returns(uint x) {\r\n            for(uint i=0; i<iigRequests.length; i++){\r\n                if((iigRequests[i].studentOwner == _studentOwner) && (iigRequests[i].iigOwner == _iigOwner) && (keccak256(bytes(iigRequests[i].statusRequest)) == keccak256(bytes(\"Waiting\")))){\r\n                    return 1;\r\n                }\r\n            }\r\n    }\r\n\r\n    //Chc nng duyt yu cu chng ch IIG\r\n    function confirmRequest(\r\n        address _studentOwner, \r\n        address _iigOwner,\r\n        bytes4 _codeRequest,\r\n        string memory _statusRequest) public {\r\n            require(keccak256(bytes(_statusRequest)) == keccak256(bytes(\"Accepted\")) || keccak256(bytes(_statusRequest)) == keccak256(bytes(\"Declined\")), \"Status Request incorrect.\");\r\n            for(uint i=0; i<iigRequests.length; i++){\r\n                if((iigRequests[i].studentOwner == _studentOwner) && (iigRequests[i].iigOwner == _iigOwner) && (iigRequests[i].codeRequest == _codeRequest)){\r\n                    iigRequests[i].statusRequest = _statusRequest;\r\n                }\r\n            }\r\n    }\r\n\r\n    // Chc nng thm thng tin im thi Listening - Reading (Kim tra c nhp nhiu ln thi ca 1 sinh vin chung 1 ngy khng?)\r\n    function addLRResult (\r\n        address _studentOwner,\r\n        string memory _testDate,\r\n        uint _shiftTest,\r\n        string memory _expireDate,\r\n        uint _listeningScore,\r\n        uint _readingScore) public {\r\n            address _iigOwner = msg.sender;\r\n            require(checkExistIIG(_iigOwner) == 1, \"Not found owner.\");\r\n            require(checkExistLRResult(_studentOwner, _testDate, _shiftTest) == 0, \"Duplicate LR Result.\");\r\n            require(_shiftTest == 1 || _shiftTest == 2 || _shiftTest == 3 || _shiftTest == 4, \"Shift Test incorrect.\");\r\n            require(_listeningScore >=0 && _listeningScore <=495, \"Listening Score incorrect.\");\r\n            require(_readingScore >=0 && _readingScore <=495, \"Reading Score incorrect.\");\r\n            iigLRResults.push(\r\n                IIGLRResult(bytes4(keccak256(abi.encodePacked(_testDate, _shiftTest))),\r\n                        _iigOwner, \r\n                        _studentOwner, \r\n                        _testDate,\r\n                        _shiftTest,\r\n                        _expireDate,\r\n                        _listeningScore, \r\n                        _readingScore,\r\n                        (_listeningScore + _readingScore))\r\n                );\r\n    }\r\n\r\n    // Chc nng ly danh sch im thi Listening - Reading  thm\r\n    function getListLRResult(\r\n        address _iigOwner, \r\n        address _studentOwner) public view returns(\r\n            string[] memory,\r\n            uint[] memory,\r\n            string[] memory,\r\n            uint[] memory,\r\n            uint[] memory,\r\n            uint[] memory) {\r\n                string[] memory testDates = new string[](iigLRResults.length);\r\n                uint[] memory shiftTests = new uint[](iigLRResults.length);\r\n                string[] memory expireDates = new string[](iigLRResults.length);\r\n                uint[] memory listeningScores = new uint[](iigLRResults.length);\r\n                uint[] memory readingScores = new uint[](iigLRResults.length);\r\n                uint[] memory totalScores = new uint[](iigLRResults.length);\r\n                for(uint i=0; i<iigLRResults.length;i++){\r\n                    if((iigLRResults[i].iigOwner == _iigOwner) && (iigLRResults[i].studentOwner == _studentOwner)){\r\n                        testDates[i] = iigLRResults[i].testDate;\r\n                        shiftTests[i] = iigLRResults[i].shiftTest;\r\n                        expireDates[i] = iigLRResults[i].expireDate;\r\n                        listeningScores[i] = iigLRResults[i].listeningScore;\r\n                        readingScores[i] = iigLRResults[i].readingScore;\r\n                        totalScores[i] = iigLRResults[i].totalScore;\r\n                    }\r\n                }\r\n                return (testDates, shiftTests, expireDates, listeningScores, readingScores, totalScores);\r\n    }\r\n\r\n    // Chc nng ly im thi Listening - Reading ca sinh vin\r\n    function getLRResult(\r\n        address _iigOwner, \r\n        address _studentOwner,\r\n        string memory _testDate,\r\n        uint _shiftTest) public view returns(\r\n            string memory testDate,\r\n            uint shiftTest,\r\n            string memory expireDate,\r\n            uint listeningScore,\r\n            uint readingScore,\r\n            uint totalScore) {\r\n                for(uint i=0; i<iigLRResults.length;i++){\r\n                    if((iigLRResults[i].iigOwner == _iigOwner) && (iigLRResults[i].studentOwner == _studentOwner) && (iigLRResults[i].codeLRResult == keccak256(bytes(string(abi.encodePacked(_testDate, _shiftTest)))))){\r\n                        return(iigLRResults[i].testDate,\r\n                                iigLRResults[i].shiftTest,\r\n                                iigLRResults[i].expireDate,\r\n                                iigLRResults[i].listeningScore,\r\n                                iigLRResults[i].readingScore,\r\n                                iigLRResults[i].totalScore);\r\n                    }\r\n                }\r\n    }\r\n\r\n    // Chc nng kim tra kt qu ngy thi Listening - Reading ca sinh vin  tn ti hay cha?\r\n    function checkExistLRResult(\r\n        address _studentOwner, \r\n        string memory _testDate,\r\n        uint _shiftTest) public view returns(uint x) {\r\n            for(uint i=0; i<iigLRResults.length; i++){\r\n                if((iigLRResults[i].studentOwner == _studentOwner) && (iigLRResults[i].codeLRResult == keccak256(bytes(string(abi.encodePacked(_testDate, _shiftTest)))))){\r\n                    return 1;\r\n                }\r\n            }\r\n    }\r\n\r\n    // Chc nng thm thng tin im thi Speaking - Writing\r\n    function addSWResult (\r\n        address _studentOwner,\r\n        string memory _testDate,\r\n        uint _shiftTest,\r\n        string memory _expireDate,\r\n        uint _speakingScore,\r\n        uint _writingScore) public {\r\n            address _iigOwner = msg.sender;\r\n            require(checkExistIIG(_iigOwner) == 1, \"Not found owner.\");\r\n            require(checkExistSWResult(_studentOwner, _testDate, _shiftTest) == 0, \"Duplicate SW Result.\");\r\n            require(_shiftTest == 1 || _shiftTest == 2 || _shiftTest == 3 || _shiftTest == 4, \"Shift Test incorrect.\");\r\n            require(_speakingScore >=0 && _speakingScore <=200, \"Speaking Score incorrect.\");\r\n            require(_writingScore >=0 && _writingScore <=200, \"Writing Score incorrect.\");\r\n            iigSWResults.push(\r\n                IIGSWResult(bytes4(keccak256(abi.encodePacked(_testDate, _shiftTest))),\r\n                        _iigOwner, \r\n                        _studentOwner, \r\n                        _testDate,\r\n                        _shiftTest,\r\n                        _expireDate,\r\n                        _speakingScore, \r\n                        _writingScore,\r\n                        (_speakingScore + _writingScore))\r\n                );\r\n    }\r\n\r\n    // Chc nng ly danh sch im thi Speaking - Writing  thm\r\n    function getListSWResult(address _iigOwner, address _studentOwner) public view returns(\r\n        string[] memory,\r\n        uint[] memory,\r\n        string[] memory,\r\n        uint[] memory,\r\n        uint[] memory,\r\n        uint[] memory) {\r\n            string[] memory testDates = new string[](iigSWResults.length);\r\n            uint[] memory shiftTests = new uint[](iigSWResults.length);\r\n            string[] memory expireDates = new string[](iigSWResults.length);\r\n            uint[] memory speakingScores = new uint[](iigSWResults.length);\r\n            uint[] memory writingScores = new uint[](iigSWResults.length);\r\n            uint[] memory totalScores = new uint[](iigSWResults.length);\r\n            for(uint i=0; i<iigSWResults.length;i++){\r\n                if((iigLRResults[i].iigOwner == _iigOwner) && (iigLRResults[i].studentOwner == _studentOwner)){\r\n                    testDates[i] = iigSWResults[i].testDate;\r\n                    shiftTests[i] = iigSWResults[i].shiftTest;\r\n                    expireDates[i] = iigSWResults[i].expireDate;\r\n                    speakingScores[i] = iigSWResults[i].speakingScore;\r\n                    writingScores[i] = iigSWResults[i].writingScore;\r\n                    totalScores[i] = iigSWResults[i].totalScore;\r\n                }\r\n            }\r\n            return (testDates, shiftTests, expireDates, speakingScores, writingScores, totalScores);\r\n    }\r\n\r\n    // Chc nng ly im thi Speaking - Writing ca sinh vin\r\n    function getSWResult(\r\n        address _iigOwner, \r\n        address _studentOwner,\r\n        string memory _testDate,\r\n        uint _shiftTest) public view returns(\r\n            string memory testDate,\r\n            uint shiftTest,\r\n            string memory expireDate,\r\n            uint speakingScore,\r\n            uint writingScore,\r\n            uint totalScore) {\r\n                for(uint i=0; i<iigSWResults.length;i++){\r\n                    if((iigSWResults[i].iigOwner == _iigOwner) && (iigSWResults[i].studentOwner == _studentOwner) && (iigSWResults[i].codeSWResult == keccak256(bytes(string(abi.encodePacked(_testDate, _shiftTest)))))){\r\n                        return(iigSWResults[i].testDate,\r\n                                iigSWResults[i].shiftTest,\r\n                                iigSWResults[i].expireDate,\r\n                                iigSWResults[i].speakingScore,\r\n                                iigSWResults[i].writingScore,\r\n                                iigSWResults[i].totalScore);\r\n                    }\r\n                }\r\n    }\r\n    \r\n    // Chc nng kim tra kt qu ngy thi Speaking - Writing ca sinh vin  tn ti hay cha?\r\n    function checkExistSWResult(\r\n        address _studentOwner,\r\n        string memory _testDate,\r\n        uint _shiftTest) public view returns(uint x) {\r\n            for(uint i=0; i<iigSWResults.length; i++){\r\n                if((iigLRResults[i].studentOwner == _studentOwner) && (iigLRResults[i].codeLRResult == keccak256(bytes(string(abi.encodePacked(_testDate, _shiftTest)))))){\r\n                    return 1;\r\n                }\r\n            }\r\n    }\r\n}",
  "sourcePath": "C:\\Users\\19520\\Documents\\NCKH_Blockchain\\SolidityProgramming\\ProjectResearch\\SmartCV\\SmartContract\\contracts\\SmartCV_ListIIG.sol",
  "compiler": {
    "name": "solc",
    "version": "0.8.11+commit.d7f03943.Emscripten.clang"
  },
  "schemaVersion": "3.4.4",
  "updatedAt": "2022-07-30T12:55:41.130Z",
  "devdoc": {
    "kind": "dev",
    "methods": {},
    "version": 1
  },
  "userdoc": {
    "kind": "user",
    "methods": {},
    "version": 1
  }
}