{
  "contractName": "ListIIG",
  "abi": [
    {
      "inputs": [
        {
          "internalType": "uint256",
          "name": "",
          "type": "uint256"
        }
      ],
      "name": "iigInfos",
      "outputs": [
        {
          "internalType": "address",
          "name": "iigOwner",
          "type": "address"
        },
        {
          "internalType": "string",
          "name": "name",
          "type": "string"
        },
        {
          "internalType": "string",
          "name": "country",
          "type": "string"
        },
        {
          "internalType": "string",
          "name": "facebook",
          "type": "string"
        },
        {
          "internalType": "string",
          "name": "website",
          "type": "string"
        },
        {
          "internalType": "string",
          "name": "linkedin",
          "type": "string"
        },
        {
          "internalType": "string",
          "name": "password",
          "type": "string"
        }
      ],
      "stateMutability": "view",
      "type": "function"
    },
    {
      "inputs": [
        {
          "internalType": "uint256",
          "name": "",
          "type": "uint256"
        }
      ],
      "name": "iigLRResults",
      "outputs": [
        {
          "internalType": "bytes4",
          "name": "codeLRResult",
          "type": "bytes4"
        },
        {
          "internalType": "address",
          "name": "iigOwner",
          "type": "address"
        },
        {
          "internalType": "address",
          "name": "studentOwner",
          "type": "address"
        },
        {
          "internalType": "string",
          "name": "testDate",
          "type": "string"
        },
        {
          "internalType": "string",
          "name": "shiftTest",
          "type": "string"
        },
        {
          "internalType": "string",
          "name": "expireDate",
          "type": "string"
        },
        {
          "internalType": "uint256",
          "name": "listeningScore",
          "type": "uint256"
        },
        {
          "internalType": "uint256",
          "name": "readingScore",
          "type": "uint256"
        },
        {
          "internalType": "uint256",
          "name": "totalScore",
          "type": "uint256"
        }
      ],
      "stateMutability": "view",
      "type": "function"
    },
    {
      "inputs": [
        {
          "internalType": "uint256",
          "name": "",
          "type": "uint256"
        }
      ],
      "name": "iigRequests",
      "outputs": [
        {
          "internalType": "bytes4",
          "name": "codeRequest",
          "type": "bytes4"
        },
        {
          "internalType": "address",
          "name": "studentOwner",
          "type": "address"
        },
        {
          "internalType": "address",
          "name": "iigOwner",
          "type": "address"
        },
        {
          "internalType": "string",
          "name": "identityCard",
          "type": "string"
        },
        {
          "internalType": "string",
          "name": "requestDate",
          "type": "string"
        },
        {
          "internalType": "string",
          "name": "statusRequest",
          "type": "string"
        }
      ],
      "stateMutability": "view",
      "type": "function"
    },
    {
      "inputs": [
        {
          "internalType": "uint256",
          "name": "",
          "type": "uint256"
        }
      ],
      "name": "iigSWResults",
      "outputs": [
        {
          "internalType": "bytes4",
          "name": "codeSWResult",
          "type": "bytes4"
        },
        {
          "internalType": "address",
          "name": "iigOwner",
          "type": "address"
        },
        {
          "internalType": "address",
          "name": "studentOwner",
          "type": "address"
        },
        {
          "internalType": "string",
          "name": "testDate",
          "type": "string"
        },
        {
          "internalType": "string",
          "name": "shiftTest",
          "type": "string"
        },
        {
          "internalType": "string",
          "name": "expireDate",
          "type": "string"
        },
        {
          "internalType": "uint256",
          "name": "speakingScore",
          "type": "uint256"
        },
        {
          "internalType": "uint256",
          "name": "writingScore",
          "type": "uint256"
        },
        {
          "internalType": "uint256",
          "name": "totalScore",
          "type": "uint256"
        }
      ],
      "stateMutability": "view",
      "type": "function"
    },
    {
      "inputs": [
        {
          "internalType": "address",
          "name": "_iigOwner",
          "type": "address"
        },
        {
          "internalType": "string",
          "name": "_name",
          "type": "string"
        },
        {
          "internalType": "string",
          "name": "_country",
          "type": "string"
        },
        {
          "internalType": "string",
          "name": "_facebook",
          "type": "string"
        },
        {
          "internalType": "string",
          "name": "_website",
          "type": "string"
        },
        {
          "internalType": "string",
          "name": "_linkedin",
          "type": "string"
        },
        {
          "internalType": "string",
          "name": "_password",
          "type": "string"
        }
      ],
      "name": "addIIG",
      "outputs": [],
      "stateMutability": "nonpayable",
      "type": "function"
    },
    {
      "inputs": [
        {
          "internalType": "address",
          "name": "_iigOwner",
          "type": "address"
        },
        {
          "internalType": "string",
          "name": "_name",
          "type": "string"
        },
        {
          "internalType": "string",
          "name": "_country",
          "type": "string"
        },
        {
          "internalType": "string",
          "name": "_facebook",
          "type": "string"
        },
        {
          "internalType": "string",
          "name": "_website",
          "type": "string"
        },
        {
          "internalType": "string",
          "name": "_linkedin",
          "type": "string"
        }
      ],
      "name": "editIIG",
      "outputs": [],
      "stateMutability": "nonpayable",
      "type": "function"
    },
    {
      "inputs": [],
      "name": "getListIIG",
      "outputs": [
        {
          "internalType": "address[]",
          "name": "",
          "type": "address[]"
        },
        {
          "internalType": "string[]",
          "name": "",
          "type": "string[]"
        },
        {
          "internalType": "string[]",
          "name": "",
          "type": "string[]"
        },
        {
          "internalType": "string[]",
          "name": "",
          "type": "string[]"
        },
        {
          "internalType": "string[]",
          "name": "",
          "type": "string[]"
        },
        {
          "internalType": "string[]",
          "name": "",
          "type": "string[]"
        },
        {
          "internalType": "string[]",
          "name": "",
          "type": "string[]"
        }
      ],
      "stateMutability": "view",
      "type": "function"
    },
    {
      "inputs": [
        {
          "internalType": "address",
          "name": "_iigOwner",
          "type": "address"
        }
      ],
      "name": "getProfile",
      "outputs": [
        {
          "internalType": "address",
          "name": "iigOwner",
          "type": "address"
        },
        {
          "internalType": "string",
          "name": "name",
          "type": "string"
        },
        {
          "internalType": "string",
          "name": "country",
          "type": "string"
        },
        {
          "internalType": "string",
          "name": "facebook",
          "type": "string"
        },
        {
          "internalType": "string",
          "name": "website",
          "type": "string"
        },
        {
          "internalType": "string",
          "name": "linkedin",
          "type": "string"
        }
      ],
      "stateMutability": "view",
      "type": "function"
    },
    {
      "inputs": [
        {
          "internalType": "address",
          "name": "_iigOwner",
          "type": "address"
        },
        {
          "internalType": "string",
          "name": "_password",
          "type": "string"
        }
      ],
      "name": "checkIIG",
      "outputs": [
        {
          "internalType": "uint256",
          "name": "x",
          "type": "uint256"
        }
      ],
      "stateMutability": "view",
      "type": "function"
    },
    {
      "inputs": [
        {
          "internalType": "address",
          "name": "_iigOwner",
          "type": "address"
        }
      ],
      "name": "checkExistIIG",
      "outputs": [
        {
          "internalType": "uint256",
          "name": "x",
          "type": "uint256"
        }
      ],
      "stateMutability": "view",
      "type": "function"
    },
    {
      "inputs": [
        {
          "internalType": "address",
          "name": "_studentOwner",
          "type": "address"
        },
        {
          "internalType": "address",
          "name": "_iigOwner",
          "type": "address"
        },
        {
          "internalType": "string",
          "name": "_identityCard",
          "type": "string"
        },
        {
          "internalType": "string",
          "name": "_requestDate",
          "type": "string"
        }
      ],
      "name": "addRequest",
      "outputs": [],
      "stateMutability": "nonpayable",
      "type": "function"
    },
    {
      "inputs": [
        {
          "internalType": "address",
          "name": "_iigOwner",
          "type": "address"
        }
      ],
      "name": "getListRequest",
      "outputs": [
        {
          "internalType": "bytes4[]",
          "name": "",
          "type": "bytes4[]"
        },
        {
          "internalType": "address[]",
          "name": "",
          "type": "address[]"
        },
        {
          "internalType": "address[]",
          "name": "",
          "type": "address[]"
        },
        {
          "internalType": "string[]",
          "name": "",
          "type": "string[]"
        },
        {
          "internalType": "string[]",
          "name": "",
          "type": "string[]"
        },
        {
          "internalType": "string[]",
          "name": "",
          "type": "string[]"
        }
      ],
      "stateMutability": "view",
      "type": "function"
    },
    {
      "inputs": [
        {
          "internalType": "address",
          "name": "_iigOwner",
          "type": "address"
        },
        {
          "internalType": "address",
          "name": "_studentOwner",
          "type": "address"
        }
      ],
      "name": "getListRequestStudent",
      "outputs": [
        {
          "internalType": "bytes4[]",
          "name": "",
          "type": "bytes4[]"
        },
        {
          "internalType": "address[]",
          "name": "",
          "type": "address[]"
        },
        {
          "internalType": "address[]",
          "name": "",
          "type": "address[]"
        },
        {
          "internalType": "string[]",
          "name": "",
          "type": "string[]"
        },
        {
          "internalType": "string[]",
          "name": "",
          "type": "string[]"
        },
        {
          "internalType": "string[]",
          "name": "",
          "type": "string[]"
        }
      ],
      "stateMutability": "view",
      "type": "function"
    },
    {
      "inputs": [
        {
          "internalType": "address",
          "name": "_studentOwner",
          "type": "address"
        },
        {
          "internalType": "address",
          "name": "_iigOwner",
          "type": "address"
        }
      ],
      "name": "checkRequest",
      "outputs": [
        {
          "internalType": "uint256",
          "name": "x",
          "type": "uint256"
        }
      ],
      "stateMutability": "view",
      "type": "function"
    },
    {
      "inputs": [
        {
          "internalType": "address",
          "name": "_studentOwner",
          "type": "address"
        },
        {
          "internalType": "address",
          "name": "_iigOwner",
          "type": "address"
        },
        {
          "internalType": "bytes4",
          "name": "_codeRequest",
          "type": "bytes4"
        },
        {
          "internalType": "string",
          "name": "_statusRequest",
          "type": "string"
        }
      ],
      "name": "confirmRequest",
      "outputs": [],
      "stateMutability": "nonpayable",
      "type": "function"
    },
    {
      "inputs": [
        {
          "internalType": "address",
          "name": "_studentOwner",
          "type": "address"
        },
        {
          "internalType": "string",
          "name": "_testDate",
          "type": "string"
        },
        {
          "internalType": "string",
          "name": "_shiftTest",
          "type": "string"
        },
        {
          "internalType": "string",
          "name": "_expireDate",
          "type": "string"
        },
        {
          "internalType": "uint256",
          "name": "_listeningScore",
          "type": "uint256"
        },
        {
          "internalType": "uint256",
          "name": "_readingScore",
          "type": "uint256"
        }
      ],
      "name": "addLRResult",
      "outputs": [],
      "stateMutability": "nonpayable",
      "type": "function"
    },
    {
      "inputs": [
        {
          "internalType": "address",
          "name": "_iigOwner",
          "type": "address"
        },
        {
          "internalType": "address",
          "name": "_studentOwner",
          "type": "address"
        }
      ],
      "name": "getListLRResult",
      "outputs": [
        {
          "internalType": "string[]",
          "name": "",
          "type": "string[]"
        },
        {
          "internalType": "string[]",
          "name": "",
          "type": "string[]"
        },
        {
          "internalType": "string[]",
          "name": "",
          "type": "string[]"
        },
        {
          "internalType": "uint256[]",
          "name": "",
          "type": "uint256[]"
        },
        {
          "internalType": "uint256[]",
          "name": "",
          "type": "uint256[]"
        },
        {
          "internalType": "uint256[]",
          "name": "",
          "type": "uint256[]"
        }
      ],
      "stateMutability": "view",
      "type": "function"
    },
    {
      "inputs": [
        {
          "internalType": "address",
          "name": "_iigOwner",
          "type": "address"
        },
        {
          "internalType": "address",
          "name": "_studentOwner",
          "type": "address"
        },
        {
          "internalType": "string",
          "name": "_testDate",
          "type": "string"
        },
        {
          "internalType": "string",
          "name": "_shiftTest",
          "type": "string"
        }
      ],
      "name": "getLRResult",
      "outputs": [
        {
          "internalType": "string",
          "name": "testDate",
          "type": "string"
        },
        {
          "internalType": "string",
          "name": "shiftTest",
          "type": "string"
        },
        {
          "internalType": "string",
          "name": "expireDate",
          "type": "string"
        },
        {
          "internalType": "uint256",
          "name": "listeningScore",
          "type": "uint256"
        },
        {
          "internalType": "uint256",
          "name": "readingScore",
          "type": "uint256"
        },
        {
          "internalType": "uint256",
          "name": "totalScore",
          "type": "uint256"
        }
      ],
      "stateMutability": "view",
      "type": "function"
    },
    {
      "inputs": [
        {
          "internalType": "address",
          "name": "_studentOwner",
          "type": "address"
        },
        {
          "internalType": "string",
          "name": "_testDate",
          "type": "string"
        },
        {
          "internalType": "string",
          "name": "_shiftTest",
          "type": "string"
        }
      ],
      "name": "checkExistLRResult",
      "outputs": [
        {
          "internalType": "uint256",
          "name": "x",
          "type": "uint256"
        }
      ],
      "stateMutability": "view",
      "type": "function"
    },
    {
      "inputs": [
        {
          "internalType": "address",
          "name": "_studentOwner",
          "type": "address"
        },
        {
          "internalType": "string",
          "name": "_testDate",
          "type": "string"
        },
        {
          "internalType": "string",
          "name": "_shiftTest",
          "type": "string"
        },
        {
          "internalType": "string",
          "name": "_expireDate",
          "type": "string"
        },
        {
          "internalType": "uint256",
          "name": "_speakingScore",
          "type": "uint256"
        },
        {
          "internalType": "uint256",
          "name": "_writingScore",
          "type": "uint256"
        }
      ],
      "name": "addSWResult",
      "outputs": [],
      "stateMutability": "nonpayable",
      "type": "function"
    },
    {
      "inputs": [
        {
          "internalType": "address",
          "name": "_iigOwner",
          "type": "address"
        },
        {
          "internalType": "address",
          "name": "_studentOwner",
          "type": "address"
        }
      ],
      "name": "getListSWResult",
      "outputs": [
        {
          "internalType": "string[]",
          "name": "",
          "type": "string[]"
        },
        {
          "internalType": "string[]",
          "name": "",
          "type": "string[]"
        },
        {
          "internalType": "string[]",
          "name": "",
          "type": "string[]"
        },
        {
          "internalType": "uint256[]",
          "name": "",
          "type": "uint256[]"
        },
        {
          "internalType": "uint256[]",
          "name": "",
          "type": "uint256[]"
        },
        {
          "internalType": "uint256[]",
          "name": "",
          "type": "uint256[]"
        }
      ],
      "stateMutability": "view",
      "type": "function"
    },
    {
      "inputs": [
        {
          "internalType": "address",
          "name": "_iigOwner",
          "type": "address"
        },
        {
          "internalType": "address",
          "name": "_studentOwner",
          "type": "address"
        },
        {
          "internalType": "string",
          "name": "_testDate",
          "type": "string"
        },
        {
          "internalType": "string",
          "name": "_shiftTest",
          "type": "string"
        }
      ],
      "name": "getSWResult",
      "outputs": [
        {
          "internalType": "string",
          "name": "testDate",
          "type": "string"
        },
        {
          "internalType": "string",
          "name": "shiftTest",
          "type": "string"
        },
        {
          "internalType": "string",
          "name": "expireDate",
          "type": "string"
        },
        {
          "internalType": "uint256",
          "name": "speakingScore",
          "type": "uint256"
        },
        {
          "internalType": "uint256",
          "name": "writingScore",
          "type": "uint256"
        },
        {
          "internalType": "uint256",
          "name": "totalScore",
          "type": "uint256"
        }
      ],
      "stateMutability": "view",
      "type": "function"
    },
    {
      "inputs": [
        {
          "internalType": "address",
          "name": "_studentOwner",
          "type": "address"
        },
        {
          "internalType": "string",
          "name": "_testDate",
          "type": "string"
        },
        {
          "internalType": "string",
          "name": "_shiftTest",
          "type": "string"
        }
      ],
      "name": "checkExistSWResult",
      "outputs": [
        {
          "internalType": "uint256",
          "name": "x",
          "type": "uint256"
        }
      ],
      "stateMutability": "view",
      "type": "function"
    }
  ],
  "bytecode": "0x608060405234801561001057600080fd5b50616c8f80620000216000396000f3fe608060405234801561001057600080fd5b506004361061014d5760003560e01c80634b38f2db116100c3578063a9846eb01161007c578063a9846eb014610466578063ac97812f1461049e578063b351d176146104d3578063bc72af7d146104ef578063d723920514610524578063dd8f3edc146105405761014d565b80634b38f2db146103705780636cf871df146103a55780637829b41e146103c157806384ae9131146103f1578063948195ed146104155780639fa7247a146104315761014d565b80630c3f9882116101155780630c3f9882146102395780630f53a4701461026e57806324e66037146102a3578063323cc7c5146102d357806344fd6e221461030857806349f47a55146103385761014d565b8063018d934a146101525780630265275c1461018257806306ed1e89146101b257806309bef62a146101e75780630b59f5b71461021d575b600080fd5b61016c600480360381019061016791906155d0565b61055c565b6040516101799190615629565b60405180910390f35b61019c6004803603810190610197919061578a565b61070b565b6040516101a99190615629565b60405180910390f35b6101cc60048036038101906101c791906155d0565b610843565b6040516101de96959493929190615a1d565b60405180910390f35b61020160048036038101906101fc9190615ad4565b610eb6565b6040516102149796959493929190615b5a565b60405180910390f35b61023760048036038101906102329190615bf3565b611258565b005b610253600480360381019061024e91906155d0565b6115b5565b60405161026596959493929190615e7c565b60405180910390f35b61028860048036038101906102839190615f07565b611d11565b60405161029a96959493929190615f34565b60405180910390f35b6102bd60048036038101906102b89190615fb8565b61218f565b6040516102ca9190615629565b60405180910390f35b6102ed60048036038101906102e89190615ad4565b61228d565b6040516102ff96959493929190616023565b60405180910390f35b610322600480360381019061031d9190615f07565b6124be565b60405161032f9190615629565b60405180910390f35b610352600480360381019061034d9190615ad4565b612570565b60405161036799989796959493929190616099565b60405180910390f35b61038a6004803603810190610385919061613b565b6127b3565b60405161039c969594939291906161da565b60405180910390f35b6103bf60048036038101906103ba9190616250565b612c02565b005b6103db60048036038101906103d6919061578a565b612dca565b6040516103e89190615629565b60405180910390f35b6103f9612f02565b60405161040c9796959493929190616369565b60405180910390f35b61042f600480360381019061042a919061613b565b613706565b005b61044b60048036038101906104469190615f07565b613961565b60405161045d96959493929190615e7c565b60405180910390f35b610480600480360381019061047b9190615ad4565b614040565b60405161049599989796959493929190616099565b60405180910390f35b6104b860048036038101906104b3919061613b565b614283565b6040516104ca969594939291906161da565b60405180910390f35b6104ed60048036038101906104e89190616435565b6146d2565b005b610509600480360381019061050491906155d0565b614979565b60405161051b96959493929190615a1d565b60405180910390f35b61053e60048036038101906105399190615bf3565b614fec565b005b61055a600480360381019061055591906164b8565b615347565b005b600080600090505b600180549050811015610703578373ffffffffffffffffffffffffffffffffffffffff166001828154811061059c5761059b616602565b5b906000526020600020906005020160000160049054906101000a900473ffffffffffffffffffffffffffffffffffffffff1673ffffffffffffffffffffffffffffffffffffffff1614801561066157508273ffffffffffffffffffffffffffffffffffffffff166001828154811061061757610616616602565b5b906000526020600020906005020160010160009054906101000a900473ffffffffffffffffffffffffffffffffffffffff1673ffffffffffffffffffffffffffffffffffffffff16145b80156106e157506040518060400160405280600781526020017f57616974696e670000000000000000000000000000000000000000000000000081525080519060200120600182815481106106b9576106b8616602565b5b90600052602060002090600502016004016040516106d79190616731565b6040518091039020145b156106f0576001915050610705565b80806106fb90616777565b915050610564565b505b92915050565b600080600090505b60028054905081101561083a578473ffffffffffffffffffffffffffffffffffffffff166002828154811061074b5761074a616602565b5b906000526020600020906008020160010160009054906101000a900473ffffffffffffffffffffffffffffffffffffffff1673ffffffffffffffffffffffffffffffffffffffff16148015610818575083836040516020016107ae9291906167fc565b60405160208183030381529060405280519060200120600282815481106107d8576107d7616602565b5b906000526020600020906008020160000160009054906101000a900460e01b7bffffffffffffffffffffffffffffffffffffffffffffffffffffffff1916145b1561082757600191505061083c565b808061083290616777565b915050610713565b505b9392505050565b606080606080606080600060038054905067ffffffffffffffff81111561086d5761086c61565f565b5b6040519080825280602002602001820160405280156108a057816020015b606081526020019060019003908161088b5790505b509050600060038054905067ffffffffffffffff8111156108c4576108c361565f565b5b6040519080825280602002602001820160405280156108f757816020015b60608152602001906001900390816108e25790505b509050600060038054905067ffffffffffffffff81111561091b5761091a61565f565b5b60405190808252806020026020018201604052801561094e57816020015b60608152602001906001900390816109395790505b509050600060038054905067ffffffffffffffff8111156109725761097161565f565b5b6040519080825280602002602001820160405280156109a05781602001602082028036833780820191505090505b509050600060038054905067ffffffffffffffff8111156109c4576109c361565f565b5b6040519080825280602002602001820160405280156109f25781602001602082028036833780820191505090505b509050600060038054905067ffffffffffffffff811115610a1657610a1561565f565b5b604051908082528060200260200182016040528015610a445781602001602082028036833780820191505090505b50905060005b600380549050811015610e93578e73ffffffffffffffffffffffffffffffffffffffff1660028281548110610a8257610a81616602565b5b906000526020600020906008020160000160049054906101000a900473ffffffffffffffffffffffffffffffffffffffff1673ffffffffffffffffffffffffffffffffffffffff16148015610b4757508d73ffffffffffffffffffffffffffffffffffffffff1660028281548110610afd57610afc616602565b5b906000526020600020906008020160010160009054906101000a900473ffffffffffffffffffffffffffffffffffffffff1673ffffffffffffffffffffffffffffffffffffffff16145b15610e805760038181548110610b6057610b5f616602565b5b90600052602060002090600802016002018054610b7c90616660565b80601f0160208091040260200160405190810160405280929190818152602001828054610ba890616660565b8015610bf55780601f10610bca57610100808354040283529160200191610bf5565b820191906000526020600020905b815481529060010190602001808311610bd857829003601f168201915b5050505050878281518110610c0d57610c0c616602565b5b602002602001018190525060038181548110610c2c57610c2b616602565b5b90600052602060002090600802016003018054610c4890616660565b80601f0160208091040260200160405190810160405280929190818152602001828054610c7490616660565b8015610cc15780601f10610c9657610100808354040283529160200191610cc1565b820191906000526020600020905b815481529060010190602001808311610ca457829003601f168201915b5050505050868281518110610cd957610cd8616602565b5b602002602001018190525060038181548110610cf857610cf7616602565b5b90600052602060002090600802016004018054610d1490616660565b80601f0160208091040260200160405190810160405280929190818152602001828054610d4090616660565b8015610d8d5780601f10610d6257610100808354040283529160200191610d8d565b820191906000526020600020905b815481529060010190602001808311610d7057829003601f168201915b5050505050858281518110610da557610da4616602565b5b602002602001018190525060038181548110610dc457610dc3616602565b5b906000526020600020906008020160050154848281518110610de957610de8616602565b5b60200260200101818152505060038181548110610e0957610e08616602565b5b906000526020600020906008020160060154838281518110610e2e57610e2d616602565b5b60200260200101818152505060038181548110610e4e57610e4d616602565b5b906000526020600020906008020160070154828281518110610e7357610e72616602565b5b6020026020010181815250505b8080610e8b90616777565b915050610a4a565b508585858585859b509b509b509b509b509b505050505050509295509295509295565b60008181548110610ec657600080fd5b90600052602060002090600702016000915090508060000160009054906101000a900473ffffffffffffffffffffffffffffffffffffffff1690806001018054610f0f90616660565b80601f0160208091040260200160405190810160405280929190818152602001828054610f3b90616660565b8015610f885780601f10610f5d57610100808354040283529160200191610f88565b820191906000526020600020905b815481529060010190602001808311610f6b57829003601f168201915b505050505090806002018054610f9d90616660565b80601f0160208091040260200160405190810160405280929190818152602001828054610fc990616660565b80156110165780601f10610feb57610100808354040283529160200191611016565b820191906000526020600020905b815481529060010190602001808311610ff957829003601f168201915b50505050509080600301805461102b90616660565b80601f016020809104026020016040519081016040528092919081815260200182805461105790616660565b80156110a45780601f10611079576101008083540402835291602001916110a4565b820191906000526020600020905b81548152906001019060200180831161108757829003601f168201915b5050505050908060040180546110b990616660565b80601f01602080910402602001604051908101604052809291908181526020018280546110e590616660565b80156111325780601f1061110757610100808354040283529160200191611132565b820191906000526020600020905b81548152906001019060200180831161111557829003601f168201915b50505050509080600501805461114790616660565b80601f016020809104026020016040519081016040528092919081815260200182805461117390616660565b80156111c05780601f10611195576101008083540402835291602001916111c0565b820191906000526020600020905b8154815290600101906020018083116111a357829003601f168201915b5050505050908060060180546111d590616660565b80601f016020809104026020016040519081016040528092919081815260200182805461120190616660565b801561124e5780601f106112235761010080835404028352916020019161124e565b820191906000526020600020905b81548152906001019060200180831161123157829003601f168201915b5050505050905087565b60003390506001611268826124be565b146112a8576040517f08c379a000000000000000000000000000000000000000000000000000000000815260040161129f9061686c565b60405180910390fd5b60006112b588888861070b565b146112f5576040517f08c379a00000000000000000000000000000000000000000000000000000000081526004016112ec906168d8565b60405180910390fd5b6000831015801561130857506101ef8311155b611347576040517f08c379a000000000000000000000000000000000000000000000000000000000815260040161133e90616944565b60405180910390fd5b6000821015801561135a57506101ef8211155b611399576040517f08c379a0000000000000000000000000000000000000000000000000000000008152600401611390906169b0565b60405180910390fd5b600260405180610120016040528088886040516020016113ba9291906167fc565b604051602081830303815290604052805190602001207bffffffffffffffffffffffffffffffffffffffffffffffffffffffff191681526020018373ffffffffffffffffffffffffffffffffffffffff1681526020018973ffffffffffffffffffffffffffffffffffffffff168152602001888152602001878152602001868152602001858152602001848152602001848661145691906169d0565b815250908060018154018082558091505060019003906000526020600020906008020160009091909190915060008201518160000160006101000a81548163ffffffff021916908360e01c021790555060208201518160000160046101000a81548173ffffffffffffffffffffffffffffffffffffffff021916908373ffffffffffffffffffffffffffffffffffffffff16021790555060408201518160010160006101000a81548173ffffffffffffffffffffffffffffffffffffffff021916908373ffffffffffffffffffffffffffffffffffffffff16021790555060608201518160020190805190602001906115509291906154bb565b50608082015181600301908051906020019061156d9291906154bb565b5060a082015181600401908051906020019061158a9291906154bb565b5060c0820151816005015560e082015181600601556101008201518160070155505050505050505050565b606080606080606080600060018054905067ffffffffffffffff8111156115df576115de61565f565b5b60405190808252806020026020018201604052801561160d5781602001602082028036833780820191505090505b509050600060018054905067ffffffffffffffff8111156116315761163061565f565b5b60405190808252806020026020018201604052801561165f5781602001602082028036833780820191505090505b509050600060018054905067ffffffffffffffff8111156116835761168261565f565b5b6040519080825280602002602001820160405280156116b15781602001602082028036833780820191505090505b509050600060018054905067ffffffffffffffff8111156116d5576116d461565f565b5b60405190808252806020026020018201604052801561170857816020015b60608152602001906001900390816116f35790505b509050600060018054905067ffffffffffffffff81111561172c5761172b61565f565b5b60405190808252806020026020018201604052801561175f57816020015b606081526020019060019003908161174a5790505b509050600060018054905067ffffffffffffffff8111156117835761178261565f565b5b6040519080825280602002602001820160405280156117b657816020015b60608152602001906001900390816117a15790505b50905060005b600180549050811015611cee578e73ffffffffffffffffffffffffffffffffffffffff16600182815481106117f4576117f3616602565b5b906000526020600020906005020160010160009054906101000a900473ffffffffffffffffffffffffffffffffffffffff1673ffffffffffffffffffffffffffffffffffffffff161480156118b957508d73ffffffffffffffffffffffffffffffffffffffff166001828154811061186f5761186e616602565b5b906000526020600020906005020160000160049054906101000a900473ffffffffffffffffffffffffffffffffffffffff1673ffffffffffffffffffffffffffffffffffffffff16145b15611cdb57600181815481106118d2576118d1616602565b5b906000526020600020906005020160000160009054906101000a900460e01b87828151811061190457611903616602565b5b60200260200101907bffffffffffffffffffffffffffffffffffffffffffffffffffffffff191690817bffffffffffffffffffffffffffffffffffffffffffffffffffffffff1916815250506001818154811061196457611963616602565b5b906000526020600020906005020160000160049054906101000a900473ffffffffffffffffffffffffffffffffffffffff168682815181106119a9576119a8616602565b5b602002602001019073ffffffffffffffffffffffffffffffffffffffff16908173ffffffffffffffffffffffffffffffffffffffff1681525050600181815481106119f7576119f6616602565b5b906000526020600020906005020160010160009054906101000a900473ffffffffffffffffffffffffffffffffffffffff16858281518110611a3c57611a3b616602565b5b602002602001019073ffffffffffffffffffffffffffffffffffffffff16908173ffffffffffffffffffffffffffffffffffffffff168152505060018181548110611a8a57611a89616602565b5b90600052602060002090600502016002018054611aa690616660565b80601f0160208091040260200160405190810160405280929190818152602001828054611ad290616660565b8015611b1f5780601f10611af457610100808354040283529160200191611b1f565b820191906000526020600020905b815481529060010190602001808311611b0257829003601f168201915b5050505050848281518110611b3757611b36616602565b5b602002602001018190525060018181548110611b5657611b55616602565b5b90600052602060002090600502016003018054611b7290616660565b80601f0160208091040260200160405190810160405280929190818152602001828054611b9e90616660565b8015611beb5780601f10611bc057610100808354040283529160200191611beb565b820191906000526020600020905b815481529060010190602001808311611bce57829003601f168201915b5050505050838281518110611c0357611c02616602565b5b602002602001018190525060018181548110611c2257611c21616602565b5b90600052602060002090600502016004018054611c3e90616660565b80601f0160208091040260200160405190810160405280929190818152602001828054611c6a90616660565b8015611cb75780601f10611c8c57610100808354040283529160200191611cb7565b820191906000526020600020905b815481529060010190602001808311611c9a57829003601f168201915b5050505050828281518110611ccf57611cce616602565b5b60200260200101819052505b8080611ce690616777565b9150506117bc565b508585858585859b509b509b509b509b509b505050505050509295509295509295565b6000606080606080606060005b600080549050811015612184578773ffffffffffffffffffffffffffffffffffffffff1660008281548110611d5657611d55616602565b5b906000526020600020906007020160000160009054906101000a900473ffffffffffffffffffffffffffffffffffffffff1673ffffffffffffffffffffffffffffffffffffffff1614156121715760008181548110611db857611db7616602565b5b906000526020600020906007020160000160009054906101000a900473ffffffffffffffffffffffffffffffffffffffff1660008281548110611dfe57611dfd616602565b5b906000526020600020906007020160010160008381548110611e2357611e22616602565b5b906000526020600020906007020160020160008481548110611e4857611e47616602565b5b906000526020600020906007020160030160008581548110611e6d57611e6c616602565b5b906000526020600020906007020160040160008681548110611e9257611e91616602565b5b9060005260206000209060070201600501848054611eaf90616660565b80601f0160208091040260200160405190810160405280929190818152602001828054611edb90616660565b8015611f285780601f10611efd57610100808354040283529160200191611f28565b820191906000526020600020905b815481529060010190602001808311611f0b57829003601f168201915b50505050509450838054611f3b90616660565b80601f0160208091040260200160405190810160405280929190818152602001828054611f6790616660565b8015611fb45780601f10611f8957610100808354040283529160200191611fb4565b820191906000526020600020905b815481529060010190602001808311611f9757829003601f168201915b50505050509350828054611fc790616660565b80601f0160208091040260200160405190810160405280929190818152602001828054611ff390616660565b80156120405780601f1061201557610100808354040283529160200191612040565b820191906000526020600020905b81548152906001019060200180831161202357829003601f168201915b5050505050925081805461205390616660565b80601f016020809104026020016040519081016040528092919081815260200182805461207f90616660565b80156120cc5780601f106120a1576101008083540402835291602001916120cc565b820191906000526020600020905b8154815290600101906020018083116120af57829003601f168201915b505050505091508080546120df90616660565b80601f016020809104026020016040519081016040528092919081815260200182805461210b90616660565b80156121585780601f1061212d57610100808354040283529160200191612158565b820191906000526020600020905b81548152906001019060200180831161213b57829003601f168201915b5050505050905096509650965096509650965050612186565b808061217c90616777565b915050611d1e565b505b91939550919395565b600080600090505b600080549050811015612285578373ffffffffffffffffffffffffffffffffffffffff16600082815481106121cf576121ce616602565b5b906000526020600020906007020160000160009054906101000a900473ffffffffffffffffffffffffffffffffffffffff1673ffffffffffffffffffffffffffffffffffffffff16148015612263575082805190602001206000828154811061223b5761223a616602565b5b90600052602060002090600702016006016040516122599190616731565b6040518091039020145b15612272576001915050612287565b808061227d90616777565b915050612197565b505b92915050565b6001818154811061229d57600080fd5b90600052602060002090600502016000915090508060000160009054906101000a900460e01b908060000160049054906101000a900473ffffffffffffffffffffffffffffffffffffffff16908060010160009054906101000a900473ffffffffffffffffffffffffffffffffffffffff169080600201805461231f90616660565b80601f016020809104026020016040519081016040528092919081815260200182805461234b90616660565b80156123985780601f1061236d57610100808354040283529160200191612398565b820191906000526020600020905b81548152906001019060200180831161237b57829003601f168201915b5050505050908060030180546123ad90616660565b80601f01602080910402602001604051908101604052809291908181526020018280546123d990616660565b80156124265780601f106123fb57610100808354040283529160200191612426565b820191906000526020600020905b81548152906001019060200180831161240957829003601f168201915b50505050509080600401805461243b90616660565b80601f016020809104026020016040519081016040528092919081815260200182805461246790616660565b80156124b45780601f10612489576101008083540402835291602001916124b4565b820191906000526020600020905b81548152906001019060200180831161249757829003601f168201915b5050505050905086565b600080600090505b600080549050811015612569578273ffffffffffffffffffffffffffffffffffffffff16600082815481106124fe576124fd616602565b5b906000526020600020906007020160000160009054906101000a900473ffffffffffffffffffffffffffffffffffffffff1673ffffffffffffffffffffffffffffffffffffffff16141561255657600191505061256b565b808061256190616777565b9150506124c6565b505b919050565b6003818154811061258057600080fd5b90600052602060002090600802016000915090508060000160009054906101000a900460e01b908060000160049054906101000a900473ffffffffffffffffffffffffffffffffffffffff16908060010160009054906101000a900473ffffffffffffffffffffffffffffffffffffffff169080600201805461260290616660565b80601f016020809104026020016040519081016040528092919081815260200182805461262e90616660565b801561267b5780601f106126505761010080835404028352916020019161267b565b820191906000526020600020905b81548152906001019060200180831161265e57829003601f168201915b50505050509080600301805461269090616660565b80601f01602080910402602001604051908101604052809291908181526020018280546126bc90616660565b80156127095780601f106126de57610100808354040283529160200191612709565b820191906000526020600020905b8154815290600101906020018083116126ec57829003601f168201915b50505050509080600401805461271e90616660565b80601f016020809104026020016040519081016040528092919081815260200182805461274a90616660565b80156127975780601f1061276c57610100808354040283529160200191612797565b820191906000526020600020905b81548152906001019060200180831161277a57829003601f168201915b5050505050908060050154908060060154908060070154905089565b6060806060600080600080600090505b600380549050811015612bf3578a73ffffffffffffffffffffffffffffffffffffffff16600382815481106127fb576127fa616602565b5b906000526020600020906008020160000160049054906101000a900473ffffffffffffffffffffffffffffffffffffffff1673ffffffffffffffffffffffffffffffffffffffff161480156128c057508973ffffffffffffffffffffffffffffffffffffffff166003828154811061287657612875616602565b5b906000526020600020906008020160010160009054906101000a900473ffffffffffffffffffffffffffffffffffffffff1673ffffffffffffffffffffffffffffffffffffffff16145b8015612944575088886040516020016128da9291906167fc565b604051602081830303815290604052805190602001206003828154811061290457612903616602565b5b906000526020600020906008020160000160009054906101000a900460e01b7bffffffffffffffffffffffffffffffffffffffffffffffffffffffff1916145b15612be0576003818154811061295d5761295c616602565b5b90600052602060002090600802016002016003828154811061298257612981616602565b5b9060005260206000209060080201600301600383815481106129a7576129a6616602565b5b9060005260206000209060080201600401600384815481106129cc576129cb616602565b5b906000526020600020906008020160050154600385815481106129f2576129f1616602565b5b90600052602060002090600802016006015460038681548110612a1857612a17616602565b5b906000526020600020906008020160070154858054612a3690616660565b80601f0160208091040260200160405190810160405280929190818152602001828054612a6290616660565b8015612aaf5780601f10612a8457610100808354040283529160200191612aaf565b820191906000526020600020905b815481529060010190602001808311612a9257829003601f168201915b50505050509550848054612ac290616660565b80601f0160208091040260200160405190810160405280929190818152602001828054612aee90616660565b8015612b3b5780601f10612b1057610100808354040283529160200191612b3b565b820191906000526020600020905b815481529060010190602001808311612b1e57829003601f168201915b50505050509450838054612b4e90616660565b80601f0160208091040260200160405190810160405280929190818152602001828054612b7a90616660565b8015612bc75780601f10612b9c57610100808354040283529160200191612bc7565b820191906000526020600020905b815481529060010190602001808311612baa57829003601f168201915b5050505050935096509650965096509650965050612bf5565b8080612beb90616777565b9150506127c3565b505b9499939850945094509450565b60005b600080549050811015612dc1578673ffffffffffffffffffffffffffffffffffffffff1660008281548110612c3d57612c3c616602565b5b906000526020600020906007020160000160009054906101000a900473ffffffffffffffffffffffffffffffffffffffff1673ffffffffffffffffffffffffffffffffffffffff161415612dae578560008281548110612ca057612c9f616602565b5b90600052602060002090600702016001019080519060200190612cc49291906154bb565b508460008281548110612cda57612cd9616602565b5b90600052602060002090600702016002019080519060200190612cfe9291906154bb565b508360008281548110612d1457612d13616602565b5b90600052602060002090600702016003019080519060200190612d389291906154bb565b508260008281548110612d4e57612d4d616602565b5b90600052602060002090600702016004019080519060200190612d729291906154bb565b508160008281548110612d8857612d87616602565b5b90600052602060002090600702016005019080519060200190612dac9291906154bb565b505b8080612db990616777565b915050612c05565b50505050505050565b600080600090505b600380549050811015612ef9578473ffffffffffffffffffffffffffffffffffffffff1660028281548110612e0a57612e09616602565b5b906000526020600020906008020160010160009054906101000a900473ffffffffffffffffffffffffffffffffffffffff1673ffffffffffffffffffffffffffffffffffffffff16148015612ed757508383604051602001612e6d9291906167fc565b6040516020818303038152906040528051906020012060028281548110612e9757612e96616602565b5b906000526020600020906008020160000160009054906101000a900460e01b7bffffffffffffffffffffffffffffffffffffffffffffffffffffffff1916145b15612ee6576001915050612efb565b8080612ef190616777565b915050612dd2565b505b9392505050565b60608060608060608060606000808054905067ffffffffffffffff811115612f2d57612f2c61565f565b5b604051908082528060200260200182016040528015612f5b5781602001602082028036833780820191505090505b5090506000808054905067ffffffffffffffff811115612f7e57612f7d61565f565b5b604051908082528060200260200182016040528015612fb157816020015b6060815260200190600190039081612f9c5790505b5090506000808054905067ffffffffffffffff811115612fd457612fd361565f565b5b60405190808252806020026020018201604052801561300757816020015b6060815260200190600190039081612ff25790505b5090506000808054905067ffffffffffffffff81111561302a5761302961565f565b5b60405190808252806020026020018201604052801561305d57816020015b60608152602001906001900390816130485790505b5090506000808054905067ffffffffffffffff8111156130805761307f61565f565b5b6040519080825280602002602001820160405280156130b357816020015b606081526020019060019003908161309e5790505b5090506000808054905067ffffffffffffffff8111156130d6576130d561565f565b5b60405190808252806020026020018201604052801561310957816020015b60608152602001906001900390816130f45790505b5090506000808054905067ffffffffffffffff81111561312c5761312b61565f565b5b60405190808252806020026020018201604052801561315f57816020015b606081526020019060019003908161314a5790505b50905060005b6000805490508110156136e0576000818154811061318657613185616602565b5b906000526020600020906007020160000160009054906101000a900473ffffffffffffffffffffffffffffffffffffffff168882815181106131cb576131ca616602565b5b602002602001019073ffffffffffffffffffffffffffffffffffffffff16908173ffffffffffffffffffffffffffffffffffffffff16815250506000818154811061321957613218616602565b5b9060005260206000209060070201600101805461323590616660565b80601f016020809104026020016040519081016040528092919081815260200182805461326190616660565b80156132ae5780601f10613283576101008083540402835291602001916132ae565b820191906000526020600020905b81548152906001019060200180831161329157829003601f168201915b50505050508782815181106132c6576132c5616602565b5b6020026020010181905250600081815481106132e5576132e4616602565b5b9060005260206000209060070201600201805461330190616660565b80601f016020809104026020016040519081016040528092919081815260200182805461332d90616660565b801561337a5780601f1061334f5761010080835404028352916020019161337a565b820191906000526020600020905b81548152906001019060200180831161335d57829003601f168201915b505050505086828151811061339257613391616602565b5b6020026020010181905250600081815481106133b1576133b0616602565b5b906000526020600020906007020160030180546133cd90616660565b80601f01602080910402602001604051908101604052809291908181526020018280546133f990616660565b80156134465780601f1061341b57610100808354040283529160200191613446565b820191906000526020600020905b81548152906001019060200180831161342957829003601f168201915b505050505085828151811061345e5761345d616602565b5b60200260200101819052506000818154811061347d5761347c616602565b5b9060005260206000209060070201600401805461349990616660565b80601f01602080910402602001604051908101604052809291908181526020018280546134c590616660565b80156135125780601f106134e757610100808354040283529160200191613512565b820191906000526020600020905b8154815290600101906020018083116134f557829003601f168201915b505050505084828151811061352a57613529616602565b5b60200260200101819052506000818154811061354957613548616602565b5b9060005260206000209060070201600501805461356590616660565b80601f016020809104026020016040519081016040528092919081815260200182805461359190616660565b80156135de5780601f106135b3576101008083540402835291602001916135de565b820191906000526020600020905b8154815290600101906020018083116135c157829003601f168201915b50505050508382815181106135f6576135f5616602565b5b60200260200101819052506000818154811061361557613614616602565b5b9060005260206000209060070201600601805461363190616660565b80601f016020809104026020016040519081016040528092919081815260200182805461365d90616660565b80156136aa5780601f1061367f576101008083540402835291602001916136aa565b820191906000526020600020905b81548152906001019060200180831161368d57829003601f168201915b50505050508282815181106136c2576136c1616602565b5b602002602001018190525080806136d890616777565b915050613165565b50868686868686869d509d509d509d509d509d509d505050505050505090919293949596565b6000613712858561055c565b14613752576040517f08c379a000000000000000000000000000000000000000000000000000000000815260040161374990616a72565b60405180910390fd5b60016040518060c00160405280836040516020016137709190616a92565b604051602081830303815290604052805190602001207bffffffffffffffffffffffffffffffffffffffffffffffffffffffff191681526020018673ffffffffffffffffffffffffffffffffffffffff1681526020018573ffffffffffffffffffffffffffffffffffffffff1681526020018481526020018381526020016040518060400160405280600781526020017f57616974696e6700000000000000000000000000000000000000000000000000815250815250908060018154018082558091505060019003906000526020600020906005020160009091909190915060008201518160000160006101000a81548163ffffffff021916908360e01c021790555060208201518160000160046101000a81548173ffffffffffffffffffffffffffffffffffffffff021916908373ffffffffffffffffffffffffffffffffffffffff16021790555060408201518160010160006101000a81548173ffffffffffffffffffffffffffffffffffffffff021916908373ffffffffffffffffffffffffffffffffffffffff160217905550606082015181600201908051906020019061391e9291906154bb565b50608082015181600301908051906020019061393b9291906154bb565b5060a08201518160040190805190602001906139589291906154bb565b50505050505050565b606080606080606080600060018054905067ffffffffffffffff81111561398b5761398a61565f565b5b6040519080825280602002602001820160405280156139b95781602001602082028036833780820191505090505b509050600060018054905067ffffffffffffffff8111156139dd576139dc61565f565b5b604051908082528060200260200182016040528015613a0b5781602001602082028036833780820191505090505b509050600060018054905067ffffffffffffffff811115613a2f57613a2e61565f565b5b604051908082528060200260200182016040528015613a5d5781602001602082028036833780820191505090505b509050600060018054905067ffffffffffffffff811115613a8157613a8061565f565b5b604051908082528060200260200182016040528015613ab457816020015b6060815260200190600190039081613a9f5790505b509050600060018054905067ffffffffffffffff811115613ad857613ad761565f565b5b604051908082528060200260200182016040528015613b0b57816020015b6060815260200190600190039081613af65790505b509050600060018054905067ffffffffffffffff811115613b2f57613b2e61565f565b5b604051908082528060200260200182016040528015613b6257816020015b6060815260200190600190039081613b4d5790505b50905060005b60018054905081101561401e578d73ffffffffffffffffffffffffffffffffffffffff1660018281548110613ba057613b9f616602565b5b906000526020600020906005020160010160009054906101000a900473ffffffffffffffffffffffffffffffffffffffff1673ffffffffffffffffffffffffffffffffffffffff16141561400b5760018181548110613c0257613c01616602565b5b906000526020600020906005020160000160009054906101000a900460e01b878281518110613c3457613c33616602565b5b60200260200101907bffffffffffffffffffffffffffffffffffffffffffffffffffffffff191690817bffffffffffffffffffffffffffffffffffffffffffffffffffffffff19168152505060018181548110613c9457613c93616602565b5b906000526020600020906005020160000160049054906101000a900473ffffffffffffffffffffffffffffffffffffffff16868281518110613cd957613cd8616602565b5b602002602001019073ffffffffffffffffffffffffffffffffffffffff16908173ffffffffffffffffffffffffffffffffffffffff168152505060018181548110613d2757613d26616602565b5b906000526020600020906005020160010160009054906101000a900473ffffffffffffffffffffffffffffffffffffffff16858281518110613d6c57613d6b616602565b5b602002602001019073ffffffffffffffffffffffffffffffffffffffff16908173ffffffffffffffffffffffffffffffffffffffff168152505060018181548110613dba57613db9616602565b5b90600052602060002090600502016002018054613dd690616660565b80601f0160208091040260200160405190810160405280929190818152602001828054613e0290616660565b8015613e4f5780601f10613e2457610100808354040283529160200191613e4f565b820191906000526020600020905b815481529060010190602001808311613e3257829003601f168201915b5050505050848281518110613e6757613e66616602565b5b602002602001018190525060018181548110613e8657613e85616602565b5b90600052602060002090600502016003018054613ea290616660565b80601f0160208091040260200160405190810160405280929190818152602001828054613ece90616660565b8015613f1b5780601f10613ef057610100808354040283529160200191613f1b565b820191906000526020600020905b815481529060010190602001808311613efe57829003601f168201915b5050505050838281518110613f3357613f32616602565b5b602002602001018190525060018181548110613f5257613f51616602565b5b90600052602060002090600502016004018054613f6e90616660565b80601f0160208091040260200160405190810160405280929190818152602001828054613f9a90616660565b8015613fe75780601f10613fbc57610100808354040283529160200191613fe7565b820191906000526020600020905b815481529060010190602001808311613fca57829003601f168201915b5050505050828281518110613fff57613ffe616602565b5b60200260200101819052505b808061401690616777565b915050613b68565b508585858585859b509b509b509b509b509b5050505050505091939550919395565b6002818154811061405057600080fd5b90600052602060002090600802016000915090508060000160009054906101000a900460e01b908060000160049054906101000a900473ffffffffffffffffffffffffffffffffffffffff16908060010160009054906101000a900473ffffffffffffffffffffffffffffffffffffffff16908060020180546140d290616660565b80601f01602080910402602001604051908101604052809291908181526020018280546140fe90616660565b801561414b5780601f106141205761010080835404028352916020019161414b565b820191906000526020600020905b81548152906001019060200180831161412e57829003601f168201915b50505050509080600301805461416090616660565b80601f016020809104026020016040519081016040528092919081815260200182805461418c90616660565b80156141d95780601f106141ae576101008083540402835291602001916141d9565b820191906000526020600020905b8154815290600101906020018083116141bc57829003601f168201915b5050505050908060040180546141ee90616660565b80601f016020809104026020016040519081016040528092919081815260200182805461421a90616660565b80156142675780601f1061423c57610100808354040283529160200191614267565b820191906000526020600020905b81548152906001019060200180831161424a57829003601f168201915b5050505050908060050154908060060154908060070154905089565b6060806060600080600080600090505b6002805490508110156146c3578a73ffffffffffffffffffffffffffffffffffffffff16600282815481106142cb576142ca616602565b5b906000526020600020906008020160000160049054906101000a900473ffffffffffffffffffffffffffffffffffffffff1673ffffffffffffffffffffffffffffffffffffffff1614801561439057508973ffffffffffffffffffffffffffffffffffffffff166002828154811061434657614345616602565b5b906000526020600020906008020160010160009054906101000a900473ffffffffffffffffffffffffffffffffffffffff1673ffffffffffffffffffffffffffffffffffffffff16145b8015614414575088886040516020016143aa9291906167fc565b60405160208183030381529060405280519060200120600282815481106143d4576143d3616602565b5b906000526020600020906008020160000160009054906101000a900460e01b7bffffffffffffffffffffffffffffffffffffffffffffffffffffffff1916145b156146b0576002818154811061442d5761442c616602565b5b90600052602060002090600802016002016002828154811061445257614451616602565b5b90600052602060002090600802016003016002838154811061447757614476616602565b5b90600052602060002090600802016004016002848154811061449c5761449b616602565b5b906000526020600020906008020160050154600285815481106144c2576144c1616602565b5b906000526020600020906008020160060154600286815481106144e8576144e7616602565b5b90600052602060002090600802016007015485805461450690616660565b80601f016020809104026020016040519081016040528092919081815260200182805461453290616660565b801561457f5780601f106145545761010080835404028352916020019161457f565b820191906000526020600020905b81548152906001019060200180831161456257829003601f168201915b5050505050955084805461459290616660565b80601f01602080910402602001604051908101604052809291908181526020018280546145be90616660565b801561460b5780601f106145e05761010080835404028352916020019161460b565b820191906000526020600020905b8154815290600101906020018083116145ee57829003601f168201915b5050505050945083805461461e90616660565b80601f016020809104026020016040519081016040528092919081815260200182805461464a90616660565b80156146975780601f1061466c57610100808354040283529160200191614697565b820191906000526020600020905b81548152906001019060200180831161467a57829003601f168201915b50505050509350965096509650965096509650506146c5565b80806146bb90616777565b915050614293565b505b9499939850945094509450565b6040518060400160405280600881526020017f4163636570746564000000000000000000000000000000000000000000000000815250805190602001208180519060200120148061476557506040518060400160405280600881526020017f4465636c696e6564000000000000000000000000000000000000000000000000815250805190602001208180519060200120145b6147a4576040517f08c379a000000000000000000000000000000000000000000000000000000000815260040161479b90616af5565b60405180910390fd5b60005b600180549050811015614972578473ffffffffffffffffffffffffffffffffffffffff16600182815481106147df576147de616602565b5b906000526020600020906005020160000160049054906101000a900473ffffffffffffffffffffffffffffffffffffffff1673ffffffffffffffffffffffffffffffffffffffff161480156148a457508373ffffffffffffffffffffffffffffffffffffffff166001828154811061485a57614859616602565b5b906000526020600020906005020160010160009054906101000a900473ffffffffffffffffffffffffffffffffffffffff1673ffffffffffffffffffffffffffffffffffffffff16145b801561491f5750827bffffffffffffffffffffffffffffffffffffffffffffffffffffffff1916600182815481106148df576148de616602565b5b906000526020600020906005020160000160009054906101000a900460e01b7bffffffffffffffffffffffffffffffffffffffffffffffffffffffff1916145b1561495f57816001828154811061493957614938616602565b5b9060005260206000209060050201600401908051906020019061495d9291906154bb565b505b808061496a90616777565b9150506147a7565b5050505050565b606080606080606080600060028054905067ffffffffffffffff8111156149a3576149a261565f565b5b6040519080825280602002602001820160405280156149d657816020015b60608152602001906001900390816149c15790505b509050600060028054905067ffffffffffffffff8111156149fa576149f961565f565b5b604051908082528060200260200182016040528015614a2d57816020015b6060815260200190600190039081614a185790505b509050600060028054905067ffffffffffffffff811115614a5157614a5061565f565b5b604051908082528060200260200182016040528015614a8457816020015b6060815260200190600190039081614a6f5790505b509050600060028054905067ffffffffffffffff811115614aa857614aa761565f565b5b604051908082528060200260200182016040528015614ad65781602001602082028036833780820191505090505b509050600060028054905067ffffffffffffffff811115614afa57614af961565f565b5b604051908082528060200260200182016040528015614b285781602001602082028036833780820191505090505b509050600060028054905067ffffffffffffffff811115614b4c57614b4b61565f565b5b604051908082528060200260200182016040528015614b7a5781602001602082028036833780820191505090505b50905060005b600280549050811015614fc9578e73ffffffffffffffffffffffffffffffffffffffff1660028281548110614bb857614bb7616602565b5b906000526020600020906008020160000160049054906101000a900473ffffffffffffffffffffffffffffffffffffffff1673ffffffffffffffffffffffffffffffffffffffff16148015614c7d57508d73ffffffffffffffffffffffffffffffffffffffff1660028281548110614c3357614c32616602565b5b906000526020600020906008020160010160009054906101000a900473ffffffffffffffffffffffffffffffffffffffff1673ffffffffffffffffffffffffffffffffffffffff16145b15614fb65760028181548110614c9657614c95616602565b5b90600052602060002090600802016002018054614cb290616660565b80601f0160208091040260200160405190810160405280929190818152602001828054614cde90616660565b8015614d2b5780601f10614d0057610100808354040283529160200191614d2b565b820191906000526020600020905b815481529060010190602001808311614d0e57829003601f168201915b5050505050878281518110614d4357614d42616602565b5b602002602001018190525060028181548110614d6257614d61616602565b5b90600052602060002090600802016003018054614d7e90616660565b80601f0160208091040260200160405190810160405280929190818152602001828054614daa90616660565b8015614df75780601f10614dcc57610100808354040283529160200191614df7565b820191906000526020600020905b815481529060010190602001808311614dda57829003601f168201915b5050505050868281518110614e0f57614e0e616602565b5b602002602001018190525060028181548110614e2e57614e2d616602565b5b90600052602060002090600802016004018054614e4a90616660565b80601f0160208091040260200160405190810160405280929190818152602001828054614e7690616660565b8015614ec35780601f10614e9857610100808354040283529160200191614ec3565b820191906000526020600020905b815481529060010190602001808311614ea657829003601f168201915b5050505050858281518110614edb57614eda616602565b5b602002602001018190525060028181548110614efa57614ef9616602565b5b906000526020600020906008020160050154848281518110614f1f57614f1e616602565b5b60200260200101818152505060028181548110614f3f57614f3e616602565b5b906000526020600020906008020160060154838281518110614f6457614f63616602565b5b60200260200101818152505060028181548110614f8457614f83616602565b5b906000526020600020906008020160070154828281518110614fa957614fa8616602565b5b6020026020010181815250505b8080614fc190616777565b915050614b80565b508585858585859b509b509b509b509b509b505050505050509295509295509295565b60003390506001614ffc826124be565b1461503c576040517f08c379a00000000000000000000000000000000000000000000000000000000081526004016150339061686c565b60405180910390fd5b600061504988888861070b565b14615089576040517f08c379a000000000000000000000000000000000000000000000000000000000815260040161508090616b61565b60405180910390fd5b6000831015801561509b575060c88311155b6150da576040517f08c379a00000000000000000000000000000000000000000000000000000000081526004016150d190616bcd565b60405180910390fd5b600082101580156150ec575060c88211155b61512b576040517f08c379a000000000000000000000000000000000000000000000000000000000815260040161512290616c39565b60405180910390fd5b6003604051806101200160405280888860405160200161514c9291906167fc565b604051602081830303815290604052805190602001207bffffffffffffffffffffffffffffffffffffffffffffffffffffffff191681526020018373ffffffffffffffffffffffffffffffffffffffff1681526020018973ffffffffffffffffffffffffffffffffffffffff16815260200188815260200187815260200186815260200185815260200184815260200184866151e891906169d0565b815250908060018154018082558091505060019003906000526020600020906008020160009091909190915060008201518160000160006101000a81548163ffffffff021916908360e01c021790555060208201518160000160046101000a81548173ffffffffffffffffffffffffffffffffffffffff021916908373ffffffffffffffffffffffffffffffffffffffff16021790555060408201518160010160006101000a81548173ffffffffffffffffffffffffffffffffffffffff021916908373ffffffffffffffffffffffffffffffffffffffff16021790555060608201518160020190805190602001906152e29291906154bb565b5060808201518160030190805190602001906152ff9291906154bb565b5060a082015181600401908051906020019061531c9291906154bb565b5060c0820151816005015560e082015181600601556101008201518160070155505050505050505050565b60006040518060e001604052808973ffffffffffffffffffffffffffffffffffffffff16815260200188815260200187815260200186815260200185815260200184815260200183815250908060018154018082558091505060019003906000526020600020906007020160009091909190915060008201518160000160006101000a81548173ffffffffffffffffffffffffffffffffffffffff021916908373ffffffffffffffffffffffffffffffffffffffff160217905550602082015181600101908051906020019061541e9291906154bb565b50604082015181600201908051906020019061543b9291906154bb565b5060608201518160030190805190602001906154589291906154bb565b5060808201518160040190805190602001906154759291906154bb565b5060a08201518160050190805190602001906154929291906154bb565b5060c08201518160060190805190602001906154af9291906154bb565b50505050505050505050565b8280546154c790616660565b90600052602060002090601f0160209004810192826154e95760008555615530565b82601f1061550257805160ff1916838001178555615530565b82800160010185558215615530579182015b8281111561552f578251825591602001919060010190615514565b5b50905061553d9190615541565b5090565b5b8082111561555a576000816000905550600101615542565b5090565b6000604051905090565b600080fd5b600080fd5b600073ffffffffffffffffffffffffffffffffffffffff82169050919050565b600061559d82615572565b9050919050565b6155ad81615592565b81146155b857600080fd5b50565b6000813590506155ca816155a4565b92915050565b600080604083850312156155e7576155e6615568565b5b60006155f5858286016155bb565b9250506020615606858286016155bb565b9150509250929050565b6000819050919050565b61562381615610565b82525050565b600060208201905061563e600083018461561a565b92915050565b600080fd5b600080fd5b6000601f19601f8301169050919050565b7f4e487b7100000000000000000000000000000000000000000000000000000000600052604160045260246000fd5b6156978261564e565b810181811067ffffffffffffffff821117156156b6576156b561565f565b5b80604052505050565b60006156c961555e565b90506156d5828261568e565b919050565b600067ffffffffffffffff8211156156f5576156f461565f565b5b6156fe8261564e565b9050602081019050919050565b82818337600083830152505050565b600061572d615728846156da565b6156bf565b90508281526020810184848401111561574957615748615649565b5b61575484828561570b565b509392505050565b600082601f83011261577157615770615644565b5b813561578184826020860161571a565b91505092915050565b6000806000606084860312156157a3576157a2615568565b5b60006157b1868287016155bb565b935050602084013567ffffffffffffffff8111156157d2576157d161556d565b5b6157de8682870161575c565b925050604084013567ffffffffffffffff8111156157ff576157fe61556d565b5b61580b8682870161575c565b9150509250925092565b600081519050919050565b600082825260208201905092915050565b6000819050602082019050919050565b600081519050919050565b600082825260208201905092915050565b60005b8381101561587b578082015181840152602081019050615860565b8381111561588a576000848401525b50505050565b600061589b82615841565b6158a5818561584c565b93506158b581856020860161585d565b6158be8161564e565b840191505092915050565b60006158d58383615890565b905092915050565b6000602082019050919050565b60006158f582615815565b6158ff8185615820565b93508360208202850161591185615831565b8060005b8581101561594d578484038952815161592e85826158c9565b9450615939836158dd565b925060208a01995050600181019050615915565b50829750879550505050505092915050565b600081519050919050565b600082825260208201905092915050565b6000819050602082019050919050565b61599481615610565b82525050565b60006159a6838361598b565b60208301905092915050565b6000602082019050919050565b60006159ca8261595f565b6159d4818561596a565b93506159df8361597b565b8060005b83811015615a105781516159f7888261599a565b9750615a02836159b2565b9250506001810190506159e3565b5085935050505092915050565b600060c0820190508181036000830152615a3781896158ea565b90508181036020830152615a4b81886158ea565b90508181036040830152615a5f81876158ea565b90508181036060830152615a7381866159bf565b90508181036080830152615a8781856159bf565b905081810360a0830152615a9b81846159bf565b9050979650505050505050565b615ab181615610565b8114615abc57600080fd5b50565b600081359050615ace81615aa8565b92915050565b600060208284031215615aea57615ae9615568565b5b6000615af884828501615abf565b91505092915050565b615b0a81615592565b82525050565b600082825260208201905092915050565b6000615b2c82615841565b615b368185615b10565b9350615b4681856020860161585d565b615b4f8161564e565b840191505092915050565b600060e082019050615b6f600083018a615b01565b8181036020830152615b818189615b21565b90508181036040830152615b958188615b21565b90508181036060830152615ba98187615b21565b90508181036080830152615bbd8186615b21565b905081810360a0830152615bd18185615b21565b905081810360c0830152615be58184615b21565b905098975050505050505050565b60008060008060008060c08789031215615c1057615c0f615568565b5b6000615c1e89828a016155bb565b965050602087013567ffffffffffffffff811115615c3f57615c3e61556d565b5b615c4b89828a0161575c565b955050604087013567ffffffffffffffff811115615c6c57615c6b61556d565b5b615c7889828a0161575c565b945050606087013567ffffffffffffffff811115615c9957615c9861556d565b5b615ca589828a0161575c565b9350506080615cb689828a01615abf565b92505060a0615cc789828a01615abf565b9150509295509295509295565b600081519050919050565b600082825260208201905092915050565b6000819050602082019050919050565b60007fffffffff0000000000000000000000000000000000000000000000000000000082169050919050565b615d3581615d00565b82525050565b6000615d478383615d2c565b60208301905092915050565b6000602082019050919050565b6000615d6b82615cd4565b615d758185615cdf565b9350615d8083615cf0565b8060005b83811015615db1578151615d988882615d3b565b9750615da383615d53565b925050600181019050615d84565b5085935050505092915050565b600081519050919050565b600082825260208201905092915050565b6000819050602082019050919050565b615df381615592565b82525050565b6000615e058383615dea565b60208301905092915050565b6000602082019050919050565b6000615e2982615dbe565b615e338185615dc9565b9350615e3e83615dda565b8060005b83811015615e6f578151615e568882615df9565b9750615e6183615e11565b925050600181019050615e42565b5085935050505092915050565b600060c0820190508181036000830152615e968189615d60565b90508181036020830152615eaa8188615e1e565b90508181036040830152615ebe8187615e1e565b90508181036060830152615ed281866158ea565b90508181036080830152615ee681856158ea565b905081810360a0830152615efa81846158ea565b9050979650505050505050565b600060208284031215615f1d57615f1c615568565b5b6000615f2b848285016155bb565b91505092915050565b600060c082019050615f496000830189615b01565b8181036020830152615f5b8188615b21565b90508181036040830152615f6f8187615b21565b90508181036060830152615f838186615b21565b90508181036080830152615f978185615b21565b905081810360a0830152615fab8184615b21565b9050979650505050505050565b60008060408385031215615fcf57615fce615568565b5b6000615fdd858286016155bb565b925050602083013567ffffffffffffffff811115615ffe57615ffd61556d565b5b61600a8582860161575c565b9150509250929050565b61601d81615d00565b82525050565b600060c0820190506160386000830189616014565b6160456020830188615b01565b6160526040830187615b01565b81810360608301526160648186615b21565b905081810360808301526160788185615b21565b905081810360a083015261608c8184615b21565b9050979650505050505050565b6000610120820190506160af600083018c616014565b6160bc602083018b615b01565b6160c9604083018a615b01565b81810360608301526160db8189615b21565b905081810360808301526160ef8188615b21565b905081810360a08301526161038187615b21565b905061611260c083018661561a565b61611f60e083018561561a565b61612d61010083018461561a565b9a9950505050505050505050565b6000806000806080858703121561615557616154615568565b5b6000616163878288016155bb565b9450506020616174878288016155bb565b935050604085013567ffffffffffffffff8111156161955761619461556d565b5b6161a18782880161575c565b925050606085013567ffffffffffffffff8111156161c2576161c161556d565b5b6161ce8782880161575c565b91505092959194509250565b600060c08201905081810360008301526161f48189615b21565b905081810360208301526162088188615b21565b9050818103604083015261621c8187615b21565b905061622b606083018661561a565b616238608083018561561a565b61624560a083018461561a565b979650505050505050565b60008060008060008060c0878903121561626d5761626c615568565b5b600061627b89828a016155bb565b965050602087013567ffffffffffffffff81111561629c5761629b61556d565b5b6162a889828a0161575c565b955050604087013567ffffffffffffffff8111156162c9576162c861556d565b5b6162d589828a0161575c565b945050606087013567ffffffffffffffff8111156162f6576162f561556d565b5b61630289828a0161575c565b935050608087013567ffffffffffffffff8111156163235761632261556d565b5b61632f89828a0161575c565b92505060a087013567ffffffffffffffff8111156163505761634f61556d565b5b61635c89828a0161575c565b9150509295509295509295565b600060e0820190508181036000830152616383818a615e1e565b9050818103602083015261639781896158ea565b905081810360408301526163ab81886158ea565b905081810360608301526163bf81876158ea565b905081810360808301526163d381866158ea565b905081810360a08301526163e781856158ea565b905081810360c08301526163fb81846158ea565b905098975050505050505050565b61641281615d00565b811461641d57600080fd5b50565b60008135905061642f81616409565b92915050565b6000806000806080858703121561644f5761644e615568565b5b600061645d878288016155bb565b945050602061646e878288016155bb565b935050604061647f87828801616420565b925050606085013567ffffffffffffffff8111156164a05761649f61556d565b5b6164ac8782880161575c565b91505092959194509250565b600080600080600080600060e0888a0312156164d7576164d6615568565b5b60006164e58a828b016155bb565b975050602088013567ffffffffffffffff8111156165065761650561556d565b5b6165128a828b0161575c565b965050604088013567ffffffffffffffff8111156165335761653261556d565b5b61653f8a828b0161575c565b955050606088013567ffffffffffffffff8111156165605761655f61556d565b5b61656c8a828b0161575c565b945050608088013567ffffffffffffffff81111561658d5761658c61556d565b5b6165998a828b0161575c565b93505060a088013567ffffffffffffffff8111156165ba576165b961556d565b5b6165c68a828b0161575c565b92505060c088013567ffffffffffffffff8111156165e7576165e661556d565b5b6165f38a828b0161575c565b91505092959891949750929550565b7f4e487b7100000000000000000000000000000000000000000000000000000000600052603260045260246000fd5b7f4e487b7100000000000000000000000000000000000000000000000000000000600052602260045260246000fd5b6000600282049050600182168061667857607f821691505b6020821081141561668c5761668b616631565b5b50919050565b600081905092915050565b60008190508160005260206000209050919050565b600081546166bf81616660565b6166c98186616692565b945060018216600081146166e457600181146166f557616728565b60ff19831686528186019350616728565b6166fe8561669d565b60005b8381101561672057815481890152600182019150602081019050616701565b838801955050505b50505092915050565b600061673d82846166b2565b915081905092915050565b7f4e487b7100000000000000000000000000000000000000000000000000000000600052601160045260246000fd5b600061678282615610565b91507fffffffffffffffffffffffffffffffffffffffffffffffffffffffffffffffff8214156167b5576167b4616748565b5b600182019050919050565b600081905092915050565b60006167d682615841565b6167e081856167c0565b93506167f081856020860161585d565b80840191505092915050565b600061680882856167cb565b915061681482846167cb565b91508190509392505050565b7f4e6f7420666f756e64206f776e65722e00000000000000000000000000000000600082015250565b6000616856601083615b10565b915061686182616820565b602082019050919050565b6000602082019050818103600083015261688581616849565b9050919050565b7f4475706c6963617465204c5220526573756c742e000000000000000000000000600082015250565b60006168c2601483615b10565b91506168cd8261688c565b602082019050919050565b600060208201905081810360008301526168f1816168b5565b9050919050565b7f4c697374656e696e672053636f726520696e636f72726563742e000000000000600082015250565b600061692e601a83615b10565b9150616939826168f8565b602082019050919050565b6000602082019050818103600083015261695d81616921565b9050919050565b7f52656164696e672053636f726520696e636f72726563742e0000000000000000600082015250565b600061699a601883615b10565b91506169a582616964565b602082019050919050565b600060208201905081810360008301526169c98161698d565b9050919050565b60006169db82615610565b91506169e683615610565b9250827fffffffffffffffffffffffffffffffffffffffffffffffffffffffffffffffff03821115616a1b57616a1a616748565b5b828201905092915050565b7f57616974696e6720666f7220636f6e6669726d6174696f6e2e00000000000000600082015250565b6000616a5c601983615b10565b9150616a6782616a26565b602082019050919050565b60006020820190508181036000830152616a8b81616a4f565b9050919050565b6000616a9e82846167cb565b915081905092915050565b7f537461747573205265717565737420696e636f72726563742e00000000000000600082015250565b6000616adf601983615b10565b9150616aea82616aa9565b602082019050919050565b60006020820190508181036000830152616b0e81616ad2565b9050919050565b7f4475706c696361746520535720526573756c742e000000000000000000000000600082015250565b6000616b4b601483615b10565b9150616b5682616b15565b602082019050919050565b60006020820190508181036000830152616b7a81616b3e565b9050919050565b7f537065616b696e672053636f726520696e636f72726563742e00000000000000600082015250565b6000616bb7601983615b10565b9150616bc282616b81565b602082019050919050565b60006020820190508181036000830152616be681616baa565b9050919050565b7f57726974696e672053636f726520696e636f72726563742e0000000000000000600082015250565b6000616c23601883615b10565b9150616c2e82616bed565b602082019050919050565b60006020820190508181036000830152616c5281616c16565b905091905056fea26469706673582212205f836658af1132eaa4847738a11ab6b3c1fcdfa2d1279e5a3927acb07105bd8b64736f6c634300080b0033",
  "immutableReferences": {},
  "source": "// SPDX-License-Identifier: MIT\r\npragma solidity >=0.4.22 <0.9.0;\r\n\r\n// Lu tr danh sch IIG\r\ncontract ListIIG {\r\n\r\n    // Khai bo cu trc lu tr thng tin IIG\r\n    struct IIGInfo {\r\n        address iigOwner;\r\n        string name;\r\n        string country;\r\n        string facebook;\r\n        string website;\r\n        string linkedin;\r\n        string password;\r\n    }\r\n\r\n    // Khai bo cu trc lu tr thng tin yu cu chng ch IIG ca sinh vin\r\n    struct IIGRequest {\r\n        bytes4 codeRequest;\r\n        address studentOwner;\r\n        address iigOwner;\r\n        string identityCard;\r\n        string requestDate;\r\n        string statusRequest;\r\n    }\r\n\r\n    // Khai bo cu trc lu tr thng tin im thi Listening - Reading IIG\r\n    struct IIGLRResult {\r\n        bytes4 codeLRResult;\r\n        address iigOwner;\r\n        address studentOwner;\r\n        string testDate;\r\n        string shiftTest;\r\n        string expireDate;\r\n        uint listeningScore;\r\n        uint readingScore;\r\n        uint totalScore;\r\n    }\r\n\r\n    // Khai bo cu trc lu tr thng tin im thi Speaking - Writing IIG\r\n    struct IIGSWResult {\r\n        bytes4 codeSWResult;\r\n        address iigOwner;\r\n        address studentOwner;\r\n        string testDate;\r\n        string shiftTest;\r\n        string expireDate;\r\n        uint speakingScore;\r\n        uint writingScore;\r\n        uint totalScore;\r\n    }\r\n\r\n    // Khai bo mng  lu tr thng tin\r\n    IIGInfo[] public iigInfos;\r\n    IIGRequest[] public iigRequests;\r\n    IIGLRResult[] public iigLRResults;\r\n    IIGSWResult[] public iigSWResults;\r\n\r\n    // Chc nng thm thng tin IGG\r\n    function addIIG (\r\n        address _iigOwner,\r\n        string memory _name,\r\n        string memory _country,\r\n        string memory _facebook,\r\n        string memory _website,\r\n        string memory _linkedin,\r\n        string memory _password) public {\r\n            iigInfos.push(\r\n                IIGInfo(_iigOwner, \r\n                        _name, \r\n                        _country, \r\n                        _facebook,\r\n                        _website, \r\n                        _linkedin, \r\n                        _password)\r\n                );\r\n    }\r\n\r\n    // Chc nng chnh sa thng tin IGG\r\n    function editIIG (\r\n        address _iigOwner,\r\n        string memory _name,\r\n        string memory _country,\r\n        string memory _facebook,\r\n        string memory _website,\r\n        string memory _linkedin) public {\r\n            for(uint i=0; i<iigInfos.length;i++){\r\n                if(iigInfos[i].iigOwner == _iigOwner){\r\n                    iigInfos[i].name = _name;\r\n                    iigInfos[i].country = _country;\r\n                    iigInfos[i].facebook = _facebook;\r\n                    iigInfos[i].website = _website;\r\n                    iigInfos[i].linkedin = _linkedin;\r\n                }\r\n            }\r\n    }\r\n\r\n    // Chc nng ly danh sch IIG  thm\r\n    function getListIIG() public view returns(\r\n        address[] memory, \r\n        string[] memory, \r\n        string[] memory, \r\n        string[] memory, \r\n        string[] memory, \r\n        string[] memory, \r\n        string[] memory) {\r\n            address[] memory iigOwners = new address[](iigInfos.length);\r\n            string[] memory names = new string[](iigInfos.length);\r\n            string[] memory countrys = new string[](iigInfos.length);\r\n            string[] memory facebooks = new string[](iigInfos.length);\r\n            string[] memory websites = new string[](iigInfos.length);\r\n            string[] memory linkedins = new string[](iigInfos.length);\r\n            string[] memory passwords = new string[](iigInfos.length);\r\n            for(uint i=0; i<iigInfos.length;i++){\r\n                iigOwners[i] = iigInfos[i].iigOwner;\r\n                names[i] = iigInfos[i].name;\r\n                countrys[i] = iigInfos[i].country;\r\n                facebooks[i] = iigInfos[i].facebook;\r\n                websites[i] = iigInfos[i].website;\r\n                linkedins[i] = iigInfos[i].linkedin;\r\n                passwords[i] = iigInfos[i].password;\r\n            }\r\n            return (iigOwners, names, countrys, facebooks, websites, linkedins, passwords);\r\n    }\r\n\r\n    // Chc nng ly thng tin ca IIG\r\n    function getProfile(address _iigOwner) public view returns(\r\n        address iigOwner, \r\n        string memory name, \r\n        string memory country, \r\n        string memory facebook, \r\n        string memory website, \r\n        string memory linkedin) {\r\n            for(uint i=0; i<iigInfos.length;i++){\r\n                if(iigInfos[i].iigOwner == _iigOwner){\r\n                    return (iigInfos[i].iigOwner,\r\n                            iigInfos[i].name, \r\n                            iigInfos[i].country, \r\n                            iigInfos[i].facebook, \r\n                            iigInfos[i].website, \r\n                            iigInfos[i].linkedin);\r\n                }\r\n            }\r\n    }\r\n\r\n    // Chc nng kim tra IIG  ng k hay cha?\r\n    function checkIIG(\r\n        address _iigOwner, \r\n        string memory _password) public view returns(uint x) {\r\n            for(uint i=0; i<iigInfos.length; i++){\r\n                if((iigInfos[i].iigOwner == _iigOwner) && (keccak256(bytes(iigInfos[i].password)) == keccak256(bytes(_password)))){\r\n                    return 1;\r\n                }\r\n            }\r\n    }\r\n\r\n    // Chc nng kim tra a ch IIG  tn ti hay cha?\r\n    function checkExistIIG(address _iigOwner) public view returns(uint x) {\r\n        for(uint i=0; i<iigInfos.length; i++){\r\n            if(iigInfos[i].iigOwner == _iigOwner){\r\n                return 1;\r\n            }\r\n        }\r\n    }\r\n\r\n    // Chc nng thm thng tin yu cu chng ch IIG\r\n    function addRequest (\r\n        address _studentOwner,\r\n        address _iigOwner,\r\n        string memory _identityCard,\r\n        string memory _requestDate) public {\r\n            require(checkRequest(_studentOwner, _iigOwner) == 0, \"Waiting for confirmation.\");\r\n            iigRequests.push(\r\n                IIGRequest(bytes4(keccak256(abi.encodePacked(_requestDate))),\r\n                        _studentOwner, \r\n                        _iigOwner,\r\n                        _identityCard,\r\n                        _requestDate,\r\n                        \"Waiting\")\r\n                );\r\n    }\r\n\r\n    // Chc nng ly danh sch yu cu chng ch IIG\r\n    function getListRequest(address _iigOwner) public view returns(\r\n        bytes4[] memory,\r\n        address[] memory, \r\n        address[] memory,\r\n        string[] memory,\r\n        string[] memory,\r\n        string[] memory) {\r\n            bytes4[] memory codeRequests = new bytes4[](iigRequests.length);\r\n            address[] memory studentOwners = new address[](iigRequests.length);\r\n            address[] memory iigOwners = new address[](iigRequests.length);\r\n            string[] memory identityCards = new string[](iigRequests.length);\r\n            string[] memory requestDates = new string[](iigRequests.length);\r\n            string[] memory statusRequests = new string[](iigRequests.length);\r\n            for(uint i=0; i<iigRequests.length;i++){\r\n                if(iigRequests[i].iigOwner == _iigOwner){\r\n                    codeRequests[i] = iigRequests[i].codeRequest;\r\n                    studentOwners[i] = iigRequests[i].studentOwner;\r\n                    iigOwners[i] = iigRequests[i].iigOwner;\r\n                    identityCards[i] = iigRequests[i].identityCard;\r\n                    requestDates[i] = iigRequests[i].requestDate;\r\n                    statusRequests[i] = iigRequests[i].statusRequest;\r\n                }\r\n            }\r\n            return (codeRequests, studentOwners, iigOwners, identityCards, requestDates, statusRequests);\r\n    }\r\n\r\n    // Chc nng ly danh sch yu cu chng ch IIG theo sinh vin\r\n    function getListRequestStudent(address _iigOwner, address _studentOwner) public view returns(\r\n        bytes4[] memory,\r\n        address[] memory, \r\n        address[] memory,\r\n        string[] memory,\r\n        string[] memory,\r\n        string[] memory) {\r\n            bytes4[] memory codeRequests = new bytes4[](iigRequests.length);\r\n            address[] memory studentOwners = new address[](iigRequests.length);\r\n            address[] memory iigOwners = new address[](iigRequests.length);\r\n            string[] memory identityCards = new string[](iigRequests.length);\r\n            string[] memory requestDates = new string[](iigRequests.length);\r\n            string[] memory statusRequests = new string[](iigRequests.length);\r\n            for(uint i=0; i<iigRequests.length;i++){\r\n                if((iigRequests[i].iigOwner == _iigOwner) && (iigRequests[i].studentOwner == _studentOwner)){\r\n                    codeRequests[i] = iigRequests[i].codeRequest;\r\n                    studentOwners[i] = iigRequests[i].studentOwner;\r\n                    iigOwners[i] = iigRequests[i].iigOwner;\r\n                    identityCards[i] = iigRequests[i].identityCard;\r\n                    requestDates[i] = iigRequests[i].requestDate;\r\n                    statusRequests[i] = iigRequests[i].statusRequest;\r\n                }\r\n            }\r\n            return (codeRequests, studentOwners, iigOwners, identityCards, requestDates, statusRequests);\r\n    }\r\n\r\n    //Chc nng kim tra yu cu chng ch IIG\r\n    function checkRequest(\r\n        address _studentOwner, \r\n        address _iigOwner) public view returns(uint x) {\r\n            for(uint i=0; i<iigRequests.length; i++){\r\n                if((iigRequests[i].studentOwner == _studentOwner) && (iigRequests[i].iigOwner == _iigOwner) && (keccak256(bytes(iigRequests[i].statusRequest)) == keccak256(bytes(\"Waiting\")))){\r\n                    return 1;\r\n                }\r\n            }\r\n    }\r\n\r\n    //Chc nng duyt yu cu chng ch IIG\r\n    function confirmRequest(\r\n        address _studentOwner, \r\n        address _iigOwner,\r\n        bytes4 _codeRequest,\r\n        string memory _statusRequest) public {\r\n            require(keccak256(bytes(_statusRequest)) == keccak256(bytes(\"Accepted\")) || keccak256(bytes(_statusRequest)) == keccak256(bytes(\"Declined\")), \"Status Request incorrect.\");\r\n            for(uint i=0; i<iigRequests.length; i++){\r\n                if((iigRequests[i].studentOwner == _studentOwner) && (iigRequests[i].iigOwner == _iigOwner) && (iigRequests[i].codeRequest == _codeRequest)){\r\n                    iigRequests[i].statusRequest = _statusRequest;\r\n                }\r\n            }\r\n    }\r\n\r\n    // Chc nng thm thng tin im thi Listening - Reading (Kim tra c nhp nhiu ln thi ca 1 sinh vin chung 1 ngy khng?)\r\n    function addLRResult (\r\n        address _studentOwner,\r\n        string memory _testDate,\r\n        string memory _shiftTest,\r\n        string memory _expireDate,\r\n        uint _listeningScore,\r\n        uint _readingScore) public {\r\n            address _iigOwner = msg.sender;\r\n            require(checkExistIIG(_iigOwner) == 1, \"Not found owner.\");\r\n            require(checkExistLRResult(_studentOwner, _testDate, _shiftTest) == 0, \"Duplicate LR Result.\");\r\n            require(_listeningScore >=0 && _listeningScore <=495, \"Listening Score incorrect.\");\r\n            require(_readingScore >=0 && _readingScore <=495, \"Reading Score incorrect.\");\r\n            iigLRResults.push(\r\n                IIGLRResult(bytes4(keccak256(abi.encodePacked(_testDate, _shiftTest))),\r\n                        _iigOwner, \r\n                        _studentOwner, \r\n                        _testDate,\r\n                        _shiftTest,\r\n                        _expireDate,\r\n                        _listeningScore, \r\n                        _readingScore,\r\n                        (_listeningScore + _readingScore))\r\n                );\r\n    }\r\n\r\n    // Chc nng ly danh sch im thi Listening - Reading  thm\r\n    function getListLRResult(\r\n        address _iigOwner, \r\n        address _studentOwner) public view returns(\r\n            string[] memory,\r\n            string[] memory,\r\n            string[] memory,\r\n            uint[] memory,\r\n            uint[] memory,\r\n            uint[] memory) {\r\n                string[] memory testDates = new string[](iigLRResults.length);\r\n                string[] memory shiftTests = new string[](iigLRResults.length);\r\n                string[] memory expireDates = new string[](iigLRResults.length);\r\n                uint[] memory listeningScores = new uint[](iigLRResults.length);\r\n                uint[] memory readingScores = new uint[](iigLRResults.length);\r\n                uint[] memory totalScores = new uint[](iigLRResults.length);\r\n                for(uint i=0; i<iigLRResults.length;i++){\r\n                    if((iigLRResults[i].iigOwner == _iigOwner) && (iigLRResults[i].studentOwner == _studentOwner)){\r\n                        testDates[i] = iigLRResults[i].testDate;\r\n                        shiftTests[i] = iigLRResults[i].shiftTest;\r\n                        expireDates[i] = iigLRResults[i].expireDate;\r\n                        listeningScores[i] = iigLRResults[i].listeningScore;\r\n                        readingScores[i] = iigLRResults[i].readingScore;\r\n                        totalScores[i] = iigLRResults[i].totalScore;\r\n                    }\r\n                }\r\n                return (testDates, shiftTests, expireDates, listeningScores, readingScores, totalScores);\r\n    }\r\n\r\n    // Chc nng ly im thi Listening - Reading ca sinh vin\r\n    function getLRResult(\r\n        address _iigOwner, \r\n        address _studentOwner,\r\n        string memory _testDate,\r\n        string memory _shiftTest) public view returns(\r\n            string memory testDate,\r\n            string memory shiftTest,\r\n            string memory expireDate,\r\n            uint listeningScore,\r\n            uint readingScore,\r\n            uint totalScore) {\r\n                for(uint i=0; i<iigLRResults.length;i++){\r\n                    if((iigLRResults[i].iigOwner == _iigOwner) && (iigLRResults[i].studentOwner == _studentOwner) && (iigLRResults[i].codeLRResult == keccak256(bytes(string(abi.encodePacked(_testDate, _shiftTest)))))){\r\n                        return(iigLRResults[i].testDate,\r\n                                iigLRResults[i].shiftTest,\r\n                                iigLRResults[i].expireDate,\r\n                                iigLRResults[i].listeningScore,\r\n                                iigLRResults[i].readingScore,\r\n                                iigLRResults[i].totalScore);\r\n                    }\r\n                }\r\n    }\r\n\r\n    // Chc nng kim tra kt qu ngy thi Listening - Reading ca sinh vin  tn ti hay cha?\r\n    function checkExistLRResult(\r\n        address _studentOwner, \r\n        string memory _testDate,\r\n        string memory _shiftTest) public view returns(uint x) {\r\n            for(uint i=0; i<iigLRResults.length; i++){\r\n                if((iigLRResults[i].studentOwner == _studentOwner) && (iigLRResults[i].codeLRResult == keccak256(bytes(string(abi.encodePacked(_testDate, _shiftTest)))))){\r\n                    return 1;\r\n                }\r\n            }\r\n    }\r\n\r\n    // Chc nng thm thng tin im thi Speaking - Writing\r\n    function addSWResult (\r\n        address _studentOwner,\r\n        string memory _testDate,\r\n        string memory _shiftTest,\r\n        string memory _expireDate,\r\n        uint _speakingScore,\r\n        uint _writingScore) public {\r\n            address _iigOwner = msg.sender;\r\n            require(checkExistIIG(_iigOwner) == 1, \"Not found owner.\");\r\n            require(checkExistLRResult(_studentOwner, _testDate, _shiftTest) == 0, \"Duplicate SW Result.\");\r\n            require(_speakingScore >=0 && _speakingScore <=200, \"Speaking Score incorrect.\");\r\n            require(_writingScore >=0 && _writingScore <=200, \"Writing Score incorrect.\");\r\n            iigSWResults.push(\r\n                IIGSWResult(bytes4(keccak256(abi.encodePacked(_testDate, _shiftTest))),\r\n                        _iigOwner, \r\n                        _studentOwner, \r\n                        _testDate,\r\n                        _shiftTest,\r\n                        _expireDate,\r\n                        _speakingScore, \r\n                        _writingScore,\r\n                        (_speakingScore + _writingScore))\r\n                );\r\n    }\r\n\r\n    // Chc nng ly danh sch im thi Speaking - Writing  thm\r\n    function getListSWResult(address _iigOwner, address _studentOwner) public view returns(\r\n        string[] memory,\r\n        string[] memory,\r\n        string[] memory,\r\n        uint[] memory,\r\n        uint[] memory,\r\n        uint[] memory) {\r\n            string[] memory testDates = new string[](iigSWResults.length);\r\n            string[] memory shiftTests = new string[](iigSWResults.length);\r\n            string[] memory expireDates = new string[](iigSWResults.length);\r\n            uint[] memory speakingScores = new uint[](iigSWResults.length);\r\n            uint[] memory writingScores = new uint[](iigSWResults.length);\r\n            uint[] memory totalScores = new uint[](iigSWResults.length);\r\n            for(uint i=0; i<iigSWResults.length;i++){\r\n                if((iigLRResults[i].iigOwner == _iigOwner) && (iigLRResults[i].studentOwner == _studentOwner)){\r\n                    testDates[i] = iigSWResults[i].testDate;\r\n                    shiftTests[i] = iigSWResults[i].shiftTest;\r\n                    expireDates[i] = iigSWResults[i].expireDate;\r\n                    speakingScores[i] = iigSWResults[i].speakingScore;\r\n                    writingScores[i] = iigSWResults[i].writingScore;\r\n                    totalScores[i] = iigSWResults[i].totalScore;\r\n                }\r\n            }\r\n            return (testDates, shiftTests, expireDates, speakingScores, writingScores, totalScores);\r\n    }\r\n\r\n    // Chc nng ly im thi Speaking - Writing ca sinh vin\r\n    function getSWResult(\r\n        address _iigOwner, \r\n        address _studentOwner,\r\n        string memory _testDate,\r\n        string memory _shiftTest) public view returns(\r\n            string memory testDate,\r\n            string memory shiftTest,\r\n            string memory expireDate,\r\n            uint speakingScore,\r\n            uint writingScore,\r\n            uint totalScore) {\r\n                for(uint i=0; i<iigSWResults.length;i++){\r\n                    if((iigSWResults[i].iigOwner == _iigOwner) && (iigSWResults[i].studentOwner == _studentOwner) && (iigSWResults[i].codeSWResult == keccak256(bytes(string(abi.encodePacked(_testDate, _shiftTest)))))){\r\n                        return(iigSWResults[i].testDate,\r\n                                iigSWResults[i].shiftTest,\r\n                                iigSWResults[i].expireDate,\r\n                                iigSWResults[i].speakingScore,\r\n                                iigSWResults[i].writingScore,\r\n                                iigSWResults[i].totalScore);\r\n                    }\r\n                }\r\n    }\r\n    \r\n    // Chc nng kim tra kt qu ngy thi Speaking - Writing ca sinh vin  tn ti hay cha?\r\n    function checkExistSWResult(\r\n        address _studentOwner,\r\n        string memory _testDate,\r\n        string memory _shiftTest) public view returns(uint x) {\r\n            for(uint i=0; i<iigSWResults.length; i++){\r\n                if((iigLRResults[i].studentOwner == _studentOwner) && (iigLRResults[i].codeLRResult == keccak256(bytes(string(abi.encodePacked(_testDate, _shiftTest)))))){\r\n                    return 1;\r\n                }\r\n            }\r\n    }\r\n}",
  "sourcePath": "C:\\Users\\19520\\Documents\\NCKH_Blockchain\\SolidityProgramming\\ProjectResearch\\SmartCV\\SmartContract\\contracts\\SmartCV_ListIIG.sol",
  "compiler": {
    "name": "solc",
    "version": "0.8.11+commit.d7f03943.Emscripten.clang"
  },
  "schemaVersion": "3.4.4",
  "updatedAt": "2022-07-30T05:15:22.873Z",
  "devdoc": {
    "kind": "dev",
    "methods": {},
    "version": 1
  },
  "userdoc": {
    "kind": "user",
    "methods": {},
    "version": 1
  }
}