{
  "contractName": "ListBusiness",
  "abi": [
    {
      "inputs": [
        {
          "internalType": "uint256",
          "name": "",
          "type": "uint256"
        }
      ],
      "name": "listDNs",
      "outputs": [
        {
          "internalType": "address",
          "name": "businessOwner",
          "type": "address"
        },
        {
          "internalType": "string",
          "name": "name",
          "type": "string"
        },
        {
          "internalType": "string",
          "name": "country",
          "type": "string"
        },
        {
          "internalType": "string",
          "name": "facebook",
          "type": "string"
        },
        {
          "internalType": "string",
          "name": "website",
          "type": "string"
        },
        {
          "internalType": "string",
          "name": "linkedin",
          "type": "string"
        },
        {
          "internalType": "string",
          "name": "focusArea",
          "type": "string"
        }
      ],
      "stateMutability": "view",
      "type": "function"
    },
    {
      "inputs": [
        {
          "internalType": "address",
          "name": "_businessOwner",
          "type": "address"
        },
        {
          "internalType": "string",
          "name": "_name",
          "type": "string"
        },
        {
          "internalType": "string",
          "name": "_country",
          "type": "string"
        },
        {
          "internalType": "string",
          "name": "_facebook",
          "type": "string"
        },
        {
          "internalType": "string",
          "name": "_website",
          "type": "string"
        },
        {
          "internalType": "string",
          "name": "_linkedin",
          "type": "string"
        },
        {
          "internalType": "string",
          "name": "_focusArea",
          "type": "string"
        }
      ],
      "name": "addDN",
      "outputs": [],
      "stateMutability": "nonpayable",
      "type": "function"
    },
    {
      "inputs": [
        {
          "internalType": "address",
          "name": "_businessOwner",
          "type": "address"
        }
      ],
      "name": "getListDN",
      "outputs": [
        {
          "internalType": "string",
          "name": "name",
          "type": "string"
        },
        {
          "internalType": "string",
          "name": "country",
          "type": "string"
        },
        {
          "internalType": "string",
          "name": "facebook",
          "type": "string"
        },
        {
          "internalType": "string",
          "name": "website",
          "type": "string"
        },
        {
          "internalType": "string",
          "name": "linkedin",
          "type": "string"
        },
        {
          "internalType": "string",
          "name": "focusArea",
          "type": "string"
        }
      ],
      "stateMutability": "view",
      "type": "function"
    }
  ],
  "bytecode": "0x608060405234801561001057600080fd5b506111f9806100206000396000f3fe608060405234801561001057600080fd5b50600436106100415760003560e01c80631ed6aeec14610046578063bf44b30314610062578063c8dd4f8e14610098575b600080fd5b610060600480360381019061005b9190610d26565b6100cd565b005b61007c60048036038101906100779190610ea6565b610241565b60405161008f9796959493929190610f6a565b60405180910390f35b6100b260048036038101906100ad9190611003565b6105e3565b6040516100c496959493929190611030565b60405180910390f35b60006040518060e001604052808973ffffffffffffffffffffffffffffffffffffffff16815260200188815260200187815260200186815260200185815260200184815260200183815250908060018154018082558091505060019003906000526020600020906007020160009091909190915060008201518160000160006101000a81548173ffffffffffffffffffffffffffffffffffffffff021916908373ffffffffffffffffffffffffffffffffffffffff16021790555060208201518160010190805190602001906101a4929190610acb565b5060408201518160020190805190602001906101c1929190610acb565b5060608201518160030190805190602001906101de929190610acb565b5060808201518160040190805190602001906101fb929190610acb565b5060a0820151816005019080519060200190610218929190610acb565b5060c0820151816006019080519060200190610235929190610acb565b50505050505050505050565b6000818154811061025157600080fd5b90600052602060002090600702016000915090508060000160009054906101000a900473ffffffffffffffffffffffffffffffffffffffff169080600101805461029a906110ea565b80601f01602080910402602001604051908101604052809291908181526020018280546102c6906110ea565b80156103135780601f106102e857610100808354040283529160200191610313565b820191906000526020600020905b8154815290600101906020018083116102f657829003601f168201915b505050505090806002018054610328906110ea565b80601f0160208091040260200160405190810160405280929190818152602001828054610354906110ea565b80156103a15780601f10610376576101008083540402835291602001916103a1565b820191906000526020600020905b81548152906001019060200180831161038457829003601f168201915b5050505050908060030180546103b6906110ea565b80601f01602080910402602001604051908101604052809291908181526020018280546103e2906110ea565b801561042f5780601f106104045761010080835404028352916020019161042f565b820191906000526020600020905b81548152906001019060200180831161041257829003601f168201915b505050505090806004018054610444906110ea565b80601f0160208091040260200160405190810160405280929190818152602001828054610470906110ea565b80156104bd5780601f10610492576101008083540402835291602001916104bd565b820191906000526020600020905b8154815290600101906020018083116104a057829003601f168201915b5050505050908060050180546104d2906110ea565b80601f01602080910402602001604051908101604052809291908181526020018280546104fe906110ea565b801561054b5780601f106105205761010080835404028352916020019161054b565b820191906000526020600020905b81548152906001019060200180831161052e57829003601f168201915b505050505090806006018054610560906110ea565b80601f016020809104026020016040519081016040528092919081815260200182805461058c906110ea565b80156105d95780601f106105ae576101008083540402835291602001916105d9565b820191906000526020600020905b8154815290600101906020018083116105bc57829003601f168201915b5050505050905087565b60608060608060608060005b600080549050811015610ac0578773ffffffffffffffffffffffffffffffffffffffff16600082815481106106275761062661111c565b5b906000526020600020906007020160000160009054906101000a900473ffffffffffffffffffffffffffffffffffffffff1673ffffffffffffffffffffffffffffffffffffffff161415610aad57600081815481106106895761068861111c565b5b9060005260206000209060070201600101600082815481106106ae576106ad61111c565b5b9060005260206000209060070201600201600083815481106106d3576106d261111c565b5b9060005260206000209060070201600301600084815481106106f8576106f761111c565b5b90600052602060002090600702016004016000858154811061071d5761071c61111c565b5b9060005260206000209060070201600501600086815481106107425761074161111c565b5b906000526020600020906007020160060185805461075f906110ea565b80601f016020809104026020016040519081016040528092919081815260200182805461078b906110ea565b80156107d85780601f106107ad576101008083540402835291602001916107d8565b820191906000526020600020905b8154815290600101906020018083116107bb57829003601f168201915b505050505095508480546107eb906110ea565b80601f0160208091040260200160405190810160405280929190818152602001828054610817906110ea565b80156108645780601f1061083957610100808354040283529160200191610864565b820191906000526020600020905b81548152906001019060200180831161084757829003601f168201915b50505050509450838054610877906110ea565b80601f01602080910402602001604051908101604052809291908181526020018280546108a3906110ea565b80156108f05780601f106108c5576101008083540402835291602001916108f0565b820191906000526020600020905b8154815290600101906020018083116108d357829003601f168201915b50505050509350828054610903906110ea565b80601f016020809104026020016040519081016040528092919081815260200182805461092f906110ea565b801561097c5780601f106109515761010080835404028352916020019161097c565b820191906000526020600020905b81548152906001019060200180831161095f57829003601f168201915b5050505050925081805461098f906110ea565b80601f01602080910402602001604051908101604052809291908181526020018280546109bb906110ea565b8015610a085780601f106109dd57610100808354040283529160200191610a08565b820191906000526020600020905b8154815290600101906020018083116109eb57829003601f168201915b50505050509150808054610a1b906110ea565b80601f0160208091040260200160405190810160405280929190818152602001828054610a47906110ea565b8015610a945780601f10610a6957610100808354040283529160200191610a94565b820191906000526020600020905b815481529060010190602001808311610a7757829003601f168201915b5050505050905096509650965096509650965050610ac2565b8080610ab89061117a565b9150506105ef565b505b91939550919395565b828054610ad7906110ea565b90600052602060002090601f016020900481019282610af95760008555610b40565b82601f10610b1257805160ff1916838001178555610b40565b82800160010185558215610b40579182015b82811115610b3f578251825591602001919060010190610b24565b5b509050610b4d9190610b51565b5090565b5b80821115610b6a576000816000905550600101610b52565b5090565b6000604051905090565b600080fd5b600080fd5b600073ffffffffffffffffffffffffffffffffffffffff82169050919050565b6000610bad82610b82565b9050919050565b610bbd81610ba2565b8114610bc857600080fd5b50565b600081359050610bda81610bb4565b92915050565b600080fd5b600080fd5b6000601f19601f8301169050919050565b7f4e487b7100000000000000000000000000000000000000000000000000000000600052604160045260246000fd5b610c3382610bea565b810181811067ffffffffffffffff82111715610c5257610c51610bfb565b5b80604052505050565b6000610c65610b6e565b9050610c718282610c2a565b919050565b600067ffffffffffffffff821115610c9157610c90610bfb565b5b610c9a82610bea565b9050602081019050919050565b82818337600083830152505050565b6000610cc9610cc484610c76565b610c5b565b905082815260208101848484011115610ce557610ce4610be5565b5b610cf0848285610ca7565b509392505050565b600082601f830112610d0d57610d0c610be0565b5b8135610d1d848260208601610cb6565b91505092915050565b600080600080600080600060e0888a031215610d4557610d44610b78565b5b6000610d538a828b01610bcb565b975050602088013567ffffffffffffffff811115610d7457610d73610b7d565b5b610d808a828b01610cf8565b965050604088013567ffffffffffffffff811115610da157610da0610b7d565b5b610dad8a828b01610cf8565b955050606088013567ffffffffffffffff811115610dce57610dcd610b7d565b5b610dda8a828b01610cf8565b945050608088013567ffffffffffffffff811115610dfb57610dfa610b7d565b5b610e078a828b01610cf8565b93505060a088013567ffffffffffffffff811115610e2857610e27610b7d565b5b610e348a828b01610cf8565b92505060c088013567ffffffffffffffff811115610e5557610e54610b7d565b5b610e618a828b01610cf8565b91505092959891949750929550565b6000819050919050565b610e8381610e70565b8114610e8e57600080fd5b50565b600081359050610ea081610e7a565b92915050565b600060208284031215610ebc57610ebb610b78565b5b6000610eca84828501610e91565b91505092915050565b610edc81610ba2565b82525050565b600081519050919050565b600082825260208201905092915050565b60005b83811015610f1c578082015181840152602081019050610f01565b83811115610f2b576000848401525b50505050565b6000610f3c82610ee2565b610f468185610eed565b9350610f56818560208601610efe565b610f5f81610bea565b840191505092915050565b600060e082019050610f7f600083018a610ed3565b8181036020830152610f918189610f31565b90508181036040830152610fa58188610f31565b90508181036060830152610fb98187610f31565b90508181036080830152610fcd8186610f31565b905081810360a0830152610fe18185610f31565b905081810360c0830152610ff58184610f31565b905098975050505050505050565b60006020828403121561101957611018610b78565b5b600061102784828501610bcb565b91505092915050565b600060c082019050818103600083015261104a8189610f31565b9050818103602083015261105e8188610f31565b905081810360408301526110728187610f31565b905081810360608301526110868186610f31565b9050818103608083015261109a8185610f31565b905081810360a08301526110ae8184610f31565b9050979650505050505050565b7f4e487b7100000000000000000000000000000000000000000000000000000000600052602260045260246000fd5b6000600282049050600182168061110257607f821691505b60208210811415611116576111156110bb565b5b50919050565b7f4e487b7100000000000000000000000000000000000000000000000000000000600052603260045260246000fd5b7f4e487b7100000000000000000000000000000000000000000000000000000000600052601160045260246000fd5b600061118582610e70565b91507fffffffffffffffffffffffffffffffffffffffffffffffffffffffffffffffff8214156111b8576111b761114b565b5b60018201905091905056fea26469706673582212202a445c745c678c94bfecffe187dfac5dd90fd2f1763c3db6763bf8a7440aad4164736f6c634300080b0033",
  "immutableReferences": {},
  "source": "// SPDX-License-Identifier: MIT\r\npragma solidity >=0.4.22 <0.9.0;\r\n\r\n//Lu tr danh sch doanh nghip\r\ncontract ListBusiness {\r\n\r\n    struct ListDN {\r\n        address businessOwner;\r\n        string name; \r\n        string country; \r\n        string facebook;\r\n        string website;\r\n        string linkedin;\r\n        string focusArea;\r\n    }\r\n\r\n    ListDN[] public listDNs;\r\n\r\n    function addDN (\r\n        address _businessOwner,\r\n        string memory _name,\r\n        string memory _country,\r\n        string memory _facebook,\r\n        string memory _website,\r\n        string memory _linkedin,\r\n        string memory _focusArea) public {\r\n            listDNs.push(ListDN(_businessOwner, _name, _country, _facebook, _website, _linkedin, _focusArea));\r\n    }\r\n\r\n    function getListDN(address _businessOwner) public view returns(string memory name,string memory country,string memory facebook,string memory website,string memory linkedin,string memory focusArea) {\r\n        for(uint i=0; i<listDNs.length;i++){\r\n            if(listDNs[i].businessOwner == _businessOwner){\r\n                return (listDNs[i].name, \r\n                listDNs[i].country, \r\n                listDNs[i].facebook, \r\n                listDNs[i].website, \r\n                listDNs[i].linkedin, \r\n                listDNs[i].focusArea);\r\n            } \r\n        }  \r\n    }\r\n    \r\n}",
  "sourcePath": "C:\\Users\\19520\\Documents\\NCKH_Blockchain\\SolidityProgramming\\ProjectResearch\\SmartCV\\SmartContract\\contracts\\SmartCV_ListBusiness.sol",
  "compiler": {
    "name": "solc",
    "version": "0.8.11+commit.d7f03943.Emscripten.clang"
  },
  "schemaVersion": "3.4.4",
  "updatedAt": "2022-06-25T15:49:44.980Z",
  "devdoc": {
    "kind": "dev",
    "methods": {},
    "version": 1
  },
  "userdoc": {
    "kind": "user",
    "methods": {},
    "version": 1
  }
}