{
  "contractName": "ListBusiness",
  "abi": [
    {
      "inputs": [
        {
          "internalType": "uint256",
          "name": "",
          "type": "uint256"
        }
      ],
      "name": "listDNs",
      "outputs": [
        {
          "internalType": "address",
          "name": "businessOwner",
          "type": "address"
        },
        {
          "internalType": "string",
          "name": "name",
          "type": "string"
        },
        {
          "internalType": "string",
          "name": "country",
          "type": "string"
        },
        {
          "internalType": "string",
          "name": "facebook",
          "type": "string"
        },
        {
          "internalType": "string",
          "name": "website",
          "type": "string"
        },
        {
          "internalType": "string",
          "name": "linkedin",
          "type": "string"
        },
        {
          "internalType": "string",
          "name": "focusArea",
          "type": "string"
        },
        {
          "internalType": "string",
          "name": "password",
          "type": "string"
        }
      ],
      "stateMutability": "view",
      "type": "function"
    },
    {
      "inputs": [
        {
          "internalType": "address",
          "name": "_businessOwner",
          "type": "address"
        },
        {
          "internalType": "string",
          "name": "_name",
          "type": "string"
        },
        {
          "internalType": "string",
          "name": "_country",
          "type": "string"
        },
        {
          "internalType": "string",
          "name": "_facebook",
          "type": "string"
        },
        {
          "internalType": "string",
          "name": "_website",
          "type": "string"
        },
        {
          "internalType": "string",
          "name": "_linkedin",
          "type": "string"
        },
        {
          "internalType": "string",
          "name": "_focusArea",
          "type": "string"
        },
        {
          "internalType": "string",
          "name": "_password",
          "type": "string"
        }
      ],
      "name": "addDN",
      "outputs": [],
      "stateMutability": "nonpayable",
      "type": "function"
    },
    {
      "inputs": [
        {
          "internalType": "address",
          "name": "_businessOwner",
          "type": "address"
        },
        {
          "internalType": "string",
          "name": "_name",
          "type": "string"
        },
        {
          "internalType": "string",
          "name": "_country",
          "type": "string"
        },
        {
          "internalType": "string",
          "name": "_facebook",
          "type": "string"
        },
        {
          "internalType": "string",
          "name": "_website",
          "type": "string"
        },
        {
          "internalType": "string",
          "name": "_linkedin",
          "type": "string"
        },
        {
          "internalType": "string",
          "name": "_focusArea",
          "type": "string"
        }
      ],
      "name": "editDN",
      "outputs": [],
      "stateMutability": "nonpayable",
      "type": "function"
    },
    {
      "inputs": [],
      "name": "getListDN",
      "outputs": [
        {
          "internalType": "address[]",
          "name": "",
          "type": "address[]"
        },
        {
          "internalType": "string[]",
          "name": "",
          "type": "string[]"
        },
        {
          "internalType": "string[]",
          "name": "",
          "type": "string[]"
        },
        {
          "internalType": "string[]",
          "name": "",
          "type": "string[]"
        },
        {
          "internalType": "string[]",
          "name": "",
          "type": "string[]"
        },
        {
          "internalType": "string[]",
          "name": "",
          "type": "string[]"
        },
        {
          "internalType": "string[]",
          "name": "",
          "type": "string[]"
        },
        {
          "internalType": "string[]",
          "name": "",
          "type": "string[]"
        }
      ],
      "stateMutability": "view",
      "type": "function"
    },
    {
      "inputs": [
        {
          "internalType": "address",
          "name": "_businessOwner",
          "type": "address"
        }
      ],
      "name": "getProfile",
      "outputs": [
        {
          "internalType": "address",
          "name": "businessOwner",
          "type": "address"
        },
        {
          "internalType": "string",
          "name": "name",
          "type": "string"
        },
        {
          "internalType": "string",
          "name": "country",
          "type": "string"
        },
        {
          "internalType": "string",
          "name": "facebook",
          "type": "string"
        },
        {
          "internalType": "string",
          "name": "website",
          "type": "string"
        },
        {
          "internalType": "string",
          "name": "linkedin",
          "type": "string"
        },
        {
          "internalType": "string",
          "name": "focusArea",
          "type": "string"
        }
      ],
      "stateMutability": "view",
      "type": "function"
    },
    {
      "inputs": [
        {
          "internalType": "address",
          "name": "_businessOwner",
          "type": "address"
        },
        {
          "internalType": "string",
          "name": "_password",
          "type": "string"
        }
      ],
      "name": "checkDN",
      "outputs": [
        {
          "internalType": "uint256",
          "name": "x",
          "type": "uint256"
        }
      ],
      "stateMutability": "view",
      "type": "function"
    },
    {
      "inputs": [
        {
          "internalType": "address",
          "name": "_businessOwner",
          "type": "address"
        }
      ],
      "name": "checkExistDN",
      "outputs": [
        {
          "internalType": "uint256",
          "name": "x",
          "type": "uint256"
        }
      ],
      "stateMutability": "view",
      "type": "function"
    }
  ],
  "bytecode": "0x608060405234801561001057600080fd5b50612610806100206000396000f3fe608060405234801561001057600080fd5b506004361061007d5760003560e01c8063bf44b3031161005b578063bf44b30314610104578063c6fe410a1461013b578063cfafbc0c1461016b578063e045b710146101905761007d565b80630f53a4701461008257806323b6d993146100b8578063a7dba184146100d4575b600080fd5b61009c60048036038101906100979190611a9d565b6101ac565b6040516100af9796959493929190611b72565b60405180910390f35b6100d260048036038101906100cd9190611d40565b6106e0565b005b6100ee60048036038101906100e99190611e8a565b6108e3565b6040516100fb9190611eff565b60405180910390f35b61011e60048036038101906101199190611f46565b6109e1565b604051610132989796959493929190611f73565b60405180910390f35b61015560048036038101906101509190611a9d565b610e11565b6040516101629190611eff565b60405180910390f35b610173610ec3565b6040516101879897969594939291906121ec565b60405180910390f35b6101aa60048036038101906101a591906122a2565b6117ef565b005b600060608060608060608060005b6000805490508110156106d3578873ffffffffffffffffffffffffffffffffffffffff16600082815481106101f2576101f161241c565b5b906000526020600020906008020160000160009054906101000a900473ffffffffffffffffffffffffffffffffffffffff1673ffffffffffffffffffffffffffffffffffffffff1614156106c057600081815481106102545761025361241c565b5b906000526020600020906008020160000160009054906101000a900473ffffffffffffffffffffffffffffffffffffffff166000828154811061029a5761029961241c565b5b9060005260206000209060080201600101600083815481106102bf576102be61241c565b5b9060005260206000209060080201600201600084815481106102e4576102e361241c565b5b9060005260206000209060080201600301600085815481106103095761030861241c565b5b90600052602060002090600802016004016000868154811061032e5761032d61241c565b5b9060005260206000209060080201600501600087815481106103535761035261241c565b5b90600052602060002090600802016006018580546103709061247a565b80601f016020809104026020016040519081016040528092919081815260200182805461039c9061247a565b80156103e95780601f106103be576101008083540402835291602001916103e9565b820191906000526020600020905b8154815290600101906020018083116103cc57829003601f168201915b505050505095508480546103fc9061247a565b80601f01602080910402602001604051908101604052809291908181526020018280546104289061247a565b80156104755780601f1061044a57610100808354040283529160200191610475565b820191906000526020600020905b81548152906001019060200180831161045857829003601f168201915b505050505094508380546104889061247a565b80601f01602080910402602001604051908101604052809291908181526020018280546104b49061247a565b80156105015780601f106104d657610100808354040283529160200191610501565b820191906000526020600020905b8154815290600101906020018083116104e457829003601f168201915b505050505093508280546105149061247a565b80601f01602080910402602001604051908101604052809291908181526020018280546105409061247a565b801561058d5780601f106105625761010080835404028352916020019161058d565b820191906000526020600020905b81548152906001019060200180831161057057829003601f168201915b505050505092508180546105a09061247a565b80601f01602080910402602001604051908101604052809291908181526020018280546105cc9061247a565b80156106195780601f106105ee57610100808354040283529160200191610619565b820191906000526020600020905b8154815290600101906020018083116105fc57829003601f168201915b5050505050915080805461062c9061247a565b80601f01602080910402602001604051908101604052809291908181526020018280546106589061247a565b80156106a55780601f1061067a576101008083540402835291602001916106a5565b820191906000526020600020905b81548152906001019060200180831161068857829003601f168201915b505050505090509750975097509750975097509750506106d5565b80806106cb906124db565b9150506101ba565b505b919395979092949650565b60005b6000805490508110156108d9578773ffffffffffffffffffffffffffffffffffffffff166000828154811061071b5761071a61241c565b5b906000526020600020906008020160000160009054906101000a900473ffffffffffffffffffffffffffffffffffffffff1673ffffffffffffffffffffffffffffffffffffffff1614156108c657866000828154811061077e5761077d61241c565b5b906000526020600020906008020160010190805190602001906107a2929190611988565b5085600082815481106107b8576107b761241c565b5b906000526020600020906008020160020190805190602001906107dc929190611988565b5084600082815481106107f2576107f161241c565b5b90600052602060002090600802016003019080519060200190610816929190611988565b50836000828154811061082c5761082b61241c565b5b90600052602060002090600802016004019080519060200190610850929190611988565b5082600082815481106108665761086561241c565b5b9060005260206000209060080201600501908051906020019061088a929190611988565b5081600082815481106108a05761089f61241c565b5b906000526020600020906008020160060190805190602001906108c4929190611988565b505b80806108d1906124db565b9150506106e3565b5050505050505050565b600080600090505b6000805490508110156109d9578373ffffffffffffffffffffffffffffffffffffffff16600082815481106109235761092261241c565b5b906000526020600020906008020160000160009054906101000a900473ffffffffffffffffffffffffffffffffffffffff1673ffffffffffffffffffffffffffffffffffffffff161480156109b7575082805190602001206000828154811061098f5761098e61241c565b5b90600052602060002090600802016007016040516109ad91906125c3565b6040518091039020145b156109c65760019150506109db565b80806109d1906124db565b9150506108eb565b505b92915050565b600081815481106109f157600080fd5b90600052602060002090600802016000915090508060000160009054906101000a900473ffffffffffffffffffffffffffffffffffffffff1690806001018054610a3a9061247a565b80601f0160208091040260200160405190810160405280929190818152602001828054610a669061247a565b8015610ab35780601f10610a8857610100808354040283529160200191610ab3565b820191906000526020600020905b815481529060010190602001808311610a9657829003601f168201915b505050505090806002018054610ac89061247a565b80601f0160208091040260200160405190810160405280929190818152602001828054610af49061247a565b8015610b415780601f10610b1657610100808354040283529160200191610b41565b820191906000526020600020905b815481529060010190602001808311610b2457829003601f168201915b505050505090806003018054610b569061247a565b80601f0160208091040260200160405190810160405280929190818152602001828054610b829061247a565b8015610bcf5780601f10610ba457610100808354040283529160200191610bcf565b820191906000526020600020905b815481529060010190602001808311610bb257829003601f168201915b505050505090806004018054610be49061247a565b80601f0160208091040260200160405190810160405280929190818152602001828054610c109061247a565b8015610c5d5780601f10610c3257610100808354040283529160200191610c5d565b820191906000526020600020905b815481529060010190602001808311610c4057829003601f168201915b505050505090806005018054610c729061247a565b80601f0160208091040260200160405190810160405280929190818152602001828054610c9e9061247a565b8015610ceb5780601f10610cc057610100808354040283529160200191610ceb565b820191906000526020600020905b815481529060010190602001808311610cce57829003601f168201915b505050505090806006018054610d009061247a565b80601f0160208091040260200160405190810160405280929190818152602001828054610d2c9061247a565b8015610d795780601f10610d4e57610100808354040283529160200191610d79565b820191906000526020600020905b815481529060010190602001808311610d5c57829003601f168201915b505050505090806007018054610d8e9061247a565b80601f0160208091040260200160405190810160405280929190818152602001828054610dba9061247a565b8015610e075780601f10610ddc57610100808354040283529160200191610e07565b820191906000526020600020905b815481529060010190602001808311610dea57829003601f168201915b5050505050905088565b600080600090505b600080549050811015610ebc578273ffffffffffffffffffffffffffffffffffffffff1660008281548110610e5157610e5061241c565b5b906000526020600020906008020160000160009054906101000a900473ffffffffffffffffffffffffffffffffffffffff1673ffffffffffffffffffffffffffffffffffffffff161415610ea9576001915050610ebe565b8080610eb4906124db565b915050610e19565b505b919050565b6060806060806060806060806000808054905067ffffffffffffffff811115610eef57610eee611c15565b5b604051908082528060200260200182016040528015610f1d5781602001602082028036833780820191505090505b5090506000808054905067ffffffffffffffff811115610f4057610f3f611c15565b5b604051908082528060200260200182016040528015610f7357816020015b6060815260200190600190039081610f5e5790505b5090506000808054905067ffffffffffffffff811115610f9657610f95611c15565b5b604051908082528060200260200182016040528015610fc957816020015b6060815260200190600190039081610fb45790505b5090506000808054905067ffffffffffffffff811115610fec57610feb611c15565b5b60405190808252806020026020018201604052801561101f57816020015b606081526020019060019003908161100a5790505b5090506000808054905067ffffffffffffffff81111561104257611041611c15565b5b60405190808252806020026020018201604052801561107557816020015b60608152602001906001900390816110605790505b5090506000808054905067ffffffffffffffff81111561109857611097611c15565b5b6040519080825280602002602001820160405280156110cb57816020015b60608152602001906001900390816110b65790505b5090506000808054905067ffffffffffffffff8111156110ee576110ed611c15565b5b60405190808252806020026020018201604052801561112157816020015b606081526020019060019003908161110c5790505b5090506000808054905067ffffffffffffffff81111561114457611143611c15565b5b60405190808252806020026020018201604052801561117757816020015b60608152602001906001900390816111625790505b50905060005b6000805490508110156117c4576000818154811061119e5761119d61241c565b5b906000526020600020906008020160000160009054906101000a900473ffffffffffffffffffffffffffffffffffffffff168982815181106111e3576111e261241c565b5b602002602001019073ffffffffffffffffffffffffffffffffffffffff16908173ffffffffffffffffffffffffffffffffffffffff1681525050600081815481106112315761123061241c565b5b9060005260206000209060080201600101805461124d9061247a565b80601f01602080910402602001604051908101604052809291908181526020018280546112799061247a565b80156112c65780601f1061129b576101008083540402835291602001916112c6565b820191906000526020600020905b8154815290600101906020018083116112a957829003601f168201915b50505050508882815181106112de576112dd61241c565b5b6020026020010181905250600081815481106112fd576112fc61241c565b5b906000526020600020906008020160020180546113199061247a565b80601f01602080910402602001604051908101604052809291908181526020018280546113459061247a565b80156113925780601f1061136757610100808354040283529160200191611392565b820191906000526020600020905b81548152906001019060200180831161137557829003601f168201915b50505050508782815181106113aa576113a961241c565b5b6020026020010181905250600081815481106113c9576113c861241c565b5b906000526020600020906008020160030180546113e59061247a565b80601f01602080910402602001604051908101604052809291908181526020018280546114119061247a565b801561145e5780601f106114335761010080835404028352916020019161145e565b820191906000526020600020905b81548152906001019060200180831161144157829003601f168201915b50505050508682815181106114765761147561241c565b5b6020026020010181905250600081815481106114955761149461241c565b5b906000526020600020906008020160040180546114b19061247a565b80601f01602080910402602001604051908101604052809291908181526020018280546114dd9061247a565b801561152a5780601f106114ff5761010080835404028352916020019161152a565b820191906000526020600020905b81548152906001019060200180831161150d57829003601f168201915b50505050508582815181106115425761154161241c565b5b6020026020010181905250600081815481106115615761156061241c565b5b9060005260206000209060080201600501805461157d9061247a565b80601f01602080910402602001604051908101604052809291908181526020018280546115a99061247a565b80156115f65780601f106115cb576101008083540402835291602001916115f6565b820191906000526020600020905b8154815290600101906020018083116115d957829003601f168201915b505050505084828151811061160e5761160d61241c565b5b60200260200101819052506000818154811061162d5761162c61241c565b5b906000526020600020906008020160060180546116499061247a565b80601f01602080910402602001604051908101604052809291908181526020018280546116759061247a565b80156116c25780601f10611697576101008083540402835291602001916116c2565b820191906000526020600020905b8154815290600101906020018083116116a557829003601f168201915b50505050508382815181106116da576116d961241c565b5b6020026020010181905250600081815481106116f9576116f861241c565b5b906000526020600020906008020160070180546117159061247a565b80601f01602080910402602001604051908101604052809291908181526020018280546117419061247a565b801561178e5780601f106117635761010080835404028352916020019161178e565b820191906000526020600020905b81548152906001019060200180831161177157829003601f168201915b50505050508282815181106117a6576117a561241c565b5b602002602001018190525080806117bc906124db565b91505061117d565b5087878787878787879f509f509f509f509f509f509f509f5050505050505050509091929394959697565b60006040518061010001604052808a73ffffffffffffffffffffffffffffffffffffffff16815260200189815260200188815260200187815260200186815260200185815260200184815260200183815250908060018154018082558091505060019003906000526020600020906008020160009091909190915060008201518160000160006101000a81548173ffffffffffffffffffffffffffffffffffffffff021916908373ffffffffffffffffffffffffffffffffffffffff16021790555060208201518160010190805190602001906118cd929190611988565b5060408201518160020190805190602001906118ea929190611988565b506060820151816003019080519060200190611907929190611988565b506080820151816004019080519060200190611924929190611988565b5060a0820151816005019080519060200190611941929190611988565b5060c082015181600601908051906020019061195e929190611988565b5060e082015181600701908051906020019061197b929190611988565b5050505050505050505050565b8280546119949061247a565b90600052602060002090601f0160209004810192826119b657600085556119fd565b82601f106119cf57805160ff19168380011785556119fd565b828001600101855582156119fd579182015b828111156119fc5782518255916020019190600101906119e1565b5b509050611a0a9190611a0e565b5090565b5b80821115611a27576000816000905550600101611a0f565b5090565b6000604051905090565b600080fd5b600080fd5b600073ffffffffffffffffffffffffffffffffffffffff82169050919050565b6000611a6a82611a3f565b9050919050565b611a7a81611a5f565b8114611a8557600080fd5b50565b600081359050611a9781611a71565b92915050565b600060208284031215611ab357611ab2611a35565b5b6000611ac184828501611a88565b91505092915050565b611ad381611a5f565b82525050565b600081519050919050565b600082825260208201905092915050565b60005b83811015611b13578082015181840152602081019050611af8565b83811115611b22576000848401525b50505050565b6000601f19601f8301169050919050565b6000611b4482611ad9565b611b4e8185611ae4565b9350611b5e818560208601611af5565b611b6781611b28565b840191505092915050565b600060e082019050611b87600083018a611aca565b8181036020830152611b998189611b39565b90508181036040830152611bad8188611b39565b90508181036060830152611bc18187611b39565b90508181036080830152611bd58186611b39565b905081810360a0830152611be98185611b39565b905081810360c0830152611bfd8184611b39565b905098975050505050505050565b600080fd5b600080fd5b7f4e487b7100000000000000000000000000000000000000000000000000000000600052604160045260246000fd5b611c4d82611b28565b810181811067ffffffffffffffff82111715611c6c57611c6b611c15565b5b80604052505050565b6000611c7f611a2b565b9050611c8b8282611c44565b919050565b600067ffffffffffffffff821115611cab57611caa611c15565b5b611cb482611b28565b9050602081019050919050565b82818337600083830152505050565b6000611ce3611cde84611c90565b611c75565b905082815260208101848484011115611cff57611cfe611c10565b5b611d0a848285611cc1565b509392505050565b600082601f830112611d2757611d26611c0b565b5b8135611d37848260208601611cd0565b91505092915050565b600080600080600080600060e0888a031215611d5f57611d5e611a35565b5b6000611d6d8a828b01611a88565b975050602088013567ffffffffffffffff811115611d8e57611d8d611a3a565b5b611d9a8a828b01611d12565b965050604088013567ffffffffffffffff811115611dbb57611dba611a3a565b5b611dc78a828b01611d12565b955050606088013567ffffffffffffffff811115611de857611de7611a3a565b5b611df48a828b01611d12565b945050608088013567ffffffffffffffff811115611e1557611e14611a3a565b5b611e218a828b01611d12565b93505060a088013567ffffffffffffffff811115611e4257611e41611a3a565b5b611e4e8a828b01611d12565b92505060c088013567ffffffffffffffff811115611e6f57611e6e611a3a565b5b611e7b8a828b01611d12565b91505092959891949750929550565b60008060408385031215611ea157611ea0611a35565b5b6000611eaf85828601611a88565b925050602083013567ffffffffffffffff811115611ed057611ecf611a3a565b5b611edc85828601611d12565b9150509250929050565b6000819050919050565b611ef981611ee6565b82525050565b6000602082019050611f146000830184611ef0565b92915050565b611f2381611ee6565b8114611f2e57600080fd5b50565b600081359050611f4081611f1a565b92915050565b600060208284031215611f5c57611f5b611a35565b5b6000611f6a84828501611f31565b91505092915050565b600061010082019050611f89600083018b611aca565b8181036020830152611f9b818a611b39565b90508181036040830152611faf8189611b39565b90508181036060830152611fc38188611b39565b90508181036080830152611fd78187611b39565b905081810360a0830152611feb8186611b39565b905081810360c0830152611fff8185611b39565b905081810360e08301526120138184611b39565b90509998505050505050505050565b600081519050919050565b600082825260208201905092915050565b6000819050602082019050919050565b61205781611a5f565b82525050565b6000612069838361204e565b60208301905092915050565b6000602082019050919050565b600061208d82612022565b612097818561202d565b93506120a28361203e565b8060005b838110156120d35781516120ba888261205d565b97506120c583612075565b9250506001810190506120a6565b5085935050505092915050565b600081519050919050565b600082825260208201905092915050565b6000819050602082019050919050565b600082825260208201905092915050565b600061212882611ad9565b612132818561210c565b9350612142818560208601611af5565b61214b81611b28565b840191505092915050565b6000612162838361211d565b905092915050565b6000602082019050919050565b6000612182826120e0565b61218c81856120eb565b93508360208202850161219e856120fc565b8060005b858110156121da57848403895281516121bb8582612156565b94506121c68361216a565b925060208a019950506001810190506121a2565b50829750879550505050505092915050565b6000610100820190508181036000830152612207818b612082565b9050818103602083015261221b818a612177565b9050818103604083015261222f8189612177565b905081810360608301526122438188612177565b905081810360808301526122578187612177565b905081810360a083015261226b8186612177565b905081810360c083015261227f8185612177565b905081810360e08301526122938184612177565b90509998505050505050505050565b600080600080600080600080610100898b0312156122c3576122c2611a35565b5b60006122d18b828c01611a88565b985050602089013567ffffffffffffffff8111156122f2576122f1611a3a565b5b6122fe8b828c01611d12565b975050604089013567ffffffffffffffff81111561231f5761231e611a3a565b5b61232b8b828c01611d12565b965050606089013567ffffffffffffffff81111561234c5761234b611a3a565b5b6123588b828c01611d12565b955050608089013567ffffffffffffffff81111561237957612378611a3a565b5b6123858b828c01611d12565b94505060a089013567ffffffffffffffff8111156123a6576123a5611a3a565b5b6123b28b828c01611d12565b93505060c089013567ffffffffffffffff8111156123d3576123d2611a3a565b5b6123df8b828c01611d12565b92505060e089013567ffffffffffffffff811115612400576123ff611a3a565b5b61240c8b828c01611d12565b9150509295985092959890939650565b7f4e487b7100000000000000000000000000000000000000000000000000000000600052603260045260246000fd5b7f4e487b7100000000000000000000000000000000000000000000000000000000600052602260045260246000fd5b6000600282049050600182168061249257607f821691505b602082108114156124a6576124a561244b565b5b50919050565b7f4e487b7100000000000000000000000000000000000000000000000000000000600052601160045260246000fd5b60006124e682611ee6565b91507fffffffffffffffffffffffffffffffffffffffffffffffffffffffffffffffff821415612519576125186124ac565b5b600182019050919050565b600081905092915050565b60008190508160005260206000209050919050565b600081546125518161247a565b61255b8186612524565b945060018216600081146125765760018114612587576125ba565b60ff198316865281860193506125ba565b6125908561252f565b60005b838110156125b257815481890152600182019150602081019050612593565b838801955050505b50505092915050565b60006125cf8284612544565b91508190509291505056fea2646970667358221220bc344b17e35ab615f1464e8a2f8cd70376b6cfe866c70beed898b4f45670644d64736f6c634300080b0033",
  "immutableReferences": {},
  "source": "// SPDX-License-Identifier: MIT\r\npragma solidity >=0.4.22 <0.9.0;\r\n\r\n// Lu tr danh sch doanh nghip\r\ncontract ListBusiness {\r\n\r\n    // Khai bo cu trc lu tr thng tin doanh nghip\r\n    struct ListDN {\r\n        address businessOwner;\r\n        string name;\r\n        string country;\r\n        string facebook;\r\n        string website;\r\n        string linkedin;\r\n        string focusArea;\r\n        string password;\r\n    }\r\n\r\n    // Khai bo mng  lu tr thng tin\r\n    ListDN[] public listDNs;\r\n\r\n    // Chc nng thm thng tin doanh nghip\r\n    function addDN (\r\n        address _businessOwner,\r\n        string memory _name,\r\n        string memory _country,\r\n        string memory _facebook,\r\n        string memory _website,\r\n        string memory _linkedin,\r\n        string memory _focusArea,\r\n        string memory _password) public {\r\n            listDNs.push(\r\n                ListDN(_businessOwner, \r\n                        _name, \r\n                        _country, \r\n                        _facebook, \r\n                        _website, \r\n                        _linkedin, \r\n                        _focusArea, \r\n                        _password)\r\n                );\r\n    }\r\n\r\n    // Chc nng chnh sa thng tin doanh nghip\r\n    function editDN (\r\n        address _businessOwner,\r\n        string memory _name,\r\n        string memory _country,\r\n        string memory _facebook,\r\n        string memory _website,\r\n        string memory _linkedin,\r\n        string memory _focusArea) public {\r\n            for(uint i=0; i<listDNs.length;i++){\r\n                if(listDNs[i].businessOwner == _businessOwner){\r\n                    listDNs[i].name = _name;\r\n                    listDNs[i].country = _country;\r\n                    listDNs[i].facebook = _facebook;\r\n                    listDNs[i].website = _website;\r\n                    listDNs[i].linkedin = _linkedin; \r\n                    listDNs[i].focusArea = _focusArea;\r\n                }\r\n            }\r\n    }\r\n\r\n    // Chc nng ly danh sch doanh nghip  thm\r\n    function getListDN() public view returns(\r\n        address[] memory, \r\n        string[] memory, \r\n        string[] memory, \r\n        string[] memory, \r\n        string[] memory, \r\n        string[] memory, \r\n        string[] memory,\r\n        string[] memory) {\r\n            address[] memory businessOwners = new address[](listDNs.length);\r\n            string[] memory names = new string[](listDNs.length);\r\n            string[] memory countrys = new string[](listDNs.length);\r\n            string[] memory facebooks = new string[](listDNs.length);\r\n            string[] memory websites = new string[](listDNs.length);\r\n            string[] memory linkedins = new string[](listDNs.length);\r\n            string[] memory focusAreas = new string[](listDNs.length);\r\n            string[] memory passwords = new string[](listDNs.length);\r\n            for(uint i=0; i<listDNs.length;i++){\r\n                businessOwners[i] = listDNs[i].businessOwner;\r\n                names[i] = listDNs[i].name;\r\n                countrys[i] = listDNs[i].country;\r\n                facebooks[i] = listDNs[i].facebook;\r\n                websites[i] = listDNs[i].website;\r\n                linkedins[i] = listDNs[i].linkedin;\r\n                focusAreas[i] = listDNs[i].focusArea;\r\n                passwords[i] = listDNs[i].password;\r\n            }\r\n            return (businessOwners, names, countrys, facebooks, websites, linkedins, focusAreas, passwords);\r\n    }\r\n\r\n    // Chc nng ly thng tin ca doanh nghip\r\n    function getProfile(address _businessOwner) public view returns(\r\n        address businessOwner, \r\n        string memory name, \r\n        string memory country, \r\n        string memory facebook, \r\n        string memory website, \r\n        string memory linkedin, \r\n        string memory focusArea) {\r\n            for(uint i=0; i<listDNs.length;i++){\r\n                if(listDNs[i].businessOwner == _businessOwner){\r\n                    return (listDNs[i].businessOwner,\r\n                            listDNs[i].name, \r\n                            listDNs[i].country, \r\n                            listDNs[i].facebook, \r\n                            listDNs[i].website, \r\n                            listDNs[i].linkedin, \r\n                            listDNs[i].focusArea);\r\n                }\r\n            }\r\n    }\r\n\r\n    // Chc nng kim tra doanh nghip  ng k hay cha?\r\n    function checkDN(\r\n        address _businessOwner, \r\n        string memory _password) public view returns(uint x) {\r\n            for(uint i=0; i<listDNs.length; i++){\r\n                if((listDNs[i].businessOwner == _businessOwner) && (keccak256(bytes(listDNs[i].password)) == keccak256(bytes(_password)))){\r\n                    return 1;\r\n                }\r\n            }\r\n    }\r\n\r\n    // Chc nng kim tra a ch doanh nghip  tn ti hay cha?\r\n    function checkExistDN(address _businessOwner) public view returns(uint x) {\r\n            for(uint i=0; i<listDNs.length; i++){\r\n                if(listDNs[i].businessOwner == _businessOwner){\r\n                    return 1;\r\n                }\r\n            }\r\n    }\r\n    \r\n}",
  "sourcePath": "C:\\Users\\19520\\Documents\\NCKH_Blockchain\\SolidityProgramming\\ProjectResearch\\SmartCV\\SmartContract\\contracts\\SmartCV_ListBusiness.sol",
  "compiler": {
    "name": "solc",
    "version": "0.8.11+commit.d7f03943.Emscripten.clang"
  },
  "schemaVersion": "3.4.4",
  "updatedAt": "2022-07-30T12:55:40.955Z",
  "devdoc": {
    "kind": "dev",
    "methods": {},
    "version": 1
  },
  "userdoc": {
    "kind": "user",
    "methods": {},
    "version": 1
  }
}