{
  "contractName": "ListIIG",
  "abi": [
    {
      "inputs": [
        {
          "internalType": "uint256",
          "name": "",
          "type": "uint256"
        }
      ],
      "name": "iigInfos",
      "outputs": [
        {
          "internalType": "address",
          "name": "iigOwner",
          "type": "address"
        },
        {
          "internalType": "string",
          "name": "name",
          "type": "string"
        },
        {
          "internalType": "string",
          "name": "country",
          "type": "string"
        },
        {
          "internalType": "string",
          "name": "facebook",
          "type": "string"
        },
        {
          "internalType": "string",
          "name": "website",
          "type": "string"
        },
        {
          "internalType": "string",
          "name": "linkedin",
          "type": "string"
        },
        {
          "internalType": "string",
          "name": "password",
          "type": "string"
        }
      ],
      "stateMutability": "view",
      "type": "function"
    },
    {
      "inputs": [
        {
          "internalType": "uint256",
          "name": "",
          "type": "uint256"
        }
      ],
      "name": "iigLRResults",
      "outputs": [
        {
          "internalType": "bytes32",
          "name": "codeLRResult",
          "type": "bytes32"
        },
        {
          "internalType": "address",
          "name": "iigOwner",
          "type": "address"
        },
        {
          "internalType": "address",
          "name": "studentOwner",
          "type": "address"
        },
        {
          "internalType": "string",
          "name": "testDate",
          "type": "string"
        },
        {
          "internalType": "string",
          "name": "shiftTest",
          "type": "string"
        },
        {
          "internalType": "string",
          "name": "expireDate",
          "type": "string"
        },
        {
          "internalType": "uint256",
          "name": "listeningScore",
          "type": "uint256"
        },
        {
          "internalType": "uint256",
          "name": "readingScore",
          "type": "uint256"
        },
        {
          "internalType": "uint256",
          "name": "totalScore",
          "type": "uint256"
        }
      ],
      "stateMutability": "view",
      "type": "function"
    },
    {
      "inputs": [
        {
          "internalType": "uint256",
          "name": "",
          "type": "uint256"
        }
      ],
      "name": "iigRequests",
      "outputs": [
        {
          "internalType": "bytes32",
          "name": "codeRequest",
          "type": "bytes32"
        },
        {
          "internalType": "address",
          "name": "studentOwner",
          "type": "address"
        },
        {
          "internalType": "address",
          "name": "iigOwner",
          "type": "address"
        },
        {
          "internalType": "string",
          "name": "identityCard",
          "type": "string"
        },
        {
          "internalType": "string",
          "name": "requestDate",
          "type": "string"
        },
        {
          "internalType": "string",
          "name": "statusRequest",
          "type": "string"
        }
      ],
      "stateMutability": "view",
      "type": "function"
    },
    {
      "inputs": [
        {
          "internalType": "uint256",
          "name": "",
          "type": "uint256"
        }
      ],
      "name": "iigSWResults",
      "outputs": [
        {
          "internalType": "bytes32",
          "name": "codeSWResult",
          "type": "bytes32"
        },
        {
          "internalType": "address",
          "name": "iigOwner",
          "type": "address"
        },
        {
          "internalType": "address",
          "name": "studentOwner",
          "type": "address"
        },
        {
          "internalType": "string",
          "name": "testDate",
          "type": "string"
        },
        {
          "internalType": "string",
          "name": "shiftTest",
          "type": "string"
        },
        {
          "internalType": "string",
          "name": "expireDate",
          "type": "string"
        },
        {
          "internalType": "uint256",
          "name": "speakingScore",
          "type": "uint256"
        },
        {
          "internalType": "uint256",
          "name": "writingScore",
          "type": "uint256"
        },
        {
          "internalType": "uint256",
          "name": "totalScore",
          "type": "uint256"
        }
      ],
      "stateMutability": "view",
      "type": "function"
    },
    {
      "inputs": [
        {
          "internalType": "address",
          "name": "_iigOwner",
          "type": "address"
        },
        {
          "internalType": "string",
          "name": "_name",
          "type": "string"
        },
        {
          "internalType": "string",
          "name": "_country",
          "type": "string"
        },
        {
          "internalType": "string",
          "name": "_facebook",
          "type": "string"
        },
        {
          "internalType": "string",
          "name": "_website",
          "type": "string"
        },
        {
          "internalType": "string",
          "name": "_linkedin",
          "type": "string"
        },
        {
          "internalType": "string",
          "name": "_password",
          "type": "string"
        }
      ],
      "name": "addIIG",
      "outputs": [],
      "stateMutability": "nonpayable",
      "type": "function"
    },
    {
      "inputs": [
        {
          "internalType": "address",
          "name": "_iigOwner",
          "type": "address"
        },
        {
          "internalType": "string",
          "name": "_name",
          "type": "string"
        },
        {
          "internalType": "string",
          "name": "_country",
          "type": "string"
        },
        {
          "internalType": "string",
          "name": "_facebook",
          "type": "string"
        },
        {
          "internalType": "string",
          "name": "_website",
          "type": "string"
        },
        {
          "internalType": "string",
          "name": "_linkedin",
          "type": "string"
        }
      ],
      "name": "editIIG",
      "outputs": [],
      "stateMutability": "nonpayable",
      "type": "function"
    },
    {
      "inputs": [],
      "name": "getListIIG",
      "outputs": [
        {
          "internalType": "address[]",
          "name": "",
          "type": "address[]"
        },
        {
          "internalType": "string[]",
          "name": "",
          "type": "string[]"
        },
        {
          "internalType": "string[]",
          "name": "",
          "type": "string[]"
        },
        {
          "internalType": "string[]",
          "name": "",
          "type": "string[]"
        },
        {
          "internalType": "string[]",
          "name": "",
          "type": "string[]"
        },
        {
          "internalType": "string[]",
          "name": "",
          "type": "string[]"
        },
        {
          "internalType": "string[]",
          "name": "",
          "type": "string[]"
        }
      ],
      "stateMutability": "view",
      "type": "function"
    },
    {
      "inputs": [
        {
          "internalType": "address",
          "name": "_iigOwner",
          "type": "address"
        }
      ],
      "name": "getProfile",
      "outputs": [
        {
          "internalType": "address",
          "name": "iigOwner",
          "type": "address"
        },
        {
          "internalType": "string",
          "name": "name",
          "type": "string"
        },
        {
          "internalType": "string",
          "name": "country",
          "type": "string"
        },
        {
          "internalType": "string",
          "name": "facebook",
          "type": "string"
        },
        {
          "internalType": "string",
          "name": "website",
          "type": "string"
        },
        {
          "internalType": "string",
          "name": "linkedin",
          "type": "string"
        }
      ],
      "stateMutability": "view",
      "type": "function"
    },
    {
      "inputs": [
        {
          "internalType": "address",
          "name": "_iigOwner",
          "type": "address"
        },
        {
          "internalType": "string",
          "name": "_password",
          "type": "string"
        }
      ],
      "name": "checkIIG",
      "outputs": [
        {
          "internalType": "uint256",
          "name": "x",
          "type": "uint256"
        }
      ],
      "stateMutability": "view",
      "type": "function"
    },
    {
      "inputs": [
        {
          "internalType": "address",
          "name": "_iigOwner",
          "type": "address"
        }
      ],
      "name": "checkExistIIG",
      "outputs": [
        {
          "internalType": "uint256",
          "name": "x",
          "type": "uint256"
        }
      ],
      "stateMutability": "view",
      "type": "function"
    },
    {
      "inputs": [
        {
          "internalType": "address",
          "name": "_studentOwner",
          "type": "address"
        },
        {
          "internalType": "address",
          "name": "_iigOwner",
          "type": "address"
        },
        {
          "internalType": "string",
          "name": "_identityCard",
          "type": "string"
        },
        {
          "internalType": "string",
          "name": "_requestDate",
          "type": "string"
        }
      ],
      "name": "addRequest",
      "outputs": [],
      "stateMutability": "nonpayable",
      "type": "function"
    },
    {
      "inputs": [
        {
          "internalType": "address",
          "name": "_iigOwner",
          "type": "address"
        }
      ],
      "name": "getListRequest",
      "outputs": [
        {
          "internalType": "bytes32[]",
          "name": "",
          "type": "bytes32[]"
        },
        {
          "internalType": "address[]",
          "name": "",
          "type": "address[]"
        },
        {
          "internalType": "address[]",
          "name": "",
          "type": "address[]"
        },
        {
          "internalType": "string[]",
          "name": "",
          "type": "string[]"
        },
        {
          "internalType": "string[]",
          "name": "",
          "type": "string[]"
        },
        {
          "internalType": "string[]",
          "name": "",
          "type": "string[]"
        }
      ],
      "stateMutability": "view",
      "type": "function"
    },
    {
      "inputs": [
        {
          "internalType": "address",
          "name": "_iigOwner",
          "type": "address"
        },
        {
          "internalType": "address",
          "name": "_studentOwner",
          "type": "address"
        }
      ],
      "name": "getListRequestStudent",
      "outputs": [
        {
          "internalType": "bytes32[]",
          "name": "",
          "type": "bytes32[]"
        },
        {
          "internalType": "address[]",
          "name": "",
          "type": "address[]"
        },
        {
          "internalType": "address[]",
          "name": "",
          "type": "address[]"
        },
        {
          "internalType": "string[]",
          "name": "",
          "type": "string[]"
        },
        {
          "internalType": "string[]",
          "name": "",
          "type": "string[]"
        },
        {
          "internalType": "string[]",
          "name": "",
          "type": "string[]"
        }
      ],
      "stateMutability": "view",
      "type": "function"
    },
    {
      "inputs": [
        {
          "internalType": "address",
          "name": "_studentOwner",
          "type": "address"
        },
        {
          "internalType": "address",
          "name": "_iigOwner",
          "type": "address"
        },
        {
          "internalType": "bytes32",
          "name": "_codeRequest",
          "type": "bytes32"
        }
      ],
      "name": "confirmRequest",
      "outputs": [],
      "stateMutability": "nonpayable",
      "type": "function"
    },
    {
      "inputs": [
        {
          "internalType": "address",
          "name": "_studentOwner",
          "type": "address"
        },
        {
          "internalType": "address",
          "name": "_iigOwner",
          "type": "address"
        },
        {
          "internalType": "bytes32",
          "name": "_codeRequest",
          "type": "bytes32"
        }
      ],
      "name": "declineRequest",
      "outputs": [],
      "stateMutability": "nonpayable",
      "type": "function"
    },
    {
      "inputs": [
        {
          "internalType": "address",
          "name": "_iigOwner",
          "type": "address"
        },
        {
          "internalType": "address",
          "name": "_studentOwner",
          "type": "address"
        },
        {
          "internalType": "string",
          "name": "_testDate",
          "type": "string"
        },
        {
          "internalType": "string",
          "name": "_shiftTest",
          "type": "string"
        },
        {
          "internalType": "string",
          "name": "_expireDate",
          "type": "string"
        },
        {
          "internalType": "uint256",
          "name": "_listeningScore",
          "type": "uint256"
        },
        {
          "internalType": "uint256",
          "name": "_readingScore",
          "type": "uint256"
        }
      ],
      "name": "addLRResult",
      "outputs": [],
      "stateMutability": "nonpayable",
      "type": "function"
    },
    {
      "inputs": [
        {
          "internalType": "address",
          "name": "_iigOwner",
          "type": "address"
        },
        {
          "internalType": "address",
          "name": "_studentOwner",
          "type": "address"
        }
      ],
      "name": "getListLRResult",
      "outputs": [
        {
          "internalType": "string[]",
          "name": "",
          "type": "string[]"
        },
        {
          "internalType": "string[]",
          "name": "",
          "type": "string[]"
        },
        {
          "internalType": "string[]",
          "name": "",
          "type": "string[]"
        },
        {
          "internalType": "uint256[]",
          "name": "",
          "type": "uint256[]"
        },
        {
          "internalType": "uint256[]",
          "name": "",
          "type": "uint256[]"
        },
        {
          "internalType": "uint256[]",
          "name": "",
          "type": "uint256[]"
        }
      ],
      "stateMutability": "view",
      "type": "function"
    },
    {
      "inputs": [
        {
          "internalType": "address",
          "name": "_iigOwner",
          "type": "address"
        },
        {
          "internalType": "address",
          "name": "_studentOwner",
          "type": "address"
        },
        {
          "internalType": "string",
          "name": "_testDate",
          "type": "string"
        },
        {
          "internalType": "string",
          "name": "_shiftTest",
          "type": "string"
        }
      ],
      "name": "getLRResult",
      "outputs": [
        {
          "internalType": "string",
          "name": "testDate",
          "type": "string"
        },
        {
          "internalType": "string",
          "name": "shiftTest",
          "type": "string"
        },
        {
          "internalType": "string",
          "name": "expireDate",
          "type": "string"
        },
        {
          "internalType": "uint256",
          "name": "listeningScore",
          "type": "uint256"
        },
        {
          "internalType": "uint256",
          "name": "readingScore",
          "type": "uint256"
        },
        {
          "internalType": "uint256",
          "name": "totalScore",
          "type": "uint256"
        }
      ],
      "stateMutability": "view",
      "type": "function"
    },
    {
      "inputs": [
        {
          "internalType": "address",
          "name": "_studentOwner",
          "type": "address"
        },
        {
          "internalType": "string",
          "name": "_testDate",
          "type": "string"
        },
        {
          "internalType": "string",
          "name": "_shiftTest",
          "type": "string"
        }
      ],
      "name": "checkExistLRResult",
      "outputs": [
        {
          "internalType": "uint256",
          "name": "x",
          "type": "uint256"
        }
      ],
      "stateMutability": "view",
      "type": "function"
    },
    {
      "inputs": [
        {
          "internalType": "address",
          "name": "_iigOwner",
          "type": "address"
        },
        {
          "internalType": "address",
          "name": "_studentOwner",
          "type": "address"
        },
        {
          "internalType": "string",
          "name": "_testDate",
          "type": "string"
        },
        {
          "internalType": "string",
          "name": "_shiftTest",
          "type": "string"
        },
        {
          "internalType": "string",
          "name": "_expireDate",
          "type": "string"
        },
        {
          "internalType": "uint256",
          "name": "_speakingScore",
          "type": "uint256"
        },
        {
          "internalType": "uint256",
          "name": "_writingScore",
          "type": "uint256"
        }
      ],
      "name": "addSWResult",
      "outputs": [],
      "stateMutability": "nonpayable",
      "type": "function"
    },
    {
      "inputs": [
        {
          "internalType": "address",
          "name": "_iigOwner",
          "type": "address"
        },
        {
          "internalType": "address",
          "name": "_studentOwner",
          "type": "address"
        }
      ],
      "name": "getListSWResult",
      "outputs": [
        {
          "internalType": "string[]",
          "name": "",
          "type": "string[]"
        },
        {
          "internalType": "string[]",
          "name": "",
          "type": "string[]"
        },
        {
          "internalType": "string[]",
          "name": "",
          "type": "string[]"
        },
        {
          "internalType": "uint256[]",
          "name": "",
          "type": "uint256[]"
        },
        {
          "internalType": "uint256[]",
          "name": "",
          "type": "uint256[]"
        },
        {
          "internalType": "uint256[]",
          "name": "",
          "type": "uint256[]"
        }
      ],
      "stateMutability": "view",
      "type": "function"
    },
    {
      "inputs": [
        {
          "internalType": "address",
          "name": "_iigOwner",
          "type": "address"
        },
        {
          "internalType": "address",
          "name": "_studentOwner",
          "type": "address"
        },
        {
          "internalType": "string",
          "name": "_testDate",
          "type": "string"
        },
        {
          "internalType": "string",
          "name": "_shiftTest",
          "type": "string"
        }
      ],
      "name": "getSWResult",
      "outputs": [
        {
          "internalType": "string",
          "name": "testDate",
          "type": "string"
        },
        {
          "internalType": "string",
          "name": "shiftTest",
          "type": "string"
        },
        {
          "internalType": "string",
          "name": "expireDate",
          "type": "string"
        },
        {
          "internalType": "uint256",
          "name": "speakingScore",
          "type": "uint256"
        },
        {
          "internalType": "uint256",
          "name": "writingScore",
          "type": "uint256"
        },
        {
          "internalType": "uint256",
          "name": "totalScore",
          "type": "uint256"
        }
      ],
      "stateMutability": "view",
      "type": "function"
    },
    {
      "inputs": [
        {
          "internalType": "address",
          "name": "_studentOwner",
          "type": "address"
        },
        {
          "internalType": "string",
          "name": "_testDate",
          "type": "string"
        },
        {
          "internalType": "string",
          "name": "_shiftTest",
          "type": "string"
        }
      ],
      "name": "checkExistSWResult",
      "outputs": [
        {
          "internalType": "uint256",
          "name": "x",
          "type": "uint256"
        }
      ],
      "stateMutability": "view",
      "type": "function"
    }
  ],
  "bytecode": "0x608060405234801561001057600080fd5b506165a580620000216000396000f3fe608060405234801561001057600080fd5b506004361061014c5760003560e01c80634b38f2db116100c35780639fa7247a1161007c5780639fa7247a14610438578063a9846eb01461046d578063ac97812f146104a5578063bc72af7d146104da578063d23a4ee11461050f578063dd8f3edc1461052b5761014c565b80634b38f2db1461035b5780636cf871df146103905780637082941e146103ac5780637829b41e146103c857806384ae9131146103f8578063948195ed1461041c5761014c565b80630f53a470116101155780630f53a4701461023d57806324e66037146102725780632954ab10146102a2578063323cc7c5146102be57806344fd6e22146102f357806349f47a55146103235761014c565b8062220cf7146101515780630265275c1461016d57806306ed1e891461019d57806309bef62a146101d25780630c3f988214610208575b600080fd5b61016b600480360381019061016691906152bb565b610547565b005b610187600480360381019061018291906153b1565b6107ce565b604051610194919061544b565b60405180910390f35b6101b760048036038101906101b29190615466565b6108da565b6040516101c9969594939291906156ae565b60405180910390f35b6101ec60048036038101906101e79190615739565b610f4d565b6040516101ff97969594939291906157bf565b60405180910390f35b610222600480360381019061021d9190615466565b6112ef565b604051610234969594939291906159de565b60405180910390f35b61025760048036038101906102529190615a69565b6119fe565b60405161026996959493929190615a96565b60405180910390f35b61028c60048036038101906102879190615b1a565b611e7c565b604051610299919061544b565b60405180910390f35b6102bc60048036038101906102b79190615ba2565b611f7a565b005b6102d860048036038101906102d39190615739565b612138565b6040516102ea96959493929190615c04565b60405180910390f35b61030d60048036038101906103089190615a69565b61235c565b60405161031a919061544b565b60405180910390f35b61033d60048036038101906103389190615739565b61240e565b60405161035299989796959493929190615c7a565b60405180910390f35b61037560048036038101906103709190615d1c565b612644565b60405161038796959493929190615dbb565b60405180910390f35b6103aa60048036038101906103a59190615e31565b612a67565b005b6103c660048036038101906103c19190615ba2565b612c2f565b005b6103e260048036038101906103dd91906153b1565b612ded565b6040516103ef919061544b565b60405180910390f35b610400612ef9565b6040516104139796959493929190615f4a565b60405180910390f35b61043660048036038101906104319190615d1c565b6136fd565b005b610452600480360381019061044d9190615a69565b6138d3565b604051610464969594939291906159de565b60405180910390f35b61048760048036038101906104829190615739565b613f65565b60405161049c99989796959493929190615c7a565b60405180910390f35b6104bf60048036038101906104ba9190615d1c565b61419b565b6040516104d196959493929190615dbb565b60405180910390f35b6104f460048036038101906104ef9190615466565b6145be565b604051610506969594939291906156ae565b60405180910390f35b610529600480360381019061052491906152bb565b614c31565b005b61054560048036038101906105409190615fea565b614eb6565b005b6000821015801561055a57506101ef8211155b610599576040517f08c379a000000000000000000000000000000000000000000000000000000000815260040161059090616180565b60405180910390fd5b600081101580156105ac57506101ef8111155b6105eb576040517f08c379a00000000000000000000000000000000000000000000000000000000081526004016105e2906161ec565b60405180910390fd5b6002604051806101200160405280878760405160200161060c929190616248565b6040516020818303038152906040528051906020012081526020018973ffffffffffffffffffffffffffffffffffffffff1681526020018873ffffffffffffffffffffffffffffffffffffffff1681526020018781526020018681526020018581526020018481526020018381526020018385610689919061629b565b81525090806001815401808255809150506001900390600052602060002090600902016000909190919091506000820151816000015560208201518160010160006101000a81548173ffffffffffffffffffffffffffffffffffffffff021916908373ffffffffffffffffffffffffffffffffffffffff16021790555060408201518160020160006101000a81548173ffffffffffffffffffffffffffffffffffffffff021916908373ffffffffffffffffffffffffffffffffffffffff160217905550606082015181600301908051906020019061076992919061502a565b50608082015181600401908051906020019061078692919061502a565b5060a08201518160050190805190602001906107a392919061502a565b5060c0820151816006015560e082015181600701556101008201518160080155505050505050505050565b600080600090505b6002805490508110156108d1578473ffffffffffffffffffffffffffffffffffffffff166002828154811061080e5761080d6162f1565b5b906000526020600020906009020160020160009054906101000a900473ffffffffffffffffffffffffffffffffffffffff1673ffffffffffffffffffffffffffffffffffffffff161480156108af57508383604051602001610871929190616248565b604051602081830303815290604052805190602001206002828154811061089b5761089a6162f1565b5b906000526020600020906009020160000154145b156108be5760019150506108d3565b80806108c990616320565b9150506107d6565b505b9392505050565b606080606080606080600060038054905067ffffffffffffffff8111156109045761090361515a565b5b60405190808252806020026020018201604052801561093757816020015b60608152602001906001900390816109225790505b509050600060038054905067ffffffffffffffff81111561095b5761095a61515a565b5b60405190808252806020026020018201604052801561098e57816020015b60608152602001906001900390816109795790505b509050600060038054905067ffffffffffffffff8111156109b2576109b161515a565b5b6040519080825280602002602001820160405280156109e557816020015b60608152602001906001900390816109d05790505b509050600060038054905067ffffffffffffffff811115610a0957610a0861515a565b5b604051908082528060200260200182016040528015610a375781602001602082028036833780820191505090505b509050600060038054905067ffffffffffffffff811115610a5b57610a5a61515a565b5b604051908082528060200260200182016040528015610a895781602001602082028036833780820191505090505b509050600060038054905067ffffffffffffffff811115610aad57610aac61515a565b5b604051908082528060200260200182016040528015610adb5781602001602082028036833780820191505090505b50905060005b600380549050811015610f2a578e73ffffffffffffffffffffffffffffffffffffffff1660028281548110610b1957610b186162f1565b5b906000526020600020906009020160010160009054906101000a900473ffffffffffffffffffffffffffffffffffffffff1673ffffffffffffffffffffffffffffffffffffffff16148015610bde57508d73ffffffffffffffffffffffffffffffffffffffff1660028281548110610b9457610b936162f1565b5b906000526020600020906009020160020160009054906101000a900473ffffffffffffffffffffffffffffffffffffffff1673ffffffffffffffffffffffffffffffffffffffff16145b15610f175760038181548110610bf757610bf66162f1565b5b90600052602060002090600902016003018054610c1390616398565b80601f0160208091040260200160405190810160405280929190818152602001828054610c3f90616398565b8015610c8c5780601f10610c6157610100808354040283529160200191610c8c565b820191906000526020600020905b815481529060010190602001808311610c6f57829003601f168201915b5050505050878281518110610ca457610ca36162f1565b5b602002602001018190525060038181548110610cc357610cc26162f1565b5b90600052602060002090600902016004018054610cdf90616398565b80601f0160208091040260200160405190810160405280929190818152602001828054610d0b90616398565b8015610d585780601f10610d2d57610100808354040283529160200191610d58565b820191906000526020600020905b815481529060010190602001808311610d3b57829003601f168201915b5050505050868281518110610d7057610d6f6162f1565b5b602002602001018190525060038181548110610d8f57610d8e6162f1565b5b90600052602060002090600902016005018054610dab90616398565b80601f0160208091040260200160405190810160405280929190818152602001828054610dd790616398565b8015610e245780601f10610df957610100808354040283529160200191610e24565b820191906000526020600020905b815481529060010190602001808311610e0757829003601f168201915b5050505050858281518110610e3c57610e3b6162f1565b5b602002602001018190525060038181548110610e5b57610e5a6162f1565b5b906000526020600020906009020160060154848281518110610e8057610e7f6162f1565b5b60200260200101818152505060038181548110610ea057610e9f6162f1565b5b906000526020600020906009020160070154838281518110610ec557610ec46162f1565b5b60200260200101818152505060038181548110610ee557610ee46162f1565b5b906000526020600020906009020160080154828281518110610f0a57610f096162f1565b5b6020026020010181815250505b8080610f2290616320565b915050610ae1565b508585858585859b509b509b509b509b509b505050505050509295509295509295565b60008181548110610f5d57600080fd5b90600052602060002090600702016000915090508060000160009054906101000a900473ffffffffffffffffffffffffffffffffffffffff1690806001018054610fa690616398565b80601f0160208091040260200160405190810160405280929190818152602001828054610fd290616398565b801561101f5780601f10610ff45761010080835404028352916020019161101f565b820191906000526020600020905b81548152906001019060200180831161100257829003601f168201915b50505050509080600201805461103490616398565b80601f016020809104026020016040519081016040528092919081815260200182805461106090616398565b80156110ad5780601f10611082576101008083540402835291602001916110ad565b820191906000526020600020905b81548152906001019060200180831161109057829003601f168201915b5050505050908060030180546110c290616398565b80601f01602080910402602001604051908101604052809291908181526020018280546110ee90616398565b801561113b5780601f106111105761010080835404028352916020019161113b565b820191906000526020600020905b81548152906001019060200180831161111e57829003601f168201915b50505050509080600401805461115090616398565b80601f016020809104026020016040519081016040528092919081815260200182805461117c90616398565b80156111c95780601f1061119e576101008083540402835291602001916111c9565b820191906000526020600020905b8154815290600101906020018083116111ac57829003601f168201915b5050505050908060050180546111de90616398565b80601f016020809104026020016040519081016040528092919081815260200182805461120a90616398565b80156112575780601f1061122c57610100808354040283529160200191611257565b820191906000526020600020905b81548152906001019060200180831161123a57829003601f168201915b50505050509080600601805461126c90616398565b80601f016020809104026020016040519081016040528092919081815260200182805461129890616398565b80156112e55780601f106112ba576101008083540402835291602001916112e5565b820191906000526020600020905b8154815290600101906020018083116112c857829003601f168201915b5050505050905087565b606080606080606080600060018054905067ffffffffffffffff8111156113195761131861515a565b5b6040519080825280602002602001820160405280156113475781602001602082028036833780820191505090505b509050600060018054905067ffffffffffffffff81111561136b5761136a61515a565b5b6040519080825280602002602001820160405280156113995781602001602082028036833780820191505090505b509050600060018054905067ffffffffffffffff8111156113bd576113bc61515a565b5b6040519080825280602002602001820160405280156113eb5781602001602082028036833780820191505090505b509050600060018054905067ffffffffffffffff81111561140f5761140e61515a565b5b60405190808252806020026020018201604052801561144257816020015b606081526020019060019003908161142d5790505b509050600060018054905067ffffffffffffffff8111156114665761146561515a565b5b60405190808252806020026020018201604052801561149957816020015b60608152602001906001900390816114845790505b509050600060018054905067ffffffffffffffff8111156114bd576114bc61515a565b5b6040519080825280602002602001820160405280156114f057816020015b60608152602001906001900390816114db5790505b50905060005b6001805490508110156119db578e73ffffffffffffffffffffffffffffffffffffffff166001828154811061152e5761152d6162f1565b5b906000526020600020906006020160020160009054906101000a900473ffffffffffffffffffffffffffffffffffffffff1673ffffffffffffffffffffffffffffffffffffffff161480156115f357508d73ffffffffffffffffffffffffffffffffffffffff16600182815481106115a9576115a86162f1565b5b906000526020600020906006020160010160009054906101000a900473ffffffffffffffffffffffffffffffffffffffff1673ffffffffffffffffffffffffffffffffffffffff16145b156119c8576001818154811061160c5761160b6162f1565b5b906000526020600020906006020160000154878281518110611631576116306162f1565b5b60200260200101818152505060018181548110611651576116506162f1565b5b906000526020600020906006020160010160009054906101000a900473ffffffffffffffffffffffffffffffffffffffff16868281518110611696576116956162f1565b5b602002602001019073ffffffffffffffffffffffffffffffffffffffff16908173ffffffffffffffffffffffffffffffffffffffff1681525050600181815481106116e4576116e36162f1565b5b906000526020600020906006020160020160009054906101000a900473ffffffffffffffffffffffffffffffffffffffff16858281518110611729576117286162f1565b5b602002602001019073ffffffffffffffffffffffffffffffffffffffff16908173ffffffffffffffffffffffffffffffffffffffff168152505060018181548110611777576117766162f1565b5b9060005260206000209060060201600301805461179390616398565b80601f01602080910402602001604051908101604052809291908181526020018280546117bf90616398565b801561180c5780601f106117e15761010080835404028352916020019161180c565b820191906000526020600020905b8154815290600101906020018083116117ef57829003601f168201915b5050505050848281518110611824576118236162f1565b5b602002602001018190525060018181548110611843576118426162f1565b5b9060005260206000209060060201600401805461185f90616398565b80601f016020809104026020016040519081016040528092919081815260200182805461188b90616398565b80156118d85780601f106118ad576101008083540402835291602001916118d8565b820191906000526020600020905b8154815290600101906020018083116118bb57829003601f168201915b50505050508382815181106118f0576118ef6162f1565b5b60200260200101819052506001818154811061190f5761190e6162f1565b5b9060005260206000209060060201600501805461192b90616398565b80601f016020809104026020016040519081016040528092919081815260200182805461195790616398565b80156119a45780601f10611979576101008083540402835291602001916119a4565b820191906000526020600020905b81548152906001019060200180831161198757829003601f168201915b50505050508282815181106119bc576119bb6162f1565b5b60200260200101819052505b80806119d390616320565b9150506114f6565b508585858585859b509b509b509b509b509b505050505050509295509295509295565b6000606080606080606060005b600080549050811015611e71578773ffffffffffffffffffffffffffffffffffffffff1660008281548110611a4357611a426162f1565b5b906000526020600020906007020160000160009054906101000a900473ffffffffffffffffffffffffffffffffffffffff1673ffffffffffffffffffffffffffffffffffffffff161415611e5e5760008181548110611aa557611aa46162f1565b5b906000526020600020906007020160000160009054906101000a900473ffffffffffffffffffffffffffffffffffffffff1660008281548110611aeb57611aea6162f1565b5b906000526020600020906007020160010160008381548110611b1057611b0f6162f1565b5b906000526020600020906007020160020160008481548110611b3557611b346162f1565b5b906000526020600020906007020160030160008581548110611b5a57611b596162f1565b5b906000526020600020906007020160040160008681548110611b7f57611b7e6162f1565b5b9060005260206000209060070201600501848054611b9c90616398565b80601f0160208091040260200160405190810160405280929190818152602001828054611bc890616398565b8015611c155780601f10611bea57610100808354040283529160200191611c15565b820191906000526020600020905b815481529060010190602001808311611bf857829003601f168201915b50505050509450838054611c2890616398565b80601f0160208091040260200160405190810160405280929190818152602001828054611c5490616398565b8015611ca15780601f10611c7657610100808354040283529160200191611ca1565b820191906000526020600020905b815481529060010190602001808311611c8457829003601f168201915b50505050509350828054611cb490616398565b80601f0160208091040260200160405190810160405280929190818152602001828054611ce090616398565b8015611d2d5780601f10611d0257610100808354040283529160200191611d2d565b820191906000526020600020905b815481529060010190602001808311611d1057829003601f168201915b50505050509250818054611d4090616398565b80601f0160208091040260200160405190810160405280929190818152602001828054611d6c90616398565b8015611db95780601f10611d8e57610100808354040283529160200191611db9565b820191906000526020600020905b815481529060010190602001808311611d9c57829003601f168201915b50505050509150808054611dcc90616398565b80601f0160208091040260200160405190810160405280929190818152602001828054611df890616398565b8015611e455780601f10611e1a57610100808354040283529160200191611e45565b820191906000526020600020905b815481529060010190602001808311611e2857829003601f168201915b5050505050905096509650965096509650965050611e73565b8080611e6990616320565b915050611a0b565b505b91939550919395565b600080600090505b600080549050811015611f72578373ffffffffffffffffffffffffffffffffffffffff1660008281548110611ebc57611ebb6162f1565b5b906000526020600020906007020160000160009054906101000a900473ffffffffffffffffffffffffffffffffffffffff1673ffffffffffffffffffffffffffffffffffffffff16148015611f505750828051906020012060008281548110611f2857611f276162f1565b5b9060005260206000209060070201600601604051611f469190616469565b6040518091039020145b15611f5f576001915050611f74565b8080611f6a90616320565b915050611e84565b505b92915050565b60005b600180549050811015612132578373ffffffffffffffffffffffffffffffffffffffff1660018281548110611fb557611fb46162f1565b5b906000526020600020906006020160010160009054906101000a900473ffffffffffffffffffffffffffffffffffffffff1673ffffffffffffffffffffffffffffffffffffffff1614801561207a57508273ffffffffffffffffffffffffffffffffffffffff16600182815481106120305761202f6162f1565b5b906000526020600020906006020160020160009054906101000a900473ffffffffffffffffffffffffffffffffffffffff1673ffffffffffffffffffffffffffffffffffffffff16145b80156120aa57508160018281548110612096576120956162f1565b5b906000526020600020906006020160000154145b1561211f576040518060400160405280600681526020017f4163636570740000000000000000000000000000000000000000000000000000815250600182815481106120f9576120f86162f1565b5b9060005260206000209060060201600501908051906020019061211d92919061502a565b505b808061212a90616320565b915050611f7d565b50505050565b6001818154811061214857600080fd5b90600052602060002090600602016000915090508060000154908060010160009054906101000a900473ffffffffffffffffffffffffffffffffffffffff16908060020160009054906101000a900473ffffffffffffffffffffffffffffffffffffffff16908060030180546121bd90616398565b80601f01602080910402602001604051908101604052809291908181526020018280546121e990616398565b80156122365780601f1061220b57610100808354040283529160200191612236565b820191906000526020600020905b81548152906001019060200180831161221957829003601f168201915b50505050509080600401805461224b90616398565b80601f016020809104026020016040519081016040528092919081815260200182805461227790616398565b80156122c45780601f10612299576101008083540402835291602001916122c4565b820191906000526020600020905b8154815290600101906020018083116122a757829003601f168201915b5050505050908060050180546122d990616398565b80601f016020809104026020016040519081016040528092919081815260200182805461230590616398565b80156123525780601f1061232757610100808354040283529160200191612352565b820191906000526020600020905b81548152906001019060200180831161233557829003601f168201915b5050505050905086565b600080600090505b600080549050811015612407578273ffffffffffffffffffffffffffffffffffffffff166000828154811061239c5761239b6162f1565b5b906000526020600020906007020160000160009054906101000a900473ffffffffffffffffffffffffffffffffffffffff1673ffffffffffffffffffffffffffffffffffffffff1614156123f4576001915050612409565b80806123ff90616320565b915050612364565b505b919050565b6003818154811061241e57600080fd5b90600052602060002090600902016000915090508060000154908060010160009054906101000a900473ffffffffffffffffffffffffffffffffffffffff16908060020160009054906101000a900473ffffffffffffffffffffffffffffffffffffffff169080600301805461249390616398565b80601f01602080910402602001604051908101604052809291908181526020018280546124bf90616398565b801561250c5780601f106124e15761010080835404028352916020019161250c565b820191906000526020600020905b8154815290600101906020018083116124ef57829003601f168201915b50505050509080600401805461252190616398565b80601f016020809104026020016040519081016040528092919081815260200182805461254d90616398565b801561259a5780601f1061256f5761010080835404028352916020019161259a565b820191906000526020600020905b81548152906001019060200180831161257d57829003601f168201915b5050505050908060050180546125af90616398565b80601f01602080910402602001604051908101604052809291908181526020018280546125db90616398565b80156126285780601f106125fd57610100808354040283529160200191612628565b820191906000526020600020905b81548152906001019060200180831161260b57829003601f168201915b5050505050908060060154908060070154908060080154905089565b6060806060600080600080600090505b600380549050811015612a58578a73ffffffffffffffffffffffffffffffffffffffff166003828154811061268c5761268b6162f1565b5b906000526020600020906009020160010160009054906101000a900473ffffffffffffffffffffffffffffffffffffffff1673ffffffffffffffffffffffffffffffffffffffff1614801561275157508973ffffffffffffffffffffffffffffffffffffffff1660038281548110612707576127066162f1565b5b906000526020600020906009020160020160009054906101000a900473ffffffffffffffffffffffffffffffffffffffff1673ffffffffffffffffffffffffffffffffffffffff16145b80156127a95750888860405160200161276b929190616248565b6040516020818303038152906040528051906020012060038281548110612795576127946162f1565b5b906000526020600020906009020160000154145b15612a4557600381815481106127c2576127c16162f1565b5b9060005260206000209060090201600301600382815481106127e7576127e66162f1565b5b90600052602060002090600902016004016003838154811061280c5761280b6162f1565b5b906000526020600020906009020160050160038481548110612831576128306162f1565b5b90600052602060002090600902016006015460038581548110612857576128566162f1565b5b9060005260206000209060090201600701546003868154811061287d5761287c6162f1565b5b90600052602060002090600902016008015485805461289b90616398565b80601f01602080910402602001604051908101604052809291908181526020018280546128c790616398565b80156129145780601f106128e957610100808354040283529160200191612914565b820191906000526020600020905b8154815290600101906020018083116128f757829003601f168201915b5050505050955084805461292790616398565b80601f016020809104026020016040519081016040528092919081815260200182805461295390616398565b80156129a05780601f10612975576101008083540402835291602001916129a0565b820191906000526020600020905b81548152906001019060200180831161298357829003601f168201915b505050505094508380546129b390616398565b80601f01602080910402602001604051908101604052809291908181526020018280546129df90616398565b8015612a2c5780601f10612a0157610100808354040283529160200191612a2c565b820191906000526020600020905b815481529060010190602001808311612a0f57829003601f168201915b5050505050935096509650965096509650965050612a5a565b8080612a5090616320565b915050612654565b505b9499939850945094509450565b60005b600080549050811015612c26578673ffffffffffffffffffffffffffffffffffffffff1660008281548110612aa257612aa16162f1565b5b906000526020600020906007020160000160009054906101000a900473ffffffffffffffffffffffffffffffffffffffff1673ffffffffffffffffffffffffffffffffffffffff161415612c13578560008281548110612b0557612b046162f1565b5b90600052602060002090600702016001019080519060200190612b2992919061502a565b508460008281548110612b3f57612b3e6162f1565b5b90600052602060002090600702016002019080519060200190612b6392919061502a565b508360008281548110612b7957612b786162f1565b5b90600052602060002090600702016003019080519060200190612b9d92919061502a565b508260008281548110612bb357612bb26162f1565b5b90600052602060002090600702016004019080519060200190612bd792919061502a565b508160008281548110612bed57612bec6162f1565b5b90600052602060002090600702016005019080519060200190612c1192919061502a565b505b8080612c1e90616320565b915050612a6a565b50505050505050565b60005b600180549050811015612de7578373ffffffffffffffffffffffffffffffffffffffff1660018281548110612c6a57612c696162f1565b5b906000526020600020906006020160010160009054906101000a900473ffffffffffffffffffffffffffffffffffffffff1673ffffffffffffffffffffffffffffffffffffffff16148015612d2f57508273ffffffffffffffffffffffffffffffffffffffff1660018281548110612ce557612ce46162f1565b5b906000526020600020906006020160020160009054906101000a900473ffffffffffffffffffffffffffffffffffffffff1673ffffffffffffffffffffffffffffffffffffffff16145b8015612d5f57508160018281548110612d4b57612d4a6162f1565b5b906000526020600020906006020160000154145b15612dd4576040518060400160405280600781526020017f4465636c696e650000000000000000000000000000000000000000000000000081525060018281548110612dae57612dad6162f1565b5b90600052602060002090600602016005019080519060200190612dd292919061502a565b505b8080612ddf90616320565b915050612c32565b50505050565b600080600090505b600380549050811015612ef0578473ffffffffffffffffffffffffffffffffffffffff1660028281548110612e2d57612e2c6162f1565b5b906000526020600020906009020160020160009054906101000a900473ffffffffffffffffffffffffffffffffffffffff1673ffffffffffffffffffffffffffffffffffffffff16148015612ece57508383604051602001612e90929190616248565b6040516020818303038152906040528051906020012060028281548110612eba57612eb96162f1565b5b906000526020600020906009020160000154145b15612edd576001915050612ef2565b8080612ee890616320565b915050612df5565b505b9392505050565b60608060608060608060606000808054905067ffffffffffffffff811115612f2457612f2361515a565b5b604051908082528060200260200182016040528015612f525781602001602082028036833780820191505090505b5090506000808054905067ffffffffffffffff811115612f7557612f7461515a565b5b604051908082528060200260200182016040528015612fa857816020015b6060815260200190600190039081612f935790505b5090506000808054905067ffffffffffffffff811115612fcb57612fca61515a565b5b604051908082528060200260200182016040528015612ffe57816020015b6060815260200190600190039081612fe95790505b5090506000808054905067ffffffffffffffff8111156130215761302061515a565b5b60405190808252806020026020018201604052801561305457816020015b606081526020019060019003908161303f5790505b5090506000808054905067ffffffffffffffff8111156130775761307661515a565b5b6040519080825280602002602001820160405280156130aa57816020015b60608152602001906001900390816130955790505b5090506000808054905067ffffffffffffffff8111156130cd576130cc61515a565b5b60405190808252806020026020018201604052801561310057816020015b60608152602001906001900390816130eb5790505b5090506000808054905067ffffffffffffffff8111156131235761312261515a565b5b60405190808252806020026020018201604052801561315657816020015b60608152602001906001900390816131415790505b50905060005b6000805490508110156136d7576000818154811061317d5761317c6162f1565b5b906000526020600020906007020160000160009054906101000a900473ffffffffffffffffffffffffffffffffffffffff168882815181106131c2576131c16162f1565b5b602002602001019073ffffffffffffffffffffffffffffffffffffffff16908173ffffffffffffffffffffffffffffffffffffffff1681525050600081815481106132105761320f6162f1565b5b9060005260206000209060070201600101805461322c90616398565b80601f016020809104026020016040519081016040528092919081815260200182805461325890616398565b80156132a55780601f1061327a576101008083540402835291602001916132a5565b820191906000526020600020905b81548152906001019060200180831161328857829003601f168201915b50505050508782815181106132bd576132bc6162f1565b5b6020026020010181905250600081815481106132dc576132db6162f1565b5b906000526020600020906007020160020180546132f890616398565b80601f016020809104026020016040519081016040528092919081815260200182805461332490616398565b80156133715780601f1061334657610100808354040283529160200191613371565b820191906000526020600020905b81548152906001019060200180831161335457829003601f168201915b5050505050868281518110613389576133886162f1565b5b6020026020010181905250600081815481106133a8576133a76162f1565b5b906000526020600020906007020160030180546133c490616398565b80601f01602080910402602001604051908101604052809291908181526020018280546133f090616398565b801561343d5780601f106134125761010080835404028352916020019161343d565b820191906000526020600020905b81548152906001019060200180831161342057829003601f168201915b5050505050858281518110613455576134546162f1565b5b602002602001018190525060008181548110613474576134736162f1565b5b9060005260206000209060070201600401805461349090616398565b80601f01602080910402602001604051908101604052809291908181526020018280546134bc90616398565b80156135095780601f106134de57610100808354040283529160200191613509565b820191906000526020600020905b8154815290600101906020018083116134ec57829003601f168201915b5050505050848281518110613521576135206162f1565b5b6020026020010181905250600081815481106135405761353f6162f1565b5b9060005260206000209060070201600501805461355c90616398565b80601f016020809104026020016040519081016040528092919081815260200182805461358890616398565b80156135d55780601f106135aa576101008083540402835291602001916135d5565b820191906000526020600020905b8154815290600101906020018083116135b857829003601f168201915b50505050508382815181106135ed576135ec6162f1565b5b60200260200101819052506000818154811061360c5761360b6162f1565b5b9060005260206000209060070201600601805461362890616398565b80601f016020809104026020016040519081016040528092919081815260200182805461365490616398565b80156136a15780601f10613676576101008083540402835291602001916136a1565b820191906000526020600020905b81548152906001019060200180831161368457829003601f168201915b50505050508282815181106136b9576136b86162f1565b5b602002602001018190525080806136cf90616320565b91505061315c565b50868686868686869d509d509d509d509d509d509d505050505050505090919293949596565b60016040518060c001604052808360405160200161371b9190616480565b6040516020818303038152906040528051906020012081526020018673ffffffffffffffffffffffffffffffffffffffff1681526020018573ffffffffffffffffffffffffffffffffffffffff1681526020018481526020018381526020016040518060400160405280600781526020017f57616974696e670000000000000000000000000000000000000000000000000081525081525090806001815401808255809150506001900390600052602060002090600602016000909190919091506000820151816000015560208201518160010160006101000a81548173ffffffffffffffffffffffffffffffffffffffff021916908373ffffffffffffffffffffffffffffffffffffffff16021790555060408201518160020160006101000a81548173ffffffffffffffffffffffffffffffffffffffff021916908373ffffffffffffffffffffffffffffffffffffffff160217905550606082015181600301908051906020019061389092919061502a565b5060808201518160040190805190602001906138ad92919061502a565b5060a08201518160050190805190602001906138ca92919061502a565b50505050505050565b606080606080606080600060018054905067ffffffffffffffff8111156138fd576138fc61515a565b5b60405190808252806020026020018201604052801561392b5781602001602082028036833780820191505090505b509050600060018054905067ffffffffffffffff81111561394f5761394e61515a565b5b60405190808252806020026020018201604052801561397d5781602001602082028036833780820191505090505b509050600060018054905067ffffffffffffffff8111156139a1576139a061515a565b5b6040519080825280602002602001820160405280156139cf5781602001602082028036833780820191505090505b509050600060018054905067ffffffffffffffff8111156139f3576139f261515a565b5b604051908082528060200260200182016040528015613a2657816020015b6060815260200190600190039081613a115790505b509050600060018054905067ffffffffffffffff811115613a4a57613a4961515a565b5b604051908082528060200260200182016040528015613a7d57816020015b6060815260200190600190039081613a685790505b509050600060018054905067ffffffffffffffff811115613aa157613aa061515a565b5b604051908082528060200260200182016040528015613ad457816020015b6060815260200190600190039081613abf5790505b50905060005b600180549050811015613f43578d73ffffffffffffffffffffffffffffffffffffffff1660018281548110613b1257613b116162f1565b5b906000526020600020906006020160020160009054906101000a900473ffffffffffffffffffffffffffffffffffffffff1673ffffffffffffffffffffffffffffffffffffffff161415613f305760018181548110613b7457613b736162f1565b5b906000526020600020906006020160000154878281518110613b9957613b986162f1565b5b60200260200101818152505060018181548110613bb957613bb86162f1565b5b906000526020600020906006020160010160009054906101000a900473ffffffffffffffffffffffffffffffffffffffff16868281518110613bfe57613bfd6162f1565b5b602002602001019073ffffffffffffffffffffffffffffffffffffffff16908173ffffffffffffffffffffffffffffffffffffffff168152505060018181548110613c4c57613c4b6162f1565b5b906000526020600020906006020160020160009054906101000a900473ffffffffffffffffffffffffffffffffffffffff16858281518110613c9157613c906162f1565b5b602002602001019073ffffffffffffffffffffffffffffffffffffffff16908173ffffffffffffffffffffffffffffffffffffffff168152505060018181548110613cdf57613cde6162f1565b5b90600052602060002090600602016003018054613cfb90616398565b80601f0160208091040260200160405190810160405280929190818152602001828054613d2790616398565b8015613d745780601f10613d4957610100808354040283529160200191613d74565b820191906000526020600020905b815481529060010190602001808311613d5757829003601f168201915b5050505050848281518110613d8c57613d8b6162f1565b5b602002602001018190525060018181548110613dab57613daa6162f1565b5b90600052602060002090600602016004018054613dc790616398565b80601f0160208091040260200160405190810160405280929190818152602001828054613df390616398565b8015613e405780601f10613e1557610100808354040283529160200191613e40565b820191906000526020600020905b815481529060010190602001808311613e2357829003601f168201915b5050505050838281518110613e5857613e576162f1565b5b602002602001018190525060018181548110613e7757613e766162f1565b5b90600052602060002090600602016005018054613e9390616398565b80601f0160208091040260200160405190810160405280929190818152602001828054613ebf90616398565b8015613f0c5780601f10613ee157610100808354040283529160200191613f0c565b820191906000526020600020905b815481529060010190602001808311613eef57829003601f168201915b5050505050828281518110613f2457613f236162f1565b5b60200260200101819052505b8080613f3b90616320565b915050613ada565b508585858585859b509b509b509b509b509b5050505050505091939550919395565b60028181548110613f7557600080fd5b90600052602060002090600902016000915090508060000154908060010160009054906101000a900473ffffffffffffffffffffffffffffffffffffffff16908060020160009054906101000a900473ffffffffffffffffffffffffffffffffffffffff1690806003018054613fea90616398565b80601f016020809104026020016040519081016040528092919081815260200182805461401690616398565b80156140635780601f1061403857610100808354040283529160200191614063565b820191906000526020600020905b81548152906001019060200180831161404657829003601f168201915b50505050509080600401805461407890616398565b80601f01602080910402602001604051908101604052809291908181526020018280546140a490616398565b80156140f15780601f106140c6576101008083540402835291602001916140f1565b820191906000526020600020905b8154815290600101906020018083116140d457829003601f168201915b50505050509080600501805461410690616398565b80601f016020809104026020016040519081016040528092919081815260200182805461413290616398565b801561417f5780601f106141545761010080835404028352916020019161417f565b820191906000526020600020905b81548152906001019060200180831161416257829003601f168201915b5050505050908060060154908060070154908060080154905089565b6060806060600080600080600090505b6002805490508110156145af578a73ffffffffffffffffffffffffffffffffffffffff16600282815481106141e3576141e26162f1565b5b906000526020600020906009020160010160009054906101000a900473ffffffffffffffffffffffffffffffffffffffff1673ffffffffffffffffffffffffffffffffffffffff161480156142a857508973ffffffffffffffffffffffffffffffffffffffff166002828154811061425e5761425d6162f1565b5b906000526020600020906009020160020160009054906101000a900473ffffffffffffffffffffffffffffffffffffffff1673ffffffffffffffffffffffffffffffffffffffff16145b8015614300575088886040516020016142c2929190616248565b60405160208183030381529060405280519060200120600282815481106142ec576142eb6162f1565b5b906000526020600020906009020160000154145b1561459c5760028181548110614319576143186162f1565b5b90600052602060002090600902016003016002828154811061433e5761433d6162f1565b5b906000526020600020906009020160040160028381548110614363576143626162f1565b5b906000526020600020906009020160050160028481548110614388576143876162f1565b5b906000526020600020906009020160060154600285815481106143ae576143ad6162f1565b5b906000526020600020906009020160070154600286815481106143d4576143d36162f1565b5b9060005260206000209060090201600801548580546143f290616398565b80601f016020809104026020016040519081016040528092919081815260200182805461441e90616398565b801561446b5780601f106144405761010080835404028352916020019161446b565b820191906000526020600020905b81548152906001019060200180831161444e57829003601f168201915b5050505050955084805461447e90616398565b80601f01602080910402602001604051908101604052809291908181526020018280546144aa90616398565b80156144f75780601f106144cc576101008083540402835291602001916144f7565b820191906000526020600020905b8154815290600101906020018083116144da57829003601f168201915b5050505050945083805461450a90616398565b80601f016020809104026020016040519081016040528092919081815260200182805461453690616398565b80156145835780601f1061455857610100808354040283529160200191614583565b820191906000526020600020905b81548152906001019060200180831161456657829003601f168201915b50505050509350965096509650965096509650506145b1565b80806145a790616320565b9150506141ab565b505b9499939850945094509450565b606080606080606080600060028054905067ffffffffffffffff8111156145e8576145e761515a565b5b60405190808252806020026020018201604052801561461b57816020015b60608152602001906001900390816146065790505b509050600060028054905067ffffffffffffffff81111561463f5761463e61515a565b5b60405190808252806020026020018201604052801561467257816020015b606081526020019060019003908161465d5790505b509050600060028054905067ffffffffffffffff8111156146965761469561515a565b5b6040519080825280602002602001820160405280156146c957816020015b60608152602001906001900390816146b45790505b509050600060028054905067ffffffffffffffff8111156146ed576146ec61515a565b5b60405190808252806020026020018201604052801561471b5781602001602082028036833780820191505090505b509050600060028054905067ffffffffffffffff81111561473f5761473e61515a565b5b60405190808252806020026020018201604052801561476d5781602001602082028036833780820191505090505b509050600060028054905067ffffffffffffffff8111156147915761479061515a565b5b6040519080825280602002602001820160405280156147bf5781602001602082028036833780820191505090505b50905060005b600280549050811015614c0e578e73ffffffffffffffffffffffffffffffffffffffff16600282815481106147fd576147fc6162f1565b5b906000526020600020906009020160010160009054906101000a900473ffffffffffffffffffffffffffffffffffffffff1673ffffffffffffffffffffffffffffffffffffffff161480156148c257508d73ffffffffffffffffffffffffffffffffffffffff1660028281548110614878576148776162f1565b5b906000526020600020906009020160020160009054906101000a900473ffffffffffffffffffffffffffffffffffffffff1673ffffffffffffffffffffffffffffffffffffffff16145b15614bfb57600281815481106148db576148da6162f1565b5b906000526020600020906009020160030180546148f790616398565b80601f016020809104026020016040519081016040528092919081815260200182805461492390616398565b80156149705780601f1061494557610100808354040283529160200191614970565b820191906000526020600020905b81548152906001019060200180831161495357829003601f168201915b5050505050878281518110614988576149876162f1565b5b6020026020010181905250600281815481106149a7576149a66162f1565b5b906000526020600020906009020160040180546149c390616398565b80601f01602080910402602001604051908101604052809291908181526020018280546149ef90616398565b8015614a3c5780601f10614a1157610100808354040283529160200191614a3c565b820191906000526020600020905b815481529060010190602001808311614a1f57829003601f168201915b5050505050868281518110614a5457614a536162f1565b5b602002602001018190525060028181548110614a7357614a726162f1565b5b90600052602060002090600902016005018054614a8f90616398565b80601f0160208091040260200160405190810160405280929190818152602001828054614abb90616398565b8015614b085780601f10614add57610100808354040283529160200191614b08565b820191906000526020600020905b815481529060010190602001808311614aeb57829003601f168201915b5050505050858281518110614b2057614b1f6162f1565b5b602002602001018190525060028181548110614b3f57614b3e6162f1565b5b906000526020600020906009020160060154848281518110614b6457614b636162f1565b5b60200260200101818152505060028181548110614b8457614b836162f1565b5b906000526020600020906009020160070154838281518110614ba957614ba86162f1565b5b60200260200101818152505060028181548110614bc957614bc86162f1565b5b906000526020600020906009020160080154828281518110614bee57614bed6162f1565b5b6020026020010181815250505b8080614c0690616320565b9150506147c5565b508585858585859b509b509b509b509b509b505050505050509295509295509295565b60008210158015614c43575060c88211155b614c82576040517f08c379a0000000000000000000000000000000000000000000000000000000008152600401614c79906164e3565b60405180910390fd5b60008110158015614c94575060c88111155b614cd3576040517f08c379a0000000000000000000000000000000000000000000000000000000008152600401614cca9061654f565b60405180910390fd5b60036040518061012001604052808787604051602001614cf4929190616248565b6040516020818303038152906040528051906020012081526020018973ffffffffffffffffffffffffffffffffffffffff1681526020018873ffffffffffffffffffffffffffffffffffffffff1681526020018781526020018681526020018581526020018481526020018381526020018385614d71919061629b565b81525090806001815401808255809150506001900390600052602060002090600902016000909190919091506000820151816000015560208201518160010160006101000a81548173ffffffffffffffffffffffffffffffffffffffff021916908373ffffffffffffffffffffffffffffffffffffffff16021790555060408201518160020160006101000a81548173ffffffffffffffffffffffffffffffffffffffff021916908373ffffffffffffffffffffffffffffffffffffffff1602179055506060820151816003019080519060200190614e5192919061502a565b506080820151816004019080519060200190614e6e92919061502a565b5060a0820151816005019080519060200190614e8b92919061502a565b5060c0820151816006015560e082015181600701556101008201518160080155505050505050505050565b60006040518060e001604052808973ffffffffffffffffffffffffffffffffffffffff16815260200188815260200187815260200186815260200185815260200184815260200183815250908060018154018082558091505060019003906000526020600020906007020160009091909190915060008201518160000160006101000a81548173ffffffffffffffffffffffffffffffffffffffff021916908373ffffffffffffffffffffffffffffffffffffffff1602179055506020820151816001019080519060200190614f8d92919061502a565b506040820151816002019080519060200190614faa92919061502a565b506060820151816003019080519060200190614fc792919061502a565b506080820151816004019080519060200190614fe492919061502a565b5060a082015181600501908051906020019061500192919061502a565b5060c082015181600601908051906020019061501e92919061502a565b50505050505050505050565b82805461503690616398565b90600052602060002090601f016020900481019282615058576000855561509f565b82601f1061507157805160ff191683800117855561509f565b8280016001018555821561509f579182015b8281111561509e578251825591602001919060010190615083565b5b5090506150ac91906150b0565b5090565b5b808211156150c95760008160009055506001016150b1565b5090565b6000604051905090565b600080fd5b600080fd5b600073ffffffffffffffffffffffffffffffffffffffff82169050919050565b600061510c826150e1565b9050919050565b61511c81615101565b811461512757600080fd5b50565b60008135905061513981615113565b92915050565b600080fd5b600080fd5b6000601f19601f8301169050919050565b7f4e487b7100000000000000000000000000000000000000000000000000000000600052604160045260246000fd5b61519282615149565b810181811067ffffffffffffffff821117156151b1576151b061515a565b5b80604052505050565b60006151c46150cd565b90506151d08282615189565b919050565b600067ffffffffffffffff8211156151f0576151ef61515a565b5b6151f982615149565b9050602081019050919050565b82818337600083830152505050565b6000615228615223846151d5565b6151ba565b90508281526020810184848401111561524457615243615144565b5b61524f848285615206565b509392505050565b600082601f83011261526c5761526b61513f565b5b813561527c848260208601615215565b91505092915050565b6000819050919050565b61529881615285565b81146152a357600080fd5b50565b6000813590506152b58161528f565b92915050565b600080600080600080600060e0888a0312156152da576152d96150d7565b5b60006152e88a828b0161512a565b97505060206152f98a828b0161512a565b965050604088013567ffffffffffffffff81111561531a576153196150dc565b5b6153268a828b01615257565b955050606088013567ffffffffffffffff811115615347576153466150dc565b5b6153538a828b01615257565b945050608088013567ffffffffffffffff811115615374576153736150dc565b5b6153808a828b01615257565b93505060a06153918a828b016152a6565b92505060c06153a28a828b016152a6565b91505092959891949750929550565b6000806000606084860312156153ca576153c96150d7565b5b60006153d88682870161512a565b935050602084013567ffffffffffffffff8111156153f9576153f86150dc565b5b61540586828701615257565b925050604084013567ffffffffffffffff811115615426576154256150dc565b5b61543286828701615257565b9150509250925092565b61544581615285565b82525050565b6000602082019050615460600083018461543c565b92915050565b6000806040838503121561547d5761547c6150d7565b5b600061548b8582860161512a565b925050602061549c8582860161512a565b9150509250929050565b600081519050919050565b600082825260208201905092915050565b6000819050602082019050919050565b600081519050919050565b600082825260208201905092915050565b60005b8381101561550c5780820151818401526020810190506154f1565b8381111561551b576000848401525b50505050565b600061552c826154d2565b61553681856154dd565b93506155468185602086016154ee565b61554f81615149565b840191505092915050565b60006155668383615521565b905092915050565b6000602082019050919050565b6000615586826154a6565b61559081856154b1565b9350836020820285016155a2856154c2565b8060005b858110156155de57848403895281516155bf858261555a565b94506155ca8361556e565b925060208a019950506001810190506155a6565b50829750879550505050505092915050565b600081519050919050565b600082825260208201905092915050565b6000819050602082019050919050565b61562581615285565b82525050565b6000615637838361561c565b60208301905092915050565b6000602082019050919050565b600061565b826155f0565b61566581856155fb565b93506156708361560c565b8060005b838110156156a1578151615688888261562b565b975061569383615643565b925050600181019050615674565b5085935050505092915050565b600060c08201905081810360008301526156c8818961557b565b905081810360208301526156dc818861557b565b905081810360408301526156f0818761557b565b905081810360608301526157048186615650565b905081810360808301526157188185615650565b905081810360a083015261572c8184615650565b9050979650505050505050565b60006020828403121561574f5761574e6150d7565b5b600061575d848285016152a6565b91505092915050565b61576f81615101565b82525050565b600082825260208201905092915050565b6000615791826154d2565b61579b8185615775565b93506157ab8185602086016154ee565b6157b481615149565b840191505092915050565b600060e0820190506157d4600083018a615766565b81810360208301526157e68189615786565b905081810360408301526157fa8188615786565b9050818103606083015261580e8187615786565b905081810360808301526158228186615786565b905081810360a08301526158368185615786565b905081810360c083015261584a8184615786565b905098975050505050505050565b600081519050919050565b600082825260208201905092915050565b6000819050602082019050919050565b6000819050919050565b61589781615884565b82525050565b60006158a9838361588e565b60208301905092915050565b6000602082019050919050565b60006158cd82615858565b6158d78185615863565b93506158e283615874565b8060005b838110156159135781516158fa888261589d565b9750615905836158b5565b9250506001810190506158e6565b5085935050505092915050565b600081519050919050565b600082825260208201905092915050565b6000819050602082019050919050565b61595581615101565b82525050565b6000615967838361594c565b60208301905092915050565b6000602082019050919050565b600061598b82615920565b615995818561592b565b93506159a08361593c565b8060005b838110156159d15781516159b8888261595b565b97506159c383615973565b9250506001810190506159a4565b5085935050505092915050565b600060c08201905081810360008301526159f881896158c2565b90508181036020830152615a0c8188615980565b90508181036040830152615a208187615980565b90508181036060830152615a34818661557b565b90508181036080830152615a48818561557b565b905081810360a0830152615a5c818461557b565b9050979650505050505050565b600060208284031215615a7f57615a7e6150d7565b5b6000615a8d8482850161512a565b91505092915050565b600060c082019050615aab6000830189615766565b8181036020830152615abd8188615786565b90508181036040830152615ad18187615786565b90508181036060830152615ae58186615786565b90508181036080830152615af98185615786565b905081810360a0830152615b0d8184615786565b9050979650505050505050565b60008060408385031215615b3157615b306150d7565b5b6000615b3f8582860161512a565b925050602083013567ffffffffffffffff811115615b6057615b5f6150dc565b5b615b6c85828601615257565b9150509250929050565b615b7f81615884565b8114615b8a57600080fd5b50565b600081359050615b9c81615b76565b92915050565b600080600060608486031215615bbb57615bba6150d7565b5b6000615bc98682870161512a565b9350506020615bda8682870161512a565b9250506040615beb86828701615b8d565b9150509250925092565b615bfe81615884565b82525050565b600060c082019050615c196000830189615bf5565b615c266020830188615766565b615c336040830187615766565b8181036060830152615c458186615786565b90508181036080830152615c598185615786565b905081810360a0830152615c6d8184615786565b9050979650505050505050565b600061012082019050615c90600083018c615bf5565b615c9d602083018b615766565b615caa604083018a615766565b8181036060830152615cbc8189615786565b90508181036080830152615cd08188615786565b905081810360a0830152615ce48187615786565b9050615cf360c083018661543c565b615d0060e083018561543c565b615d0e61010083018461543c565b9a9950505050505050505050565b60008060008060808587031215615d3657615d356150d7565b5b6000615d448782880161512a565b9450506020615d558782880161512a565b935050604085013567ffffffffffffffff811115615d7657615d756150dc565b5b615d8287828801615257565b925050606085013567ffffffffffffffff811115615da357615da26150dc565b5b615daf87828801615257565b91505092959194509250565b600060c0820190508181036000830152615dd58189615786565b90508181036020830152615de98188615786565b90508181036040830152615dfd8187615786565b9050615e0c606083018661543c565b615e19608083018561543c565b615e2660a083018461543c565b979650505050505050565b60008060008060008060c08789031215615e4e57615e4d6150d7565b5b6000615e5c89828a0161512a565b965050602087013567ffffffffffffffff811115615e7d57615e7c6150dc565b5b615e8989828a01615257565b955050604087013567ffffffffffffffff811115615eaa57615ea96150dc565b5b615eb689828a01615257565b945050606087013567ffffffffffffffff811115615ed757615ed66150dc565b5b615ee389828a01615257565b935050608087013567ffffffffffffffff811115615f0457615f036150dc565b5b615f1089828a01615257565b92505060a087013567ffffffffffffffff811115615f3157615f306150dc565b5b615f3d89828a01615257565b9150509295509295509295565b600060e0820190508181036000830152615f64818a615980565b90508181036020830152615f78818961557b565b90508181036040830152615f8c818861557b565b90508181036060830152615fa0818761557b565b90508181036080830152615fb4818661557b565b905081810360a0830152615fc8818561557b565b905081810360c0830152615fdc818461557b565b905098975050505050505050565b600080600080600080600060e0888a031215616009576160086150d7565b5b60006160178a828b0161512a565b975050602088013567ffffffffffffffff811115616038576160376150dc565b5b6160448a828b01615257565b965050604088013567ffffffffffffffff811115616065576160646150dc565b5b6160718a828b01615257565b955050606088013567ffffffffffffffff811115616092576160916150dc565b5b61609e8a828b01615257565b945050608088013567ffffffffffffffff8111156160bf576160be6150dc565b5b6160cb8a828b01615257565b93505060a088013567ffffffffffffffff8111156160ec576160eb6150dc565b5b6160f88a828b01615257565b92505060c088013567ffffffffffffffff811115616119576161186150dc565b5b6161258a828b01615257565b91505092959891949750929550565b7f4c697374656e696e672053636f726520696e636f72726563742e000000000000600082015250565b600061616a601a83615775565b915061617582616134565b602082019050919050565b600060208201905081810360008301526161998161615d565b9050919050565b7f52656164696e672053636f726520696e636f72726563742e0000000000000000600082015250565b60006161d6601883615775565b91506161e1826161a0565b602082019050919050565b60006020820190508181036000830152616205816161c9565b9050919050565b600081905092915050565b6000616222826154d2565b61622c818561620c565b935061623c8185602086016154ee565b80840191505092915050565b60006162548285616217565b91506162608284616217565b91508190509392505050565b7f4e487b7100000000000000000000000000000000000000000000000000000000600052601160045260246000fd5b60006162a682615285565b91506162b183615285565b9250827fffffffffffffffffffffffffffffffffffffffffffffffffffffffffffffffff038211156162e6576162e561626c565b5b828201905092915050565b7f4e487b7100000000000000000000000000000000000000000000000000000000600052603260045260246000fd5b600061632b82615285565b91507fffffffffffffffffffffffffffffffffffffffffffffffffffffffffffffffff82141561635e5761635d61626c565b5b600182019050919050565b7f4e487b7100000000000000000000000000000000000000000000000000000000600052602260045260246000fd5b600060028204905060018216806163b057607f821691505b602082108114156163c4576163c3616369565b5b50919050565b600081905092915050565b60008190508160005260206000209050919050565b600081546163f781616398565b61640181866163ca565b9450600182166000811461641c576001811461642d57616460565b60ff19831686528186019350616460565b616436856163d5565b60005b8381101561645857815481890152600182019150602081019050616439565b838801955050505b50505092915050565b600061647582846163ea565b915081905092915050565b600061648c8284616217565b915081905092915050565b7f537065616b696e672053636f726520696e636f72726563742e00000000000000600082015250565b60006164cd601983615775565b91506164d882616497565b602082019050919050565b600060208201905081810360008301526164fc816164c0565b9050919050565b7f57726974696e672053636f726520696e636f72726563742e0000000000000000600082015250565b6000616539601883615775565b915061654482616503565b602082019050919050565b600060208201905081810360008301526165688161652c565b905091905056fea26469706673582212208541efcbfce69aaf1efe11ace8a9e1234b72efd389b16382edb54bc2a136ed8164736f6c634300080b0033",
  "immutableReferences": {},
  "source": "// SPDX-License-Identifier: MIT\r\npragma solidity >=0.4.22 <0.9.0;\r\n\r\n// Lu tr danh sch IIG\r\ncontract ListIIG {\r\n\r\n    // Khai bo cu trc lu tr thng tin IIG\r\n    struct IIGInfo {\r\n        address iigOwner;\r\n        string name;\r\n        string country;\r\n        string facebook;\r\n        string website;\r\n        string linkedin;\r\n        string password;\r\n    }\r\n\r\n    // Khai bo cu trc lu tr thng tin yu cu chng ch IIG ca sinh vin\r\n    struct IIGRequest {\r\n        bytes32 codeRequest;\r\n        address studentOwner;\r\n        address iigOwner;\r\n        string identityCard;\r\n        string requestDate;\r\n        string statusRequest;\r\n    }\r\n\r\n    // Khai bo cu trc lu tr thng tin im thi Listening - Reading IIG\r\n    struct IIGLRResult {\r\n        bytes32 codeLRResult;\r\n        address iigOwner;\r\n        address studentOwner;\r\n        string testDate;\r\n        string shiftTest;\r\n        string expireDate;\r\n        uint listeningScore;\r\n        uint readingScore;\r\n        uint totalScore;\r\n    }\r\n\r\n    // Khai bo cu trc lu tr thng tin im thi Speaking - Writing IIG\r\n    struct IIGSWResult {\r\n        bytes32 codeSWResult;\r\n        address iigOwner;\r\n        address studentOwner;\r\n        string testDate;\r\n        string shiftTest;\r\n        string expireDate;\r\n        uint speakingScore;\r\n        uint writingScore;\r\n        uint totalScore;\r\n    }\r\n\r\n    // Khai bo mng  lu tr thng tin\r\n    IIGInfo[] public iigInfos;\r\n    IIGRequest[] public iigRequests;\r\n    IIGLRResult[] public iigLRResults;\r\n    IIGSWResult[] public iigSWResults;\r\n\r\n    // Chc nng thm thng tin IGG\r\n    function addIIG (\r\n        address _iigOwner,\r\n        string memory _name,\r\n        string memory _country,\r\n        string memory _facebook,\r\n        string memory _website,\r\n        string memory _linkedin,\r\n        string memory _password) public {\r\n            iigInfos.push(\r\n                IIGInfo(_iigOwner, \r\n                        _name, \r\n                        _country, \r\n                        _facebook,\r\n                        _website, \r\n                        _linkedin, \r\n                        _password)\r\n                );\r\n    }\r\n\r\n    // Chc nng chnh sa thng tin IGG\r\n    function editIIG (\r\n        address _iigOwner,\r\n        string memory _name,\r\n        string memory _country,\r\n        string memory _facebook,\r\n        string memory _website,\r\n        string memory _linkedin) public {\r\n            for(uint i=0; i<iigInfos.length;i++){\r\n                if(iigInfos[i].iigOwner == _iigOwner){\r\n                    iigInfos[i].name = _name;\r\n                    iigInfos[i].country = _country;\r\n                    iigInfos[i].facebook = _facebook;\r\n                    iigInfos[i].website = _website;\r\n                    iigInfos[i].linkedin = _linkedin;\r\n                }\r\n            }\r\n    }\r\n\r\n    // Chc nng ly danh sch IIG  thm\r\n    function getListIIG() public view returns(\r\n        address[] memory, \r\n        string[] memory, \r\n        string[] memory, \r\n        string[] memory, \r\n        string[] memory, \r\n        string[] memory, \r\n        string[] memory) {\r\n            address[] memory iigOwners = new address[](iigInfos.length);\r\n            string[] memory names = new string[](iigInfos.length);\r\n            string[] memory countrys = new string[](iigInfos.length);\r\n            string[] memory facebooks = new string[](iigInfos.length);\r\n            string[] memory websites = new string[](iigInfos.length);\r\n            string[] memory linkedins = new string[](iigInfos.length);\r\n            string[] memory passwords = new string[](iigInfos.length);\r\n            for(uint i=0; i<iigInfos.length;i++){\r\n                iigOwners[i] = iigInfos[i].iigOwner;\r\n                names[i] = iigInfos[i].name;\r\n                countrys[i] = iigInfos[i].country;\r\n                facebooks[i] = iigInfos[i].facebook;\r\n                websites[i] = iigInfos[i].website;\r\n                linkedins[i] = iigInfos[i].linkedin;\r\n                passwords[i] = iigInfos[i].password;\r\n            }\r\n            return (iigOwners, names, countrys, facebooks, websites, linkedins, passwords);\r\n    }\r\n\r\n    // Chc nng ly thng tin ca IIG\r\n    function getProfile(address _iigOwner) public view returns(\r\n        address iigOwner, \r\n        string memory name, \r\n        string memory country, \r\n        string memory facebook, \r\n        string memory website, \r\n        string memory linkedin) {\r\n            for(uint i=0; i<iigInfos.length;i++){\r\n                if(iigInfos[i].iigOwner == _iigOwner){\r\n                    return (iigInfos[i].iigOwner,\r\n                            iigInfos[i].name, \r\n                            iigInfos[i].country, \r\n                            iigInfos[i].facebook, \r\n                            iigInfos[i].website, \r\n                            iigInfos[i].linkedin);\r\n                }\r\n            }\r\n    }\r\n\r\n    // Chc nng kim tra IIG  ng k hay cha?\r\n    function checkIIG(\r\n        address _iigOwner, \r\n        string memory _password) public view returns(uint x) {\r\n            for(uint i=0; i<iigInfos.length; i++){\r\n                if((iigInfos[i].iigOwner == _iigOwner) && (keccak256(bytes(iigInfos[i].password)) == keccak256(bytes(_password)))){\r\n                    return 1;\r\n                }\r\n            }\r\n    }\r\n\r\n    // Chc nng kim tra a ch IIG  tn ti hay cha?\r\n    function checkExistIIG(address _iigOwner) public view returns(uint x) {\r\n        for(uint i=0; i<iigInfos.length; i++){\r\n            if(iigInfos[i].iigOwner == _iigOwner){\r\n                return 1;\r\n            }\r\n        }\r\n    }\r\n\r\n    // Chc nng thm thng tin yu cu chng ch IIG\r\n    function addRequest (\r\n        address _studentOwner,\r\n        address _iigOwner,\r\n        string memory _identityCard,\r\n        string memory _requestDate) public {\r\n            iigRequests.push(\r\n                IIGRequest(keccak256(bytes(string(abi.encodePacked(_requestDate)))),\r\n                        _studentOwner, \r\n                        _iigOwner,\r\n                        _identityCard,\r\n                        _requestDate,\r\n                        \"Waiting\")\r\n                );\r\n    }\r\n\r\n    // Chc nng ly danh sch yu cu chng ch IIG\r\n    function getListRequest(address _iigOwner) public view returns(\r\n        bytes32[] memory,\r\n        address[] memory, \r\n        address[] memory,\r\n        string[] memory,\r\n        string[] memory,\r\n        string[] memory) {\r\n            bytes32[] memory codeRequests = new bytes32[](iigRequests.length);\r\n            address[] memory studentOwners = new address[](iigRequests.length);\r\n            address[] memory iigOwners = new address[](iigRequests.length);\r\n            string[] memory identityCards = new string[](iigRequests.length);\r\n            string[] memory requestDates = new string[](iigRequests.length);\r\n            string[] memory statusRequests = new string[](iigRequests.length);\r\n            for(uint i=0; i<iigRequests.length;i++){\r\n                if(iigRequests[i].iigOwner == _iigOwner){\r\n                    codeRequests[i] = iigRequests[i].codeRequest;\r\n                    studentOwners[i] = iigRequests[i].studentOwner;\r\n                    iigOwners[i] = iigRequests[i].iigOwner;\r\n                    identityCards[i] = iigRequests[i].identityCard;\r\n                    requestDates[i] = iigRequests[i].requestDate;\r\n                    statusRequests[i] = iigRequests[i].statusRequest;\r\n                }\r\n            }\r\n            return (codeRequests, studentOwners, iigOwners, identityCards, requestDates, statusRequests);\r\n    }\r\n\r\n    // Chc nng ly danh sch yu cu chng ch IIG theo sinh vin\r\n    function getListRequestStudent(address _iigOwner, address _studentOwner) public view returns(\r\n        bytes32[] memory,\r\n        address[] memory, \r\n        address[] memory,\r\n        string[] memory,\r\n        string[] memory,\r\n        string[] memory) {\r\n            bytes32[] memory codeRequests = new bytes32[](iigRequests.length);\r\n            address[] memory studentOwners = new address[](iigRequests.length);\r\n            address[] memory iigOwners = new address[](iigRequests.length);\r\n            string[] memory identityCards = new string[](iigRequests.length);\r\n            string[] memory requestDates = new string[](iigRequests.length);\r\n            string[] memory statusRequests = new string[](iigRequests.length);\r\n            for(uint i=0; i<iigRequests.length;i++){\r\n                if((iigRequests[i].iigOwner == _iigOwner) && (iigRequests[i].studentOwner == _studentOwner)){\r\n                    codeRequests[i] = iigRequests[i].codeRequest;\r\n                    studentOwners[i] = iigRequests[i].studentOwner;\r\n                    iigOwners[i] = iigRequests[i].iigOwner;\r\n                    identityCards[i] = iigRequests[i].identityCard;\r\n                    requestDates[i] = iigRequests[i].requestDate;\r\n                    statusRequests[i] = iigRequests[i].statusRequest;\r\n                }\r\n            }\r\n            return (codeRequests, studentOwners, iigOwners, identityCards, requestDates, statusRequests);\r\n    }\r\n\r\n    //Chc nng duyt yu cu chng ch IIG\r\n    function confirmRequest(\r\n        address _studentOwner, \r\n        address _iigOwner,\r\n        bytes32  _codeRequest) public {\r\n            for(uint i=0; i<iigRequests.length; i++){\r\n                if((iigRequests[i].studentOwner == _studentOwner) && (iigRequests[i].iigOwner == _iigOwner) && (iigRequests[i].codeRequest == _codeRequest)){\r\n                    iigRequests[i].statusRequest = \"Accept\";\r\n                }\r\n            }\r\n    }\r\n\r\n    //Chc nng t chi yu cu chng ch IIG\r\n    function declineRequest(\r\n        address _studentOwner, \r\n        address _iigOwner,\r\n        bytes32  _codeRequest) public {\r\n            for(uint i=0; i<iigRequests.length; i++){\r\n                if((iigRequests[i].studentOwner == _studentOwner) && (iigRequests[i].iigOwner == _iigOwner) && (iigRequests[i].codeRequest == _codeRequest)){\r\n                    iigRequests[i].statusRequest = \"Decline\";\r\n                }\r\n            }\r\n    }\r\n\r\n    // Chc nng thm thng tin im thi Listening - Reading (Kim tra c nhp nhiu ln thi ca 1 sinh vin chung 1 ngy khng?)\r\n    function addLRResult (\r\n        address _iigOwner,\r\n        address _studentOwner,\r\n        string memory _testDate,\r\n        string memory _shiftTest,\r\n        string memory _expireDate,\r\n        uint _listeningScore,\r\n        uint _readingScore) public {\r\n            require(_listeningScore >=0 && _listeningScore <=495, \"Listening Score incorrect.\");\r\n            require(_readingScore >=0 && _readingScore <=495, \"Reading Score incorrect.\");\r\n            iigLRResults.push(\r\n                IIGLRResult(keccak256(bytes(string(abi.encodePacked(_testDate, _shiftTest)))),\r\n                        _iigOwner, \r\n                        _studentOwner, \r\n                        _testDate,\r\n                        _shiftTest,\r\n                        _expireDate,\r\n                        _listeningScore, \r\n                        _readingScore,\r\n                        (_listeningScore + _readingScore))\r\n                );\r\n    }\r\n\r\n    // Chc nng ly danh sch im thi Listening - Reading  thm\r\n    function getListLRResult(\r\n        address _iigOwner, \r\n        address _studentOwner) public view returns(\r\n            string[] memory,\r\n            string[] memory,\r\n            string[] memory,\r\n            uint[] memory,\r\n            uint[] memory,\r\n            uint[] memory) {\r\n                string[] memory testDates = new string[](iigLRResults.length);\r\n                string[] memory shiftTests = new string[](iigLRResults.length);\r\n                string[] memory expireDates = new string[](iigLRResults.length);\r\n                uint[] memory listeningScores = new uint[](iigLRResults.length);\r\n                uint[] memory readingScores = new uint[](iigLRResults.length);\r\n                uint[] memory totalScores = new uint[](iigLRResults.length);\r\n                for(uint i=0; i<iigLRResults.length;i++){\r\n                    if((iigLRResults[i].iigOwner == _iigOwner) && (iigLRResults[i].studentOwner == _studentOwner)){\r\n                        testDates[i] = iigLRResults[i].testDate;\r\n                        shiftTests[i] = iigLRResults[i].shiftTest;\r\n                        expireDates[i] = iigLRResults[i].expireDate;\r\n                        listeningScores[i] = iigLRResults[i].listeningScore;\r\n                        readingScores[i] = iigLRResults[i].readingScore;\r\n                        totalScores[i] = iigLRResults[i].totalScore;\r\n                    }\r\n                }\r\n                return (testDates, shiftTests, expireDates, listeningScores, readingScores, totalScores);\r\n    }\r\n\r\n    // Chc nng ly im thi Listening - Reading ca sinh vin\r\n    function getLRResult(\r\n        address _iigOwner, \r\n        address _studentOwner,\r\n        string memory _testDate,\r\n        string memory _shiftTest) public view returns(\r\n            string memory testDate,\r\n            string memory shiftTest,\r\n            string memory expireDate,\r\n            uint listeningScore,\r\n            uint readingScore,\r\n            uint totalScore) {\r\n                for(uint i=0; i<iigLRResults.length;i++){\r\n                    if((iigLRResults[i].iigOwner == _iigOwner) && (iigLRResults[i].studentOwner == _studentOwner) && (iigLRResults[i].codeLRResult == keccak256(bytes(string(abi.encodePacked(_testDate, _shiftTest)))))){\r\n                        return(iigLRResults[i].testDate,\r\n                                iigLRResults[i].shiftTest,\r\n                                iigLRResults[i].expireDate,\r\n                                iigLRResults[i].listeningScore,\r\n                                iigLRResults[i].readingScore,\r\n                                iigLRResults[i].totalScore);\r\n                    }\r\n                }\r\n    }\r\n\r\n    // Chc nng kim tra kt qu ngy thi Listening - Reading ca sinh vin  tn ti hay cha?\r\n    function checkExistLRResult(\r\n        address _studentOwner, \r\n        string memory _testDate,\r\n        string memory _shiftTest) public view returns(uint x) {\r\n            for(uint i=0; i<iigLRResults.length; i++){\r\n                if((iigLRResults[i].studentOwner == _studentOwner) && (iigLRResults[i].codeLRResult == keccak256(bytes(string(abi.encodePacked(_testDate, _shiftTest)))))){\r\n                    return 1;\r\n                }\r\n            }\r\n    }\r\n\r\n    // Chc nng thm thng tin im thi Speaking - Writing\r\n    function addSWResult (\r\n        address _iigOwner,\r\n        address _studentOwner,\r\n        string memory _testDate,\r\n        string memory _shiftTest,\r\n        string memory _expireDate,\r\n        uint _speakingScore,\r\n        uint _writingScore) public {\r\n            require(_speakingScore >=0 && _speakingScore <=200, \"Speaking Score incorrect.\");\r\n            require(_writingScore >=0 && _writingScore <=200, \"Writing Score incorrect.\");\r\n            iigSWResults.push(\r\n                IIGSWResult(keccak256(bytes(string(abi.encodePacked(_testDate, _shiftTest)))),\r\n                        _iigOwner, \r\n                        _studentOwner, \r\n                        _testDate,\r\n                        _shiftTest,\r\n                        _expireDate,\r\n                        _speakingScore, \r\n                        _writingScore,\r\n                        (_speakingScore + _writingScore))\r\n                );\r\n    }\r\n\r\n    // Chc nng ly danh sch im thi Speaking - Writing  thm\r\n    function getListSWResult(address _iigOwner, address _studentOwner) public view returns(\r\n        string[] memory,\r\n        string[] memory,\r\n        string[] memory,\r\n        uint[] memory,\r\n        uint[] memory,\r\n        uint[] memory) {\r\n            string[] memory testDates = new string[](iigSWResults.length);\r\n            string[] memory shiftTests = new string[](iigSWResults.length);\r\n            string[] memory expireDates = new string[](iigSWResults.length);\r\n            uint[] memory speakingScores = new uint[](iigSWResults.length);\r\n            uint[] memory writingScores = new uint[](iigSWResults.length);\r\n            uint[] memory totalScores = new uint[](iigSWResults.length);\r\n            for(uint i=0; i<iigSWResults.length;i++){\r\n                if((iigLRResults[i].iigOwner == _iigOwner) && (iigLRResults[i].studentOwner == _studentOwner)){\r\n                    testDates[i] = iigSWResults[i].testDate;\r\n                    shiftTests[i] = iigSWResults[i].shiftTest;\r\n                    expireDates[i] = iigSWResults[i].expireDate;\r\n                    speakingScores[i] = iigSWResults[i].speakingScore;\r\n                    writingScores[i] = iigSWResults[i].writingScore;\r\n                    totalScores[i] = iigSWResults[i].totalScore;\r\n                }\r\n            }\r\n            return (testDates, shiftTests, expireDates, speakingScores, writingScores, totalScores);\r\n    }\r\n\r\n    // Chc nng ly im thi Speaking - Writing ca sinh vin\r\n    function getSWResult(\r\n        address _iigOwner, \r\n        address _studentOwner,\r\n        string memory _testDate,\r\n        string memory _shiftTest) public view returns(\r\n            string memory testDate,\r\n            string memory shiftTest,\r\n            string memory expireDate,\r\n            uint speakingScore,\r\n            uint writingScore,\r\n            uint totalScore) {\r\n                for(uint i=0; i<iigSWResults.length;i++){\r\n                    if((iigSWResults[i].iigOwner == _iigOwner) && (iigSWResults[i].studentOwner == _studentOwner) && (iigSWResults[i].codeSWResult == keccak256(bytes(string(abi.encodePacked(_testDate, _shiftTest)))))){\r\n                        return(iigSWResults[i].testDate,\r\n                                iigSWResults[i].shiftTest,\r\n                                iigSWResults[i].expireDate,\r\n                                iigSWResults[i].speakingScore,\r\n                                iigSWResults[i].writingScore,\r\n                                iigSWResults[i].totalScore);\r\n                    }\r\n                }\r\n    }\r\n    \r\n    // Chc nng kim tra kt qu ngy thi Speaking - Writing ca sinh vin  tn ti hay cha?\r\n    function checkExistSWResult(\r\n        address _studentOwner,\r\n        string memory _testDate,\r\n        string memory _shiftTest) public view returns(uint x) {\r\n            for(uint i=0; i<iigSWResults.length; i++){\r\n                if((iigLRResults[i].studentOwner == _studentOwner) && (iigLRResults[i].codeLRResult == keccak256(bytes(string(abi.encodePacked(_testDate, _shiftTest)))))){\r\n                    return 1;\r\n                }\r\n            }\r\n    }\r\n}",
  "sourcePath": "C:\\Users\\19520\\Documents\\NCKH_Blockchain\\SolidityProgramming\\ProjectResearch\\SmartCV\\SmartContract\\contracts\\SmartCV_ListIIG.sol",
  "compiler": {
    "name": "solc",
    "version": "0.8.11+commit.d7f03943.Emscripten.clang"
  },
  "schemaVersion": "3.4.4",
  "updatedAt": "2022-07-28T14:56:23.769Z",
  "devdoc": {
    "kind": "dev",
    "methods": {},
    "version": 1
  },
  "userdoc": {
    "kind": "user",
    "methods": {},
    "version": 1
  }
}