{
  "contractName": "ListIIG",
  "abi": [
    {
      "inputs": [
        {
          "internalType": "uint256",
          "name": "",
          "type": "uint256"
        }
      ],
      "name": "iigInfos",
      "outputs": [
        {
          "internalType": "address",
          "name": "iigOwner",
          "type": "address"
        },
        {
          "internalType": "string",
          "name": "name",
          "type": "string"
        },
        {
          "internalType": "string",
          "name": "country",
          "type": "string"
        },
        {
          "internalType": "string",
          "name": "facebook",
          "type": "string"
        },
        {
          "internalType": "string",
          "name": "website",
          "type": "string"
        },
        {
          "internalType": "string",
          "name": "linkedin",
          "type": "string"
        },
        {
          "internalType": "string",
          "name": "password",
          "type": "string"
        }
      ],
      "stateMutability": "view",
      "type": "function"
    },
    {
      "inputs": [
        {
          "internalType": "uint256",
          "name": "",
          "type": "uint256"
        }
      ],
      "name": "iigLRResults",
      "outputs": [
        {
          "internalType": "address",
          "name": "iigOwner",
          "type": "address"
        },
        {
          "internalType": "address",
          "name": "studentOwner",
          "type": "address"
        },
        {
          "internalType": "string",
          "name": "testDate",
          "type": "string"
        },
        {
          "internalType": "string",
          "name": "shiftTest",
          "type": "string"
        },
        {
          "internalType": "string",
          "name": "expireDate",
          "type": "string"
        },
        {
          "internalType": "uint256",
          "name": "listeningScore",
          "type": "uint256"
        },
        {
          "internalType": "uint256",
          "name": "readingScore",
          "type": "uint256"
        },
        {
          "internalType": "uint256",
          "name": "totalScore",
          "type": "uint256"
        }
      ],
      "stateMutability": "view",
      "type": "function"
    },
    {
      "inputs": [
        {
          "internalType": "uint256",
          "name": "",
          "type": "uint256"
        }
      ],
      "name": "iigRequests",
      "outputs": [
        {
          "internalType": "address",
          "name": "studentOwner",
          "type": "address"
        },
        {
          "internalType": "address",
          "name": "iigOwner",
          "type": "address"
        },
        {
          "internalType": "string",
          "name": "identityCard",
          "type": "string"
        },
        {
          "internalType": "string",
          "name": "statusRequest",
          "type": "string"
        }
      ],
      "stateMutability": "view",
      "type": "function"
    },
    {
      "inputs": [
        {
          "internalType": "uint256",
          "name": "",
          "type": "uint256"
        }
      ],
      "name": "iigSWResults",
      "outputs": [
        {
          "internalType": "address",
          "name": "iigOwner",
          "type": "address"
        },
        {
          "internalType": "address",
          "name": "studentOwner",
          "type": "address"
        },
        {
          "internalType": "string",
          "name": "testDate",
          "type": "string"
        },
        {
          "internalType": "string",
          "name": "shiftTest",
          "type": "string"
        },
        {
          "internalType": "string",
          "name": "expireDate",
          "type": "string"
        },
        {
          "internalType": "uint256",
          "name": "speakingScore",
          "type": "uint256"
        },
        {
          "internalType": "uint256",
          "name": "writingScore",
          "type": "uint256"
        },
        {
          "internalType": "uint256",
          "name": "totalScore",
          "type": "uint256"
        }
      ],
      "stateMutability": "view",
      "type": "function"
    },
    {
      "inputs": [
        {
          "internalType": "address",
          "name": "_iigOwner",
          "type": "address"
        },
        {
          "internalType": "string",
          "name": "_name",
          "type": "string"
        },
        {
          "internalType": "string",
          "name": "_country",
          "type": "string"
        },
        {
          "internalType": "string",
          "name": "_facebook",
          "type": "string"
        },
        {
          "internalType": "string",
          "name": "_website",
          "type": "string"
        },
        {
          "internalType": "string",
          "name": "_linkedin",
          "type": "string"
        },
        {
          "internalType": "string",
          "name": "_password",
          "type": "string"
        }
      ],
      "name": "addIIG",
      "outputs": [],
      "stateMutability": "nonpayable",
      "type": "function"
    },
    {
      "inputs": [
        {
          "internalType": "address",
          "name": "_iigOwner",
          "type": "address"
        },
        {
          "internalType": "string",
          "name": "_name",
          "type": "string"
        },
        {
          "internalType": "string",
          "name": "_country",
          "type": "string"
        },
        {
          "internalType": "string",
          "name": "_facebook",
          "type": "string"
        },
        {
          "internalType": "string",
          "name": "_website",
          "type": "string"
        },
        {
          "internalType": "string",
          "name": "_linkedin",
          "type": "string"
        }
      ],
      "name": "editIIG",
      "outputs": [],
      "stateMutability": "nonpayable",
      "type": "function"
    },
    {
      "inputs": [],
      "name": "getListIIG",
      "outputs": [
        {
          "internalType": "address[]",
          "name": "",
          "type": "address[]"
        },
        {
          "internalType": "string[]",
          "name": "",
          "type": "string[]"
        },
        {
          "internalType": "string[]",
          "name": "",
          "type": "string[]"
        },
        {
          "internalType": "string[]",
          "name": "",
          "type": "string[]"
        },
        {
          "internalType": "string[]",
          "name": "",
          "type": "string[]"
        },
        {
          "internalType": "string[]",
          "name": "",
          "type": "string[]"
        },
        {
          "internalType": "string[]",
          "name": "",
          "type": "string[]"
        }
      ],
      "stateMutability": "view",
      "type": "function"
    },
    {
      "inputs": [
        {
          "internalType": "address",
          "name": "_iigOwner",
          "type": "address"
        }
      ],
      "name": "getProfile",
      "outputs": [
        {
          "internalType": "address",
          "name": "iigOwner",
          "type": "address"
        },
        {
          "internalType": "string",
          "name": "name",
          "type": "string"
        },
        {
          "internalType": "string",
          "name": "country",
          "type": "string"
        },
        {
          "internalType": "string",
          "name": "facebook",
          "type": "string"
        },
        {
          "internalType": "string",
          "name": "website",
          "type": "string"
        },
        {
          "internalType": "string",
          "name": "linkedin",
          "type": "string"
        }
      ],
      "stateMutability": "view",
      "type": "function"
    },
    {
      "inputs": [
        {
          "internalType": "address",
          "name": "_iigOwner",
          "type": "address"
        },
        {
          "internalType": "string",
          "name": "_password",
          "type": "string"
        }
      ],
      "name": "checkIIG",
      "outputs": [
        {
          "internalType": "uint256",
          "name": "x",
          "type": "uint256"
        }
      ],
      "stateMutability": "view",
      "type": "function"
    },
    {
      "inputs": [
        {
          "internalType": "address",
          "name": "_iigOwner",
          "type": "address"
        }
      ],
      "name": "checkExistIIG",
      "outputs": [
        {
          "internalType": "uint256",
          "name": "x",
          "type": "uint256"
        }
      ],
      "stateMutability": "view",
      "type": "function"
    },
    {
      "inputs": [
        {
          "internalType": "address",
          "name": "_studentOwner",
          "type": "address"
        },
        {
          "internalType": "address",
          "name": "_iigOwner",
          "type": "address"
        },
        {
          "internalType": "string",
          "name": "_identityCard",
          "type": "string"
        }
      ],
      "name": "addRequest",
      "outputs": [],
      "stateMutability": "nonpayable",
      "type": "function"
    },
    {
      "inputs": [
        {
          "internalType": "address",
          "name": "_iigOwner",
          "type": "address"
        }
      ],
      "name": "getListRequest",
      "outputs": [
        {
          "internalType": "address[]",
          "name": "",
          "type": "address[]"
        },
        {
          "internalType": "address[]",
          "name": "",
          "type": "address[]"
        },
        {
          "internalType": "string[]",
          "name": "",
          "type": "string[]"
        },
        {
          "internalType": "string[]",
          "name": "",
          "type": "string[]"
        }
      ],
      "stateMutability": "view",
      "type": "function"
    },
    {
      "inputs": [
        {
          "internalType": "address",
          "name": "_studentOwner",
          "type": "address"
        },
        {
          "internalType": "address",
          "name": "_iigOwner",
          "type": "address"
        },
        {
          "internalType": "string",
          "name": "_statusRequest",
          "type": "string"
        }
      ],
      "name": "confirmRequest",
      "outputs": [],
      "stateMutability": "nonpayable",
      "type": "function"
    },
    {
      "inputs": [
        {
          "internalType": "address",
          "name": "_iigOwner",
          "type": "address"
        },
        {
          "internalType": "address",
          "name": "_studentOwner",
          "type": "address"
        },
        {
          "internalType": "string",
          "name": "_testDate",
          "type": "string"
        },
        {
          "internalType": "string",
          "name": "_shiftTest",
          "type": "string"
        },
        {
          "internalType": "string",
          "name": "_expireDate",
          "type": "string"
        },
        {
          "internalType": "uint256",
          "name": "_listeningScore",
          "type": "uint256"
        },
        {
          "internalType": "uint256",
          "name": "_readingScore",
          "type": "uint256"
        }
      ],
      "name": "addLRResult",
      "outputs": [],
      "stateMutability": "nonpayable",
      "type": "function"
    },
    {
      "inputs": [
        {
          "internalType": "address",
          "name": "_iigOwner",
          "type": "address"
        },
        {
          "internalType": "address",
          "name": "_studentOwner",
          "type": "address"
        }
      ],
      "name": "getListLRResult",
      "outputs": [
        {
          "internalType": "string[]",
          "name": "",
          "type": "string[]"
        },
        {
          "internalType": "string[]",
          "name": "",
          "type": "string[]"
        },
        {
          "internalType": "string[]",
          "name": "",
          "type": "string[]"
        },
        {
          "internalType": "uint256[]",
          "name": "",
          "type": "uint256[]"
        },
        {
          "internalType": "uint256[]",
          "name": "",
          "type": "uint256[]"
        },
        {
          "internalType": "uint256[]",
          "name": "",
          "type": "uint256[]"
        }
      ],
      "stateMutability": "view",
      "type": "function"
    },
    {
      "inputs": [
        {
          "internalType": "address",
          "name": "_studentOwner",
          "type": "address"
        },
        {
          "internalType": "string",
          "name": "_testDate",
          "type": "string"
        },
        {
          "internalType": "string",
          "name": "_shiftTest",
          "type": "string"
        }
      ],
      "name": "checkExistLRResult",
      "outputs": [
        {
          "internalType": "uint256",
          "name": "x",
          "type": "uint256"
        }
      ],
      "stateMutability": "view",
      "type": "function"
    },
    {
      "inputs": [
        {
          "internalType": "address",
          "name": "_iigOwner",
          "type": "address"
        },
        {
          "internalType": "address",
          "name": "_studentOwner",
          "type": "address"
        },
        {
          "internalType": "string",
          "name": "_testDate",
          "type": "string"
        },
        {
          "internalType": "string",
          "name": "_shiftTest",
          "type": "string"
        },
        {
          "internalType": "string",
          "name": "_expireDate",
          "type": "string"
        },
        {
          "internalType": "uint256",
          "name": "_speakingScore",
          "type": "uint256"
        },
        {
          "internalType": "uint256",
          "name": "_writingScore",
          "type": "uint256"
        }
      ],
      "name": "addSWResult",
      "outputs": [],
      "stateMutability": "nonpayable",
      "type": "function"
    },
    {
      "inputs": [
        {
          "internalType": "address",
          "name": "_iigOwner",
          "type": "address"
        },
        {
          "internalType": "address",
          "name": "_studentOwner",
          "type": "address"
        }
      ],
      "name": "getListSWResult",
      "outputs": [
        {
          "internalType": "string[]",
          "name": "",
          "type": "string[]"
        },
        {
          "internalType": "string[]",
          "name": "",
          "type": "string[]"
        },
        {
          "internalType": "string[]",
          "name": "",
          "type": "string[]"
        },
        {
          "internalType": "uint256[]",
          "name": "",
          "type": "uint256[]"
        },
        {
          "internalType": "uint256[]",
          "name": "",
          "type": "uint256[]"
        },
        {
          "internalType": "uint256[]",
          "name": "",
          "type": "uint256[]"
        }
      ],
      "stateMutability": "view",
      "type": "function"
    },
    {
      "inputs": [
        {
          "internalType": "address",
          "name": "_studentOwner",
          "type": "address"
        },
        {
          "internalType": "string",
          "name": "_testDate",
          "type": "string"
        },
        {
          "internalType": "string",
          "name": "_shiftTest",
          "type": "string"
        }
      ],
      "name": "checkExistSWResult",
      "outputs": [
        {
          "internalType": "uint256",
          "name": "x",
          "type": "uint256"
        }
      ],
      "stateMutability": "view",
      "type": "function"
    }
  ],
  "bytecode": "0x608060405234801561001057600080fd5b50614dba806100206000396000f3fe608060405234801561001057600080fd5b50600436106101205760003560e01c80636cf871df116100ad578063a9846eb011610071578063a9846eb01461039a578063ba82e860146103d1578063bc72af7d146103ed578063d23a4ee114610422578063dd8f3edc1461043e57610120565b80636cf871df146102db5780637829b41e146102f757806381d8b62c1461032757806384ae9131146103435780639fa7247a1461036757610120565b80630f53a470116100f45780630f53a470146101dc57806324e6603714610211578063323cc7c51461024157806344fd6e221461027457806349f47a55146102a457610120565b8062220cf7146101255780630265275c1461014157806306ed1e891461017157806309bef62a146101a6575b600080fd5b61013f600480360381019061013a9190613d9f565b61045a565b005b61015b60048036038101906101569190613e95565b6106a8565b6040516101689190613f2f565b60405180910390f35b61018b60048036038101906101869190613f4a565b6107f2565b60405161019d96959493929190614192565b60405180910390f35b6101c060048036038101906101bb919061421d565b610e65565b6040516101d397969594939291906142a3565b60405180910390f35b6101f660048036038101906101f1919061433c565b611207565b60405161020896959493929190614369565b60405180910390f35b61022b600480360381019061022691906143ed565b611685565b6040516102389190613f2f565b60405180910390f35b61025b6004803603810190610256919061421d565b611783565b60405161026b9493929190614449565b60405180910390f35b61028e6004803603810190610289919061433c565b611913565b60405161029b9190613f2f565b60405180910390f35b6102be60048036038101906102b9919061421d565b6119c5565b6040516102d298979695949392919061449c565b60405180910390f35b6102f560048036038101906102f0919061452f565b611bf5565b005b610311600480360381019061030c9190613e95565b611dbd565b60405161031e9190613f2f565b60405180910390f35b610341600480360381019061033c9190614648565b611f07565b005b61034b612060565b60405161035e9796959493929190614775565b60405180910390f35b610381600480360381019061037c919061433c565b612864565b6040516103919493929190614815565b60405180910390f35b6103b460048036038101906103af919061421d565b612d2f565b6040516103c898979695949392919061449c565b60405180910390f35b6103eb60048036038101906103e69190614648565b612f5f565b005b61040760048036038101906104029190613f4a565b6130db565b60405161041996959493929190614192565b60405180910390f35b61043c60048036038101906104379190613d9f565b61374e565b005b61045860048036038101906104539190614876565b61399a565b005b6000821015801561046d57506101ef8211155b6104ac576040517f08c379a00000000000000000000000000000000000000000000000000000000081526004016104a390614a0c565b60405180910390fd5b600081101580156104bf57506101ef8111155b6104fe576040517f08c379a00000000000000000000000000000000000000000000000000000000081526004016104f590614a78565b60405180910390fd5b60026040518061010001604052808973ffffffffffffffffffffffffffffffffffffffff1681526020018873ffffffffffffffffffffffffffffffffffffffff168152602001878152602001868152602001858152602001848152602001838152602001838561056e9190614ac7565b815250908060018154018082558091505060019003906000526020600020906008020160009091909190915060008201518160000160006101000a81548173ffffffffffffffffffffffffffffffffffffffff021916908373ffffffffffffffffffffffffffffffffffffffff16021790555060208201518160010160006101000a81548173ffffffffffffffffffffffffffffffffffffffff021916908373ffffffffffffffffffffffffffffffffffffffff1602179055506040820151816002019080519060200190610644929190613b0e565b506060820151816003019080519060200190610661929190613b0e565b50608082015181600401908051906020019061067e929190613b0e565b5060a0820151816005015560c0820151816006015560e08201518160070155505050505050505050565b600080600090505b6002805490508110156107e9578473ffffffffffffffffffffffffffffffffffffffff16600282815481106106e8576106e7614b1d565b5b906000526020600020906008020160010160009054906101000a900473ffffffffffffffffffffffffffffffffffffffff1673ffffffffffffffffffffffffffffffffffffffff1614801561077c575083805190602001206002828154811061075457610753614b1d565b5b90600052602060002090600802016002016040516107729190614c4c565b6040518091039020145b80156107c7575082805190602001206002828154811061079f5761079e614b1d565b5b90600052602060002090600802016003016040516107bd9190614c4c565b6040518091039020145b156107d65760019150506107eb565b80806107e190614c63565b9150506106b0565b505b9392505050565b606080606080606080600060038054905067ffffffffffffffff81111561081c5761081b613c3e565b5b60405190808252806020026020018201604052801561084f57816020015b606081526020019060019003908161083a5790505b509050600060038054905067ffffffffffffffff81111561087357610872613c3e565b5b6040519080825280602002602001820160405280156108a657816020015b60608152602001906001900390816108915790505b509050600060038054905067ffffffffffffffff8111156108ca576108c9613c3e565b5b6040519080825280602002602001820160405280156108fd57816020015b60608152602001906001900390816108e85790505b509050600060038054905067ffffffffffffffff81111561092157610920613c3e565b5b60405190808252806020026020018201604052801561094f5781602001602082028036833780820191505090505b509050600060038054905067ffffffffffffffff81111561097357610972613c3e565b5b6040519080825280602002602001820160405280156109a15781602001602082028036833780820191505090505b509050600060038054905067ffffffffffffffff8111156109c5576109c4613c3e565b5b6040519080825280602002602001820160405280156109f35781602001602082028036833780820191505090505b50905060005b600380549050811015610e42578e73ffffffffffffffffffffffffffffffffffffffff1660028281548110610a3157610a30614b1d565b5b906000526020600020906008020160000160009054906101000a900473ffffffffffffffffffffffffffffffffffffffff1673ffffffffffffffffffffffffffffffffffffffff16148015610af657508d73ffffffffffffffffffffffffffffffffffffffff1660028281548110610aac57610aab614b1d565b5b906000526020600020906008020160010160009054906101000a900473ffffffffffffffffffffffffffffffffffffffff1673ffffffffffffffffffffffffffffffffffffffff16145b15610e2f5760038181548110610b0f57610b0e614b1d565b5b90600052602060002090600802016002018054610b2b90614b7b565b80601f0160208091040260200160405190810160405280929190818152602001828054610b5790614b7b565b8015610ba45780601f10610b7957610100808354040283529160200191610ba4565b820191906000526020600020905b815481529060010190602001808311610b8757829003601f168201915b5050505050878281518110610bbc57610bbb614b1d565b5b602002602001018190525060038181548110610bdb57610bda614b1d565b5b90600052602060002090600802016003018054610bf790614b7b565b80601f0160208091040260200160405190810160405280929190818152602001828054610c2390614b7b565b8015610c705780601f10610c4557610100808354040283529160200191610c70565b820191906000526020600020905b815481529060010190602001808311610c5357829003601f168201915b5050505050868281518110610c8857610c87614b1d565b5b602002602001018190525060038181548110610ca757610ca6614b1d565b5b90600052602060002090600802016004018054610cc390614b7b565b80601f0160208091040260200160405190810160405280929190818152602001828054610cef90614b7b565b8015610d3c5780601f10610d1157610100808354040283529160200191610d3c565b820191906000526020600020905b815481529060010190602001808311610d1f57829003601f168201915b5050505050858281518110610d5457610d53614b1d565b5b602002602001018190525060038181548110610d7357610d72614b1d565b5b906000526020600020906008020160050154848281518110610d9857610d97614b1d565b5b60200260200101818152505060038181548110610db857610db7614b1d565b5b906000526020600020906008020160060154838281518110610ddd57610ddc614b1d565b5b60200260200101818152505060038181548110610dfd57610dfc614b1d565b5b906000526020600020906008020160070154828281518110610e2257610e21614b1d565b5b6020026020010181815250505b8080610e3a90614c63565b9150506109f9565b508585858585859b509b509b509b509b509b505050505050509295509295509295565b60008181548110610e7557600080fd5b90600052602060002090600702016000915090508060000160009054906101000a900473ffffffffffffffffffffffffffffffffffffffff1690806001018054610ebe90614b7b565b80601f0160208091040260200160405190810160405280929190818152602001828054610eea90614b7b565b8015610f375780601f10610f0c57610100808354040283529160200191610f37565b820191906000526020600020905b815481529060010190602001808311610f1a57829003601f168201915b505050505090806002018054610f4c90614b7b565b80601f0160208091040260200160405190810160405280929190818152602001828054610f7890614b7b565b8015610fc55780601f10610f9a57610100808354040283529160200191610fc5565b820191906000526020600020905b815481529060010190602001808311610fa857829003601f168201915b505050505090806003018054610fda90614b7b565b80601f016020809104026020016040519081016040528092919081815260200182805461100690614b7b565b80156110535780601f1061102857610100808354040283529160200191611053565b820191906000526020600020905b81548152906001019060200180831161103657829003601f168201915b50505050509080600401805461106890614b7b565b80601f016020809104026020016040519081016040528092919081815260200182805461109490614b7b565b80156110e15780601f106110b6576101008083540402835291602001916110e1565b820191906000526020600020905b8154815290600101906020018083116110c457829003601f168201915b5050505050908060050180546110f690614b7b565b80601f016020809104026020016040519081016040528092919081815260200182805461112290614b7b565b801561116f5780601f106111445761010080835404028352916020019161116f565b820191906000526020600020905b81548152906001019060200180831161115257829003601f168201915b50505050509080600601805461118490614b7b565b80601f01602080910402602001604051908101604052809291908181526020018280546111b090614b7b565b80156111fd5780601f106111d2576101008083540402835291602001916111fd565b820191906000526020600020905b8154815290600101906020018083116111e057829003601f168201915b5050505050905087565b6000606080606080606060005b60008054905081101561167a578773ffffffffffffffffffffffffffffffffffffffff166000828154811061124c5761124b614b1d565b5b906000526020600020906007020160000160009054906101000a900473ffffffffffffffffffffffffffffffffffffffff1673ffffffffffffffffffffffffffffffffffffffff16141561166757600081815481106112ae576112ad614b1d565b5b906000526020600020906007020160000160009054906101000a900473ffffffffffffffffffffffffffffffffffffffff16600082815481106112f4576112f3614b1d565b5b90600052602060002090600702016001016000838154811061131957611318614b1d565b5b90600052602060002090600702016002016000848154811061133e5761133d614b1d565b5b90600052602060002090600702016003016000858154811061136357611362614b1d565b5b90600052602060002090600702016004016000868154811061138857611387614b1d565b5b90600052602060002090600702016005018480546113a590614b7b565b80601f01602080910402602001604051908101604052809291908181526020018280546113d190614b7b565b801561141e5780601f106113f35761010080835404028352916020019161141e565b820191906000526020600020905b81548152906001019060200180831161140157829003601f168201915b5050505050945083805461143190614b7b565b80601f016020809104026020016040519081016040528092919081815260200182805461145d90614b7b565b80156114aa5780601f1061147f576101008083540402835291602001916114aa565b820191906000526020600020905b81548152906001019060200180831161148d57829003601f168201915b505050505093508280546114bd90614b7b565b80601f01602080910402602001604051908101604052809291908181526020018280546114e990614b7b565b80156115365780601f1061150b57610100808354040283529160200191611536565b820191906000526020600020905b81548152906001019060200180831161151957829003601f168201915b5050505050925081805461154990614b7b565b80601f016020809104026020016040519081016040528092919081815260200182805461157590614b7b565b80156115c25780601f10611597576101008083540402835291602001916115c2565b820191906000526020600020905b8154815290600101906020018083116115a557829003601f168201915b505050505091508080546115d590614b7b565b80601f016020809104026020016040519081016040528092919081815260200182805461160190614b7b565b801561164e5780601f106116235761010080835404028352916020019161164e565b820191906000526020600020905b81548152906001019060200180831161163157829003601f168201915b505050505090509650965096509650965096505061167c565b808061167290614c63565b915050611214565b505b91939550919395565b600080600090505b60008054905081101561177b578373ffffffffffffffffffffffffffffffffffffffff16600082815481106116c5576116c4614b1d565b5b906000526020600020906007020160000160009054906101000a900473ffffffffffffffffffffffffffffffffffffffff1673ffffffffffffffffffffffffffffffffffffffff16148015611759575082805190602001206000828154811061173157611730614b1d565b5b906000526020600020906007020160060160405161174f9190614c4c565b6040518091039020145b1561176857600191505061177d565b808061177390614c63565b91505061168d565b505b92915050565b6001818154811061179357600080fd5b90600052602060002090600402016000915090508060000160009054906101000a900473ffffffffffffffffffffffffffffffffffffffff16908060010160009054906101000a900473ffffffffffffffffffffffffffffffffffffffff169080600201805461180290614b7b565b80601f016020809104026020016040519081016040528092919081815260200182805461182e90614b7b565b801561187b5780601f106118505761010080835404028352916020019161187b565b820191906000526020600020905b81548152906001019060200180831161185e57829003601f168201915b50505050509080600301805461189090614b7b565b80601f01602080910402602001604051908101604052809291908181526020018280546118bc90614b7b565b80156119095780601f106118de57610100808354040283529160200191611909565b820191906000526020600020905b8154815290600101906020018083116118ec57829003601f168201915b5050505050905084565b600080600090505b6000805490508110156119be578273ffffffffffffffffffffffffffffffffffffffff166000828154811061195357611952614b1d565b5b906000526020600020906007020160000160009054906101000a900473ffffffffffffffffffffffffffffffffffffffff1673ffffffffffffffffffffffffffffffffffffffff1614156119ab5760019150506119c0565b80806119b690614c63565b91505061191b565b505b919050565b600381815481106119d557600080fd5b90600052602060002090600802016000915090508060000160009054906101000a900473ffffffffffffffffffffffffffffffffffffffff16908060010160009054906101000a900473ffffffffffffffffffffffffffffffffffffffff1690806002018054611a4490614b7b565b80601f0160208091040260200160405190810160405280929190818152602001828054611a7090614b7b565b8015611abd5780601f10611a9257610100808354040283529160200191611abd565b820191906000526020600020905b815481529060010190602001808311611aa057829003601f168201915b505050505090806003018054611ad290614b7b565b80601f0160208091040260200160405190810160405280929190818152602001828054611afe90614b7b565b8015611b4b5780601f10611b2057610100808354040283529160200191611b4b565b820191906000526020600020905b815481529060010190602001808311611b2e57829003601f168201915b505050505090806004018054611b6090614b7b565b80601f0160208091040260200160405190810160405280929190818152602001828054611b8c90614b7b565b8015611bd95780601f10611bae57610100808354040283529160200191611bd9565b820191906000526020600020905b815481529060010190602001808311611bbc57829003601f168201915b5050505050908060050154908060060154908060070154905088565b60005b600080549050811015611db4578673ffffffffffffffffffffffffffffffffffffffff1660008281548110611c3057611c2f614b1d565b5b906000526020600020906007020160000160009054906101000a900473ffffffffffffffffffffffffffffffffffffffff1673ffffffffffffffffffffffffffffffffffffffff161415611da1578560008281548110611c9357611c92614b1d565b5b90600052602060002090600702016001019080519060200190611cb7929190613b0e565b508460008281548110611ccd57611ccc614b1d565b5b90600052602060002090600702016002019080519060200190611cf1929190613b0e565b508360008281548110611d0757611d06614b1d565b5b90600052602060002090600702016003019080519060200190611d2b929190613b0e565b508260008281548110611d4157611d40614b1d565b5b90600052602060002090600702016004019080519060200190611d65929190613b0e565b508160008281548110611d7b57611d7a614b1d565b5b90600052602060002090600702016005019080519060200190611d9f929190613b0e565b505b8080611dac90614c63565b915050611bf8565b50505050505050565b600080600090505b600380549050811015611efe578473ffffffffffffffffffffffffffffffffffffffff1660028281548110611dfd57611dfc614b1d565b5b906000526020600020906008020160010160009054906101000a900473ffffffffffffffffffffffffffffffffffffffff1673ffffffffffffffffffffffffffffffffffffffff16148015611e915750838051906020012060028281548110611e6957611e68614b1d565b5b9060005260206000209060080201600201604051611e879190614c4c565b6040518091039020145b8015611edc5750828051906020012060028281548110611eb457611eb3614b1d565b5b9060005260206000209060080201600301604051611ed29190614c4c565b6040518091039020145b15611eeb576001915050611f00565b8080611ef690614c63565b915050611dc5565b505b9392505050565b60005b60018054905081101561205a578373ffffffffffffffffffffffffffffffffffffffff1660018281548110611f4257611f41614b1d565b5b906000526020600020906004020160000160009054906101000a900473ffffffffffffffffffffffffffffffffffffffff1673ffffffffffffffffffffffffffffffffffffffff1614801561200757508273ffffffffffffffffffffffffffffffffffffffff1660018281548110611fbd57611fbc614b1d565b5b906000526020600020906004020160010160009054906101000a900473ffffffffffffffffffffffffffffffffffffffff1673ffffffffffffffffffffffffffffffffffffffff16145b1561204757816001828154811061202157612020614b1d565b5b90600052602060002090600402016003019080519060200190612045929190613b0e565b505b808061205290614c63565b915050611f0a565b50505050565b60608060608060608060606000808054905067ffffffffffffffff81111561208b5761208a613c3e565b5b6040519080825280602002602001820160405280156120b95781602001602082028036833780820191505090505b5090506000808054905067ffffffffffffffff8111156120dc576120db613c3e565b5b60405190808252806020026020018201604052801561210f57816020015b60608152602001906001900390816120fa5790505b5090506000808054905067ffffffffffffffff81111561213257612131613c3e565b5b60405190808252806020026020018201604052801561216557816020015b60608152602001906001900390816121505790505b5090506000808054905067ffffffffffffffff81111561218857612187613c3e565b5b6040519080825280602002602001820160405280156121bb57816020015b60608152602001906001900390816121a65790505b5090506000808054905067ffffffffffffffff8111156121de576121dd613c3e565b5b60405190808252806020026020018201604052801561221157816020015b60608152602001906001900390816121fc5790505b5090506000808054905067ffffffffffffffff81111561223457612233613c3e565b5b60405190808252806020026020018201604052801561226757816020015b60608152602001906001900390816122525790505b5090506000808054905067ffffffffffffffff81111561228a57612289613c3e565b5b6040519080825280602002602001820160405280156122bd57816020015b60608152602001906001900390816122a85790505b50905060005b60008054905081101561283e57600081815481106122e4576122e3614b1d565b5b906000526020600020906007020160000160009054906101000a900473ffffffffffffffffffffffffffffffffffffffff1688828151811061232957612328614b1d565b5b602002602001019073ffffffffffffffffffffffffffffffffffffffff16908173ffffffffffffffffffffffffffffffffffffffff16815250506000818154811061237757612376614b1d565b5b9060005260206000209060070201600101805461239390614b7b565b80601f01602080910402602001604051908101604052809291908181526020018280546123bf90614b7b565b801561240c5780601f106123e15761010080835404028352916020019161240c565b820191906000526020600020905b8154815290600101906020018083116123ef57829003601f168201915b505050505087828151811061242457612423614b1d565b5b60200260200101819052506000818154811061244357612442614b1d565b5b9060005260206000209060070201600201805461245f90614b7b565b80601f016020809104026020016040519081016040528092919081815260200182805461248b90614b7b565b80156124d85780601f106124ad576101008083540402835291602001916124d8565b820191906000526020600020905b8154815290600101906020018083116124bb57829003601f168201915b50505050508682815181106124f0576124ef614b1d565b5b60200260200101819052506000818154811061250f5761250e614b1d565b5b9060005260206000209060070201600301805461252b90614b7b565b80601f016020809104026020016040519081016040528092919081815260200182805461255790614b7b565b80156125a45780601f10612579576101008083540402835291602001916125a4565b820191906000526020600020905b81548152906001019060200180831161258757829003601f168201915b50505050508582815181106125bc576125bb614b1d565b5b6020026020010181905250600081815481106125db576125da614b1d565b5b906000526020600020906007020160040180546125f790614b7b565b80601f016020809104026020016040519081016040528092919081815260200182805461262390614b7b565b80156126705780601f1061264557610100808354040283529160200191612670565b820191906000526020600020905b81548152906001019060200180831161265357829003601f168201915b505050505084828151811061268857612687614b1d565b5b6020026020010181905250600081815481106126a7576126a6614b1d565b5b906000526020600020906007020160050180546126c390614b7b565b80601f01602080910402602001604051908101604052809291908181526020018280546126ef90614b7b565b801561273c5780601f106127115761010080835404028352916020019161273c565b820191906000526020600020905b81548152906001019060200180831161271f57829003601f168201915b505050505083828151811061275457612753614b1d565b5b60200260200101819052506000818154811061277357612772614b1d565b5b9060005260206000209060070201600601805461278f90614b7b565b80601f01602080910402602001604051908101604052809291908181526020018280546127bb90614b7b565b80156128085780601f106127dd57610100808354040283529160200191612808565b820191906000526020600020905b8154815290600101906020018083116127eb57829003601f168201915b50505050508282815181106128205761281f614b1d565b5b6020026020010181905250808061283690614c63565b9150506122c3565b50868686868686869d509d509d509d509d509d509d505050505050505090919293949596565b606080606080600060018054905067ffffffffffffffff81111561288b5761288a613c3e565b5b6040519080825280602002602001820160405280156128b95781602001602082028036833780820191505090505b509050600060018054905067ffffffffffffffff8111156128dd576128dc613c3e565b5b60405190808252806020026020018201604052801561290b5781602001602082028036833780820191505090505b509050600060018054905067ffffffffffffffff81111561292f5761292e613c3e565b5b60405190808252806020026020018201604052801561296257816020015b606081526020019060019003908161294d5790505b509050600060018054905067ffffffffffffffff81111561298657612985613c3e565b5b6040519080825280602002602001820160405280156129b957816020015b60608152602001906001900390816129a45790505b50905060005b600180549050811015612d17578973ffffffffffffffffffffffffffffffffffffffff16600182815481106129f7576129f6614b1d565b5b906000526020600020906004020160010160009054906101000a900473ffffffffffffffffffffffffffffffffffffffff1673ffffffffffffffffffffffffffffffffffffffff161415612d045760018181548110612a5957612a58614b1d565b5b906000526020600020906004020160000160009054906101000a900473ffffffffffffffffffffffffffffffffffffffff16858281518110612a9e57612a9d614b1d565b5b602002602001019073ffffffffffffffffffffffffffffffffffffffff16908173ffffffffffffffffffffffffffffffffffffffff168152505060018181548110612aec57612aeb614b1d565b5b906000526020600020906004020160010160009054906101000a900473ffffffffffffffffffffffffffffffffffffffff16848281518110612b3157612b30614b1d565b5b602002602001019073ffffffffffffffffffffffffffffffffffffffff16908173ffffffffffffffffffffffffffffffffffffffff168152505060018181548110612b7f57612b7e614b1d565b5b90600052602060002090600402016002018054612b9b90614b7b565b80601f0160208091040260200160405190810160405280929190818152602001828054612bc790614b7b565b8015612c145780601f10612be957610100808354040283529160200191612c14565b820191906000526020600020905b815481529060010190602001808311612bf757829003601f168201915b5050505050838281518110612c2c57612c2b614b1d565b5b602002602001018190525060018181548110612c4b57612c4a614b1d565b5b90600052602060002090600402016003018054612c6790614b7b565b80601f0160208091040260200160405190810160405280929190818152602001828054612c9390614b7b565b8015612ce05780601f10612cb557610100808354040283529160200191612ce0565b820191906000526020600020905b815481529060010190602001808311612cc357829003601f168201915b5050505050828281518110612cf857612cf7614b1d565b5b60200260200101819052505b8080612d0f90614c63565b9150506129bf565b50838383839750975097509750505050509193509193565b60028181548110612d3f57600080fd5b90600052602060002090600802016000915090508060000160009054906101000a900473ffffffffffffffffffffffffffffffffffffffff16908060010160009054906101000a900473ffffffffffffffffffffffffffffffffffffffff1690806002018054612dae90614b7b565b80601f0160208091040260200160405190810160405280929190818152602001828054612dda90614b7b565b8015612e275780601f10612dfc57610100808354040283529160200191612e27565b820191906000526020600020905b815481529060010190602001808311612e0a57829003601f168201915b505050505090806003018054612e3c90614b7b565b80601f0160208091040260200160405190810160405280929190818152602001828054612e6890614b7b565b8015612eb55780601f10612e8a57610100808354040283529160200191612eb5565b820191906000526020600020905b815481529060010190602001808311612e9857829003601f168201915b505050505090806004018054612eca90614b7b565b80601f0160208091040260200160405190810160405280929190818152602001828054612ef690614b7b565b8015612f435780601f10612f1857610100808354040283529160200191612f43565b820191906000526020600020905b815481529060010190602001808311612f2657829003601f168201915b5050505050908060050154908060060154908060070154905088565b600160405180608001604052808573ffffffffffffffffffffffffffffffffffffffff1681526020018473ffffffffffffffffffffffffffffffffffffffff1681526020018381526020016040518060400160405280600781526020017f57616974696e6700000000000000000000000000000000000000000000000000815250815250908060018154018082558091505060019003906000526020600020906004020160009091909190915060008201518160000160006101000a81548173ffffffffffffffffffffffffffffffffffffffff021916908373ffffffffffffffffffffffffffffffffffffffff16021790555060208201518160010160006101000a81548173ffffffffffffffffffffffffffffffffffffffff021916908373ffffffffffffffffffffffffffffffffffffffff16021790555060408201518160020190805190602001906130b6929190613b0e565b5060608201518160030190805190602001906130d3929190613b0e565b505050505050565b606080606080606080600060028054905067ffffffffffffffff81111561310557613104613c3e565b5b60405190808252806020026020018201604052801561313857816020015b60608152602001906001900390816131235790505b509050600060028054905067ffffffffffffffff81111561315c5761315b613c3e565b5b60405190808252806020026020018201604052801561318f57816020015b606081526020019060019003908161317a5790505b509050600060028054905067ffffffffffffffff8111156131b3576131b2613c3e565b5b6040519080825280602002602001820160405280156131e657816020015b60608152602001906001900390816131d15790505b509050600060028054905067ffffffffffffffff81111561320a57613209613c3e565b5b6040519080825280602002602001820160405280156132385781602001602082028036833780820191505090505b509050600060028054905067ffffffffffffffff81111561325c5761325b613c3e565b5b60405190808252806020026020018201604052801561328a5781602001602082028036833780820191505090505b509050600060028054905067ffffffffffffffff8111156132ae576132ad613c3e565b5b6040519080825280602002602001820160405280156132dc5781602001602082028036833780820191505090505b50905060005b60028054905081101561372b578e73ffffffffffffffffffffffffffffffffffffffff166002828154811061331a57613319614b1d565b5b906000526020600020906008020160000160009054906101000a900473ffffffffffffffffffffffffffffffffffffffff1673ffffffffffffffffffffffffffffffffffffffff161480156133df57508d73ffffffffffffffffffffffffffffffffffffffff166002828154811061339557613394614b1d565b5b906000526020600020906008020160010160009054906101000a900473ffffffffffffffffffffffffffffffffffffffff1673ffffffffffffffffffffffffffffffffffffffff16145b1561371857600281815481106133f8576133f7614b1d565b5b9060005260206000209060080201600201805461341490614b7b565b80601f016020809104026020016040519081016040528092919081815260200182805461344090614b7b565b801561348d5780601f106134625761010080835404028352916020019161348d565b820191906000526020600020905b81548152906001019060200180831161347057829003601f168201915b50505050508782815181106134a5576134a4614b1d565b5b6020026020010181905250600281815481106134c4576134c3614b1d565b5b906000526020600020906008020160030180546134e090614b7b565b80601f016020809104026020016040519081016040528092919081815260200182805461350c90614b7b565b80156135595780601f1061352e57610100808354040283529160200191613559565b820191906000526020600020905b81548152906001019060200180831161353c57829003601f168201915b505050505086828151811061357157613570614b1d565b5b6020026020010181905250600281815481106135905761358f614b1d565b5b906000526020600020906008020160040180546135ac90614b7b565b80601f01602080910402602001604051908101604052809291908181526020018280546135d890614b7b565b80156136255780601f106135fa57610100808354040283529160200191613625565b820191906000526020600020905b81548152906001019060200180831161360857829003601f168201915b505050505085828151811061363d5761363c614b1d565b5b60200260200101819052506002818154811061365c5761365b614b1d565b5b90600052602060002090600802016005015484828151811061368157613680614b1d565b5b602002602001018181525050600281815481106136a1576136a0614b1d565b5b9060005260206000209060080201600601548382815181106136c6576136c5614b1d565b5b602002602001018181525050600281815481106136e6576136e5614b1d565b5b90600052602060002090600802016007015482828151811061370b5761370a614b1d565b5b6020026020010181815250505b808061372390614c63565b9150506132e2565b508585858585859b509b509b509b509b509b505050505050509295509295509295565b60008210158015613760575060c88211155b61379f576040517f08c379a000000000000000000000000000000000000000000000000000000000815260040161379690614cf8565b60405180910390fd5b600081101580156137b1575060c88111155b6137f0576040517f08c379a00000000000000000000000000000000000000000000000000000000081526004016137e790614d64565b60405180910390fd5b60036040518061010001604052808973ffffffffffffffffffffffffffffffffffffffff1681526020018873ffffffffffffffffffffffffffffffffffffffff16815260200187815260200186815260200185815260200184815260200183815260200183856138609190614ac7565b815250908060018154018082558091505060019003906000526020600020906008020160009091909190915060008201518160000160006101000a81548173ffffffffffffffffffffffffffffffffffffffff021916908373ffffffffffffffffffffffffffffffffffffffff16021790555060208201518160010160006101000a81548173ffffffffffffffffffffffffffffffffffffffff021916908373ffffffffffffffffffffffffffffffffffffffff1602179055506040820151816002019080519060200190613936929190613b0e565b506060820151816003019080519060200190613953929190613b0e565b506080820151816004019080519060200190613970929190613b0e565b5060a0820151816005015560c0820151816006015560e08201518160070155505050505050505050565b60006040518060e001604052808973ffffffffffffffffffffffffffffffffffffffff16815260200188815260200187815260200186815260200185815260200184815260200183815250908060018154018082558091505060019003906000526020600020906007020160009091909190915060008201518160000160006101000a81548173ffffffffffffffffffffffffffffffffffffffff021916908373ffffffffffffffffffffffffffffffffffffffff1602179055506020820151816001019080519060200190613a71929190613b0e565b506040820151816002019080519060200190613a8e929190613b0e565b506060820151816003019080519060200190613aab929190613b0e565b506080820151816004019080519060200190613ac8929190613b0e565b5060a0820151816005019080519060200190613ae5929190613b0e565b5060c0820151816006019080519060200190613b02929190613b0e565b50505050505050505050565b828054613b1a90614b7b565b90600052602060002090601f016020900481019282613b3c5760008555613b83565b82601f10613b5557805160ff1916838001178555613b83565b82800160010185558215613b83579182015b82811115613b82578251825591602001919060010190613b67565b5b509050613b909190613b94565b5090565b5b80821115613bad576000816000905550600101613b95565b5090565b6000604051905090565b600080fd5b600080fd5b600073ffffffffffffffffffffffffffffffffffffffff82169050919050565b6000613bf082613bc5565b9050919050565b613c0081613be5565b8114613c0b57600080fd5b50565b600081359050613c1d81613bf7565b92915050565b600080fd5b600080fd5b6000601f19601f8301169050919050565b7f4e487b7100000000000000000000000000000000000000000000000000000000600052604160045260246000fd5b613c7682613c2d565b810181811067ffffffffffffffff82111715613c9557613c94613c3e565b5b80604052505050565b6000613ca8613bb1565b9050613cb48282613c6d565b919050565b600067ffffffffffffffff821115613cd457613cd3613c3e565b5b613cdd82613c2d565b9050602081019050919050565b82818337600083830152505050565b6000613d0c613d0784613cb9565b613c9e565b905082815260208101848484011115613d2857613d27613c28565b5b613d33848285613cea565b509392505050565b600082601f830112613d5057613d4f613c23565b5b8135613d60848260208601613cf9565b91505092915050565b6000819050919050565b613d7c81613d69565b8114613d8757600080fd5b50565b600081359050613d9981613d73565b92915050565b600080600080600080600060e0888a031215613dbe57613dbd613bbb565b5b6000613dcc8a828b01613c0e565b9750506020613ddd8a828b01613c0e565b965050604088013567ffffffffffffffff811115613dfe57613dfd613bc0565b5b613e0a8a828b01613d3b565b955050606088013567ffffffffffffffff811115613e2b57613e2a613bc0565b5b613e378a828b01613d3b565b945050608088013567ffffffffffffffff811115613e5857613e57613bc0565b5b613e648a828b01613d3b565b93505060a0613e758a828b01613d8a565b92505060c0613e868a828b01613d8a565b91505092959891949750929550565b600080600060608486031215613eae57613ead613bbb565b5b6000613ebc86828701613c0e565b935050602084013567ffffffffffffffff811115613edd57613edc613bc0565b5b613ee986828701613d3b565b925050604084013567ffffffffffffffff811115613f0a57613f09613bc0565b5b613f1686828701613d3b565b9150509250925092565b613f2981613d69565b82525050565b6000602082019050613f446000830184613f20565b92915050565b60008060408385031215613f6157613f60613bbb565b5b6000613f6f85828601613c0e565b9250506020613f8085828601613c0e565b9150509250929050565b600081519050919050565b600082825260208201905092915050565b6000819050602082019050919050565b600081519050919050565b600082825260208201905092915050565b60005b83811015613ff0578082015181840152602081019050613fd5565b83811115613fff576000848401525b50505050565b600061401082613fb6565b61401a8185613fc1565b935061402a818560208601613fd2565b61403381613c2d565b840191505092915050565b600061404a8383614005565b905092915050565b6000602082019050919050565b600061406a82613f8a565b6140748185613f95565b93508360208202850161408685613fa6565b8060005b858110156140c257848403895281516140a3858261403e565b94506140ae83614052565b925060208a0199505060018101905061408a565b50829750879550505050505092915050565b600081519050919050565b600082825260208201905092915050565b6000819050602082019050919050565b61410981613d69565b82525050565b600061411b8383614100565b60208301905092915050565b6000602082019050919050565b600061413f826140d4565b61414981856140df565b9350614154836140f0565b8060005b8381101561418557815161416c888261410f565b975061417783614127565b925050600181019050614158565b5085935050505092915050565b600060c08201905081810360008301526141ac818961405f565b905081810360208301526141c0818861405f565b905081810360408301526141d4818761405f565b905081810360608301526141e88186614134565b905081810360808301526141fc8185614134565b905081810360a08301526142108184614134565b9050979650505050505050565b60006020828403121561423357614232613bbb565b5b600061424184828501613d8a565b91505092915050565b61425381613be5565b82525050565b600082825260208201905092915050565b600061427582613fb6565b61427f8185614259565b935061428f818560208601613fd2565b61429881613c2d565b840191505092915050565b600060e0820190506142b8600083018a61424a565b81810360208301526142ca818961426a565b905081810360408301526142de818861426a565b905081810360608301526142f2818761426a565b90508181036080830152614306818661426a565b905081810360a083015261431a818561426a565b905081810360c083015261432e818461426a565b905098975050505050505050565b60006020828403121561435257614351613bbb565b5b600061436084828501613c0e565b91505092915050565b600060c08201905061437e600083018961424a565b8181036020830152614390818861426a565b905081810360408301526143a4818761426a565b905081810360608301526143b8818661426a565b905081810360808301526143cc818561426a565b905081810360a08301526143e0818461426a565b9050979650505050505050565b6000806040838503121561440457614403613bbb565b5b600061441285828601613c0e565b925050602083013567ffffffffffffffff81111561443357614432613bc0565b5b61443f85828601613d3b565b9150509250929050565b600060808201905061445e600083018761424a565b61446b602083018661424a565b818103604083015261447d818561426a565b90508181036060830152614491818461426a565b905095945050505050565b6000610100820190506144b2600083018b61424a565b6144bf602083018a61424a565b81810360408301526144d1818961426a565b905081810360608301526144e5818861426a565b905081810360808301526144f9818761426a565b905061450860a0830186613f20565b61451560c0830185613f20565b61452260e0830184613f20565b9998505050505050505050565b60008060008060008060c0878903121561454c5761454b613bbb565b5b600061455a89828a01613c0e565b965050602087013567ffffffffffffffff81111561457b5761457a613bc0565b5b61458789828a01613d3b565b955050604087013567ffffffffffffffff8111156145a8576145a7613bc0565b5b6145b489828a01613d3b565b945050606087013567ffffffffffffffff8111156145d5576145d4613bc0565b5b6145e189828a01613d3b565b935050608087013567ffffffffffffffff81111561460257614601613bc0565b5b61460e89828a01613d3b565b92505060a087013567ffffffffffffffff81111561462f5761462e613bc0565b5b61463b89828a01613d3b565b9150509295509295509295565b60008060006060848603121561466157614660613bbb565b5b600061466f86828701613c0e565b935050602061468086828701613c0e565b925050604084013567ffffffffffffffff8111156146a1576146a0613bc0565b5b6146ad86828701613d3b565b9150509250925092565b600081519050919050565b600082825260208201905092915050565b6000819050602082019050919050565b6146ec81613be5565b82525050565b60006146fe83836146e3565b60208301905092915050565b6000602082019050919050565b6000614722826146b7565b61472c81856146c2565b9350614737836146d3565b8060005b8381101561476857815161474f88826146f2565b975061475a8361470a565b92505060018101905061473b565b5085935050505092915050565b600060e082019050818103600083015261478f818a614717565b905081810360208301526147a3818961405f565b905081810360408301526147b7818861405f565b905081810360608301526147cb818761405f565b905081810360808301526147df818661405f565b905081810360a08301526147f3818561405f565b905081810360c0830152614807818461405f565b905098975050505050505050565b6000608082019050818103600083015261482f8187614717565b905081810360208301526148438186614717565b90508181036040830152614857818561405f565b9050818103606083015261486b818461405f565b905095945050505050565b600080600080600080600060e0888a03121561489557614894613bbb565b5b60006148a38a828b01613c0e565b975050602088013567ffffffffffffffff8111156148c4576148c3613bc0565b5b6148d08a828b01613d3b565b965050604088013567ffffffffffffffff8111156148f1576148f0613bc0565b5b6148fd8a828b01613d3b565b955050606088013567ffffffffffffffff81111561491e5761491d613bc0565b5b61492a8a828b01613d3b565b945050608088013567ffffffffffffffff81111561494b5761494a613bc0565b5b6149578a828b01613d3b565b93505060a088013567ffffffffffffffff81111561497857614977613bc0565b5b6149848a828b01613d3b565b92505060c088013567ffffffffffffffff8111156149a5576149a4613bc0565b5b6149b18a828b01613d3b565b91505092959891949750929550565b7f4c697374656e696e672053636f726520696e636f72726563742e000000000000600082015250565b60006149f6601a83614259565b9150614a01826149c0565b602082019050919050565b60006020820190508181036000830152614a25816149e9565b9050919050565b7f52656164696e672053636f726520696e636f72726563742e0000000000000000600082015250565b6000614a62601883614259565b9150614a6d82614a2c565b602082019050919050565b60006020820190508181036000830152614a9181614a55565b9050919050565b7f4e487b7100000000000000000000000000000000000000000000000000000000600052601160045260246000fd5b6000614ad282613d69565b9150614add83613d69565b9250827fffffffffffffffffffffffffffffffffffffffffffffffffffffffffffffffff03821115614b1257614b11614a98565b5b828201905092915050565b7f4e487b7100000000000000000000000000000000000000000000000000000000600052603260045260246000fd5b7f4e487b7100000000000000000000000000000000000000000000000000000000600052602260045260246000fd5b60006002820490506001821680614b9357607f821691505b60208210811415614ba757614ba6614b4c565b5b50919050565b600081905092915050565b60008190508160005260206000209050919050565b60008154614bda81614b7b565b614be48186614bad565b94506001821660008114614bff5760018114614c1057614c43565b60ff19831686528186019350614c43565b614c1985614bb8565b60005b83811015614c3b57815481890152600182019150602081019050614c1c565b838801955050505b50505092915050565b6000614c588284614bcd565b915081905092915050565b6000614c6e82613d69565b91507fffffffffffffffffffffffffffffffffffffffffffffffffffffffffffffffff821415614ca157614ca0614a98565b5b600182019050919050565b7f537065616b696e672053636f726520696e636f72726563742e00000000000000600082015250565b6000614ce2601983614259565b9150614ced82614cac565b602082019050919050565b60006020820190508181036000830152614d1181614cd5565b9050919050565b7f57726974696e672053636f726520696e636f72726563742e0000000000000000600082015250565b6000614d4e601883614259565b9150614d5982614d18565b602082019050919050565b60006020820190508181036000830152614d7d81614d41565b905091905056fea2646970667358221220564ebba3b4668600181f79111eb83645ea0be3ef1c152992031d3aaec3e47dda64736f6c634300080b0033",
  "immutableReferences": {},
  "source": "// SPDX-License-Identifier: MIT\r\npragma solidity >=0.4.22 <0.9.0;\r\n\r\n// Lu tr danh sch IIG\r\ncontract ListIIG {\r\n\r\n    // Khai bo cu trc lu tr thng tin IIG\r\n    struct IIGInfo {\r\n        address iigOwner;\r\n        string name;\r\n        string country;\r\n        string facebook;\r\n        string website;\r\n        string linkedin;\r\n        string password;\r\n    }\r\n\r\n    // Khai bo cu trc lu tr thng tin yu cu chng ch IIG ca sinh vin\r\n    struct IIGRequest {\r\n        address studentOwner;\r\n        address iigOwner;\r\n        string identityCard;\r\n        string statusRequest;\r\n    }\r\n\r\n    // Khai bo cu trc lu tr thng tin im thi Listening - Reading IIG\r\n    struct IIGLRResult {\r\n        address iigOwner;\r\n        address studentOwner;\r\n        string testDate;\r\n        string shiftTest;\r\n        string expireDate;\r\n        uint listeningScore;\r\n        uint readingScore;\r\n        uint totalScore;\r\n    }\r\n\r\n    // Khai bo cu trc lu tr thng tin im thi Speaking - Writing IIG\r\n    struct IIGSWResult {\r\n        address iigOwner;\r\n        address studentOwner;\r\n        string testDate;\r\n        string shiftTest;\r\n        string expireDate;\r\n        uint speakingScore;\r\n        uint writingScore;\r\n        uint totalScore;\r\n    }\r\n\r\n    // Khai bo mng  lu tr thng tin\r\n    IIGInfo[] public iigInfos;\r\n    IIGRequest[] public iigRequests;\r\n    IIGLRResult[] public iigLRResults;\r\n    IIGSWResult[] public iigSWResults;\r\n\r\n    // Chc nng thm thng tin IGG\r\n    function addIIG (\r\n        address _iigOwner,\r\n        string memory _name,\r\n        string memory _country,\r\n        string memory _facebook,\r\n        string memory _website,\r\n        string memory _linkedin,\r\n        string memory _password) public {\r\n            iigInfos.push(\r\n                IIGInfo(_iigOwner, \r\n                        _name, \r\n                        _country, \r\n                        _facebook,\r\n                        _website, \r\n                        _linkedin, \r\n                        _password)\r\n                );\r\n    }\r\n\r\n    // Chc nng chnh sa thng tin IGG\r\n    function editIIG (\r\n        address _iigOwner,\r\n        string memory _name,\r\n        string memory _country,\r\n        string memory _facebook,\r\n        string memory _website,\r\n        string memory _linkedin) public {\r\n            for(uint i=0; i<iigInfos.length;i++){\r\n                if(iigInfos[i].iigOwner == _iigOwner){\r\n                    iigInfos[i].name = _name;\r\n                    iigInfos[i].country = _country;\r\n                    iigInfos[i].facebook = _facebook;\r\n                    iigInfos[i].website = _website;\r\n                    iigInfos[i].linkedin = _linkedin;\r\n                }\r\n            }\r\n    }\r\n\r\n    // Chc nng ly danh sch IIG  thm\r\n    function getListIIG() public view returns(\r\n        address[] memory, \r\n        string[] memory, \r\n        string[] memory, \r\n        string[] memory, \r\n        string[] memory, \r\n        string[] memory, \r\n        string[] memory) {\r\n            address[] memory iigOwners = new address[](iigInfos.length);\r\n            string[] memory names = new string[](iigInfos.length);\r\n            string[] memory countrys = new string[](iigInfos.length);\r\n            string[] memory facebooks = new string[](iigInfos.length);\r\n            string[] memory websites = new string[](iigInfos.length);\r\n            string[] memory linkedins = new string[](iigInfos.length);\r\n            string[] memory passwords = new string[](iigInfos.length);\r\n            for(uint i=0; i<iigInfos.length;i++){\r\n                iigOwners[i] = iigInfos[i].iigOwner;\r\n                names[i] = iigInfos[i].name;\r\n                countrys[i] = iigInfos[i].country;\r\n                facebooks[i] = iigInfos[i].facebook;\r\n                websites[i] = iigInfos[i].website;\r\n                linkedins[i] = iigInfos[i].linkedin;\r\n                passwords[i] = iigInfos[i].password;\r\n            }\r\n            return (iigOwners, names, countrys, facebooks, websites, linkedins, passwords);\r\n    }\r\n\r\n    // Chc nng ly thng tin ca IIG\r\n    function getProfile(address _iigOwner) public view returns(\r\n        address iigOwner, \r\n        string memory name, \r\n        string memory country, \r\n        string memory facebook, \r\n        string memory website, \r\n        string memory linkedin) {\r\n            for(uint i=0; i<iigInfos.length;i++){\r\n                if(iigInfos[i].iigOwner == _iigOwner){\r\n                    return (iigInfos[i].iigOwner,\r\n                            iigInfos[i].name, \r\n                            iigInfos[i].country, \r\n                            iigInfos[i].facebook, \r\n                            iigInfos[i].website, \r\n                            iigInfos[i].linkedin);\r\n                }\r\n            }\r\n    }\r\n\r\n    // Chc nng kim tra IIG  ng k hay cha?\r\n    function checkIIG(\r\n        address _iigOwner, \r\n        string memory _password) public view returns(uint x) {\r\n            for(uint i=0; i<iigInfos.length; i++){\r\n                if((iigInfos[i].iigOwner == _iigOwner) && (keccak256(bytes(iigInfos[i].password)) == keccak256(bytes(_password)))){\r\n                    return 1;\r\n                }\r\n            }\r\n    }\r\n\r\n    // Chc nng kim tra a ch IIG  tn ti hay cha?\r\n    function checkExistIIG(address _iigOwner) public view returns(uint x) {\r\n        for(uint i=0; i<iigInfos.length; i++){\r\n            if(iigInfos[i].iigOwner == _iigOwner){\r\n                return 1;\r\n            }\r\n        }\r\n    }\r\n\r\n    // Chc nng thm thng tin yu cu chng ch IIG\r\n    function addRequest (\r\n        address _studentOwner,\r\n        address _iigOwner,\r\n        string memory _identityCard) public {\r\n            iigRequests.push(\r\n                IIGRequest(_studentOwner, \r\n                        _iigOwner,\r\n                        _identityCard,\r\n                        \"Waiting\")\r\n                );\r\n    }\r\n\r\n    // Chc nng ly danh sch yu cu chng ch IIG\r\n    function getListRequest(address _iigOwner) public view returns(\r\n        address[] memory, \r\n        address[] memory,\r\n        string[] memory,\r\n        string[] memory) {\r\n            address[] memory studentOwners = new address[](iigRequests.length);\r\n            address[] memory iigOwners = new address[](iigRequests.length);\r\n            string[] memory identityCards = new string[](iigRequests.length);\r\n            string[] memory statusRequests = new string[](iigRequests.length);\r\n            for(uint i=0; i<iigRequests.length;i++){\r\n                if(iigRequests[i].iigOwner == _iigOwner){\r\n                    studentOwners[i] = iigRequests[i].studentOwner;\r\n                    iigOwners[i] = iigRequests[i].iigOwner;\r\n                    identityCards[i] = iigRequests[i].identityCard;\r\n                    statusRequests[i] = iigRequests[i].statusRequest;\r\n                }\r\n            }\r\n            return (studentOwners, iigOwners, identityCards, statusRequests);\r\n    }\r\n\r\n    //Chc nng duyt yu cu chng ch IIG\r\n    function confirmRequest(\r\n        address _studentOwner, \r\n        address _iigOwner, \r\n        string memory _statusRequest) public {\r\n            for(uint i=0; i<iigRequests.length; i++){\r\n                if((iigRequests[i].studentOwner == _studentOwner) && (iigRequests[i].iigOwner == _iigOwner)){\r\n                    iigRequests[i].statusRequest = _statusRequest;\r\n                }\r\n            }\r\n    }\r\n\r\n    // Chc nng thm thng tin im thi Listening - Reading (Kim tra c nhp nhiu ln thi ca 1 sinh vin chung 1 ngy khng?)\r\n    function addLRResult (\r\n        address _iigOwner,\r\n        address _studentOwner,\r\n        string memory _testDate,\r\n        string memory _shiftTest,\r\n        string memory _expireDate,\r\n        uint _listeningScore,\r\n        uint _readingScore) public {\r\n            require(_listeningScore >=0 && _listeningScore <=495, \"Listening Score incorrect.\");\r\n            require(_readingScore >=0 && _readingScore <=495, \"Reading Score incorrect.\");\r\n            iigLRResults.push(\r\n                IIGLRResult(_iigOwner, \r\n                        _studentOwner, \r\n                        _testDate,\r\n                        _shiftTest,\r\n                        _expireDate,\r\n                        _listeningScore, \r\n                        _readingScore,\r\n                        (_listeningScore + _readingScore))\r\n                );\r\n    }\r\n\r\n    // Chc nng ly danh sch im thi Listening - Reading  thm\r\n    function getListLRResult(address _iigOwner, address _studentOwner) public view returns(\r\n        string[] memory,\r\n        string[] memory,\r\n        string[] memory,\r\n        uint[] memory,\r\n        uint[] memory,\r\n        uint[] memory) {\r\n            string[] memory testDates = new string[](iigLRResults.length);\r\n            string[] memory shiftTests = new string[](iigLRResults.length);\r\n            string[] memory expireDates = new string[](iigLRResults.length);\r\n            uint[] memory listeningScores = new uint[](iigLRResults.length);\r\n            uint[] memory readingScores = new uint[](iigLRResults.length);\r\n            uint[] memory totalScores = new uint[](iigLRResults.length);\r\n            for(uint i=0; i<iigLRResults.length;i++){\r\n                if((iigLRResults[i].iigOwner == _iigOwner) && (iigLRResults[i].studentOwner == _studentOwner)){\r\n                    testDates[i] = iigLRResults[i].testDate;\r\n                    shiftTests[i] = iigLRResults[i].shiftTest;\r\n                    expireDates[i] = iigLRResults[i].expireDate;\r\n                    listeningScores[i] = iigLRResults[i].listeningScore;\r\n                    readingScores[i] = iigLRResults[i].readingScore;\r\n                    totalScores[i] = iigLRResults[i].totalScore;\r\n                }\r\n            }\r\n            return (testDates, shiftTests, expireDates, listeningScores, readingScores, totalScores);\r\n    }\r\n\r\n    // Chc nng kim tra kt qu ngy thi Listening - Reading ca sinh vin  tn ti hay cha?\r\n    function checkExistLRResult(\r\n        address _studentOwner, \r\n        string memory _testDate,\r\n        string memory _shiftTest) public view returns(uint x) {\r\n            for(uint i=0; i<iigLRResults.length; i++){\r\n                if((iigLRResults[i].studentOwner == _studentOwner) && (keccak256(bytes(iigLRResults[i].testDate)) == keccak256(bytes(_testDate))) && (keccak256(bytes(iigLRResults[i].shiftTest)) == keccak256(bytes(_shiftTest)))){\r\n                    return 1;\r\n                }\r\n            }\r\n    }\r\n\r\n    // Chc nng thm thng tin im thi Speaking - Writing\r\n    function addSWResult (\r\n        address _iigOwner,\r\n        address _studentOwner,\r\n        string memory _testDate,\r\n        string memory _shiftTest,\r\n        string memory _expireDate,\r\n        uint _speakingScore,\r\n        uint _writingScore) public {\r\n            require(_speakingScore >=0 && _speakingScore <=200, \"Speaking Score incorrect.\");\r\n            require(_writingScore >=0 && _writingScore <=200, \"Writing Score incorrect.\");\r\n            iigSWResults.push(\r\n                IIGSWResult(_iigOwner, \r\n                        _studentOwner, \r\n                        _testDate,\r\n                        _shiftTest,\r\n                        _expireDate,\r\n                        _speakingScore, \r\n                        _writingScore,\r\n                        (_speakingScore + _writingScore))\r\n                );\r\n    }\r\n\r\n    // Chc nng ly danh sch im thi Speaking - Writing  thm\r\n    function getListSWResult(address _iigOwner, address _studentOwner) public view returns(\r\n        string[] memory,\r\n        string[] memory,\r\n        string[] memory,\r\n        uint[] memory,\r\n        uint[] memory,\r\n        uint[] memory) {\r\n            string[] memory testDates = new string[](iigSWResults.length);\r\n            string[] memory shiftTests = new string[](iigSWResults.length);\r\n            string[] memory expireDates = new string[](iigSWResults.length);\r\n            uint[] memory speakingScores = new uint[](iigSWResults.length);\r\n            uint[] memory writingScores = new uint[](iigSWResults.length);\r\n            uint[] memory totalScores = new uint[](iigSWResults.length);\r\n            for(uint i=0; i<iigSWResults.length;i++){\r\n                if((iigLRResults[i].iigOwner == _iigOwner) && (iigLRResults[i].studentOwner == _studentOwner)){\r\n                    testDates[i] = iigSWResults[i].testDate;\r\n                    shiftTests[i] = iigSWResults[i].shiftTest;\r\n                    expireDates[i] = iigSWResults[i].expireDate;\r\n                    speakingScores[i] = iigSWResults[i].speakingScore;\r\n                    writingScores[i] = iigSWResults[i].writingScore;\r\n                    totalScores[i] = iigSWResults[i].totalScore;\r\n                }\r\n            }\r\n            return (testDates, shiftTests, expireDates, speakingScores, writingScores, totalScores);\r\n    }\r\n    \r\n    // Chc nng kim tra kt qu ngy thi Speaking - Writing ca sinh vin  tn ti hay cha?\r\n    function checkExistSWResult(\r\n        address _studentOwner,\r\n        string memory _testDate,\r\n        string memory _shiftTest) public view returns(uint x) {\r\n            for(uint i=0; i<iigSWResults.length; i++){\r\n                if((iigLRResults[i].studentOwner == _studentOwner) && (keccak256(bytes(iigLRResults[i].testDate)) == keccak256(bytes(_testDate))) && (keccak256(bytes(iigLRResults[i].shiftTest)) == keccak256(bytes(_shiftTest)))){\r\n                    return 1;\r\n                }\r\n            }\r\n    }\r\n}",
  "sourcePath": "C:\\Users\\19520\\Documents\\NCKH_Blockchain\\SolidityProgramming\\ProjectResearch\\SmartCV\\SmartContract\\contracts\\SmartCV_ListIIG.sol",
  "compiler": {
    "name": "solc",
    "version": "0.8.11+commit.d7f03943.Emscripten.clang"
  },
  "schemaVersion": "3.4.4",
  "updatedAt": "2022-07-27T15:13:29.138Z",
  "devdoc": {
    "kind": "dev",
    "methods": {},
    "version": 1
  },
  "userdoc": {
    "kind": "user",
    "methods": {},
    "version": 1
  }
}