{
  "contractName": "ListStudent",
  "abi": [
    {
      "inputs": [
        {
          "internalType": "uint256",
          "name": "",
          "type": "uint256"
        }
      ],
      "name": "listSVs",
      "outputs": [
        {
          "internalType": "address",
          "name": "studentOwner",
          "type": "address"
        },
        {
          "internalType": "string",
          "name": "name",
          "type": "string"
        },
        {
          "internalType": "string",
          "name": "birthDay",
          "type": "string"
        },
        {
          "internalType": "string",
          "name": "professionalTitle",
          "type": "string"
        },
        {
          "internalType": "string",
          "name": "email",
          "type": "string"
        },
        {
          "internalType": "string",
          "name": "github",
          "type": "string"
        },
        {
          "internalType": "string",
          "name": "linkedin",
          "type": "string"
        },
        {
          "internalType": "string",
          "name": "password",
          "type": "string"
        }
      ],
      "stateMutability": "view",
      "type": "function"
    },
    {
      "inputs": [
        {
          "internalType": "uint256",
          "name": "",
          "type": "uint256"
        }
      ],
      "name": "listSkills",
      "outputs": [
        {
          "internalType": "address",
          "name": "studentOwner",
          "type": "address"
        },
        {
          "internalType": "string",
          "name": "title",
          "type": "string"
        },
        {
          "internalType": "uint256",
          "name": "level",
          "type": "uint256"
        }
      ],
      "stateMutability": "view",
      "type": "function"
    },
    {
      "inputs": [
        {
          "internalType": "address",
          "name": "_studentOwner",
          "type": "address"
        },
        {
          "internalType": "string",
          "name": "_name",
          "type": "string"
        },
        {
          "internalType": "string",
          "name": "_birthDay",
          "type": "string"
        },
        {
          "internalType": "string",
          "name": "_professionalTitle",
          "type": "string"
        },
        {
          "internalType": "string",
          "name": "_email",
          "type": "string"
        },
        {
          "internalType": "string",
          "name": "_github",
          "type": "string"
        },
        {
          "internalType": "string",
          "name": "_linked",
          "type": "string"
        },
        {
          "internalType": "string",
          "name": "_password",
          "type": "string"
        }
      ],
      "name": "addSV",
      "outputs": [],
      "stateMutability": "nonpayable",
      "type": "function"
    },
    {
      "inputs": [],
      "name": "getListSV",
      "outputs": [
        {
          "internalType": "address[]",
          "name": "",
          "type": "address[]"
        },
        {
          "internalType": "string[]",
          "name": "",
          "type": "string[]"
        },
        {
          "internalType": "string[]",
          "name": "",
          "type": "string[]"
        },
        {
          "internalType": "string[]",
          "name": "",
          "type": "string[]"
        },
        {
          "internalType": "string[]",
          "name": "",
          "type": "string[]"
        },
        {
          "internalType": "string[]",
          "name": "",
          "type": "string[]"
        },
        {
          "internalType": "string[]",
          "name": "",
          "type": "string[]"
        },
        {
          "internalType": "string[]",
          "name": "",
          "type": "string[]"
        }
      ],
      "stateMutability": "view",
      "type": "function"
    },
    {
      "inputs": [
        {
          "internalType": "address",
          "name": "_studentOwner",
          "type": "address"
        }
      ],
      "name": "getProfile",
      "outputs": [
        {
          "internalType": "address",
          "name": "studentOwner",
          "type": "address"
        },
        {
          "internalType": "string",
          "name": "name",
          "type": "string"
        },
        {
          "internalType": "string",
          "name": "birthDay",
          "type": "string"
        },
        {
          "internalType": "string",
          "name": "professionalTitle",
          "type": "string"
        },
        {
          "internalType": "string",
          "name": "email",
          "type": "string"
        },
        {
          "internalType": "string",
          "name": "github",
          "type": "string"
        },
        {
          "internalType": "string",
          "name": "linkedin",
          "type": "string"
        },
        {
          "internalType": "string",
          "name": "password",
          "type": "string"
        }
      ],
      "stateMutability": "view",
      "type": "function"
    },
    {
      "inputs": [
        {
          "internalType": "address",
          "name": "_studentOwner",
          "type": "address"
        },
        {
          "internalType": "string",
          "name": "_password",
          "type": "string"
        }
      ],
      "name": "checkSV",
      "outputs": [
        {
          "internalType": "uint256",
          "name": "x",
          "type": "uint256"
        }
      ],
      "stateMutability": "view",
      "type": "function"
    },
    {
      "inputs": [
        {
          "internalType": "address",
          "name": "_studentOwner",
          "type": "address"
        },
        {
          "internalType": "string",
          "name": "_title",
          "type": "string"
        },
        {
          "internalType": "uint256",
          "name": "_level",
          "type": "uint256"
        }
      ],
      "name": "addSkill",
      "outputs": [],
      "stateMutability": "nonpayable",
      "type": "function"
    },
    {
      "inputs": [
        {
          "internalType": "address",
          "name": "_studentOwner",
          "type": "address"
        }
      ],
      "name": "getSkill",
      "outputs": [
        {
          "internalType": "string[]",
          "name": "",
          "type": "string[]"
        },
        {
          "internalType": "uint256[]",
          "name": "",
          "type": "uint256[]"
        }
      ],
      "stateMutability": "view",
      "type": "function"
    }
  ],
  "bytecode": "0x608060405234801561001057600080fd5b506128e6806100206000396000f3fe608060405234801561001057600080fd5b50600436106100885760003560e01c8063670471071161005b57806367047107146101425780639fea8e1014610179578063ac4b204914610195578063d64b6913146101c657610088565b80630f53a4701461008d578063174ceeab146100c45780633aff2cc5146100f457806360ccb20414610126575b600080fd5b6100a760048036038101906100a29190611d48565b6101eb565b6040516100bb989796959493929190611e1d565b60405180910390f35b6100de60048036038101906100d99190612001565b6107d4565b6040516100eb9190612076565b60405180910390f35b61010e600480360381019061010991906120bd565b6108d2565b60405161011d939291906120ea565b60405180910390f35b610140600480360381019061013b9190612128565b6109b4565b005b61015c600480360381019061015791906120bd565b610ad6565b604051610170989796959493929190611e1d565b60405180910390f35b610193600480360381019061018e9190612197565b610f06565b005b6101af60048036038101906101aa9190611d48565b61109f565b6040516101bd9291906124db565b60405180910390f35b6101ce611307565b6040516101e29897969594939291906125d0565b60405180910390f35b6000606080606080606080606060005b6000805490508110156107c7578973ffffffffffffffffffffffffffffffffffffffff166000828154811061023357610232612686565b5b906000526020600020906008020160000160009054906101000a900473ffffffffffffffffffffffffffffffffffffffff1673ffffffffffffffffffffffffffffffffffffffff1614156107b4576000818154811061029557610294612686565b5b906000526020600020906008020160000160009054906101000a900473ffffffffffffffffffffffffffffffffffffffff16600082815481106102db576102da612686565b5b906000526020600020906008020160010160008381548110610300576102ff612686565b5b90600052602060002090600802016002016000848154811061032557610324612686565b5b90600052602060002090600802016003016000858154811061034a57610349612686565b5b90600052602060002090600802016004016000868154811061036f5761036e612686565b5b90600052602060002090600802016005016000878154811061039457610393612686565b5b9060005260206000209060080201600601600088815481106103b9576103b8612686565b5b90600052602060002090600802016007018680546103d6906126e4565b80601f0160208091040260200160405190810160405280929190818152602001828054610402906126e4565b801561044f5780601f106104245761010080835404028352916020019161044f565b820191906000526020600020905b81548152906001019060200180831161043257829003601f168201915b50505050509650858054610462906126e4565b80601f016020809104026020016040519081016040528092919081815260200182805461048e906126e4565b80156104db5780601f106104b0576101008083540402835291602001916104db565b820191906000526020600020905b8154815290600101906020018083116104be57829003601f168201915b505050505095508480546104ee906126e4565b80601f016020809104026020016040519081016040528092919081815260200182805461051a906126e4565b80156105675780601f1061053c57610100808354040283529160200191610567565b820191906000526020600020905b81548152906001019060200180831161054a57829003601f168201915b5050505050945083805461057a906126e4565b80601f01602080910402602001604051908101604052809291908181526020018280546105a6906126e4565b80156105f35780601f106105c8576101008083540402835291602001916105f3565b820191906000526020600020905b8154815290600101906020018083116105d657829003601f168201915b50505050509350828054610606906126e4565b80601f0160208091040260200160405190810160405280929190818152602001828054610632906126e4565b801561067f5780601f106106545761010080835404028352916020019161067f565b820191906000526020600020905b81548152906001019060200180831161066257829003601f168201915b50505050509250818054610692906126e4565b80601f01602080910402602001604051908101604052809291908181526020018280546106be906126e4565b801561070b5780601f106106e05761010080835404028352916020019161070b565b820191906000526020600020905b8154815290600101906020018083116106ee57829003601f168201915b5050505050915080805461071e906126e4565b80601f016020809104026020016040519081016040528092919081815260200182805461074a906126e4565b80156107975780601f1061076c57610100808354040283529160200191610797565b820191906000526020600020905b81548152906001019060200180831161077a57829003601f168201915b5050505050905098509850985098509850985098509850506107c9565b80806107bf90612745565b9150506101fb565b505b919395975091939597565b600080600090505b6000805490508110156108ca578373ffffffffffffffffffffffffffffffffffffffff166000828154811061081457610813612686565b5b906000526020600020906008020160000160009054906101000a900473ffffffffffffffffffffffffffffffffffffffff1673ffffffffffffffffffffffffffffffffffffffff161480156108a857508280519060200120600082815481106108805761087f612686565b5b906000526020600020906008020160070160405161089e919061282d565b6040518091039020145b156108b75760019150506108cc565b80806108c290612745565b9150506107dc565b505b92915050565b600181815481106108e257600080fd5b90600052602060002090600302016000915090508060000160009054906101000a900473ffffffffffffffffffffffffffffffffffffffff169080600101805461092b906126e4565b80601f0160208091040260200160405190810160405280929190818152602001828054610957906126e4565b80156109a45780601f10610979576101008083540402835291602001916109a4565b820191906000526020600020905b81548152906001019060200180831161098757829003601f168201915b5050505050908060020154905083565b600081101580156109c6575060648111155b610a05576040517f08c379a00000000000000000000000000000000000000000000000000000000081526004016109fc90612890565b60405180910390fd5b600160405180606001604052808573ffffffffffffffffffffffffffffffffffffffff16815260200184815260200183815250908060018154018082558091505060019003906000526020600020906003020160009091909190915060008201518160000160006101000a81548173ffffffffffffffffffffffffffffffffffffffff021916908373ffffffffffffffffffffffffffffffffffffffff1602179055506020820151816001019080519060200190610ac4929190611c33565b50604082015181600201555050505050565b60008181548110610ae657600080fd5b90600052602060002090600802016000915090508060000160009054906101000a900473ffffffffffffffffffffffffffffffffffffffff1690806001018054610b2f906126e4565b80601f0160208091040260200160405190810160405280929190818152602001828054610b5b906126e4565b8015610ba85780601f10610b7d57610100808354040283529160200191610ba8565b820191906000526020600020905b815481529060010190602001808311610b8b57829003601f168201915b505050505090806002018054610bbd906126e4565b80601f0160208091040260200160405190810160405280929190818152602001828054610be9906126e4565b8015610c365780601f10610c0b57610100808354040283529160200191610c36565b820191906000526020600020905b815481529060010190602001808311610c1957829003601f168201915b505050505090806003018054610c4b906126e4565b80601f0160208091040260200160405190810160405280929190818152602001828054610c77906126e4565b8015610cc45780601f10610c9957610100808354040283529160200191610cc4565b820191906000526020600020905b815481529060010190602001808311610ca757829003601f168201915b505050505090806004018054610cd9906126e4565b80601f0160208091040260200160405190810160405280929190818152602001828054610d05906126e4565b8015610d525780601f10610d2757610100808354040283529160200191610d52565b820191906000526020600020905b815481529060010190602001808311610d3557829003601f168201915b505050505090806005018054610d67906126e4565b80601f0160208091040260200160405190810160405280929190818152602001828054610d93906126e4565b8015610de05780601f10610db557610100808354040283529160200191610de0565b820191906000526020600020905b815481529060010190602001808311610dc357829003601f168201915b505050505090806006018054610df5906126e4565b80601f0160208091040260200160405190810160405280929190818152602001828054610e21906126e4565b8015610e6e5780601f10610e4357610100808354040283529160200191610e6e565b820191906000526020600020905b815481529060010190602001808311610e5157829003601f168201915b505050505090806007018054610e83906126e4565b80601f0160208091040260200160405190810160405280929190818152602001828054610eaf906126e4565b8015610efc5780601f10610ed157610100808354040283529160200191610efc565b820191906000526020600020905b815481529060010190602001808311610edf57829003601f168201915b5050505050905088565b60006040518061010001604052808a73ffffffffffffffffffffffffffffffffffffffff16815260200189815260200188815260200187815260200186815260200185815260200184815260200183815250908060018154018082558091505060019003906000526020600020906008020160009091909190915060008201518160000160006101000a81548173ffffffffffffffffffffffffffffffffffffffff021916908373ffffffffffffffffffffffffffffffffffffffff1602179055506020820151816001019080519060200190610fe4929190611c33565b506040820151816002019080519060200190611001929190611c33565b50606082015181600301908051906020019061101e929190611c33565b50608082015181600401908051906020019061103b929190611c33565b5060a0820151816005019080519060200190611058929190611c33565b5060c0820151816006019080519060200190611075929190611c33565b5060e0820151816007019080519060200190611092929190611c33565b5050505050505050505050565b606080600060018054905067ffffffffffffffff8111156110c3576110c2611ed6565b5b6040519080825280602002602001820160405280156110f657816020015b60608152602001906001900390816110e15790505b509050600060018054905067ffffffffffffffff81111561111a57611119611ed6565b5b6040519080825280602002602001820160405280156111485781602001602082028036833780820191505090505b50905060005b6001805490508110156112f9578573ffffffffffffffffffffffffffffffffffffffff166001828154811061118657611185612686565b5b906000526020600020906003020160000160009054906101000a900473ffffffffffffffffffffffffffffffffffffffff1673ffffffffffffffffffffffffffffffffffffffff1614156112e657600181815481106111e8576111e7612686565b5b90600052602060002090600302016001018054611204906126e4565b80601f0160208091040260200160405190810160405280929190818152602001828054611230906126e4565b801561127d5780601f106112525761010080835404028352916020019161127d565b820191906000526020600020905b81548152906001019060200180831161126057829003601f168201915b505050505083828151811061129557611294612686565b5b6020026020010181905250600181815481106112b4576112b3612686565b5b9060005260206000209060030201600201548282815181106112d9576112d8612686565b5b6020026020010181815250505b80806112f190612745565b91505061114e565b508181935093505050915091565b6060806060806060806060806000808054905067ffffffffffffffff81111561133357611332611ed6565b5b6040519080825280602002602001820160405280156113615781602001602082028036833780820191505090505b5090506000808054905067ffffffffffffffff81111561138457611383611ed6565b5b6040519080825280602002602001820160405280156113b757816020015b60608152602001906001900390816113a25790505b5090506000808054905067ffffffffffffffff8111156113da576113d9611ed6565b5b60405190808252806020026020018201604052801561140d57816020015b60608152602001906001900390816113f85790505b5090506000808054905067ffffffffffffffff8111156114305761142f611ed6565b5b60405190808252806020026020018201604052801561146357816020015b606081526020019060019003908161144e5790505b5090506000808054905067ffffffffffffffff81111561148657611485611ed6565b5b6040519080825280602002602001820160405280156114b957816020015b60608152602001906001900390816114a45790505b5090506000808054905067ffffffffffffffff8111156114dc576114db611ed6565b5b60405190808252806020026020018201604052801561150f57816020015b60608152602001906001900390816114fa5790505b5090506000808054905067ffffffffffffffff81111561153257611531611ed6565b5b60405190808252806020026020018201604052801561156557816020015b60608152602001906001900390816115505790505b5090506000808054905067ffffffffffffffff81111561158857611587611ed6565b5b6040519080825280602002602001820160405280156115bb57816020015b60608152602001906001900390816115a65790505b50905060005b600080549050811015611c0857600081815481106115e2576115e1612686565b5b906000526020600020906008020160000160009054906101000a900473ffffffffffffffffffffffffffffffffffffffff1689828151811061162757611626612686565b5b602002602001019073ffffffffffffffffffffffffffffffffffffffff16908173ffffffffffffffffffffffffffffffffffffffff16815250506000818154811061167557611674612686565b5b90600052602060002090600802016001018054611691906126e4565b80601f01602080910402602001604051908101604052809291908181526020018280546116bd906126e4565b801561170a5780601f106116df5761010080835404028352916020019161170a565b820191906000526020600020905b8154815290600101906020018083116116ed57829003601f168201915b505050505088828151811061172257611721612686565b5b60200260200101819052506000818154811061174157611740612686565b5b9060005260206000209060080201600201805461175d906126e4565b80601f0160208091040260200160405190810160405280929190818152602001828054611789906126e4565b80156117d65780601f106117ab576101008083540402835291602001916117d6565b820191906000526020600020905b8154815290600101906020018083116117b957829003601f168201915b50505050508782815181106117ee576117ed612686565b5b60200260200101819052506000818154811061180d5761180c612686565b5b90600052602060002090600802016003018054611829906126e4565b80601f0160208091040260200160405190810160405280929190818152602001828054611855906126e4565b80156118a25780601f10611877576101008083540402835291602001916118a2565b820191906000526020600020905b81548152906001019060200180831161188557829003601f168201915b50505050508682815181106118ba576118b9612686565b5b6020026020010181905250600081815481106118d9576118d8612686565b5b906000526020600020906008020160040180546118f5906126e4565b80601f0160208091040260200160405190810160405280929190818152602001828054611921906126e4565b801561196e5780601f106119435761010080835404028352916020019161196e565b820191906000526020600020905b81548152906001019060200180831161195157829003601f168201915b505050505085828151811061198657611985612686565b5b6020026020010181905250600081815481106119a5576119a4612686565b5b906000526020600020906008020160050180546119c1906126e4565b80601f01602080910402602001604051908101604052809291908181526020018280546119ed906126e4565b8015611a3a5780601f10611a0f57610100808354040283529160200191611a3a565b820191906000526020600020905b815481529060010190602001808311611a1d57829003601f168201915b5050505050848281518110611a5257611a51612686565b5b602002602001018190525060008181548110611a7157611a70612686565b5b90600052602060002090600802016006018054611a8d906126e4565b80601f0160208091040260200160405190810160405280929190818152602001828054611ab9906126e4565b8015611b065780601f10611adb57610100808354040283529160200191611b06565b820191906000526020600020905b815481529060010190602001808311611ae957829003601f168201915b5050505050838281518110611b1e57611b1d612686565b5b602002602001018190525060008181548110611b3d57611b3c612686565b5b90600052602060002090600802016007018054611b59906126e4565b80601f0160208091040260200160405190810160405280929190818152602001828054611b85906126e4565b8015611bd25780601f10611ba757610100808354040283529160200191611bd2565b820191906000526020600020905b815481529060010190602001808311611bb557829003601f168201915b5050505050828281518110611bea57611be9612686565b5b60200260200101819052508080611c0090612745565b9150506115c1565b5087878787878787879f509f509f509f509f509f509f509f5050505050505050509091929394959697565b828054611c3f906126e4565b90600052602060002090601f016020900481019282611c615760008555611ca8565b82601f10611c7a57805160ff1916838001178555611ca8565b82800160010185558215611ca8579182015b82811115611ca7578251825591602001919060010190611c8c565b5b509050611cb59190611cb9565b5090565b5b80821115611cd2576000816000905550600101611cba565b5090565b6000604051905090565b600080fd5b600080fd5b600073ffffffffffffffffffffffffffffffffffffffff82169050919050565b6000611d1582611cea565b9050919050565b611d2581611d0a565b8114611d3057600080fd5b50565b600081359050611d4281611d1c565b92915050565b600060208284031215611d5e57611d5d611ce0565b5b6000611d6c84828501611d33565b91505092915050565b611d7e81611d0a565b82525050565b600081519050919050565b600082825260208201905092915050565b60005b83811015611dbe578082015181840152602081019050611da3565b83811115611dcd576000848401525b50505050565b6000601f19601f8301169050919050565b6000611def82611d84565b611df98185611d8f565b9350611e09818560208601611da0565b611e1281611dd3565b840191505092915050565b600061010082019050611e33600083018b611d75565b8181036020830152611e45818a611de4565b90508181036040830152611e598189611de4565b90508181036060830152611e6d8188611de4565b90508181036080830152611e818187611de4565b905081810360a0830152611e958186611de4565b905081810360c0830152611ea98185611de4565b905081810360e0830152611ebd8184611de4565b90509998505050505050505050565b600080fd5b600080fd5b7f4e487b7100000000000000000000000000000000000000000000000000000000600052604160045260246000fd5b611f0e82611dd3565b810181811067ffffffffffffffff82111715611f2d57611f2c611ed6565b5b80604052505050565b6000611f40611cd6565b9050611f4c8282611f05565b919050565b600067ffffffffffffffff821115611f6c57611f6b611ed6565b5b611f7582611dd3565b9050602081019050919050565b82818337600083830152505050565b6000611fa4611f9f84611f51565b611f36565b905082815260208101848484011115611fc057611fbf611ed1565b5b611fcb848285611f82565b509392505050565b600082601f830112611fe857611fe7611ecc565b5b8135611ff8848260208601611f91565b91505092915050565b6000806040838503121561201857612017611ce0565b5b600061202685828601611d33565b925050602083013567ffffffffffffffff81111561204757612046611ce5565b5b61205385828601611fd3565b9150509250929050565b6000819050919050565b6120708161205d565b82525050565b600060208201905061208b6000830184612067565b92915050565b61209a8161205d565b81146120a557600080fd5b50565b6000813590506120b781612091565b92915050565b6000602082840312156120d3576120d2611ce0565b5b60006120e1848285016120a8565b91505092915050565b60006060820190506120ff6000830186611d75565b81810360208301526121118185611de4565b90506121206040830184612067565b949350505050565b60008060006060848603121561214157612140611ce0565b5b600061214f86828701611d33565b935050602084013567ffffffffffffffff8111156121705761216f611ce5565b5b61217c86828701611fd3565b925050604061218d868287016120a8565b9150509250925092565b600080600080600080600080610100898b0312156121b8576121b7611ce0565b5b60006121c68b828c01611d33565b985050602089013567ffffffffffffffff8111156121e7576121e6611ce5565b5b6121f38b828c01611fd3565b975050604089013567ffffffffffffffff81111561221457612213611ce5565b5b6122208b828c01611fd3565b965050606089013567ffffffffffffffff81111561224157612240611ce5565b5b61224d8b828c01611fd3565b955050608089013567ffffffffffffffff81111561226e5761226d611ce5565b5b61227a8b828c01611fd3565b94505060a089013567ffffffffffffffff81111561229b5761229a611ce5565b5b6122a78b828c01611fd3565b93505060c089013567ffffffffffffffff8111156122c8576122c7611ce5565b5b6122d48b828c01611fd3565b92505060e089013567ffffffffffffffff8111156122f5576122f4611ce5565b5b6123018b828c01611fd3565b9150509295985092959890939650565b600081519050919050565b600082825260208201905092915050565b6000819050602082019050919050565b600082825260208201905092915050565b600061235982611d84565b612363818561233d565b9350612373818560208601611da0565b61237c81611dd3565b840191505092915050565b6000612393838361234e565b905092915050565b6000602082019050919050565b60006123b382612311565b6123bd818561231c565b9350836020820285016123cf8561232d565b8060005b8581101561240b57848403895281516123ec8582612387565b94506123f78361239b565b925060208a019950506001810190506123d3565b50829750879550505050505092915050565b600081519050919050565b600082825260208201905092915050565b6000819050602082019050919050565b6124528161205d565b82525050565b60006124648383612449565b60208301905092915050565b6000602082019050919050565b60006124888261241d565b6124928185612428565b935061249d83612439565b8060005b838110156124ce5781516124b58882612458565b97506124c083612470565b9250506001810190506124a1565b5085935050505092915050565b600060408201905081810360008301526124f581856123a8565b90508181036020830152612509818461247d565b90509392505050565b600081519050919050565b600082825260208201905092915050565b6000819050602082019050919050565b61254781611d0a565b82525050565b6000612559838361253e565b60208301905092915050565b6000602082019050919050565b600061257d82612512565b612587818561251d565b93506125928361252e565b8060005b838110156125c35781516125aa888261254d565b97506125b583612565565b925050600181019050612596565b5085935050505092915050565b60006101008201905081810360008301526125eb818b612572565b905081810360208301526125ff818a6123a8565b9050818103604083015261261381896123a8565b9050818103606083015261262781886123a8565b9050818103608083015261263b81876123a8565b905081810360a083015261264f81866123a8565b905081810360c083015261266381856123a8565b905081810360e083015261267781846123a8565b90509998505050505050505050565b7f4e487b7100000000000000000000000000000000000000000000000000000000600052603260045260246000fd5b7f4e487b7100000000000000000000000000000000000000000000000000000000600052602260045260246000fd5b600060028204905060018216806126fc57607f821691505b602082108114156127105761270f6126b5565b5b50919050565b7f4e487b7100000000000000000000000000000000000000000000000000000000600052601160045260246000fd5b60006127508261205d565b91507fffffffffffffffffffffffffffffffffffffffffffffffffffffffffffffffff82141561278357612782612716565b5b600182019050919050565b600081905092915050565b60008190508160005260206000209050919050565b600081546127bb816126e4565b6127c5818661278e565b945060018216600081146127e057600181146127f157612824565b60ff19831686528186019350612824565b6127fa85612799565b60005b8381101561281c578154818901526001820191506020810190506127fd565b838801955050505b50505092915050565b600061283982846127ae565b915081905092915050565b7f4c6576656c206f6620736b696c6c20696e636f72726563742e00000000000000600082015250565b600061287a601983611d8f565b915061288582612844565b602082019050919050565b600060208201905081810360008301526128a98161286d565b905091905056fea2646970667358221220a7cb8a8e4a9a4c0028fe87f35182d80b4cf439adea4fbe1988344a74d7ef74fd64736f6c634300080b0033",
  "immutableReferences": {},
  "source": "// SPDX-License-Identifier: MIT\r\npragma solidity >=0.4.22 <0.9.0;\r\n\r\n//Lu tr danh sch sinh vin\r\ncontract ListStudent {\r\n\r\n    //Khai bo cu trc lu tr thng tin sinh vin\r\n    struct ListSV {\r\n        address studentOwner;\r\n        string name; \r\n        string birthDay; \r\n        string professionalTitle;\r\n        string email;\r\n        string github; \r\n        string linkedin;\r\n        string password;\r\n    }\r\n\r\n    //Khai bo cu trc lu tr thng tin k nng ca sinh vin\r\n    struct ListSkill {\r\n        address studentOwner;\r\n        string title; \r\n        uint level;\r\n    }\r\n\r\n    //Khai bo cc mng  lu tr thng tin\r\n    ListSV[] public listSVs;\r\n    ListSkill[] public listSkills;\r\n\r\n    //Chc nng thm thng tin sinh vin\r\n    function addSV (\r\n        address _studentOwner,\r\n        string memory _name,\r\n        string memory _birthDay,\r\n        string memory _professionalTitle,\r\n        string memory _email,\r\n        string memory _github,\r\n        string memory _linked,\r\n        string memory _password) public {\r\n            listSVs.push(\r\n                ListSV(_studentOwner, \r\n                        _name, \r\n                        _birthDay, \r\n                        _professionalTitle, \r\n                        _email, \r\n                        _github, \r\n                        _linked, \r\n                        _password)\r\n                );\r\n    }\r\n\r\n    //Chc nng ly danh sch sinh vin  thm\r\n    function getListSV() public view returns(\r\n        address[] memory, \r\n        string[] memory, \r\n        string[] memory, \r\n        string[] memory, \r\n        string[] memory, \r\n        string[] memory, \r\n        string[] memory, \r\n        string[] memory) {\r\n            address[] memory studentOwners = new address[](listSVs.length);\r\n            string[] memory names = new string[](listSVs.length);\r\n            string[] memory birthDays = new string[](listSVs.length);\r\n            string[] memory professionalTitles = new string[](listSVs.length);\r\n            string[] memory emails = new string[](listSVs.length);\r\n            string[] memory githubs = new string[](listSVs.length);\r\n            string[] memory linkedins = new string[](listSVs.length);\r\n            string[] memory passwords = new string[](listSVs.length);\r\n            for(uint i=0; i<listSVs.length;i++){\r\n                studentOwners[i] = listSVs[i].studentOwner;\r\n                names[i] = listSVs[i].name;\r\n                birthDays[i] = listSVs[i].birthDay;\r\n                professionalTitles[i] = listSVs[i].professionalTitle;\r\n                emails[i] = listSVs[i].email;\r\n                githubs[i] = listSVs[i].github;\r\n                linkedins[i] = listSVs[i].linkedin;\r\n                passwords[i] = listSVs[i].password;\r\n            }\r\n            return (studentOwners, names, birthDays, professionalTitles, emails, githubs, linkedins, passwords);\r\n    }\r\n\r\n    //Chc nng ly thng tin ca sinh vin\r\n    function getProfile(address _studentOwner) public view returns(\r\n        address studentOwner, \r\n        string memory name, \r\n        string memory birthDay, \r\n        string memory professionalTitle, \r\n        string memory email, \r\n        string memory github, \r\n        string memory linkedin,\r\n        string memory password) {\r\n            for(uint i=0; i<listSVs.length;i++){\r\n                if(listSVs[i].studentOwner == _studentOwner){\r\n                    return (listSVs[i].studentOwner,\r\n                            listSVs[i].name, \r\n                            listSVs[i].birthDay, \r\n                            listSVs[i].professionalTitle, \r\n                            listSVs[i].email, \r\n                            listSVs[i].github, \r\n                            listSVs[i].linkedin,\r\n                            listSVs[i].password);\r\n                }\r\n            }\r\n    }\r\n\r\n    //Chc nng kim tra sinh vin  ng k hay cha?\r\n    function checkSV(\r\n        address _studentOwner, \r\n        string memory _password) public view returns(uint x) {\r\n            for(uint i=0; i<listSVs.length; i++){\r\n                if((listSVs[i].studentOwner == _studentOwner) && (keccak256(bytes(listSVs[i].password)) == keccak256(bytes(_password)))){\r\n                    return 1;\r\n                }\r\n            }\r\n    }\r\n\r\n    //Chc nng thm thng tin k nng ca sinh vin\r\n    function addSkill(\r\n        address _studentOwner,\r\n        string memory _title, \r\n        uint _level) public {\r\n            require(_level >=0 && _level <=100, \"Level of skill incorrect.\"); //Mc  ca k nng c tnh theo thang im t 0 n 100\r\n            listSkills.push(ListSkill(_studentOwner, _title, _level));\r\n    }\r\n\r\n    //Chc nng ly thng tin k nng ca sinh vin\r\n    function getSkill(address _studentOwner) public view returns(\r\n        string[] memory,\r\n        uint[] memory) {\r\n            string[] memory titles = new string[](listSkills.length);\r\n            uint[] memory levels = new uint[](listSkills.length);\r\n            for(uint i=0; i<listSkills.length;i++){\r\n                if(listSkills[i].studentOwner == _studentOwner) {\r\n                    titles[i] = listSkills[i].title;\r\n                    levels[i] = listSkills[i].level;\r\n                }\r\n            }\r\n            return (titles, levels);\r\n    }\r\n    \r\n}",
  "sourcePath": "C:\\Users\\19520\\Documents\\NCKH_Blockchain\\SolidityProgramming\\ProjectResearch\\SmartCV\\SmartContract\\contracts\\SmartCV_ListStudent.sol",
  "compiler": {
    "name": "solc",
    "version": "0.8.11+commit.d7f03943.Emscripten.clang"
  },
  "schemaVersion": "3.4.4",
  "updatedAt": "2022-07-05T14:31:41.697Z",
  "devdoc": {
    "kind": "dev",
    "methods": {},
    "version": 1
  },
  "userdoc": {
    "kind": "user",
    "methods": {},
    "version": 1
  }
}