{
  "contractName": "StudentBusiness",
  "abi": [
    {
      "inputs": [
        {
          "internalType": "address",
          "name": "_studentOwner",
          "type": "address"
        },
        {
          "internalType": "string",
          "name": "_name",
          "type": "string"
        },
        {
          "internalType": "string",
          "name": "_phoneNumber",
          "type": "string"
        },
        {
          "internalType": "string",
          "name": "_professionalTitle",
          "type": "string"
        },
        {
          "internalType": "string",
          "name": "_email",
          "type": "string"
        },
        {
          "internalType": "string",
          "name": "_github",
          "type": "string"
        },
        {
          "internalType": "string",
          "name": "_linkedin",
          "type": "string"
        },
        {
          "internalType": "string",
          "name": "_sourceImage",
          "type": "string"
        },
        {
          "internalType": "string",
          "name": "_password",
          "type": "string"
        }
      ],
      "name": "addStudentProfile",
      "outputs": [],
      "stateMutability": "nonpayable",
      "type": "function"
    },
    {
      "inputs": [
        {
          "internalType": "address",
          "name": "_studentOwner",
          "type": "address"
        },
        {
          "internalType": "string",
          "name": "_name",
          "type": "string"
        },
        {
          "internalType": "string",
          "name": "_phoneNumber",
          "type": "string"
        },
        {
          "internalType": "string",
          "name": "_professionalTitle",
          "type": "string"
        },
        {
          "internalType": "string",
          "name": "_email",
          "type": "string"
        },
        {
          "internalType": "string",
          "name": "_github",
          "type": "string"
        },
        {
          "internalType": "string",
          "name": "_linkedin",
          "type": "string"
        },
        {
          "internalType": "string",
          "name": "_sourceImage",
          "type": "string"
        }
      ],
      "name": "editStudentProfile",
      "outputs": [],
      "stateMutability": "nonpayable",
      "type": "function"
    },
    {
      "inputs": [
        {
          "internalType": "address",
          "name": "_studentOwner",
          "type": "address"
        }
      ],
      "name": "getStudentProfile",
      "outputs": [
        {
          "internalType": "address",
          "name": "studentOwner",
          "type": "address"
        },
        {
          "internalType": "string",
          "name": "name",
          "type": "string"
        },
        {
          "internalType": "string",
          "name": "phoneNumber",
          "type": "string"
        },
        {
          "internalType": "string",
          "name": "professionalTitle",
          "type": "string"
        },
        {
          "internalType": "string",
          "name": "email",
          "type": "string"
        },
        {
          "internalType": "string",
          "name": "github",
          "type": "string"
        },
        {
          "internalType": "string",
          "name": "linkedin",
          "type": "string"
        },
        {
          "internalType": "string",
          "name": "sourceImage",
          "type": "string"
        },
        {
          "internalType": "string",
          "name": "password",
          "type": "string"
        }
      ],
      "stateMutability": "view",
      "type": "function"
    },
    {
      "inputs": [
        {
          "internalType": "address",
          "name": "_studentOwner",
          "type": "address"
        },
        {
          "internalType": "string",
          "name": "_password",
          "type": "string"
        }
      ],
      "name": "checkStudentProfile",
      "outputs": [
        {
          "internalType": "uint256",
          "name": "x",
          "type": "uint256"
        }
      ],
      "stateMutability": "view",
      "type": "function"
    },
    {
      "inputs": [
        {
          "internalType": "address",
          "name": "_studentOwner",
          "type": "address"
        }
      ],
      "name": "checkExistStudent",
      "outputs": [
        {
          "internalType": "uint256",
          "name": "x",
          "type": "uint256"
        }
      ],
      "stateMutability": "view",
      "type": "function"
    },
    {
      "inputs": [
        {
          "internalType": "address",
          "name": "_studentOwner",
          "type": "address"
        },
        {
          "internalType": "string",
          "name": "_title",
          "type": "string"
        },
        {
          "internalType": "uint256",
          "name": "_level",
          "type": "uint256"
        }
      ],
      "name": "addStudentSkill",
      "outputs": [],
      "stateMutability": "nonpayable",
      "type": "function"
    },
    {
      "inputs": [
        {
          "internalType": "address",
          "name": "_studentOwner",
          "type": "address"
        },
        {
          "internalType": "string",
          "name": "_title",
          "type": "string"
        },
        {
          "internalType": "uint256",
          "name": "_level",
          "type": "uint256"
        }
      ],
      "name": "editStudentSkill",
      "outputs": [],
      "stateMutability": "nonpayable",
      "type": "function"
    },
    {
      "inputs": [
        {
          "internalType": "address",
          "name": "_studentOwner",
          "type": "address"
        },
        {
          "internalType": "string",
          "name": "_title",
          "type": "string"
        }
      ],
      "name": "checkStudentSkill",
      "outputs": [
        {
          "internalType": "uint256",
          "name": "x",
          "type": "uint256"
        }
      ],
      "stateMutability": "view",
      "type": "function"
    },
    {
      "inputs": [
        {
          "internalType": "address",
          "name": "_studentOwner",
          "type": "address"
        }
      ],
      "name": "checkNumStudentSkill",
      "outputs": [
        {
          "internalType": "uint256",
          "name": "x",
          "type": "uint256"
        }
      ],
      "stateMutability": "view",
      "type": "function"
    },
    {
      "inputs": [
        {
          "internalType": "address",
          "name": "_studentOwner",
          "type": "address"
        }
      ],
      "name": "getStudentSkill",
      "outputs": [
        {
          "internalType": "string[]",
          "name": "titles",
          "type": "string[]"
        },
        {
          "internalType": "uint256[]",
          "name": "levels",
          "type": "uint256[]"
        }
      ],
      "stateMutability": "view",
      "type": "function"
    },
    {
      "inputs": [
        {
          "internalType": "address",
          "name": "_studentOwner",
          "type": "address"
        },
        {
          "internalType": "string",
          "name": "_institution",
          "type": "string"
        },
        {
          "internalType": "string",
          "name": "_focusArea",
          "type": "string"
        },
        {
          "internalType": "string",
          "name": "_startTime",
          "type": "string"
        },
        {
          "internalType": "string",
          "name": "_finishTime",
          "type": "string"
        },
        {
          "internalType": "string",
          "name": "_gpa",
          "type": "string"
        }
      ],
      "name": "addStudentEducation",
      "outputs": [],
      "stateMutability": "nonpayable",
      "type": "function"
    },
    {
      "inputs": [
        {
          "internalType": "address",
          "name": "_studentOwner",
          "type": "address"
        },
        {
          "internalType": "string",
          "name": "_institution",
          "type": "string"
        },
        {
          "internalType": "string",
          "name": "_focusArea",
          "type": "string"
        },
        {
          "internalType": "string",
          "name": "_startTime",
          "type": "string"
        },
        {
          "internalType": "string",
          "name": "_finishTime",
          "type": "string"
        },
        {
          "internalType": "string",
          "name": "_gpa",
          "type": "string"
        }
      ],
      "name": "editStudentEducation",
      "outputs": [],
      "stateMutability": "nonpayable",
      "type": "function"
    },
    {
      "inputs": [
        {
          "internalType": "address",
          "name": "_studentOwner",
          "type": "address"
        },
        {
          "internalType": "string",
          "name": "_institution",
          "type": "string"
        },
        {
          "internalType": "string",
          "name": "_focusArea",
          "type": "string"
        }
      ],
      "name": "checkStudentEducation",
      "outputs": [
        {
          "internalType": "uint256",
          "name": "x",
          "type": "uint256"
        }
      ],
      "stateMutability": "view",
      "type": "function"
    },
    {
      "inputs": [
        {
          "internalType": "address",
          "name": "_studentOwner",
          "type": "address"
        }
      ],
      "name": "getStudentEducation",
      "outputs": [
        {
          "internalType": "string[]",
          "name": "",
          "type": "string[]"
        },
        {
          "internalType": "string[]",
          "name": "",
          "type": "string[]"
        },
        {
          "internalType": "string[]",
          "name": "",
          "type": "string[]"
        },
        {
          "internalType": "string[]",
          "name": "",
          "type": "string[]"
        },
        {
          "internalType": "string[]",
          "name": "",
          "type": "string[]"
        }
      ],
      "stateMutability": "view",
      "type": "function"
    },
    {
      "inputs": [],
      "name": "getListBusiness",
      "outputs": [
        {
          "internalType": "address[]",
          "name": "",
          "type": "address[]"
        },
        {
          "internalType": "string[]",
          "name": "",
          "type": "string[]"
        },
        {
          "internalType": "string[]",
          "name": "",
          "type": "string[]"
        },
        {
          "internalType": "string[]",
          "name": "",
          "type": "string[]"
        },
        {
          "internalType": "string[]",
          "name": "",
          "type": "string[]"
        },
        {
          "internalType": "string[]",
          "name": "",
          "type": "string[]"
        },
        {
          "internalType": "string[]",
          "name": "",
          "type": "string[]"
        },
        {
          "internalType": "string[]",
          "name": "",
          "type": "string[]"
        }
      ],
      "stateMutability": "view",
      "type": "function"
    },
    {
      "inputs": [
        {
          "internalType": "address",
          "name": "_businessOwner",
          "type": "address"
        }
      ],
      "name": "getRecruit",
      "outputs": [
        {
          "internalType": "bytes32[]",
          "name": "",
          "type": "bytes32[]"
        },
        {
          "internalType": "string[]",
          "name": "",
          "type": "string[]"
        },
        {
          "internalType": "string[]",
          "name": "",
          "type": "string[]"
        },
        {
          "internalType": "string[]",
          "name": "",
          "type": "string[]"
        },
        {
          "internalType": "uint256[]",
          "name": "",
          "type": "uint256[]"
        }
      ],
      "stateMutability": "view",
      "type": "function"
    },
    {
      "inputs": [
        {
          "internalType": "address",
          "name": "_studentOwner",
          "type": "address"
        },
        {
          "internalType": "address",
          "name": "_businessOwner",
          "type": "address"
        },
        {
          "internalType": "string",
          "name": "_jobTitle",
          "type": "string"
        },
        {
          "internalType": "string",
          "name": "_coverLetter",
          "type": "string"
        }
      ],
      "name": "sendCV",
      "outputs": [],
      "stateMutability": "nonpayable",
      "type": "function"
    },
    {
      "inputs": [
        {
          "internalType": "address",
          "name": "_studentOwner",
          "type": "address"
        },
        {
          "internalType": "address",
          "name": "_businessOwner",
          "type": "address"
        },
        {
          "internalType": "string",
          "name": "_jobTitle",
          "type": "string"
        }
      ],
      "name": "checkCV",
      "outputs": [
        {
          "internalType": "uint256",
          "name": "x",
          "type": "uint256"
        }
      ],
      "stateMutability": "view",
      "type": "function"
    },
    {
      "inputs": [
        {
          "internalType": "address",
          "name": "_studentOwner",
          "type": "address"
        },
        {
          "internalType": "address",
          "name": "_businessOwner",
          "type": "address"
        }
      ],
      "name": "getReview",
      "outputs": [
        {
          "internalType": "address",
          "name": "studentOwner",
          "type": "address"
        },
        {
          "internalType": "address",
          "name": "businessOwner",
          "type": "address"
        },
        {
          "internalType": "string",
          "name": "content",
          "type": "string"
        }
      ],
      "stateMutability": "view",
      "type": "function"
    },
    {
      "inputs": [
        {
          "internalType": "address",
          "name": "_businessOwner",
          "type": "address"
        },
        {
          "internalType": "string",
          "name": "_name",
          "type": "string"
        },
        {
          "internalType": "string",
          "name": "_country",
          "type": "string"
        },
        {
          "internalType": "string",
          "name": "_facebook",
          "type": "string"
        },
        {
          "internalType": "string",
          "name": "_website",
          "type": "string"
        },
        {
          "internalType": "string",
          "name": "_linkedin",
          "type": "string"
        },
        {
          "internalType": "string",
          "name": "_focusArea",
          "type": "string"
        },
        {
          "internalType": "string",
          "name": "_password",
          "type": "string"
        }
      ],
      "name": "addBusinessProfile",
      "outputs": [],
      "stateMutability": "nonpayable",
      "type": "function"
    },
    {
      "inputs": [
        {
          "internalType": "address",
          "name": "_businessOwner",
          "type": "address"
        },
        {
          "internalType": "string",
          "name": "_name",
          "type": "string"
        },
        {
          "internalType": "string",
          "name": "_country",
          "type": "string"
        },
        {
          "internalType": "string",
          "name": "_facebook",
          "type": "string"
        },
        {
          "internalType": "string",
          "name": "_website",
          "type": "string"
        },
        {
          "internalType": "string",
          "name": "_linkedin",
          "type": "string"
        },
        {
          "internalType": "string",
          "name": "_focusArea",
          "type": "string"
        }
      ],
      "name": "editBusinessProfile",
      "outputs": [],
      "stateMutability": "nonpayable",
      "type": "function"
    },
    {
      "inputs": [
        {
          "internalType": "address",
          "name": "_businessOwner",
          "type": "address"
        }
      ],
      "name": "getBusinessProfile",
      "outputs": [
        {
          "internalType": "address",
          "name": "businessOwner",
          "type": "address"
        },
        {
          "internalType": "string",
          "name": "name",
          "type": "string"
        },
        {
          "internalType": "string",
          "name": "country",
          "type": "string"
        },
        {
          "internalType": "string",
          "name": "facebook",
          "type": "string"
        },
        {
          "internalType": "string",
          "name": "website",
          "type": "string"
        },
        {
          "internalType": "string",
          "name": "linkedin",
          "type": "string"
        },
        {
          "internalType": "string",
          "name": "focusArea",
          "type": "string"
        }
      ],
      "stateMutability": "view",
      "type": "function"
    },
    {
      "inputs": [
        {
          "internalType": "address",
          "name": "_businessOwner",
          "type": "address"
        },
        {
          "internalType": "string",
          "name": "_password",
          "type": "string"
        }
      ],
      "name": "checkBusinessProfile",
      "outputs": [
        {
          "internalType": "uint256",
          "name": "",
          "type": "uint256"
        }
      ],
      "stateMutability": "view",
      "type": "function"
    },
    {
      "inputs": [
        {
          "internalType": "address",
          "name": "_businessOwner",
          "type": "address"
        }
      ],
      "name": "checkExistBusiness",
      "outputs": [
        {
          "internalType": "uint256",
          "name": "x",
          "type": "uint256"
        }
      ],
      "stateMutability": "view",
      "type": "function"
    },
    {
      "inputs": [
        {
          "internalType": "address",
          "name": "_businessOwner",
          "type": "address"
        }
      ],
      "name": "getListCV",
      "outputs": [
        {
          "internalType": "address[]",
          "name": "",
          "type": "address[]"
        },
        {
          "internalType": "address[]",
          "name": "",
          "type": "address[]"
        },
        {
          "internalType": "string[]",
          "name": "",
          "type": "string[]"
        },
        {
          "internalType": "string[]",
          "name": "",
          "type": "string[]"
        },
        {
          "internalType": "string[]",
          "name": "",
          "type": "string[]"
        }
      ],
      "stateMutability": "view",
      "type": "function"
    },
    {
      "inputs": [
        {
          "internalType": "address",
          "name": "_studentOwner",
          "type": "address"
        },
        {
          "internalType": "address",
          "name": "_businessOwner",
          "type": "address"
        },
        {
          "internalType": "string",
          "name": "_jobTitle",
          "type": "string"
        },
        {
          "internalType": "string",
          "name": "_statusCV",
          "type": "string"
        }
      ],
      "name": "interviewCV",
      "outputs": [],
      "stateMutability": "nonpayable",
      "type": "function"
    },
    {
      "inputs": [
        {
          "internalType": "address",
          "name": "_studentOwner",
          "type": "address"
        },
        {
          "internalType": "address",
          "name": "_businessOwner",
          "type": "address"
        },
        {
          "internalType": "string",
          "name": "_jobTitle",
          "type": "string"
        },
        {
          "internalType": "string",
          "name": "_statusCV",
          "type": "string"
        }
      ],
      "name": "onboardCV",
      "outputs": [],
      "stateMutability": "nonpayable",
      "type": "function"
    },
    {
      "inputs": [
        {
          "internalType": "address",
          "name": "_businessOwner",
          "type": "address"
        },
        {
          "internalType": "string",
          "name": "_jobTitle",
          "type": "string"
        },
        {
          "internalType": "string",
          "name": "_jobDescription",
          "type": "string"
        },
        {
          "internalType": "string",
          "name": "_recruitDate",
          "type": "string"
        },
        {
          "internalType": "uint256",
          "name": "_amount",
          "type": "uint256"
        }
      ],
      "name": "addRecruit",
      "outputs": [],
      "stateMutability": "nonpayable",
      "type": "function"
    },
    {
      "inputs": [
        {
          "internalType": "address",
          "name": "_businessOwner",
          "type": "address"
        },
        {
          "internalType": "string",
          "name": "_jobTitle",
          "type": "string"
        },
        {
          "internalType": "string",
          "name": "_recruitDate",
          "type": "string"
        }
      ],
      "name": "checkAmountBusinessRecruit",
      "outputs": [
        {
          "internalType": "uint256",
          "name": "x",
          "type": "uint256"
        }
      ],
      "stateMutability": "view",
      "type": "function"
    },
    {
      "inputs": [
        {
          "internalType": "address",
          "name": "_studentOwner",
          "type": "address"
        },
        {
          "internalType": "address",
          "name": "_businessOwner",
          "type": "address"
        },
        {
          "internalType": "string",
          "name": "_content",
          "type": "string"
        }
      ],
      "name": "sendReview",
      "outputs": [],
      "stateMutability": "nonpayable",
      "type": "function"
    },
    {
      "inputs": [
        {
          "internalType": "address",
          "name": "_iigOwner",
          "type": "address"
        },
        {
          "internalType": "string",
          "name": "_name",
          "type": "string"
        },
        {
          "internalType": "string",
          "name": "_country",
          "type": "string"
        },
        {
          "internalType": "string",
          "name": "_facebook",
          "type": "string"
        },
        {
          "internalType": "string",
          "name": "_website",
          "type": "string"
        },
        {
          "internalType": "string",
          "name": "_linkedin",
          "type": "string"
        },
        {
          "internalType": "string",
          "name": "_password",
          "type": "string"
        }
      ],
      "name": "addIIGProfile",
      "outputs": [],
      "stateMutability": "nonpayable",
      "type": "function"
    },
    {
      "inputs": [
        {
          "internalType": "address",
          "name": "_iigOwner",
          "type": "address"
        },
        {
          "internalType": "string",
          "name": "_name",
          "type": "string"
        },
        {
          "internalType": "string",
          "name": "_country",
          "type": "string"
        },
        {
          "internalType": "string",
          "name": "_facebook",
          "type": "string"
        },
        {
          "internalType": "string",
          "name": "_website",
          "type": "string"
        },
        {
          "internalType": "string",
          "name": "_linkedin",
          "type": "string"
        }
      ],
      "name": "editIIGProfile",
      "outputs": [],
      "stateMutability": "nonpayable",
      "type": "function"
    },
    {
      "inputs": [],
      "name": "getListIIG",
      "outputs": [
        {
          "internalType": "address[]",
          "name": "",
          "type": "address[]"
        },
        {
          "internalType": "string[]",
          "name": "",
          "type": "string[]"
        },
        {
          "internalType": "string[]",
          "name": "",
          "type": "string[]"
        },
        {
          "internalType": "string[]",
          "name": "",
          "type": "string[]"
        },
        {
          "internalType": "string[]",
          "name": "",
          "type": "string[]"
        },
        {
          "internalType": "string[]",
          "name": "",
          "type": "string[]"
        },
        {
          "internalType": "string[]",
          "name": "",
          "type": "string[]"
        }
      ],
      "stateMutability": "view",
      "type": "function"
    },
    {
      "inputs": [
        {
          "internalType": "address",
          "name": "_iigOwner",
          "type": "address"
        }
      ],
      "name": "getIIGProfile",
      "outputs": [
        {
          "internalType": "address",
          "name": "iigOwner",
          "type": "address"
        },
        {
          "internalType": "string",
          "name": "name",
          "type": "string"
        },
        {
          "internalType": "string",
          "name": "country",
          "type": "string"
        },
        {
          "internalType": "string",
          "name": "facebook",
          "type": "string"
        },
        {
          "internalType": "string",
          "name": "website",
          "type": "string"
        },
        {
          "internalType": "string",
          "name": "linkedin",
          "type": "string"
        }
      ],
      "stateMutability": "view",
      "type": "function"
    },
    {
      "inputs": [
        {
          "internalType": "address",
          "name": "_iigOwner",
          "type": "address"
        },
        {
          "internalType": "string",
          "name": "_password",
          "type": "string"
        }
      ],
      "name": "checkIIGProfile",
      "outputs": [
        {
          "internalType": "uint256",
          "name": "",
          "type": "uint256"
        }
      ],
      "stateMutability": "view",
      "type": "function"
    },
    {
      "inputs": [
        {
          "internalType": "address",
          "name": "_iigOwner",
          "type": "address"
        }
      ],
      "name": "checkExistIIG",
      "outputs": [
        {
          "internalType": "uint256",
          "name": "x",
          "type": "uint256"
        }
      ],
      "stateMutability": "view",
      "type": "function"
    },
    {
      "inputs": [
        {
          "internalType": "address",
          "name": "_studentOwner",
          "type": "address"
        },
        {
          "internalType": "address",
          "name": "_iigOwner",
          "type": "address"
        },
        {
          "internalType": "string",
          "name": "_identityCard",
          "type": "string"
        },
        {
          "internalType": "string",
          "name": "_requestDate",
          "type": "string"
        }
      ],
      "name": "sendIIGRequest",
      "outputs": [],
      "stateMutability": "nonpayable",
      "type": "function"
    },
    {
      "inputs": [
        {
          "internalType": "address",
          "name": "_iigOwner",
          "type": "address"
        }
      ],
      "name": "getListIIGRequest",
      "outputs": [
        {
          "internalType": "bytes4[]",
          "name": "",
          "type": "bytes4[]"
        },
        {
          "internalType": "address[]",
          "name": "",
          "type": "address[]"
        },
        {
          "internalType": "address[]",
          "name": "",
          "type": "address[]"
        },
        {
          "internalType": "string[]",
          "name": "",
          "type": "string[]"
        },
        {
          "internalType": "string[]",
          "name": "",
          "type": "string[]"
        },
        {
          "internalType": "string[]",
          "name": "",
          "type": "string[]"
        }
      ],
      "stateMutability": "view",
      "type": "function"
    },
    {
      "inputs": [
        {
          "internalType": "address",
          "name": "_iigOwner",
          "type": "address"
        },
        {
          "internalType": "address",
          "name": "_studentOwner",
          "type": "address"
        }
      ],
      "name": "getListIIGRequestStudent",
      "outputs": [
        {
          "internalType": "bytes4[]",
          "name": "",
          "type": "bytes4[]"
        },
        {
          "internalType": "address[]",
          "name": "",
          "type": "address[]"
        },
        {
          "internalType": "address[]",
          "name": "",
          "type": "address[]"
        },
        {
          "internalType": "string[]",
          "name": "",
          "type": "string[]"
        },
        {
          "internalType": "string[]",
          "name": "",
          "type": "string[]"
        },
        {
          "internalType": "string[]",
          "name": "",
          "type": "string[]"
        }
      ],
      "stateMutability": "view",
      "type": "function"
    },
    {
      "inputs": [
        {
          "internalType": "address",
          "name": "_studentOwner",
          "type": "address"
        },
        {
          "internalType": "address",
          "name": "_iigOwner",
          "type": "address"
        },
        {
          "internalType": "bytes4",
          "name": "_codeRequest",
          "type": "bytes4"
        },
        {
          "internalType": "string",
          "name": "_statusRequest",
          "type": "string"
        }
      ],
      "name": "confirmIIGRequest",
      "outputs": [],
      "stateMutability": "nonpayable",
      "type": "function"
    },
    {
      "inputs": [
        {
          "internalType": "address",
          "name": "_iigOwner",
          "type": "address"
        },
        {
          "internalType": "address",
          "name": "_studentOwner",
          "type": "address"
        },
        {
          "internalType": "string",
          "name": "_testDate",
          "type": "string"
        },
        {
          "internalType": "string",
          "name": "_shiftTest",
          "type": "string"
        },
        {
          "internalType": "string",
          "name": "_expireDate",
          "type": "string"
        },
        {
          "internalType": "uint256",
          "name": "_listeningScore",
          "type": "uint256"
        },
        {
          "internalType": "uint256",
          "name": "_readingScore",
          "type": "uint256"
        }
      ],
      "name": "addIIGLRResult",
      "outputs": [],
      "stateMutability": "nonpayable",
      "type": "function"
    },
    {
      "inputs": [
        {
          "internalType": "address",
          "name": "_iigOwner",
          "type": "address"
        },
        {
          "internalType": "address",
          "name": "_studentOwner",
          "type": "address"
        },
        {
          "internalType": "string",
          "name": "_testDate",
          "type": "string"
        },
        {
          "internalType": "string",
          "name": "_shiftTest",
          "type": "string"
        },
        {
          "internalType": "string",
          "name": "_expireDate",
          "type": "string"
        },
        {
          "internalType": "uint256",
          "name": "_speakingScore",
          "type": "uint256"
        },
        {
          "internalType": "uint256",
          "name": "_writingScore",
          "type": "uint256"
        }
      ],
      "name": "addIIGSWResult",
      "outputs": [],
      "stateMutability": "nonpayable",
      "type": "function"
    },
    {
      "inputs": [
        {
          "internalType": "address",
          "name": "_iigOwner",
          "type": "address"
        },
        {
          "internalType": "address",
          "name": "_studentOwner",
          "type": "address"
        }
      ],
      "name": "getListIIGLRResult",
      "outputs": [
        {
          "internalType": "string[]",
          "name": "",
          "type": "string[]"
        },
        {
          "internalType": "string[]",
          "name": "",
          "type": "string[]"
        },
        {
          "internalType": "string[]",
          "name": "",
          "type": "string[]"
        },
        {
          "internalType": "uint256[]",
          "name": "",
          "type": "uint256[]"
        },
        {
          "internalType": "uint256[]",
          "name": "",
          "type": "uint256[]"
        },
        {
          "internalType": "uint256[]",
          "name": "",
          "type": "uint256[]"
        }
      ],
      "stateMutability": "view",
      "type": "function"
    },
    {
      "inputs": [
        {
          "internalType": "address",
          "name": "_iigOwner",
          "type": "address"
        },
        {
          "internalType": "address",
          "name": "_studentOwner",
          "type": "address"
        }
      ],
      "name": "getListIIGSWResult",
      "outputs": [
        {
          "internalType": "string[]",
          "name": "",
          "type": "string[]"
        },
        {
          "internalType": "string[]",
          "name": "",
          "type": "string[]"
        },
        {
          "internalType": "string[]",
          "name": "",
          "type": "string[]"
        },
        {
          "internalType": "uint256[]",
          "name": "",
          "type": "uint256[]"
        },
        {
          "internalType": "uint256[]",
          "name": "",
          "type": "uint256[]"
        },
        {
          "internalType": "uint256[]",
          "name": "",
          "type": "uint256[]"
        }
      ],
      "stateMutability": "view",
      "type": "function"
    },
    {
      "inputs": [
        {
          "internalType": "address",
          "name": "_iigOwner",
          "type": "address"
        },
        {
          "internalType": "address",
          "name": "_studentOwner",
          "type": "address"
        },
        {
          "internalType": "string",
          "name": "_testDate",
          "type": "string"
        },
        {
          "internalType": "string",
          "name": "_shiftTest",
          "type": "string"
        }
      ],
      "name": "getIIGLRResult",
      "outputs": [
        {
          "internalType": "string",
          "name": "testDate",
          "type": "string"
        },
        {
          "internalType": "string",
          "name": "shiftTest",
          "type": "string"
        },
        {
          "internalType": "string",
          "name": "expireDate",
          "type": "string"
        },
        {
          "internalType": "uint256",
          "name": "listeningScore",
          "type": "uint256"
        },
        {
          "internalType": "uint256",
          "name": "readingScore",
          "type": "uint256"
        },
        {
          "internalType": "uint256",
          "name": "totalScore",
          "type": "uint256"
        }
      ],
      "stateMutability": "view",
      "type": "function"
    },
    {
      "inputs": [
        {
          "internalType": "address",
          "name": "_iigOwner",
          "type": "address"
        },
        {
          "internalType": "address",
          "name": "_studentOwner",
          "type": "address"
        },
        {
          "internalType": "string",
          "name": "_testDate",
          "type": "string"
        },
        {
          "internalType": "string",
          "name": "_shiftTest",
          "type": "string"
        }
      ],
      "name": "getIIGSWResult",
      "outputs": [
        {
          "internalType": "string",
          "name": "testDate",
          "type": "string"
        },
        {
          "internalType": "string",
          "name": "shiftTest",
          "type": "string"
        },
        {
          "internalType": "string",
          "name": "expireDate",
          "type": "string"
        },
        {
          "internalType": "uint256",
          "name": "speakingScore",
          "type": "uint256"
        },
        {
          "internalType": "uint256",
          "name": "writingScore",
          "type": "uint256"
        },
        {
          "internalType": "uint256",
          "name": "totalScore",
          "type": "uint256"
        }
      ],
      "stateMutability": "view",
      "type": "function"
    }
  ],
  "bytecode": "0x60806040526040516200001290620001c7565b604051809103906000f0801580156200002f573d6000803e3d6000fd5b506000806101000a81548173ffffffffffffffffffffffffffffffffffffffff021916908373ffffffffffffffffffffffffffffffffffffffff1602179055506040516200007d90620001d5565b604051809103906000f0801580156200009a573d6000803e3d6000fd5b50600160006101000a81548173ffffffffffffffffffffffffffffffffffffffff021916908373ffffffffffffffffffffffffffffffffffffffff160217905550604051620000e990620001e3565b604051809103906000f08015801562000106573d6000803e3d6000fd5b50600260006101000a81548173ffffffffffffffffffffffffffffffffffffffff021916908373ffffffffffffffffffffffffffffffffffffffff1602179055506040516200015590620001f1565b604051809103906000f08015801562000172573d6000803e3d6000fd5b50600360006101000a81548173ffffffffffffffffffffffffffffffffffffffff021916908373ffffffffffffffffffffffffffffffffffffffff160217905550348015620001c057600080fd5b50620001ff565b6145ae8062005a8a83390190565b612630806200a03883390190565b616bb8806200c66883390190565b612f69806201322083390190565b61587b806200020f6000396000f3fe608060405234801561001057600080fd5b50600436106102895760003560e01c806376a9409f1161015c578063bc10454b116100ce578063e9daa70a11610087578063e9daa70a146108ed578063f1eb24311461091f578063f4b7ec971461093b578063f7a7394c1461096b578063f7a7b83d14610987578063fe761783146109a357610289565b8063bc10454b146107e7578063ce1ec5bb14610817578063d2f9858f1461084b578063e283272114610880578063e2f43af21461089c578063e70c789c146108b857610289565b8063873dcd2911610120578063873dcd29146106cd57806391b9e6db146106fd5780639cd3258214610719578063a2e472391461074d578063a3e7ae2814610782578063acf6f3fd146107b757610289565b806376a9409f14610620578063798fc53b146106555780637e211fc514610671578063844bb4601461068d57806384ae9131146106a957610289565b806335c77f851161020057806357824f16116101b957806357824f16146105415780636389721614610566578063638f64f5146105825780636b4dbb28146105b75780636d53448f146105e85780636f57524c1461060457610289565b806335c77f851461042b57806339d92c4c1461045b578063415db9551461048b57806342f08d4b146104bf57806344fd6e22146104f55780634e1f4f821461052557610289565b80631632dd98116102525780631632dd981461036f57806319ad872f1461038b578063241c67a9146103a757806324c5f368146103c35780632df96bfc146103df578063313604e71461040f57610289565b80624e56cf1461028e5780630299779f146102aa5780630ac68f37146102da5780630e966efd1461030a57806311345a201461033f575b600080fd5b6102a860048036038101906102a39190612b23565b6109db565b005b6102c460048036038101906102bf9190612bc2565b610a73565b6040516102d19190612c4a565b60405180910390f35b6102f460048036038101906102ef9190612c65565b610b1e565b6040516103019190612c4a565b60405180910390f35b610324600480360381019061031f9190612cc1565b610bc5565b60405161033696959493929190612fe0565b60405180910390f35b61035960048036038101906103549190612cc1565b610c84565b6040516103669190612c4a565b60405180910390f35b61038960048036038101906103849190612bc2565b610d28565b005b6103a560048036038101906103a09190613097565b610dbe565b005b6103c160048036038101906103bc91906131b9565b610e5f565b005b6103dd60048036038101906103d8919061323c565b610ef8565b005b6103f960048036038101906103f49190612cc1565b610f97565b6040516104069190612c4a565b60405180910390f35b6104296004803603810190610424919061323c565b611050565b005b61044560048036038101906104409190612c65565b6110ed565b6040516104529190612c4a565b60405180910390f35b61047560048036038101906104709190612cc1565b611195565b6040516104829190612c4a565b60405180910390f35b6104a560048036038101906104a09190612cc1565b61123a565b6040516104b6959493929190613355565b60405180910390f35b6104d960048036038101906104d49190612cc1565b6112f4565b6040516104ec9796959493929190613424565b60405180910390f35b61050f600480360381019061050a9190612cc1565b6113b9565b60405161051c9190612c4a565b60405180910390f35b61053f600480360381019061053a9190612b23565b61145e565b005b6105496114f7565b60405161055d9897969594939291906134bd565b60405180910390f35b610580600480360381019061057b9190613573565b6115b3565b005b61059c60048036038101906105979190612b23565b611656565b6040516105ae969594939291906136ed565b60405180910390f35b6105d160048036038101906105cc9190612cc1565b611720565b6040516105df929190613821565b60405180910390f35b61060260048036038101906105fd9190613573565b6117cb565b005b61061e60048036038101906106199190613858565b611870565b005b61063a600480360381019061063591906139a2565b611912565b60405161064c969594939291906139e2565b60405180910390f35b61066f600480360381019061066a919061323c565b6119d4565b005b61068b60048036038101906106869190613097565b611a71565b005b6106a760048036038101906106a29190612b23565b611b13565b005b6106b1611bac565b6040516106c49796959493929190613a6d565b60405180910390f35b6106e760048036038101906106e29190612c65565b611c64565b6040516106f49190612c4a565b60405180910390f35b61071760048036038101906107129190612b23565b611d0c565b005b610733600480360381019061072e9190612cc1565b611da5565b604051610744959493929190613b0d565b60405180910390f35b61076760048036038101906107629190612b23565b611e61565b604051610779969594939291906136ed565b60405180910390f35b61079c600480360381019061079791906139a2565b611f2b565b6040516107ae96959493929190612fe0565b60405180910390f35b6107d160048036038101906107cc9190612c65565b611fed565b6040516107de9190612c4a565b60405180910390f35b61080160048036038101906107fc9190613b83565b612094565b60405161080e9190612c4a565b60405180910390f35b610831600480360381019061082c9190612cc1565b61213e565b604051610842959493929190613cd6565b60405180910390f35b61086560048036038101906108609190612cc1565b6121fa565b60405161087796959493929190613d4c565b60405180910390f35b61089a60048036038101906108959190613858565b6122ba565b005b6108b660048036038101906108b19190613dd0565b61235c565b005b6108d260048036038101906108cd91906139a2565b6123f0565b6040516108e4969594939291906139e2565b60405180910390f35b610907600480360381019061090291906139a2565b6124b2565b60405161091693929190613e3f565b60405180910390f35b61093960048036038101906109349190613dd0565b612567565b005b61095560048036038101906109509190613b83565b6125fb565b6040516109629190612c4a565b60405180910390f35b61098560048036038101906109809190613e7d565b61275d565b005b6109a1600480360381019061099c9190614027565b612803565b005b6109bd60048036038101906109b89190612cc1565b61289f565b6040516109d2999897969594939291906140f6565b60405180910390f35b600360009054906101000a900473ffffffffffffffffffffffffffffffffffffffff1673ffffffffffffffffffffffffffffffffffffffff16624e56cf858585856040518563ffffffff1660e01b8152600401610a3b94939291906141bb565b600060405180830381600087803b158015610a5557600080fd5b505af1158015610a69573d6000803e3d6000fd5b5050505050505050565b6000600360009054906101000a900473ffffffffffffffffffffffffffffffffffffffff1673ffffffffffffffffffffffffffffffffffffffff16630299779f8585856040518463ffffffff1660e01b8152600401610ad493929190613e3f565b602060405180830381865afa158015610af1573d6000803e3d6000fd5b505050506040513d601f19601f82011682018060405250810190610b159190614223565b90509392505050565b60008060009054906101000a900473ffffffffffffffffffffffffffffffffffffffff1673ffffffffffffffffffffffffffffffffffffffff1663716b5ab484846040518363ffffffff1660e01b8152600401610b7c929190614250565b602060405180830381865afa158015610b99573d6000803e3d6000fd5b505050506040513d601f19601f82011682018060405250810190610bbd9190614223565b905092915050565b606080606080606080600260009054906101000a900473ffffffffffffffffffffffffffffffffffffffff1673ffffffffffffffffffffffffffffffffffffffff16639fa7247a886040518263ffffffff1660e01b8152600401610c299190614280565b600060405180830381865afa158015610c46573d6000803e3d6000fd5b505050506040513d6000823e3d601f19601f82011682018060405250810190610c6f91906145a1565b95509550955095509550955091939550919395565b60008060009054906101000a900473ffffffffffffffffffffffffffffffffffffffff1673ffffffffffffffffffffffffffffffffffffffff1663961ecb5b836040518263ffffffff1660e01b8152600401610ce09190614280565b602060405180830381865afa158015610cfd573d6000803e3d6000fd5b505050506040513d601f19601f82011682018060405250810190610d219190614223565b9050919050565b600360009054906101000a900473ffffffffffffffffffffffffffffffffffffffff1673ffffffffffffffffffffffffffffffffffffffff1663ae8f00d38484846040518463ffffffff1660e01b8152600401610d8793929190613e3f565b600060405180830381600087803b158015610da157600080fd5b505af1158015610db5573d6000803e3d6000fd5b50505050505050565b600260009054906101000a900473ffffffffffffffffffffffffffffffffffffffff1673ffffffffffffffffffffffffffffffffffffffff1662220cf7888888888888886040518863ffffffff1660e01b8152600401610e2497969594939291906146d6565b600060405180830381600087803b158015610e3e57600080fd5b505af1158015610e52573d6000803e3d6000fd5b5050505050505050505050565b600260009054906101000a900473ffffffffffffffffffffffffffffffffffffffff1673ffffffffffffffffffffffffffffffffffffffff1663b351d176858585856040518563ffffffff1660e01b8152600401610ec09493929190614769565b600060405180830381600087803b158015610eda57600080fd5b505af1158015610eee573d6000803e3d6000fd5b5050505050505050565b600260009054906101000a900473ffffffffffffffffffffffffffffffffffffffff1673ffffffffffffffffffffffffffffffffffffffff16636cf871df8787878787876040518763ffffffff1660e01b8152600401610f5d96959493929190613d4c565b600060405180830381600087803b158015610f7757600080fd5b505af1158015610f8b573d6000803e3d6000fd5b50505050505050505050565b60008060008054906101000a900473ffffffffffffffffffffffffffffffffffffffff1673ffffffffffffffffffffffffffffffffffffffff16638e891393846040518263ffffffff1660e01b8152600401610ff39190614280565b602060405180830381865afa158015611010573d6000803e3d6000fd5b505050506040513d601f19601f820116820180604052508101906110349190614223565b9050600a81111561104957600191505061104b565b505b919050565b60008054906101000a900473ffffffffffffffffffffffffffffffffffffffff1673ffffffffffffffffffffffffffffffffffffffff1663dcc453528787878787876040518763ffffffff1660e01b81526004016110b396959493929190613d4c565b600060405180830381600087803b1580156110cd57600080fd5b505af11580156110e1573d6000803e3d6000fd5b50505050505050505050565b6000600160009054906101000a900473ffffffffffffffffffffffffffffffffffffffff1673ffffffffffffffffffffffffffffffffffffffff1663a7dba18484846040518363ffffffff1660e01b815260040161114c929190614250565b602060405180830381865afa158015611169573d6000803e3d6000fd5b505050506040513d601f19601f8201168201806040525081019061118d9190614223565b905092915050565b6000600160009054906101000a900473ffffffffffffffffffffffffffffffffffffffff1673ffffffffffffffffffffffffffffffffffffffff1663c6fe410a836040518263ffffffff1660e01b81526004016111f29190614280565b602060405180830381865afa15801561120f573d6000803e3d6000fd5b505050506040513d601f19601f820116820180604052508101906112339190614223565b9050919050565b606080606080606060008054906101000a900473ffffffffffffffffffffffffffffffffffffffff1673ffffffffffffffffffffffffffffffffffffffff16638ce211bc876040518263ffffffff1660e01b815260040161129b9190614280565b600060405180830381865afa1580156112b8573d6000803e3d6000fd5b505050506040513d6000823e3d601f19601f820116820180604052508101906112e191906147b5565b9450945094509450945091939590929450565b6000606080606080606080600160009054906101000a900473ffffffffffffffffffffffffffffffffffffffff1673ffffffffffffffffffffffffffffffffffffffff16630f53a470896040518263ffffffff1660e01b815260040161135a9190614280565b600060405180830381865afa158015611377573d6000803e3d6000fd5b505050506040513d6000823e3d601f19601f820116820180604052508101906113a091906148bc565b9650965096509650965096509650919395979092949650565b6000600260009054906101000a900473ffffffffffffffffffffffffffffffffffffffff1673ffffffffffffffffffffffffffffffffffffffff166344fd6e22836040518263ffffffff1660e01b81526004016114169190614280565b602060405180830381865afa158015611433573d6000803e3d6000fd5b505050506040513d601f19601f820116820180604052508101906114579190614223565b9050919050565b600260009054906101000a900473ffffffffffffffffffffffffffffffffffffffff1673ffffffffffffffffffffffffffffffffffffffff1663948195ed858585856040518563ffffffff1660e01b81526004016114bf94939291906141bb565b600060405180830381600087803b1580156114d957600080fd5b505af11580156114ed573d6000803e3d6000fd5b5050505050505050565b606080606080606080606080600160009054906101000a900473ffffffffffffffffffffffffffffffffffffffff1673ffffffffffffffffffffffffffffffffffffffff1663cfafbc0c6040518163ffffffff1660e01b8152600401600060405180830381865afa158015611570573d6000803e3d6000fd5b505050506040513d6000823e3d601f19601f820116820180604052508101906115999190614a06565b975097509750975097509750975097509091929394959697565b60008054906101000a900473ffffffffffffffffffffffffffffffffffffffff1673ffffffffffffffffffffffffffffffffffffffff1663b24f701689898989898989896040518963ffffffff1660e01b815260040161161a989796959493929190614b9c565b600060405180830381600087803b15801561163457600080fd5b505af1158015611648573d6000803e3d6000fd5b505050505050505050505050565b60608060606000806000600260009054906101000a900473ffffffffffffffffffffffffffffffffffffffff1673ffffffffffffffffffffffffffffffffffffffff1663ac97812f8b8b8b8b6040518563ffffffff1660e01b81526004016116c194939291906141bb565b600060405180830381865afa1580156116de573d6000803e3d6000fd5b505050506040513d6000823e3d601f19601f820116820180604052508101906117079190614c4b565b9550955095509550955095509499939850945094509450565b60608060008054906101000a900473ffffffffffffffffffffffffffffffffffffffff1673ffffffffffffffffffffffffffffffffffffffff1663ac4b2049846040518263ffffffff1660e01b815260040161177c9190614280565b600060405180830381865afa158015611799573d6000803e3d6000fd5b505050506040513d6000823e3d601f19601f820116820180604052508101906117c29190614def565b91509150915091565b600160009054906101000a900473ffffffffffffffffffffffffffffffffffffffff1673ffffffffffffffffffffffffffffffffffffffff1663e045b71089898989898989896040518963ffffffff1660e01b8152600401611834989796959493929190614b9c565b600060405180830381600087803b15801561184e57600080fd5b505af1158015611862573d6000803e3d6000fd5b505050505050505050505050565b600160009054906101000a900473ffffffffffffffffffffffffffffffffffffffff1673ffffffffffffffffffffffffffffffffffffffff166323b6d993888888888888886040518863ffffffff1660e01b81526004016118d79796959493929190613424565b600060405180830381600087803b1580156118f157600080fd5b505af1158015611905573d6000803e3d6000fd5b5050505050505050505050565b606080606080606080600260009054906101000a900473ffffffffffffffffffffffffffffffffffffffff1673ffffffffffffffffffffffffffffffffffffffff1663bc72af7d89896040518363ffffffff1660e01b8152600401611978929190614e67565b600060405180830381865afa158015611995573d6000803e3d6000fd5b505050506040513d6000823e3d601f19601f820116820180604052508101906119be9190614e90565b9550955095509550955095509295509295509295565b60008054906101000a900473ffffffffffffffffffffffffffffffffffffffff1673ffffffffffffffffffffffffffffffffffffffff16633d746f0a8787878787876040518763ffffffff1660e01b8152600401611a3796959493929190613d4c565b600060405180830381600087803b158015611a5157600080fd5b505af1158015611a65573d6000803e3d6000fd5b50505050505050505050565b600260009054906101000a900473ffffffffffffffffffffffffffffffffffffffff1673ffffffffffffffffffffffffffffffffffffffff1663d23a4ee1888888888888886040518863ffffffff1660e01b8152600401611ad897969594939291906146d6565b600060405180830381600087803b158015611af257600080fd5b505af1158015611b06573d6000803e3d6000fd5b5050505050505050505050565b600360009054906101000a900473ffffffffffffffffffffffffffffffffffffffff1673ffffffffffffffffffffffffffffffffffffffff1663844bb460858585856040518563ffffffff1660e01b8152600401611b7494939291906141bb565b600060405180830381600087803b158015611b8e57600080fd5b505af1158015611ba2573d6000803e3d6000fd5b5050505050505050565b6060806060806060806060600260009054906101000a900473ffffffffffffffffffffffffffffffffffffffff1673ffffffffffffffffffffffffffffffffffffffff166384ae91316040518163ffffffff1660e01b8152600401600060405180830381865afa158015611c24573d6000803e3d6000fd5b505050506040513d6000823e3d601f19601f82011682018060405250810190611c4d9190614fc5565b965096509650965096509650965090919293949596565b6000600260009054906101000a900473ffffffffffffffffffffffffffffffffffffffff1673ffffffffffffffffffffffffffffffffffffffff166324e6603784846040518363ffffffff1660e01b8152600401611cc3929190614250565b602060405180830381865afa158015611ce0573d6000803e3d6000fd5b505050506040513d601f19601f82011682018060405250810190611d049190614223565b905092915050565b600360009054906101000a900473ffffffffffffffffffffffffffffffffffffffff1673ffffffffffffffffffffffffffffffffffffffff1663dc1e475f858585856040518563ffffffff1660e01b8152600401611d6d94939291906141bb565b600060405180830381600087803b158015611d8757600080fd5b505af1158015611d9b573d6000803e3d6000fd5b5050505050505050565b6060806060806060600360009054906101000a900473ffffffffffffffffffffffffffffffffffffffff1673ffffffffffffffffffffffffffffffffffffffff1663381a3bf7876040518263ffffffff1660e01b8152600401611e089190614280565b600060405180830381865afa158015611e25573d6000803e3d6000fd5b505050506040513d6000823e3d601f19601f82011682018060405250810190611e4e919061512b565b9450945094509450945091939590929450565b60608060606000806000600260009054906101000a900473ffffffffffffffffffffffffffffffffffffffff1673ffffffffffffffffffffffffffffffffffffffff16634b38f2db8b8b8b8b6040518563ffffffff1660e01b8152600401611ecc94939291906141bb565b600060405180830381865afa158015611ee9573d6000803e3d6000fd5b505050506040513d6000823e3d601f19601f82011682018060405250810190611f129190614c4b565b9550955095509550955095509499939850945094509450565b606080606080606080600260009054906101000a900473ffffffffffffffffffffffffffffffffffffffff1673ffffffffffffffffffffffffffffffffffffffff16630c3f988289896040518363ffffffff1660e01b8152600401611f91929190614e67565b600060405180830381865afa158015611fae573d6000803e3d6000fd5b505050506040513d6000823e3d601f19601f82011682018060405250810190611fd791906145a1565b9550955095509550955095509295509295509295565b60008060009054906101000a900473ffffffffffffffffffffffffffffffffffffffff1673ffffffffffffffffffffffffffffffffffffffff1663174ceeab84846040518363ffffffff1660e01b815260040161204b929190614250565b602060405180830381865afa158015612068573d6000803e3d6000fd5b505050506040513d601f19601f8201168201806040525081019061208c9190614223565b905092915050565b60008060009054906101000a900473ffffffffffffffffffffffffffffffffffffffff1673ffffffffffffffffffffffffffffffffffffffff1663390363fe8585856040518463ffffffff1660e01b81526004016120f493929190615232565b602060405180830381865afa158015612111573d6000803e3d6000fd5b505050506040513d601f19601f820116820180604052508101906121359190614223565b90509392505050565b6060806060806060600360009054906101000a900473ffffffffffffffffffffffffffffffffffffffff1673ffffffffffffffffffffffffffffffffffffffff1663ce1ec5bb876040518263ffffffff1660e01b81526004016121a19190614280565b600060405180830381865afa1580156121be573d6000803e3d6000fd5b505050506040513d6000823e3d601f19601f820116820180604052508101906121e79190615366565b9450945094509450945091939590929450565b60006060806060806060600260009054906101000a900473ffffffffffffffffffffffffffffffffffffffff1673ffffffffffffffffffffffffffffffffffffffff16630f53a470886040518263ffffffff1660e01b815260040161225f9190614280565b600060405180830381865afa15801561227c573d6000803e3d6000fd5b505050506040513d6000823e3d601f19601f820116820180604052508101906122a5919061546d565b95509550955095509550955091939550919395565b600260009054906101000a900473ffffffffffffffffffffffffffffffffffffffff1673ffffffffffffffffffffffffffffffffffffffff1663dd8f3edc888888888888886040518863ffffffff1660e01b81526004016123219796959493929190613424565b600060405180830381600087803b15801561233b57600080fd5b505af115801561234f573d6000803e3d6000fd5b5050505050505050505050565b60008054906101000a900473ffffffffffffffffffffffffffffffffffffffff1673ffffffffffffffffffffffffffffffffffffffff166360ccb2048484846040518463ffffffff1660e01b81526004016123b993929190615586565b600060405180830381600087803b1580156123d357600080fd5b505af11580156123e7573d6000803e3d6000fd5b50505050505050565b606080606080606080600260009054906101000a900473ffffffffffffffffffffffffffffffffffffffff1673ffffffffffffffffffffffffffffffffffffffff166306ed1e8989896040518363ffffffff1660e01b8152600401612456929190614e67565b600060405180830381865afa158015612473573d6000803e3d6000fd5b505050506040513d6000823e3d601f19601f8201168201806040525081019061249c9190614e90565b9550955095509550955095509295509295509295565b6000806060600360009054906101000a900473ffffffffffffffffffffffffffffffffffffffff1673ffffffffffffffffffffffffffffffffffffffff1663e9daa70a86866040518363ffffffff1660e01b8152600401612514929190614e67565b600060405180830381865afa158015612531573d6000803e3d6000fd5b505050506040513d6000823e3d601f19601f8201168201806040525081019061255a91906155c4565b9250925092509250925092565b60008054906101000a900473ffffffffffffffffffffffffffffffffffffffff1673ffffffffffffffffffffffffffffffffffffffff1663a06b883d8484846040518463ffffffff1660e01b81526004016125c493929190615586565b600060405180830381600087803b1580156125de57600080fd5b505af11580156125f2573d6000803e3d6000fd5b50505050505050565b600080600360009054906101000a900473ffffffffffffffffffffffffffffffffffffffff1673ffffffffffffffffffffffffffffffffffffffff1663dae7debd866040518263ffffffff1660e01b81526004016126599190614280565b602060405180830381865afa158015612676573d6000803e3d6000fd5b505050506040513d601f19601f8201168201806040525081019061269a9190614223565b90506000600360009054906101000a900473ffffffffffffffffffffffffffffffffffffffff1673ffffffffffffffffffffffffffffffffffffffff166386b87ba28787876040518463ffffffff1660e01b81526004016126fd93929190615232565b602060405180830381865afa15801561271a573d6000803e3d6000fd5b505050506040513d601f19601f8201168201806040525081019061273e9190614223565b90508082111561275357600192505050612756565b50505b9392505050565b60008054906101000a900473ffffffffffffffffffffffffffffffffffffffff1673ffffffffffffffffffffffffffffffffffffffff1663804fcf138a8a8a8a8a8a8a8a8a6040518a63ffffffff1660e01b81526004016127c6999897969594939291906140f6565b600060405180830381600087803b1580156127e057600080fd5b505af11580156127f4573d6000803e3d6000fd5b50505050505050505050505050565b600360009054906101000a900473ffffffffffffffffffffffffffffffffffffffff1673ffffffffffffffffffffffffffffffffffffffff1663f7a7b83d86868686866040518663ffffffff1660e01b8152600401612866959493929190615633565b600060405180830381600087803b15801561288057600080fd5b505af1158015612894573d6000803e3d6000fd5b505050505050505050565b600060608060608060608060608060008054906101000a900473ffffffffffffffffffffffffffffffffffffffff1673ffffffffffffffffffffffffffffffffffffffff16630f53a4708b6040518263ffffffff1660e01b81526004016129069190614280565b600060405180830381865afa158015612923573d6000803e3d6000fd5b505050506040513d6000823e3d601f19601f8201168201806040525081019061294c919061569b565b9850985098509850985098509850985098509193959799909294969850565b6000604051905090565b600080fd5b600080fd5b600073ffffffffffffffffffffffffffffffffffffffff82169050919050565b60006129aa8261297f565b9050919050565b6129ba8161299f565b81146129c557600080fd5b50565b6000813590506129d7816129b1565b92915050565b600080fd5b600080fd5b6000601f19601f8301169050919050565b7f4e487b7100000000000000000000000000000000000000000000000000000000600052604160045260246000fd5b612a30826129e7565b810181811067ffffffffffffffff82111715612a4f57612a4e6129f8565b5b80604052505050565b6000612a6261296b565b9050612a6e8282612a27565b919050565b600067ffffffffffffffff821115612a8e57612a8d6129f8565b5b612a97826129e7565b9050602081019050919050565b82818337600083830152505050565b6000612ac6612ac184612a73565b612a58565b905082815260208101848484011115612ae257612ae16129e2565b5b612aed848285612aa4565b509392505050565b600082601f830112612b0a57612b096129dd565b5b8135612b1a848260208601612ab3565b91505092915050565b60008060008060808587031215612b3d57612b3c612975565b5b6000612b4b878288016129c8565b9450506020612b5c878288016129c8565b935050604085013567ffffffffffffffff811115612b7d57612b7c61297a565b5b612b8987828801612af5565b925050606085013567ffffffffffffffff811115612baa57612ba961297a565b5b612bb687828801612af5565b91505092959194509250565b600080600060608486031215612bdb57612bda612975565b5b6000612be9868287016129c8565b9350506020612bfa868287016129c8565b925050604084013567ffffffffffffffff811115612c1b57612c1a61297a565b5b612c2786828701612af5565b9150509250925092565b6000819050919050565b612c4481612c31565b82525050565b6000602082019050612c5f6000830184612c3b565b92915050565b60008060408385031215612c7c57612c7b612975565b5b6000612c8a858286016129c8565b925050602083013567ffffffffffffffff811115612cab57612caa61297a565b5b612cb785828601612af5565b9150509250929050565b600060208284031215612cd757612cd6612975565b5b6000612ce5848285016129c8565b91505092915050565b600081519050919050565b600082825260208201905092915050565b6000819050602082019050919050565b60007fffffffff0000000000000000000000000000000000000000000000000000000082169050919050565b612d4f81612d1a565b82525050565b6000612d618383612d46565b60208301905092915050565b6000602082019050919050565b6000612d8582612cee565b612d8f8185612cf9565b9350612d9a83612d0a565b8060005b83811015612dcb578151612db28882612d55565b9750612dbd83612d6d565b925050600181019050612d9e565b5085935050505092915050565b600081519050919050565b600082825260208201905092915050565b6000819050602082019050919050565b612e0d8161299f565b82525050565b6000612e1f8383612e04565b60208301905092915050565b6000602082019050919050565b6000612e4382612dd8565b612e4d8185612de3565b9350612e5883612df4565b8060005b83811015612e89578151612e708882612e13565b9750612e7b83612e2b565b925050600181019050612e5c565b5085935050505092915050565b600081519050919050565b600082825260208201905092915050565b6000819050602082019050919050565b600081519050919050565b600082825260208201905092915050565b60005b83811015612efc578082015181840152602081019050612ee1565b83811115612f0b576000848401525b50505050565b6000612f1c82612ec2565b612f268185612ecd565b9350612f36818560208601612ede565b612f3f816129e7565b840191505092915050565b6000612f568383612f11565b905092915050565b6000602082019050919050565b6000612f7682612e96565b612f808185612ea1565b935083602082028501612f9285612eb2565b8060005b85811015612fce5784840389528151612faf8582612f4a565b9450612fba83612f5e565b925060208a01995050600181019050612f96565b50829750879550505050505092915050565b600060c0820190508181036000830152612ffa8189612d7a565b9050818103602083015261300e8188612e38565b905081810360408301526130228187612e38565b905081810360608301526130368186612f6b565b9050818103608083015261304a8185612f6b565b905081810360a083015261305e8184612f6b565b9050979650505050505050565b61307481612c31565b811461307f57600080fd5b50565b6000813590506130918161306b565b92915050565b600080600080600080600060e0888a0312156130b6576130b5612975565b5b60006130c48a828b016129c8565b97505060206130d58a828b016129c8565b965050604088013567ffffffffffffffff8111156130f6576130f561297a565b5b6131028a828b01612af5565b955050606088013567ffffffffffffffff8111156131235761312261297a565b5b61312f8a828b01612af5565b945050608088013567ffffffffffffffff8111156131505761314f61297a565b5b61315c8a828b01612af5565b93505060a061316d8a828b01613082565b92505060c061317e8a828b01613082565b91505092959891949750929550565b61319681612d1a565b81146131a157600080fd5b50565b6000813590506131b38161318d565b92915050565b600080600080608085870312156131d3576131d2612975565b5b60006131e1878288016129c8565b94505060206131f2878288016129c8565b9350506040613203878288016131a4565b925050606085013567ffffffffffffffff8111156132245761322361297a565b5b61323087828801612af5565b91505092959194509250565b60008060008060008060c0878903121561325957613258612975565b5b600061326789828a016129c8565b965050602087013567ffffffffffffffff8111156132885761328761297a565b5b61329489828a01612af5565b955050604087013567ffffffffffffffff8111156132b5576132b461297a565b5b6132c189828a01612af5565b945050606087013567ffffffffffffffff8111156132e2576132e161297a565b5b6132ee89828a01612af5565b935050608087013567ffffffffffffffff81111561330f5761330e61297a565b5b61331b89828a01612af5565b92505060a087013567ffffffffffffffff81111561333c5761333b61297a565b5b61334889828a01612af5565b9150509295509295509295565b600060a082019050818103600083015261336f8188612f6b565b905081810360208301526133838187612f6b565b905081810360408301526133978186612f6b565b905081810360608301526133ab8185612f6b565b905081810360808301526133bf8184612f6b565b90509695505050505050565b6133d48161299f565b82525050565b600082825260208201905092915050565b60006133f682612ec2565b61340081856133da565b9350613410818560208601612ede565b613419816129e7565b840191505092915050565b600060e082019050613439600083018a6133cb565b818103602083015261344b81896133eb565b9050818103604083015261345f81886133eb565b9050818103606083015261347381876133eb565b9050818103608083015261348781866133eb565b905081810360a083015261349b81856133eb565b905081810360c08301526134af81846133eb565b905098975050505050505050565b60006101008201905081810360008301526134d8818b612e38565b905081810360208301526134ec818a612f6b565b905081810360408301526135008189612f6b565b905081810360608301526135148188612f6b565b905081810360808301526135288187612f6b565b905081810360a083015261353c8186612f6b565b905081810360c08301526135508185612f6b565b905081810360e08301526135648184612f6b565b90509998505050505050505050565b600080600080600080600080610100898b03121561359457613593612975565b5b60006135a28b828c016129c8565b985050602089013567ffffffffffffffff8111156135c3576135c261297a565b5b6135cf8b828c01612af5565b975050604089013567ffffffffffffffff8111156135f0576135ef61297a565b5b6135fc8b828c01612af5565b965050606089013567ffffffffffffffff81111561361d5761361c61297a565b5b6136298b828c01612af5565b955050608089013567ffffffffffffffff81111561364a5761364961297a565b5b6136568b828c01612af5565b94505060a089013567ffffffffffffffff8111156136775761367661297a565b5b6136838b828c01612af5565b93505060c089013567ffffffffffffffff8111156136a4576136a361297a565b5b6136b08b828c01612af5565b92505060e089013567ffffffffffffffff8111156136d1576136d061297a565b5b6136dd8b828c01612af5565b9150509295985092959890939650565b600060c082019050818103600083015261370781896133eb565b9050818103602083015261371b81886133eb565b9050818103604083015261372f81876133eb565b905061373e6060830186612c3b565b61374b6080830185612c3b565b61375860a0830184612c3b565b979650505050505050565b600081519050919050565b600082825260208201905092915050565b6000819050602082019050919050565b61379881612c31565b82525050565b60006137aa838361378f565b60208301905092915050565b6000602082019050919050565b60006137ce82613763565b6137d8818561376e565b93506137e38361377f565b8060005b838110156138145781516137fb888261379e565b9750613806836137b6565b9250506001810190506137e7565b5085935050505092915050565b6000604082019050818103600083015261383b8185612f6b565b9050818103602083015261384f81846137c3565b90509392505050565b600080600080600080600060e0888a03121561387757613876612975565b5b60006138858a828b016129c8565b975050602088013567ffffffffffffffff8111156138a6576138a561297a565b5b6138b28a828b01612af5565b965050604088013567ffffffffffffffff8111156138d3576138d261297a565b5b6138df8a828b01612af5565b955050606088013567ffffffffffffffff811115613900576138ff61297a565b5b61390c8a828b01612af5565b945050608088013567ffffffffffffffff81111561392d5761392c61297a565b5b6139398a828b01612af5565b93505060a088013567ffffffffffffffff81111561395a5761395961297a565b5b6139668a828b01612af5565b92505060c088013567ffffffffffffffff8111156139875761398661297a565b5b6139938a828b01612af5565b91505092959891949750929550565b600080604083850312156139b9576139b8612975565b5b60006139c7858286016129c8565b92505060206139d8858286016129c8565b9150509250929050565b600060c08201905081810360008301526139fc8189612f6b565b90508181036020830152613a108188612f6b565b90508181036040830152613a248187612f6b565b90508181036060830152613a3881866137c3565b90508181036080830152613a4c81856137c3565b905081810360a0830152613a6081846137c3565b9050979650505050505050565b600060e0820190508181036000830152613a87818a612e38565b90508181036020830152613a9b8189612f6b565b90508181036040830152613aaf8188612f6b565b90508181036060830152613ac38187612f6b565b90508181036080830152613ad78186612f6b565b905081810360a0830152613aeb8185612f6b565b905081810360c0830152613aff8184612f6b565b905098975050505050505050565b600060a0820190508181036000830152613b278188612e38565b90508181036020830152613b3b8187612e38565b90508181036040830152613b4f8186612f6b565b90508181036060830152613b638185612f6b565b90508181036080830152613b778184612f6b565b90509695505050505050565b600080600060608486031215613b9c57613b9b612975565b5b6000613baa868287016129c8565b935050602084013567ffffffffffffffff811115613bcb57613bca61297a565b5b613bd786828701612af5565b925050604084013567ffffffffffffffff811115613bf857613bf761297a565b5b613c0486828701612af5565b9150509250925092565b600081519050919050565b600082825260208201905092915050565b6000819050602082019050919050565b6000819050919050565b613c4d81613c3a565b82525050565b6000613c5f8383613c44565b60208301905092915050565b6000602082019050919050565b6000613c8382613c0e565b613c8d8185613c19565b9350613c9883613c2a565b8060005b83811015613cc9578151613cb08882613c53565b9750613cbb83613c6b565b925050600181019050613c9c565b5085935050505092915050565b600060a0820190508181036000830152613cf08188613c78565b90508181036020830152613d048187612f6b565b90508181036040830152613d188186612f6b565b90508181036060830152613d2c8185612f6b565b90508181036080830152613d4081846137c3565b90509695505050505050565b600060c082019050613d6160008301896133cb565b8181036020830152613d7381886133eb565b90508181036040830152613d8781876133eb565b90508181036060830152613d9b81866133eb565b90508181036080830152613daf81856133eb565b905081810360a0830152613dc381846133eb565b9050979650505050505050565b600080600060608486031215613de957613de8612975565b5b6000613df7868287016129c8565b935050602084013567ffffffffffffffff811115613e1857613e1761297a565b5b613e2486828701612af5565b9250506040613e3586828701613082565b9150509250925092565b6000606082019050613e5460008301866133cb565b613e6160208301856133cb565b8181036040830152613e7381846133eb565b9050949350505050565b60008060008060008060008060006101208a8c031215613ea057613e9f612975565b5b6000613eae8c828d016129c8565b99505060208a013567ffffffffffffffff811115613ecf57613ece61297a565b5b613edb8c828d01612af5565b98505060408a013567ffffffffffffffff811115613efc57613efb61297a565b5b613f088c828d01612af5565b97505060608a013567ffffffffffffffff811115613f2957613f2861297a565b5b613f358c828d01612af5565b96505060808a013567ffffffffffffffff811115613f5657613f5561297a565b5b613f628c828d01612af5565b95505060a08a013567ffffffffffffffff811115613f8357613f8261297a565b5b613f8f8c828d01612af5565b94505060c08a013567ffffffffffffffff811115613fb057613faf61297a565b5b613fbc8c828d01612af5565b93505060e08a013567ffffffffffffffff811115613fdd57613fdc61297a565b5b613fe98c828d01612af5565b9250506101008a013567ffffffffffffffff81111561400b5761400a61297a565b5b6140178c828d01612af5565b9150509295985092959850929598565b600080600080600060a0868803121561404357614042612975565b5b6000614051888289016129c8565b955050602086013567ffffffffffffffff8111156140725761407161297a565b5b61407e88828901612af5565b945050604086013567ffffffffffffffff81111561409f5761409e61297a565b5b6140ab88828901612af5565b935050606086013567ffffffffffffffff8111156140cc576140cb61297a565b5b6140d888828901612af5565b92505060806140e988828901613082565b9150509295509295909350565b60006101208201905061410c600083018c6133cb565b818103602083015261411e818b6133eb565b90508181036040830152614132818a6133eb565b9050818103606083015261414681896133eb565b9050818103608083015261415a81886133eb565b905081810360a083015261416e81876133eb565b905081810360c083015261418281866133eb565b905081810360e083015261419681856133eb565b90508181036101008301526141ab81846133eb565b90509a9950505050505050505050565b60006080820190506141d060008301876133cb565b6141dd60208301866133cb565b81810360408301526141ef81856133eb565b9050818103606083015261420381846133eb565b905095945050505050565b60008151905061421d8161306b565b92915050565b60006020828403121561423957614238612975565b5b60006142478482850161420e565b91505092915050565b600060408201905061426560008301856133cb565b818103602083015261427781846133eb565b90509392505050565b600060208201905061429560008301846133cb565b92915050565b600067ffffffffffffffff8211156142b6576142b56129f8565b5b602082029050602081019050919050565b600080fd5b6000815190506142db8161318d565b92915050565b60006142f46142ef8461429b565b612a58565b90508083825260208201905060208402830185811115614317576143166142c7565b5b835b81811015614340578061432c88826142cc565b845260208401935050602081019050614319565b5050509392505050565b600082601f83011261435f5761435e6129dd565b5b815161436f8482602086016142e1565b91505092915050565b600067ffffffffffffffff821115614393576143926129f8565b5b602082029050602081019050919050565b6000815190506143b3816129b1565b92915050565b60006143cc6143c784614378565b612a58565b905080838252602082019050602084028301858111156143ef576143ee6142c7565b5b835b81811015614418578061440488826143a4565b8452602084019350506020810190506143f1565b5050509392505050565b600082601f830112614437576144366129dd565b5b81516144478482602086016143b9565b91505092915050565b600067ffffffffffffffff82111561446b5761446a6129f8565b5b602082029050602081019050919050565b600061448f61448a84612a73565b612a58565b9050828152602081018484840111156144ab576144aa6129e2565b5b6144b6848285612ede565b509392505050565b600082601f8301126144d3576144d26129dd565b5b81516144e384826020860161447c565b91505092915050565b60006144ff6144fa84614450565b612a58565b90508083825260208201905060208402830185811115614522576145216142c7565b5b835b8181101561456957805167ffffffffffffffff811115614547576145466129dd565b5b80860161455489826144be565b85526020850194505050602081019050614524565b5050509392505050565b600082601f830112614588576145876129dd565b5b81516145988482602086016144ec565b91505092915050565b60008060008060008060c087890312156145be576145bd612975565b5b600087015167ffffffffffffffff8111156145dc576145db61297a565b5b6145e889828a0161434a565b965050602087015167ffffffffffffffff8111156146095761460861297a565b5b61461589828a01614422565b955050604087015167ffffffffffffffff8111156146365761463561297a565b5b61464289828a01614422565b945050606087015167ffffffffffffffff8111156146635761466261297a565b5b61466f89828a01614573565b935050608087015167ffffffffffffffff8111156146905761468f61297a565b5b61469c89828a01614573565b92505060a087015167ffffffffffffffff8111156146bd576146bc61297a565b5b6146c989828a01614573565b9150509295509295509295565b600060e0820190506146eb600083018a6133cb565b6146f860208301896133cb565b818103604083015261470a81886133eb565b9050818103606083015261471e81876133eb565b9050818103608083015261473281866133eb565b905061474160a0830185612c3b565b61474e60c0830184612c3b565b98975050505050505050565b61476381612d1a565b82525050565b600060808201905061477e60008301876133cb565b61478b60208301866133cb565b614798604083018561475a565b81810360608301526147aa81846133eb565b905095945050505050565b600080600080600060a086880312156147d1576147d0612975565b5b600086015167ffffffffffffffff8111156147ef576147ee61297a565b5b6147fb88828901614573565b955050602086015167ffffffffffffffff81111561481c5761481b61297a565b5b61482888828901614573565b945050604086015167ffffffffffffffff8111156148495761484861297a565b5b61485588828901614573565b935050606086015167ffffffffffffffff8111156148765761487561297a565b5b61488288828901614573565b925050608086015167ffffffffffffffff8111156148a3576148a261297a565b5b6148af88828901614573565b9150509295509295909350565b600080600080600080600060e0888a0312156148db576148da612975565b5b60006148e98a828b016143a4565b975050602088015167ffffffffffffffff81111561490a5761490961297a565b5b6149168a828b016144be565b965050604088015167ffffffffffffffff8111156149375761493661297a565b5b6149438a828b016144be565b955050606088015167ffffffffffffffff8111156149645761496361297a565b5b6149708a828b016144be565b945050608088015167ffffffffffffffff8111156149915761499061297a565b5b61499d8a828b016144be565b93505060a088015167ffffffffffffffff8111156149be576149bd61297a565b5b6149ca8a828b016144be565b92505060c088015167ffffffffffffffff8111156149eb576149ea61297a565b5b6149f78a828b016144be565b91505092959891949750929550565b600080600080600080600080610100898b031215614a2757614a26612975565b5b600089015167ffffffffffffffff811115614a4557614a4461297a565b5b614a518b828c01614422565b985050602089015167ffffffffffffffff811115614a7257614a7161297a565b5b614a7e8b828c01614573565b975050604089015167ffffffffffffffff811115614a9f57614a9e61297a565b5b614aab8b828c01614573565b965050606089015167ffffffffffffffff811115614acc57614acb61297a565b5b614ad88b828c01614573565b955050608089015167ffffffffffffffff811115614af957614af861297a565b5b614b058b828c01614573565b94505060a089015167ffffffffffffffff811115614b2657614b2561297a565b5b614b328b828c01614573565b93505060c089015167ffffffffffffffff811115614b5357614b5261297a565b5b614b5f8b828c01614573565b92505060e089015167ffffffffffffffff811115614b8057614b7f61297a565b5b614b8c8b828c01614573565b9150509295985092959890939650565b600061010082019050614bb2600083018b6133cb565b8181036020830152614bc4818a6133eb565b90508181036040830152614bd881896133eb565b90508181036060830152614bec81886133eb565b90508181036080830152614c0081876133eb565b905081810360a0830152614c1481866133eb565b905081810360c0830152614c2881856133eb565b905081810360e0830152614c3c81846133eb565b90509998505050505050505050565b60008060008060008060c08789031215614c6857614c67612975565b5b600087015167ffffffffffffffff811115614c8657614c8561297a565b5b614c9289828a016144be565b965050602087015167ffffffffffffffff811115614cb357614cb261297a565b5b614cbf89828a016144be565b955050604087015167ffffffffffffffff811115614ce057614cdf61297a565b5b614cec89828a016144be565b9450506060614cfd89828a0161420e565b9350506080614d0e89828a0161420e565b92505060a0614d1f89828a0161420e565b9150509295509295509295565b600067ffffffffffffffff821115614d4757614d466129f8565b5b602082029050602081019050919050565b6000614d6b614d6684614d2c565b612a58565b90508083825260208201905060208402830185811115614d8e57614d8d6142c7565b5b835b81811015614db75780614da3888261420e565b845260208401935050602081019050614d90565b5050509392505050565b600082601f830112614dd657614dd56129dd565b5b8151614de6848260208601614d58565b91505092915050565b60008060408385031215614e0657614e05612975565b5b600083015167ffffffffffffffff811115614e2457614e2361297a565b5b614e3085828601614573565b925050602083015167ffffffffffffffff811115614e5157614e5061297a565b5b614e5d85828601614dc1565b9150509250929050565b6000604082019050614e7c60008301856133cb565b614e8960208301846133cb565b9392505050565b60008060008060008060c08789031215614ead57614eac612975565b5b600087015167ffffffffffffffff811115614ecb57614eca61297a565b5b614ed789828a01614573565b965050602087015167ffffffffffffffff811115614ef857614ef761297a565b5b614f0489828a01614573565b955050604087015167ffffffffffffffff811115614f2557614f2461297a565b5b614f3189828a01614573565b945050606087015167ffffffffffffffff811115614f5257614f5161297a565b5b614f5e89828a01614dc1565b935050608087015167ffffffffffffffff811115614f7f57614f7e61297a565b5b614f8b89828a01614dc1565b92505060a087015167ffffffffffffffff811115614fac57614fab61297a565b5b614fb889828a01614dc1565b9150509295509295509295565b600080600080600080600060e0888a031215614fe457614fe3612975565b5b600088015167ffffffffffffffff8111156150025761500161297a565b5b61500e8a828b01614422565b975050602088015167ffffffffffffffff81111561502f5761502e61297a565b5b61503b8a828b01614573565b965050604088015167ffffffffffffffff81111561505c5761505b61297a565b5b6150688a828b01614573565b955050606088015167ffffffffffffffff8111156150895761508861297a565b5b6150958a828b01614573565b945050608088015167ffffffffffffffff8111156150b6576150b561297a565b5b6150c28a828b01614573565b93505060a088015167ffffffffffffffff8111156150e3576150e261297a565b5b6150ef8a828b01614573565b92505060c088015167ffffffffffffffff8111156151105761510f61297a565b5b61511c8a828b01614573565b91505092959891949750929550565b600080600080600060a0868803121561514757615146612975565b5b600086015167ffffffffffffffff8111156151655761516461297a565b5b61517188828901614422565b955050602086015167ffffffffffffffff8111156151925761519161297a565b5b61519e88828901614422565b945050604086015167ffffffffffffffff8111156151bf576151be61297a565b5b6151cb88828901614573565b935050606086015167ffffffffffffffff8111156151ec576151eb61297a565b5b6151f888828901614573565b925050608086015167ffffffffffffffff8111156152195761521861297a565b5b61522588828901614573565b9150509295509295909350565b600060608201905061524760008301866133cb565b818103602083015261525981856133eb565b9050818103604083015261526d81846133eb565b9050949350505050565b600067ffffffffffffffff821115615292576152916129f8565b5b602082029050602081019050919050565b6152ac81613c3a565b81146152b757600080fd5b50565b6000815190506152c9816152a3565b92915050565b60006152e26152dd84615277565b612a58565b90508083825260208201905060208402830185811115615305576153046142c7565b5b835b8181101561532e578061531a88826152ba565b845260208401935050602081019050615307565b5050509392505050565b600082601f83011261534d5761534c6129dd565b5b815161535d8482602086016152cf565b91505092915050565b600080600080600060a0868803121561538257615381612975565b5b600086015167ffffffffffffffff8111156153a05761539f61297a565b5b6153ac88828901615338565b955050602086015167ffffffffffffffff8111156153cd576153cc61297a565b5b6153d988828901614573565b945050604086015167ffffffffffffffff8111156153fa576153f961297a565b5b61540688828901614573565b935050606086015167ffffffffffffffff8111156154275761542661297a565b5b61543388828901614573565b925050608086015167ffffffffffffffff8111156154545761545361297a565b5b61546088828901614dc1565b9150509295509295909350565b60008060008060008060c0878903121561548a57615489612975565b5b600061549889828a016143a4565b965050602087015167ffffffffffffffff8111156154b9576154b861297a565b5b6154c589828a016144be565b955050604087015167ffffffffffffffff8111156154e6576154e561297a565b5b6154f289828a016144be565b945050606087015167ffffffffffffffff8111156155135761551261297a565b5b61551f89828a016144be565b935050608087015167ffffffffffffffff8111156155405761553f61297a565b5b61554c89828a016144be565b92505060a087015167ffffffffffffffff81111561556d5761556c61297a565b5b61557989828a016144be565b9150509295509295509295565b600060608201905061559b60008301866133cb565b81810360208301526155ad81856133eb565b90506155bc6040830184612c3b565b949350505050565b6000806000606084860312156155dd576155dc612975565b5b60006155eb868287016143a4565b93505060206155fc868287016143a4565b925050604084015167ffffffffffffffff81111561561d5761561c61297a565b5b615629868287016144be565b9150509250925092565b600060a08201905061564860008301886133cb565b818103602083015261565a81876133eb565b9050818103604083015261566e81866133eb565b9050818103606083015261568281856133eb565b90506156916080830184612c3b565b9695505050505050565b60008060008060008060008060006101208a8c0312156156be576156bd612975565b5b60006156cc8c828d016143a4565b99505060208a015167ffffffffffffffff8111156156ed576156ec61297a565b5b6156f98c828d016144be565b98505060408a015167ffffffffffffffff81111561571a5761571961297a565b5b6157268c828d016144be565b97505060608a015167ffffffffffffffff8111156157475761574661297a565b5b6157538c828d016144be565b96505060808a015167ffffffffffffffff8111156157745761577361297a565b5b6157808c828d016144be565b95505060a08a015167ffffffffffffffff8111156157a1576157a061297a565b5b6157ad8c828d016144be565b94505060c08a015167ffffffffffffffff8111156157ce576157cd61297a565b5b6157da8c828d016144be565b93505060e08a015167ffffffffffffffff8111156157fb576157fa61297a565b5b6158078c828d016144be565b9250506101008a015167ffffffffffffffff8111156158295761582861297a565b5b6158358c828d016144be565b915050929598509295985092959856fea2646970667358221220da93bb2a8942a27e93375c4304a5619cddc8157222a3e4754e5680a0b96de91a64736f6c634300080b0033608060405234801561001057600080fd5b5061458e806100206000396000f3fe608060405234801561001057600080fd5b50600436106101165760003560e01c8063804fcf13116100a2578063a06b883d11610071578063a06b883d1461036a578063ac4b204914610386578063b24f7016146103b7578063d64b6913146103d3578063dcc45352146103f857610116565b8063804fcf13146102ba5780638ce211bc146102d65780638e8913931461030a578063961ecb5b1461033a57610116565b80633aff2cc5116100e95780633aff2cc5146101e85780633d746f0a1461021a57806360ccb204146102365780636704710714610252578063716b5ab41461028a57610116565b80630f53a4701461011b578063174ceeab146101535780632a631a5414610183578063390363fe146101b8575b600080fd5b6101356004803603810190610130919061353c565b610414565b60405161014a99989796959493929190613611565b60405180910390f35b61016d6004803603810190610168919061380b565b610ab3565b60405161017a9190613880565b60405180910390f35b61019d600480360381019061019891906138c7565b610bb1565b6040516101af969594939291906138f4565b60405180910390f35b6101d260048036038101906101cd9190613978565b610ec5565b6040516101df9190613880565b60405180910390f35b61020260048036038101906101fd91906138c7565b61100f565b60405161021193929190613a03565b60405180910390f35b610234600480360381019061022f9190613a41565b6110f1565b005b610250600480360381019061024b9190613b5a565b61131d565b005b61026c600480360381019061026791906138c7565b61143f565b60405161028199989796959493929190613611565b60405180910390f35b6102a4600480360381019061029f919061380b565b6118fd565b6040516102b19190613880565b60405180910390f35b6102d460048036038101906102cf9190613bc9565b6119fb565b005b6102f060048036038101906102eb919061353c565b611bb9565b604051610301959493929190613e7f565b60405180910390f35b610324600480360381019061031f919061353c565b61222b565b6040516103319190613880565b60405180910390f35b610354600480360381019061034f919061353c565b6122e8565b6040516103619190613880565b60405180910390f35b610384600480360381019061037f9190613b5a565b61239a565b005b6103a0600480360381019061039b919061353c565b612505565b6040516103ae929190613fb3565b60405180910390f35b6103d160048036038101906103cc9190613fea565b61276d565b005b6103db6129ab565b6040516103ef989796959493929190614222565b60405180910390f35b610412600480360381019061040d9190613a41565b6132d7565b005b600060608060608060608060608060005b600080549050811015610aa4578a73ffffffffffffffffffffffffffffffffffffffff166000828154811061045d5761045c6142d8565b5b906000526020600020906009020160000160009054906101000a900473ffffffffffffffffffffffffffffffffffffffff1673ffffffffffffffffffffffffffffffffffffffff161415610a9157600081815481106104bf576104be6142d8565b5b906000526020600020906009020160000160009054906101000a900473ffffffffffffffffffffffffffffffffffffffff1660008281548110610505576105046142d8565b5b90600052602060002090600902016001016000838154811061052a576105296142d8565b5b90600052602060002090600902016002016000848154811061054f5761054e6142d8565b5b906000526020600020906009020160030160008581548110610574576105736142d8565b5b906000526020600020906009020160040160008681548110610599576105986142d8565b5b9060005260206000209060090201600501600087815481106105be576105bd6142d8565b5b9060005260206000209060090201600601600088815481106105e3576105e26142d8565b5b906000526020600020906009020160070160008981548110610608576106076142d8565b5b906000526020600020906009020160080187805461062590614336565b80601f016020809104026020016040519081016040528092919081815260200182805461065190614336565b801561069e5780601f106106735761010080835404028352916020019161069e565b820191906000526020600020905b81548152906001019060200180831161068157829003601f168201915b505050505097508680546106b190614336565b80601f01602080910402602001604051908101604052809291908181526020018280546106dd90614336565b801561072a5780601f106106ff5761010080835404028352916020019161072a565b820191906000526020600020905b81548152906001019060200180831161070d57829003601f168201915b5050505050965085805461073d90614336565b80601f016020809104026020016040519081016040528092919081815260200182805461076990614336565b80156107b65780601f1061078b576101008083540402835291602001916107b6565b820191906000526020600020905b81548152906001019060200180831161079957829003601f168201915b505050505095508480546107c990614336565b80601f01602080910402602001604051908101604052809291908181526020018280546107f590614336565b80156108425780601f1061081757610100808354040283529160200191610842565b820191906000526020600020905b81548152906001019060200180831161082557829003601f168201915b5050505050945083805461085590614336565b80601f016020809104026020016040519081016040528092919081815260200182805461088190614336565b80156108ce5780601f106108a3576101008083540402835291602001916108ce565b820191906000526020600020905b8154815290600101906020018083116108b157829003601f168201915b505050505093508280546108e190614336565b80601f016020809104026020016040519081016040528092919081815260200182805461090d90614336565b801561095a5780601f1061092f5761010080835404028352916020019161095a565b820191906000526020600020905b81548152906001019060200180831161093d57829003601f168201915b5050505050925081805461096d90614336565b80601f016020809104026020016040519081016040528092919081815260200182805461099990614336565b80156109e65780601f106109bb576101008083540402835291602001916109e6565b820191906000526020600020905b8154815290600101906020018083116109c957829003601f168201915b505050505091508080546109f990614336565b80601f0160208091040260200160405190810160405280929190818152602001828054610a2590614336565b8015610a725780601f10610a4757610100808354040283529160200191610a72565b820191906000526020600020905b815481529060010190602001808311610a5557829003601f168201915b5050505050905099509950995099509950995099509950995050610aa6565b8080610a9c90614397565b915050610425565b505b9193959799909294969850565b600080600090505b600080549050811015610ba9578373ffffffffffffffffffffffffffffffffffffffff1660008281548110610af357610af26142d8565b5b906000526020600020906009020160000160009054906101000a900473ffffffffffffffffffffffffffffffffffffffff1673ffffffffffffffffffffffffffffffffffffffff16148015610b875750828051906020012060008281548110610b5f57610b5e6142d8565b5b9060005260206000209060090201600801604051610b7d919061447f565b6040518091039020145b15610b96576001915050610bab565b8080610ba190614397565b915050610abb565b505b92915050565b60028181548110610bc157600080fd5b90600052602060002090600602016000915090508060000160009054906101000a900473ffffffffffffffffffffffffffffffffffffffff1690806001018054610c0a90614336565b80601f0160208091040260200160405190810160405280929190818152602001828054610c3690614336565b8015610c835780601f10610c5857610100808354040283529160200191610c83565b820191906000526020600020905b815481529060010190602001808311610c6657829003601f168201915b505050505090806002018054610c9890614336565b80601f0160208091040260200160405190810160405280929190818152602001828054610cc490614336565b8015610d115780601f10610ce657610100808354040283529160200191610d11565b820191906000526020600020905b815481529060010190602001808311610cf457829003601f168201915b505050505090806003018054610d2690614336565b80601f0160208091040260200160405190810160405280929190818152602001828054610d5290614336565b8015610d9f5780601f10610d7457610100808354040283529160200191610d9f565b820191906000526020600020905b815481529060010190602001808311610d8257829003601f168201915b505050505090806004018054610db490614336565b80601f0160208091040260200160405190810160405280929190818152602001828054610de090614336565b8015610e2d5780601f10610e0257610100808354040283529160200191610e2d565b820191906000526020600020905b815481529060010190602001808311610e1057829003601f168201915b505050505090806005018054610e4290614336565b80601f0160208091040260200160405190810160405280929190818152602001828054610e6e90614336565b8015610ebb5780601f10610e9057610100808354040283529160200191610ebb565b820191906000526020600020905b815481529060010190602001808311610e9e57829003601f168201915b5050505050905086565b600080600090505b600280549050811015611006578473ffffffffffffffffffffffffffffffffffffffff1660028281548110610f0557610f046142d8565b5b906000526020600020906006020160000160009054906101000a900473ffffffffffffffffffffffffffffffffffffffff1673ffffffffffffffffffffffffffffffffffffffff16148015610f995750838051906020012060028281548110610f7157610f706142d8565b5b9060005260206000209060060201600101604051610f8f919061447f565b6040518091039020145b8015610fe45750828051906020012060028281548110610fbc57610fbb6142d8565b5b9060005260206000209060060201600201604051610fda919061447f565b6040518091039020145b15610ff3576001915050611008565b8080610ffe90614397565b915050610ecd565b505b9392505050565b6001818154811061101f57600080fd5b90600052602060002090600302016000915090508060000160009054906101000a900473ffffffffffffffffffffffffffffffffffffffff169080600101805461106890614336565b80601f016020809104026020016040519081016040528092919081815260200182805461109490614336565b80156110e15780601f106110b6576101008083540402835291602001916110e1565b820191906000526020600020905b8154815290600101906020018083116110c457829003601f168201915b5050505050908060020154905083565b60005b600280549050811015611314578673ffffffffffffffffffffffffffffffffffffffff166002828154811061112c5761112b6142d8565b5b906000526020600020906006020160000160009054906101000a900473ffffffffffffffffffffffffffffffffffffffff1673ffffffffffffffffffffffffffffffffffffffff16141561130157866002828154811061118f5761118e6142d8565b5b906000526020600020906006020160000160006101000a81548173ffffffffffffffffffffffffffffffffffffffff021916908373ffffffffffffffffffffffffffffffffffffffff16021790555085600282815481106111f3576111f26142d8565b5b90600052602060002090600602016001019080519060200190611217929190613427565b50846002828154811061122d5761122c6142d8565b5b90600052602060002090600602016002019080519060200190611251929190613427565b508360028281548110611267576112666142d8565b5b9060005260206000209060060201600301908051906020019061128b929190613427565b5082600282815481106112a1576112a06142d8565b5b906000526020600020906006020160040190805190602001906112c5929190613427565b5081600282815481106112db576112da6142d8565b5b906000526020600020906006020160050190805190602001906112ff929190613427565b505b808061130c90614397565b9150506110f4565b50505050505050565b6000811015801561132f575060648111155b61136e576040517f08c379a0000000000000000000000000000000000000000000000000000000008152600401611365906144e2565b60405180910390fd5b600160405180606001604052808573ffffffffffffffffffffffffffffffffffffffff16815260200184815260200183815250908060018154018082558091505060019003906000526020600020906003020160009091909190915060008201518160000160006101000a81548173ffffffffffffffffffffffffffffffffffffffff021916908373ffffffffffffffffffffffffffffffffffffffff160217905550602082015181600101908051906020019061142d929190613427565b50604082015181600201555050505050565b6000818154811061144f57600080fd5b90600052602060002090600902016000915090508060000160009054906101000a900473ffffffffffffffffffffffffffffffffffffffff169080600101805461149890614336565b80601f01602080910402602001604051908101604052809291908181526020018280546114c490614336565b80156115115780601f106114e657610100808354040283529160200191611511565b820191906000526020600020905b8154815290600101906020018083116114f457829003601f168201915b50505050509080600201805461152690614336565b80601f016020809104026020016040519081016040528092919081815260200182805461155290614336565b801561159f5780601f106115745761010080835404028352916020019161159f565b820191906000526020600020905b81548152906001019060200180831161158257829003601f168201915b5050505050908060030180546115b490614336565b80601f01602080910402602001604051908101604052809291908181526020018280546115e090614336565b801561162d5780601f106116025761010080835404028352916020019161162d565b820191906000526020600020905b81548152906001019060200180831161161057829003601f168201915b50505050509080600401805461164290614336565b80601f016020809104026020016040519081016040528092919081815260200182805461166e90614336565b80156116bb5780601f10611690576101008083540402835291602001916116bb565b820191906000526020600020905b81548152906001019060200180831161169e57829003601f168201915b5050505050908060050180546116d090614336565b80601f01602080910402602001604051908101604052809291908181526020018280546116fc90614336565b80156117495780601f1061171e57610100808354040283529160200191611749565b820191906000526020600020905b81548152906001019060200180831161172c57829003601f168201915b50505050509080600601805461175e90614336565b80601f016020809104026020016040519081016040528092919081815260200182805461178a90614336565b80156117d75780601f106117ac576101008083540402835291602001916117d7565b820191906000526020600020905b8154815290600101906020018083116117ba57829003601f168201915b5050505050908060070180546117ec90614336565b80601f016020809104026020016040519081016040528092919081815260200182805461181890614336565b80156118655780601f1061183a57610100808354040283529160200191611865565b820191906000526020600020905b81548152906001019060200180831161184857829003601f168201915b50505050509080600801805461187a90614336565b80601f01602080910402602001604051908101604052809291908181526020018280546118a690614336565b80156118f35780601f106118c8576101008083540402835291602001916118f3565b820191906000526020600020905b8154815290600101906020018083116118d657829003601f168201915b5050505050905089565b600080600090505b6001805490508110156119f3578373ffffffffffffffffffffffffffffffffffffffff166001828154811061193d5761193c6142d8565b5b906000526020600020906003020160000160009054906101000a900473ffffffffffffffffffffffffffffffffffffffff1673ffffffffffffffffffffffffffffffffffffffff161480156119d157508280519060200120600182815481106119a9576119a86142d8565b5b90600052602060002090600302016001016040516119c7919061447f565b6040518091039020145b156119e05760019150506119f5565b80806119eb90614397565b915050611905565b505b92915050565b60006040518061012001604052808b73ffffffffffffffffffffffffffffffffffffffff1681526020018a815260200189815260200188815260200187815260200186815260200185815260200184815260200183815250908060018154018082558091505060019003906000526020600020906009020160009091909190915060008201518160000160006101000a81548173ffffffffffffffffffffffffffffffffffffffff021916908373ffffffffffffffffffffffffffffffffffffffff1602179055506020820151816001019080519060200190611adf929190613427565b506040820151816002019080519060200190611afc929190613427565b506060820151816003019080519060200190611b19929190613427565b506080820151816004019080519060200190611b36929190613427565b5060a0820151816005019080519060200190611b53929190613427565b5060c0820151816006019080519060200190611b70929190613427565b5060e0820151816007019080519060200190611b8d929190613427565b50610100820151816008019080519060200190611bab929190613427565b505050505050505050505050565b6060806060806060600060028054905067ffffffffffffffff811115611be257611be16136e0565b5b604051908082528060200260200182016040528015611c1557816020015b6060815260200190600190039081611c005790505b509050600060028054905067ffffffffffffffff811115611c3957611c386136e0565b5b604051908082528060200260200182016040528015611c6c57816020015b6060815260200190600190039081611c575790505b509050600060028054905067ffffffffffffffff811115611c9057611c8f6136e0565b5b604051908082528060200260200182016040528015611cc357816020015b6060815260200190600190039081611cae5790505b509050600060028054905067ffffffffffffffff811115611ce757611ce66136e0565b5b604051908082528060200260200182016040528015611d1a57816020015b6060815260200190600190039081611d055790505b509050600060028054905067ffffffffffffffff811115611d3e57611d3d6136e0565b5b604051908082528060200260200182016040528015611d7157816020015b6060815260200190600190039081611d5c5790505b50905060005b60028054905081101561220d578b73ffffffffffffffffffffffffffffffffffffffff1660028281548110611daf57611dae6142d8565b5b906000526020600020906006020160000160009054906101000a900473ffffffffffffffffffffffffffffffffffffffff1673ffffffffffffffffffffffffffffffffffffffff1614156121fa5760028181548110611e1157611e106142d8565b5b90600052602060002090600602016001018054611e2d90614336565b80601f0160208091040260200160405190810160405280929190818152602001828054611e5990614336565b8015611ea65780601f10611e7b57610100808354040283529160200191611ea6565b820191906000526020600020905b815481529060010190602001808311611e8957829003601f168201915b5050505050868281518110611ebe57611ebd6142d8565b5b602002602001018190525060028181548110611edd57611edc6142d8565b5b90600052602060002090600602016002018054611ef990614336565b80601f0160208091040260200160405190810160405280929190818152602001828054611f2590614336565b8015611f725780601f10611f4757610100808354040283529160200191611f72565b820191906000526020600020905b815481529060010190602001808311611f5557829003601f168201915b5050505050858281518110611f8a57611f896142d8565b5b602002602001018190525060028181548110611fa957611fa86142d8565b5b90600052602060002090600602016003018054611fc590614336565b80601f0160208091040260200160405190810160405280929190818152602001828054611ff190614336565b801561203e5780601f106120135761010080835404028352916020019161203e565b820191906000526020600020905b81548152906001019060200180831161202157829003601f168201915b5050505050848281518110612056576120556142d8565b5b602002602001018190525060028181548110612075576120746142d8565b5b9060005260206000209060060201600401805461209190614336565b80601f01602080910402602001604051908101604052809291908181526020018280546120bd90614336565b801561210a5780601f106120df5761010080835404028352916020019161210a565b820191906000526020600020905b8154815290600101906020018083116120ed57829003601f168201915b5050505050838281518110612122576121216142d8565b5b602002602001018190525060028181548110612141576121406142d8565b5b9060005260206000209060060201600501805461215d90614336565b80601f016020809104026020016040519081016040528092919081815260200182805461218990614336565b80156121d65780601f106121ab576101008083540402835291602001916121d6565b820191906000526020600020905b8154815290600101906020018083116121b957829003601f168201915b50505050508282815181106121ee576121ed6142d8565b5b60200260200101819052505b808061220590614397565b915050611d77565b50848484848499509950995099509950505050505091939590929450565b6000806000905060005b6001805490508110156122de578373ffffffffffffffffffffffffffffffffffffffff166001828154811061226d5761226c6142d8565b5b906000526020600020906003020160000160009054906101000a900473ffffffffffffffffffffffffffffffffffffffff1673ffffffffffffffffffffffffffffffffffffffff1614156122cb576001826122c89190614502565b91505b80806122d690614397565b915050612235565b5080915050919050565b600080600090505b600080549050811015612393578273ffffffffffffffffffffffffffffffffffffffff1660008281548110612328576123276142d8565b5b906000526020600020906009020160000160009054906101000a900473ffffffffffffffffffffffffffffffffffffffff1673ffffffffffffffffffffffffffffffffffffffff161415612380576001915050612395565b808061238b90614397565b9150506122f0565b505b919050565b60005b6001805490508110156124ff578373ffffffffffffffffffffffffffffffffffffffff16600182815481106123d5576123d46142d8565b5b906000526020600020906003020160000160009054906101000a900473ffffffffffffffffffffffffffffffffffffffff1673ffffffffffffffffffffffffffffffffffffffff1614156124ec578360018281548110612438576124376142d8565b5b906000526020600020906003020160000160006101000a81548173ffffffffffffffffffffffffffffffffffffffff021916908373ffffffffffffffffffffffffffffffffffffffff160217905550826001828154811061249c5761249b6142d8565b5b906000526020600020906003020160010190805190602001906124c0929190613427565b5081600182815481106124d6576124d56142d8565b5b9060005260206000209060030201600201819055505b80806124f790614397565b91505061239d565b50505050565b606080600060018054905067ffffffffffffffff811115612529576125286136e0565b5b60405190808252806020026020018201604052801561255c57816020015b60608152602001906001900390816125475790505b509050600060018054905067ffffffffffffffff8111156125805761257f6136e0565b5b6040519080825280602002602001820160405280156125ae5781602001602082028036833780820191505090505b50905060005b60018054905081101561275f578573ffffffffffffffffffffffffffffffffffffffff16600182815481106125ec576125eb6142d8565b5b906000526020600020906003020160000160009054906101000a900473ffffffffffffffffffffffffffffffffffffffff1673ffffffffffffffffffffffffffffffffffffffff16141561274c576001818154811061264e5761264d6142d8565b5b9060005260206000209060030201600101805461266a90614336565b80601f016020809104026020016040519081016040528092919081815260200182805461269690614336565b80156126e35780601f106126b8576101008083540402835291602001916126e3565b820191906000526020600020905b8154815290600101906020018083116126c657829003601f168201915b50505050508382815181106126fb576126fa6142d8565b5b60200260200101819052506001818154811061271a576127196142d8565b5b90600052602060002090600302016002015482828151811061273f5761273e6142d8565b5b6020026020010181815250505b808061275790614397565b9150506125b4565b508181935093505050915091565b60005b6000805490508110156129a0578873ffffffffffffffffffffffffffffffffffffffff16600082815481106127a8576127a76142d8565b5b906000526020600020906009020160000160009054906101000a900473ffffffffffffffffffffffffffffffffffffffff1673ffffffffffffffffffffffffffffffffffffffff16141561298d57876000828154811061280b5761280a6142d8565b5b9060005260206000209060090201600101908051906020019061282f929190613427565b508660008281548110612845576128446142d8565b5b90600052602060002090600902016002019080519060200190612869929190613427565b50856000828154811061287f5761287e6142d8565b5b906000526020600020906009020160030190805190602001906128a3929190613427565b5084600082815481106128b9576128b86142d8565b5b906000526020600020906009020160040190805190602001906128dd929190613427565b5083600082815481106128f3576128f26142d8565b5b90600052602060002090600902016005019080519060200190612917929190613427565b50826000828154811061292d5761292c6142d8565b5b90600052602060002090600902016006019080519060200190612951929190613427565b508160008281548110612967576129666142d8565b5b9060005260206000209060090201600701908051906020019061298b929190613427565b505b808061299890614397565b915050612770565b505050505050505050565b6060806060806060806060806000808054905067ffffffffffffffff8111156129d7576129d66136e0565b5b604051908082528060200260200182016040528015612a055781602001602082028036833780820191505090505b5090506000808054905067ffffffffffffffff811115612a2857612a276136e0565b5b604051908082528060200260200182016040528015612a5b57816020015b6060815260200190600190039081612a465790505b5090506000808054905067ffffffffffffffff811115612a7e57612a7d6136e0565b5b604051908082528060200260200182016040528015612ab157816020015b6060815260200190600190039081612a9c5790505b5090506000808054905067ffffffffffffffff811115612ad457612ad36136e0565b5b604051908082528060200260200182016040528015612b0757816020015b6060815260200190600190039081612af25790505b5090506000808054905067ffffffffffffffff811115612b2a57612b296136e0565b5b604051908082528060200260200182016040528015612b5d57816020015b6060815260200190600190039081612b485790505b5090506000808054905067ffffffffffffffff811115612b8057612b7f6136e0565b5b604051908082528060200260200182016040528015612bb357816020015b6060815260200190600190039081612b9e5790505b5090506000808054905067ffffffffffffffff811115612bd657612bd56136e0565b5b604051908082528060200260200182016040528015612c0957816020015b6060815260200190600190039081612bf45790505b5090506000808054905067ffffffffffffffff811115612c2c57612c2b6136e0565b5b604051908082528060200260200182016040528015612c5f57816020015b6060815260200190600190039081612c4a5790505b50905060005b6000805490508110156132ac5760008181548110612c8657612c856142d8565b5b906000526020600020906009020160000160009054906101000a900473ffffffffffffffffffffffffffffffffffffffff16898281518110612ccb57612cca6142d8565b5b602002602001019073ffffffffffffffffffffffffffffffffffffffff16908173ffffffffffffffffffffffffffffffffffffffff168152505060008181548110612d1957612d186142d8565b5b90600052602060002090600902016001018054612d3590614336565b80601f0160208091040260200160405190810160405280929190818152602001828054612d6190614336565b8015612dae5780601f10612d8357610100808354040283529160200191612dae565b820191906000526020600020905b815481529060010190602001808311612d9157829003601f168201915b5050505050888281518110612dc657612dc56142d8565b5b602002602001018190525060008181548110612de557612de46142d8565b5b90600052602060002090600902016002018054612e0190614336565b80601f0160208091040260200160405190810160405280929190818152602001828054612e2d90614336565b8015612e7a5780601f10612e4f57610100808354040283529160200191612e7a565b820191906000526020600020905b815481529060010190602001808311612e5d57829003601f168201915b5050505050878281518110612e9257612e916142d8565b5b602002602001018190525060008181548110612eb157612eb06142d8565b5b90600052602060002090600902016003018054612ecd90614336565b80601f0160208091040260200160405190810160405280929190818152602001828054612ef990614336565b8015612f465780601f10612f1b57610100808354040283529160200191612f46565b820191906000526020600020905b815481529060010190602001808311612f2957829003601f168201915b5050505050868281518110612f5e57612f5d6142d8565b5b602002602001018190525060008181548110612f7d57612f7c6142d8565b5b90600052602060002090600902016004018054612f9990614336565b80601f0160208091040260200160405190810160405280929190818152602001828054612fc590614336565b80156130125780601f10612fe757610100808354040283529160200191613012565b820191906000526020600020905b815481529060010190602001808311612ff557829003601f168201915b505050505085828151811061302a576130296142d8565b5b602002602001018190525060008181548110613049576130486142d8565b5b9060005260206000209060090201600501805461306590614336565b80601f016020809104026020016040519081016040528092919081815260200182805461309190614336565b80156130de5780601f106130b3576101008083540402835291602001916130de565b820191906000526020600020905b8154815290600101906020018083116130c157829003601f168201915b50505050508482815181106130f6576130f56142d8565b5b602002602001018190525060008181548110613115576131146142d8565b5b9060005260206000209060090201600601805461313190614336565b80601f016020809104026020016040519081016040528092919081815260200182805461315d90614336565b80156131aa5780601f1061317f576101008083540402835291602001916131aa565b820191906000526020600020905b81548152906001019060200180831161318d57829003601f168201915b50505050508382815181106131c2576131c16142d8565b5b6020026020010181905250600081815481106131e1576131e06142d8565b5b906000526020600020906009020160070180546131fd90614336565b80601f016020809104026020016040519081016040528092919081815260200182805461322990614336565b80156132765780601f1061324b57610100808354040283529160200191613276565b820191906000526020600020905b81548152906001019060200180831161325957829003601f168201915b505050505082828151811061328e5761328d6142d8565b5b602002602001018190525080806132a490614397565b915050612c65565b5087878787878787879f509f509f509f509f509f509f509f5050505050505050509091929394959697565b60026040518060c001604052808873ffffffffffffffffffffffffffffffffffffffff16815260200187815260200186815260200185815260200184815260200183815250908060018154018082558091505060019003906000526020600020906006020160009091909190915060008201518160000160006101000a81548173ffffffffffffffffffffffffffffffffffffffff021916908373ffffffffffffffffffffffffffffffffffffffff16021790555060208201518160010190805190602001906133a8929190613427565b5060408201518160020190805190602001906133c5929190613427565b5060608201518160030190805190602001906133e2929190613427565b5060808201518160040190805190602001906133ff929190613427565b5060a082015181600501908051906020019061341c929190613427565b505050505050505050565b82805461343390614336565b90600052602060002090601f016020900481019282613455576000855561349c565b82601f1061346e57805160ff191683800117855561349c565b8280016001018555821561349c579182015b8281111561349b578251825591602001919060010190613480565b5b5090506134a991906134ad565b5090565b5b808211156134c65760008160009055506001016134ae565b5090565b6000604051905090565b600080fd5b600080fd5b600073ffffffffffffffffffffffffffffffffffffffff82169050919050565b6000613509826134de565b9050919050565b613519816134fe565b811461352457600080fd5b50565b60008135905061353681613510565b92915050565b600060208284031215613552576135516134d4565b5b600061356084828501613527565b91505092915050565b613572816134fe565b82525050565b600081519050919050565b600082825260208201905092915050565b60005b838110156135b2578082015181840152602081019050613597565b838111156135c1576000848401525b50505050565b6000601f19601f8301169050919050565b60006135e382613578565b6135ed8185613583565b93506135fd818560208601613594565b613606816135c7565b840191505092915050565b600061012082019050613627600083018c613569565b8181036020830152613639818b6135d8565b9050818103604083015261364d818a6135d8565b9050818103606083015261366181896135d8565b9050818103608083015261367581886135d8565b905081810360a083015261368981876135d8565b905081810360c083015261369d81866135d8565b905081810360e08301526136b181856135d8565b90508181036101008301526136c681846135d8565b90509a9950505050505050505050565b600080fd5b600080fd5b7f4e487b7100000000000000000000000000000000000000000000000000000000600052604160045260246000fd5b613718826135c7565b810181811067ffffffffffffffff82111715613737576137366136e0565b5b80604052505050565b600061374a6134ca565b9050613756828261370f565b919050565b600067ffffffffffffffff821115613776576137756136e0565b5b61377f826135c7565b9050602081019050919050565b82818337600083830152505050565b60006137ae6137a98461375b565b613740565b9050828152602081018484840111156137ca576137c96136db565b5b6137d584828561378c565b509392505050565b600082601f8301126137f2576137f16136d6565b5b813561380284826020860161379b565b91505092915050565b60008060408385031215613822576138216134d4565b5b600061383085828601613527565b925050602083013567ffffffffffffffff811115613851576138506134d9565b5b61385d858286016137dd565b9150509250929050565b6000819050919050565b61387a81613867565b82525050565b60006020820190506138956000830184613871565b92915050565b6138a481613867565b81146138af57600080fd5b50565b6000813590506138c18161389b565b92915050565b6000602082840312156138dd576138dc6134d4565b5b60006138eb848285016138b2565b91505092915050565b600060c0820190506139096000830189613569565b818103602083015261391b81886135d8565b9050818103604083015261392f81876135d8565b9050818103606083015261394381866135d8565b9050818103608083015261395781856135d8565b905081810360a083015261396b81846135d8565b9050979650505050505050565b600080600060608486031215613991576139906134d4565b5b600061399f86828701613527565b935050602084013567ffffffffffffffff8111156139c0576139bf6134d9565b5b6139cc868287016137dd565b925050604084013567ffffffffffffffff8111156139ed576139ec6134d9565b5b6139f9868287016137dd565b9150509250925092565b6000606082019050613a186000830186613569565b8181036020830152613a2a81856135d8565b9050613a396040830184613871565b949350505050565b60008060008060008060c08789031215613a5e57613a5d6134d4565b5b6000613a6c89828a01613527565b965050602087013567ffffffffffffffff811115613a8d57613a8c6134d9565b5b613a9989828a016137dd565b955050604087013567ffffffffffffffff811115613aba57613ab96134d9565b5b613ac689828a016137dd565b945050606087013567ffffffffffffffff811115613ae757613ae66134d9565b5b613af389828a016137dd565b935050608087013567ffffffffffffffff811115613b1457613b136134d9565b5b613b2089828a016137dd565b92505060a087013567ffffffffffffffff811115613b4157613b406134d9565b5b613b4d89828a016137dd565b9150509295509295509295565b600080600060608486031215613b7357613b726134d4565b5b6000613b8186828701613527565b935050602084013567ffffffffffffffff811115613ba257613ba16134d9565b5b613bae868287016137dd565b9250506040613bbf868287016138b2565b9150509250925092565b60008060008060008060008060006101208a8c031215613bec57613beb6134d4565b5b6000613bfa8c828d01613527565b99505060208a013567ffffffffffffffff811115613c1b57613c1a6134d9565b5b613c278c828d016137dd565b98505060408a013567ffffffffffffffff811115613c4857613c476134d9565b5b613c548c828d016137dd565b97505060608a013567ffffffffffffffff811115613c7557613c746134d9565b5b613c818c828d016137dd565b96505060808a013567ffffffffffffffff811115613ca257613ca16134d9565b5b613cae8c828d016137dd565b95505060a08a013567ffffffffffffffff811115613ccf57613cce6134d9565b5b613cdb8c828d016137dd565b94505060c08a013567ffffffffffffffff811115613cfc57613cfb6134d9565b5b613d088c828d016137dd565b93505060e08a013567ffffffffffffffff811115613d2957613d286134d9565b5b613d358c828d016137dd565b9250506101008a013567ffffffffffffffff811115613d5757613d566134d9565b5b613d638c828d016137dd565b9150509295985092959850929598565b600081519050919050565b600082825260208201905092915050565b6000819050602082019050919050565b600082825260208201905092915050565b6000613dbb82613578565b613dc58185613d9f565b9350613dd5818560208601613594565b613dde816135c7565b840191505092915050565b6000613df58383613db0565b905092915050565b6000602082019050919050565b6000613e1582613d73565b613e1f8185613d7e565b935083602082028501613e3185613d8f565b8060005b85811015613e6d5784840389528151613e4e8582613de9565b9450613e5983613dfd565b925060208a01995050600181019050613e35565b50829750879550505050505092915050565b600060a0820190508181036000830152613e998188613e0a565b90508181036020830152613ead8187613e0a565b90508181036040830152613ec18186613e0a565b90508181036060830152613ed58185613e0a565b90508181036080830152613ee98184613e0a565b90509695505050505050565b600081519050919050565b600082825260208201905092915050565b6000819050602082019050919050565b613f2a81613867565b82525050565b6000613f3c8383613f21565b60208301905092915050565b6000602082019050919050565b6000613f6082613ef5565b613f6a8185613f00565b9350613f7583613f11565b8060005b83811015613fa6578151613f8d8882613f30565b9750613f9883613f48565b925050600181019050613f79565b5085935050505092915050565b60006040820190508181036000830152613fcd8185613e0a565b90508181036020830152613fe18184613f55565b90509392505050565b600080600080600080600080610100898b03121561400b5761400a6134d4565b5b60006140198b828c01613527565b985050602089013567ffffffffffffffff81111561403a576140396134d9565b5b6140468b828c016137dd565b975050604089013567ffffffffffffffff811115614067576140666134d9565b5b6140738b828c016137dd565b965050606089013567ffffffffffffffff811115614094576140936134d9565b5b6140a08b828c016137dd565b955050608089013567ffffffffffffffff8111156140c1576140c06134d9565b5b6140cd8b828c016137dd565b94505060a089013567ffffffffffffffff8111156140ee576140ed6134d9565b5b6140fa8b828c016137dd565b93505060c089013567ffffffffffffffff81111561411b5761411a6134d9565b5b6141278b828c016137dd565b92505060e089013567ffffffffffffffff811115614148576141476134d9565b5b6141548b828c016137dd565b9150509295985092959890939650565b600081519050919050565b600082825260208201905092915050565b6000819050602082019050919050565b614199816134fe565b82525050565b60006141ab8383614190565b60208301905092915050565b6000602082019050919050565b60006141cf82614164565b6141d9818561416f565b93506141e483614180565b8060005b838110156142155781516141fc888261419f565b9750614207836141b7565b9250506001810190506141e8565b5085935050505092915050565b600061010082019050818103600083015261423d818b6141c4565b90508181036020830152614251818a613e0a565b905081810360408301526142658189613e0a565b905081810360608301526142798188613e0a565b9050818103608083015261428d8187613e0a565b905081810360a08301526142a18186613e0a565b905081810360c08301526142b58185613e0a565b905081810360e08301526142c98184613e0a565b90509998505050505050505050565b7f4e487b7100000000000000000000000000000000000000000000000000000000600052603260045260246000fd5b7f4e487b7100000000000000000000000000000000000000000000000000000000600052602260045260246000fd5b6000600282049050600182168061434e57607f821691505b6020821081141561436257614361614307565b5b50919050565b7f4e487b7100000000000000000000000000000000000000000000000000000000600052601160045260246000fd5b60006143a282613867565b91507fffffffffffffffffffffffffffffffffffffffffffffffffffffffffffffffff8214156143d5576143d4614368565b5b600182019050919050565b600081905092915050565b60008190508160005260206000209050919050565b6000815461440d81614336565b61441781866143e0565b94506001821660008114614432576001811461444357614476565b60ff19831686528186019350614476565b61444c856143eb565b60005b8381101561446e5781548189015260018201915060208101905061444f565b838801955050505b50505092915050565b600061448b8284614400565b915081905092915050565b7f4c6576656c206f6620736b696c6c20696e636f72726563742e00000000000000600082015250565b60006144cc601983613583565b91506144d782614496565b602082019050919050565b600060208201905081810360008301526144fb816144bf565b9050919050565b600061450d82613867565b915061451883613867565b9250827fffffffffffffffffffffffffffffffffffffffffffffffffffffffffffffffff0382111561454d5761454c614368565b5b82820190509291505056fea2646970667358221220364325b3b0a3cecf6eee645b6ba8e2a799e5c7bdfb4a9015bb10015ae686faec64736f6c634300080b0033608060405234801561001057600080fd5b50612610806100206000396000f3fe608060405234801561001057600080fd5b506004361061007d5760003560e01c8063bf44b3031161005b578063bf44b30314610104578063c6fe410a1461013b578063cfafbc0c1461016b578063e045b710146101905761007d565b80630f53a4701461008257806323b6d993146100b8578063a7dba184146100d4575b600080fd5b61009c60048036038101906100979190611a9d565b6101ac565b6040516100af9796959493929190611b72565b60405180910390f35b6100d260048036038101906100cd9190611d40565b6106e0565b005b6100ee60048036038101906100e99190611e8a565b6108e3565b6040516100fb9190611eff565b60405180910390f35b61011e60048036038101906101199190611f46565b6109e1565b604051610132989796959493929190611f73565b60405180910390f35b61015560048036038101906101509190611a9d565b610e11565b6040516101629190611eff565b60405180910390f35b610173610ec3565b6040516101879897969594939291906121ec565b60405180910390f35b6101aa60048036038101906101a591906122a2565b6117ef565b005b600060608060608060608060005b6000805490508110156106d3578873ffffffffffffffffffffffffffffffffffffffff16600082815481106101f2576101f161241c565b5b906000526020600020906008020160000160009054906101000a900473ffffffffffffffffffffffffffffffffffffffff1673ffffffffffffffffffffffffffffffffffffffff1614156106c057600081815481106102545761025361241c565b5b906000526020600020906008020160000160009054906101000a900473ffffffffffffffffffffffffffffffffffffffff166000828154811061029a5761029961241c565b5b9060005260206000209060080201600101600083815481106102bf576102be61241c565b5b9060005260206000209060080201600201600084815481106102e4576102e361241c565b5b9060005260206000209060080201600301600085815481106103095761030861241c565b5b90600052602060002090600802016004016000868154811061032e5761032d61241c565b5b9060005260206000209060080201600501600087815481106103535761035261241c565b5b90600052602060002090600802016006018580546103709061247a565b80601f016020809104026020016040519081016040528092919081815260200182805461039c9061247a565b80156103e95780601f106103be576101008083540402835291602001916103e9565b820191906000526020600020905b8154815290600101906020018083116103cc57829003601f168201915b505050505095508480546103fc9061247a565b80601f01602080910402602001604051908101604052809291908181526020018280546104289061247a565b80156104755780601f1061044a57610100808354040283529160200191610475565b820191906000526020600020905b81548152906001019060200180831161045857829003601f168201915b505050505094508380546104889061247a565b80601f01602080910402602001604051908101604052809291908181526020018280546104b49061247a565b80156105015780601f106104d657610100808354040283529160200191610501565b820191906000526020600020905b8154815290600101906020018083116104e457829003601f168201915b505050505093508280546105149061247a565b80601f01602080910402602001604051908101604052809291908181526020018280546105409061247a565b801561058d5780601f106105625761010080835404028352916020019161058d565b820191906000526020600020905b81548152906001019060200180831161057057829003601f168201915b505050505092508180546105a09061247a565b80601f01602080910402602001604051908101604052809291908181526020018280546105cc9061247a565b80156106195780601f106105ee57610100808354040283529160200191610619565b820191906000526020600020905b8154815290600101906020018083116105fc57829003601f168201915b5050505050915080805461062c9061247a565b80601f01602080910402602001604051908101604052809291908181526020018280546106589061247a565b80156106a55780601f1061067a576101008083540402835291602001916106a5565b820191906000526020600020905b81548152906001019060200180831161068857829003601f168201915b505050505090509750975097509750975097509750506106d5565b80806106cb906124db565b9150506101ba565b505b919395979092949650565b60005b6000805490508110156108d9578773ffffffffffffffffffffffffffffffffffffffff166000828154811061071b5761071a61241c565b5b906000526020600020906008020160000160009054906101000a900473ffffffffffffffffffffffffffffffffffffffff1673ffffffffffffffffffffffffffffffffffffffff1614156108c657866000828154811061077e5761077d61241c565b5b906000526020600020906008020160010190805190602001906107a2929190611988565b5085600082815481106107b8576107b761241c565b5b906000526020600020906008020160020190805190602001906107dc929190611988565b5084600082815481106107f2576107f161241c565b5b90600052602060002090600802016003019080519060200190610816929190611988565b50836000828154811061082c5761082b61241c565b5b90600052602060002090600802016004019080519060200190610850929190611988565b5082600082815481106108665761086561241c565b5b9060005260206000209060080201600501908051906020019061088a929190611988565b5081600082815481106108a05761089f61241c565b5b906000526020600020906008020160060190805190602001906108c4929190611988565b505b80806108d1906124db565b9150506106e3565b5050505050505050565b600080600090505b6000805490508110156109d9578373ffffffffffffffffffffffffffffffffffffffff16600082815481106109235761092261241c565b5b906000526020600020906008020160000160009054906101000a900473ffffffffffffffffffffffffffffffffffffffff1673ffffffffffffffffffffffffffffffffffffffff161480156109b7575082805190602001206000828154811061098f5761098e61241c565b5b90600052602060002090600802016007016040516109ad91906125c3565b6040518091039020145b156109c65760019150506109db565b80806109d1906124db565b9150506108eb565b505b92915050565b600081815481106109f157600080fd5b90600052602060002090600802016000915090508060000160009054906101000a900473ffffffffffffffffffffffffffffffffffffffff1690806001018054610a3a9061247a565b80601f0160208091040260200160405190810160405280929190818152602001828054610a669061247a565b8015610ab35780601f10610a8857610100808354040283529160200191610ab3565b820191906000526020600020905b815481529060010190602001808311610a9657829003601f168201915b505050505090806002018054610ac89061247a565b80601f0160208091040260200160405190810160405280929190818152602001828054610af49061247a565b8015610b415780601f10610b1657610100808354040283529160200191610b41565b820191906000526020600020905b815481529060010190602001808311610b2457829003601f168201915b505050505090806003018054610b569061247a565b80601f0160208091040260200160405190810160405280929190818152602001828054610b829061247a565b8015610bcf5780601f10610ba457610100808354040283529160200191610bcf565b820191906000526020600020905b815481529060010190602001808311610bb257829003601f168201915b505050505090806004018054610be49061247a565b80601f0160208091040260200160405190810160405280929190818152602001828054610c109061247a565b8015610c5d5780601f10610c3257610100808354040283529160200191610c5d565b820191906000526020600020905b815481529060010190602001808311610c4057829003601f168201915b505050505090806005018054610c729061247a565b80601f0160208091040260200160405190810160405280929190818152602001828054610c9e9061247a565b8015610ceb5780601f10610cc057610100808354040283529160200191610ceb565b820191906000526020600020905b815481529060010190602001808311610cce57829003601f168201915b505050505090806006018054610d009061247a565b80601f0160208091040260200160405190810160405280929190818152602001828054610d2c9061247a565b8015610d795780601f10610d4e57610100808354040283529160200191610d79565b820191906000526020600020905b815481529060010190602001808311610d5c57829003601f168201915b505050505090806007018054610d8e9061247a565b80601f0160208091040260200160405190810160405280929190818152602001828054610dba9061247a565b8015610e075780601f10610ddc57610100808354040283529160200191610e07565b820191906000526020600020905b815481529060010190602001808311610dea57829003601f168201915b5050505050905088565b600080600090505b600080549050811015610ebc578273ffffffffffffffffffffffffffffffffffffffff1660008281548110610e5157610e5061241c565b5b906000526020600020906008020160000160009054906101000a900473ffffffffffffffffffffffffffffffffffffffff1673ffffffffffffffffffffffffffffffffffffffff161415610ea9576001915050610ebe565b8080610eb4906124db565b915050610e19565b505b919050565b6060806060806060806060806000808054905067ffffffffffffffff811115610eef57610eee611c15565b5b604051908082528060200260200182016040528015610f1d5781602001602082028036833780820191505090505b5090506000808054905067ffffffffffffffff811115610f4057610f3f611c15565b5b604051908082528060200260200182016040528015610f7357816020015b6060815260200190600190039081610f5e5790505b5090506000808054905067ffffffffffffffff811115610f9657610f95611c15565b5b604051908082528060200260200182016040528015610fc957816020015b6060815260200190600190039081610fb45790505b5090506000808054905067ffffffffffffffff811115610fec57610feb611c15565b5b60405190808252806020026020018201604052801561101f57816020015b606081526020019060019003908161100a5790505b5090506000808054905067ffffffffffffffff81111561104257611041611c15565b5b60405190808252806020026020018201604052801561107557816020015b60608152602001906001900390816110605790505b5090506000808054905067ffffffffffffffff81111561109857611097611c15565b5b6040519080825280602002602001820160405280156110cb57816020015b60608152602001906001900390816110b65790505b5090506000808054905067ffffffffffffffff8111156110ee576110ed611c15565b5b60405190808252806020026020018201604052801561112157816020015b606081526020019060019003908161110c5790505b5090506000808054905067ffffffffffffffff81111561114457611143611c15565b5b60405190808252806020026020018201604052801561117757816020015b60608152602001906001900390816111625790505b50905060005b6000805490508110156117c4576000818154811061119e5761119d61241c565b5b906000526020600020906008020160000160009054906101000a900473ffffffffffffffffffffffffffffffffffffffff168982815181106111e3576111e261241c565b5b602002602001019073ffffffffffffffffffffffffffffffffffffffff16908173ffffffffffffffffffffffffffffffffffffffff1681525050600081815481106112315761123061241c565b5b9060005260206000209060080201600101805461124d9061247a565b80601f01602080910402602001604051908101604052809291908181526020018280546112799061247a565b80156112c65780601f1061129b576101008083540402835291602001916112c6565b820191906000526020600020905b8154815290600101906020018083116112a957829003601f168201915b50505050508882815181106112de576112dd61241c565b5b6020026020010181905250600081815481106112fd576112fc61241c565b5b906000526020600020906008020160020180546113199061247a565b80601f01602080910402602001604051908101604052809291908181526020018280546113459061247a565b80156113925780601f1061136757610100808354040283529160200191611392565b820191906000526020600020905b81548152906001019060200180831161137557829003601f168201915b50505050508782815181106113aa576113a961241c565b5b6020026020010181905250600081815481106113c9576113c861241c565b5b906000526020600020906008020160030180546113e59061247a565b80601f01602080910402602001604051908101604052809291908181526020018280546114119061247a565b801561145e5780601f106114335761010080835404028352916020019161145e565b820191906000526020600020905b81548152906001019060200180831161144157829003601f168201915b50505050508682815181106114765761147561241c565b5b6020026020010181905250600081815481106114955761149461241c565b5b906000526020600020906008020160040180546114b19061247a565b80601f01602080910402602001604051908101604052809291908181526020018280546114dd9061247a565b801561152a5780601f106114ff5761010080835404028352916020019161152a565b820191906000526020600020905b81548152906001019060200180831161150d57829003601f168201915b50505050508582815181106115425761154161241c565b5b6020026020010181905250600081815481106115615761156061241c565b5b9060005260206000209060080201600501805461157d9061247a565b80601f01602080910402602001604051908101604052809291908181526020018280546115a99061247a565b80156115f65780601f106115cb576101008083540402835291602001916115f6565b820191906000526020600020905b8154815290600101906020018083116115d957829003601f168201915b505050505084828151811061160e5761160d61241c565b5b60200260200101819052506000818154811061162d5761162c61241c565b5b906000526020600020906008020160060180546116499061247a565b80601f01602080910402602001604051908101604052809291908181526020018280546116759061247a565b80156116c25780601f10611697576101008083540402835291602001916116c2565b820191906000526020600020905b8154815290600101906020018083116116a557829003601f168201915b50505050508382815181106116da576116d961241c565b5b6020026020010181905250600081815481106116f9576116f861241c565b5b906000526020600020906008020160070180546117159061247a565b80601f01602080910402602001604051908101604052809291908181526020018280546117419061247a565b801561178e5780601f106117635761010080835404028352916020019161178e565b820191906000526020600020905b81548152906001019060200180831161177157829003601f168201915b50505050508282815181106117a6576117a561241c565b5b602002602001018190525080806117bc906124db565b91505061117d565b5087878787878787879f509f509f509f509f509f509f509f5050505050505050509091929394959697565b60006040518061010001604052808a73ffffffffffffffffffffffffffffffffffffffff16815260200189815260200188815260200187815260200186815260200185815260200184815260200183815250908060018154018082558091505060019003906000526020600020906008020160009091909190915060008201518160000160006101000a81548173ffffffffffffffffffffffffffffffffffffffff021916908373ffffffffffffffffffffffffffffffffffffffff16021790555060208201518160010190805190602001906118cd929190611988565b5060408201518160020190805190602001906118ea929190611988565b506060820151816003019080519060200190611907929190611988565b506080820151816004019080519060200190611924929190611988565b5060a0820151816005019080519060200190611941929190611988565b5060c082015181600601908051906020019061195e929190611988565b5060e082015181600701908051906020019061197b929190611988565b5050505050505050505050565b8280546119949061247a565b90600052602060002090601f0160209004810192826119b657600085556119fd565b82601f106119cf57805160ff19168380011785556119fd565b828001600101855582156119fd579182015b828111156119fc5782518255916020019190600101906119e1565b5b509050611a0a9190611a0e565b5090565b5b80821115611a27576000816000905550600101611a0f565b5090565b6000604051905090565b600080fd5b600080fd5b600073ffffffffffffffffffffffffffffffffffffffff82169050919050565b6000611a6a82611a3f565b9050919050565b611a7a81611a5f565b8114611a8557600080fd5b50565b600081359050611a9781611a71565b92915050565b600060208284031215611ab357611ab2611a35565b5b6000611ac184828501611a88565b91505092915050565b611ad381611a5f565b82525050565b600081519050919050565b600082825260208201905092915050565b60005b83811015611b13578082015181840152602081019050611af8565b83811115611b22576000848401525b50505050565b6000601f19601f8301169050919050565b6000611b4482611ad9565b611b4e8185611ae4565b9350611b5e818560208601611af5565b611b6781611b28565b840191505092915050565b600060e082019050611b87600083018a611aca565b8181036020830152611b998189611b39565b90508181036040830152611bad8188611b39565b90508181036060830152611bc18187611b39565b90508181036080830152611bd58186611b39565b905081810360a0830152611be98185611b39565b905081810360c0830152611bfd8184611b39565b905098975050505050505050565b600080fd5b600080fd5b7f4e487b7100000000000000000000000000000000000000000000000000000000600052604160045260246000fd5b611c4d82611b28565b810181811067ffffffffffffffff82111715611c6c57611c6b611c15565b5b80604052505050565b6000611c7f611a2b565b9050611c8b8282611c44565b919050565b600067ffffffffffffffff821115611cab57611caa611c15565b5b611cb482611b28565b9050602081019050919050565b82818337600083830152505050565b6000611ce3611cde84611c90565b611c75565b905082815260208101848484011115611cff57611cfe611c10565b5b611d0a848285611cc1565b509392505050565b600082601f830112611d2757611d26611c0b565b5b8135611d37848260208601611cd0565b91505092915050565b600080600080600080600060e0888a031215611d5f57611d5e611a35565b5b6000611d6d8a828b01611a88565b975050602088013567ffffffffffffffff811115611d8e57611d8d611a3a565b5b611d9a8a828b01611d12565b965050604088013567ffffffffffffffff811115611dbb57611dba611a3a565b5b611dc78a828b01611d12565b955050606088013567ffffffffffffffff811115611de857611de7611a3a565b5b611df48a828b01611d12565b945050608088013567ffffffffffffffff811115611e1557611e14611a3a565b5b611e218a828b01611d12565b93505060a088013567ffffffffffffffff811115611e4257611e41611a3a565b5b611e4e8a828b01611d12565b92505060c088013567ffffffffffffffff811115611e6f57611e6e611a3a565b5b611e7b8a828b01611d12565b91505092959891949750929550565b60008060408385031215611ea157611ea0611a35565b5b6000611eaf85828601611a88565b925050602083013567ffffffffffffffff811115611ed057611ecf611a3a565b5b611edc85828601611d12565b9150509250929050565b6000819050919050565b611ef981611ee6565b82525050565b6000602082019050611f146000830184611ef0565b92915050565b611f2381611ee6565b8114611f2e57600080fd5b50565b600081359050611f4081611f1a565b92915050565b600060208284031215611f5c57611f5b611a35565b5b6000611f6a84828501611f31565b91505092915050565b600061010082019050611f89600083018b611aca565b8181036020830152611f9b818a611b39565b90508181036040830152611faf8189611b39565b90508181036060830152611fc38188611b39565b90508181036080830152611fd78187611b39565b905081810360a0830152611feb8186611b39565b905081810360c0830152611fff8185611b39565b905081810360e08301526120138184611b39565b90509998505050505050505050565b600081519050919050565b600082825260208201905092915050565b6000819050602082019050919050565b61205781611a5f565b82525050565b6000612069838361204e565b60208301905092915050565b6000602082019050919050565b600061208d82612022565b612097818561202d565b93506120a28361203e565b8060005b838110156120d35781516120ba888261205d565b97506120c583612075565b9250506001810190506120a6565b5085935050505092915050565b600081519050919050565b600082825260208201905092915050565b6000819050602082019050919050565b600082825260208201905092915050565b600061212882611ad9565b612132818561210c565b9350612142818560208601611af5565b61214b81611b28565b840191505092915050565b6000612162838361211d565b905092915050565b6000602082019050919050565b6000612182826120e0565b61218c81856120eb565b93508360208202850161219e856120fc565b8060005b858110156121da57848403895281516121bb8582612156565b94506121c68361216a565b925060208a019950506001810190506121a2565b50829750879550505050505092915050565b6000610100820190508181036000830152612207818b612082565b9050818103602083015261221b818a612177565b9050818103604083015261222f8189612177565b905081810360608301526122438188612177565b905081810360808301526122578187612177565b905081810360a083015261226b8186612177565b905081810360c083015261227f8185612177565b905081810360e08301526122938184612177565b90509998505050505050505050565b600080600080600080600080610100898b0312156122c3576122c2611a35565b5b60006122d18b828c01611a88565b985050602089013567ffffffffffffffff8111156122f2576122f1611a3a565b5b6122fe8b828c01611d12565b975050604089013567ffffffffffffffff81111561231f5761231e611a3a565b5b61232b8b828c01611d12565b965050606089013567ffffffffffffffff81111561234c5761234b611a3a565b5b6123588b828c01611d12565b955050608089013567ffffffffffffffff81111561237957612378611a3a565b5b6123858b828c01611d12565b94505060a089013567ffffffffffffffff8111156123a6576123a5611a3a565b5b6123b28b828c01611d12565b93505060c089013567ffffffffffffffff8111156123d3576123d2611a3a565b5b6123df8b828c01611d12565b92505060e089013567ffffffffffffffff811115612400576123ff611a3a565b5b61240c8b828c01611d12565b9150509295985092959890939650565b7f4e487b7100000000000000000000000000000000000000000000000000000000600052603260045260246000fd5b7f4e487b7100000000000000000000000000000000000000000000000000000000600052602260045260246000fd5b6000600282049050600182168061249257607f821691505b602082108114156124a6576124a561244b565b5b50919050565b7f4e487b7100000000000000000000000000000000000000000000000000000000600052601160045260246000fd5b60006124e682611ee6565b91507fffffffffffffffffffffffffffffffffffffffffffffffffffffffffffffffff821415612519576125186124ac565b5b600182019050919050565b600081905092915050565b60008190508160005260206000209050919050565b600081546125518161247a565b61255b8186612524565b945060018216600081146125765760018114612587576125ba565b60ff198316865281860193506125ba565b6125908561252f565b60005b838110156125b257815481890152600182019150602081019050612593565b838801955050505b50505092915050565b60006125cf8284612544565b91508190509291505056fea2646970667358221220bc344b17e35ab615f1464e8a2f8cd70376b6cfe866c70beed898b4f45670644d64736f6c634300080b0033608060405234801561001057600080fd5b50616b9780620000216000396000f3fe608060405234801561001057600080fd5b506004361061014c5760003560e01c80634b38f2db116100c3578063a9846eb01161007c578063a9846eb014610465578063ac97812f1461049d578063b351d176146104d2578063bc72af7d146104ee578063d23a4ee114610523578063dd8f3edc1461053f5761014c565b80634b38f2db1461036f5780636cf871df146103a45780637829b41e146103c057806384ae9131146103f0578063948195ed146104145780639fa7247a146104305761014c565b80630c3f9882116101155780630c3f9882146102385780630f53a4701461026d57806324e66037146102a2578063323cc7c5146102d257806344fd6e221461030757806349f47a55146103375761014c565b8062220cf714610151578063018d934a1461016d5780630265275c1461019d57806306ed1e89146101cd57806309bef62a14610202575b600080fd5b61016b600480360381019061016691906156ab565b61055b565b005b610187600480360381019061018291906157a1565b610868565b60405161019491906157f0565b60405180910390f35b6101b760048036038101906101b2919061580b565b610a17565b6040516101c491906157f0565b60405180910390f35b6101e760048036038101906101e291906157a1565b610b4f565b6040516101f996959493929190615a9e565b60405180910390f35b61021c60048036038101906102179190615b29565b6111c2565b60405161022f9796959493929190615baf565b60405180910390f35b610252600480360381019061024d91906157a1565b611564565b60405161026496959493929190615df0565b60405180910390f35b61028760048036038101906102829190615e7b565b611cc0565b60405161029996959493929190615ea8565b60405180910390f35b6102bc60048036038101906102b79190615f2c565b61213e565b6040516102c991906157f0565b60405180910390f35b6102ec60048036038101906102e79190615b29565b61223c565b6040516102fe96959493929190615f97565b60405180910390f35b610321600480360381019061031c9190615e7b565b61246d565b60405161032e91906157f0565b60405180910390f35b610351600480360381019061034c9190615b29565b61251f565b6040516103669998979695949392919061600d565b60405180910390f35b610389600480360381019061038491906160af565b612762565b60405161039b9695949392919061614e565b60405180910390f35b6103be60048036038101906103b991906161c4565b612bb1565b005b6103da60048036038101906103d5919061580b565b612d79565b6040516103e791906157f0565b60405180910390f35b6103f8612eb1565b60405161040b97969594939291906162dd565b60405180910390f35b61042e600480360381019061042991906160af565b6136b5565b005b61044a60048036038101906104459190615e7b565b613910565b60405161045c96959493929190615df0565b60405180910390f35b61047f600480360381019061047a9190615b29565b613fef565b6040516104949998979695949392919061600d565b60405180910390f35b6104b760048036038101906104b291906160af565b614232565b6040516104c99695949392919061614e565b60405180910390f35b6104ec60048036038101906104e791906163a9565b614681565b005b610508600480360381019061050391906157a1565b614928565b60405161051a96959493929190615a9e565b60405180910390f35b61053d600480360381019061053891906156ab565b614f9b565b005b6105596004803603810190610554919061642c565b6152a6565b005b6000610568878787610a17565b146105a8576040517f08c379a000000000000000000000000000000000000000000000000000000000815260040161059f906165c2565b60405180910390fd5b600082101580156105bb57506101ef8211155b6105fa576040517f08c379a00000000000000000000000000000000000000000000000000000000081526004016105f19061662e565b60405180910390fd5b6000811015801561060d57506101ef8111155b61064c576040517f08c379a00000000000000000000000000000000000000000000000000000000081526004016106439061669a565b60405180910390fd5b6002604051806101200160405280878760405160200161066d9291906166f6565b604051602081830303815290604052805190602001207bffffffffffffffffffffffffffffffffffffffffffffffffffffffff191681526020018973ffffffffffffffffffffffffffffffffffffffff1681526020018873ffffffffffffffffffffffffffffffffffffffff16815260200187815260200186815260200185815260200184815260200183815260200183856107099190616749565b815250908060018154018082558091505060019003906000526020600020906008020160009091909190915060008201518160000160006101000a81548163ffffffff021916908360e01c021790555060208201518160000160046101000a81548173ffffffffffffffffffffffffffffffffffffffff021916908373ffffffffffffffffffffffffffffffffffffffff16021790555060408201518160010160006101000a81548173ffffffffffffffffffffffffffffffffffffffff021916908373ffffffffffffffffffffffffffffffffffffffff160217905550606082015181600201908051906020019061080392919061541a565b50608082015181600301908051906020019061082092919061541a565b5060a082015181600401908051906020019061083d92919061541a565b5060c0820151816005015560e082015181600601556101008201518160070155505050505050505050565b600080600090505b600180549050811015610a0f578373ffffffffffffffffffffffffffffffffffffffff16600182815481106108a8576108a761679f565b5b906000526020600020906005020160000160049054906101000a900473ffffffffffffffffffffffffffffffffffffffff1673ffffffffffffffffffffffffffffffffffffffff1614801561096d57508273ffffffffffffffffffffffffffffffffffffffff16600182815481106109235761092261679f565b5b906000526020600020906005020160010160009054906101000a900473ffffffffffffffffffffffffffffffffffffffff1673ffffffffffffffffffffffffffffffffffffffff16145b80156109ed57506040518060400160405280600781526020017f57616974696e670000000000000000000000000000000000000000000000000081525080519060200120600182815481106109c5576109c461679f565b5b90600052602060002090600502016004016040516109e391906168ce565b6040518091039020145b156109fc576001915050610a11565b8080610a07906168e5565b915050610870565b505b92915050565b600080600090505b600280549050811015610b46578473ffffffffffffffffffffffffffffffffffffffff1660028281548110610a5757610a5661679f565b5b906000526020600020906008020160010160009054906101000a900473ffffffffffffffffffffffffffffffffffffffff1673ffffffffffffffffffffffffffffffffffffffff16148015610b2457508383604051602001610aba9291906166f6565b6040516020818303038152906040528051906020012060028281548110610ae457610ae361679f565b5b906000526020600020906008020160000160009054906101000a900460e01b7bffffffffffffffffffffffffffffffffffffffffffffffffffffffff1916145b15610b33576001915050610b48565b8080610b3e906168e5565b915050610a1f565b505b9392505050565b606080606080606080600060038054905067ffffffffffffffff811115610b7957610b7861554a565b5b604051908082528060200260200182016040528015610bac57816020015b6060815260200190600190039081610b975790505b509050600060038054905067ffffffffffffffff811115610bd057610bcf61554a565b5b604051908082528060200260200182016040528015610c0357816020015b6060815260200190600190039081610bee5790505b509050600060038054905067ffffffffffffffff811115610c2757610c2661554a565b5b604051908082528060200260200182016040528015610c5a57816020015b6060815260200190600190039081610c455790505b509050600060038054905067ffffffffffffffff811115610c7e57610c7d61554a565b5b604051908082528060200260200182016040528015610cac5781602001602082028036833780820191505090505b509050600060038054905067ffffffffffffffff811115610cd057610ccf61554a565b5b604051908082528060200260200182016040528015610cfe5781602001602082028036833780820191505090505b509050600060038054905067ffffffffffffffff811115610d2257610d2161554a565b5b604051908082528060200260200182016040528015610d505781602001602082028036833780820191505090505b50905060005b60038054905081101561119f578e73ffffffffffffffffffffffffffffffffffffffff1660028281548110610d8e57610d8d61679f565b5b906000526020600020906008020160000160049054906101000a900473ffffffffffffffffffffffffffffffffffffffff1673ffffffffffffffffffffffffffffffffffffffff16148015610e5357508d73ffffffffffffffffffffffffffffffffffffffff1660028281548110610e0957610e0861679f565b5b906000526020600020906008020160010160009054906101000a900473ffffffffffffffffffffffffffffffffffffffff1673ffffffffffffffffffffffffffffffffffffffff16145b1561118c5760038181548110610e6c57610e6b61679f565b5b90600052602060002090600802016002018054610e88906167fd565b80601f0160208091040260200160405190810160405280929190818152602001828054610eb4906167fd565b8015610f015780601f10610ed657610100808354040283529160200191610f01565b820191906000526020600020905b815481529060010190602001808311610ee457829003601f168201915b5050505050878281518110610f1957610f1861679f565b5b602002602001018190525060038181548110610f3857610f3761679f565b5b90600052602060002090600802016003018054610f54906167fd565b80601f0160208091040260200160405190810160405280929190818152602001828054610f80906167fd565b8015610fcd5780601f10610fa257610100808354040283529160200191610fcd565b820191906000526020600020905b815481529060010190602001808311610fb057829003601f168201915b5050505050868281518110610fe557610fe461679f565b5b6020026020010181905250600381815481106110045761100361679f565b5b90600052602060002090600802016004018054611020906167fd565b80601f016020809104026020016040519081016040528092919081815260200182805461104c906167fd565b80156110995780601f1061106e57610100808354040283529160200191611099565b820191906000526020600020905b81548152906001019060200180831161107c57829003601f168201915b50505050508582815181106110b1576110b061679f565b5b6020026020010181905250600381815481106110d0576110cf61679f565b5b9060005260206000209060080201600501548482815181106110f5576110f461679f565b5b602002602001018181525050600381815481106111155761111461679f565b5b90600052602060002090600802016006015483828151811061113a5761113961679f565b5b6020026020010181815250506003818154811061115a5761115961679f565b5b90600052602060002090600802016007015482828151811061117f5761117e61679f565b5b6020026020010181815250505b8080611197906168e5565b915050610d56565b508585858585859b509b509b509b509b509b505050505050509295509295509295565b600081815481106111d257600080fd5b90600052602060002090600702016000915090508060000160009054906101000a900473ffffffffffffffffffffffffffffffffffffffff169080600101805461121b906167fd565b80601f0160208091040260200160405190810160405280929190818152602001828054611247906167fd565b80156112945780601f1061126957610100808354040283529160200191611294565b820191906000526020600020905b81548152906001019060200180831161127757829003601f168201915b5050505050908060020180546112a9906167fd565b80601f01602080910402602001604051908101604052809291908181526020018280546112d5906167fd565b80156113225780601f106112f757610100808354040283529160200191611322565b820191906000526020600020905b81548152906001019060200180831161130557829003601f168201915b505050505090806003018054611337906167fd565b80601f0160208091040260200160405190810160405280929190818152602001828054611363906167fd565b80156113b05780601f10611385576101008083540402835291602001916113b0565b820191906000526020600020905b81548152906001019060200180831161139357829003601f168201915b5050505050908060040180546113c5906167fd565b80601f01602080910402602001604051908101604052809291908181526020018280546113f1906167fd565b801561143e5780601f106114135761010080835404028352916020019161143e565b820191906000526020600020905b81548152906001019060200180831161142157829003601f168201915b505050505090806005018054611453906167fd565b80601f016020809104026020016040519081016040528092919081815260200182805461147f906167fd565b80156114cc5780601f106114a1576101008083540402835291602001916114cc565b820191906000526020600020905b8154815290600101906020018083116114af57829003601f168201915b5050505050908060060180546114e1906167fd565b80601f016020809104026020016040519081016040528092919081815260200182805461150d906167fd565b801561155a5780601f1061152f5761010080835404028352916020019161155a565b820191906000526020600020905b81548152906001019060200180831161153d57829003601f168201915b5050505050905087565b606080606080606080600060018054905067ffffffffffffffff81111561158e5761158d61554a565b5b6040519080825280602002602001820160405280156115bc5781602001602082028036833780820191505090505b509050600060018054905067ffffffffffffffff8111156115e0576115df61554a565b5b60405190808252806020026020018201604052801561160e5781602001602082028036833780820191505090505b509050600060018054905067ffffffffffffffff8111156116325761163161554a565b5b6040519080825280602002602001820160405280156116605781602001602082028036833780820191505090505b509050600060018054905067ffffffffffffffff8111156116845761168361554a565b5b6040519080825280602002602001820160405280156116b757816020015b60608152602001906001900390816116a25790505b509050600060018054905067ffffffffffffffff8111156116db576116da61554a565b5b60405190808252806020026020018201604052801561170e57816020015b60608152602001906001900390816116f95790505b509050600060018054905067ffffffffffffffff8111156117325761173161554a565b5b60405190808252806020026020018201604052801561176557816020015b60608152602001906001900390816117505790505b50905060005b600180549050811015611c9d578e73ffffffffffffffffffffffffffffffffffffffff16600182815481106117a3576117a261679f565b5b906000526020600020906005020160010160009054906101000a900473ffffffffffffffffffffffffffffffffffffffff1673ffffffffffffffffffffffffffffffffffffffff1614801561186857508d73ffffffffffffffffffffffffffffffffffffffff166001828154811061181e5761181d61679f565b5b906000526020600020906005020160000160049054906101000a900473ffffffffffffffffffffffffffffffffffffffff1673ffffffffffffffffffffffffffffffffffffffff16145b15611c8a57600181815481106118815761188061679f565b5b906000526020600020906005020160000160009054906101000a900460e01b8782815181106118b3576118b261679f565b5b60200260200101907bffffffffffffffffffffffffffffffffffffffffffffffffffffffff191690817bffffffffffffffffffffffffffffffffffffffffffffffffffffffff191681525050600181815481106119135761191261679f565b5b906000526020600020906005020160000160049054906101000a900473ffffffffffffffffffffffffffffffffffffffff168682815181106119585761195761679f565b5b602002602001019073ffffffffffffffffffffffffffffffffffffffff16908173ffffffffffffffffffffffffffffffffffffffff1681525050600181815481106119a6576119a561679f565b5b906000526020600020906005020160010160009054906101000a900473ffffffffffffffffffffffffffffffffffffffff168582815181106119eb576119ea61679f565b5b602002602001019073ffffffffffffffffffffffffffffffffffffffff16908173ffffffffffffffffffffffffffffffffffffffff168152505060018181548110611a3957611a3861679f565b5b90600052602060002090600502016002018054611a55906167fd565b80601f0160208091040260200160405190810160405280929190818152602001828054611a81906167fd565b8015611ace5780601f10611aa357610100808354040283529160200191611ace565b820191906000526020600020905b815481529060010190602001808311611ab157829003601f168201915b5050505050848281518110611ae657611ae561679f565b5b602002602001018190525060018181548110611b0557611b0461679f565b5b90600052602060002090600502016003018054611b21906167fd565b80601f0160208091040260200160405190810160405280929190818152602001828054611b4d906167fd565b8015611b9a5780601f10611b6f57610100808354040283529160200191611b9a565b820191906000526020600020905b815481529060010190602001808311611b7d57829003601f168201915b5050505050838281518110611bb257611bb161679f565b5b602002602001018190525060018181548110611bd157611bd061679f565b5b90600052602060002090600502016004018054611bed906167fd565b80601f0160208091040260200160405190810160405280929190818152602001828054611c19906167fd565b8015611c665780601f10611c3b57610100808354040283529160200191611c66565b820191906000526020600020905b815481529060010190602001808311611c4957829003601f168201915b5050505050828281518110611c7e57611c7d61679f565b5b60200260200101819052505b8080611c95906168e5565b91505061176b565b508585858585859b509b509b509b509b509b505050505050509295509295509295565b6000606080606080606060005b600080549050811015612133578773ffffffffffffffffffffffffffffffffffffffff1660008281548110611d0557611d0461679f565b5b906000526020600020906007020160000160009054906101000a900473ffffffffffffffffffffffffffffffffffffffff1673ffffffffffffffffffffffffffffffffffffffff1614156121205760008181548110611d6757611d6661679f565b5b906000526020600020906007020160000160009054906101000a900473ffffffffffffffffffffffffffffffffffffffff1660008281548110611dad57611dac61679f565b5b906000526020600020906007020160010160008381548110611dd257611dd161679f565b5b906000526020600020906007020160020160008481548110611df757611df661679f565b5b906000526020600020906007020160030160008581548110611e1c57611e1b61679f565b5b906000526020600020906007020160040160008681548110611e4157611e4061679f565b5b9060005260206000209060070201600501848054611e5e906167fd565b80601f0160208091040260200160405190810160405280929190818152602001828054611e8a906167fd565b8015611ed75780601f10611eac57610100808354040283529160200191611ed7565b820191906000526020600020905b815481529060010190602001808311611eba57829003601f168201915b50505050509450838054611eea906167fd565b80601f0160208091040260200160405190810160405280929190818152602001828054611f16906167fd565b8015611f635780601f10611f3857610100808354040283529160200191611f63565b820191906000526020600020905b815481529060010190602001808311611f4657829003601f168201915b50505050509350828054611f76906167fd565b80601f0160208091040260200160405190810160405280929190818152602001828054611fa2906167fd565b8015611fef5780601f10611fc457610100808354040283529160200191611fef565b820191906000526020600020905b815481529060010190602001808311611fd257829003601f168201915b50505050509250818054612002906167fd565b80601f016020809104026020016040519081016040528092919081815260200182805461202e906167fd565b801561207b5780601f106120505761010080835404028352916020019161207b565b820191906000526020600020905b81548152906001019060200180831161205e57829003601f168201915b5050505050915080805461208e906167fd565b80601f01602080910402602001604051908101604052809291908181526020018280546120ba906167fd565b80156121075780601f106120dc57610100808354040283529160200191612107565b820191906000526020600020905b8154815290600101906020018083116120ea57829003601f168201915b5050505050905096509650965096509650965050612135565b808061212b906168e5565b915050611ccd565b505b91939550919395565b600080600090505b600080549050811015612234578373ffffffffffffffffffffffffffffffffffffffff166000828154811061217e5761217d61679f565b5b906000526020600020906007020160000160009054906101000a900473ffffffffffffffffffffffffffffffffffffffff1673ffffffffffffffffffffffffffffffffffffffff1614801561221257508280519060200120600082815481106121ea576121e961679f565b5b906000526020600020906007020160060160405161220891906168ce565b6040518091039020145b15612221576001915050612236565b808061222c906168e5565b915050612146565b505b92915050565b6001818154811061224c57600080fd5b90600052602060002090600502016000915090508060000160009054906101000a900460e01b908060000160049054906101000a900473ffffffffffffffffffffffffffffffffffffffff16908060010160009054906101000a900473ffffffffffffffffffffffffffffffffffffffff16908060020180546122ce906167fd565b80601f01602080910402602001604051908101604052809291908181526020018280546122fa906167fd565b80156123475780601f1061231c57610100808354040283529160200191612347565b820191906000526020600020905b81548152906001019060200180831161232a57829003601f168201915b50505050509080600301805461235c906167fd565b80601f0160208091040260200160405190810160405280929190818152602001828054612388906167fd565b80156123d55780601f106123aa576101008083540402835291602001916123d5565b820191906000526020600020905b8154815290600101906020018083116123b857829003601f168201915b5050505050908060040180546123ea906167fd565b80601f0160208091040260200160405190810160405280929190818152602001828054612416906167fd565b80156124635780601f1061243857610100808354040283529160200191612463565b820191906000526020600020905b81548152906001019060200180831161244657829003601f168201915b5050505050905086565b600080600090505b600080549050811015612518578273ffffffffffffffffffffffffffffffffffffffff16600082815481106124ad576124ac61679f565b5b906000526020600020906007020160000160009054906101000a900473ffffffffffffffffffffffffffffffffffffffff1673ffffffffffffffffffffffffffffffffffffffff16141561250557600191505061251a565b8080612510906168e5565b915050612475565b505b919050565b6003818154811061252f57600080fd5b90600052602060002090600802016000915090508060000160009054906101000a900460e01b908060000160049054906101000a900473ffffffffffffffffffffffffffffffffffffffff16908060010160009054906101000a900473ffffffffffffffffffffffffffffffffffffffff16908060020180546125b1906167fd565b80601f01602080910402602001604051908101604052809291908181526020018280546125dd906167fd565b801561262a5780601f106125ff5761010080835404028352916020019161262a565b820191906000526020600020905b81548152906001019060200180831161260d57829003601f168201915b50505050509080600301805461263f906167fd565b80601f016020809104026020016040519081016040528092919081815260200182805461266b906167fd565b80156126b85780601f1061268d576101008083540402835291602001916126b8565b820191906000526020600020905b81548152906001019060200180831161269b57829003601f168201915b5050505050908060040180546126cd906167fd565b80601f01602080910402602001604051908101604052809291908181526020018280546126f9906167fd565b80156127465780601f1061271b57610100808354040283529160200191612746565b820191906000526020600020905b81548152906001019060200180831161272957829003601f168201915b5050505050908060050154908060060154908060070154905089565b6060806060600080600080600090505b600380549050811015612ba2578a73ffffffffffffffffffffffffffffffffffffffff16600382815481106127aa576127a961679f565b5b906000526020600020906008020160000160049054906101000a900473ffffffffffffffffffffffffffffffffffffffff1673ffffffffffffffffffffffffffffffffffffffff1614801561286f57508973ffffffffffffffffffffffffffffffffffffffff16600382815481106128255761282461679f565b5b906000526020600020906008020160010160009054906101000a900473ffffffffffffffffffffffffffffffffffffffff1673ffffffffffffffffffffffffffffffffffffffff16145b80156128f3575088886040516020016128899291906166f6565b60405160208183030381529060405280519060200120600382815481106128b3576128b261679f565b5b906000526020600020906008020160000160009054906101000a900460e01b7bffffffffffffffffffffffffffffffffffffffffffffffffffffffff1916145b15612b8f576003818154811061290c5761290b61679f565b5b9060005260206000209060080201600201600382815481106129315761293061679f565b5b9060005260206000209060080201600301600383815481106129565761295561679f565b5b90600052602060002090600802016004016003848154811061297b5761297a61679f565b5b906000526020600020906008020160050154600385815481106129a1576129a061679f565b5b906000526020600020906008020160060154600386815481106129c7576129c661679f565b5b9060005260206000209060080201600701548580546129e5906167fd565b80601f0160208091040260200160405190810160405280929190818152602001828054612a11906167fd565b8015612a5e5780601f10612a3357610100808354040283529160200191612a5e565b820191906000526020600020905b815481529060010190602001808311612a4157829003601f168201915b50505050509550848054612a71906167fd565b80601f0160208091040260200160405190810160405280929190818152602001828054612a9d906167fd565b8015612aea5780601f10612abf57610100808354040283529160200191612aea565b820191906000526020600020905b815481529060010190602001808311612acd57829003601f168201915b50505050509450838054612afd906167fd565b80601f0160208091040260200160405190810160405280929190818152602001828054612b29906167fd565b8015612b765780601f10612b4b57610100808354040283529160200191612b76565b820191906000526020600020905b815481529060010190602001808311612b5957829003601f168201915b5050505050935096509650965096509650965050612ba4565b8080612b9a906168e5565b915050612772565b505b9499939850945094509450565b60005b600080549050811015612d70578673ffffffffffffffffffffffffffffffffffffffff1660008281548110612bec57612beb61679f565b5b906000526020600020906007020160000160009054906101000a900473ffffffffffffffffffffffffffffffffffffffff1673ffffffffffffffffffffffffffffffffffffffff161415612d5d578560008281548110612c4f57612c4e61679f565b5b90600052602060002090600702016001019080519060200190612c7392919061541a565b508460008281548110612c8957612c8861679f565b5b90600052602060002090600702016002019080519060200190612cad92919061541a565b508360008281548110612cc357612cc261679f565b5b90600052602060002090600702016003019080519060200190612ce792919061541a565b508260008281548110612cfd57612cfc61679f565b5b90600052602060002090600702016004019080519060200190612d2192919061541a565b508160008281548110612d3757612d3661679f565b5b90600052602060002090600702016005019080519060200190612d5b92919061541a565b505b8080612d68906168e5565b915050612bb4565b50505050505050565b600080600090505b600380549050811015612ea8578473ffffffffffffffffffffffffffffffffffffffff1660028281548110612db957612db861679f565b5b906000526020600020906008020160010160009054906101000a900473ffffffffffffffffffffffffffffffffffffffff1673ffffffffffffffffffffffffffffffffffffffff16148015612e8657508383604051602001612e1c9291906166f6565b6040516020818303038152906040528051906020012060028281548110612e4657612e4561679f565b5b906000526020600020906008020160000160009054906101000a900460e01b7bffffffffffffffffffffffffffffffffffffffffffffffffffffffff1916145b15612e95576001915050612eaa565b8080612ea0906168e5565b915050612d81565b505b9392505050565b60608060608060608060606000808054905067ffffffffffffffff811115612edc57612edb61554a565b5b604051908082528060200260200182016040528015612f0a5781602001602082028036833780820191505090505b5090506000808054905067ffffffffffffffff811115612f2d57612f2c61554a565b5b604051908082528060200260200182016040528015612f6057816020015b6060815260200190600190039081612f4b5790505b5090506000808054905067ffffffffffffffff811115612f8357612f8261554a565b5b604051908082528060200260200182016040528015612fb657816020015b6060815260200190600190039081612fa15790505b5090506000808054905067ffffffffffffffff811115612fd957612fd861554a565b5b60405190808252806020026020018201604052801561300c57816020015b6060815260200190600190039081612ff75790505b5090506000808054905067ffffffffffffffff81111561302f5761302e61554a565b5b60405190808252806020026020018201604052801561306257816020015b606081526020019060019003908161304d5790505b5090506000808054905067ffffffffffffffff8111156130855761308461554a565b5b6040519080825280602002602001820160405280156130b857816020015b60608152602001906001900390816130a35790505b5090506000808054905067ffffffffffffffff8111156130db576130da61554a565b5b60405190808252806020026020018201604052801561310e57816020015b60608152602001906001900390816130f95790505b50905060005b60008054905081101561368f57600081815481106131355761313461679f565b5b906000526020600020906007020160000160009054906101000a900473ffffffffffffffffffffffffffffffffffffffff1688828151811061317a5761317961679f565b5b602002602001019073ffffffffffffffffffffffffffffffffffffffff16908173ffffffffffffffffffffffffffffffffffffffff1681525050600081815481106131c8576131c761679f565b5b906000526020600020906007020160010180546131e4906167fd565b80601f0160208091040260200160405190810160405280929190818152602001828054613210906167fd565b801561325d5780601f106132325761010080835404028352916020019161325d565b820191906000526020600020905b81548152906001019060200180831161324057829003601f168201915b50505050508782815181106132755761327461679f565b5b6020026020010181905250600081815481106132945761329361679f565b5b906000526020600020906007020160020180546132b0906167fd565b80601f01602080910402602001604051908101604052809291908181526020018280546132dc906167fd565b80156133295780601f106132fe57610100808354040283529160200191613329565b820191906000526020600020905b81548152906001019060200180831161330c57829003601f168201915b50505050508682815181106133415761334061679f565b5b6020026020010181905250600081815481106133605761335f61679f565b5b9060005260206000209060070201600301805461337c906167fd565b80601f01602080910402602001604051908101604052809291908181526020018280546133a8906167fd565b80156133f55780601f106133ca576101008083540402835291602001916133f5565b820191906000526020600020905b8154815290600101906020018083116133d857829003601f168201915b505050505085828151811061340d5761340c61679f565b5b60200260200101819052506000818154811061342c5761342b61679f565b5b90600052602060002090600702016004018054613448906167fd565b80601f0160208091040260200160405190810160405280929190818152602001828054613474906167fd565b80156134c15780601f10613496576101008083540402835291602001916134c1565b820191906000526020600020905b8154815290600101906020018083116134a457829003601f168201915b50505050508482815181106134d9576134d861679f565b5b6020026020010181905250600081815481106134f8576134f761679f565b5b90600052602060002090600702016005018054613514906167fd565b80601f0160208091040260200160405190810160405280929190818152602001828054613540906167fd565b801561358d5780601f106135625761010080835404028352916020019161358d565b820191906000526020600020905b81548152906001019060200180831161357057829003601f168201915b50505050508382815181106135a5576135a461679f565b5b6020026020010181905250600081815481106135c4576135c361679f565b5b906000526020600020906007020160060180546135e0906167fd565b80601f016020809104026020016040519081016040528092919081815260200182805461360c906167fd565b80156136595780601f1061362e57610100808354040283529160200191613659565b820191906000526020600020905b81548152906001019060200180831161363c57829003601f168201915b50505050508282815181106136715761367061679f565b5b60200260200101819052508080613687906168e5565b915050613114565b50868686868686869d509d509d509d509d509d509d505050505050505090919293949596565b60006136c18585610868565b14613701576040517f08c379a00000000000000000000000000000000000000000000000000000000081526004016136f89061697a565b60405180910390fd5b60016040518060c001604052808360405160200161371f919061699a565b604051602081830303815290604052805190602001207bffffffffffffffffffffffffffffffffffffffffffffffffffffffff191681526020018673ffffffffffffffffffffffffffffffffffffffff1681526020018573ffffffffffffffffffffffffffffffffffffffff1681526020018481526020018381526020016040518060400160405280600781526020017f57616974696e6700000000000000000000000000000000000000000000000000815250815250908060018154018082558091505060019003906000526020600020906005020160009091909190915060008201518160000160006101000a81548163ffffffff021916908360e01c021790555060208201518160000160046101000a81548173ffffffffffffffffffffffffffffffffffffffff021916908373ffffffffffffffffffffffffffffffffffffffff16021790555060408201518160010160006101000a81548173ffffffffffffffffffffffffffffffffffffffff021916908373ffffffffffffffffffffffffffffffffffffffff16021790555060608201518160020190805190602001906138cd92919061541a565b5060808201518160030190805190602001906138ea92919061541a565b5060a082015181600401908051906020019061390792919061541a565b50505050505050565b606080606080606080600060018054905067ffffffffffffffff81111561393a5761393961554a565b5b6040519080825280602002602001820160405280156139685781602001602082028036833780820191505090505b509050600060018054905067ffffffffffffffff81111561398c5761398b61554a565b5b6040519080825280602002602001820160405280156139ba5781602001602082028036833780820191505090505b509050600060018054905067ffffffffffffffff8111156139de576139dd61554a565b5b604051908082528060200260200182016040528015613a0c5781602001602082028036833780820191505090505b509050600060018054905067ffffffffffffffff811115613a3057613a2f61554a565b5b604051908082528060200260200182016040528015613a6357816020015b6060815260200190600190039081613a4e5790505b509050600060018054905067ffffffffffffffff811115613a8757613a8661554a565b5b604051908082528060200260200182016040528015613aba57816020015b6060815260200190600190039081613aa55790505b509050600060018054905067ffffffffffffffff811115613ade57613add61554a565b5b604051908082528060200260200182016040528015613b1157816020015b6060815260200190600190039081613afc5790505b50905060005b600180549050811015613fcd578d73ffffffffffffffffffffffffffffffffffffffff1660018281548110613b4f57613b4e61679f565b5b906000526020600020906005020160010160009054906101000a900473ffffffffffffffffffffffffffffffffffffffff1673ffffffffffffffffffffffffffffffffffffffff161415613fba5760018181548110613bb157613bb061679f565b5b906000526020600020906005020160000160009054906101000a900460e01b878281518110613be357613be261679f565b5b60200260200101907bffffffffffffffffffffffffffffffffffffffffffffffffffffffff191690817bffffffffffffffffffffffffffffffffffffffffffffffffffffffff19168152505060018181548110613c4357613c4261679f565b5b906000526020600020906005020160000160049054906101000a900473ffffffffffffffffffffffffffffffffffffffff16868281518110613c8857613c8761679f565b5b602002602001019073ffffffffffffffffffffffffffffffffffffffff16908173ffffffffffffffffffffffffffffffffffffffff168152505060018181548110613cd657613cd561679f565b5b906000526020600020906005020160010160009054906101000a900473ffffffffffffffffffffffffffffffffffffffff16858281518110613d1b57613d1a61679f565b5b602002602001019073ffffffffffffffffffffffffffffffffffffffff16908173ffffffffffffffffffffffffffffffffffffffff168152505060018181548110613d6957613d6861679f565b5b90600052602060002090600502016002018054613d85906167fd565b80601f0160208091040260200160405190810160405280929190818152602001828054613db1906167fd565b8015613dfe5780601f10613dd357610100808354040283529160200191613dfe565b820191906000526020600020905b815481529060010190602001808311613de157829003601f168201915b5050505050848281518110613e1657613e1561679f565b5b602002602001018190525060018181548110613e3557613e3461679f565b5b90600052602060002090600502016003018054613e51906167fd565b80601f0160208091040260200160405190810160405280929190818152602001828054613e7d906167fd565b8015613eca5780601f10613e9f57610100808354040283529160200191613eca565b820191906000526020600020905b815481529060010190602001808311613ead57829003601f168201915b5050505050838281518110613ee257613ee161679f565b5b602002602001018190525060018181548110613f0157613f0061679f565b5b90600052602060002090600502016004018054613f1d906167fd565b80601f0160208091040260200160405190810160405280929190818152602001828054613f49906167fd565b8015613f965780601f10613f6b57610100808354040283529160200191613f96565b820191906000526020600020905b815481529060010190602001808311613f7957829003601f168201915b5050505050828281518110613fae57613fad61679f565b5b60200260200101819052505b8080613fc5906168e5565b915050613b17565b508585858585859b509b509b509b509b509b5050505050505091939550919395565b60028181548110613fff57600080fd5b90600052602060002090600802016000915090508060000160009054906101000a900460e01b908060000160049054906101000a900473ffffffffffffffffffffffffffffffffffffffff16908060010160009054906101000a900473ffffffffffffffffffffffffffffffffffffffff1690806002018054614081906167fd565b80601f01602080910402602001604051908101604052809291908181526020018280546140ad906167fd565b80156140fa5780601f106140cf576101008083540402835291602001916140fa565b820191906000526020600020905b8154815290600101906020018083116140dd57829003601f168201915b50505050509080600301805461410f906167fd565b80601f016020809104026020016040519081016040528092919081815260200182805461413b906167fd565b80156141885780601f1061415d57610100808354040283529160200191614188565b820191906000526020600020905b81548152906001019060200180831161416b57829003601f168201915b50505050509080600401805461419d906167fd565b80601f01602080910402602001604051908101604052809291908181526020018280546141c9906167fd565b80156142165780601f106141eb57610100808354040283529160200191614216565b820191906000526020600020905b8154815290600101906020018083116141f957829003601f168201915b5050505050908060050154908060060154908060070154905089565b6060806060600080600080600090505b600280549050811015614672578a73ffffffffffffffffffffffffffffffffffffffff166002828154811061427a5761427961679f565b5b906000526020600020906008020160000160049054906101000a900473ffffffffffffffffffffffffffffffffffffffff1673ffffffffffffffffffffffffffffffffffffffff1614801561433f57508973ffffffffffffffffffffffffffffffffffffffff16600282815481106142f5576142f461679f565b5b906000526020600020906008020160010160009054906101000a900473ffffffffffffffffffffffffffffffffffffffff1673ffffffffffffffffffffffffffffffffffffffff16145b80156143c3575088886040516020016143599291906166f6565b60405160208183030381529060405280519060200120600282815481106143835761438261679f565b5b906000526020600020906008020160000160009054906101000a900460e01b7bffffffffffffffffffffffffffffffffffffffffffffffffffffffff1916145b1561465f57600281815481106143dc576143db61679f565b5b9060005260206000209060080201600201600282815481106144015761440061679f565b5b9060005260206000209060080201600301600283815481106144265761442561679f565b5b90600052602060002090600802016004016002848154811061444b5761444a61679f565b5b906000526020600020906008020160050154600285815481106144715761447061679f565b5b906000526020600020906008020160060154600286815481106144975761449661679f565b5b9060005260206000209060080201600701548580546144b5906167fd565b80601f01602080910402602001604051908101604052809291908181526020018280546144e1906167fd565b801561452e5780601f106145035761010080835404028352916020019161452e565b820191906000526020600020905b81548152906001019060200180831161451157829003601f168201915b50505050509550848054614541906167fd565b80601f016020809104026020016040519081016040528092919081815260200182805461456d906167fd565b80156145ba5780601f1061458f576101008083540402835291602001916145ba565b820191906000526020600020905b81548152906001019060200180831161459d57829003601f168201915b505050505094508380546145cd906167fd565b80601f01602080910402602001604051908101604052809291908181526020018280546145f9906167fd565b80156146465780601f1061461b57610100808354040283529160200191614646565b820191906000526020600020905b81548152906001019060200180831161462957829003601f168201915b5050505050935096509650965096509650965050614674565b808061466a906168e5565b915050614242565b505b9499939850945094509450565b6040518060400160405280600881526020017f4163636570746564000000000000000000000000000000000000000000000000815250805190602001208180519060200120148061471457506040518060400160405280600881526020017f4465636c696e6564000000000000000000000000000000000000000000000000815250805190602001208180519060200120145b614753576040517f08c379a000000000000000000000000000000000000000000000000000000000815260040161474a906169fd565b60405180910390fd5b60005b600180549050811015614921578473ffffffffffffffffffffffffffffffffffffffff166001828154811061478e5761478d61679f565b5b906000526020600020906005020160000160049054906101000a900473ffffffffffffffffffffffffffffffffffffffff1673ffffffffffffffffffffffffffffffffffffffff1614801561485357508373ffffffffffffffffffffffffffffffffffffffff16600182815481106148095761480861679f565b5b906000526020600020906005020160010160009054906101000a900473ffffffffffffffffffffffffffffffffffffffff1673ffffffffffffffffffffffffffffffffffffffff16145b80156148ce5750827bffffffffffffffffffffffffffffffffffffffffffffffffffffffff19166001828154811061488e5761488d61679f565b5b906000526020600020906005020160000160009054906101000a900460e01b7bffffffffffffffffffffffffffffffffffffffffffffffffffffffff1916145b1561490e5781600182815481106148e8576148e761679f565b5b9060005260206000209060050201600401908051906020019061490c92919061541a565b505b8080614919906168e5565b915050614756565b5050505050565b606080606080606080600060028054905067ffffffffffffffff8111156149525761495161554a565b5b60405190808252806020026020018201604052801561498557816020015b60608152602001906001900390816149705790505b509050600060028054905067ffffffffffffffff8111156149a9576149a861554a565b5b6040519080825280602002602001820160405280156149dc57816020015b60608152602001906001900390816149c75790505b509050600060028054905067ffffffffffffffff811115614a00576149ff61554a565b5b604051908082528060200260200182016040528015614a3357816020015b6060815260200190600190039081614a1e5790505b509050600060028054905067ffffffffffffffff811115614a5757614a5661554a565b5b604051908082528060200260200182016040528015614a855781602001602082028036833780820191505090505b509050600060028054905067ffffffffffffffff811115614aa957614aa861554a565b5b604051908082528060200260200182016040528015614ad75781602001602082028036833780820191505090505b509050600060028054905067ffffffffffffffff811115614afb57614afa61554a565b5b604051908082528060200260200182016040528015614b295781602001602082028036833780820191505090505b50905060005b600280549050811015614f78578e73ffffffffffffffffffffffffffffffffffffffff1660028281548110614b6757614b6661679f565b5b906000526020600020906008020160000160049054906101000a900473ffffffffffffffffffffffffffffffffffffffff1673ffffffffffffffffffffffffffffffffffffffff16148015614c2c57508d73ffffffffffffffffffffffffffffffffffffffff1660028281548110614be257614be161679f565b5b906000526020600020906008020160010160009054906101000a900473ffffffffffffffffffffffffffffffffffffffff1673ffffffffffffffffffffffffffffffffffffffff16145b15614f655760028181548110614c4557614c4461679f565b5b90600052602060002090600802016002018054614c61906167fd565b80601f0160208091040260200160405190810160405280929190818152602001828054614c8d906167fd565b8015614cda5780601f10614caf57610100808354040283529160200191614cda565b820191906000526020600020905b815481529060010190602001808311614cbd57829003601f168201915b5050505050878281518110614cf257614cf161679f565b5b602002602001018190525060028181548110614d1157614d1061679f565b5b90600052602060002090600802016003018054614d2d906167fd565b80601f0160208091040260200160405190810160405280929190818152602001828054614d59906167fd565b8015614da65780601f10614d7b57610100808354040283529160200191614da6565b820191906000526020600020905b815481529060010190602001808311614d8957829003601f168201915b5050505050868281518110614dbe57614dbd61679f565b5b602002602001018190525060028181548110614ddd57614ddc61679f565b5b90600052602060002090600802016004018054614df9906167fd565b80601f0160208091040260200160405190810160405280929190818152602001828054614e25906167fd565b8015614e725780601f10614e4757610100808354040283529160200191614e72565b820191906000526020600020905b815481529060010190602001808311614e5557829003601f168201915b5050505050858281518110614e8a57614e8961679f565b5b602002602001018190525060028181548110614ea957614ea861679f565b5b906000526020600020906008020160050154848281518110614ece57614ecd61679f565b5b60200260200101818152505060028181548110614eee57614eed61679f565b5b906000526020600020906008020160060154838281518110614f1357614f1261679f565b5b60200260200101818152505060028181548110614f3357614f3261679f565b5b906000526020600020906008020160070154828281518110614f5857614f5761679f565b5b6020026020010181815250505b8080614f70906168e5565b915050614b2f565b508585858585859b509b509b509b509b509b505050505050509295509295509295565b6000614fa8878787610a17565b14614fe8576040517f08c379a0000000000000000000000000000000000000000000000000000000008152600401614fdf90616a69565b60405180910390fd5b60008210158015614ffa575060c88211155b615039576040517f08c379a000000000000000000000000000000000000000000000000000000000815260040161503090616ad5565b60405180910390fd5b6000811015801561504b575060c88111155b61508a576040517f08c379a000000000000000000000000000000000000000000000000000000000815260040161508190616b41565b60405180910390fd5b600360405180610120016040528087876040516020016150ab9291906166f6565b604051602081830303815290604052805190602001207bffffffffffffffffffffffffffffffffffffffffffffffffffffffff191681526020018973ffffffffffffffffffffffffffffffffffffffff1681526020018873ffffffffffffffffffffffffffffffffffffffff16815260200187815260200186815260200185815260200184815260200183815260200183856151479190616749565b815250908060018154018082558091505060019003906000526020600020906008020160009091909190915060008201518160000160006101000a81548163ffffffff021916908360e01c021790555060208201518160000160046101000a81548173ffffffffffffffffffffffffffffffffffffffff021916908373ffffffffffffffffffffffffffffffffffffffff16021790555060408201518160010160006101000a81548173ffffffffffffffffffffffffffffffffffffffff021916908373ffffffffffffffffffffffffffffffffffffffff160217905550606082015181600201908051906020019061524192919061541a565b50608082015181600301908051906020019061525e92919061541a565b5060a082015181600401908051906020019061527b92919061541a565b5060c0820151816005015560e082015181600601556101008201518160070155505050505050505050565b60006040518060e001604052808973ffffffffffffffffffffffffffffffffffffffff16815260200188815260200187815260200186815260200185815260200184815260200183815250908060018154018082558091505060019003906000526020600020906007020160009091909190915060008201518160000160006101000a81548173ffffffffffffffffffffffffffffffffffffffff021916908373ffffffffffffffffffffffffffffffffffffffff160217905550602082015181600101908051906020019061537d92919061541a565b50604082015181600201908051906020019061539a92919061541a565b5060608201518160030190805190602001906153b792919061541a565b5060808201518160040190805190602001906153d492919061541a565b5060a08201518160050190805190602001906153f192919061541a565b5060c082015181600601908051906020019061540e92919061541a565b50505050505050505050565b828054615426906167fd565b90600052602060002090601f016020900481019282615448576000855561548f565b82601f1061546157805160ff191683800117855561548f565b8280016001018555821561548f579182015b8281111561548e578251825591602001919060010190615473565b5b50905061549c91906154a0565b5090565b5b808211156154b95760008160009055506001016154a1565b5090565b6000604051905090565b600080fd5b600080fd5b600073ffffffffffffffffffffffffffffffffffffffff82169050919050565b60006154fc826154d1565b9050919050565b61550c816154f1565b811461551757600080fd5b50565b60008135905061552981615503565b92915050565b600080fd5b600080fd5b6000601f19601f8301169050919050565b7f4e487b7100000000000000000000000000000000000000000000000000000000600052604160045260246000fd5b61558282615539565b810181811067ffffffffffffffff821117156155a1576155a061554a565b5b80604052505050565b60006155b46154bd565b90506155c08282615579565b919050565b600067ffffffffffffffff8211156155e0576155df61554a565b5b6155e982615539565b9050602081019050919050565b82818337600083830152505050565b6000615618615613846155c5565b6155aa565b90508281526020810184848401111561563457615633615534565b5b61563f8482856155f6565b509392505050565b600082601f83011261565c5761565b61552f565b5b813561566c848260208601615605565b91505092915050565b6000819050919050565b61568881615675565b811461569357600080fd5b50565b6000813590506156a58161567f565b92915050565b600080600080600080600060e0888a0312156156ca576156c96154c7565b5b60006156d88a828b0161551a565b97505060206156e98a828b0161551a565b965050604088013567ffffffffffffffff81111561570a576157096154cc565b5b6157168a828b01615647565b955050606088013567ffffffffffffffff811115615737576157366154cc565b5b6157438a828b01615647565b945050608088013567ffffffffffffffff811115615764576157636154cc565b5b6157708a828b01615647565b93505060a06157818a828b01615696565b92505060c06157928a828b01615696565b91505092959891949750929550565b600080604083850312156157b8576157b76154c7565b5b60006157c68582860161551a565b92505060206157d78582860161551a565b9150509250929050565b6157ea81615675565b82525050565b600060208201905061580560008301846157e1565b92915050565b600080600060608486031215615824576158236154c7565b5b60006158328682870161551a565b935050602084013567ffffffffffffffff811115615853576158526154cc565b5b61585f86828701615647565b925050604084013567ffffffffffffffff8111156158805761587f6154cc565b5b61588c86828701615647565b9150509250925092565b600081519050919050565b600082825260208201905092915050565b6000819050602082019050919050565b600081519050919050565b600082825260208201905092915050565b60005b838110156158fc5780820151818401526020810190506158e1565b8381111561590b576000848401525b50505050565b600061591c826158c2565b61592681856158cd565b93506159368185602086016158de565b61593f81615539565b840191505092915050565b60006159568383615911565b905092915050565b6000602082019050919050565b600061597682615896565b61598081856158a1565b935083602082028501615992856158b2565b8060005b858110156159ce57848403895281516159af858261594a565b94506159ba8361595e565b925060208a01995050600181019050615996565b50829750879550505050505092915050565b600081519050919050565b600082825260208201905092915050565b6000819050602082019050919050565b615a1581615675565b82525050565b6000615a278383615a0c565b60208301905092915050565b6000602082019050919050565b6000615a4b826159e0565b615a5581856159eb565b9350615a60836159fc565b8060005b83811015615a91578151615a788882615a1b565b9750615a8383615a33565b925050600181019050615a64565b5085935050505092915050565b600060c0820190508181036000830152615ab8818961596b565b90508181036020830152615acc818861596b565b90508181036040830152615ae0818761596b565b90508181036060830152615af48186615a40565b90508181036080830152615b088185615a40565b905081810360a0830152615b1c8184615a40565b9050979650505050505050565b600060208284031215615b3f57615b3e6154c7565b5b6000615b4d84828501615696565b91505092915050565b615b5f816154f1565b82525050565b600082825260208201905092915050565b6000615b81826158c2565b615b8b8185615b65565b9350615b9b8185602086016158de565b615ba481615539565b840191505092915050565b600060e082019050615bc4600083018a615b56565b8181036020830152615bd68189615b76565b90508181036040830152615bea8188615b76565b90508181036060830152615bfe8187615b76565b90508181036080830152615c128186615b76565b905081810360a0830152615c268185615b76565b905081810360c0830152615c3a8184615b76565b905098975050505050505050565b600081519050919050565b600082825260208201905092915050565b6000819050602082019050919050565b60007fffffffff0000000000000000000000000000000000000000000000000000000082169050919050565b615ca981615c74565b82525050565b6000615cbb8383615ca0565b60208301905092915050565b6000602082019050919050565b6000615cdf82615c48565b615ce98185615c53565b9350615cf483615c64565b8060005b83811015615d25578151615d0c8882615caf565b9750615d1783615cc7565b925050600181019050615cf8565b5085935050505092915050565b600081519050919050565b600082825260208201905092915050565b6000819050602082019050919050565b615d67816154f1565b82525050565b6000615d798383615d5e565b60208301905092915050565b6000602082019050919050565b6000615d9d82615d32565b615da78185615d3d565b9350615db283615d4e565b8060005b83811015615de3578151615dca8882615d6d565b9750615dd583615d85565b925050600181019050615db6565b5085935050505092915050565b600060c0820190508181036000830152615e0a8189615cd4565b90508181036020830152615e1e8188615d92565b90508181036040830152615e328187615d92565b90508181036060830152615e46818661596b565b90508181036080830152615e5a818561596b565b905081810360a0830152615e6e818461596b565b9050979650505050505050565b600060208284031215615e9157615e906154c7565b5b6000615e9f8482850161551a565b91505092915050565b600060c082019050615ebd6000830189615b56565b8181036020830152615ecf8188615b76565b90508181036040830152615ee38187615b76565b90508181036060830152615ef78186615b76565b90508181036080830152615f0b8185615b76565b905081810360a0830152615f1f8184615b76565b9050979650505050505050565b60008060408385031215615f4357615f426154c7565b5b6000615f518582860161551a565b925050602083013567ffffffffffffffff811115615f7257615f716154cc565b5b615f7e85828601615647565b9150509250929050565b615f9181615c74565b82525050565b600060c082019050615fac6000830189615f88565b615fb96020830188615b56565b615fc66040830187615b56565b8181036060830152615fd88186615b76565b90508181036080830152615fec8185615b76565b905081810360a08301526160008184615b76565b9050979650505050505050565b600061012082019050616023600083018c615f88565b616030602083018b615b56565b61603d604083018a615b56565b818103606083015261604f8189615b76565b905081810360808301526160638188615b76565b905081810360a08301526160778187615b76565b905061608660c08301866157e1565b61609360e08301856157e1565b6160a16101008301846157e1565b9a9950505050505050505050565b600080600080608085870312156160c9576160c86154c7565b5b60006160d78782880161551a565b94505060206160e88782880161551a565b935050604085013567ffffffffffffffff811115616109576161086154cc565b5b61611587828801615647565b925050606085013567ffffffffffffffff811115616136576161356154cc565b5b61614287828801615647565b91505092959194509250565b600060c08201905081810360008301526161688189615b76565b9050818103602083015261617c8188615b76565b905081810360408301526161908187615b76565b905061619f60608301866157e1565b6161ac60808301856157e1565b6161b960a08301846157e1565b979650505050505050565b60008060008060008060c087890312156161e1576161e06154c7565b5b60006161ef89828a0161551a565b965050602087013567ffffffffffffffff8111156162105761620f6154cc565b5b61621c89828a01615647565b955050604087013567ffffffffffffffff81111561623d5761623c6154cc565b5b61624989828a01615647565b945050606087013567ffffffffffffffff81111561626a576162696154cc565b5b61627689828a01615647565b935050608087013567ffffffffffffffff811115616297576162966154cc565b5b6162a389828a01615647565b92505060a087013567ffffffffffffffff8111156162c4576162c36154cc565b5b6162d089828a01615647565b9150509295509295509295565b600060e08201905081810360008301526162f7818a615d92565b9050818103602083015261630b818961596b565b9050818103604083015261631f818861596b565b90508181036060830152616333818761596b565b90508181036080830152616347818661596b565b905081810360a083015261635b818561596b565b905081810360c083015261636f818461596b565b905098975050505050505050565b61638681615c74565b811461639157600080fd5b50565b6000813590506163a38161637d565b92915050565b600080600080608085870312156163c3576163c26154c7565b5b60006163d18782880161551a565b94505060206163e28782880161551a565b93505060406163f387828801616394565b925050606085013567ffffffffffffffff811115616414576164136154cc565b5b61642087828801615647565b91505092959194509250565b600080600080600080600060e0888a03121561644b5761644a6154c7565b5b60006164598a828b0161551a565b975050602088013567ffffffffffffffff81111561647a576164796154cc565b5b6164868a828b01615647565b965050604088013567ffffffffffffffff8111156164a7576164a66154cc565b5b6164b38a828b01615647565b955050606088013567ffffffffffffffff8111156164d4576164d36154cc565b5b6164e08a828b01615647565b945050608088013567ffffffffffffffff811115616501576165006154cc565b5b61650d8a828b01615647565b93505060a088013567ffffffffffffffff81111561652e5761652d6154cc565b5b61653a8a828b01615647565b92505060c088013567ffffffffffffffff81111561655b5761655a6154cc565b5b6165678a828b01615647565b91505092959891949750929550565b7f4475706c6963617465204c5220526573756c742e000000000000000000000000600082015250565b60006165ac601483615b65565b91506165b782616576565b602082019050919050565b600060208201905081810360008301526165db8161659f565b9050919050565b7f4c697374656e696e672053636f726520696e636f72726563742e000000000000600082015250565b6000616618601a83615b65565b9150616623826165e2565b602082019050919050565b600060208201905081810360008301526166478161660b565b9050919050565b7f52656164696e672053636f726520696e636f72726563742e0000000000000000600082015250565b6000616684601883615b65565b915061668f8261664e565b602082019050919050565b600060208201905081810360008301526166b381616677565b9050919050565b600081905092915050565b60006166d0826158c2565b6166da81856166ba565b93506166ea8185602086016158de565b80840191505092915050565b600061670282856166c5565b915061670e82846166c5565b91508190509392505050565b7f4e487b7100000000000000000000000000000000000000000000000000000000600052601160045260246000fd5b600061675482615675565b915061675f83615675565b9250827fffffffffffffffffffffffffffffffffffffffffffffffffffffffffffffffff038211156167945761679361671a565b5b828201905092915050565b7f4e487b7100000000000000000000000000000000000000000000000000000000600052603260045260246000fd5b7f4e487b7100000000000000000000000000000000000000000000000000000000600052602260045260246000fd5b6000600282049050600182168061681557607f821691505b60208210811415616829576168286167ce565b5b50919050565b600081905092915050565b60008190508160005260206000209050919050565b6000815461685c816167fd565b616866818661682f565b945060018216600081146168815760018114616892576168c5565b60ff198316865281860193506168c5565b61689b8561683a565b60005b838110156168bd5781548189015260018201915060208101905061689e565b838801955050505b50505092915050565b60006168da828461684f565b915081905092915050565b60006168f082615675565b91507fffffffffffffffffffffffffffffffffffffffffffffffffffffffffffffffff8214156169235761692261671a565b5b600182019050919050565b7f57616974696e6720666f7220636f6e6669726d6174696f6e2e00000000000000600082015250565b6000616964601983615b65565b915061696f8261692e565b602082019050919050565b6000602082019050818103600083015261699381616957565b9050919050565b60006169a682846166c5565b915081905092915050565b7f537461747573205265717565737420696e636f72726563742e00000000000000600082015250565b60006169e7601983615b65565b91506169f2826169b1565b602082019050919050565b60006020820190508181036000830152616a16816169da565b9050919050565b7f4475706c696361746520535720526573756c742e000000000000000000000000600082015250565b6000616a53601483615b65565b9150616a5e82616a1d565b602082019050919050565b60006020820190508181036000830152616a8281616a46565b9050919050565b7f537065616b696e672053636f726520696e636f72726563742e00000000000000600082015250565b6000616abf601983615b65565b9150616aca82616a89565b602082019050919050565b60006020820190508181036000830152616aee81616ab2565b9050919050565b7f57726974696e672053636f726520696e636f72726563742e0000000000000000600082015250565b6000616b2b601883615b65565b9150616b3682616af5565b602082019050919050565b60006020820190508181036000830152616b5a81616b1e565b905091905056fea2646970667358221220d70b367c7b4afc022173915fc16887fe8e5c5e31a5d9396676310541c516687864736f6c634300080b0033608060405234801561001057600080fd5b50612f49806100206000396000f3fe608060405234801561001057600080fd5b50600436106100e95760003560e01c8063ae8f00d31161008c578063dc1e475f11610066578063dc1e475f146102a3578063e83ddcea146102bf578063e9daa70a146102f1578063f7a7b83d14610323576100e9565b8063ae8f00d314610223578063ce1ec5bb1461023f578063dae7debd14610273576100e9565b8063381a3bf7116100c8578063381a3bf71461016f5780637aedcde5146101a3578063844bb460146101d757806386b87ba2146101f3576100e9565b80624e56cf146100ee5780630299779f1461010a5780630b5e50ed1461013a575b600080fd5b6101086004803603810190610103919061233f565b61033f565b005b610124600480360381019061011f91906123de565b6104e4565b6040516101319190612466565b60405180910390f35b610154600480360381019061014f91906124ad565b61065f565b6040516101669695949392919061258a565b60405180910390f35b61018960048036038101906101849190612600565b610863565b60405161019a9594939291906127f7565b60405180910390f35b6101bd60048036038101906101b891906124ad565b610e54565b6040516101ce95949392919061286d565b60405180910390f35b6101f160048036038101906101ec919061233f565b611072565b005b61020d600480360381019061020891906128d5565b611217565b60405161021a9190612466565b60405180910390f35b61023d600480360381019061023891906123de565b611347565b005b61025960048036038101906102549190612600565b61146b565b60405161026a959493929190612adc565b60405180910390f35b61028d60048036038101906102889190612600565b6119c5565b60405161029a9190612466565b60405180910390f35b6102bd60048036038101906102b8919061233f565b611a82565b005b6102d960048036038101906102d491906124ad565b611c22565b6040516102e893929190612b52565b60405180910390f35b61030b60048036038101906103069190612b90565b611d24565b60405161031a93929190612b52565b60405180910390f35b61033d60048036038101906103389190612bd0565b611f93565b005b60005b6000805490508110156104dd578473ffffffffffffffffffffffffffffffffffffffff166000828154811061037a57610379612c9f565b5b906000526020600020906005020160000160009054906101000a900473ffffffffffffffffffffffffffffffffffffffff1673ffffffffffffffffffffffffffffffffffffffff1614801561043f57508373ffffffffffffffffffffffffffffffffffffffff16600082815481106103f5576103f4612c9f565b5b906000526020600020906005020160010160009054906101000a900473ffffffffffffffffffffffffffffffffffffffff1673ffffffffffffffffffffffffffffffffffffffff16145b801561048a575082805190602001206000828154811061046257610461612c9f565b5b90600052602060002090600502016002016040516104809190612dce565b6040518091039020145b156104ca5781600082815481106104a4576104a3612c9f565b5b906000526020600020906005020160040190805190602001906104c89291906120e4565b505b80806104d590612e14565b915050610342565b5050505050565b600080600090505b600080549050811015610656578473ffffffffffffffffffffffffffffffffffffffff166000828154811061052457610523612c9f565b5b906000526020600020906005020160000160009054906101000a900473ffffffffffffffffffffffffffffffffffffffff1673ffffffffffffffffffffffffffffffffffffffff161480156105e957508373ffffffffffffffffffffffffffffffffffffffff166000828154811061059f5761059e612c9f565b5b906000526020600020906005020160010160009054906101000a900473ffffffffffffffffffffffffffffffffffffffff1673ffffffffffffffffffffffffffffffffffffffff16145b8015610634575082805190602001206000828154811061060c5761060b612c9f565b5b906000526020600020906005020160020160405161062a9190612dce565b6040518091039020145b15610643576001915050610658565b808061064e90612e14565b9150506104ec565b505b9392505050565b6001818154811061066f57600080fd5b90600052602060002090600602016000915090508060000160009054906101000a900473ffffffffffffffffffffffffffffffffffffffff16908060010154908060020180546106be90612cfd565b80601f01602080910402602001604051908101604052809291908181526020018280546106ea90612cfd565b80156107375780601f1061070c57610100808354040283529160200191610737565b820191906000526020600020905b81548152906001019060200180831161071a57829003601f168201915b50505050509080600301805461074c90612cfd565b80601f016020809104026020016040519081016040528092919081815260200182805461077890612cfd565b80156107c55780601f1061079a576101008083540402835291602001916107c5565b820191906000526020600020905b8154815290600101906020018083116107a857829003601f168201915b5050505050908060040180546107da90612cfd565b80601f016020809104026020016040519081016040528092919081815260200182805461080690612cfd565b80156108535780601f1061082857610100808354040283529160200191610853565b820191906000526020600020905b81548152906001019060200180831161083657829003601f168201915b5050505050908060050154905086565b60608060608060606000808054905067ffffffffffffffff81111561088b5761088a612214565b5b6040519080825280602002602001820160405280156108b95781602001602082028036833780820191505090505b5090506000808054905067ffffffffffffffff8111156108dc576108db612214565b5b60405190808252806020026020018201604052801561090a5781602001602082028036833780820191505090505b5090506000808054905067ffffffffffffffff81111561092d5761092c612214565b5b60405190808252806020026020018201604052801561096057816020015b606081526020019060019003908161094b5790505b5090506000808054905067ffffffffffffffff81111561098357610982612214565b5b6040519080825280602002602001820160405280156109b657816020015b60608152602001906001900390816109a15790505b5090506000808054905067ffffffffffffffff8111156109d9576109d8612214565b5b604051908082528060200260200182016040528015610a0c57816020015b60608152602001906001900390816109f75790505b50905060005b600080549050811015610e36578b73ffffffffffffffffffffffffffffffffffffffff1660008281548110610a4a57610a49612c9f565b5b906000526020600020906005020160010160009054906101000a900473ffffffffffffffffffffffffffffffffffffffff1673ffffffffffffffffffffffffffffffffffffffff161415610e235760008181548110610aac57610aab612c9f565b5b906000526020600020906005020160000160009054906101000a900473ffffffffffffffffffffffffffffffffffffffff16868281518110610af157610af0612c9f565b5b602002602001019073ffffffffffffffffffffffffffffffffffffffff16908173ffffffffffffffffffffffffffffffffffffffff168152505060008181548110610b3f57610b3e612c9f565b5b906000526020600020906005020160010160009054906101000a900473ffffffffffffffffffffffffffffffffffffffff16858281518110610b8457610b83612c9f565b5b602002602001019073ffffffffffffffffffffffffffffffffffffffff16908173ffffffffffffffffffffffffffffffffffffffff168152505060008181548110610bd257610bd1612c9f565b5b90600052602060002090600502016002018054610bee90612cfd565b80601f0160208091040260200160405190810160405280929190818152602001828054610c1a90612cfd565b8015610c675780601f10610c3c57610100808354040283529160200191610c67565b820191906000526020600020905b815481529060010190602001808311610c4a57829003601f168201915b5050505050848281518110610c7f57610c7e612c9f565b5b602002602001018190525060008181548110610c9e57610c9d612c9f565b5b90600052602060002090600502016003018054610cba90612cfd565b80601f0160208091040260200160405190810160405280929190818152602001828054610ce690612cfd565b8015610d335780601f10610d0857610100808354040283529160200191610d33565b820191906000526020600020905b815481529060010190602001808311610d1657829003601f168201915b5050505050838281518110610d4b57610d4a612c9f565b5b602002602001018190525060008181548110610d6a57610d69612c9f565b5b90600052602060002090600502016004018054610d8690612cfd565b80601f0160208091040260200160405190810160405280929190818152602001828054610db290612cfd565b8015610dff5780601f10610dd457610100808354040283529160200191610dff565b820191906000526020600020905b815481529060010190602001808311610de257829003601f168201915b5050505050828281518110610e1757610e16612c9f565b5b60200260200101819052505b8080610e2e90612e14565b915050610a12565b50848484848499509950995099509950505050505091939590929450565b60008181548110610e6457600080fd5b90600052602060002090600502016000915090508060000160009054906101000a900473ffffffffffffffffffffffffffffffffffffffff16908060010160009054906101000a900473ffffffffffffffffffffffffffffffffffffffff1690806002018054610ed390612cfd565b80601f0160208091040260200160405190810160405280929190818152602001828054610eff90612cfd565b8015610f4c5780601f10610f2157610100808354040283529160200191610f4c565b820191906000526020600020905b815481529060010190602001808311610f2f57829003601f168201915b505050505090806003018054610f6190612cfd565b80601f0160208091040260200160405190810160405280929190818152602001828054610f8d90612cfd565b8015610fda5780601f10610faf57610100808354040283529160200191610fda565b820191906000526020600020905b815481529060010190602001808311610fbd57829003601f168201915b505050505090806004018054610fef90612cfd565b80601f016020809104026020016040519081016040528092919081815260200182805461101b90612cfd565b80156110685780601f1061103d57610100808354040283529160200191611068565b820191906000526020600020905b81548152906001019060200180831161104b57829003601f168201915b5050505050905085565b60005b600080549050811015611210578473ffffffffffffffffffffffffffffffffffffffff16600082815481106110ad576110ac612c9f565b5b906000526020600020906005020160000160009054906101000a900473ffffffffffffffffffffffffffffffffffffffff1673ffffffffffffffffffffffffffffffffffffffff1614801561117257508373ffffffffffffffffffffffffffffffffffffffff166000828154811061112857611127612c9f565b5b906000526020600020906005020160010160009054906101000a900473ffffffffffffffffffffffffffffffffffffffff1673ffffffffffffffffffffffffffffffffffffffff16145b80156111bd575082805190602001206000828154811061119557611194612c9f565b5b90600052602060002090600502016002016040516111b39190612dce565b6040518091039020145b156111fd5781600082815481106111d7576111d6612c9f565b5b906000526020600020906005020160040190805190602001906111fb9291906120e4565b505b808061120890612e14565b915050611075565b5050505050565b600080600090505b60018054905081101561133e578473ffffffffffffffffffffffffffffffffffffffff166001828154811061125757611256612c9f565b5b906000526020600020906006020160000160009054906101000a900473ffffffffffffffffffffffffffffffffffffffff1673ffffffffffffffffffffffffffffffffffffffff161480156112f8575083836040516020016112ba929190612e99565b60405160208183030381529060405280519060200120600182815481106112e4576112e3612c9f565b5b906000526020600020906006020160010154145b1561132b576001818154811061131157611310612c9f565b5b906000526020600020906006020160050154915050611340565b808061133690612e14565b91505061121f565b505b9392505050565b600260405180606001604052808573ffffffffffffffffffffffffffffffffffffffff1681526020018473ffffffffffffffffffffffffffffffffffffffff16815260200183815250908060018154018082558091505060019003906000526020600020906003020160009091909190915060008201518160000160006101000a81548173ffffffffffffffffffffffffffffffffffffffff021916908373ffffffffffffffffffffffffffffffffffffffff16021790555060208201518160010160006101000a81548173ffffffffffffffffffffffffffffffffffffffff021916908373ffffffffffffffffffffffffffffffffffffffff16021790555060408201518160020190805190602001906114639291906120e4565b505050505050565b6060806060806060600060018054905067ffffffffffffffff81111561149457611493612214565b5b6040519080825280602002602001820160405280156114c25781602001602082028036833780820191505090505b509050600060018054905067ffffffffffffffff8111156114e6576114e5612214565b5b60405190808252806020026020018201604052801561151957816020015b60608152602001906001900390816115045790505b509050600060018054905067ffffffffffffffff81111561153d5761153c612214565b5b60405190808252806020026020018201604052801561157057816020015b606081526020019060019003908161155b5790505b509050600060018054905067ffffffffffffffff81111561159457611593612214565b5b6040519080825280602002602001820160405280156115c757816020015b60608152602001906001900390816115b25790505b509050600060018054905067ffffffffffffffff8111156115eb576115ea612214565b5b6040519080825280602002602001820160405280156116195781602001602082028036833780820191505090505b50905060005b6001805490508110156119a7578b73ffffffffffffffffffffffffffffffffffffffff166001828154811061165757611656612c9f565b5b906000526020600020906006020160000160009054906101000a900473ffffffffffffffffffffffffffffffffffffffff1673ffffffffffffffffffffffffffffffffffffffff16141561199457600181815481106116b9576116b8612c9f565b5b9060005260206000209060060201600101548682815181106116de576116dd612c9f565b5b602002602001018181525050600181815481106116fe576116fd612c9f565b5b9060005260206000209060060201600201805461171a90612cfd565b80601f016020809104026020016040519081016040528092919081815260200182805461174690612cfd565b80156117935780601f1061176857610100808354040283529160200191611793565b820191906000526020600020905b81548152906001019060200180831161177657829003601f168201915b50505050508582815181106117ab576117aa612c9f565b5b6020026020010181905250600181815481106117ca576117c9612c9f565b5b906000526020600020906006020160030180546117e690612cfd565b80601f016020809104026020016040519081016040528092919081815260200182805461181290612cfd565b801561185f5780601f106118345761010080835404028352916020019161185f565b820191906000526020600020905b81548152906001019060200180831161184257829003601f168201915b505050505084828151811061187757611876612c9f565b5b60200260200101819052506001818154811061189657611895612c9f565b5b906000526020600020906006020160040180546118b290612cfd565b80601f01602080910402602001604051908101604052809291908181526020018280546118de90612cfd565b801561192b5780601f106119005761010080835404028352916020019161192b565b820191906000526020600020905b81548152906001019060200180831161190e57829003601f168201915b505050505083828151811061194357611942612c9f565b5b60200260200101819052506001818154811061196257611961612c9f565b5b90600052602060002090600602016005015482828151811061198757611986612c9f565b5b6020026020010181815250505b808061199f90612e14565b91505061161f565b50848484848499509950995099509950505050505091939590929450565b6000806000905060005b600080549050811015611a78578373ffffffffffffffffffffffffffffffffffffffff1660008281548110611a0757611a06612c9f565b5b906000526020600020906005020160010160009054906101000a900473ffffffffffffffffffffffffffffffffffffffff1673ffffffffffffffffffffffffffffffffffffffff161415611a6557600182611a629190612ebd565b91505b8080611a7090612e14565b9150506119cf565b5080915050919050565b60006040518060a001604052808673ffffffffffffffffffffffffffffffffffffffff1681526020018573ffffffffffffffffffffffffffffffffffffffff1681526020018481526020018381526020016040518060400160405280600981526020017f53637265656e696e670000000000000000000000000000000000000000000000815250815250908060018154018082558091505060019003906000526020600020906005020160009091909190915060008201518160000160006101000a81548173ffffffffffffffffffffffffffffffffffffffff021916908373ffffffffffffffffffffffffffffffffffffffff16021790555060208201518160010160006101000a81548173ffffffffffffffffffffffffffffffffffffffff021916908373ffffffffffffffffffffffffffffffffffffffff1602179055506040820151816002019080519060200190611bdf9291906120e4565b506060820151816003019080519060200190611bfc9291906120e4565b506080820151816004019080519060200190611c199291906120e4565b50505050505050565b60028181548110611c3257600080fd5b90600052602060002090600302016000915090508060000160009054906101000a900473ffffffffffffffffffffffffffffffffffffffff16908060010160009054906101000a900473ffffffffffffffffffffffffffffffffffffffff1690806002018054611ca190612cfd565b80601f0160208091040260200160405190810160405280929190818152602001828054611ccd90612cfd565b8015611d1a5780601f10611cef57610100808354040283529160200191611d1a565b820191906000526020600020905b815481529060010190602001808311611cfd57829003601f168201915b5050505050905083565b600080606060005b600280549050811015611f8a578473ffffffffffffffffffffffffffffffffffffffff1660028281548110611d6457611d63612c9f565b5b906000526020600020906003020160010160009054906101000a900473ffffffffffffffffffffffffffffffffffffffff1673ffffffffffffffffffffffffffffffffffffffff16148015611e2957508573ffffffffffffffffffffffffffffffffffffffff1660028281548110611ddf57611dde612c9f565b5b906000526020600020906003020160000160009054906101000a900473ffffffffffffffffffffffffffffffffffffffff1673ffffffffffffffffffffffffffffffffffffffff16145b15611f775760028181548110611e4257611e41612c9f565b5b906000526020600020906003020160000160009054906101000a900473ffffffffffffffffffffffffffffffffffffffff1660028281548110611e8857611e87612c9f565b5b906000526020600020906003020160010160009054906101000a900473ffffffffffffffffffffffffffffffffffffffff1660028381548110611ece57611ecd612c9f565b5b9060005260206000209060030201600201808054611eeb90612cfd565b80601f0160208091040260200160405190810160405280929190818152602001828054611f1790612cfd565b8015611f645780601f10611f3957610100808354040283529160200191611f64565b820191906000526020600020905b815481529060010190602001808311611f4757829003601f168201915b5050505050905093509350935050611f8c565b8080611f8290612e14565b915050611d2c565b505b9250925092565b60016040518060c001604052808773ffffffffffffffffffffffffffffffffffffffff1681526020018685604051602001611fcf929190612e99565b60405160208183030381529060405280519060200120815260200186815260200185815260200184815260200183815250908060018154018082558091505060019003906000526020600020906006020160009091909190915060008201518160000160006101000a81548173ffffffffffffffffffffffffffffffffffffffff021916908373ffffffffffffffffffffffffffffffffffffffff1602179055506020820151816001015560408201518160020190805190602001906120969291906120e4565b5060608201518160030190805190602001906120b39291906120e4565b5060808201518160040190805190602001906120d09291906120e4565b5060a0820151816005015550505050505050565b8280546120f090612cfd565b90600052602060002090601f0160209004810192826121125760008555612159565b82601f1061212b57805160ff1916838001178555612159565b82800160010185558215612159579182015b8281111561215857825182559160200191906001019061213d565b5b509050612166919061216a565b5090565b5b8082111561218357600081600090555060010161216b565b5090565b6000604051905090565b600080fd5b600080fd5b600073ffffffffffffffffffffffffffffffffffffffff82169050919050565b60006121c68261219b565b9050919050565b6121d6816121bb565b81146121e157600080fd5b50565b6000813590506121f3816121cd565b92915050565b600080fd5b600080fd5b6000601f19601f8301169050919050565b7f4e487b7100000000000000000000000000000000000000000000000000000000600052604160045260246000fd5b61224c82612203565b810181811067ffffffffffffffff8211171561226b5761226a612214565b5b80604052505050565b600061227e612187565b905061228a8282612243565b919050565b600067ffffffffffffffff8211156122aa576122a9612214565b5b6122b382612203565b9050602081019050919050565b82818337600083830152505050565b60006122e26122dd8461228f565b612274565b9050828152602081018484840111156122fe576122fd6121fe565b5b6123098482856122c0565b509392505050565b600082601f830112612326576123256121f9565b5b81356123368482602086016122cf565b91505092915050565b6000806000806080858703121561235957612358612191565b5b6000612367878288016121e4565b9450506020612378878288016121e4565b935050604085013567ffffffffffffffff81111561239957612398612196565b5b6123a587828801612311565b925050606085013567ffffffffffffffff8111156123c6576123c5612196565b5b6123d287828801612311565b91505092959194509250565b6000806000606084860312156123f7576123f6612191565b5b6000612405868287016121e4565b9350506020612416868287016121e4565b925050604084013567ffffffffffffffff81111561243757612436612196565b5b61244386828701612311565b9150509250925092565b6000819050919050565b6124608161244d565b82525050565b600060208201905061247b6000830184612457565b92915050565b61248a8161244d565b811461249557600080fd5b50565b6000813590506124a781612481565b92915050565b6000602082840312156124c3576124c2612191565b5b60006124d184828501612498565b91505092915050565b6124e3816121bb565b82525050565b6000819050919050565b6124fc816124e9565b82525050565b600081519050919050565b600082825260208201905092915050565b60005b8381101561253c578082015181840152602081019050612521565b8381111561254b576000848401525b50505050565b600061255c82612502565b612566818561250d565b935061257681856020860161251e565b61257f81612203565b840191505092915050565b600060c08201905061259f60008301896124da565b6125ac60208301886124f3565b81810360408301526125be8187612551565b905081810360608301526125d28186612551565b905081810360808301526125e68185612551565b90506125f560a0830184612457565b979650505050505050565b60006020828403121561261657612615612191565b5b6000612624848285016121e4565b91505092915050565b600081519050919050565b600082825260208201905092915050565b6000819050602082019050919050565b612662816121bb565b82525050565b60006126748383612659565b60208301905092915050565b6000602082019050919050565b60006126988261262d565b6126a28185612638565b93506126ad83612649565b8060005b838110156126de5781516126c58882612668565b97506126d083612680565b9250506001810190506126b1565b5085935050505092915050565b600081519050919050565b600082825260208201905092915050565b6000819050602082019050919050565b600082825260208201905092915050565b600061273382612502565b61273d8185612717565b935061274d81856020860161251e565b61275681612203565b840191505092915050565b600061276d8383612728565b905092915050565b6000602082019050919050565b600061278d826126eb565b61279781856126f6565b9350836020820285016127a985612707565b8060005b858110156127e557848403895281516127c68582612761565b94506127d183612775565b925060208a019950506001810190506127ad565b50829750879550505050505092915050565b600060a0820190508181036000830152612811818861268d565b90508181036020830152612825818761268d565b905081810360408301526128398186612782565b9050818103606083015261284d8185612782565b905081810360808301526128618184612782565b90509695505050505050565b600060a08201905061288260008301886124da565b61288f60208301876124da565b81810360408301526128a18186612551565b905081810360608301526128b58185612551565b905081810360808301526128c98184612551565b90509695505050505050565b6000806000606084860312156128ee576128ed612191565b5b60006128fc868287016121e4565b935050602084013567ffffffffffffffff81111561291d5761291c612196565b5b61292986828701612311565b925050604084013567ffffffffffffffff81111561294a57612949612196565b5b61295686828701612311565b9150509250925092565b600081519050919050565b600082825260208201905092915050565b6000819050602082019050919050565b612995816124e9565b82525050565b60006129a7838361298c565b60208301905092915050565b6000602082019050919050565b60006129cb82612960565b6129d5818561296b565b93506129e08361297c565b8060005b83811015612a115781516129f8888261299b565b9750612a03836129b3565b9250506001810190506129e4565b5085935050505092915050565b600081519050919050565b600082825260208201905092915050565b6000819050602082019050919050565b612a538161244d565b82525050565b6000612a658383612a4a565b60208301905092915050565b6000602082019050919050565b6000612a8982612a1e565b612a938185612a29565b9350612a9e83612a3a565b8060005b83811015612acf578151612ab68882612a59565b9750612ac183612a71565b925050600181019050612aa2565b5085935050505092915050565b600060a0820190508181036000830152612af681886129c0565b90508181036020830152612b0a8187612782565b90508181036040830152612b1e8186612782565b90508181036060830152612b328185612782565b90508181036080830152612b468184612a7e565b90509695505050505050565b6000606082019050612b6760008301866124da565b612b7460208301856124da565b8181036040830152612b868184612551565b9050949350505050565b60008060408385031215612ba757612ba6612191565b5b6000612bb5858286016121e4565b9250506020612bc6858286016121e4565b9150509250929050565b600080600080600060a08688031215612bec57612beb612191565b5b6000612bfa888289016121e4565b955050602086013567ffffffffffffffff811115612c1b57612c1a612196565b5b612c2788828901612311565b945050604086013567ffffffffffffffff811115612c4857612c47612196565b5b612c5488828901612311565b935050606086013567ffffffffffffffff811115612c7557612c74612196565b5b612c8188828901612311565b9250506080612c9288828901612498565b9150509295509295909350565b7f4e487b7100000000000000000000000000000000000000000000000000000000600052603260045260246000fd5b7f4e487b7100000000000000000000000000000000000000000000000000000000600052602260045260246000fd5b60006002820490506001821680612d1557607f821691505b60208210811415612d2957612d28612cce565b5b50919050565b600081905092915050565b60008190508160005260206000209050919050565b60008154612d5c81612cfd565b612d668186612d2f565b94506001821660008114612d815760018114612d9257612dc5565b60ff19831686528186019350612dc5565b612d9b85612d3a565b60005b83811015612dbd57815481890152600182019150602081019050612d9e565b838801955050505b50505092915050565b6000612dda8284612d4f565b915081905092915050565b7f4e487b7100000000000000000000000000000000000000000000000000000000600052601160045260246000fd5b6000612e1f8261244d565b91507fffffffffffffffffffffffffffffffffffffffffffffffffffffffffffffffff821415612e5257612e51612de5565b5b600182019050919050565b600081905092915050565b6000612e7382612502565b612e7d8185612e5d565b9350612e8d81856020860161251e565b80840191505092915050565b6000612ea58285612e68565b9150612eb18284612e68565b91508190509392505050565b6000612ec88261244d565b9150612ed38361244d565b9250827fffffffffffffffffffffffffffffffffffffffffffffffffffffffffffffffff03821115612f0857612f07612de5565b5b82820190509291505056fea264697066735822122068aa446e0a6dd2f15e350182de69e7b934713a4462984fc4897ac8e5ea6347b864736f6c634300080b0033",
  "immutableReferences": {},
  "source": "// SPDX-License-Identifier: MIT\r\npragma solidity >=0.4.22 <0.9.0;\r\n\r\n// Import cc contract cn thit  s dng\r\nimport \"./SmartCV_ListStudent.sol\";\r\nimport \"./SmartCV_ListBusiness.sol\";\r\nimport \"./SmartCV_ListIIG.sol\";\r\nimport \"./SmartCV_Apply.sol\";\r\n\r\n// CV dnh cho sinh vin\r\ncontract StudentBusiness {\r\n\r\n    // Khai contract  import  s dng cc function  contract \r\n    ListStudent listStudent = new ListStudent();\r\n    ListBusiness listBusiness = new ListBusiness();\r\n    ListIIG listIIG = new ListIIG();\r\n    ApplyCV applyCV = new ApplyCV();\r\n\r\n    // ======================================\r\n    // ====== Chc nng cho sinh vin =======\r\n    // ======================================\r\n\r\n    // Chc nng thm thng tin sinh vin (ng k)\r\n    function addStudentProfile (\r\n        address _studentOwner,\r\n        string memory _name,\r\n        string memory _phoneNumber,\r\n        string memory _professionalTitle,\r\n        string memory _email,\r\n        string memory _github,\r\n        string memory _linkedin,\r\n        string memory _sourceImage,\r\n        string memory _password) public {\r\n            listStudent.addSV(_studentOwner, \r\n                                _name, \r\n                                _phoneNumber, \r\n                                _professionalTitle, \r\n                                _email, \r\n                                _github, \r\n                                _linkedin,\r\n                                _sourceImage,\r\n                                _password);\r\n    }\r\n\r\n    // Chc nng chnh thng tin sinh vin\r\n    function editStudentProfile (\r\n        address _studentOwner,\r\n        string memory _name,\r\n        string memory _phoneNumber,\r\n        string memory _professionalTitle,\r\n        string memory _email,\r\n        string memory _github,\r\n        string memory _linkedin,\r\n        string memory _sourceImage) public {\r\n            listStudent.editSV(_studentOwner,\r\n                                _name, \r\n                                _phoneNumber, \r\n                                _professionalTitle, \r\n                                _email, \r\n                                _github, \r\n                                _linkedin,\r\n                                _sourceImage);\r\n    }\r\n\r\n    // Chc nng ly thng tin ca sinh vin\r\n    function getStudentProfile(address _studentOwner) public view returns(\r\n        address studentOwner, \r\n        string memory name, \r\n        string memory phoneNumber, \r\n        string memory professionalTitle, \r\n        string memory email, \r\n        string memory github, \r\n        string memory linkedin,\r\n        string memory sourceImage,\r\n        string memory password) {\r\n            return listStudent.getProfile(_studentOwner);\r\n    }\r\n\r\n    // Chc nng kim tra ti khon sinh vin c tn ti hay khng? (ng nhp)\r\n    function checkStudentProfile(\r\n        address _studentOwner, \r\n        string memory _password) public view returns(uint x) {\r\n            return listStudent.checkSV(_studentOwner, _password);\r\n    }\r\n\r\n    // Chc nng kim tra a ch sinh vin c tn ti hay khng?\r\n    function checkExistStudent(address _studentOwner) public view returns(uint x) {\r\n            return listStudent.checkExistSV(_studentOwner);\r\n    }\r\n\r\n    // Chc nng thm thng tin k nng ca sinh vin\r\n    function addStudentSkill(\r\n        address _studentOwner,\r\n        string memory _title, \r\n        uint _level) public {\r\n            listStudent.addSkill(_studentOwner, \r\n                                _title, \r\n                                _level);\r\n    }\r\n\r\n    // Chc nng chnh sa thng tin k nng ca sinh vin\r\n    function editStudentSkill(\r\n        address _studentOwner,\r\n        string memory _title, \r\n        uint _level) public {\r\n            listStudent.editSkill(_studentOwner, \r\n                                _title, \r\n                                _level);\r\n    }\r\n\r\n    // Chc nng kim tra k nng ca sinh vin c tn ti hay khng?\r\n    function checkStudentSkill(\r\n        address _studentOwner,\r\n        string memory _title) public view returns(uint x) {\r\n            return listStudent.checkSkill(_studentOwner, _title);\r\n    }\r\n\r\n    // Chc nng kim tra s lng k nng ca sinh vin\r\n    function checkNumStudentSkill(address _studentOwner) public view returns(uint x) {\r\n            uint _count = listStudent.checkNumSkill(_studentOwner);\r\n            if(_count > 10){\r\n                return 1;\r\n            }\r\n    }\r\n\r\n    // Chc nng ly thng tin k nng ca sinh vin\r\n    function getStudentSkill(address _studentOwner) public view returns(\r\n        string[] memory titles,\r\n        uint[] memory levels) {\r\n        return listStudent.getSkill(_studentOwner);\r\n    }\r\n\r\n    // Chc nng thm thng tin hc vn ca sinh vin\r\n    function addStudentEducation(\r\n        address _studentOwner,\r\n        string memory _institution,\r\n        string memory _focusArea, \r\n        string memory _startTime,\r\n        string memory _finishTime,\r\n        string memory _gpa) public {\r\n            listStudent.addEducation(_studentOwner, \r\n                                    _institution, \r\n                                    _focusArea,\r\n                                    _startTime,\r\n                                    _finishTime,\r\n                                    _gpa);\r\n    }\r\n\r\n    // Chc nng chnh sa thng tin hc vn ca sinh vin\r\n    function editStudentEducation(\r\n        address _studentOwner,\r\n        string memory _institution,\r\n        string memory _focusArea, \r\n        string memory _startTime,\r\n        string memory _finishTime,\r\n        string memory _gpa) public {\r\n            listStudent.editEducation(_studentOwner, \r\n                                    _institution, \r\n                                    _focusArea,\r\n                                    _startTime,\r\n                                    _finishTime,\r\n                                    _gpa);\r\n    }\r\n\r\n    // Chc nng kim tra sinh vin  thm hc vn  hay cha?\r\n    function checkStudentEducation(\r\n        address _studentOwner, \r\n        string memory _institution,\r\n        string memory _focusArea) public view returns(uint x) {\r\n            return listStudent.checkEducation(_studentOwner,\r\n                                            _institution,\r\n                                            _focusArea);\r\n    }\r\n\r\n    // Chc nng ly thng tin hc vn ca sinh vin\r\n    function getStudentEducation(address _studentOwner) public view returns(\r\n        string[] memory,\r\n        string[] memory,\r\n        string[] memory,\r\n        string[] memory,\r\n        string[] memory) {\r\n            return listStudent.getEducation(_studentOwner);\r\n    }\r\n\r\n    // Chc nng ly danh sch doanh nghip\r\n    function getListBusiness() public view returns(\r\n        address[] memory,\r\n        string[] memory,\r\n        string[] memory,\r\n        string[] memory,\r\n        string[] memory,\r\n        string[] memory,\r\n        string[] memory,\r\n        string[] memory) {\r\n        return listBusiness.getListDN();\r\n    }\r\n\r\n    // Chc nng ly thng tin tuyn dng ca doanh nghip\r\n    function getRecruit(address _businessOwner) public view returns(\r\n        bytes32[] memory,\r\n        string[] memory,\r\n        string[] memory,\r\n        string[] memory,\r\n        uint[] memory) {\r\n        return applyCV.getRecruit(_businessOwner);\r\n    }\r\n\r\n    // Chc nng gi CV ti doanh nghip\r\n    function sendCV(\r\n        address _studentOwner, \r\n        address _businessOwner, \r\n        string memory _jobTitle, \r\n        string memory _coverLetter) public {\r\n            applyCV.addCV(_studentOwner, \r\n                        _businessOwner, \r\n                        _jobTitle, \r\n                        _coverLetter);\r\n    }\r\n\r\n    // Chc nng kim tra sinh vin  np CV cha?\r\n    function checkCV(\r\n        address _studentOwner, \r\n        address _businessOwner, \r\n        string memory _jobTitle) public view returns(uint x) {\r\n            return applyCV.checkCV(_studentOwner, \r\n                                    _businessOwner, \r\n                                    _jobTitle);\r\n    }\r\n\r\n    // Chc nng xem nh gi thc tp ca doanh nghip\r\n    function getReview(\r\n        address _studentOwner, \r\n        address _businessOwner) public view returns(\r\n            address studentOwner, \r\n            address businessOwner, \r\n            string memory content) {\r\n                return applyCV.getReview(_studentOwner, _businessOwner);\r\n    }\r\n\r\n    // ======================================\r\n    // ===== Chc nng cho doanh nghip =====\r\n    // ======================================\r\n\r\n    // Chc nng thm thng tin doanh nghip (ng k)\r\n    function addBusinessProfile(\r\n        address _businessOwner,\r\n        string memory _name,\r\n        string memory _country,\r\n        string memory _facebook,\r\n        string memory _website,\r\n        string memory _linkedin,\r\n        string memory _focusArea,\r\n        string memory _password) public {\r\n            listBusiness.addDN(_businessOwner, \r\n                                _name, \r\n                                _country, \r\n                                _facebook, \r\n                                _website, \r\n                                _linkedin, \r\n                                _focusArea, \r\n                                _password);\r\n    }\r\n\r\n    // Chc nng chnh sa thng tin doanh nghip\r\n    function editBusinessProfile(\r\n        address _businessOwner,\r\n        string memory _name,\r\n        string memory _country,\r\n        string memory _facebook,\r\n        string memory _website,\r\n        string memory _linkedin,\r\n        string memory _focusArea) public {\r\n            listBusiness.editDN(_businessOwner, \r\n                                _name, \r\n                                _country, \r\n                                _facebook, \r\n                                _website, \r\n                                _linkedin, \r\n                                _focusArea);\r\n    }\r\n\r\n    // Chc nng ly thng tin ca doanh nghip\r\n    function getBusinessProfile(address _businessOwner) public view returns(\r\n        address businessOwner, \r\n        string memory name, \r\n        string memory country, \r\n        string memory facebook, \r\n        string memory website, \r\n        string memory linkedin, \r\n        string memory focusArea) {\r\n            return listBusiness.getProfile(_businessOwner);\r\n    }\r\n\r\n    // Chc nng kim tra ti khon doanh nghip c tn ti hay khng? (ng nhp)\r\n    function checkBusinessProfile(\r\n        address _businessOwner, \r\n        string memory _password) public view returns(uint) {\r\n            return listBusiness.checkDN(_businessOwner, _password);\r\n    }\r\n\r\n    // Chc nng kim tra a ch doanh nghip c tn ti hay khng?\r\n    function checkExistBusiness(address _businessOwner) public view returns(uint x) {\r\n            return listBusiness.checkExistDN(_businessOwner);\r\n    }\r\n\r\n    // Chc nng ly danh sch CV  np vo doanh nghip\r\n    function getListCV(address _businessOwner) public view returns(\r\n        address[] memory, \r\n        address[] memory, \r\n        string[] memory, \r\n        string[] memory,\r\n        string[] memory) {\r\n            return applyCV.getCV(_businessOwner);\r\n    }\r\n    \r\n    //Chc nng duyt CV vo vng interview\r\n    function interviewCV(\r\n        address _studentOwner, \r\n        address _businessOwner, \r\n        string memory _jobTitle,\r\n        string memory _statusCV) public {\r\n            applyCV.interviewCV(_studentOwner, \r\n                                _businessOwner, \r\n                                _jobTitle, \r\n                                _statusCV);\r\n    }\r\n\r\n    //Chc nng duyt CV vo vng onboard\r\n    function onboardCV(\r\n        address _studentOwner, \r\n        address _businessOwner, \r\n        string memory _jobTitle,\r\n        string memory _statusCV) public {\r\n            applyCV.onboardCV(_studentOwner, \r\n                            _businessOwner, \r\n                            _jobTitle, \r\n                            _statusCV);\r\n    }\r\n\r\n    // Chc nng thm thng tin tuyn dng ca doanh nghip\r\n    function addRecruit(\r\n        address _businessOwner,\r\n        string memory _jobTitle,\r\n        string memory _jobDescription,\r\n        string memory _recruitDate,\r\n        uint _amount) public {\r\n            applyCV.addRecruit(_businessOwner, \r\n                                _jobTitle, \r\n                                _jobDescription,\r\n                                _recruitDate,\r\n                                _amount);\r\n    }\r\n\r\n    // Chc nng kim tra s lng tuyn dng   hay cha?\r\n    function checkAmountBusinessRecruit(\r\n        address _businessOwner,\r\n        string memory _jobTitle,\r\n        string memory _recruitDate) public view returns(uint x) {\r\n            uint numCV = applyCV.checkNumCV(_businessOwner);\r\n            uint amountRecuit = applyCV.checkAmountRecruit(_businessOwner, _jobTitle, _recruitDate);\r\n            if(numCV > amountRecuit){\r\n                return 1;\r\n            }\r\n    }\r\n\r\n    // Chc nng nh gi thc tp cho sinh vin\r\n    function sendReview(\r\n        address _studentOwner, \r\n        address _businessOwner, \r\n        string memory _content) public {\r\n            applyCV.addReview(_studentOwner, \r\n                            _businessOwner, \r\n                            _content);\r\n    }\r\n\r\n    // ======================================\r\n    // ========= Chc nng cho IIG ==========\r\n    // ======================================\r\n\r\n    // Chc nng thm thng tin IIG (ng k)\r\n    function addIIGProfile(\r\n        address _iigOwner,\r\n        string memory _name,\r\n        string memory _country,\r\n        string memory _facebook,\r\n        string memory _website,\r\n        string memory _linkedin,\r\n        string memory _password) public {\r\n            listIIG.addIIG(_iigOwner, \r\n                            _name, \r\n                            _country, \r\n                            _facebook, \r\n                            _website, \r\n                            _linkedin, \r\n                            _password);\r\n    }\r\n\r\n    // Chc nng chnh sa thng tin IIG\r\n    function editIIGProfile(\r\n        address _iigOwner,\r\n        string memory _name,\r\n        string memory _country,\r\n        string memory _facebook,\r\n        string memory _website,\r\n        string memory _linkedin) public {\r\n            listIIG.editIIG(_iigOwner, \r\n                            _name, \r\n                            _country, \r\n                            _facebook, \r\n                            _website, \r\n                            _linkedin);\r\n    }\r\n\r\n    // Chc nng ly danh sch IIG\r\n    function getListIIG() public view returns(\r\n        address[] memory,\r\n        string[] memory,\r\n        string[] memory,\r\n        string[] memory,\r\n        string[] memory,\r\n        string[] memory,\r\n        string[] memory) {\r\n            return listIIG.getListIIG();\r\n    }\r\n\r\n    // Chc nng ly thng tin ca IIG\r\n    function getIIGProfile(address _iigOwner) public view returns(\r\n        address iigOwner,\r\n        string memory name,\r\n        string memory country,\r\n        string memory facebook,\r\n        string memory website,\r\n        string memory linkedin) {\r\n            return listIIG.getProfile(_iigOwner);\r\n    }\r\n\r\n    // Chc nng kim tra ti khon IIG c tn ti hay khng? (ng nhp)\r\n    function checkIIGProfile(\r\n        address _iigOwner, \r\n        string memory _password) public view returns(uint) {\r\n            return listIIG.checkIIG(_iigOwner, _password);\r\n    }\r\n\r\n    // Chc nng kim tra a ch IIG c tn ti hay khng?\r\n    function checkExistIIG(address _iigOwner) public view returns(uint x) {\r\n            return listIIG.checkExistIIG(_iigOwner);\r\n    }\r\n\r\n    // Chc nng gi thng tin yu cu chng ch IIG\r\n    function sendIIGRequest (\r\n        address _studentOwner,\r\n        address _iigOwner,\r\n        string memory _identityCard,\r\n        string memory _requestDate) public {\r\n            listIIG.addRequest(_studentOwner, \r\n                            _iigOwner,\r\n                            _identityCard,\r\n                            _requestDate);\r\n    }\r\n\r\n    // Chc nng ly danh sch yu cu chng ch IIG\r\n    function getListIIGRequest(address _iigOwner) public view returns(\r\n        bytes4[] memory,\r\n        address[] memory, \r\n        address[] memory, \r\n        string[] memory,\r\n        string[] memory,\r\n        string[] memory) {\r\n            return listIIG.getListRequest(_iigOwner);\r\n    }\r\n\r\n    // Chc nng ly danh sch yu cu chng ch IIG theo sinh vin\r\n    function getListIIGRequestStudent(address _iigOwner, address _studentOwner) public view returns(\r\n        bytes4[] memory,\r\n        address[] memory, \r\n        address[] memory,\r\n        string[] memory,\r\n        string[] memory,\r\n        string[] memory) {\r\n            return listIIG.getListRequestStudent(_iigOwner, _studentOwner);\r\n    }\r\n\r\n    //Chc nng duyt yu cu chng ch IIG\r\n    function confirmIIGRequest(\r\n        address _studentOwner, \r\n        address _iigOwner, \r\n        bytes4 _codeRequest,\r\n        string memory _statusRequest) public {\r\n            listIIG.confirmRequest(_studentOwner,\r\n                                    _iigOwner,\r\n                                    _codeRequest,\r\n                                    _statusRequest);\r\n    }\r\n\r\n    // Chc nng nhp thng tin im thi Listening - Reading\r\n    function addIIGLRResult (\r\n        address _iigOwner,\r\n        address _studentOwner,\r\n        string memory _testDate,\r\n        string memory _shiftTest,\r\n        string memory _expireDate,\r\n        uint _listeningScore,\r\n        uint _readingScore) public {\r\n            listIIG.addLRResult(_iigOwner, \r\n                                _studentOwner, \r\n                                _testDate,\r\n                                _shiftTest, \r\n                                _expireDate, \r\n                                _listeningScore, \r\n                                _readingScore);\r\n    }\r\n\r\n    // Chc nng nhp thng tin im thi Speaking - Writing\r\n    function addIIGSWResult (\r\n        address _iigOwner,\r\n        address _studentOwner,\r\n        string memory _testDate,\r\n        string memory _shiftTest,\r\n        string memory _expireDate,\r\n        uint _speakingScore,\r\n        uint _writingScore) public {\r\n            listIIG.addSWResult(_iigOwner, \r\n                                _studentOwner, \r\n                                _testDate,\r\n                                _shiftTest,\r\n                                _expireDate, \r\n                                _speakingScore, \r\n                                _writingScore);\r\n    }\r\n\r\n    //Chc nng ly thng tin im thi Listening - Reading\r\n    function getListIIGLRResult(address _iigOwner, address _studentOwner) public view returns(\r\n        string[] memory,\r\n        string[] memory,\r\n        string[] memory,\r\n        uint[] memory,\r\n        uint[] memory,\r\n        uint[] memory) {\r\n            return listIIG.getListLRResult(_iigOwner, _studentOwner);\r\n    }\r\n\r\n    //Chc nng ly thng tin im thi Speaking - Writing\r\n    function getListIIGSWResult(address _iigOwner, address _studentOwner) public view returns(\r\n        string[] memory,\r\n        string[] memory,\r\n        string[] memory,\r\n        uint[] memory,\r\n        uint[] memory,\r\n        uint[] memory) {\r\n            return listIIG.getListSWResult(_iigOwner, _studentOwner);\r\n    }\r\n\r\n    // Chc nng ly im thi Listening - Reading ca sinh vin\r\n    function getIIGLRResult(\r\n        address _iigOwner, \r\n        address _studentOwner,\r\n        string memory _testDate,\r\n        string memory _shiftTest) public view returns(\r\n            string memory testDate,\r\n            string memory shiftTest,\r\n            string memory expireDate,\r\n            uint listeningScore,\r\n            uint readingScore,\r\n            uint totalScore) {\r\n                return listIIG.getLRResult(_iigOwner,\r\n                                            _studentOwner,\r\n                                            _testDate,\r\n                                            _shiftTest);\r\n    }\r\n\r\n    // Chc nng ly im thi Speaking - Writing ca sinh vin\r\n    function getIIGSWResult(\r\n        address _iigOwner, \r\n        address _studentOwner,\r\n        string memory _testDate,\r\n        string memory _shiftTest) public view returns(\r\n            string memory testDate,\r\n            string memory shiftTest,\r\n            string memory expireDate,\r\n            uint speakingScore,\r\n            uint writingScore,\r\n            uint totalScore) {\r\n                return listIIG.getSWResult(_iigOwner,\r\n                                            _studentOwner,\r\n                                            _testDate,\r\n                                            _shiftTest);\r\n    }\r\n}",
  "sourcePath": "C:\\Users\\19520\\Documents\\NCKH_Blockchain\\SolidityProgramming\\ProjectResearch\\SmartCV\\SmartContract\\contracts\\SmartCV_StudentBusiness.sol",
  "compiler": {
    "name": "solc",
    "version": "0.8.11+commit.d7f03943.Emscripten.clang"
  },
  "schemaVersion": "3.4.4",
  "updatedAt": "2022-07-30T05:05:37.629Z",
  "devdoc": {
    "kind": "dev",
    "methods": {},
    "version": 1
  },
  "userdoc": {
    "kind": "user",
    "methods": {},
    "version": 1
  }
}