{
  "contractName": "StudentBusiness",
  "abi": [
    {
      "inputs": [
        {
          "internalType": "address",
          "name": "_studentOwner",
          "type": "address"
        },
        {
          "internalType": "string",
          "name": "_name",
          "type": "string"
        },
        {
          "internalType": "string",
          "name": "_birthDay",
          "type": "string"
        },
        {
          "internalType": "string",
          "name": "_professionalTitle",
          "type": "string"
        },
        {
          "internalType": "string",
          "name": "_email",
          "type": "string"
        },
        {
          "internalType": "string",
          "name": "_github",
          "type": "string"
        },
        {
          "internalType": "string",
          "name": "_linkedin",
          "type": "string"
        },
        {
          "internalType": "string",
          "name": "_password",
          "type": "string"
        }
      ],
      "name": "addStudentProfile",
      "outputs": [],
      "stateMutability": "nonpayable",
      "type": "function"
    },
    {
      "inputs": [
        {
          "internalType": "address",
          "name": "_studentOwner",
          "type": "address"
        },
        {
          "internalType": "string",
          "name": "_name",
          "type": "string"
        },
        {
          "internalType": "string",
          "name": "_birthDay",
          "type": "string"
        },
        {
          "internalType": "string",
          "name": "_professionalTitle",
          "type": "string"
        },
        {
          "internalType": "string",
          "name": "_email",
          "type": "string"
        },
        {
          "internalType": "string",
          "name": "_github",
          "type": "string"
        },
        {
          "internalType": "string",
          "name": "_linkedin",
          "type": "string"
        }
      ],
      "name": "editStudentProfile",
      "outputs": [],
      "stateMutability": "nonpayable",
      "type": "function"
    },
    {
      "inputs": [
        {
          "internalType": "address",
          "name": "_studentOwner",
          "type": "address"
        }
      ],
      "name": "getStudentProfile",
      "outputs": [
        {
          "internalType": "address",
          "name": "studentOwner",
          "type": "address"
        },
        {
          "internalType": "string",
          "name": "name",
          "type": "string"
        },
        {
          "internalType": "string",
          "name": "birthDay",
          "type": "string"
        },
        {
          "internalType": "string",
          "name": "professionalTitle",
          "type": "string"
        },
        {
          "internalType": "string",
          "name": "email",
          "type": "string"
        },
        {
          "internalType": "string",
          "name": "github",
          "type": "string"
        },
        {
          "internalType": "string",
          "name": "linkedin",
          "type": "string"
        },
        {
          "internalType": "string",
          "name": "password",
          "type": "string"
        }
      ],
      "stateMutability": "view",
      "type": "function"
    },
    {
      "inputs": [
        {
          "internalType": "address",
          "name": "_studentOwner",
          "type": "address"
        },
        {
          "internalType": "string",
          "name": "_password",
          "type": "string"
        }
      ],
      "name": "checkStudentProfile",
      "outputs": [
        {
          "internalType": "uint256",
          "name": "x",
          "type": "uint256"
        }
      ],
      "stateMutability": "view",
      "type": "function"
    },
    {
      "inputs": [
        {
          "internalType": "address",
          "name": "_studentOwner",
          "type": "address"
        }
      ],
      "name": "checkExistStudent",
      "outputs": [
        {
          "internalType": "uint256",
          "name": "x",
          "type": "uint256"
        }
      ],
      "stateMutability": "view",
      "type": "function"
    },
    {
      "inputs": [
        {
          "internalType": "address",
          "name": "_studentOwner",
          "type": "address"
        },
        {
          "internalType": "string",
          "name": "_title",
          "type": "string"
        },
        {
          "internalType": "uint256",
          "name": "_level",
          "type": "uint256"
        }
      ],
      "name": "addStudentSkill",
      "outputs": [],
      "stateMutability": "nonpayable",
      "type": "function"
    },
    {
      "inputs": [
        {
          "internalType": "address",
          "name": "_studentOwner",
          "type": "address"
        },
        {
          "internalType": "string",
          "name": "_title",
          "type": "string"
        },
        {
          "internalType": "uint256",
          "name": "_level",
          "type": "uint256"
        }
      ],
      "name": "editStudentSkill",
      "outputs": [],
      "stateMutability": "nonpayable",
      "type": "function"
    },
    {
      "inputs": [
        {
          "internalType": "address",
          "name": "_studentOwner",
          "type": "address"
        },
        {
          "internalType": "string",
          "name": "_title",
          "type": "string"
        }
      ],
      "name": "checkStudentSkill",
      "outputs": [
        {
          "internalType": "uint256",
          "name": "x",
          "type": "uint256"
        }
      ],
      "stateMutability": "view",
      "type": "function"
    },
    {
      "inputs": [
        {
          "internalType": "address",
          "name": "_studentOwner",
          "type": "address"
        }
      ],
      "name": "checkNumStudentSkill",
      "outputs": [
        {
          "internalType": "uint256",
          "name": "x",
          "type": "uint256"
        }
      ],
      "stateMutability": "view",
      "type": "function"
    },
    {
      "inputs": [
        {
          "internalType": "address",
          "name": "_studentOwner",
          "type": "address"
        }
      ],
      "name": "getStudentSkill",
      "outputs": [
        {
          "internalType": "string[]",
          "name": "titles",
          "type": "string[]"
        },
        {
          "internalType": "uint256[]",
          "name": "levels",
          "type": "uint256[]"
        }
      ],
      "stateMutability": "view",
      "type": "function"
    },
    {
      "inputs": [],
      "name": "getListBusiness",
      "outputs": [
        {
          "internalType": "address[]",
          "name": "",
          "type": "address[]"
        },
        {
          "internalType": "string[]",
          "name": "",
          "type": "string[]"
        },
        {
          "internalType": "string[]",
          "name": "",
          "type": "string[]"
        },
        {
          "internalType": "string[]",
          "name": "",
          "type": "string[]"
        },
        {
          "internalType": "string[]",
          "name": "",
          "type": "string[]"
        },
        {
          "internalType": "string[]",
          "name": "",
          "type": "string[]"
        },
        {
          "internalType": "string[]",
          "name": "",
          "type": "string[]"
        },
        {
          "internalType": "string[]",
          "name": "",
          "type": "string[]"
        }
      ],
      "stateMutability": "view",
      "type": "function"
    },
    {
      "inputs": [
        {
          "internalType": "address",
          "name": "_businessOwner",
          "type": "address"
        }
      ],
      "name": "getRecruit",
      "outputs": [
        {
          "internalType": "string[]",
          "name": "",
          "type": "string[]"
        },
        {
          "internalType": "string[]",
          "name": "",
          "type": "string[]"
        }
      ],
      "stateMutability": "view",
      "type": "function"
    },
    {
      "inputs": [
        {
          "internalType": "address",
          "name": "_studentOwner",
          "type": "address"
        },
        {
          "internalType": "address",
          "name": "_businessOwner",
          "type": "address"
        },
        {
          "internalType": "string",
          "name": "_jobTitle",
          "type": "string"
        },
        {
          "internalType": "string",
          "name": "_coverLetter",
          "type": "string"
        }
      ],
      "name": "sendCV",
      "outputs": [],
      "stateMutability": "nonpayable",
      "type": "function"
    },
    {
      "inputs": [
        {
          "internalType": "address",
          "name": "_studentOwner",
          "type": "address"
        },
        {
          "internalType": "address",
          "name": "_businessOwner",
          "type": "address"
        },
        {
          "internalType": "string",
          "name": "_jobTitle",
          "type": "string"
        }
      ],
      "name": "checkCV",
      "outputs": [
        {
          "internalType": "uint256",
          "name": "x",
          "type": "uint256"
        }
      ],
      "stateMutability": "view",
      "type": "function"
    },
    {
      "inputs": [
        {
          "internalType": "address",
          "name": "_studentOwner",
          "type": "address"
        },
        {
          "internalType": "address",
          "name": "_businessOwner",
          "type": "address"
        }
      ],
      "name": "getReview",
      "outputs": [
        {
          "internalType": "address",
          "name": "studentOwner",
          "type": "address"
        },
        {
          "internalType": "address",
          "name": "businessOwner",
          "type": "address"
        },
        {
          "internalType": "string",
          "name": "content",
          "type": "string"
        }
      ],
      "stateMutability": "view",
      "type": "function"
    },
    {
      "inputs": [
        {
          "internalType": "address",
          "name": "_businessOwner",
          "type": "address"
        },
        {
          "internalType": "string",
          "name": "_name",
          "type": "string"
        },
        {
          "internalType": "string",
          "name": "_country",
          "type": "string"
        },
        {
          "internalType": "string",
          "name": "_facebook",
          "type": "string"
        },
        {
          "internalType": "string",
          "name": "_website",
          "type": "string"
        },
        {
          "internalType": "string",
          "name": "_linkedin",
          "type": "string"
        },
        {
          "internalType": "string",
          "name": "_focusArea",
          "type": "string"
        },
        {
          "internalType": "string",
          "name": "_password",
          "type": "string"
        }
      ],
      "name": "addBusinessProfile",
      "outputs": [],
      "stateMutability": "nonpayable",
      "type": "function"
    },
    {
      "inputs": [
        {
          "internalType": "address",
          "name": "_businessOwner",
          "type": "address"
        },
        {
          "internalType": "string",
          "name": "_name",
          "type": "string"
        },
        {
          "internalType": "string",
          "name": "_country",
          "type": "string"
        },
        {
          "internalType": "string",
          "name": "_facebook",
          "type": "string"
        },
        {
          "internalType": "string",
          "name": "_website",
          "type": "string"
        },
        {
          "internalType": "string",
          "name": "_linkedin",
          "type": "string"
        },
        {
          "internalType": "string",
          "name": "_focusArea",
          "type": "string"
        }
      ],
      "name": "editBusinessProfile",
      "outputs": [],
      "stateMutability": "nonpayable",
      "type": "function"
    },
    {
      "inputs": [
        {
          "internalType": "address",
          "name": "_businessOwner",
          "type": "address"
        }
      ],
      "name": "getBusinessProfile",
      "outputs": [
        {
          "internalType": "address",
          "name": "businessOwner",
          "type": "address"
        },
        {
          "internalType": "string",
          "name": "name",
          "type": "string"
        },
        {
          "internalType": "string",
          "name": "country",
          "type": "string"
        },
        {
          "internalType": "string",
          "name": "facebook",
          "type": "string"
        },
        {
          "internalType": "string",
          "name": "website",
          "type": "string"
        },
        {
          "internalType": "string",
          "name": "linkedin",
          "type": "string"
        },
        {
          "internalType": "string",
          "name": "focusArea",
          "type": "string"
        }
      ],
      "stateMutability": "view",
      "type": "function"
    },
    {
      "inputs": [
        {
          "internalType": "address",
          "name": "_businessOwner",
          "type": "address"
        },
        {
          "internalType": "string",
          "name": "_password",
          "type": "string"
        }
      ],
      "name": "checkBusinessProfile",
      "outputs": [
        {
          "internalType": "uint256",
          "name": "",
          "type": "uint256"
        }
      ],
      "stateMutability": "view",
      "type": "function"
    },
    {
      "inputs": [
        {
          "internalType": "address",
          "name": "_businessOwner",
          "type": "address"
        }
      ],
      "name": "checkExistBusiness",
      "outputs": [
        {
          "internalType": "uint256",
          "name": "x",
          "type": "uint256"
        }
      ],
      "stateMutability": "view",
      "type": "function"
    },
    {
      "inputs": [
        {
          "internalType": "address",
          "name": "_businessOwner",
          "type": "address"
        }
      ],
      "name": "getListCV",
      "outputs": [
        {
          "internalType": "address[]",
          "name": "",
          "type": "address[]"
        },
        {
          "internalType": "address[]",
          "name": "",
          "type": "address[]"
        },
        {
          "internalType": "string[]",
          "name": "",
          "type": "string[]"
        },
        {
          "internalType": "string[]",
          "name": "",
          "type": "string[]"
        },
        {
          "internalType": "string[]",
          "name": "",
          "type": "string[]"
        }
      ],
      "stateMutability": "view",
      "type": "function"
    },
    {
      "inputs": [
        {
          "internalType": "address",
          "name": "_studentOwner",
          "type": "address"
        },
        {
          "internalType": "address",
          "name": "_businessOwner",
          "type": "address"
        },
        {
          "internalType": "string",
          "name": "_jobTitle",
          "type": "string"
        },
        {
          "internalType": "string",
          "name": "_statusCV",
          "type": "string"
        }
      ],
      "name": "interviewCV",
      "outputs": [],
      "stateMutability": "nonpayable",
      "type": "function"
    },
    {
      "inputs": [
        {
          "internalType": "address",
          "name": "_studentOwner",
          "type": "address"
        },
        {
          "internalType": "address",
          "name": "_businessOwner",
          "type": "address"
        },
        {
          "internalType": "string",
          "name": "_jobTitle",
          "type": "string"
        },
        {
          "internalType": "string",
          "name": "_statusCV",
          "type": "string"
        }
      ],
      "name": "onboardCV",
      "outputs": [],
      "stateMutability": "nonpayable",
      "type": "function"
    },
    {
      "inputs": [
        {
          "internalType": "address",
          "name": "_businessOwner",
          "type": "address"
        },
        {
          "internalType": "string",
          "name": "_jobTitle",
          "type": "string"
        },
        {
          "internalType": "string",
          "name": "_jobDescription",
          "type": "string"
        }
      ],
      "name": "addRecruit",
      "outputs": [],
      "stateMutability": "nonpayable",
      "type": "function"
    },
    {
      "inputs": [
        {
          "internalType": "address",
          "name": "_studentOwner",
          "type": "address"
        },
        {
          "internalType": "address",
          "name": "_businessOwner",
          "type": "address"
        },
        {
          "internalType": "string",
          "name": "_content",
          "type": "string"
        }
      ],
      "name": "sendReview",
      "outputs": [],
      "stateMutability": "nonpayable",
      "type": "function"
    },
    {
      "inputs": [
        {
          "internalType": "address",
          "name": "_iigOwner",
          "type": "address"
        },
        {
          "internalType": "string",
          "name": "_name",
          "type": "string"
        },
        {
          "internalType": "string",
          "name": "_country",
          "type": "string"
        },
        {
          "internalType": "string",
          "name": "_facebook",
          "type": "string"
        },
        {
          "internalType": "string",
          "name": "_website",
          "type": "string"
        },
        {
          "internalType": "string",
          "name": "_linkedin",
          "type": "string"
        },
        {
          "internalType": "string",
          "name": "_password",
          "type": "string"
        }
      ],
      "name": "addIIGProfile",
      "outputs": [],
      "stateMutability": "nonpayable",
      "type": "function"
    },
    {
      "inputs": [
        {
          "internalType": "address",
          "name": "_iigOwner",
          "type": "address"
        }
      ],
      "name": "getIIGProfile",
      "outputs": [
        {
          "internalType": "address",
          "name": "iigOwner",
          "type": "address"
        },
        {
          "internalType": "string",
          "name": "name",
          "type": "string"
        },
        {
          "internalType": "string",
          "name": "country",
          "type": "string"
        },
        {
          "internalType": "string",
          "name": "facebook",
          "type": "string"
        },
        {
          "internalType": "string",
          "name": "website",
          "type": "string"
        },
        {
          "internalType": "string",
          "name": "linkedin",
          "type": "string"
        }
      ],
      "stateMutability": "view",
      "type": "function"
    },
    {
      "inputs": [
        {
          "internalType": "address",
          "name": "_iigOwner",
          "type": "address"
        },
        {
          "internalType": "string",
          "name": "_password",
          "type": "string"
        }
      ],
      "name": "checkIIGProfile",
      "outputs": [
        {
          "internalType": "uint256",
          "name": "",
          "type": "uint256"
        }
      ],
      "stateMutability": "view",
      "type": "function"
    },
    {
      "inputs": [
        {
          "internalType": "address",
          "name": "_iigOwner",
          "type": "address"
        }
      ],
      "name": "checkExistIIG",
      "outputs": [
        {
          "internalType": "uint256",
          "name": "x",
          "type": "uint256"
        }
      ],
      "stateMutability": "view",
      "type": "function"
    },
    {
      "inputs": [
        {
          "internalType": "address",
          "name": "_studentOwner",
          "type": "address"
        },
        {
          "internalType": "address",
          "name": "_iigOwner",
          "type": "address"
        }
      ],
      "name": "sendIIGRequest",
      "outputs": [],
      "stateMutability": "nonpayable",
      "type": "function"
    },
    {
      "inputs": [
        {
          "internalType": "address",
          "name": "_iigOwner",
          "type": "address"
        }
      ],
      "name": "getListIIGRequest",
      "outputs": [
        {
          "internalType": "address[]",
          "name": "",
          "type": "address[]"
        },
        {
          "internalType": "address[]",
          "name": "",
          "type": "address[]"
        },
        {
          "internalType": "string[]",
          "name": "",
          "type": "string[]"
        }
      ],
      "stateMutability": "view",
      "type": "function"
    },
    {
      "inputs": [
        {
          "internalType": "address",
          "name": "_studentOwner",
          "type": "address"
        },
        {
          "internalType": "address",
          "name": "_iigOwner",
          "type": "address"
        },
        {
          "internalType": "string",
          "name": "_statusRequest",
          "type": "string"
        }
      ],
      "name": "confirmIIGRequest",
      "outputs": [],
      "stateMutability": "nonpayable",
      "type": "function"
    },
    {
      "inputs": [
        {
          "internalType": "address",
          "name": "_iigOwner",
          "type": "address"
        },
        {
          "internalType": "address",
          "name": "_studentOwner",
          "type": "address"
        },
        {
          "internalType": "string",
          "name": "_testDate",
          "type": "string"
        },
        {
          "internalType": "string",
          "name": "_shiftTest",
          "type": "string"
        },
        {
          "internalType": "string",
          "name": "_expireDate",
          "type": "string"
        },
        {
          "internalType": "uint256",
          "name": "_listeningScore",
          "type": "uint256"
        },
        {
          "internalType": "uint256",
          "name": "_readingScore",
          "type": "uint256"
        }
      ],
      "name": "addIIGLRResult",
      "outputs": [],
      "stateMutability": "nonpayable",
      "type": "function"
    },
    {
      "inputs": [
        {
          "internalType": "address",
          "name": "_iigOwner",
          "type": "address"
        },
        {
          "internalType": "address",
          "name": "_studentOwner",
          "type": "address"
        },
        {
          "internalType": "string",
          "name": "_testDate",
          "type": "string"
        },
        {
          "internalType": "string",
          "name": "_shiftTest",
          "type": "string"
        },
        {
          "internalType": "string",
          "name": "_expireDate",
          "type": "string"
        },
        {
          "internalType": "uint256",
          "name": "_speakingScore",
          "type": "uint256"
        },
        {
          "internalType": "uint256",
          "name": "_writingScore",
          "type": "uint256"
        }
      ],
      "name": "addIIGSWResult",
      "outputs": [],
      "stateMutability": "nonpayable",
      "type": "function"
    },
    {
      "inputs": [
        {
          "internalType": "address",
          "name": "_iigOwner",
          "type": "address"
        },
        {
          "internalType": "address",
          "name": "_studentOwner",
          "type": "address"
        }
      ],
      "name": "getIIGLRResult",
      "outputs": [
        {
          "internalType": "string[]",
          "name": "",
          "type": "string[]"
        },
        {
          "internalType": "string[]",
          "name": "",
          "type": "string[]"
        },
        {
          "internalType": "string[]",
          "name": "",
          "type": "string[]"
        },
        {
          "internalType": "uint256[]",
          "name": "",
          "type": "uint256[]"
        },
        {
          "internalType": "uint256[]",
          "name": "",
          "type": "uint256[]"
        },
        {
          "internalType": "uint256[]",
          "name": "",
          "type": "uint256[]"
        }
      ],
      "stateMutability": "view",
      "type": "function"
    },
    {
      "inputs": [
        {
          "internalType": "address",
          "name": "_iigOwner",
          "type": "address"
        },
        {
          "internalType": "address",
          "name": "_studentOwner",
          "type": "address"
        }
      ],
      "name": "getIIGSWResult",
      "outputs": [
        {
          "internalType": "string[]",
          "name": "",
          "type": "string[]"
        },
        {
          "internalType": "string[]",
          "name": "",
          "type": "string[]"
        },
        {
          "internalType": "string[]",
          "name": "",
          "type": "string[]"
        },
        {
          "internalType": "uint256[]",
          "name": "",
          "type": "uint256[]"
        },
        {
          "internalType": "uint256[]",
          "name": "",
          "type": "uint256[]"
        },
        {
          "internalType": "uint256[]",
          "name": "",
          "type": "uint256[]"
        }
      ],
      "stateMutability": "view",
      "type": "function"
    },
    {
      "inputs": [
        {
          "internalType": "address",
          "name": "_studentOwner",
          "type": "address"
        },
        {
          "internalType": "string",
          "name": "_testDate",
          "type": "string"
        },
        {
          "internalType": "string",
          "name": "_shiftTest",
          "type": "string"
        }
      ],
      "name": "checkExistIIGLRResult",
      "outputs": [
        {
          "internalType": "uint256",
          "name": "x",
          "type": "uint256"
        }
      ],
      "stateMutability": "view",
      "type": "function"
    },
    {
      "inputs": [
        {
          "internalType": "address",
          "name": "_studentOwner",
          "type": "address"
        },
        {
          "internalType": "string",
          "name": "_testDate",
          "type": "string"
        },
        {
          "internalType": "string",
          "name": "_shiftTest",
          "type": "string"
        }
      ],
      "name": "checkExistIIGSWResult",
      "outputs": [
        {
          "internalType": "uint256",
          "name": "x",
          "type": "uint256"
        }
      ],
      "stateMutability": "view",
      "type": "function"
    }
  ],
  "bytecode": "0x60806040526040516200001290620001c7565b604051809103906000f0801580156200002f573d6000803e3d6000fd5b506000806101000a81548173ffffffffffffffffffffffffffffffffffffffff021916908373ffffffffffffffffffffffffffffffffffffffff1602179055506040516200007d90620001d5565b604051809103906000f0801580156200009a573d6000803e3d6000fd5b50600160006101000a81548173ffffffffffffffffffffffffffffffffffffffff021916908373ffffffffffffffffffffffffffffffffffffffff160217905550604051620000e990620001e3565b604051809103906000f08015801562000106573d6000803e3d6000fd5b50600260006101000a81548173ffffffffffffffffffffffffffffffffffffffff021916908373ffffffffffffffffffffffffffffffffffffffff1602179055506040516200015590620001f1565b604051809103906000f08015801562000172573d6000803e3d6000fd5b50600360006101000a81548173ffffffffffffffffffffffffffffffffffffffff021916908373ffffffffffffffffffffffffffffffffffffffff160217905550348015620001c057600080fd5b50620001ff565b613190806200426c83390190565b61263080620073fc83390190565b6148cc8062009a2c83390190565b6125e9806200e2f883390190565b61405d806200020f6000396000f3fe608060405234801561001057600080fd5b50600436106102305760003560e01c80637e211fc511610130578063ce1ec5bb116100b8578063e28327211161007c578063e283272114610773578063e2f43af21461078f578063e9daa70a146107ab578063f1eb2431146107dd578063fe761783146107f957610230565b8063ce1ec5bb146106a5578063ce4dd73f146106d6578063cee5c7f314610706578063d2f9858f14610722578063d85c65801461075757610230565b806391b9e6db116100ff57806391b9e6db146105bb5780639b1a2111146105d75780639cd325821461060c578063acf6f3fd14610640578063b8ef23d11461067057610230565b80637e211fc51461052357806381f690ee1461053f578063844bb4601461056f578063873dcd291461058b57610230565b80632df96bfc116101be57806357824f161161018257806357824f16146104795780635b288a931461049e5780636b4dbb28146104ba5780636d53448f146104eb5780636f57524c1461050757610230565b80632df96bfc1461038357806335c77f85146103b357806339d92c4c146103e357806342f08d4b1461041357806344fd6e221461044957610230565b80630e966efd116102055780630e966efd146102cd57806311345a20146102ff5780631632dd981461032f57806316528ffb1461034b57806319ad872f1461036757610230565b80624e56cf14610235578062694bdc146102515780630299779f1461026d5780630ac68f371461029d575b600080fd5b61024f600480360381019061024a91906122ec565b610830565b005b61026b6004803603810190610266919061238b565b6108c8565b005b6102876004803603810190610282919061238b565b61095e565b6040516102949190612413565b60405180910390f35b6102b760048036038101906102b2919061242e565b610a09565b6040516102c49190612413565b60405180910390f35b6102e760048036038101906102e2919061248a565b610ab0565b6040516102f6939291906126bf565b60405180910390f35b6103196004803603810190610314919061248a565b610b63565b6040516103269190612413565b60405180910390f35b6103496004803603810190610344919061238b565b610c07565b005b6103656004803603810190610360919061270b565b610c9d565b005b610381600480360381019061037c9190612881565b610d3d565b005b61039d6004803603810190610398919061248a565b610dde565b6040516103aa9190612413565b60405180910390f35b6103cd60048036038101906103c8919061242e565b610e97565b6040516103da9190612413565b60405180910390f35b6103fd60048036038101906103f8919061248a565b610f3f565b60405161040a9190612413565b60405180910390f35b61042d6004803603810190610428919061248a565b610fe4565b60405161044097969594939291906129d0565b60405180910390f35b610463600480360381019061045e919061248a565b6110a9565b6040516104709190612413565b60405180910390f35b61048161114e565b604051610495989796959493929190612a69565b60405180910390f35b6104b860048036038101906104b39190612b1f565b61120a565b005b6104d460048036038101906104cf919061248a565b6112ad565b6040516104e2929190612d57565b60405180910390f35b61050560048036038101906105009190612b1f565b611358565b005b610521600480360381019061051c919061270b565b6113fd565b005b61053d60048036038101906105389190612881565b61149f565b005b61055960048036038101906105549190612d8e565b611541565b6040516105669190612413565b60405180910390f35b610589600480360381019061058491906122ec565b6115ec565b005b6105a560048036038101906105a0919061242e565b611685565b6040516105b29190612413565b60405180910390f35b6105d560048036038101906105d091906122ec565b61172d565b005b6105f160048036038101906105ec9190612e19565b6117c6565b60405161060396959493929190612e59565b60405180910390f35b6106266004803603810190610621919061248a565b611888565b604051610637959493929190612ee4565b60405180910390f35b61065a6004803603810190610655919061242e565b611944565b6040516106679190612413565b60405180910390f35b61068a60048036038101906106859190612e19565b6119eb565b60405161069c96959493929190612e59565b60405180910390f35b6106bf60048036038101906106ba919061248a565b611aad565b6040516106cd929190612f5a565b60405180910390f35b6106f060048036038101906106eb9190612d8e565b611b5a565b6040516106fd9190612413565b60405180910390f35b610720600480360381019061071b9190612d8e565b611c05565b005b61073c6004803603810190610737919061248a565b611c9b565b60405161074e96959493929190612f91565b60405180910390f35b610771600480360381019061076c9190612e19565b611d5b565b005b61078d6004803603810190610788919061270b565b611dee565b005b6107a960048036038101906107a49190613015565b611e90565b005b6107c560048036038101906107c09190612e19565b611f24565b6040516107d493929190613084565b60405180910390f35b6107f760048036038101906107f29190613015565b611fd9565b005b610813600480360381019061080e919061248a565b61206d565b6040516108279897969594939291906130c2565b60405180910390f35b600360009054906101000a900473ffffffffffffffffffffffffffffffffffffffff1673ffffffffffffffffffffffffffffffffffffffff16624e56cf858585856040518563ffffffff1660e01b81526004016108909493929190613171565b600060405180830381600087803b1580156108aa57600080fd5b505af11580156108be573d6000803e3d6000fd5b5050505050505050565b600260009054906101000a900473ffffffffffffffffffffffffffffffffffffffff1673ffffffffffffffffffffffffffffffffffffffff166381d8b62c8484846040518463ffffffff1660e01b815260040161092793929190613084565b600060405180830381600087803b15801561094157600080fd5b505af1158015610955573d6000803e3d6000fd5b50505050505050565b6000600360009054906101000a900473ffffffffffffffffffffffffffffffffffffffff1673ffffffffffffffffffffffffffffffffffffffff16630299779f8585856040518463ffffffff1660e01b81526004016109bf93929190613084565b602060405180830381865afa1580156109dc573d6000803e3d6000fd5b505050506040513d601f19601f82011682018060405250810190610a0091906131d9565b90509392505050565b60008060009054906101000a900473ffffffffffffffffffffffffffffffffffffffff1673ffffffffffffffffffffffffffffffffffffffff1663716b5ab484846040518363ffffffff1660e01b8152600401610a67929190613206565b602060405180830381865afa158015610a84573d6000803e3d6000fd5b505050506040513d601f19601f82011682018060405250810190610aa891906131d9565b905092915050565b6060806060600260009054906101000a900473ffffffffffffffffffffffffffffffffffffffff1673ffffffffffffffffffffffffffffffffffffffff16639fa7247a856040518263ffffffff1660e01b8152600401610b109190613236565b600060405180830381865afa158015610b2d573d6000803e3d6000fd5b505050506040513d6000823e3d601f19601f82011682018060405250810190610b56919061347f565b9250925092509193909250565b60008060009054906101000a900473ffffffffffffffffffffffffffffffffffffffff1673ffffffffffffffffffffffffffffffffffffffff1663961ecb5b836040518263ffffffff1660e01b8152600401610bbf9190613236565b602060405180830381865afa158015610bdc573d6000803e3d6000fd5b505050506040513d601f19601f82011682018060405250810190610c0091906131d9565b9050919050565b600360009054906101000a900473ffffffffffffffffffffffffffffffffffffffff1673ffffffffffffffffffffffffffffffffffffffff1663ae8f00d38484846040518463ffffffff1660e01b8152600401610c6693929190613084565b600060405180830381600087803b158015610c8057600080fd5b505af1158015610c94573d6000803e3d6000fd5b50505050505050565b60008054906101000a900473ffffffffffffffffffffffffffffffffffffffff1673ffffffffffffffffffffffffffffffffffffffff16636098b0dd888888888888886040518863ffffffff1660e01b8152600401610d0297969594939291906129d0565b600060405180830381600087803b158015610d1c57600080fd5b505af1158015610d30573d6000803e3d6000fd5b5050505050505050505050565b600260009054906101000a900473ffffffffffffffffffffffffffffffffffffffff1673ffffffffffffffffffffffffffffffffffffffff1662220cf7888888888888886040518863ffffffff1660e01b8152600401610da39796959493929190613526565b600060405180830381600087803b158015610dbd57600080fd5b505af1158015610dd1573d6000803e3d6000fd5b5050505050505050505050565b60008060008054906101000a900473ffffffffffffffffffffffffffffffffffffffff1673ffffffffffffffffffffffffffffffffffffffff16638e891393846040518263ffffffff1660e01b8152600401610e3a9190613236565b602060405180830381865afa158015610e57573d6000803e3d6000fd5b505050506040513d601f19601f82011682018060405250810190610e7b91906131d9565b9050600a811115610e90576001915050610e92565b505b919050565b6000600160009054906101000a900473ffffffffffffffffffffffffffffffffffffffff1673ffffffffffffffffffffffffffffffffffffffff1663a7dba18484846040518363ffffffff1660e01b8152600401610ef6929190613206565b602060405180830381865afa158015610f13573d6000803e3d6000fd5b505050506040513d601f19601f82011682018060405250810190610f3791906131d9565b905092915050565b6000600160009054906101000a900473ffffffffffffffffffffffffffffffffffffffff1673ffffffffffffffffffffffffffffffffffffffff1663c6fe410a836040518263ffffffff1660e01b8152600401610f9c9190613236565b602060405180830381865afa158015610fb9573d6000803e3d6000fd5b505050506040513d601f19601f82011682018060405250810190610fdd91906131d9565b9050919050565b6000606080606080606080600160009054906101000a900473ffffffffffffffffffffffffffffffffffffffff1673ffffffffffffffffffffffffffffffffffffffff16630f53a470896040518263ffffffff1660e01b815260040161104a9190613236565b600060405180830381865afa158015611067573d6000803e3d6000fd5b505050506040513d6000823e3d601f19601f8201168201806040525081019061109091906135aa565b9650965096509650965096509650919395979092949650565b6000600260009054906101000a900473ffffffffffffffffffffffffffffffffffffffff1673ffffffffffffffffffffffffffffffffffffffff166344fd6e22836040518263ffffffff1660e01b81526004016111069190613236565b602060405180830381865afa158015611123573d6000803e3d6000fd5b505050506040513d601f19601f8201168201806040525081019061114791906131d9565b9050919050565b606080606080606080606080600160009054906101000a900473ffffffffffffffffffffffffffffffffffffffff1673ffffffffffffffffffffffffffffffffffffffff1663cfafbc0c6040518163ffffffff1660e01b8152600401600060405180830381865afa1580156111c7573d6000803e3d6000fd5b505050506040513d6000823e3d601f19601f820116820180604052508101906111f091906136f4565b975097509750975097509750975097509091929394959697565b60008054906101000a900473ffffffffffffffffffffffffffffffffffffffff1673ffffffffffffffffffffffffffffffffffffffff16639fea8e1089898989898989896040518963ffffffff1660e01b81526004016112719897969594939291906130c2565b600060405180830381600087803b15801561128b57600080fd5b505af115801561129f573d6000803e3d6000fd5b505050505050505050505050565b60608060008054906101000a900473ffffffffffffffffffffffffffffffffffffffff1673ffffffffffffffffffffffffffffffffffffffff1663ac4b2049846040518263ffffffff1660e01b81526004016113099190613236565b600060405180830381865afa158015611326573d6000803e3d6000fd5b505050506040513d6000823e3d601f19601f8201168201806040525081019061134f919061394d565b91509150915091565b600160009054906101000a900473ffffffffffffffffffffffffffffffffffffffff1673ffffffffffffffffffffffffffffffffffffffff1663e045b71089898989898989896040518963ffffffff1660e01b81526004016113c19897969594939291906130c2565b600060405180830381600087803b1580156113db57600080fd5b505af11580156113ef573d6000803e3d6000fd5b505050505050505050505050565b600160009054906101000a900473ffffffffffffffffffffffffffffffffffffffff1673ffffffffffffffffffffffffffffffffffffffff166323b6d993888888888888886040518863ffffffff1660e01b815260040161146497969594939291906129d0565b600060405180830381600087803b15801561147e57600080fd5b505af1158015611492573d6000803e3d6000fd5b5050505050505050505050565b600260009054906101000a900473ffffffffffffffffffffffffffffffffffffffff1673ffffffffffffffffffffffffffffffffffffffff1663d23a4ee1888888888888886040518863ffffffff1660e01b81526004016115069796959493929190613526565b600060405180830381600087803b15801561152057600080fd5b505af1158015611534573d6000803e3d6000fd5b5050505050505050505050565b6000600260009054906101000a900473ffffffffffffffffffffffffffffffffffffffff1673ffffffffffffffffffffffffffffffffffffffff16630265275c8585856040518463ffffffff1660e01b81526004016115a2939291906139c5565b602060405180830381865afa1580156115bf573d6000803e3d6000fd5b505050506040513d601f19601f820116820180604052508101906115e391906131d9565b90509392505050565b600360009054906101000a900473ffffffffffffffffffffffffffffffffffffffff1673ffffffffffffffffffffffffffffffffffffffff1663844bb460858585856040518563ffffffff1660e01b815260040161164d9493929190613171565b600060405180830381600087803b15801561166757600080fd5b505af115801561167b573d6000803e3d6000fd5b5050505050505050565b6000600260009054906101000a900473ffffffffffffffffffffffffffffffffffffffff1673ffffffffffffffffffffffffffffffffffffffff166324e6603784846040518363ffffffff1660e01b81526004016116e4929190613206565b602060405180830381865afa158015611701573d6000803e3d6000fd5b505050506040513d601f19601f8201168201806040525081019061172591906131d9565b905092915050565b600360009054906101000a900473ffffffffffffffffffffffffffffffffffffffff1673ffffffffffffffffffffffffffffffffffffffff1663dc1e475f858585856040518563ffffffff1660e01b815260040161178e9493929190613171565b600060405180830381600087803b1580156117a857600080fd5b505af11580156117bc573d6000803e3d6000fd5b5050505050505050565b606080606080606080600260009054906101000a900473ffffffffffffffffffffffffffffffffffffffff1673ffffffffffffffffffffffffffffffffffffffff166306ed1e8989896040518363ffffffff1660e01b815260040161182c929190613a0a565b600060405180830381865afa158015611849573d6000803e3d6000fd5b505050506040513d6000823e3d601f19601f820116820180604052508101906118729190613a33565b9550955095509550955095509295509295509295565b6060806060806060600360009054906101000a900473ffffffffffffffffffffffffffffffffffffffff1673ffffffffffffffffffffffffffffffffffffffff1663381a3bf7876040518263ffffffff1660e01b81526004016118eb9190613236565b600060405180830381865afa158015611908573d6000803e3d6000fd5b505050506040513d6000823e3d601f19601f820116820180604052508101906119319190613b68565b9450945094509450945091939590929450565b60008060009054906101000a900473ffffffffffffffffffffffffffffffffffffffff1673ffffffffffffffffffffffffffffffffffffffff1663174ceeab84846040518363ffffffff1660e01b81526004016119a2929190613206565b602060405180830381865afa1580156119bf573d6000803e3d6000fd5b505050506040513d601f19601f820116820180604052508101906119e391906131d9565b905092915050565b606080606080606080600260009054906101000a900473ffffffffffffffffffffffffffffffffffffffff1673ffffffffffffffffffffffffffffffffffffffff1663bc72af7d89896040518363ffffffff1660e01b8152600401611a51929190613a0a565b600060405180830381865afa158015611a6e573d6000803e3d6000fd5b505050506040513d6000823e3d601f19601f82011682018060405250810190611a979190613a33565b9550955095509550955095509295509295509295565b606080600360009054906101000a900473ffffffffffffffffffffffffffffffffffffffff1673ffffffffffffffffffffffffffffffffffffffff1663ce1ec5bb846040518263ffffffff1660e01b8152600401611b0b9190613236565b600060405180830381865afa158015611b28573d6000803e3d6000fd5b505050506040513d6000823e3d601f19601f82011682018060405250810190611b519190613c6f565b91509150915091565b6000600260009054906101000a900473ffffffffffffffffffffffffffffffffffffffff1673ffffffffffffffffffffffffffffffffffffffff16637829b41e8585856040518463ffffffff1660e01b8152600401611bbb939291906139c5565b602060405180830381865afa158015611bd8573d6000803e3d6000fd5b505050506040513d601f19601f82011682018060405250810190611bfc91906131d9565b90509392505050565b600360009054906101000a900473ffffffffffffffffffffffffffffffffffffffff1673ffffffffffffffffffffffffffffffffffffffff1663cee5c7f38484846040518463ffffffff1660e01b8152600401611c64939291906139c5565b600060405180830381600087803b158015611c7e57600080fd5b505af1158015611c92573d6000803e3d6000fd5b50505050505050565b60006060806060806060600260009054906101000a900473ffffffffffffffffffffffffffffffffffffffff1673ffffffffffffffffffffffffffffffffffffffff16630f53a470886040518263ffffffff1660e01b8152600401611d009190613236565b600060405180830381865afa158015611d1d573d6000803e3d6000fd5b505050506040513d6000823e3d601f19601f82011682018060405250810190611d469190613ce7565b95509550955095509550955091939550919395565b600260009054906101000a900473ffffffffffffffffffffffffffffffffffffffff1673ffffffffffffffffffffffffffffffffffffffff1663895af4f183836040518363ffffffff1660e01b8152600401611db8929190613a0a565b600060405180830381600087803b158015611dd257600080fd5b505af1158015611de6573d6000803e3d6000fd5b505050505050565b600260009054906101000a900473ffffffffffffffffffffffffffffffffffffffff1673ffffffffffffffffffffffffffffffffffffffff1663dd8f3edc888888888888886040518863ffffffff1660e01b8152600401611e5597969594939291906129d0565b600060405180830381600087803b158015611e6f57600080fd5b505af1158015611e83573d6000803e3d6000fd5b5050505050505050505050565b60008054906101000a900473ffffffffffffffffffffffffffffffffffffffff1673ffffffffffffffffffffffffffffffffffffffff166360ccb2048484846040518463ffffffff1660e01b8152600401611eed93929190613e00565b600060405180830381600087803b158015611f0757600080fd5b505af1158015611f1b573d6000803e3d6000fd5b50505050505050565b6000806060600360009054906101000a900473ffffffffffffffffffffffffffffffffffffffff1673ffffffffffffffffffffffffffffffffffffffff1663e9daa70a86866040518363ffffffff1660e01b8152600401611f86929190613a0a565b600060405180830381865afa158015611fa3573d6000803e3d6000fd5b505050506040513d6000823e3d601f19601f82011682018060405250810190611fcc9190613e3e565b9250925092509250925092565b60008054906101000a900473ffffffffffffffffffffffffffffffffffffffff1673ffffffffffffffffffffffffffffffffffffffff1663a06b883d8484846040518463ffffffff1660e01b815260040161203693929190613e00565b600060405180830381600087803b15801561205057600080fd5b505af1158015612064573d6000803e3d6000fd5b50505050505050565b6000606080606080606080606060008054906101000a900473ffffffffffffffffffffffffffffffffffffffff1673ffffffffffffffffffffffffffffffffffffffff16630f53a4708a6040518263ffffffff1660e01b81526004016120d39190613236565b600060405180830381865afa1580156120f0573d6000803e3d6000fd5b505050506040513d6000823e3d601f19601f820116820180604052508101906121199190613ead565b97509750975097509750975097509750919395975091939597565b6000604051905090565b600080fd5b600080fd5b600073ffffffffffffffffffffffffffffffffffffffff82169050919050565b600061217382612148565b9050919050565b61218381612168565b811461218e57600080fd5b50565b6000813590506121a08161217a565b92915050565b600080fd5b600080fd5b6000601f19601f8301169050919050565b7f4e487b7100000000000000000000000000000000000000000000000000000000600052604160045260246000fd5b6121f9826121b0565b810181811067ffffffffffffffff82111715612218576122176121c1565b5b80604052505050565b600061222b612134565b905061223782826121f0565b919050565b600067ffffffffffffffff821115612257576122566121c1565b5b612260826121b0565b9050602081019050919050565b82818337600083830152505050565b600061228f61228a8461223c565b612221565b9050828152602081018484840111156122ab576122aa6121ab565b5b6122b684828561226d565b509392505050565b600082601f8301126122d3576122d26121a6565b5b81356122e384826020860161227c565b91505092915050565b600080600080608085870312156123065761230561213e565b5b600061231487828801612191565b945050602061232587828801612191565b935050604085013567ffffffffffffffff81111561234657612345612143565b5b612352878288016122be565b925050606085013567ffffffffffffffff81111561237357612372612143565b5b61237f878288016122be565b91505092959194509250565b6000806000606084860312156123a4576123a361213e565b5b60006123b286828701612191565b93505060206123c386828701612191565b925050604084013567ffffffffffffffff8111156123e4576123e3612143565b5b6123f0868287016122be565b9150509250925092565b6000819050919050565b61240d816123fa565b82525050565b60006020820190506124286000830184612404565b92915050565b600080604083850312156124455761244461213e565b5b600061245385828601612191565b925050602083013567ffffffffffffffff81111561247457612473612143565b5b612480858286016122be565b9150509250929050565b6000602082840312156124a05761249f61213e565b5b60006124ae84828501612191565b91505092915050565b600081519050919050565b600082825260208201905092915050565b6000819050602082019050919050565b6124ec81612168565b82525050565b60006124fe83836124e3565b60208301905092915050565b6000602082019050919050565b6000612522826124b7565b61252c81856124c2565b9350612537836124d3565b8060005b8381101561256857815161254f88826124f2565b975061255a8361250a565b92505060018101905061253b565b5085935050505092915050565b600081519050919050565b600082825260208201905092915050565b6000819050602082019050919050565b600081519050919050565b600082825260208201905092915050565b60005b838110156125db5780820151818401526020810190506125c0565b838111156125ea576000848401525b50505050565b60006125fb826125a1565b61260581856125ac565b93506126158185602086016125bd565b61261e816121b0565b840191505092915050565b600061263583836125f0565b905092915050565b6000602082019050919050565b600061265582612575565b61265f8185612580565b93508360208202850161267185612591565b8060005b858110156126ad578484038952815161268e8582612629565b94506126998361263d565b925060208a01995050600181019050612675565b50829750879550505050505092915050565b600060608201905081810360008301526126d98186612517565b905081810360208301526126ed8185612517565b90508181036040830152612701818461264a565b9050949350505050565b600080600080600080600060e0888a03121561272a5761272961213e565b5b60006127388a828b01612191565b975050602088013567ffffffffffffffff81111561275957612758612143565b5b6127658a828b016122be565b965050604088013567ffffffffffffffff81111561278657612785612143565b5b6127928a828b016122be565b955050606088013567ffffffffffffffff8111156127b3576127b2612143565b5b6127bf8a828b016122be565b945050608088013567ffffffffffffffff8111156127e0576127df612143565b5b6127ec8a828b016122be565b93505060a088013567ffffffffffffffff81111561280d5761280c612143565b5b6128198a828b016122be565b92505060c088013567ffffffffffffffff81111561283a57612839612143565b5b6128468a828b016122be565b91505092959891949750929550565b61285e816123fa565b811461286957600080fd5b50565b60008135905061287b81612855565b92915050565b600080600080600080600060e0888a0312156128a05761289f61213e565b5b60006128ae8a828b01612191565b97505060206128bf8a828b01612191565b965050604088013567ffffffffffffffff8111156128e0576128df612143565b5b6128ec8a828b016122be565b955050606088013567ffffffffffffffff81111561290d5761290c612143565b5b6129198a828b016122be565b945050608088013567ffffffffffffffff81111561293a57612939612143565b5b6129468a828b016122be565b93505060a06129578a828b0161286c565b92505060c06129688a828b0161286c565b91505092959891949750929550565b61298081612168565b82525050565b600082825260208201905092915050565b60006129a2826125a1565b6129ac8185612986565b93506129bc8185602086016125bd565b6129c5816121b0565b840191505092915050565b600060e0820190506129e5600083018a612977565b81810360208301526129f78189612997565b90508181036040830152612a0b8188612997565b90508181036060830152612a1f8187612997565b90508181036080830152612a338186612997565b905081810360a0830152612a478185612997565b905081810360c0830152612a5b8184612997565b905098975050505050505050565b6000610100820190508181036000830152612a84818b612517565b90508181036020830152612a98818a61264a565b90508181036040830152612aac818961264a565b90508181036060830152612ac0818861264a565b90508181036080830152612ad4818761264a565b905081810360a0830152612ae8818661264a565b905081810360c0830152612afc818561264a565b905081810360e0830152612b10818461264a565b90509998505050505050505050565b600080600080600080600080610100898b031215612b4057612b3f61213e565b5b6000612b4e8b828c01612191565b985050602089013567ffffffffffffffff811115612b6f57612b6e612143565b5b612b7b8b828c016122be565b975050604089013567ffffffffffffffff811115612b9c57612b9b612143565b5b612ba88b828c016122be565b965050606089013567ffffffffffffffff811115612bc957612bc8612143565b5b612bd58b828c016122be565b955050608089013567ffffffffffffffff811115612bf657612bf5612143565b5b612c028b828c016122be565b94505060a089013567ffffffffffffffff811115612c2357612c22612143565b5b612c2f8b828c016122be565b93505060c089013567ffffffffffffffff811115612c5057612c4f612143565b5b612c5c8b828c016122be565b92505060e089013567ffffffffffffffff811115612c7d57612c7c612143565b5b612c898b828c016122be565b9150509295985092959890939650565b600081519050919050565b600082825260208201905092915050565b6000819050602082019050919050565b612cce816123fa565b82525050565b6000612ce08383612cc5565b60208301905092915050565b6000602082019050919050565b6000612d0482612c99565b612d0e8185612ca4565b9350612d1983612cb5565b8060005b83811015612d4a578151612d318882612cd4565b9750612d3c83612cec565b925050600181019050612d1d565b5085935050505092915050565b60006040820190508181036000830152612d71818561264a565b90508181036020830152612d858184612cf9565b90509392505050565b600080600060608486031215612da757612da661213e565b5b6000612db586828701612191565b935050602084013567ffffffffffffffff811115612dd657612dd5612143565b5b612de2868287016122be565b925050604084013567ffffffffffffffff811115612e0357612e02612143565b5b612e0f868287016122be565b9150509250925092565b60008060408385031215612e3057612e2f61213e565b5b6000612e3e85828601612191565b9250506020612e4f85828601612191565b9150509250929050565b600060c0820190508181036000830152612e73818961264a565b90508181036020830152612e87818861264a565b90508181036040830152612e9b818761264a565b90508181036060830152612eaf8186612cf9565b90508181036080830152612ec38185612cf9565b905081810360a0830152612ed78184612cf9565b9050979650505050505050565b600060a0820190508181036000830152612efe8188612517565b90508181036020830152612f128187612517565b90508181036040830152612f26818661264a565b90508181036060830152612f3a818561264a565b90508181036080830152612f4e818461264a565b90509695505050505050565b60006040820190508181036000830152612f74818561264a565b90508181036020830152612f88818461264a565b90509392505050565b600060c082019050612fa66000830189612977565b8181036020830152612fb88188612997565b90508181036040830152612fcc8187612997565b90508181036060830152612fe08186612997565b90508181036080830152612ff48185612997565b905081810360a08301526130088184612997565b9050979650505050505050565b60008060006060848603121561302e5761302d61213e565b5b600061303c86828701612191565b935050602084013567ffffffffffffffff81111561305d5761305c612143565b5b613069868287016122be565b925050604061307a8682870161286c565b9150509250925092565b60006060820190506130996000830186612977565b6130a66020830185612977565b81810360408301526130b88184612997565b9050949350505050565b6000610100820190506130d8600083018b612977565b81810360208301526130ea818a612997565b905081810360408301526130fe8189612997565b905081810360608301526131128188612997565b905081810360808301526131268187612997565b905081810360a083015261313a8186612997565b905081810360c083015261314e8185612997565b905081810360e08301526131628184612997565b90509998505050505050505050565b60006080820190506131866000830187612977565b6131936020830186612977565b81810360408301526131a58185612997565b905081810360608301526131b98184612997565b905095945050505050565b6000815190506131d381612855565b92915050565b6000602082840312156131ef576131ee61213e565b5b60006131fd848285016131c4565b91505092915050565b600060408201905061321b6000830185612977565b818103602083015261322d8184612997565b90509392505050565b600060208201905061324b6000830184612977565b92915050565b600067ffffffffffffffff82111561326c5761326b6121c1565b5b602082029050602081019050919050565b600080fd5b6000815190506132918161217a565b92915050565b60006132aa6132a584613251565b612221565b905080838252602082019050602084028301858111156132cd576132cc61327d565b5b835b818110156132f657806132e28882613282565b8452602084019350506020810190506132cf565b5050509392505050565b600082601f830112613315576133146121a6565b5b8151613325848260208601613297565b91505092915050565b600067ffffffffffffffff821115613349576133486121c1565b5b602082029050602081019050919050565b600061336d6133688461223c565b612221565b905082815260208101848484011115613389576133886121ab565b5b6133948482856125bd565b509392505050565b600082601f8301126133b1576133b06121a6565b5b81516133c184826020860161335a565b91505092915050565b60006133dd6133d88461332e565b612221565b90508083825260208201905060208402830185811115613400576133ff61327d565b5b835b8181101561344757805167ffffffffffffffff811115613425576134246121a6565b5b808601613432898261339c565b85526020850194505050602081019050613402565b5050509392505050565b600082601f830112613466576134656121a6565b5b81516134768482602086016133ca565b91505092915050565b6000806000606084860312156134985761349761213e565b5b600084015167ffffffffffffffff8111156134b6576134b5612143565b5b6134c286828701613300565b935050602084015167ffffffffffffffff8111156134e3576134e2612143565b5b6134ef86828701613300565b925050604084015167ffffffffffffffff8111156135105761350f612143565b5b61351c86828701613451565b9150509250925092565b600060e08201905061353b600083018a612977565b6135486020830189612977565b818103604083015261355a8188612997565b9050818103606083015261356e8187612997565b905081810360808301526135828186612997565b905061359160a0830185612404565b61359e60c0830184612404565b98975050505050505050565b600080600080600080600060e0888a0312156135c9576135c861213e565b5b60006135d78a828b01613282565b975050602088015167ffffffffffffffff8111156135f8576135f7612143565b5b6136048a828b0161339c565b965050604088015167ffffffffffffffff81111561362557613624612143565b5b6136318a828b0161339c565b955050606088015167ffffffffffffffff81111561365257613651612143565b5b61365e8a828b0161339c565b945050608088015167ffffffffffffffff81111561367f5761367e612143565b5b61368b8a828b0161339c565b93505060a088015167ffffffffffffffff8111156136ac576136ab612143565b5b6136b88a828b0161339c565b92505060c088015167ffffffffffffffff8111156136d9576136d8612143565b5b6136e58a828b0161339c565b91505092959891949750929550565b600080600080600080600080610100898b0312156137155761371461213e565b5b600089015167ffffffffffffffff81111561373357613732612143565b5b61373f8b828c01613300565b985050602089015167ffffffffffffffff8111156137605761375f612143565b5b61376c8b828c01613451565b975050604089015167ffffffffffffffff81111561378d5761378c612143565b5b6137998b828c01613451565b965050606089015167ffffffffffffffff8111156137ba576137b9612143565b5b6137c68b828c01613451565b955050608089015167ffffffffffffffff8111156137e7576137e6612143565b5b6137f38b828c01613451565b94505060a089015167ffffffffffffffff81111561381457613813612143565b5b6138208b828c01613451565b93505060c089015167ffffffffffffffff81111561384157613840612143565b5b61384d8b828c01613451565b92505060e089015167ffffffffffffffff81111561386e5761386d612143565b5b61387a8b828c01613451565b9150509295985092959890939650565b600067ffffffffffffffff8211156138a5576138a46121c1565b5b602082029050602081019050919050565b60006138c96138c48461388a565b612221565b905080838252602082019050602084028301858111156138ec576138eb61327d565b5b835b81811015613915578061390188826131c4565b8452602084019350506020810190506138ee565b5050509392505050565b600082601f830112613934576139336121a6565b5b81516139448482602086016138b6565b91505092915050565b600080604083850312156139645761396361213e565b5b600083015167ffffffffffffffff81111561398257613981612143565b5b61398e85828601613451565b925050602083015167ffffffffffffffff8111156139af576139ae612143565b5b6139bb8582860161391f565b9150509250929050565b60006060820190506139da6000830186612977565b81810360208301526139ec8185612997565b90508181036040830152613a008184612997565b9050949350505050565b6000604082019050613a1f6000830185612977565b613a2c6020830184612977565b9392505050565b60008060008060008060c08789031215613a5057613a4f61213e565b5b600087015167ffffffffffffffff811115613a6e57613a6d612143565b5b613a7a89828a01613451565b965050602087015167ffffffffffffffff811115613a9b57613a9a612143565b5b613aa789828a01613451565b955050604087015167ffffffffffffffff811115613ac857613ac7612143565b5b613ad489828a01613451565b945050606087015167ffffffffffffffff811115613af557613af4612143565b5b613b0189828a0161391f565b935050608087015167ffffffffffffffff811115613b2257613b21612143565b5b613b2e89828a0161391f565b92505060a087015167ffffffffffffffff811115613b4f57613b4e612143565b5b613b5b89828a0161391f565b9150509295509295509295565b600080600080600060a08688031215613b8457613b8361213e565b5b600086015167ffffffffffffffff811115613ba257613ba1612143565b5b613bae88828901613300565b955050602086015167ffffffffffffffff811115613bcf57613bce612143565b5b613bdb88828901613300565b945050604086015167ffffffffffffffff811115613bfc57613bfb612143565b5b613c0888828901613451565b935050606086015167ffffffffffffffff811115613c2957613c28612143565b5b613c3588828901613451565b925050608086015167ffffffffffffffff811115613c5657613c55612143565b5b613c6288828901613451565b9150509295509295909350565b60008060408385031215613c8657613c8561213e565b5b600083015167ffffffffffffffff811115613ca457613ca3612143565b5b613cb085828601613451565b925050602083015167ffffffffffffffff811115613cd157613cd0612143565b5b613cdd85828601613451565b9150509250929050565b60008060008060008060c08789031215613d0457613d0361213e565b5b6000613d1289828a01613282565b965050602087015167ffffffffffffffff811115613d3357613d32612143565b5b613d3f89828a0161339c565b955050604087015167ffffffffffffffff811115613d6057613d5f612143565b5b613d6c89828a0161339c565b945050606087015167ffffffffffffffff811115613d8d57613d8c612143565b5b613d9989828a0161339c565b935050608087015167ffffffffffffffff811115613dba57613db9612143565b5b613dc689828a0161339c565b92505060a087015167ffffffffffffffff811115613de757613de6612143565b5b613df389828a0161339c565b9150509295509295509295565b6000606082019050613e156000830186612977565b8181036020830152613e278185612997565b9050613e366040830184612404565b949350505050565b600080600060608486031215613e5757613e5661213e565b5b6000613e6586828701613282565b9350506020613e7686828701613282565b925050604084015167ffffffffffffffff811115613e9757613e96612143565b5b613ea38682870161339c565b9150509250925092565b600080600080600080600080610100898b031215613ece57613ecd61213e565b5b6000613edc8b828c01613282565b985050602089015167ffffffffffffffff811115613efd57613efc612143565b5b613f098b828c0161339c565b975050604089015167ffffffffffffffff811115613f2a57613f29612143565b5b613f368b828c0161339c565b965050606089015167ffffffffffffffff811115613f5757613f56612143565b5b613f638b828c0161339c565b955050608089015167ffffffffffffffff811115613f8457613f83612143565b5b613f908b828c0161339c565b94505060a089015167ffffffffffffffff811115613fb157613fb0612143565b5b613fbd8b828c0161339c565b93505060c089015167ffffffffffffffff811115613fde57613fdd612143565b5b613fea8b828c0161339c565b92505060e089015167ffffffffffffffff81111561400b5761400a612143565b5b6140178b828c0161339c565b915050929598509295989093965056fea2646970667358221220a5434cef06a6326df397a92675c87f1ba5b318313c843b672c617c5d209d618064736f6c634300080b0033608060405234801561001057600080fd5b50613170806100206000396000f3fe608060405234801561001057600080fd5b50600436106100cf5760003560e01c8063716b5ab41161008c5780639fea8e10116100665780639fea8e101461026c578063a06b883d14610288578063ac4b2049146102a4578063d64b6913146102d5576100cf565b8063716b5ab4146101dc5780638e8913931461020c578063961ecb5b1461023c576100cf565b80630f53a470146100d4578063174ceeab1461010b5780633aff2cc51461013b5780636098b0dd1461016d57806360ccb2041461018957806367047107146101a5575b600080fd5b6100ee60048036038101906100e99190612432565b6102fa565b604051610102989796959493929190612507565b60405180910390f35b610125600480360381019061012091906126eb565b6108e3565b6040516101329190612760565b60405180910390f35b610155600480360381019061015091906127a7565b6109e1565b604051610164939291906127d4565b60405180910390f35b61018760048036038101906101829190612812565b610ac3565b005b6101a3600480360381019061019e919061295c565b610cc6565b005b6101bf60048036038101906101ba91906127a7565b610de8565b6040516101d3989796959493929190612507565b60405180910390f35b6101f660048036038101906101f191906126eb565b611218565b6040516102039190612760565b60405180910390f35b61022660048036038101906102219190612432565b611316565b6040516102339190612760565b60405180910390f35b61025660048036038101906102519190612432565b6113d3565b6040516102639190612760565b60405180910390f35b610286600480360381019061028191906129cb565b611485565b005b6102a2600480360381019061029d919061295c565b61161e565b005b6102be60048036038101906102b99190612432565b611789565b6040516102cc929190612d0f565b60405180910390f35b6102dd6119f1565b6040516102f1989796959493929190612e04565b60405180910390f35b6000606080606080606080606060005b6000805490508110156108d6578973ffffffffffffffffffffffffffffffffffffffff166000828154811061034257610341612eba565b5b906000526020600020906008020160000160009054906101000a900473ffffffffffffffffffffffffffffffffffffffff1673ffffffffffffffffffffffffffffffffffffffff1614156108c357600081815481106103a4576103a3612eba565b5b906000526020600020906008020160000160009054906101000a900473ffffffffffffffffffffffffffffffffffffffff16600082815481106103ea576103e9612eba565b5b90600052602060002090600802016001016000838154811061040f5761040e612eba565b5b90600052602060002090600802016002016000848154811061043457610433612eba565b5b90600052602060002090600802016003016000858154811061045957610458612eba565b5b90600052602060002090600802016004016000868154811061047e5761047d612eba565b5b9060005260206000209060080201600501600087815481106104a3576104a2612eba565b5b9060005260206000209060080201600601600088815481106104c8576104c7612eba565b5b90600052602060002090600802016007018680546104e590612f18565b80601f016020809104026020016040519081016040528092919081815260200182805461051190612f18565b801561055e5780601f106105335761010080835404028352916020019161055e565b820191906000526020600020905b81548152906001019060200180831161054157829003601f168201915b5050505050965085805461057190612f18565b80601f016020809104026020016040519081016040528092919081815260200182805461059d90612f18565b80156105ea5780601f106105bf576101008083540402835291602001916105ea565b820191906000526020600020905b8154815290600101906020018083116105cd57829003601f168201915b505050505095508480546105fd90612f18565b80601f016020809104026020016040519081016040528092919081815260200182805461062990612f18565b80156106765780601f1061064b57610100808354040283529160200191610676565b820191906000526020600020905b81548152906001019060200180831161065957829003601f168201915b5050505050945083805461068990612f18565b80601f01602080910402602001604051908101604052809291908181526020018280546106b590612f18565b80156107025780601f106106d757610100808354040283529160200191610702565b820191906000526020600020905b8154815290600101906020018083116106e557829003601f168201915b5050505050935082805461071590612f18565b80601f016020809104026020016040519081016040528092919081815260200182805461074190612f18565b801561078e5780601f106107635761010080835404028352916020019161078e565b820191906000526020600020905b81548152906001019060200180831161077157829003601f168201915b505050505092508180546107a190612f18565b80601f01602080910402602001604051908101604052809291908181526020018280546107cd90612f18565b801561081a5780601f106107ef5761010080835404028352916020019161081a565b820191906000526020600020905b8154815290600101906020018083116107fd57829003601f168201915b5050505050915080805461082d90612f18565b80601f016020809104026020016040519081016040528092919081815260200182805461085990612f18565b80156108a65780601f1061087b576101008083540402835291602001916108a6565b820191906000526020600020905b81548152906001019060200180831161088957829003601f168201915b5050505050905098509850985098509850985098509850506108d8565b80806108ce90612f79565b91505061030a565b505b919395975091939597565b600080600090505b6000805490508110156109d9578373ffffffffffffffffffffffffffffffffffffffff166000828154811061092357610922612eba565b5b906000526020600020906008020160000160009054906101000a900473ffffffffffffffffffffffffffffffffffffffff1673ffffffffffffffffffffffffffffffffffffffff161480156109b7575082805190602001206000828154811061098f5761098e612eba565b5b90600052602060002090600802016007016040516109ad9190613061565b6040518091039020145b156109c65760019150506109db565b80806109d190612f79565b9150506108eb565b505b92915050565b600181815481106109f157600080fd5b90600052602060002090600302016000915090508060000160009054906101000a900473ffffffffffffffffffffffffffffffffffffffff1690806001018054610a3a90612f18565b80601f0160208091040260200160405190810160405280929190818152602001828054610a6690612f18565b8015610ab35780601f10610a8857610100808354040283529160200191610ab3565b820191906000526020600020905b815481529060010190602001808311610a9657829003601f168201915b5050505050908060020154905083565b60005b600080549050811015610cbc578773ffffffffffffffffffffffffffffffffffffffff1660008281548110610afe57610afd612eba565b5b906000526020600020906008020160000160009054906101000a900473ffffffffffffffffffffffffffffffffffffffff1673ffffffffffffffffffffffffffffffffffffffff161415610ca9578660008281548110610b6157610b60612eba565b5b90600052602060002090600802016001019080519060200190610b8592919061231d565b508560008281548110610b9b57610b9a612eba565b5b90600052602060002090600802016002019080519060200190610bbf92919061231d565b508460008281548110610bd557610bd4612eba565b5b90600052602060002090600802016003019080519060200190610bf992919061231d565b508360008281548110610c0f57610c0e612eba565b5b90600052602060002090600802016004019080519060200190610c3392919061231d565b508260008281548110610c4957610c48612eba565b5b90600052602060002090600802016005019080519060200190610c6d92919061231d565b508160008281548110610c8357610c82612eba565b5b90600052602060002090600802016006019080519060200190610ca792919061231d565b505b8080610cb490612f79565b915050610ac6565b5050505050505050565b60008110158015610cd8575060648111155b610d17576040517f08c379a0000000000000000000000000000000000000000000000000000000008152600401610d0e906130c4565b60405180910390fd5b600160405180606001604052808573ffffffffffffffffffffffffffffffffffffffff16815260200184815260200183815250908060018154018082558091505060019003906000526020600020906003020160009091909190915060008201518160000160006101000a81548173ffffffffffffffffffffffffffffffffffffffff021916908373ffffffffffffffffffffffffffffffffffffffff1602179055506020820151816001019080519060200190610dd692919061231d565b50604082015181600201555050505050565b60008181548110610df857600080fd5b90600052602060002090600802016000915090508060000160009054906101000a900473ffffffffffffffffffffffffffffffffffffffff1690806001018054610e4190612f18565b80601f0160208091040260200160405190810160405280929190818152602001828054610e6d90612f18565b8015610eba5780601f10610e8f57610100808354040283529160200191610eba565b820191906000526020600020905b815481529060010190602001808311610e9d57829003601f168201915b505050505090806002018054610ecf90612f18565b80601f0160208091040260200160405190810160405280929190818152602001828054610efb90612f18565b8015610f485780601f10610f1d57610100808354040283529160200191610f48565b820191906000526020600020905b815481529060010190602001808311610f2b57829003601f168201915b505050505090806003018054610f5d90612f18565b80601f0160208091040260200160405190810160405280929190818152602001828054610f8990612f18565b8015610fd65780601f10610fab57610100808354040283529160200191610fd6565b820191906000526020600020905b815481529060010190602001808311610fb957829003601f168201915b505050505090806004018054610feb90612f18565b80601f016020809104026020016040519081016040528092919081815260200182805461101790612f18565b80156110645780601f1061103957610100808354040283529160200191611064565b820191906000526020600020905b81548152906001019060200180831161104757829003601f168201915b50505050509080600501805461107990612f18565b80601f01602080910402602001604051908101604052809291908181526020018280546110a590612f18565b80156110f25780601f106110c7576101008083540402835291602001916110f2565b820191906000526020600020905b8154815290600101906020018083116110d557829003601f168201915b50505050509080600601805461110790612f18565b80601f016020809104026020016040519081016040528092919081815260200182805461113390612f18565b80156111805780601f1061115557610100808354040283529160200191611180565b820191906000526020600020905b81548152906001019060200180831161116357829003601f168201915b50505050509080600701805461119590612f18565b80601f01602080910402602001604051908101604052809291908181526020018280546111c190612f18565b801561120e5780601f106111e35761010080835404028352916020019161120e565b820191906000526020600020905b8154815290600101906020018083116111f157829003601f168201915b5050505050905088565b600080600090505b60018054905081101561130e578373ffffffffffffffffffffffffffffffffffffffff166001828154811061125857611257612eba565b5b906000526020600020906003020160000160009054906101000a900473ffffffffffffffffffffffffffffffffffffffff1673ffffffffffffffffffffffffffffffffffffffff161480156112ec57508280519060200120600182815481106112c4576112c3612eba565b5b90600052602060002090600302016001016040516112e29190613061565b6040518091039020145b156112fb576001915050611310565b808061130690612f79565b915050611220565b505b92915050565b6000806000905060005b6001805490508110156113c9578373ffffffffffffffffffffffffffffffffffffffff166001828154811061135857611357612eba565b5b906000526020600020906003020160000160009054906101000a900473ffffffffffffffffffffffffffffffffffffffff1673ffffffffffffffffffffffffffffffffffffffff1614156113b6576001826113b391906130e4565b91505b80806113c190612f79565b915050611320565b5080915050919050565b600080600090505b60008054905081101561147e578273ffffffffffffffffffffffffffffffffffffffff166000828154811061141357611412612eba565b5b906000526020600020906008020160000160009054906101000a900473ffffffffffffffffffffffffffffffffffffffff1673ffffffffffffffffffffffffffffffffffffffff16141561146b576001915050611480565b808061147690612f79565b9150506113db565b505b919050565b60006040518061010001604052808a73ffffffffffffffffffffffffffffffffffffffff16815260200189815260200188815260200187815260200186815260200185815260200184815260200183815250908060018154018082558091505060019003906000526020600020906008020160009091909190915060008201518160000160006101000a81548173ffffffffffffffffffffffffffffffffffffffff021916908373ffffffffffffffffffffffffffffffffffffffff160217905550602082015181600101908051906020019061156392919061231d565b50604082015181600201908051906020019061158092919061231d565b50606082015181600301908051906020019061159d92919061231d565b5060808201518160040190805190602001906115ba92919061231d565b5060a08201518160050190805190602001906115d792919061231d565b5060c08201518160060190805190602001906115f492919061231d565b5060e082015181600701908051906020019061161192919061231d565b5050505050505050505050565b60005b600180549050811015611783578373ffffffffffffffffffffffffffffffffffffffff166001828154811061165957611658612eba565b5b906000526020600020906003020160000160009054906101000a900473ffffffffffffffffffffffffffffffffffffffff1673ffffffffffffffffffffffffffffffffffffffff1614156117705783600182815481106116bc576116bb612eba565b5b906000526020600020906003020160000160006101000a81548173ffffffffffffffffffffffffffffffffffffffff021916908373ffffffffffffffffffffffffffffffffffffffff16021790555082600182815481106117205761171f612eba565b5b9060005260206000209060030201600101908051906020019061174492919061231d565b50816001828154811061175a57611759612eba565b5b9060005260206000209060030201600201819055505b808061177b90612f79565b915050611621565b50505050565b606080600060018054905067ffffffffffffffff8111156117ad576117ac6125c0565b5b6040519080825280602002602001820160405280156117e057816020015b60608152602001906001900390816117cb5790505b509050600060018054905067ffffffffffffffff811115611804576118036125c0565b5b6040519080825280602002602001820160405280156118325781602001602082028036833780820191505090505b50905060005b6001805490508110156119e3578573ffffffffffffffffffffffffffffffffffffffff16600182815481106118705761186f612eba565b5b906000526020600020906003020160000160009054906101000a900473ffffffffffffffffffffffffffffffffffffffff1673ffffffffffffffffffffffffffffffffffffffff1614156119d057600181815481106118d2576118d1612eba565b5b906000526020600020906003020160010180546118ee90612f18565b80601f016020809104026020016040519081016040528092919081815260200182805461191a90612f18565b80156119675780601f1061193c57610100808354040283529160200191611967565b820191906000526020600020905b81548152906001019060200180831161194a57829003601f168201915b505050505083828151811061197f5761197e612eba565b5b60200260200101819052506001818154811061199e5761199d612eba565b5b9060005260206000209060030201600201548282815181106119c3576119c2612eba565b5b6020026020010181815250505b80806119db90612f79565b915050611838565b508181935093505050915091565b6060806060806060806060806000808054905067ffffffffffffffff811115611a1d57611a1c6125c0565b5b604051908082528060200260200182016040528015611a4b5781602001602082028036833780820191505090505b5090506000808054905067ffffffffffffffff811115611a6e57611a6d6125c0565b5b604051908082528060200260200182016040528015611aa157816020015b6060815260200190600190039081611a8c5790505b5090506000808054905067ffffffffffffffff811115611ac457611ac36125c0565b5b604051908082528060200260200182016040528015611af757816020015b6060815260200190600190039081611ae25790505b5090506000808054905067ffffffffffffffff811115611b1a57611b196125c0565b5b604051908082528060200260200182016040528015611b4d57816020015b6060815260200190600190039081611b385790505b5090506000808054905067ffffffffffffffff811115611b7057611b6f6125c0565b5b604051908082528060200260200182016040528015611ba357816020015b6060815260200190600190039081611b8e5790505b5090506000808054905067ffffffffffffffff811115611bc657611bc56125c0565b5b604051908082528060200260200182016040528015611bf957816020015b6060815260200190600190039081611be45790505b5090506000808054905067ffffffffffffffff811115611c1c57611c1b6125c0565b5b604051908082528060200260200182016040528015611c4f57816020015b6060815260200190600190039081611c3a5790505b5090506000808054905067ffffffffffffffff811115611c7257611c716125c0565b5b604051908082528060200260200182016040528015611ca557816020015b6060815260200190600190039081611c905790505b50905060005b6000805490508110156122f25760008181548110611ccc57611ccb612eba565b5b906000526020600020906008020160000160009054906101000a900473ffffffffffffffffffffffffffffffffffffffff16898281518110611d1157611d10612eba565b5b602002602001019073ffffffffffffffffffffffffffffffffffffffff16908173ffffffffffffffffffffffffffffffffffffffff168152505060008181548110611d5f57611d5e612eba565b5b90600052602060002090600802016001018054611d7b90612f18565b80601f0160208091040260200160405190810160405280929190818152602001828054611da790612f18565b8015611df45780601f10611dc957610100808354040283529160200191611df4565b820191906000526020600020905b815481529060010190602001808311611dd757829003601f168201915b5050505050888281518110611e0c57611e0b612eba565b5b602002602001018190525060008181548110611e2b57611e2a612eba565b5b90600052602060002090600802016002018054611e4790612f18565b80601f0160208091040260200160405190810160405280929190818152602001828054611e7390612f18565b8015611ec05780601f10611e9557610100808354040283529160200191611ec0565b820191906000526020600020905b815481529060010190602001808311611ea357829003601f168201915b5050505050878281518110611ed857611ed7612eba565b5b602002602001018190525060008181548110611ef757611ef6612eba565b5b90600052602060002090600802016003018054611f1390612f18565b80601f0160208091040260200160405190810160405280929190818152602001828054611f3f90612f18565b8015611f8c5780601f10611f6157610100808354040283529160200191611f8c565b820191906000526020600020905b815481529060010190602001808311611f6f57829003601f168201915b5050505050868281518110611fa457611fa3612eba565b5b602002602001018190525060008181548110611fc357611fc2612eba565b5b90600052602060002090600802016004018054611fdf90612f18565b80601f016020809104026020016040519081016040528092919081815260200182805461200b90612f18565b80156120585780601f1061202d57610100808354040283529160200191612058565b820191906000526020600020905b81548152906001019060200180831161203b57829003601f168201915b50505050508582815181106120705761206f612eba565b5b60200260200101819052506000818154811061208f5761208e612eba565b5b906000526020600020906008020160050180546120ab90612f18565b80601f01602080910402602001604051908101604052809291908181526020018280546120d790612f18565b80156121245780601f106120f957610100808354040283529160200191612124565b820191906000526020600020905b81548152906001019060200180831161210757829003601f168201915b505050505084828151811061213c5761213b612eba565b5b60200260200101819052506000818154811061215b5761215a612eba565b5b9060005260206000209060080201600601805461217790612f18565b80601f01602080910402602001604051908101604052809291908181526020018280546121a390612f18565b80156121f05780601f106121c5576101008083540402835291602001916121f0565b820191906000526020600020905b8154815290600101906020018083116121d357829003601f168201915b505050505083828151811061220857612207612eba565b5b60200260200101819052506000818154811061222757612226612eba565b5b9060005260206000209060080201600701805461224390612f18565b80601f016020809104026020016040519081016040528092919081815260200182805461226f90612f18565b80156122bc5780601f10612291576101008083540402835291602001916122bc565b820191906000526020600020905b81548152906001019060200180831161229f57829003601f168201915b50505050508282815181106122d4576122d3612eba565b5b602002602001018190525080806122ea90612f79565b915050611cab565b5087878787878787879f509f509f509f509f509f509f509f5050505050505050509091929394959697565b82805461232990612f18565b90600052602060002090601f01602090048101928261234b5760008555612392565b82601f1061236457805160ff1916838001178555612392565b82800160010185558215612392579182015b82811115612391578251825591602001919060010190612376565b5b50905061239f91906123a3565b5090565b5b808211156123bc5760008160009055506001016123a4565b5090565b6000604051905090565b600080fd5b600080fd5b600073ffffffffffffffffffffffffffffffffffffffff82169050919050565b60006123ff826123d4565b9050919050565b61240f816123f4565b811461241a57600080fd5b50565b60008135905061242c81612406565b92915050565b600060208284031215612448576124476123ca565b5b60006124568482850161241d565b91505092915050565b612468816123f4565b82525050565b600081519050919050565b600082825260208201905092915050565b60005b838110156124a857808201518184015260208101905061248d565b838111156124b7576000848401525b50505050565b6000601f19601f8301169050919050565b60006124d98261246e565b6124e38185612479565b93506124f381856020860161248a565b6124fc816124bd565b840191505092915050565b60006101008201905061251d600083018b61245f565b818103602083015261252f818a6124ce565b9050818103604083015261254381896124ce565b9050818103606083015261255781886124ce565b9050818103608083015261256b81876124ce565b905081810360a083015261257f81866124ce565b905081810360c083015261259381856124ce565b905081810360e08301526125a781846124ce565b90509998505050505050505050565b600080fd5b600080fd5b7f4e487b7100000000000000000000000000000000000000000000000000000000600052604160045260246000fd5b6125f8826124bd565b810181811067ffffffffffffffff82111715612617576126166125c0565b5b80604052505050565b600061262a6123c0565b905061263682826125ef565b919050565b600067ffffffffffffffff821115612656576126556125c0565b5b61265f826124bd565b9050602081019050919050565b82818337600083830152505050565b600061268e6126898461263b565b612620565b9050828152602081018484840111156126aa576126a96125bb565b5b6126b584828561266c565b509392505050565b600082601f8301126126d2576126d16125b6565b5b81356126e284826020860161267b565b91505092915050565b60008060408385031215612702576127016123ca565b5b60006127108582860161241d565b925050602083013567ffffffffffffffff811115612731576127306123cf565b5b61273d858286016126bd565b9150509250929050565b6000819050919050565b61275a81612747565b82525050565b60006020820190506127756000830184612751565b92915050565b61278481612747565b811461278f57600080fd5b50565b6000813590506127a18161277b565b92915050565b6000602082840312156127bd576127bc6123ca565b5b60006127cb84828501612792565b91505092915050565b60006060820190506127e9600083018661245f565b81810360208301526127fb81856124ce565b905061280a6040830184612751565b949350505050565b600080600080600080600060e0888a031215612831576128306123ca565b5b600061283f8a828b0161241d565b975050602088013567ffffffffffffffff8111156128605761285f6123cf565b5b61286c8a828b016126bd565b965050604088013567ffffffffffffffff81111561288d5761288c6123cf565b5b6128998a828b016126bd565b955050606088013567ffffffffffffffff8111156128ba576128b96123cf565b5b6128c68a828b016126bd565b945050608088013567ffffffffffffffff8111156128e7576128e66123cf565b5b6128f38a828b016126bd565b93505060a088013567ffffffffffffffff811115612914576129136123cf565b5b6129208a828b016126bd565b92505060c088013567ffffffffffffffff811115612941576129406123cf565b5b61294d8a828b016126bd565b91505092959891949750929550565b600080600060608486031215612975576129746123ca565b5b60006129838682870161241d565b935050602084013567ffffffffffffffff8111156129a4576129a36123cf565b5b6129b0868287016126bd565b92505060406129c186828701612792565b9150509250925092565b600080600080600080600080610100898b0312156129ec576129eb6123ca565b5b60006129fa8b828c0161241d565b985050602089013567ffffffffffffffff811115612a1b57612a1a6123cf565b5b612a278b828c016126bd565b975050604089013567ffffffffffffffff811115612a4857612a476123cf565b5b612a548b828c016126bd565b965050606089013567ffffffffffffffff811115612a7557612a746123cf565b5b612a818b828c016126bd565b955050608089013567ffffffffffffffff811115612aa257612aa16123cf565b5b612aae8b828c016126bd565b94505060a089013567ffffffffffffffff811115612acf57612ace6123cf565b5b612adb8b828c016126bd565b93505060c089013567ffffffffffffffff811115612afc57612afb6123cf565b5b612b088b828c016126bd565b92505060e089013567ffffffffffffffff811115612b2957612b286123cf565b5b612b358b828c016126bd565b9150509295985092959890939650565b600081519050919050565b600082825260208201905092915050565b6000819050602082019050919050565b600082825260208201905092915050565b6000612b8d8261246e565b612b978185612b71565b9350612ba781856020860161248a565b612bb0816124bd565b840191505092915050565b6000612bc78383612b82565b905092915050565b6000602082019050919050565b6000612be782612b45565b612bf18185612b50565b935083602082028501612c0385612b61565b8060005b85811015612c3f5784840389528151612c208582612bbb565b9450612c2b83612bcf565b925060208a01995050600181019050612c07565b50829750879550505050505092915050565b600081519050919050565b600082825260208201905092915050565b6000819050602082019050919050565b612c8681612747565b82525050565b6000612c988383612c7d565b60208301905092915050565b6000602082019050919050565b6000612cbc82612c51565b612cc68185612c5c565b9350612cd183612c6d565b8060005b83811015612d02578151612ce98882612c8c565b9750612cf483612ca4565b925050600181019050612cd5565b5085935050505092915050565b60006040820190508181036000830152612d298185612bdc565b90508181036020830152612d3d8184612cb1565b90509392505050565b600081519050919050565b600082825260208201905092915050565b6000819050602082019050919050565b612d7b816123f4565b82525050565b6000612d8d8383612d72565b60208301905092915050565b6000602082019050919050565b6000612db182612d46565b612dbb8185612d51565b9350612dc683612d62565b8060005b83811015612df7578151612dde8882612d81565b9750612de983612d99565b925050600181019050612dca565b5085935050505092915050565b6000610100820190508181036000830152612e1f818b612da6565b90508181036020830152612e33818a612bdc565b90508181036040830152612e478189612bdc565b90508181036060830152612e5b8188612bdc565b90508181036080830152612e6f8187612bdc565b905081810360a0830152612e838186612bdc565b905081810360c0830152612e978185612bdc565b905081810360e0830152612eab8184612bdc565b90509998505050505050505050565b7f4e487b7100000000000000000000000000000000000000000000000000000000600052603260045260246000fd5b7f4e487b7100000000000000000000000000000000000000000000000000000000600052602260045260246000fd5b60006002820490506001821680612f3057607f821691505b60208210811415612f4457612f43612ee9565b5b50919050565b7f4e487b7100000000000000000000000000000000000000000000000000000000600052601160045260246000fd5b6000612f8482612747565b91507fffffffffffffffffffffffffffffffffffffffffffffffffffffffffffffffff821415612fb757612fb6612f4a565b5b600182019050919050565b600081905092915050565b60008190508160005260206000209050919050565b60008154612fef81612f18565b612ff98186612fc2565b94506001821660008114613014576001811461302557613058565b60ff19831686528186019350613058565b61302e85612fcd565b60005b8381101561305057815481890152600182019150602081019050613031565b838801955050505b50505092915050565b600061306d8284612fe2565b915081905092915050565b7f4c6576656c206f6620736b696c6c20696e636f72726563742e00000000000000600082015250565b60006130ae601983612479565b91506130b982613078565b602082019050919050565b600060208201905081810360008301526130dd816130a1565b9050919050565b60006130ef82612747565b91506130fa83612747565b9250827fffffffffffffffffffffffffffffffffffffffffffffffffffffffffffffffff0382111561312f5761312e612f4a565b5b82820190509291505056fea2646970667358221220089288158dd02f29e5e18680b51ee438273f32ff7570b7d5b3a4686f642d15bf64736f6c634300080b0033608060405234801561001057600080fd5b50612610806100206000396000f3fe608060405234801561001057600080fd5b506004361061007d5760003560e01c8063bf44b3031161005b578063bf44b30314610104578063c6fe410a1461013b578063cfafbc0c1461016b578063e045b710146101905761007d565b80630f53a4701461008257806323b6d993146100b8578063a7dba184146100d4575b600080fd5b61009c60048036038101906100979190611a9d565b6101ac565b6040516100af9796959493929190611b72565b60405180910390f35b6100d260048036038101906100cd9190611d40565b6106e0565b005b6100ee60048036038101906100e99190611e8a565b6108e3565b6040516100fb9190611eff565b60405180910390f35b61011e60048036038101906101199190611f46565b6109e1565b604051610132989796959493929190611f73565b60405180910390f35b61015560048036038101906101509190611a9d565b610e11565b6040516101629190611eff565b60405180910390f35b610173610ec3565b6040516101879897969594939291906121ec565b60405180910390f35b6101aa60048036038101906101a591906122a2565b6117ef565b005b600060608060608060608060005b6000805490508110156106d3578873ffffffffffffffffffffffffffffffffffffffff16600082815481106101f2576101f161241c565b5b906000526020600020906008020160000160009054906101000a900473ffffffffffffffffffffffffffffffffffffffff1673ffffffffffffffffffffffffffffffffffffffff1614156106c057600081815481106102545761025361241c565b5b906000526020600020906008020160000160009054906101000a900473ffffffffffffffffffffffffffffffffffffffff166000828154811061029a5761029961241c565b5b9060005260206000209060080201600101600083815481106102bf576102be61241c565b5b9060005260206000209060080201600201600084815481106102e4576102e361241c565b5b9060005260206000209060080201600301600085815481106103095761030861241c565b5b90600052602060002090600802016004016000868154811061032e5761032d61241c565b5b9060005260206000209060080201600501600087815481106103535761035261241c565b5b90600052602060002090600802016006018580546103709061247a565b80601f016020809104026020016040519081016040528092919081815260200182805461039c9061247a565b80156103e95780601f106103be576101008083540402835291602001916103e9565b820191906000526020600020905b8154815290600101906020018083116103cc57829003601f168201915b505050505095508480546103fc9061247a565b80601f01602080910402602001604051908101604052809291908181526020018280546104289061247a565b80156104755780601f1061044a57610100808354040283529160200191610475565b820191906000526020600020905b81548152906001019060200180831161045857829003601f168201915b505050505094508380546104889061247a565b80601f01602080910402602001604051908101604052809291908181526020018280546104b49061247a565b80156105015780601f106104d657610100808354040283529160200191610501565b820191906000526020600020905b8154815290600101906020018083116104e457829003601f168201915b505050505093508280546105149061247a565b80601f01602080910402602001604051908101604052809291908181526020018280546105409061247a565b801561058d5780601f106105625761010080835404028352916020019161058d565b820191906000526020600020905b81548152906001019060200180831161057057829003601f168201915b505050505092508180546105a09061247a565b80601f01602080910402602001604051908101604052809291908181526020018280546105cc9061247a565b80156106195780601f106105ee57610100808354040283529160200191610619565b820191906000526020600020905b8154815290600101906020018083116105fc57829003601f168201915b5050505050915080805461062c9061247a565b80601f01602080910402602001604051908101604052809291908181526020018280546106589061247a565b80156106a55780601f1061067a576101008083540402835291602001916106a5565b820191906000526020600020905b81548152906001019060200180831161068857829003601f168201915b505050505090509750975097509750975097509750506106d5565b80806106cb906124db565b9150506101ba565b505b919395979092949650565b60005b6000805490508110156108d9578773ffffffffffffffffffffffffffffffffffffffff166000828154811061071b5761071a61241c565b5b906000526020600020906008020160000160009054906101000a900473ffffffffffffffffffffffffffffffffffffffff1673ffffffffffffffffffffffffffffffffffffffff1614156108c657866000828154811061077e5761077d61241c565b5b906000526020600020906008020160010190805190602001906107a2929190611988565b5085600082815481106107b8576107b761241c565b5b906000526020600020906008020160020190805190602001906107dc929190611988565b5084600082815481106107f2576107f161241c565b5b90600052602060002090600802016003019080519060200190610816929190611988565b50836000828154811061082c5761082b61241c565b5b90600052602060002090600802016004019080519060200190610850929190611988565b5082600082815481106108665761086561241c565b5b9060005260206000209060080201600501908051906020019061088a929190611988565b5081600082815481106108a05761089f61241c565b5b906000526020600020906008020160060190805190602001906108c4929190611988565b505b80806108d1906124db565b9150506106e3565b5050505050505050565b600080600090505b6000805490508110156109d9578373ffffffffffffffffffffffffffffffffffffffff16600082815481106109235761092261241c565b5b906000526020600020906008020160000160009054906101000a900473ffffffffffffffffffffffffffffffffffffffff1673ffffffffffffffffffffffffffffffffffffffff161480156109b7575082805190602001206000828154811061098f5761098e61241c565b5b90600052602060002090600802016007016040516109ad91906125c3565b6040518091039020145b156109c65760019150506109db565b80806109d1906124db565b9150506108eb565b505b92915050565b600081815481106109f157600080fd5b90600052602060002090600802016000915090508060000160009054906101000a900473ffffffffffffffffffffffffffffffffffffffff1690806001018054610a3a9061247a565b80601f0160208091040260200160405190810160405280929190818152602001828054610a669061247a565b8015610ab35780601f10610a8857610100808354040283529160200191610ab3565b820191906000526020600020905b815481529060010190602001808311610a9657829003601f168201915b505050505090806002018054610ac89061247a565b80601f0160208091040260200160405190810160405280929190818152602001828054610af49061247a565b8015610b415780601f10610b1657610100808354040283529160200191610b41565b820191906000526020600020905b815481529060010190602001808311610b2457829003601f168201915b505050505090806003018054610b569061247a565b80601f0160208091040260200160405190810160405280929190818152602001828054610b829061247a565b8015610bcf5780601f10610ba457610100808354040283529160200191610bcf565b820191906000526020600020905b815481529060010190602001808311610bb257829003601f168201915b505050505090806004018054610be49061247a565b80601f0160208091040260200160405190810160405280929190818152602001828054610c109061247a565b8015610c5d5780601f10610c3257610100808354040283529160200191610c5d565b820191906000526020600020905b815481529060010190602001808311610c4057829003601f168201915b505050505090806005018054610c729061247a565b80601f0160208091040260200160405190810160405280929190818152602001828054610c9e9061247a565b8015610ceb5780601f10610cc057610100808354040283529160200191610ceb565b820191906000526020600020905b815481529060010190602001808311610cce57829003601f168201915b505050505090806006018054610d009061247a565b80601f0160208091040260200160405190810160405280929190818152602001828054610d2c9061247a565b8015610d795780601f10610d4e57610100808354040283529160200191610d79565b820191906000526020600020905b815481529060010190602001808311610d5c57829003601f168201915b505050505090806007018054610d8e9061247a565b80601f0160208091040260200160405190810160405280929190818152602001828054610dba9061247a565b8015610e075780601f10610ddc57610100808354040283529160200191610e07565b820191906000526020600020905b815481529060010190602001808311610dea57829003601f168201915b5050505050905088565b600080600090505b600080549050811015610ebc578273ffffffffffffffffffffffffffffffffffffffff1660008281548110610e5157610e5061241c565b5b906000526020600020906008020160000160009054906101000a900473ffffffffffffffffffffffffffffffffffffffff1673ffffffffffffffffffffffffffffffffffffffff161415610ea9576001915050610ebe565b8080610eb4906124db565b915050610e19565b505b919050565b6060806060806060806060806000808054905067ffffffffffffffff811115610eef57610eee611c15565b5b604051908082528060200260200182016040528015610f1d5781602001602082028036833780820191505090505b5090506000808054905067ffffffffffffffff811115610f4057610f3f611c15565b5b604051908082528060200260200182016040528015610f7357816020015b6060815260200190600190039081610f5e5790505b5090506000808054905067ffffffffffffffff811115610f9657610f95611c15565b5b604051908082528060200260200182016040528015610fc957816020015b6060815260200190600190039081610fb45790505b5090506000808054905067ffffffffffffffff811115610fec57610feb611c15565b5b60405190808252806020026020018201604052801561101f57816020015b606081526020019060019003908161100a5790505b5090506000808054905067ffffffffffffffff81111561104257611041611c15565b5b60405190808252806020026020018201604052801561107557816020015b60608152602001906001900390816110605790505b5090506000808054905067ffffffffffffffff81111561109857611097611c15565b5b6040519080825280602002602001820160405280156110cb57816020015b60608152602001906001900390816110b65790505b5090506000808054905067ffffffffffffffff8111156110ee576110ed611c15565b5b60405190808252806020026020018201604052801561112157816020015b606081526020019060019003908161110c5790505b5090506000808054905067ffffffffffffffff81111561114457611143611c15565b5b60405190808252806020026020018201604052801561117757816020015b60608152602001906001900390816111625790505b50905060005b6000805490508110156117c4576000818154811061119e5761119d61241c565b5b906000526020600020906008020160000160009054906101000a900473ffffffffffffffffffffffffffffffffffffffff168982815181106111e3576111e261241c565b5b602002602001019073ffffffffffffffffffffffffffffffffffffffff16908173ffffffffffffffffffffffffffffffffffffffff1681525050600081815481106112315761123061241c565b5b9060005260206000209060080201600101805461124d9061247a565b80601f01602080910402602001604051908101604052809291908181526020018280546112799061247a565b80156112c65780601f1061129b576101008083540402835291602001916112c6565b820191906000526020600020905b8154815290600101906020018083116112a957829003601f168201915b50505050508882815181106112de576112dd61241c565b5b6020026020010181905250600081815481106112fd576112fc61241c565b5b906000526020600020906008020160020180546113199061247a565b80601f01602080910402602001604051908101604052809291908181526020018280546113459061247a565b80156113925780601f1061136757610100808354040283529160200191611392565b820191906000526020600020905b81548152906001019060200180831161137557829003601f168201915b50505050508782815181106113aa576113a961241c565b5b6020026020010181905250600081815481106113c9576113c861241c565b5b906000526020600020906008020160030180546113e59061247a565b80601f01602080910402602001604051908101604052809291908181526020018280546114119061247a565b801561145e5780601f106114335761010080835404028352916020019161145e565b820191906000526020600020905b81548152906001019060200180831161144157829003601f168201915b50505050508682815181106114765761147561241c565b5b6020026020010181905250600081815481106114955761149461241c565b5b906000526020600020906008020160040180546114b19061247a565b80601f01602080910402602001604051908101604052809291908181526020018280546114dd9061247a565b801561152a5780601f106114ff5761010080835404028352916020019161152a565b820191906000526020600020905b81548152906001019060200180831161150d57829003601f168201915b50505050508582815181106115425761154161241c565b5b6020026020010181905250600081815481106115615761156061241c565b5b9060005260206000209060080201600501805461157d9061247a565b80601f01602080910402602001604051908101604052809291908181526020018280546115a99061247a565b80156115f65780601f106115cb576101008083540402835291602001916115f6565b820191906000526020600020905b8154815290600101906020018083116115d957829003601f168201915b505050505084828151811061160e5761160d61241c565b5b60200260200101819052506000818154811061162d5761162c61241c565b5b906000526020600020906008020160060180546116499061247a565b80601f01602080910402602001604051908101604052809291908181526020018280546116759061247a565b80156116c25780601f10611697576101008083540402835291602001916116c2565b820191906000526020600020905b8154815290600101906020018083116116a557829003601f168201915b50505050508382815181106116da576116d961241c565b5b6020026020010181905250600081815481106116f9576116f861241c565b5b906000526020600020906008020160070180546117159061247a565b80601f01602080910402602001604051908101604052809291908181526020018280546117419061247a565b801561178e5780601f106117635761010080835404028352916020019161178e565b820191906000526020600020905b81548152906001019060200180831161177157829003601f168201915b50505050508282815181106117a6576117a561241c565b5b602002602001018190525080806117bc906124db565b91505061117d565b5087878787878787879f509f509f509f509f509f509f509f5050505050505050509091929394959697565b60006040518061010001604052808a73ffffffffffffffffffffffffffffffffffffffff16815260200189815260200188815260200187815260200186815260200185815260200184815260200183815250908060018154018082558091505060019003906000526020600020906008020160009091909190915060008201518160000160006101000a81548173ffffffffffffffffffffffffffffffffffffffff021916908373ffffffffffffffffffffffffffffffffffffffff16021790555060208201518160010190805190602001906118cd929190611988565b5060408201518160020190805190602001906118ea929190611988565b506060820151816003019080519060200190611907929190611988565b506080820151816004019080519060200190611924929190611988565b5060a0820151816005019080519060200190611941929190611988565b5060c082015181600601908051906020019061195e929190611988565b5060e082015181600701908051906020019061197b929190611988565b5050505050505050505050565b8280546119949061247a565b90600052602060002090601f0160209004810192826119b657600085556119fd565b82601f106119cf57805160ff19168380011785556119fd565b828001600101855582156119fd579182015b828111156119fc5782518255916020019190600101906119e1565b5b509050611a0a9190611a0e565b5090565b5b80821115611a27576000816000905550600101611a0f565b5090565b6000604051905090565b600080fd5b600080fd5b600073ffffffffffffffffffffffffffffffffffffffff82169050919050565b6000611a6a82611a3f565b9050919050565b611a7a81611a5f565b8114611a8557600080fd5b50565b600081359050611a9781611a71565b92915050565b600060208284031215611ab357611ab2611a35565b5b6000611ac184828501611a88565b91505092915050565b611ad381611a5f565b82525050565b600081519050919050565b600082825260208201905092915050565b60005b83811015611b13578082015181840152602081019050611af8565b83811115611b22576000848401525b50505050565b6000601f19601f8301169050919050565b6000611b4482611ad9565b611b4e8185611ae4565b9350611b5e818560208601611af5565b611b6781611b28565b840191505092915050565b600060e082019050611b87600083018a611aca565b8181036020830152611b998189611b39565b90508181036040830152611bad8188611b39565b90508181036060830152611bc18187611b39565b90508181036080830152611bd58186611b39565b905081810360a0830152611be98185611b39565b905081810360c0830152611bfd8184611b39565b905098975050505050505050565b600080fd5b600080fd5b7f4e487b7100000000000000000000000000000000000000000000000000000000600052604160045260246000fd5b611c4d82611b28565b810181811067ffffffffffffffff82111715611c6c57611c6b611c15565b5b80604052505050565b6000611c7f611a2b565b9050611c8b8282611c44565b919050565b600067ffffffffffffffff821115611cab57611caa611c15565b5b611cb482611b28565b9050602081019050919050565b82818337600083830152505050565b6000611ce3611cde84611c90565b611c75565b905082815260208101848484011115611cff57611cfe611c10565b5b611d0a848285611cc1565b509392505050565b600082601f830112611d2757611d26611c0b565b5b8135611d37848260208601611cd0565b91505092915050565b600080600080600080600060e0888a031215611d5f57611d5e611a35565b5b6000611d6d8a828b01611a88565b975050602088013567ffffffffffffffff811115611d8e57611d8d611a3a565b5b611d9a8a828b01611d12565b965050604088013567ffffffffffffffff811115611dbb57611dba611a3a565b5b611dc78a828b01611d12565b955050606088013567ffffffffffffffff811115611de857611de7611a3a565b5b611df48a828b01611d12565b945050608088013567ffffffffffffffff811115611e1557611e14611a3a565b5b611e218a828b01611d12565b93505060a088013567ffffffffffffffff811115611e4257611e41611a3a565b5b611e4e8a828b01611d12565b92505060c088013567ffffffffffffffff811115611e6f57611e6e611a3a565b5b611e7b8a828b01611d12565b91505092959891949750929550565b60008060408385031215611ea157611ea0611a35565b5b6000611eaf85828601611a88565b925050602083013567ffffffffffffffff811115611ed057611ecf611a3a565b5b611edc85828601611d12565b9150509250929050565b6000819050919050565b611ef981611ee6565b82525050565b6000602082019050611f146000830184611ef0565b92915050565b611f2381611ee6565b8114611f2e57600080fd5b50565b600081359050611f4081611f1a565b92915050565b600060208284031215611f5c57611f5b611a35565b5b6000611f6a84828501611f31565b91505092915050565b600061010082019050611f89600083018b611aca565b8181036020830152611f9b818a611b39565b90508181036040830152611faf8189611b39565b90508181036060830152611fc38188611b39565b90508181036080830152611fd78187611b39565b905081810360a0830152611feb8186611b39565b905081810360c0830152611fff8185611b39565b905081810360e08301526120138184611b39565b90509998505050505050505050565b600081519050919050565b600082825260208201905092915050565b6000819050602082019050919050565b61205781611a5f565b82525050565b6000612069838361204e565b60208301905092915050565b6000602082019050919050565b600061208d82612022565b612097818561202d565b93506120a28361203e565b8060005b838110156120d35781516120ba888261205d565b97506120c583612075565b9250506001810190506120a6565b5085935050505092915050565b600081519050919050565b600082825260208201905092915050565b6000819050602082019050919050565b600082825260208201905092915050565b600061212882611ad9565b612132818561210c565b9350612142818560208601611af5565b61214b81611b28565b840191505092915050565b6000612162838361211d565b905092915050565b6000602082019050919050565b6000612182826120e0565b61218c81856120eb565b93508360208202850161219e856120fc565b8060005b858110156121da57848403895281516121bb8582612156565b94506121c68361216a565b925060208a019950506001810190506121a2565b50829750879550505050505092915050565b6000610100820190508181036000830152612207818b612082565b9050818103602083015261221b818a612177565b9050818103604083015261222f8189612177565b905081810360608301526122438188612177565b905081810360808301526122578187612177565b905081810360a083015261226b8186612177565b905081810360c083015261227f8185612177565b905081810360e08301526122938184612177565b90509998505050505050505050565b600080600080600080600080610100898b0312156122c3576122c2611a35565b5b60006122d18b828c01611a88565b985050602089013567ffffffffffffffff8111156122f2576122f1611a3a565b5b6122fe8b828c01611d12565b975050604089013567ffffffffffffffff81111561231f5761231e611a3a565b5b61232b8b828c01611d12565b965050606089013567ffffffffffffffff81111561234c5761234b611a3a565b5b6123588b828c01611d12565b955050608089013567ffffffffffffffff81111561237957612378611a3a565b5b6123858b828c01611d12565b94505060a089013567ffffffffffffffff8111156123a6576123a5611a3a565b5b6123b28b828c01611d12565b93505060c089013567ffffffffffffffff8111156123d3576123d2611a3a565b5b6123df8b828c01611d12565b92505060e089013567ffffffffffffffff811115612400576123ff611a3a565b5b61240c8b828c01611d12565b9150509295985092959890939650565b7f4e487b7100000000000000000000000000000000000000000000000000000000600052603260045260246000fd5b7f4e487b7100000000000000000000000000000000000000000000000000000000600052602260045260246000fd5b6000600282049050600182168061249257607f821691505b602082108114156124a6576124a561244b565b5b50919050565b7f4e487b7100000000000000000000000000000000000000000000000000000000600052601160045260246000fd5b60006124e682611ee6565b91507fffffffffffffffffffffffffffffffffffffffffffffffffffffffffffffffff821415612519576125186124ac565b5b600182019050919050565b600081905092915050565b60008190508160005260206000209050919050565b600081546125518161247a565b61255b8186612524565b945060018216600081146125765760018114612587576125ba565b60ff198316865281860193506125ba565b6125908561252f565b60005b838110156125b257815481890152600182019150602081019050612593565b838801955050505b50505092915050565b60006125cf8284612544565b91508190509291505056fea2646970667358221220bc344b17e35ab615f1464e8a2f8cd70376b6cfe866c70beed898b4f45670644d64736f6c634300080b0033608060405234801561001057600080fd5b506148ac806100206000396000f3fe608060405234801561001057600080fd5b50600436106101155760003560e01c80637829b41e116100a25780639fa7247a116100715780639fa7247a1461035b578063a9846eb01461038d578063bc72af7d146103c4578063d23a4ee1146103f9578063dd8f3edc1461041557610115565b80637829b41e146102cf57806381d8b62c146102ff57806384ae91311461031b578063895af4f11461033f57610115565b80630f53a470116100e95780630f53a470146101d157806324e6603714610206578063323cc7c51461023657806344fd6e221461026857806349f47a551461029857610115565b8062220cf71461011a5780630265275c1461013657806306ed1e891461016657806309bef62a1461019b575b600080fd5b610134600480360381019061012f91906139d4565b610431565b005b610150600480360381019061014b9190613aca565b61067f565b60405161015d9190613b64565b60405180910390f35b610180600480360381019061017b9190613b7f565b6107c9565b60405161019296959493929190613dc7565b60405180910390f35b6101b560048036038101906101b09190613e52565b610e3c565b6040516101c89796959493929190613ed8565b60405180910390f35b6101eb60048036038101906101e69190613f71565b6111de565b6040516101fd96959493929190613f9e565b60405180910390f35b610220600480360381019061021b9190614022565b61165c565b60405161022d9190613b64565b60405180910390f35b610250600480360381019061024b9190613e52565b61175a565b60405161025f9392919061407e565b60405180910390f35b610282600480360381019061027d9190613f71565b61185c565b60405161028f9190613b64565b60405180910390f35b6102b260048036038101906102ad9190613e52565b61190e565b6040516102c69897969594939291906140bc565b60405180910390f35b6102e960048036038101906102e49190613aca565b611b3e565b6040516102f69190613b64565b60405180910390f35b6103196004803603810190610314919061414f565b611c88565b005b610323611de1565b604051610336979695949392919061427c565b60405180910390f35b61035960048036038101906103549190613b7f565b6125e5565b005b61037560048036038101906103709190613f71565b61273d565b6040516103849392919061431c565b60405180910390f35b6103a760048036038101906103a29190613e52565b612ae0565b6040516103bb9897969594939291906140bc565b60405180910390f35b6103de60048036038101906103d99190613b7f565b612d10565b6040516103f096959493929190613dc7565b60405180910390f35b610413600480360381019061040e91906139d4565b613383565b005b61042f600480360381019061042a9190614368565b6135cf565b005b6000821015801561044457506101ef8211155b610483576040517f08c379a000000000000000000000000000000000000000000000000000000000815260040161047a906144fe565b60405180910390fd5b6000811015801561049657506101ef8111155b6104d5576040517f08c379a00000000000000000000000000000000000000000000000000000000081526004016104cc9061456a565b60405180910390fd5b60026040518061010001604052808973ffffffffffffffffffffffffffffffffffffffff1681526020018873ffffffffffffffffffffffffffffffffffffffff168152602001878152602001868152602001858152602001848152602001838152602001838561054591906145b9565b815250908060018154018082558091505060019003906000526020600020906008020160009091909190915060008201518160000160006101000a81548173ffffffffffffffffffffffffffffffffffffffff021916908373ffffffffffffffffffffffffffffffffffffffff16021790555060208201518160010160006101000a81548173ffffffffffffffffffffffffffffffffffffffff021916908373ffffffffffffffffffffffffffffffffffffffff160217905550604082015181600201908051906020019061061b929190613743565b506060820151816003019080519060200190610638929190613743565b506080820151816004019080519060200190610655929190613743565b5060a0820151816005015560c0820151816006015560e08201518160070155505050505050505050565b600080600090505b6002805490508110156107c0578473ffffffffffffffffffffffffffffffffffffffff16600282815481106106bf576106be61460f565b5b906000526020600020906008020160010160009054906101000a900473ffffffffffffffffffffffffffffffffffffffff1673ffffffffffffffffffffffffffffffffffffffff16148015610753575083805190602001206002828154811061072b5761072a61460f565b5b9060005260206000209060080201600201604051610749919061473e565b6040518091039020145b801561079e57508280519060200120600282815481106107765761077561460f565b5b9060005260206000209060080201600301604051610794919061473e565b6040518091039020145b156107ad5760019150506107c2565b80806107b890614755565b915050610687565b505b9392505050565b606080606080606080600060038054905067ffffffffffffffff8111156107f3576107f2613873565b5b60405190808252806020026020018201604052801561082657816020015b60608152602001906001900390816108115790505b509050600060038054905067ffffffffffffffff81111561084a57610849613873565b5b60405190808252806020026020018201604052801561087d57816020015b60608152602001906001900390816108685790505b509050600060038054905067ffffffffffffffff8111156108a1576108a0613873565b5b6040519080825280602002602001820160405280156108d457816020015b60608152602001906001900390816108bf5790505b509050600060038054905067ffffffffffffffff8111156108f8576108f7613873565b5b6040519080825280602002602001820160405280156109265781602001602082028036833780820191505090505b509050600060038054905067ffffffffffffffff81111561094a57610949613873565b5b6040519080825280602002602001820160405280156109785781602001602082028036833780820191505090505b509050600060038054905067ffffffffffffffff81111561099c5761099b613873565b5b6040519080825280602002602001820160405280156109ca5781602001602082028036833780820191505090505b50905060005b600380549050811015610e19578e73ffffffffffffffffffffffffffffffffffffffff1660028281548110610a0857610a0761460f565b5b906000526020600020906008020160000160009054906101000a900473ffffffffffffffffffffffffffffffffffffffff1673ffffffffffffffffffffffffffffffffffffffff16148015610acd57508d73ffffffffffffffffffffffffffffffffffffffff1660028281548110610a8357610a8261460f565b5b906000526020600020906008020160010160009054906101000a900473ffffffffffffffffffffffffffffffffffffffff1673ffffffffffffffffffffffffffffffffffffffff16145b15610e065760038181548110610ae657610ae561460f565b5b90600052602060002090600802016002018054610b029061466d565b80601f0160208091040260200160405190810160405280929190818152602001828054610b2e9061466d565b8015610b7b5780601f10610b5057610100808354040283529160200191610b7b565b820191906000526020600020905b815481529060010190602001808311610b5e57829003601f168201915b5050505050878281518110610b9357610b9261460f565b5b602002602001018190525060038181548110610bb257610bb161460f565b5b90600052602060002090600802016003018054610bce9061466d565b80601f0160208091040260200160405190810160405280929190818152602001828054610bfa9061466d565b8015610c475780601f10610c1c57610100808354040283529160200191610c47565b820191906000526020600020905b815481529060010190602001808311610c2a57829003601f168201915b5050505050868281518110610c5f57610c5e61460f565b5b602002602001018190525060038181548110610c7e57610c7d61460f565b5b90600052602060002090600802016004018054610c9a9061466d565b80601f0160208091040260200160405190810160405280929190818152602001828054610cc69061466d565b8015610d135780601f10610ce857610100808354040283529160200191610d13565b820191906000526020600020905b815481529060010190602001808311610cf657829003601f168201915b5050505050858281518110610d2b57610d2a61460f565b5b602002602001018190525060038181548110610d4a57610d4961460f565b5b906000526020600020906008020160050154848281518110610d6f57610d6e61460f565b5b60200260200101818152505060038181548110610d8f57610d8e61460f565b5b906000526020600020906008020160060154838281518110610db457610db361460f565b5b60200260200101818152505060038181548110610dd457610dd361460f565b5b906000526020600020906008020160070154828281518110610df957610df861460f565b5b6020026020010181815250505b8080610e1190614755565b9150506109d0565b508585858585859b509b509b509b509b509b505050505050509295509295509295565b60008181548110610e4c57600080fd5b90600052602060002090600702016000915090508060000160009054906101000a900473ffffffffffffffffffffffffffffffffffffffff1690806001018054610e959061466d565b80601f0160208091040260200160405190810160405280929190818152602001828054610ec19061466d565b8015610f0e5780601f10610ee357610100808354040283529160200191610f0e565b820191906000526020600020905b815481529060010190602001808311610ef157829003601f168201915b505050505090806002018054610f239061466d565b80601f0160208091040260200160405190810160405280929190818152602001828054610f4f9061466d565b8015610f9c5780601f10610f7157610100808354040283529160200191610f9c565b820191906000526020600020905b815481529060010190602001808311610f7f57829003601f168201915b505050505090806003018054610fb19061466d565b80601f0160208091040260200160405190810160405280929190818152602001828054610fdd9061466d565b801561102a5780601f10610fff5761010080835404028352916020019161102a565b820191906000526020600020905b81548152906001019060200180831161100d57829003601f168201915b50505050509080600401805461103f9061466d565b80601f016020809104026020016040519081016040528092919081815260200182805461106b9061466d565b80156110b85780601f1061108d576101008083540402835291602001916110b8565b820191906000526020600020905b81548152906001019060200180831161109b57829003601f168201915b5050505050908060050180546110cd9061466d565b80601f01602080910402602001604051908101604052809291908181526020018280546110f99061466d565b80156111465780601f1061111b57610100808354040283529160200191611146565b820191906000526020600020905b81548152906001019060200180831161112957829003601f168201915b50505050509080600601805461115b9061466d565b80601f01602080910402602001604051908101604052809291908181526020018280546111879061466d565b80156111d45780601f106111a9576101008083540402835291602001916111d4565b820191906000526020600020905b8154815290600101906020018083116111b757829003601f168201915b5050505050905087565b6000606080606080606060005b600080549050811015611651578773ffffffffffffffffffffffffffffffffffffffff16600082815481106112235761122261460f565b5b906000526020600020906007020160000160009054906101000a900473ffffffffffffffffffffffffffffffffffffffff1673ffffffffffffffffffffffffffffffffffffffff16141561163e57600081815481106112855761128461460f565b5b906000526020600020906007020160000160009054906101000a900473ffffffffffffffffffffffffffffffffffffffff16600082815481106112cb576112ca61460f565b5b9060005260206000209060070201600101600083815481106112f0576112ef61460f565b5b9060005260206000209060070201600201600084815481106113155761131461460f565b5b90600052602060002090600702016003016000858154811061133a5761133961460f565b5b90600052602060002090600702016004016000868154811061135f5761135e61460f565b5b906000526020600020906007020160050184805461137c9061466d565b80601f01602080910402602001604051908101604052809291908181526020018280546113a89061466d565b80156113f55780601f106113ca576101008083540402835291602001916113f5565b820191906000526020600020905b8154815290600101906020018083116113d857829003601f168201915b505050505094508380546114089061466d565b80601f01602080910402602001604051908101604052809291908181526020018280546114349061466d565b80156114815780601f1061145657610100808354040283529160200191611481565b820191906000526020600020905b81548152906001019060200180831161146457829003601f168201915b505050505093508280546114949061466d565b80601f01602080910402602001604051908101604052809291908181526020018280546114c09061466d565b801561150d5780601f106114e25761010080835404028352916020019161150d565b820191906000526020600020905b8154815290600101906020018083116114f057829003601f168201915b505050505092508180546115209061466d565b80601f016020809104026020016040519081016040528092919081815260200182805461154c9061466d565b80156115995780601f1061156e57610100808354040283529160200191611599565b820191906000526020600020905b81548152906001019060200180831161157c57829003601f168201915b505050505091508080546115ac9061466d565b80601f01602080910402602001604051908101604052809291908181526020018280546115d89061466d565b80156116255780601f106115fa57610100808354040283529160200191611625565b820191906000526020600020905b81548152906001019060200180831161160857829003601f168201915b5050505050905096509650965096509650965050611653565b808061164990614755565b9150506111eb565b505b91939550919395565b600080600090505b600080549050811015611752578373ffffffffffffffffffffffffffffffffffffffff166000828154811061169c5761169b61460f565b5b906000526020600020906007020160000160009054906101000a900473ffffffffffffffffffffffffffffffffffffffff1673ffffffffffffffffffffffffffffffffffffffff1614801561173057508280519060200120600082815481106117085761170761460f565b5b9060005260206000209060070201600601604051611726919061473e565b6040518091039020145b1561173f576001915050611754565b808061174a90614755565b915050611664565b505b92915050565b6001818154811061176a57600080fd5b90600052602060002090600302016000915090508060000160009054906101000a900473ffffffffffffffffffffffffffffffffffffffff16908060010160009054906101000a900473ffffffffffffffffffffffffffffffffffffffff16908060020180546117d99061466d565b80601f01602080910402602001604051908101604052809291908181526020018280546118059061466d565b80156118525780601f1061182757610100808354040283529160200191611852565b820191906000526020600020905b81548152906001019060200180831161183557829003601f168201915b5050505050905083565b600080600090505b600080549050811015611907578273ffffffffffffffffffffffffffffffffffffffff166000828154811061189c5761189b61460f565b5b906000526020600020906007020160000160009054906101000a900473ffffffffffffffffffffffffffffffffffffffff1673ffffffffffffffffffffffffffffffffffffffff1614156118f4576001915050611909565b80806118ff90614755565b915050611864565b505b919050565b6003818154811061191e57600080fd5b90600052602060002090600802016000915090508060000160009054906101000a900473ffffffffffffffffffffffffffffffffffffffff16908060010160009054906101000a900473ffffffffffffffffffffffffffffffffffffffff169080600201805461198d9061466d565b80601f01602080910402602001604051908101604052809291908181526020018280546119b99061466d565b8015611a065780601f106119db57610100808354040283529160200191611a06565b820191906000526020600020905b8154815290600101906020018083116119e957829003601f168201915b505050505090806003018054611a1b9061466d565b80601f0160208091040260200160405190810160405280929190818152602001828054611a479061466d565b8015611a945780601f10611a6957610100808354040283529160200191611a94565b820191906000526020600020905b815481529060010190602001808311611a7757829003601f168201915b505050505090806004018054611aa99061466d565b80601f0160208091040260200160405190810160405280929190818152602001828054611ad59061466d565b8015611b225780601f10611af757610100808354040283529160200191611b22565b820191906000526020600020905b815481529060010190602001808311611b0557829003601f168201915b5050505050908060050154908060060154908060070154905088565b600080600090505b600380549050811015611c7f578473ffffffffffffffffffffffffffffffffffffffff1660028281548110611b7e57611b7d61460f565b5b906000526020600020906008020160010160009054906101000a900473ffffffffffffffffffffffffffffffffffffffff1673ffffffffffffffffffffffffffffffffffffffff16148015611c125750838051906020012060028281548110611bea57611be961460f565b5b9060005260206000209060080201600201604051611c08919061473e565b6040518091039020145b8015611c5d5750828051906020012060028281548110611c3557611c3461460f565b5b9060005260206000209060080201600301604051611c53919061473e565b6040518091039020145b15611c6c576001915050611c81565b8080611c7790614755565b915050611b46565b505b9392505050565b60005b600180549050811015611ddb578373ffffffffffffffffffffffffffffffffffffffff1660018281548110611cc357611cc261460f565b5b906000526020600020906003020160000160009054906101000a900473ffffffffffffffffffffffffffffffffffffffff1673ffffffffffffffffffffffffffffffffffffffff16148015611d8857508273ffffffffffffffffffffffffffffffffffffffff1660018281548110611d3e57611d3d61460f565b5b906000526020600020906003020160010160009054906101000a900473ffffffffffffffffffffffffffffffffffffffff1673ffffffffffffffffffffffffffffffffffffffff16145b15611dc8578160018281548110611da257611da161460f565b5b90600052602060002090600302016002019080519060200190611dc6929190613743565b505b8080611dd390614755565b915050611c8b565b50505050565b60608060608060608060606000808054905067ffffffffffffffff811115611e0c57611e0b613873565b5b604051908082528060200260200182016040528015611e3a5781602001602082028036833780820191505090505b5090506000808054905067ffffffffffffffff811115611e5d57611e5c613873565b5b604051908082528060200260200182016040528015611e9057816020015b6060815260200190600190039081611e7b5790505b5090506000808054905067ffffffffffffffff811115611eb357611eb2613873565b5b604051908082528060200260200182016040528015611ee657816020015b6060815260200190600190039081611ed15790505b5090506000808054905067ffffffffffffffff811115611f0957611f08613873565b5b604051908082528060200260200182016040528015611f3c57816020015b6060815260200190600190039081611f275790505b5090506000808054905067ffffffffffffffff811115611f5f57611f5e613873565b5b604051908082528060200260200182016040528015611f9257816020015b6060815260200190600190039081611f7d5790505b5090506000808054905067ffffffffffffffff811115611fb557611fb4613873565b5b604051908082528060200260200182016040528015611fe857816020015b6060815260200190600190039081611fd35790505b5090506000808054905067ffffffffffffffff81111561200b5761200a613873565b5b60405190808252806020026020018201604052801561203e57816020015b60608152602001906001900390816120295790505b50905060005b6000805490508110156125bf57600081815481106120655761206461460f565b5b906000526020600020906007020160000160009054906101000a900473ffffffffffffffffffffffffffffffffffffffff168882815181106120aa576120a961460f565b5b602002602001019073ffffffffffffffffffffffffffffffffffffffff16908173ffffffffffffffffffffffffffffffffffffffff1681525050600081815481106120f8576120f761460f565b5b906000526020600020906007020160010180546121149061466d565b80601f01602080910402602001604051908101604052809291908181526020018280546121409061466d565b801561218d5780601f106121625761010080835404028352916020019161218d565b820191906000526020600020905b81548152906001019060200180831161217057829003601f168201915b50505050508782815181106121a5576121a461460f565b5b6020026020010181905250600081815481106121c4576121c361460f565b5b906000526020600020906007020160020180546121e09061466d565b80601f016020809104026020016040519081016040528092919081815260200182805461220c9061466d565b80156122595780601f1061222e57610100808354040283529160200191612259565b820191906000526020600020905b81548152906001019060200180831161223c57829003601f168201915b50505050508682815181106122715761227061460f565b5b6020026020010181905250600081815481106122905761228f61460f565b5b906000526020600020906007020160030180546122ac9061466d565b80601f01602080910402602001604051908101604052809291908181526020018280546122d89061466d565b80156123255780601f106122fa57610100808354040283529160200191612325565b820191906000526020600020905b81548152906001019060200180831161230857829003601f168201915b505050505085828151811061233d5761233c61460f565b5b60200260200101819052506000818154811061235c5761235b61460f565b5b906000526020600020906007020160040180546123789061466d565b80601f01602080910402602001604051908101604052809291908181526020018280546123a49061466d565b80156123f15780601f106123c6576101008083540402835291602001916123f1565b820191906000526020600020905b8154815290600101906020018083116123d457829003601f168201915b50505050508482815181106124095761240861460f565b5b6020026020010181905250600081815481106124285761242761460f565b5b906000526020600020906007020160050180546124449061466d565b80601f01602080910402602001604051908101604052809291908181526020018280546124709061466d565b80156124bd5780601f10612492576101008083540402835291602001916124bd565b820191906000526020600020905b8154815290600101906020018083116124a057829003601f168201915b50505050508382815181106124d5576124d461460f565b5b6020026020010181905250600081815481106124f4576124f361460f565b5b906000526020600020906007020160060180546125109061466d565b80601f016020809104026020016040519081016040528092919081815260200182805461253c9061466d565b80156125895780601f1061255e57610100808354040283529160200191612589565b820191906000526020600020905b81548152906001019060200180831161256c57829003601f168201915b50505050508282815181106125a1576125a061460f565b5b602002602001018190525080806125b790614755565b915050612044565b50868686868686869d509d509d509d509d509d509d505050505050505090919293949596565b600160405180606001604052808473ffffffffffffffffffffffffffffffffffffffff1681526020018373ffffffffffffffffffffffffffffffffffffffff1681526020016040518060400160405280600781526020017f57616974696e6700000000000000000000000000000000000000000000000000815250815250908060018154018082558091505060019003906000526020600020906003020160009091909190915060008201518160000160006101000a81548173ffffffffffffffffffffffffffffffffffffffff021916908373ffffffffffffffffffffffffffffffffffffffff16021790555060208201518160010160006101000a81548173ffffffffffffffffffffffffffffffffffffffff021916908373ffffffffffffffffffffffffffffffffffffffff1602179055506040820151816002019080519060200190612736929190613743565b5050505050565b6060806060600060018054905067ffffffffffffffff81111561276357612762613873565b5b6040519080825280602002602001820160405280156127915781602001602082028036833780820191505090505b509050600060018054905067ffffffffffffffff8111156127b5576127b4613873565b5b6040519080825280602002602001820160405280156127e35781602001602082028036833780820191505090505b509050600060018054905067ffffffffffffffff81111561280757612806613873565b5b60405190808252806020026020018201604052801561283a57816020015b60608152602001906001900390816128255790505b50905060005b600180549050811015612acc578773ffffffffffffffffffffffffffffffffffffffff16600182815481106128785761287761460f565b5b906000526020600020906003020160010160009054906101000a900473ffffffffffffffffffffffffffffffffffffffff1673ffffffffffffffffffffffffffffffffffffffff161415612ab957600181815481106128da576128d961460f565b5b906000526020600020906003020160000160009054906101000a900473ffffffffffffffffffffffffffffffffffffffff1684828151811061291f5761291e61460f565b5b602002602001019073ffffffffffffffffffffffffffffffffffffffff16908173ffffffffffffffffffffffffffffffffffffffff16815250506001818154811061296d5761296c61460f565b5b906000526020600020906003020160010160009054906101000a900473ffffffffffffffffffffffffffffffffffffffff168382815181106129b2576129b161460f565b5b602002602001019073ffffffffffffffffffffffffffffffffffffffff16908173ffffffffffffffffffffffffffffffffffffffff168152505060018181548110612a00576129ff61460f565b5b90600052602060002090600302016002018054612a1c9061466d565b80601f0160208091040260200160405190810160405280929190818152602001828054612a489061466d565b8015612a955780601f10612a6a57610100808354040283529160200191612a95565b820191906000526020600020905b815481529060010190602001808311612a7857829003601f168201915b5050505050828281518110612aad57612aac61460f565b5b60200260200101819052505b8080612ac490614755565b915050612840565b508282829550955095505050509193909250565b60028181548110612af057600080fd5b90600052602060002090600802016000915090508060000160009054906101000a900473ffffffffffffffffffffffffffffffffffffffff16908060010160009054906101000a900473ffffffffffffffffffffffffffffffffffffffff1690806002018054612b5f9061466d565b80601f0160208091040260200160405190810160405280929190818152602001828054612b8b9061466d565b8015612bd85780601f10612bad57610100808354040283529160200191612bd8565b820191906000526020600020905b815481529060010190602001808311612bbb57829003601f168201915b505050505090806003018054612bed9061466d565b80601f0160208091040260200160405190810160405280929190818152602001828054612c199061466d565b8015612c665780601f10612c3b57610100808354040283529160200191612c66565b820191906000526020600020905b815481529060010190602001808311612c4957829003601f168201915b505050505090806004018054612c7b9061466d565b80601f0160208091040260200160405190810160405280929190818152602001828054612ca79061466d565b8015612cf45780601f10612cc957610100808354040283529160200191612cf4565b820191906000526020600020905b815481529060010190602001808311612cd757829003601f168201915b5050505050908060050154908060060154908060070154905088565b606080606080606080600060028054905067ffffffffffffffff811115612d3a57612d39613873565b5b604051908082528060200260200182016040528015612d6d57816020015b6060815260200190600190039081612d585790505b509050600060028054905067ffffffffffffffff811115612d9157612d90613873565b5b604051908082528060200260200182016040528015612dc457816020015b6060815260200190600190039081612daf5790505b509050600060028054905067ffffffffffffffff811115612de857612de7613873565b5b604051908082528060200260200182016040528015612e1b57816020015b6060815260200190600190039081612e065790505b509050600060028054905067ffffffffffffffff811115612e3f57612e3e613873565b5b604051908082528060200260200182016040528015612e6d5781602001602082028036833780820191505090505b509050600060028054905067ffffffffffffffff811115612e9157612e90613873565b5b604051908082528060200260200182016040528015612ebf5781602001602082028036833780820191505090505b509050600060028054905067ffffffffffffffff811115612ee357612ee2613873565b5b604051908082528060200260200182016040528015612f115781602001602082028036833780820191505090505b50905060005b600280549050811015613360578e73ffffffffffffffffffffffffffffffffffffffff1660028281548110612f4f57612f4e61460f565b5b906000526020600020906008020160000160009054906101000a900473ffffffffffffffffffffffffffffffffffffffff1673ffffffffffffffffffffffffffffffffffffffff1614801561301457508d73ffffffffffffffffffffffffffffffffffffffff1660028281548110612fca57612fc961460f565b5b906000526020600020906008020160010160009054906101000a900473ffffffffffffffffffffffffffffffffffffffff1673ffffffffffffffffffffffffffffffffffffffff16145b1561334d576002818154811061302d5761302c61460f565b5b906000526020600020906008020160020180546130499061466d565b80601f01602080910402602001604051908101604052809291908181526020018280546130759061466d565b80156130c25780601f10613097576101008083540402835291602001916130c2565b820191906000526020600020905b8154815290600101906020018083116130a557829003601f168201915b50505050508782815181106130da576130d961460f565b5b6020026020010181905250600281815481106130f9576130f861460f565b5b906000526020600020906008020160030180546131159061466d565b80601f01602080910402602001604051908101604052809291908181526020018280546131419061466d565b801561318e5780601f106131635761010080835404028352916020019161318e565b820191906000526020600020905b81548152906001019060200180831161317157829003601f168201915b50505050508682815181106131a6576131a561460f565b5b6020026020010181905250600281815481106131c5576131c461460f565b5b906000526020600020906008020160040180546131e19061466d565b80601f016020809104026020016040519081016040528092919081815260200182805461320d9061466d565b801561325a5780601f1061322f5761010080835404028352916020019161325a565b820191906000526020600020905b81548152906001019060200180831161323d57829003601f168201915b50505050508582815181106132725761327161460f565b5b6020026020010181905250600281815481106132915761329061460f565b5b9060005260206000209060080201600501548482815181106132b6576132b561460f565b5b602002602001018181525050600281815481106132d6576132d561460f565b5b9060005260206000209060080201600601548382815181106132fb576132fa61460f565b5b6020026020010181815250506002818154811061331b5761331a61460f565b5b9060005260206000209060080201600701548282815181106133405761333f61460f565b5b6020026020010181815250505b808061335890614755565b915050612f17565b508585858585859b509b509b509b509b509b505050505050509295509295509295565b60008210158015613395575060c88211155b6133d4576040517f08c379a00000000000000000000000000000000000000000000000000000000081526004016133cb906147ea565b60405180910390fd5b600081101580156133e6575060c88111155b613425576040517f08c379a000000000000000000000000000000000000000000000000000000000815260040161341c90614856565b60405180910390fd5b60036040518061010001604052808973ffffffffffffffffffffffffffffffffffffffff1681526020018873ffffffffffffffffffffffffffffffffffffffff168152602001878152602001868152602001858152602001848152602001838152602001838561349591906145b9565b815250908060018154018082558091505060019003906000526020600020906008020160009091909190915060008201518160000160006101000a81548173ffffffffffffffffffffffffffffffffffffffff021916908373ffffffffffffffffffffffffffffffffffffffff16021790555060208201518160010160006101000a81548173ffffffffffffffffffffffffffffffffffffffff021916908373ffffffffffffffffffffffffffffffffffffffff160217905550604082015181600201908051906020019061356b929190613743565b506060820151816003019080519060200190613588929190613743565b5060808201518160040190805190602001906135a5929190613743565b5060a0820151816005015560c0820151816006015560e08201518160070155505050505050505050565b60006040518060e001604052808973ffffffffffffffffffffffffffffffffffffffff16815260200188815260200187815260200186815260200185815260200184815260200183815250908060018154018082558091505060019003906000526020600020906007020160009091909190915060008201518160000160006101000a81548173ffffffffffffffffffffffffffffffffffffffff021916908373ffffffffffffffffffffffffffffffffffffffff16021790555060208201518160010190805190602001906136a6929190613743565b5060408201518160020190805190602001906136c3929190613743565b5060608201518160030190805190602001906136e0929190613743565b5060808201518160040190805190602001906136fd929190613743565b5060a082015181600501908051906020019061371a929190613743565b5060c0820151816006019080519060200190613737929190613743565b50505050505050505050565b82805461374f9061466d565b90600052602060002090601f01602090048101928261377157600085556137b8565b82601f1061378a57805160ff19168380011785556137b8565b828001600101855582156137b8579182015b828111156137b757825182559160200191906001019061379c565b5b5090506137c591906137c9565b5090565b5b808211156137e25760008160009055506001016137ca565b5090565b6000604051905090565b600080fd5b600080fd5b600073ffffffffffffffffffffffffffffffffffffffff82169050919050565b6000613825826137fa565b9050919050565b6138358161381a565b811461384057600080fd5b50565b6000813590506138528161382c565b92915050565b600080fd5b600080fd5b6000601f19601f8301169050919050565b7f4e487b7100000000000000000000000000000000000000000000000000000000600052604160045260246000fd5b6138ab82613862565b810181811067ffffffffffffffff821117156138ca576138c9613873565b5b80604052505050565b60006138dd6137e6565b90506138e982826138a2565b919050565b600067ffffffffffffffff82111561390957613908613873565b5b61391282613862565b9050602081019050919050565b82818337600083830152505050565b600061394161393c846138ee565b6138d3565b90508281526020810184848401111561395d5761395c61385d565b5b61396884828561391f565b509392505050565b600082601f83011261398557613984613858565b5b813561399584826020860161392e565b91505092915050565b6000819050919050565b6139b18161399e565b81146139bc57600080fd5b50565b6000813590506139ce816139a8565b92915050565b600080600080600080600060e0888a0312156139f3576139f26137f0565b5b6000613a018a828b01613843565b9750506020613a128a828b01613843565b965050604088013567ffffffffffffffff811115613a3357613a326137f5565b5b613a3f8a828b01613970565b955050606088013567ffffffffffffffff811115613a6057613a5f6137f5565b5b613a6c8a828b01613970565b945050608088013567ffffffffffffffff811115613a8d57613a8c6137f5565b5b613a998a828b01613970565b93505060a0613aaa8a828b016139bf565b92505060c0613abb8a828b016139bf565b91505092959891949750929550565b600080600060608486031215613ae357613ae26137f0565b5b6000613af186828701613843565b935050602084013567ffffffffffffffff811115613b1257613b116137f5565b5b613b1e86828701613970565b925050604084013567ffffffffffffffff811115613b3f57613b3e6137f5565b5b613b4b86828701613970565b9150509250925092565b613b5e8161399e565b82525050565b6000602082019050613b796000830184613b55565b92915050565b60008060408385031215613b9657613b956137f0565b5b6000613ba485828601613843565b9250506020613bb585828601613843565b9150509250929050565b600081519050919050565b600082825260208201905092915050565b6000819050602082019050919050565b600081519050919050565b600082825260208201905092915050565b60005b83811015613c25578082015181840152602081019050613c0a565b83811115613c34576000848401525b50505050565b6000613c4582613beb565b613c4f8185613bf6565b9350613c5f818560208601613c07565b613c6881613862565b840191505092915050565b6000613c7f8383613c3a565b905092915050565b6000602082019050919050565b6000613c9f82613bbf565b613ca98185613bca565b935083602082028501613cbb85613bdb565b8060005b85811015613cf75784840389528151613cd88582613c73565b9450613ce383613c87565b925060208a01995050600181019050613cbf565b50829750879550505050505092915050565b600081519050919050565b600082825260208201905092915050565b6000819050602082019050919050565b613d3e8161399e565b82525050565b6000613d508383613d35565b60208301905092915050565b6000602082019050919050565b6000613d7482613d09565b613d7e8185613d14565b9350613d8983613d25565b8060005b83811015613dba578151613da18882613d44565b9750613dac83613d5c565b925050600181019050613d8d565b5085935050505092915050565b600060c0820190508181036000830152613de18189613c94565b90508181036020830152613df58188613c94565b90508181036040830152613e098187613c94565b90508181036060830152613e1d8186613d69565b90508181036080830152613e318185613d69565b905081810360a0830152613e458184613d69565b9050979650505050505050565b600060208284031215613e6857613e676137f0565b5b6000613e76848285016139bf565b91505092915050565b613e888161381a565b82525050565b600082825260208201905092915050565b6000613eaa82613beb565b613eb48185613e8e565b9350613ec4818560208601613c07565b613ecd81613862565b840191505092915050565b600060e082019050613eed600083018a613e7f565b8181036020830152613eff8189613e9f565b90508181036040830152613f138188613e9f565b90508181036060830152613f278187613e9f565b90508181036080830152613f3b8186613e9f565b905081810360a0830152613f4f8185613e9f565b905081810360c0830152613f638184613e9f565b905098975050505050505050565b600060208284031215613f8757613f866137f0565b5b6000613f9584828501613843565b91505092915050565b600060c082019050613fb36000830189613e7f565b8181036020830152613fc58188613e9f565b90508181036040830152613fd98187613e9f565b90508181036060830152613fed8186613e9f565b905081810360808301526140018185613e9f565b905081810360a08301526140158184613e9f565b9050979650505050505050565b60008060408385031215614039576140386137f0565b5b600061404785828601613843565b925050602083013567ffffffffffffffff811115614068576140676137f5565b5b61407485828601613970565b9150509250929050565b60006060820190506140936000830186613e7f565b6140a06020830185613e7f565b81810360408301526140b28184613e9f565b9050949350505050565b6000610100820190506140d2600083018b613e7f565b6140df602083018a613e7f565b81810360408301526140f18189613e9f565b905081810360608301526141058188613e9f565b905081810360808301526141198187613e9f565b905061412860a0830186613b55565b61413560c0830185613b55565b61414260e0830184613b55565b9998505050505050505050565b600080600060608486031215614168576141676137f0565b5b600061417686828701613843565b935050602061418786828701613843565b925050604084013567ffffffffffffffff8111156141a8576141a76137f5565b5b6141b486828701613970565b9150509250925092565b600081519050919050565b600082825260208201905092915050565b6000819050602082019050919050565b6141f38161381a565b82525050565b600061420583836141ea565b60208301905092915050565b6000602082019050919050565b6000614229826141be565b61423381856141c9565b935061423e836141da565b8060005b8381101561426f57815161425688826141f9565b975061426183614211565b925050600181019050614242565b5085935050505092915050565b600060e0820190508181036000830152614296818a61421e565b905081810360208301526142aa8189613c94565b905081810360408301526142be8188613c94565b905081810360608301526142d28187613c94565b905081810360808301526142e68186613c94565b905081810360a08301526142fa8185613c94565b905081810360c083015261430e8184613c94565b905098975050505050505050565b60006060820190508181036000830152614336818661421e565b9050818103602083015261434a818561421e565b9050818103604083015261435e8184613c94565b9050949350505050565b600080600080600080600060e0888a031215614387576143866137f0565b5b60006143958a828b01613843565b975050602088013567ffffffffffffffff8111156143b6576143b56137f5565b5b6143c28a828b01613970565b965050604088013567ffffffffffffffff8111156143e3576143e26137f5565b5b6143ef8a828b01613970565b955050606088013567ffffffffffffffff8111156144105761440f6137f5565b5b61441c8a828b01613970565b945050608088013567ffffffffffffffff81111561443d5761443c6137f5565b5b6144498a828b01613970565b93505060a088013567ffffffffffffffff81111561446a576144696137f5565b5b6144768a828b01613970565b92505060c088013567ffffffffffffffff811115614497576144966137f5565b5b6144a38a828b01613970565b91505092959891949750929550565b7f4c697374656e696e672053636f726520696e636f72726563742e000000000000600082015250565b60006144e8601a83613e8e565b91506144f3826144b2565b602082019050919050565b60006020820190508181036000830152614517816144db565b9050919050565b7f52656164696e672053636f726520696e636f72726563742e0000000000000000600082015250565b6000614554601883613e8e565b915061455f8261451e565b602082019050919050565b6000602082019050818103600083015261458381614547565b9050919050565b7f4e487b7100000000000000000000000000000000000000000000000000000000600052601160045260246000fd5b60006145c48261399e565b91506145cf8361399e565b9250827fffffffffffffffffffffffffffffffffffffffffffffffffffffffffffffffff038211156146045761460361458a565b5b828201905092915050565b7f4e487b7100000000000000000000000000000000000000000000000000000000600052603260045260246000fd5b7f4e487b7100000000000000000000000000000000000000000000000000000000600052602260045260246000fd5b6000600282049050600182168061468557607f821691505b602082108114156146995761469861463e565b5b50919050565b600081905092915050565b60008190508160005260206000209050919050565b600081546146cc8161466d565b6146d6818661469f565b945060018216600081146146f1576001811461470257614735565b60ff19831686528186019350614735565b61470b856146aa565b60005b8381101561472d5781548189015260018201915060208101905061470e565b838801955050505b50505092915050565b600061474a82846146bf565b915081905092915050565b60006147608261399e565b91507fffffffffffffffffffffffffffffffffffffffffffffffffffffffffffffffff8214156147935761479261458a565b5b600182019050919050565b7f537065616b696e672053636f726520696e636f72726563742e00000000000000600082015250565b60006147d4601983613e8e565b91506147df8261479e565b602082019050919050565b60006020820190508181036000830152614803816147c7565b9050919050565b7f57726974696e672053636f726520696e636f72726563742e0000000000000000600082015250565b6000614840601883613e8e565b915061484b8261480a565b602082019050919050565b6000602082019050818103600083015261486f81614833565b905091905056fea2646970667358221220742aedca46e0fc5bc9a7b58190401043527940d09ba727acbe64f581f6b5a9b464736f6c634300080b0033608060405234801561001057600080fd5b506125c9806100206000396000f3fe608060405234801561001057600080fd5b50600436106100b35760003560e01c8063ae8f00d311610071578063ae8f00d3146101ba578063ce1ec5bb146101d6578063cee5c7f314610207578063dc1e475f14610223578063e83ddcea1461023f578063e9daa70a14610271576100b3565b80624e56cf146100b85780630299779f146100d45780630b5e50ed14610104578063381a3bf7146101365780637aedcde51461016a578063844bb4601461019e575b600080fd5b6100d260048036038101906100cd9190611d49565b6102a3565b005b6100ee60048036038101906100e99190611de8565b610448565b6040516100fb9190611e70565b60405180910390f35b61011e60048036038101906101199190611eb7565b6105c3565b60405161012d93929190611f7b565b60405180910390f35b610150600480360381019061014b9190611fc0565b61072d565b6040516101619594939291906121b7565b60405180910390f35b610184600480360381019061017f9190611eb7565b610d1e565b60405161019595949392919061222d565b60405180910390f35b6101b860048036038101906101b39190611d49565b610f3c565b005b6101d460048036038101906101cf9190611de8565b6110e1565b005b6101f060048036038101906101eb9190611fc0565b611205565b6040516101fe929190612295565b60405180910390f35b610221600480360381019061021c91906122cc565b6114f9565b005b61023d60048036038101906102389190611d49565b6115dd565b005b61025960048036038101906102549190611eb7565b61177d565b60405161026893929190612357565b60405180910390f35b61028b60048036038101906102869190612395565b61187f565b60405161029a93929190612357565b60405180910390f35b60005b600080549050811015610441578473ffffffffffffffffffffffffffffffffffffffff16600082815481106102de576102dd6123d5565b5b906000526020600020906005020160000160009054906101000a900473ffffffffffffffffffffffffffffffffffffffff1673ffffffffffffffffffffffffffffffffffffffff161480156103a357508373ffffffffffffffffffffffffffffffffffffffff1660008281548110610359576103586123d5565b5b906000526020600020906005020160010160009054906101000a900473ffffffffffffffffffffffffffffffffffffffff1673ffffffffffffffffffffffffffffffffffffffff16145b80156103ee57508280519060200120600082815481106103c6576103c56123d5565b5b90600052602060002090600502016002016040516103e49190612504565b6040518091039020145b1561042e578160008281548110610408576104076123d5565b5b9060005260206000209060050201600401908051906020019061042c929190611aee565b505b80806104399061254a565b9150506102a6565b5050505050565b600080600090505b6000805490508110156105ba578473ffffffffffffffffffffffffffffffffffffffff1660008281548110610488576104876123d5565b5b906000526020600020906005020160000160009054906101000a900473ffffffffffffffffffffffffffffffffffffffff1673ffffffffffffffffffffffffffffffffffffffff1614801561054d57508373ffffffffffffffffffffffffffffffffffffffff1660008281548110610503576105026123d5565b5b906000526020600020906005020160010160009054906101000a900473ffffffffffffffffffffffffffffffffffffffff1673ffffffffffffffffffffffffffffffffffffffff16145b801561059857508280519060200120600082815481106105705761056f6123d5565b5b906000526020600020906005020160020160405161058e9190612504565b6040518091039020145b156105a75760019150506105bc565b80806105b29061254a565b915050610450565b505b9392505050565b600181815481106105d357600080fd5b90600052602060002090600302016000915090508060000160009054906101000a900473ffffffffffffffffffffffffffffffffffffffff169080600101805461061c90612433565b80601f016020809104026020016040519081016040528092919081815260200182805461064890612433565b80156106955780601f1061066a57610100808354040283529160200191610695565b820191906000526020600020905b81548152906001019060200180831161067857829003601f168201915b5050505050908060020180546106aa90612433565b80601f01602080910402602001604051908101604052809291908181526020018280546106d690612433565b80156107235780601f106106f857610100808354040283529160200191610723565b820191906000526020600020905b81548152906001019060200180831161070657829003601f168201915b5050505050905083565b60608060608060606000808054905067ffffffffffffffff81111561075557610754611c1e565b5b6040519080825280602002602001820160405280156107835781602001602082028036833780820191505090505b5090506000808054905067ffffffffffffffff8111156107a6576107a5611c1e565b5b6040519080825280602002602001820160405280156107d45781602001602082028036833780820191505090505b5090506000808054905067ffffffffffffffff8111156107f7576107f6611c1e565b5b60405190808252806020026020018201604052801561082a57816020015b60608152602001906001900390816108155790505b5090506000808054905067ffffffffffffffff81111561084d5761084c611c1e565b5b60405190808252806020026020018201604052801561088057816020015b606081526020019060019003908161086b5790505b5090506000808054905067ffffffffffffffff8111156108a3576108a2611c1e565b5b6040519080825280602002602001820160405280156108d657816020015b60608152602001906001900390816108c15790505b50905060005b600080549050811015610d00578b73ffffffffffffffffffffffffffffffffffffffff1660008281548110610914576109136123d5565b5b906000526020600020906005020160010160009054906101000a900473ffffffffffffffffffffffffffffffffffffffff1673ffffffffffffffffffffffffffffffffffffffff161415610ced5760008181548110610976576109756123d5565b5b906000526020600020906005020160000160009054906101000a900473ffffffffffffffffffffffffffffffffffffffff168682815181106109bb576109ba6123d5565b5b602002602001019073ffffffffffffffffffffffffffffffffffffffff16908173ffffffffffffffffffffffffffffffffffffffff168152505060008181548110610a0957610a086123d5565b5b906000526020600020906005020160010160009054906101000a900473ffffffffffffffffffffffffffffffffffffffff16858281518110610a4e57610a4d6123d5565b5b602002602001019073ffffffffffffffffffffffffffffffffffffffff16908173ffffffffffffffffffffffffffffffffffffffff168152505060008181548110610a9c57610a9b6123d5565b5b90600052602060002090600502016002018054610ab890612433565b80601f0160208091040260200160405190810160405280929190818152602001828054610ae490612433565b8015610b315780601f10610b0657610100808354040283529160200191610b31565b820191906000526020600020905b815481529060010190602001808311610b1457829003601f168201915b5050505050848281518110610b4957610b486123d5565b5b602002602001018190525060008181548110610b6857610b676123d5565b5b90600052602060002090600502016003018054610b8490612433565b80601f0160208091040260200160405190810160405280929190818152602001828054610bb090612433565b8015610bfd5780601f10610bd257610100808354040283529160200191610bfd565b820191906000526020600020905b815481529060010190602001808311610be057829003601f168201915b5050505050838281518110610c1557610c146123d5565b5b602002602001018190525060008181548110610c3457610c336123d5565b5b90600052602060002090600502016004018054610c5090612433565b80601f0160208091040260200160405190810160405280929190818152602001828054610c7c90612433565b8015610cc95780601f10610c9e57610100808354040283529160200191610cc9565b820191906000526020600020905b815481529060010190602001808311610cac57829003601f168201915b5050505050828281518110610ce157610ce06123d5565b5b60200260200101819052505b8080610cf89061254a565b9150506108dc565b50848484848499509950995099509950505050505091939590929450565b60008181548110610d2e57600080fd5b90600052602060002090600502016000915090508060000160009054906101000a900473ffffffffffffffffffffffffffffffffffffffff16908060010160009054906101000a900473ffffffffffffffffffffffffffffffffffffffff1690806002018054610d9d90612433565b80601f0160208091040260200160405190810160405280929190818152602001828054610dc990612433565b8015610e165780601f10610deb57610100808354040283529160200191610e16565b820191906000526020600020905b815481529060010190602001808311610df957829003601f168201915b505050505090806003018054610e2b90612433565b80601f0160208091040260200160405190810160405280929190818152602001828054610e5790612433565b8015610ea45780601f10610e7957610100808354040283529160200191610ea4565b820191906000526020600020905b815481529060010190602001808311610e8757829003601f168201915b505050505090806004018054610eb990612433565b80601f0160208091040260200160405190810160405280929190818152602001828054610ee590612433565b8015610f325780601f10610f0757610100808354040283529160200191610f32565b820191906000526020600020905b815481529060010190602001808311610f1557829003601f168201915b5050505050905085565b60005b6000805490508110156110da578473ffffffffffffffffffffffffffffffffffffffff1660008281548110610f7757610f766123d5565b5b906000526020600020906005020160000160009054906101000a900473ffffffffffffffffffffffffffffffffffffffff1673ffffffffffffffffffffffffffffffffffffffff1614801561103c57508373ffffffffffffffffffffffffffffffffffffffff1660008281548110610ff257610ff16123d5565b5b906000526020600020906005020160010160009054906101000a900473ffffffffffffffffffffffffffffffffffffffff1673ffffffffffffffffffffffffffffffffffffffff16145b8015611087575082805190602001206000828154811061105f5761105e6123d5565b5b906000526020600020906005020160020160405161107d9190612504565b6040518091039020145b156110c75781600082815481106110a1576110a06123d5565b5b906000526020600020906005020160040190805190602001906110c5929190611aee565b505b80806110d29061254a565b915050610f3f565b5050505050565b600260405180606001604052808573ffffffffffffffffffffffffffffffffffffffff1681526020018473ffffffffffffffffffffffffffffffffffffffff16815260200183815250908060018154018082558091505060019003906000526020600020906003020160009091909190915060008201518160000160006101000a81548173ffffffffffffffffffffffffffffffffffffffff021916908373ffffffffffffffffffffffffffffffffffffffff16021790555060208201518160010160006101000a81548173ffffffffffffffffffffffffffffffffffffffff021916908373ffffffffffffffffffffffffffffffffffffffff16021790555060408201518160020190805190602001906111fd929190611aee565b505050505050565b606080600060018054905067ffffffffffffffff81111561122957611228611c1e565b5b60405190808252806020026020018201604052801561125c57816020015b60608152602001906001900390816112475790505b509050600060018054905067ffffffffffffffff8111156112805761127f611c1e565b5b6040519080825280602002602001820160405280156112b357816020015b606081526020019060019003908161129e5790505b50905060005b6001805490508110156114eb578573ffffffffffffffffffffffffffffffffffffffff16600182815481106112f1576112f06123d5565b5b906000526020600020906003020160000160009054906101000a900473ffffffffffffffffffffffffffffffffffffffff1673ffffffffffffffffffffffffffffffffffffffff1614156114d85760018181548110611353576113526123d5565b5b9060005260206000209060030201600101805461136f90612433565b80601f016020809104026020016040519081016040528092919081815260200182805461139b90612433565b80156113e85780601f106113bd576101008083540402835291602001916113e8565b820191906000526020600020905b8154815290600101906020018083116113cb57829003601f168201915b5050505050838281518110611400576113ff6123d5565b5b60200260200101819052506001818154811061141f5761141e6123d5565b5b9060005260206000209060030201600201805461143b90612433565b80601f016020809104026020016040519081016040528092919081815260200182805461146790612433565b80156114b45780601f10611489576101008083540402835291602001916114b4565b820191906000526020600020905b81548152906001019060200180831161149757829003601f168201915b50505050508282815181106114cc576114cb6123d5565b5b60200260200101819052505b80806114e39061254a565b9150506112b9565b508181935093505050915091565b600160405180606001604052808573ffffffffffffffffffffffffffffffffffffffff16815260200184815260200183815250908060018154018082558091505060019003906000526020600020906003020160009091909190915060008201518160000160006101000a81548173ffffffffffffffffffffffffffffffffffffffff021916908373ffffffffffffffffffffffffffffffffffffffff16021790555060208201518160010190805190602001906115b8929190611aee565b5060408201518160020190805190602001906115d5929190611aee565b505050505050565b60006040518060a001604052808673ffffffffffffffffffffffffffffffffffffffff1681526020018573ffffffffffffffffffffffffffffffffffffffff1681526020018481526020018381526020016040518060400160405280600981526020017f53637265656e696e670000000000000000000000000000000000000000000000815250815250908060018154018082558091505060019003906000526020600020906005020160009091909190915060008201518160000160006101000a81548173ffffffffffffffffffffffffffffffffffffffff021916908373ffffffffffffffffffffffffffffffffffffffff16021790555060208201518160010160006101000a81548173ffffffffffffffffffffffffffffffffffffffff021916908373ffffffffffffffffffffffffffffffffffffffff160217905550604082015181600201908051906020019061173a929190611aee565b506060820151816003019080519060200190611757929190611aee565b506080820151816004019080519060200190611774929190611aee565b50505050505050565b6002818154811061178d57600080fd5b90600052602060002090600302016000915090508060000160009054906101000a900473ffffffffffffffffffffffffffffffffffffffff16908060010160009054906101000a900473ffffffffffffffffffffffffffffffffffffffff16908060020180546117fc90612433565b80601f016020809104026020016040519081016040528092919081815260200182805461182890612433565b80156118755780601f1061184a57610100808354040283529160200191611875565b820191906000526020600020905b81548152906001019060200180831161185857829003601f168201915b5050505050905083565b600080606060005b600280549050811015611ae5578473ffffffffffffffffffffffffffffffffffffffff16600282815481106118bf576118be6123d5565b5b906000526020600020906003020160010160009054906101000a900473ffffffffffffffffffffffffffffffffffffffff1673ffffffffffffffffffffffffffffffffffffffff1614801561198457508573ffffffffffffffffffffffffffffffffffffffff166002828154811061193a576119396123d5565b5b906000526020600020906003020160000160009054906101000a900473ffffffffffffffffffffffffffffffffffffffff1673ffffffffffffffffffffffffffffffffffffffff16145b15611ad2576002818154811061199d5761199c6123d5565b5b906000526020600020906003020160000160009054906101000a900473ffffffffffffffffffffffffffffffffffffffff16600282815481106119e3576119e26123d5565b5b906000526020600020906003020160010160009054906101000a900473ffffffffffffffffffffffffffffffffffffffff1660028381548110611a2957611a286123d5565b5b9060005260206000209060030201600201808054611a4690612433565b80601f0160208091040260200160405190810160405280929190818152602001828054611a7290612433565b8015611abf5780601f10611a9457610100808354040283529160200191611abf565b820191906000526020600020905b815481529060010190602001808311611aa257829003601f168201915b5050505050905093509350935050611ae7565b8080611add9061254a565b915050611887565b505b9250925092565b828054611afa90612433565b90600052602060002090601f016020900481019282611b1c5760008555611b63565b82601f10611b3557805160ff1916838001178555611b63565b82800160010185558215611b63579182015b82811115611b62578251825591602001919060010190611b47565b5b509050611b709190611b74565b5090565b5b80821115611b8d576000816000905550600101611b75565b5090565b6000604051905090565b600080fd5b600080fd5b600073ffffffffffffffffffffffffffffffffffffffff82169050919050565b6000611bd082611ba5565b9050919050565b611be081611bc5565b8114611beb57600080fd5b50565b600081359050611bfd81611bd7565b92915050565b600080fd5b600080fd5b6000601f19601f8301169050919050565b7f4e487b7100000000000000000000000000000000000000000000000000000000600052604160045260246000fd5b611c5682611c0d565b810181811067ffffffffffffffff82111715611c7557611c74611c1e565b5b80604052505050565b6000611c88611b91565b9050611c948282611c4d565b919050565b600067ffffffffffffffff821115611cb457611cb3611c1e565b5b611cbd82611c0d565b9050602081019050919050565b82818337600083830152505050565b6000611cec611ce784611c99565b611c7e565b905082815260208101848484011115611d0857611d07611c08565b5b611d13848285611cca565b509392505050565b600082601f830112611d3057611d2f611c03565b5b8135611d40848260208601611cd9565b91505092915050565b60008060008060808587031215611d6357611d62611b9b565b5b6000611d7187828801611bee565b9450506020611d8287828801611bee565b935050604085013567ffffffffffffffff811115611da357611da2611ba0565b5b611daf87828801611d1b565b925050606085013567ffffffffffffffff811115611dd057611dcf611ba0565b5b611ddc87828801611d1b565b91505092959194509250565b600080600060608486031215611e0157611e00611b9b565b5b6000611e0f86828701611bee565b9350506020611e2086828701611bee565b925050604084013567ffffffffffffffff811115611e4157611e40611ba0565b5b611e4d86828701611d1b565b9150509250925092565b6000819050919050565b611e6a81611e57565b82525050565b6000602082019050611e856000830184611e61565b92915050565b611e9481611e57565b8114611e9f57600080fd5b50565b600081359050611eb181611e8b565b92915050565b600060208284031215611ecd57611ecc611b9b565b5b6000611edb84828501611ea2565b91505092915050565b611eed81611bc5565b82525050565b600081519050919050565b600082825260208201905092915050565b60005b83811015611f2d578082015181840152602081019050611f12565b83811115611f3c576000848401525b50505050565b6000611f4d82611ef3565b611f578185611efe565b9350611f67818560208601611f0f565b611f7081611c0d565b840191505092915050565b6000606082019050611f906000830186611ee4565b8181036020830152611fa28185611f42565b90508181036040830152611fb68184611f42565b9050949350505050565b600060208284031215611fd657611fd5611b9b565b5b6000611fe484828501611bee565b91505092915050565b600081519050919050565b600082825260208201905092915050565b6000819050602082019050919050565b61202281611bc5565b82525050565b60006120348383612019565b60208301905092915050565b6000602082019050919050565b600061205882611fed565b6120628185611ff8565b935061206d83612009565b8060005b8381101561209e5781516120858882612028565b975061209083612040565b925050600181019050612071565b5085935050505092915050565b600081519050919050565b600082825260208201905092915050565b6000819050602082019050919050565b600082825260208201905092915050565b60006120f382611ef3565b6120fd81856120d7565b935061210d818560208601611f0f565b61211681611c0d565b840191505092915050565b600061212d83836120e8565b905092915050565b6000602082019050919050565b600061214d826120ab565b61215781856120b6565b935083602082028501612169856120c7565b8060005b858110156121a557848403895281516121868582612121565b945061219183612135565b925060208a0199505060018101905061216d565b50829750879550505050505092915050565b600060a08201905081810360008301526121d1818861204d565b905081810360208301526121e5818761204d565b905081810360408301526121f98186612142565b9050818103606083015261220d8185612142565b905081810360808301526122218184612142565b90509695505050505050565b600060a0820190506122426000830188611ee4565b61224f6020830187611ee4565b81810360408301526122618186611f42565b905081810360608301526122758185611f42565b905081810360808301526122898184611f42565b90509695505050505050565b600060408201905081810360008301526122af8185612142565b905081810360208301526122c38184612142565b90509392505050565b6000806000606084860312156122e5576122e4611b9b565b5b60006122f386828701611bee565b935050602084013567ffffffffffffffff81111561231457612313611ba0565b5b61232086828701611d1b565b925050604084013567ffffffffffffffff81111561234157612340611ba0565b5b61234d86828701611d1b565b9150509250925092565b600060608201905061236c6000830186611ee4565b6123796020830185611ee4565b818103604083015261238b8184611f42565b9050949350505050565b600080604083850312156123ac576123ab611b9b565b5b60006123ba85828601611bee565b92505060206123cb85828601611bee565b9150509250929050565b7f4e487b7100000000000000000000000000000000000000000000000000000000600052603260045260246000fd5b7f4e487b7100000000000000000000000000000000000000000000000000000000600052602260045260246000fd5b6000600282049050600182168061244b57607f821691505b6020821081141561245f5761245e612404565b5b50919050565b600081905092915050565b60008190508160005260206000209050919050565b6000815461249281612433565b61249c8186612465565b945060018216600081146124b757600181146124c8576124fb565b60ff198316865281860193506124fb565b6124d185612470565b60005b838110156124f3578154818901526001820191506020810190506124d4565b838801955050505b50505092915050565b60006125108284612485565b915081905092915050565b7f4e487b7100000000000000000000000000000000000000000000000000000000600052601160045260246000fd5b600061255582611e57565b91507fffffffffffffffffffffffffffffffffffffffffffffffffffffffffffffffff8214156125885761258761251b565b5b60018201905091905056fea264697066735822122056908e841be55a977520d513ab35d055dc878b61d0c55a1f9481c355ad9035a264736f6c634300080b0033",
  "immutableReferences": {},
  "source": "// SPDX-License-Identifier: MIT\r\npragma solidity >=0.4.22 <0.9.0;\r\n\r\n// Import cc contract cn thit  s dng\r\nimport \"./SmartCV_ListStudent.sol\";\r\nimport \"./SmartCV_ListBusiness.sol\";\r\nimport \"./SmartCV_ListIIG.sol\";\r\nimport \"./SmartCV_Apply.sol\";\r\n\r\n// CV dnh cho sinh vin\r\ncontract StudentBusiness {\r\n\r\n    // Khai contract  import  s dng cc function  contract \r\n    ListStudent listStudent = new ListStudent();\r\n    ListBusiness listBusiness = new ListBusiness();\r\n    ListIIG listIIG = new ListIIG();\r\n    ApplyCV applyCV = new ApplyCV();\r\n\r\n    // ======================================\r\n    // ====== Chc nng cho sinh vin =======\r\n    // ======================================\r\n\r\n    // Chc nng thm thng tin sinh vin (ng k)\r\n    function addStudentProfile (\r\n        address _studentOwner,\r\n        string memory _name,\r\n        string memory _birthDay,\r\n        string memory _professionalTitle,\r\n        string memory _email,\r\n        string memory _github,\r\n        string memory _linkedin,\r\n        string memory _password) public {\r\n            listStudent.addSV(_studentOwner, \r\n                                _name, \r\n                                _birthDay, \r\n                                _professionalTitle, \r\n                                _email, \r\n                                _github, \r\n                                _linkedin, \r\n                                _password);\r\n    }\r\n\r\n    // Chc nng chnh thng tin sinh vin\r\n    function editStudentProfile (\r\n        address _studentOwner,\r\n        string memory _name,\r\n        string memory _birthDay,\r\n        string memory _professionalTitle,\r\n        string memory _email,\r\n        string memory _github,\r\n        string memory _linkedin) public {\r\n            listStudent.editSV(_studentOwner, \r\n                                _name, \r\n                                _birthDay, \r\n                                _professionalTitle, \r\n                                _email, \r\n                                _github, \r\n                                _linkedin);\r\n    }\r\n\r\n    // Chc nng ly thng tin ca sinh vin\r\n    function getStudentProfile(address _studentOwner) public view returns(\r\n        address studentOwner, \r\n        string memory name, \r\n        string memory birthDay, \r\n        string memory professionalTitle, \r\n        string memory email, \r\n        string memory github, \r\n        string memory linkedin,\r\n        string memory password) {\r\n            return listStudent.getProfile(_studentOwner);\r\n    }\r\n\r\n    // Chc nng kim tra ti khon sinh vin c tn ti hay khng? (ng nhp)\r\n    function checkStudentProfile(\r\n        address _studentOwner, \r\n        string memory _password) public view returns(uint x) {\r\n            return listStudent.checkSV(_studentOwner, _password);\r\n    }\r\n\r\n    // Chc nng kim tra a ch sinh vin c tn ti hay khng?\r\n    function checkExistStudent(address _studentOwner) public view returns(uint x) {\r\n            return listStudent.checkExistSV(_studentOwner);\r\n    }\r\n\r\n    // Chc nng thm thng tin k nng ca sinh vin\r\n    function addStudentSkill(\r\n        address _studentOwner,\r\n        string memory _title, \r\n        uint _level) public {\r\n            listStudent.addSkill(_studentOwner, \r\n                                _title, \r\n                                _level);\r\n    }\r\n\r\n    // Chc nng chnh sa thng tin k nng ca sinh vin\r\n    function editStudentSkill(\r\n        address _studentOwner,\r\n        string memory _title, \r\n        uint _level) public {\r\n            listStudent.editSkill(_studentOwner, \r\n                                _title, \r\n                                _level);\r\n    }\r\n\r\n    // Chc nng kim tra k nng ca sinh vin c tn ti hay khng?\r\n    function checkStudentSkill(\r\n        address _studentOwner,\r\n        string memory _title) public view returns(uint x) {\r\n            return listStudent.checkSkill(_studentOwner, _title);\r\n    }\r\n\r\n    // Chc nng kim tra s lng k nng ca sinh vin\r\n    function checkNumStudentSkill(\r\n        address _studentOwner) public view returns(uint x) {\r\n            uint _count = listStudent.checkNumSkill(_studentOwner);\r\n            if(_count > 10){\r\n                return 1;\r\n            }\r\n    }\r\n\r\n    // Chc nng ly thng tin k nng ca sinh vin\r\n    function getStudentSkill(address _studentOwner) public view returns(\r\n        string[] memory titles,\r\n        uint[] memory levels) {\r\n        return listStudent.getSkill(_studentOwner);\r\n    }\r\n\r\n    // Chc nng ly danh sch doanh nghip\r\n    function getListBusiness() public view returns(\r\n        address[] memory,\r\n        string[] memory,\r\n        string[] memory,\r\n        string[] memory,\r\n        string[] memory,\r\n        string[] memory,\r\n        string[] memory,\r\n        string[] memory) {\r\n        return listBusiness.getListDN();\r\n    }\r\n\r\n    // Chc nng ly thng tin tuyn dng ca doanh nghip\r\n    function getRecruit(address _businessOwner) public view returns(\r\n        string[] memory,\r\n        string[] memory) {\r\n        return applyCV.getRecruit(_businessOwner);\r\n    }\r\n\r\n    // Chc nng gi CV ti doanh nghip\r\n    function sendCV(\r\n        address _studentOwner, \r\n        address _businessOwner, \r\n        string memory _jobTitle, \r\n        string memory _coverLetter) public {\r\n            applyCV.addCV(_studentOwner, \r\n                        _businessOwner, \r\n                        _jobTitle, \r\n                        _coverLetter);\r\n    }\r\n\r\n    // Chc nng kim tra sinh vin  np CV cha?\r\n    function checkCV(\r\n        address _studentOwner, \r\n        address _businessOwner, \r\n        string memory _jobTitle) public view returns(uint x) {\r\n            return applyCV.checkCV(_studentOwner, \r\n                                    _businessOwner, \r\n                                    _jobTitle);\r\n    }\r\n\r\n    // Chc nng xem nh gi thc tp ca doanh nghip\r\n    function getReview(\r\n        address _studentOwner, \r\n        address _businessOwner) public view returns(\r\n            address studentOwner, \r\n            address businessOwner, \r\n            string memory content) {\r\n                return applyCV.getReview(_studentOwner, _businessOwner);\r\n    }\r\n\r\n    // ======================================\r\n    // ===== Chc nng cho doanh nghip =====\r\n    // ======================================\r\n\r\n    // Chc nng thm thng tin doanh nghip (ng k)\r\n    function addBusinessProfile(\r\n        address _businessOwner,\r\n        string memory _name,\r\n        string memory _country,\r\n        string memory _facebook,\r\n        string memory _website,\r\n        string memory _linkedin,\r\n        string memory _focusArea,\r\n        string memory _password) public {\r\n            listBusiness.addDN(_businessOwner, \r\n                                _name, \r\n                                _country, \r\n                                _facebook, \r\n                                _website, \r\n                                _linkedin, \r\n                                _focusArea, \r\n                                _password);\r\n    }\r\n\r\n    // Chc nng chnh sa thng tin doanh nghip\r\n    function editBusinessProfile(\r\n        address _businessOwner,\r\n        string memory _name,\r\n        string memory _country,\r\n        string memory _facebook,\r\n        string memory _website,\r\n        string memory _linkedin,\r\n        string memory _focusArea) public {\r\n            listBusiness.editDN(_businessOwner, \r\n                                _name, \r\n                                _country, \r\n                                _facebook, \r\n                                _website, \r\n                                _linkedin, \r\n                                _focusArea);\r\n    }\r\n\r\n    // Chc nng ly thng tin ca doanh nghip\r\n    function getBusinessProfile(address _businessOwner) public view returns(\r\n        address businessOwner, \r\n        string memory name, \r\n        string memory country, \r\n        string memory facebook, \r\n        string memory website, \r\n        string memory linkedin, \r\n        string memory focusArea) {\r\n            return listBusiness.getProfile(_businessOwner);\r\n    }\r\n\r\n    // Chc nng kim tra ti khon doanh nghip c tn ti hay khng? (ng nhp)\r\n    function checkBusinessProfile(\r\n        address _businessOwner, \r\n        string memory _password) public view returns(uint) {\r\n            return listBusiness.checkDN(_businessOwner, _password);\r\n    }\r\n\r\n    // Chc nng kim tra a ch doanh nghip c tn ti hay khng?\r\n    function checkExistBusiness(address _businessOwner) public view returns(uint x) {\r\n            return listBusiness.checkExistDN(_businessOwner);\r\n    }\r\n\r\n    // Chc nng ly danh sch CV  np vo doanh nghip\r\n    function getListCV(address _businessOwner) public view returns(\r\n        address[] memory, \r\n        address[] memory, \r\n        string[] memory, \r\n        string[] memory,\r\n        string[] memory) {\r\n            return applyCV.getCV(_businessOwner);\r\n    }\r\n    \r\n    //Chc nng duyt CV vo vng interview\r\n    function interviewCV(\r\n        address _studentOwner, \r\n        address _businessOwner, \r\n        string memory _jobTitle,\r\n        string memory _statusCV) public {\r\n            applyCV.interviewCV(_studentOwner, \r\n                                _businessOwner, \r\n                                _jobTitle, \r\n                                _statusCV);\r\n    }\r\n\r\n    //Chc nng duyt CV vo vng onboard\r\n    function onboardCV(\r\n        address _studentOwner, \r\n        address _businessOwner, \r\n        string memory _jobTitle,\r\n        string memory _statusCV) public {\r\n            applyCV.onboardCV(_studentOwner, \r\n                            _businessOwner, \r\n                            _jobTitle, \r\n                            _statusCV);\r\n    }\r\n\r\n    // Chc nng thm thng tin tuyn dng ca doanh nghip\r\n    function addRecruit(\r\n        address _businessOwner,\r\n        string memory _jobTitle,\r\n        string memory _jobDescription) public {\r\n            applyCV.addRecruit(_businessOwner, \r\n                                _jobTitle, \r\n                                _jobDescription);\r\n    }\r\n\r\n    // Chc nng nh gi thc tp cho sinh vin\r\n    function sendReview(\r\n        address _studentOwner, \r\n        address _businessOwner, \r\n        string memory _content) public {\r\n            applyCV.addReview(_studentOwner, \r\n                            _businessOwner, \r\n                            _content);\r\n    }\r\n\r\n    // ======================================\r\n    // ========= Chc nng cho IIG ==========\r\n    // ======================================\r\n\r\n    // Chc nng thm thng tin IIG (ng k)\r\n    function addIIGProfile(\r\n        address _iigOwner,\r\n        string memory _name,\r\n        string memory _country,\r\n        string memory _facebook,\r\n        string memory _website,\r\n        string memory _linkedin,\r\n        string memory _password) public {\r\n            listIIG.addIIG(_iigOwner, \r\n                            _name, \r\n                            _country, \r\n                            _facebook, \r\n                            _website, \r\n                            _linkedin, \r\n                            _password);\r\n    }\r\n\r\n    // Chc nng ly thng tin ca IIG\r\n    function getIIGProfile(address _iigOwner) public view returns(\r\n        address iigOwner, \r\n        string memory name, \r\n        string memory country, \r\n        string memory facebook, \r\n        string memory website, \r\n        string memory linkedin) {\r\n            return listIIG.getProfile(_iigOwner);\r\n    }\r\n\r\n    // Chc nng kim tra ti khon IIG c tn ti hay khng? (ng nhp)\r\n    function checkIIGProfile(\r\n        address _iigOwner, \r\n        string memory _password) public view returns(uint) {\r\n            return listIIG.checkIIG(_iigOwner, _password);\r\n    }\r\n\r\n    // Chc nng kim tra a ch IIG c tn ti hay khng?\r\n    function checkExistIIG(address _iigOwner) public view returns(uint x) {\r\n            return listIIG.checkExistIIG(_iigOwner);\r\n    }\r\n\r\n    // Chc nng gi thng tin yu cu chng ch IIG\r\n    function sendIIGRequest (\r\n        address _studentOwner,\r\n        address _iigOwner) public {\r\n            listIIG.addRequest(_studentOwner, \r\n                            _iigOwner);\r\n    }\r\n\r\n    // Chc nng ly danh sch yu cu chng ch IIG\r\n    function getListIIGRequest(address _iigOwner) public view returns(\r\n        address[] memory, \r\n        address[] memory, \r\n        string[] memory) {\r\n            return listIIG.getListRequest(_iigOwner);\r\n    }\r\n\r\n    //Chc nng duyt yu cu chng ch IIG\r\n    function confirmIIGRequest(\r\n        address _studentOwner, \r\n        address _iigOwner, \r\n        string memory _statusRequest) public {\r\n            listIIG.confirmRequest(_studentOwner,\r\n                                    _iigOwner,\r\n                                    _statusRequest);\r\n    }\r\n\r\n    // Chc nng nhp thng tin im thi Listening - Reading\r\n    function addIIGLRResult (\r\n        address _iigOwner,\r\n        address _studentOwner,\r\n        string memory _testDate,\r\n        string memory _shiftTest,\r\n        string memory _expireDate,\r\n        uint _listeningScore,\r\n        uint _readingScore) public {\r\n            listIIG.addLRResult(_iigOwner, \r\n                                _studentOwner, \r\n                                _testDate,\r\n                                _shiftTest, \r\n                                _expireDate, \r\n                                _listeningScore, \r\n                                _readingScore);\r\n    }\r\n\r\n    // Chc nng nhp thng tin im thi Speaking - Writing\r\n    function addIIGSWResult (\r\n        address _iigOwner,\r\n        address _studentOwner,\r\n        string memory _testDate,\r\n        string memory _shiftTest,\r\n        string memory _expireDate,\r\n        uint _speakingScore,\r\n        uint _writingScore) public {\r\n            listIIG.addSWResult(_iigOwner, \r\n                                _studentOwner, \r\n                                _testDate,\r\n                                _shiftTest,\r\n                                _expireDate, \r\n                                _speakingScore, \r\n                                _writingScore);\r\n    }\r\n\r\n    //Chc nng ly thng tin im thi Listening - Reading\r\n    function getIIGLRResult(address _iigOwner, address _studentOwner) public view returns(\r\n        string[] memory,\r\n        string[] memory,\r\n        string[] memory,\r\n        uint[] memory,\r\n        uint[] memory,\r\n        uint[] memory) {\r\n            return listIIG.getListLRResult(_iigOwner, _studentOwner);\r\n        }\r\n\r\n    //Chc nng ly thng tin im thi Speaking - Writing\r\n    function getIIGSWResult(address _iigOwner, address _studentOwner) public view returns(\r\n        string[] memory,\r\n        string[] memory,\r\n        string[] memory,\r\n        uint[] memory,\r\n        uint[] memory,\r\n        uint[] memory) {\r\n            return listIIG.getListSWResult(_iigOwner, _studentOwner);\r\n        }\r\n\r\n    // Chc nng kim tra kt qu ngy thi Listening - Reading ca sinh vin  tn ti hay cha?\r\n    function checkExistIIGLRResult(\r\n        address _studentOwner,\r\n        string memory _testDate,\r\n        string memory _shiftTest) public view returns(uint x) {\r\n            return listIIG.checkExistLRResult(_studentOwner, \r\n                                            _testDate, \r\n                                            _shiftTest);\r\n    }\r\n\r\n    // Chc nng kim tra kt qu ngy thi Speaking - Writing ca sinh vin  tn ti hay cha?\r\n    function checkExistIIGSWResult(\r\n        address _studentOwner,\r\n        string memory _testDate,\r\n        string memory _shiftTest) public view returns(uint x) {\r\n            return listIIG.checkExistSWResult(_studentOwner, \r\n                                            _testDate, \r\n                                            _shiftTest);\r\n    }\r\n}",
  "sourcePath": "C:\\Users\\19520\\Documents\\NCKH_Blockchain\\SolidityProgramming\\ProjectResearch\\SmartCV\\SmartContract\\contracts\\SmartCV_StudentBusiness.sol",
  "compiler": {
    "name": "solc",
    "version": "0.8.11+commit.d7f03943.Emscripten.clang"
  },
  "schemaVersion": "3.4.4",
  "updatedAt": "2022-07-25T12:14:58.020Z",
  "devdoc": {
    "kind": "dev",
    "methods": {},
    "version": 1
  },
  "userdoc": {
    "kind": "user",
    "methods": {},
    "version": 1
  }
}