{
  "contractName": "StudentBusiness",
  "abi": [
    {
      "inputs": [
        {
          "internalType": "address",
          "name": "_studentOwner",
          "type": "address"
        },
        {
          "internalType": "string",
          "name": "_name",
          "type": "string"
        },
        {
          "internalType": "string",
          "name": "_phoneNumber",
          "type": "string"
        },
        {
          "internalType": "string",
          "name": "_professionalTitle",
          "type": "string"
        },
        {
          "internalType": "string",
          "name": "_email",
          "type": "string"
        },
        {
          "internalType": "string",
          "name": "_github",
          "type": "string"
        },
        {
          "internalType": "string",
          "name": "_linkedin",
          "type": "string"
        },
        {
          "internalType": "string",
          "name": "_sourceImage",
          "type": "string"
        },
        {
          "internalType": "string",
          "name": "_password",
          "type": "string"
        }
      ],
      "name": "addStudentProfile",
      "outputs": [],
      "stateMutability": "nonpayable",
      "type": "function"
    },
    {
      "inputs": [
        {
          "internalType": "address",
          "name": "_studentOwner",
          "type": "address"
        },
        {
          "internalType": "string",
          "name": "_name",
          "type": "string"
        },
        {
          "internalType": "string",
          "name": "_phoneNumber",
          "type": "string"
        },
        {
          "internalType": "string",
          "name": "_professionalTitle",
          "type": "string"
        },
        {
          "internalType": "string",
          "name": "_email",
          "type": "string"
        },
        {
          "internalType": "string",
          "name": "_github",
          "type": "string"
        },
        {
          "internalType": "string",
          "name": "_linkedin",
          "type": "string"
        },
        {
          "internalType": "string",
          "name": "_sourceImage",
          "type": "string"
        }
      ],
      "name": "editStudentProfile",
      "outputs": [],
      "stateMutability": "nonpayable",
      "type": "function"
    },
    {
      "inputs": [
        {
          "internalType": "address",
          "name": "_studentOwner",
          "type": "address"
        }
      ],
      "name": "getStudentProfile",
      "outputs": [
        {
          "internalType": "address",
          "name": "studentOwner",
          "type": "address"
        },
        {
          "internalType": "string",
          "name": "name",
          "type": "string"
        },
        {
          "internalType": "string",
          "name": "phoneNumber",
          "type": "string"
        },
        {
          "internalType": "string",
          "name": "professionalTitle",
          "type": "string"
        },
        {
          "internalType": "string",
          "name": "email",
          "type": "string"
        },
        {
          "internalType": "string",
          "name": "github",
          "type": "string"
        },
        {
          "internalType": "string",
          "name": "linkedin",
          "type": "string"
        },
        {
          "internalType": "string",
          "name": "sourceImage",
          "type": "string"
        },
        {
          "internalType": "string",
          "name": "password",
          "type": "string"
        }
      ],
      "stateMutability": "view",
      "type": "function"
    },
    {
      "inputs": [
        {
          "internalType": "address",
          "name": "_studentOwner",
          "type": "address"
        },
        {
          "internalType": "string",
          "name": "_password",
          "type": "string"
        }
      ],
      "name": "checkStudentProfile",
      "outputs": [
        {
          "internalType": "uint256",
          "name": "x",
          "type": "uint256"
        }
      ],
      "stateMutability": "view",
      "type": "function"
    },
    {
      "inputs": [
        {
          "internalType": "address",
          "name": "_studentOwner",
          "type": "address"
        }
      ],
      "name": "checkExistStudent",
      "outputs": [
        {
          "internalType": "uint256",
          "name": "x",
          "type": "uint256"
        }
      ],
      "stateMutability": "view",
      "type": "function"
    },
    {
      "inputs": [
        {
          "internalType": "address",
          "name": "_studentOwner",
          "type": "address"
        },
        {
          "internalType": "string",
          "name": "_title",
          "type": "string"
        },
        {
          "internalType": "uint256",
          "name": "_level",
          "type": "uint256"
        }
      ],
      "name": "addStudentSkill",
      "outputs": [],
      "stateMutability": "nonpayable",
      "type": "function"
    },
    {
      "inputs": [
        {
          "internalType": "address",
          "name": "_studentOwner",
          "type": "address"
        },
        {
          "internalType": "string",
          "name": "_title",
          "type": "string"
        },
        {
          "internalType": "uint256",
          "name": "_level",
          "type": "uint256"
        }
      ],
      "name": "editStudentSkill",
      "outputs": [],
      "stateMutability": "nonpayable",
      "type": "function"
    },
    {
      "inputs": [
        {
          "internalType": "address",
          "name": "_studentOwner",
          "type": "address"
        },
        {
          "internalType": "string",
          "name": "_title",
          "type": "string"
        }
      ],
      "name": "checkStudentSkill",
      "outputs": [
        {
          "internalType": "uint256",
          "name": "x",
          "type": "uint256"
        }
      ],
      "stateMutability": "view",
      "type": "function"
    },
    {
      "inputs": [
        {
          "internalType": "address",
          "name": "_studentOwner",
          "type": "address"
        }
      ],
      "name": "checkNumStudentSkill",
      "outputs": [
        {
          "internalType": "uint256",
          "name": "x",
          "type": "uint256"
        }
      ],
      "stateMutability": "view",
      "type": "function"
    },
    {
      "inputs": [
        {
          "internalType": "address",
          "name": "_studentOwner",
          "type": "address"
        }
      ],
      "name": "getStudentSkill",
      "outputs": [
        {
          "internalType": "string[]",
          "name": "titles",
          "type": "string[]"
        },
        {
          "internalType": "uint256[]",
          "name": "levels",
          "type": "uint256[]"
        }
      ],
      "stateMutability": "view",
      "type": "function"
    },
    {
      "inputs": [
        {
          "internalType": "address",
          "name": "_studentOwner",
          "type": "address"
        },
        {
          "internalType": "string",
          "name": "_institution",
          "type": "string"
        },
        {
          "internalType": "string",
          "name": "_focusArea",
          "type": "string"
        },
        {
          "internalType": "string",
          "name": "_startTime",
          "type": "string"
        },
        {
          "internalType": "string",
          "name": "_finishTime",
          "type": "string"
        },
        {
          "internalType": "string",
          "name": "_gpa",
          "type": "string"
        }
      ],
      "name": "addStudentEducation",
      "outputs": [],
      "stateMutability": "nonpayable",
      "type": "function"
    },
    {
      "inputs": [
        {
          "internalType": "address",
          "name": "_studentOwner",
          "type": "address"
        },
        {
          "internalType": "string",
          "name": "_institution",
          "type": "string"
        },
        {
          "internalType": "string",
          "name": "_focusArea",
          "type": "string"
        },
        {
          "internalType": "string",
          "name": "_startTime",
          "type": "string"
        },
        {
          "internalType": "string",
          "name": "_finishTime",
          "type": "string"
        },
        {
          "internalType": "string",
          "name": "_gpa",
          "type": "string"
        }
      ],
      "name": "editStudentEducation",
      "outputs": [],
      "stateMutability": "nonpayable",
      "type": "function"
    },
    {
      "inputs": [
        {
          "internalType": "address",
          "name": "_studentOwner",
          "type": "address"
        },
        {
          "internalType": "string",
          "name": "_institution",
          "type": "string"
        },
        {
          "internalType": "string",
          "name": "_focusArea",
          "type": "string"
        }
      ],
      "name": "checkStudentEducation",
      "outputs": [
        {
          "internalType": "uint256",
          "name": "x",
          "type": "uint256"
        }
      ],
      "stateMutability": "view",
      "type": "function"
    },
    {
      "inputs": [
        {
          "internalType": "address",
          "name": "_studentOwner",
          "type": "address"
        }
      ],
      "name": "getStudentEducation",
      "outputs": [
        {
          "internalType": "string[]",
          "name": "",
          "type": "string[]"
        },
        {
          "internalType": "string[]",
          "name": "",
          "type": "string[]"
        },
        {
          "internalType": "string[]",
          "name": "",
          "type": "string[]"
        },
        {
          "internalType": "string[]",
          "name": "",
          "type": "string[]"
        },
        {
          "internalType": "string[]",
          "name": "",
          "type": "string[]"
        }
      ],
      "stateMutability": "view",
      "type": "function"
    },
    {
      "inputs": [],
      "name": "getListBusiness",
      "outputs": [
        {
          "internalType": "address[]",
          "name": "",
          "type": "address[]"
        },
        {
          "internalType": "string[]",
          "name": "",
          "type": "string[]"
        },
        {
          "internalType": "string[]",
          "name": "",
          "type": "string[]"
        },
        {
          "internalType": "string[]",
          "name": "",
          "type": "string[]"
        },
        {
          "internalType": "string[]",
          "name": "",
          "type": "string[]"
        },
        {
          "internalType": "string[]",
          "name": "",
          "type": "string[]"
        },
        {
          "internalType": "string[]",
          "name": "",
          "type": "string[]"
        },
        {
          "internalType": "string[]",
          "name": "",
          "type": "string[]"
        }
      ],
      "stateMutability": "view",
      "type": "function"
    },
    {
      "inputs": [
        {
          "internalType": "address",
          "name": "_businessOwner",
          "type": "address"
        }
      ],
      "name": "getRecruit",
      "outputs": [
        {
          "internalType": "bytes32[]",
          "name": "",
          "type": "bytes32[]"
        },
        {
          "internalType": "string[]",
          "name": "",
          "type": "string[]"
        },
        {
          "internalType": "string[]",
          "name": "",
          "type": "string[]"
        },
        {
          "internalType": "string[]",
          "name": "",
          "type": "string[]"
        },
        {
          "internalType": "uint256[]",
          "name": "",
          "type": "uint256[]"
        }
      ],
      "stateMutability": "view",
      "type": "function"
    },
    {
      "inputs": [
        {
          "internalType": "address",
          "name": "_studentOwner",
          "type": "address"
        },
        {
          "internalType": "address",
          "name": "_businessOwner",
          "type": "address"
        },
        {
          "internalType": "string",
          "name": "_jobTitle",
          "type": "string"
        },
        {
          "internalType": "string",
          "name": "_coverLetter",
          "type": "string"
        }
      ],
      "name": "sendCV",
      "outputs": [],
      "stateMutability": "nonpayable",
      "type": "function"
    },
    {
      "inputs": [
        {
          "internalType": "address",
          "name": "_studentOwner",
          "type": "address"
        },
        {
          "internalType": "address",
          "name": "_businessOwner",
          "type": "address"
        },
        {
          "internalType": "string",
          "name": "_jobTitle",
          "type": "string"
        }
      ],
      "name": "checkCV",
      "outputs": [
        {
          "internalType": "uint256",
          "name": "x",
          "type": "uint256"
        }
      ],
      "stateMutability": "view",
      "type": "function"
    },
    {
      "inputs": [
        {
          "internalType": "address",
          "name": "_studentOwner",
          "type": "address"
        },
        {
          "internalType": "address",
          "name": "_businessOwner",
          "type": "address"
        }
      ],
      "name": "getReview",
      "outputs": [
        {
          "internalType": "address",
          "name": "studentOwner",
          "type": "address"
        },
        {
          "internalType": "address",
          "name": "businessOwner",
          "type": "address"
        },
        {
          "internalType": "string",
          "name": "content",
          "type": "string"
        }
      ],
      "stateMutability": "view",
      "type": "function"
    },
    {
      "inputs": [
        {
          "internalType": "address",
          "name": "_businessOwner",
          "type": "address"
        },
        {
          "internalType": "string",
          "name": "_name",
          "type": "string"
        },
        {
          "internalType": "string",
          "name": "_country",
          "type": "string"
        },
        {
          "internalType": "string",
          "name": "_facebook",
          "type": "string"
        },
        {
          "internalType": "string",
          "name": "_website",
          "type": "string"
        },
        {
          "internalType": "string",
          "name": "_linkedin",
          "type": "string"
        },
        {
          "internalType": "string",
          "name": "_focusArea",
          "type": "string"
        },
        {
          "internalType": "string",
          "name": "_password",
          "type": "string"
        }
      ],
      "name": "addBusinessProfile",
      "outputs": [],
      "stateMutability": "nonpayable",
      "type": "function"
    },
    {
      "inputs": [
        {
          "internalType": "address",
          "name": "_businessOwner",
          "type": "address"
        },
        {
          "internalType": "string",
          "name": "_name",
          "type": "string"
        },
        {
          "internalType": "string",
          "name": "_country",
          "type": "string"
        },
        {
          "internalType": "string",
          "name": "_facebook",
          "type": "string"
        },
        {
          "internalType": "string",
          "name": "_website",
          "type": "string"
        },
        {
          "internalType": "string",
          "name": "_linkedin",
          "type": "string"
        },
        {
          "internalType": "string",
          "name": "_focusArea",
          "type": "string"
        }
      ],
      "name": "editBusinessProfile",
      "outputs": [],
      "stateMutability": "nonpayable",
      "type": "function"
    },
    {
      "inputs": [
        {
          "internalType": "address",
          "name": "_businessOwner",
          "type": "address"
        }
      ],
      "name": "getBusinessProfile",
      "outputs": [
        {
          "internalType": "address",
          "name": "businessOwner",
          "type": "address"
        },
        {
          "internalType": "string",
          "name": "name",
          "type": "string"
        },
        {
          "internalType": "string",
          "name": "country",
          "type": "string"
        },
        {
          "internalType": "string",
          "name": "facebook",
          "type": "string"
        },
        {
          "internalType": "string",
          "name": "website",
          "type": "string"
        },
        {
          "internalType": "string",
          "name": "linkedin",
          "type": "string"
        },
        {
          "internalType": "string",
          "name": "focusArea",
          "type": "string"
        }
      ],
      "stateMutability": "view",
      "type": "function"
    },
    {
      "inputs": [
        {
          "internalType": "address",
          "name": "_businessOwner",
          "type": "address"
        },
        {
          "internalType": "string",
          "name": "_password",
          "type": "string"
        }
      ],
      "name": "checkBusinessProfile",
      "outputs": [
        {
          "internalType": "uint256",
          "name": "",
          "type": "uint256"
        }
      ],
      "stateMutability": "view",
      "type": "function"
    },
    {
      "inputs": [
        {
          "internalType": "address",
          "name": "_businessOwner",
          "type": "address"
        }
      ],
      "name": "checkExistBusiness",
      "outputs": [
        {
          "internalType": "uint256",
          "name": "x",
          "type": "uint256"
        }
      ],
      "stateMutability": "view",
      "type": "function"
    },
    {
      "inputs": [
        {
          "internalType": "address",
          "name": "_businessOwner",
          "type": "address"
        }
      ],
      "name": "getListCV",
      "outputs": [
        {
          "internalType": "address[]",
          "name": "",
          "type": "address[]"
        },
        {
          "internalType": "address[]",
          "name": "",
          "type": "address[]"
        },
        {
          "internalType": "string[]",
          "name": "",
          "type": "string[]"
        },
        {
          "internalType": "string[]",
          "name": "",
          "type": "string[]"
        },
        {
          "internalType": "string[]",
          "name": "",
          "type": "string[]"
        }
      ],
      "stateMutability": "view",
      "type": "function"
    },
    {
      "inputs": [
        {
          "internalType": "address",
          "name": "_studentOwner",
          "type": "address"
        },
        {
          "internalType": "address",
          "name": "_businessOwner",
          "type": "address"
        },
        {
          "internalType": "string",
          "name": "_jobTitle",
          "type": "string"
        },
        {
          "internalType": "string",
          "name": "_statusCV",
          "type": "string"
        }
      ],
      "name": "interviewCV",
      "outputs": [],
      "stateMutability": "nonpayable",
      "type": "function"
    },
    {
      "inputs": [
        {
          "internalType": "address",
          "name": "_studentOwner",
          "type": "address"
        },
        {
          "internalType": "address",
          "name": "_businessOwner",
          "type": "address"
        },
        {
          "internalType": "string",
          "name": "_jobTitle",
          "type": "string"
        },
        {
          "internalType": "string",
          "name": "_statusCV",
          "type": "string"
        }
      ],
      "name": "onboardCV",
      "outputs": [],
      "stateMutability": "nonpayable",
      "type": "function"
    },
    {
      "inputs": [
        {
          "internalType": "address",
          "name": "_businessOwner",
          "type": "address"
        },
        {
          "internalType": "string",
          "name": "_jobTitle",
          "type": "string"
        },
        {
          "internalType": "string",
          "name": "_jobDescription",
          "type": "string"
        },
        {
          "internalType": "string",
          "name": "_recruitDate",
          "type": "string"
        },
        {
          "internalType": "uint256",
          "name": "_amount",
          "type": "uint256"
        }
      ],
      "name": "addRecruit",
      "outputs": [],
      "stateMutability": "nonpayable",
      "type": "function"
    },
    {
      "inputs": [
        {
          "internalType": "address",
          "name": "_businessOwner",
          "type": "address"
        },
        {
          "internalType": "string",
          "name": "_jobTitle",
          "type": "string"
        },
        {
          "internalType": "string",
          "name": "_recruitDate",
          "type": "string"
        }
      ],
      "name": "checkAmountBusinessRecruit",
      "outputs": [
        {
          "internalType": "uint256",
          "name": "x",
          "type": "uint256"
        }
      ],
      "stateMutability": "view",
      "type": "function"
    },
    {
      "inputs": [
        {
          "internalType": "address",
          "name": "_studentOwner",
          "type": "address"
        },
        {
          "internalType": "address",
          "name": "_businessOwner",
          "type": "address"
        },
        {
          "internalType": "string",
          "name": "_content",
          "type": "string"
        }
      ],
      "name": "sendReview",
      "outputs": [],
      "stateMutability": "nonpayable",
      "type": "function"
    },
    {
      "inputs": [
        {
          "internalType": "address",
          "name": "_iigOwner",
          "type": "address"
        },
        {
          "internalType": "string",
          "name": "_name",
          "type": "string"
        },
        {
          "internalType": "string",
          "name": "_country",
          "type": "string"
        },
        {
          "internalType": "string",
          "name": "_facebook",
          "type": "string"
        },
        {
          "internalType": "string",
          "name": "_website",
          "type": "string"
        },
        {
          "internalType": "string",
          "name": "_linkedin",
          "type": "string"
        },
        {
          "internalType": "string",
          "name": "_password",
          "type": "string"
        }
      ],
      "name": "addIIGProfile",
      "outputs": [],
      "stateMutability": "nonpayable",
      "type": "function"
    },
    {
      "inputs": [
        {
          "internalType": "address",
          "name": "_iigOwner",
          "type": "address"
        },
        {
          "internalType": "string",
          "name": "_name",
          "type": "string"
        },
        {
          "internalType": "string",
          "name": "_country",
          "type": "string"
        },
        {
          "internalType": "string",
          "name": "_facebook",
          "type": "string"
        },
        {
          "internalType": "string",
          "name": "_website",
          "type": "string"
        },
        {
          "internalType": "string",
          "name": "_linkedin",
          "type": "string"
        }
      ],
      "name": "editIIGProfile",
      "outputs": [],
      "stateMutability": "nonpayable",
      "type": "function"
    },
    {
      "inputs": [],
      "name": "getListIIG",
      "outputs": [
        {
          "internalType": "address[]",
          "name": "",
          "type": "address[]"
        },
        {
          "internalType": "string[]",
          "name": "",
          "type": "string[]"
        },
        {
          "internalType": "string[]",
          "name": "",
          "type": "string[]"
        },
        {
          "internalType": "string[]",
          "name": "",
          "type": "string[]"
        },
        {
          "internalType": "string[]",
          "name": "",
          "type": "string[]"
        },
        {
          "internalType": "string[]",
          "name": "",
          "type": "string[]"
        },
        {
          "internalType": "string[]",
          "name": "",
          "type": "string[]"
        }
      ],
      "stateMutability": "view",
      "type": "function"
    },
    {
      "inputs": [
        {
          "internalType": "address",
          "name": "_iigOwner",
          "type": "address"
        }
      ],
      "name": "getIIGProfile",
      "outputs": [
        {
          "internalType": "address",
          "name": "iigOwner",
          "type": "address"
        },
        {
          "internalType": "string",
          "name": "name",
          "type": "string"
        },
        {
          "internalType": "string",
          "name": "country",
          "type": "string"
        },
        {
          "internalType": "string",
          "name": "facebook",
          "type": "string"
        },
        {
          "internalType": "string",
          "name": "website",
          "type": "string"
        },
        {
          "internalType": "string",
          "name": "linkedin",
          "type": "string"
        }
      ],
      "stateMutability": "view",
      "type": "function"
    },
    {
      "inputs": [
        {
          "internalType": "address",
          "name": "_iigOwner",
          "type": "address"
        },
        {
          "internalType": "string",
          "name": "_password",
          "type": "string"
        }
      ],
      "name": "checkIIGProfile",
      "outputs": [
        {
          "internalType": "uint256",
          "name": "",
          "type": "uint256"
        }
      ],
      "stateMutability": "view",
      "type": "function"
    },
    {
      "inputs": [
        {
          "internalType": "address",
          "name": "_iigOwner",
          "type": "address"
        }
      ],
      "name": "checkExistIIG",
      "outputs": [
        {
          "internalType": "uint256",
          "name": "x",
          "type": "uint256"
        }
      ],
      "stateMutability": "view",
      "type": "function"
    },
    {
      "inputs": [
        {
          "internalType": "address",
          "name": "_studentOwner",
          "type": "address"
        },
        {
          "internalType": "address",
          "name": "_iigOwner",
          "type": "address"
        },
        {
          "internalType": "string",
          "name": "_identityCard",
          "type": "string"
        },
        {
          "internalType": "string",
          "name": "_requestDate",
          "type": "string"
        }
      ],
      "name": "sendIIGRequest",
      "outputs": [],
      "stateMutability": "nonpayable",
      "type": "function"
    },
    {
      "inputs": [
        {
          "internalType": "address",
          "name": "_iigOwner",
          "type": "address"
        }
      ],
      "name": "getListIIGRequest",
      "outputs": [
        {
          "internalType": "bytes4[]",
          "name": "",
          "type": "bytes4[]"
        },
        {
          "internalType": "address[]",
          "name": "",
          "type": "address[]"
        },
        {
          "internalType": "address[]",
          "name": "",
          "type": "address[]"
        },
        {
          "internalType": "string[]",
          "name": "",
          "type": "string[]"
        },
        {
          "internalType": "string[]",
          "name": "",
          "type": "string[]"
        },
        {
          "internalType": "string[]",
          "name": "",
          "type": "string[]"
        }
      ],
      "stateMutability": "view",
      "type": "function"
    },
    {
      "inputs": [
        {
          "internalType": "address",
          "name": "_iigOwner",
          "type": "address"
        },
        {
          "internalType": "address",
          "name": "_studentOwner",
          "type": "address"
        }
      ],
      "name": "getListIIGRequestStudent",
      "outputs": [
        {
          "internalType": "bytes4[]",
          "name": "",
          "type": "bytes4[]"
        },
        {
          "internalType": "address[]",
          "name": "",
          "type": "address[]"
        },
        {
          "internalType": "address[]",
          "name": "",
          "type": "address[]"
        },
        {
          "internalType": "string[]",
          "name": "",
          "type": "string[]"
        },
        {
          "internalType": "string[]",
          "name": "",
          "type": "string[]"
        },
        {
          "internalType": "string[]",
          "name": "",
          "type": "string[]"
        }
      ],
      "stateMutability": "view",
      "type": "function"
    },
    {
      "inputs": [
        {
          "internalType": "address",
          "name": "_studentOwner",
          "type": "address"
        },
        {
          "internalType": "address",
          "name": "_iigOwner",
          "type": "address"
        },
        {
          "internalType": "bytes4",
          "name": "_codeRequest",
          "type": "bytes4"
        },
        {
          "internalType": "string",
          "name": "_statusRequest",
          "type": "string"
        }
      ],
      "name": "confirmIIGRequest",
      "outputs": [],
      "stateMutability": "nonpayable",
      "type": "function"
    },
    {
      "inputs": [
        {
          "internalType": "address",
          "name": "_iigOwner",
          "type": "address"
        },
        {
          "internalType": "address",
          "name": "_studentOwner",
          "type": "address"
        },
        {
          "internalType": "string",
          "name": "_testDate",
          "type": "string"
        },
        {
          "internalType": "string",
          "name": "_shiftTest",
          "type": "string"
        },
        {
          "internalType": "string",
          "name": "_expireDate",
          "type": "string"
        },
        {
          "internalType": "uint256",
          "name": "_listeningScore",
          "type": "uint256"
        },
        {
          "internalType": "uint256",
          "name": "_readingScore",
          "type": "uint256"
        }
      ],
      "name": "addIIGLRResult",
      "outputs": [],
      "stateMutability": "nonpayable",
      "type": "function"
    },
    {
      "inputs": [
        {
          "internalType": "address",
          "name": "_iigOwner",
          "type": "address"
        },
        {
          "internalType": "address",
          "name": "_studentOwner",
          "type": "address"
        },
        {
          "internalType": "string",
          "name": "_testDate",
          "type": "string"
        },
        {
          "internalType": "string",
          "name": "_shiftTest",
          "type": "string"
        },
        {
          "internalType": "string",
          "name": "_expireDate",
          "type": "string"
        },
        {
          "internalType": "uint256",
          "name": "_speakingScore",
          "type": "uint256"
        },
        {
          "internalType": "uint256",
          "name": "_writingScore",
          "type": "uint256"
        }
      ],
      "name": "addIIGSWResult",
      "outputs": [],
      "stateMutability": "nonpayable",
      "type": "function"
    },
    {
      "inputs": [
        {
          "internalType": "address",
          "name": "_iigOwner",
          "type": "address"
        },
        {
          "internalType": "address",
          "name": "_studentOwner",
          "type": "address"
        }
      ],
      "name": "getListIIGLRResult",
      "outputs": [
        {
          "internalType": "string[]",
          "name": "",
          "type": "string[]"
        },
        {
          "internalType": "string[]",
          "name": "",
          "type": "string[]"
        },
        {
          "internalType": "string[]",
          "name": "",
          "type": "string[]"
        },
        {
          "internalType": "uint256[]",
          "name": "",
          "type": "uint256[]"
        },
        {
          "internalType": "uint256[]",
          "name": "",
          "type": "uint256[]"
        },
        {
          "internalType": "uint256[]",
          "name": "",
          "type": "uint256[]"
        }
      ],
      "stateMutability": "view",
      "type": "function"
    },
    {
      "inputs": [
        {
          "internalType": "address",
          "name": "_iigOwner",
          "type": "address"
        },
        {
          "internalType": "address",
          "name": "_studentOwner",
          "type": "address"
        }
      ],
      "name": "getListIIGSWResult",
      "outputs": [
        {
          "internalType": "string[]",
          "name": "",
          "type": "string[]"
        },
        {
          "internalType": "string[]",
          "name": "",
          "type": "string[]"
        },
        {
          "internalType": "string[]",
          "name": "",
          "type": "string[]"
        },
        {
          "internalType": "uint256[]",
          "name": "",
          "type": "uint256[]"
        },
        {
          "internalType": "uint256[]",
          "name": "",
          "type": "uint256[]"
        },
        {
          "internalType": "uint256[]",
          "name": "",
          "type": "uint256[]"
        }
      ],
      "stateMutability": "view",
      "type": "function"
    },
    {
      "inputs": [
        {
          "internalType": "address",
          "name": "_iigOwner",
          "type": "address"
        },
        {
          "internalType": "address",
          "name": "_studentOwner",
          "type": "address"
        },
        {
          "internalType": "string",
          "name": "_testDate",
          "type": "string"
        },
        {
          "internalType": "string",
          "name": "_shiftTest",
          "type": "string"
        }
      ],
      "name": "getIIGLRResult",
      "outputs": [
        {
          "internalType": "string",
          "name": "testDate",
          "type": "string"
        },
        {
          "internalType": "string",
          "name": "shiftTest",
          "type": "string"
        },
        {
          "internalType": "string",
          "name": "expireDate",
          "type": "string"
        },
        {
          "internalType": "uint256",
          "name": "listeningScore",
          "type": "uint256"
        },
        {
          "internalType": "uint256",
          "name": "readingScore",
          "type": "uint256"
        },
        {
          "internalType": "uint256",
          "name": "totalScore",
          "type": "uint256"
        }
      ],
      "stateMutability": "view",
      "type": "function"
    },
    {
      "inputs": [
        {
          "internalType": "address",
          "name": "_iigOwner",
          "type": "address"
        },
        {
          "internalType": "address",
          "name": "_studentOwner",
          "type": "address"
        },
        {
          "internalType": "string",
          "name": "_testDate",
          "type": "string"
        },
        {
          "internalType": "string",
          "name": "_shiftTest",
          "type": "string"
        }
      ],
      "name": "getIIGSWResult",
      "outputs": [
        {
          "internalType": "string",
          "name": "testDate",
          "type": "string"
        },
        {
          "internalType": "string",
          "name": "shiftTest",
          "type": "string"
        },
        {
          "internalType": "string",
          "name": "expireDate",
          "type": "string"
        },
        {
          "internalType": "uint256",
          "name": "speakingScore",
          "type": "uint256"
        },
        {
          "internalType": "uint256",
          "name": "writingScore",
          "type": "uint256"
        },
        {
          "internalType": "uint256",
          "name": "totalScore",
          "type": "uint256"
        }
      ],
      "stateMutability": "view",
      "type": "function"
    },
    {
      "inputs": [
        {
          "internalType": "address",
          "name": "_studentOwner",
          "type": "address"
        },
        {
          "internalType": "string",
          "name": "_testDate",
          "type": "string"
        },
        {
          "internalType": "string",
          "name": "_shiftTest",
          "type": "string"
        }
      ],
      "name": "checkExistIIGLRResult",
      "outputs": [
        {
          "internalType": "uint256",
          "name": "x",
          "type": "uint256"
        }
      ],
      "stateMutability": "view",
      "type": "function"
    },
    {
      "inputs": [
        {
          "internalType": "address",
          "name": "_studentOwner",
          "type": "address"
        },
        {
          "internalType": "string",
          "name": "_testDate",
          "type": "string"
        },
        {
          "internalType": "string",
          "name": "_shiftTest",
          "type": "string"
        }
      ],
      "name": "checkExistIIGSWResult",
      "outputs": [
        {
          "internalType": "uint256",
          "name": "x",
          "type": "uint256"
        }
      ],
      "stateMutability": "view",
      "type": "function"
    }
  ],
  "bytecode": "0x60806040526040516200001290620001c7565b604051809103906000f0801580156200002f573d6000803e3d6000fd5b506000806101000a81548173ffffffffffffffffffffffffffffffffffffffff021916908373ffffffffffffffffffffffffffffffffffffffff1602179055506040516200007d90620001d5565b604051809103906000f0801580156200009a573d6000803e3d6000fd5b50600160006101000a81548173ffffffffffffffffffffffffffffffffffffffff021916908373ffffffffffffffffffffffffffffffffffffffff160217905550604051620000e990620001e3565b604051809103906000f08015801562000106573d6000803e3d6000fd5b50600260006101000a81548173ffffffffffffffffffffffffffffffffffffffff021916908373ffffffffffffffffffffffffffffffffffffffff1602179055506040516200015590620001f1565b604051809103906000f08015801562000172573d6000803e3d6000fd5b50600360006101000a81548173ffffffffffffffffffffffffffffffffffffffff021916908373ffffffffffffffffffffffffffffffffffffffff160217905550348015620001c057600080fd5b50620001ff565b6145ae8062005c5683390190565b612630806200a20483390190565b6167a4806200c83483390190565b612f698062012fd883390190565b615a47806200020f6000396000f3fe608060405234801561001057600080fd5b506004361061029f5760003560e01c8063798fc53b11610167578063ce1ec5bb116100ce578063e9daa70a11610087578063e9daa70a14610963578063f1eb243114610995578063f4b7ec97146109b1578063f7a7394c146109e1578063f7a7b83d146109fd578063fe76178314610a195761029f565b8063ce1ec5bb1461085d578063ce4dd73f14610891578063d2f9858f146108c1578063e2832721146108f6578063e2f43af214610912578063e70c789c1461092e5761029f565b806391b9e6db1161012057806391b9e6db146107435780639cd325821461075f578063a2e4723914610793578063a3e7ae28146107c8578063acf6f3fd146107fd578063bc10454b1461082d5761029f565b8063798fc53b1461066b5780637e211fc51461068757806381f690ee146106a3578063844bb460146106d357806384ae9131146106ef578063873dcd29146107135761029f565b806339d92c4c1161020b57806363897216116101c4578063638972161461057c578063638f64f5146105985780636b4dbb28146105cd5780636d53448f146105fe5780636f57524c1461061a57806376a9409f146106365761029f565b806339d92c4c14610471578063415db955146104a157806342f08d4b146104d557806344fd6e221461050b5780634e1f4f821461053b57806357824f16146105575761029f565b806319ad872f1161025d57806319ad872f146103a1578063241c67a9146103bd57806324c5f368146103d95780632df96bfc146103f5578063313604e71461042557806335c77f85146104415761029f565b80624e56cf146102a45780630299779f146102c05780630ac68f37146102f05780630e966efd1461032057806311345a20146103555780631632dd9814610385575b600080fd5b6102be60048036038101906102b99190612cef565b610a51565b005b6102da60048036038101906102d59190612d8e565b610ae9565b6040516102e79190612e16565b60405180910390f35b61030a60048036038101906103059190612e31565b610b94565b6040516103179190612e16565b60405180910390f35b61033a60048036038101906103359190612e8d565b610c3b565b60405161034c969594939291906131ac565b60405180910390f35b61036f600480360381019061036a9190612e8d565b610cfa565b60405161037c9190612e16565b60405180910390f35b61039f600480360381019061039a9190612d8e565b610d9e565b005b6103bb60048036038101906103b69190613263565b610e34565b005b6103d760048036038101906103d29190613385565b610ed5565b005b6103f360048036038101906103ee9190613408565b610f6e565b005b61040f600480360381019061040a9190612e8d565b61100d565b60405161041c9190612e16565b60405180910390f35b61043f600480360381019061043a9190613408565b6110c6565b005b61045b60048036038101906104569190612e31565b611163565b6040516104689190612e16565b60405180910390f35b61048b60048036038101906104869190612e8d565b61120b565b6040516104989190612e16565b60405180910390f35b6104bb60048036038101906104b69190612e8d565b6112b0565b6040516104cc959493929190613521565b60405180910390f35b6104ef60048036038101906104ea9190612e8d565b61136a565b60405161050297969594939291906135f0565b60405180910390f35b61052560048036038101906105209190612e8d565b61142f565b6040516105329190612e16565b60405180910390f35b61055560048036038101906105509190612cef565b6114d4565b005b61055f61156d565b604051610573989796959493929190613689565b60405180910390f35b6105966004803603810190610591919061373f565b611629565b005b6105b260048036038101906105ad9190612cef565b6116cc565b6040516105c4969594939291906138b9565b60405180910390f35b6105e760048036038101906105e29190612e8d565b611796565b6040516105f59291906139ed565b60405180910390f35b6106186004803603810190610613919061373f565b611841565b005b610634600480360381019061062f9190613a24565b6118e6565b005b610650600480360381019061064b9190613b6e565b611988565b60405161066296959493929190613bae565b60405180910390f35b61068560048036038101906106809190613408565b611a4a565b005b6106a1600480360381019061069c9190613263565b611ae7565b005b6106bd60048036038101906106b89190613c39565b611b89565b6040516106ca9190612e16565b60405180910390f35b6106ed60048036038101906106e89190612cef565b611c34565b005b6106f7611ccd565b60405161070a9796959493929190613cc4565b60405180910390f35b61072d60048036038101906107289190612e31565b611d85565b60405161073a9190612e16565b60405180910390f35b61075d60048036038101906107589190612cef565b611e2d565b005b61077960048036038101906107749190612e8d565b611ec6565b60405161078a959493929190613d64565b60405180910390f35b6107ad60048036038101906107a89190612cef565b611f82565b6040516107bf969594939291906138b9565b60405180910390f35b6107e260048036038101906107dd9190613b6e565b61204c565b6040516107f4969594939291906131ac565b60405180910390f35b61081760048036038101906108129190612e31565b61210e565b6040516108249190612e16565b60405180910390f35b61084760048036038101906108429190613c39565b6121b5565b6040516108549190612e16565b60405180910390f35b61087760048036038101906108729190612e8d565b61225f565b604051610888959493929190613ea2565b60405180910390f35b6108ab60048036038101906108a69190613c39565b61231b565b6040516108b89190612e16565b60405180910390f35b6108db60048036038101906108d69190612e8d565b6123c6565b6040516108ed96959493929190613f18565b60405180910390f35b610910600480360381019061090b9190613a24565b612486565b005b61092c60048036038101906109279190613f9c565b612528565b005b61094860048036038101906109439190613b6e565b6125bc565b60405161095a96959493929190613bae565b60405180910390f35b61097d60048036038101906109789190613b6e565b61267e565b60405161098c9392919061400b565b60405180910390f35b6109af60048036038101906109aa9190613f9c565b612733565b005b6109cb60048036038101906109c69190613c39565b6127c7565b6040516109d89190612e16565b60405180910390f35b6109fb60048036038101906109f69190614049565b612929565b005b610a176004803603810190610a1291906141f3565b6129cf565b005b610a336004803603810190610a2e9190612e8d565b612a6b565b604051610a48999897969594939291906142c2565b60405180910390f35b600360009054906101000a900473ffffffffffffffffffffffffffffffffffffffff1673ffffffffffffffffffffffffffffffffffffffff16624e56cf858585856040518563ffffffff1660e01b8152600401610ab19493929190614387565b600060405180830381600087803b158015610acb57600080fd5b505af1158015610adf573d6000803e3d6000fd5b5050505050505050565b6000600360009054906101000a900473ffffffffffffffffffffffffffffffffffffffff1673ffffffffffffffffffffffffffffffffffffffff16630299779f8585856040518463ffffffff1660e01b8152600401610b4a9392919061400b565b602060405180830381865afa158015610b67573d6000803e3d6000fd5b505050506040513d601f19601f82011682018060405250810190610b8b91906143ef565b90509392505050565b60008060009054906101000a900473ffffffffffffffffffffffffffffffffffffffff1673ffffffffffffffffffffffffffffffffffffffff1663716b5ab484846040518363ffffffff1660e01b8152600401610bf292919061441c565b602060405180830381865afa158015610c0f573d6000803e3d6000fd5b505050506040513d601f19601f82011682018060405250810190610c3391906143ef565b905092915050565b606080606080606080600260009054906101000a900473ffffffffffffffffffffffffffffffffffffffff1673ffffffffffffffffffffffffffffffffffffffff16639fa7247a886040518263ffffffff1660e01b8152600401610c9f919061444c565b600060405180830381865afa158015610cbc573d6000803e3d6000fd5b505050506040513d6000823e3d601f19601f82011682018060405250810190610ce5919061476d565b95509550955095509550955091939550919395565b60008060009054906101000a900473ffffffffffffffffffffffffffffffffffffffff1673ffffffffffffffffffffffffffffffffffffffff1663961ecb5b836040518263ffffffff1660e01b8152600401610d56919061444c565b602060405180830381865afa158015610d73573d6000803e3d6000fd5b505050506040513d601f19601f82011682018060405250810190610d9791906143ef565b9050919050565b600360009054906101000a900473ffffffffffffffffffffffffffffffffffffffff1673ffffffffffffffffffffffffffffffffffffffff1663ae8f00d38484846040518463ffffffff1660e01b8152600401610dfd9392919061400b565b600060405180830381600087803b158015610e1757600080fd5b505af1158015610e2b573d6000803e3d6000fd5b50505050505050565b600260009054906101000a900473ffffffffffffffffffffffffffffffffffffffff1673ffffffffffffffffffffffffffffffffffffffff1662220cf7888888888888886040518863ffffffff1660e01b8152600401610e9a97969594939291906148a2565b600060405180830381600087803b158015610eb457600080fd5b505af1158015610ec8573d6000803e3d6000fd5b5050505050505050505050565b600260009054906101000a900473ffffffffffffffffffffffffffffffffffffffff1673ffffffffffffffffffffffffffffffffffffffff1663b351d176858585856040518563ffffffff1660e01b8152600401610f369493929190614935565b600060405180830381600087803b158015610f5057600080fd5b505af1158015610f64573d6000803e3d6000fd5b5050505050505050565b600260009054906101000a900473ffffffffffffffffffffffffffffffffffffffff1673ffffffffffffffffffffffffffffffffffffffff16636cf871df8787878787876040518763ffffffff1660e01b8152600401610fd396959493929190613f18565b600060405180830381600087803b158015610fed57600080fd5b505af1158015611001573d6000803e3d6000fd5b50505050505050505050565b60008060008054906101000a900473ffffffffffffffffffffffffffffffffffffffff1673ffffffffffffffffffffffffffffffffffffffff16638e891393846040518263ffffffff1660e01b8152600401611069919061444c565b602060405180830381865afa158015611086573d6000803e3d6000fd5b505050506040513d601f19601f820116820180604052508101906110aa91906143ef565b9050600a8111156110bf5760019150506110c1565b505b919050565b60008054906101000a900473ffffffffffffffffffffffffffffffffffffffff1673ffffffffffffffffffffffffffffffffffffffff1663dcc453528787878787876040518763ffffffff1660e01b815260040161112996959493929190613f18565b600060405180830381600087803b15801561114357600080fd5b505af1158015611157573d6000803e3d6000fd5b50505050505050505050565b6000600160009054906101000a900473ffffffffffffffffffffffffffffffffffffffff1673ffffffffffffffffffffffffffffffffffffffff1663a7dba18484846040518363ffffffff1660e01b81526004016111c292919061441c565b602060405180830381865afa1580156111df573d6000803e3d6000fd5b505050506040513d601f19601f8201168201806040525081019061120391906143ef565b905092915050565b6000600160009054906101000a900473ffffffffffffffffffffffffffffffffffffffff1673ffffffffffffffffffffffffffffffffffffffff1663c6fe410a836040518263ffffffff1660e01b8152600401611268919061444c565b602060405180830381865afa158015611285573d6000803e3d6000fd5b505050506040513d601f19601f820116820180604052508101906112a991906143ef565b9050919050565b606080606080606060008054906101000a900473ffffffffffffffffffffffffffffffffffffffff1673ffffffffffffffffffffffffffffffffffffffff16638ce211bc876040518263ffffffff1660e01b8152600401611311919061444c565b600060405180830381865afa15801561132e573d6000803e3d6000fd5b505050506040513d6000823e3d601f19601f820116820180604052508101906113579190614981565b9450945094509450945091939590929450565b6000606080606080606080600160009054906101000a900473ffffffffffffffffffffffffffffffffffffffff1673ffffffffffffffffffffffffffffffffffffffff16630f53a470896040518263ffffffff1660e01b81526004016113d0919061444c565b600060405180830381865afa1580156113ed573d6000803e3d6000fd5b505050506040513d6000823e3d601f19601f820116820180604052508101906114169190614a88565b9650965096509650965096509650919395979092949650565b6000600260009054906101000a900473ffffffffffffffffffffffffffffffffffffffff1673ffffffffffffffffffffffffffffffffffffffff166344fd6e22836040518263ffffffff1660e01b815260040161148c919061444c565b602060405180830381865afa1580156114a9573d6000803e3d6000fd5b505050506040513d601f19601f820116820180604052508101906114cd91906143ef565b9050919050565b600260009054906101000a900473ffffffffffffffffffffffffffffffffffffffff1673ffffffffffffffffffffffffffffffffffffffff1663948195ed858585856040518563ffffffff1660e01b81526004016115359493929190614387565b600060405180830381600087803b15801561154f57600080fd5b505af1158015611563573d6000803e3d6000fd5b5050505050505050565b606080606080606080606080600160009054906101000a900473ffffffffffffffffffffffffffffffffffffffff1673ffffffffffffffffffffffffffffffffffffffff1663cfafbc0c6040518163ffffffff1660e01b8152600401600060405180830381865afa1580156115e6573d6000803e3d6000fd5b505050506040513d6000823e3d601f19601f8201168201806040525081019061160f9190614bd2565b975097509750975097509750975097509091929394959697565b60008054906101000a900473ffffffffffffffffffffffffffffffffffffffff1673ffffffffffffffffffffffffffffffffffffffff1663b24f701689898989898989896040518963ffffffff1660e01b8152600401611690989796959493929190614d68565b600060405180830381600087803b1580156116aa57600080fd5b505af11580156116be573d6000803e3d6000fd5b505050505050505050505050565b60608060606000806000600260009054906101000a900473ffffffffffffffffffffffffffffffffffffffff1673ffffffffffffffffffffffffffffffffffffffff1663ac97812f8b8b8b8b6040518563ffffffff1660e01b81526004016117379493929190614387565b600060405180830381865afa158015611754573d6000803e3d6000fd5b505050506040513d6000823e3d601f19601f8201168201806040525081019061177d9190614e17565b9550955095509550955095509499939850945094509450565b60608060008054906101000a900473ffffffffffffffffffffffffffffffffffffffff1673ffffffffffffffffffffffffffffffffffffffff1663ac4b2049846040518263ffffffff1660e01b81526004016117f2919061444c565b600060405180830381865afa15801561180f573d6000803e3d6000fd5b505050506040513d6000823e3d601f19601f820116820180604052508101906118389190614fbb565b91509150915091565b600160009054906101000a900473ffffffffffffffffffffffffffffffffffffffff1673ffffffffffffffffffffffffffffffffffffffff1663e045b71089898989898989896040518963ffffffff1660e01b81526004016118aa989796959493929190614d68565b600060405180830381600087803b1580156118c457600080fd5b505af11580156118d8573d6000803e3d6000fd5b505050505050505050505050565b600160009054906101000a900473ffffffffffffffffffffffffffffffffffffffff1673ffffffffffffffffffffffffffffffffffffffff166323b6d993888888888888886040518863ffffffff1660e01b815260040161194d97969594939291906135f0565b600060405180830381600087803b15801561196757600080fd5b505af115801561197b573d6000803e3d6000fd5b5050505050505050505050565b606080606080606080600260009054906101000a900473ffffffffffffffffffffffffffffffffffffffff1673ffffffffffffffffffffffffffffffffffffffff1663bc72af7d89896040518363ffffffff1660e01b81526004016119ee929190615033565b600060405180830381865afa158015611a0b573d6000803e3d6000fd5b505050506040513d6000823e3d601f19601f82011682018060405250810190611a34919061505c565b9550955095509550955095509295509295509295565b60008054906101000a900473ffffffffffffffffffffffffffffffffffffffff1673ffffffffffffffffffffffffffffffffffffffff16633d746f0a8787878787876040518763ffffffff1660e01b8152600401611aad96959493929190613f18565b600060405180830381600087803b158015611ac757600080fd5b505af1158015611adb573d6000803e3d6000fd5b50505050505050505050565b600260009054906101000a900473ffffffffffffffffffffffffffffffffffffffff1673ffffffffffffffffffffffffffffffffffffffff1663d23a4ee1888888888888886040518863ffffffff1660e01b8152600401611b4e97969594939291906148a2565b600060405180830381600087803b158015611b6857600080fd5b505af1158015611b7c573d6000803e3d6000fd5b5050505050505050505050565b6000600260009054906101000a900473ffffffffffffffffffffffffffffffffffffffff1673ffffffffffffffffffffffffffffffffffffffff16630265275c8585856040518463ffffffff1660e01b8152600401611bea93929190615191565b602060405180830381865afa158015611c07573d6000803e3d6000fd5b505050506040513d601f19601f82011682018060405250810190611c2b91906143ef565b90509392505050565b600360009054906101000a900473ffffffffffffffffffffffffffffffffffffffff1673ffffffffffffffffffffffffffffffffffffffff1663844bb460858585856040518563ffffffff1660e01b8152600401611c959493929190614387565b600060405180830381600087803b158015611caf57600080fd5b505af1158015611cc3573d6000803e3d6000fd5b5050505050505050565b6060806060806060806060600260009054906101000a900473ffffffffffffffffffffffffffffffffffffffff1673ffffffffffffffffffffffffffffffffffffffff166384ae91316040518163ffffffff1660e01b8152600401600060405180830381865afa158015611d45573d6000803e3d6000fd5b505050506040513d6000823e3d601f19601f82011682018060405250810190611d6e91906151d6565b965096509650965096509650965090919293949596565b6000600260009054906101000a900473ffffffffffffffffffffffffffffffffffffffff1673ffffffffffffffffffffffffffffffffffffffff166324e6603784846040518363ffffffff1660e01b8152600401611de492919061441c565b602060405180830381865afa158015611e01573d6000803e3d6000fd5b505050506040513d601f19601f82011682018060405250810190611e2591906143ef565b905092915050565b600360009054906101000a900473ffffffffffffffffffffffffffffffffffffffff1673ffffffffffffffffffffffffffffffffffffffff1663dc1e475f858585856040518563ffffffff1660e01b8152600401611e8e9493929190614387565b600060405180830381600087803b158015611ea857600080fd5b505af1158015611ebc573d6000803e3d6000fd5b5050505050505050565b6060806060806060600360009054906101000a900473ffffffffffffffffffffffffffffffffffffffff1673ffffffffffffffffffffffffffffffffffffffff1663381a3bf7876040518263ffffffff1660e01b8152600401611f29919061444c565b600060405180830381865afa158015611f46573d6000803e3d6000fd5b505050506040513d6000823e3d601f19601f82011682018060405250810190611f6f919061533c565b9450945094509450945091939590929450565b60608060606000806000600260009054906101000a900473ffffffffffffffffffffffffffffffffffffffff1673ffffffffffffffffffffffffffffffffffffffff16634b38f2db8b8b8b8b6040518563ffffffff1660e01b8152600401611fed9493929190614387565b600060405180830381865afa15801561200a573d6000803e3d6000fd5b505050506040513d6000823e3d601f19601f820116820180604052508101906120339190614e17565b9550955095509550955095509499939850945094509450565b606080606080606080600260009054906101000a900473ffffffffffffffffffffffffffffffffffffffff1673ffffffffffffffffffffffffffffffffffffffff16630c3f988289896040518363ffffffff1660e01b81526004016120b2929190615033565b600060405180830381865afa1580156120cf573d6000803e3d6000fd5b505050506040513d6000823e3d601f19601f820116820180604052508101906120f8919061476d565b9550955095509550955095509295509295509295565b60008060009054906101000a900473ffffffffffffffffffffffffffffffffffffffff1673ffffffffffffffffffffffffffffffffffffffff1663174ceeab84846040518363ffffffff1660e01b815260040161216c92919061441c565b602060405180830381865afa158015612189573d6000803e3d6000fd5b505050506040513d601f19601f820116820180604052508101906121ad91906143ef565b905092915050565b60008060009054906101000a900473ffffffffffffffffffffffffffffffffffffffff1673ffffffffffffffffffffffffffffffffffffffff1663390363fe8585856040518463ffffffff1660e01b815260040161221593929190615191565b602060405180830381865afa158015612232573d6000803e3d6000fd5b505050506040513d601f19601f8201168201806040525081019061225691906143ef565b90509392505050565b6060806060806060600360009054906101000a900473ffffffffffffffffffffffffffffffffffffffff1673ffffffffffffffffffffffffffffffffffffffff1663ce1ec5bb876040518263ffffffff1660e01b81526004016122c2919061444c565b600060405180830381865afa1580156122df573d6000803e3d6000fd5b505050506040513d6000823e3d601f19601f820116820180604052508101906123089190615532565b9450945094509450945091939590929450565b6000600260009054906101000a900473ffffffffffffffffffffffffffffffffffffffff1673ffffffffffffffffffffffffffffffffffffffff16637829b41e8585856040518463ffffffff1660e01b815260040161237c93929190615191565b602060405180830381865afa158015612399573d6000803e3d6000fd5b505050506040513d601f19601f820116820180604052508101906123bd91906143ef565b90509392505050565b60006060806060806060600260009054906101000a900473ffffffffffffffffffffffffffffffffffffffff1673ffffffffffffffffffffffffffffffffffffffff16630f53a470886040518263ffffffff1660e01b815260040161242b919061444c565b600060405180830381865afa158015612448573d6000803e3d6000fd5b505050506040513d6000823e3d601f19601f820116820180604052508101906124719190615639565b95509550955095509550955091939550919395565b600260009054906101000a900473ffffffffffffffffffffffffffffffffffffffff1673ffffffffffffffffffffffffffffffffffffffff1663dd8f3edc888888888888886040518863ffffffff1660e01b81526004016124ed97969594939291906135f0565b600060405180830381600087803b15801561250757600080fd5b505af115801561251b573d6000803e3d6000fd5b5050505050505050505050565b60008054906101000a900473ffffffffffffffffffffffffffffffffffffffff1673ffffffffffffffffffffffffffffffffffffffff166360ccb2048484846040518463ffffffff1660e01b815260040161258593929190615752565b600060405180830381600087803b15801561259f57600080fd5b505af11580156125b3573d6000803e3d6000fd5b50505050505050565b606080606080606080600260009054906101000a900473ffffffffffffffffffffffffffffffffffffffff1673ffffffffffffffffffffffffffffffffffffffff166306ed1e8989896040518363ffffffff1660e01b8152600401612622929190615033565b600060405180830381865afa15801561263f573d6000803e3d6000fd5b505050506040513d6000823e3d601f19601f82011682018060405250810190612668919061505c565b9550955095509550955095509295509295509295565b6000806060600360009054906101000a900473ffffffffffffffffffffffffffffffffffffffff1673ffffffffffffffffffffffffffffffffffffffff1663e9daa70a86866040518363ffffffff1660e01b81526004016126e0929190615033565b600060405180830381865afa1580156126fd573d6000803e3d6000fd5b505050506040513d6000823e3d601f19601f820116820180604052508101906127269190615790565b9250925092509250925092565b60008054906101000a900473ffffffffffffffffffffffffffffffffffffffff1673ffffffffffffffffffffffffffffffffffffffff1663a06b883d8484846040518463ffffffff1660e01b815260040161279093929190615752565b600060405180830381600087803b1580156127aa57600080fd5b505af11580156127be573d6000803e3d6000fd5b50505050505050565b600080600360009054906101000a900473ffffffffffffffffffffffffffffffffffffffff1673ffffffffffffffffffffffffffffffffffffffff1663dae7debd866040518263ffffffff1660e01b8152600401612825919061444c565b602060405180830381865afa158015612842573d6000803e3d6000fd5b505050506040513d601f19601f8201168201806040525081019061286691906143ef565b90506000600360009054906101000a900473ffffffffffffffffffffffffffffffffffffffff1673ffffffffffffffffffffffffffffffffffffffff166386b87ba28787876040518463ffffffff1660e01b81526004016128c993929190615191565b602060405180830381865afa1580156128e6573d6000803e3d6000fd5b505050506040513d601f19601f8201168201806040525081019061290a91906143ef565b90508082111561291f57600192505050612922565b50505b9392505050565b60008054906101000a900473ffffffffffffffffffffffffffffffffffffffff1673ffffffffffffffffffffffffffffffffffffffff1663804fcf138a8a8a8a8a8a8a8a8a6040518a63ffffffff1660e01b8152600401612992999897969594939291906142c2565b600060405180830381600087803b1580156129ac57600080fd5b505af11580156129c0573d6000803e3d6000fd5b50505050505050505050505050565b600360009054906101000a900473ffffffffffffffffffffffffffffffffffffffff1673ffffffffffffffffffffffffffffffffffffffff1663f7a7b83d86868686866040518663ffffffff1660e01b8152600401612a329594939291906157ff565b600060405180830381600087803b158015612a4c57600080fd5b505af1158015612a60573d6000803e3d6000fd5b505050505050505050565b600060608060608060608060608060008054906101000a900473ffffffffffffffffffffffffffffffffffffffff1673ffffffffffffffffffffffffffffffffffffffff16630f53a4708b6040518263ffffffff1660e01b8152600401612ad2919061444c565b600060405180830381865afa158015612aef573d6000803e3d6000fd5b505050506040513d6000823e3d601f19601f82011682018060405250810190612b189190615867565b9850985098509850985098509850985098509193959799909294969850565b6000604051905090565b600080fd5b600080fd5b600073ffffffffffffffffffffffffffffffffffffffff82169050919050565b6000612b7682612b4b565b9050919050565b612b8681612b6b565b8114612b9157600080fd5b50565b600081359050612ba381612b7d565b92915050565b600080fd5b600080fd5b6000601f19601f8301169050919050565b7f4e487b7100000000000000000000000000000000000000000000000000000000600052604160045260246000fd5b612bfc82612bb3565b810181811067ffffffffffffffff82111715612c1b57612c1a612bc4565b5b80604052505050565b6000612c2e612b37565b9050612c3a8282612bf3565b919050565b600067ffffffffffffffff821115612c5a57612c59612bc4565b5b612c6382612bb3565b9050602081019050919050565b82818337600083830152505050565b6000612c92612c8d84612c3f565b612c24565b905082815260208101848484011115612cae57612cad612bae565b5b612cb9848285612c70565b509392505050565b600082601f830112612cd657612cd5612ba9565b5b8135612ce6848260208601612c7f565b91505092915050565b60008060008060808587031215612d0957612d08612b41565b5b6000612d1787828801612b94565b9450506020612d2887828801612b94565b935050604085013567ffffffffffffffff811115612d4957612d48612b46565b5b612d5587828801612cc1565b925050606085013567ffffffffffffffff811115612d7657612d75612b46565b5b612d8287828801612cc1565b91505092959194509250565b600080600060608486031215612da757612da6612b41565b5b6000612db586828701612b94565b9350506020612dc686828701612b94565b925050604084013567ffffffffffffffff811115612de757612de6612b46565b5b612df386828701612cc1565b9150509250925092565b6000819050919050565b612e1081612dfd565b82525050565b6000602082019050612e2b6000830184612e07565b92915050565b60008060408385031215612e4857612e47612b41565b5b6000612e5685828601612b94565b925050602083013567ffffffffffffffff811115612e7757612e76612b46565b5b612e8385828601612cc1565b9150509250929050565b600060208284031215612ea357612ea2612b41565b5b6000612eb184828501612b94565b91505092915050565b600081519050919050565b600082825260208201905092915050565b6000819050602082019050919050565b60007fffffffff0000000000000000000000000000000000000000000000000000000082169050919050565b612f1b81612ee6565b82525050565b6000612f2d8383612f12565b60208301905092915050565b6000602082019050919050565b6000612f5182612eba565b612f5b8185612ec5565b9350612f6683612ed6565b8060005b83811015612f97578151612f7e8882612f21565b9750612f8983612f39565b925050600181019050612f6a565b5085935050505092915050565b600081519050919050565b600082825260208201905092915050565b6000819050602082019050919050565b612fd981612b6b565b82525050565b6000612feb8383612fd0565b60208301905092915050565b6000602082019050919050565b600061300f82612fa4565b6130198185612faf565b935061302483612fc0565b8060005b8381101561305557815161303c8882612fdf565b975061304783612ff7565b925050600181019050613028565b5085935050505092915050565b600081519050919050565b600082825260208201905092915050565b6000819050602082019050919050565b600081519050919050565b600082825260208201905092915050565b60005b838110156130c85780820151818401526020810190506130ad565b838111156130d7576000848401525b50505050565b60006130e88261308e565b6130f28185613099565b93506131028185602086016130aa565b61310b81612bb3565b840191505092915050565b600061312283836130dd565b905092915050565b6000602082019050919050565b600061314282613062565b61314c818561306d565b93508360208202850161315e8561307e565b8060005b8581101561319a578484038952815161317b8582613116565b94506131868361312a565b925060208a01995050600181019050613162565b50829750879550505050505092915050565b600060c08201905081810360008301526131c68189612f46565b905081810360208301526131da8188613004565b905081810360408301526131ee8187613004565b905081810360608301526132028186613137565b905081810360808301526132168185613137565b905081810360a083015261322a8184613137565b9050979650505050505050565b61324081612dfd565b811461324b57600080fd5b50565b60008135905061325d81613237565b92915050565b600080600080600080600060e0888a03121561328257613281612b41565b5b60006132908a828b01612b94565b97505060206132a18a828b01612b94565b965050604088013567ffffffffffffffff8111156132c2576132c1612b46565b5b6132ce8a828b01612cc1565b955050606088013567ffffffffffffffff8111156132ef576132ee612b46565b5b6132fb8a828b01612cc1565b945050608088013567ffffffffffffffff81111561331c5761331b612b46565b5b6133288a828b01612cc1565b93505060a06133398a828b0161324e565b92505060c061334a8a828b0161324e565b91505092959891949750929550565b61336281612ee6565b811461336d57600080fd5b50565b60008135905061337f81613359565b92915050565b6000806000806080858703121561339f5761339e612b41565b5b60006133ad87828801612b94565b94505060206133be87828801612b94565b93505060406133cf87828801613370565b925050606085013567ffffffffffffffff8111156133f0576133ef612b46565b5b6133fc87828801612cc1565b91505092959194509250565b60008060008060008060c0878903121561342557613424612b41565b5b600061343389828a01612b94565b965050602087013567ffffffffffffffff81111561345457613453612b46565b5b61346089828a01612cc1565b955050604087013567ffffffffffffffff81111561348157613480612b46565b5b61348d89828a01612cc1565b945050606087013567ffffffffffffffff8111156134ae576134ad612b46565b5b6134ba89828a01612cc1565b935050608087013567ffffffffffffffff8111156134db576134da612b46565b5b6134e789828a01612cc1565b92505060a087013567ffffffffffffffff81111561350857613507612b46565b5b61351489828a01612cc1565b9150509295509295509295565b600060a082019050818103600083015261353b8188613137565b9050818103602083015261354f8187613137565b905081810360408301526135638186613137565b905081810360608301526135778185613137565b9050818103608083015261358b8184613137565b90509695505050505050565b6135a081612b6b565b82525050565b600082825260208201905092915050565b60006135c28261308e565b6135cc81856135a6565b93506135dc8185602086016130aa565b6135e581612bb3565b840191505092915050565b600060e082019050613605600083018a613597565b818103602083015261361781896135b7565b9050818103604083015261362b81886135b7565b9050818103606083015261363f81876135b7565b9050818103608083015261365381866135b7565b905081810360a083015261366781856135b7565b905081810360c083015261367b81846135b7565b905098975050505050505050565b60006101008201905081810360008301526136a4818b613004565b905081810360208301526136b8818a613137565b905081810360408301526136cc8189613137565b905081810360608301526136e08188613137565b905081810360808301526136f48187613137565b905081810360a08301526137088186613137565b905081810360c083015261371c8185613137565b905081810360e08301526137308184613137565b90509998505050505050505050565b600080600080600080600080610100898b0312156137605761375f612b41565b5b600061376e8b828c01612b94565b985050602089013567ffffffffffffffff81111561378f5761378e612b46565b5b61379b8b828c01612cc1565b975050604089013567ffffffffffffffff8111156137bc576137bb612b46565b5b6137c88b828c01612cc1565b965050606089013567ffffffffffffffff8111156137e9576137e8612b46565b5b6137f58b828c01612cc1565b955050608089013567ffffffffffffffff81111561381657613815612b46565b5b6138228b828c01612cc1565b94505060a089013567ffffffffffffffff81111561384357613842612b46565b5b61384f8b828c01612cc1565b93505060c089013567ffffffffffffffff8111156138705761386f612b46565b5b61387c8b828c01612cc1565b92505060e089013567ffffffffffffffff81111561389d5761389c612b46565b5b6138a98b828c01612cc1565b9150509295985092959890939650565b600060c08201905081810360008301526138d381896135b7565b905081810360208301526138e781886135b7565b905081810360408301526138fb81876135b7565b905061390a6060830186612e07565b6139176080830185612e07565b61392460a0830184612e07565b979650505050505050565b600081519050919050565b600082825260208201905092915050565b6000819050602082019050919050565b61396481612dfd565b82525050565b6000613976838361395b565b60208301905092915050565b6000602082019050919050565b600061399a8261392f565b6139a4818561393a565b93506139af8361394b565b8060005b838110156139e05781516139c7888261396a565b97506139d283613982565b9250506001810190506139b3565b5085935050505092915050565b60006040820190508181036000830152613a078185613137565b90508181036020830152613a1b818461398f565b90509392505050565b600080600080600080600060e0888a031215613a4357613a42612b41565b5b6000613a518a828b01612b94565b975050602088013567ffffffffffffffff811115613a7257613a71612b46565b5b613a7e8a828b01612cc1565b965050604088013567ffffffffffffffff811115613a9f57613a9e612b46565b5b613aab8a828b01612cc1565b955050606088013567ffffffffffffffff811115613acc57613acb612b46565b5b613ad88a828b01612cc1565b945050608088013567ffffffffffffffff811115613af957613af8612b46565b5b613b058a828b01612cc1565b93505060a088013567ffffffffffffffff811115613b2657613b25612b46565b5b613b328a828b01612cc1565b92505060c088013567ffffffffffffffff811115613b5357613b52612b46565b5b613b5f8a828b01612cc1565b91505092959891949750929550565b60008060408385031215613b8557613b84612b41565b5b6000613b9385828601612b94565b9250506020613ba485828601612b94565b9150509250929050565b600060c0820190508181036000830152613bc88189613137565b90508181036020830152613bdc8188613137565b90508181036040830152613bf08187613137565b90508181036060830152613c04818661398f565b90508181036080830152613c18818561398f565b905081810360a0830152613c2c818461398f565b9050979650505050505050565b600080600060608486031215613c5257613c51612b41565b5b6000613c6086828701612b94565b935050602084013567ffffffffffffffff811115613c8157613c80612b46565b5b613c8d86828701612cc1565b925050604084013567ffffffffffffffff811115613cae57613cad612b46565b5b613cba86828701612cc1565b9150509250925092565b600060e0820190508181036000830152613cde818a613004565b90508181036020830152613cf28189613137565b90508181036040830152613d068188613137565b90508181036060830152613d1a8187613137565b90508181036080830152613d2e8186613137565b905081810360a0830152613d428185613137565b905081810360c0830152613d568184613137565b905098975050505050505050565b600060a0820190508181036000830152613d7e8188613004565b90508181036020830152613d928187613004565b90508181036040830152613da68186613137565b90508181036060830152613dba8185613137565b90508181036080830152613dce8184613137565b90509695505050505050565b600081519050919050565b600082825260208201905092915050565b6000819050602082019050919050565b6000819050919050565b613e1981613e06565b82525050565b6000613e2b8383613e10565b60208301905092915050565b6000602082019050919050565b6000613e4f82613dda565b613e598185613de5565b9350613e6483613df6565b8060005b83811015613e95578151613e7c8882613e1f565b9750613e8783613e37565b925050600181019050613e68565b5085935050505092915050565b600060a0820190508181036000830152613ebc8188613e44565b90508181036020830152613ed08187613137565b90508181036040830152613ee48186613137565b90508181036060830152613ef88185613137565b90508181036080830152613f0c818461398f565b90509695505050505050565b600060c082019050613f2d6000830189613597565b8181036020830152613f3f81886135b7565b90508181036040830152613f5381876135b7565b90508181036060830152613f6781866135b7565b90508181036080830152613f7b81856135b7565b905081810360a0830152613f8f81846135b7565b9050979650505050505050565b600080600060608486031215613fb557613fb4612b41565b5b6000613fc386828701612b94565b935050602084013567ffffffffffffffff811115613fe457613fe3612b46565b5b613ff086828701612cc1565b92505060406140018682870161324e565b9150509250925092565b60006060820190506140206000830186613597565b61402d6020830185613597565b818103604083015261403f81846135b7565b9050949350505050565b60008060008060008060008060006101208a8c03121561406c5761406b612b41565b5b600061407a8c828d01612b94565b99505060208a013567ffffffffffffffff81111561409b5761409a612b46565b5b6140a78c828d01612cc1565b98505060408a013567ffffffffffffffff8111156140c8576140c7612b46565b5b6140d48c828d01612cc1565b97505060608a013567ffffffffffffffff8111156140f5576140f4612b46565b5b6141018c828d01612cc1565b96505060808a013567ffffffffffffffff81111561412257614121612b46565b5b61412e8c828d01612cc1565b95505060a08a013567ffffffffffffffff81111561414f5761414e612b46565b5b61415b8c828d01612cc1565b94505060c08a013567ffffffffffffffff81111561417c5761417b612b46565b5b6141888c828d01612cc1565b93505060e08a013567ffffffffffffffff8111156141a9576141a8612b46565b5b6141b58c828d01612cc1565b9250506101008a013567ffffffffffffffff8111156141d7576141d6612b46565b5b6141e38c828d01612cc1565b9150509295985092959850929598565b600080600080600060a0868803121561420f5761420e612b41565b5b600061421d88828901612b94565b955050602086013567ffffffffffffffff81111561423e5761423d612b46565b5b61424a88828901612cc1565b945050604086013567ffffffffffffffff81111561426b5761426a612b46565b5b61427788828901612cc1565b935050606086013567ffffffffffffffff81111561429857614297612b46565b5b6142a488828901612cc1565b92505060806142b58882890161324e565b9150509295509295909350565b6000610120820190506142d8600083018c613597565b81810360208301526142ea818b6135b7565b905081810360408301526142fe818a6135b7565b9050818103606083015261431281896135b7565b9050818103608083015261432681886135b7565b905081810360a083015261433a81876135b7565b905081810360c083015261434e81866135b7565b905081810360e083015261436281856135b7565b905081810361010083015261437781846135b7565b90509a9950505050505050505050565b600060808201905061439c6000830187613597565b6143a96020830186613597565b81810360408301526143bb81856135b7565b905081810360608301526143cf81846135b7565b905095945050505050565b6000815190506143e981613237565b92915050565b60006020828403121561440557614404612b41565b5b6000614413848285016143da565b91505092915050565b60006040820190506144316000830185613597565b818103602083015261444381846135b7565b90509392505050565b60006020820190506144616000830184613597565b92915050565b600067ffffffffffffffff82111561448257614481612bc4565b5b602082029050602081019050919050565b600080fd5b6000815190506144a781613359565b92915050565b60006144c06144bb84614467565b612c24565b905080838252602082019050602084028301858111156144e3576144e2614493565b5b835b8181101561450c57806144f88882614498565b8452602084019350506020810190506144e5565b5050509392505050565b600082601f83011261452b5761452a612ba9565b5b815161453b8482602086016144ad565b91505092915050565b600067ffffffffffffffff82111561455f5761455e612bc4565b5b602082029050602081019050919050565b60008151905061457f81612b7d565b92915050565b600061459861459384614544565b612c24565b905080838252602082019050602084028301858111156145bb576145ba614493565b5b835b818110156145e457806145d08882614570565b8452602084019350506020810190506145bd565b5050509392505050565b600082601f83011261460357614602612ba9565b5b8151614613848260208601614585565b91505092915050565b600067ffffffffffffffff82111561463757614636612bc4565b5b602082029050602081019050919050565b600061465b61465684612c3f565b612c24565b90508281526020810184848401111561467757614676612bae565b5b6146828482856130aa565b509392505050565b600082601f83011261469f5761469e612ba9565b5b81516146af848260208601614648565b91505092915050565b60006146cb6146c68461461c565b612c24565b905080838252602082019050602084028301858111156146ee576146ed614493565b5b835b8181101561473557805167ffffffffffffffff81111561471357614712612ba9565b5b808601614720898261468a565b855260208501945050506020810190506146f0565b5050509392505050565b600082601f83011261475457614753612ba9565b5b81516147648482602086016146b8565b91505092915050565b60008060008060008060c0878903121561478a57614789612b41565b5b600087015167ffffffffffffffff8111156147a8576147a7612b46565b5b6147b489828a01614516565b965050602087015167ffffffffffffffff8111156147d5576147d4612b46565b5b6147e189828a016145ee565b955050604087015167ffffffffffffffff81111561480257614801612b46565b5b61480e89828a016145ee565b945050606087015167ffffffffffffffff81111561482f5761482e612b46565b5b61483b89828a0161473f565b935050608087015167ffffffffffffffff81111561485c5761485b612b46565b5b61486889828a0161473f565b92505060a087015167ffffffffffffffff81111561488957614888612b46565b5b61489589828a0161473f565b9150509295509295509295565b600060e0820190506148b7600083018a613597565b6148c46020830189613597565b81810360408301526148d681886135b7565b905081810360608301526148ea81876135b7565b905081810360808301526148fe81866135b7565b905061490d60a0830185612e07565b61491a60c0830184612e07565b98975050505050505050565b61492f81612ee6565b82525050565b600060808201905061494a6000830187613597565b6149576020830186613597565b6149646040830185614926565b818103606083015261497681846135b7565b905095945050505050565b600080600080600060a0868803121561499d5761499c612b41565b5b600086015167ffffffffffffffff8111156149bb576149ba612b46565b5b6149c78882890161473f565b955050602086015167ffffffffffffffff8111156149e8576149e7612b46565b5b6149f48882890161473f565b945050604086015167ffffffffffffffff811115614a1557614a14612b46565b5b614a218882890161473f565b935050606086015167ffffffffffffffff811115614a4257614a41612b46565b5b614a4e8882890161473f565b925050608086015167ffffffffffffffff811115614a6f57614a6e612b46565b5b614a7b8882890161473f565b9150509295509295909350565b600080600080600080600060e0888a031215614aa757614aa6612b41565b5b6000614ab58a828b01614570565b975050602088015167ffffffffffffffff811115614ad657614ad5612b46565b5b614ae28a828b0161468a565b965050604088015167ffffffffffffffff811115614b0357614b02612b46565b5b614b0f8a828b0161468a565b955050606088015167ffffffffffffffff811115614b3057614b2f612b46565b5b614b3c8a828b0161468a565b945050608088015167ffffffffffffffff811115614b5d57614b5c612b46565b5b614b698a828b0161468a565b93505060a088015167ffffffffffffffff811115614b8a57614b89612b46565b5b614b968a828b0161468a565b92505060c088015167ffffffffffffffff811115614bb757614bb6612b46565b5b614bc38a828b0161468a565b91505092959891949750929550565b600080600080600080600080610100898b031215614bf357614bf2612b41565b5b600089015167ffffffffffffffff811115614c1157614c10612b46565b5b614c1d8b828c016145ee565b985050602089015167ffffffffffffffff811115614c3e57614c3d612b46565b5b614c4a8b828c0161473f565b975050604089015167ffffffffffffffff811115614c6b57614c6a612b46565b5b614c778b828c0161473f565b965050606089015167ffffffffffffffff811115614c9857614c97612b46565b5b614ca48b828c0161473f565b955050608089015167ffffffffffffffff811115614cc557614cc4612b46565b5b614cd18b828c0161473f565b94505060a089015167ffffffffffffffff811115614cf257614cf1612b46565b5b614cfe8b828c0161473f565b93505060c089015167ffffffffffffffff811115614d1f57614d1e612b46565b5b614d2b8b828c0161473f565b92505060e089015167ffffffffffffffff811115614d4c57614d4b612b46565b5b614d588b828c0161473f565b9150509295985092959890939650565b600061010082019050614d7e600083018b613597565b8181036020830152614d90818a6135b7565b90508181036040830152614da481896135b7565b90508181036060830152614db881886135b7565b90508181036080830152614dcc81876135b7565b905081810360a0830152614de081866135b7565b905081810360c0830152614df481856135b7565b905081810360e0830152614e0881846135b7565b90509998505050505050505050565b60008060008060008060c08789031215614e3457614e33612b41565b5b600087015167ffffffffffffffff811115614e5257614e51612b46565b5b614e5e89828a0161468a565b965050602087015167ffffffffffffffff811115614e7f57614e7e612b46565b5b614e8b89828a0161468a565b955050604087015167ffffffffffffffff811115614eac57614eab612b46565b5b614eb889828a0161468a565b9450506060614ec989828a016143da565b9350506080614eda89828a016143da565b92505060a0614eeb89828a016143da565b9150509295509295509295565b600067ffffffffffffffff821115614f1357614f12612bc4565b5b602082029050602081019050919050565b6000614f37614f3284614ef8565b612c24565b90508083825260208201905060208402830185811115614f5a57614f59614493565b5b835b81811015614f835780614f6f88826143da565b845260208401935050602081019050614f5c565b5050509392505050565b600082601f830112614fa257614fa1612ba9565b5b8151614fb2848260208601614f24565b91505092915050565b60008060408385031215614fd257614fd1612b41565b5b600083015167ffffffffffffffff811115614ff057614fef612b46565b5b614ffc8582860161473f565b925050602083015167ffffffffffffffff81111561501d5761501c612b46565b5b61502985828601614f8d565b9150509250929050565b60006040820190506150486000830185613597565b6150556020830184613597565b9392505050565b60008060008060008060c0878903121561507957615078612b41565b5b600087015167ffffffffffffffff81111561509757615096612b46565b5b6150a389828a0161473f565b965050602087015167ffffffffffffffff8111156150c4576150c3612b46565b5b6150d089828a0161473f565b955050604087015167ffffffffffffffff8111156150f1576150f0612b46565b5b6150fd89828a0161473f565b945050606087015167ffffffffffffffff81111561511e5761511d612b46565b5b61512a89828a01614f8d565b935050608087015167ffffffffffffffff81111561514b5761514a612b46565b5b61515789828a01614f8d565b92505060a087015167ffffffffffffffff81111561517857615177612b46565b5b61518489828a01614f8d565b9150509295509295509295565b60006060820190506151a66000830186613597565b81810360208301526151b881856135b7565b905081810360408301526151cc81846135b7565b9050949350505050565b600080600080600080600060e0888a0312156151f5576151f4612b41565b5b600088015167ffffffffffffffff81111561521357615212612b46565b5b61521f8a828b016145ee565b975050602088015167ffffffffffffffff8111156152405761523f612b46565b5b61524c8a828b0161473f565b965050604088015167ffffffffffffffff81111561526d5761526c612b46565b5b6152798a828b0161473f565b955050606088015167ffffffffffffffff81111561529a57615299612b46565b5b6152a68a828b0161473f565b945050608088015167ffffffffffffffff8111156152c7576152c6612b46565b5b6152d38a828b0161473f565b93505060a088015167ffffffffffffffff8111156152f4576152f3612b46565b5b6153008a828b0161473f565b92505060c088015167ffffffffffffffff81111561532157615320612b46565b5b61532d8a828b0161473f565b91505092959891949750929550565b600080600080600060a0868803121561535857615357612b41565b5b600086015167ffffffffffffffff81111561537657615375612b46565b5b615382888289016145ee565b955050602086015167ffffffffffffffff8111156153a3576153a2612b46565b5b6153af888289016145ee565b945050604086015167ffffffffffffffff8111156153d0576153cf612b46565b5b6153dc8882890161473f565b935050606086015167ffffffffffffffff8111156153fd576153fc612b46565b5b6154098882890161473f565b925050608086015167ffffffffffffffff81111561542a57615429612b46565b5b6154368882890161473f565b9150509295509295909350565b600067ffffffffffffffff82111561545e5761545d612bc4565b5b602082029050602081019050919050565b61547881613e06565b811461548357600080fd5b50565b6000815190506154958161546f565b92915050565b60006154ae6154a984615443565b612c24565b905080838252602082019050602084028301858111156154d1576154d0614493565b5b835b818110156154fa57806154e68882615486565b8452602084019350506020810190506154d3565b5050509392505050565b600082601f83011261551957615518612ba9565b5b815161552984826020860161549b565b91505092915050565b600080600080600060a0868803121561554e5761554d612b41565b5b600086015167ffffffffffffffff81111561556c5761556b612b46565b5b61557888828901615504565b955050602086015167ffffffffffffffff81111561559957615598612b46565b5b6155a58882890161473f565b945050604086015167ffffffffffffffff8111156155c6576155c5612b46565b5b6155d28882890161473f565b935050606086015167ffffffffffffffff8111156155f3576155f2612b46565b5b6155ff8882890161473f565b925050608086015167ffffffffffffffff8111156156205761561f612b46565b5b61562c88828901614f8d565b9150509295509295909350565b60008060008060008060c0878903121561565657615655612b41565b5b600061566489828a01614570565b965050602087015167ffffffffffffffff81111561568557615684612b46565b5b61569189828a0161468a565b955050604087015167ffffffffffffffff8111156156b2576156b1612b46565b5b6156be89828a0161468a565b945050606087015167ffffffffffffffff8111156156df576156de612b46565b5b6156eb89828a0161468a565b935050608087015167ffffffffffffffff81111561570c5761570b612b46565b5b61571889828a0161468a565b92505060a087015167ffffffffffffffff81111561573957615738612b46565b5b61574589828a0161468a565b9150509295509295509295565b60006060820190506157676000830186613597565b818103602083015261577981856135b7565b90506157886040830184612e07565b949350505050565b6000806000606084860312156157a9576157a8612b41565b5b60006157b786828701614570565b93505060206157c886828701614570565b925050604084015167ffffffffffffffff8111156157e9576157e8612b46565b5b6157f58682870161468a565b9150509250925092565b600060a0820190506158146000830188613597565b818103602083015261582681876135b7565b9050818103604083015261583a81866135b7565b9050818103606083015261584e81856135b7565b905061585d6080830184612e07565b9695505050505050565b60008060008060008060008060006101208a8c03121561588a57615889612b41565b5b60006158988c828d01614570565b99505060208a015167ffffffffffffffff8111156158b9576158b8612b46565b5b6158c58c828d0161468a565b98505060408a015167ffffffffffffffff8111156158e6576158e5612b46565b5b6158f28c828d0161468a565b97505060608a015167ffffffffffffffff81111561591357615912612b46565b5b61591f8c828d0161468a565b96505060808a015167ffffffffffffffff8111156159405761593f612b46565b5b61594c8c828d0161468a565b95505060a08a015167ffffffffffffffff81111561596d5761596c612b46565b5b6159798c828d0161468a565b94505060c08a015167ffffffffffffffff81111561599a57615999612b46565b5b6159a68c828d0161468a565b93505060e08a015167ffffffffffffffff8111156159c7576159c6612b46565b5b6159d38c828d0161468a565b9250506101008a015167ffffffffffffffff8111156159f5576159f4612b46565b5b615a018c828d0161468a565b915050929598509295985092959856fea2646970667358221220f10fab1167e8e25a8470d4434921bc13b09f3026fd0d3d83d8c29baafde319d464736f6c634300080b0033608060405234801561001057600080fd5b5061458e806100206000396000f3fe608060405234801561001057600080fd5b50600436106101165760003560e01c8063804fcf13116100a2578063a06b883d11610071578063a06b883d1461036a578063ac4b204914610386578063b24f7016146103b7578063d64b6913146103d3578063dcc45352146103f857610116565b8063804fcf13146102ba5780638ce211bc146102d65780638e8913931461030a578063961ecb5b1461033a57610116565b80633aff2cc5116100e95780633aff2cc5146101e85780633d746f0a1461021a57806360ccb204146102365780636704710714610252578063716b5ab41461028a57610116565b80630f53a4701461011b578063174ceeab146101535780632a631a5414610183578063390363fe146101b8575b600080fd5b6101356004803603810190610130919061353c565b610414565b60405161014a99989796959493929190613611565b60405180910390f35b61016d6004803603810190610168919061380b565b610ab3565b60405161017a9190613880565b60405180910390f35b61019d600480360381019061019891906138c7565b610bb1565b6040516101af969594939291906138f4565b60405180910390f35b6101d260048036038101906101cd9190613978565b610ec5565b6040516101df9190613880565b60405180910390f35b61020260048036038101906101fd91906138c7565b61100f565b60405161021193929190613a03565b60405180910390f35b610234600480360381019061022f9190613a41565b6110f1565b005b610250600480360381019061024b9190613b5a565b61131d565b005b61026c600480360381019061026791906138c7565b61143f565b60405161028199989796959493929190613611565b60405180910390f35b6102a4600480360381019061029f919061380b565b6118fd565b6040516102b19190613880565b60405180910390f35b6102d460048036038101906102cf9190613bc9565b6119fb565b005b6102f060048036038101906102eb919061353c565b611bb9565b604051610301959493929190613e7f565b60405180910390f35b610324600480360381019061031f919061353c565b61222b565b6040516103319190613880565b60405180910390f35b610354600480360381019061034f919061353c565b6122e8565b6040516103619190613880565b60405180910390f35b610384600480360381019061037f9190613b5a565b61239a565b005b6103a0600480360381019061039b919061353c565b612505565b6040516103ae929190613fb3565b60405180910390f35b6103d160048036038101906103cc9190613fea565b61276d565b005b6103db6129ab565b6040516103ef989796959493929190614222565b60405180910390f35b610412600480360381019061040d9190613a41565b6132d7565b005b600060608060608060608060608060005b600080549050811015610aa4578a73ffffffffffffffffffffffffffffffffffffffff166000828154811061045d5761045c6142d8565b5b906000526020600020906009020160000160009054906101000a900473ffffffffffffffffffffffffffffffffffffffff1673ffffffffffffffffffffffffffffffffffffffff161415610a9157600081815481106104bf576104be6142d8565b5b906000526020600020906009020160000160009054906101000a900473ffffffffffffffffffffffffffffffffffffffff1660008281548110610505576105046142d8565b5b90600052602060002090600902016001016000838154811061052a576105296142d8565b5b90600052602060002090600902016002016000848154811061054f5761054e6142d8565b5b906000526020600020906009020160030160008581548110610574576105736142d8565b5b906000526020600020906009020160040160008681548110610599576105986142d8565b5b9060005260206000209060090201600501600087815481106105be576105bd6142d8565b5b9060005260206000209060090201600601600088815481106105e3576105e26142d8565b5b906000526020600020906009020160070160008981548110610608576106076142d8565b5b906000526020600020906009020160080187805461062590614336565b80601f016020809104026020016040519081016040528092919081815260200182805461065190614336565b801561069e5780601f106106735761010080835404028352916020019161069e565b820191906000526020600020905b81548152906001019060200180831161068157829003601f168201915b505050505097508680546106b190614336565b80601f01602080910402602001604051908101604052809291908181526020018280546106dd90614336565b801561072a5780601f106106ff5761010080835404028352916020019161072a565b820191906000526020600020905b81548152906001019060200180831161070d57829003601f168201915b5050505050965085805461073d90614336565b80601f016020809104026020016040519081016040528092919081815260200182805461076990614336565b80156107b65780601f1061078b576101008083540402835291602001916107b6565b820191906000526020600020905b81548152906001019060200180831161079957829003601f168201915b505050505095508480546107c990614336565b80601f01602080910402602001604051908101604052809291908181526020018280546107f590614336565b80156108425780601f1061081757610100808354040283529160200191610842565b820191906000526020600020905b81548152906001019060200180831161082557829003601f168201915b5050505050945083805461085590614336565b80601f016020809104026020016040519081016040528092919081815260200182805461088190614336565b80156108ce5780601f106108a3576101008083540402835291602001916108ce565b820191906000526020600020905b8154815290600101906020018083116108b157829003601f168201915b505050505093508280546108e190614336565b80601f016020809104026020016040519081016040528092919081815260200182805461090d90614336565b801561095a5780601f1061092f5761010080835404028352916020019161095a565b820191906000526020600020905b81548152906001019060200180831161093d57829003601f168201915b5050505050925081805461096d90614336565b80601f016020809104026020016040519081016040528092919081815260200182805461099990614336565b80156109e65780601f106109bb576101008083540402835291602001916109e6565b820191906000526020600020905b8154815290600101906020018083116109c957829003601f168201915b505050505091508080546109f990614336565b80601f0160208091040260200160405190810160405280929190818152602001828054610a2590614336565b8015610a725780601f10610a4757610100808354040283529160200191610a72565b820191906000526020600020905b815481529060010190602001808311610a5557829003601f168201915b5050505050905099509950995099509950995099509950995050610aa6565b8080610a9c90614397565b915050610425565b505b9193959799909294969850565b600080600090505b600080549050811015610ba9578373ffffffffffffffffffffffffffffffffffffffff1660008281548110610af357610af26142d8565b5b906000526020600020906009020160000160009054906101000a900473ffffffffffffffffffffffffffffffffffffffff1673ffffffffffffffffffffffffffffffffffffffff16148015610b875750828051906020012060008281548110610b5f57610b5e6142d8565b5b9060005260206000209060090201600801604051610b7d919061447f565b6040518091039020145b15610b96576001915050610bab565b8080610ba190614397565b915050610abb565b505b92915050565b60028181548110610bc157600080fd5b90600052602060002090600602016000915090508060000160009054906101000a900473ffffffffffffffffffffffffffffffffffffffff1690806001018054610c0a90614336565b80601f0160208091040260200160405190810160405280929190818152602001828054610c3690614336565b8015610c835780601f10610c5857610100808354040283529160200191610c83565b820191906000526020600020905b815481529060010190602001808311610c6657829003601f168201915b505050505090806002018054610c9890614336565b80601f0160208091040260200160405190810160405280929190818152602001828054610cc490614336565b8015610d115780601f10610ce657610100808354040283529160200191610d11565b820191906000526020600020905b815481529060010190602001808311610cf457829003601f168201915b505050505090806003018054610d2690614336565b80601f0160208091040260200160405190810160405280929190818152602001828054610d5290614336565b8015610d9f5780601f10610d7457610100808354040283529160200191610d9f565b820191906000526020600020905b815481529060010190602001808311610d8257829003601f168201915b505050505090806004018054610db490614336565b80601f0160208091040260200160405190810160405280929190818152602001828054610de090614336565b8015610e2d5780601f10610e0257610100808354040283529160200191610e2d565b820191906000526020600020905b815481529060010190602001808311610e1057829003601f168201915b505050505090806005018054610e4290614336565b80601f0160208091040260200160405190810160405280929190818152602001828054610e6e90614336565b8015610ebb5780601f10610e9057610100808354040283529160200191610ebb565b820191906000526020600020905b815481529060010190602001808311610e9e57829003601f168201915b5050505050905086565b600080600090505b600280549050811015611006578473ffffffffffffffffffffffffffffffffffffffff1660028281548110610f0557610f046142d8565b5b906000526020600020906006020160000160009054906101000a900473ffffffffffffffffffffffffffffffffffffffff1673ffffffffffffffffffffffffffffffffffffffff16148015610f995750838051906020012060028281548110610f7157610f706142d8565b5b9060005260206000209060060201600101604051610f8f919061447f565b6040518091039020145b8015610fe45750828051906020012060028281548110610fbc57610fbb6142d8565b5b9060005260206000209060060201600201604051610fda919061447f565b6040518091039020145b15610ff3576001915050611008565b8080610ffe90614397565b915050610ecd565b505b9392505050565b6001818154811061101f57600080fd5b90600052602060002090600302016000915090508060000160009054906101000a900473ffffffffffffffffffffffffffffffffffffffff169080600101805461106890614336565b80601f016020809104026020016040519081016040528092919081815260200182805461109490614336565b80156110e15780601f106110b6576101008083540402835291602001916110e1565b820191906000526020600020905b8154815290600101906020018083116110c457829003601f168201915b5050505050908060020154905083565b60005b600280549050811015611314578673ffffffffffffffffffffffffffffffffffffffff166002828154811061112c5761112b6142d8565b5b906000526020600020906006020160000160009054906101000a900473ffffffffffffffffffffffffffffffffffffffff1673ffffffffffffffffffffffffffffffffffffffff16141561130157866002828154811061118f5761118e6142d8565b5b906000526020600020906006020160000160006101000a81548173ffffffffffffffffffffffffffffffffffffffff021916908373ffffffffffffffffffffffffffffffffffffffff16021790555085600282815481106111f3576111f26142d8565b5b90600052602060002090600602016001019080519060200190611217929190613427565b50846002828154811061122d5761122c6142d8565b5b90600052602060002090600602016002019080519060200190611251929190613427565b508360028281548110611267576112666142d8565b5b9060005260206000209060060201600301908051906020019061128b929190613427565b5082600282815481106112a1576112a06142d8565b5b906000526020600020906006020160040190805190602001906112c5929190613427565b5081600282815481106112db576112da6142d8565b5b906000526020600020906006020160050190805190602001906112ff929190613427565b505b808061130c90614397565b9150506110f4565b50505050505050565b6000811015801561132f575060648111155b61136e576040517f08c379a0000000000000000000000000000000000000000000000000000000008152600401611365906144e2565b60405180910390fd5b600160405180606001604052808573ffffffffffffffffffffffffffffffffffffffff16815260200184815260200183815250908060018154018082558091505060019003906000526020600020906003020160009091909190915060008201518160000160006101000a81548173ffffffffffffffffffffffffffffffffffffffff021916908373ffffffffffffffffffffffffffffffffffffffff160217905550602082015181600101908051906020019061142d929190613427565b50604082015181600201555050505050565b6000818154811061144f57600080fd5b90600052602060002090600902016000915090508060000160009054906101000a900473ffffffffffffffffffffffffffffffffffffffff169080600101805461149890614336565b80601f01602080910402602001604051908101604052809291908181526020018280546114c490614336565b80156115115780601f106114e657610100808354040283529160200191611511565b820191906000526020600020905b8154815290600101906020018083116114f457829003601f168201915b50505050509080600201805461152690614336565b80601f016020809104026020016040519081016040528092919081815260200182805461155290614336565b801561159f5780601f106115745761010080835404028352916020019161159f565b820191906000526020600020905b81548152906001019060200180831161158257829003601f168201915b5050505050908060030180546115b490614336565b80601f01602080910402602001604051908101604052809291908181526020018280546115e090614336565b801561162d5780601f106116025761010080835404028352916020019161162d565b820191906000526020600020905b81548152906001019060200180831161161057829003601f168201915b50505050509080600401805461164290614336565b80601f016020809104026020016040519081016040528092919081815260200182805461166e90614336565b80156116bb5780601f10611690576101008083540402835291602001916116bb565b820191906000526020600020905b81548152906001019060200180831161169e57829003601f168201915b5050505050908060050180546116d090614336565b80601f01602080910402602001604051908101604052809291908181526020018280546116fc90614336565b80156117495780601f1061171e57610100808354040283529160200191611749565b820191906000526020600020905b81548152906001019060200180831161172c57829003601f168201915b50505050509080600601805461175e90614336565b80601f016020809104026020016040519081016040528092919081815260200182805461178a90614336565b80156117d75780601f106117ac576101008083540402835291602001916117d7565b820191906000526020600020905b8154815290600101906020018083116117ba57829003601f168201915b5050505050908060070180546117ec90614336565b80601f016020809104026020016040519081016040528092919081815260200182805461181890614336565b80156118655780601f1061183a57610100808354040283529160200191611865565b820191906000526020600020905b81548152906001019060200180831161184857829003601f168201915b50505050509080600801805461187a90614336565b80601f01602080910402602001604051908101604052809291908181526020018280546118a690614336565b80156118f35780601f106118c8576101008083540402835291602001916118f3565b820191906000526020600020905b8154815290600101906020018083116118d657829003601f168201915b5050505050905089565b600080600090505b6001805490508110156119f3578373ffffffffffffffffffffffffffffffffffffffff166001828154811061193d5761193c6142d8565b5b906000526020600020906003020160000160009054906101000a900473ffffffffffffffffffffffffffffffffffffffff1673ffffffffffffffffffffffffffffffffffffffff161480156119d157508280519060200120600182815481106119a9576119a86142d8565b5b90600052602060002090600302016001016040516119c7919061447f565b6040518091039020145b156119e05760019150506119f5565b80806119eb90614397565b915050611905565b505b92915050565b60006040518061012001604052808b73ffffffffffffffffffffffffffffffffffffffff1681526020018a815260200189815260200188815260200187815260200186815260200185815260200184815260200183815250908060018154018082558091505060019003906000526020600020906009020160009091909190915060008201518160000160006101000a81548173ffffffffffffffffffffffffffffffffffffffff021916908373ffffffffffffffffffffffffffffffffffffffff1602179055506020820151816001019080519060200190611adf929190613427565b506040820151816002019080519060200190611afc929190613427565b506060820151816003019080519060200190611b19929190613427565b506080820151816004019080519060200190611b36929190613427565b5060a0820151816005019080519060200190611b53929190613427565b5060c0820151816006019080519060200190611b70929190613427565b5060e0820151816007019080519060200190611b8d929190613427565b50610100820151816008019080519060200190611bab929190613427565b505050505050505050505050565b6060806060806060600060028054905067ffffffffffffffff811115611be257611be16136e0565b5b604051908082528060200260200182016040528015611c1557816020015b6060815260200190600190039081611c005790505b509050600060028054905067ffffffffffffffff811115611c3957611c386136e0565b5b604051908082528060200260200182016040528015611c6c57816020015b6060815260200190600190039081611c575790505b509050600060028054905067ffffffffffffffff811115611c9057611c8f6136e0565b5b604051908082528060200260200182016040528015611cc357816020015b6060815260200190600190039081611cae5790505b509050600060028054905067ffffffffffffffff811115611ce757611ce66136e0565b5b604051908082528060200260200182016040528015611d1a57816020015b6060815260200190600190039081611d055790505b509050600060028054905067ffffffffffffffff811115611d3e57611d3d6136e0565b5b604051908082528060200260200182016040528015611d7157816020015b6060815260200190600190039081611d5c5790505b50905060005b60028054905081101561220d578b73ffffffffffffffffffffffffffffffffffffffff1660028281548110611daf57611dae6142d8565b5b906000526020600020906006020160000160009054906101000a900473ffffffffffffffffffffffffffffffffffffffff1673ffffffffffffffffffffffffffffffffffffffff1614156121fa5760028181548110611e1157611e106142d8565b5b90600052602060002090600602016001018054611e2d90614336565b80601f0160208091040260200160405190810160405280929190818152602001828054611e5990614336565b8015611ea65780601f10611e7b57610100808354040283529160200191611ea6565b820191906000526020600020905b815481529060010190602001808311611e8957829003601f168201915b5050505050868281518110611ebe57611ebd6142d8565b5b602002602001018190525060028181548110611edd57611edc6142d8565b5b90600052602060002090600602016002018054611ef990614336565b80601f0160208091040260200160405190810160405280929190818152602001828054611f2590614336565b8015611f725780601f10611f4757610100808354040283529160200191611f72565b820191906000526020600020905b815481529060010190602001808311611f5557829003601f168201915b5050505050858281518110611f8a57611f896142d8565b5b602002602001018190525060028181548110611fa957611fa86142d8565b5b90600052602060002090600602016003018054611fc590614336565b80601f0160208091040260200160405190810160405280929190818152602001828054611ff190614336565b801561203e5780601f106120135761010080835404028352916020019161203e565b820191906000526020600020905b81548152906001019060200180831161202157829003601f168201915b5050505050848281518110612056576120556142d8565b5b602002602001018190525060028181548110612075576120746142d8565b5b9060005260206000209060060201600401805461209190614336565b80601f01602080910402602001604051908101604052809291908181526020018280546120bd90614336565b801561210a5780601f106120df5761010080835404028352916020019161210a565b820191906000526020600020905b8154815290600101906020018083116120ed57829003601f168201915b5050505050838281518110612122576121216142d8565b5b602002602001018190525060028181548110612141576121406142d8565b5b9060005260206000209060060201600501805461215d90614336565b80601f016020809104026020016040519081016040528092919081815260200182805461218990614336565b80156121d65780601f106121ab576101008083540402835291602001916121d6565b820191906000526020600020905b8154815290600101906020018083116121b957829003601f168201915b50505050508282815181106121ee576121ed6142d8565b5b60200260200101819052505b808061220590614397565b915050611d77565b50848484848499509950995099509950505050505091939590929450565b6000806000905060005b6001805490508110156122de578373ffffffffffffffffffffffffffffffffffffffff166001828154811061226d5761226c6142d8565b5b906000526020600020906003020160000160009054906101000a900473ffffffffffffffffffffffffffffffffffffffff1673ffffffffffffffffffffffffffffffffffffffff1614156122cb576001826122c89190614502565b91505b80806122d690614397565b915050612235565b5080915050919050565b600080600090505b600080549050811015612393578273ffffffffffffffffffffffffffffffffffffffff1660008281548110612328576123276142d8565b5b906000526020600020906009020160000160009054906101000a900473ffffffffffffffffffffffffffffffffffffffff1673ffffffffffffffffffffffffffffffffffffffff161415612380576001915050612395565b808061238b90614397565b9150506122f0565b505b919050565b60005b6001805490508110156124ff578373ffffffffffffffffffffffffffffffffffffffff16600182815481106123d5576123d46142d8565b5b906000526020600020906003020160000160009054906101000a900473ffffffffffffffffffffffffffffffffffffffff1673ffffffffffffffffffffffffffffffffffffffff1614156124ec578360018281548110612438576124376142d8565b5b906000526020600020906003020160000160006101000a81548173ffffffffffffffffffffffffffffffffffffffff021916908373ffffffffffffffffffffffffffffffffffffffff160217905550826001828154811061249c5761249b6142d8565b5b906000526020600020906003020160010190805190602001906124c0929190613427565b5081600182815481106124d6576124d56142d8565b5b9060005260206000209060030201600201819055505b80806124f790614397565b91505061239d565b50505050565b606080600060018054905067ffffffffffffffff811115612529576125286136e0565b5b60405190808252806020026020018201604052801561255c57816020015b60608152602001906001900390816125475790505b509050600060018054905067ffffffffffffffff8111156125805761257f6136e0565b5b6040519080825280602002602001820160405280156125ae5781602001602082028036833780820191505090505b50905060005b60018054905081101561275f578573ffffffffffffffffffffffffffffffffffffffff16600182815481106125ec576125eb6142d8565b5b906000526020600020906003020160000160009054906101000a900473ffffffffffffffffffffffffffffffffffffffff1673ffffffffffffffffffffffffffffffffffffffff16141561274c576001818154811061264e5761264d6142d8565b5b9060005260206000209060030201600101805461266a90614336565b80601f016020809104026020016040519081016040528092919081815260200182805461269690614336565b80156126e35780601f106126b8576101008083540402835291602001916126e3565b820191906000526020600020905b8154815290600101906020018083116126c657829003601f168201915b50505050508382815181106126fb576126fa6142d8565b5b60200260200101819052506001818154811061271a576127196142d8565b5b90600052602060002090600302016002015482828151811061273f5761273e6142d8565b5b6020026020010181815250505b808061275790614397565b9150506125b4565b508181935093505050915091565b60005b6000805490508110156129a0578873ffffffffffffffffffffffffffffffffffffffff16600082815481106127a8576127a76142d8565b5b906000526020600020906009020160000160009054906101000a900473ffffffffffffffffffffffffffffffffffffffff1673ffffffffffffffffffffffffffffffffffffffff16141561298d57876000828154811061280b5761280a6142d8565b5b9060005260206000209060090201600101908051906020019061282f929190613427565b508660008281548110612845576128446142d8565b5b90600052602060002090600902016002019080519060200190612869929190613427565b50856000828154811061287f5761287e6142d8565b5b906000526020600020906009020160030190805190602001906128a3929190613427565b5084600082815481106128b9576128b86142d8565b5b906000526020600020906009020160040190805190602001906128dd929190613427565b5083600082815481106128f3576128f26142d8565b5b90600052602060002090600902016005019080519060200190612917929190613427565b50826000828154811061292d5761292c6142d8565b5b90600052602060002090600902016006019080519060200190612951929190613427565b508160008281548110612967576129666142d8565b5b9060005260206000209060090201600701908051906020019061298b929190613427565b505b808061299890614397565b915050612770565b505050505050505050565b6060806060806060806060806000808054905067ffffffffffffffff8111156129d7576129d66136e0565b5b604051908082528060200260200182016040528015612a055781602001602082028036833780820191505090505b5090506000808054905067ffffffffffffffff811115612a2857612a276136e0565b5b604051908082528060200260200182016040528015612a5b57816020015b6060815260200190600190039081612a465790505b5090506000808054905067ffffffffffffffff811115612a7e57612a7d6136e0565b5b604051908082528060200260200182016040528015612ab157816020015b6060815260200190600190039081612a9c5790505b5090506000808054905067ffffffffffffffff811115612ad457612ad36136e0565b5b604051908082528060200260200182016040528015612b0757816020015b6060815260200190600190039081612af25790505b5090506000808054905067ffffffffffffffff811115612b2a57612b296136e0565b5b604051908082528060200260200182016040528015612b5d57816020015b6060815260200190600190039081612b485790505b5090506000808054905067ffffffffffffffff811115612b8057612b7f6136e0565b5b604051908082528060200260200182016040528015612bb357816020015b6060815260200190600190039081612b9e5790505b5090506000808054905067ffffffffffffffff811115612bd657612bd56136e0565b5b604051908082528060200260200182016040528015612c0957816020015b6060815260200190600190039081612bf45790505b5090506000808054905067ffffffffffffffff811115612c2c57612c2b6136e0565b5b604051908082528060200260200182016040528015612c5f57816020015b6060815260200190600190039081612c4a5790505b50905060005b6000805490508110156132ac5760008181548110612c8657612c856142d8565b5b906000526020600020906009020160000160009054906101000a900473ffffffffffffffffffffffffffffffffffffffff16898281518110612ccb57612cca6142d8565b5b602002602001019073ffffffffffffffffffffffffffffffffffffffff16908173ffffffffffffffffffffffffffffffffffffffff168152505060008181548110612d1957612d186142d8565b5b90600052602060002090600902016001018054612d3590614336565b80601f0160208091040260200160405190810160405280929190818152602001828054612d6190614336565b8015612dae5780601f10612d8357610100808354040283529160200191612dae565b820191906000526020600020905b815481529060010190602001808311612d9157829003601f168201915b5050505050888281518110612dc657612dc56142d8565b5b602002602001018190525060008181548110612de557612de46142d8565b5b90600052602060002090600902016002018054612e0190614336565b80601f0160208091040260200160405190810160405280929190818152602001828054612e2d90614336565b8015612e7a5780601f10612e4f57610100808354040283529160200191612e7a565b820191906000526020600020905b815481529060010190602001808311612e5d57829003601f168201915b5050505050878281518110612e9257612e916142d8565b5b602002602001018190525060008181548110612eb157612eb06142d8565b5b90600052602060002090600902016003018054612ecd90614336565b80601f0160208091040260200160405190810160405280929190818152602001828054612ef990614336565b8015612f465780601f10612f1b57610100808354040283529160200191612f46565b820191906000526020600020905b815481529060010190602001808311612f2957829003601f168201915b5050505050868281518110612f5e57612f5d6142d8565b5b602002602001018190525060008181548110612f7d57612f7c6142d8565b5b90600052602060002090600902016004018054612f9990614336565b80601f0160208091040260200160405190810160405280929190818152602001828054612fc590614336565b80156130125780601f10612fe757610100808354040283529160200191613012565b820191906000526020600020905b815481529060010190602001808311612ff557829003601f168201915b505050505085828151811061302a576130296142d8565b5b602002602001018190525060008181548110613049576130486142d8565b5b9060005260206000209060090201600501805461306590614336565b80601f016020809104026020016040519081016040528092919081815260200182805461309190614336565b80156130de5780601f106130b3576101008083540402835291602001916130de565b820191906000526020600020905b8154815290600101906020018083116130c157829003601f168201915b50505050508482815181106130f6576130f56142d8565b5b602002602001018190525060008181548110613115576131146142d8565b5b9060005260206000209060090201600601805461313190614336565b80601f016020809104026020016040519081016040528092919081815260200182805461315d90614336565b80156131aa5780601f1061317f576101008083540402835291602001916131aa565b820191906000526020600020905b81548152906001019060200180831161318d57829003601f168201915b50505050508382815181106131c2576131c16142d8565b5b6020026020010181905250600081815481106131e1576131e06142d8565b5b906000526020600020906009020160070180546131fd90614336565b80601f016020809104026020016040519081016040528092919081815260200182805461322990614336565b80156132765780601f1061324b57610100808354040283529160200191613276565b820191906000526020600020905b81548152906001019060200180831161325957829003601f168201915b505050505082828151811061328e5761328d6142d8565b5b602002602001018190525080806132a490614397565b915050612c65565b5087878787878787879f509f509f509f509f509f509f509f5050505050505050509091929394959697565b60026040518060c001604052808873ffffffffffffffffffffffffffffffffffffffff16815260200187815260200186815260200185815260200184815260200183815250908060018154018082558091505060019003906000526020600020906006020160009091909190915060008201518160000160006101000a81548173ffffffffffffffffffffffffffffffffffffffff021916908373ffffffffffffffffffffffffffffffffffffffff16021790555060208201518160010190805190602001906133a8929190613427565b5060408201518160020190805190602001906133c5929190613427565b5060608201518160030190805190602001906133e2929190613427565b5060808201518160040190805190602001906133ff929190613427565b5060a082015181600501908051906020019061341c929190613427565b505050505050505050565b82805461343390614336565b90600052602060002090601f016020900481019282613455576000855561349c565b82601f1061346e57805160ff191683800117855561349c565b8280016001018555821561349c579182015b8281111561349b578251825591602001919060010190613480565b5b5090506134a991906134ad565b5090565b5b808211156134c65760008160009055506001016134ae565b5090565b6000604051905090565b600080fd5b600080fd5b600073ffffffffffffffffffffffffffffffffffffffff82169050919050565b6000613509826134de565b9050919050565b613519816134fe565b811461352457600080fd5b50565b60008135905061353681613510565b92915050565b600060208284031215613552576135516134d4565b5b600061356084828501613527565b91505092915050565b613572816134fe565b82525050565b600081519050919050565b600082825260208201905092915050565b60005b838110156135b2578082015181840152602081019050613597565b838111156135c1576000848401525b50505050565b6000601f19601f8301169050919050565b60006135e382613578565b6135ed8185613583565b93506135fd818560208601613594565b613606816135c7565b840191505092915050565b600061012082019050613627600083018c613569565b8181036020830152613639818b6135d8565b9050818103604083015261364d818a6135d8565b9050818103606083015261366181896135d8565b9050818103608083015261367581886135d8565b905081810360a083015261368981876135d8565b905081810360c083015261369d81866135d8565b905081810360e08301526136b181856135d8565b90508181036101008301526136c681846135d8565b90509a9950505050505050505050565b600080fd5b600080fd5b7f4e487b7100000000000000000000000000000000000000000000000000000000600052604160045260246000fd5b613718826135c7565b810181811067ffffffffffffffff82111715613737576137366136e0565b5b80604052505050565b600061374a6134ca565b9050613756828261370f565b919050565b600067ffffffffffffffff821115613776576137756136e0565b5b61377f826135c7565b9050602081019050919050565b82818337600083830152505050565b60006137ae6137a98461375b565b613740565b9050828152602081018484840111156137ca576137c96136db565b5b6137d584828561378c565b509392505050565b600082601f8301126137f2576137f16136d6565b5b813561380284826020860161379b565b91505092915050565b60008060408385031215613822576138216134d4565b5b600061383085828601613527565b925050602083013567ffffffffffffffff811115613851576138506134d9565b5b61385d858286016137dd565b9150509250929050565b6000819050919050565b61387a81613867565b82525050565b60006020820190506138956000830184613871565b92915050565b6138a481613867565b81146138af57600080fd5b50565b6000813590506138c18161389b565b92915050565b6000602082840312156138dd576138dc6134d4565b5b60006138eb848285016138b2565b91505092915050565b600060c0820190506139096000830189613569565b818103602083015261391b81886135d8565b9050818103604083015261392f81876135d8565b9050818103606083015261394381866135d8565b9050818103608083015261395781856135d8565b905081810360a083015261396b81846135d8565b9050979650505050505050565b600080600060608486031215613991576139906134d4565b5b600061399f86828701613527565b935050602084013567ffffffffffffffff8111156139c0576139bf6134d9565b5b6139cc868287016137dd565b925050604084013567ffffffffffffffff8111156139ed576139ec6134d9565b5b6139f9868287016137dd565b9150509250925092565b6000606082019050613a186000830186613569565b8181036020830152613a2a81856135d8565b9050613a396040830184613871565b949350505050565b60008060008060008060c08789031215613a5e57613a5d6134d4565b5b6000613a6c89828a01613527565b965050602087013567ffffffffffffffff811115613a8d57613a8c6134d9565b5b613a9989828a016137dd565b955050604087013567ffffffffffffffff811115613aba57613ab96134d9565b5b613ac689828a016137dd565b945050606087013567ffffffffffffffff811115613ae757613ae66134d9565b5b613af389828a016137dd565b935050608087013567ffffffffffffffff811115613b1457613b136134d9565b5b613b2089828a016137dd565b92505060a087013567ffffffffffffffff811115613b4157613b406134d9565b5b613b4d89828a016137dd565b9150509295509295509295565b600080600060608486031215613b7357613b726134d4565b5b6000613b8186828701613527565b935050602084013567ffffffffffffffff811115613ba257613ba16134d9565b5b613bae868287016137dd565b9250506040613bbf868287016138b2565b9150509250925092565b60008060008060008060008060006101208a8c031215613bec57613beb6134d4565b5b6000613bfa8c828d01613527565b99505060208a013567ffffffffffffffff811115613c1b57613c1a6134d9565b5b613c278c828d016137dd565b98505060408a013567ffffffffffffffff811115613c4857613c476134d9565b5b613c548c828d016137dd565b97505060608a013567ffffffffffffffff811115613c7557613c746134d9565b5b613c818c828d016137dd565b96505060808a013567ffffffffffffffff811115613ca257613ca16134d9565b5b613cae8c828d016137dd565b95505060a08a013567ffffffffffffffff811115613ccf57613cce6134d9565b5b613cdb8c828d016137dd565b94505060c08a013567ffffffffffffffff811115613cfc57613cfb6134d9565b5b613d088c828d016137dd565b93505060e08a013567ffffffffffffffff811115613d2957613d286134d9565b5b613d358c828d016137dd565b9250506101008a013567ffffffffffffffff811115613d5757613d566134d9565b5b613d638c828d016137dd565b9150509295985092959850929598565b600081519050919050565b600082825260208201905092915050565b6000819050602082019050919050565b600082825260208201905092915050565b6000613dbb82613578565b613dc58185613d9f565b9350613dd5818560208601613594565b613dde816135c7565b840191505092915050565b6000613df58383613db0565b905092915050565b6000602082019050919050565b6000613e1582613d73565b613e1f8185613d7e565b935083602082028501613e3185613d8f565b8060005b85811015613e6d5784840389528151613e4e8582613de9565b9450613e5983613dfd565b925060208a01995050600181019050613e35565b50829750879550505050505092915050565b600060a0820190508181036000830152613e998188613e0a565b90508181036020830152613ead8187613e0a565b90508181036040830152613ec18186613e0a565b90508181036060830152613ed58185613e0a565b90508181036080830152613ee98184613e0a565b90509695505050505050565b600081519050919050565b600082825260208201905092915050565b6000819050602082019050919050565b613f2a81613867565b82525050565b6000613f3c8383613f21565b60208301905092915050565b6000602082019050919050565b6000613f6082613ef5565b613f6a8185613f00565b9350613f7583613f11565b8060005b83811015613fa6578151613f8d8882613f30565b9750613f9883613f48565b925050600181019050613f79565b5085935050505092915050565b60006040820190508181036000830152613fcd8185613e0a565b90508181036020830152613fe18184613f55565b90509392505050565b600080600080600080600080610100898b03121561400b5761400a6134d4565b5b60006140198b828c01613527565b985050602089013567ffffffffffffffff81111561403a576140396134d9565b5b6140468b828c016137dd565b975050604089013567ffffffffffffffff811115614067576140666134d9565b5b6140738b828c016137dd565b965050606089013567ffffffffffffffff811115614094576140936134d9565b5b6140a08b828c016137dd565b955050608089013567ffffffffffffffff8111156140c1576140c06134d9565b5b6140cd8b828c016137dd565b94505060a089013567ffffffffffffffff8111156140ee576140ed6134d9565b5b6140fa8b828c016137dd565b93505060c089013567ffffffffffffffff81111561411b5761411a6134d9565b5b6141278b828c016137dd565b92505060e089013567ffffffffffffffff811115614148576141476134d9565b5b6141548b828c016137dd565b9150509295985092959890939650565b600081519050919050565b600082825260208201905092915050565b6000819050602082019050919050565b614199816134fe565b82525050565b60006141ab8383614190565b60208301905092915050565b6000602082019050919050565b60006141cf82614164565b6141d9818561416f565b93506141e483614180565b8060005b838110156142155781516141fc888261419f565b9750614207836141b7565b9250506001810190506141e8565b5085935050505092915050565b600061010082019050818103600083015261423d818b6141c4565b90508181036020830152614251818a613e0a565b905081810360408301526142658189613e0a565b905081810360608301526142798188613e0a565b9050818103608083015261428d8187613e0a565b905081810360a08301526142a18186613e0a565b905081810360c08301526142b58185613e0a565b905081810360e08301526142c98184613e0a565b90509998505050505050505050565b7f4e487b7100000000000000000000000000000000000000000000000000000000600052603260045260246000fd5b7f4e487b7100000000000000000000000000000000000000000000000000000000600052602260045260246000fd5b6000600282049050600182168061434e57607f821691505b6020821081141561436257614361614307565b5b50919050565b7f4e487b7100000000000000000000000000000000000000000000000000000000600052601160045260246000fd5b60006143a282613867565b91507fffffffffffffffffffffffffffffffffffffffffffffffffffffffffffffffff8214156143d5576143d4614368565b5b600182019050919050565b600081905092915050565b60008190508160005260206000209050919050565b6000815461440d81614336565b61441781866143e0565b94506001821660008114614432576001811461444357614476565b60ff19831686528186019350614476565b61444c856143eb565b60005b8381101561446e5781548189015260018201915060208101905061444f565b838801955050505b50505092915050565b600061448b8284614400565b915081905092915050565b7f4c6576656c206f6620736b696c6c20696e636f72726563742e00000000000000600082015250565b60006144cc601983613583565b91506144d782614496565b602082019050919050565b600060208201905081810360008301526144fb816144bf565b9050919050565b600061450d82613867565b915061451883613867565b9250827fffffffffffffffffffffffffffffffffffffffffffffffffffffffffffffffff0382111561454d5761454c614368565b5b82820190509291505056fea2646970667358221220364325b3b0a3cecf6eee645b6ba8e2a799e5c7bdfb4a9015bb10015ae686faec64736f6c634300080b0033608060405234801561001057600080fd5b50612610806100206000396000f3fe608060405234801561001057600080fd5b506004361061007d5760003560e01c8063bf44b3031161005b578063bf44b30314610104578063c6fe410a1461013b578063cfafbc0c1461016b578063e045b710146101905761007d565b80630f53a4701461008257806323b6d993146100b8578063a7dba184146100d4575b600080fd5b61009c60048036038101906100979190611a9d565b6101ac565b6040516100af9796959493929190611b72565b60405180910390f35b6100d260048036038101906100cd9190611d40565b6106e0565b005b6100ee60048036038101906100e99190611e8a565b6108e3565b6040516100fb9190611eff565b60405180910390f35b61011e60048036038101906101199190611f46565b6109e1565b604051610132989796959493929190611f73565b60405180910390f35b61015560048036038101906101509190611a9d565b610e11565b6040516101629190611eff565b60405180910390f35b610173610ec3565b6040516101879897969594939291906121ec565b60405180910390f35b6101aa60048036038101906101a591906122a2565b6117ef565b005b600060608060608060608060005b6000805490508110156106d3578873ffffffffffffffffffffffffffffffffffffffff16600082815481106101f2576101f161241c565b5b906000526020600020906008020160000160009054906101000a900473ffffffffffffffffffffffffffffffffffffffff1673ffffffffffffffffffffffffffffffffffffffff1614156106c057600081815481106102545761025361241c565b5b906000526020600020906008020160000160009054906101000a900473ffffffffffffffffffffffffffffffffffffffff166000828154811061029a5761029961241c565b5b9060005260206000209060080201600101600083815481106102bf576102be61241c565b5b9060005260206000209060080201600201600084815481106102e4576102e361241c565b5b9060005260206000209060080201600301600085815481106103095761030861241c565b5b90600052602060002090600802016004016000868154811061032e5761032d61241c565b5b9060005260206000209060080201600501600087815481106103535761035261241c565b5b90600052602060002090600802016006018580546103709061247a565b80601f016020809104026020016040519081016040528092919081815260200182805461039c9061247a565b80156103e95780601f106103be576101008083540402835291602001916103e9565b820191906000526020600020905b8154815290600101906020018083116103cc57829003601f168201915b505050505095508480546103fc9061247a565b80601f01602080910402602001604051908101604052809291908181526020018280546104289061247a565b80156104755780601f1061044a57610100808354040283529160200191610475565b820191906000526020600020905b81548152906001019060200180831161045857829003601f168201915b505050505094508380546104889061247a565b80601f01602080910402602001604051908101604052809291908181526020018280546104b49061247a565b80156105015780601f106104d657610100808354040283529160200191610501565b820191906000526020600020905b8154815290600101906020018083116104e457829003601f168201915b505050505093508280546105149061247a565b80601f01602080910402602001604051908101604052809291908181526020018280546105409061247a565b801561058d5780601f106105625761010080835404028352916020019161058d565b820191906000526020600020905b81548152906001019060200180831161057057829003601f168201915b505050505092508180546105a09061247a565b80601f01602080910402602001604051908101604052809291908181526020018280546105cc9061247a565b80156106195780601f106105ee57610100808354040283529160200191610619565b820191906000526020600020905b8154815290600101906020018083116105fc57829003601f168201915b5050505050915080805461062c9061247a565b80601f01602080910402602001604051908101604052809291908181526020018280546106589061247a565b80156106a55780601f1061067a576101008083540402835291602001916106a5565b820191906000526020600020905b81548152906001019060200180831161068857829003601f168201915b505050505090509750975097509750975097509750506106d5565b80806106cb906124db565b9150506101ba565b505b919395979092949650565b60005b6000805490508110156108d9578773ffffffffffffffffffffffffffffffffffffffff166000828154811061071b5761071a61241c565b5b906000526020600020906008020160000160009054906101000a900473ffffffffffffffffffffffffffffffffffffffff1673ffffffffffffffffffffffffffffffffffffffff1614156108c657866000828154811061077e5761077d61241c565b5b906000526020600020906008020160010190805190602001906107a2929190611988565b5085600082815481106107b8576107b761241c565b5b906000526020600020906008020160020190805190602001906107dc929190611988565b5084600082815481106107f2576107f161241c565b5b90600052602060002090600802016003019080519060200190610816929190611988565b50836000828154811061082c5761082b61241c565b5b90600052602060002090600802016004019080519060200190610850929190611988565b5082600082815481106108665761086561241c565b5b9060005260206000209060080201600501908051906020019061088a929190611988565b5081600082815481106108a05761089f61241c565b5b906000526020600020906008020160060190805190602001906108c4929190611988565b505b80806108d1906124db565b9150506106e3565b5050505050505050565b600080600090505b6000805490508110156109d9578373ffffffffffffffffffffffffffffffffffffffff16600082815481106109235761092261241c565b5b906000526020600020906008020160000160009054906101000a900473ffffffffffffffffffffffffffffffffffffffff1673ffffffffffffffffffffffffffffffffffffffff161480156109b7575082805190602001206000828154811061098f5761098e61241c565b5b90600052602060002090600802016007016040516109ad91906125c3565b6040518091039020145b156109c65760019150506109db565b80806109d1906124db565b9150506108eb565b505b92915050565b600081815481106109f157600080fd5b90600052602060002090600802016000915090508060000160009054906101000a900473ffffffffffffffffffffffffffffffffffffffff1690806001018054610a3a9061247a565b80601f0160208091040260200160405190810160405280929190818152602001828054610a669061247a565b8015610ab35780601f10610a8857610100808354040283529160200191610ab3565b820191906000526020600020905b815481529060010190602001808311610a9657829003601f168201915b505050505090806002018054610ac89061247a565b80601f0160208091040260200160405190810160405280929190818152602001828054610af49061247a565b8015610b415780601f10610b1657610100808354040283529160200191610b41565b820191906000526020600020905b815481529060010190602001808311610b2457829003601f168201915b505050505090806003018054610b569061247a565b80601f0160208091040260200160405190810160405280929190818152602001828054610b829061247a565b8015610bcf5780601f10610ba457610100808354040283529160200191610bcf565b820191906000526020600020905b815481529060010190602001808311610bb257829003601f168201915b505050505090806004018054610be49061247a565b80601f0160208091040260200160405190810160405280929190818152602001828054610c109061247a565b8015610c5d5780601f10610c3257610100808354040283529160200191610c5d565b820191906000526020600020905b815481529060010190602001808311610c4057829003601f168201915b505050505090806005018054610c729061247a565b80601f0160208091040260200160405190810160405280929190818152602001828054610c9e9061247a565b8015610ceb5780601f10610cc057610100808354040283529160200191610ceb565b820191906000526020600020905b815481529060010190602001808311610cce57829003601f168201915b505050505090806006018054610d009061247a565b80601f0160208091040260200160405190810160405280929190818152602001828054610d2c9061247a565b8015610d795780601f10610d4e57610100808354040283529160200191610d79565b820191906000526020600020905b815481529060010190602001808311610d5c57829003601f168201915b505050505090806007018054610d8e9061247a565b80601f0160208091040260200160405190810160405280929190818152602001828054610dba9061247a565b8015610e075780601f10610ddc57610100808354040283529160200191610e07565b820191906000526020600020905b815481529060010190602001808311610dea57829003601f168201915b5050505050905088565b600080600090505b600080549050811015610ebc578273ffffffffffffffffffffffffffffffffffffffff1660008281548110610e5157610e5061241c565b5b906000526020600020906008020160000160009054906101000a900473ffffffffffffffffffffffffffffffffffffffff1673ffffffffffffffffffffffffffffffffffffffff161415610ea9576001915050610ebe565b8080610eb4906124db565b915050610e19565b505b919050565b6060806060806060806060806000808054905067ffffffffffffffff811115610eef57610eee611c15565b5b604051908082528060200260200182016040528015610f1d5781602001602082028036833780820191505090505b5090506000808054905067ffffffffffffffff811115610f4057610f3f611c15565b5b604051908082528060200260200182016040528015610f7357816020015b6060815260200190600190039081610f5e5790505b5090506000808054905067ffffffffffffffff811115610f9657610f95611c15565b5b604051908082528060200260200182016040528015610fc957816020015b6060815260200190600190039081610fb45790505b5090506000808054905067ffffffffffffffff811115610fec57610feb611c15565b5b60405190808252806020026020018201604052801561101f57816020015b606081526020019060019003908161100a5790505b5090506000808054905067ffffffffffffffff81111561104257611041611c15565b5b60405190808252806020026020018201604052801561107557816020015b60608152602001906001900390816110605790505b5090506000808054905067ffffffffffffffff81111561109857611097611c15565b5b6040519080825280602002602001820160405280156110cb57816020015b60608152602001906001900390816110b65790505b5090506000808054905067ffffffffffffffff8111156110ee576110ed611c15565b5b60405190808252806020026020018201604052801561112157816020015b606081526020019060019003908161110c5790505b5090506000808054905067ffffffffffffffff81111561114457611143611c15565b5b60405190808252806020026020018201604052801561117757816020015b60608152602001906001900390816111625790505b50905060005b6000805490508110156117c4576000818154811061119e5761119d61241c565b5b906000526020600020906008020160000160009054906101000a900473ffffffffffffffffffffffffffffffffffffffff168982815181106111e3576111e261241c565b5b602002602001019073ffffffffffffffffffffffffffffffffffffffff16908173ffffffffffffffffffffffffffffffffffffffff1681525050600081815481106112315761123061241c565b5b9060005260206000209060080201600101805461124d9061247a565b80601f01602080910402602001604051908101604052809291908181526020018280546112799061247a565b80156112c65780601f1061129b576101008083540402835291602001916112c6565b820191906000526020600020905b8154815290600101906020018083116112a957829003601f168201915b50505050508882815181106112de576112dd61241c565b5b6020026020010181905250600081815481106112fd576112fc61241c565b5b906000526020600020906008020160020180546113199061247a565b80601f01602080910402602001604051908101604052809291908181526020018280546113459061247a565b80156113925780601f1061136757610100808354040283529160200191611392565b820191906000526020600020905b81548152906001019060200180831161137557829003601f168201915b50505050508782815181106113aa576113a961241c565b5b6020026020010181905250600081815481106113c9576113c861241c565b5b906000526020600020906008020160030180546113e59061247a565b80601f01602080910402602001604051908101604052809291908181526020018280546114119061247a565b801561145e5780601f106114335761010080835404028352916020019161145e565b820191906000526020600020905b81548152906001019060200180831161144157829003601f168201915b50505050508682815181106114765761147561241c565b5b6020026020010181905250600081815481106114955761149461241c565b5b906000526020600020906008020160040180546114b19061247a565b80601f01602080910402602001604051908101604052809291908181526020018280546114dd9061247a565b801561152a5780601f106114ff5761010080835404028352916020019161152a565b820191906000526020600020905b81548152906001019060200180831161150d57829003601f168201915b50505050508582815181106115425761154161241c565b5b6020026020010181905250600081815481106115615761156061241c565b5b9060005260206000209060080201600501805461157d9061247a565b80601f01602080910402602001604051908101604052809291908181526020018280546115a99061247a565b80156115f65780601f106115cb576101008083540402835291602001916115f6565b820191906000526020600020905b8154815290600101906020018083116115d957829003601f168201915b505050505084828151811061160e5761160d61241c565b5b60200260200101819052506000818154811061162d5761162c61241c565b5b906000526020600020906008020160060180546116499061247a565b80601f01602080910402602001604051908101604052809291908181526020018280546116759061247a565b80156116c25780601f10611697576101008083540402835291602001916116c2565b820191906000526020600020905b8154815290600101906020018083116116a557829003601f168201915b50505050508382815181106116da576116d961241c565b5b6020026020010181905250600081815481106116f9576116f861241c565b5b906000526020600020906008020160070180546117159061247a565b80601f01602080910402602001604051908101604052809291908181526020018280546117419061247a565b801561178e5780601f106117635761010080835404028352916020019161178e565b820191906000526020600020905b81548152906001019060200180831161177157829003601f168201915b50505050508282815181106117a6576117a561241c565b5b602002602001018190525080806117bc906124db565b91505061117d565b5087878787878787879f509f509f509f509f509f509f509f5050505050505050509091929394959697565b60006040518061010001604052808a73ffffffffffffffffffffffffffffffffffffffff16815260200189815260200188815260200187815260200186815260200185815260200184815260200183815250908060018154018082558091505060019003906000526020600020906008020160009091909190915060008201518160000160006101000a81548173ffffffffffffffffffffffffffffffffffffffff021916908373ffffffffffffffffffffffffffffffffffffffff16021790555060208201518160010190805190602001906118cd929190611988565b5060408201518160020190805190602001906118ea929190611988565b506060820151816003019080519060200190611907929190611988565b506080820151816004019080519060200190611924929190611988565b5060a0820151816005019080519060200190611941929190611988565b5060c082015181600601908051906020019061195e929190611988565b5060e082015181600701908051906020019061197b929190611988565b5050505050505050505050565b8280546119949061247a565b90600052602060002090601f0160209004810192826119b657600085556119fd565b82601f106119cf57805160ff19168380011785556119fd565b828001600101855582156119fd579182015b828111156119fc5782518255916020019190600101906119e1565b5b509050611a0a9190611a0e565b5090565b5b80821115611a27576000816000905550600101611a0f565b5090565b6000604051905090565b600080fd5b600080fd5b600073ffffffffffffffffffffffffffffffffffffffff82169050919050565b6000611a6a82611a3f565b9050919050565b611a7a81611a5f565b8114611a8557600080fd5b50565b600081359050611a9781611a71565b92915050565b600060208284031215611ab357611ab2611a35565b5b6000611ac184828501611a88565b91505092915050565b611ad381611a5f565b82525050565b600081519050919050565b600082825260208201905092915050565b60005b83811015611b13578082015181840152602081019050611af8565b83811115611b22576000848401525b50505050565b6000601f19601f8301169050919050565b6000611b4482611ad9565b611b4e8185611ae4565b9350611b5e818560208601611af5565b611b6781611b28565b840191505092915050565b600060e082019050611b87600083018a611aca565b8181036020830152611b998189611b39565b90508181036040830152611bad8188611b39565b90508181036060830152611bc18187611b39565b90508181036080830152611bd58186611b39565b905081810360a0830152611be98185611b39565b905081810360c0830152611bfd8184611b39565b905098975050505050505050565b600080fd5b600080fd5b7f4e487b7100000000000000000000000000000000000000000000000000000000600052604160045260246000fd5b611c4d82611b28565b810181811067ffffffffffffffff82111715611c6c57611c6b611c15565b5b80604052505050565b6000611c7f611a2b565b9050611c8b8282611c44565b919050565b600067ffffffffffffffff821115611cab57611caa611c15565b5b611cb482611b28565b9050602081019050919050565b82818337600083830152505050565b6000611ce3611cde84611c90565b611c75565b905082815260208101848484011115611cff57611cfe611c10565b5b611d0a848285611cc1565b509392505050565b600082601f830112611d2757611d26611c0b565b5b8135611d37848260208601611cd0565b91505092915050565b600080600080600080600060e0888a031215611d5f57611d5e611a35565b5b6000611d6d8a828b01611a88565b975050602088013567ffffffffffffffff811115611d8e57611d8d611a3a565b5b611d9a8a828b01611d12565b965050604088013567ffffffffffffffff811115611dbb57611dba611a3a565b5b611dc78a828b01611d12565b955050606088013567ffffffffffffffff811115611de857611de7611a3a565b5b611df48a828b01611d12565b945050608088013567ffffffffffffffff811115611e1557611e14611a3a565b5b611e218a828b01611d12565b93505060a088013567ffffffffffffffff811115611e4257611e41611a3a565b5b611e4e8a828b01611d12565b92505060c088013567ffffffffffffffff811115611e6f57611e6e611a3a565b5b611e7b8a828b01611d12565b91505092959891949750929550565b60008060408385031215611ea157611ea0611a35565b5b6000611eaf85828601611a88565b925050602083013567ffffffffffffffff811115611ed057611ecf611a3a565b5b611edc85828601611d12565b9150509250929050565b6000819050919050565b611ef981611ee6565b82525050565b6000602082019050611f146000830184611ef0565b92915050565b611f2381611ee6565b8114611f2e57600080fd5b50565b600081359050611f4081611f1a565b92915050565b600060208284031215611f5c57611f5b611a35565b5b6000611f6a84828501611f31565b91505092915050565b600061010082019050611f89600083018b611aca565b8181036020830152611f9b818a611b39565b90508181036040830152611faf8189611b39565b90508181036060830152611fc38188611b39565b90508181036080830152611fd78187611b39565b905081810360a0830152611feb8186611b39565b905081810360c0830152611fff8185611b39565b905081810360e08301526120138184611b39565b90509998505050505050505050565b600081519050919050565b600082825260208201905092915050565b6000819050602082019050919050565b61205781611a5f565b82525050565b6000612069838361204e565b60208301905092915050565b6000602082019050919050565b600061208d82612022565b612097818561202d565b93506120a28361203e565b8060005b838110156120d35781516120ba888261205d565b97506120c583612075565b9250506001810190506120a6565b5085935050505092915050565b600081519050919050565b600082825260208201905092915050565b6000819050602082019050919050565b600082825260208201905092915050565b600061212882611ad9565b612132818561210c565b9350612142818560208601611af5565b61214b81611b28565b840191505092915050565b6000612162838361211d565b905092915050565b6000602082019050919050565b6000612182826120e0565b61218c81856120eb565b93508360208202850161219e856120fc565b8060005b858110156121da57848403895281516121bb8582612156565b94506121c68361216a565b925060208a019950506001810190506121a2565b50829750879550505050505092915050565b6000610100820190508181036000830152612207818b612082565b9050818103602083015261221b818a612177565b9050818103604083015261222f8189612177565b905081810360608301526122438188612177565b905081810360808301526122578187612177565b905081810360a083015261226b8186612177565b905081810360c083015261227f8185612177565b905081810360e08301526122938184612177565b90509998505050505050505050565b600080600080600080600080610100898b0312156122c3576122c2611a35565b5b60006122d18b828c01611a88565b985050602089013567ffffffffffffffff8111156122f2576122f1611a3a565b5b6122fe8b828c01611d12565b975050604089013567ffffffffffffffff81111561231f5761231e611a3a565b5b61232b8b828c01611d12565b965050606089013567ffffffffffffffff81111561234c5761234b611a3a565b5b6123588b828c01611d12565b955050608089013567ffffffffffffffff81111561237957612378611a3a565b5b6123858b828c01611d12565b94505060a089013567ffffffffffffffff8111156123a6576123a5611a3a565b5b6123b28b828c01611d12565b93505060c089013567ffffffffffffffff8111156123d3576123d2611a3a565b5b6123df8b828c01611d12565b92505060e089013567ffffffffffffffff811115612400576123ff611a3a565b5b61240c8b828c01611d12565b9150509295985092959890939650565b7f4e487b7100000000000000000000000000000000000000000000000000000000600052603260045260246000fd5b7f4e487b7100000000000000000000000000000000000000000000000000000000600052602260045260246000fd5b6000600282049050600182168061249257607f821691505b602082108114156124a6576124a561244b565b5b50919050565b7f4e487b7100000000000000000000000000000000000000000000000000000000600052601160045260246000fd5b60006124e682611ee6565b91507fffffffffffffffffffffffffffffffffffffffffffffffffffffffffffffffff821415612519576125186124ac565b5b600182019050919050565b600081905092915050565b60008190508160005260206000209050919050565b600081546125518161247a565b61255b8186612524565b945060018216600081146125765760018114612587576125ba565b60ff198316865281860193506125ba565b6125908561252f565b60005b838110156125b257815481890152600182019150602081019050612593565b838801955050505b50505092915050565b60006125cf8284612544565b91508190509291505056fea2646970667358221220bc344b17e35ab615f1464e8a2f8cd70376b6cfe866c70beed898b4f45670644d64736f6c634300080b0033608060405234801561001057600080fd5b5061678380620000216000396000f3fe608060405234801561001057600080fd5b50600436106101415760003560e01c80636cf871df116100b8578063a9846eb01161007c578063a9846eb01461042a578063ac97812f14610462578063b351d17614610497578063bc72af7d146104b3578063d23a4ee1146104e8578063dd8f3edc1461050457610141565b80636cf871df146103695780637829b41e1461038557806384ae9131146103b5578063948195ed146103d95780639fa7247a146103f557610141565b80630f53a4701161010a5780630f53a4701461023257806324e6603714610267578063323cc7c51461029757806344fd6e22146102cc57806349f47a55146102fc5780634b38f2db1461033457610141565b8062220cf7146101465780630265275c1461016257806306ed1e891461019257806309bef62a146101c75780630c3f9882146101fd575b600080fd5b610160600480360381019061015b91906153db565b610520565b005b61017c600480360381019061017791906154d1565b6107e0565b604051610189919061556b565b60405180910390f35b6101ac60048036038101906101a79190615586565b610918565b6040516101be969594939291906157ce565b60405180910390f35b6101e160048036038101906101dc9190615859565b610f8b565b6040516101f497969594939291906158df565b60405180910390f35b61021760048036038101906102129190615586565b61132d565b60405161022996959493929190615b20565b60405180910390f35b61024c60048036038101906102479190615bab565b611a89565b60405161025e96959493929190615bd8565b60405180910390f35b610281600480360381019061027c9190615c5c565b611f07565b60405161028e919061556b565b60405180910390f35b6102b160048036038101906102ac9190615859565b612005565b6040516102c396959493929190615cc7565b60405180910390f35b6102e660048036038101906102e19190615bab565b612236565b6040516102f3919061556b565b60405180910390f35b61031660048036038101906103119190615859565b6122e8565b60405161032b99989796959493929190615d3d565b60405180910390f35b61034e60048036038101906103499190615ddf565b61252b565b60405161036096959493929190615e7e565b60405180910390f35b610383600480360381019061037e9190615ef4565b61297a565b005b61039f600480360381019061039a91906154d1565b612b42565b6040516103ac919061556b565b60405180910390f35b6103bd612c7a565b6040516103d0979695949392919061600d565b60405180910390f35b6103f360048036038101906103ee9190615ddf565b61347e565b005b61040f600480360381019061040a9190615bab565b61368d565b60405161042196959493929190615b20565b60405180910390f35b610444600480360381019061043f9190615859565b613d6c565b60405161045999989796959493929190615d3d565b60405180910390f35b61047c60048036038101906104779190615ddf565b613faf565b60405161048e96959493929190615e7e565b60405180910390f35b6104b160048036038101906104ac91906160d9565b6143fe565b005b6104cd60048036038101906104c89190615586565b6146a5565b6040516104df969594939291906157ce565b60405180910390f35b61050260048036038101906104fd91906153db565b614d18565b005b61051e6004803603810190610519919061615c565b614fd6565b005b6000821015801561053357506101ef8211155b610572576040517f08c379a0000000000000000000000000000000000000000000000000000000008152600401610569906162f2565b60405180910390fd5b6000811015801561058557506101ef8111155b6105c4576040517f08c379a00000000000000000000000000000000000000000000000000000000081526004016105bb9061635e565b60405180910390fd5b600260405180610120016040528087876040516020016105e59291906163ba565b604051602081830303815290604052805190602001207bffffffffffffffffffffffffffffffffffffffffffffffffffffffff191681526020018973ffffffffffffffffffffffffffffffffffffffff1681526020018873ffffffffffffffffffffffffffffffffffffffff1681526020018781526020018681526020018581526020018481526020018381526020018385610681919061640d565b815250908060018154018082558091505060019003906000526020600020906008020160009091909190915060008201518160000160006101000a81548163ffffffff021916908360e01c021790555060208201518160000160046101000a81548173ffffffffffffffffffffffffffffffffffffffff021916908373ffffffffffffffffffffffffffffffffffffffff16021790555060408201518160010160006101000a81548173ffffffffffffffffffffffffffffffffffffffff021916908373ffffffffffffffffffffffffffffffffffffffff160217905550606082015181600201908051906020019061077b92919061514a565b50608082015181600301908051906020019061079892919061514a565b5060a08201518160040190805190602001906107b592919061514a565b5060c0820151816005015560e082015181600601556101008201518160070155505050505050505050565b600080600090505b60028054905081101561090f578473ffffffffffffffffffffffffffffffffffffffff16600282815481106108205761081f616463565b5b906000526020600020906008020160010160009054906101000a900473ffffffffffffffffffffffffffffffffffffffff1673ffffffffffffffffffffffffffffffffffffffff161480156108ed575083836040516020016108839291906163ba565b60405160208183030381529060405280519060200120600282815481106108ad576108ac616463565b5b906000526020600020906008020160000160009054906101000a900460e01b7bffffffffffffffffffffffffffffffffffffffffffffffffffffffff1916145b156108fc576001915050610911565b808061090790616492565b9150506107e8565b505b9392505050565b606080606080606080600060038054905067ffffffffffffffff8111156109425761094161527a565b5b60405190808252806020026020018201604052801561097557816020015b60608152602001906001900390816109605790505b509050600060038054905067ffffffffffffffff8111156109995761099861527a565b5b6040519080825280602002602001820160405280156109cc57816020015b60608152602001906001900390816109b75790505b509050600060038054905067ffffffffffffffff8111156109f0576109ef61527a565b5b604051908082528060200260200182016040528015610a2357816020015b6060815260200190600190039081610a0e5790505b509050600060038054905067ffffffffffffffff811115610a4757610a4661527a565b5b604051908082528060200260200182016040528015610a755781602001602082028036833780820191505090505b509050600060038054905067ffffffffffffffff811115610a9957610a9861527a565b5b604051908082528060200260200182016040528015610ac75781602001602082028036833780820191505090505b509050600060038054905067ffffffffffffffff811115610aeb57610aea61527a565b5b604051908082528060200260200182016040528015610b195781602001602082028036833780820191505090505b50905060005b600380549050811015610f68578e73ffffffffffffffffffffffffffffffffffffffff1660028281548110610b5757610b56616463565b5b906000526020600020906008020160000160049054906101000a900473ffffffffffffffffffffffffffffffffffffffff1673ffffffffffffffffffffffffffffffffffffffff16148015610c1c57508d73ffffffffffffffffffffffffffffffffffffffff1660028281548110610bd257610bd1616463565b5b906000526020600020906008020160010160009054906101000a900473ffffffffffffffffffffffffffffffffffffffff1673ffffffffffffffffffffffffffffffffffffffff16145b15610f555760038181548110610c3557610c34616463565b5b90600052602060002090600802016002018054610c519061650a565b80601f0160208091040260200160405190810160405280929190818152602001828054610c7d9061650a565b8015610cca5780601f10610c9f57610100808354040283529160200191610cca565b820191906000526020600020905b815481529060010190602001808311610cad57829003601f168201915b5050505050878281518110610ce257610ce1616463565b5b602002602001018190525060038181548110610d0157610d00616463565b5b90600052602060002090600802016003018054610d1d9061650a565b80601f0160208091040260200160405190810160405280929190818152602001828054610d499061650a565b8015610d965780601f10610d6b57610100808354040283529160200191610d96565b820191906000526020600020905b815481529060010190602001808311610d7957829003601f168201915b5050505050868281518110610dae57610dad616463565b5b602002602001018190525060038181548110610dcd57610dcc616463565b5b90600052602060002090600802016004018054610de99061650a565b80601f0160208091040260200160405190810160405280929190818152602001828054610e159061650a565b8015610e625780601f10610e3757610100808354040283529160200191610e62565b820191906000526020600020905b815481529060010190602001808311610e4557829003601f168201915b5050505050858281518110610e7a57610e79616463565b5b602002602001018190525060038181548110610e9957610e98616463565b5b906000526020600020906008020160050154848281518110610ebe57610ebd616463565b5b60200260200101818152505060038181548110610ede57610edd616463565b5b906000526020600020906008020160060154838281518110610f0357610f02616463565b5b60200260200101818152505060038181548110610f2357610f22616463565b5b906000526020600020906008020160070154828281518110610f4857610f47616463565b5b6020026020010181815250505b8080610f6090616492565b915050610b1f565b508585858585859b509b509b509b509b509b505050505050509295509295509295565b60008181548110610f9b57600080fd5b90600052602060002090600702016000915090508060000160009054906101000a900473ffffffffffffffffffffffffffffffffffffffff1690806001018054610fe49061650a565b80601f01602080910402602001604051908101604052809291908181526020018280546110109061650a565b801561105d5780601f106110325761010080835404028352916020019161105d565b820191906000526020600020905b81548152906001019060200180831161104057829003601f168201915b5050505050908060020180546110729061650a565b80601f016020809104026020016040519081016040528092919081815260200182805461109e9061650a565b80156110eb5780601f106110c0576101008083540402835291602001916110eb565b820191906000526020600020905b8154815290600101906020018083116110ce57829003601f168201915b5050505050908060030180546111009061650a565b80601f016020809104026020016040519081016040528092919081815260200182805461112c9061650a565b80156111795780601f1061114e57610100808354040283529160200191611179565b820191906000526020600020905b81548152906001019060200180831161115c57829003601f168201915b50505050509080600401805461118e9061650a565b80601f01602080910402602001604051908101604052809291908181526020018280546111ba9061650a565b80156112075780601f106111dc57610100808354040283529160200191611207565b820191906000526020600020905b8154815290600101906020018083116111ea57829003601f168201915b50505050509080600501805461121c9061650a565b80601f01602080910402602001604051908101604052809291908181526020018280546112489061650a565b80156112955780601f1061126a57610100808354040283529160200191611295565b820191906000526020600020905b81548152906001019060200180831161127857829003601f168201915b5050505050908060060180546112aa9061650a565b80601f01602080910402602001604051908101604052809291908181526020018280546112d69061650a565b80156113235780601f106112f857610100808354040283529160200191611323565b820191906000526020600020905b81548152906001019060200180831161130657829003601f168201915b5050505050905087565b606080606080606080600060018054905067ffffffffffffffff8111156113575761135661527a565b5b6040519080825280602002602001820160405280156113855781602001602082028036833780820191505090505b509050600060018054905067ffffffffffffffff8111156113a9576113a861527a565b5b6040519080825280602002602001820160405280156113d75781602001602082028036833780820191505090505b509050600060018054905067ffffffffffffffff8111156113fb576113fa61527a565b5b6040519080825280602002602001820160405280156114295781602001602082028036833780820191505090505b509050600060018054905067ffffffffffffffff81111561144d5761144c61527a565b5b60405190808252806020026020018201604052801561148057816020015b606081526020019060019003908161146b5790505b509050600060018054905067ffffffffffffffff8111156114a4576114a361527a565b5b6040519080825280602002602001820160405280156114d757816020015b60608152602001906001900390816114c25790505b509050600060018054905067ffffffffffffffff8111156114fb576114fa61527a565b5b60405190808252806020026020018201604052801561152e57816020015b60608152602001906001900390816115195790505b50905060005b600180549050811015611a66578e73ffffffffffffffffffffffffffffffffffffffff166001828154811061156c5761156b616463565b5b906000526020600020906005020160010160009054906101000a900473ffffffffffffffffffffffffffffffffffffffff1673ffffffffffffffffffffffffffffffffffffffff1614801561163157508d73ffffffffffffffffffffffffffffffffffffffff16600182815481106115e7576115e6616463565b5b906000526020600020906005020160000160049054906101000a900473ffffffffffffffffffffffffffffffffffffffff1673ffffffffffffffffffffffffffffffffffffffff16145b15611a53576001818154811061164a57611649616463565b5b906000526020600020906005020160000160009054906101000a900460e01b87828151811061167c5761167b616463565b5b60200260200101907bffffffffffffffffffffffffffffffffffffffffffffffffffffffff191690817bffffffffffffffffffffffffffffffffffffffffffffffffffffffff191681525050600181815481106116dc576116db616463565b5b906000526020600020906005020160000160049054906101000a900473ffffffffffffffffffffffffffffffffffffffff1686828151811061172157611720616463565b5b602002602001019073ffffffffffffffffffffffffffffffffffffffff16908173ffffffffffffffffffffffffffffffffffffffff16815250506001818154811061176f5761176e616463565b5b906000526020600020906005020160010160009054906101000a900473ffffffffffffffffffffffffffffffffffffffff168582815181106117b4576117b3616463565b5b602002602001019073ffffffffffffffffffffffffffffffffffffffff16908173ffffffffffffffffffffffffffffffffffffffff16815250506001818154811061180257611801616463565b5b9060005260206000209060050201600201805461181e9061650a565b80601f016020809104026020016040519081016040528092919081815260200182805461184a9061650a565b80156118975780601f1061186c57610100808354040283529160200191611897565b820191906000526020600020905b81548152906001019060200180831161187a57829003601f168201915b50505050508482815181106118af576118ae616463565b5b6020026020010181905250600181815481106118ce576118cd616463565b5b906000526020600020906005020160030180546118ea9061650a565b80601f01602080910402602001604051908101604052809291908181526020018280546119169061650a565b80156119635780601f1061193857610100808354040283529160200191611963565b820191906000526020600020905b81548152906001019060200180831161194657829003601f168201915b505050505083828151811061197b5761197a616463565b5b60200260200101819052506001818154811061199a57611999616463565b5b906000526020600020906005020160040180546119b69061650a565b80601f01602080910402602001604051908101604052809291908181526020018280546119e29061650a565b8015611a2f5780601f10611a0457610100808354040283529160200191611a2f565b820191906000526020600020905b815481529060010190602001808311611a1257829003601f168201915b5050505050828281518110611a4757611a46616463565b5b60200260200101819052505b8080611a5e90616492565b915050611534565b508585858585859b509b509b509b509b509b505050505050509295509295509295565b6000606080606080606060005b600080549050811015611efc578773ffffffffffffffffffffffffffffffffffffffff1660008281548110611ace57611acd616463565b5b906000526020600020906007020160000160009054906101000a900473ffffffffffffffffffffffffffffffffffffffff1673ffffffffffffffffffffffffffffffffffffffff161415611ee95760008181548110611b3057611b2f616463565b5b906000526020600020906007020160000160009054906101000a900473ffffffffffffffffffffffffffffffffffffffff1660008281548110611b7657611b75616463565b5b906000526020600020906007020160010160008381548110611b9b57611b9a616463565b5b906000526020600020906007020160020160008481548110611bc057611bbf616463565b5b906000526020600020906007020160030160008581548110611be557611be4616463565b5b906000526020600020906007020160040160008681548110611c0a57611c09616463565b5b9060005260206000209060070201600501848054611c279061650a565b80601f0160208091040260200160405190810160405280929190818152602001828054611c539061650a565b8015611ca05780601f10611c7557610100808354040283529160200191611ca0565b820191906000526020600020905b815481529060010190602001808311611c8357829003601f168201915b50505050509450838054611cb39061650a565b80601f0160208091040260200160405190810160405280929190818152602001828054611cdf9061650a565b8015611d2c5780601f10611d0157610100808354040283529160200191611d2c565b820191906000526020600020905b815481529060010190602001808311611d0f57829003601f168201915b50505050509350828054611d3f9061650a565b80601f0160208091040260200160405190810160405280929190818152602001828054611d6b9061650a565b8015611db85780601f10611d8d57610100808354040283529160200191611db8565b820191906000526020600020905b815481529060010190602001808311611d9b57829003601f168201915b50505050509250818054611dcb9061650a565b80601f0160208091040260200160405190810160405280929190818152602001828054611df79061650a565b8015611e445780601f10611e1957610100808354040283529160200191611e44565b820191906000526020600020905b815481529060010190602001808311611e2757829003601f168201915b50505050509150808054611e579061650a565b80601f0160208091040260200160405190810160405280929190818152602001828054611e839061650a565b8015611ed05780601f10611ea557610100808354040283529160200191611ed0565b820191906000526020600020905b815481529060010190602001808311611eb357829003601f168201915b5050505050905096509650965096509650965050611efe565b8080611ef490616492565b915050611a96565b505b91939550919395565b600080600090505b600080549050811015611ffd578373ffffffffffffffffffffffffffffffffffffffff1660008281548110611f4757611f46616463565b5b906000526020600020906007020160000160009054906101000a900473ffffffffffffffffffffffffffffffffffffffff1673ffffffffffffffffffffffffffffffffffffffff16148015611fdb5750828051906020012060008281548110611fb357611fb2616463565b5b9060005260206000209060070201600601604051611fd191906165db565b6040518091039020145b15611fea576001915050611fff565b8080611ff590616492565b915050611f0f565b505b92915050565b6001818154811061201557600080fd5b90600052602060002090600502016000915090508060000160009054906101000a900460e01b908060000160049054906101000a900473ffffffffffffffffffffffffffffffffffffffff16908060010160009054906101000a900473ffffffffffffffffffffffffffffffffffffffff16908060020180546120979061650a565b80601f01602080910402602001604051908101604052809291908181526020018280546120c39061650a565b80156121105780601f106120e557610100808354040283529160200191612110565b820191906000526020600020905b8154815290600101906020018083116120f357829003601f168201915b5050505050908060030180546121259061650a565b80601f01602080910402602001604051908101604052809291908181526020018280546121519061650a565b801561219e5780601f106121735761010080835404028352916020019161219e565b820191906000526020600020905b81548152906001019060200180831161218157829003601f168201915b5050505050908060040180546121b39061650a565b80601f01602080910402602001604051908101604052809291908181526020018280546121df9061650a565b801561222c5780601f106122015761010080835404028352916020019161222c565b820191906000526020600020905b81548152906001019060200180831161220f57829003601f168201915b5050505050905086565b600080600090505b6000805490508110156122e1578273ffffffffffffffffffffffffffffffffffffffff166000828154811061227657612275616463565b5b906000526020600020906007020160000160009054906101000a900473ffffffffffffffffffffffffffffffffffffffff1673ffffffffffffffffffffffffffffffffffffffff1614156122ce5760019150506122e3565b80806122d990616492565b91505061223e565b505b919050565b600381815481106122f857600080fd5b90600052602060002090600802016000915090508060000160009054906101000a900460e01b908060000160049054906101000a900473ffffffffffffffffffffffffffffffffffffffff16908060010160009054906101000a900473ffffffffffffffffffffffffffffffffffffffff169080600201805461237a9061650a565b80601f01602080910402602001604051908101604052809291908181526020018280546123a69061650a565b80156123f35780601f106123c8576101008083540402835291602001916123f3565b820191906000526020600020905b8154815290600101906020018083116123d657829003601f168201915b5050505050908060030180546124089061650a565b80601f01602080910402602001604051908101604052809291908181526020018280546124349061650a565b80156124815780601f1061245657610100808354040283529160200191612481565b820191906000526020600020905b81548152906001019060200180831161246457829003601f168201915b5050505050908060040180546124969061650a565b80601f01602080910402602001604051908101604052809291908181526020018280546124c29061650a565b801561250f5780601f106124e45761010080835404028352916020019161250f565b820191906000526020600020905b8154815290600101906020018083116124f257829003601f168201915b5050505050908060050154908060060154908060070154905089565b6060806060600080600080600090505b60038054905081101561296b578a73ffffffffffffffffffffffffffffffffffffffff166003828154811061257357612572616463565b5b906000526020600020906008020160000160049054906101000a900473ffffffffffffffffffffffffffffffffffffffff1673ffffffffffffffffffffffffffffffffffffffff1614801561263857508973ffffffffffffffffffffffffffffffffffffffff16600382815481106125ee576125ed616463565b5b906000526020600020906008020160010160009054906101000a900473ffffffffffffffffffffffffffffffffffffffff1673ffffffffffffffffffffffffffffffffffffffff16145b80156126bc575088886040516020016126529291906163ba565b604051602081830303815290604052805190602001206003828154811061267c5761267b616463565b5b906000526020600020906008020160000160009054906101000a900460e01b7bffffffffffffffffffffffffffffffffffffffffffffffffffffffff1916145b1561295857600381815481106126d5576126d4616463565b5b9060005260206000209060080201600201600382815481106126fa576126f9616463565b5b90600052602060002090600802016003016003838154811061271f5761271e616463565b5b90600052602060002090600802016004016003848154811061274457612743616463565b5b9060005260206000209060080201600501546003858154811061276a57612769616463565b5b906000526020600020906008020160060154600386815481106127905761278f616463565b5b9060005260206000209060080201600701548580546127ae9061650a565b80601f01602080910402602001604051908101604052809291908181526020018280546127da9061650a565b80156128275780601f106127fc57610100808354040283529160200191612827565b820191906000526020600020905b81548152906001019060200180831161280a57829003601f168201915b5050505050955084805461283a9061650a565b80601f01602080910402602001604051908101604052809291908181526020018280546128669061650a565b80156128b35780601f10612888576101008083540402835291602001916128b3565b820191906000526020600020905b81548152906001019060200180831161289657829003601f168201915b505050505094508380546128c69061650a565b80601f01602080910402602001604051908101604052809291908181526020018280546128f29061650a565b801561293f5780601f106129145761010080835404028352916020019161293f565b820191906000526020600020905b81548152906001019060200180831161292257829003601f168201915b505050505093509650965096509650965096505061296d565b808061296390616492565b91505061253b565b505b9499939850945094509450565b60005b600080549050811015612b39578673ffffffffffffffffffffffffffffffffffffffff16600082815481106129b5576129b4616463565b5b906000526020600020906007020160000160009054906101000a900473ffffffffffffffffffffffffffffffffffffffff1673ffffffffffffffffffffffffffffffffffffffff161415612b26578560008281548110612a1857612a17616463565b5b90600052602060002090600702016001019080519060200190612a3c92919061514a565b508460008281548110612a5257612a51616463565b5b90600052602060002090600702016002019080519060200190612a7692919061514a565b508360008281548110612a8c57612a8b616463565b5b90600052602060002090600702016003019080519060200190612ab092919061514a565b508260008281548110612ac657612ac5616463565b5b90600052602060002090600702016004019080519060200190612aea92919061514a565b508160008281548110612b0057612aff616463565b5b90600052602060002090600702016005019080519060200190612b2492919061514a565b505b8080612b3190616492565b91505061297d565b50505050505050565b600080600090505b600380549050811015612c71578473ffffffffffffffffffffffffffffffffffffffff1660028281548110612b8257612b81616463565b5b906000526020600020906008020160010160009054906101000a900473ffffffffffffffffffffffffffffffffffffffff1673ffffffffffffffffffffffffffffffffffffffff16148015612c4f57508383604051602001612be59291906163ba565b6040516020818303038152906040528051906020012060028281548110612c0f57612c0e616463565b5b906000526020600020906008020160000160009054906101000a900460e01b7bffffffffffffffffffffffffffffffffffffffffffffffffffffffff1916145b15612c5e576001915050612c73565b8080612c6990616492565b915050612b4a565b505b9392505050565b60608060608060608060606000808054905067ffffffffffffffff811115612ca557612ca461527a565b5b604051908082528060200260200182016040528015612cd35781602001602082028036833780820191505090505b5090506000808054905067ffffffffffffffff811115612cf657612cf561527a565b5b604051908082528060200260200182016040528015612d2957816020015b6060815260200190600190039081612d145790505b5090506000808054905067ffffffffffffffff811115612d4c57612d4b61527a565b5b604051908082528060200260200182016040528015612d7f57816020015b6060815260200190600190039081612d6a5790505b5090506000808054905067ffffffffffffffff811115612da257612da161527a565b5b604051908082528060200260200182016040528015612dd557816020015b6060815260200190600190039081612dc05790505b5090506000808054905067ffffffffffffffff811115612df857612df761527a565b5b604051908082528060200260200182016040528015612e2b57816020015b6060815260200190600190039081612e165790505b5090506000808054905067ffffffffffffffff811115612e4e57612e4d61527a565b5b604051908082528060200260200182016040528015612e8157816020015b6060815260200190600190039081612e6c5790505b5090506000808054905067ffffffffffffffff811115612ea457612ea361527a565b5b604051908082528060200260200182016040528015612ed757816020015b6060815260200190600190039081612ec25790505b50905060005b6000805490508110156134585760008181548110612efe57612efd616463565b5b906000526020600020906007020160000160009054906101000a900473ffffffffffffffffffffffffffffffffffffffff16888281518110612f4357612f42616463565b5b602002602001019073ffffffffffffffffffffffffffffffffffffffff16908173ffffffffffffffffffffffffffffffffffffffff168152505060008181548110612f9157612f90616463565b5b90600052602060002090600702016001018054612fad9061650a565b80601f0160208091040260200160405190810160405280929190818152602001828054612fd99061650a565b80156130265780601f10612ffb57610100808354040283529160200191613026565b820191906000526020600020905b81548152906001019060200180831161300957829003601f168201915b505050505087828151811061303e5761303d616463565b5b60200260200101819052506000818154811061305d5761305c616463565b5b906000526020600020906007020160020180546130799061650a565b80601f01602080910402602001604051908101604052809291908181526020018280546130a59061650a565b80156130f25780601f106130c7576101008083540402835291602001916130f2565b820191906000526020600020905b8154815290600101906020018083116130d557829003601f168201915b505050505086828151811061310a57613109616463565b5b60200260200101819052506000818154811061312957613128616463565b5b906000526020600020906007020160030180546131459061650a565b80601f01602080910402602001604051908101604052809291908181526020018280546131719061650a565b80156131be5780601f10613193576101008083540402835291602001916131be565b820191906000526020600020905b8154815290600101906020018083116131a157829003601f168201915b50505050508582815181106131d6576131d5616463565b5b6020026020010181905250600081815481106131f5576131f4616463565b5b906000526020600020906007020160040180546132119061650a565b80601f016020809104026020016040519081016040528092919081815260200182805461323d9061650a565b801561328a5780601f1061325f5761010080835404028352916020019161328a565b820191906000526020600020905b81548152906001019060200180831161326d57829003601f168201915b50505050508482815181106132a2576132a1616463565b5b6020026020010181905250600081815481106132c1576132c0616463565b5b906000526020600020906007020160050180546132dd9061650a565b80601f01602080910402602001604051908101604052809291908181526020018280546133099061650a565b80156133565780601f1061332b57610100808354040283529160200191613356565b820191906000526020600020905b81548152906001019060200180831161333957829003601f168201915b505050505083828151811061336e5761336d616463565b5b60200260200101819052506000818154811061338d5761338c616463565b5b906000526020600020906007020160060180546133a99061650a565b80601f01602080910402602001604051908101604052809291908181526020018280546133d59061650a565b80156134225780601f106133f757610100808354040283529160200191613422565b820191906000526020600020905b81548152906001019060200180831161340557829003601f168201915b505050505082828151811061343a57613439616463565b5b6020026020010181905250808061345090616492565b915050612edd565b50868686868686869d509d509d509d509d509d509d505050505050505090919293949596565b60016040518060c001604052808360405160200161349c91906165f2565b604051602081830303815290604052805190602001207bffffffffffffffffffffffffffffffffffffffffffffffffffffffff191681526020018673ffffffffffffffffffffffffffffffffffffffff1681526020018573ffffffffffffffffffffffffffffffffffffffff1681526020018481526020018381526020016040518060400160405280600781526020017f57616974696e6700000000000000000000000000000000000000000000000000815250815250908060018154018082558091505060019003906000526020600020906005020160009091909190915060008201518160000160006101000a81548163ffffffff021916908360e01c021790555060208201518160000160046101000a81548173ffffffffffffffffffffffffffffffffffffffff021916908373ffffffffffffffffffffffffffffffffffffffff16021790555060408201518160010160006101000a81548173ffffffffffffffffffffffffffffffffffffffff021916908373ffffffffffffffffffffffffffffffffffffffff160217905550606082015181600201908051906020019061364a92919061514a565b50608082015181600301908051906020019061366792919061514a565b5060a082015181600401908051906020019061368492919061514a565b50505050505050565b606080606080606080600060018054905067ffffffffffffffff8111156136b7576136b661527a565b5b6040519080825280602002602001820160405280156136e55781602001602082028036833780820191505090505b509050600060018054905067ffffffffffffffff8111156137095761370861527a565b5b6040519080825280602002602001820160405280156137375781602001602082028036833780820191505090505b509050600060018054905067ffffffffffffffff81111561375b5761375a61527a565b5b6040519080825280602002602001820160405280156137895781602001602082028036833780820191505090505b509050600060018054905067ffffffffffffffff8111156137ad576137ac61527a565b5b6040519080825280602002602001820160405280156137e057816020015b60608152602001906001900390816137cb5790505b509050600060018054905067ffffffffffffffff8111156138045761380361527a565b5b60405190808252806020026020018201604052801561383757816020015b60608152602001906001900390816138225790505b509050600060018054905067ffffffffffffffff81111561385b5761385a61527a565b5b60405190808252806020026020018201604052801561388e57816020015b60608152602001906001900390816138795790505b50905060005b600180549050811015613d4a578d73ffffffffffffffffffffffffffffffffffffffff16600182815481106138cc576138cb616463565b5b906000526020600020906005020160010160009054906101000a900473ffffffffffffffffffffffffffffffffffffffff1673ffffffffffffffffffffffffffffffffffffffff161415613d37576001818154811061392e5761392d616463565b5b906000526020600020906005020160000160009054906101000a900460e01b8782815181106139605761395f616463565b5b60200260200101907bffffffffffffffffffffffffffffffffffffffffffffffffffffffff191690817bffffffffffffffffffffffffffffffffffffffffffffffffffffffff191681525050600181815481106139c0576139bf616463565b5b906000526020600020906005020160000160049054906101000a900473ffffffffffffffffffffffffffffffffffffffff16868281518110613a0557613a04616463565b5b602002602001019073ffffffffffffffffffffffffffffffffffffffff16908173ffffffffffffffffffffffffffffffffffffffff168152505060018181548110613a5357613a52616463565b5b906000526020600020906005020160010160009054906101000a900473ffffffffffffffffffffffffffffffffffffffff16858281518110613a9857613a97616463565b5b602002602001019073ffffffffffffffffffffffffffffffffffffffff16908173ffffffffffffffffffffffffffffffffffffffff168152505060018181548110613ae657613ae5616463565b5b90600052602060002090600502016002018054613b029061650a565b80601f0160208091040260200160405190810160405280929190818152602001828054613b2e9061650a565b8015613b7b5780601f10613b5057610100808354040283529160200191613b7b565b820191906000526020600020905b815481529060010190602001808311613b5e57829003601f168201915b5050505050848281518110613b9357613b92616463565b5b602002602001018190525060018181548110613bb257613bb1616463565b5b90600052602060002090600502016003018054613bce9061650a565b80601f0160208091040260200160405190810160405280929190818152602001828054613bfa9061650a565b8015613c475780601f10613c1c57610100808354040283529160200191613c47565b820191906000526020600020905b815481529060010190602001808311613c2a57829003601f168201915b5050505050838281518110613c5f57613c5e616463565b5b602002602001018190525060018181548110613c7e57613c7d616463565b5b90600052602060002090600502016004018054613c9a9061650a565b80601f0160208091040260200160405190810160405280929190818152602001828054613cc69061650a565b8015613d135780601f10613ce857610100808354040283529160200191613d13565b820191906000526020600020905b815481529060010190602001808311613cf657829003601f168201915b5050505050828281518110613d2b57613d2a616463565b5b60200260200101819052505b8080613d4290616492565b915050613894565b508585858585859b509b509b509b509b509b5050505050505091939550919395565b60028181548110613d7c57600080fd5b90600052602060002090600802016000915090508060000160009054906101000a900460e01b908060000160049054906101000a900473ffffffffffffffffffffffffffffffffffffffff16908060010160009054906101000a900473ffffffffffffffffffffffffffffffffffffffff1690806002018054613dfe9061650a565b80601f0160208091040260200160405190810160405280929190818152602001828054613e2a9061650a565b8015613e775780601f10613e4c57610100808354040283529160200191613e77565b820191906000526020600020905b815481529060010190602001808311613e5a57829003601f168201915b505050505090806003018054613e8c9061650a565b80601f0160208091040260200160405190810160405280929190818152602001828054613eb89061650a565b8015613f055780601f10613eda57610100808354040283529160200191613f05565b820191906000526020600020905b815481529060010190602001808311613ee857829003601f168201915b505050505090806004018054613f1a9061650a565b80601f0160208091040260200160405190810160405280929190818152602001828054613f469061650a565b8015613f935780601f10613f6857610100808354040283529160200191613f93565b820191906000526020600020905b815481529060010190602001808311613f7657829003601f168201915b5050505050908060050154908060060154908060070154905089565b6060806060600080600080600090505b6002805490508110156143ef578a73ffffffffffffffffffffffffffffffffffffffff1660028281548110613ff757613ff6616463565b5b906000526020600020906008020160000160049054906101000a900473ffffffffffffffffffffffffffffffffffffffff1673ffffffffffffffffffffffffffffffffffffffff161480156140bc57508973ffffffffffffffffffffffffffffffffffffffff166002828154811061407257614071616463565b5b906000526020600020906008020160010160009054906101000a900473ffffffffffffffffffffffffffffffffffffffff1673ffffffffffffffffffffffffffffffffffffffff16145b8015614140575088886040516020016140d69291906163ba565b6040516020818303038152906040528051906020012060028281548110614100576140ff616463565b5b906000526020600020906008020160000160009054906101000a900460e01b7bffffffffffffffffffffffffffffffffffffffffffffffffffffffff1916145b156143dc576002818154811061415957614158616463565b5b90600052602060002090600802016002016002828154811061417e5761417d616463565b5b9060005260206000209060080201600301600283815481106141a3576141a2616463565b5b9060005260206000209060080201600401600284815481106141c8576141c7616463565b5b906000526020600020906008020160050154600285815481106141ee576141ed616463565b5b9060005260206000209060080201600601546002868154811061421457614213616463565b5b9060005260206000209060080201600701548580546142329061650a565b80601f016020809104026020016040519081016040528092919081815260200182805461425e9061650a565b80156142ab5780601f10614280576101008083540402835291602001916142ab565b820191906000526020600020905b81548152906001019060200180831161428e57829003601f168201915b505050505095508480546142be9061650a565b80601f01602080910402602001604051908101604052809291908181526020018280546142ea9061650a565b80156143375780601f1061430c57610100808354040283529160200191614337565b820191906000526020600020905b81548152906001019060200180831161431a57829003601f168201915b5050505050945083805461434a9061650a565b80601f01602080910402602001604051908101604052809291908181526020018280546143769061650a565b80156143c35780601f10614398576101008083540402835291602001916143c3565b820191906000526020600020905b8154815290600101906020018083116143a657829003601f168201915b50505050509350965096509650965096509650506143f1565b80806143e790616492565b915050613fbf565b505b9499939850945094509450565b6040518060400160405280600881526020017f4163636570746564000000000000000000000000000000000000000000000000815250805190602001208180519060200120148061449157506040518060400160405280600881526020017f4465636c696e6564000000000000000000000000000000000000000000000000815250805190602001208180519060200120145b6144d0576040517f08c379a00000000000000000000000000000000000000000000000000000000081526004016144c790616655565b60405180910390fd5b60005b60018054905081101561469e578473ffffffffffffffffffffffffffffffffffffffff166001828154811061450b5761450a616463565b5b906000526020600020906005020160000160049054906101000a900473ffffffffffffffffffffffffffffffffffffffff1673ffffffffffffffffffffffffffffffffffffffff161480156145d057508373ffffffffffffffffffffffffffffffffffffffff166001828154811061458657614585616463565b5b906000526020600020906005020160010160009054906101000a900473ffffffffffffffffffffffffffffffffffffffff1673ffffffffffffffffffffffffffffffffffffffff16145b801561464b5750827bffffffffffffffffffffffffffffffffffffffffffffffffffffffff19166001828154811061460b5761460a616463565b5b906000526020600020906005020160000160009054906101000a900460e01b7bffffffffffffffffffffffffffffffffffffffffffffffffffffffff1916145b1561468b57816001828154811061466557614664616463565b5b9060005260206000209060050201600401908051906020019061468992919061514a565b505b808061469690616492565b9150506144d3565b5050505050565b606080606080606080600060028054905067ffffffffffffffff8111156146cf576146ce61527a565b5b60405190808252806020026020018201604052801561470257816020015b60608152602001906001900390816146ed5790505b509050600060028054905067ffffffffffffffff8111156147265761472561527a565b5b60405190808252806020026020018201604052801561475957816020015b60608152602001906001900390816147445790505b509050600060028054905067ffffffffffffffff81111561477d5761477c61527a565b5b6040519080825280602002602001820160405280156147b057816020015b606081526020019060019003908161479b5790505b509050600060028054905067ffffffffffffffff8111156147d4576147d361527a565b5b6040519080825280602002602001820160405280156148025781602001602082028036833780820191505090505b509050600060028054905067ffffffffffffffff8111156148265761482561527a565b5b6040519080825280602002602001820160405280156148545781602001602082028036833780820191505090505b509050600060028054905067ffffffffffffffff8111156148785761487761527a565b5b6040519080825280602002602001820160405280156148a65781602001602082028036833780820191505090505b50905060005b600280549050811015614cf5578e73ffffffffffffffffffffffffffffffffffffffff16600282815481106148e4576148e3616463565b5b906000526020600020906008020160000160049054906101000a900473ffffffffffffffffffffffffffffffffffffffff1673ffffffffffffffffffffffffffffffffffffffff161480156149a957508d73ffffffffffffffffffffffffffffffffffffffff166002828154811061495f5761495e616463565b5b906000526020600020906008020160010160009054906101000a900473ffffffffffffffffffffffffffffffffffffffff1673ffffffffffffffffffffffffffffffffffffffff16145b15614ce257600281815481106149c2576149c1616463565b5b906000526020600020906008020160020180546149de9061650a565b80601f0160208091040260200160405190810160405280929190818152602001828054614a0a9061650a565b8015614a575780601f10614a2c57610100808354040283529160200191614a57565b820191906000526020600020905b815481529060010190602001808311614a3a57829003601f168201915b5050505050878281518110614a6f57614a6e616463565b5b602002602001018190525060028181548110614a8e57614a8d616463565b5b90600052602060002090600802016003018054614aaa9061650a565b80601f0160208091040260200160405190810160405280929190818152602001828054614ad69061650a565b8015614b235780601f10614af857610100808354040283529160200191614b23565b820191906000526020600020905b815481529060010190602001808311614b0657829003601f168201915b5050505050868281518110614b3b57614b3a616463565b5b602002602001018190525060028181548110614b5a57614b59616463565b5b90600052602060002090600802016004018054614b769061650a565b80601f0160208091040260200160405190810160405280929190818152602001828054614ba29061650a565b8015614bef5780601f10614bc457610100808354040283529160200191614bef565b820191906000526020600020905b815481529060010190602001808311614bd257829003601f168201915b5050505050858281518110614c0757614c06616463565b5b602002602001018190525060028181548110614c2657614c25616463565b5b906000526020600020906008020160050154848281518110614c4b57614c4a616463565b5b60200260200101818152505060028181548110614c6b57614c6a616463565b5b906000526020600020906008020160060154838281518110614c9057614c8f616463565b5b60200260200101818152505060028181548110614cb057614caf616463565b5b906000526020600020906008020160070154828281518110614cd557614cd4616463565b5b6020026020010181815250505b8080614ced90616492565b9150506148ac565b508585858585859b509b509b509b509b509b505050505050509295509295509295565b60008210158015614d2a575060c88211155b614d69576040517f08c379a0000000000000000000000000000000000000000000000000000000008152600401614d60906166c1565b60405180910390fd5b60008110158015614d7b575060c88111155b614dba576040517f08c379a0000000000000000000000000000000000000000000000000000000008152600401614db19061672d565b60405180910390fd5b60036040518061012001604052808787604051602001614ddb9291906163ba565b604051602081830303815290604052805190602001207bffffffffffffffffffffffffffffffffffffffffffffffffffffffff191681526020018973ffffffffffffffffffffffffffffffffffffffff1681526020018873ffffffffffffffffffffffffffffffffffffffff1681526020018781526020018681526020018581526020018481526020018381526020018385614e77919061640d565b815250908060018154018082558091505060019003906000526020600020906008020160009091909190915060008201518160000160006101000a81548163ffffffff021916908360e01c021790555060208201518160000160046101000a81548173ffffffffffffffffffffffffffffffffffffffff021916908373ffffffffffffffffffffffffffffffffffffffff16021790555060408201518160010160006101000a81548173ffffffffffffffffffffffffffffffffffffffff021916908373ffffffffffffffffffffffffffffffffffffffff1602179055506060820151816002019080519060200190614f7192919061514a565b506080820151816003019080519060200190614f8e92919061514a565b5060a0820151816004019080519060200190614fab92919061514a565b5060c0820151816005015560e082015181600601556101008201518160070155505050505050505050565b60006040518060e001604052808973ffffffffffffffffffffffffffffffffffffffff16815260200188815260200187815260200186815260200185815260200184815260200183815250908060018154018082558091505060019003906000526020600020906007020160009091909190915060008201518160000160006101000a81548173ffffffffffffffffffffffffffffffffffffffff021916908373ffffffffffffffffffffffffffffffffffffffff16021790555060208201518160010190805190602001906150ad92919061514a565b5060408201518160020190805190602001906150ca92919061514a565b5060608201518160030190805190602001906150e792919061514a565b50608082015181600401908051906020019061510492919061514a565b5060a082015181600501908051906020019061512192919061514a565b5060c082015181600601908051906020019061513e92919061514a565b50505050505050505050565b8280546151569061650a565b90600052602060002090601f01602090048101928261517857600085556151bf565b82601f1061519157805160ff19168380011785556151bf565b828001600101855582156151bf579182015b828111156151be5782518255916020019190600101906151a3565b5b5090506151cc91906151d0565b5090565b5b808211156151e95760008160009055506001016151d1565b5090565b6000604051905090565b600080fd5b600080fd5b600073ffffffffffffffffffffffffffffffffffffffff82169050919050565b600061522c82615201565b9050919050565b61523c81615221565b811461524757600080fd5b50565b60008135905061525981615233565b92915050565b600080fd5b600080fd5b6000601f19601f8301169050919050565b7f4e487b7100000000000000000000000000000000000000000000000000000000600052604160045260246000fd5b6152b282615269565b810181811067ffffffffffffffff821117156152d1576152d061527a565b5b80604052505050565b60006152e46151ed565b90506152f082826152a9565b919050565b600067ffffffffffffffff8211156153105761530f61527a565b5b61531982615269565b9050602081019050919050565b82818337600083830152505050565b6000615348615343846152f5565b6152da565b90508281526020810184848401111561536457615363615264565b5b61536f848285615326565b509392505050565b600082601f83011261538c5761538b61525f565b5b813561539c848260208601615335565b91505092915050565b6000819050919050565b6153b8816153a5565b81146153c357600080fd5b50565b6000813590506153d5816153af565b92915050565b600080600080600080600060e0888a0312156153fa576153f96151f7565b5b60006154088a828b0161524a565b97505060206154198a828b0161524a565b965050604088013567ffffffffffffffff81111561543a576154396151fc565b5b6154468a828b01615377565b955050606088013567ffffffffffffffff811115615467576154666151fc565b5b6154738a828b01615377565b945050608088013567ffffffffffffffff811115615494576154936151fc565b5b6154a08a828b01615377565b93505060a06154b18a828b016153c6565b92505060c06154c28a828b016153c6565b91505092959891949750929550565b6000806000606084860312156154ea576154e96151f7565b5b60006154f88682870161524a565b935050602084013567ffffffffffffffff811115615519576155186151fc565b5b61552586828701615377565b925050604084013567ffffffffffffffff811115615546576155456151fc565b5b61555286828701615377565b9150509250925092565b615565816153a5565b82525050565b6000602082019050615580600083018461555c565b92915050565b6000806040838503121561559d5761559c6151f7565b5b60006155ab8582860161524a565b92505060206155bc8582860161524a565b9150509250929050565b600081519050919050565b600082825260208201905092915050565b6000819050602082019050919050565b600081519050919050565b600082825260208201905092915050565b60005b8381101561562c578082015181840152602081019050615611565b8381111561563b576000848401525b50505050565b600061564c826155f2565b61565681856155fd565b935061566681856020860161560e565b61566f81615269565b840191505092915050565b60006156868383615641565b905092915050565b6000602082019050919050565b60006156a6826155c6565b6156b081856155d1565b9350836020820285016156c2856155e2565b8060005b858110156156fe57848403895281516156df858261567a565b94506156ea8361568e565b925060208a019950506001810190506156c6565b50829750879550505050505092915050565b600081519050919050565b600082825260208201905092915050565b6000819050602082019050919050565b615745816153a5565b82525050565b6000615757838361573c565b60208301905092915050565b6000602082019050919050565b600061577b82615710565b615785818561571b565b93506157908361572c565b8060005b838110156157c15781516157a8888261574b565b97506157b383615763565b925050600181019050615794565b5085935050505092915050565b600060c08201905081810360008301526157e8818961569b565b905081810360208301526157fc818861569b565b90508181036040830152615810818761569b565b905081810360608301526158248186615770565b905081810360808301526158388185615770565b905081810360a083015261584c8184615770565b9050979650505050505050565b60006020828403121561586f5761586e6151f7565b5b600061587d848285016153c6565b91505092915050565b61588f81615221565b82525050565b600082825260208201905092915050565b60006158b1826155f2565b6158bb8185615895565b93506158cb81856020860161560e565b6158d481615269565b840191505092915050565b600060e0820190506158f4600083018a615886565b818103602083015261590681896158a6565b9050818103604083015261591a81886158a6565b9050818103606083015261592e81876158a6565b9050818103608083015261594281866158a6565b905081810360a083015261595681856158a6565b905081810360c083015261596a81846158a6565b905098975050505050505050565b600081519050919050565b600082825260208201905092915050565b6000819050602082019050919050565b60007fffffffff0000000000000000000000000000000000000000000000000000000082169050919050565b6159d9816159a4565b82525050565b60006159eb83836159d0565b60208301905092915050565b6000602082019050919050565b6000615a0f82615978565b615a198185615983565b9350615a2483615994565b8060005b83811015615a55578151615a3c88826159df565b9750615a47836159f7565b925050600181019050615a28565b5085935050505092915050565b600081519050919050565b600082825260208201905092915050565b6000819050602082019050919050565b615a9781615221565b82525050565b6000615aa98383615a8e565b60208301905092915050565b6000602082019050919050565b6000615acd82615a62565b615ad78185615a6d565b9350615ae283615a7e565b8060005b83811015615b13578151615afa8882615a9d565b9750615b0583615ab5565b925050600181019050615ae6565b5085935050505092915050565b600060c0820190508181036000830152615b3a8189615a04565b90508181036020830152615b4e8188615ac2565b90508181036040830152615b628187615ac2565b90508181036060830152615b76818661569b565b90508181036080830152615b8a818561569b565b905081810360a0830152615b9e818461569b565b9050979650505050505050565b600060208284031215615bc157615bc06151f7565b5b6000615bcf8482850161524a565b91505092915050565b600060c082019050615bed6000830189615886565b8181036020830152615bff81886158a6565b90508181036040830152615c1381876158a6565b90508181036060830152615c2781866158a6565b90508181036080830152615c3b81856158a6565b905081810360a0830152615c4f81846158a6565b9050979650505050505050565b60008060408385031215615c7357615c726151f7565b5b6000615c818582860161524a565b925050602083013567ffffffffffffffff811115615ca257615ca16151fc565b5b615cae85828601615377565b9150509250929050565b615cc1816159a4565b82525050565b600060c082019050615cdc6000830189615cb8565b615ce96020830188615886565b615cf66040830187615886565b8181036060830152615d0881866158a6565b90508181036080830152615d1c81856158a6565b905081810360a0830152615d3081846158a6565b9050979650505050505050565b600061012082019050615d53600083018c615cb8565b615d60602083018b615886565b615d6d604083018a615886565b8181036060830152615d7f81896158a6565b90508181036080830152615d9381886158a6565b905081810360a0830152615da781876158a6565b9050615db660c083018661555c565b615dc360e083018561555c565b615dd161010083018461555c565b9a9950505050505050505050565b60008060008060808587031215615df957615df86151f7565b5b6000615e078782880161524a565b9450506020615e188782880161524a565b935050604085013567ffffffffffffffff811115615e3957615e386151fc565b5b615e4587828801615377565b925050606085013567ffffffffffffffff811115615e6657615e656151fc565b5b615e7287828801615377565b91505092959194509250565b600060c0820190508181036000830152615e9881896158a6565b90508181036020830152615eac81886158a6565b90508181036040830152615ec081876158a6565b9050615ecf606083018661555c565b615edc608083018561555c565b615ee960a083018461555c565b979650505050505050565b60008060008060008060c08789031215615f1157615f106151f7565b5b6000615f1f89828a0161524a565b965050602087013567ffffffffffffffff811115615f4057615f3f6151fc565b5b615f4c89828a01615377565b955050604087013567ffffffffffffffff811115615f6d57615f6c6151fc565b5b615f7989828a01615377565b945050606087013567ffffffffffffffff811115615f9a57615f996151fc565b5b615fa689828a01615377565b935050608087013567ffffffffffffffff811115615fc757615fc66151fc565b5b615fd389828a01615377565b92505060a087013567ffffffffffffffff811115615ff457615ff36151fc565b5b61600089828a01615377565b9150509295509295509295565b600060e0820190508181036000830152616027818a615ac2565b9050818103602083015261603b818961569b565b9050818103604083015261604f818861569b565b90508181036060830152616063818761569b565b90508181036080830152616077818661569b565b905081810360a083015261608b818561569b565b905081810360c083015261609f818461569b565b905098975050505050505050565b6160b6816159a4565b81146160c157600080fd5b50565b6000813590506160d3816160ad565b92915050565b600080600080608085870312156160f3576160f26151f7565b5b60006161018782880161524a565b94505060206161128782880161524a565b9350506040616123878288016160c4565b925050606085013567ffffffffffffffff811115616144576161436151fc565b5b61615087828801615377565b91505092959194509250565b600080600080600080600060e0888a03121561617b5761617a6151f7565b5b60006161898a828b0161524a565b975050602088013567ffffffffffffffff8111156161aa576161a96151fc565b5b6161b68a828b01615377565b965050604088013567ffffffffffffffff8111156161d7576161d66151fc565b5b6161e38a828b01615377565b955050606088013567ffffffffffffffff811115616204576162036151fc565b5b6162108a828b01615377565b945050608088013567ffffffffffffffff811115616231576162306151fc565b5b61623d8a828b01615377565b93505060a088013567ffffffffffffffff81111561625e5761625d6151fc565b5b61626a8a828b01615377565b92505060c088013567ffffffffffffffff81111561628b5761628a6151fc565b5b6162978a828b01615377565b91505092959891949750929550565b7f4c697374656e696e672053636f726520696e636f72726563742e000000000000600082015250565b60006162dc601a83615895565b91506162e7826162a6565b602082019050919050565b6000602082019050818103600083015261630b816162cf565b9050919050565b7f52656164696e672053636f726520696e636f72726563742e0000000000000000600082015250565b6000616348601883615895565b915061635382616312565b602082019050919050565b600060208201905081810360008301526163778161633b565b9050919050565b600081905092915050565b6000616394826155f2565b61639e818561637e565b93506163ae81856020860161560e565b80840191505092915050565b60006163c68285616389565b91506163d28284616389565b91508190509392505050565b7f4e487b7100000000000000000000000000000000000000000000000000000000600052601160045260246000fd5b6000616418826153a5565b9150616423836153a5565b9250827fffffffffffffffffffffffffffffffffffffffffffffffffffffffffffffffff03821115616458576164576163de565b5b828201905092915050565b7f4e487b7100000000000000000000000000000000000000000000000000000000600052603260045260246000fd5b600061649d826153a5565b91507fffffffffffffffffffffffffffffffffffffffffffffffffffffffffffffffff8214156164d0576164cf6163de565b5b600182019050919050565b7f4e487b7100000000000000000000000000000000000000000000000000000000600052602260045260246000fd5b6000600282049050600182168061652257607f821691505b60208210811415616536576165356164db565b5b50919050565b600081905092915050565b60008190508160005260206000209050919050565b600081546165698161650a565b616573818661653c565b9450600182166000811461658e576001811461659f576165d2565b60ff198316865281860193506165d2565b6165a885616547565b60005b838110156165ca578154818901526001820191506020810190506165ab565b838801955050505b50505092915050565b60006165e7828461655c565b915081905092915050565b60006165fe8284616389565b915081905092915050565b7f537461747573205265717565737420696e636f72726563742e00000000000000600082015250565b600061663f601983615895565b915061664a82616609565b602082019050919050565b6000602082019050818103600083015261666e81616632565b9050919050565b7f537065616b696e672053636f726520696e636f72726563742e00000000000000600082015250565b60006166ab601983615895565b91506166b682616675565b602082019050919050565b600060208201905081810360008301526166da8161669e565b9050919050565b7f57726974696e672053636f726520696e636f72726563742e0000000000000000600082015250565b6000616717601883615895565b9150616722826166e1565b602082019050919050565b600060208201905081810360008301526167468161670a565b905091905056fea2646970667358221220b3904f6e2afe64774f3eca0164a2f9225bd289b1a9aba02c443886b8218cc00a64736f6c634300080b0033608060405234801561001057600080fd5b50612f49806100206000396000f3fe608060405234801561001057600080fd5b50600436106100e95760003560e01c8063ae8f00d31161008c578063dc1e475f11610066578063dc1e475f146102a3578063e83ddcea146102bf578063e9daa70a146102f1578063f7a7b83d14610323576100e9565b8063ae8f00d314610223578063ce1ec5bb1461023f578063dae7debd14610273576100e9565b8063381a3bf7116100c8578063381a3bf71461016f5780637aedcde5146101a3578063844bb460146101d757806386b87ba2146101f3576100e9565b80624e56cf146100ee5780630299779f1461010a5780630b5e50ed1461013a575b600080fd5b6101086004803603810190610103919061233f565b61033f565b005b610124600480360381019061011f91906123de565b6104e4565b6040516101319190612466565b60405180910390f35b610154600480360381019061014f91906124ad565b61065f565b6040516101669695949392919061258a565b60405180910390f35b61018960048036038101906101849190612600565b610863565b60405161019a9594939291906127f7565b60405180910390f35b6101bd60048036038101906101b891906124ad565b610e54565b6040516101ce95949392919061286d565b60405180910390f35b6101f160048036038101906101ec919061233f565b611072565b005b61020d600480360381019061020891906128d5565b611217565b60405161021a9190612466565b60405180910390f35b61023d600480360381019061023891906123de565b611347565b005b61025960048036038101906102549190612600565b61146b565b60405161026a959493929190612adc565b60405180910390f35b61028d60048036038101906102889190612600565b6119c5565b60405161029a9190612466565b60405180910390f35b6102bd60048036038101906102b8919061233f565b611a82565b005b6102d960048036038101906102d491906124ad565b611c22565b6040516102e893929190612b52565b60405180910390f35b61030b60048036038101906103069190612b90565b611d24565b60405161031a93929190612b52565b60405180910390f35b61033d60048036038101906103389190612bd0565b611f93565b005b60005b6000805490508110156104dd578473ffffffffffffffffffffffffffffffffffffffff166000828154811061037a57610379612c9f565b5b906000526020600020906005020160000160009054906101000a900473ffffffffffffffffffffffffffffffffffffffff1673ffffffffffffffffffffffffffffffffffffffff1614801561043f57508373ffffffffffffffffffffffffffffffffffffffff16600082815481106103f5576103f4612c9f565b5b906000526020600020906005020160010160009054906101000a900473ffffffffffffffffffffffffffffffffffffffff1673ffffffffffffffffffffffffffffffffffffffff16145b801561048a575082805190602001206000828154811061046257610461612c9f565b5b90600052602060002090600502016002016040516104809190612dce565b6040518091039020145b156104ca5781600082815481106104a4576104a3612c9f565b5b906000526020600020906005020160040190805190602001906104c89291906120e4565b505b80806104d590612e14565b915050610342565b5050505050565b600080600090505b600080549050811015610656578473ffffffffffffffffffffffffffffffffffffffff166000828154811061052457610523612c9f565b5b906000526020600020906005020160000160009054906101000a900473ffffffffffffffffffffffffffffffffffffffff1673ffffffffffffffffffffffffffffffffffffffff161480156105e957508373ffffffffffffffffffffffffffffffffffffffff166000828154811061059f5761059e612c9f565b5b906000526020600020906005020160010160009054906101000a900473ffffffffffffffffffffffffffffffffffffffff1673ffffffffffffffffffffffffffffffffffffffff16145b8015610634575082805190602001206000828154811061060c5761060b612c9f565b5b906000526020600020906005020160020160405161062a9190612dce565b6040518091039020145b15610643576001915050610658565b808061064e90612e14565b9150506104ec565b505b9392505050565b6001818154811061066f57600080fd5b90600052602060002090600602016000915090508060000160009054906101000a900473ffffffffffffffffffffffffffffffffffffffff16908060010154908060020180546106be90612cfd565b80601f01602080910402602001604051908101604052809291908181526020018280546106ea90612cfd565b80156107375780601f1061070c57610100808354040283529160200191610737565b820191906000526020600020905b81548152906001019060200180831161071a57829003601f168201915b50505050509080600301805461074c90612cfd565b80601f016020809104026020016040519081016040528092919081815260200182805461077890612cfd565b80156107c55780601f1061079a576101008083540402835291602001916107c5565b820191906000526020600020905b8154815290600101906020018083116107a857829003601f168201915b5050505050908060040180546107da90612cfd565b80601f016020809104026020016040519081016040528092919081815260200182805461080690612cfd565b80156108535780601f1061082857610100808354040283529160200191610853565b820191906000526020600020905b81548152906001019060200180831161083657829003601f168201915b5050505050908060050154905086565b60608060608060606000808054905067ffffffffffffffff81111561088b5761088a612214565b5b6040519080825280602002602001820160405280156108b95781602001602082028036833780820191505090505b5090506000808054905067ffffffffffffffff8111156108dc576108db612214565b5b60405190808252806020026020018201604052801561090a5781602001602082028036833780820191505090505b5090506000808054905067ffffffffffffffff81111561092d5761092c612214565b5b60405190808252806020026020018201604052801561096057816020015b606081526020019060019003908161094b5790505b5090506000808054905067ffffffffffffffff81111561098357610982612214565b5b6040519080825280602002602001820160405280156109b657816020015b60608152602001906001900390816109a15790505b5090506000808054905067ffffffffffffffff8111156109d9576109d8612214565b5b604051908082528060200260200182016040528015610a0c57816020015b60608152602001906001900390816109f75790505b50905060005b600080549050811015610e36578b73ffffffffffffffffffffffffffffffffffffffff1660008281548110610a4a57610a49612c9f565b5b906000526020600020906005020160010160009054906101000a900473ffffffffffffffffffffffffffffffffffffffff1673ffffffffffffffffffffffffffffffffffffffff161415610e235760008181548110610aac57610aab612c9f565b5b906000526020600020906005020160000160009054906101000a900473ffffffffffffffffffffffffffffffffffffffff16868281518110610af157610af0612c9f565b5b602002602001019073ffffffffffffffffffffffffffffffffffffffff16908173ffffffffffffffffffffffffffffffffffffffff168152505060008181548110610b3f57610b3e612c9f565b5b906000526020600020906005020160010160009054906101000a900473ffffffffffffffffffffffffffffffffffffffff16858281518110610b8457610b83612c9f565b5b602002602001019073ffffffffffffffffffffffffffffffffffffffff16908173ffffffffffffffffffffffffffffffffffffffff168152505060008181548110610bd257610bd1612c9f565b5b90600052602060002090600502016002018054610bee90612cfd565b80601f0160208091040260200160405190810160405280929190818152602001828054610c1a90612cfd565b8015610c675780601f10610c3c57610100808354040283529160200191610c67565b820191906000526020600020905b815481529060010190602001808311610c4a57829003601f168201915b5050505050848281518110610c7f57610c7e612c9f565b5b602002602001018190525060008181548110610c9e57610c9d612c9f565b5b90600052602060002090600502016003018054610cba90612cfd565b80601f0160208091040260200160405190810160405280929190818152602001828054610ce690612cfd565b8015610d335780601f10610d0857610100808354040283529160200191610d33565b820191906000526020600020905b815481529060010190602001808311610d1657829003601f168201915b5050505050838281518110610d4b57610d4a612c9f565b5b602002602001018190525060008181548110610d6a57610d69612c9f565b5b90600052602060002090600502016004018054610d8690612cfd565b80601f0160208091040260200160405190810160405280929190818152602001828054610db290612cfd565b8015610dff5780601f10610dd457610100808354040283529160200191610dff565b820191906000526020600020905b815481529060010190602001808311610de257829003601f168201915b5050505050828281518110610e1757610e16612c9f565b5b60200260200101819052505b8080610e2e90612e14565b915050610a12565b50848484848499509950995099509950505050505091939590929450565b60008181548110610e6457600080fd5b90600052602060002090600502016000915090508060000160009054906101000a900473ffffffffffffffffffffffffffffffffffffffff16908060010160009054906101000a900473ffffffffffffffffffffffffffffffffffffffff1690806002018054610ed390612cfd565b80601f0160208091040260200160405190810160405280929190818152602001828054610eff90612cfd565b8015610f4c5780601f10610f2157610100808354040283529160200191610f4c565b820191906000526020600020905b815481529060010190602001808311610f2f57829003601f168201915b505050505090806003018054610f6190612cfd565b80601f0160208091040260200160405190810160405280929190818152602001828054610f8d90612cfd565b8015610fda5780601f10610faf57610100808354040283529160200191610fda565b820191906000526020600020905b815481529060010190602001808311610fbd57829003601f168201915b505050505090806004018054610fef90612cfd565b80601f016020809104026020016040519081016040528092919081815260200182805461101b90612cfd565b80156110685780601f1061103d57610100808354040283529160200191611068565b820191906000526020600020905b81548152906001019060200180831161104b57829003601f168201915b5050505050905085565b60005b600080549050811015611210578473ffffffffffffffffffffffffffffffffffffffff16600082815481106110ad576110ac612c9f565b5b906000526020600020906005020160000160009054906101000a900473ffffffffffffffffffffffffffffffffffffffff1673ffffffffffffffffffffffffffffffffffffffff1614801561117257508373ffffffffffffffffffffffffffffffffffffffff166000828154811061112857611127612c9f565b5b906000526020600020906005020160010160009054906101000a900473ffffffffffffffffffffffffffffffffffffffff1673ffffffffffffffffffffffffffffffffffffffff16145b80156111bd575082805190602001206000828154811061119557611194612c9f565b5b90600052602060002090600502016002016040516111b39190612dce565b6040518091039020145b156111fd5781600082815481106111d7576111d6612c9f565b5b906000526020600020906005020160040190805190602001906111fb9291906120e4565b505b808061120890612e14565b915050611075565b5050505050565b600080600090505b60018054905081101561133e578473ffffffffffffffffffffffffffffffffffffffff166001828154811061125757611256612c9f565b5b906000526020600020906006020160000160009054906101000a900473ffffffffffffffffffffffffffffffffffffffff1673ffffffffffffffffffffffffffffffffffffffff161480156112f8575083836040516020016112ba929190612e99565b60405160208183030381529060405280519060200120600182815481106112e4576112e3612c9f565b5b906000526020600020906006020160010154145b1561132b576001818154811061131157611310612c9f565b5b906000526020600020906006020160050154915050611340565b808061133690612e14565b91505061121f565b505b9392505050565b600260405180606001604052808573ffffffffffffffffffffffffffffffffffffffff1681526020018473ffffffffffffffffffffffffffffffffffffffff16815260200183815250908060018154018082558091505060019003906000526020600020906003020160009091909190915060008201518160000160006101000a81548173ffffffffffffffffffffffffffffffffffffffff021916908373ffffffffffffffffffffffffffffffffffffffff16021790555060208201518160010160006101000a81548173ffffffffffffffffffffffffffffffffffffffff021916908373ffffffffffffffffffffffffffffffffffffffff16021790555060408201518160020190805190602001906114639291906120e4565b505050505050565b6060806060806060600060018054905067ffffffffffffffff81111561149457611493612214565b5b6040519080825280602002602001820160405280156114c25781602001602082028036833780820191505090505b509050600060018054905067ffffffffffffffff8111156114e6576114e5612214565b5b60405190808252806020026020018201604052801561151957816020015b60608152602001906001900390816115045790505b509050600060018054905067ffffffffffffffff81111561153d5761153c612214565b5b60405190808252806020026020018201604052801561157057816020015b606081526020019060019003908161155b5790505b509050600060018054905067ffffffffffffffff81111561159457611593612214565b5b6040519080825280602002602001820160405280156115c757816020015b60608152602001906001900390816115b25790505b509050600060018054905067ffffffffffffffff8111156115eb576115ea612214565b5b6040519080825280602002602001820160405280156116195781602001602082028036833780820191505090505b50905060005b6001805490508110156119a7578b73ffffffffffffffffffffffffffffffffffffffff166001828154811061165757611656612c9f565b5b906000526020600020906006020160000160009054906101000a900473ffffffffffffffffffffffffffffffffffffffff1673ffffffffffffffffffffffffffffffffffffffff16141561199457600181815481106116b9576116b8612c9f565b5b9060005260206000209060060201600101548682815181106116de576116dd612c9f565b5b602002602001018181525050600181815481106116fe576116fd612c9f565b5b9060005260206000209060060201600201805461171a90612cfd565b80601f016020809104026020016040519081016040528092919081815260200182805461174690612cfd565b80156117935780601f1061176857610100808354040283529160200191611793565b820191906000526020600020905b81548152906001019060200180831161177657829003601f168201915b50505050508582815181106117ab576117aa612c9f565b5b6020026020010181905250600181815481106117ca576117c9612c9f565b5b906000526020600020906006020160030180546117e690612cfd565b80601f016020809104026020016040519081016040528092919081815260200182805461181290612cfd565b801561185f5780601f106118345761010080835404028352916020019161185f565b820191906000526020600020905b81548152906001019060200180831161184257829003601f168201915b505050505084828151811061187757611876612c9f565b5b60200260200101819052506001818154811061189657611895612c9f565b5b906000526020600020906006020160040180546118b290612cfd565b80601f01602080910402602001604051908101604052809291908181526020018280546118de90612cfd565b801561192b5780601f106119005761010080835404028352916020019161192b565b820191906000526020600020905b81548152906001019060200180831161190e57829003601f168201915b505050505083828151811061194357611942612c9f565b5b60200260200101819052506001818154811061196257611961612c9f565b5b90600052602060002090600602016005015482828151811061198757611986612c9f565b5b6020026020010181815250505b808061199f90612e14565b91505061161f565b50848484848499509950995099509950505050505091939590929450565b6000806000905060005b600080549050811015611a78578373ffffffffffffffffffffffffffffffffffffffff1660008281548110611a0757611a06612c9f565b5b906000526020600020906005020160010160009054906101000a900473ffffffffffffffffffffffffffffffffffffffff1673ffffffffffffffffffffffffffffffffffffffff161415611a6557600182611a629190612ebd565b91505b8080611a7090612e14565b9150506119cf565b5080915050919050565b60006040518060a001604052808673ffffffffffffffffffffffffffffffffffffffff1681526020018573ffffffffffffffffffffffffffffffffffffffff1681526020018481526020018381526020016040518060400160405280600981526020017f53637265656e696e670000000000000000000000000000000000000000000000815250815250908060018154018082558091505060019003906000526020600020906005020160009091909190915060008201518160000160006101000a81548173ffffffffffffffffffffffffffffffffffffffff021916908373ffffffffffffffffffffffffffffffffffffffff16021790555060208201518160010160006101000a81548173ffffffffffffffffffffffffffffffffffffffff021916908373ffffffffffffffffffffffffffffffffffffffff1602179055506040820151816002019080519060200190611bdf9291906120e4565b506060820151816003019080519060200190611bfc9291906120e4565b506080820151816004019080519060200190611c199291906120e4565b50505050505050565b60028181548110611c3257600080fd5b90600052602060002090600302016000915090508060000160009054906101000a900473ffffffffffffffffffffffffffffffffffffffff16908060010160009054906101000a900473ffffffffffffffffffffffffffffffffffffffff1690806002018054611ca190612cfd565b80601f0160208091040260200160405190810160405280929190818152602001828054611ccd90612cfd565b8015611d1a5780601f10611cef57610100808354040283529160200191611d1a565b820191906000526020600020905b815481529060010190602001808311611cfd57829003601f168201915b5050505050905083565b600080606060005b600280549050811015611f8a578473ffffffffffffffffffffffffffffffffffffffff1660028281548110611d6457611d63612c9f565b5b906000526020600020906003020160010160009054906101000a900473ffffffffffffffffffffffffffffffffffffffff1673ffffffffffffffffffffffffffffffffffffffff16148015611e2957508573ffffffffffffffffffffffffffffffffffffffff1660028281548110611ddf57611dde612c9f565b5b906000526020600020906003020160000160009054906101000a900473ffffffffffffffffffffffffffffffffffffffff1673ffffffffffffffffffffffffffffffffffffffff16145b15611f775760028181548110611e4257611e41612c9f565b5b906000526020600020906003020160000160009054906101000a900473ffffffffffffffffffffffffffffffffffffffff1660028281548110611e8857611e87612c9f565b5b906000526020600020906003020160010160009054906101000a900473ffffffffffffffffffffffffffffffffffffffff1660028381548110611ece57611ecd612c9f565b5b9060005260206000209060030201600201808054611eeb90612cfd565b80601f0160208091040260200160405190810160405280929190818152602001828054611f1790612cfd565b8015611f645780601f10611f3957610100808354040283529160200191611f64565b820191906000526020600020905b815481529060010190602001808311611f4757829003601f168201915b5050505050905093509350935050611f8c565b8080611f8290612e14565b915050611d2c565b505b9250925092565b60016040518060c001604052808773ffffffffffffffffffffffffffffffffffffffff1681526020018685604051602001611fcf929190612e99565b60405160208183030381529060405280519060200120815260200186815260200185815260200184815260200183815250908060018154018082558091505060019003906000526020600020906006020160009091909190915060008201518160000160006101000a81548173ffffffffffffffffffffffffffffffffffffffff021916908373ffffffffffffffffffffffffffffffffffffffff1602179055506020820151816001015560408201518160020190805190602001906120969291906120e4565b5060608201518160030190805190602001906120b39291906120e4565b5060808201518160040190805190602001906120d09291906120e4565b5060a0820151816005015550505050505050565b8280546120f090612cfd565b90600052602060002090601f0160209004810192826121125760008555612159565b82601f1061212b57805160ff1916838001178555612159565b82800160010185558215612159579182015b8281111561215857825182559160200191906001019061213d565b5b509050612166919061216a565b5090565b5b8082111561218357600081600090555060010161216b565b5090565b6000604051905090565b600080fd5b600080fd5b600073ffffffffffffffffffffffffffffffffffffffff82169050919050565b60006121c68261219b565b9050919050565b6121d6816121bb565b81146121e157600080fd5b50565b6000813590506121f3816121cd565b92915050565b600080fd5b600080fd5b6000601f19601f8301169050919050565b7f4e487b7100000000000000000000000000000000000000000000000000000000600052604160045260246000fd5b61224c82612203565b810181811067ffffffffffffffff8211171561226b5761226a612214565b5b80604052505050565b600061227e612187565b905061228a8282612243565b919050565b600067ffffffffffffffff8211156122aa576122a9612214565b5b6122b382612203565b9050602081019050919050565b82818337600083830152505050565b60006122e26122dd8461228f565b612274565b9050828152602081018484840111156122fe576122fd6121fe565b5b6123098482856122c0565b509392505050565b600082601f830112612326576123256121f9565b5b81356123368482602086016122cf565b91505092915050565b6000806000806080858703121561235957612358612191565b5b6000612367878288016121e4565b9450506020612378878288016121e4565b935050604085013567ffffffffffffffff81111561239957612398612196565b5b6123a587828801612311565b925050606085013567ffffffffffffffff8111156123c6576123c5612196565b5b6123d287828801612311565b91505092959194509250565b6000806000606084860312156123f7576123f6612191565b5b6000612405868287016121e4565b9350506020612416868287016121e4565b925050604084013567ffffffffffffffff81111561243757612436612196565b5b61244386828701612311565b9150509250925092565b6000819050919050565b6124608161244d565b82525050565b600060208201905061247b6000830184612457565b92915050565b61248a8161244d565b811461249557600080fd5b50565b6000813590506124a781612481565b92915050565b6000602082840312156124c3576124c2612191565b5b60006124d184828501612498565b91505092915050565b6124e3816121bb565b82525050565b6000819050919050565b6124fc816124e9565b82525050565b600081519050919050565b600082825260208201905092915050565b60005b8381101561253c578082015181840152602081019050612521565b8381111561254b576000848401525b50505050565b600061255c82612502565b612566818561250d565b935061257681856020860161251e565b61257f81612203565b840191505092915050565b600060c08201905061259f60008301896124da565b6125ac60208301886124f3565b81810360408301526125be8187612551565b905081810360608301526125d28186612551565b905081810360808301526125e68185612551565b90506125f560a0830184612457565b979650505050505050565b60006020828403121561261657612615612191565b5b6000612624848285016121e4565b91505092915050565b600081519050919050565b600082825260208201905092915050565b6000819050602082019050919050565b612662816121bb565b82525050565b60006126748383612659565b60208301905092915050565b6000602082019050919050565b60006126988261262d565b6126a28185612638565b93506126ad83612649565b8060005b838110156126de5781516126c58882612668565b97506126d083612680565b9250506001810190506126b1565b5085935050505092915050565b600081519050919050565b600082825260208201905092915050565b6000819050602082019050919050565b600082825260208201905092915050565b600061273382612502565b61273d8185612717565b935061274d81856020860161251e565b61275681612203565b840191505092915050565b600061276d8383612728565b905092915050565b6000602082019050919050565b600061278d826126eb565b61279781856126f6565b9350836020820285016127a985612707565b8060005b858110156127e557848403895281516127c68582612761565b94506127d183612775565b925060208a019950506001810190506127ad565b50829750879550505050505092915050565b600060a0820190508181036000830152612811818861268d565b90508181036020830152612825818761268d565b905081810360408301526128398186612782565b9050818103606083015261284d8185612782565b905081810360808301526128618184612782565b90509695505050505050565b600060a08201905061288260008301886124da565b61288f60208301876124da565b81810360408301526128a18186612551565b905081810360608301526128b58185612551565b905081810360808301526128c98184612551565b90509695505050505050565b6000806000606084860312156128ee576128ed612191565b5b60006128fc868287016121e4565b935050602084013567ffffffffffffffff81111561291d5761291c612196565b5b61292986828701612311565b925050604084013567ffffffffffffffff81111561294a57612949612196565b5b61295686828701612311565b9150509250925092565b600081519050919050565b600082825260208201905092915050565b6000819050602082019050919050565b612995816124e9565b82525050565b60006129a7838361298c565b60208301905092915050565b6000602082019050919050565b60006129cb82612960565b6129d5818561296b565b93506129e08361297c565b8060005b83811015612a115781516129f8888261299b565b9750612a03836129b3565b9250506001810190506129e4565b5085935050505092915050565b600081519050919050565b600082825260208201905092915050565b6000819050602082019050919050565b612a538161244d565b82525050565b6000612a658383612a4a565b60208301905092915050565b6000602082019050919050565b6000612a8982612a1e565b612a938185612a29565b9350612a9e83612a3a565b8060005b83811015612acf578151612ab68882612a59565b9750612ac183612a71565b925050600181019050612aa2565b5085935050505092915050565b600060a0820190508181036000830152612af681886129c0565b90508181036020830152612b0a8187612782565b90508181036040830152612b1e8186612782565b90508181036060830152612b328185612782565b90508181036080830152612b468184612a7e565b90509695505050505050565b6000606082019050612b6760008301866124da565b612b7460208301856124da565b8181036040830152612b868184612551565b9050949350505050565b60008060408385031215612ba757612ba6612191565b5b6000612bb5858286016121e4565b9250506020612bc6858286016121e4565b9150509250929050565b600080600080600060a08688031215612bec57612beb612191565b5b6000612bfa888289016121e4565b955050602086013567ffffffffffffffff811115612c1b57612c1a612196565b5b612c2788828901612311565b945050604086013567ffffffffffffffff811115612c4857612c47612196565b5b612c5488828901612311565b935050606086013567ffffffffffffffff811115612c7557612c74612196565b5b612c8188828901612311565b9250506080612c9288828901612498565b9150509295509295909350565b7f4e487b7100000000000000000000000000000000000000000000000000000000600052603260045260246000fd5b7f4e487b7100000000000000000000000000000000000000000000000000000000600052602260045260246000fd5b60006002820490506001821680612d1557607f821691505b60208210811415612d2957612d28612cce565b5b50919050565b600081905092915050565b60008190508160005260206000209050919050565b60008154612d5c81612cfd565b612d668186612d2f565b94506001821660008114612d815760018114612d9257612dc5565b60ff19831686528186019350612dc5565b612d9b85612d3a565b60005b83811015612dbd57815481890152600182019150602081019050612d9e565b838801955050505b50505092915050565b6000612dda8284612d4f565b915081905092915050565b7f4e487b7100000000000000000000000000000000000000000000000000000000600052601160045260246000fd5b6000612e1f8261244d565b91507fffffffffffffffffffffffffffffffffffffffffffffffffffffffffffffffff821415612e5257612e51612de5565b5b600182019050919050565b600081905092915050565b6000612e7382612502565b612e7d8185612e5d565b9350612e8d81856020860161251e565b80840191505092915050565b6000612ea58285612e68565b9150612eb18284612e68565b91508190509392505050565b6000612ec88261244d565b9150612ed38361244d565b9250827fffffffffffffffffffffffffffffffffffffffffffffffffffffffffffffffff03821115612f0857612f07612de5565b5b82820190509291505056fea264697066735822122068aa446e0a6dd2f15e350182de69e7b934713a4462984fc4897ac8e5ea6347b864736f6c634300080b0033",
  "immutableReferences": {},
  "source": "// SPDX-License-Identifier: MIT\r\npragma solidity >=0.4.22 <0.9.0;\r\n\r\n// Import cc contract cn thit  s dng\r\nimport \"./SmartCV_ListStudent.sol\";\r\nimport \"./SmartCV_ListBusiness.sol\";\r\nimport \"./SmartCV_ListIIG.sol\";\r\nimport \"./SmartCV_Apply.sol\";\r\n\r\n// CV dnh cho sinh vin\r\ncontract StudentBusiness {\r\n\r\n    // Khai contract  import  s dng cc function  contract \r\n    ListStudent listStudent = new ListStudent();\r\n    ListBusiness listBusiness = new ListBusiness();\r\n    ListIIG listIIG = new ListIIG();\r\n    ApplyCV applyCV = new ApplyCV();\r\n\r\n    // ======================================\r\n    // ====== Chc nng cho sinh vin =======\r\n    // ======================================\r\n\r\n    // Chc nng thm thng tin sinh vin (ng k)\r\n    function addStudentProfile (\r\n        address _studentOwner,\r\n        string memory _name,\r\n        string memory _phoneNumber,\r\n        string memory _professionalTitle,\r\n        string memory _email,\r\n        string memory _github,\r\n        string memory _linkedin,\r\n        string memory _sourceImage,\r\n        string memory _password) public {\r\n            listStudent.addSV(_studentOwner, \r\n                                _name, \r\n                                _phoneNumber, \r\n                                _professionalTitle, \r\n                                _email, \r\n                                _github, \r\n                                _linkedin,\r\n                                _sourceImage,\r\n                                _password);\r\n    }\r\n\r\n    // Chc nng chnh thng tin sinh vin\r\n    function editStudentProfile (\r\n        address _studentOwner,\r\n        string memory _name,\r\n        string memory _phoneNumber,\r\n        string memory _professionalTitle,\r\n        string memory _email,\r\n        string memory _github,\r\n        string memory _linkedin,\r\n        string memory _sourceImage) public {\r\n            listStudent.editSV(_studentOwner,\r\n                                _name, \r\n                                _phoneNumber, \r\n                                _professionalTitle, \r\n                                _email, \r\n                                _github, \r\n                                _linkedin,\r\n                                _sourceImage);\r\n    }\r\n\r\n    // Chc nng ly thng tin ca sinh vin\r\n    function getStudentProfile(address _studentOwner) public view returns(\r\n        address studentOwner, \r\n        string memory name, \r\n        string memory phoneNumber, \r\n        string memory professionalTitle, \r\n        string memory email, \r\n        string memory github, \r\n        string memory linkedin,\r\n        string memory sourceImage,\r\n        string memory password) {\r\n            return listStudent.getProfile(_studentOwner);\r\n    }\r\n\r\n    // Chc nng kim tra ti khon sinh vin c tn ti hay khng? (ng nhp)\r\n    function checkStudentProfile(\r\n        address _studentOwner, \r\n        string memory _password) public view returns(uint x) {\r\n            return listStudent.checkSV(_studentOwner, _password);\r\n    }\r\n\r\n    // Chc nng kim tra a ch sinh vin c tn ti hay khng?\r\n    function checkExistStudent(address _studentOwner) public view returns(uint x) {\r\n            return listStudent.checkExistSV(_studentOwner);\r\n    }\r\n\r\n    // Chc nng thm thng tin k nng ca sinh vin\r\n    function addStudentSkill(\r\n        address _studentOwner,\r\n        string memory _title, \r\n        uint _level) public {\r\n            listStudent.addSkill(_studentOwner, \r\n                                _title, \r\n                                _level);\r\n    }\r\n\r\n    // Chc nng chnh sa thng tin k nng ca sinh vin\r\n    function editStudentSkill(\r\n        address _studentOwner,\r\n        string memory _title, \r\n        uint _level) public {\r\n            listStudent.editSkill(_studentOwner, \r\n                                _title, \r\n                                _level);\r\n    }\r\n\r\n    // Chc nng kim tra k nng ca sinh vin c tn ti hay khng?\r\n    function checkStudentSkill(\r\n        address _studentOwner,\r\n        string memory _title) public view returns(uint x) {\r\n            return listStudent.checkSkill(_studentOwner, _title);\r\n    }\r\n\r\n    // Chc nng kim tra s lng k nng ca sinh vin\r\n    function checkNumStudentSkill(address _studentOwner) public view returns(uint x) {\r\n            uint _count = listStudent.checkNumSkill(_studentOwner);\r\n            if(_count > 10){\r\n                return 1;\r\n            }\r\n    }\r\n\r\n    // Chc nng ly thng tin k nng ca sinh vin\r\n    function getStudentSkill(address _studentOwner) public view returns(\r\n        string[] memory titles,\r\n        uint[] memory levels) {\r\n        return listStudent.getSkill(_studentOwner);\r\n    }\r\n\r\n    // Chc nng thm thng tin hc vn ca sinh vin\r\n    function addStudentEducation(\r\n        address _studentOwner,\r\n        string memory _institution,\r\n        string memory _focusArea, \r\n        string memory _startTime,\r\n        string memory _finishTime,\r\n        string memory _gpa) public {\r\n            listStudent.addEducation(_studentOwner, \r\n                                    _institution, \r\n                                    _focusArea,\r\n                                    _startTime,\r\n                                    _finishTime,\r\n                                    _gpa);\r\n    }\r\n\r\n    // Chc nng chnh sa thng tin hc vn ca sinh vin\r\n    function editStudentEducation(\r\n        address _studentOwner,\r\n        string memory _institution,\r\n        string memory _focusArea, \r\n        string memory _startTime,\r\n        string memory _finishTime,\r\n        string memory _gpa) public {\r\n            listStudent.editEducation(_studentOwner, \r\n                                    _institution, \r\n                                    _focusArea,\r\n                                    _startTime,\r\n                                    _finishTime,\r\n                                    _gpa);\r\n    }\r\n\r\n    // Chc nng kim tra sinh vin  thm hc vn  hay cha?\r\n    function checkStudentEducation(\r\n        address _studentOwner, \r\n        string memory _institution,\r\n        string memory _focusArea) public view returns(uint x) {\r\n            return listStudent.checkEducation(_studentOwner,\r\n                                            _institution,\r\n                                            _focusArea);\r\n    }\r\n\r\n    // Chc nng ly thng tin hc vn ca sinh vin\r\n    function getStudentEducation(address _studentOwner) public view returns(\r\n        string[] memory,\r\n        string[] memory,\r\n        string[] memory,\r\n        string[] memory,\r\n        string[] memory) {\r\n            return listStudent.getEducation(_studentOwner);\r\n    }\r\n\r\n    // Chc nng ly danh sch doanh nghip\r\n    function getListBusiness() public view returns(\r\n        address[] memory,\r\n        string[] memory,\r\n        string[] memory,\r\n        string[] memory,\r\n        string[] memory,\r\n        string[] memory,\r\n        string[] memory,\r\n        string[] memory) {\r\n        return listBusiness.getListDN();\r\n    }\r\n\r\n    // Chc nng ly thng tin tuyn dng ca doanh nghip\r\n    function getRecruit(address _businessOwner) public view returns(\r\n        bytes32[] memory,\r\n        string[] memory,\r\n        string[] memory,\r\n        string[] memory,\r\n        uint[] memory) {\r\n        return applyCV.getRecruit(_businessOwner);\r\n    }\r\n\r\n    // Chc nng gi CV ti doanh nghip\r\n    function sendCV(\r\n        address _studentOwner, \r\n        address _businessOwner, \r\n        string memory _jobTitle, \r\n        string memory _coverLetter) public {\r\n            applyCV.addCV(_studentOwner, \r\n                        _businessOwner, \r\n                        _jobTitle, \r\n                        _coverLetter);\r\n    }\r\n\r\n    // Chc nng kim tra sinh vin  np CV cha?\r\n    function checkCV(\r\n        address _studentOwner, \r\n        address _businessOwner, \r\n        string memory _jobTitle) public view returns(uint x) {\r\n            return applyCV.checkCV(_studentOwner, \r\n                                    _businessOwner, \r\n                                    _jobTitle);\r\n    }\r\n\r\n    // Chc nng xem nh gi thc tp ca doanh nghip\r\n    function getReview(\r\n        address _studentOwner, \r\n        address _businessOwner) public view returns(\r\n            address studentOwner, \r\n            address businessOwner, \r\n            string memory content) {\r\n                return applyCV.getReview(_studentOwner, _businessOwner);\r\n    }\r\n\r\n    // ======================================\r\n    // ===== Chc nng cho doanh nghip =====\r\n    // ======================================\r\n\r\n    // Chc nng thm thng tin doanh nghip (ng k)\r\n    function addBusinessProfile(\r\n        address _businessOwner,\r\n        string memory _name,\r\n        string memory _country,\r\n        string memory _facebook,\r\n        string memory _website,\r\n        string memory _linkedin,\r\n        string memory _focusArea,\r\n        string memory _password) public {\r\n            listBusiness.addDN(_businessOwner, \r\n                                _name, \r\n                                _country, \r\n                                _facebook, \r\n                                _website, \r\n                                _linkedin, \r\n                                _focusArea, \r\n                                _password);\r\n    }\r\n\r\n    // Chc nng chnh sa thng tin doanh nghip\r\n    function editBusinessProfile(\r\n        address _businessOwner,\r\n        string memory _name,\r\n        string memory _country,\r\n        string memory _facebook,\r\n        string memory _website,\r\n        string memory _linkedin,\r\n        string memory _focusArea) public {\r\n            listBusiness.editDN(_businessOwner, \r\n                                _name, \r\n                                _country, \r\n                                _facebook, \r\n                                _website, \r\n                                _linkedin, \r\n                                _focusArea);\r\n    }\r\n\r\n    // Chc nng ly thng tin ca doanh nghip\r\n    function getBusinessProfile(address _businessOwner) public view returns(\r\n        address businessOwner, \r\n        string memory name, \r\n        string memory country, \r\n        string memory facebook, \r\n        string memory website, \r\n        string memory linkedin, \r\n        string memory focusArea) {\r\n            return listBusiness.getProfile(_businessOwner);\r\n    }\r\n\r\n    // Chc nng kim tra ti khon doanh nghip c tn ti hay khng? (ng nhp)\r\n    function checkBusinessProfile(\r\n        address _businessOwner, \r\n        string memory _password) public view returns(uint) {\r\n            return listBusiness.checkDN(_businessOwner, _password);\r\n    }\r\n\r\n    // Chc nng kim tra a ch doanh nghip c tn ti hay khng?\r\n    function checkExistBusiness(address _businessOwner) public view returns(uint x) {\r\n            return listBusiness.checkExistDN(_businessOwner);\r\n    }\r\n\r\n    // Chc nng ly danh sch CV  np vo doanh nghip\r\n    function getListCV(address _businessOwner) public view returns(\r\n        address[] memory, \r\n        address[] memory, \r\n        string[] memory, \r\n        string[] memory,\r\n        string[] memory) {\r\n            return applyCV.getCV(_businessOwner);\r\n    }\r\n    \r\n    //Chc nng duyt CV vo vng interview\r\n    function interviewCV(\r\n        address _studentOwner, \r\n        address _businessOwner, \r\n        string memory _jobTitle,\r\n        string memory _statusCV) public {\r\n            applyCV.interviewCV(_studentOwner, \r\n                                _businessOwner, \r\n                                _jobTitle, \r\n                                _statusCV);\r\n    }\r\n\r\n    //Chc nng duyt CV vo vng onboard\r\n    function onboardCV(\r\n        address _studentOwner, \r\n        address _businessOwner, \r\n        string memory _jobTitle,\r\n        string memory _statusCV) public {\r\n            applyCV.onboardCV(_studentOwner, \r\n                            _businessOwner, \r\n                            _jobTitle, \r\n                            _statusCV);\r\n    }\r\n\r\n    // Chc nng thm thng tin tuyn dng ca doanh nghip\r\n    function addRecruit(\r\n        address _businessOwner,\r\n        string memory _jobTitle,\r\n        string memory _jobDescription,\r\n        string memory _recruitDate,\r\n        uint _amount) public {\r\n            applyCV.addRecruit(_businessOwner, \r\n                                _jobTitle, \r\n                                _jobDescription,\r\n                                _recruitDate,\r\n                                _amount);\r\n    }\r\n\r\n    // Chc nng kim tra s lng tuyn dng   hay cha?\r\n    function checkAmountBusinessRecruit(\r\n        address _businessOwner,\r\n        string memory _jobTitle,\r\n        string memory _recruitDate) public view returns(uint x) {\r\n            uint numCV = applyCV.checkNumCV(_businessOwner);\r\n            uint amountRecuit = applyCV.checkAmountRecruit(_businessOwner, _jobTitle, _recruitDate);\r\n            if(numCV > amountRecuit){\r\n                return 1;\r\n            }\r\n    }\r\n\r\n    // Chc nng nh gi thc tp cho sinh vin\r\n    function sendReview(\r\n        address _studentOwner, \r\n        address _businessOwner, \r\n        string memory _content) public {\r\n            applyCV.addReview(_studentOwner, \r\n                            _businessOwner, \r\n                            _content);\r\n    }\r\n\r\n    // ======================================\r\n    // ========= Chc nng cho IIG ==========\r\n    // ======================================\r\n\r\n    // Chc nng thm thng tin IIG (ng k)\r\n    function addIIGProfile(\r\n        address _iigOwner,\r\n        string memory _name,\r\n        string memory _country,\r\n        string memory _facebook,\r\n        string memory _website,\r\n        string memory _linkedin,\r\n        string memory _password) public {\r\n            listIIG.addIIG(_iigOwner, \r\n                            _name, \r\n                            _country, \r\n                            _facebook, \r\n                            _website, \r\n                            _linkedin, \r\n                            _password);\r\n    }\r\n\r\n    // Chc nng chnh sa thng tin IIG\r\n    function editIIGProfile(\r\n        address _iigOwner,\r\n        string memory _name,\r\n        string memory _country,\r\n        string memory _facebook,\r\n        string memory _website,\r\n        string memory _linkedin) public {\r\n            listIIG.editIIG(_iigOwner, \r\n                            _name, \r\n                            _country, \r\n                            _facebook, \r\n                            _website, \r\n                            _linkedin);\r\n    }\r\n\r\n    // Chc nng ly danh sch IIG\r\n    function getListIIG() public view returns(\r\n        address[] memory,\r\n        string[] memory,\r\n        string[] memory,\r\n        string[] memory,\r\n        string[] memory,\r\n        string[] memory,\r\n        string[] memory) {\r\n            return listIIG.getListIIG();\r\n    }\r\n\r\n    // Chc nng ly thng tin ca IIG\r\n    function getIIGProfile(address _iigOwner) public view returns(\r\n        address iigOwner,\r\n        string memory name,\r\n        string memory country,\r\n        string memory facebook,\r\n        string memory website,\r\n        string memory linkedin) {\r\n            return listIIG.getProfile(_iigOwner);\r\n    }\r\n\r\n    // Chc nng kim tra ti khon IIG c tn ti hay khng? (ng nhp)\r\n    function checkIIGProfile(\r\n        address _iigOwner, \r\n        string memory _password) public view returns(uint) {\r\n            return listIIG.checkIIG(_iigOwner, _password);\r\n    }\r\n\r\n    // Chc nng kim tra a ch IIG c tn ti hay khng?\r\n    function checkExistIIG(address _iigOwner) public view returns(uint x) {\r\n            return listIIG.checkExistIIG(_iigOwner);\r\n    }\r\n\r\n    // Chc nng gi thng tin yu cu chng ch IIG\r\n    function sendIIGRequest (\r\n        address _studentOwner,\r\n        address _iigOwner,\r\n        string memory _identityCard,\r\n        string memory _requestDate) public {\r\n            listIIG.addRequest(_studentOwner, \r\n                            _iigOwner,\r\n                            _identityCard,\r\n                            _requestDate);\r\n    }\r\n\r\n    // Chc nng ly danh sch yu cu chng ch IIG\r\n    function getListIIGRequest(address _iigOwner) public view returns(\r\n        bytes4[] memory,\r\n        address[] memory, \r\n        address[] memory, \r\n        string[] memory,\r\n        string[] memory,\r\n        string[] memory) {\r\n            return listIIG.getListRequest(_iigOwner);\r\n    }\r\n\r\n    // Chc nng ly danh sch yu cu chng ch IIG theo sinh vin\r\n    function getListIIGRequestStudent(address _iigOwner, address _studentOwner) public view returns(\r\n        bytes4[] memory,\r\n        address[] memory, \r\n        address[] memory,\r\n        string[] memory,\r\n        string[] memory,\r\n        string[] memory) {\r\n            return listIIG.getListRequestStudent(_iigOwner, _studentOwner);\r\n    }\r\n\r\n    //Chc nng duyt yu cu chng ch IIG\r\n    function confirmIIGRequest(\r\n        address _studentOwner, \r\n        address _iigOwner, \r\n        bytes4 _codeRequest,\r\n        string memory _statusRequest) public {\r\n            listIIG.confirmRequest(_studentOwner,\r\n                                    _iigOwner,\r\n                                    _codeRequest,\r\n                                    _statusRequest);\r\n    }\r\n\r\n    // Chc nng nhp thng tin im thi Listening - Reading\r\n    function addIIGLRResult (\r\n        address _iigOwner,\r\n        address _studentOwner,\r\n        string memory _testDate,\r\n        string memory _shiftTest,\r\n        string memory _expireDate,\r\n        uint _listeningScore,\r\n        uint _readingScore) public {\r\n            listIIG.addLRResult(_iigOwner, \r\n                                _studentOwner, \r\n                                _testDate,\r\n                                _shiftTest, \r\n                                _expireDate, \r\n                                _listeningScore, \r\n                                _readingScore);\r\n    }\r\n\r\n    // Chc nng nhp thng tin im thi Speaking - Writing\r\n    function addIIGSWResult (\r\n        address _iigOwner,\r\n        address _studentOwner,\r\n        string memory _testDate,\r\n        string memory _shiftTest,\r\n        string memory _expireDate,\r\n        uint _speakingScore,\r\n        uint _writingScore) public {\r\n            listIIG.addSWResult(_iigOwner, \r\n                                _studentOwner, \r\n                                _testDate,\r\n                                _shiftTest,\r\n                                _expireDate, \r\n                                _speakingScore, \r\n                                _writingScore);\r\n    }\r\n\r\n    //Chc nng ly thng tin im thi Listening - Reading\r\n    function getListIIGLRResult(address _iigOwner, address _studentOwner) public view returns(\r\n        string[] memory,\r\n        string[] memory,\r\n        string[] memory,\r\n        uint[] memory,\r\n        uint[] memory,\r\n        uint[] memory) {\r\n            return listIIG.getListLRResult(_iigOwner, _studentOwner);\r\n    }\r\n\r\n    //Chc nng ly thng tin im thi Speaking - Writing\r\n    function getListIIGSWResult(address _iigOwner, address _studentOwner) public view returns(\r\n        string[] memory,\r\n        string[] memory,\r\n        string[] memory,\r\n        uint[] memory,\r\n        uint[] memory,\r\n        uint[] memory) {\r\n            return listIIG.getListSWResult(_iigOwner, _studentOwner);\r\n    }\r\n\r\n    // Chc nng ly im thi Listening - Reading ca sinh vin\r\n    function getIIGLRResult(\r\n        address _iigOwner, \r\n        address _studentOwner,\r\n        string memory _testDate,\r\n        string memory _shiftTest) public view returns(\r\n            string memory testDate,\r\n            string memory shiftTest,\r\n            string memory expireDate,\r\n            uint listeningScore,\r\n            uint readingScore,\r\n            uint totalScore) {\r\n                return listIIG.getLRResult(_iigOwner,\r\n                                            _studentOwner,\r\n                                            _testDate,\r\n                                            _shiftTest);\r\n    }\r\n\r\n    // Chc nng ly im thi Speaking - Writing ca sinh vin\r\n    function getIIGSWResult(\r\n        address _iigOwner, \r\n        address _studentOwner,\r\n        string memory _testDate,\r\n        string memory _shiftTest) public view returns(\r\n            string memory testDate,\r\n            string memory shiftTest,\r\n            string memory expireDate,\r\n            uint speakingScore,\r\n            uint writingScore,\r\n            uint totalScore) {\r\n                return listIIG.getSWResult(_iigOwner,\r\n                                            _studentOwner,\r\n                                            _testDate,\r\n                                            _shiftTest);\r\n    }\r\n\r\n    // Chc nng kim tra kt qu ngy thi Listening - Reading ca sinh vin  tn ti hay cha?\r\n    function checkExistIIGLRResult(\r\n        address _studentOwner,\r\n        string memory _testDate,\r\n        string memory _shiftTest) public view returns(uint x) {\r\n            return listIIG.checkExistLRResult(_studentOwner, \r\n                                            _testDate, \r\n                                            _shiftTest);\r\n    }\r\n\r\n    // Chc nng kim tra kt qu ngy thi Speaking - Writing ca sinh vin  tn ti hay cha?\r\n    function checkExistIIGSWResult(\r\n        address _studentOwner,\r\n        string memory _testDate,\r\n        string memory _shiftTest) public view returns(uint x) {\r\n            return listIIG.checkExistSWResult(_studentOwner, \r\n                                            _testDate, \r\n                                            _shiftTest);\r\n    }\r\n}",
  "sourcePath": "C:\\Users\\19520\\Documents\\NCKH_Blockchain\\SolidityProgramming\\ProjectResearch\\SmartCV\\SmartContract\\contracts\\SmartCV_StudentBusiness.sol",
  "compiler": {
    "name": "solc",
    "version": "0.8.11+commit.d7f03943.Emscripten.clang"
  },
  "schemaVersion": "3.4.4",
  "updatedAt": "2022-07-29T13:41:16.817Z",
  "devdoc": {
    "kind": "dev",
    "methods": {},
    "version": 1
  },
  "userdoc": {
    "kind": "user",
    "methods": {},
    "version": 1
  }
}