{
  "contractName": "Student",
  "abi": [
    {
      "inputs": [],
      "stateMutability": "nonpayable",
      "type": "constructor"
    },
    {
      "inputs": [],
      "name": "getSender",
      "outputs": [
        {
          "internalType": "address",
          "name": "",
          "type": "address"
        }
      ],
      "stateMutability": "view",
      "type": "function",
      "constant": true
    },
    {
      "inputs": [
        {
          "internalType": "address",
          "name": "_studentOwner",
          "type": "address"
        },
        {
          "internalType": "string",
          "name": "_name",
          "type": "string"
        },
        {
          "internalType": "string",
          "name": "_birthDay",
          "type": "string"
        },
        {
          "internalType": "string",
          "name": "_professionalTitle",
          "type": "string"
        },
        {
          "internalType": "string",
          "name": "_email",
          "type": "string"
        },
        {
          "internalType": "string",
          "name": "_github",
          "type": "string"
        },
        {
          "internalType": "string",
          "name": "_linked",
          "type": "string"
        },
        {
          "internalType": "string",
          "name": "_password",
          "type": "string"
        }
      ],
      "name": "addStudentProfile",
      "outputs": [],
      "stateMutability": "nonpayable",
      "type": "function"
    },
    {
      "inputs": [
        {
          "internalType": "address",
          "name": "_studentOwner",
          "type": "address"
        }
      ],
      "name": "getListStudent",
      "outputs": [
        {
          "internalType": "string",
          "name": "",
          "type": "string"
        },
        {
          "internalType": "string",
          "name": "",
          "type": "string"
        },
        {
          "internalType": "string",
          "name": "",
          "type": "string"
        },
        {
          "internalType": "string",
          "name": "",
          "type": "string"
        },
        {
          "internalType": "string",
          "name": "",
          "type": "string"
        },
        {
          "internalType": "string",
          "name": "",
          "type": "string"
        }
      ],
      "stateMutability": "view",
      "type": "function",
      "constant": true
    },
    {
      "inputs": [
        {
          "internalType": "address",
          "name": "_studentOwner",
          "type": "address"
        },
        {
          "internalType": "string",
          "name": "_password",
          "type": "string"
        }
      ],
      "name": "checkProfile",
      "outputs": [
        {
          "internalType": "uint256",
          "name": "",
          "type": "uint256"
        }
      ],
      "stateMutability": "view",
      "type": "function",
      "constant": true
    },
    {
      "inputs": [
        {
          "internalType": "address",
          "name": "_studentOwner",
          "type": "address"
        },
        {
          "internalType": "string",
          "name": "_title",
          "type": "string"
        },
        {
          "internalType": "uint256",
          "name": "_level",
          "type": "uint256"
        }
      ],
      "name": "addSkill",
      "outputs": [],
      "stateMutability": "nonpayable",
      "type": "function"
    },
    {
      "inputs": [
        {
          "internalType": "address",
          "name": "_studentOwner",
          "type": "address"
        }
      ],
      "name": "getSkill",
      "outputs": [
        {
          "internalType": "string[]",
          "name": "",
          "type": "string[]"
        },
        {
          "internalType": "uint256[]",
          "name": "",
          "type": "uint256[]"
        }
      ],
      "stateMutability": "view",
      "type": "function",
      "constant": true
    },
    {
      "inputs": [
        {
          "internalType": "address",
          "name": "_studentOwner",
          "type": "address"
        },
        {
          "internalType": "address",
          "name": "_businessOwner",
          "type": "address"
        }
      ],
      "name": "sendCV",
      "outputs": [],
      "stateMutability": "nonpayable",
      "type": "function"
    },
    {
      "inputs": [
        {
          "internalType": "address",
          "name": "_businessOwner",
          "type": "address"
        },
        {
          "internalType": "string",
          "name": "_name",
          "type": "string"
        },
        {
          "internalType": "string",
          "name": "_country",
          "type": "string"
        },
        {
          "internalType": "string",
          "name": "_facebook",
          "type": "string"
        },
        {
          "internalType": "string",
          "name": "_website",
          "type": "string"
        },
        {
          "internalType": "string",
          "name": "_linkedin",
          "type": "string"
        },
        {
          "internalType": "string",
          "name": "_focusArea",
          "type": "string"
        }
      ],
      "name": "addBusinessProfile",
      "outputs": [],
      "stateMutability": "nonpayable",
      "type": "function"
    },
    {
      "inputs": [
        {
          "internalType": "address",
          "name": "_businessOwner",
          "type": "address"
        }
      ],
      "name": "getListBusiness",
      "outputs": [
        {
          "internalType": "string",
          "name": "",
          "type": "string"
        },
        {
          "internalType": "string",
          "name": "",
          "type": "string"
        },
        {
          "internalType": "string",
          "name": "",
          "type": "string"
        },
        {
          "internalType": "string",
          "name": "",
          "type": "string"
        },
        {
          "internalType": "string",
          "name": "",
          "type": "string"
        },
        {
          "internalType": "string",
          "name": "",
          "type": "string"
        }
      ],
      "stateMutability": "view",
      "type": "function",
      "constant": true
    },
    {
      "inputs": [
        {
          "internalType": "address",
          "name": "_businessOwner",
          "type": "address"
        }
      ],
      "name": "getListCV",
      "outputs": [
        {
          "internalType": "address[]",
          "name": "",
          "type": "address[]"
        },
        {
          "internalType": "address[]",
          "name": "",
          "type": "address[]"
        }
      ],
      "stateMutability": "view",
      "type": "function",
      "constant": true
    }
  ],
  "bytecode": "0x608060405260405162000012906200019c565b604051809103906000f0801580156200002f573d6000803e3d6000fd5b50600260006101000a81548173ffffffffffffffffffffffffffffffffffffffff021916908373ffffffffffffffffffffffffffffffffffffffff1602179055506040516200007e90620001aa565b604051809103906000f0801580156200009b573d6000803e3d6000fd5b50600360006101000a81548173ffffffffffffffffffffffffffffffffffffffff021916908373ffffffffffffffffffffffffffffffffffffffff160217905550604051620000ea90620001b8565b604051809103906000f08015801562000107573d6000803e3d6000fd5b50600460006101000a81548173ffffffffffffffffffffffffffffffffffffffff021916908373ffffffffffffffffffffffffffffffffffffffff1602179055503480156200015557600080fd5b50336000806101000a81548173ffffffffffffffffffffffffffffffffffffffff021916908373ffffffffffffffffffffffffffffffffffffffff160217905550620001c6565b611dbe8062001bd083390190565b611219806200398e83390190565b61083a8062004ba783390190565b6119fa80620001d66000396000f3fe608060405234801561001057600080fd5b506004361061009e5760003560e01c806360ccb2041161006657806360ccb2041461017757806366b40682146101935780639cd32582146101af578063ac4b2049146101e0578063b5d95096146102115761009e565b80632820c694146100a35780634bb915e4146100d85780634d9d8bbf1461010d5780635b288a931461013d5780635e01eb5a14610159575b600080fd5b6100bd60048036038101906100b891906108b8565b61022d565b6040516100cf9695949392919061097e565b60405180910390f35b6100f260048036038101906100ed91906108b8565b6102ec565b6040516101049695949392919061097e565b60405180910390f35b61012760048036038101906101229190610b3e565b6103ab565b6040516101349190610bb3565b60405180910390f35b61015760048036038101906101529190610bce565b610453565b005b6101616104f8565b60405161016e9190610d57565b60405180910390f35b610191600480360381019061018c9190610d9e565b610521565b005b6101ad60048036038101906101a89190610e0d565b6105b7565b005b6101c960048036038101906101c491906108b8565b61064a565b6040516101d7929190610f0b565b60405180910390f35b6101fa60048036038101906101f591906108b8565b6106f7565b60405161020892919061110c565b60405180910390f35b61022b60048036038101906102269190611143565b6107a4565b005b606080606080606080600260009054906101000a900473ffffffffffffffffffffffffffffffffffffffff1673ffffffffffffffffffffffffffffffffffffffff166398947ec4886040518263ffffffff1660e01b81526004016102919190610d57565b600060405180830381865afa1580156102ae573d6000803e3d6000fd5b505050506040513d6000823e3d601f19601f820116820180604052508101906102d791906112fd565b95509550955095509550955091939550919395565b606080606080606080600360009054906101000a900473ffffffffffffffffffffffffffffffffffffffff1673ffffffffffffffffffffffffffffffffffffffff1663c8dd4f8e886040518263ffffffff1660e01b81526004016103509190610d57565b600060405180830381865afa15801561036d573d6000803e3d6000fd5b505050506040513d6000823e3d601f19601f8201168201806040525081019061039691906112fd565b95509550955095509550955091939550919395565b6000600260009054906101000a900473ffffffffffffffffffffffffffffffffffffffff1673ffffffffffffffffffffffffffffffffffffffff16638ac62b2b84846040518363ffffffff1660e01b815260040161040a929190611432565b602060405180830381865afa158015610427573d6000803e3d6000fd5b505050506040513d601f19601f8201168201806040525081019061044b9190611477565b905092915050565b600260009054906101000a900473ffffffffffffffffffffffffffffffffffffffff1673ffffffffffffffffffffffffffffffffffffffff16639fea8e1089898989898989896040518963ffffffff1660e01b81526004016104bc9897969594939291906114a4565b600060405180830381600087803b1580156104d657600080fd5b505af11580156104ea573d6000803e3d6000fd5b505050505050505050505050565b60008060009054906101000a900473ffffffffffffffffffffffffffffffffffffffff16905090565b600260009054906101000a900473ffffffffffffffffffffffffffffffffffffffff1673ffffffffffffffffffffffffffffffffffffffff166360ccb2048484846040518463ffffffff1660e01b815260040161058093929190611553565b600060405180830381600087803b15801561059a57600080fd5b505af11580156105ae573d6000803e3d6000fd5b50505050505050565b600460009054906101000a900473ffffffffffffffffffffffffffffffffffffffff1673ffffffffffffffffffffffffffffffffffffffff16630b88dd5583836040518363ffffffff1660e01b8152600401610614929190611591565b600060405180830381600087803b15801561062e57600080fd5b505af1158015610642573d6000803e3d6000fd5b505050505050565b606080600460009054906101000a900473ffffffffffffffffffffffffffffffffffffffff1673ffffffffffffffffffffffffffffffffffffffff1663381a3bf7846040518263ffffffff1660e01b81526004016106a89190610d57565b600060405180830381865afa1580156106c5573d6000803e3d6000fd5b505050506040513d6000823e3d601f19601f820116820180604052508101906106ee9190611697565b91509150915091565b606080600260009054906101000a900473ffffffffffffffffffffffffffffffffffffffff1673ffffffffffffffffffffffffffffffffffffffff1663ac4b2049846040518263ffffffff1660e01b81526004016107559190610d57565b600060405180830381865afa158015610772573d6000803e3d6000fd5b505050506040513d6000823e3d601f19601f8201168201806040525081019061079b91906118b3565b91509150915091565b600360009054906101000a900473ffffffffffffffffffffffffffffffffffffffff1673ffffffffffffffffffffffffffffffffffffffff16631ed6aeec888888888888886040518863ffffffff1660e01b815260040161080b979695949392919061192b565b600060405180830381600087803b15801561082557600080fd5b505af1158015610839573d6000803e3d6000fd5b5050505050505050505050565b6000604051905090565b600080fd5b600080fd5b600073ffffffffffffffffffffffffffffffffffffffff82169050919050565b60006108858261085a565b9050919050565b6108958161087a565b81146108a057600080fd5b50565b6000813590506108b28161088c565b92915050565b6000602082840312156108ce576108cd610850565b5b60006108dc848285016108a3565b91505092915050565b600081519050919050565b600082825260208201905092915050565b60005b8381101561091f578082015181840152602081019050610904565b8381111561092e576000848401525b50505050565b6000601f19601f8301169050919050565b6000610950826108e5565b61095a81856108f0565b935061096a818560208601610901565b61097381610934565b840191505092915050565b600060c08201905081810360008301526109988189610945565b905081810360208301526109ac8188610945565b905081810360408301526109c08187610945565b905081810360608301526109d48186610945565b905081810360808301526109e88185610945565b905081810360a08301526109fc8184610945565b9050979650505050505050565b600080fd5b600080fd5b7f4e487b7100000000000000000000000000000000000000000000000000000000600052604160045260246000fd5b610a4b82610934565b810181811067ffffffffffffffff82111715610a6a57610a69610a13565b5b80604052505050565b6000610a7d610846565b9050610a898282610a42565b919050565b600067ffffffffffffffff821115610aa957610aa8610a13565b5b610ab282610934565b9050602081019050919050565b82818337600083830152505050565b6000610ae1610adc84610a8e565b610a73565b905082815260208101848484011115610afd57610afc610a0e565b5b610b08848285610abf565b509392505050565b600082601f830112610b2557610b24610a09565b5b8135610b35848260208601610ace565b91505092915050565b60008060408385031215610b5557610b54610850565b5b6000610b63858286016108a3565b925050602083013567ffffffffffffffff811115610b8457610b83610855565b5b610b9085828601610b10565b9150509250929050565b6000819050919050565b610bad81610b9a565b82525050565b6000602082019050610bc86000830184610ba4565b92915050565b600080600080600080600080610100898b031215610bef57610bee610850565b5b6000610bfd8b828c016108a3565b985050602089013567ffffffffffffffff811115610c1e57610c1d610855565b5b610c2a8b828c01610b10565b975050604089013567ffffffffffffffff811115610c4b57610c4a610855565b5b610c578b828c01610b10565b965050606089013567ffffffffffffffff811115610c7857610c77610855565b5b610c848b828c01610b10565b955050608089013567ffffffffffffffff811115610ca557610ca4610855565b5b610cb18b828c01610b10565b94505060a089013567ffffffffffffffff811115610cd257610cd1610855565b5b610cde8b828c01610b10565b93505060c089013567ffffffffffffffff811115610cff57610cfe610855565b5b610d0b8b828c01610b10565b92505060e089013567ffffffffffffffff811115610d2c57610d2b610855565b5b610d388b828c01610b10565b9150509295985092959890939650565b610d518161087a565b82525050565b6000602082019050610d6c6000830184610d48565b92915050565b610d7b81610b9a565b8114610d8657600080fd5b50565b600081359050610d9881610d72565b92915050565b600080600060608486031215610db757610db6610850565b5b6000610dc5868287016108a3565b935050602084013567ffffffffffffffff811115610de657610de5610855565b5b610df286828701610b10565b9250506040610e0386828701610d89565b9150509250925092565b60008060408385031215610e2457610e23610850565b5b6000610e32858286016108a3565b9250506020610e43858286016108a3565b9150509250929050565b600081519050919050565b600082825260208201905092915050565b6000819050602082019050919050565b610e828161087a565b82525050565b6000610e948383610e79565b60208301905092915050565b6000602082019050919050565b6000610eb882610e4d565b610ec28185610e58565b9350610ecd83610e69565b8060005b83811015610efe578151610ee58882610e88565b9750610ef083610ea0565b925050600181019050610ed1565b5085935050505092915050565b60006040820190508181036000830152610f258185610ead565b90508181036020830152610f398184610ead565b90509392505050565b600081519050919050565b600082825260208201905092915050565b6000819050602082019050919050565b600082825260208201905092915050565b6000610f8a826108e5565b610f948185610f6e565b9350610fa4818560208601610901565b610fad81610934565b840191505092915050565b6000610fc48383610f7f565b905092915050565b6000602082019050919050565b6000610fe482610f42565b610fee8185610f4d565b93508360208202850161100085610f5e565b8060005b8581101561103c578484038952815161101d8582610fb8565b945061102883610fcc565b925060208a01995050600181019050611004565b50829750879550505050505092915050565b600081519050919050565b600082825260208201905092915050565b6000819050602082019050919050565b61108381610b9a565b82525050565b6000611095838361107a565b60208301905092915050565b6000602082019050919050565b60006110b98261104e565b6110c38185611059565b93506110ce8361106a565b8060005b838110156110ff5781516110e68882611089565b97506110f1836110a1565b9250506001810190506110d2565b5085935050505092915050565b600060408201905081810360008301526111268185610fd9565b9050818103602083015261113a81846110ae565b90509392505050565b600080600080600080600060e0888a03121561116257611161610850565b5b60006111708a828b016108a3565b975050602088013567ffffffffffffffff81111561119157611190610855565b5b61119d8a828b01610b10565b965050604088013567ffffffffffffffff8111156111be576111bd610855565b5b6111ca8a828b01610b10565b955050606088013567ffffffffffffffff8111156111eb576111ea610855565b5b6111f78a828b01610b10565b945050608088013567ffffffffffffffff81111561121857611217610855565b5b6112248a828b01610b10565b93505060a088013567ffffffffffffffff81111561124557611244610855565b5b6112518a828b01610b10565b92505060c088013567ffffffffffffffff81111561127257611271610855565b5b61127e8a828b01610b10565b91505092959891949750929550565b60006112a061129b84610a8e565b610a73565b9050828152602081018484840111156112bc576112bb610a0e565b5b6112c7848285610901565b509392505050565b600082601f8301126112e4576112e3610a09565b5b81516112f484826020860161128d565b91505092915050565b60008060008060008060c0878903121561131a57611319610850565b5b600087015167ffffffffffffffff81111561133857611337610855565b5b61134489828a016112cf565b965050602087015167ffffffffffffffff81111561136557611364610855565b5b61137189828a016112cf565b955050604087015167ffffffffffffffff81111561139257611391610855565b5b61139e89828a016112cf565b945050606087015167ffffffffffffffff8111156113bf576113be610855565b5b6113cb89828a016112cf565b935050608087015167ffffffffffffffff8111156113ec576113eb610855565b5b6113f889828a016112cf565b92505060a087015167ffffffffffffffff81111561141957611418610855565b5b61142589828a016112cf565b9150509295509295509295565b60006040820190506114476000830185610d48565b81810360208301526114598184610945565b90509392505050565b60008151905061147181610d72565b92915050565b60006020828403121561148d5761148c610850565b5b600061149b84828501611462565b91505092915050565b6000610100820190506114ba600083018b610d48565b81810360208301526114cc818a610945565b905081810360408301526114e08189610945565b905081810360608301526114f48188610945565b905081810360808301526115088187610945565b905081810360a083015261151c8186610945565b905081810360c08301526115308185610945565b905081810360e08301526115448184610945565b90509998505050505050505050565b60006060820190506115686000830186610d48565b818103602083015261157a8185610945565b90506115896040830184610ba4565b949350505050565b60006040820190506115a66000830185610d48565b6115b36020830184610d48565b9392505050565b600067ffffffffffffffff8211156115d5576115d4610a13565b5b602082029050602081019050919050565b600080fd5b6000815190506115fa8161088c565b92915050565b600061161361160e846115ba565b610a73565b90508083825260208201905060208402830185811115611636576116356115e6565b5b835b8181101561165f578061164b88826115eb565b845260208401935050602081019050611638565b5050509392505050565b600082601f83011261167e5761167d610a09565b5b815161168e848260208601611600565b91505092915050565b600080604083850312156116ae576116ad610850565b5b600083015167ffffffffffffffff8111156116cc576116cb610855565b5b6116d885828601611669565b925050602083015167ffffffffffffffff8111156116f9576116f8610855565b5b61170585828601611669565b9150509250929050565b600067ffffffffffffffff82111561172a57611729610a13565b5b602082029050602081019050919050565b600061174e6117498461170f565b610a73565b90508083825260208201905060208402830185811115611771576117706115e6565b5b835b818110156117b857805167ffffffffffffffff81111561179657611795610a09565b5b8086016117a389826112cf565b85526020850194505050602081019050611773565b5050509392505050565b600082601f8301126117d7576117d6610a09565b5b81516117e784826020860161173b565b91505092915050565b600067ffffffffffffffff82111561180b5761180a610a13565b5b602082029050602081019050919050565b600061182f61182a846117f0565b610a73565b90508083825260208201905060208402830185811115611852576118516115e6565b5b835b8181101561187b57806118678882611462565b845260208401935050602081019050611854565b5050509392505050565b600082601f83011261189a57611899610a09565b5b81516118aa84826020860161181c565b91505092915050565b600080604083850312156118ca576118c9610850565b5b600083015167ffffffffffffffff8111156118e8576118e7610855565b5b6118f4858286016117c2565b925050602083015167ffffffffffffffff81111561191557611914610855565b5b61192185828601611885565b9150509250929050565b600060e082019050611940600083018a610d48565b81810360208301526119528189610945565b905081810360408301526119668188610945565b9050818103606083015261197a8187610945565b9050818103608083015261198e8186610945565b905081810360a08301526119a28185610945565b905081810360c08301526119b68184610945565b90509897505050505050505056fea2646970667358221220eba0de64c2eea14b355bd7d6f56b03affddd28143b033f39c348b8dcd9dbb4ca64736f6c634300080b0033608060405234801561001057600080fd5b50611d9e806100206000396000f3fe608060405234801561001057600080fd5b506004361061007d5760003560e01c80638ac62b2b1161005b5780638ac62b2b1461010757806398947ec4146101375780639fea8e101461016c578063ac4b2049146101885761007d565b80633aff2cc51461008257806360ccb204146100b457806367047107146100d0575b600080fd5b61009c600480360381019061009791906112c1565b6101b9565b6040516100ab939291906113d7565b60405180910390f35b6100ce60048036038101906100c99190611576565b61029b565b005b6100ea60048036038101906100e591906112c1565b6103bd565b6040516100fe9897969594939291906115e5565b60405180910390f35b610121600480360381019061011c9190611694565b6107ed565b60405161012e91906116f0565b60405180910390f35b610151600480360381019061014c919061170b565b6108eb565b60405161016396959493929190611738565b60405180910390f35b610186600480360381019061018191906117c3565b610dd3565b005b6101a2600480360381019061019d919061170b565b610f6c565b6040516101b0929190611b07565b60405180910390f35b600181815481106101c957600080fd5b90600052602060002090600302016000915090508060000160009054906101000a900473ffffffffffffffffffffffffffffffffffffffff169080600101805461021290611b6d565b80601f016020809104026020016040519081016040528092919081815260200182805461023e90611b6d565b801561028b5780601f106102605761010080835404028352916020019161028b565b820191906000526020600020905b81548152906001019060200180831161026e57829003601f168201915b5050505050908060020154905083565b600081101580156102ad575060648111155b6102ec576040517f08c379a00000000000000000000000000000000000000000000000000000000081526004016102e390611beb565b60405180910390fd5b600160405180606001604052808573ffffffffffffffffffffffffffffffffffffffff16815260200184815260200183815250908060018154018082558091505060019003906000526020600020906003020160009091909190915060008201518160000160006101000a81548173ffffffffffffffffffffffffffffffffffffffff021916908373ffffffffffffffffffffffffffffffffffffffff16021790555060208201518160010190805190602001906103ab9291906111d4565b50604082015181600201555050505050565b600081815481106103cd57600080fd5b90600052602060002090600802016000915090508060000160009054906101000a900473ffffffffffffffffffffffffffffffffffffffff169080600101805461041690611b6d565b80601f016020809104026020016040519081016040528092919081815260200182805461044290611b6d565b801561048f5780601f106104645761010080835404028352916020019161048f565b820191906000526020600020905b81548152906001019060200180831161047257829003601f168201915b5050505050908060020180546104a490611b6d565b80601f01602080910402602001604051908101604052809291908181526020018280546104d090611b6d565b801561051d5780601f106104f25761010080835404028352916020019161051d565b820191906000526020600020905b81548152906001019060200180831161050057829003601f168201915b50505050509080600301805461053290611b6d565b80601f016020809104026020016040519081016040528092919081815260200182805461055e90611b6d565b80156105ab5780601f10610580576101008083540402835291602001916105ab565b820191906000526020600020905b81548152906001019060200180831161058e57829003601f168201915b5050505050908060040180546105c090611b6d565b80601f01602080910402602001604051908101604052809291908181526020018280546105ec90611b6d565b80156106395780601f1061060e57610100808354040283529160200191610639565b820191906000526020600020905b81548152906001019060200180831161061c57829003601f168201915b50505050509080600501805461064e90611b6d565b80601f016020809104026020016040519081016040528092919081815260200182805461067a90611b6d565b80156106c75780601f1061069c576101008083540402835291602001916106c7565b820191906000526020600020905b8154815290600101906020018083116106aa57829003601f168201915b5050505050908060060180546106dc90611b6d565b80601f016020809104026020016040519081016040528092919081815260200182805461070890611b6d565b80156107555780601f1061072a57610100808354040283529160200191610755565b820191906000526020600020905b81548152906001019060200180831161073857829003601f168201915b50505050509080600701805461076a90611b6d565b80601f016020809104026020016040519081016040528092919081815260200182805461079690611b6d565b80156107e35780601f106107b8576101008083540402835291602001916107e3565b820191906000526020600020905b8154815290600101906020018083116107c657829003601f168201915b5050505050905088565b600080600090505b6000805490508110156108e3578373ffffffffffffffffffffffffffffffffffffffff166000828154811061082d5761082c611c0b565b5b906000526020600020906008020160000160009054906101000a900473ffffffffffffffffffffffffffffffffffffffff1673ffffffffffffffffffffffffffffffffffffffff161480156108c1575082805190602001206000828154811061089957610898611c0b565b5b90600052602060002090600802016007016040516108b79190611cd9565b6040518091039020145b156108d05760019150506108e5565b80806108db90611d1f565b9150506107f5565b505b92915050565b60608060608060608060005b600080549050811015610dc8578773ffffffffffffffffffffffffffffffffffffffff166000828154811061092f5761092e611c0b565b5b906000526020600020906008020160000160009054906101000a900473ffffffffffffffffffffffffffffffffffffffff1673ffffffffffffffffffffffffffffffffffffffff161415610db5576000818154811061099157610990611c0b565b5b9060005260206000209060080201600101600082815481106109b6576109b5611c0b565b5b9060005260206000209060080201600201600083815481106109db576109da611c0b565b5b906000526020600020906008020160030160008481548110610a00576109ff611c0b565b5b906000526020600020906008020160040160008581548110610a2557610a24611c0b565b5b906000526020600020906008020160050160008681548110610a4a57610a49611c0b565b5b9060005260206000209060080201600601858054610a6790611b6d565b80601f0160208091040260200160405190810160405280929190818152602001828054610a9390611b6d565b8015610ae05780601f10610ab557610100808354040283529160200191610ae0565b820191906000526020600020905b815481529060010190602001808311610ac357829003601f168201915b50505050509550848054610af390611b6d565b80601f0160208091040260200160405190810160405280929190818152602001828054610b1f90611b6d565b8015610b6c5780601f10610b4157610100808354040283529160200191610b6c565b820191906000526020600020905b815481529060010190602001808311610b4f57829003601f168201915b50505050509450838054610b7f90611b6d565b80601f0160208091040260200160405190810160405280929190818152602001828054610bab90611b6d565b8015610bf85780601f10610bcd57610100808354040283529160200191610bf8565b820191906000526020600020905b815481529060010190602001808311610bdb57829003601f168201915b50505050509350828054610c0b90611b6d565b80601f0160208091040260200160405190810160405280929190818152602001828054610c3790611b6d565b8015610c845780601f10610c5957610100808354040283529160200191610c84565b820191906000526020600020905b815481529060010190602001808311610c6757829003601f168201915b50505050509250818054610c9790611b6d565b80601f0160208091040260200160405190810160405280929190818152602001828054610cc390611b6d565b8015610d105780601f10610ce557610100808354040283529160200191610d10565b820191906000526020600020905b815481529060010190602001808311610cf357829003601f168201915b50505050509150808054610d2390611b6d565b80601f0160208091040260200160405190810160405280929190818152602001828054610d4f90611b6d565b8015610d9c5780601f10610d7157610100808354040283529160200191610d9c565b820191906000526020600020905b815481529060010190602001808311610d7f57829003601f168201915b5050505050905096509650965096509650965050610dca565b8080610dc090611d1f565b9150506108f7565b505b91939550919395565b60006040518061010001604052808a73ffffffffffffffffffffffffffffffffffffffff16815260200189815260200188815260200187815260200186815260200185815260200184815260200183815250908060018154018082558091505060019003906000526020600020906008020160009091909190915060008201518160000160006101000a81548173ffffffffffffffffffffffffffffffffffffffff021916908373ffffffffffffffffffffffffffffffffffffffff1602179055506020820151816001019080519060200190610eb19291906111d4565b506040820151816002019080519060200190610ece9291906111d4565b506060820151816003019080519060200190610eeb9291906111d4565b506080820151816004019080519060200190610f089291906111d4565b5060a0820151816005019080519060200190610f259291906111d4565b5060c0820151816006019080519060200190610f429291906111d4565b5060e0820151816007019080519060200190610f5f9291906111d4565b5050505050505050505050565b606080600060018054905067ffffffffffffffff811115610f9057610f8f61144b565b5b604051908082528060200260200182016040528015610fc357816020015b6060815260200190600190039081610fae5790505b509050600060018054905067ffffffffffffffff811115610fe757610fe661144b565b5b6040519080825280602002602001820160405280156110155781602001602082028036833780820191505090505b50905060005b6001805490508110156111c6578573ffffffffffffffffffffffffffffffffffffffff166001828154811061105357611052611c0b565b5b906000526020600020906003020160000160009054906101000a900473ffffffffffffffffffffffffffffffffffffffff1673ffffffffffffffffffffffffffffffffffffffff1614156111b357600181815481106110b5576110b4611c0b565b5b906000526020600020906003020160010180546110d190611b6d565b80601f01602080910402602001604051908101604052809291908181526020018280546110fd90611b6d565b801561114a5780601f1061111f5761010080835404028352916020019161114a565b820191906000526020600020905b81548152906001019060200180831161112d57829003601f168201915b505050505083828151811061116257611161611c0b565b5b60200260200101819052506001818154811061118157611180611c0b565b5b9060005260206000209060030201600201548282815181106111a6576111a5611c0b565b5b6020026020010181815250505b80806111be90611d1f565b91505061101b565b508181935093505050915091565b8280546111e090611b6d565b90600052602060002090601f0160209004810192826112025760008555611249565b82601f1061121b57805160ff1916838001178555611249565b82800160010185558215611249579182015b8281111561124857825182559160200191906001019061122d565b5b509050611256919061125a565b5090565b5b8082111561127357600081600090555060010161125b565b5090565b6000604051905090565b600080fd5b600080fd5b6000819050919050565b61129e8161128b565b81146112a957600080fd5b50565b6000813590506112bb81611295565b92915050565b6000602082840312156112d7576112d6611281565b5b60006112e5848285016112ac565b91505092915050565b600073ffffffffffffffffffffffffffffffffffffffff82169050919050565b6000611319826112ee565b9050919050565b6113298161130e565b82525050565b600081519050919050565b600082825260208201905092915050565b60005b8381101561136957808201518184015260208101905061134e565b83811115611378576000848401525b50505050565b6000601f19601f8301169050919050565b600061139a8261132f565b6113a4818561133a565b93506113b481856020860161134b565b6113bd8161137e565b840191505092915050565b6113d18161128b565b82525050565b60006060820190506113ec6000830186611320565b81810360208301526113fe818561138f565b905061140d60408301846113c8565b949350505050565b61141e8161130e565b811461142957600080fd5b50565b60008135905061143b81611415565b92915050565b600080fd5b600080fd5b7f4e487b7100000000000000000000000000000000000000000000000000000000600052604160045260246000fd5b6114838261137e565b810181811067ffffffffffffffff821117156114a2576114a161144b565b5b80604052505050565b60006114b5611277565b90506114c1828261147a565b919050565b600067ffffffffffffffff8211156114e1576114e061144b565b5b6114ea8261137e565b9050602081019050919050565b82818337600083830152505050565b6000611519611514846114c6565b6114ab565b90508281526020810184848401111561153557611534611446565b5b6115408482856114f7565b509392505050565b600082601f83011261155d5761155c611441565b5b813561156d848260208601611506565b91505092915050565b60008060006060848603121561158f5761158e611281565b5b600061159d8682870161142c565b935050602084013567ffffffffffffffff8111156115be576115bd611286565b5b6115ca86828701611548565b92505060406115db868287016112ac565b9150509250925092565b6000610100820190506115fb600083018b611320565b818103602083015261160d818a61138f565b90508181036040830152611621818961138f565b90508181036060830152611635818861138f565b90508181036080830152611649818761138f565b905081810360a083015261165d818661138f565b905081810360c0830152611671818561138f565b905081810360e0830152611685818461138f565b90509998505050505050505050565b600080604083850312156116ab576116aa611281565b5b60006116b98582860161142c565b925050602083013567ffffffffffffffff8111156116da576116d9611286565b5b6116e685828601611548565b9150509250929050565b600060208201905061170560008301846113c8565b92915050565b60006020828403121561172157611720611281565b5b600061172f8482850161142c565b91505092915050565b600060c0820190508181036000830152611752818961138f565b90508181036020830152611766818861138f565b9050818103604083015261177a818761138f565b9050818103606083015261178e818661138f565b905081810360808301526117a2818561138f565b905081810360a08301526117b6818461138f565b9050979650505050505050565b600080600080600080600080610100898b0312156117e4576117e3611281565b5b60006117f28b828c0161142c565b985050602089013567ffffffffffffffff81111561181357611812611286565b5b61181f8b828c01611548565b975050604089013567ffffffffffffffff8111156118405761183f611286565b5b61184c8b828c01611548565b965050606089013567ffffffffffffffff81111561186d5761186c611286565b5b6118798b828c01611548565b955050608089013567ffffffffffffffff81111561189a57611899611286565b5b6118a68b828c01611548565b94505060a089013567ffffffffffffffff8111156118c7576118c6611286565b5b6118d38b828c01611548565b93505060c089013567ffffffffffffffff8111156118f4576118f3611286565b5b6119008b828c01611548565b92505060e089013567ffffffffffffffff81111561192157611920611286565b5b61192d8b828c01611548565b9150509295985092959890939650565b600081519050919050565b600082825260208201905092915050565b6000819050602082019050919050565b600082825260208201905092915050565b60006119858261132f565b61198f8185611969565b935061199f81856020860161134b565b6119a88161137e565b840191505092915050565b60006119bf838361197a565b905092915050565b6000602082019050919050565b60006119df8261193d565b6119e98185611948565b9350836020820285016119fb85611959565b8060005b85811015611a375784840389528151611a1885826119b3565b9450611a23836119c7565b925060208a019950506001810190506119ff565b50829750879550505050505092915050565b600081519050919050565b600082825260208201905092915050565b6000819050602082019050919050565b611a7e8161128b565b82525050565b6000611a908383611a75565b60208301905092915050565b6000602082019050919050565b6000611ab482611a49565b611abe8185611a54565b9350611ac983611a65565b8060005b83811015611afa578151611ae18882611a84565b9750611aec83611a9c565b925050600181019050611acd565b5085935050505092915050565b60006040820190508181036000830152611b2181856119d4565b90508181036020830152611b358184611aa9565b90509392505050565b7f4e487b7100000000000000000000000000000000000000000000000000000000600052602260045260246000fd5b60006002820490506001821680611b8557607f821691505b60208210811415611b9957611b98611b3e565b5b50919050565b7f4c6576656c206f6620736b696c6c20696e636f72726563742e00000000000000600082015250565b6000611bd560198361133a565b9150611be082611b9f565b602082019050919050565b60006020820190508181036000830152611c0481611bc8565b9050919050565b7f4e487b7100000000000000000000000000000000000000000000000000000000600052603260045260246000fd5b600081905092915050565b60008190508160005260206000209050919050565b60008154611c6781611b6d565b611c718186611c3a565b94506001821660008114611c8c5760018114611c9d57611cd0565b60ff19831686528186019350611cd0565b611ca685611c45565b60005b83811015611cc857815481890152600182019150602081019050611ca9565b838801955050505b50505092915050565b6000611ce58284611c5a565b915081905092915050565b7f4e487b7100000000000000000000000000000000000000000000000000000000600052601160045260246000fd5b6000611d2a8261128b565b91507fffffffffffffffffffffffffffffffffffffffffffffffffffffffffffffffff821415611d5d57611d5c611cf0565b5b60018201905091905056fea2646970667358221220f9f5acc937aaa80c4d31bceb56911d2274bdcacc49d0b3e268ae4e13e4b2651264736f6c634300080b0033608060405234801561001057600080fd5b506111f9806100206000396000f3fe608060405234801561001057600080fd5b50600436106100415760003560e01c80631ed6aeec14610046578063bf44b30314610062578063c8dd4f8e14610098575b600080fd5b610060600480360381019061005b9190610d26565b6100cd565b005b61007c60048036038101906100779190610ea6565b610241565b60405161008f9796959493929190610f6a565b60405180910390f35b6100b260048036038101906100ad9190611003565b6105e3565b6040516100c496959493929190611030565b60405180910390f35b60006040518060e001604052808973ffffffffffffffffffffffffffffffffffffffff16815260200188815260200187815260200186815260200185815260200184815260200183815250908060018154018082558091505060019003906000526020600020906007020160009091909190915060008201518160000160006101000a81548173ffffffffffffffffffffffffffffffffffffffff021916908373ffffffffffffffffffffffffffffffffffffffff16021790555060208201518160010190805190602001906101a4929190610acb565b5060408201518160020190805190602001906101c1929190610acb565b5060608201518160030190805190602001906101de929190610acb565b5060808201518160040190805190602001906101fb929190610acb565b5060a0820151816005019080519060200190610218929190610acb565b5060c0820151816006019080519060200190610235929190610acb565b50505050505050505050565b6000818154811061025157600080fd5b90600052602060002090600702016000915090508060000160009054906101000a900473ffffffffffffffffffffffffffffffffffffffff169080600101805461029a906110ea565b80601f01602080910402602001604051908101604052809291908181526020018280546102c6906110ea565b80156103135780601f106102e857610100808354040283529160200191610313565b820191906000526020600020905b8154815290600101906020018083116102f657829003601f168201915b505050505090806002018054610328906110ea565b80601f0160208091040260200160405190810160405280929190818152602001828054610354906110ea565b80156103a15780601f10610376576101008083540402835291602001916103a1565b820191906000526020600020905b81548152906001019060200180831161038457829003601f168201915b5050505050908060030180546103b6906110ea565b80601f01602080910402602001604051908101604052809291908181526020018280546103e2906110ea565b801561042f5780601f106104045761010080835404028352916020019161042f565b820191906000526020600020905b81548152906001019060200180831161041257829003601f168201915b505050505090806004018054610444906110ea565b80601f0160208091040260200160405190810160405280929190818152602001828054610470906110ea565b80156104bd5780601f10610492576101008083540402835291602001916104bd565b820191906000526020600020905b8154815290600101906020018083116104a057829003601f168201915b5050505050908060050180546104d2906110ea565b80601f01602080910402602001604051908101604052809291908181526020018280546104fe906110ea565b801561054b5780601f106105205761010080835404028352916020019161054b565b820191906000526020600020905b81548152906001019060200180831161052e57829003601f168201915b505050505090806006018054610560906110ea565b80601f016020809104026020016040519081016040528092919081815260200182805461058c906110ea565b80156105d95780601f106105ae576101008083540402835291602001916105d9565b820191906000526020600020905b8154815290600101906020018083116105bc57829003601f168201915b5050505050905087565b60608060608060608060005b600080549050811015610ac0578773ffffffffffffffffffffffffffffffffffffffff16600082815481106106275761062661111c565b5b906000526020600020906007020160000160009054906101000a900473ffffffffffffffffffffffffffffffffffffffff1673ffffffffffffffffffffffffffffffffffffffff161415610aad57600081815481106106895761068861111c565b5b9060005260206000209060070201600101600082815481106106ae576106ad61111c565b5b9060005260206000209060070201600201600083815481106106d3576106d261111c565b5b9060005260206000209060070201600301600084815481106106f8576106f761111c565b5b90600052602060002090600702016004016000858154811061071d5761071c61111c565b5b9060005260206000209060070201600501600086815481106107425761074161111c565b5b906000526020600020906007020160060185805461075f906110ea565b80601f016020809104026020016040519081016040528092919081815260200182805461078b906110ea565b80156107d85780601f106107ad576101008083540402835291602001916107d8565b820191906000526020600020905b8154815290600101906020018083116107bb57829003601f168201915b505050505095508480546107eb906110ea565b80601f0160208091040260200160405190810160405280929190818152602001828054610817906110ea565b80156108645780601f1061083957610100808354040283529160200191610864565b820191906000526020600020905b81548152906001019060200180831161084757829003601f168201915b50505050509450838054610877906110ea565b80601f01602080910402602001604051908101604052809291908181526020018280546108a3906110ea565b80156108f05780601f106108c5576101008083540402835291602001916108f0565b820191906000526020600020905b8154815290600101906020018083116108d357829003601f168201915b50505050509350828054610903906110ea565b80601f016020809104026020016040519081016040528092919081815260200182805461092f906110ea565b801561097c5780601f106109515761010080835404028352916020019161097c565b820191906000526020600020905b81548152906001019060200180831161095f57829003601f168201915b5050505050925081805461098f906110ea565b80601f01602080910402602001604051908101604052809291908181526020018280546109bb906110ea565b8015610a085780601f106109dd57610100808354040283529160200191610a08565b820191906000526020600020905b8154815290600101906020018083116109eb57829003601f168201915b50505050509150808054610a1b906110ea565b80601f0160208091040260200160405190810160405280929190818152602001828054610a47906110ea565b8015610a945780601f10610a6957610100808354040283529160200191610a94565b820191906000526020600020905b815481529060010190602001808311610a7757829003601f168201915b5050505050905096509650965096509650965050610ac2565b8080610ab89061117a565b9150506105ef565b505b91939550919395565b828054610ad7906110ea565b90600052602060002090601f016020900481019282610af95760008555610b40565b82601f10610b1257805160ff1916838001178555610b40565b82800160010185558215610b40579182015b82811115610b3f578251825591602001919060010190610b24565b5b509050610b4d9190610b51565b5090565b5b80821115610b6a576000816000905550600101610b52565b5090565b6000604051905090565b600080fd5b600080fd5b600073ffffffffffffffffffffffffffffffffffffffff82169050919050565b6000610bad82610b82565b9050919050565b610bbd81610ba2565b8114610bc857600080fd5b50565b600081359050610bda81610bb4565b92915050565b600080fd5b600080fd5b6000601f19601f8301169050919050565b7f4e487b7100000000000000000000000000000000000000000000000000000000600052604160045260246000fd5b610c3382610bea565b810181811067ffffffffffffffff82111715610c5257610c51610bfb565b5b80604052505050565b6000610c65610b6e565b9050610c718282610c2a565b919050565b600067ffffffffffffffff821115610c9157610c90610bfb565b5b610c9a82610bea565b9050602081019050919050565b82818337600083830152505050565b6000610cc9610cc484610c76565b610c5b565b905082815260208101848484011115610ce557610ce4610be5565b5b610cf0848285610ca7565b509392505050565b600082601f830112610d0d57610d0c610be0565b5b8135610d1d848260208601610cb6565b91505092915050565b600080600080600080600060e0888a031215610d4557610d44610b78565b5b6000610d538a828b01610bcb565b975050602088013567ffffffffffffffff811115610d7457610d73610b7d565b5b610d808a828b01610cf8565b965050604088013567ffffffffffffffff811115610da157610da0610b7d565b5b610dad8a828b01610cf8565b955050606088013567ffffffffffffffff811115610dce57610dcd610b7d565b5b610dda8a828b01610cf8565b945050608088013567ffffffffffffffff811115610dfb57610dfa610b7d565b5b610e078a828b01610cf8565b93505060a088013567ffffffffffffffff811115610e2857610e27610b7d565b5b610e348a828b01610cf8565b92505060c088013567ffffffffffffffff811115610e5557610e54610b7d565b5b610e618a828b01610cf8565b91505092959891949750929550565b6000819050919050565b610e8381610e70565b8114610e8e57600080fd5b50565b600081359050610ea081610e7a565b92915050565b600060208284031215610ebc57610ebb610b78565b5b6000610eca84828501610e91565b91505092915050565b610edc81610ba2565b82525050565b600081519050919050565b600082825260208201905092915050565b60005b83811015610f1c578082015181840152602081019050610f01565b83811115610f2b576000848401525b50505050565b6000610f3c82610ee2565b610f468185610eed565b9350610f56818560208601610efe565b610f5f81610bea565b840191505092915050565b600060e082019050610f7f600083018a610ed3565b8181036020830152610f918189610f31565b90508181036040830152610fa58188610f31565b90508181036060830152610fb98187610f31565b90508181036080830152610fcd8186610f31565b905081810360a0830152610fe18185610f31565b905081810360c0830152610ff58184610f31565b905098975050505050505050565b60006020828403121561101957611018610b78565b5b600061102784828501610bcb565b91505092915050565b600060c082019050818103600083015261104a8189610f31565b9050818103602083015261105e8188610f31565b905081810360408301526110728187610f31565b905081810360608301526110868186610f31565b9050818103608083015261109a8185610f31565b905081810360a08301526110ae8184610f31565b9050979650505050505050565b7f4e487b7100000000000000000000000000000000000000000000000000000000600052602260045260246000fd5b6000600282049050600182168061110257607f821691505b60208210811415611116576111156110bb565b5b50919050565b7f4e487b7100000000000000000000000000000000000000000000000000000000600052603260045260246000fd5b7f4e487b7100000000000000000000000000000000000000000000000000000000600052601160045260246000fd5b600061118582610e70565b91507fffffffffffffffffffffffffffffffffffffffffffffffffffffffffffffffff8214156111b8576111b761114b565b5b60018201905091905056fea26469706673582212202a445c745c678c94bfecffe187dfac5dd90fd2f1763c3db6763bf8a7440aad4164736f6c634300080b0033608060405234801561001057600080fd5b5061081a806100206000396000f3fe608060405234801561001057600080fd5b50600436106100415760003560e01c80630b88dd5514610046578063381a3bf7146100625780637aedcde514610093575b600080fd5b610060600480360381019061005b9190610511565b6100c4565b005b61007c60048036038101906100779190610551565b6101c4565b60405161008a92919061063c565b60405180910390f35b6100ad60048036038101906100a891906106a9565b61043a565b6040516100bb9291906106e5565b60405180910390f35b600060405180604001604052808473ffffffffffffffffffffffffffffffffffffffff1681526020018373ffffffffffffffffffffffffffffffffffffffff16815250908060018154018082558091505060019003906000526020600020906002020160009091909190915060008201518160000160006101000a81548173ffffffffffffffffffffffffffffffffffffffff021916908373ffffffffffffffffffffffffffffffffffffffff16021790555060208201518160010160006101000a81548173ffffffffffffffffffffffffffffffffffffffff021916908373ffffffffffffffffffffffffffffffffffffffff16021790555050505050565b6060806000808054905067ffffffffffffffff8111156101e7576101e661070e565b5b6040519080825280602002602001820160405280156102155781602001602082028036833780820191505090505b5090506000808054905067ffffffffffffffff8111156102385761023761070e565b5b6040519080825280602002602001820160405280156102665781602001602082028036833780820191505090505b50905060005b60008054905081101561042c578573ffffffffffffffffffffffffffffffffffffffff16600082815481106102a4576102a361073d565b5b906000526020600020906002020160010160009054906101000a900473ffffffffffffffffffffffffffffffffffffffff1673ffffffffffffffffffffffffffffffffffffffff16141561041957600081815481106103065761030561073d565b5b906000526020600020906002020160000160009054906101000a900473ffffffffffffffffffffffffffffffffffffffff1683828151811061034b5761034a61073d565b5b602002602001019073ffffffffffffffffffffffffffffffffffffffff16908173ffffffffffffffffffffffffffffffffffffffff1681525050600081815481106103995761039861073d565b5b906000526020600020906002020160010160009054906101000a900473ffffffffffffffffffffffffffffffffffffffff168282815181106103de576103dd61073d565b5b602002602001019073ffffffffffffffffffffffffffffffffffffffff16908173ffffffffffffffffffffffffffffffffffffffff16815250505b80806104249061079b565b91505061026c565b508181935093505050915091565b6000818154811061044a57600080fd5b90600052602060002090600202016000915090508060000160009054906101000a900473ffffffffffffffffffffffffffffffffffffffff16908060010160009054906101000a900473ffffffffffffffffffffffffffffffffffffffff16905082565b600080fd5b600073ffffffffffffffffffffffffffffffffffffffff82169050919050565b60006104de826104b3565b9050919050565b6104ee816104d3565b81146104f957600080fd5b50565b60008135905061050b816104e5565b92915050565b60008060408385031215610528576105276104ae565b5b6000610536858286016104fc565b9250506020610547858286016104fc565b9150509250929050565b600060208284031215610567576105666104ae565b5b6000610575848285016104fc565b91505092915050565b600081519050919050565b600082825260208201905092915050565b6000819050602082019050919050565b6105b3816104d3565b82525050565b60006105c583836105aa565b60208301905092915050565b6000602082019050919050565b60006105e98261057e565b6105f38185610589565b93506105fe8361059a565b8060005b8381101561062f57815161061688826105b9565b9750610621836105d1565b925050600181019050610602565b5085935050505092915050565b6000604082019050818103600083015261065681856105de565b9050818103602083015261066a81846105de565b90509392505050565b6000819050919050565b61068681610673565b811461069157600080fd5b50565b6000813590506106a38161067d565b92915050565b6000602082840312156106bf576106be6104ae565b5b60006106cd84828501610694565b91505092915050565b6106df816104d3565b82525050565b60006040820190506106fa60008301856106d6565b61070760208301846106d6565b9392505050565b7f4e487b7100000000000000000000000000000000000000000000000000000000600052604160045260246000fd5b7f4e487b7100000000000000000000000000000000000000000000000000000000600052603260045260246000fd5b7f4e487b7100000000000000000000000000000000000000000000000000000000600052601160045260246000fd5b60006107a682610673565b91507fffffffffffffffffffffffffffffffffffffffffffffffffffffffffffffffff8214156107d9576107d861076c565b5b60018201905091905056fea26469706673582212201914c2b4b8eeb4a8559abbea39de69718a04f4acd604df6fb7aad5567a98f3d564736f6c634300080b0033",
  "immutableReferences": {},
  "source": "// SPDX-License-Identifier: MIT\r\npragma solidity >=0.4.22 <0.9.0;\r\n\r\nimport \"./SmartCV_ListStudent.sol\";\r\nimport \"./SmartCV_ListBusiness.sol\";\r\nimport \"./SmartCV_Apply.sol\";\r\n\r\n//CV dnh cho sinh vin\r\ncontract Student {\r\n\r\n    //Khai bo bin a ch ngi dng\r\n    address owner;\r\n\r\n    // Khai bo bin s d ca ngi dng\r\n    mapping(address=>uint) balances;\r\n\r\n    //Khai contract  import  s dng cc function  contract \r\n    ListStudent listStudent = new ListStudent();\r\n    ListBusiness listBusiness = new ListBusiness();\r\n    ApplyCV applyCV = new ApplyCV();\r\n    // Business business = new Business();\r\n\r\n    // Gn a ch cho ngi dng\r\n    constructor () {\r\n        owner =  msg.sender;\r\n    }\r\n\r\n    // Kim tra a ch ngi dng\r\n    function getSender() public view returns (address){\r\n        return owner;\r\n    }\r\n\r\n    // ======================================\r\n    // ======= Student Functions ============\r\n    // ======================================\r\n\r\n    // Thm thng tin sinh vin (ng k)\r\n    function addStudentProfile (\r\n        address _studentOwner,\r\n        string memory _name,\r\n        string memory _birthDay,\r\n        string memory _professionalTitle,\r\n        string memory _email,\r\n        string memory _github,\r\n        string memory _linked,\r\n        string memory _password) public {\r\n            listStudent.addSV(_studentOwner, _name, _birthDay, _professionalTitle, _email, _github, _linked, _password);\r\n    }\r\n\r\n    function getListStudent(address _studentOwner) public view returns(string memory, string memory, string memory, string memory, string memory, string memory)  {\r\n        return listStudent.getListSV(_studentOwner);\r\n    }\r\n\r\n    // Kim tra ti khon ngi dng c tn ti hay khng? (ng nhp)\r\n    function checkProfile(address _studentOwner, string memory _password) public view returns(uint)  {\r\n        return listStudent.checkStudent(_studentOwner, _password);\r\n    }\r\n\r\n    function addSkill (\r\n        address _studentOwner,\r\n        string memory _title, \r\n        uint _level) public {\r\n            listStudent.addSkill(_studentOwner, _title, _level);\r\n    }\r\n\r\n    function getSkill(address _studentOwner) public view returns(string[] memory,uint[] memory)  {\r\n        return listStudent.getSkill(_studentOwner);\r\n    }\r\n\r\n    // Gi CV\r\n    function sendCV(address _studentOwner, address _businessOwner) public {\r\n        applyCV.addCV(_studentOwner, _businessOwner);\r\n    }\r\n\r\n    // ======================================\r\n    // ======= Business Functions ===========\r\n    // ======================================\r\n\r\n    // Thm thng tin doanh nghip (ng k)\r\n    function addBusinessProfile (\r\n        address _businessOwner,\r\n        string memory _name,\r\n        string memory _country,\r\n        string memory _facebook,\r\n        string memory _website,\r\n        string memory _linkedin,\r\n        string memory _focusArea) public {\r\n            listBusiness.addDN(_businessOwner, _name, _country, _facebook, _website, _linkedin, _focusArea);\r\n    }\r\n\r\n    function getListBusiness(address _businessOwner) public view returns(string memory, string memory, string memory, string memory, string memory, string memory)  {\r\n        return listBusiness.getListDN(_businessOwner);\r\n    }\r\n\r\n    // // Ly danh sch CV np vo cng ty\r\n    function getListCV(address _businessOwner) public view returns(address[] memory, address[] memory)  {\r\n        return applyCV.getCV(_businessOwner);\r\n    }\r\n    \r\n\r\n}",
  "sourcePath": "C:\\Users\\19520\\Documents\\NCKH_Blockchain\\SolidityProgramming\\ProjectResearch\\SmartCV\\SmartContract\\contracts\\SmartCV_Student.sol",
  "compiler": {
    "name": "solc",
    "version": "0.8.11+commit.d7f03943.Emscripten.clang"
  },
  "schemaVersion": "3.4.4",
  "updatedAt": "2022-06-25T15:49:55.792Z",
  "networkType": "ethereum",
  "devdoc": {
    "kind": "dev",
    "methods": {},
    "version": 1
  },
  "userdoc": {
    "kind": "user",
    "methods": {},
    "version": 1
  }
}