{
  "contractName": "Student",
  "abi": [
    {
      "inputs": [
        {
          "internalType": "address",
          "name": "_studentOwner",
          "type": "address"
        },
        {
          "internalType": "string",
          "name": "_name",
          "type": "string"
        },
        {
          "internalType": "string",
          "name": "_birthDay",
          "type": "string"
        },
        {
          "internalType": "string",
          "name": "_professionalTitle",
          "type": "string"
        },
        {
          "internalType": "string",
          "name": "_email",
          "type": "string"
        },
        {
          "internalType": "string",
          "name": "_github",
          "type": "string"
        },
        {
          "internalType": "string",
          "name": "_linkedin",
          "type": "string"
        },
        {
          "internalType": "string",
          "name": "_password",
          "type": "string"
        }
      ],
      "name": "addStudentProfile",
      "outputs": [],
      "stateMutability": "nonpayable",
      "type": "function"
    },
    {
      "inputs": [
        {
          "internalType": "address",
          "name": "_studentOwner",
          "type": "address"
        }
      ],
      "name": "getStudentProfile",
      "outputs": [
        {
          "internalType": "address",
          "name": "studentOwner",
          "type": "address"
        },
        {
          "internalType": "string",
          "name": "name",
          "type": "string"
        },
        {
          "internalType": "string",
          "name": "birthDay",
          "type": "string"
        },
        {
          "internalType": "string",
          "name": "professionalTitle",
          "type": "string"
        },
        {
          "internalType": "string",
          "name": "email",
          "type": "string"
        },
        {
          "internalType": "string",
          "name": "github",
          "type": "string"
        },
        {
          "internalType": "string",
          "name": "linkedin",
          "type": "string"
        },
        {
          "internalType": "string",
          "name": "password",
          "type": "string"
        }
      ],
      "stateMutability": "view",
      "type": "function",
      "constant": true
    },
    {
      "inputs": [
        {
          "internalType": "address",
          "name": "_studentOwner",
          "type": "address"
        },
        {
          "internalType": "string",
          "name": "_password",
          "type": "string"
        }
      ],
      "name": "checkStudentProfile",
      "outputs": [
        {
          "internalType": "uint256",
          "name": "x",
          "type": "uint256"
        }
      ],
      "stateMutability": "view",
      "type": "function",
      "constant": true
    },
    {
      "inputs": [
        {
          "internalType": "address",
          "name": "_studentOwner",
          "type": "address"
        },
        {
          "internalType": "string",
          "name": "_title",
          "type": "string"
        },
        {
          "internalType": "uint256",
          "name": "_level",
          "type": "uint256"
        }
      ],
      "name": "addStudentSkill",
      "outputs": [],
      "stateMutability": "nonpayable",
      "type": "function"
    },
    {
      "inputs": [
        {
          "internalType": "address",
          "name": "_studentOwner",
          "type": "address"
        },
        {
          "internalType": "string",
          "name": "_title",
          "type": "string"
        }
      ],
      "name": "checkStudentSkilll",
      "outputs": [
        {
          "internalType": "uint256",
          "name": "x",
          "type": "uint256"
        }
      ],
      "stateMutability": "view",
      "type": "function",
      "constant": true
    },
    {
      "inputs": [
        {
          "internalType": "address",
          "name": "_studentOwner",
          "type": "address"
        }
      ],
      "name": "checkNumStudentSkilll",
      "outputs": [
        {
          "internalType": "uint256",
          "name": "x",
          "type": "uint256"
        }
      ],
      "stateMutability": "view",
      "type": "function",
      "constant": true
    },
    {
      "inputs": [
        {
          "internalType": "address",
          "name": "_studentOwner",
          "type": "address"
        }
      ],
      "name": "getStudentSkill",
      "outputs": [
        {
          "internalType": "string[]",
          "name": "titles",
          "type": "string[]"
        },
        {
          "internalType": "uint256[]",
          "name": "levels",
          "type": "uint256[]"
        }
      ],
      "stateMutability": "view",
      "type": "function",
      "constant": true
    },
    {
      "inputs": [],
      "name": "getListBusiness",
      "outputs": [
        {
          "internalType": "address[]",
          "name": "",
          "type": "address[]"
        },
        {
          "internalType": "string[]",
          "name": "",
          "type": "string[]"
        },
        {
          "internalType": "string[]",
          "name": "",
          "type": "string[]"
        },
        {
          "internalType": "string[]",
          "name": "",
          "type": "string[]"
        },
        {
          "internalType": "string[]",
          "name": "",
          "type": "string[]"
        },
        {
          "internalType": "string[]",
          "name": "",
          "type": "string[]"
        },
        {
          "internalType": "string[]",
          "name": "",
          "type": "string[]"
        },
        {
          "internalType": "string[]",
          "name": "",
          "type": "string[]"
        }
      ],
      "stateMutability": "view",
      "type": "function",
      "constant": true
    },
    {
      "inputs": [
        {
          "internalType": "address",
          "name": "_businessOwner",
          "type": "address"
        }
      ],
      "name": "getRecruit",
      "outputs": [
        {
          "internalType": "string[]",
          "name": "",
          "type": "string[]"
        },
        {
          "internalType": "string[]",
          "name": "",
          "type": "string[]"
        }
      ],
      "stateMutability": "view",
      "type": "function",
      "constant": true
    },
    {
      "inputs": [
        {
          "internalType": "address",
          "name": "_studentOwner",
          "type": "address"
        },
        {
          "internalType": "address",
          "name": "_businessOwner",
          "type": "address"
        },
        {
          "internalType": "string",
          "name": "_jobTitle",
          "type": "string"
        },
        {
          "internalType": "string",
          "name": "_coverLetter",
          "type": "string"
        }
      ],
      "name": "sendCV",
      "outputs": [],
      "stateMutability": "nonpayable",
      "type": "function"
    },
    {
      "inputs": [
        {
          "internalType": "address",
          "name": "_studentOwner",
          "type": "address"
        },
        {
          "internalType": "address",
          "name": "_businessOwner",
          "type": "address"
        }
      ],
      "name": "getReview",
      "outputs": [
        {
          "internalType": "address",
          "name": "studentOwner",
          "type": "address"
        },
        {
          "internalType": "address",
          "name": "businessOwner",
          "type": "address"
        },
        {
          "internalType": "string",
          "name": "content",
          "type": "string"
        }
      ],
      "stateMutability": "view",
      "type": "function",
      "constant": true
    },
    {
      "inputs": [
        {
          "internalType": "address",
          "name": "_businessOwner",
          "type": "address"
        },
        {
          "internalType": "string",
          "name": "_name",
          "type": "string"
        },
        {
          "internalType": "string",
          "name": "_country",
          "type": "string"
        },
        {
          "internalType": "string",
          "name": "_facebook",
          "type": "string"
        },
        {
          "internalType": "string",
          "name": "_website",
          "type": "string"
        },
        {
          "internalType": "string",
          "name": "_linkedin",
          "type": "string"
        },
        {
          "internalType": "string",
          "name": "_focusArea",
          "type": "string"
        },
        {
          "internalType": "string",
          "name": "_password",
          "type": "string"
        }
      ],
      "name": "addBusinessProfile",
      "outputs": [],
      "stateMutability": "nonpayable",
      "type": "function"
    },
    {
      "inputs": [
        {
          "internalType": "address",
          "name": "_businessOwner",
          "type": "address"
        }
      ],
      "name": "getBusinessProfile",
      "outputs": [
        {
          "internalType": "address",
          "name": "businessOwner",
          "type": "address"
        },
        {
          "internalType": "string",
          "name": "name",
          "type": "string"
        },
        {
          "internalType": "string",
          "name": "country",
          "type": "string"
        },
        {
          "internalType": "string",
          "name": "facebook",
          "type": "string"
        },
        {
          "internalType": "string",
          "name": "website",
          "type": "string"
        },
        {
          "internalType": "string",
          "name": "linkedin",
          "type": "string"
        },
        {
          "internalType": "string",
          "name": "focusArea",
          "type": "string"
        }
      ],
      "stateMutability": "view",
      "type": "function",
      "constant": true
    },
    {
      "inputs": [
        {
          "internalType": "address",
          "name": "_businessOwner",
          "type": "address"
        },
        {
          "internalType": "string",
          "name": "_password",
          "type": "string"
        }
      ],
      "name": "checkBusinessProfile",
      "outputs": [
        {
          "internalType": "uint256",
          "name": "",
          "type": "uint256"
        }
      ],
      "stateMutability": "view",
      "type": "function",
      "constant": true
    },
    {
      "inputs": [
        {
          "internalType": "address",
          "name": "_businessOwner",
          "type": "address"
        }
      ],
      "name": "getListCV",
      "outputs": [
        {
          "internalType": "address[]",
          "name": "",
          "type": "address[]"
        },
        {
          "internalType": "address[]",
          "name": "",
          "type": "address[]"
        },
        {
          "internalType": "string[]",
          "name": "",
          "type": "string[]"
        },
        {
          "internalType": "string[]",
          "name": "",
          "type": "string[]"
        }
      ],
      "stateMutability": "view",
      "type": "function",
      "constant": true
    },
    {
      "inputs": [
        {
          "internalType": "address",
          "name": "_businessOwner",
          "type": "address"
        },
        {
          "internalType": "string",
          "name": "_jobTitle",
          "type": "string"
        },
        {
          "internalType": "string",
          "name": "_jobDescription",
          "type": "string"
        }
      ],
      "name": "addRecruit",
      "outputs": [],
      "stateMutability": "nonpayable",
      "type": "function"
    },
    {
      "inputs": [
        {
          "internalType": "address",
          "name": "_studentOwner",
          "type": "address"
        },
        {
          "internalType": "address",
          "name": "_businessOwner",
          "type": "address"
        },
        {
          "internalType": "string",
          "name": "_content",
          "type": "string"
        }
      ],
      "name": "sendReview",
      "outputs": [],
      "stateMutability": "nonpayable",
      "type": "function"
    }
  ],
  "bytecode": "0x608060405260405162000012906200015b565b604051809103906000f0801580156200002f573d6000803e3d6000fd5b506000806101000a81548173ffffffffffffffffffffffffffffffffffffffff021916908373ffffffffffffffffffffffffffffffffffffffff1602179055506040516200007d9062000169565b604051809103906000f0801580156200009a573d6000803e3d6000fd5b50600160006101000a81548173ffffffffffffffffffffffffffffffffffffffff021916908373ffffffffffffffffffffffffffffffffffffffff160217905550604051620000e99062000177565b604051809103906000f08015801562000106573d6000803e3d6000fd5b50600260006101000a81548173ffffffffffffffffffffffffffffffffffffffff021916908373ffffffffffffffffffffffffffffffffffffffff1602179055503480156200015457600080fd5b5062000185565b612b8d806200289183390190565b6121bf806200541e83390190565b611d8080620075dd83390190565b6126fc80620001956000396000f3fe608060405234801561001057600080fd5b506004361061010b5760003560e01c806391b9e6db116100a2578063cee5c7f311610071578063cee5c7f314610300578063e2f43af21461031c578063e9daa70a14610338578063ed1386c41461036a578063fe7617831461039a5761010b565b806391b9e6db146102505780639cd325821461026c578063acf6f3fd1461029f578063ce1ec5bb146102cf5761010b565b806357824f16116100de57806357824f16146101c25780635b288a93146101e75780636b4dbb28146102035780636d53448f146102345761010b565b80631632dd981461011057806335c77f851461012c57806342f08d4b1461015c578063435e716d14610192575b600080fd5b61012a600480360381019061012591906110e4565b6103d1565b005b61014660048036038101906101419190611153565b610467565b60405161015391906111c8565b60405180910390f35b610176600480360381019061017191906111e3565b61050f565b60405161018997969594939291906112a7565b60405180910390f35b6101ac60048036038101906101a79190611153565b6105d4565b6040516101b991906111c8565b60405180910390f35b6101ca61067b565b6040516101de98979695949392919061150a565b60405180910390f35b61020160048036038101906101fc91906115c0565b610737565b005b61021d600480360381019061021891906111e3565b6107da565b60405161022b9291906117f8565b60405180910390f35b61024e600480360381019061024991906115c0565b610885565b005b61026a6004803603810190610265919061182f565b61092a565b005b610286600480360381019061028191906111e3565b6109c3565b60405161029694939291906118ce565b60405180910390f35b6102b960048036038101906102b49190611153565b610a79565b6040516102c691906111c8565b60405180910390f35b6102e960048036038101906102e491906111e3565b610b20565b6040516102f792919061192f565b60405180910390f35b61031a60048036038101906103159190611966565b610bcd565b005b61033660048036038101906103319190611a1d565b610c63565b005b610352600480360381019061034d9190611a8c565b610cf7565b60405161036193929190611acc565b60405180910390f35b610384600480360381019061037f91906111e3565b610dac565b60405161039191906111c8565b60405180910390f35b6103b460048036038101906103af91906111e3565b610e65565b6040516103c8989796959493929190611b0a565b60405180910390f35b600260009054906101000a900473ffffffffffffffffffffffffffffffffffffffff1673ffffffffffffffffffffffffffffffffffffffff1663ae8f00d38484846040518463ffffffff1660e01b815260040161043093929190611acc565b600060405180830381600087803b15801561044a57600080fd5b505af115801561045e573d6000803e3d6000fd5b50505050505050565b6000600160009054906101000a900473ffffffffffffffffffffffffffffffffffffffff1673ffffffffffffffffffffffffffffffffffffffff1663a7dba18484846040518363ffffffff1660e01b81526004016104c6929190611bb9565b602060405180830381865afa1580156104e3573d6000803e3d6000fd5b505050506040513d601f19601f820116820180604052508101906105079190611bfe565b905092915050565b6000606080606080606080600160009054906101000a900473ffffffffffffffffffffffffffffffffffffffff1673ffffffffffffffffffffffffffffffffffffffff16630f53a470896040518263ffffffff1660e01b81526004016105759190611c2b565b600060405180830381865afa158015610592573d6000803e3d6000fd5b505050506040513d6000823e3d601f19601f820116820180604052508101906105bb9190611ccb565b9650965096509650965096509650919395979092949650565b60008060009054906101000a900473ffffffffffffffffffffffffffffffffffffffff1673ffffffffffffffffffffffffffffffffffffffff1663716b5ab484846040518363ffffffff1660e01b8152600401610632929190611bb9565b602060405180830381865afa15801561064f573d6000803e3d6000fd5b505050506040513d601f19601f820116820180604052508101906106739190611bfe565b905092915050565b606080606080606080606080600160009054906101000a900473ffffffffffffffffffffffffffffffffffffffff1673ffffffffffffffffffffffffffffffffffffffff1663cfafbc0c6040518163ffffffff1660e01b8152600401600060405180830381865afa1580156106f4573d6000803e3d6000fd5b505050506040513d6000823e3d601f19601f8201168201806040525081019061071d9190611fbe565b975097509750975097509750975097509091929394959697565b60008054906101000a900473ffffffffffffffffffffffffffffffffffffffff1673ffffffffffffffffffffffffffffffffffffffff16639fea8e1089898989898989896040518963ffffffff1660e01b815260040161079e989796959493929190611b0a565b600060405180830381600087803b1580156107b857600080fd5b505af11580156107cc573d6000803e3d6000fd5b505050505050505050505050565b60608060008054906101000a900473ffffffffffffffffffffffffffffffffffffffff1673ffffffffffffffffffffffffffffffffffffffff1663ac4b2049846040518263ffffffff1660e01b81526004016108369190611c2b565b600060405180830381865afa158015610853573d6000803e3d6000fd5b505050506040513d6000823e3d601f19601f8201168201806040525081019061087c9190612217565b91509150915091565b600160009054906101000a900473ffffffffffffffffffffffffffffffffffffffff1673ffffffffffffffffffffffffffffffffffffffff1663e045b71089898989898989896040518963ffffffff1660e01b81526004016108ee989796959493929190611b0a565b600060405180830381600087803b15801561090857600080fd5b505af115801561091c573d6000803e3d6000fd5b505050505050505050505050565b600260009054906101000a900473ffffffffffffffffffffffffffffffffffffffff1673ffffffffffffffffffffffffffffffffffffffff1663dc1e475f858585856040518563ffffffff1660e01b815260040161098b949392919061228f565b600060405180830381600087803b1580156109a557600080fd5b505af11580156109b9573d6000803e3d6000fd5b5050505050505050565b606080606080600260009054906101000a900473ffffffffffffffffffffffffffffffffffffffff1673ffffffffffffffffffffffffffffffffffffffff1663381a3bf7866040518263ffffffff1660e01b8152600401610a249190611c2b565b600060405180830381865afa158015610a41573d6000803e3d6000fd5b505050506040513d6000823e3d601f19601f82011682018060405250810190610a6a91906122e2565b93509350935093509193509193565b60008060009054906101000a900473ffffffffffffffffffffffffffffffffffffffff1673ffffffffffffffffffffffffffffffffffffffff1663174ceeab84846040518363ffffffff1660e01b8152600401610ad7929190611bb9565b602060405180830381865afa158015610af4573d6000803e3d6000fd5b505050506040513d601f19601f82011682018060405250810190610b189190611bfe565b905092915050565b606080600260009054906101000a900473ffffffffffffffffffffffffffffffffffffffff1673ffffffffffffffffffffffffffffffffffffffff1663ce1ec5bb846040518263ffffffff1660e01b8152600401610b7e9190611c2b565b600060405180830381865afa158015610b9b573d6000803e3d6000fd5b505050506040513d6000823e3d601f19601f82011682018060405250810190610bc491906123b9565b91509150915091565b600260009054906101000a900473ffffffffffffffffffffffffffffffffffffffff1673ffffffffffffffffffffffffffffffffffffffff1663cee5c7f38484846040518463ffffffff1660e01b8152600401610c2c93929190612431565b600060405180830381600087803b158015610c4657600080fd5b505af1158015610c5a573d6000803e3d6000fd5b50505050505050565b60008054906101000a900473ffffffffffffffffffffffffffffffffffffffff1673ffffffffffffffffffffffffffffffffffffffff166360ccb2048484846040518463ffffffff1660e01b8152600401610cc093929190612476565b600060405180830381600087803b158015610cda57600080fd5b505af1158015610cee573d6000803e3d6000fd5b50505050505050565b6000806060600260009054906101000a900473ffffffffffffffffffffffffffffffffffffffff1673ffffffffffffffffffffffffffffffffffffffff1663e9daa70a86866040518363ffffffff1660e01b8152600401610d599291906124b4565b600060405180830381865afa158015610d76573d6000803e3d6000fd5b505050506040513d6000823e3d601f19601f82011682018060405250810190610d9f91906124dd565b9250925092509250925092565b60008060008054906101000a900473ffffffffffffffffffffffffffffffffffffffff1673ffffffffffffffffffffffffffffffffffffffff16638e891393846040518263ffffffff1660e01b8152600401610e089190611c2b565b602060405180830381865afa158015610e25573d6000803e3d6000fd5b505050506040513d601f19601f82011682018060405250810190610e499190611bfe565b9050600a811115610e5e576001915050610e60565b505b919050565b6000606080606080606080606060008054906101000a900473ffffffffffffffffffffffffffffffffffffffff1673ffffffffffffffffffffffffffffffffffffffff16630f53a4708a6040518263ffffffff1660e01b8152600401610ecb9190611c2b565b600060405180830381865afa158015610ee8573d6000803e3d6000fd5b505050506040513d6000823e3d601f19601f82011682018060405250810190610f11919061254c565b97509750975097509750975097509750919395975091939597565b6000604051905090565b600080fd5b600080fd5b600073ffffffffffffffffffffffffffffffffffffffff82169050919050565b6000610f6b82610f40565b9050919050565b610f7b81610f60565b8114610f8657600080fd5b50565b600081359050610f9881610f72565b92915050565b600080fd5b600080fd5b6000601f19601f8301169050919050565b7f4e487b7100000000000000000000000000000000000000000000000000000000600052604160045260246000fd5b610ff182610fa8565b810181811067ffffffffffffffff821117156110105761100f610fb9565b5b80604052505050565b6000611023610f2c565b905061102f8282610fe8565b919050565b600067ffffffffffffffff82111561104f5761104e610fb9565b5b61105882610fa8565b9050602081019050919050565b82818337600083830152505050565b600061108761108284611034565b611019565b9050828152602081018484840111156110a3576110a2610fa3565b5b6110ae848285611065565b509392505050565b600082601f8301126110cb576110ca610f9e565b5b81356110db848260208601611074565b91505092915050565b6000806000606084860312156110fd576110fc610f36565b5b600061110b86828701610f89565b935050602061111c86828701610f89565b925050604084013567ffffffffffffffff81111561113d5761113c610f3b565b5b611149868287016110b6565b9150509250925092565b6000806040838503121561116a57611169610f36565b5b600061117885828601610f89565b925050602083013567ffffffffffffffff81111561119957611198610f3b565b5b6111a5858286016110b6565b9150509250929050565b6000819050919050565b6111c2816111af565b82525050565b60006020820190506111dd60008301846111b9565b92915050565b6000602082840312156111f9576111f8610f36565b5b600061120784828501610f89565b91505092915050565b61121981610f60565b82525050565b600081519050919050565b600082825260208201905092915050565b60005b8381101561125957808201518184015260208101905061123e565b83811115611268576000848401525b50505050565b60006112798261121f565b611283818561122a565b935061129381856020860161123b565b61129c81610fa8565b840191505092915050565b600060e0820190506112bc600083018a611210565b81810360208301526112ce818961126e565b905081810360408301526112e2818861126e565b905081810360608301526112f6818761126e565b9050818103608083015261130a818661126e565b905081810360a083015261131e818561126e565b905081810360c0830152611332818461126e565b905098975050505050505050565b600081519050919050565b600082825260208201905092915050565b6000819050602082019050919050565b61137581610f60565b82525050565b6000611387838361136c565b60208301905092915050565b6000602082019050919050565b60006113ab82611340565b6113b5818561134b565b93506113c08361135c565b8060005b838110156113f15781516113d8888261137b565b97506113e383611393565b9250506001810190506113c4565b5085935050505092915050565b600081519050919050565b600082825260208201905092915050565b6000819050602082019050919050565b600082825260208201905092915050565b60006114468261121f565b611450818561142a565b935061146081856020860161123b565b61146981610fa8565b840191505092915050565b6000611480838361143b565b905092915050565b6000602082019050919050565b60006114a0826113fe565b6114aa8185611409565b9350836020820285016114bc8561141a565b8060005b858110156114f857848403895281516114d98582611474565b94506114e483611488565b925060208a019950506001810190506114c0565b50829750879550505050505092915050565b6000610100820190508181036000830152611525818b6113a0565b90508181036020830152611539818a611495565b9050818103604083015261154d8189611495565b905081810360608301526115618188611495565b905081810360808301526115758187611495565b905081810360a08301526115898186611495565b905081810360c083015261159d8185611495565b905081810360e08301526115b18184611495565b90509998505050505050505050565b600080600080600080600080610100898b0312156115e1576115e0610f36565b5b60006115ef8b828c01610f89565b985050602089013567ffffffffffffffff8111156116105761160f610f3b565b5b61161c8b828c016110b6565b975050604089013567ffffffffffffffff81111561163d5761163c610f3b565b5b6116498b828c016110b6565b965050606089013567ffffffffffffffff81111561166a57611669610f3b565b5b6116768b828c016110b6565b955050608089013567ffffffffffffffff81111561169757611696610f3b565b5b6116a38b828c016110b6565b94505060a089013567ffffffffffffffff8111156116c4576116c3610f3b565b5b6116d08b828c016110b6565b93505060c089013567ffffffffffffffff8111156116f1576116f0610f3b565b5b6116fd8b828c016110b6565b92505060e089013567ffffffffffffffff81111561171e5761171d610f3b565b5b61172a8b828c016110b6565b9150509295985092959890939650565b600081519050919050565b600082825260208201905092915050565b6000819050602082019050919050565b61176f816111af565b82525050565b60006117818383611766565b60208301905092915050565b6000602082019050919050565b60006117a58261173a565b6117af8185611745565b93506117ba83611756565b8060005b838110156117eb5781516117d28882611775565b97506117dd8361178d565b9250506001810190506117be565b5085935050505092915050565b600060408201905081810360008301526118128185611495565b90508181036020830152611826818461179a565b90509392505050565b6000806000806080858703121561184957611848610f36565b5b600061185787828801610f89565b945050602061186887828801610f89565b935050604085013567ffffffffffffffff81111561188957611888610f3b565b5b611895878288016110b6565b925050606085013567ffffffffffffffff8111156118b6576118b5610f3b565b5b6118c2878288016110b6565b91505092959194509250565b600060808201905081810360008301526118e881876113a0565b905081810360208301526118fc81866113a0565b905081810360408301526119108185611495565b905081810360608301526119248184611495565b905095945050505050565b600060408201905081810360008301526119498185611495565b9050818103602083015261195d8184611495565b90509392505050565b60008060006060848603121561197f5761197e610f36565b5b600061198d86828701610f89565b935050602084013567ffffffffffffffff8111156119ae576119ad610f3b565b5b6119ba868287016110b6565b925050604084013567ffffffffffffffff8111156119db576119da610f3b565b5b6119e7868287016110b6565b9150509250925092565b6119fa816111af565b8114611a0557600080fd5b50565b600081359050611a17816119f1565b92915050565b600080600060608486031215611a3657611a35610f36565b5b6000611a4486828701610f89565b935050602084013567ffffffffffffffff811115611a6557611a64610f3b565b5b611a71868287016110b6565b9250506040611a8286828701611a08565b9150509250925092565b60008060408385031215611aa357611aa2610f36565b5b6000611ab185828601610f89565b9250506020611ac285828601610f89565b9150509250929050565b6000606082019050611ae16000830186611210565b611aee6020830185611210565b8181036040830152611b00818461126e565b9050949350505050565b600061010082019050611b20600083018b611210565b8181036020830152611b32818a61126e565b90508181036040830152611b46818961126e565b90508181036060830152611b5a818861126e565b90508181036080830152611b6e818761126e565b905081810360a0830152611b82818661126e565b905081810360c0830152611b96818561126e565b905081810360e0830152611baa818461126e565b90509998505050505050505050565b6000604082019050611bce6000830185611210565b8181036020830152611be0818461126e565b90509392505050565b600081519050611bf8816119f1565b92915050565b600060208284031215611c1457611c13610f36565b5b6000611c2284828501611be9565b91505092915050565b6000602082019050611c406000830184611210565b92915050565b600081519050611c5581610f72565b92915050565b6000611c6e611c6984611034565b611019565b905082815260208101848484011115611c8a57611c89610fa3565b5b611c9584828561123b565b509392505050565b600082601f830112611cb257611cb1610f9e565b5b8151611cc2848260208601611c5b565b91505092915050565b600080600080600080600060e0888a031215611cea57611ce9610f36565b5b6000611cf88a828b01611c46565b975050602088015167ffffffffffffffff811115611d1957611d18610f3b565b5b611d258a828b01611c9d565b965050604088015167ffffffffffffffff811115611d4657611d45610f3b565b5b611d528a828b01611c9d565b955050606088015167ffffffffffffffff811115611d7357611d72610f3b565b5b611d7f8a828b01611c9d565b945050608088015167ffffffffffffffff811115611da057611d9f610f3b565b5b611dac8a828b01611c9d565b93505060a088015167ffffffffffffffff811115611dcd57611dcc610f3b565b5b611dd98a828b01611c9d565b92505060c088015167ffffffffffffffff811115611dfa57611df9610f3b565b5b611e068a828b01611c9d565b91505092959891949750929550565b600067ffffffffffffffff821115611e3057611e2f610fb9565b5b602082029050602081019050919050565b600080fd5b6000611e59611e5484611e15565b611019565b90508083825260208201905060208402830185811115611e7c57611e7b611e41565b5b835b81811015611ea55780611e918882611c46565b845260208401935050602081019050611e7e565b5050509392505050565b600082601f830112611ec457611ec3610f9e565b5b8151611ed4848260208601611e46565b91505092915050565b600067ffffffffffffffff821115611ef857611ef7610fb9565b5b602082029050602081019050919050565b6000611f1c611f1784611edd565b611019565b90508083825260208201905060208402830185811115611f3f57611f3e611e41565b5b835b81811015611f8657805167ffffffffffffffff811115611f6457611f63610f9e565b5b808601611f718982611c9d565b85526020850194505050602081019050611f41565b5050509392505050565b600082601f830112611fa557611fa4610f9e565b5b8151611fb5848260208601611f09565b91505092915050565b600080600080600080600080610100898b031215611fdf57611fde610f36565b5b600089015167ffffffffffffffff811115611ffd57611ffc610f3b565b5b6120098b828c01611eaf565b985050602089015167ffffffffffffffff81111561202a57612029610f3b565b5b6120368b828c01611f90565b975050604089015167ffffffffffffffff81111561205757612056610f3b565b5b6120638b828c01611f90565b965050606089015167ffffffffffffffff81111561208457612083610f3b565b5b6120908b828c01611f90565b955050608089015167ffffffffffffffff8111156120b1576120b0610f3b565b5b6120bd8b828c01611f90565b94505060a089015167ffffffffffffffff8111156120de576120dd610f3b565b5b6120ea8b828c01611f90565b93505060c089015167ffffffffffffffff81111561210b5761210a610f3b565b5b6121178b828c01611f90565b92505060e089015167ffffffffffffffff81111561213857612137610f3b565b5b6121448b828c01611f90565b9150509295985092959890939650565b600067ffffffffffffffff82111561216f5761216e610fb9565b5b602082029050602081019050919050565b600061219361218e84612154565b611019565b905080838252602082019050602084028301858111156121b6576121b5611e41565b5b835b818110156121df57806121cb8882611be9565b8452602084019350506020810190506121b8565b5050509392505050565b600082601f8301126121fe576121fd610f9e565b5b815161220e848260208601612180565b91505092915050565b6000806040838503121561222e5761222d610f36565b5b600083015167ffffffffffffffff81111561224c5761224b610f3b565b5b61225885828601611f90565b925050602083015167ffffffffffffffff81111561227957612278610f3b565b5b612285858286016121e9565b9150509250929050565b60006080820190506122a46000830187611210565b6122b16020830186611210565b81810360408301526122c3818561126e565b905081810360608301526122d7818461126e565b905095945050505050565b600080600080608085870312156122fc576122fb610f36565b5b600085015167ffffffffffffffff81111561231a57612319610f3b565b5b61232687828801611eaf565b945050602085015167ffffffffffffffff81111561234757612346610f3b565b5b61235387828801611eaf565b935050604085015167ffffffffffffffff81111561237457612373610f3b565b5b61238087828801611f90565b925050606085015167ffffffffffffffff8111156123a1576123a0610f3b565b5b6123ad87828801611f90565b91505092959194509250565b600080604083850312156123d0576123cf610f36565b5b600083015167ffffffffffffffff8111156123ee576123ed610f3b565b5b6123fa85828601611f90565b925050602083015167ffffffffffffffff81111561241b5761241a610f3b565b5b61242785828601611f90565b9150509250929050565b60006060820190506124466000830186611210565b8181036020830152612458818561126e565b9050818103604083015261246c818461126e565b9050949350505050565b600060608201905061248b6000830186611210565b818103602083015261249d818561126e565b90506124ac60408301846111b9565b949350505050565b60006040820190506124c96000830185611210565b6124d66020830184611210565b9392505050565b6000806000606084860312156124f6576124f5610f36565b5b600061250486828701611c46565b935050602061251586828701611c46565b925050604084015167ffffffffffffffff81111561253657612535610f3b565b5b61254286828701611c9d565b9150509250925092565b600080600080600080600080610100898b03121561256d5761256c610f36565b5b600061257b8b828c01611c46565b985050602089015167ffffffffffffffff81111561259c5761259b610f3b565b5b6125a88b828c01611c9d565b975050604089015167ffffffffffffffff8111156125c9576125c8610f3b565b5b6125d58b828c01611c9d565b965050606089015167ffffffffffffffff8111156125f6576125f5610f3b565b5b6126028b828c01611c9d565b955050608089015167ffffffffffffffff81111561262357612622610f3b565b5b61262f8b828c01611c9d565b94505060a089015167ffffffffffffffff8111156126505761264f610f3b565b5b61265c8b828c01611c9d565b93505060c089015167ffffffffffffffff81111561267d5761267c610f3b565b5b6126898b828c01611c9d565b92505060e089015167ffffffffffffffff8111156126aa576126a9610f3b565b5b6126b68b828c01611c9d565b915050929598509295989093965056fea26469706673582212203ed9f28881bfbb7295cca91afb53af4208d6c0b6d71023844df3720f3c56571264736f6c634300080b0033608060405234801561001057600080fd5b50612b6d806100206000396000f3fe608060405234801561001057600080fd5b506004361061009e5760003560e01c8063716b5ab411610066578063716b5ab41461018f5780638e891393146101bf5780639fea8e10146101ef578063ac4b20491461020b578063d64b69131461023c5761009e565b80630f53a470146100a3578063174ceeab146100da5780633aff2cc51461010a57806360ccb2041461013c5780636704710714610158575b600080fd5b6100bd60048036038101906100b89190611f79565b610261565b6040516100d198979695949392919061204e565b60405180910390f35b6100f460048036038101906100ef9190612232565b61084a565b60405161010191906122a7565b60405180910390f35b610124600480360381019061011f91906122ee565b610948565b6040516101339392919061231b565b60405180910390f35b61015660048036038101906101519190612359565b610a2a565b005b610172600480360381019061016d91906122ee565b610b4c565b60405161018698979695949392919061204e565b60405180910390f35b6101a960048036038101906101a49190612232565b610f7c565b6040516101b691906122a7565b60405180910390f35b6101d960048036038101906101d49190611f79565b61107a565b6040516101e691906122a7565b60405180910390f35b610209600480360381019061020491906123c8565b611137565b005b61022560048036038101906102209190611f79565b6112d0565b60405161023392919061270c565b60405180910390f35b610244611538565b604051610258989796959493929190612801565b60405180910390f35b6000606080606080606080606060005b60008054905081101561083d578973ffffffffffffffffffffffffffffffffffffffff16600082815481106102a9576102a86128b7565b5b906000526020600020906008020160000160009054906101000a900473ffffffffffffffffffffffffffffffffffffffff1673ffffffffffffffffffffffffffffffffffffffff16141561082a576000818154811061030b5761030a6128b7565b5b906000526020600020906008020160000160009054906101000a900473ffffffffffffffffffffffffffffffffffffffff1660008281548110610351576103506128b7565b5b906000526020600020906008020160010160008381548110610376576103756128b7565b5b90600052602060002090600802016002016000848154811061039b5761039a6128b7565b5b9060005260206000209060080201600301600085815481106103c0576103bf6128b7565b5b9060005260206000209060080201600401600086815481106103e5576103e46128b7565b5b90600052602060002090600802016005016000878154811061040a576104096128b7565b5b90600052602060002090600802016006016000888154811061042f5761042e6128b7565b5b906000526020600020906008020160070186805461044c90612915565b80601f016020809104026020016040519081016040528092919081815260200182805461047890612915565b80156104c55780601f1061049a576101008083540402835291602001916104c5565b820191906000526020600020905b8154815290600101906020018083116104a857829003601f168201915b505050505096508580546104d890612915565b80601f016020809104026020016040519081016040528092919081815260200182805461050490612915565b80156105515780601f1061052657610100808354040283529160200191610551565b820191906000526020600020905b81548152906001019060200180831161053457829003601f168201915b5050505050955084805461056490612915565b80601f016020809104026020016040519081016040528092919081815260200182805461059090612915565b80156105dd5780601f106105b2576101008083540402835291602001916105dd565b820191906000526020600020905b8154815290600101906020018083116105c057829003601f168201915b505050505094508380546105f090612915565b80601f016020809104026020016040519081016040528092919081815260200182805461061c90612915565b80156106695780601f1061063e57610100808354040283529160200191610669565b820191906000526020600020905b81548152906001019060200180831161064c57829003601f168201915b5050505050935082805461067c90612915565b80601f01602080910402602001604051908101604052809291908181526020018280546106a890612915565b80156106f55780601f106106ca576101008083540402835291602001916106f5565b820191906000526020600020905b8154815290600101906020018083116106d857829003601f168201915b5050505050925081805461070890612915565b80601f016020809104026020016040519081016040528092919081815260200182805461073490612915565b80156107815780601f1061075657610100808354040283529160200191610781565b820191906000526020600020905b81548152906001019060200180831161076457829003601f168201915b5050505050915080805461079490612915565b80601f01602080910402602001604051908101604052809291908181526020018280546107c090612915565b801561080d5780601f106107e25761010080835404028352916020019161080d565b820191906000526020600020905b8154815290600101906020018083116107f057829003601f168201915b50505050509050985098509850985098509850985098505061083f565b808061083590612976565b915050610271565b505b919395975091939597565b600080600090505b600080549050811015610940578373ffffffffffffffffffffffffffffffffffffffff166000828154811061088a576108896128b7565b5b906000526020600020906008020160000160009054906101000a900473ffffffffffffffffffffffffffffffffffffffff1673ffffffffffffffffffffffffffffffffffffffff1614801561091e57508280519060200120600082815481106108f6576108f56128b7565b5b90600052602060002090600802016007016040516109149190612a5e565b6040518091039020145b1561092d576001915050610942565b808061093890612976565b915050610852565b505b92915050565b6001818154811061095857600080fd5b90600052602060002090600302016000915090508060000160009054906101000a900473ffffffffffffffffffffffffffffffffffffffff16908060010180546109a190612915565b80601f01602080910402602001604051908101604052809291908181526020018280546109cd90612915565b8015610a1a5780601f106109ef57610100808354040283529160200191610a1a565b820191906000526020600020905b8154815290600101906020018083116109fd57829003601f168201915b5050505050908060020154905083565b60008110158015610a3c575060648111155b610a7b576040517f08c379a0000000000000000000000000000000000000000000000000000000008152600401610a7290612ac1565b60405180910390fd5b600160405180606001604052808573ffffffffffffffffffffffffffffffffffffffff16815260200184815260200183815250908060018154018082558091505060019003906000526020600020906003020160009091909190915060008201518160000160006101000a81548173ffffffffffffffffffffffffffffffffffffffff021916908373ffffffffffffffffffffffffffffffffffffffff1602179055506020820151816001019080519060200190610b3a929190611e64565b50604082015181600201555050505050565b60008181548110610b5c57600080fd5b90600052602060002090600802016000915090508060000160009054906101000a900473ffffffffffffffffffffffffffffffffffffffff1690806001018054610ba590612915565b80601f0160208091040260200160405190810160405280929190818152602001828054610bd190612915565b8015610c1e5780601f10610bf357610100808354040283529160200191610c1e565b820191906000526020600020905b815481529060010190602001808311610c0157829003601f168201915b505050505090806002018054610c3390612915565b80601f0160208091040260200160405190810160405280929190818152602001828054610c5f90612915565b8015610cac5780601f10610c8157610100808354040283529160200191610cac565b820191906000526020600020905b815481529060010190602001808311610c8f57829003601f168201915b505050505090806003018054610cc190612915565b80601f0160208091040260200160405190810160405280929190818152602001828054610ced90612915565b8015610d3a5780601f10610d0f57610100808354040283529160200191610d3a565b820191906000526020600020905b815481529060010190602001808311610d1d57829003601f168201915b505050505090806004018054610d4f90612915565b80601f0160208091040260200160405190810160405280929190818152602001828054610d7b90612915565b8015610dc85780601f10610d9d57610100808354040283529160200191610dc8565b820191906000526020600020905b815481529060010190602001808311610dab57829003601f168201915b505050505090806005018054610ddd90612915565b80601f0160208091040260200160405190810160405280929190818152602001828054610e0990612915565b8015610e565780601f10610e2b57610100808354040283529160200191610e56565b820191906000526020600020905b815481529060010190602001808311610e3957829003601f168201915b505050505090806006018054610e6b90612915565b80601f0160208091040260200160405190810160405280929190818152602001828054610e9790612915565b8015610ee45780601f10610eb957610100808354040283529160200191610ee4565b820191906000526020600020905b815481529060010190602001808311610ec757829003601f168201915b505050505090806007018054610ef990612915565b80601f0160208091040260200160405190810160405280929190818152602001828054610f2590612915565b8015610f725780601f10610f4757610100808354040283529160200191610f72565b820191906000526020600020905b815481529060010190602001808311610f5557829003601f168201915b5050505050905088565b600080600090505b600180549050811015611072578373ffffffffffffffffffffffffffffffffffffffff1660018281548110610fbc57610fbb6128b7565b5b906000526020600020906003020160000160009054906101000a900473ffffffffffffffffffffffffffffffffffffffff1673ffffffffffffffffffffffffffffffffffffffff161480156110505750828051906020012060018281548110611028576110276128b7565b5b90600052602060002090600302016001016040516110469190612a5e565b6040518091039020145b1561105f576001915050611074565b808061106a90612976565b915050610f84565b505b92915050565b6000806000905060005b60018054905081101561112d578373ffffffffffffffffffffffffffffffffffffffff16600182815481106110bc576110bb6128b7565b5b906000526020600020906003020160000160009054906101000a900473ffffffffffffffffffffffffffffffffffffffff1673ffffffffffffffffffffffffffffffffffffffff16141561111a576001826111179190612ae1565b91505b808061112590612976565b915050611084565b5080915050919050565b60006040518061010001604052808a73ffffffffffffffffffffffffffffffffffffffff16815260200189815260200188815260200187815260200186815260200185815260200184815260200183815250908060018154018082558091505060019003906000526020600020906008020160009091909190915060008201518160000160006101000a81548173ffffffffffffffffffffffffffffffffffffffff021916908373ffffffffffffffffffffffffffffffffffffffff1602179055506020820151816001019080519060200190611215929190611e64565b506040820151816002019080519060200190611232929190611e64565b50606082015181600301908051906020019061124f929190611e64565b50608082015181600401908051906020019061126c929190611e64565b5060a0820151816005019080519060200190611289929190611e64565b5060c08201518160060190805190602001906112a6929190611e64565b5060e08201518160070190805190602001906112c3929190611e64565b5050505050505050505050565b606080600060018054905067ffffffffffffffff8111156112f4576112f3612107565b5b60405190808252806020026020018201604052801561132757816020015b60608152602001906001900390816113125790505b509050600060018054905067ffffffffffffffff81111561134b5761134a612107565b5b6040519080825280602002602001820160405280156113795781602001602082028036833780820191505090505b50905060005b60018054905081101561152a578573ffffffffffffffffffffffffffffffffffffffff16600182815481106113b7576113b66128b7565b5b906000526020600020906003020160000160009054906101000a900473ffffffffffffffffffffffffffffffffffffffff1673ffffffffffffffffffffffffffffffffffffffff1614156115175760018181548110611419576114186128b7565b5b9060005260206000209060030201600101805461143590612915565b80601f016020809104026020016040519081016040528092919081815260200182805461146190612915565b80156114ae5780601f10611483576101008083540402835291602001916114ae565b820191906000526020600020905b81548152906001019060200180831161149157829003601f168201915b50505050508382815181106114c6576114c56128b7565b5b6020026020010181905250600181815481106114e5576114e46128b7565b5b90600052602060002090600302016002015482828151811061150a576115096128b7565b5b6020026020010181815250505b808061152290612976565b91505061137f565b508181935093505050915091565b6060806060806060806060806000808054905067ffffffffffffffff81111561156457611563612107565b5b6040519080825280602002602001820160405280156115925781602001602082028036833780820191505090505b5090506000808054905067ffffffffffffffff8111156115b5576115b4612107565b5b6040519080825280602002602001820160405280156115e857816020015b60608152602001906001900390816115d35790505b5090506000808054905067ffffffffffffffff81111561160b5761160a612107565b5b60405190808252806020026020018201604052801561163e57816020015b60608152602001906001900390816116295790505b5090506000808054905067ffffffffffffffff81111561166157611660612107565b5b60405190808252806020026020018201604052801561169457816020015b606081526020019060019003908161167f5790505b5090506000808054905067ffffffffffffffff8111156116b7576116b6612107565b5b6040519080825280602002602001820160405280156116ea57816020015b60608152602001906001900390816116d55790505b5090506000808054905067ffffffffffffffff81111561170d5761170c612107565b5b60405190808252806020026020018201604052801561174057816020015b606081526020019060019003908161172b5790505b5090506000808054905067ffffffffffffffff81111561176357611762612107565b5b60405190808252806020026020018201604052801561179657816020015b60608152602001906001900390816117815790505b5090506000808054905067ffffffffffffffff8111156117b9576117b8612107565b5b6040519080825280602002602001820160405280156117ec57816020015b60608152602001906001900390816117d75790505b50905060005b600080549050811015611e395760008181548110611813576118126128b7565b5b906000526020600020906008020160000160009054906101000a900473ffffffffffffffffffffffffffffffffffffffff16898281518110611858576118576128b7565b5b602002602001019073ffffffffffffffffffffffffffffffffffffffff16908173ffffffffffffffffffffffffffffffffffffffff1681525050600081815481106118a6576118a56128b7565b5b906000526020600020906008020160010180546118c290612915565b80601f01602080910402602001604051908101604052809291908181526020018280546118ee90612915565b801561193b5780601f106119105761010080835404028352916020019161193b565b820191906000526020600020905b81548152906001019060200180831161191e57829003601f168201915b5050505050888281518110611953576119526128b7565b5b602002602001018190525060008181548110611972576119716128b7565b5b9060005260206000209060080201600201805461198e90612915565b80601f01602080910402602001604051908101604052809291908181526020018280546119ba90612915565b8015611a075780601f106119dc57610100808354040283529160200191611a07565b820191906000526020600020905b8154815290600101906020018083116119ea57829003601f168201915b5050505050878281518110611a1f57611a1e6128b7565b5b602002602001018190525060008181548110611a3e57611a3d6128b7565b5b90600052602060002090600802016003018054611a5a90612915565b80601f0160208091040260200160405190810160405280929190818152602001828054611a8690612915565b8015611ad35780601f10611aa857610100808354040283529160200191611ad3565b820191906000526020600020905b815481529060010190602001808311611ab657829003601f168201915b5050505050868281518110611aeb57611aea6128b7565b5b602002602001018190525060008181548110611b0a57611b096128b7565b5b90600052602060002090600802016004018054611b2690612915565b80601f0160208091040260200160405190810160405280929190818152602001828054611b5290612915565b8015611b9f5780601f10611b7457610100808354040283529160200191611b9f565b820191906000526020600020905b815481529060010190602001808311611b8257829003601f168201915b5050505050858281518110611bb757611bb66128b7565b5b602002602001018190525060008181548110611bd657611bd56128b7565b5b90600052602060002090600802016005018054611bf290612915565b80601f0160208091040260200160405190810160405280929190818152602001828054611c1e90612915565b8015611c6b5780601f10611c4057610100808354040283529160200191611c6b565b820191906000526020600020905b815481529060010190602001808311611c4e57829003601f168201915b5050505050848281518110611c8357611c826128b7565b5b602002602001018190525060008181548110611ca257611ca16128b7565b5b90600052602060002090600802016006018054611cbe90612915565b80601f0160208091040260200160405190810160405280929190818152602001828054611cea90612915565b8015611d375780601f10611d0c57610100808354040283529160200191611d37565b820191906000526020600020905b815481529060010190602001808311611d1a57829003601f168201915b5050505050838281518110611d4f57611d4e6128b7565b5b602002602001018190525060008181548110611d6e57611d6d6128b7565b5b90600052602060002090600802016007018054611d8a90612915565b80601f0160208091040260200160405190810160405280929190818152602001828054611db690612915565b8015611e035780601f10611dd857610100808354040283529160200191611e03565b820191906000526020600020905b815481529060010190602001808311611de657829003601f168201915b5050505050828281518110611e1b57611e1a6128b7565b5b60200260200101819052508080611e3190612976565b9150506117f2565b5087878787878787879f509f509f509f509f509f509f509f5050505050505050509091929394959697565b828054611e7090612915565b90600052602060002090601f016020900481019282611e925760008555611ed9565b82601f10611eab57805160ff1916838001178555611ed9565b82800160010185558215611ed9579182015b82811115611ed8578251825591602001919060010190611ebd565b5b509050611ee69190611eea565b5090565b5b80821115611f03576000816000905550600101611eeb565b5090565b6000604051905090565b600080fd5b600080fd5b600073ffffffffffffffffffffffffffffffffffffffff82169050919050565b6000611f4682611f1b565b9050919050565b611f5681611f3b565b8114611f6157600080fd5b50565b600081359050611f7381611f4d565b92915050565b600060208284031215611f8f57611f8e611f11565b5b6000611f9d84828501611f64565b91505092915050565b611faf81611f3b565b82525050565b600081519050919050565b600082825260208201905092915050565b60005b83811015611fef578082015181840152602081019050611fd4565b83811115611ffe576000848401525b50505050565b6000601f19601f8301169050919050565b600061202082611fb5565b61202a8185611fc0565b935061203a818560208601611fd1565b61204381612004565b840191505092915050565b600061010082019050612064600083018b611fa6565b8181036020830152612076818a612015565b9050818103604083015261208a8189612015565b9050818103606083015261209e8188612015565b905081810360808301526120b28187612015565b905081810360a08301526120c68186612015565b905081810360c08301526120da8185612015565b905081810360e08301526120ee8184612015565b90509998505050505050505050565b600080fd5b600080fd5b7f4e487b7100000000000000000000000000000000000000000000000000000000600052604160045260246000fd5b61213f82612004565b810181811067ffffffffffffffff8211171561215e5761215d612107565b5b80604052505050565b6000612171611f07565b905061217d8282612136565b919050565b600067ffffffffffffffff82111561219d5761219c612107565b5b6121a682612004565b9050602081019050919050565b82818337600083830152505050565b60006121d56121d084612182565b612167565b9050828152602081018484840111156121f1576121f0612102565b5b6121fc8482856121b3565b509392505050565b600082601f830112612219576122186120fd565b5b81356122298482602086016121c2565b91505092915050565b6000806040838503121561224957612248611f11565b5b600061225785828601611f64565b925050602083013567ffffffffffffffff81111561227857612277611f16565b5b61228485828601612204565b9150509250929050565b6000819050919050565b6122a18161228e565b82525050565b60006020820190506122bc6000830184612298565b92915050565b6122cb8161228e565b81146122d657600080fd5b50565b6000813590506122e8816122c2565b92915050565b60006020828403121561230457612303611f11565b5b6000612312848285016122d9565b91505092915050565b60006060820190506123306000830186611fa6565b81810360208301526123428185612015565b90506123516040830184612298565b949350505050565b60008060006060848603121561237257612371611f11565b5b600061238086828701611f64565b935050602084013567ffffffffffffffff8111156123a1576123a0611f16565b5b6123ad86828701612204565b92505060406123be868287016122d9565b9150509250925092565b600080600080600080600080610100898b0312156123e9576123e8611f11565b5b60006123f78b828c01611f64565b985050602089013567ffffffffffffffff81111561241857612417611f16565b5b6124248b828c01612204565b975050604089013567ffffffffffffffff81111561244557612444611f16565b5b6124518b828c01612204565b965050606089013567ffffffffffffffff81111561247257612471611f16565b5b61247e8b828c01612204565b955050608089013567ffffffffffffffff81111561249f5761249e611f16565b5b6124ab8b828c01612204565b94505060a089013567ffffffffffffffff8111156124cc576124cb611f16565b5b6124d88b828c01612204565b93505060c089013567ffffffffffffffff8111156124f9576124f8611f16565b5b6125058b828c01612204565b92505060e089013567ffffffffffffffff81111561252657612525611f16565b5b6125328b828c01612204565b9150509295985092959890939650565b600081519050919050565b600082825260208201905092915050565b6000819050602082019050919050565b600082825260208201905092915050565b600061258a82611fb5565b612594818561256e565b93506125a4818560208601611fd1565b6125ad81612004565b840191505092915050565b60006125c4838361257f565b905092915050565b6000602082019050919050565b60006125e482612542565b6125ee818561254d565b9350836020820285016126008561255e565b8060005b8581101561263c578484038952815161261d85826125b8565b9450612628836125cc565b925060208a01995050600181019050612604565b50829750879550505050505092915050565b600081519050919050565b600082825260208201905092915050565b6000819050602082019050919050565b6126838161228e565b82525050565b6000612695838361267a565b60208301905092915050565b6000602082019050919050565b60006126b98261264e565b6126c38185612659565b93506126ce8361266a565b8060005b838110156126ff5781516126e68882612689565b97506126f1836126a1565b9250506001810190506126d2565b5085935050505092915050565b6000604082019050818103600083015261272681856125d9565b9050818103602083015261273a81846126ae565b90509392505050565b600081519050919050565b600082825260208201905092915050565b6000819050602082019050919050565b61277881611f3b565b82525050565b600061278a838361276f565b60208301905092915050565b6000602082019050919050565b60006127ae82612743565b6127b8818561274e565b93506127c38361275f565b8060005b838110156127f45781516127db888261277e565b97506127e683612796565b9250506001810190506127c7565b5085935050505092915050565b600061010082019050818103600083015261281c818b6127a3565b90508181036020830152612830818a6125d9565b9050818103604083015261284481896125d9565b9050818103606083015261285881886125d9565b9050818103608083015261286c81876125d9565b905081810360a083015261288081866125d9565b905081810360c083015261289481856125d9565b905081810360e08301526128a881846125d9565b90509998505050505050505050565b7f4e487b7100000000000000000000000000000000000000000000000000000000600052603260045260246000fd5b7f4e487b7100000000000000000000000000000000000000000000000000000000600052602260045260246000fd5b6000600282049050600182168061292d57607f821691505b60208210811415612941576129406128e6565b5b50919050565b7f4e487b7100000000000000000000000000000000000000000000000000000000600052601160045260246000fd5b60006129818261228e565b91507fffffffffffffffffffffffffffffffffffffffffffffffffffffffffffffffff8214156129b4576129b3612947565b5b600182019050919050565b600081905092915050565b60008190508160005260206000209050919050565b600081546129ec81612915565b6129f681866129bf565b94506001821660008114612a115760018114612a2257612a55565b60ff19831686528186019350612a55565b612a2b856129ca565b60005b83811015612a4d57815481890152600182019150602081019050612a2e565b838801955050505b50505092915050565b6000612a6a82846129df565b915081905092915050565b7f4c6576656c206f6620736b696c6c20696e636f72726563742e00000000000000600082015250565b6000612aab601983611fc0565b9150612ab682612a75565b602082019050919050565b60006020820190508181036000830152612ada81612a9e565b9050919050565b6000612aec8261228e565b9150612af78361228e565b9250827fffffffffffffffffffffffffffffffffffffffffffffffffffffffffffffffff03821115612b2c57612b2b612947565b5b82820190509291505056fea2646970667358221220eb96d9d16c63c800cfbbc4cd466a767f6dc66542ea71b9295bd1ff39eae8139264736f6c634300080b0033608060405234801561001057600080fd5b5061219f806100206000396000f3fe608060405234801561001057600080fd5b50600436106100575760003560e01c80630f53a4701461005c578063a7dba18414610092578063bf44b303146100c2578063cfafbc0c146100f9578063e045b7101461011e575b600080fd5b61007660048036038101906100719190611776565b61013a565b604051610089979695949392919061184b565b60405180910390f35b6100ac60048036038101906100a79190611a19565b61066e565b6040516100b99190611a8e565b60405180910390f35b6100dc60048036038101906100d79190611ad5565b61076c565b6040516100f0989796959493929190611b02565b60405180910390f35b610101610b9c565b604051610115989796959493929190611d7b565b60405180910390f35b61013860048036038101906101339190611e31565b6114c8565b005b600060608060608060608060005b600080549050811015610661578873ffffffffffffffffffffffffffffffffffffffff16600082815481106101805761017f611fab565b5b906000526020600020906008020160000160009054906101000a900473ffffffffffffffffffffffffffffffffffffffff1673ffffffffffffffffffffffffffffffffffffffff16141561064e57600081815481106101e2576101e1611fab565b5b906000526020600020906008020160000160009054906101000a900473ffffffffffffffffffffffffffffffffffffffff166000828154811061022857610227611fab565b5b90600052602060002090600802016001016000838154811061024d5761024c611fab565b5b90600052602060002090600802016002016000848154811061027257610271611fab565b5b90600052602060002090600802016003016000858154811061029757610296611fab565b5b9060005260206000209060080201600401600086815481106102bc576102bb611fab565b5b9060005260206000209060080201600501600087815481106102e1576102e0611fab565b5b90600052602060002090600802016006018580546102fe90612009565b80601f016020809104026020016040519081016040528092919081815260200182805461032a90612009565b80156103775780601f1061034c57610100808354040283529160200191610377565b820191906000526020600020905b81548152906001019060200180831161035a57829003601f168201915b5050505050955084805461038a90612009565b80601f01602080910402602001604051908101604052809291908181526020018280546103b690612009565b80156104035780601f106103d857610100808354040283529160200191610403565b820191906000526020600020905b8154815290600101906020018083116103e657829003601f168201915b5050505050945083805461041690612009565b80601f016020809104026020016040519081016040528092919081815260200182805461044290612009565b801561048f5780601f106104645761010080835404028352916020019161048f565b820191906000526020600020905b81548152906001019060200180831161047257829003601f168201915b505050505093508280546104a290612009565b80601f01602080910402602001604051908101604052809291908181526020018280546104ce90612009565b801561051b5780601f106104f05761010080835404028352916020019161051b565b820191906000526020600020905b8154815290600101906020018083116104fe57829003601f168201915b5050505050925081805461052e90612009565b80601f016020809104026020016040519081016040528092919081815260200182805461055a90612009565b80156105a75780601f1061057c576101008083540402835291602001916105a7565b820191906000526020600020905b81548152906001019060200180831161058a57829003601f168201915b505050505091508080546105ba90612009565b80601f01602080910402602001604051908101604052809291908181526020018280546105e690612009565b80156106335780601f1061060857610100808354040283529160200191610633565b820191906000526020600020905b81548152906001019060200180831161061657829003601f168201915b50505050509050975097509750975097509750975050610663565b80806106599061206a565b915050610148565b505b919395979092949650565b600080600090505b600080549050811015610764578373ffffffffffffffffffffffffffffffffffffffff16600082815481106106ae576106ad611fab565b5b906000526020600020906008020160000160009054906101000a900473ffffffffffffffffffffffffffffffffffffffff1673ffffffffffffffffffffffffffffffffffffffff16148015610742575082805190602001206000828154811061071a57610719611fab565b5b90600052602060002090600802016007016040516107389190612152565b6040518091039020145b15610751576001915050610766565b808061075c9061206a565b915050610676565b505b92915050565b6000818154811061077c57600080fd5b90600052602060002090600802016000915090508060000160009054906101000a900473ffffffffffffffffffffffffffffffffffffffff16908060010180546107c590612009565b80601f01602080910402602001604051908101604052809291908181526020018280546107f190612009565b801561083e5780601f106108135761010080835404028352916020019161083e565b820191906000526020600020905b81548152906001019060200180831161082157829003601f168201915b50505050509080600201805461085390612009565b80601f016020809104026020016040519081016040528092919081815260200182805461087f90612009565b80156108cc5780601f106108a1576101008083540402835291602001916108cc565b820191906000526020600020905b8154815290600101906020018083116108af57829003601f168201915b5050505050908060030180546108e190612009565b80601f016020809104026020016040519081016040528092919081815260200182805461090d90612009565b801561095a5780601f1061092f5761010080835404028352916020019161095a565b820191906000526020600020905b81548152906001019060200180831161093d57829003601f168201915b50505050509080600401805461096f90612009565b80601f016020809104026020016040519081016040528092919081815260200182805461099b90612009565b80156109e85780601f106109bd576101008083540402835291602001916109e8565b820191906000526020600020905b8154815290600101906020018083116109cb57829003601f168201915b5050505050908060050180546109fd90612009565b80601f0160208091040260200160405190810160405280929190818152602001828054610a2990612009565b8015610a765780601f10610a4b57610100808354040283529160200191610a76565b820191906000526020600020905b815481529060010190602001808311610a5957829003601f168201915b505050505090806006018054610a8b90612009565b80601f0160208091040260200160405190810160405280929190818152602001828054610ab790612009565b8015610b045780601f10610ad957610100808354040283529160200191610b04565b820191906000526020600020905b815481529060010190602001808311610ae757829003601f168201915b505050505090806007018054610b1990612009565b80601f0160208091040260200160405190810160405280929190818152602001828054610b4590612009565b8015610b925780601f10610b6757610100808354040283529160200191610b92565b820191906000526020600020905b815481529060010190602001808311610b7557829003601f168201915b5050505050905088565b6060806060806060806060806000808054905067ffffffffffffffff811115610bc857610bc76118ee565b5b604051908082528060200260200182016040528015610bf65781602001602082028036833780820191505090505b5090506000808054905067ffffffffffffffff811115610c1957610c186118ee565b5b604051908082528060200260200182016040528015610c4c57816020015b6060815260200190600190039081610c375790505b5090506000808054905067ffffffffffffffff811115610c6f57610c6e6118ee565b5b604051908082528060200260200182016040528015610ca257816020015b6060815260200190600190039081610c8d5790505b5090506000808054905067ffffffffffffffff811115610cc557610cc46118ee565b5b604051908082528060200260200182016040528015610cf857816020015b6060815260200190600190039081610ce35790505b5090506000808054905067ffffffffffffffff811115610d1b57610d1a6118ee565b5b604051908082528060200260200182016040528015610d4e57816020015b6060815260200190600190039081610d395790505b5090506000808054905067ffffffffffffffff811115610d7157610d706118ee565b5b604051908082528060200260200182016040528015610da457816020015b6060815260200190600190039081610d8f5790505b5090506000808054905067ffffffffffffffff811115610dc757610dc66118ee565b5b604051908082528060200260200182016040528015610dfa57816020015b6060815260200190600190039081610de55790505b5090506000808054905067ffffffffffffffff811115610e1d57610e1c6118ee565b5b604051908082528060200260200182016040528015610e5057816020015b6060815260200190600190039081610e3b5790505b50905060005b60008054905081101561149d5760008181548110610e7757610e76611fab565b5b906000526020600020906008020160000160009054906101000a900473ffffffffffffffffffffffffffffffffffffffff16898281518110610ebc57610ebb611fab565b5b602002602001019073ffffffffffffffffffffffffffffffffffffffff16908173ffffffffffffffffffffffffffffffffffffffff168152505060008181548110610f0a57610f09611fab565b5b90600052602060002090600802016001018054610f2690612009565b80601f0160208091040260200160405190810160405280929190818152602001828054610f5290612009565b8015610f9f5780601f10610f7457610100808354040283529160200191610f9f565b820191906000526020600020905b815481529060010190602001808311610f8257829003601f168201915b5050505050888281518110610fb757610fb6611fab565b5b602002602001018190525060008181548110610fd657610fd5611fab565b5b90600052602060002090600802016002018054610ff290612009565b80601f016020809104026020016040519081016040528092919081815260200182805461101e90612009565b801561106b5780601f106110405761010080835404028352916020019161106b565b820191906000526020600020905b81548152906001019060200180831161104e57829003601f168201915b505050505087828151811061108357611082611fab565b5b6020026020010181905250600081815481106110a2576110a1611fab565b5b906000526020600020906008020160030180546110be90612009565b80601f01602080910402602001604051908101604052809291908181526020018280546110ea90612009565b80156111375780601f1061110c57610100808354040283529160200191611137565b820191906000526020600020905b81548152906001019060200180831161111a57829003601f168201915b505050505086828151811061114f5761114e611fab565b5b60200260200101819052506000818154811061116e5761116d611fab565b5b9060005260206000209060080201600401805461118a90612009565b80601f01602080910402602001604051908101604052809291908181526020018280546111b690612009565b80156112035780601f106111d857610100808354040283529160200191611203565b820191906000526020600020905b8154815290600101906020018083116111e657829003601f168201915b505050505085828151811061121b5761121a611fab565b5b60200260200101819052506000818154811061123a57611239611fab565b5b9060005260206000209060080201600501805461125690612009565b80601f016020809104026020016040519081016040528092919081815260200182805461128290612009565b80156112cf5780601f106112a4576101008083540402835291602001916112cf565b820191906000526020600020905b8154815290600101906020018083116112b257829003601f168201915b50505050508482815181106112e7576112e6611fab565b5b60200260200101819052506000818154811061130657611305611fab565b5b9060005260206000209060080201600601805461132290612009565b80601f016020809104026020016040519081016040528092919081815260200182805461134e90612009565b801561139b5780601f106113705761010080835404028352916020019161139b565b820191906000526020600020905b81548152906001019060200180831161137e57829003601f168201915b50505050508382815181106113b3576113b2611fab565b5b6020026020010181905250600081815481106113d2576113d1611fab565b5b906000526020600020906008020160070180546113ee90612009565b80601f016020809104026020016040519081016040528092919081815260200182805461141a90612009565b80156114675780601f1061143c57610100808354040283529160200191611467565b820191906000526020600020905b81548152906001019060200180831161144a57829003601f168201915b505050505082828151811061147f5761147e611fab565b5b602002602001018190525080806114959061206a565b915050610e56565b5087878787878787879f509f509f509f509f509f509f509f5050505050505050509091929394959697565b60006040518061010001604052808a73ffffffffffffffffffffffffffffffffffffffff16815260200189815260200188815260200187815260200186815260200185815260200184815260200183815250908060018154018082558091505060019003906000526020600020906008020160009091909190915060008201518160000160006101000a81548173ffffffffffffffffffffffffffffffffffffffff021916908373ffffffffffffffffffffffffffffffffffffffff16021790555060208201518160010190805190602001906115a6929190611661565b5060408201518160020190805190602001906115c3929190611661565b5060608201518160030190805190602001906115e0929190611661565b5060808201518160040190805190602001906115fd929190611661565b5060a082015181600501908051906020019061161a929190611661565b5060c0820151816006019080519060200190611637929190611661565b5060e0820151816007019080519060200190611654929190611661565b5050505050505050505050565b82805461166d90612009565b90600052602060002090601f01602090048101928261168f57600085556116d6565b82601f106116a857805160ff19168380011785556116d6565b828001600101855582156116d6579182015b828111156116d55782518255916020019190600101906116ba565b5b5090506116e391906116e7565b5090565b5b808211156117005760008160009055506001016116e8565b5090565b6000604051905090565b600080fd5b600080fd5b600073ffffffffffffffffffffffffffffffffffffffff82169050919050565b600061174382611718565b9050919050565b61175381611738565b811461175e57600080fd5b50565b6000813590506117708161174a565b92915050565b60006020828403121561178c5761178b61170e565b5b600061179a84828501611761565b91505092915050565b6117ac81611738565b82525050565b600081519050919050565b600082825260208201905092915050565b60005b838110156117ec5780820151818401526020810190506117d1565b838111156117fb576000848401525b50505050565b6000601f19601f8301169050919050565b600061181d826117b2565b61182781856117bd565b93506118378185602086016117ce565b61184081611801565b840191505092915050565b600060e082019050611860600083018a6117a3565b81810360208301526118728189611812565b905081810360408301526118868188611812565b9050818103606083015261189a8187611812565b905081810360808301526118ae8186611812565b905081810360a08301526118c28185611812565b905081810360c08301526118d68184611812565b905098975050505050505050565b600080fd5b600080fd5b7f4e487b7100000000000000000000000000000000000000000000000000000000600052604160045260246000fd5b61192682611801565b810181811067ffffffffffffffff82111715611945576119446118ee565b5b80604052505050565b6000611958611704565b9050611964828261191d565b919050565b600067ffffffffffffffff821115611984576119836118ee565b5b61198d82611801565b9050602081019050919050565b82818337600083830152505050565b60006119bc6119b784611969565b61194e565b9050828152602081018484840111156119d8576119d76118e9565b5b6119e384828561199a565b509392505050565b600082601f830112611a00576119ff6118e4565b5b8135611a108482602086016119a9565b91505092915050565b60008060408385031215611a3057611a2f61170e565b5b6000611a3e85828601611761565b925050602083013567ffffffffffffffff811115611a5f57611a5e611713565b5b611a6b858286016119eb565b9150509250929050565b6000819050919050565b611a8881611a75565b82525050565b6000602082019050611aa36000830184611a7f565b92915050565b611ab281611a75565b8114611abd57600080fd5b50565b600081359050611acf81611aa9565b92915050565b600060208284031215611aeb57611aea61170e565b5b6000611af984828501611ac0565b91505092915050565b600061010082019050611b18600083018b6117a3565b8181036020830152611b2a818a611812565b90508181036040830152611b3e8189611812565b90508181036060830152611b528188611812565b90508181036080830152611b668187611812565b905081810360a0830152611b7a8186611812565b905081810360c0830152611b8e8185611812565b905081810360e0830152611ba28184611812565b90509998505050505050505050565b600081519050919050565b600082825260208201905092915050565b6000819050602082019050919050565b611be681611738565b82525050565b6000611bf88383611bdd565b60208301905092915050565b6000602082019050919050565b6000611c1c82611bb1565b611c268185611bbc565b9350611c3183611bcd565b8060005b83811015611c62578151611c498882611bec565b9750611c5483611c04565b925050600181019050611c35565b5085935050505092915050565b600081519050919050565b600082825260208201905092915050565b6000819050602082019050919050565b600082825260208201905092915050565b6000611cb7826117b2565b611cc18185611c9b565b9350611cd18185602086016117ce565b611cda81611801565b840191505092915050565b6000611cf18383611cac565b905092915050565b6000602082019050919050565b6000611d1182611c6f565b611d1b8185611c7a565b935083602082028501611d2d85611c8b565b8060005b85811015611d695784840389528151611d4a8582611ce5565b9450611d5583611cf9565b925060208a01995050600181019050611d31565b50829750879550505050505092915050565b6000610100820190508181036000830152611d96818b611c11565b90508181036020830152611daa818a611d06565b90508181036040830152611dbe8189611d06565b90508181036060830152611dd28188611d06565b90508181036080830152611de68187611d06565b905081810360a0830152611dfa8186611d06565b905081810360c0830152611e0e8185611d06565b905081810360e0830152611e228184611d06565b90509998505050505050505050565b600080600080600080600080610100898b031215611e5257611e5161170e565b5b6000611e608b828c01611761565b985050602089013567ffffffffffffffff811115611e8157611e80611713565b5b611e8d8b828c016119eb565b975050604089013567ffffffffffffffff811115611eae57611ead611713565b5b611eba8b828c016119eb565b965050606089013567ffffffffffffffff811115611edb57611eda611713565b5b611ee78b828c016119eb565b955050608089013567ffffffffffffffff811115611f0857611f07611713565b5b611f148b828c016119eb565b94505060a089013567ffffffffffffffff811115611f3557611f34611713565b5b611f418b828c016119eb565b93505060c089013567ffffffffffffffff811115611f6257611f61611713565b5b611f6e8b828c016119eb565b92505060e089013567ffffffffffffffff811115611f8f57611f8e611713565b5b611f9b8b828c016119eb565b9150509295985092959890939650565b7f4e487b7100000000000000000000000000000000000000000000000000000000600052603260045260246000fd5b7f4e487b7100000000000000000000000000000000000000000000000000000000600052602260045260246000fd5b6000600282049050600182168061202157607f821691505b6020821081141561203557612034611fda565b5b50919050565b7f4e487b7100000000000000000000000000000000000000000000000000000000600052601160045260246000fd5b600061207582611a75565b91507fffffffffffffffffffffffffffffffffffffffffffffffffffffffffffffffff8214156120a8576120a761203b565b5b600182019050919050565b600081905092915050565b60008190508160005260206000209050919050565b600081546120e081612009565b6120ea81866120b3565b94506001821660008114612105576001811461211657612149565b60ff19831686528186019350612149565b61211f856120be565b60005b8381101561214157815481890152600182019150602081019050612122565b838801955050505b50505092915050565b600061215e82846120d3565b91508190509291505056fea26469706673582212206e2d921a26476ea058f323fb37c9fcfdb8be510d722462cc148a9d3bf9719bb364736f6c634300080b0033608060405234801561001057600080fd5b50611d60806100206000396000f3fe608060405234801561001057600080fd5b50600436106100935760003560e01c8063ce1ec5bb11610066578063ce1ec5bb1461014c578063cee5c7f31461017d578063dc1e475f14610199578063e83ddcea146101b5578063e9daa70a146101e757610093565b80630b5e50ed14610098578063381a3bf7146100ca5780637aedcde5146100fd578063ae8f00d314610130575b600080fd5b6100b260048036038101906100ad919061147c565b610219565b6040516100c193929190611583565b60405180910390f35b6100e460048036038101906100df91906115f4565b610383565b6040516100f494939291906117eb565b60405180910390f35b6101176004803603810190610112919061147c565b61084a565b604051610127949392919061184c565b60405180910390f35b61014a600480360381019061014591906119d4565b6109da565b005b610166600480360381019061016191906115f4565b610afe565b604051610174929190611a43565b60405180910390f35b61019760048036038101906101929190611a7a565b610df2565b005b6101b360048036038101906101ae9190611b05565b610ed6565b005b6101cf60048036038101906101ca919061147c565b61101e565b6040516101de93929190611ba4565b60405180910390f35b61020160048036038101906101fc9190611be2565b611120565b60405161021093929190611ba4565b60405180910390f35b6001818154811061022957600080fd5b90600052602060002090600302016000915090508060000160009054906101000a900473ffffffffffffffffffffffffffffffffffffffff169080600101805461027290611c51565b80601f016020809104026020016040519081016040528092919081815260200182805461029e90611c51565b80156102eb5780601f106102c0576101008083540402835291602001916102eb565b820191906000526020600020905b8154815290600101906020018083116102ce57829003601f168201915b50505050509080600201805461030090611c51565b80601f016020809104026020016040519081016040528092919081815260200182805461032c90611c51565b80156103795780601f1061034e57610100808354040283529160200191610379565b820191906000526020600020905b81548152906001019060200180831161035c57829003601f168201915b5050505050905083565b6060806060806000808054905067ffffffffffffffff8111156103a9576103a86118a9565b5b6040519080825280602002602001820160405280156103d75781602001602082028036833780820191505090505b5090506000808054905067ffffffffffffffff8111156103fa576103f96118a9565b5b6040519080825280602002602001820160405280156104285781602001602082028036833780820191505090505b5090506000808054905067ffffffffffffffff81111561044b5761044a6118a9565b5b60405190808252806020026020018201604052801561047e57816020015b60608152602001906001900390816104695790505b5090506000808054905067ffffffffffffffff8111156104a1576104a06118a9565b5b6040519080825280602002602001820160405280156104d457816020015b60608152602001906001900390816104bf5790505b50905060005b600080549050811015610832578973ffffffffffffffffffffffffffffffffffffffff166000828154811061051257610511611c83565b5b906000526020600020906004020160010160009054906101000a900473ffffffffffffffffffffffffffffffffffffffff1673ffffffffffffffffffffffffffffffffffffffff16141561081f576000818154811061057457610573611c83565b5b906000526020600020906004020160000160009054906101000a900473ffffffffffffffffffffffffffffffffffffffff168582815181106105b9576105b8611c83565b5b602002602001019073ffffffffffffffffffffffffffffffffffffffff16908173ffffffffffffffffffffffffffffffffffffffff16815250506000818154811061060757610606611c83565b5b906000526020600020906004020160010160009054906101000a900473ffffffffffffffffffffffffffffffffffffffff1684828151811061064c5761064b611c83565b5b602002602001019073ffffffffffffffffffffffffffffffffffffffff16908173ffffffffffffffffffffffffffffffffffffffff16815250506000818154811061069a57610699611c83565b5b906000526020600020906004020160020180546106b690611c51565b80601f01602080910402602001604051908101604052809291908181526020018280546106e290611c51565b801561072f5780601f106107045761010080835404028352916020019161072f565b820191906000526020600020905b81548152906001019060200180831161071257829003601f168201915b505050505083828151811061074757610746611c83565b5b60200260200101819052506000818154811061076657610765611c83565b5b9060005260206000209060040201600301805461078290611c51565b80601f01602080910402602001604051908101604052809291908181526020018280546107ae90611c51565b80156107fb5780601f106107d0576101008083540402835291602001916107fb565b820191906000526020600020905b8154815290600101906020018083116107de57829003601f168201915b505050505082828151811061081357610812611c83565b5b60200260200101819052505b808061082a90611ce1565b9150506104da565b50838383839750975097509750505050509193509193565b6000818154811061085a57600080fd5b90600052602060002090600402016000915090508060000160009054906101000a900473ffffffffffffffffffffffffffffffffffffffff16908060010160009054906101000a900473ffffffffffffffffffffffffffffffffffffffff16908060020180546108c990611c51565b80601f01602080910402602001604051908101604052809291908181526020018280546108f590611c51565b80156109425780601f1061091757610100808354040283529160200191610942565b820191906000526020600020905b81548152906001019060200180831161092557829003601f168201915b50505050509080600301805461095790611c51565b80601f016020809104026020016040519081016040528092919081815260200182805461098390611c51565b80156109d05780601f106109a5576101008083540402835291602001916109d0565b820191906000526020600020905b8154815290600101906020018083116109b357829003601f168201915b5050505050905084565b600260405180606001604052808573ffffffffffffffffffffffffffffffffffffffff1681526020018473ffffffffffffffffffffffffffffffffffffffff16815260200183815250908060018154018082558091505060019003906000526020600020906003020160009091909190915060008201518160000160006101000a81548173ffffffffffffffffffffffffffffffffffffffff021916908373ffffffffffffffffffffffffffffffffffffffff16021790555060208201518160010160006101000a81548173ffffffffffffffffffffffffffffffffffffffff021916908373ffffffffffffffffffffffffffffffffffffffff1602179055506040820151816002019080519060200190610af692919061138f565b505050505050565b606080600060018054905067ffffffffffffffff811115610b2257610b216118a9565b5b604051908082528060200260200182016040528015610b5557816020015b6060815260200190600190039081610b405790505b509050600060018054905067ffffffffffffffff811115610b7957610b786118a9565b5b604051908082528060200260200182016040528015610bac57816020015b6060815260200190600190039081610b975790505b50905060005b600180549050811015610de4578573ffffffffffffffffffffffffffffffffffffffff1660018281548110610bea57610be9611c83565b5b906000526020600020906003020160000160009054906101000a900473ffffffffffffffffffffffffffffffffffffffff1673ffffffffffffffffffffffffffffffffffffffff161415610dd15760018181548110610c4c57610c4b611c83565b5b90600052602060002090600302016001018054610c6890611c51565b80601f0160208091040260200160405190810160405280929190818152602001828054610c9490611c51565b8015610ce15780601f10610cb657610100808354040283529160200191610ce1565b820191906000526020600020905b815481529060010190602001808311610cc457829003601f168201915b5050505050838281518110610cf957610cf8611c83565b5b602002602001018190525060018181548110610d1857610d17611c83565b5b90600052602060002090600302016002018054610d3490611c51565b80601f0160208091040260200160405190810160405280929190818152602001828054610d6090611c51565b8015610dad5780601f10610d8257610100808354040283529160200191610dad565b820191906000526020600020905b815481529060010190602001808311610d9057829003601f168201915b5050505050828281518110610dc557610dc4611c83565b5b60200260200101819052505b8080610ddc90611ce1565b915050610bb2565b508181935093505050915091565b600160405180606001604052808573ffffffffffffffffffffffffffffffffffffffff16815260200184815260200183815250908060018154018082558091505060019003906000526020600020906003020160009091909190915060008201518160000160006101000a81548173ffffffffffffffffffffffffffffffffffffffff021916908373ffffffffffffffffffffffffffffffffffffffff1602179055506020820151816001019080519060200190610eb192919061138f565b506040820151816002019080519060200190610ece92919061138f565b505050505050565b600060405180608001604052808673ffffffffffffffffffffffffffffffffffffffff1681526020018573ffffffffffffffffffffffffffffffffffffffff16815260200184815260200183815250908060018154018082558091505060019003906000526020600020906004020160009091909190915060008201518160000160006101000a81548173ffffffffffffffffffffffffffffffffffffffff021916908373ffffffffffffffffffffffffffffffffffffffff16021790555060208201518160010160006101000a81548173ffffffffffffffffffffffffffffffffffffffff021916908373ffffffffffffffffffffffffffffffffffffffff1602179055506040820151816002019080519060200190610ff892919061138f565b50606082015181600301908051906020019061101592919061138f565b50505050505050565b6002818154811061102e57600080fd5b90600052602060002090600302016000915090508060000160009054906101000a900473ffffffffffffffffffffffffffffffffffffffff16908060010160009054906101000a900473ffffffffffffffffffffffffffffffffffffffff169080600201805461109d90611c51565b80601f01602080910402602001604051908101604052809291908181526020018280546110c990611c51565b80156111165780601f106110eb57610100808354040283529160200191611116565b820191906000526020600020905b8154815290600101906020018083116110f957829003601f168201915b5050505050905083565b600080606060005b600280549050811015611386578473ffffffffffffffffffffffffffffffffffffffff16600282815481106111605761115f611c83565b5b906000526020600020906003020160010160009054906101000a900473ffffffffffffffffffffffffffffffffffffffff1673ffffffffffffffffffffffffffffffffffffffff1614801561122557508573ffffffffffffffffffffffffffffffffffffffff16600282815481106111db576111da611c83565b5b906000526020600020906003020160000160009054906101000a900473ffffffffffffffffffffffffffffffffffffffff1673ffffffffffffffffffffffffffffffffffffffff16145b15611373576002818154811061123e5761123d611c83565b5b906000526020600020906003020160000160009054906101000a900473ffffffffffffffffffffffffffffffffffffffff166002828154811061128457611283611c83565b5b906000526020600020906003020160010160009054906101000a900473ffffffffffffffffffffffffffffffffffffffff16600283815481106112ca576112c9611c83565b5b90600052602060002090600302016002018080546112e790611c51565b80601f016020809104026020016040519081016040528092919081815260200182805461131390611c51565b80156113605780601f1061133557610100808354040283529160200191611360565b820191906000526020600020905b81548152906001019060200180831161134357829003601f168201915b5050505050905093509350935050611388565b808061137e90611ce1565b915050611128565b505b9250925092565b82805461139b90611c51565b90600052602060002090601f0160209004810192826113bd5760008555611404565b82601f106113d657805160ff1916838001178555611404565b82800160010185558215611404579182015b828111156114035782518255916020019190600101906113e8565b5b5090506114119190611415565b5090565b5b8082111561142e576000816000905550600101611416565b5090565b6000604051905090565b600080fd5b600080fd5b6000819050919050565b61145981611446565b811461146457600080fd5b50565b60008135905061147681611450565b92915050565b6000602082840312156114925761149161143c565b5b60006114a084828501611467565b91505092915050565b600073ffffffffffffffffffffffffffffffffffffffff82169050919050565b60006114d4826114a9565b9050919050565b6114e4816114c9565b82525050565b600081519050919050565b600082825260208201905092915050565b60005b83811015611524578082015181840152602081019050611509565b83811115611533576000848401525b50505050565b6000601f19601f8301169050919050565b6000611555826114ea565b61155f81856114f5565b935061156f818560208601611506565b61157881611539565b840191505092915050565b600060608201905061159860008301866114db565b81810360208301526115aa818561154a565b905081810360408301526115be818461154a565b9050949350505050565b6115d1816114c9565b81146115dc57600080fd5b50565b6000813590506115ee816115c8565b92915050565b60006020828403121561160a5761160961143c565b5b6000611618848285016115df565b91505092915050565b600081519050919050565b600082825260208201905092915050565b6000819050602082019050919050565b611656816114c9565b82525050565b6000611668838361164d565b60208301905092915050565b6000602082019050919050565b600061168c82611621565b611696818561162c565b93506116a18361163d565b8060005b838110156116d25781516116b9888261165c565b97506116c483611674565b9250506001810190506116a5565b5085935050505092915050565b600081519050919050565b600082825260208201905092915050565b6000819050602082019050919050565b600082825260208201905092915050565b6000611727826114ea565b611731818561170b565b9350611741818560208601611506565b61174a81611539565b840191505092915050565b6000611761838361171c565b905092915050565b6000602082019050919050565b6000611781826116df565b61178b81856116ea565b93508360208202850161179d856116fb565b8060005b858110156117d957848403895281516117ba8582611755565b94506117c583611769565b925060208a019950506001810190506117a1565b50829750879550505050505092915050565b600060808201905081810360008301526118058187611681565b905081810360208301526118198186611681565b9050818103604083015261182d8185611776565b905081810360608301526118418184611776565b905095945050505050565b600060808201905061186160008301876114db565b61186e60208301866114db565b8181036040830152611880818561154a565b90508181036060830152611894818461154a565b905095945050505050565b600080fd5b600080fd5b7f4e487b7100000000000000000000000000000000000000000000000000000000600052604160045260246000fd5b6118e182611539565b810181811067ffffffffffffffff82111715611900576118ff6118a9565b5b80604052505050565b6000611913611432565b905061191f82826118d8565b919050565b600067ffffffffffffffff82111561193f5761193e6118a9565b5b61194882611539565b9050602081019050919050565b82818337600083830152505050565b600061197761197284611924565b611909565b905082815260208101848484011115611993576119926118a4565b5b61199e848285611955565b509392505050565b600082601f8301126119bb576119ba61189f565b5b81356119cb848260208601611964565b91505092915050565b6000806000606084860312156119ed576119ec61143c565b5b60006119fb868287016115df565b9350506020611a0c868287016115df565b925050604084013567ffffffffffffffff811115611a2d57611a2c611441565b5b611a39868287016119a6565b9150509250925092565b60006040820190508181036000830152611a5d8185611776565b90508181036020830152611a718184611776565b90509392505050565b600080600060608486031215611a9357611a9261143c565b5b6000611aa1868287016115df565b935050602084013567ffffffffffffffff811115611ac257611ac1611441565b5b611ace868287016119a6565b925050604084013567ffffffffffffffff811115611aef57611aee611441565b5b611afb868287016119a6565b9150509250925092565b60008060008060808587031215611b1f57611b1e61143c565b5b6000611b2d878288016115df565b9450506020611b3e878288016115df565b935050604085013567ffffffffffffffff811115611b5f57611b5e611441565b5b611b6b878288016119a6565b925050606085013567ffffffffffffffff811115611b8c57611b8b611441565b5b611b98878288016119a6565b91505092959194509250565b6000606082019050611bb960008301866114db565b611bc660208301856114db565b8181036040830152611bd8818461154a565b9050949350505050565b60008060408385031215611bf957611bf861143c565b5b6000611c07858286016115df565b9250506020611c18858286016115df565b9150509250929050565b7f4e487b7100000000000000000000000000000000000000000000000000000000600052602260045260246000fd5b60006002820490506001821680611c6957607f821691505b60208210811415611c7d57611c7c611c22565b5b50919050565b7f4e487b7100000000000000000000000000000000000000000000000000000000600052603260045260246000fd5b7f4e487b7100000000000000000000000000000000000000000000000000000000600052601160045260246000fd5b6000611cec82611446565b91507fffffffffffffffffffffffffffffffffffffffffffffffffffffffffffffffff821415611d1f57611d1e611cb2565b5b60018201905091905056fea26469706673582212207928d5689544d31d4763b309ae201ae60d06df712b29da9b5ba3be75ac92ae2464736f6c634300080b0033",
  "immutableReferences": {},
  "source": "// SPDX-License-Identifier: MIT\r\npragma solidity >=0.4.22 <0.9.0;\r\n\r\n//Import cc contract cn thit  s dng\r\nimport \"./SmartCV_ListStudent.sol\";\r\nimport \"./SmartCV_ListBusiness.sol\";\r\nimport \"./SmartCV_Apply.sol\";\r\n\r\n//CV dnh cho sinh vin\r\ncontract Student {\r\n\r\n    //Khai contract  import  s dng cc function  contract \r\n    ListStudent listStudent = new ListStudent();\r\n    ListBusiness listBusiness = new ListBusiness();\r\n    ApplyCV applyCV = new ApplyCV();\r\n\r\n    // ======================================\r\n    // ====== Chc nng cho sinh vin =======\r\n    // ======================================\r\n\r\n    // Chc nng thm thng tin sinh vin (ng k)\r\n    function addStudentProfile (\r\n        address _studentOwner,\r\n        string memory _name,\r\n        string memory _birthDay,\r\n        string memory _professionalTitle,\r\n        string memory _email,\r\n        string memory _github,\r\n        string memory _linkedin,\r\n        string memory _password) public {\r\n            listStudent.addSV(_studentOwner, _name, _birthDay, _professionalTitle, _email, _github, _linkedin, _password);\r\n    }\r\n\r\n    //Chc nng ly thng tin ca sinh vin\r\n    function getStudentProfile(address _studentOwner) public view returns(\r\n        address studentOwner, \r\n        string memory name, \r\n        string memory birthDay, \r\n        string memory professionalTitle, \r\n        string memory email, \r\n        string memory github, \r\n        string memory linkedin,\r\n        string memory password) {\r\n            return listStudent.getProfile(_studentOwner);\r\n    }\r\n\r\n    // Chc nng kim tra ti khon sinh vin c tn ti hay khng? (ng nhp)\r\n    function checkStudentProfile(\r\n        address _studentOwner, \r\n        string memory _password) public view returns(uint x) {\r\n            return listStudent.checkSV(_studentOwner, _password);\r\n    }\r\n\r\n    //Chc nng thm thng tin k nng ca sinh vin\r\n    function addStudentSkill (\r\n        address _studentOwner,\r\n        string memory _title, \r\n        uint _level) public {\r\n            listStudent.addSkill(_studentOwner, _title, _level);\r\n    }\r\n\r\n    // Chc nng kim tra k nng ca sinh vin c tn ti hay khng?\r\n    function checkStudentSkilll(\r\n        address _studentOwner, \r\n        string memory _title) public view returns(uint x) {\r\n            return listStudent.checkSkill(_studentOwner, _title);\r\n    }\r\n\r\n    // Chc nng kim tra s lng k nng ca sinh vin\r\n    function checkNumStudentSkilll(\r\n        address _studentOwner) public view returns(uint x) {\r\n            uint _count = listStudent.checkNumSkill(_studentOwner);\r\n            if(_count > 10){\r\n                return 1;\r\n            }\r\n    }\r\n\r\n    //Chc nng ly thng tin k nng ca sinh vin\r\n    function getStudentSkill(address _studentOwner) public view returns(\r\n        string[] memory titles,\r\n        uint[] memory levels) {\r\n        return listStudent.getSkill(_studentOwner);\r\n    }\r\n\r\n    //Chc nng ly danh sch doanh nghip\r\n    function getListBusiness() public view returns(\r\n        address[] memory, \r\n        string[] memory, \r\n        string[] memory, \r\n        string[] memory, \r\n        string[] memory, \r\n        string[] memory, \r\n        string[] memory,\r\n        string[] memory) {\r\n        return listBusiness.getListDN();\r\n    }\r\n\r\n    //Chc nng ly thng tin tuyn dng ca doanh nghip\r\n    function getRecruit(address _businessOwner) public view returns(\r\n        string[] memory, \r\n        string[] memory) {\r\n        return applyCV.getRecruit(_businessOwner);\r\n    }\r\n\r\n    // //Chc nng gi CV ti doanh nghip\r\n    function sendCV(\r\n        address _studentOwner, \r\n        address _businessOwner, \r\n        string memory _jobTitle, \r\n        string memory _coverLetter) public {\r\n            applyCV.addCV(_studentOwner, _businessOwner, _jobTitle, _coverLetter);\r\n    }\r\n\r\n    // Chc nng xem nh gi thc tp ca doanh nghip\r\n    function getReview(\r\n        address _studentOwner, \r\n        address _businessOwner) public view returns(\r\n            address studentOwner, \r\n            address businessOwner, \r\n            string memory content) {\r\n                return applyCV.getReview(_studentOwner, _businessOwner);\r\n    }\r\n\r\n    // ======================================\r\n    // ===== Chc nng cho doanh nghip =====\r\n    // ======================================\r\n\r\n    // Chc nng thm thng tin doanh nghip (ng k)\r\n    function addBusinessProfile (\r\n        address _businessOwner,\r\n        string memory _name,\r\n        string memory _country,\r\n        string memory _facebook,\r\n        string memory _website,\r\n        string memory _linkedin,\r\n        string memory _focusArea,\r\n        string memory _password) public {\r\n            listBusiness.addDN(_businessOwner, _name, _country, _facebook, _website, _linkedin, _focusArea, _password);\r\n    }\r\n\r\n    //Chc nng ly thng tin ca doanh nghip\r\n    function getBusinessProfile(address _businessOwner) public view returns(\r\n        address businessOwner, \r\n        string memory name, \r\n        string memory country, \r\n        string memory facebook, \r\n        string memory website, \r\n        string memory linkedin, \r\n        string memory focusArea) {\r\n            return listBusiness.getProfile(_businessOwner);\r\n    }\r\n\r\n    // Chc nng kim tra ti khon doanh nghip c tn ti hay khng? (ng nhp)\r\n    function checkBusinessProfile(\r\n        address _businessOwner, \r\n        string memory _password) public view returns(uint) {\r\n            return listBusiness.checkDN(_businessOwner, _password);\r\n    }\r\n\r\n    // Chc nng ly danh sch CV  np vo doanh nghip\r\n    function getListCV(address _businessOwner) public view returns(\r\n        address[] memory, \r\n        address[] memory, \r\n        string[] memory, \r\n        string[] memory) {\r\n            return applyCV.getCV(_businessOwner);\r\n    }\r\n\r\n    //Chc nng thm thng tin tuyn dng ca doanh nghip\r\n    function addRecruit(\r\n        address _businessOwner,\r\n        string memory _jobTitle,\r\n        string memory _jobDescription) public {\r\n            applyCV.addRecruit(_businessOwner, _jobTitle, _jobDescription);\r\n    }\r\n\r\n    // Chc nng nh gi thc tp cho sinh vin\r\n    function sendReview(\r\n        address _studentOwner, \r\n        address _businessOwner, \r\n        string memory _content) public {\r\n            applyCV.addReview(_studentOwner, _businessOwner, _content);\r\n    }\r\n}",
  "sourcePath": "C:\\Users\\19520\\Documents\\NCKH_Blockchain\\SolidityProgramming\\ProjectResearch\\SmartCV\\SmartContract\\contracts\\SmartCV_Student_Business.sol",
  "compiler": {
    "name": "solc",
    "version": "0.8.11+commit.d7f03943.Emscripten.clang"
  },
  "schemaVersion": "3.4.4",
  "updatedAt": "2022-07-10T08:52:29.979Z",
  "networkType": "ethereum",
  "devdoc": {
    "kind": "dev",
    "methods": {},
    "version": 1
  },
  "userdoc": {
    "kind": "user",
    "methods": {},
    "version": 1
  }
}