{
  "contractName": "StudentBusiness",
  "abi": [
    {
      "inputs": [
        {
          "internalType": "address",
          "name": "_studentOwner",
          "type": "address"
        },
        {
          "internalType": "string",
          "name": "_name",
          "type": "string"
        },
        {
          "internalType": "string",
          "name": "_phoneNumber",
          "type": "string"
        },
        {
          "internalType": "string",
          "name": "_professionalTitle",
          "type": "string"
        },
        {
          "internalType": "string",
          "name": "_email",
          "type": "string"
        },
        {
          "internalType": "string",
          "name": "_github",
          "type": "string"
        },
        {
          "internalType": "string",
          "name": "_linkedin",
          "type": "string"
        },
        {
          "internalType": "string",
          "name": "_sourceImage",
          "type": "string"
        },
        {
          "internalType": "string",
          "name": "_password",
          "type": "string"
        }
      ],
      "name": "addStudentProfile",
      "outputs": [],
      "stateMutability": "nonpayable",
      "type": "function"
    },
    {
      "inputs": [
        {
          "internalType": "address",
          "name": "_studentOwner",
          "type": "address"
        },
        {
          "internalType": "string",
          "name": "_name",
          "type": "string"
        },
        {
          "internalType": "string",
          "name": "_phoneNumber",
          "type": "string"
        },
        {
          "internalType": "string",
          "name": "_professionalTitle",
          "type": "string"
        },
        {
          "internalType": "string",
          "name": "_email",
          "type": "string"
        },
        {
          "internalType": "string",
          "name": "_github",
          "type": "string"
        },
        {
          "internalType": "string",
          "name": "_linkedin",
          "type": "string"
        },
        {
          "internalType": "string",
          "name": "_sourceImage",
          "type": "string"
        }
      ],
      "name": "editStudentProfile",
      "outputs": [],
      "stateMutability": "nonpayable",
      "type": "function"
    },
    {
      "inputs": [
        {
          "internalType": "address",
          "name": "_studentOwner",
          "type": "address"
        }
      ],
      "name": "getStudentProfile",
      "outputs": [
        {
          "internalType": "address",
          "name": "studentOwner",
          "type": "address"
        },
        {
          "internalType": "string",
          "name": "name",
          "type": "string"
        },
        {
          "internalType": "string",
          "name": "phoneNumber",
          "type": "string"
        },
        {
          "internalType": "string",
          "name": "professionalTitle",
          "type": "string"
        },
        {
          "internalType": "string",
          "name": "email",
          "type": "string"
        },
        {
          "internalType": "string",
          "name": "github",
          "type": "string"
        },
        {
          "internalType": "string",
          "name": "linkedin",
          "type": "string"
        },
        {
          "internalType": "string",
          "name": "sourceImage",
          "type": "string"
        },
        {
          "internalType": "string",
          "name": "password",
          "type": "string"
        }
      ],
      "stateMutability": "view",
      "type": "function"
    },
    {
      "inputs": [
        {
          "internalType": "address",
          "name": "_studentOwner",
          "type": "address"
        },
        {
          "internalType": "string",
          "name": "_password",
          "type": "string"
        }
      ],
      "name": "checkStudentProfile",
      "outputs": [
        {
          "internalType": "uint256",
          "name": "x",
          "type": "uint256"
        }
      ],
      "stateMutability": "view",
      "type": "function"
    },
    {
      "inputs": [
        {
          "internalType": "address",
          "name": "_studentOwner",
          "type": "address"
        }
      ],
      "name": "checkExistStudent",
      "outputs": [
        {
          "internalType": "uint256",
          "name": "x",
          "type": "uint256"
        }
      ],
      "stateMutability": "view",
      "type": "function"
    },
    {
      "inputs": [
        {
          "internalType": "address",
          "name": "_studentOwner",
          "type": "address"
        },
        {
          "internalType": "string",
          "name": "_title",
          "type": "string"
        },
        {
          "internalType": "uint256",
          "name": "_level",
          "type": "uint256"
        }
      ],
      "name": "addStudentSkill",
      "outputs": [],
      "stateMutability": "nonpayable",
      "type": "function"
    },
    {
      "inputs": [
        {
          "internalType": "address",
          "name": "_studentOwner",
          "type": "address"
        },
        {
          "internalType": "string",
          "name": "_title",
          "type": "string"
        },
        {
          "internalType": "uint256",
          "name": "_level",
          "type": "uint256"
        }
      ],
      "name": "editStudentSkill",
      "outputs": [],
      "stateMutability": "nonpayable",
      "type": "function"
    },
    {
      "inputs": [
        {
          "internalType": "address",
          "name": "_studentOwner",
          "type": "address"
        },
        {
          "internalType": "string",
          "name": "_title",
          "type": "string"
        }
      ],
      "name": "checkStudentSkill",
      "outputs": [
        {
          "internalType": "uint256",
          "name": "x",
          "type": "uint256"
        }
      ],
      "stateMutability": "view",
      "type": "function"
    },
    {
      "inputs": [
        {
          "internalType": "address",
          "name": "_studentOwner",
          "type": "address"
        }
      ],
      "name": "checkNumStudentSkill",
      "outputs": [
        {
          "internalType": "uint256",
          "name": "x",
          "type": "uint256"
        }
      ],
      "stateMutability": "view",
      "type": "function"
    },
    {
      "inputs": [
        {
          "internalType": "address",
          "name": "_studentOwner",
          "type": "address"
        }
      ],
      "name": "getStudentSkill",
      "outputs": [
        {
          "internalType": "string[]",
          "name": "titles",
          "type": "string[]"
        },
        {
          "internalType": "uint256[]",
          "name": "levels",
          "type": "uint256[]"
        }
      ],
      "stateMutability": "view",
      "type": "function"
    },
    {
      "inputs": [
        {
          "internalType": "address",
          "name": "_studentOwner",
          "type": "address"
        },
        {
          "internalType": "string",
          "name": "_institution",
          "type": "string"
        },
        {
          "internalType": "string",
          "name": "_focusArea",
          "type": "string"
        },
        {
          "internalType": "string",
          "name": "_startTime",
          "type": "string"
        },
        {
          "internalType": "string",
          "name": "_finishTime",
          "type": "string"
        },
        {
          "internalType": "string",
          "name": "_gpa",
          "type": "string"
        }
      ],
      "name": "addStudentEducation",
      "outputs": [],
      "stateMutability": "nonpayable",
      "type": "function"
    },
    {
      "inputs": [
        {
          "internalType": "address",
          "name": "_studentOwner",
          "type": "address"
        },
        {
          "internalType": "string",
          "name": "_institution",
          "type": "string"
        },
        {
          "internalType": "string",
          "name": "_focusArea",
          "type": "string"
        },
        {
          "internalType": "string",
          "name": "_startTime",
          "type": "string"
        },
        {
          "internalType": "string",
          "name": "_finishTime",
          "type": "string"
        },
        {
          "internalType": "string",
          "name": "_gpa",
          "type": "string"
        }
      ],
      "name": "editStudentEducation",
      "outputs": [],
      "stateMutability": "nonpayable",
      "type": "function"
    },
    {
      "inputs": [
        {
          "internalType": "address",
          "name": "_studentOwner",
          "type": "address"
        },
        {
          "internalType": "string",
          "name": "_institution",
          "type": "string"
        },
        {
          "internalType": "string",
          "name": "_focusArea",
          "type": "string"
        }
      ],
      "name": "checkStudentEducation",
      "outputs": [
        {
          "internalType": "uint256",
          "name": "x",
          "type": "uint256"
        }
      ],
      "stateMutability": "view",
      "type": "function"
    },
    {
      "inputs": [
        {
          "internalType": "address",
          "name": "_studentOwner",
          "type": "address"
        }
      ],
      "name": "getStudentEducation",
      "outputs": [
        {
          "internalType": "string[]",
          "name": "",
          "type": "string[]"
        },
        {
          "internalType": "string[]",
          "name": "",
          "type": "string[]"
        },
        {
          "internalType": "string[]",
          "name": "",
          "type": "string[]"
        },
        {
          "internalType": "string[]",
          "name": "",
          "type": "string[]"
        },
        {
          "internalType": "string[]",
          "name": "",
          "type": "string[]"
        }
      ],
      "stateMutability": "view",
      "type": "function"
    },
    {
      "inputs": [],
      "name": "getListBusiness",
      "outputs": [
        {
          "internalType": "address[]",
          "name": "",
          "type": "address[]"
        },
        {
          "internalType": "string[]",
          "name": "",
          "type": "string[]"
        },
        {
          "internalType": "string[]",
          "name": "",
          "type": "string[]"
        },
        {
          "internalType": "string[]",
          "name": "",
          "type": "string[]"
        },
        {
          "internalType": "string[]",
          "name": "",
          "type": "string[]"
        },
        {
          "internalType": "string[]",
          "name": "",
          "type": "string[]"
        },
        {
          "internalType": "string[]",
          "name": "",
          "type": "string[]"
        },
        {
          "internalType": "string[]",
          "name": "",
          "type": "string[]"
        }
      ],
      "stateMutability": "view",
      "type": "function"
    },
    {
      "inputs": [
        {
          "internalType": "address",
          "name": "_businessOwner",
          "type": "address"
        }
      ],
      "name": "getRecruit",
      "outputs": [
        {
          "internalType": "bytes32[]",
          "name": "",
          "type": "bytes32[]"
        },
        {
          "internalType": "string[]",
          "name": "",
          "type": "string[]"
        },
        {
          "internalType": "string[]",
          "name": "",
          "type": "string[]"
        },
        {
          "internalType": "string[]",
          "name": "",
          "type": "string[]"
        },
        {
          "internalType": "uint256[]",
          "name": "",
          "type": "uint256[]"
        }
      ],
      "stateMutability": "view",
      "type": "function"
    },
    {
      "inputs": [
        {
          "internalType": "address",
          "name": "_studentOwner",
          "type": "address"
        },
        {
          "internalType": "address",
          "name": "_businessOwner",
          "type": "address"
        },
        {
          "internalType": "string",
          "name": "_jobTitle",
          "type": "string"
        },
        {
          "internalType": "string",
          "name": "_coverLetter",
          "type": "string"
        }
      ],
      "name": "sendCV",
      "outputs": [],
      "stateMutability": "nonpayable",
      "type": "function"
    },
    {
      "inputs": [
        {
          "internalType": "address",
          "name": "_studentOwner",
          "type": "address"
        },
        {
          "internalType": "address",
          "name": "_businessOwner",
          "type": "address"
        },
        {
          "internalType": "string",
          "name": "_jobTitle",
          "type": "string"
        }
      ],
      "name": "checkCV",
      "outputs": [
        {
          "internalType": "uint256",
          "name": "x",
          "type": "uint256"
        }
      ],
      "stateMutability": "view",
      "type": "function"
    },
    {
      "inputs": [
        {
          "internalType": "address",
          "name": "_studentOwner",
          "type": "address"
        },
        {
          "internalType": "address",
          "name": "_businessOwner",
          "type": "address"
        }
      ],
      "name": "getReview",
      "outputs": [
        {
          "internalType": "address",
          "name": "studentOwner",
          "type": "address"
        },
        {
          "internalType": "address",
          "name": "businessOwner",
          "type": "address"
        },
        {
          "internalType": "string",
          "name": "content",
          "type": "string"
        }
      ],
      "stateMutability": "view",
      "type": "function"
    },
    {
      "inputs": [
        {
          "internalType": "address",
          "name": "_businessOwner",
          "type": "address"
        },
        {
          "internalType": "string",
          "name": "_name",
          "type": "string"
        },
        {
          "internalType": "string",
          "name": "_country",
          "type": "string"
        },
        {
          "internalType": "string",
          "name": "_facebook",
          "type": "string"
        },
        {
          "internalType": "string",
          "name": "_website",
          "type": "string"
        },
        {
          "internalType": "string",
          "name": "_linkedin",
          "type": "string"
        },
        {
          "internalType": "string",
          "name": "_focusArea",
          "type": "string"
        },
        {
          "internalType": "string",
          "name": "_password",
          "type": "string"
        }
      ],
      "name": "addBusinessProfile",
      "outputs": [],
      "stateMutability": "nonpayable",
      "type": "function"
    },
    {
      "inputs": [
        {
          "internalType": "address",
          "name": "_businessOwner",
          "type": "address"
        },
        {
          "internalType": "string",
          "name": "_name",
          "type": "string"
        },
        {
          "internalType": "string",
          "name": "_country",
          "type": "string"
        },
        {
          "internalType": "string",
          "name": "_facebook",
          "type": "string"
        },
        {
          "internalType": "string",
          "name": "_website",
          "type": "string"
        },
        {
          "internalType": "string",
          "name": "_linkedin",
          "type": "string"
        },
        {
          "internalType": "string",
          "name": "_focusArea",
          "type": "string"
        }
      ],
      "name": "editBusinessProfile",
      "outputs": [],
      "stateMutability": "nonpayable",
      "type": "function"
    },
    {
      "inputs": [
        {
          "internalType": "address",
          "name": "_businessOwner",
          "type": "address"
        }
      ],
      "name": "getBusinessProfile",
      "outputs": [
        {
          "internalType": "address",
          "name": "businessOwner",
          "type": "address"
        },
        {
          "internalType": "string",
          "name": "name",
          "type": "string"
        },
        {
          "internalType": "string",
          "name": "country",
          "type": "string"
        },
        {
          "internalType": "string",
          "name": "facebook",
          "type": "string"
        },
        {
          "internalType": "string",
          "name": "website",
          "type": "string"
        },
        {
          "internalType": "string",
          "name": "linkedin",
          "type": "string"
        },
        {
          "internalType": "string",
          "name": "focusArea",
          "type": "string"
        }
      ],
      "stateMutability": "view",
      "type": "function"
    },
    {
      "inputs": [
        {
          "internalType": "address",
          "name": "_businessOwner",
          "type": "address"
        },
        {
          "internalType": "string",
          "name": "_password",
          "type": "string"
        }
      ],
      "name": "checkBusinessProfile",
      "outputs": [
        {
          "internalType": "uint256",
          "name": "",
          "type": "uint256"
        }
      ],
      "stateMutability": "view",
      "type": "function"
    },
    {
      "inputs": [
        {
          "internalType": "address",
          "name": "_businessOwner",
          "type": "address"
        }
      ],
      "name": "checkExistBusiness",
      "outputs": [
        {
          "internalType": "uint256",
          "name": "x",
          "type": "uint256"
        }
      ],
      "stateMutability": "view",
      "type": "function"
    },
    {
      "inputs": [
        {
          "internalType": "address",
          "name": "_businessOwner",
          "type": "address"
        }
      ],
      "name": "getListCV",
      "outputs": [
        {
          "internalType": "address[]",
          "name": "",
          "type": "address[]"
        },
        {
          "internalType": "address[]",
          "name": "",
          "type": "address[]"
        },
        {
          "internalType": "string[]",
          "name": "",
          "type": "string[]"
        },
        {
          "internalType": "string[]",
          "name": "",
          "type": "string[]"
        },
        {
          "internalType": "string[]",
          "name": "",
          "type": "string[]"
        }
      ],
      "stateMutability": "view",
      "type": "function"
    },
    {
      "inputs": [
        {
          "internalType": "address",
          "name": "_studentOwner",
          "type": "address"
        },
        {
          "internalType": "address",
          "name": "_businessOwner",
          "type": "address"
        },
        {
          "internalType": "string",
          "name": "_jobTitle",
          "type": "string"
        },
        {
          "internalType": "string",
          "name": "_statusCV",
          "type": "string"
        }
      ],
      "name": "interviewCV",
      "outputs": [],
      "stateMutability": "nonpayable",
      "type": "function"
    },
    {
      "inputs": [
        {
          "internalType": "address",
          "name": "_studentOwner",
          "type": "address"
        },
        {
          "internalType": "address",
          "name": "_businessOwner",
          "type": "address"
        },
        {
          "internalType": "string",
          "name": "_jobTitle",
          "type": "string"
        },
        {
          "internalType": "string",
          "name": "_statusCV",
          "type": "string"
        }
      ],
      "name": "onboardCV",
      "outputs": [],
      "stateMutability": "nonpayable",
      "type": "function"
    },
    {
      "inputs": [
        {
          "internalType": "address",
          "name": "_businessOwner",
          "type": "address"
        },
        {
          "internalType": "string",
          "name": "_jobTitle",
          "type": "string"
        },
        {
          "internalType": "string",
          "name": "_jobDescription",
          "type": "string"
        },
        {
          "internalType": "string",
          "name": "_recruitDate",
          "type": "string"
        },
        {
          "internalType": "uint256",
          "name": "_amount",
          "type": "uint256"
        }
      ],
      "name": "addRecruit",
      "outputs": [],
      "stateMutability": "nonpayable",
      "type": "function"
    },
    {
      "inputs": [
        {
          "internalType": "address",
          "name": "_businessOwner",
          "type": "address"
        },
        {
          "internalType": "string",
          "name": "_jobTitle",
          "type": "string"
        },
        {
          "internalType": "string",
          "name": "_recruitDate",
          "type": "string"
        }
      ],
      "name": "checkAmountBusinessRecruit",
      "outputs": [
        {
          "internalType": "uint256",
          "name": "x",
          "type": "uint256"
        }
      ],
      "stateMutability": "view",
      "type": "function"
    },
    {
      "inputs": [
        {
          "internalType": "address",
          "name": "_studentOwner",
          "type": "address"
        },
        {
          "internalType": "address",
          "name": "_businessOwner",
          "type": "address"
        },
        {
          "internalType": "string",
          "name": "_content",
          "type": "string"
        }
      ],
      "name": "sendReview",
      "outputs": [],
      "stateMutability": "nonpayable",
      "type": "function"
    },
    {
      "inputs": [
        {
          "internalType": "address",
          "name": "_iigOwner",
          "type": "address"
        },
        {
          "internalType": "string",
          "name": "_name",
          "type": "string"
        },
        {
          "internalType": "string",
          "name": "_country",
          "type": "string"
        },
        {
          "internalType": "string",
          "name": "_facebook",
          "type": "string"
        },
        {
          "internalType": "string",
          "name": "_website",
          "type": "string"
        },
        {
          "internalType": "string",
          "name": "_linkedin",
          "type": "string"
        },
        {
          "internalType": "string",
          "name": "_password",
          "type": "string"
        }
      ],
      "name": "addIIGProfile",
      "outputs": [],
      "stateMutability": "nonpayable",
      "type": "function"
    },
    {
      "inputs": [
        {
          "internalType": "address",
          "name": "_iigOwner",
          "type": "address"
        },
        {
          "internalType": "string",
          "name": "_name",
          "type": "string"
        },
        {
          "internalType": "string",
          "name": "_country",
          "type": "string"
        },
        {
          "internalType": "string",
          "name": "_facebook",
          "type": "string"
        },
        {
          "internalType": "string",
          "name": "_website",
          "type": "string"
        },
        {
          "internalType": "string",
          "name": "_linkedin",
          "type": "string"
        }
      ],
      "name": "editIIGProfile",
      "outputs": [],
      "stateMutability": "nonpayable",
      "type": "function"
    },
    {
      "inputs": [
        {
          "internalType": "address",
          "name": "_iigOwner",
          "type": "address"
        }
      ],
      "name": "getIIGProfile",
      "outputs": [
        {
          "internalType": "address",
          "name": "iigOwner",
          "type": "address"
        },
        {
          "internalType": "string",
          "name": "name",
          "type": "string"
        },
        {
          "internalType": "string",
          "name": "country",
          "type": "string"
        },
        {
          "internalType": "string",
          "name": "facebook",
          "type": "string"
        },
        {
          "internalType": "string",
          "name": "website",
          "type": "string"
        },
        {
          "internalType": "string",
          "name": "linkedin",
          "type": "string"
        }
      ],
      "stateMutability": "view",
      "type": "function"
    },
    {
      "inputs": [
        {
          "internalType": "address",
          "name": "_iigOwner",
          "type": "address"
        },
        {
          "internalType": "string",
          "name": "_password",
          "type": "string"
        }
      ],
      "name": "checkIIGProfile",
      "outputs": [
        {
          "internalType": "uint256",
          "name": "",
          "type": "uint256"
        }
      ],
      "stateMutability": "view",
      "type": "function"
    },
    {
      "inputs": [
        {
          "internalType": "address",
          "name": "_iigOwner",
          "type": "address"
        }
      ],
      "name": "checkExistIIG",
      "outputs": [
        {
          "internalType": "uint256",
          "name": "x",
          "type": "uint256"
        }
      ],
      "stateMutability": "view",
      "type": "function"
    },
    {
      "inputs": [
        {
          "internalType": "address",
          "name": "_studentOwner",
          "type": "address"
        },
        {
          "internalType": "address",
          "name": "_iigOwner",
          "type": "address"
        },
        {
          "internalType": "string",
          "name": "_identityCard",
          "type": "string"
        }
      ],
      "name": "sendIIGRequest",
      "outputs": [],
      "stateMutability": "nonpayable",
      "type": "function"
    },
    {
      "inputs": [
        {
          "internalType": "address",
          "name": "_iigOwner",
          "type": "address"
        }
      ],
      "name": "getListIIGRequest",
      "outputs": [
        {
          "internalType": "address[]",
          "name": "",
          "type": "address[]"
        },
        {
          "internalType": "address[]",
          "name": "",
          "type": "address[]"
        },
        {
          "internalType": "string[]",
          "name": "",
          "type": "string[]"
        },
        {
          "internalType": "string[]",
          "name": "",
          "type": "string[]"
        }
      ],
      "stateMutability": "view",
      "type": "function"
    },
    {
      "inputs": [
        {
          "internalType": "address",
          "name": "_studentOwner",
          "type": "address"
        },
        {
          "internalType": "address",
          "name": "_iigOwner",
          "type": "address"
        },
        {
          "internalType": "string",
          "name": "_statusRequest",
          "type": "string"
        }
      ],
      "name": "confirmIIGRequest",
      "outputs": [],
      "stateMutability": "nonpayable",
      "type": "function"
    },
    {
      "inputs": [
        {
          "internalType": "address",
          "name": "_iigOwner",
          "type": "address"
        },
        {
          "internalType": "address",
          "name": "_studentOwner",
          "type": "address"
        },
        {
          "internalType": "string",
          "name": "_testDate",
          "type": "string"
        },
        {
          "internalType": "string",
          "name": "_shiftTest",
          "type": "string"
        },
        {
          "internalType": "string",
          "name": "_expireDate",
          "type": "string"
        },
        {
          "internalType": "uint256",
          "name": "_listeningScore",
          "type": "uint256"
        },
        {
          "internalType": "uint256",
          "name": "_readingScore",
          "type": "uint256"
        }
      ],
      "name": "addIIGLRResult",
      "outputs": [],
      "stateMutability": "nonpayable",
      "type": "function"
    },
    {
      "inputs": [
        {
          "internalType": "address",
          "name": "_iigOwner",
          "type": "address"
        },
        {
          "internalType": "address",
          "name": "_studentOwner",
          "type": "address"
        },
        {
          "internalType": "string",
          "name": "_testDate",
          "type": "string"
        },
        {
          "internalType": "string",
          "name": "_shiftTest",
          "type": "string"
        },
        {
          "internalType": "string",
          "name": "_expireDate",
          "type": "string"
        },
        {
          "internalType": "uint256",
          "name": "_speakingScore",
          "type": "uint256"
        },
        {
          "internalType": "uint256",
          "name": "_writingScore",
          "type": "uint256"
        }
      ],
      "name": "addIIGSWResult",
      "outputs": [],
      "stateMutability": "nonpayable",
      "type": "function"
    },
    {
      "inputs": [
        {
          "internalType": "address",
          "name": "_iigOwner",
          "type": "address"
        },
        {
          "internalType": "address",
          "name": "_studentOwner",
          "type": "address"
        }
      ],
      "name": "getIIGLRResult",
      "outputs": [
        {
          "internalType": "string[]",
          "name": "",
          "type": "string[]"
        },
        {
          "internalType": "string[]",
          "name": "",
          "type": "string[]"
        },
        {
          "internalType": "string[]",
          "name": "",
          "type": "string[]"
        },
        {
          "internalType": "uint256[]",
          "name": "",
          "type": "uint256[]"
        },
        {
          "internalType": "uint256[]",
          "name": "",
          "type": "uint256[]"
        },
        {
          "internalType": "uint256[]",
          "name": "",
          "type": "uint256[]"
        }
      ],
      "stateMutability": "view",
      "type": "function"
    },
    {
      "inputs": [
        {
          "internalType": "address",
          "name": "_iigOwner",
          "type": "address"
        },
        {
          "internalType": "address",
          "name": "_studentOwner",
          "type": "address"
        }
      ],
      "name": "getIIGSWResult",
      "outputs": [
        {
          "internalType": "string[]",
          "name": "",
          "type": "string[]"
        },
        {
          "internalType": "string[]",
          "name": "",
          "type": "string[]"
        },
        {
          "internalType": "string[]",
          "name": "",
          "type": "string[]"
        },
        {
          "internalType": "uint256[]",
          "name": "",
          "type": "uint256[]"
        },
        {
          "internalType": "uint256[]",
          "name": "",
          "type": "uint256[]"
        },
        {
          "internalType": "uint256[]",
          "name": "",
          "type": "uint256[]"
        }
      ],
      "stateMutability": "view",
      "type": "function"
    },
    {
      "inputs": [
        {
          "internalType": "address",
          "name": "_studentOwner",
          "type": "address"
        },
        {
          "internalType": "string",
          "name": "_testDate",
          "type": "string"
        },
        {
          "internalType": "string",
          "name": "_shiftTest",
          "type": "string"
        }
      ],
      "name": "checkExistIIGLRResult",
      "outputs": [
        {
          "internalType": "uint256",
          "name": "x",
          "type": "uint256"
        }
      ],
      "stateMutability": "view",
      "type": "function"
    },
    {
      "inputs": [
        {
          "internalType": "address",
          "name": "_studentOwner",
          "type": "address"
        },
        {
          "internalType": "string",
          "name": "_testDate",
          "type": "string"
        },
        {
          "internalType": "string",
          "name": "_shiftTest",
          "type": "string"
        }
      ],
      "name": "checkExistIIGSWResult",
      "outputs": [
        {
          "internalType": "uint256",
          "name": "x",
          "type": "uint256"
        }
      ],
      "stateMutability": "view",
      "type": "function"
    }
  ],
  "bytecode": "0x60806040526040516200001290620001c7565b604051809103906000f0801580156200002f573d6000803e3d6000fd5b506000806101000a81548173ffffffffffffffffffffffffffffffffffffffff021916908373ffffffffffffffffffffffffffffffffffffffff1602179055506040516200007d90620001d5565b604051809103906000f0801580156200009a573d6000803e3d6000fd5b50600160006101000a81548173ffffffffffffffffffffffffffffffffffffffff021916908373ffffffffffffffffffffffffffffffffffffffff160217905550604051620000e990620001e3565b604051809103906000f08015801562000106573d6000803e3d6000fd5b50600260006101000a81548173ffffffffffffffffffffffffffffffffffffffff021916908373ffffffffffffffffffffffffffffffffffffffff1602179055506040516200015590620001f1565b604051809103906000f08015801562000172573d6000803e3d6000fd5b50600360006101000a81548173ffffffffffffffffffffffffffffffffffffffff021916908373ffffffffffffffffffffffffffffffffffffffff160217905550348015620001c057600080fd5b50620001ff565b6145ae806200519683390190565b612630806200974483390190565b614dda806200bd7483390190565b612f698062010b4e83390190565b614f87806200020f6000396000f3fe608060405234801561001057600080fd5b50600436106102725760003560e01c80637e211fc511610151578063ce4dd73f116100c3578063f1eb243111610087578063f1eb243114610887578063f4b7ec97146108a3578063f7a7394c146108d3578063f7a7b83d146108ef578063fde064c71461090b578063fe7617831461092757610272565b8063ce4dd73f146107b8578063d2f9858f146107e8578063e28327211461081d578063e2f43af214610839578063e9daa70a1461085557610272565b80639b1a2111116101155780639b1a2111146106865780639cd32582146106bb578063acf6f3fd146106ef578063b8ef23d11461071f578063bc10454b14610754578063ce1ec5bb1461078457610272565b80637e211fc5146105d257806381f690ee146105ee578063844bb4601461061e578063873dcd291461063a57806391b9e6db1461066a57610272565b806335c77f85116101ea57806357824f16116101ae57806357824f161461050c57806363897216146105315780636b4dbb281461054d5780636d53448f1461057e5780636f57524c1461059a578063798fc53b146105b657610272565b806335c77f851461041257806339d92c4c14610442578063415db9551461047257806342f08d4b146104a657806344fd6e22146104dc57610272565b806311345a201161023c57806311345a20146103425780631632dd981461037257806319ad872f1461038e57806324c5f368146103aa5780632df96bfc146103c6578063313604e7146103f657610272565b80624e56cf14610277578062694bdc146102935780630299779f146102af5780630ac68f37146102df5780630e966efd1461030f575b600080fd5b610291600480360381019061028c91906128e0565b61095f565b005b6102ad60048036038101906102a8919061297f565b6109f7565b005b6102c960048036038101906102c4919061297f565b610a8d565b6040516102d69190612a07565b60405180910390f35b6102f960048036038101906102f49190612a22565b610b38565b6040516103069190612a07565b60405180910390f35b61032960048036038101906103249190612a7e565b610bdf565b6040516103399493929190612cb3565b60405180910390f35b61035c60048036038101906103579190612a7e565b610c95565b6040516103699190612a07565b60405180910390f35b61038c6004803603810190610387919061297f565b610d39565b005b6103a860048036038101906103a39190612d40565b610dcf565b005b6103c460048036038101906103bf9190612e36565b610e70565b005b6103e060048036038101906103db9190612a7e565b610f0f565b6040516103ed9190612a07565b60405180910390f35b610410600480360381019061040b9190612e36565b610fc8565b005b61042c60048036038101906104279190612a22565b611065565b6040516104399190612a07565b60405180910390f35b61045c60048036038101906104579190612a7e565b61110d565b6040516104699190612a07565b60405180910390f35b61048c60048036038101906104879190612a7e565b6111b2565b60405161049d959493929190612f4f565b60405180910390f35b6104c060048036038101906104bb9190612a7e565b61126c565b6040516104d3979695949392919061301e565b60405180910390f35b6104f660048036038101906104f19190612a7e565b611331565b6040516105039190612a07565b60405180910390f35b6105146113d6565b6040516105289897969594939291906130b7565b60405180910390f35b61054b6004803603810190610546919061316d565b611492565b005b61056760048036038101906105629190612a7e565b611535565b6040516105759291906133a5565b60405180910390f35b6105986004803603810190610593919061316d565b6115e0565b005b6105b460048036038101906105af91906133dc565b611685565b005b6105d060048036038101906105cb9190612e36565b611727565b005b6105ec60048036038101906105e79190612d40565b6117c4565b005b61060860048036038101906106039190613526565b611866565b6040516106159190612a07565b60405180910390f35b610638600480360381019061063391906128e0565b611911565b005b610654600480360381019061064f9190612a22565b6119aa565b6040516106619190612a07565b60405180910390f35b610684600480360381019061067f91906128e0565b611a52565b005b6106a0600480360381019061069b91906135b1565b611aeb565b6040516106b2969594939291906135f1565b60405180910390f35b6106d560048036038101906106d09190612a7e565b611bad565b6040516106e695949392919061367c565b60405180910390f35b61070960048036038101906107049190612a22565b611c69565b6040516107169190612a07565b60405180910390f35b610739600480360381019061073491906135b1565b611d10565b60405161074b969594939291906135f1565b60405180910390f35b61076e60048036038101906107699190613526565b611dd2565b60405161077b9190612a07565b60405180910390f35b61079e60048036038101906107999190612a7e565b611e7c565b6040516107af9594939291906137ba565b60405180910390f35b6107d260048036038101906107cd9190613526565b611f38565b6040516107df9190612a07565b60405180910390f35b61080260048036038101906107fd9190612a7e565b611fe3565b60405161081496959493929190613830565b60405180910390f35b610837600480360381019061083291906133dc565b6120a3565b005b610853600480360381019061084e91906138b4565b612145565b005b61086f600480360381019061086a91906135b1565b6121d9565b60405161087e93929190613923565b60405180910390f35b6108a1600480360381019061089c91906138b4565b61228e565b005b6108bd60048036038101906108b89190613526565b612322565b6040516108ca9190612a07565b60405180910390f35b6108ed60048036038101906108e89190613961565b612484565b005b61090960048036038101906109049190613b0b565b61252a565b005b6109256004803603810190610920919061297f565b6125c6565b005b610941600480360381019061093c9190612a7e565b61265c565b60405161095699989796959493929190613bda565b60405180910390f35b600360009054906101000a900473ffffffffffffffffffffffffffffffffffffffff1673ffffffffffffffffffffffffffffffffffffffff16624e56cf858585856040518563ffffffff1660e01b81526004016109bf9493929190613c9f565b600060405180830381600087803b1580156109d957600080fd5b505af11580156109ed573d6000803e3d6000fd5b5050505050505050565b600260009054906101000a900473ffffffffffffffffffffffffffffffffffffffff1673ffffffffffffffffffffffffffffffffffffffff166381d8b62c8484846040518463ffffffff1660e01b8152600401610a5693929190613923565b600060405180830381600087803b158015610a7057600080fd5b505af1158015610a84573d6000803e3d6000fd5b50505050505050565b6000600360009054906101000a900473ffffffffffffffffffffffffffffffffffffffff1673ffffffffffffffffffffffffffffffffffffffff16630299779f8585856040518463ffffffff1660e01b8152600401610aee93929190613923565b602060405180830381865afa158015610b0b573d6000803e3d6000fd5b505050506040513d601f19601f82011682018060405250810190610b2f9190613d07565b90509392505050565b60008060009054906101000a900473ffffffffffffffffffffffffffffffffffffffff1673ffffffffffffffffffffffffffffffffffffffff1663716b5ab484846040518363ffffffff1660e01b8152600401610b96929190613d34565b602060405180830381865afa158015610bb3573d6000803e3d6000fd5b505050506040513d601f19601f82011682018060405250810190610bd79190613d07565b905092915050565b606080606080600260009054906101000a900473ffffffffffffffffffffffffffffffffffffffff1673ffffffffffffffffffffffffffffffffffffffff16639fa7247a866040518263ffffffff1660e01b8152600401610c409190613d64565b600060405180830381865afa158015610c5d573d6000803e3d6000fd5b505050506040513d6000823e3d601f19601f82011682018060405250810190610c869190613fad565b93509350935093509193509193565b60008060009054906101000a900473ffffffffffffffffffffffffffffffffffffffff1673ffffffffffffffffffffffffffffffffffffffff1663961ecb5b836040518263ffffffff1660e01b8152600401610cf19190613d64565b602060405180830381865afa158015610d0e573d6000803e3d6000fd5b505050506040513d601f19601f82011682018060405250810190610d329190613d07565b9050919050565b600360009054906101000a900473ffffffffffffffffffffffffffffffffffffffff1673ffffffffffffffffffffffffffffffffffffffff1663ae8f00d38484846040518463ffffffff1660e01b8152600401610d9893929190613923565b600060405180830381600087803b158015610db257600080fd5b505af1158015610dc6573d6000803e3d6000fd5b50505050505050565b600260009054906101000a900473ffffffffffffffffffffffffffffffffffffffff1673ffffffffffffffffffffffffffffffffffffffff1662220cf7888888888888886040518863ffffffff1660e01b8152600401610e359796959493929190614084565b600060405180830381600087803b158015610e4f57600080fd5b505af1158015610e63573d6000803e3d6000fd5b5050505050505050505050565b600260009054906101000a900473ffffffffffffffffffffffffffffffffffffffff1673ffffffffffffffffffffffffffffffffffffffff16636cf871df8787878787876040518763ffffffff1660e01b8152600401610ed596959493929190613830565b600060405180830381600087803b158015610eef57600080fd5b505af1158015610f03573d6000803e3d6000fd5b50505050505050505050565b60008060008054906101000a900473ffffffffffffffffffffffffffffffffffffffff1673ffffffffffffffffffffffffffffffffffffffff16638e891393846040518263ffffffff1660e01b8152600401610f6b9190613d64565b602060405180830381865afa158015610f88573d6000803e3d6000fd5b505050506040513d601f19601f82011682018060405250810190610fac9190613d07565b9050600a811115610fc1576001915050610fc3565b505b919050565b60008054906101000a900473ffffffffffffffffffffffffffffffffffffffff1673ffffffffffffffffffffffffffffffffffffffff1663dcc453528787878787876040518763ffffffff1660e01b815260040161102b96959493929190613830565b600060405180830381600087803b15801561104557600080fd5b505af1158015611059573d6000803e3d6000fd5b50505050505050505050565b6000600160009054906101000a900473ffffffffffffffffffffffffffffffffffffffff1673ffffffffffffffffffffffffffffffffffffffff1663a7dba18484846040518363ffffffff1660e01b81526004016110c4929190613d34565b602060405180830381865afa1580156110e1573d6000803e3d6000fd5b505050506040513d601f19601f820116820180604052508101906111059190613d07565b905092915050565b6000600160009054906101000a900473ffffffffffffffffffffffffffffffffffffffff1673ffffffffffffffffffffffffffffffffffffffff1663c6fe410a836040518263ffffffff1660e01b815260040161116a9190613d64565b602060405180830381865afa158015611187573d6000803e3d6000fd5b505050506040513d601f19601f820116820180604052508101906111ab9190613d07565b9050919050565b606080606080606060008054906101000a900473ffffffffffffffffffffffffffffffffffffffff1673ffffffffffffffffffffffffffffffffffffffff16638ce211bc876040518263ffffffff1660e01b81526004016112139190613d64565b600060405180830381865afa158015611230573d6000803e3d6000fd5b505050506040513d6000823e3d601f19601f820116820180604052508101906112599190614108565b9450945094509450945091939590929450565b6000606080606080606080600160009054906101000a900473ffffffffffffffffffffffffffffffffffffffff1673ffffffffffffffffffffffffffffffffffffffff16630f53a470896040518263ffffffff1660e01b81526004016112d29190613d64565b600060405180830381865afa1580156112ef573d6000803e3d6000fd5b505050506040513d6000823e3d601f19601f82011682018060405250810190611318919061420f565b9650965096509650965096509650919395979092949650565b6000600260009054906101000a900473ffffffffffffffffffffffffffffffffffffffff1673ffffffffffffffffffffffffffffffffffffffff166344fd6e22836040518263ffffffff1660e01b815260040161138e9190613d64565b602060405180830381865afa1580156113ab573d6000803e3d6000fd5b505050506040513d601f19601f820116820180604052508101906113cf9190613d07565b9050919050565b606080606080606080606080600160009054906101000a900473ffffffffffffffffffffffffffffffffffffffff1673ffffffffffffffffffffffffffffffffffffffff1663cfafbc0c6040518163ffffffff1660e01b8152600401600060405180830381865afa15801561144f573d6000803e3d6000fd5b505050506040513d6000823e3d601f19601f820116820180604052508101906114789190614359565b975097509750975097509750975097509091929394959697565b60008054906101000a900473ffffffffffffffffffffffffffffffffffffffff1673ffffffffffffffffffffffffffffffffffffffff1663b24f701689898989898989896040518963ffffffff1660e01b81526004016114f99897969594939291906144ef565b600060405180830381600087803b15801561151357600080fd5b505af1158015611527573d6000803e3d6000fd5b505050505050505050505050565b60608060008054906101000a900473ffffffffffffffffffffffffffffffffffffffff1673ffffffffffffffffffffffffffffffffffffffff1663ac4b2049846040518263ffffffff1660e01b81526004016115919190613d64565b600060405180830381865afa1580156115ae573d6000803e3d6000fd5b505050506040513d6000823e3d601f19601f820116820180604052508101906115d79190614661565b91509150915091565b600160009054906101000a900473ffffffffffffffffffffffffffffffffffffffff1673ffffffffffffffffffffffffffffffffffffffff1663e045b71089898989898989896040518963ffffffff1660e01b81526004016116499897969594939291906144ef565b600060405180830381600087803b15801561166357600080fd5b505af1158015611677573d6000803e3d6000fd5b505050505050505050505050565b600160009054906101000a900473ffffffffffffffffffffffffffffffffffffffff1673ffffffffffffffffffffffffffffffffffffffff166323b6d993888888888888886040518863ffffffff1660e01b81526004016116ec979695949392919061301e565b600060405180830381600087803b15801561170657600080fd5b505af115801561171a573d6000803e3d6000fd5b5050505050505050505050565b60008054906101000a900473ffffffffffffffffffffffffffffffffffffffff1673ffffffffffffffffffffffffffffffffffffffff16633d746f0a8787878787876040518763ffffffff1660e01b815260040161178a96959493929190613830565b600060405180830381600087803b1580156117a457600080fd5b505af11580156117b8573d6000803e3d6000fd5b50505050505050505050565b600260009054906101000a900473ffffffffffffffffffffffffffffffffffffffff1673ffffffffffffffffffffffffffffffffffffffff1663d23a4ee1888888888888886040518863ffffffff1660e01b815260040161182b9796959493929190614084565b600060405180830381600087803b15801561184557600080fd5b505af1158015611859573d6000803e3d6000fd5b5050505050505050505050565b6000600260009054906101000a900473ffffffffffffffffffffffffffffffffffffffff1673ffffffffffffffffffffffffffffffffffffffff16630265275c8585856040518463ffffffff1660e01b81526004016118c7939291906146d9565b602060405180830381865afa1580156118e4573d6000803e3d6000fd5b505050506040513d601f19601f820116820180604052508101906119089190613d07565b90509392505050565b600360009054906101000a900473ffffffffffffffffffffffffffffffffffffffff1673ffffffffffffffffffffffffffffffffffffffff1663844bb460858585856040518563ffffffff1660e01b81526004016119729493929190613c9f565b600060405180830381600087803b15801561198c57600080fd5b505af11580156119a0573d6000803e3d6000fd5b5050505050505050565b6000600260009054906101000a900473ffffffffffffffffffffffffffffffffffffffff1673ffffffffffffffffffffffffffffffffffffffff166324e6603784846040518363ffffffff1660e01b8152600401611a09929190613d34565b602060405180830381865afa158015611a26573d6000803e3d6000fd5b505050506040513d601f19601f82011682018060405250810190611a4a9190613d07565b905092915050565b600360009054906101000a900473ffffffffffffffffffffffffffffffffffffffff1673ffffffffffffffffffffffffffffffffffffffff1663dc1e475f858585856040518563ffffffff1660e01b8152600401611ab39493929190613c9f565b600060405180830381600087803b158015611acd57600080fd5b505af1158015611ae1573d6000803e3d6000fd5b5050505050505050565b606080606080606080600260009054906101000a900473ffffffffffffffffffffffffffffffffffffffff1673ffffffffffffffffffffffffffffffffffffffff166306ed1e8989896040518363ffffffff1660e01b8152600401611b5192919061471e565b600060405180830381865afa158015611b6e573d6000803e3d6000fd5b505050506040513d6000823e3d601f19601f82011682018060405250810190611b979190614747565b9550955095509550955095509295509295509295565b6060806060806060600360009054906101000a900473ffffffffffffffffffffffffffffffffffffffff1673ffffffffffffffffffffffffffffffffffffffff1663381a3bf7876040518263ffffffff1660e01b8152600401611c109190613d64565b600060405180830381865afa158015611c2d573d6000803e3d6000fd5b505050506040513d6000823e3d601f19601f82011682018060405250810190611c56919061487c565b9450945094509450945091939590929450565b60008060009054906101000a900473ffffffffffffffffffffffffffffffffffffffff1673ffffffffffffffffffffffffffffffffffffffff1663174ceeab84846040518363ffffffff1660e01b8152600401611cc7929190613d34565b602060405180830381865afa158015611ce4573d6000803e3d6000fd5b505050506040513d601f19601f82011682018060405250810190611d089190613d07565b905092915050565b606080606080606080600260009054906101000a900473ffffffffffffffffffffffffffffffffffffffff1673ffffffffffffffffffffffffffffffffffffffff1663bc72af7d89896040518363ffffffff1660e01b8152600401611d7692919061471e565b600060405180830381865afa158015611d93573d6000803e3d6000fd5b505050506040513d6000823e3d601f19601f82011682018060405250810190611dbc9190614747565b9550955095509550955095509295509295509295565b60008060009054906101000a900473ffffffffffffffffffffffffffffffffffffffff1673ffffffffffffffffffffffffffffffffffffffff1663390363fe8585856040518463ffffffff1660e01b8152600401611e32939291906146d9565b602060405180830381865afa158015611e4f573d6000803e3d6000fd5b505050506040513d601f19601f82011682018060405250810190611e739190613d07565b90509392505050565b6060806060806060600360009054906101000a900473ffffffffffffffffffffffffffffffffffffffff1673ffffffffffffffffffffffffffffffffffffffff1663ce1ec5bb876040518263ffffffff1660e01b8152600401611edf9190613d64565b600060405180830381865afa158015611efc573d6000803e3d6000fd5b505050506040513d6000823e3d601f19601f82011682018060405250810190611f259190614a72565b9450945094509450945091939590929450565b6000600260009054906101000a900473ffffffffffffffffffffffffffffffffffffffff1673ffffffffffffffffffffffffffffffffffffffff16637829b41e8585856040518463ffffffff1660e01b8152600401611f99939291906146d9565b602060405180830381865afa158015611fb6573d6000803e3d6000fd5b505050506040513d601f19601f82011682018060405250810190611fda9190613d07565b90509392505050565b60006060806060806060600260009054906101000a900473ffffffffffffffffffffffffffffffffffffffff1673ffffffffffffffffffffffffffffffffffffffff16630f53a470886040518263ffffffff1660e01b81526004016120489190613d64565b600060405180830381865afa158015612065573d6000803e3d6000fd5b505050506040513d6000823e3d601f19601f8201168201806040525081019061208e9190614b79565b95509550955095509550955091939550919395565b600260009054906101000a900473ffffffffffffffffffffffffffffffffffffffff1673ffffffffffffffffffffffffffffffffffffffff1663dd8f3edc888888888888886040518863ffffffff1660e01b815260040161210a979695949392919061301e565b600060405180830381600087803b15801561212457600080fd5b505af1158015612138573d6000803e3d6000fd5b5050505050505050505050565b60008054906101000a900473ffffffffffffffffffffffffffffffffffffffff1673ffffffffffffffffffffffffffffffffffffffff166360ccb2048484846040518463ffffffff1660e01b81526004016121a293929190614c92565b600060405180830381600087803b1580156121bc57600080fd5b505af11580156121d0573d6000803e3d6000fd5b50505050505050565b6000806060600360009054906101000a900473ffffffffffffffffffffffffffffffffffffffff1673ffffffffffffffffffffffffffffffffffffffff1663e9daa70a86866040518363ffffffff1660e01b815260040161223b92919061471e565b600060405180830381865afa158015612258573d6000803e3d6000fd5b505050506040513d6000823e3d601f19601f820116820180604052508101906122819190614cd0565b9250925092509250925092565b60008054906101000a900473ffffffffffffffffffffffffffffffffffffffff1673ffffffffffffffffffffffffffffffffffffffff1663a06b883d8484846040518463ffffffff1660e01b81526004016122eb93929190614c92565b600060405180830381600087803b15801561230557600080fd5b505af1158015612319573d6000803e3d6000fd5b50505050505050565b600080600360009054906101000a900473ffffffffffffffffffffffffffffffffffffffff1673ffffffffffffffffffffffffffffffffffffffff1663dae7debd866040518263ffffffff1660e01b81526004016123809190613d64565b602060405180830381865afa15801561239d573d6000803e3d6000fd5b505050506040513d601f19601f820116820180604052508101906123c19190613d07565b90506000600360009054906101000a900473ffffffffffffffffffffffffffffffffffffffff1673ffffffffffffffffffffffffffffffffffffffff166386b87ba28787876040518463ffffffff1660e01b8152600401612424939291906146d9565b602060405180830381865afa158015612441573d6000803e3d6000fd5b505050506040513d601f19601f820116820180604052508101906124659190613d07565b90508082111561247a5760019250505061247d565b50505b9392505050565b60008054906101000a900473ffffffffffffffffffffffffffffffffffffffff1673ffffffffffffffffffffffffffffffffffffffff1663804fcf138a8a8a8a8a8a8a8a8a6040518a63ffffffff1660e01b81526004016124ed99989796959493929190613bda565b600060405180830381600087803b15801561250757600080fd5b505af115801561251b573d6000803e3d6000fd5b50505050505050505050505050565b600360009054906101000a900473ffffffffffffffffffffffffffffffffffffffff1673ffffffffffffffffffffffffffffffffffffffff1663f7a7b83d86868686866040518663ffffffff1660e01b815260040161258d959493929190614d3f565b600060405180830381600087803b1580156125a757600080fd5b505af11580156125bb573d6000803e3d6000fd5b505050505050505050565b600260009054906101000a900473ffffffffffffffffffffffffffffffffffffffff1673ffffffffffffffffffffffffffffffffffffffff1663ba82e8608484846040518463ffffffff1660e01b815260040161262593929190613923565b600060405180830381600087803b15801561263f57600080fd5b505af1158015612653573d6000803e3d6000fd5b50505050505050565b600060608060608060608060608060008054906101000a900473ffffffffffffffffffffffffffffffffffffffff1673ffffffffffffffffffffffffffffffffffffffff16630f53a4708b6040518263ffffffff1660e01b81526004016126c39190613d64565b600060405180830381865afa1580156126e0573d6000803e3d6000fd5b505050506040513d6000823e3d601f19601f820116820180604052508101906127099190614da7565b9850985098509850985098509850985098509193959799909294969850565b6000604051905090565b600080fd5b600080fd5b600073ffffffffffffffffffffffffffffffffffffffff82169050919050565b60006127678261273c565b9050919050565b6127778161275c565b811461278257600080fd5b50565b6000813590506127948161276e565b92915050565b600080fd5b600080fd5b6000601f19601f8301169050919050565b7f4e487b7100000000000000000000000000000000000000000000000000000000600052604160045260246000fd5b6127ed826127a4565b810181811067ffffffffffffffff8211171561280c5761280b6127b5565b5b80604052505050565b600061281f612728565b905061282b82826127e4565b919050565b600067ffffffffffffffff82111561284b5761284a6127b5565b5b612854826127a4565b9050602081019050919050565b82818337600083830152505050565b600061288361287e84612830565b612815565b90508281526020810184848401111561289f5761289e61279f565b5b6128aa848285612861565b509392505050565b600082601f8301126128c7576128c661279a565b5b81356128d7848260208601612870565b91505092915050565b600080600080608085870312156128fa576128f9612732565b5b600061290887828801612785565b945050602061291987828801612785565b935050604085013567ffffffffffffffff81111561293a57612939612737565b5b612946878288016128b2565b925050606085013567ffffffffffffffff81111561296757612966612737565b5b612973878288016128b2565b91505092959194509250565b60008060006060848603121561299857612997612732565b5b60006129a686828701612785565b93505060206129b786828701612785565b925050604084013567ffffffffffffffff8111156129d8576129d7612737565b5b6129e4868287016128b2565b9150509250925092565b6000819050919050565b612a01816129ee565b82525050565b6000602082019050612a1c60008301846129f8565b92915050565b60008060408385031215612a3957612a38612732565b5b6000612a4785828601612785565b925050602083013567ffffffffffffffff811115612a6857612a67612737565b5b612a74858286016128b2565b9150509250929050565b600060208284031215612a9457612a93612732565b5b6000612aa284828501612785565b91505092915050565b600081519050919050565b600082825260208201905092915050565b6000819050602082019050919050565b612ae08161275c565b82525050565b6000612af28383612ad7565b60208301905092915050565b6000602082019050919050565b6000612b1682612aab565b612b208185612ab6565b9350612b2b83612ac7565b8060005b83811015612b5c578151612b438882612ae6565b9750612b4e83612afe565b925050600181019050612b2f565b5085935050505092915050565b600081519050919050565b600082825260208201905092915050565b6000819050602082019050919050565b600081519050919050565b600082825260208201905092915050565b60005b83811015612bcf578082015181840152602081019050612bb4565b83811115612bde576000848401525b50505050565b6000612bef82612b95565b612bf98185612ba0565b9350612c09818560208601612bb1565b612c12816127a4565b840191505092915050565b6000612c298383612be4565b905092915050565b6000602082019050919050565b6000612c4982612b69565b612c538185612b74565b935083602082028501612c6585612b85565b8060005b85811015612ca15784840389528151612c828582612c1d565b9450612c8d83612c31565b925060208a01995050600181019050612c69565b50829750879550505050505092915050565b60006080820190508181036000830152612ccd8187612b0b565b90508181036020830152612ce18186612b0b565b90508181036040830152612cf58185612c3e565b90508181036060830152612d098184612c3e565b905095945050505050565b612d1d816129ee565b8114612d2857600080fd5b50565b600081359050612d3a81612d14565b92915050565b600080600080600080600060e0888a031215612d5f57612d5e612732565b5b6000612d6d8a828b01612785565b9750506020612d7e8a828b01612785565b965050604088013567ffffffffffffffff811115612d9f57612d9e612737565b5b612dab8a828b016128b2565b955050606088013567ffffffffffffffff811115612dcc57612dcb612737565b5b612dd88a828b016128b2565b945050608088013567ffffffffffffffff811115612df957612df8612737565b5b612e058a828b016128b2565b93505060a0612e168a828b01612d2b565b92505060c0612e278a828b01612d2b565b91505092959891949750929550565b60008060008060008060c08789031215612e5357612e52612732565b5b6000612e6189828a01612785565b965050602087013567ffffffffffffffff811115612e8257612e81612737565b5b612e8e89828a016128b2565b955050604087013567ffffffffffffffff811115612eaf57612eae612737565b5b612ebb89828a016128b2565b945050606087013567ffffffffffffffff811115612edc57612edb612737565b5b612ee889828a016128b2565b935050608087013567ffffffffffffffff811115612f0957612f08612737565b5b612f1589828a016128b2565b92505060a087013567ffffffffffffffff811115612f3657612f35612737565b5b612f4289828a016128b2565b9150509295509295509295565b600060a0820190508181036000830152612f698188612c3e565b90508181036020830152612f7d8187612c3e565b90508181036040830152612f918186612c3e565b90508181036060830152612fa58185612c3e565b90508181036080830152612fb98184612c3e565b90509695505050505050565b612fce8161275c565b82525050565b600082825260208201905092915050565b6000612ff082612b95565b612ffa8185612fd4565b935061300a818560208601612bb1565b613013816127a4565b840191505092915050565b600060e082019050613033600083018a612fc5565b81810360208301526130458189612fe5565b905081810360408301526130598188612fe5565b9050818103606083015261306d8187612fe5565b905081810360808301526130818186612fe5565b905081810360a08301526130958185612fe5565b905081810360c08301526130a98184612fe5565b905098975050505050505050565b60006101008201905081810360008301526130d2818b612b0b565b905081810360208301526130e6818a612c3e565b905081810360408301526130fa8189612c3e565b9050818103606083015261310e8188612c3e565b905081810360808301526131228187612c3e565b905081810360a08301526131368186612c3e565b905081810360c083015261314a8185612c3e565b905081810360e083015261315e8184612c3e565b90509998505050505050505050565b600080600080600080600080610100898b03121561318e5761318d612732565b5b600061319c8b828c01612785565b985050602089013567ffffffffffffffff8111156131bd576131bc612737565b5b6131c98b828c016128b2565b975050604089013567ffffffffffffffff8111156131ea576131e9612737565b5b6131f68b828c016128b2565b965050606089013567ffffffffffffffff81111561321757613216612737565b5b6132238b828c016128b2565b955050608089013567ffffffffffffffff81111561324457613243612737565b5b6132508b828c016128b2565b94505060a089013567ffffffffffffffff81111561327157613270612737565b5b61327d8b828c016128b2565b93505060c089013567ffffffffffffffff81111561329e5761329d612737565b5b6132aa8b828c016128b2565b92505060e089013567ffffffffffffffff8111156132cb576132ca612737565b5b6132d78b828c016128b2565b9150509295985092959890939650565b600081519050919050565b600082825260208201905092915050565b6000819050602082019050919050565b61331c816129ee565b82525050565b600061332e8383613313565b60208301905092915050565b6000602082019050919050565b6000613352826132e7565b61335c81856132f2565b935061336783613303565b8060005b8381101561339857815161337f8882613322565b975061338a8361333a565b92505060018101905061336b565b5085935050505092915050565b600060408201905081810360008301526133bf8185612c3e565b905081810360208301526133d38184613347565b90509392505050565b600080600080600080600060e0888a0312156133fb576133fa612732565b5b60006134098a828b01612785565b975050602088013567ffffffffffffffff81111561342a57613429612737565b5b6134368a828b016128b2565b965050604088013567ffffffffffffffff81111561345757613456612737565b5b6134638a828b016128b2565b955050606088013567ffffffffffffffff81111561348457613483612737565b5b6134908a828b016128b2565b945050608088013567ffffffffffffffff8111156134b1576134b0612737565b5b6134bd8a828b016128b2565b93505060a088013567ffffffffffffffff8111156134de576134dd612737565b5b6134ea8a828b016128b2565b92505060c088013567ffffffffffffffff81111561350b5761350a612737565b5b6135178a828b016128b2565b91505092959891949750929550565b60008060006060848603121561353f5761353e612732565b5b600061354d86828701612785565b935050602084013567ffffffffffffffff81111561356e5761356d612737565b5b61357a868287016128b2565b925050604084013567ffffffffffffffff81111561359b5761359a612737565b5b6135a7868287016128b2565b9150509250925092565b600080604083850312156135c8576135c7612732565b5b60006135d685828601612785565b92505060206135e785828601612785565b9150509250929050565b600060c082019050818103600083015261360b8189612c3e565b9050818103602083015261361f8188612c3e565b905081810360408301526136338187612c3e565b905081810360608301526136478186613347565b9050818103608083015261365b8185613347565b905081810360a083015261366f8184613347565b9050979650505050505050565b600060a08201905081810360008301526136968188612b0b565b905081810360208301526136aa8187612b0b565b905081810360408301526136be8186612c3e565b905081810360608301526136d28185612c3e565b905081810360808301526136e68184612c3e565b90509695505050505050565b600081519050919050565b600082825260208201905092915050565b6000819050602082019050919050565b6000819050919050565b6137318161371e565b82525050565b60006137438383613728565b60208301905092915050565b6000602082019050919050565b6000613767826136f2565b61377181856136fd565b935061377c8361370e565b8060005b838110156137ad5781516137948882613737565b975061379f8361374f565b925050600181019050613780565b5085935050505092915050565b600060a08201905081810360008301526137d4818861375c565b905081810360208301526137e88187612c3e565b905081810360408301526137fc8186612c3e565b905081810360608301526138108185612c3e565b905081810360808301526138248184613347565b90509695505050505050565b600060c0820190506138456000830189612fc5565b81810360208301526138578188612fe5565b9050818103604083015261386b8187612fe5565b9050818103606083015261387f8186612fe5565b905081810360808301526138938185612fe5565b905081810360a08301526138a78184612fe5565b9050979650505050505050565b6000806000606084860312156138cd576138cc612732565b5b60006138db86828701612785565b935050602084013567ffffffffffffffff8111156138fc576138fb612737565b5b613908868287016128b2565b925050604061391986828701612d2b565b9150509250925092565b60006060820190506139386000830186612fc5565b6139456020830185612fc5565b81810360408301526139578184612fe5565b9050949350505050565b60008060008060008060008060006101208a8c03121561398457613983612732565b5b60006139928c828d01612785565b99505060208a013567ffffffffffffffff8111156139b3576139b2612737565b5b6139bf8c828d016128b2565b98505060408a013567ffffffffffffffff8111156139e0576139df612737565b5b6139ec8c828d016128b2565b97505060608a013567ffffffffffffffff811115613a0d57613a0c612737565b5b613a198c828d016128b2565b96505060808a013567ffffffffffffffff811115613a3a57613a39612737565b5b613a468c828d016128b2565b95505060a08a013567ffffffffffffffff811115613a6757613a66612737565b5b613a738c828d016128b2565b94505060c08a013567ffffffffffffffff811115613a9457613a93612737565b5b613aa08c828d016128b2565b93505060e08a013567ffffffffffffffff811115613ac157613ac0612737565b5b613acd8c828d016128b2565b9250506101008a013567ffffffffffffffff811115613aef57613aee612737565b5b613afb8c828d016128b2565b9150509295985092959850929598565b600080600080600060a08688031215613b2757613b26612732565b5b6000613b3588828901612785565b955050602086013567ffffffffffffffff811115613b5657613b55612737565b5b613b62888289016128b2565b945050604086013567ffffffffffffffff811115613b8357613b82612737565b5b613b8f888289016128b2565b935050606086013567ffffffffffffffff811115613bb057613baf612737565b5b613bbc888289016128b2565b9250506080613bcd88828901612d2b565b9150509295509295909350565b600061012082019050613bf0600083018c612fc5565b8181036020830152613c02818b612fe5565b90508181036040830152613c16818a612fe5565b90508181036060830152613c2a8189612fe5565b90508181036080830152613c3e8188612fe5565b905081810360a0830152613c528187612fe5565b905081810360c0830152613c668186612fe5565b905081810360e0830152613c7a8185612fe5565b9050818103610100830152613c8f8184612fe5565b90509a9950505050505050505050565b6000608082019050613cb46000830187612fc5565b613cc16020830186612fc5565b8181036040830152613cd38185612fe5565b90508181036060830152613ce78184612fe5565b905095945050505050565b600081519050613d0181612d14565b92915050565b600060208284031215613d1d57613d1c612732565b5b6000613d2b84828501613cf2565b91505092915050565b6000604082019050613d496000830185612fc5565b8181036020830152613d5b8184612fe5565b90509392505050565b6000602082019050613d796000830184612fc5565b92915050565b600067ffffffffffffffff821115613d9a57613d996127b5565b5b602082029050602081019050919050565b600080fd5b600081519050613dbf8161276e565b92915050565b6000613dd8613dd384613d7f565b612815565b90508083825260208201905060208402830185811115613dfb57613dfa613dab565b5b835b81811015613e245780613e108882613db0565b845260208401935050602081019050613dfd565b5050509392505050565b600082601f830112613e4357613e4261279a565b5b8151613e53848260208601613dc5565b91505092915050565b600067ffffffffffffffff821115613e7757613e766127b5565b5b602082029050602081019050919050565b6000613e9b613e9684612830565b612815565b905082815260208101848484011115613eb757613eb661279f565b5b613ec2848285612bb1565b509392505050565b600082601f830112613edf57613ede61279a565b5b8151613eef848260208601613e88565b91505092915050565b6000613f0b613f0684613e5c565b612815565b90508083825260208201905060208402830185811115613f2e57613f2d613dab565b5b835b81811015613f7557805167ffffffffffffffff811115613f5357613f5261279a565b5b808601613f608982613eca565b85526020850194505050602081019050613f30565b5050509392505050565b600082601f830112613f9457613f9361279a565b5b8151613fa4848260208601613ef8565b91505092915050565b60008060008060808587031215613fc757613fc6612732565b5b600085015167ffffffffffffffff811115613fe557613fe4612737565b5b613ff187828801613e2e565b945050602085015167ffffffffffffffff81111561401257614011612737565b5b61401e87828801613e2e565b935050604085015167ffffffffffffffff81111561403f5761403e612737565b5b61404b87828801613f7f565b925050606085015167ffffffffffffffff81111561406c5761406b612737565b5b61407887828801613f7f565b91505092959194509250565b600060e082019050614099600083018a612fc5565b6140a66020830189612fc5565b81810360408301526140b88188612fe5565b905081810360608301526140cc8187612fe5565b905081810360808301526140e08186612fe5565b90506140ef60a08301856129f8565b6140fc60c08301846129f8565b98975050505050505050565b600080600080600060a0868803121561412457614123612732565b5b600086015167ffffffffffffffff81111561414257614141612737565b5b61414e88828901613f7f565b955050602086015167ffffffffffffffff81111561416f5761416e612737565b5b61417b88828901613f7f565b945050604086015167ffffffffffffffff81111561419c5761419b612737565b5b6141a888828901613f7f565b935050606086015167ffffffffffffffff8111156141c9576141c8612737565b5b6141d588828901613f7f565b925050608086015167ffffffffffffffff8111156141f6576141f5612737565b5b61420288828901613f7f565b9150509295509295909350565b600080600080600080600060e0888a03121561422e5761422d612732565b5b600061423c8a828b01613db0565b975050602088015167ffffffffffffffff81111561425d5761425c612737565b5b6142698a828b01613eca565b965050604088015167ffffffffffffffff81111561428a57614289612737565b5b6142968a828b01613eca565b955050606088015167ffffffffffffffff8111156142b7576142b6612737565b5b6142c38a828b01613eca565b945050608088015167ffffffffffffffff8111156142e4576142e3612737565b5b6142f08a828b01613eca565b93505060a088015167ffffffffffffffff81111561431157614310612737565b5b61431d8a828b01613eca565b92505060c088015167ffffffffffffffff81111561433e5761433d612737565b5b61434a8a828b01613eca565b91505092959891949750929550565b600080600080600080600080610100898b03121561437a57614379612732565b5b600089015167ffffffffffffffff81111561439857614397612737565b5b6143a48b828c01613e2e565b985050602089015167ffffffffffffffff8111156143c5576143c4612737565b5b6143d18b828c01613f7f565b975050604089015167ffffffffffffffff8111156143f2576143f1612737565b5b6143fe8b828c01613f7f565b965050606089015167ffffffffffffffff81111561441f5761441e612737565b5b61442b8b828c01613f7f565b955050608089015167ffffffffffffffff81111561444c5761444b612737565b5b6144588b828c01613f7f565b94505060a089015167ffffffffffffffff81111561447957614478612737565b5b6144858b828c01613f7f565b93505060c089015167ffffffffffffffff8111156144a6576144a5612737565b5b6144b28b828c01613f7f565b92505060e089015167ffffffffffffffff8111156144d3576144d2612737565b5b6144df8b828c01613f7f565b9150509295985092959890939650565b600061010082019050614505600083018b612fc5565b8181036020830152614517818a612fe5565b9050818103604083015261452b8189612fe5565b9050818103606083015261453f8188612fe5565b905081810360808301526145538187612fe5565b905081810360a08301526145678186612fe5565b905081810360c083015261457b8185612fe5565b905081810360e083015261458f8184612fe5565b90509998505050505050505050565b600067ffffffffffffffff8211156145b9576145b86127b5565b5b602082029050602081019050919050565b60006145dd6145d88461459e565b612815565b90508083825260208201905060208402830185811115614600576145ff613dab565b5b835b8181101561462957806146158882613cf2565b845260208401935050602081019050614602565b5050509392505050565b600082601f8301126146485761464761279a565b5b81516146588482602086016145ca565b91505092915050565b6000806040838503121561467857614677612732565b5b600083015167ffffffffffffffff81111561469657614695612737565b5b6146a285828601613f7f565b925050602083015167ffffffffffffffff8111156146c3576146c2612737565b5b6146cf85828601614633565b9150509250929050565b60006060820190506146ee6000830186612fc5565b81810360208301526147008185612fe5565b905081810360408301526147148184612fe5565b9050949350505050565b60006040820190506147336000830185612fc5565b6147406020830184612fc5565b9392505050565b60008060008060008060c0878903121561476457614763612732565b5b600087015167ffffffffffffffff81111561478257614781612737565b5b61478e89828a01613f7f565b965050602087015167ffffffffffffffff8111156147af576147ae612737565b5b6147bb89828a01613f7f565b955050604087015167ffffffffffffffff8111156147dc576147db612737565b5b6147e889828a01613f7f565b945050606087015167ffffffffffffffff81111561480957614808612737565b5b61481589828a01614633565b935050608087015167ffffffffffffffff81111561483657614835612737565b5b61484289828a01614633565b92505060a087015167ffffffffffffffff81111561486357614862612737565b5b61486f89828a01614633565b9150509295509295509295565b600080600080600060a0868803121561489857614897612732565b5b600086015167ffffffffffffffff8111156148b6576148b5612737565b5b6148c288828901613e2e565b955050602086015167ffffffffffffffff8111156148e3576148e2612737565b5b6148ef88828901613e2e565b945050604086015167ffffffffffffffff8111156149105761490f612737565b5b61491c88828901613f7f565b935050606086015167ffffffffffffffff81111561493d5761493c612737565b5b61494988828901613f7f565b925050608086015167ffffffffffffffff81111561496a57614969612737565b5b61497688828901613f7f565b9150509295509295909350565b600067ffffffffffffffff82111561499e5761499d6127b5565b5b602082029050602081019050919050565b6149b88161371e565b81146149c357600080fd5b50565b6000815190506149d5816149af565b92915050565b60006149ee6149e984614983565b612815565b90508083825260208201905060208402830185811115614a1157614a10613dab565b5b835b81811015614a3a5780614a2688826149c6565b845260208401935050602081019050614a13565b5050509392505050565b600082601f830112614a5957614a5861279a565b5b8151614a698482602086016149db565b91505092915050565b600080600080600060a08688031215614a8e57614a8d612732565b5b600086015167ffffffffffffffff811115614aac57614aab612737565b5b614ab888828901614a44565b955050602086015167ffffffffffffffff811115614ad957614ad8612737565b5b614ae588828901613f7f565b945050604086015167ffffffffffffffff811115614b0657614b05612737565b5b614b1288828901613f7f565b935050606086015167ffffffffffffffff811115614b3357614b32612737565b5b614b3f88828901613f7f565b925050608086015167ffffffffffffffff811115614b6057614b5f612737565b5b614b6c88828901614633565b9150509295509295909350565b60008060008060008060c08789031215614b9657614b95612732565b5b6000614ba489828a01613db0565b965050602087015167ffffffffffffffff811115614bc557614bc4612737565b5b614bd189828a01613eca565b955050604087015167ffffffffffffffff811115614bf257614bf1612737565b5b614bfe89828a01613eca565b945050606087015167ffffffffffffffff811115614c1f57614c1e612737565b5b614c2b89828a01613eca565b935050608087015167ffffffffffffffff811115614c4c57614c4b612737565b5b614c5889828a01613eca565b92505060a087015167ffffffffffffffff811115614c7957614c78612737565b5b614c8589828a01613eca565b9150509295509295509295565b6000606082019050614ca76000830186612fc5565b8181036020830152614cb98185612fe5565b9050614cc860408301846129f8565b949350505050565b600080600060608486031215614ce957614ce8612732565b5b6000614cf786828701613db0565b9350506020614d0886828701613db0565b925050604084015167ffffffffffffffff811115614d2957614d28612737565b5b614d3586828701613eca565b9150509250925092565b600060a082019050614d546000830188612fc5565b8181036020830152614d668187612fe5565b90508181036040830152614d7a8186612fe5565b90508181036060830152614d8e8185612fe5565b9050614d9d60808301846129f8565b9695505050505050565b60008060008060008060008060006101208a8c031215614dca57614dc9612732565b5b6000614dd88c828d01613db0565b99505060208a015167ffffffffffffffff811115614df957614df8612737565b5b614e058c828d01613eca565b98505060408a015167ffffffffffffffff811115614e2657614e25612737565b5b614e328c828d01613eca565b97505060608a015167ffffffffffffffff811115614e5357614e52612737565b5b614e5f8c828d01613eca565b96505060808a015167ffffffffffffffff811115614e8057614e7f612737565b5b614e8c8c828d01613eca565b95505060a08a015167ffffffffffffffff811115614ead57614eac612737565b5b614eb98c828d01613eca565b94505060c08a015167ffffffffffffffff811115614eda57614ed9612737565b5b614ee68c828d01613eca565b93505060e08a015167ffffffffffffffff811115614f0757614f06612737565b5b614f138c828d01613eca565b9250506101008a015167ffffffffffffffff811115614f3557614f34612737565b5b614f418c828d01613eca565b915050929598509295985092959856fea2646970667358221220e798ffb99f314d4a01e0635c3b2552ecf96b5930ec833585549d907c85ced3b764736f6c634300080b0033608060405234801561001057600080fd5b5061458e806100206000396000f3fe608060405234801561001057600080fd5b50600436106101165760003560e01c8063804fcf13116100a2578063a06b883d11610071578063a06b883d1461036a578063ac4b204914610386578063b24f7016146103b7578063d64b6913146103d3578063dcc45352146103f857610116565b8063804fcf13146102ba5780638ce211bc146102d65780638e8913931461030a578063961ecb5b1461033a57610116565b80633aff2cc5116100e95780633aff2cc5146101e85780633d746f0a1461021a57806360ccb204146102365780636704710714610252578063716b5ab41461028a57610116565b80630f53a4701461011b578063174ceeab146101535780632a631a5414610183578063390363fe146101b8575b600080fd5b6101356004803603810190610130919061353c565b610414565b60405161014a99989796959493929190613611565b60405180910390f35b61016d6004803603810190610168919061380b565b610ab3565b60405161017a9190613880565b60405180910390f35b61019d600480360381019061019891906138c7565b610bb1565b6040516101af969594939291906138f4565b60405180910390f35b6101d260048036038101906101cd9190613978565b610ec5565b6040516101df9190613880565b60405180910390f35b61020260048036038101906101fd91906138c7565b61100f565b60405161021193929190613a03565b60405180910390f35b610234600480360381019061022f9190613a41565b6110f1565b005b610250600480360381019061024b9190613b5a565b61131d565b005b61026c600480360381019061026791906138c7565b61143f565b60405161028199989796959493929190613611565b60405180910390f35b6102a4600480360381019061029f919061380b565b6118fd565b6040516102b19190613880565b60405180910390f35b6102d460048036038101906102cf9190613bc9565b6119fb565b005b6102f060048036038101906102eb919061353c565b611bb9565b604051610301959493929190613e7f565b60405180910390f35b610324600480360381019061031f919061353c565b61222b565b6040516103319190613880565b60405180910390f35b610354600480360381019061034f919061353c565b6122e8565b6040516103619190613880565b60405180910390f35b610384600480360381019061037f9190613b5a565b61239a565b005b6103a0600480360381019061039b919061353c565b612505565b6040516103ae929190613fb3565b60405180910390f35b6103d160048036038101906103cc9190613fea565b61276d565b005b6103db6129ab565b6040516103ef989796959493929190614222565b60405180910390f35b610412600480360381019061040d9190613a41565b6132d7565b005b600060608060608060608060608060005b600080549050811015610aa4578a73ffffffffffffffffffffffffffffffffffffffff166000828154811061045d5761045c6142d8565b5b906000526020600020906009020160000160009054906101000a900473ffffffffffffffffffffffffffffffffffffffff1673ffffffffffffffffffffffffffffffffffffffff161415610a9157600081815481106104bf576104be6142d8565b5b906000526020600020906009020160000160009054906101000a900473ffffffffffffffffffffffffffffffffffffffff1660008281548110610505576105046142d8565b5b90600052602060002090600902016001016000838154811061052a576105296142d8565b5b90600052602060002090600902016002016000848154811061054f5761054e6142d8565b5b906000526020600020906009020160030160008581548110610574576105736142d8565b5b906000526020600020906009020160040160008681548110610599576105986142d8565b5b9060005260206000209060090201600501600087815481106105be576105bd6142d8565b5b9060005260206000209060090201600601600088815481106105e3576105e26142d8565b5b906000526020600020906009020160070160008981548110610608576106076142d8565b5b906000526020600020906009020160080187805461062590614336565b80601f016020809104026020016040519081016040528092919081815260200182805461065190614336565b801561069e5780601f106106735761010080835404028352916020019161069e565b820191906000526020600020905b81548152906001019060200180831161068157829003601f168201915b505050505097508680546106b190614336565b80601f01602080910402602001604051908101604052809291908181526020018280546106dd90614336565b801561072a5780601f106106ff5761010080835404028352916020019161072a565b820191906000526020600020905b81548152906001019060200180831161070d57829003601f168201915b5050505050965085805461073d90614336565b80601f016020809104026020016040519081016040528092919081815260200182805461076990614336565b80156107b65780601f1061078b576101008083540402835291602001916107b6565b820191906000526020600020905b81548152906001019060200180831161079957829003601f168201915b505050505095508480546107c990614336565b80601f01602080910402602001604051908101604052809291908181526020018280546107f590614336565b80156108425780601f1061081757610100808354040283529160200191610842565b820191906000526020600020905b81548152906001019060200180831161082557829003601f168201915b5050505050945083805461085590614336565b80601f016020809104026020016040519081016040528092919081815260200182805461088190614336565b80156108ce5780601f106108a3576101008083540402835291602001916108ce565b820191906000526020600020905b8154815290600101906020018083116108b157829003601f168201915b505050505093508280546108e190614336565b80601f016020809104026020016040519081016040528092919081815260200182805461090d90614336565b801561095a5780601f1061092f5761010080835404028352916020019161095a565b820191906000526020600020905b81548152906001019060200180831161093d57829003601f168201915b5050505050925081805461096d90614336565b80601f016020809104026020016040519081016040528092919081815260200182805461099990614336565b80156109e65780601f106109bb576101008083540402835291602001916109e6565b820191906000526020600020905b8154815290600101906020018083116109c957829003601f168201915b505050505091508080546109f990614336565b80601f0160208091040260200160405190810160405280929190818152602001828054610a2590614336565b8015610a725780601f10610a4757610100808354040283529160200191610a72565b820191906000526020600020905b815481529060010190602001808311610a5557829003601f168201915b5050505050905099509950995099509950995099509950995050610aa6565b8080610a9c90614397565b915050610425565b505b9193959799909294969850565b600080600090505b600080549050811015610ba9578373ffffffffffffffffffffffffffffffffffffffff1660008281548110610af357610af26142d8565b5b906000526020600020906009020160000160009054906101000a900473ffffffffffffffffffffffffffffffffffffffff1673ffffffffffffffffffffffffffffffffffffffff16148015610b875750828051906020012060008281548110610b5f57610b5e6142d8565b5b9060005260206000209060090201600801604051610b7d919061447f565b6040518091039020145b15610b96576001915050610bab565b8080610ba190614397565b915050610abb565b505b92915050565b60028181548110610bc157600080fd5b90600052602060002090600602016000915090508060000160009054906101000a900473ffffffffffffffffffffffffffffffffffffffff1690806001018054610c0a90614336565b80601f0160208091040260200160405190810160405280929190818152602001828054610c3690614336565b8015610c835780601f10610c5857610100808354040283529160200191610c83565b820191906000526020600020905b815481529060010190602001808311610c6657829003601f168201915b505050505090806002018054610c9890614336565b80601f0160208091040260200160405190810160405280929190818152602001828054610cc490614336565b8015610d115780601f10610ce657610100808354040283529160200191610d11565b820191906000526020600020905b815481529060010190602001808311610cf457829003601f168201915b505050505090806003018054610d2690614336565b80601f0160208091040260200160405190810160405280929190818152602001828054610d5290614336565b8015610d9f5780601f10610d7457610100808354040283529160200191610d9f565b820191906000526020600020905b815481529060010190602001808311610d8257829003601f168201915b505050505090806004018054610db490614336565b80601f0160208091040260200160405190810160405280929190818152602001828054610de090614336565b8015610e2d5780601f10610e0257610100808354040283529160200191610e2d565b820191906000526020600020905b815481529060010190602001808311610e1057829003601f168201915b505050505090806005018054610e4290614336565b80601f0160208091040260200160405190810160405280929190818152602001828054610e6e90614336565b8015610ebb5780601f10610e9057610100808354040283529160200191610ebb565b820191906000526020600020905b815481529060010190602001808311610e9e57829003601f168201915b5050505050905086565b600080600090505b600280549050811015611006578473ffffffffffffffffffffffffffffffffffffffff1660028281548110610f0557610f046142d8565b5b906000526020600020906006020160000160009054906101000a900473ffffffffffffffffffffffffffffffffffffffff1673ffffffffffffffffffffffffffffffffffffffff16148015610f995750838051906020012060028281548110610f7157610f706142d8565b5b9060005260206000209060060201600101604051610f8f919061447f565b6040518091039020145b8015610fe45750828051906020012060028281548110610fbc57610fbb6142d8565b5b9060005260206000209060060201600201604051610fda919061447f565b6040518091039020145b15610ff3576001915050611008565b8080610ffe90614397565b915050610ecd565b505b9392505050565b6001818154811061101f57600080fd5b90600052602060002090600302016000915090508060000160009054906101000a900473ffffffffffffffffffffffffffffffffffffffff169080600101805461106890614336565b80601f016020809104026020016040519081016040528092919081815260200182805461109490614336565b80156110e15780601f106110b6576101008083540402835291602001916110e1565b820191906000526020600020905b8154815290600101906020018083116110c457829003601f168201915b5050505050908060020154905083565b60005b600280549050811015611314578673ffffffffffffffffffffffffffffffffffffffff166002828154811061112c5761112b6142d8565b5b906000526020600020906006020160000160009054906101000a900473ffffffffffffffffffffffffffffffffffffffff1673ffffffffffffffffffffffffffffffffffffffff16141561130157866002828154811061118f5761118e6142d8565b5b906000526020600020906006020160000160006101000a81548173ffffffffffffffffffffffffffffffffffffffff021916908373ffffffffffffffffffffffffffffffffffffffff16021790555085600282815481106111f3576111f26142d8565b5b90600052602060002090600602016001019080519060200190611217929190613427565b50846002828154811061122d5761122c6142d8565b5b90600052602060002090600602016002019080519060200190611251929190613427565b508360028281548110611267576112666142d8565b5b9060005260206000209060060201600301908051906020019061128b929190613427565b5082600282815481106112a1576112a06142d8565b5b906000526020600020906006020160040190805190602001906112c5929190613427565b5081600282815481106112db576112da6142d8565b5b906000526020600020906006020160050190805190602001906112ff929190613427565b505b808061130c90614397565b9150506110f4565b50505050505050565b6000811015801561132f575060648111155b61136e576040517f08c379a0000000000000000000000000000000000000000000000000000000008152600401611365906144e2565b60405180910390fd5b600160405180606001604052808573ffffffffffffffffffffffffffffffffffffffff16815260200184815260200183815250908060018154018082558091505060019003906000526020600020906003020160009091909190915060008201518160000160006101000a81548173ffffffffffffffffffffffffffffffffffffffff021916908373ffffffffffffffffffffffffffffffffffffffff160217905550602082015181600101908051906020019061142d929190613427565b50604082015181600201555050505050565b6000818154811061144f57600080fd5b90600052602060002090600902016000915090508060000160009054906101000a900473ffffffffffffffffffffffffffffffffffffffff169080600101805461149890614336565b80601f01602080910402602001604051908101604052809291908181526020018280546114c490614336565b80156115115780601f106114e657610100808354040283529160200191611511565b820191906000526020600020905b8154815290600101906020018083116114f457829003601f168201915b50505050509080600201805461152690614336565b80601f016020809104026020016040519081016040528092919081815260200182805461155290614336565b801561159f5780601f106115745761010080835404028352916020019161159f565b820191906000526020600020905b81548152906001019060200180831161158257829003601f168201915b5050505050908060030180546115b490614336565b80601f01602080910402602001604051908101604052809291908181526020018280546115e090614336565b801561162d5780601f106116025761010080835404028352916020019161162d565b820191906000526020600020905b81548152906001019060200180831161161057829003601f168201915b50505050509080600401805461164290614336565b80601f016020809104026020016040519081016040528092919081815260200182805461166e90614336565b80156116bb5780601f10611690576101008083540402835291602001916116bb565b820191906000526020600020905b81548152906001019060200180831161169e57829003601f168201915b5050505050908060050180546116d090614336565b80601f01602080910402602001604051908101604052809291908181526020018280546116fc90614336565b80156117495780601f1061171e57610100808354040283529160200191611749565b820191906000526020600020905b81548152906001019060200180831161172c57829003601f168201915b50505050509080600601805461175e90614336565b80601f016020809104026020016040519081016040528092919081815260200182805461178a90614336565b80156117d75780601f106117ac576101008083540402835291602001916117d7565b820191906000526020600020905b8154815290600101906020018083116117ba57829003601f168201915b5050505050908060070180546117ec90614336565b80601f016020809104026020016040519081016040528092919081815260200182805461181890614336565b80156118655780601f1061183a57610100808354040283529160200191611865565b820191906000526020600020905b81548152906001019060200180831161184857829003601f168201915b50505050509080600801805461187a90614336565b80601f01602080910402602001604051908101604052809291908181526020018280546118a690614336565b80156118f35780601f106118c8576101008083540402835291602001916118f3565b820191906000526020600020905b8154815290600101906020018083116118d657829003601f168201915b5050505050905089565b600080600090505b6001805490508110156119f3578373ffffffffffffffffffffffffffffffffffffffff166001828154811061193d5761193c6142d8565b5b906000526020600020906003020160000160009054906101000a900473ffffffffffffffffffffffffffffffffffffffff1673ffffffffffffffffffffffffffffffffffffffff161480156119d157508280519060200120600182815481106119a9576119a86142d8565b5b90600052602060002090600302016001016040516119c7919061447f565b6040518091039020145b156119e05760019150506119f5565b80806119eb90614397565b915050611905565b505b92915050565b60006040518061012001604052808b73ffffffffffffffffffffffffffffffffffffffff1681526020018a815260200189815260200188815260200187815260200186815260200185815260200184815260200183815250908060018154018082558091505060019003906000526020600020906009020160009091909190915060008201518160000160006101000a81548173ffffffffffffffffffffffffffffffffffffffff021916908373ffffffffffffffffffffffffffffffffffffffff1602179055506020820151816001019080519060200190611adf929190613427565b506040820151816002019080519060200190611afc929190613427565b506060820151816003019080519060200190611b19929190613427565b506080820151816004019080519060200190611b36929190613427565b5060a0820151816005019080519060200190611b53929190613427565b5060c0820151816006019080519060200190611b70929190613427565b5060e0820151816007019080519060200190611b8d929190613427565b50610100820151816008019080519060200190611bab929190613427565b505050505050505050505050565b6060806060806060600060028054905067ffffffffffffffff811115611be257611be16136e0565b5b604051908082528060200260200182016040528015611c1557816020015b6060815260200190600190039081611c005790505b509050600060028054905067ffffffffffffffff811115611c3957611c386136e0565b5b604051908082528060200260200182016040528015611c6c57816020015b6060815260200190600190039081611c575790505b509050600060028054905067ffffffffffffffff811115611c9057611c8f6136e0565b5b604051908082528060200260200182016040528015611cc357816020015b6060815260200190600190039081611cae5790505b509050600060028054905067ffffffffffffffff811115611ce757611ce66136e0565b5b604051908082528060200260200182016040528015611d1a57816020015b6060815260200190600190039081611d055790505b509050600060028054905067ffffffffffffffff811115611d3e57611d3d6136e0565b5b604051908082528060200260200182016040528015611d7157816020015b6060815260200190600190039081611d5c5790505b50905060005b60028054905081101561220d578b73ffffffffffffffffffffffffffffffffffffffff1660028281548110611daf57611dae6142d8565b5b906000526020600020906006020160000160009054906101000a900473ffffffffffffffffffffffffffffffffffffffff1673ffffffffffffffffffffffffffffffffffffffff1614156121fa5760028181548110611e1157611e106142d8565b5b90600052602060002090600602016001018054611e2d90614336565b80601f0160208091040260200160405190810160405280929190818152602001828054611e5990614336565b8015611ea65780601f10611e7b57610100808354040283529160200191611ea6565b820191906000526020600020905b815481529060010190602001808311611e8957829003601f168201915b5050505050868281518110611ebe57611ebd6142d8565b5b602002602001018190525060028181548110611edd57611edc6142d8565b5b90600052602060002090600602016002018054611ef990614336565b80601f0160208091040260200160405190810160405280929190818152602001828054611f2590614336565b8015611f725780601f10611f4757610100808354040283529160200191611f72565b820191906000526020600020905b815481529060010190602001808311611f5557829003601f168201915b5050505050858281518110611f8a57611f896142d8565b5b602002602001018190525060028181548110611fa957611fa86142d8565b5b90600052602060002090600602016003018054611fc590614336565b80601f0160208091040260200160405190810160405280929190818152602001828054611ff190614336565b801561203e5780601f106120135761010080835404028352916020019161203e565b820191906000526020600020905b81548152906001019060200180831161202157829003601f168201915b5050505050848281518110612056576120556142d8565b5b602002602001018190525060028181548110612075576120746142d8565b5b9060005260206000209060060201600401805461209190614336565b80601f01602080910402602001604051908101604052809291908181526020018280546120bd90614336565b801561210a5780601f106120df5761010080835404028352916020019161210a565b820191906000526020600020905b8154815290600101906020018083116120ed57829003601f168201915b5050505050838281518110612122576121216142d8565b5b602002602001018190525060028181548110612141576121406142d8565b5b9060005260206000209060060201600501805461215d90614336565b80601f016020809104026020016040519081016040528092919081815260200182805461218990614336565b80156121d65780601f106121ab576101008083540402835291602001916121d6565b820191906000526020600020905b8154815290600101906020018083116121b957829003601f168201915b50505050508282815181106121ee576121ed6142d8565b5b60200260200101819052505b808061220590614397565b915050611d77565b50848484848499509950995099509950505050505091939590929450565b6000806000905060005b6001805490508110156122de578373ffffffffffffffffffffffffffffffffffffffff166001828154811061226d5761226c6142d8565b5b906000526020600020906003020160000160009054906101000a900473ffffffffffffffffffffffffffffffffffffffff1673ffffffffffffffffffffffffffffffffffffffff1614156122cb576001826122c89190614502565b91505b80806122d690614397565b915050612235565b5080915050919050565b600080600090505b600080549050811015612393578273ffffffffffffffffffffffffffffffffffffffff1660008281548110612328576123276142d8565b5b906000526020600020906009020160000160009054906101000a900473ffffffffffffffffffffffffffffffffffffffff1673ffffffffffffffffffffffffffffffffffffffff161415612380576001915050612395565b808061238b90614397565b9150506122f0565b505b919050565b60005b6001805490508110156124ff578373ffffffffffffffffffffffffffffffffffffffff16600182815481106123d5576123d46142d8565b5b906000526020600020906003020160000160009054906101000a900473ffffffffffffffffffffffffffffffffffffffff1673ffffffffffffffffffffffffffffffffffffffff1614156124ec578360018281548110612438576124376142d8565b5b906000526020600020906003020160000160006101000a81548173ffffffffffffffffffffffffffffffffffffffff021916908373ffffffffffffffffffffffffffffffffffffffff160217905550826001828154811061249c5761249b6142d8565b5b906000526020600020906003020160010190805190602001906124c0929190613427565b5081600182815481106124d6576124d56142d8565b5b9060005260206000209060030201600201819055505b80806124f790614397565b91505061239d565b50505050565b606080600060018054905067ffffffffffffffff811115612529576125286136e0565b5b60405190808252806020026020018201604052801561255c57816020015b60608152602001906001900390816125475790505b509050600060018054905067ffffffffffffffff8111156125805761257f6136e0565b5b6040519080825280602002602001820160405280156125ae5781602001602082028036833780820191505090505b50905060005b60018054905081101561275f578573ffffffffffffffffffffffffffffffffffffffff16600182815481106125ec576125eb6142d8565b5b906000526020600020906003020160000160009054906101000a900473ffffffffffffffffffffffffffffffffffffffff1673ffffffffffffffffffffffffffffffffffffffff16141561274c576001818154811061264e5761264d6142d8565b5b9060005260206000209060030201600101805461266a90614336565b80601f016020809104026020016040519081016040528092919081815260200182805461269690614336565b80156126e35780601f106126b8576101008083540402835291602001916126e3565b820191906000526020600020905b8154815290600101906020018083116126c657829003601f168201915b50505050508382815181106126fb576126fa6142d8565b5b60200260200101819052506001818154811061271a576127196142d8565b5b90600052602060002090600302016002015482828151811061273f5761273e6142d8565b5b6020026020010181815250505b808061275790614397565b9150506125b4565b508181935093505050915091565b60005b6000805490508110156129a0578873ffffffffffffffffffffffffffffffffffffffff16600082815481106127a8576127a76142d8565b5b906000526020600020906009020160000160009054906101000a900473ffffffffffffffffffffffffffffffffffffffff1673ffffffffffffffffffffffffffffffffffffffff16141561298d57876000828154811061280b5761280a6142d8565b5b9060005260206000209060090201600101908051906020019061282f929190613427565b508660008281548110612845576128446142d8565b5b90600052602060002090600902016002019080519060200190612869929190613427565b50856000828154811061287f5761287e6142d8565b5b906000526020600020906009020160030190805190602001906128a3929190613427565b5084600082815481106128b9576128b86142d8565b5b906000526020600020906009020160040190805190602001906128dd929190613427565b5083600082815481106128f3576128f26142d8565b5b90600052602060002090600902016005019080519060200190612917929190613427565b50826000828154811061292d5761292c6142d8565b5b90600052602060002090600902016006019080519060200190612951929190613427565b508160008281548110612967576129666142d8565b5b9060005260206000209060090201600701908051906020019061298b929190613427565b505b808061299890614397565b915050612770565b505050505050505050565b6060806060806060806060806000808054905067ffffffffffffffff8111156129d7576129d66136e0565b5b604051908082528060200260200182016040528015612a055781602001602082028036833780820191505090505b5090506000808054905067ffffffffffffffff811115612a2857612a276136e0565b5b604051908082528060200260200182016040528015612a5b57816020015b6060815260200190600190039081612a465790505b5090506000808054905067ffffffffffffffff811115612a7e57612a7d6136e0565b5b604051908082528060200260200182016040528015612ab157816020015b6060815260200190600190039081612a9c5790505b5090506000808054905067ffffffffffffffff811115612ad457612ad36136e0565b5b604051908082528060200260200182016040528015612b0757816020015b6060815260200190600190039081612af25790505b5090506000808054905067ffffffffffffffff811115612b2a57612b296136e0565b5b604051908082528060200260200182016040528015612b5d57816020015b6060815260200190600190039081612b485790505b5090506000808054905067ffffffffffffffff811115612b8057612b7f6136e0565b5b604051908082528060200260200182016040528015612bb357816020015b6060815260200190600190039081612b9e5790505b5090506000808054905067ffffffffffffffff811115612bd657612bd56136e0565b5b604051908082528060200260200182016040528015612c0957816020015b6060815260200190600190039081612bf45790505b5090506000808054905067ffffffffffffffff811115612c2c57612c2b6136e0565b5b604051908082528060200260200182016040528015612c5f57816020015b6060815260200190600190039081612c4a5790505b50905060005b6000805490508110156132ac5760008181548110612c8657612c856142d8565b5b906000526020600020906009020160000160009054906101000a900473ffffffffffffffffffffffffffffffffffffffff16898281518110612ccb57612cca6142d8565b5b602002602001019073ffffffffffffffffffffffffffffffffffffffff16908173ffffffffffffffffffffffffffffffffffffffff168152505060008181548110612d1957612d186142d8565b5b90600052602060002090600902016001018054612d3590614336565b80601f0160208091040260200160405190810160405280929190818152602001828054612d6190614336565b8015612dae5780601f10612d8357610100808354040283529160200191612dae565b820191906000526020600020905b815481529060010190602001808311612d9157829003601f168201915b5050505050888281518110612dc657612dc56142d8565b5b602002602001018190525060008181548110612de557612de46142d8565b5b90600052602060002090600902016002018054612e0190614336565b80601f0160208091040260200160405190810160405280929190818152602001828054612e2d90614336565b8015612e7a5780601f10612e4f57610100808354040283529160200191612e7a565b820191906000526020600020905b815481529060010190602001808311612e5d57829003601f168201915b5050505050878281518110612e9257612e916142d8565b5b602002602001018190525060008181548110612eb157612eb06142d8565b5b90600052602060002090600902016003018054612ecd90614336565b80601f0160208091040260200160405190810160405280929190818152602001828054612ef990614336565b8015612f465780601f10612f1b57610100808354040283529160200191612f46565b820191906000526020600020905b815481529060010190602001808311612f2957829003601f168201915b5050505050868281518110612f5e57612f5d6142d8565b5b602002602001018190525060008181548110612f7d57612f7c6142d8565b5b90600052602060002090600902016004018054612f9990614336565b80601f0160208091040260200160405190810160405280929190818152602001828054612fc590614336565b80156130125780601f10612fe757610100808354040283529160200191613012565b820191906000526020600020905b815481529060010190602001808311612ff557829003601f168201915b505050505085828151811061302a576130296142d8565b5b602002602001018190525060008181548110613049576130486142d8565b5b9060005260206000209060090201600501805461306590614336565b80601f016020809104026020016040519081016040528092919081815260200182805461309190614336565b80156130de5780601f106130b3576101008083540402835291602001916130de565b820191906000526020600020905b8154815290600101906020018083116130c157829003601f168201915b50505050508482815181106130f6576130f56142d8565b5b602002602001018190525060008181548110613115576131146142d8565b5b9060005260206000209060090201600601805461313190614336565b80601f016020809104026020016040519081016040528092919081815260200182805461315d90614336565b80156131aa5780601f1061317f576101008083540402835291602001916131aa565b820191906000526020600020905b81548152906001019060200180831161318d57829003601f168201915b50505050508382815181106131c2576131c16142d8565b5b6020026020010181905250600081815481106131e1576131e06142d8565b5b906000526020600020906009020160070180546131fd90614336565b80601f016020809104026020016040519081016040528092919081815260200182805461322990614336565b80156132765780601f1061324b57610100808354040283529160200191613276565b820191906000526020600020905b81548152906001019060200180831161325957829003601f168201915b505050505082828151811061328e5761328d6142d8565b5b602002602001018190525080806132a490614397565b915050612c65565b5087878787878787879f509f509f509f509f509f509f509f5050505050505050509091929394959697565b60026040518060c001604052808873ffffffffffffffffffffffffffffffffffffffff16815260200187815260200186815260200185815260200184815260200183815250908060018154018082558091505060019003906000526020600020906006020160009091909190915060008201518160000160006101000a81548173ffffffffffffffffffffffffffffffffffffffff021916908373ffffffffffffffffffffffffffffffffffffffff16021790555060208201518160010190805190602001906133a8929190613427565b5060408201518160020190805190602001906133c5929190613427565b5060608201518160030190805190602001906133e2929190613427565b5060808201518160040190805190602001906133ff929190613427565b5060a082015181600501908051906020019061341c929190613427565b505050505050505050565b82805461343390614336565b90600052602060002090601f016020900481019282613455576000855561349c565b82601f1061346e57805160ff191683800117855561349c565b8280016001018555821561349c579182015b8281111561349b578251825591602001919060010190613480565b5b5090506134a991906134ad565b5090565b5b808211156134c65760008160009055506001016134ae565b5090565b6000604051905090565b600080fd5b600080fd5b600073ffffffffffffffffffffffffffffffffffffffff82169050919050565b6000613509826134de565b9050919050565b613519816134fe565b811461352457600080fd5b50565b60008135905061353681613510565b92915050565b600060208284031215613552576135516134d4565b5b600061356084828501613527565b91505092915050565b613572816134fe565b82525050565b600081519050919050565b600082825260208201905092915050565b60005b838110156135b2578082015181840152602081019050613597565b838111156135c1576000848401525b50505050565b6000601f19601f8301169050919050565b60006135e382613578565b6135ed8185613583565b93506135fd818560208601613594565b613606816135c7565b840191505092915050565b600061012082019050613627600083018c613569565b8181036020830152613639818b6135d8565b9050818103604083015261364d818a6135d8565b9050818103606083015261366181896135d8565b9050818103608083015261367581886135d8565b905081810360a083015261368981876135d8565b905081810360c083015261369d81866135d8565b905081810360e08301526136b181856135d8565b90508181036101008301526136c681846135d8565b90509a9950505050505050505050565b600080fd5b600080fd5b7f4e487b7100000000000000000000000000000000000000000000000000000000600052604160045260246000fd5b613718826135c7565b810181811067ffffffffffffffff82111715613737576137366136e0565b5b80604052505050565b600061374a6134ca565b9050613756828261370f565b919050565b600067ffffffffffffffff821115613776576137756136e0565b5b61377f826135c7565b9050602081019050919050565b82818337600083830152505050565b60006137ae6137a98461375b565b613740565b9050828152602081018484840111156137ca576137c96136db565b5b6137d584828561378c565b509392505050565b600082601f8301126137f2576137f16136d6565b5b813561380284826020860161379b565b91505092915050565b60008060408385031215613822576138216134d4565b5b600061383085828601613527565b925050602083013567ffffffffffffffff811115613851576138506134d9565b5b61385d858286016137dd565b9150509250929050565b6000819050919050565b61387a81613867565b82525050565b60006020820190506138956000830184613871565b92915050565b6138a481613867565b81146138af57600080fd5b50565b6000813590506138c18161389b565b92915050565b6000602082840312156138dd576138dc6134d4565b5b60006138eb848285016138b2565b91505092915050565b600060c0820190506139096000830189613569565b818103602083015261391b81886135d8565b9050818103604083015261392f81876135d8565b9050818103606083015261394381866135d8565b9050818103608083015261395781856135d8565b905081810360a083015261396b81846135d8565b9050979650505050505050565b600080600060608486031215613991576139906134d4565b5b600061399f86828701613527565b935050602084013567ffffffffffffffff8111156139c0576139bf6134d9565b5b6139cc868287016137dd565b925050604084013567ffffffffffffffff8111156139ed576139ec6134d9565b5b6139f9868287016137dd565b9150509250925092565b6000606082019050613a186000830186613569565b8181036020830152613a2a81856135d8565b9050613a396040830184613871565b949350505050565b60008060008060008060c08789031215613a5e57613a5d6134d4565b5b6000613a6c89828a01613527565b965050602087013567ffffffffffffffff811115613a8d57613a8c6134d9565b5b613a9989828a016137dd565b955050604087013567ffffffffffffffff811115613aba57613ab96134d9565b5b613ac689828a016137dd565b945050606087013567ffffffffffffffff811115613ae757613ae66134d9565b5b613af389828a016137dd565b935050608087013567ffffffffffffffff811115613b1457613b136134d9565b5b613b2089828a016137dd565b92505060a087013567ffffffffffffffff811115613b4157613b406134d9565b5b613b4d89828a016137dd565b9150509295509295509295565b600080600060608486031215613b7357613b726134d4565b5b6000613b8186828701613527565b935050602084013567ffffffffffffffff811115613ba257613ba16134d9565b5b613bae868287016137dd565b9250506040613bbf868287016138b2565b9150509250925092565b60008060008060008060008060006101208a8c031215613bec57613beb6134d4565b5b6000613bfa8c828d01613527565b99505060208a013567ffffffffffffffff811115613c1b57613c1a6134d9565b5b613c278c828d016137dd565b98505060408a013567ffffffffffffffff811115613c4857613c476134d9565b5b613c548c828d016137dd565b97505060608a013567ffffffffffffffff811115613c7557613c746134d9565b5b613c818c828d016137dd565b96505060808a013567ffffffffffffffff811115613ca257613ca16134d9565b5b613cae8c828d016137dd565b95505060a08a013567ffffffffffffffff811115613ccf57613cce6134d9565b5b613cdb8c828d016137dd565b94505060c08a013567ffffffffffffffff811115613cfc57613cfb6134d9565b5b613d088c828d016137dd565b93505060e08a013567ffffffffffffffff811115613d2957613d286134d9565b5b613d358c828d016137dd565b9250506101008a013567ffffffffffffffff811115613d5757613d566134d9565b5b613d638c828d016137dd565b9150509295985092959850929598565b600081519050919050565b600082825260208201905092915050565b6000819050602082019050919050565b600082825260208201905092915050565b6000613dbb82613578565b613dc58185613d9f565b9350613dd5818560208601613594565b613dde816135c7565b840191505092915050565b6000613df58383613db0565b905092915050565b6000602082019050919050565b6000613e1582613d73565b613e1f8185613d7e565b935083602082028501613e3185613d8f565b8060005b85811015613e6d5784840389528151613e4e8582613de9565b9450613e5983613dfd565b925060208a01995050600181019050613e35565b50829750879550505050505092915050565b600060a0820190508181036000830152613e998188613e0a565b90508181036020830152613ead8187613e0a565b90508181036040830152613ec18186613e0a565b90508181036060830152613ed58185613e0a565b90508181036080830152613ee98184613e0a565b90509695505050505050565b600081519050919050565b600082825260208201905092915050565b6000819050602082019050919050565b613f2a81613867565b82525050565b6000613f3c8383613f21565b60208301905092915050565b6000602082019050919050565b6000613f6082613ef5565b613f6a8185613f00565b9350613f7583613f11565b8060005b83811015613fa6578151613f8d8882613f30565b9750613f9883613f48565b925050600181019050613f79565b5085935050505092915050565b60006040820190508181036000830152613fcd8185613e0a565b90508181036020830152613fe18184613f55565b90509392505050565b600080600080600080600080610100898b03121561400b5761400a6134d4565b5b60006140198b828c01613527565b985050602089013567ffffffffffffffff81111561403a576140396134d9565b5b6140468b828c016137dd565b975050604089013567ffffffffffffffff811115614067576140666134d9565b5b6140738b828c016137dd565b965050606089013567ffffffffffffffff811115614094576140936134d9565b5b6140a08b828c016137dd565b955050608089013567ffffffffffffffff8111156140c1576140c06134d9565b5b6140cd8b828c016137dd565b94505060a089013567ffffffffffffffff8111156140ee576140ed6134d9565b5b6140fa8b828c016137dd565b93505060c089013567ffffffffffffffff81111561411b5761411a6134d9565b5b6141278b828c016137dd565b92505060e089013567ffffffffffffffff811115614148576141476134d9565b5b6141548b828c016137dd565b9150509295985092959890939650565b600081519050919050565b600082825260208201905092915050565b6000819050602082019050919050565b614199816134fe565b82525050565b60006141ab8383614190565b60208301905092915050565b6000602082019050919050565b60006141cf82614164565b6141d9818561416f565b93506141e483614180565b8060005b838110156142155781516141fc888261419f565b9750614207836141b7565b9250506001810190506141e8565b5085935050505092915050565b600061010082019050818103600083015261423d818b6141c4565b90508181036020830152614251818a613e0a565b905081810360408301526142658189613e0a565b905081810360608301526142798188613e0a565b9050818103608083015261428d8187613e0a565b905081810360a08301526142a18186613e0a565b905081810360c08301526142b58185613e0a565b905081810360e08301526142c98184613e0a565b90509998505050505050505050565b7f4e487b7100000000000000000000000000000000000000000000000000000000600052603260045260246000fd5b7f4e487b7100000000000000000000000000000000000000000000000000000000600052602260045260246000fd5b6000600282049050600182168061434e57607f821691505b6020821081141561436257614361614307565b5b50919050565b7f4e487b7100000000000000000000000000000000000000000000000000000000600052601160045260246000fd5b60006143a282613867565b91507fffffffffffffffffffffffffffffffffffffffffffffffffffffffffffffffff8214156143d5576143d4614368565b5b600182019050919050565b600081905092915050565b60008190508160005260206000209050919050565b6000815461440d81614336565b61441781866143e0565b94506001821660008114614432576001811461444357614476565b60ff19831686528186019350614476565b61444c856143eb565b60005b8381101561446e5781548189015260018201915060208101905061444f565b838801955050505b50505092915050565b600061448b8284614400565b915081905092915050565b7f4c6576656c206f6620736b696c6c20696e636f72726563742e00000000000000600082015250565b60006144cc601983613583565b91506144d782614496565b602082019050919050565b600060208201905081810360008301526144fb816144bf565b9050919050565b600061450d82613867565b915061451883613867565b9250827fffffffffffffffffffffffffffffffffffffffffffffffffffffffffffffffff0382111561454d5761454c614368565b5b82820190509291505056fea2646970667358221220364325b3b0a3cecf6eee645b6ba8e2a799e5c7bdfb4a9015bb10015ae686faec64736f6c634300080b0033608060405234801561001057600080fd5b50612610806100206000396000f3fe608060405234801561001057600080fd5b506004361061007d5760003560e01c8063bf44b3031161005b578063bf44b30314610104578063c6fe410a1461013b578063cfafbc0c1461016b578063e045b710146101905761007d565b80630f53a4701461008257806323b6d993146100b8578063a7dba184146100d4575b600080fd5b61009c60048036038101906100979190611a9d565b6101ac565b6040516100af9796959493929190611b72565b60405180910390f35b6100d260048036038101906100cd9190611d40565b6106e0565b005b6100ee60048036038101906100e99190611e8a565b6108e3565b6040516100fb9190611eff565b60405180910390f35b61011e60048036038101906101199190611f46565b6109e1565b604051610132989796959493929190611f73565b60405180910390f35b61015560048036038101906101509190611a9d565b610e11565b6040516101629190611eff565b60405180910390f35b610173610ec3565b6040516101879897969594939291906121ec565b60405180910390f35b6101aa60048036038101906101a591906122a2565b6117ef565b005b600060608060608060608060005b6000805490508110156106d3578873ffffffffffffffffffffffffffffffffffffffff16600082815481106101f2576101f161241c565b5b906000526020600020906008020160000160009054906101000a900473ffffffffffffffffffffffffffffffffffffffff1673ffffffffffffffffffffffffffffffffffffffff1614156106c057600081815481106102545761025361241c565b5b906000526020600020906008020160000160009054906101000a900473ffffffffffffffffffffffffffffffffffffffff166000828154811061029a5761029961241c565b5b9060005260206000209060080201600101600083815481106102bf576102be61241c565b5b9060005260206000209060080201600201600084815481106102e4576102e361241c565b5b9060005260206000209060080201600301600085815481106103095761030861241c565b5b90600052602060002090600802016004016000868154811061032e5761032d61241c565b5b9060005260206000209060080201600501600087815481106103535761035261241c565b5b90600052602060002090600802016006018580546103709061247a565b80601f016020809104026020016040519081016040528092919081815260200182805461039c9061247a565b80156103e95780601f106103be576101008083540402835291602001916103e9565b820191906000526020600020905b8154815290600101906020018083116103cc57829003601f168201915b505050505095508480546103fc9061247a565b80601f01602080910402602001604051908101604052809291908181526020018280546104289061247a565b80156104755780601f1061044a57610100808354040283529160200191610475565b820191906000526020600020905b81548152906001019060200180831161045857829003601f168201915b505050505094508380546104889061247a565b80601f01602080910402602001604051908101604052809291908181526020018280546104b49061247a565b80156105015780601f106104d657610100808354040283529160200191610501565b820191906000526020600020905b8154815290600101906020018083116104e457829003601f168201915b505050505093508280546105149061247a565b80601f01602080910402602001604051908101604052809291908181526020018280546105409061247a565b801561058d5780601f106105625761010080835404028352916020019161058d565b820191906000526020600020905b81548152906001019060200180831161057057829003601f168201915b505050505092508180546105a09061247a565b80601f01602080910402602001604051908101604052809291908181526020018280546105cc9061247a565b80156106195780601f106105ee57610100808354040283529160200191610619565b820191906000526020600020905b8154815290600101906020018083116105fc57829003601f168201915b5050505050915080805461062c9061247a565b80601f01602080910402602001604051908101604052809291908181526020018280546106589061247a565b80156106a55780601f1061067a576101008083540402835291602001916106a5565b820191906000526020600020905b81548152906001019060200180831161068857829003601f168201915b505050505090509750975097509750975097509750506106d5565b80806106cb906124db565b9150506101ba565b505b919395979092949650565b60005b6000805490508110156108d9578773ffffffffffffffffffffffffffffffffffffffff166000828154811061071b5761071a61241c565b5b906000526020600020906008020160000160009054906101000a900473ffffffffffffffffffffffffffffffffffffffff1673ffffffffffffffffffffffffffffffffffffffff1614156108c657866000828154811061077e5761077d61241c565b5b906000526020600020906008020160010190805190602001906107a2929190611988565b5085600082815481106107b8576107b761241c565b5b906000526020600020906008020160020190805190602001906107dc929190611988565b5084600082815481106107f2576107f161241c565b5b90600052602060002090600802016003019080519060200190610816929190611988565b50836000828154811061082c5761082b61241c565b5b90600052602060002090600802016004019080519060200190610850929190611988565b5082600082815481106108665761086561241c565b5b9060005260206000209060080201600501908051906020019061088a929190611988565b5081600082815481106108a05761089f61241c565b5b906000526020600020906008020160060190805190602001906108c4929190611988565b505b80806108d1906124db565b9150506106e3565b5050505050505050565b600080600090505b6000805490508110156109d9578373ffffffffffffffffffffffffffffffffffffffff16600082815481106109235761092261241c565b5b906000526020600020906008020160000160009054906101000a900473ffffffffffffffffffffffffffffffffffffffff1673ffffffffffffffffffffffffffffffffffffffff161480156109b7575082805190602001206000828154811061098f5761098e61241c565b5b90600052602060002090600802016007016040516109ad91906125c3565b6040518091039020145b156109c65760019150506109db565b80806109d1906124db565b9150506108eb565b505b92915050565b600081815481106109f157600080fd5b90600052602060002090600802016000915090508060000160009054906101000a900473ffffffffffffffffffffffffffffffffffffffff1690806001018054610a3a9061247a565b80601f0160208091040260200160405190810160405280929190818152602001828054610a669061247a565b8015610ab35780601f10610a8857610100808354040283529160200191610ab3565b820191906000526020600020905b815481529060010190602001808311610a9657829003601f168201915b505050505090806002018054610ac89061247a565b80601f0160208091040260200160405190810160405280929190818152602001828054610af49061247a565b8015610b415780601f10610b1657610100808354040283529160200191610b41565b820191906000526020600020905b815481529060010190602001808311610b2457829003601f168201915b505050505090806003018054610b569061247a565b80601f0160208091040260200160405190810160405280929190818152602001828054610b829061247a565b8015610bcf5780601f10610ba457610100808354040283529160200191610bcf565b820191906000526020600020905b815481529060010190602001808311610bb257829003601f168201915b505050505090806004018054610be49061247a565b80601f0160208091040260200160405190810160405280929190818152602001828054610c109061247a565b8015610c5d5780601f10610c3257610100808354040283529160200191610c5d565b820191906000526020600020905b815481529060010190602001808311610c4057829003601f168201915b505050505090806005018054610c729061247a565b80601f0160208091040260200160405190810160405280929190818152602001828054610c9e9061247a565b8015610ceb5780601f10610cc057610100808354040283529160200191610ceb565b820191906000526020600020905b815481529060010190602001808311610cce57829003601f168201915b505050505090806006018054610d009061247a565b80601f0160208091040260200160405190810160405280929190818152602001828054610d2c9061247a565b8015610d795780601f10610d4e57610100808354040283529160200191610d79565b820191906000526020600020905b815481529060010190602001808311610d5c57829003601f168201915b505050505090806007018054610d8e9061247a565b80601f0160208091040260200160405190810160405280929190818152602001828054610dba9061247a565b8015610e075780601f10610ddc57610100808354040283529160200191610e07565b820191906000526020600020905b815481529060010190602001808311610dea57829003601f168201915b5050505050905088565b600080600090505b600080549050811015610ebc578273ffffffffffffffffffffffffffffffffffffffff1660008281548110610e5157610e5061241c565b5b906000526020600020906008020160000160009054906101000a900473ffffffffffffffffffffffffffffffffffffffff1673ffffffffffffffffffffffffffffffffffffffff161415610ea9576001915050610ebe565b8080610eb4906124db565b915050610e19565b505b919050565b6060806060806060806060806000808054905067ffffffffffffffff811115610eef57610eee611c15565b5b604051908082528060200260200182016040528015610f1d5781602001602082028036833780820191505090505b5090506000808054905067ffffffffffffffff811115610f4057610f3f611c15565b5b604051908082528060200260200182016040528015610f7357816020015b6060815260200190600190039081610f5e5790505b5090506000808054905067ffffffffffffffff811115610f9657610f95611c15565b5b604051908082528060200260200182016040528015610fc957816020015b6060815260200190600190039081610fb45790505b5090506000808054905067ffffffffffffffff811115610fec57610feb611c15565b5b60405190808252806020026020018201604052801561101f57816020015b606081526020019060019003908161100a5790505b5090506000808054905067ffffffffffffffff81111561104257611041611c15565b5b60405190808252806020026020018201604052801561107557816020015b60608152602001906001900390816110605790505b5090506000808054905067ffffffffffffffff81111561109857611097611c15565b5b6040519080825280602002602001820160405280156110cb57816020015b60608152602001906001900390816110b65790505b5090506000808054905067ffffffffffffffff8111156110ee576110ed611c15565b5b60405190808252806020026020018201604052801561112157816020015b606081526020019060019003908161110c5790505b5090506000808054905067ffffffffffffffff81111561114457611143611c15565b5b60405190808252806020026020018201604052801561117757816020015b60608152602001906001900390816111625790505b50905060005b6000805490508110156117c4576000818154811061119e5761119d61241c565b5b906000526020600020906008020160000160009054906101000a900473ffffffffffffffffffffffffffffffffffffffff168982815181106111e3576111e261241c565b5b602002602001019073ffffffffffffffffffffffffffffffffffffffff16908173ffffffffffffffffffffffffffffffffffffffff1681525050600081815481106112315761123061241c565b5b9060005260206000209060080201600101805461124d9061247a565b80601f01602080910402602001604051908101604052809291908181526020018280546112799061247a565b80156112c65780601f1061129b576101008083540402835291602001916112c6565b820191906000526020600020905b8154815290600101906020018083116112a957829003601f168201915b50505050508882815181106112de576112dd61241c565b5b6020026020010181905250600081815481106112fd576112fc61241c565b5b906000526020600020906008020160020180546113199061247a565b80601f01602080910402602001604051908101604052809291908181526020018280546113459061247a565b80156113925780601f1061136757610100808354040283529160200191611392565b820191906000526020600020905b81548152906001019060200180831161137557829003601f168201915b50505050508782815181106113aa576113a961241c565b5b6020026020010181905250600081815481106113c9576113c861241c565b5b906000526020600020906008020160030180546113e59061247a565b80601f01602080910402602001604051908101604052809291908181526020018280546114119061247a565b801561145e5780601f106114335761010080835404028352916020019161145e565b820191906000526020600020905b81548152906001019060200180831161144157829003601f168201915b50505050508682815181106114765761147561241c565b5b6020026020010181905250600081815481106114955761149461241c565b5b906000526020600020906008020160040180546114b19061247a565b80601f01602080910402602001604051908101604052809291908181526020018280546114dd9061247a565b801561152a5780601f106114ff5761010080835404028352916020019161152a565b820191906000526020600020905b81548152906001019060200180831161150d57829003601f168201915b50505050508582815181106115425761154161241c565b5b6020026020010181905250600081815481106115615761156061241c565b5b9060005260206000209060080201600501805461157d9061247a565b80601f01602080910402602001604051908101604052809291908181526020018280546115a99061247a565b80156115f65780601f106115cb576101008083540402835291602001916115f6565b820191906000526020600020905b8154815290600101906020018083116115d957829003601f168201915b505050505084828151811061160e5761160d61241c565b5b60200260200101819052506000818154811061162d5761162c61241c565b5b906000526020600020906008020160060180546116499061247a565b80601f01602080910402602001604051908101604052809291908181526020018280546116759061247a565b80156116c25780601f10611697576101008083540402835291602001916116c2565b820191906000526020600020905b8154815290600101906020018083116116a557829003601f168201915b50505050508382815181106116da576116d961241c565b5b6020026020010181905250600081815481106116f9576116f861241c565b5b906000526020600020906008020160070180546117159061247a565b80601f01602080910402602001604051908101604052809291908181526020018280546117419061247a565b801561178e5780601f106117635761010080835404028352916020019161178e565b820191906000526020600020905b81548152906001019060200180831161177157829003601f168201915b50505050508282815181106117a6576117a561241c565b5b602002602001018190525080806117bc906124db565b91505061117d565b5087878787878787879f509f509f509f509f509f509f509f5050505050505050509091929394959697565b60006040518061010001604052808a73ffffffffffffffffffffffffffffffffffffffff16815260200189815260200188815260200187815260200186815260200185815260200184815260200183815250908060018154018082558091505060019003906000526020600020906008020160009091909190915060008201518160000160006101000a81548173ffffffffffffffffffffffffffffffffffffffff021916908373ffffffffffffffffffffffffffffffffffffffff16021790555060208201518160010190805190602001906118cd929190611988565b5060408201518160020190805190602001906118ea929190611988565b506060820151816003019080519060200190611907929190611988565b506080820151816004019080519060200190611924929190611988565b5060a0820151816005019080519060200190611941929190611988565b5060c082015181600601908051906020019061195e929190611988565b5060e082015181600701908051906020019061197b929190611988565b5050505050505050505050565b8280546119949061247a565b90600052602060002090601f0160209004810192826119b657600085556119fd565b82601f106119cf57805160ff19168380011785556119fd565b828001600101855582156119fd579182015b828111156119fc5782518255916020019190600101906119e1565b5b509050611a0a9190611a0e565b5090565b5b80821115611a27576000816000905550600101611a0f565b5090565b6000604051905090565b600080fd5b600080fd5b600073ffffffffffffffffffffffffffffffffffffffff82169050919050565b6000611a6a82611a3f565b9050919050565b611a7a81611a5f565b8114611a8557600080fd5b50565b600081359050611a9781611a71565b92915050565b600060208284031215611ab357611ab2611a35565b5b6000611ac184828501611a88565b91505092915050565b611ad381611a5f565b82525050565b600081519050919050565b600082825260208201905092915050565b60005b83811015611b13578082015181840152602081019050611af8565b83811115611b22576000848401525b50505050565b6000601f19601f8301169050919050565b6000611b4482611ad9565b611b4e8185611ae4565b9350611b5e818560208601611af5565b611b6781611b28565b840191505092915050565b600060e082019050611b87600083018a611aca565b8181036020830152611b998189611b39565b90508181036040830152611bad8188611b39565b90508181036060830152611bc18187611b39565b90508181036080830152611bd58186611b39565b905081810360a0830152611be98185611b39565b905081810360c0830152611bfd8184611b39565b905098975050505050505050565b600080fd5b600080fd5b7f4e487b7100000000000000000000000000000000000000000000000000000000600052604160045260246000fd5b611c4d82611b28565b810181811067ffffffffffffffff82111715611c6c57611c6b611c15565b5b80604052505050565b6000611c7f611a2b565b9050611c8b8282611c44565b919050565b600067ffffffffffffffff821115611cab57611caa611c15565b5b611cb482611b28565b9050602081019050919050565b82818337600083830152505050565b6000611ce3611cde84611c90565b611c75565b905082815260208101848484011115611cff57611cfe611c10565b5b611d0a848285611cc1565b509392505050565b600082601f830112611d2757611d26611c0b565b5b8135611d37848260208601611cd0565b91505092915050565b600080600080600080600060e0888a031215611d5f57611d5e611a35565b5b6000611d6d8a828b01611a88565b975050602088013567ffffffffffffffff811115611d8e57611d8d611a3a565b5b611d9a8a828b01611d12565b965050604088013567ffffffffffffffff811115611dbb57611dba611a3a565b5b611dc78a828b01611d12565b955050606088013567ffffffffffffffff811115611de857611de7611a3a565b5b611df48a828b01611d12565b945050608088013567ffffffffffffffff811115611e1557611e14611a3a565b5b611e218a828b01611d12565b93505060a088013567ffffffffffffffff811115611e4257611e41611a3a565b5b611e4e8a828b01611d12565b92505060c088013567ffffffffffffffff811115611e6f57611e6e611a3a565b5b611e7b8a828b01611d12565b91505092959891949750929550565b60008060408385031215611ea157611ea0611a35565b5b6000611eaf85828601611a88565b925050602083013567ffffffffffffffff811115611ed057611ecf611a3a565b5b611edc85828601611d12565b9150509250929050565b6000819050919050565b611ef981611ee6565b82525050565b6000602082019050611f146000830184611ef0565b92915050565b611f2381611ee6565b8114611f2e57600080fd5b50565b600081359050611f4081611f1a565b92915050565b600060208284031215611f5c57611f5b611a35565b5b6000611f6a84828501611f31565b91505092915050565b600061010082019050611f89600083018b611aca565b8181036020830152611f9b818a611b39565b90508181036040830152611faf8189611b39565b90508181036060830152611fc38188611b39565b90508181036080830152611fd78187611b39565b905081810360a0830152611feb8186611b39565b905081810360c0830152611fff8185611b39565b905081810360e08301526120138184611b39565b90509998505050505050505050565b600081519050919050565b600082825260208201905092915050565b6000819050602082019050919050565b61205781611a5f565b82525050565b6000612069838361204e565b60208301905092915050565b6000602082019050919050565b600061208d82612022565b612097818561202d565b93506120a28361203e565b8060005b838110156120d35781516120ba888261205d565b97506120c583612075565b9250506001810190506120a6565b5085935050505092915050565b600081519050919050565b600082825260208201905092915050565b6000819050602082019050919050565b600082825260208201905092915050565b600061212882611ad9565b612132818561210c565b9350612142818560208601611af5565b61214b81611b28565b840191505092915050565b6000612162838361211d565b905092915050565b6000602082019050919050565b6000612182826120e0565b61218c81856120eb565b93508360208202850161219e856120fc565b8060005b858110156121da57848403895281516121bb8582612156565b94506121c68361216a565b925060208a019950506001810190506121a2565b50829750879550505050505092915050565b6000610100820190508181036000830152612207818b612082565b9050818103602083015261221b818a612177565b9050818103604083015261222f8189612177565b905081810360608301526122438188612177565b905081810360808301526122578187612177565b905081810360a083015261226b8186612177565b905081810360c083015261227f8185612177565b905081810360e08301526122938184612177565b90509998505050505050505050565b600080600080600080600080610100898b0312156122c3576122c2611a35565b5b60006122d18b828c01611a88565b985050602089013567ffffffffffffffff8111156122f2576122f1611a3a565b5b6122fe8b828c01611d12565b975050604089013567ffffffffffffffff81111561231f5761231e611a3a565b5b61232b8b828c01611d12565b965050606089013567ffffffffffffffff81111561234c5761234b611a3a565b5b6123588b828c01611d12565b955050608089013567ffffffffffffffff81111561237957612378611a3a565b5b6123858b828c01611d12565b94505060a089013567ffffffffffffffff8111156123a6576123a5611a3a565b5b6123b28b828c01611d12565b93505060c089013567ffffffffffffffff8111156123d3576123d2611a3a565b5b6123df8b828c01611d12565b92505060e089013567ffffffffffffffff811115612400576123ff611a3a565b5b61240c8b828c01611d12565b9150509295985092959890939650565b7f4e487b7100000000000000000000000000000000000000000000000000000000600052603260045260246000fd5b7f4e487b7100000000000000000000000000000000000000000000000000000000600052602260045260246000fd5b6000600282049050600182168061249257607f821691505b602082108114156124a6576124a561244b565b5b50919050565b7f4e487b7100000000000000000000000000000000000000000000000000000000600052601160045260246000fd5b60006124e682611ee6565b91507fffffffffffffffffffffffffffffffffffffffffffffffffffffffffffffffff821415612519576125186124ac565b5b600182019050919050565b600081905092915050565b60008190508160005260206000209050919050565b600081546125518161247a565b61255b8186612524565b945060018216600081146125765760018114612587576125ba565b60ff198316865281860193506125ba565b6125908561252f565b60005b838110156125b257815481890152600182019150602081019050612593565b838801955050505b50505092915050565b60006125cf8284612544565b91508190509291505056fea2646970667358221220bc344b17e35ab615f1464e8a2f8cd70376b6cfe866c70beed898b4f45670644d64736f6c634300080b0033608060405234801561001057600080fd5b50614dba806100206000396000f3fe608060405234801561001057600080fd5b50600436106101205760003560e01c80636cf871df116100ad578063a9846eb011610071578063a9846eb01461039a578063ba82e860146103d1578063bc72af7d146103ed578063d23a4ee114610422578063dd8f3edc1461043e57610120565b80636cf871df146102db5780637829b41e146102f757806381d8b62c1461032757806384ae9131146103435780639fa7247a1461036757610120565b80630f53a470116100f45780630f53a470146101dc57806324e6603714610211578063323cc7c51461024157806344fd6e221461027457806349f47a55146102a457610120565b8062220cf7146101255780630265275c1461014157806306ed1e891461017157806309bef62a146101a6575b600080fd5b61013f600480360381019061013a9190613d9f565b61045a565b005b61015b60048036038101906101569190613e95565b6106a8565b6040516101689190613f2f565b60405180910390f35b61018b60048036038101906101869190613f4a565b6107f2565b60405161019d96959493929190614192565b60405180910390f35b6101c060048036038101906101bb919061421d565b610e65565b6040516101d397969594939291906142a3565b60405180910390f35b6101f660048036038101906101f1919061433c565b611207565b60405161020896959493929190614369565b60405180910390f35b61022b600480360381019061022691906143ed565b611685565b6040516102389190613f2f565b60405180910390f35b61025b6004803603810190610256919061421d565b611783565b60405161026b9493929190614449565b60405180910390f35b61028e6004803603810190610289919061433c565b611913565b60405161029b9190613f2f565b60405180910390f35b6102be60048036038101906102b9919061421d565b6119c5565b6040516102d298979695949392919061449c565b60405180910390f35b6102f560048036038101906102f0919061452f565b611bf5565b005b610311600480360381019061030c9190613e95565b611dbd565b60405161031e9190613f2f565b60405180910390f35b610341600480360381019061033c9190614648565b611f07565b005b61034b612060565b60405161035e9796959493929190614775565b60405180910390f35b610381600480360381019061037c919061433c565b612864565b6040516103919493929190614815565b60405180910390f35b6103b460048036038101906103af919061421d565b612d2f565b6040516103c898979695949392919061449c565b60405180910390f35b6103eb60048036038101906103e69190614648565b612f5f565b005b61040760048036038101906104029190613f4a565b6130db565b60405161041996959493929190614192565b60405180910390f35b61043c60048036038101906104379190613d9f565b61374e565b005b61045860048036038101906104539190614876565b61399a565b005b6000821015801561046d57506101ef8211155b6104ac576040517f08c379a00000000000000000000000000000000000000000000000000000000081526004016104a390614a0c565b60405180910390fd5b600081101580156104bf57506101ef8111155b6104fe576040517f08c379a00000000000000000000000000000000000000000000000000000000081526004016104f590614a78565b60405180910390fd5b60026040518061010001604052808973ffffffffffffffffffffffffffffffffffffffff1681526020018873ffffffffffffffffffffffffffffffffffffffff168152602001878152602001868152602001858152602001848152602001838152602001838561056e9190614ac7565b815250908060018154018082558091505060019003906000526020600020906008020160009091909190915060008201518160000160006101000a81548173ffffffffffffffffffffffffffffffffffffffff021916908373ffffffffffffffffffffffffffffffffffffffff16021790555060208201518160010160006101000a81548173ffffffffffffffffffffffffffffffffffffffff021916908373ffffffffffffffffffffffffffffffffffffffff1602179055506040820151816002019080519060200190610644929190613b0e565b506060820151816003019080519060200190610661929190613b0e565b50608082015181600401908051906020019061067e929190613b0e565b5060a0820151816005015560c0820151816006015560e08201518160070155505050505050505050565b600080600090505b6002805490508110156107e9578473ffffffffffffffffffffffffffffffffffffffff16600282815481106106e8576106e7614b1d565b5b906000526020600020906008020160010160009054906101000a900473ffffffffffffffffffffffffffffffffffffffff1673ffffffffffffffffffffffffffffffffffffffff1614801561077c575083805190602001206002828154811061075457610753614b1d565b5b90600052602060002090600802016002016040516107729190614c4c565b6040518091039020145b80156107c7575082805190602001206002828154811061079f5761079e614b1d565b5b90600052602060002090600802016003016040516107bd9190614c4c565b6040518091039020145b156107d65760019150506107eb565b80806107e190614c63565b9150506106b0565b505b9392505050565b606080606080606080600060038054905067ffffffffffffffff81111561081c5761081b613c3e565b5b60405190808252806020026020018201604052801561084f57816020015b606081526020019060019003908161083a5790505b509050600060038054905067ffffffffffffffff81111561087357610872613c3e565b5b6040519080825280602002602001820160405280156108a657816020015b60608152602001906001900390816108915790505b509050600060038054905067ffffffffffffffff8111156108ca576108c9613c3e565b5b6040519080825280602002602001820160405280156108fd57816020015b60608152602001906001900390816108e85790505b509050600060038054905067ffffffffffffffff81111561092157610920613c3e565b5b60405190808252806020026020018201604052801561094f5781602001602082028036833780820191505090505b509050600060038054905067ffffffffffffffff81111561097357610972613c3e565b5b6040519080825280602002602001820160405280156109a15781602001602082028036833780820191505090505b509050600060038054905067ffffffffffffffff8111156109c5576109c4613c3e565b5b6040519080825280602002602001820160405280156109f35781602001602082028036833780820191505090505b50905060005b600380549050811015610e42578e73ffffffffffffffffffffffffffffffffffffffff1660028281548110610a3157610a30614b1d565b5b906000526020600020906008020160000160009054906101000a900473ffffffffffffffffffffffffffffffffffffffff1673ffffffffffffffffffffffffffffffffffffffff16148015610af657508d73ffffffffffffffffffffffffffffffffffffffff1660028281548110610aac57610aab614b1d565b5b906000526020600020906008020160010160009054906101000a900473ffffffffffffffffffffffffffffffffffffffff1673ffffffffffffffffffffffffffffffffffffffff16145b15610e2f5760038181548110610b0f57610b0e614b1d565b5b90600052602060002090600802016002018054610b2b90614b7b565b80601f0160208091040260200160405190810160405280929190818152602001828054610b5790614b7b565b8015610ba45780601f10610b7957610100808354040283529160200191610ba4565b820191906000526020600020905b815481529060010190602001808311610b8757829003601f168201915b5050505050878281518110610bbc57610bbb614b1d565b5b602002602001018190525060038181548110610bdb57610bda614b1d565b5b90600052602060002090600802016003018054610bf790614b7b565b80601f0160208091040260200160405190810160405280929190818152602001828054610c2390614b7b565b8015610c705780601f10610c4557610100808354040283529160200191610c70565b820191906000526020600020905b815481529060010190602001808311610c5357829003601f168201915b5050505050868281518110610c8857610c87614b1d565b5b602002602001018190525060038181548110610ca757610ca6614b1d565b5b90600052602060002090600802016004018054610cc390614b7b565b80601f0160208091040260200160405190810160405280929190818152602001828054610cef90614b7b565b8015610d3c5780601f10610d1157610100808354040283529160200191610d3c565b820191906000526020600020905b815481529060010190602001808311610d1f57829003601f168201915b5050505050858281518110610d5457610d53614b1d565b5b602002602001018190525060038181548110610d7357610d72614b1d565b5b906000526020600020906008020160050154848281518110610d9857610d97614b1d565b5b60200260200101818152505060038181548110610db857610db7614b1d565b5b906000526020600020906008020160060154838281518110610ddd57610ddc614b1d565b5b60200260200101818152505060038181548110610dfd57610dfc614b1d565b5b906000526020600020906008020160070154828281518110610e2257610e21614b1d565b5b6020026020010181815250505b8080610e3a90614c63565b9150506109f9565b508585858585859b509b509b509b509b509b505050505050509295509295509295565b60008181548110610e7557600080fd5b90600052602060002090600702016000915090508060000160009054906101000a900473ffffffffffffffffffffffffffffffffffffffff1690806001018054610ebe90614b7b565b80601f0160208091040260200160405190810160405280929190818152602001828054610eea90614b7b565b8015610f375780601f10610f0c57610100808354040283529160200191610f37565b820191906000526020600020905b815481529060010190602001808311610f1a57829003601f168201915b505050505090806002018054610f4c90614b7b565b80601f0160208091040260200160405190810160405280929190818152602001828054610f7890614b7b565b8015610fc55780601f10610f9a57610100808354040283529160200191610fc5565b820191906000526020600020905b815481529060010190602001808311610fa857829003601f168201915b505050505090806003018054610fda90614b7b565b80601f016020809104026020016040519081016040528092919081815260200182805461100690614b7b565b80156110535780601f1061102857610100808354040283529160200191611053565b820191906000526020600020905b81548152906001019060200180831161103657829003601f168201915b50505050509080600401805461106890614b7b565b80601f016020809104026020016040519081016040528092919081815260200182805461109490614b7b565b80156110e15780601f106110b6576101008083540402835291602001916110e1565b820191906000526020600020905b8154815290600101906020018083116110c457829003601f168201915b5050505050908060050180546110f690614b7b565b80601f016020809104026020016040519081016040528092919081815260200182805461112290614b7b565b801561116f5780601f106111445761010080835404028352916020019161116f565b820191906000526020600020905b81548152906001019060200180831161115257829003601f168201915b50505050509080600601805461118490614b7b565b80601f01602080910402602001604051908101604052809291908181526020018280546111b090614b7b565b80156111fd5780601f106111d2576101008083540402835291602001916111fd565b820191906000526020600020905b8154815290600101906020018083116111e057829003601f168201915b5050505050905087565b6000606080606080606060005b60008054905081101561167a578773ffffffffffffffffffffffffffffffffffffffff166000828154811061124c5761124b614b1d565b5b906000526020600020906007020160000160009054906101000a900473ffffffffffffffffffffffffffffffffffffffff1673ffffffffffffffffffffffffffffffffffffffff16141561166757600081815481106112ae576112ad614b1d565b5b906000526020600020906007020160000160009054906101000a900473ffffffffffffffffffffffffffffffffffffffff16600082815481106112f4576112f3614b1d565b5b90600052602060002090600702016001016000838154811061131957611318614b1d565b5b90600052602060002090600702016002016000848154811061133e5761133d614b1d565b5b90600052602060002090600702016003016000858154811061136357611362614b1d565b5b90600052602060002090600702016004016000868154811061138857611387614b1d565b5b90600052602060002090600702016005018480546113a590614b7b565b80601f01602080910402602001604051908101604052809291908181526020018280546113d190614b7b565b801561141e5780601f106113f35761010080835404028352916020019161141e565b820191906000526020600020905b81548152906001019060200180831161140157829003601f168201915b5050505050945083805461143190614b7b565b80601f016020809104026020016040519081016040528092919081815260200182805461145d90614b7b565b80156114aa5780601f1061147f576101008083540402835291602001916114aa565b820191906000526020600020905b81548152906001019060200180831161148d57829003601f168201915b505050505093508280546114bd90614b7b565b80601f01602080910402602001604051908101604052809291908181526020018280546114e990614b7b565b80156115365780601f1061150b57610100808354040283529160200191611536565b820191906000526020600020905b81548152906001019060200180831161151957829003601f168201915b5050505050925081805461154990614b7b565b80601f016020809104026020016040519081016040528092919081815260200182805461157590614b7b565b80156115c25780601f10611597576101008083540402835291602001916115c2565b820191906000526020600020905b8154815290600101906020018083116115a557829003601f168201915b505050505091508080546115d590614b7b565b80601f016020809104026020016040519081016040528092919081815260200182805461160190614b7b565b801561164e5780601f106116235761010080835404028352916020019161164e565b820191906000526020600020905b81548152906001019060200180831161163157829003601f168201915b505050505090509650965096509650965096505061167c565b808061167290614c63565b915050611214565b505b91939550919395565b600080600090505b60008054905081101561177b578373ffffffffffffffffffffffffffffffffffffffff16600082815481106116c5576116c4614b1d565b5b906000526020600020906007020160000160009054906101000a900473ffffffffffffffffffffffffffffffffffffffff1673ffffffffffffffffffffffffffffffffffffffff16148015611759575082805190602001206000828154811061173157611730614b1d565b5b906000526020600020906007020160060160405161174f9190614c4c565b6040518091039020145b1561176857600191505061177d565b808061177390614c63565b91505061168d565b505b92915050565b6001818154811061179357600080fd5b90600052602060002090600402016000915090508060000160009054906101000a900473ffffffffffffffffffffffffffffffffffffffff16908060010160009054906101000a900473ffffffffffffffffffffffffffffffffffffffff169080600201805461180290614b7b565b80601f016020809104026020016040519081016040528092919081815260200182805461182e90614b7b565b801561187b5780601f106118505761010080835404028352916020019161187b565b820191906000526020600020905b81548152906001019060200180831161185e57829003601f168201915b50505050509080600301805461189090614b7b565b80601f01602080910402602001604051908101604052809291908181526020018280546118bc90614b7b565b80156119095780601f106118de57610100808354040283529160200191611909565b820191906000526020600020905b8154815290600101906020018083116118ec57829003601f168201915b5050505050905084565b600080600090505b6000805490508110156119be578273ffffffffffffffffffffffffffffffffffffffff166000828154811061195357611952614b1d565b5b906000526020600020906007020160000160009054906101000a900473ffffffffffffffffffffffffffffffffffffffff1673ffffffffffffffffffffffffffffffffffffffff1614156119ab5760019150506119c0565b80806119b690614c63565b91505061191b565b505b919050565b600381815481106119d557600080fd5b90600052602060002090600802016000915090508060000160009054906101000a900473ffffffffffffffffffffffffffffffffffffffff16908060010160009054906101000a900473ffffffffffffffffffffffffffffffffffffffff1690806002018054611a4490614b7b565b80601f0160208091040260200160405190810160405280929190818152602001828054611a7090614b7b565b8015611abd5780601f10611a9257610100808354040283529160200191611abd565b820191906000526020600020905b815481529060010190602001808311611aa057829003601f168201915b505050505090806003018054611ad290614b7b565b80601f0160208091040260200160405190810160405280929190818152602001828054611afe90614b7b565b8015611b4b5780601f10611b2057610100808354040283529160200191611b4b565b820191906000526020600020905b815481529060010190602001808311611b2e57829003601f168201915b505050505090806004018054611b6090614b7b565b80601f0160208091040260200160405190810160405280929190818152602001828054611b8c90614b7b565b8015611bd95780601f10611bae57610100808354040283529160200191611bd9565b820191906000526020600020905b815481529060010190602001808311611bbc57829003601f168201915b5050505050908060050154908060060154908060070154905088565b60005b600080549050811015611db4578673ffffffffffffffffffffffffffffffffffffffff1660008281548110611c3057611c2f614b1d565b5b906000526020600020906007020160000160009054906101000a900473ffffffffffffffffffffffffffffffffffffffff1673ffffffffffffffffffffffffffffffffffffffff161415611da1578560008281548110611c9357611c92614b1d565b5b90600052602060002090600702016001019080519060200190611cb7929190613b0e565b508460008281548110611ccd57611ccc614b1d565b5b90600052602060002090600702016002019080519060200190611cf1929190613b0e565b508360008281548110611d0757611d06614b1d565b5b90600052602060002090600702016003019080519060200190611d2b929190613b0e565b508260008281548110611d4157611d40614b1d565b5b90600052602060002090600702016004019080519060200190611d65929190613b0e565b508160008281548110611d7b57611d7a614b1d565b5b90600052602060002090600702016005019080519060200190611d9f929190613b0e565b505b8080611dac90614c63565b915050611bf8565b50505050505050565b600080600090505b600380549050811015611efe578473ffffffffffffffffffffffffffffffffffffffff1660028281548110611dfd57611dfc614b1d565b5b906000526020600020906008020160010160009054906101000a900473ffffffffffffffffffffffffffffffffffffffff1673ffffffffffffffffffffffffffffffffffffffff16148015611e915750838051906020012060028281548110611e6957611e68614b1d565b5b9060005260206000209060080201600201604051611e879190614c4c565b6040518091039020145b8015611edc5750828051906020012060028281548110611eb457611eb3614b1d565b5b9060005260206000209060080201600301604051611ed29190614c4c565b6040518091039020145b15611eeb576001915050611f00565b8080611ef690614c63565b915050611dc5565b505b9392505050565b60005b60018054905081101561205a578373ffffffffffffffffffffffffffffffffffffffff1660018281548110611f4257611f41614b1d565b5b906000526020600020906004020160000160009054906101000a900473ffffffffffffffffffffffffffffffffffffffff1673ffffffffffffffffffffffffffffffffffffffff1614801561200757508273ffffffffffffffffffffffffffffffffffffffff1660018281548110611fbd57611fbc614b1d565b5b906000526020600020906004020160010160009054906101000a900473ffffffffffffffffffffffffffffffffffffffff1673ffffffffffffffffffffffffffffffffffffffff16145b1561204757816001828154811061202157612020614b1d565b5b90600052602060002090600402016003019080519060200190612045929190613b0e565b505b808061205290614c63565b915050611f0a565b50505050565b60608060608060608060606000808054905067ffffffffffffffff81111561208b5761208a613c3e565b5b6040519080825280602002602001820160405280156120b95781602001602082028036833780820191505090505b5090506000808054905067ffffffffffffffff8111156120dc576120db613c3e565b5b60405190808252806020026020018201604052801561210f57816020015b60608152602001906001900390816120fa5790505b5090506000808054905067ffffffffffffffff81111561213257612131613c3e565b5b60405190808252806020026020018201604052801561216557816020015b60608152602001906001900390816121505790505b5090506000808054905067ffffffffffffffff81111561218857612187613c3e565b5b6040519080825280602002602001820160405280156121bb57816020015b60608152602001906001900390816121a65790505b5090506000808054905067ffffffffffffffff8111156121de576121dd613c3e565b5b60405190808252806020026020018201604052801561221157816020015b60608152602001906001900390816121fc5790505b5090506000808054905067ffffffffffffffff81111561223457612233613c3e565b5b60405190808252806020026020018201604052801561226757816020015b60608152602001906001900390816122525790505b5090506000808054905067ffffffffffffffff81111561228a57612289613c3e565b5b6040519080825280602002602001820160405280156122bd57816020015b60608152602001906001900390816122a85790505b50905060005b60008054905081101561283e57600081815481106122e4576122e3614b1d565b5b906000526020600020906007020160000160009054906101000a900473ffffffffffffffffffffffffffffffffffffffff1688828151811061232957612328614b1d565b5b602002602001019073ffffffffffffffffffffffffffffffffffffffff16908173ffffffffffffffffffffffffffffffffffffffff16815250506000818154811061237757612376614b1d565b5b9060005260206000209060070201600101805461239390614b7b565b80601f01602080910402602001604051908101604052809291908181526020018280546123bf90614b7b565b801561240c5780601f106123e15761010080835404028352916020019161240c565b820191906000526020600020905b8154815290600101906020018083116123ef57829003601f168201915b505050505087828151811061242457612423614b1d565b5b60200260200101819052506000818154811061244357612442614b1d565b5b9060005260206000209060070201600201805461245f90614b7b565b80601f016020809104026020016040519081016040528092919081815260200182805461248b90614b7b565b80156124d85780601f106124ad576101008083540402835291602001916124d8565b820191906000526020600020905b8154815290600101906020018083116124bb57829003601f168201915b50505050508682815181106124f0576124ef614b1d565b5b60200260200101819052506000818154811061250f5761250e614b1d565b5b9060005260206000209060070201600301805461252b90614b7b565b80601f016020809104026020016040519081016040528092919081815260200182805461255790614b7b565b80156125a45780601f10612579576101008083540402835291602001916125a4565b820191906000526020600020905b81548152906001019060200180831161258757829003601f168201915b50505050508582815181106125bc576125bb614b1d565b5b6020026020010181905250600081815481106125db576125da614b1d565b5b906000526020600020906007020160040180546125f790614b7b565b80601f016020809104026020016040519081016040528092919081815260200182805461262390614b7b565b80156126705780601f1061264557610100808354040283529160200191612670565b820191906000526020600020905b81548152906001019060200180831161265357829003601f168201915b505050505084828151811061268857612687614b1d565b5b6020026020010181905250600081815481106126a7576126a6614b1d565b5b906000526020600020906007020160050180546126c390614b7b565b80601f01602080910402602001604051908101604052809291908181526020018280546126ef90614b7b565b801561273c5780601f106127115761010080835404028352916020019161273c565b820191906000526020600020905b81548152906001019060200180831161271f57829003601f168201915b505050505083828151811061275457612753614b1d565b5b60200260200101819052506000818154811061277357612772614b1d565b5b9060005260206000209060070201600601805461278f90614b7b565b80601f01602080910402602001604051908101604052809291908181526020018280546127bb90614b7b565b80156128085780601f106127dd57610100808354040283529160200191612808565b820191906000526020600020905b8154815290600101906020018083116127eb57829003601f168201915b50505050508282815181106128205761281f614b1d565b5b6020026020010181905250808061283690614c63565b9150506122c3565b50868686868686869d509d509d509d509d509d509d505050505050505090919293949596565b606080606080600060018054905067ffffffffffffffff81111561288b5761288a613c3e565b5b6040519080825280602002602001820160405280156128b95781602001602082028036833780820191505090505b509050600060018054905067ffffffffffffffff8111156128dd576128dc613c3e565b5b60405190808252806020026020018201604052801561290b5781602001602082028036833780820191505090505b509050600060018054905067ffffffffffffffff81111561292f5761292e613c3e565b5b60405190808252806020026020018201604052801561296257816020015b606081526020019060019003908161294d5790505b509050600060018054905067ffffffffffffffff81111561298657612985613c3e565b5b6040519080825280602002602001820160405280156129b957816020015b60608152602001906001900390816129a45790505b50905060005b600180549050811015612d17578973ffffffffffffffffffffffffffffffffffffffff16600182815481106129f7576129f6614b1d565b5b906000526020600020906004020160010160009054906101000a900473ffffffffffffffffffffffffffffffffffffffff1673ffffffffffffffffffffffffffffffffffffffff161415612d045760018181548110612a5957612a58614b1d565b5b906000526020600020906004020160000160009054906101000a900473ffffffffffffffffffffffffffffffffffffffff16858281518110612a9e57612a9d614b1d565b5b602002602001019073ffffffffffffffffffffffffffffffffffffffff16908173ffffffffffffffffffffffffffffffffffffffff168152505060018181548110612aec57612aeb614b1d565b5b906000526020600020906004020160010160009054906101000a900473ffffffffffffffffffffffffffffffffffffffff16848281518110612b3157612b30614b1d565b5b602002602001019073ffffffffffffffffffffffffffffffffffffffff16908173ffffffffffffffffffffffffffffffffffffffff168152505060018181548110612b7f57612b7e614b1d565b5b90600052602060002090600402016002018054612b9b90614b7b565b80601f0160208091040260200160405190810160405280929190818152602001828054612bc790614b7b565b8015612c145780601f10612be957610100808354040283529160200191612c14565b820191906000526020600020905b815481529060010190602001808311612bf757829003601f168201915b5050505050838281518110612c2c57612c2b614b1d565b5b602002602001018190525060018181548110612c4b57612c4a614b1d565b5b90600052602060002090600402016003018054612c6790614b7b565b80601f0160208091040260200160405190810160405280929190818152602001828054612c9390614b7b565b8015612ce05780601f10612cb557610100808354040283529160200191612ce0565b820191906000526020600020905b815481529060010190602001808311612cc357829003601f168201915b5050505050828281518110612cf857612cf7614b1d565b5b60200260200101819052505b8080612d0f90614c63565b9150506129bf565b50838383839750975097509750505050509193509193565b60028181548110612d3f57600080fd5b90600052602060002090600802016000915090508060000160009054906101000a900473ffffffffffffffffffffffffffffffffffffffff16908060010160009054906101000a900473ffffffffffffffffffffffffffffffffffffffff1690806002018054612dae90614b7b565b80601f0160208091040260200160405190810160405280929190818152602001828054612dda90614b7b565b8015612e275780601f10612dfc57610100808354040283529160200191612e27565b820191906000526020600020905b815481529060010190602001808311612e0a57829003601f168201915b505050505090806003018054612e3c90614b7b565b80601f0160208091040260200160405190810160405280929190818152602001828054612e6890614b7b565b8015612eb55780601f10612e8a57610100808354040283529160200191612eb5565b820191906000526020600020905b815481529060010190602001808311612e9857829003601f168201915b505050505090806004018054612eca90614b7b565b80601f0160208091040260200160405190810160405280929190818152602001828054612ef690614b7b565b8015612f435780601f10612f1857610100808354040283529160200191612f43565b820191906000526020600020905b815481529060010190602001808311612f2657829003601f168201915b5050505050908060050154908060060154908060070154905088565b600160405180608001604052808573ffffffffffffffffffffffffffffffffffffffff1681526020018473ffffffffffffffffffffffffffffffffffffffff1681526020018381526020016040518060400160405280600781526020017f57616974696e6700000000000000000000000000000000000000000000000000815250815250908060018154018082558091505060019003906000526020600020906004020160009091909190915060008201518160000160006101000a81548173ffffffffffffffffffffffffffffffffffffffff021916908373ffffffffffffffffffffffffffffffffffffffff16021790555060208201518160010160006101000a81548173ffffffffffffffffffffffffffffffffffffffff021916908373ffffffffffffffffffffffffffffffffffffffff16021790555060408201518160020190805190602001906130b6929190613b0e565b5060608201518160030190805190602001906130d3929190613b0e565b505050505050565b606080606080606080600060028054905067ffffffffffffffff81111561310557613104613c3e565b5b60405190808252806020026020018201604052801561313857816020015b60608152602001906001900390816131235790505b509050600060028054905067ffffffffffffffff81111561315c5761315b613c3e565b5b60405190808252806020026020018201604052801561318f57816020015b606081526020019060019003908161317a5790505b509050600060028054905067ffffffffffffffff8111156131b3576131b2613c3e565b5b6040519080825280602002602001820160405280156131e657816020015b60608152602001906001900390816131d15790505b509050600060028054905067ffffffffffffffff81111561320a57613209613c3e565b5b6040519080825280602002602001820160405280156132385781602001602082028036833780820191505090505b509050600060028054905067ffffffffffffffff81111561325c5761325b613c3e565b5b60405190808252806020026020018201604052801561328a5781602001602082028036833780820191505090505b509050600060028054905067ffffffffffffffff8111156132ae576132ad613c3e565b5b6040519080825280602002602001820160405280156132dc5781602001602082028036833780820191505090505b50905060005b60028054905081101561372b578e73ffffffffffffffffffffffffffffffffffffffff166002828154811061331a57613319614b1d565b5b906000526020600020906008020160000160009054906101000a900473ffffffffffffffffffffffffffffffffffffffff1673ffffffffffffffffffffffffffffffffffffffff161480156133df57508d73ffffffffffffffffffffffffffffffffffffffff166002828154811061339557613394614b1d565b5b906000526020600020906008020160010160009054906101000a900473ffffffffffffffffffffffffffffffffffffffff1673ffffffffffffffffffffffffffffffffffffffff16145b1561371857600281815481106133f8576133f7614b1d565b5b9060005260206000209060080201600201805461341490614b7b565b80601f016020809104026020016040519081016040528092919081815260200182805461344090614b7b565b801561348d5780601f106134625761010080835404028352916020019161348d565b820191906000526020600020905b81548152906001019060200180831161347057829003601f168201915b50505050508782815181106134a5576134a4614b1d565b5b6020026020010181905250600281815481106134c4576134c3614b1d565b5b906000526020600020906008020160030180546134e090614b7b565b80601f016020809104026020016040519081016040528092919081815260200182805461350c90614b7b565b80156135595780601f1061352e57610100808354040283529160200191613559565b820191906000526020600020905b81548152906001019060200180831161353c57829003601f168201915b505050505086828151811061357157613570614b1d565b5b6020026020010181905250600281815481106135905761358f614b1d565b5b906000526020600020906008020160040180546135ac90614b7b565b80601f01602080910402602001604051908101604052809291908181526020018280546135d890614b7b565b80156136255780601f106135fa57610100808354040283529160200191613625565b820191906000526020600020905b81548152906001019060200180831161360857829003601f168201915b505050505085828151811061363d5761363c614b1d565b5b60200260200101819052506002818154811061365c5761365b614b1d565b5b90600052602060002090600802016005015484828151811061368157613680614b1d565b5b602002602001018181525050600281815481106136a1576136a0614b1d565b5b9060005260206000209060080201600601548382815181106136c6576136c5614b1d565b5b602002602001018181525050600281815481106136e6576136e5614b1d565b5b90600052602060002090600802016007015482828151811061370b5761370a614b1d565b5b6020026020010181815250505b808061372390614c63565b9150506132e2565b508585858585859b509b509b509b509b509b505050505050509295509295509295565b60008210158015613760575060c88211155b61379f576040517f08c379a000000000000000000000000000000000000000000000000000000000815260040161379690614cf8565b60405180910390fd5b600081101580156137b1575060c88111155b6137f0576040517f08c379a00000000000000000000000000000000000000000000000000000000081526004016137e790614d64565b60405180910390fd5b60036040518061010001604052808973ffffffffffffffffffffffffffffffffffffffff1681526020018873ffffffffffffffffffffffffffffffffffffffff16815260200187815260200186815260200185815260200184815260200183815260200183856138609190614ac7565b815250908060018154018082558091505060019003906000526020600020906008020160009091909190915060008201518160000160006101000a81548173ffffffffffffffffffffffffffffffffffffffff021916908373ffffffffffffffffffffffffffffffffffffffff16021790555060208201518160010160006101000a81548173ffffffffffffffffffffffffffffffffffffffff021916908373ffffffffffffffffffffffffffffffffffffffff1602179055506040820151816002019080519060200190613936929190613b0e565b506060820151816003019080519060200190613953929190613b0e565b506080820151816004019080519060200190613970929190613b0e565b5060a0820151816005015560c0820151816006015560e08201518160070155505050505050505050565b60006040518060e001604052808973ffffffffffffffffffffffffffffffffffffffff16815260200188815260200187815260200186815260200185815260200184815260200183815250908060018154018082558091505060019003906000526020600020906007020160009091909190915060008201518160000160006101000a81548173ffffffffffffffffffffffffffffffffffffffff021916908373ffffffffffffffffffffffffffffffffffffffff1602179055506020820151816001019080519060200190613a71929190613b0e565b506040820151816002019080519060200190613a8e929190613b0e565b506060820151816003019080519060200190613aab929190613b0e565b506080820151816004019080519060200190613ac8929190613b0e565b5060a0820151816005019080519060200190613ae5929190613b0e565b5060c0820151816006019080519060200190613b02929190613b0e565b50505050505050505050565b828054613b1a90614b7b565b90600052602060002090601f016020900481019282613b3c5760008555613b83565b82601f10613b5557805160ff1916838001178555613b83565b82800160010185558215613b83579182015b82811115613b82578251825591602001919060010190613b67565b5b509050613b909190613b94565b5090565b5b80821115613bad576000816000905550600101613b95565b5090565b6000604051905090565b600080fd5b600080fd5b600073ffffffffffffffffffffffffffffffffffffffff82169050919050565b6000613bf082613bc5565b9050919050565b613c0081613be5565b8114613c0b57600080fd5b50565b600081359050613c1d81613bf7565b92915050565b600080fd5b600080fd5b6000601f19601f8301169050919050565b7f4e487b7100000000000000000000000000000000000000000000000000000000600052604160045260246000fd5b613c7682613c2d565b810181811067ffffffffffffffff82111715613c9557613c94613c3e565b5b80604052505050565b6000613ca8613bb1565b9050613cb48282613c6d565b919050565b600067ffffffffffffffff821115613cd457613cd3613c3e565b5b613cdd82613c2d565b9050602081019050919050565b82818337600083830152505050565b6000613d0c613d0784613cb9565b613c9e565b905082815260208101848484011115613d2857613d27613c28565b5b613d33848285613cea565b509392505050565b600082601f830112613d5057613d4f613c23565b5b8135613d60848260208601613cf9565b91505092915050565b6000819050919050565b613d7c81613d69565b8114613d8757600080fd5b50565b600081359050613d9981613d73565b92915050565b600080600080600080600060e0888a031215613dbe57613dbd613bbb565b5b6000613dcc8a828b01613c0e565b9750506020613ddd8a828b01613c0e565b965050604088013567ffffffffffffffff811115613dfe57613dfd613bc0565b5b613e0a8a828b01613d3b565b955050606088013567ffffffffffffffff811115613e2b57613e2a613bc0565b5b613e378a828b01613d3b565b945050608088013567ffffffffffffffff811115613e5857613e57613bc0565b5b613e648a828b01613d3b565b93505060a0613e758a828b01613d8a565b92505060c0613e868a828b01613d8a565b91505092959891949750929550565b600080600060608486031215613eae57613ead613bbb565b5b6000613ebc86828701613c0e565b935050602084013567ffffffffffffffff811115613edd57613edc613bc0565b5b613ee986828701613d3b565b925050604084013567ffffffffffffffff811115613f0a57613f09613bc0565b5b613f1686828701613d3b565b9150509250925092565b613f2981613d69565b82525050565b6000602082019050613f446000830184613f20565b92915050565b60008060408385031215613f6157613f60613bbb565b5b6000613f6f85828601613c0e565b9250506020613f8085828601613c0e565b9150509250929050565b600081519050919050565b600082825260208201905092915050565b6000819050602082019050919050565b600081519050919050565b600082825260208201905092915050565b60005b83811015613ff0578082015181840152602081019050613fd5565b83811115613fff576000848401525b50505050565b600061401082613fb6565b61401a8185613fc1565b935061402a818560208601613fd2565b61403381613c2d565b840191505092915050565b600061404a8383614005565b905092915050565b6000602082019050919050565b600061406a82613f8a565b6140748185613f95565b93508360208202850161408685613fa6565b8060005b858110156140c257848403895281516140a3858261403e565b94506140ae83614052565b925060208a0199505060018101905061408a565b50829750879550505050505092915050565b600081519050919050565b600082825260208201905092915050565b6000819050602082019050919050565b61410981613d69565b82525050565b600061411b8383614100565b60208301905092915050565b6000602082019050919050565b600061413f826140d4565b61414981856140df565b9350614154836140f0565b8060005b8381101561418557815161416c888261410f565b975061417783614127565b925050600181019050614158565b5085935050505092915050565b600060c08201905081810360008301526141ac818961405f565b905081810360208301526141c0818861405f565b905081810360408301526141d4818761405f565b905081810360608301526141e88186614134565b905081810360808301526141fc8185614134565b905081810360a08301526142108184614134565b9050979650505050505050565b60006020828403121561423357614232613bbb565b5b600061424184828501613d8a565b91505092915050565b61425381613be5565b82525050565b600082825260208201905092915050565b600061427582613fb6565b61427f8185614259565b935061428f818560208601613fd2565b61429881613c2d565b840191505092915050565b600060e0820190506142b8600083018a61424a565b81810360208301526142ca818961426a565b905081810360408301526142de818861426a565b905081810360608301526142f2818761426a565b90508181036080830152614306818661426a565b905081810360a083015261431a818561426a565b905081810360c083015261432e818461426a565b905098975050505050505050565b60006020828403121561435257614351613bbb565b5b600061436084828501613c0e565b91505092915050565b600060c08201905061437e600083018961424a565b8181036020830152614390818861426a565b905081810360408301526143a4818761426a565b905081810360608301526143b8818661426a565b905081810360808301526143cc818561426a565b905081810360a08301526143e0818461426a565b9050979650505050505050565b6000806040838503121561440457614403613bbb565b5b600061441285828601613c0e565b925050602083013567ffffffffffffffff81111561443357614432613bc0565b5b61443f85828601613d3b565b9150509250929050565b600060808201905061445e600083018761424a565b61446b602083018661424a565b818103604083015261447d818561426a565b90508181036060830152614491818461426a565b905095945050505050565b6000610100820190506144b2600083018b61424a565b6144bf602083018a61424a565b81810360408301526144d1818961426a565b905081810360608301526144e5818861426a565b905081810360808301526144f9818761426a565b905061450860a0830186613f20565b61451560c0830185613f20565b61452260e0830184613f20565b9998505050505050505050565b60008060008060008060c0878903121561454c5761454b613bbb565b5b600061455a89828a01613c0e565b965050602087013567ffffffffffffffff81111561457b5761457a613bc0565b5b61458789828a01613d3b565b955050604087013567ffffffffffffffff8111156145a8576145a7613bc0565b5b6145b489828a01613d3b565b945050606087013567ffffffffffffffff8111156145d5576145d4613bc0565b5b6145e189828a01613d3b565b935050608087013567ffffffffffffffff81111561460257614601613bc0565b5b61460e89828a01613d3b565b92505060a087013567ffffffffffffffff81111561462f5761462e613bc0565b5b61463b89828a01613d3b565b9150509295509295509295565b60008060006060848603121561466157614660613bbb565b5b600061466f86828701613c0e565b935050602061468086828701613c0e565b925050604084013567ffffffffffffffff8111156146a1576146a0613bc0565b5b6146ad86828701613d3b565b9150509250925092565b600081519050919050565b600082825260208201905092915050565b6000819050602082019050919050565b6146ec81613be5565b82525050565b60006146fe83836146e3565b60208301905092915050565b6000602082019050919050565b6000614722826146b7565b61472c81856146c2565b9350614737836146d3565b8060005b8381101561476857815161474f88826146f2565b975061475a8361470a565b92505060018101905061473b565b5085935050505092915050565b600060e082019050818103600083015261478f818a614717565b905081810360208301526147a3818961405f565b905081810360408301526147b7818861405f565b905081810360608301526147cb818761405f565b905081810360808301526147df818661405f565b905081810360a08301526147f3818561405f565b905081810360c0830152614807818461405f565b905098975050505050505050565b6000608082019050818103600083015261482f8187614717565b905081810360208301526148438186614717565b90508181036040830152614857818561405f565b9050818103606083015261486b818461405f565b905095945050505050565b600080600080600080600060e0888a03121561489557614894613bbb565b5b60006148a38a828b01613c0e565b975050602088013567ffffffffffffffff8111156148c4576148c3613bc0565b5b6148d08a828b01613d3b565b965050604088013567ffffffffffffffff8111156148f1576148f0613bc0565b5b6148fd8a828b01613d3b565b955050606088013567ffffffffffffffff81111561491e5761491d613bc0565b5b61492a8a828b01613d3b565b945050608088013567ffffffffffffffff81111561494b5761494a613bc0565b5b6149578a828b01613d3b565b93505060a088013567ffffffffffffffff81111561497857614977613bc0565b5b6149848a828b01613d3b565b92505060c088013567ffffffffffffffff8111156149a5576149a4613bc0565b5b6149b18a828b01613d3b565b91505092959891949750929550565b7f4c697374656e696e672053636f726520696e636f72726563742e000000000000600082015250565b60006149f6601a83614259565b9150614a01826149c0565b602082019050919050565b60006020820190508181036000830152614a25816149e9565b9050919050565b7f52656164696e672053636f726520696e636f72726563742e0000000000000000600082015250565b6000614a62601883614259565b9150614a6d82614a2c565b602082019050919050565b60006020820190508181036000830152614a9181614a55565b9050919050565b7f4e487b7100000000000000000000000000000000000000000000000000000000600052601160045260246000fd5b6000614ad282613d69565b9150614add83613d69565b9250827fffffffffffffffffffffffffffffffffffffffffffffffffffffffffffffffff03821115614b1257614b11614a98565b5b828201905092915050565b7f4e487b7100000000000000000000000000000000000000000000000000000000600052603260045260246000fd5b7f4e487b7100000000000000000000000000000000000000000000000000000000600052602260045260246000fd5b60006002820490506001821680614b9357607f821691505b60208210811415614ba757614ba6614b4c565b5b50919050565b600081905092915050565b60008190508160005260206000209050919050565b60008154614bda81614b7b565b614be48186614bad565b94506001821660008114614bff5760018114614c1057614c43565b60ff19831686528186019350614c43565b614c1985614bb8565b60005b83811015614c3b57815481890152600182019150602081019050614c1c565b838801955050505b50505092915050565b6000614c588284614bcd565b915081905092915050565b6000614c6e82613d69565b91507fffffffffffffffffffffffffffffffffffffffffffffffffffffffffffffffff821415614ca157614ca0614a98565b5b600182019050919050565b7f537065616b696e672053636f726520696e636f72726563742e00000000000000600082015250565b6000614ce2601983614259565b9150614ced82614cac565b602082019050919050565b60006020820190508181036000830152614d1181614cd5565b9050919050565b7f57726974696e672053636f726520696e636f72726563742e0000000000000000600082015250565b6000614d4e601883614259565b9150614d5982614d18565b602082019050919050565b60006020820190508181036000830152614d7d81614d41565b905091905056fea2646970667358221220564ebba3b4668600181f79111eb83645ea0be3ef1c152992031d3aaec3e47dda64736f6c634300080b0033608060405234801561001057600080fd5b50612f49806100206000396000f3fe608060405234801561001057600080fd5b50600436106100e95760003560e01c8063ae8f00d31161008c578063dc1e475f11610066578063dc1e475f146102a3578063e83ddcea146102bf578063e9daa70a146102f1578063f7a7b83d14610323576100e9565b8063ae8f00d314610223578063ce1ec5bb1461023f578063dae7debd14610273576100e9565b8063381a3bf7116100c8578063381a3bf71461016f5780637aedcde5146101a3578063844bb460146101d757806386b87ba2146101f3576100e9565b80624e56cf146100ee5780630299779f1461010a5780630b5e50ed1461013a575b600080fd5b6101086004803603810190610103919061233f565b61033f565b005b610124600480360381019061011f91906123de565b6104e4565b6040516101319190612466565b60405180910390f35b610154600480360381019061014f91906124ad565b61065f565b6040516101669695949392919061258a565b60405180910390f35b61018960048036038101906101849190612600565b610863565b60405161019a9594939291906127f7565b60405180910390f35b6101bd60048036038101906101b891906124ad565b610e54565b6040516101ce95949392919061286d565b60405180910390f35b6101f160048036038101906101ec919061233f565b611072565b005b61020d600480360381019061020891906128d5565b611217565b60405161021a9190612466565b60405180910390f35b61023d600480360381019061023891906123de565b611347565b005b61025960048036038101906102549190612600565b61146b565b60405161026a959493929190612adc565b60405180910390f35b61028d60048036038101906102889190612600565b6119c5565b60405161029a9190612466565b60405180910390f35b6102bd60048036038101906102b8919061233f565b611a82565b005b6102d960048036038101906102d491906124ad565b611c22565b6040516102e893929190612b52565b60405180910390f35b61030b60048036038101906103069190612b90565b611d24565b60405161031a93929190612b52565b60405180910390f35b61033d60048036038101906103389190612bd0565b611f93565b005b60005b6000805490508110156104dd578473ffffffffffffffffffffffffffffffffffffffff166000828154811061037a57610379612c9f565b5b906000526020600020906005020160000160009054906101000a900473ffffffffffffffffffffffffffffffffffffffff1673ffffffffffffffffffffffffffffffffffffffff1614801561043f57508373ffffffffffffffffffffffffffffffffffffffff16600082815481106103f5576103f4612c9f565b5b906000526020600020906005020160010160009054906101000a900473ffffffffffffffffffffffffffffffffffffffff1673ffffffffffffffffffffffffffffffffffffffff16145b801561048a575082805190602001206000828154811061046257610461612c9f565b5b90600052602060002090600502016002016040516104809190612dce565b6040518091039020145b156104ca5781600082815481106104a4576104a3612c9f565b5b906000526020600020906005020160040190805190602001906104c89291906120e4565b505b80806104d590612e14565b915050610342565b5050505050565b600080600090505b600080549050811015610656578473ffffffffffffffffffffffffffffffffffffffff166000828154811061052457610523612c9f565b5b906000526020600020906005020160000160009054906101000a900473ffffffffffffffffffffffffffffffffffffffff1673ffffffffffffffffffffffffffffffffffffffff161480156105e957508373ffffffffffffffffffffffffffffffffffffffff166000828154811061059f5761059e612c9f565b5b906000526020600020906005020160010160009054906101000a900473ffffffffffffffffffffffffffffffffffffffff1673ffffffffffffffffffffffffffffffffffffffff16145b8015610634575082805190602001206000828154811061060c5761060b612c9f565b5b906000526020600020906005020160020160405161062a9190612dce565b6040518091039020145b15610643576001915050610658565b808061064e90612e14565b9150506104ec565b505b9392505050565b6001818154811061066f57600080fd5b90600052602060002090600602016000915090508060000160009054906101000a900473ffffffffffffffffffffffffffffffffffffffff16908060010154908060020180546106be90612cfd565b80601f01602080910402602001604051908101604052809291908181526020018280546106ea90612cfd565b80156107375780601f1061070c57610100808354040283529160200191610737565b820191906000526020600020905b81548152906001019060200180831161071a57829003601f168201915b50505050509080600301805461074c90612cfd565b80601f016020809104026020016040519081016040528092919081815260200182805461077890612cfd565b80156107c55780601f1061079a576101008083540402835291602001916107c5565b820191906000526020600020905b8154815290600101906020018083116107a857829003601f168201915b5050505050908060040180546107da90612cfd565b80601f016020809104026020016040519081016040528092919081815260200182805461080690612cfd565b80156108535780601f1061082857610100808354040283529160200191610853565b820191906000526020600020905b81548152906001019060200180831161083657829003601f168201915b5050505050908060050154905086565b60608060608060606000808054905067ffffffffffffffff81111561088b5761088a612214565b5b6040519080825280602002602001820160405280156108b95781602001602082028036833780820191505090505b5090506000808054905067ffffffffffffffff8111156108dc576108db612214565b5b60405190808252806020026020018201604052801561090a5781602001602082028036833780820191505090505b5090506000808054905067ffffffffffffffff81111561092d5761092c612214565b5b60405190808252806020026020018201604052801561096057816020015b606081526020019060019003908161094b5790505b5090506000808054905067ffffffffffffffff81111561098357610982612214565b5b6040519080825280602002602001820160405280156109b657816020015b60608152602001906001900390816109a15790505b5090506000808054905067ffffffffffffffff8111156109d9576109d8612214565b5b604051908082528060200260200182016040528015610a0c57816020015b60608152602001906001900390816109f75790505b50905060005b600080549050811015610e36578b73ffffffffffffffffffffffffffffffffffffffff1660008281548110610a4a57610a49612c9f565b5b906000526020600020906005020160010160009054906101000a900473ffffffffffffffffffffffffffffffffffffffff1673ffffffffffffffffffffffffffffffffffffffff161415610e235760008181548110610aac57610aab612c9f565b5b906000526020600020906005020160000160009054906101000a900473ffffffffffffffffffffffffffffffffffffffff16868281518110610af157610af0612c9f565b5b602002602001019073ffffffffffffffffffffffffffffffffffffffff16908173ffffffffffffffffffffffffffffffffffffffff168152505060008181548110610b3f57610b3e612c9f565b5b906000526020600020906005020160010160009054906101000a900473ffffffffffffffffffffffffffffffffffffffff16858281518110610b8457610b83612c9f565b5b602002602001019073ffffffffffffffffffffffffffffffffffffffff16908173ffffffffffffffffffffffffffffffffffffffff168152505060008181548110610bd257610bd1612c9f565b5b90600052602060002090600502016002018054610bee90612cfd565b80601f0160208091040260200160405190810160405280929190818152602001828054610c1a90612cfd565b8015610c675780601f10610c3c57610100808354040283529160200191610c67565b820191906000526020600020905b815481529060010190602001808311610c4a57829003601f168201915b5050505050848281518110610c7f57610c7e612c9f565b5b602002602001018190525060008181548110610c9e57610c9d612c9f565b5b90600052602060002090600502016003018054610cba90612cfd565b80601f0160208091040260200160405190810160405280929190818152602001828054610ce690612cfd565b8015610d335780601f10610d0857610100808354040283529160200191610d33565b820191906000526020600020905b815481529060010190602001808311610d1657829003601f168201915b5050505050838281518110610d4b57610d4a612c9f565b5b602002602001018190525060008181548110610d6a57610d69612c9f565b5b90600052602060002090600502016004018054610d8690612cfd565b80601f0160208091040260200160405190810160405280929190818152602001828054610db290612cfd565b8015610dff5780601f10610dd457610100808354040283529160200191610dff565b820191906000526020600020905b815481529060010190602001808311610de257829003601f168201915b5050505050828281518110610e1757610e16612c9f565b5b60200260200101819052505b8080610e2e90612e14565b915050610a12565b50848484848499509950995099509950505050505091939590929450565b60008181548110610e6457600080fd5b90600052602060002090600502016000915090508060000160009054906101000a900473ffffffffffffffffffffffffffffffffffffffff16908060010160009054906101000a900473ffffffffffffffffffffffffffffffffffffffff1690806002018054610ed390612cfd565b80601f0160208091040260200160405190810160405280929190818152602001828054610eff90612cfd565b8015610f4c5780601f10610f2157610100808354040283529160200191610f4c565b820191906000526020600020905b815481529060010190602001808311610f2f57829003601f168201915b505050505090806003018054610f6190612cfd565b80601f0160208091040260200160405190810160405280929190818152602001828054610f8d90612cfd565b8015610fda5780601f10610faf57610100808354040283529160200191610fda565b820191906000526020600020905b815481529060010190602001808311610fbd57829003601f168201915b505050505090806004018054610fef90612cfd565b80601f016020809104026020016040519081016040528092919081815260200182805461101b90612cfd565b80156110685780601f1061103d57610100808354040283529160200191611068565b820191906000526020600020905b81548152906001019060200180831161104b57829003601f168201915b5050505050905085565b60005b600080549050811015611210578473ffffffffffffffffffffffffffffffffffffffff16600082815481106110ad576110ac612c9f565b5b906000526020600020906005020160000160009054906101000a900473ffffffffffffffffffffffffffffffffffffffff1673ffffffffffffffffffffffffffffffffffffffff1614801561117257508373ffffffffffffffffffffffffffffffffffffffff166000828154811061112857611127612c9f565b5b906000526020600020906005020160010160009054906101000a900473ffffffffffffffffffffffffffffffffffffffff1673ffffffffffffffffffffffffffffffffffffffff16145b80156111bd575082805190602001206000828154811061119557611194612c9f565b5b90600052602060002090600502016002016040516111b39190612dce565b6040518091039020145b156111fd5781600082815481106111d7576111d6612c9f565b5b906000526020600020906005020160040190805190602001906111fb9291906120e4565b505b808061120890612e14565b915050611075565b5050505050565b600080600090505b60018054905081101561133e578473ffffffffffffffffffffffffffffffffffffffff166001828154811061125757611256612c9f565b5b906000526020600020906006020160000160009054906101000a900473ffffffffffffffffffffffffffffffffffffffff1673ffffffffffffffffffffffffffffffffffffffff161480156112f8575083836040516020016112ba929190612e99565b60405160208183030381529060405280519060200120600182815481106112e4576112e3612c9f565b5b906000526020600020906006020160010154145b1561132b576001818154811061131157611310612c9f565b5b906000526020600020906006020160050154915050611340565b808061133690612e14565b91505061121f565b505b9392505050565b600260405180606001604052808573ffffffffffffffffffffffffffffffffffffffff1681526020018473ffffffffffffffffffffffffffffffffffffffff16815260200183815250908060018154018082558091505060019003906000526020600020906003020160009091909190915060008201518160000160006101000a81548173ffffffffffffffffffffffffffffffffffffffff021916908373ffffffffffffffffffffffffffffffffffffffff16021790555060208201518160010160006101000a81548173ffffffffffffffffffffffffffffffffffffffff021916908373ffffffffffffffffffffffffffffffffffffffff16021790555060408201518160020190805190602001906114639291906120e4565b505050505050565b6060806060806060600060018054905067ffffffffffffffff81111561149457611493612214565b5b6040519080825280602002602001820160405280156114c25781602001602082028036833780820191505090505b509050600060018054905067ffffffffffffffff8111156114e6576114e5612214565b5b60405190808252806020026020018201604052801561151957816020015b60608152602001906001900390816115045790505b509050600060018054905067ffffffffffffffff81111561153d5761153c612214565b5b60405190808252806020026020018201604052801561157057816020015b606081526020019060019003908161155b5790505b509050600060018054905067ffffffffffffffff81111561159457611593612214565b5b6040519080825280602002602001820160405280156115c757816020015b60608152602001906001900390816115b25790505b509050600060018054905067ffffffffffffffff8111156115eb576115ea612214565b5b6040519080825280602002602001820160405280156116195781602001602082028036833780820191505090505b50905060005b6001805490508110156119a7578b73ffffffffffffffffffffffffffffffffffffffff166001828154811061165757611656612c9f565b5b906000526020600020906006020160000160009054906101000a900473ffffffffffffffffffffffffffffffffffffffff1673ffffffffffffffffffffffffffffffffffffffff16141561199457600181815481106116b9576116b8612c9f565b5b9060005260206000209060060201600101548682815181106116de576116dd612c9f565b5b602002602001018181525050600181815481106116fe576116fd612c9f565b5b9060005260206000209060060201600201805461171a90612cfd565b80601f016020809104026020016040519081016040528092919081815260200182805461174690612cfd565b80156117935780601f1061176857610100808354040283529160200191611793565b820191906000526020600020905b81548152906001019060200180831161177657829003601f168201915b50505050508582815181106117ab576117aa612c9f565b5b6020026020010181905250600181815481106117ca576117c9612c9f565b5b906000526020600020906006020160030180546117e690612cfd565b80601f016020809104026020016040519081016040528092919081815260200182805461181290612cfd565b801561185f5780601f106118345761010080835404028352916020019161185f565b820191906000526020600020905b81548152906001019060200180831161184257829003601f168201915b505050505084828151811061187757611876612c9f565b5b60200260200101819052506001818154811061189657611895612c9f565b5b906000526020600020906006020160040180546118b290612cfd565b80601f01602080910402602001604051908101604052809291908181526020018280546118de90612cfd565b801561192b5780601f106119005761010080835404028352916020019161192b565b820191906000526020600020905b81548152906001019060200180831161190e57829003601f168201915b505050505083828151811061194357611942612c9f565b5b60200260200101819052506001818154811061196257611961612c9f565b5b90600052602060002090600602016005015482828151811061198757611986612c9f565b5b6020026020010181815250505b808061199f90612e14565b91505061161f565b50848484848499509950995099509950505050505091939590929450565b6000806000905060005b600080549050811015611a78578373ffffffffffffffffffffffffffffffffffffffff1660008281548110611a0757611a06612c9f565b5b906000526020600020906005020160010160009054906101000a900473ffffffffffffffffffffffffffffffffffffffff1673ffffffffffffffffffffffffffffffffffffffff161415611a6557600182611a629190612ebd565b91505b8080611a7090612e14565b9150506119cf565b5080915050919050565b60006040518060a001604052808673ffffffffffffffffffffffffffffffffffffffff1681526020018573ffffffffffffffffffffffffffffffffffffffff1681526020018481526020018381526020016040518060400160405280600981526020017f53637265656e696e670000000000000000000000000000000000000000000000815250815250908060018154018082558091505060019003906000526020600020906005020160009091909190915060008201518160000160006101000a81548173ffffffffffffffffffffffffffffffffffffffff021916908373ffffffffffffffffffffffffffffffffffffffff16021790555060208201518160010160006101000a81548173ffffffffffffffffffffffffffffffffffffffff021916908373ffffffffffffffffffffffffffffffffffffffff1602179055506040820151816002019080519060200190611bdf9291906120e4565b506060820151816003019080519060200190611bfc9291906120e4565b506080820151816004019080519060200190611c199291906120e4565b50505050505050565b60028181548110611c3257600080fd5b90600052602060002090600302016000915090508060000160009054906101000a900473ffffffffffffffffffffffffffffffffffffffff16908060010160009054906101000a900473ffffffffffffffffffffffffffffffffffffffff1690806002018054611ca190612cfd565b80601f0160208091040260200160405190810160405280929190818152602001828054611ccd90612cfd565b8015611d1a5780601f10611cef57610100808354040283529160200191611d1a565b820191906000526020600020905b815481529060010190602001808311611cfd57829003601f168201915b5050505050905083565b600080606060005b600280549050811015611f8a578473ffffffffffffffffffffffffffffffffffffffff1660028281548110611d6457611d63612c9f565b5b906000526020600020906003020160010160009054906101000a900473ffffffffffffffffffffffffffffffffffffffff1673ffffffffffffffffffffffffffffffffffffffff16148015611e2957508573ffffffffffffffffffffffffffffffffffffffff1660028281548110611ddf57611dde612c9f565b5b906000526020600020906003020160000160009054906101000a900473ffffffffffffffffffffffffffffffffffffffff1673ffffffffffffffffffffffffffffffffffffffff16145b15611f775760028181548110611e4257611e41612c9f565b5b906000526020600020906003020160000160009054906101000a900473ffffffffffffffffffffffffffffffffffffffff1660028281548110611e8857611e87612c9f565b5b906000526020600020906003020160010160009054906101000a900473ffffffffffffffffffffffffffffffffffffffff1660028381548110611ece57611ecd612c9f565b5b9060005260206000209060030201600201808054611eeb90612cfd565b80601f0160208091040260200160405190810160405280929190818152602001828054611f1790612cfd565b8015611f645780601f10611f3957610100808354040283529160200191611f64565b820191906000526020600020905b815481529060010190602001808311611f4757829003601f168201915b5050505050905093509350935050611f8c565b8080611f8290612e14565b915050611d2c565b505b9250925092565b60016040518060c001604052808773ffffffffffffffffffffffffffffffffffffffff1681526020018685604051602001611fcf929190612e99565b60405160208183030381529060405280519060200120815260200186815260200185815260200184815260200183815250908060018154018082558091505060019003906000526020600020906006020160009091909190915060008201518160000160006101000a81548173ffffffffffffffffffffffffffffffffffffffff021916908373ffffffffffffffffffffffffffffffffffffffff1602179055506020820151816001015560408201518160020190805190602001906120969291906120e4565b5060608201518160030190805190602001906120b39291906120e4565b5060808201518160040190805190602001906120d09291906120e4565b5060a0820151816005015550505050505050565b8280546120f090612cfd565b90600052602060002090601f0160209004810192826121125760008555612159565b82601f1061212b57805160ff1916838001178555612159565b82800160010185558215612159579182015b8281111561215857825182559160200191906001019061213d565b5b509050612166919061216a565b5090565b5b8082111561218357600081600090555060010161216b565b5090565b6000604051905090565b600080fd5b600080fd5b600073ffffffffffffffffffffffffffffffffffffffff82169050919050565b60006121c68261219b565b9050919050565b6121d6816121bb565b81146121e157600080fd5b50565b6000813590506121f3816121cd565b92915050565b600080fd5b600080fd5b6000601f19601f8301169050919050565b7f4e487b7100000000000000000000000000000000000000000000000000000000600052604160045260246000fd5b61224c82612203565b810181811067ffffffffffffffff8211171561226b5761226a612214565b5b80604052505050565b600061227e612187565b905061228a8282612243565b919050565b600067ffffffffffffffff8211156122aa576122a9612214565b5b6122b382612203565b9050602081019050919050565b82818337600083830152505050565b60006122e26122dd8461228f565b612274565b9050828152602081018484840111156122fe576122fd6121fe565b5b6123098482856122c0565b509392505050565b600082601f830112612326576123256121f9565b5b81356123368482602086016122cf565b91505092915050565b6000806000806080858703121561235957612358612191565b5b6000612367878288016121e4565b9450506020612378878288016121e4565b935050604085013567ffffffffffffffff81111561239957612398612196565b5b6123a587828801612311565b925050606085013567ffffffffffffffff8111156123c6576123c5612196565b5b6123d287828801612311565b91505092959194509250565b6000806000606084860312156123f7576123f6612191565b5b6000612405868287016121e4565b9350506020612416868287016121e4565b925050604084013567ffffffffffffffff81111561243757612436612196565b5b61244386828701612311565b9150509250925092565b6000819050919050565b6124608161244d565b82525050565b600060208201905061247b6000830184612457565b92915050565b61248a8161244d565b811461249557600080fd5b50565b6000813590506124a781612481565b92915050565b6000602082840312156124c3576124c2612191565b5b60006124d184828501612498565b91505092915050565b6124e3816121bb565b82525050565b6000819050919050565b6124fc816124e9565b82525050565b600081519050919050565b600082825260208201905092915050565b60005b8381101561253c578082015181840152602081019050612521565b8381111561254b576000848401525b50505050565b600061255c82612502565b612566818561250d565b935061257681856020860161251e565b61257f81612203565b840191505092915050565b600060c08201905061259f60008301896124da565b6125ac60208301886124f3565b81810360408301526125be8187612551565b905081810360608301526125d28186612551565b905081810360808301526125e68185612551565b90506125f560a0830184612457565b979650505050505050565b60006020828403121561261657612615612191565b5b6000612624848285016121e4565b91505092915050565b600081519050919050565b600082825260208201905092915050565b6000819050602082019050919050565b612662816121bb565b82525050565b60006126748383612659565b60208301905092915050565b6000602082019050919050565b60006126988261262d565b6126a28185612638565b93506126ad83612649565b8060005b838110156126de5781516126c58882612668565b97506126d083612680565b9250506001810190506126b1565b5085935050505092915050565b600081519050919050565b600082825260208201905092915050565b6000819050602082019050919050565b600082825260208201905092915050565b600061273382612502565b61273d8185612717565b935061274d81856020860161251e565b61275681612203565b840191505092915050565b600061276d8383612728565b905092915050565b6000602082019050919050565b600061278d826126eb565b61279781856126f6565b9350836020820285016127a985612707565b8060005b858110156127e557848403895281516127c68582612761565b94506127d183612775565b925060208a019950506001810190506127ad565b50829750879550505050505092915050565b600060a0820190508181036000830152612811818861268d565b90508181036020830152612825818761268d565b905081810360408301526128398186612782565b9050818103606083015261284d8185612782565b905081810360808301526128618184612782565b90509695505050505050565b600060a08201905061288260008301886124da565b61288f60208301876124da565b81810360408301526128a18186612551565b905081810360608301526128b58185612551565b905081810360808301526128c98184612551565b90509695505050505050565b6000806000606084860312156128ee576128ed612191565b5b60006128fc868287016121e4565b935050602084013567ffffffffffffffff81111561291d5761291c612196565b5b61292986828701612311565b925050604084013567ffffffffffffffff81111561294a57612949612196565b5b61295686828701612311565b9150509250925092565b600081519050919050565b600082825260208201905092915050565b6000819050602082019050919050565b612995816124e9565b82525050565b60006129a7838361298c565b60208301905092915050565b6000602082019050919050565b60006129cb82612960565b6129d5818561296b565b93506129e08361297c565b8060005b83811015612a115781516129f8888261299b565b9750612a03836129b3565b9250506001810190506129e4565b5085935050505092915050565b600081519050919050565b600082825260208201905092915050565b6000819050602082019050919050565b612a538161244d565b82525050565b6000612a658383612a4a565b60208301905092915050565b6000602082019050919050565b6000612a8982612a1e565b612a938185612a29565b9350612a9e83612a3a565b8060005b83811015612acf578151612ab68882612a59565b9750612ac183612a71565b925050600181019050612aa2565b5085935050505092915050565b600060a0820190508181036000830152612af681886129c0565b90508181036020830152612b0a8187612782565b90508181036040830152612b1e8186612782565b90508181036060830152612b328185612782565b90508181036080830152612b468184612a7e565b90509695505050505050565b6000606082019050612b6760008301866124da565b612b7460208301856124da565b8181036040830152612b868184612551565b9050949350505050565b60008060408385031215612ba757612ba6612191565b5b6000612bb5858286016121e4565b9250506020612bc6858286016121e4565b9150509250929050565b600080600080600060a08688031215612bec57612beb612191565b5b6000612bfa888289016121e4565b955050602086013567ffffffffffffffff811115612c1b57612c1a612196565b5b612c2788828901612311565b945050604086013567ffffffffffffffff811115612c4857612c47612196565b5b612c5488828901612311565b935050606086013567ffffffffffffffff811115612c7557612c74612196565b5b612c8188828901612311565b9250506080612c9288828901612498565b9150509295509295909350565b7f4e487b7100000000000000000000000000000000000000000000000000000000600052603260045260246000fd5b7f4e487b7100000000000000000000000000000000000000000000000000000000600052602260045260246000fd5b60006002820490506001821680612d1557607f821691505b60208210811415612d2957612d28612cce565b5b50919050565b600081905092915050565b60008190508160005260206000209050919050565b60008154612d5c81612cfd565b612d668186612d2f565b94506001821660008114612d815760018114612d9257612dc5565b60ff19831686528186019350612dc5565b612d9b85612d3a565b60005b83811015612dbd57815481890152600182019150602081019050612d9e565b838801955050505b50505092915050565b6000612dda8284612d4f565b915081905092915050565b7f4e487b7100000000000000000000000000000000000000000000000000000000600052601160045260246000fd5b6000612e1f8261244d565b91507fffffffffffffffffffffffffffffffffffffffffffffffffffffffffffffffff821415612e5257612e51612de5565b5b600182019050919050565b600081905092915050565b6000612e7382612502565b612e7d8185612e5d565b9350612e8d81856020860161251e565b80840191505092915050565b6000612ea58285612e68565b9150612eb18284612e68565b91508190509392505050565b6000612ec88261244d565b9150612ed38361244d565b9250827fffffffffffffffffffffffffffffffffffffffffffffffffffffffffffffffff03821115612f0857612f07612de5565b5b82820190509291505056fea264697066735822122068aa446e0a6dd2f15e350182de69e7b934713a4462984fc4897ac8e5ea6347b864736f6c634300080b0033",
  "immutableReferences": {},
  "source": "// SPDX-License-Identifier: MIT\r\npragma solidity >=0.4.22 <0.9.0;\r\n\r\n// Import cc contract cn thit  s dng\r\nimport \"./SmartCV_ListStudent.sol\";\r\nimport \"./SmartCV_ListBusiness.sol\";\r\nimport \"./SmartCV_ListIIG.sol\";\r\nimport \"./SmartCV_Apply.sol\";\r\n\r\n// CV dnh cho sinh vin\r\ncontract StudentBusiness {\r\n\r\n    // Khai contract  import  s dng cc function  contract \r\n    ListStudent listStudent = new ListStudent();\r\n    ListBusiness listBusiness = new ListBusiness();\r\n    ListIIG listIIG = new ListIIG();\r\n    ApplyCV applyCV = new ApplyCV();\r\n\r\n    // ======================================\r\n    // ====== Chc nng cho sinh vin =======\r\n    // ======================================\r\n\r\n    // Chc nng thm thng tin sinh vin (ng k)\r\n    function addStudentProfile (\r\n        address _studentOwner,\r\n        string memory _name,\r\n        string memory _phoneNumber,\r\n        string memory _professionalTitle,\r\n        string memory _email,\r\n        string memory _github,\r\n        string memory _linkedin,\r\n        string memory _sourceImage,\r\n        string memory _password) public {\r\n            listStudent.addSV(_studentOwner, \r\n                                _name, \r\n                                _phoneNumber, \r\n                                _professionalTitle, \r\n                                _email, \r\n                                _github, \r\n                                _linkedin,\r\n                                _sourceImage,\r\n                                _password);\r\n    }\r\n\r\n    // Chc nng chnh thng tin sinh vin\r\n    function editStudentProfile (\r\n        address _studentOwner,\r\n        string memory _name,\r\n        string memory _phoneNumber,\r\n        string memory _professionalTitle,\r\n        string memory _email,\r\n        string memory _github,\r\n        string memory _linkedin,\r\n        string memory _sourceImage) public {\r\n            listStudent.editSV(_studentOwner,\r\n                                _name, \r\n                                _phoneNumber, \r\n                                _professionalTitle, \r\n                                _email, \r\n                                _github, \r\n                                _linkedin,\r\n                                _sourceImage);\r\n    }\r\n\r\n    // Chc nng ly thng tin ca sinh vin\r\n    function getStudentProfile(address _studentOwner) public view returns(\r\n        address studentOwner, \r\n        string memory name, \r\n        string memory phoneNumber, \r\n        string memory professionalTitle, \r\n        string memory email, \r\n        string memory github, \r\n        string memory linkedin,\r\n        string memory sourceImage,\r\n        string memory password) {\r\n            return listStudent.getProfile(_studentOwner);\r\n    }\r\n\r\n    // Chc nng kim tra ti khon sinh vin c tn ti hay khng? (ng nhp)\r\n    function checkStudentProfile(\r\n        address _studentOwner, \r\n        string memory _password) public view returns(uint x) {\r\n            return listStudent.checkSV(_studentOwner, _password);\r\n    }\r\n\r\n    // Chc nng kim tra a ch sinh vin c tn ti hay khng?\r\n    function checkExistStudent(address _studentOwner) public view returns(uint x) {\r\n            return listStudent.checkExistSV(_studentOwner);\r\n    }\r\n\r\n    // Chc nng thm thng tin k nng ca sinh vin\r\n    function addStudentSkill(\r\n        address _studentOwner,\r\n        string memory _title, \r\n        uint _level) public {\r\n            listStudent.addSkill(_studentOwner, \r\n                                _title, \r\n                                _level);\r\n    }\r\n\r\n    // Chc nng chnh sa thng tin k nng ca sinh vin\r\n    function editStudentSkill(\r\n        address _studentOwner,\r\n        string memory _title, \r\n        uint _level) public {\r\n            listStudent.editSkill(_studentOwner, \r\n                                _title, \r\n                                _level);\r\n    }\r\n\r\n    // Chc nng kim tra k nng ca sinh vin c tn ti hay khng?\r\n    function checkStudentSkill(\r\n        address _studentOwner,\r\n        string memory _title) public view returns(uint x) {\r\n            return listStudent.checkSkill(_studentOwner, _title);\r\n    }\r\n\r\n    // Chc nng kim tra s lng k nng ca sinh vin\r\n    function checkNumStudentSkill(address _studentOwner) public view returns(uint x) {\r\n            uint _count = listStudent.checkNumSkill(_studentOwner);\r\n            if(_count > 10){\r\n                return 1;\r\n            }\r\n    }\r\n\r\n    // Chc nng ly thng tin k nng ca sinh vin\r\n    function getStudentSkill(address _studentOwner) public view returns(\r\n        string[] memory titles,\r\n        uint[] memory levels) {\r\n        return listStudent.getSkill(_studentOwner);\r\n    }\r\n\r\n    // Chc nng thm thng tin hc vn ca sinh vin\r\n    function addStudentEducation(\r\n        address _studentOwner,\r\n        string memory _institution,\r\n        string memory _focusArea, \r\n        string memory _startTime,\r\n        string memory _finishTime,\r\n        string memory _gpa) public {\r\n            listStudent.addEducation(_studentOwner, \r\n                                    _institution, \r\n                                    _focusArea,\r\n                                    _startTime,\r\n                                    _finishTime,\r\n                                    _gpa);\r\n    }\r\n\r\n    // Chc nng chnh sa thng tin hc vn ca sinh vin\r\n    function editStudentEducation(\r\n        address _studentOwner,\r\n        string memory _institution,\r\n        string memory _focusArea, \r\n        string memory _startTime,\r\n        string memory _finishTime,\r\n        string memory _gpa) public {\r\n            listStudent.editEducation(_studentOwner, \r\n                                    _institution, \r\n                                    _focusArea,\r\n                                    _startTime,\r\n                                    _finishTime,\r\n                                    _gpa);\r\n    }\r\n\r\n    // Chc nng kim tra sinh vin  thm hc vn  hay cha?\r\n    function checkStudentEducation(\r\n        address _studentOwner, \r\n        string memory _institution,\r\n        string memory _focusArea) public view returns(uint x) {\r\n            return listStudent.checkEducation(_studentOwner,\r\n                                            _institution,\r\n                                            _focusArea);\r\n    }\r\n\r\n    // Chc nng ly thng tin hc vn ca sinh vin\r\n    function getStudentEducation(address _studentOwner) public view returns(\r\n        string[] memory,\r\n        string[] memory,\r\n        string[] memory,\r\n        string[] memory,\r\n        string[] memory) {\r\n            return listStudent.getEducation(_studentOwner);\r\n    }\r\n\r\n    // Chc nng ly danh sch doanh nghip\r\n    function getListBusiness() public view returns(\r\n        address[] memory,\r\n        string[] memory,\r\n        string[] memory,\r\n        string[] memory,\r\n        string[] memory,\r\n        string[] memory,\r\n        string[] memory,\r\n        string[] memory) {\r\n        return listBusiness.getListDN();\r\n    }\r\n\r\n    // Chc nng ly thng tin tuyn dng ca doanh nghip\r\n    function getRecruit(address _businessOwner) public view returns(\r\n        bytes32[] memory,\r\n        string[] memory,\r\n        string[] memory,\r\n        string[] memory,\r\n        uint[] memory) {\r\n        return applyCV.getRecruit(_businessOwner);\r\n    }\r\n\r\n    // Chc nng gi CV ti doanh nghip\r\n    function sendCV(\r\n        address _studentOwner, \r\n        address _businessOwner, \r\n        string memory _jobTitle, \r\n        string memory _coverLetter) public {\r\n            applyCV.addCV(_studentOwner, \r\n                        _businessOwner, \r\n                        _jobTitle, \r\n                        _coverLetter);\r\n    }\r\n\r\n    // Chc nng kim tra sinh vin  np CV cha?\r\n    function checkCV(\r\n        address _studentOwner, \r\n        address _businessOwner, \r\n        string memory _jobTitle) public view returns(uint x) {\r\n            return applyCV.checkCV(_studentOwner, \r\n                                    _businessOwner, \r\n                                    _jobTitle);\r\n    }\r\n\r\n    // Chc nng xem nh gi thc tp ca doanh nghip\r\n    function getReview(\r\n        address _studentOwner, \r\n        address _businessOwner) public view returns(\r\n            address studentOwner, \r\n            address businessOwner, \r\n            string memory content) {\r\n                return applyCV.getReview(_studentOwner, _businessOwner);\r\n    }\r\n\r\n    // ======================================\r\n    // ===== Chc nng cho doanh nghip =====\r\n    // ======================================\r\n\r\n    // Chc nng thm thng tin doanh nghip (ng k)\r\n    function addBusinessProfile(\r\n        address _businessOwner,\r\n        string memory _name,\r\n        string memory _country,\r\n        string memory _facebook,\r\n        string memory _website,\r\n        string memory _linkedin,\r\n        string memory _focusArea,\r\n        string memory _password) public {\r\n            listBusiness.addDN(_businessOwner, \r\n                                _name, \r\n                                _country, \r\n                                _facebook, \r\n                                _website, \r\n                                _linkedin, \r\n                                _focusArea, \r\n                                _password);\r\n    }\r\n\r\n    // Chc nng chnh sa thng tin doanh nghip\r\n    function editBusinessProfile(\r\n        address _businessOwner,\r\n        string memory _name,\r\n        string memory _country,\r\n        string memory _facebook,\r\n        string memory _website,\r\n        string memory _linkedin,\r\n        string memory _focusArea) public {\r\n            listBusiness.editDN(_businessOwner, \r\n                                _name, \r\n                                _country, \r\n                                _facebook, \r\n                                _website, \r\n                                _linkedin, \r\n                                _focusArea);\r\n    }\r\n\r\n    // Chc nng ly thng tin ca doanh nghip\r\n    function getBusinessProfile(address _businessOwner) public view returns(\r\n        address businessOwner, \r\n        string memory name, \r\n        string memory country, \r\n        string memory facebook, \r\n        string memory website, \r\n        string memory linkedin, \r\n        string memory focusArea) {\r\n            return listBusiness.getProfile(_businessOwner);\r\n    }\r\n\r\n    // Chc nng kim tra ti khon doanh nghip c tn ti hay khng? (ng nhp)\r\n    function checkBusinessProfile(\r\n        address _businessOwner, \r\n        string memory _password) public view returns(uint) {\r\n            return listBusiness.checkDN(_businessOwner, _password);\r\n    }\r\n\r\n    // Chc nng kim tra a ch doanh nghip c tn ti hay khng?\r\n    function checkExistBusiness(address _businessOwner) public view returns(uint x) {\r\n            return listBusiness.checkExistDN(_businessOwner);\r\n    }\r\n\r\n    // Chc nng ly danh sch CV  np vo doanh nghip\r\n    function getListCV(address _businessOwner) public view returns(\r\n        address[] memory, \r\n        address[] memory, \r\n        string[] memory, \r\n        string[] memory,\r\n        string[] memory) {\r\n            return applyCV.getCV(_businessOwner);\r\n    }\r\n    \r\n    //Chc nng duyt CV vo vng interview\r\n    function interviewCV(\r\n        address _studentOwner, \r\n        address _businessOwner, \r\n        string memory _jobTitle,\r\n        string memory _statusCV) public {\r\n            applyCV.interviewCV(_studentOwner, \r\n                                _businessOwner, \r\n                                _jobTitle, \r\n                                _statusCV);\r\n    }\r\n\r\n    //Chc nng duyt CV vo vng onboard\r\n    function onboardCV(\r\n        address _studentOwner, \r\n        address _businessOwner, \r\n        string memory _jobTitle,\r\n        string memory _statusCV) public {\r\n            applyCV.onboardCV(_studentOwner, \r\n                            _businessOwner, \r\n                            _jobTitle, \r\n                            _statusCV);\r\n    }\r\n\r\n    // Chc nng thm thng tin tuyn dng ca doanh nghip\r\n    function addRecruit(\r\n        address _businessOwner,\r\n        string memory _jobTitle,\r\n        string memory _jobDescription,\r\n        string memory _recruitDate,\r\n        uint _amount) public {\r\n            applyCV.addRecruit(_businessOwner, \r\n                                _jobTitle, \r\n                                _jobDescription,\r\n                                _recruitDate,\r\n                                _amount);\r\n    }\r\n\r\n    // Chc nng kim tra s lng tuyn dng   hay cha?\r\n    function checkAmountBusinessRecruit(\r\n        address _businessOwner,\r\n        string memory _jobTitle,\r\n        string memory _recruitDate) public view returns(uint x) {\r\n            uint numCV = applyCV.checkNumCV(_businessOwner);\r\n            uint amountRecuit = applyCV.checkAmountRecruit(_businessOwner, _jobTitle, _recruitDate);\r\n            if(numCV > amountRecuit){\r\n                return 1;\r\n            }\r\n    }\r\n\r\n    // Chc nng nh gi thc tp cho sinh vin\r\n    function sendReview(\r\n        address _studentOwner, \r\n        address _businessOwner, \r\n        string memory _content) public {\r\n            applyCV.addReview(_studentOwner, \r\n                            _businessOwner, \r\n                            _content);\r\n    }\r\n\r\n    // ======================================\r\n    // ========= Chc nng cho IIG ==========\r\n    // ======================================\r\n\r\n    // Chc nng thm thng tin IIG (ng k)\r\n    function addIIGProfile(\r\n        address _iigOwner,\r\n        string memory _name,\r\n        string memory _country,\r\n        string memory _facebook,\r\n        string memory _website,\r\n        string memory _linkedin,\r\n        string memory _password) public {\r\n            listIIG.addIIG(_iigOwner, \r\n                            _name, \r\n                            _country, \r\n                            _facebook, \r\n                            _website, \r\n                            _linkedin, \r\n                            _password);\r\n    }\r\n\r\n    // Chc nng chnh sa thng tin IIG\r\n    function editIIGProfile(\r\n        address _iigOwner,\r\n        string memory _name,\r\n        string memory _country,\r\n        string memory _facebook,\r\n        string memory _website,\r\n        string memory _linkedin) public {\r\n            listIIG.editIIG(_iigOwner, \r\n                            _name, \r\n                            _country, \r\n                            _facebook, \r\n                            _website, \r\n                            _linkedin);\r\n    }\r\n\r\n    // Chc nng ly thng tin ca IIG\r\n    function getIIGProfile(address _iigOwner) public view returns(\r\n        address iigOwner,\r\n        string memory name,\r\n        string memory country,\r\n        string memory facebook,\r\n        string memory website,\r\n        string memory linkedin) {\r\n            return listIIG.getProfile(_iigOwner);\r\n    }\r\n\r\n    // Chc nng kim tra ti khon IIG c tn ti hay khng? (ng nhp)\r\n    function checkIIGProfile(\r\n        address _iigOwner, \r\n        string memory _password) public view returns(uint) {\r\n            return listIIG.checkIIG(_iigOwner, _password);\r\n    }\r\n\r\n    // Chc nng kim tra a ch IIG c tn ti hay khng?\r\n    function checkExistIIG(address _iigOwner) public view returns(uint x) {\r\n            return listIIG.checkExistIIG(_iigOwner);\r\n    }\r\n\r\n    // Chc nng gi thng tin yu cu chng ch IIG\r\n    function sendIIGRequest (\r\n        address _studentOwner,\r\n        address _iigOwner,\r\n        string memory _identityCard) public {\r\n            listIIG.addRequest(_studentOwner, \r\n                            _iigOwner,\r\n                            _identityCard);\r\n    }\r\n\r\n    // Chc nng ly danh sch yu cu chng ch IIG\r\n    function getListIIGRequest(address _iigOwner) public view returns(\r\n        address[] memory, \r\n        address[] memory, \r\n        string[] memory,\r\n        string[] memory) {\r\n            return listIIG.getListRequest(_iigOwner);\r\n    }\r\n\r\n    //Chc nng duyt yu cu chng ch IIG\r\n    function confirmIIGRequest(\r\n        address _studentOwner, \r\n        address _iigOwner, \r\n        string memory _statusRequest) public {\r\n            listIIG.confirmRequest(_studentOwner,\r\n                                    _iigOwner,\r\n                                    _statusRequest);\r\n    }\r\n\r\n    // Chc nng nhp thng tin im thi Listening - Reading\r\n    function addIIGLRResult (\r\n        address _iigOwner,\r\n        address _studentOwner,\r\n        string memory _testDate,\r\n        string memory _shiftTest,\r\n        string memory _expireDate,\r\n        uint _listeningScore,\r\n        uint _readingScore) public {\r\n            listIIG.addLRResult(_iigOwner, \r\n                                _studentOwner, \r\n                                _testDate,\r\n                                _shiftTest, \r\n                                _expireDate, \r\n                                _listeningScore, \r\n                                _readingScore);\r\n    }\r\n\r\n    // Chc nng nhp thng tin im thi Speaking - Writing\r\n    function addIIGSWResult (\r\n        address _iigOwner,\r\n        address _studentOwner,\r\n        string memory _testDate,\r\n        string memory _shiftTest,\r\n        string memory _expireDate,\r\n        uint _speakingScore,\r\n        uint _writingScore) public {\r\n            listIIG.addSWResult(_iigOwner, \r\n                                _studentOwner, \r\n                                _testDate,\r\n                                _shiftTest,\r\n                                _expireDate, \r\n                                _speakingScore, \r\n                                _writingScore);\r\n    }\r\n\r\n    //Chc nng ly thng tin im thi Listening - Reading\r\n    function getIIGLRResult(address _iigOwner, address _studentOwner) public view returns(\r\n        string[] memory,\r\n        string[] memory,\r\n        string[] memory,\r\n        uint[] memory,\r\n        uint[] memory,\r\n        uint[] memory) {\r\n            return listIIG.getListLRResult(_iigOwner, _studentOwner);\r\n        }\r\n\r\n    //Chc nng ly thng tin im thi Speaking - Writing\r\n    function getIIGSWResult(address _iigOwner, address _studentOwner) public view returns(\r\n        string[] memory,\r\n        string[] memory,\r\n        string[] memory,\r\n        uint[] memory,\r\n        uint[] memory,\r\n        uint[] memory) {\r\n            return listIIG.getListSWResult(_iigOwner, _studentOwner);\r\n        }\r\n\r\n    // Chc nng kim tra kt qu ngy thi Listening - Reading ca sinh vin  tn ti hay cha?\r\n    function checkExistIIGLRResult(\r\n        address _studentOwner,\r\n        string memory _testDate,\r\n        string memory _shiftTest) public view returns(uint x) {\r\n            return listIIG.checkExistLRResult(_studentOwner, \r\n                                            _testDate, \r\n                                            _shiftTest);\r\n    }\r\n\r\n    // Chc nng kim tra kt qu ngy thi Speaking - Writing ca sinh vin  tn ti hay cha?\r\n    function checkExistIIGSWResult(\r\n        address _studentOwner,\r\n        string memory _testDate,\r\n        string memory _shiftTest) public view returns(uint x) {\r\n            return listIIG.checkExistSWResult(_studentOwner, \r\n                                            _testDate, \r\n                                            _shiftTest);\r\n    }\r\n}",
  "sourcePath": "C:\\Users\\19520\\Documents\\NCKH_Blockchain\\SolidityProgramming\\ProjectResearch\\SmartCV\\SmartContract\\contracts\\SmartCV_StudentBusiness.sol",
  "compiler": {
    "name": "solc",
    "version": "0.8.11+commit.d7f03943.Emscripten.clang"
  },
  "schemaVersion": "3.4.4",
  "updatedAt": "2022-07-27T14:33:51.237Z",
  "devdoc": {
    "kind": "dev",
    "methods": {},
    "version": 1
  },
  "userdoc": {
    "kind": "user",
    "methods": {},
    "version": 1
  }
}