{
  "contractName": "Student",
  "abi": [
    {
      "inputs": [
        {
          "internalType": "address",
          "name": "_studentOwner",
          "type": "address"
        },
        {
          "internalType": "string",
          "name": "_name",
          "type": "string"
        },
        {
          "internalType": "string",
          "name": "_birthDay",
          "type": "string"
        },
        {
          "internalType": "string",
          "name": "_professionalTitle",
          "type": "string"
        },
        {
          "internalType": "string",
          "name": "_email",
          "type": "string"
        },
        {
          "internalType": "string",
          "name": "_github",
          "type": "string"
        },
        {
          "internalType": "string",
          "name": "_linkedin",
          "type": "string"
        },
        {
          "internalType": "string",
          "name": "_password",
          "type": "string"
        }
      ],
      "name": "addStudentProfile",
      "outputs": [],
      "stateMutability": "nonpayable",
      "type": "function"
    },
    {
      "inputs": [
        {
          "internalType": "address",
          "name": "_studentOwner",
          "type": "address"
        }
      ],
      "name": "getStudentProfile",
      "outputs": [
        {
          "internalType": "address",
          "name": "studentOwner",
          "type": "address"
        },
        {
          "internalType": "string",
          "name": "name",
          "type": "string"
        },
        {
          "internalType": "string",
          "name": "birthDay",
          "type": "string"
        },
        {
          "internalType": "string",
          "name": "professionalTitle",
          "type": "string"
        },
        {
          "internalType": "string",
          "name": "email",
          "type": "string"
        },
        {
          "internalType": "string",
          "name": "github",
          "type": "string"
        },
        {
          "internalType": "string",
          "name": "linkedin",
          "type": "string"
        },
        {
          "internalType": "string",
          "name": "password",
          "type": "string"
        }
      ],
      "stateMutability": "view",
      "type": "function",
      "constant": true
    },
    {
      "inputs": [
        {
          "internalType": "address",
          "name": "_studentOwner",
          "type": "address"
        },
        {
          "internalType": "string",
          "name": "_password",
          "type": "string"
        }
      ],
      "name": "checkStudentProfile",
      "outputs": [
        {
          "internalType": "uint256",
          "name": "",
          "type": "uint256"
        }
      ],
      "stateMutability": "view",
      "type": "function",
      "constant": true
    },
    {
      "inputs": [
        {
          "internalType": "address",
          "name": "_studentOwner",
          "type": "address"
        },
        {
          "internalType": "string",
          "name": "_title",
          "type": "string"
        },
        {
          "internalType": "uint256",
          "name": "_level",
          "type": "uint256"
        }
      ],
      "name": "addStudentSkill",
      "outputs": [],
      "stateMutability": "nonpayable",
      "type": "function"
    },
    {
      "inputs": [],
      "name": "getListBusiness",
      "outputs": [
        {
          "internalType": "address[]",
          "name": "",
          "type": "address[]"
        },
        {
          "internalType": "string[]",
          "name": "",
          "type": "string[]"
        },
        {
          "internalType": "string[]",
          "name": "",
          "type": "string[]"
        },
        {
          "internalType": "string[]",
          "name": "",
          "type": "string[]"
        },
        {
          "internalType": "string[]",
          "name": "",
          "type": "string[]"
        },
        {
          "internalType": "string[]",
          "name": "",
          "type": "string[]"
        },
        {
          "internalType": "string[]",
          "name": "",
          "type": "string[]"
        },
        {
          "internalType": "string[]",
          "name": "",
          "type": "string[]"
        }
      ],
      "stateMutability": "view",
      "type": "function",
      "constant": true
    },
    {
      "inputs": [
        {
          "internalType": "address",
          "name": "_studentOwner",
          "type": "address"
        }
      ],
      "name": "getStudentSkill",
      "outputs": [
        {
          "internalType": "string[]",
          "name": "",
          "type": "string[]"
        },
        {
          "internalType": "uint256[]",
          "name": "",
          "type": "uint256[]"
        }
      ],
      "stateMutability": "view",
      "type": "function",
      "constant": true
    },
    {
      "inputs": [
        {
          "internalType": "address",
          "name": "_businessOwner",
          "type": "address"
        }
      ],
      "name": "getRecruit",
      "outputs": [
        {
          "internalType": "string[]",
          "name": "",
          "type": "string[]"
        },
        {
          "internalType": "string[]",
          "name": "",
          "type": "string[]"
        }
      ],
      "stateMutability": "view",
      "type": "function",
      "constant": true
    },
    {
      "inputs": [
        {
          "internalType": "address",
          "name": "_studentOwner",
          "type": "address"
        },
        {
          "internalType": "address",
          "name": "_businessOwner",
          "type": "address"
        },
        {
          "internalType": "string",
          "name": "_jobTitle",
          "type": "string"
        },
        {
          "internalType": "string",
          "name": "_coverLetter",
          "type": "string"
        }
      ],
      "name": "sendCV",
      "outputs": [],
      "stateMutability": "nonpayable",
      "type": "function"
    },
    {
      "inputs": [
        {
          "internalType": "address",
          "name": "_studentOwner",
          "type": "address"
        },
        {
          "internalType": "address",
          "name": "_businessOwner",
          "type": "address"
        }
      ],
      "name": "getReview",
      "outputs": [
        {
          "internalType": "address",
          "name": "studentOwner",
          "type": "address"
        },
        {
          "internalType": "address",
          "name": "businessOwner",
          "type": "address"
        },
        {
          "internalType": "string",
          "name": "content",
          "type": "string"
        }
      ],
      "stateMutability": "view",
      "type": "function",
      "constant": true
    },
    {
      "inputs": [
        {
          "internalType": "address",
          "name": "_businessOwner",
          "type": "address"
        },
        {
          "internalType": "string",
          "name": "_name",
          "type": "string"
        },
        {
          "internalType": "string",
          "name": "_country",
          "type": "string"
        },
        {
          "internalType": "string",
          "name": "_facebook",
          "type": "string"
        },
        {
          "internalType": "string",
          "name": "_website",
          "type": "string"
        },
        {
          "internalType": "string",
          "name": "_linkedin",
          "type": "string"
        },
        {
          "internalType": "string",
          "name": "_focusArea",
          "type": "string"
        },
        {
          "internalType": "string",
          "name": "_password",
          "type": "string"
        }
      ],
      "name": "addBusinessProfile",
      "outputs": [],
      "stateMutability": "nonpayable",
      "type": "function"
    },
    {
      "inputs": [
        {
          "internalType": "address",
          "name": "_businessOwner",
          "type": "address"
        }
      ],
      "name": "getBusinessProfile",
      "outputs": [
        {
          "internalType": "address",
          "name": "businessOwner",
          "type": "address"
        },
        {
          "internalType": "string",
          "name": "name",
          "type": "string"
        },
        {
          "internalType": "string",
          "name": "country",
          "type": "string"
        },
        {
          "internalType": "string",
          "name": "facebook",
          "type": "string"
        },
        {
          "internalType": "string",
          "name": "website",
          "type": "string"
        },
        {
          "internalType": "string",
          "name": "linkedin",
          "type": "string"
        },
        {
          "internalType": "string",
          "name": "focusArea",
          "type": "string"
        }
      ],
      "stateMutability": "view",
      "type": "function",
      "constant": true
    },
    {
      "inputs": [
        {
          "internalType": "address",
          "name": "_businessOwner",
          "type": "address"
        },
        {
          "internalType": "string",
          "name": "_password",
          "type": "string"
        }
      ],
      "name": "checkBusinessProfile",
      "outputs": [
        {
          "internalType": "uint256",
          "name": "",
          "type": "uint256"
        }
      ],
      "stateMutability": "view",
      "type": "function",
      "constant": true
    },
    {
      "inputs": [
        {
          "internalType": "address",
          "name": "_businessOwner",
          "type": "address"
        }
      ],
      "name": "getListCV",
      "outputs": [
        {
          "internalType": "address[]",
          "name": "",
          "type": "address[]"
        },
        {
          "internalType": "address[]",
          "name": "",
          "type": "address[]"
        },
        {
          "internalType": "string[]",
          "name": "",
          "type": "string[]"
        },
        {
          "internalType": "string[]",
          "name": "",
          "type": "string[]"
        }
      ],
      "stateMutability": "view",
      "type": "function",
      "constant": true
    },
    {
      "inputs": [
        {
          "internalType": "address",
          "name": "_businessOwner",
          "type": "address"
        },
        {
          "internalType": "string",
          "name": "_jobTitle",
          "type": "string"
        },
        {
          "internalType": "string",
          "name": "_jobDescription",
          "type": "string"
        }
      ],
      "name": "addRecruit",
      "outputs": [],
      "stateMutability": "nonpayable",
      "type": "function"
    },
    {
      "inputs": [
        {
          "internalType": "address",
          "name": "_studentOwner",
          "type": "address"
        },
        {
          "internalType": "address",
          "name": "_businessOwner",
          "type": "address"
        },
        {
          "internalType": "string",
          "name": "_content",
          "type": "string"
        }
      ],
      "name": "sendReview",
      "outputs": [],
      "stateMutability": "nonpayable",
      "type": "function"
    }
  ],
  "bytecode": "0x608060405260405162000012906200015b565b604051809103906000f0801580156200002f573d6000803e3d6000fd5b506000806101000a81548173ffffffffffffffffffffffffffffffffffffffff021916908373ffffffffffffffffffffffffffffffffffffffff1602179055506040516200007d9062000169565b604051809103906000f0801580156200009a573d6000803e3d6000fd5b50600160006101000a81548173ffffffffffffffffffffffffffffffffffffffff021916908373ffffffffffffffffffffffffffffffffffffffff160217905550604051620000e99062000177565b604051809103906000f08015801562000106573d6000803e3d6000fd5b50600260006101000a81548173ffffffffffffffffffffffffffffffffffffffff021916908373ffffffffffffffffffffffffffffffffffffffff1602179055503480156200015457600080fd5b5062000185565b61290680620026bb83390190565b6121bf8062004fc183390190565b611d80806200718083390190565b61252680620001956000396000f3fe608060405234801561001057600080fd5b50600436106100f55760003560e01c806391b9e6db11610097578063cee5c7f311610066578063cee5c7f3146102ba578063e2f43af2146102d6578063e9daa70a146102f2578063fe76178314610324576100f5565b806391b9e6db1461020a5780639cd3258214610226578063acf6f3fd14610259578063ce1ec5bb14610289576100f5565b806357824f16116100d357806357824f161461017c5780635b288a93146101a15780636b4dbb28146101bd5780636d53448f146101ee576100f5565b80631632dd98146100fa57806335c77f851461011657806342f08d4b14610146575b600080fd5b610114600480360381019061010f9190610f0e565b61035b565b005b610130600480360381019061012b9190610f7d565b6103f1565b60405161013d9190610ff2565b60405180910390f35b610160600480360381019061015b919061100d565b610499565b60405161017397969594939291906110d1565b60405180910390f35b61018461055e565b604051610198989796959493929190611334565b60405180910390f35b6101bb60048036038101906101b691906113ea565b61061a565b005b6101d760048036038101906101d2919061100d565b6106bd565b6040516101e5929190611622565b60405180910390f35b610208600480360381019061020391906113ea565b610768565b005b610224600480360381019061021f9190611659565b61080d565b005b610240600480360381019061023b919061100d565b6108a6565b60405161025094939291906116f8565b60405180910390f35b610273600480360381019061026e9190610f7d565b61095c565b6040516102809190610ff2565b60405180910390f35b6102a3600480360381019061029e919061100d565b610a03565b6040516102b1929190611759565b60405180910390f35b6102d460048036038101906102cf9190611790565b610ab0565b005b6102f060048036038101906102eb9190611847565b610b46565b005b61030c600480360381019061030791906118b6565b610bda565b60405161031b939291906118f6565b60405180910390f35b61033e6004803603810190610339919061100d565b610c8f565b604051610352989796959493929190611934565b60405180910390f35b600260009054906101000a900473ffffffffffffffffffffffffffffffffffffffff1673ffffffffffffffffffffffffffffffffffffffff1663ae8f00d38484846040518463ffffffff1660e01b81526004016103ba939291906118f6565b600060405180830381600087803b1580156103d457600080fd5b505af11580156103e8573d6000803e3d6000fd5b50505050505050565b6000600160009054906101000a900473ffffffffffffffffffffffffffffffffffffffff1673ffffffffffffffffffffffffffffffffffffffff1663a7dba18484846040518363ffffffff1660e01b81526004016104509291906119e3565b602060405180830381865afa15801561046d573d6000803e3d6000fd5b505050506040513d601f19601f820116820180604052508101906104919190611a28565b905092915050565b6000606080606080606080600160009054906101000a900473ffffffffffffffffffffffffffffffffffffffff1673ffffffffffffffffffffffffffffffffffffffff16630f53a470896040518263ffffffff1660e01b81526004016104ff9190611a55565b600060405180830381865afa15801561051c573d6000803e3d6000fd5b505050506040513d6000823e3d601f19601f820116820180604052508101906105459190611af5565b9650965096509650965096509650919395979092949650565b606080606080606080606080600160009054906101000a900473ffffffffffffffffffffffffffffffffffffffff1673ffffffffffffffffffffffffffffffffffffffff1663cfafbc0c6040518163ffffffff1660e01b8152600401600060405180830381865afa1580156105d7573d6000803e3d6000fd5b505050506040513d6000823e3d601f19601f820116820180604052508101906106009190611de8565b975097509750975097509750975097509091929394959697565b60008054906101000a900473ffffffffffffffffffffffffffffffffffffffff1673ffffffffffffffffffffffffffffffffffffffff16639fea8e1089898989898989896040518963ffffffff1660e01b8152600401610681989796959493929190611934565b600060405180830381600087803b15801561069b57600080fd5b505af11580156106af573d6000803e3d6000fd5b505050505050505050505050565b60608060008054906101000a900473ffffffffffffffffffffffffffffffffffffffff1673ffffffffffffffffffffffffffffffffffffffff1663ac4b2049846040518263ffffffff1660e01b81526004016107199190611a55565b600060405180830381865afa158015610736573d6000803e3d6000fd5b505050506040513d6000823e3d601f19601f8201168201806040525081019061075f9190612041565b91509150915091565b600160009054906101000a900473ffffffffffffffffffffffffffffffffffffffff1673ffffffffffffffffffffffffffffffffffffffff1663e045b71089898989898989896040518963ffffffff1660e01b81526004016107d1989796959493929190611934565b600060405180830381600087803b1580156107eb57600080fd5b505af11580156107ff573d6000803e3d6000fd5b505050505050505050505050565b600260009054906101000a900473ffffffffffffffffffffffffffffffffffffffff1673ffffffffffffffffffffffffffffffffffffffff1663dc1e475f858585856040518563ffffffff1660e01b815260040161086e94939291906120b9565b600060405180830381600087803b15801561088857600080fd5b505af115801561089c573d6000803e3d6000fd5b5050505050505050565b606080606080600260009054906101000a900473ffffffffffffffffffffffffffffffffffffffff1673ffffffffffffffffffffffffffffffffffffffff1663381a3bf7866040518263ffffffff1660e01b81526004016109079190611a55565b600060405180830381865afa158015610924573d6000803e3d6000fd5b505050506040513d6000823e3d601f19601f8201168201806040525081019061094d919061210c565b93509350935093509193509193565b60008060009054906101000a900473ffffffffffffffffffffffffffffffffffffffff1673ffffffffffffffffffffffffffffffffffffffff1663174ceeab84846040518363ffffffff1660e01b81526004016109ba9291906119e3565b602060405180830381865afa1580156109d7573d6000803e3d6000fd5b505050506040513d601f19601f820116820180604052508101906109fb9190611a28565b905092915050565b606080600260009054906101000a900473ffffffffffffffffffffffffffffffffffffffff1673ffffffffffffffffffffffffffffffffffffffff1663ce1ec5bb846040518263ffffffff1660e01b8152600401610a619190611a55565b600060405180830381865afa158015610a7e573d6000803e3d6000fd5b505050506040513d6000823e3d601f19601f82011682018060405250810190610aa791906121e3565b91509150915091565b600260009054906101000a900473ffffffffffffffffffffffffffffffffffffffff1673ffffffffffffffffffffffffffffffffffffffff1663cee5c7f38484846040518463ffffffff1660e01b8152600401610b0f9392919061225b565b600060405180830381600087803b158015610b2957600080fd5b505af1158015610b3d573d6000803e3d6000fd5b50505050505050565b60008054906101000a900473ffffffffffffffffffffffffffffffffffffffff1673ffffffffffffffffffffffffffffffffffffffff166360ccb2048484846040518463ffffffff1660e01b8152600401610ba3939291906122a0565b600060405180830381600087803b158015610bbd57600080fd5b505af1158015610bd1573d6000803e3d6000fd5b50505050505050565b6000806060600260009054906101000a900473ffffffffffffffffffffffffffffffffffffffff1673ffffffffffffffffffffffffffffffffffffffff1663e9daa70a86866040518363ffffffff1660e01b8152600401610c3c9291906122de565b600060405180830381865afa158015610c59573d6000803e3d6000fd5b505050506040513d6000823e3d601f19601f82011682018060405250810190610c829190612307565b9250925092509250925092565b6000606080606080606080606060008054906101000a900473ffffffffffffffffffffffffffffffffffffffff1673ffffffffffffffffffffffffffffffffffffffff16630f53a4708a6040518263ffffffff1660e01b8152600401610cf59190611a55565b600060405180830381865afa158015610d12573d6000803e3d6000fd5b505050506040513d6000823e3d601f19601f82011682018060405250810190610d3b9190612376565b97509750975097509750975097509750919395975091939597565b6000604051905090565b600080fd5b600080fd5b600073ffffffffffffffffffffffffffffffffffffffff82169050919050565b6000610d9582610d6a565b9050919050565b610da581610d8a565b8114610db057600080fd5b50565b600081359050610dc281610d9c565b92915050565b600080fd5b600080fd5b6000601f19601f8301169050919050565b7f4e487b7100000000000000000000000000000000000000000000000000000000600052604160045260246000fd5b610e1b82610dd2565b810181811067ffffffffffffffff82111715610e3a57610e39610de3565b5b80604052505050565b6000610e4d610d56565b9050610e598282610e12565b919050565b600067ffffffffffffffff821115610e7957610e78610de3565b5b610e8282610dd2565b9050602081019050919050565b82818337600083830152505050565b6000610eb1610eac84610e5e565b610e43565b905082815260208101848484011115610ecd57610ecc610dcd565b5b610ed8848285610e8f565b509392505050565b600082601f830112610ef557610ef4610dc8565b5b8135610f05848260208601610e9e565b91505092915050565b600080600060608486031215610f2757610f26610d60565b5b6000610f3586828701610db3565b9350506020610f4686828701610db3565b925050604084013567ffffffffffffffff811115610f6757610f66610d65565b5b610f7386828701610ee0565b9150509250925092565b60008060408385031215610f9457610f93610d60565b5b6000610fa285828601610db3565b925050602083013567ffffffffffffffff811115610fc357610fc2610d65565b5b610fcf85828601610ee0565b9150509250929050565b6000819050919050565b610fec81610fd9565b82525050565b60006020820190506110076000830184610fe3565b92915050565b60006020828403121561102357611022610d60565b5b600061103184828501610db3565b91505092915050565b61104381610d8a565b82525050565b600081519050919050565b600082825260208201905092915050565b60005b83811015611083578082015181840152602081019050611068565b83811115611092576000848401525b50505050565b60006110a382611049565b6110ad8185611054565b93506110bd818560208601611065565b6110c681610dd2565b840191505092915050565b600060e0820190506110e6600083018a61103a565b81810360208301526110f88189611098565b9050818103604083015261110c8188611098565b905081810360608301526111208187611098565b905081810360808301526111348186611098565b905081810360a08301526111488185611098565b905081810360c083015261115c8184611098565b905098975050505050505050565b600081519050919050565b600082825260208201905092915050565b6000819050602082019050919050565b61119f81610d8a565b82525050565b60006111b18383611196565b60208301905092915050565b6000602082019050919050565b60006111d58261116a565b6111df8185611175565b93506111ea83611186565b8060005b8381101561121b57815161120288826111a5565b975061120d836111bd565b9250506001810190506111ee565b5085935050505092915050565b600081519050919050565b600082825260208201905092915050565b6000819050602082019050919050565b600082825260208201905092915050565b600061127082611049565b61127a8185611254565b935061128a818560208601611065565b61129381610dd2565b840191505092915050565b60006112aa8383611265565b905092915050565b6000602082019050919050565b60006112ca82611228565b6112d48185611233565b9350836020820285016112e685611244565b8060005b858110156113225784840389528151611303858261129e565b945061130e836112b2565b925060208a019950506001810190506112ea565b50829750879550505050505092915050565b600061010082019050818103600083015261134f818b6111ca565b90508181036020830152611363818a6112bf565b9050818103604083015261137781896112bf565b9050818103606083015261138b81886112bf565b9050818103608083015261139f81876112bf565b905081810360a08301526113b381866112bf565b905081810360c08301526113c781856112bf565b905081810360e08301526113db81846112bf565b90509998505050505050505050565b600080600080600080600080610100898b03121561140b5761140a610d60565b5b60006114198b828c01610db3565b985050602089013567ffffffffffffffff81111561143a57611439610d65565b5b6114468b828c01610ee0565b975050604089013567ffffffffffffffff81111561146757611466610d65565b5b6114738b828c01610ee0565b965050606089013567ffffffffffffffff81111561149457611493610d65565b5b6114a08b828c01610ee0565b955050608089013567ffffffffffffffff8111156114c1576114c0610d65565b5b6114cd8b828c01610ee0565b94505060a089013567ffffffffffffffff8111156114ee576114ed610d65565b5b6114fa8b828c01610ee0565b93505060c089013567ffffffffffffffff81111561151b5761151a610d65565b5b6115278b828c01610ee0565b92505060e089013567ffffffffffffffff81111561154857611547610d65565b5b6115548b828c01610ee0565b9150509295985092959890939650565b600081519050919050565b600082825260208201905092915050565b6000819050602082019050919050565b61159981610fd9565b82525050565b60006115ab8383611590565b60208301905092915050565b6000602082019050919050565b60006115cf82611564565b6115d9818561156f565b93506115e483611580565b8060005b838110156116155781516115fc888261159f565b9750611607836115b7565b9250506001810190506115e8565b5085935050505092915050565b6000604082019050818103600083015261163c81856112bf565b9050818103602083015261165081846115c4565b90509392505050565b6000806000806080858703121561167357611672610d60565b5b600061168187828801610db3565b945050602061169287828801610db3565b935050604085013567ffffffffffffffff8111156116b3576116b2610d65565b5b6116bf87828801610ee0565b925050606085013567ffffffffffffffff8111156116e0576116df610d65565b5b6116ec87828801610ee0565b91505092959194509250565b6000608082019050818103600083015261171281876111ca565b9050818103602083015261172681866111ca565b9050818103604083015261173a81856112bf565b9050818103606083015261174e81846112bf565b905095945050505050565b6000604082019050818103600083015261177381856112bf565b9050818103602083015261178781846112bf565b90509392505050565b6000806000606084860312156117a9576117a8610d60565b5b60006117b786828701610db3565b935050602084013567ffffffffffffffff8111156117d8576117d7610d65565b5b6117e486828701610ee0565b925050604084013567ffffffffffffffff81111561180557611804610d65565b5b61181186828701610ee0565b9150509250925092565b61182481610fd9565b811461182f57600080fd5b50565b6000813590506118418161181b565b92915050565b6000806000606084860312156118605761185f610d60565b5b600061186e86828701610db3565b935050602084013567ffffffffffffffff81111561188f5761188e610d65565b5b61189b86828701610ee0565b92505060406118ac86828701611832565b9150509250925092565b600080604083850312156118cd576118cc610d60565b5b60006118db85828601610db3565b92505060206118ec85828601610db3565b9150509250929050565b600060608201905061190b600083018661103a565b611918602083018561103a565b818103604083015261192a8184611098565b9050949350505050565b60006101008201905061194a600083018b61103a565b818103602083015261195c818a611098565b905081810360408301526119708189611098565b905081810360608301526119848188611098565b905081810360808301526119988187611098565b905081810360a08301526119ac8186611098565b905081810360c08301526119c08185611098565b905081810360e08301526119d48184611098565b90509998505050505050505050565b60006040820190506119f8600083018561103a565b8181036020830152611a0a8184611098565b90509392505050565b600081519050611a228161181b565b92915050565b600060208284031215611a3e57611a3d610d60565b5b6000611a4c84828501611a13565b91505092915050565b6000602082019050611a6a600083018461103a565b92915050565b600081519050611a7f81610d9c565b92915050565b6000611a98611a9384610e5e565b610e43565b905082815260208101848484011115611ab457611ab3610dcd565b5b611abf848285611065565b509392505050565b600082601f830112611adc57611adb610dc8565b5b8151611aec848260208601611a85565b91505092915050565b600080600080600080600060e0888a031215611b1457611b13610d60565b5b6000611b228a828b01611a70565b975050602088015167ffffffffffffffff811115611b4357611b42610d65565b5b611b4f8a828b01611ac7565b965050604088015167ffffffffffffffff811115611b7057611b6f610d65565b5b611b7c8a828b01611ac7565b955050606088015167ffffffffffffffff811115611b9d57611b9c610d65565b5b611ba98a828b01611ac7565b945050608088015167ffffffffffffffff811115611bca57611bc9610d65565b5b611bd68a828b01611ac7565b93505060a088015167ffffffffffffffff811115611bf757611bf6610d65565b5b611c038a828b01611ac7565b92505060c088015167ffffffffffffffff811115611c2457611c23610d65565b5b611c308a828b01611ac7565b91505092959891949750929550565b600067ffffffffffffffff821115611c5a57611c59610de3565b5b602082029050602081019050919050565b600080fd5b6000611c83611c7e84611c3f565b610e43565b90508083825260208201905060208402830185811115611ca657611ca5611c6b565b5b835b81811015611ccf5780611cbb8882611a70565b845260208401935050602081019050611ca8565b5050509392505050565b600082601f830112611cee57611ced610dc8565b5b8151611cfe848260208601611c70565b91505092915050565b600067ffffffffffffffff821115611d2257611d21610de3565b5b602082029050602081019050919050565b6000611d46611d4184611d07565b610e43565b90508083825260208201905060208402830185811115611d6957611d68611c6b565b5b835b81811015611db057805167ffffffffffffffff811115611d8e57611d8d610dc8565b5b808601611d9b8982611ac7565b85526020850194505050602081019050611d6b565b5050509392505050565b600082601f830112611dcf57611dce610dc8565b5b8151611ddf848260208601611d33565b91505092915050565b600080600080600080600080610100898b031215611e0957611e08610d60565b5b600089015167ffffffffffffffff811115611e2757611e26610d65565b5b611e338b828c01611cd9565b985050602089015167ffffffffffffffff811115611e5457611e53610d65565b5b611e608b828c01611dba565b975050604089015167ffffffffffffffff811115611e8157611e80610d65565b5b611e8d8b828c01611dba565b965050606089015167ffffffffffffffff811115611eae57611ead610d65565b5b611eba8b828c01611dba565b955050608089015167ffffffffffffffff811115611edb57611eda610d65565b5b611ee78b828c01611dba565b94505060a089015167ffffffffffffffff811115611f0857611f07610d65565b5b611f148b828c01611dba565b93505060c089015167ffffffffffffffff811115611f3557611f34610d65565b5b611f418b828c01611dba565b92505060e089015167ffffffffffffffff811115611f6257611f61610d65565b5b611f6e8b828c01611dba565b9150509295985092959890939650565b600067ffffffffffffffff821115611f9957611f98610de3565b5b602082029050602081019050919050565b6000611fbd611fb884611f7e565b610e43565b90508083825260208201905060208402830185811115611fe057611fdf611c6b565b5b835b818110156120095780611ff58882611a13565b845260208401935050602081019050611fe2565b5050509392505050565b600082601f83011261202857612027610dc8565b5b8151612038848260208601611faa565b91505092915050565b6000806040838503121561205857612057610d60565b5b600083015167ffffffffffffffff81111561207657612075610d65565b5b61208285828601611dba565b925050602083015167ffffffffffffffff8111156120a3576120a2610d65565b5b6120af85828601612013565b9150509250929050565b60006080820190506120ce600083018761103a565b6120db602083018661103a565b81810360408301526120ed8185611098565b905081810360608301526121018184611098565b905095945050505050565b6000806000806080858703121561212657612125610d60565b5b600085015167ffffffffffffffff81111561214457612143610d65565b5b61215087828801611cd9565b945050602085015167ffffffffffffffff81111561217157612170610d65565b5b61217d87828801611cd9565b935050604085015167ffffffffffffffff81111561219e5761219d610d65565b5b6121aa87828801611dba565b925050606085015167ffffffffffffffff8111156121cb576121ca610d65565b5b6121d787828801611dba565b91505092959194509250565b600080604083850312156121fa576121f9610d60565b5b600083015167ffffffffffffffff81111561221857612217610d65565b5b61222485828601611dba565b925050602083015167ffffffffffffffff81111561224557612244610d65565b5b61225185828601611dba565b9150509250929050565b6000606082019050612270600083018661103a565b81810360208301526122828185611098565b905081810360408301526122968184611098565b9050949350505050565b60006060820190506122b5600083018661103a565b81810360208301526122c78185611098565b90506122d66040830184610fe3565b949350505050565b60006040820190506122f3600083018561103a565b612300602083018461103a565b9392505050565b6000806000606084860312156123205761231f610d60565b5b600061232e86828701611a70565b935050602061233f86828701611a70565b925050604084015167ffffffffffffffff8111156123605761235f610d65565b5b61236c86828701611ac7565b9150509250925092565b600080600080600080600080610100898b03121561239757612396610d60565b5b60006123a58b828c01611a70565b985050602089015167ffffffffffffffff8111156123c6576123c5610d65565b5b6123d28b828c01611ac7565b975050604089015167ffffffffffffffff8111156123f3576123f2610d65565b5b6123ff8b828c01611ac7565b965050606089015167ffffffffffffffff8111156124205761241f610d65565b5b61242c8b828c01611ac7565b955050608089015167ffffffffffffffff81111561244d5761244c610d65565b5b6124598b828c01611ac7565b94505060a089015167ffffffffffffffff81111561247a57612479610d65565b5b6124868b828c01611ac7565b93505060c089015167ffffffffffffffff8111156124a7576124a6610d65565b5b6124b38b828c01611ac7565b92505060e089015167ffffffffffffffff8111156124d4576124d3610d65565b5b6124e08b828c01611ac7565b915050929598509295989093965056fea26469706673582212203b0a53d19833792cb86d0fb4abd4eaa059ee0fe069fe46ca0bc1a812eef66dd764736f6c634300080b0033608060405234801561001057600080fd5b506128e6806100206000396000f3fe608060405234801561001057600080fd5b50600436106100885760003560e01c8063670471071161005b57806367047107146101425780639fea8e1014610179578063ac4b204914610195578063d64b6913146101c657610088565b80630f53a4701461008d578063174ceeab146100c45780633aff2cc5146100f457806360ccb20414610126575b600080fd5b6100a760048036038101906100a29190611d48565b6101eb565b6040516100bb989796959493929190611e1d565b60405180910390f35b6100de60048036038101906100d99190612001565b6107d4565b6040516100eb9190612076565b60405180910390f35b61010e600480360381019061010991906120bd565b6108d2565b60405161011d939291906120ea565b60405180910390f35b610140600480360381019061013b9190612128565b6109b4565b005b61015c600480360381019061015791906120bd565b610ad6565b604051610170989796959493929190611e1d565b60405180910390f35b610193600480360381019061018e9190612197565b610f06565b005b6101af60048036038101906101aa9190611d48565b61109f565b6040516101bd9291906124db565b60405180910390f35b6101ce611307565b6040516101e29897969594939291906125d0565b60405180910390f35b6000606080606080606080606060005b6000805490508110156107c7578973ffffffffffffffffffffffffffffffffffffffff166000828154811061023357610232612686565b5b906000526020600020906008020160000160009054906101000a900473ffffffffffffffffffffffffffffffffffffffff1673ffffffffffffffffffffffffffffffffffffffff1614156107b4576000818154811061029557610294612686565b5b906000526020600020906008020160000160009054906101000a900473ffffffffffffffffffffffffffffffffffffffff16600082815481106102db576102da612686565b5b906000526020600020906008020160010160008381548110610300576102ff612686565b5b90600052602060002090600802016002016000848154811061032557610324612686565b5b90600052602060002090600802016003016000858154811061034a57610349612686565b5b90600052602060002090600802016004016000868154811061036f5761036e612686565b5b90600052602060002090600802016005016000878154811061039457610393612686565b5b9060005260206000209060080201600601600088815481106103b9576103b8612686565b5b90600052602060002090600802016007018680546103d6906126e4565b80601f0160208091040260200160405190810160405280929190818152602001828054610402906126e4565b801561044f5780601f106104245761010080835404028352916020019161044f565b820191906000526020600020905b81548152906001019060200180831161043257829003601f168201915b50505050509650858054610462906126e4565b80601f016020809104026020016040519081016040528092919081815260200182805461048e906126e4565b80156104db5780601f106104b0576101008083540402835291602001916104db565b820191906000526020600020905b8154815290600101906020018083116104be57829003601f168201915b505050505095508480546104ee906126e4565b80601f016020809104026020016040519081016040528092919081815260200182805461051a906126e4565b80156105675780601f1061053c57610100808354040283529160200191610567565b820191906000526020600020905b81548152906001019060200180831161054a57829003601f168201915b5050505050945083805461057a906126e4565b80601f01602080910402602001604051908101604052809291908181526020018280546105a6906126e4565b80156105f35780601f106105c8576101008083540402835291602001916105f3565b820191906000526020600020905b8154815290600101906020018083116105d657829003601f168201915b50505050509350828054610606906126e4565b80601f0160208091040260200160405190810160405280929190818152602001828054610632906126e4565b801561067f5780601f106106545761010080835404028352916020019161067f565b820191906000526020600020905b81548152906001019060200180831161066257829003601f168201915b50505050509250818054610692906126e4565b80601f01602080910402602001604051908101604052809291908181526020018280546106be906126e4565b801561070b5780601f106106e05761010080835404028352916020019161070b565b820191906000526020600020905b8154815290600101906020018083116106ee57829003601f168201915b5050505050915080805461071e906126e4565b80601f016020809104026020016040519081016040528092919081815260200182805461074a906126e4565b80156107975780601f1061076c57610100808354040283529160200191610797565b820191906000526020600020905b81548152906001019060200180831161077a57829003601f168201915b5050505050905098509850985098509850985098509850506107c9565b80806107bf90612745565b9150506101fb565b505b919395975091939597565b600080600090505b6000805490508110156108ca578373ffffffffffffffffffffffffffffffffffffffff166000828154811061081457610813612686565b5b906000526020600020906008020160000160009054906101000a900473ffffffffffffffffffffffffffffffffffffffff1673ffffffffffffffffffffffffffffffffffffffff161480156108a857508280519060200120600082815481106108805761087f612686565b5b906000526020600020906008020160070160405161089e919061282d565b6040518091039020145b156108b75760019150506108cc565b80806108c290612745565b9150506107dc565b505b92915050565b600181815481106108e257600080fd5b90600052602060002090600302016000915090508060000160009054906101000a900473ffffffffffffffffffffffffffffffffffffffff169080600101805461092b906126e4565b80601f0160208091040260200160405190810160405280929190818152602001828054610957906126e4565b80156109a45780601f10610979576101008083540402835291602001916109a4565b820191906000526020600020905b81548152906001019060200180831161098757829003601f168201915b5050505050908060020154905083565b600081101580156109c6575060648111155b610a05576040517f08c379a00000000000000000000000000000000000000000000000000000000081526004016109fc90612890565b60405180910390fd5b600160405180606001604052808573ffffffffffffffffffffffffffffffffffffffff16815260200184815260200183815250908060018154018082558091505060019003906000526020600020906003020160009091909190915060008201518160000160006101000a81548173ffffffffffffffffffffffffffffffffffffffff021916908373ffffffffffffffffffffffffffffffffffffffff1602179055506020820151816001019080519060200190610ac4929190611c33565b50604082015181600201555050505050565b60008181548110610ae657600080fd5b90600052602060002090600802016000915090508060000160009054906101000a900473ffffffffffffffffffffffffffffffffffffffff1690806001018054610b2f906126e4565b80601f0160208091040260200160405190810160405280929190818152602001828054610b5b906126e4565b8015610ba85780601f10610b7d57610100808354040283529160200191610ba8565b820191906000526020600020905b815481529060010190602001808311610b8b57829003601f168201915b505050505090806002018054610bbd906126e4565b80601f0160208091040260200160405190810160405280929190818152602001828054610be9906126e4565b8015610c365780601f10610c0b57610100808354040283529160200191610c36565b820191906000526020600020905b815481529060010190602001808311610c1957829003601f168201915b505050505090806003018054610c4b906126e4565b80601f0160208091040260200160405190810160405280929190818152602001828054610c77906126e4565b8015610cc45780601f10610c9957610100808354040283529160200191610cc4565b820191906000526020600020905b815481529060010190602001808311610ca757829003601f168201915b505050505090806004018054610cd9906126e4565b80601f0160208091040260200160405190810160405280929190818152602001828054610d05906126e4565b8015610d525780601f10610d2757610100808354040283529160200191610d52565b820191906000526020600020905b815481529060010190602001808311610d3557829003601f168201915b505050505090806005018054610d67906126e4565b80601f0160208091040260200160405190810160405280929190818152602001828054610d93906126e4565b8015610de05780601f10610db557610100808354040283529160200191610de0565b820191906000526020600020905b815481529060010190602001808311610dc357829003601f168201915b505050505090806006018054610df5906126e4565b80601f0160208091040260200160405190810160405280929190818152602001828054610e21906126e4565b8015610e6e5780601f10610e4357610100808354040283529160200191610e6e565b820191906000526020600020905b815481529060010190602001808311610e5157829003601f168201915b505050505090806007018054610e83906126e4565b80601f0160208091040260200160405190810160405280929190818152602001828054610eaf906126e4565b8015610efc5780601f10610ed157610100808354040283529160200191610efc565b820191906000526020600020905b815481529060010190602001808311610edf57829003601f168201915b5050505050905088565b60006040518061010001604052808a73ffffffffffffffffffffffffffffffffffffffff16815260200189815260200188815260200187815260200186815260200185815260200184815260200183815250908060018154018082558091505060019003906000526020600020906008020160009091909190915060008201518160000160006101000a81548173ffffffffffffffffffffffffffffffffffffffff021916908373ffffffffffffffffffffffffffffffffffffffff1602179055506020820151816001019080519060200190610fe4929190611c33565b506040820151816002019080519060200190611001929190611c33565b50606082015181600301908051906020019061101e929190611c33565b50608082015181600401908051906020019061103b929190611c33565b5060a0820151816005019080519060200190611058929190611c33565b5060c0820151816006019080519060200190611075929190611c33565b5060e0820151816007019080519060200190611092929190611c33565b5050505050505050505050565b606080600060018054905067ffffffffffffffff8111156110c3576110c2611ed6565b5b6040519080825280602002602001820160405280156110f657816020015b60608152602001906001900390816110e15790505b509050600060018054905067ffffffffffffffff81111561111a57611119611ed6565b5b6040519080825280602002602001820160405280156111485781602001602082028036833780820191505090505b50905060005b6001805490508110156112f9578573ffffffffffffffffffffffffffffffffffffffff166001828154811061118657611185612686565b5b906000526020600020906003020160000160009054906101000a900473ffffffffffffffffffffffffffffffffffffffff1673ffffffffffffffffffffffffffffffffffffffff1614156112e657600181815481106111e8576111e7612686565b5b90600052602060002090600302016001018054611204906126e4565b80601f0160208091040260200160405190810160405280929190818152602001828054611230906126e4565b801561127d5780601f106112525761010080835404028352916020019161127d565b820191906000526020600020905b81548152906001019060200180831161126057829003601f168201915b505050505083828151811061129557611294612686565b5b6020026020010181905250600181815481106112b4576112b3612686565b5b9060005260206000209060030201600201548282815181106112d9576112d8612686565b5b6020026020010181815250505b80806112f190612745565b91505061114e565b508181935093505050915091565b6060806060806060806060806000808054905067ffffffffffffffff81111561133357611332611ed6565b5b6040519080825280602002602001820160405280156113615781602001602082028036833780820191505090505b5090506000808054905067ffffffffffffffff81111561138457611383611ed6565b5b6040519080825280602002602001820160405280156113b757816020015b60608152602001906001900390816113a25790505b5090506000808054905067ffffffffffffffff8111156113da576113d9611ed6565b5b60405190808252806020026020018201604052801561140d57816020015b60608152602001906001900390816113f85790505b5090506000808054905067ffffffffffffffff8111156114305761142f611ed6565b5b60405190808252806020026020018201604052801561146357816020015b606081526020019060019003908161144e5790505b5090506000808054905067ffffffffffffffff81111561148657611485611ed6565b5b6040519080825280602002602001820160405280156114b957816020015b60608152602001906001900390816114a45790505b5090506000808054905067ffffffffffffffff8111156114dc576114db611ed6565b5b60405190808252806020026020018201604052801561150f57816020015b60608152602001906001900390816114fa5790505b5090506000808054905067ffffffffffffffff81111561153257611531611ed6565b5b60405190808252806020026020018201604052801561156557816020015b60608152602001906001900390816115505790505b5090506000808054905067ffffffffffffffff81111561158857611587611ed6565b5b6040519080825280602002602001820160405280156115bb57816020015b60608152602001906001900390816115a65790505b50905060005b600080549050811015611c0857600081815481106115e2576115e1612686565b5b906000526020600020906008020160000160009054906101000a900473ffffffffffffffffffffffffffffffffffffffff1689828151811061162757611626612686565b5b602002602001019073ffffffffffffffffffffffffffffffffffffffff16908173ffffffffffffffffffffffffffffffffffffffff16815250506000818154811061167557611674612686565b5b90600052602060002090600802016001018054611691906126e4565b80601f01602080910402602001604051908101604052809291908181526020018280546116bd906126e4565b801561170a5780601f106116df5761010080835404028352916020019161170a565b820191906000526020600020905b8154815290600101906020018083116116ed57829003601f168201915b505050505088828151811061172257611721612686565b5b60200260200101819052506000818154811061174157611740612686565b5b9060005260206000209060080201600201805461175d906126e4565b80601f0160208091040260200160405190810160405280929190818152602001828054611789906126e4565b80156117d65780601f106117ab576101008083540402835291602001916117d6565b820191906000526020600020905b8154815290600101906020018083116117b957829003601f168201915b50505050508782815181106117ee576117ed612686565b5b60200260200101819052506000818154811061180d5761180c612686565b5b90600052602060002090600802016003018054611829906126e4565b80601f0160208091040260200160405190810160405280929190818152602001828054611855906126e4565b80156118a25780601f10611877576101008083540402835291602001916118a2565b820191906000526020600020905b81548152906001019060200180831161188557829003601f168201915b50505050508682815181106118ba576118b9612686565b5b6020026020010181905250600081815481106118d9576118d8612686565b5b906000526020600020906008020160040180546118f5906126e4565b80601f0160208091040260200160405190810160405280929190818152602001828054611921906126e4565b801561196e5780601f106119435761010080835404028352916020019161196e565b820191906000526020600020905b81548152906001019060200180831161195157829003601f168201915b505050505085828151811061198657611985612686565b5b6020026020010181905250600081815481106119a5576119a4612686565b5b906000526020600020906008020160050180546119c1906126e4565b80601f01602080910402602001604051908101604052809291908181526020018280546119ed906126e4565b8015611a3a5780601f10611a0f57610100808354040283529160200191611a3a565b820191906000526020600020905b815481529060010190602001808311611a1d57829003601f168201915b5050505050848281518110611a5257611a51612686565b5b602002602001018190525060008181548110611a7157611a70612686565b5b90600052602060002090600802016006018054611a8d906126e4565b80601f0160208091040260200160405190810160405280929190818152602001828054611ab9906126e4565b8015611b065780601f10611adb57610100808354040283529160200191611b06565b820191906000526020600020905b815481529060010190602001808311611ae957829003601f168201915b5050505050838281518110611b1e57611b1d612686565b5b602002602001018190525060008181548110611b3d57611b3c612686565b5b90600052602060002090600802016007018054611b59906126e4565b80601f0160208091040260200160405190810160405280929190818152602001828054611b85906126e4565b8015611bd25780601f10611ba757610100808354040283529160200191611bd2565b820191906000526020600020905b815481529060010190602001808311611bb557829003601f168201915b5050505050828281518110611bea57611be9612686565b5b60200260200101819052508080611c0090612745565b9150506115c1565b5087878787878787879f509f509f509f509f509f509f509f5050505050505050509091929394959697565b828054611c3f906126e4565b90600052602060002090601f016020900481019282611c615760008555611ca8565b82601f10611c7a57805160ff1916838001178555611ca8565b82800160010185558215611ca8579182015b82811115611ca7578251825591602001919060010190611c8c565b5b509050611cb59190611cb9565b5090565b5b80821115611cd2576000816000905550600101611cba565b5090565b6000604051905090565b600080fd5b600080fd5b600073ffffffffffffffffffffffffffffffffffffffff82169050919050565b6000611d1582611cea565b9050919050565b611d2581611d0a565b8114611d3057600080fd5b50565b600081359050611d4281611d1c565b92915050565b600060208284031215611d5e57611d5d611ce0565b5b6000611d6c84828501611d33565b91505092915050565b611d7e81611d0a565b82525050565b600081519050919050565b600082825260208201905092915050565b60005b83811015611dbe578082015181840152602081019050611da3565b83811115611dcd576000848401525b50505050565b6000601f19601f8301169050919050565b6000611def82611d84565b611df98185611d8f565b9350611e09818560208601611da0565b611e1281611dd3565b840191505092915050565b600061010082019050611e33600083018b611d75565b8181036020830152611e45818a611de4565b90508181036040830152611e598189611de4565b90508181036060830152611e6d8188611de4565b90508181036080830152611e818187611de4565b905081810360a0830152611e958186611de4565b905081810360c0830152611ea98185611de4565b905081810360e0830152611ebd8184611de4565b90509998505050505050505050565b600080fd5b600080fd5b7f4e487b7100000000000000000000000000000000000000000000000000000000600052604160045260246000fd5b611f0e82611dd3565b810181811067ffffffffffffffff82111715611f2d57611f2c611ed6565b5b80604052505050565b6000611f40611cd6565b9050611f4c8282611f05565b919050565b600067ffffffffffffffff821115611f6c57611f6b611ed6565b5b611f7582611dd3565b9050602081019050919050565b82818337600083830152505050565b6000611fa4611f9f84611f51565b611f36565b905082815260208101848484011115611fc057611fbf611ed1565b5b611fcb848285611f82565b509392505050565b600082601f830112611fe857611fe7611ecc565b5b8135611ff8848260208601611f91565b91505092915050565b6000806040838503121561201857612017611ce0565b5b600061202685828601611d33565b925050602083013567ffffffffffffffff81111561204757612046611ce5565b5b61205385828601611fd3565b9150509250929050565b6000819050919050565b6120708161205d565b82525050565b600060208201905061208b6000830184612067565b92915050565b61209a8161205d565b81146120a557600080fd5b50565b6000813590506120b781612091565b92915050565b6000602082840312156120d3576120d2611ce0565b5b60006120e1848285016120a8565b91505092915050565b60006060820190506120ff6000830186611d75565b81810360208301526121118185611de4565b90506121206040830184612067565b949350505050565b60008060006060848603121561214157612140611ce0565b5b600061214f86828701611d33565b935050602084013567ffffffffffffffff8111156121705761216f611ce5565b5b61217c86828701611fd3565b925050604061218d868287016120a8565b9150509250925092565b600080600080600080600080610100898b0312156121b8576121b7611ce0565b5b60006121c68b828c01611d33565b985050602089013567ffffffffffffffff8111156121e7576121e6611ce5565b5b6121f38b828c01611fd3565b975050604089013567ffffffffffffffff81111561221457612213611ce5565b5b6122208b828c01611fd3565b965050606089013567ffffffffffffffff81111561224157612240611ce5565b5b61224d8b828c01611fd3565b955050608089013567ffffffffffffffff81111561226e5761226d611ce5565b5b61227a8b828c01611fd3565b94505060a089013567ffffffffffffffff81111561229b5761229a611ce5565b5b6122a78b828c01611fd3565b93505060c089013567ffffffffffffffff8111156122c8576122c7611ce5565b5b6122d48b828c01611fd3565b92505060e089013567ffffffffffffffff8111156122f5576122f4611ce5565b5b6123018b828c01611fd3565b9150509295985092959890939650565b600081519050919050565b600082825260208201905092915050565b6000819050602082019050919050565b600082825260208201905092915050565b600061235982611d84565b612363818561233d565b9350612373818560208601611da0565b61237c81611dd3565b840191505092915050565b6000612393838361234e565b905092915050565b6000602082019050919050565b60006123b382612311565b6123bd818561231c565b9350836020820285016123cf8561232d565b8060005b8581101561240b57848403895281516123ec8582612387565b94506123f78361239b565b925060208a019950506001810190506123d3565b50829750879550505050505092915050565b600081519050919050565b600082825260208201905092915050565b6000819050602082019050919050565b6124528161205d565b82525050565b60006124648383612449565b60208301905092915050565b6000602082019050919050565b60006124888261241d565b6124928185612428565b935061249d83612439565b8060005b838110156124ce5781516124b58882612458565b97506124c083612470565b9250506001810190506124a1565b5085935050505092915050565b600060408201905081810360008301526124f581856123a8565b90508181036020830152612509818461247d565b90509392505050565b600081519050919050565b600082825260208201905092915050565b6000819050602082019050919050565b61254781611d0a565b82525050565b6000612559838361253e565b60208301905092915050565b6000602082019050919050565b600061257d82612512565b612587818561251d565b93506125928361252e565b8060005b838110156125c35781516125aa888261254d565b97506125b583612565565b925050600181019050612596565b5085935050505092915050565b60006101008201905081810360008301526125eb818b612572565b905081810360208301526125ff818a6123a8565b9050818103604083015261261381896123a8565b9050818103606083015261262781886123a8565b9050818103608083015261263b81876123a8565b905081810360a083015261264f81866123a8565b905081810360c083015261266381856123a8565b905081810360e083015261267781846123a8565b90509998505050505050505050565b7f4e487b7100000000000000000000000000000000000000000000000000000000600052603260045260246000fd5b7f4e487b7100000000000000000000000000000000000000000000000000000000600052602260045260246000fd5b600060028204905060018216806126fc57607f821691505b602082108114156127105761270f6126b5565b5b50919050565b7f4e487b7100000000000000000000000000000000000000000000000000000000600052601160045260246000fd5b60006127508261205d565b91507fffffffffffffffffffffffffffffffffffffffffffffffffffffffffffffffff82141561278357612782612716565b5b600182019050919050565b600081905092915050565b60008190508160005260206000209050919050565b600081546127bb816126e4565b6127c5818661278e565b945060018216600081146127e057600181146127f157612824565b60ff19831686528186019350612824565b6127fa85612799565b60005b8381101561281c578154818901526001820191506020810190506127fd565b838801955050505b50505092915050565b600061283982846127ae565b915081905092915050565b7f4c6576656c206f6620736b696c6c20696e636f72726563742e00000000000000600082015250565b600061287a601983611d8f565b915061288582612844565b602082019050919050565b600060208201905081810360008301526128a98161286d565b905091905056fea2646970667358221220a7cb8a8e4a9a4c0028fe87f35182d80b4cf439adea4fbe1988344a74d7ef74fd64736f6c634300080b0033608060405234801561001057600080fd5b5061219f806100206000396000f3fe608060405234801561001057600080fd5b50600436106100575760003560e01c80630f53a4701461005c578063a7dba18414610092578063bf44b303146100c2578063cfafbc0c146100f9578063e045b7101461011e575b600080fd5b61007660048036038101906100719190611776565b61013a565b604051610089979695949392919061184b565b60405180910390f35b6100ac60048036038101906100a79190611a19565b61066e565b6040516100b99190611a8e565b60405180910390f35b6100dc60048036038101906100d79190611ad5565b61076c565b6040516100f0989796959493929190611b02565b60405180910390f35b610101610b9c565b604051610115989796959493929190611d7b565b60405180910390f35b61013860048036038101906101339190611e31565b6114c8565b005b600060608060608060608060005b600080549050811015610661578873ffffffffffffffffffffffffffffffffffffffff16600082815481106101805761017f611fab565b5b906000526020600020906008020160000160009054906101000a900473ffffffffffffffffffffffffffffffffffffffff1673ffffffffffffffffffffffffffffffffffffffff16141561064e57600081815481106101e2576101e1611fab565b5b906000526020600020906008020160000160009054906101000a900473ffffffffffffffffffffffffffffffffffffffff166000828154811061022857610227611fab565b5b90600052602060002090600802016001016000838154811061024d5761024c611fab565b5b90600052602060002090600802016002016000848154811061027257610271611fab565b5b90600052602060002090600802016003016000858154811061029757610296611fab565b5b9060005260206000209060080201600401600086815481106102bc576102bb611fab565b5b9060005260206000209060080201600501600087815481106102e1576102e0611fab565b5b90600052602060002090600802016006018580546102fe90612009565b80601f016020809104026020016040519081016040528092919081815260200182805461032a90612009565b80156103775780601f1061034c57610100808354040283529160200191610377565b820191906000526020600020905b81548152906001019060200180831161035a57829003601f168201915b5050505050955084805461038a90612009565b80601f01602080910402602001604051908101604052809291908181526020018280546103b690612009565b80156104035780601f106103d857610100808354040283529160200191610403565b820191906000526020600020905b8154815290600101906020018083116103e657829003601f168201915b5050505050945083805461041690612009565b80601f016020809104026020016040519081016040528092919081815260200182805461044290612009565b801561048f5780601f106104645761010080835404028352916020019161048f565b820191906000526020600020905b81548152906001019060200180831161047257829003601f168201915b505050505093508280546104a290612009565b80601f01602080910402602001604051908101604052809291908181526020018280546104ce90612009565b801561051b5780601f106104f05761010080835404028352916020019161051b565b820191906000526020600020905b8154815290600101906020018083116104fe57829003601f168201915b5050505050925081805461052e90612009565b80601f016020809104026020016040519081016040528092919081815260200182805461055a90612009565b80156105a75780601f1061057c576101008083540402835291602001916105a7565b820191906000526020600020905b81548152906001019060200180831161058a57829003601f168201915b505050505091508080546105ba90612009565b80601f01602080910402602001604051908101604052809291908181526020018280546105e690612009565b80156106335780601f1061060857610100808354040283529160200191610633565b820191906000526020600020905b81548152906001019060200180831161061657829003601f168201915b50505050509050975097509750975097509750975050610663565b80806106599061206a565b915050610148565b505b919395979092949650565b600080600090505b600080549050811015610764578373ffffffffffffffffffffffffffffffffffffffff16600082815481106106ae576106ad611fab565b5b906000526020600020906008020160000160009054906101000a900473ffffffffffffffffffffffffffffffffffffffff1673ffffffffffffffffffffffffffffffffffffffff16148015610742575082805190602001206000828154811061071a57610719611fab565b5b90600052602060002090600802016007016040516107389190612152565b6040518091039020145b15610751576001915050610766565b808061075c9061206a565b915050610676565b505b92915050565b6000818154811061077c57600080fd5b90600052602060002090600802016000915090508060000160009054906101000a900473ffffffffffffffffffffffffffffffffffffffff16908060010180546107c590612009565b80601f01602080910402602001604051908101604052809291908181526020018280546107f190612009565b801561083e5780601f106108135761010080835404028352916020019161083e565b820191906000526020600020905b81548152906001019060200180831161082157829003601f168201915b50505050509080600201805461085390612009565b80601f016020809104026020016040519081016040528092919081815260200182805461087f90612009565b80156108cc5780601f106108a1576101008083540402835291602001916108cc565b820191906000526020600020905b8154815290600101906020018083116108af57829003601f168201915b5050505050908060030180546108e190612009565b80601f016020809104026020016040519081016040528092919081815260200182805461090d90612009565b801561095a5780601f1061092f5761010080835404028352916020019161095a565b820191906000526020600020905b81548152906001019060200180831161093d57829003601f168201915b50505050509080600401805461096f90612009565b80601f016020809104026020016040519081016040528092919081815260200182805461099b90612009565b80156109e85780601f106109bd576101008083540402835291602001916109e8565b820191906000526020600020905b8154815290600101906020018083116109cb57829003601f168201915b5050505050908060050180546109fd90612009565b80601f0160208091040260200160405190810160405280929190818152602001828054610a2990612009565b8015610a765780601f10610a4b57610100808354040283529160200191610a76565b820191906000526020600020905b815481529060010190602001808311610a5957829003601f168201915b505050505090806006018054610a8b90612009565b80601f0160208091040260200160405190810160405280929190818152602001828054610ab790612009565b8015610b045780601f10610ad957610100808354040283529160200191610b04565b820191906000526020600020905b815481529060010190602001808311610ae757829003601f168201915b505050505090806007018054610b1990612009565b80601f0160208091040260200160405190810160405280929190818152602001828054610b4590612009565b8015610b925780601f10610b6757610100808354040283529160200191610b92565b820191906000526020600020905b815481529060010190602001808311610b7557829003601f168201915b5050505050905088565b6060806060806060806060806000808054905067ffffffffffffffff811115610bc857610bc76118ee565b5b604051908082528060200260200182016040528015610bf65781602001602082028036833780820191505090505b5090506000808054905067ffffffffffffffff811115610c1957610c186118ee565b5b604051908082528060200260200182016040528015610c4c57816020015b6060815260200190600190039081610c375790505b5090506000808054905067ffffffffffffffff811115610c6f57610c6e6118ee565b5b604051908082528060200260200182016040528015610ca257816020015b6060815260200190600190039081610c8d5790505b5090506000808054905067ffffffffffffffff811115610cc557610cc46118ee565b5b604051908082528060200260200182016040528015610cf857816020015b6060815260200190600190039081610ce35790505b5090506000808054905067ffffffffffffffff811115610d1b57610d1a6118ee565b5b604051908082528060200260200182016040528015610d4e57816020015b6060815260200190600190039081610d395790505b5090506000808054905067ffffffffffffffff811115610d7157610d706118ee565b5b604051908082528060200260200182016040528015610da457816020015b6060815260200190600190039081610d8f5790505b5090506000808054905067ffffffffffffffff811115610dc757610dc66118ee565b5b604051908082528060200260200182016040528015610dfa57816020015b6060815260200190600190039081610de55790505b5090506000808054905067ffffffffffffffff811115610e1d57610e1c6118ee565b5b604051908082528060200260200182016040528015610e5057816020015b6060815260200190600190039081610e3b5790505b50905060005b60008054905081101561149d5760008181548110610e7757610e76611fab565b5b906000526020600020906008020160000160009054906101000a900473ffffffffffffffffffffffffffffffffffffffff16898281518110610ebc57610ebb611fab565b5b602002602001019073ffffffffffffffffffffffffffffffffffffffff16908173ffffffffffffffffffffffffffffffffffffffff168152505060008181548110610f0a57610f09611fab565b5b90600052602060002090600802016001018054610f2690612009565b80601f0160208091040260200160405190810160405280929190818152602001828054610f5290612009565b8015610f9f5780601f10610f7457610100808354040283529160200191610f9f565b820191906000526020600020905b815481529060010190602001808311610f8257829003601f168201915b5050505050888281518110610fb757610fb6611fab565b5b602002602001018190525060008181548110610fd657610fd5611fab565b5b90600052602060002090600802016002018054610ff290612009565b80601f016020809104026020016040519081016040528092919081815260200182805461101e90612009565b801561106b5780601f106110405761010080835404028352916020019161106b565b820191906000526020600020905b81548152906001019060200180831161104e57829003601f168201915b505050505087828151811061108357611082611fab565b5b6020026020010181905250600081815481106110a2576110a1611fab565b5b906000526020600020906008020160030180546110be90612009565b80601f01602080910402602001604051908101604052809291908181526020018280546110ea90612009565b80156111375780601f1061110c57610100808354040283529160200191611137565b820191906000526020600020905b81548152906001019060200180831161111a57829003601f168201915b505050505086828151811061114f5761114e611fab565b5b60200260200101819052506000818154811061116e5761116d611fab565b5b9060005260206000209060080201600401805461118a90612009565b80601f01602080910402602001604051908101604052809291908181526020018280546111b690612009565b80156112035780601f106111d857610100808354040283529160200191611203565b820191906000526020600020905b8154815290600101906020018083116111e657829003601f168201915b505050505085828151811061121b5761121a611fab565b5b60200260200101819052506000818154811061123a57611239611fab565b5b9060005260206000209060080201600501805461125690612009565b80601f016020809104026020016040519081016040528092919081815260200182805461128290612009565b80156112cf5780601f106112a4576101008083540402835291602001916112cf565b820191906000526020600020905b8154815290600101906020018083116112b257829003601f168201915b50505050508482815181106112e7576112e6611fab565b5b60200260200101819052506000818154811061130657611305611fab565b5b9060005260206000209060080201600601805461132290612009565b80601f016020809104026020016040519081016040528092919081815260200182805461134e90612009565b801561139b5780601f106113705761010080835404028352916020019161139b565b820191906000526020600020905b81548152906001019060200180831161137e57829003601f168201915b50505050508382815181106113b3576113b2611fab565b5b6020026020010181905250600081815481106113d2576113d1611fab565b5b906000526020600020906008020160070180546113ee90612009565b80601f016020809104026020016040519081016040528092919081815260200182805461141a90612009565b80156114675780601f1061143c57610100808354040283529160200191611467565b820191906000526020600020905b81548152906001019060200180831161144a57829003601f168201915b505050505082828151811061147f5761147e611fab565b5b602002602001018190525080806114959061206a565b915050610e56565b5087878787878787879f509f509f509f509f509f509f509f5050505050505050509091929394959697565b60006040518061010001604052808a73ffffffffffffffffffffffffffffffffffffffff16815260200189815260200188815260200187815260200186815260200185815260200184815260200183815250908060018154018082558091505060019003906000526020600020906008020160009091909190915060008201518160000160006101000a81548173ffffffffffffffffffffffffffffffffffffffff021916908373ffffffffffffffffffffffffffffffffffffffff16021790555060208201518160010190805190602001906115a6929190611661565b5060408201518160020190805190602001906115c3929190611661565b5060608201518160030190805190602001906115e0929190611661565b5060808201518160040190805190602001906115fd929190611661565b5060a082015181600501908051906020019061161a929190611661565b5060c0820151816006019080519060200190611637929190611661565b5060e0820151816007019080519060200190611654929190611661565b5050505050505050505050565b82805461166d90612009565b90600052602060002090601f01602090048101928261168f57600085556116d6565b82601f106116a857805160ff19168380011785556116d6565b828001600101855582156116d6579182015b828111156116d55782518255916020019190600101906116ba565b5b5090506116e391906116e7565b5090565b5b808211156117005760008160009055506001016116e8565b5090565b6000604051905090565b600080fd5b600080fd5b600073ffffffffffffffffffffffffffffffffffffffff82169050919050565b600061174382611718565b9050919050565b61175381611738565b811461175e57600080fd5b50565b6000813590506117708161174a565b92915050565b60006020828403121561178c5761178b61170e565b5b600061179a84828501611761565b91505092915050565b6117ac81611738565b82525050565b600081519050919050565b600082825260208201905092915050565b60005b838110156117ec5780820151818401526020810190506117d1565b838111156117fb576000848401525b50505050565b6000601f19601f8301169050919050565b600061181d826117b2565b61182781856117bd565b93506118378185602086016117ce565b61184081611801565b840191505092915050565b600060e082019050611860600083018a6117a3565b81810360208301526118728189611812565b905081810360408301526118868188611812565b9050818103606083015261189a8187611812565b905081810360808301526118ae8186611812565b905081810360a08301526118c28185611812565b905081810360c08301526118d68184611812565b905098975050505050505050565b600080fd5b600080fd5b7f4e487b7100000000000000000000000000000000000000000000000000000000600052604160045260246000fd5b61192682611801565b810181811067ffffffffffffffff82111715611945576119446118ee565b5b80604052505050565b6000611958611704565b9050611964828261191d565b919050565b600067ffffffffffffffff821115611984576119836118ee565b5b61198d82611801565b9050602081019050919050565b82818337600083830152505050565b60006119bc6119b784611969565b61194e565b9050828152602081018484840111156119d8576119d76118e9565b5b6119e384828561199a565b509392505050565b600082601f830112611a00576119ff6118e4565b5b8135611a108482602086016119a9565b91505092915050565b60008060408385031215611a3057611a2f61170e565b5b6000611a3e85828601611761565b925050602083013567ffffffffffffffff811115611a5f57611a5e611713565b5b611a6b858286016119eb565b9150509250929050565b6000819050919050565b611a8881611a75565b82525050565b6000602082019050611aa36000830184611a7f565b92915050565b611ab281611a75565b8114611abd57600080fd5b50565b600081359050611acf81611aa9565b92915050565b600060208284031215611aeb57611aea61170e565b5b6000611af984828501611ac0565b91505092915050565b600061010082019050611b18600083018b6117a3565b8181036020830152611b2a818a611812565b90508181036040830152611b3e8189611812565b90508181036060830152611b528188611812565b90508181036080830152611b668187611812565b905081810360a0830152611b7a8186611812565b905081810360c0830152611b8e8185611812565b905081810360e0830152611ba28184611812565b90509998505050505050505050565b600081519050919050565b600082825260208201905092915050565b6000819050602082019050919050565b611be681611738565b82525050565b6000611bf88383611bdd565b60208301905092915050565b6000602082019050919050565b6000611c1c82611bb1565b611c268185611bbc565b9350611c3183611bcd565b8060005b83811015611c62578151611c498882611bec565b9750611c5483611c04565b925050600181019050611c35565b5085935050505092915050565b600081519050919050565b600082825260208201905092915050565b6000819050602082019050919050565b600082825260208201905092915050565b6000611cb7826117b2565b611cc18185611c9b565b9350611cd18185602086016117ce565b611cda81611801565b840191505092915050565b6000611cf18383611cac565b905092915050565b6000602082019050919050565b6000611d1182611c6f565b611d1b8185611c7a565b935083602082028501611d2d85611c8b565b8060005b85811015611d695784840389528151611d4a8582611ce5565b9450611d5583611cf9565b925060208a01995050600181019050611d31565b50829750879550505050505092915050565b6000610100820190508181036000830152611d96818b611c11565b90508181036020830152611daa818a611d06565b90508181036040830152611dbe8189611d06565b90508181036060830152611dd28188611d06565b90508181036080830152611de68187611d06565b905081810360a0830152611dfa8186611d06565b905081810360c0830152611e0e8185611d06565b905081810360e0830152611e228184611d06565b90509998505050505050505050565b600080600080600080600080610100898b031215611e5257611e5161170e565b5b6000611e608b828c01611761565b985050602089013567ffffffffffffffff811115611e8157611e80611713565b5b611e8d8b828c016119eb565b975050604089013567ffffffffffffffff811115611eae57611ead611713565b5b611eba8b828c016119eb565b965050606089013567ffffffffffffffff811115611edb57611eda611713565b5b611ee78b828c016119eb565b955050608089013567ffffffffffffffff811115611f0857611f07611713565b5b611f148b828c016119eb565b94505060a089013567ffffffffffffffff811115611f3557611f34611713565b5b611f418b828c016119eb565b93505060c089013567ffffffffffffffff811115611f6257611f61611713565b5b611f6e8b828c016119eb565b92505060e089013567ffffffffffffffff811115611f8f57611f8e611713565b5b611f9b8b828c016119eb565b9150509295985092959890939650565b7f4e487b7100000000000000000000000000000000000000000000000000000000600052603260045260246000fd5b7f4e487b7100000000000000000000000000000000000000000000000000000000600052602260045260246000fd5b6000600282049050600182168061202157607f821691505b6020821081141561203557612034611fda565b5b50919050565b7f4e487b7100000000000000000000000000000000000000000000000000000000600052601160045260246000fd5b600061207582611a75565b91507fffffffffffffffffffffffffffffffffffffffffffffffffffffffffffffffff8214156120a8576120a761203b565b5b600182019050919050565b600081905092915050565b60008190508160005260206000209050919050565b600081546120e081612009565b6120ea81866120b3565b94506001821660008114612105576001811461211657612149565b60ff19831686528186019350612149565b61211f856120be565b60005b8381101561214157815481890152600182019150602081019050612122565b838801955050505b50505092915050565b600061215e82846120d3565b91508190509291505056fea26469706673582212206e2d921a26476ea058f323fb37c9fcfdb8be510d722462cc148a9d3bf9719bb364736f6c634300080b0033608060405234801561001057600080fd5b50611d60806100206000396000f3fe608060405234801561001057600080fd5b50600436106100935760003560e01c8063ce1ec5bb11610066578063ce1ec5bb1461014c578063cee5c7f31461017d578063dc1e475f14610199578063e83ddcea146101b5578063e9daa70a146101e757610093565b80630b5e50ed14610098578063381a3bf7146100ca5780637aedcde5146100fd578063ae8f00d314610130575b600080fd5b6100b260048036038101906100ad919061147c565b610219565b6040516100c193929190611583565b60405180910390f35b6100e460048036038101906100df91906115f4565b610383565b6040516100f494939291906117eb565b60405180910390f35b6101176004803603810190610112919061147c565b61084a565b604051610127949392919061184c565b60405180910390f35b61014a600480360381019061014591906119d4565b6109da565b005b610166600480360381019061016191906115f4565b610afe565b604051610174929190611a43565b60405180910390f35b61019760048036038101906101929190611a7a565b610df2565b005b6101b360048036038101906101ae9190611b05565b610ed6565b005b6101cf60048036038101906101ca919061147c565b61101e565b6040516101de93929190611ba4565b60405180910390f35b61020160048036038101906101fc9190611be2565b611120565b60405161021093929190611ba4565b60405180910390f35b6001818154811061022957600080fd5b90600052602060002090600302016000915090508060000160009054906101000a900473ffffffffffffffffffffffffffffffffffffffff169080600101805461027290611c51565b80601f016020809104026020016040519081016040528092919081815260200182805461029e90611c51565b80156102eb5780601f106102c0576101008083540402835291602001916102eb565b820191906000526020600020905b8154815290600101906020018083116102ce57829003601f168201915b50505050509080600201805461030090611c51565b80601f016020809104026020016040519081016040528092919081815260200182805461032c90611c51565b80156103795780601f1061034e57610100808354040283529160200191610379565b820191906000526020600020905b81548152906001019060200180831161035c57829003601f168201915b5050505050905083565b6060806060806000808054905067ffffffffffffffff8111156103a9576103a86118a9565b5b6040519080825280602002602001820160405280156103d75781602001602082028036833780820191505090505b5090506000808054905067ffffffffffffffff8111156103fa576103f96118a9565b5b6040519080825280602002602001820160405280156104285781602001602082028036833780820191505090505b5090506000808054905067ffffffffffffffff81111561044b5761044a6118a9565b5b60405190808252806020026020018201604052801561047e57816020015b60608152602001906001900390816104695790505b5090506000808054905067ffffffffffffffff8111156104a1576104a06118a9565b5b6040519080825280602002602001820160405280156104d457816020015b60608152602001906001900390816104bf5790505b50905060005b600080549050811015610832578973ffffffffffffffffffffffffffffffffffffffff166000828154811061051257610511611c83565b5b906000526020600020906004020160010160009054906101000a900473ffffffffffffffffffffffffffffffffffffffff1673ffffffffffffffffffffffffffffffffffffffff16141561081f576000818154811061057457610573611c83565b5b906000526020600020906004020160000160009054906101000a900473ffffffffffffffffffffffffffffffffffffffff168582815181106105b9576105b8611c83565b5b602002602001019073ffffffffffffffffffffffffffffffffffffffff16908173ffffffffffffffffffffffffffffffffffffffff16815250506000818154811061060757610606611c83565b5b906000526020600020906004020160010160009054906101000a900473ffffffffffffffffffffffffffffffffffffffff1684828151811061064c5761064b611c83565b5b602002602001019073ffffffffffffffffffffffffffffffffffffffff16908173ffffffffffffffffffffffffffffffffffffffff16815250506000818154811061069a57610699611c83565b5b906000526020600020906004020160020180546106b690611c51565b80601f01602080910402602001604051908101604052809291908181526020018280546106e290611c51565b801561072f5780601f106107045761010080835404028352916020019161072f565b820191906000526020600020905b81548152906001019060200180831161071257829003601f168201915b505050505083828151811061074757610746611c83565b5b60200260200101819052506000818154811061076657610765611c83565b5b9060005260206000209060040201600301805461078290611c51565b80601f01602080910402602001604051908101604052809291908181526020018280546107ae90611c51565b80156107fb5780601f106107d0576101008083540402835291602001916107fb565b820191906000526020600020905b8154815290600101906020018083116107de57829003601f168201915b505050505082828151811061081357610812611c83565b5b60200260200101819052505b808061082a90611ce1565b9150506104da565b50838383839750975097509750505050509193509193565b6000818154811061085a57600080fd5b90600052602060002090600402016000915090508060000160009054906101000a900473ffffffffffffffffffffffffffffffffffffffff16908060010160009054906101000a900473ffffffffffffffffffffffffffffffffffffffff16908060020180546108c990611c51565b80601f01602080910402602001604051908101604052809291908181526020018280546108f590611c51565b80156109425780601f1061091757610100808354040283529160200191610942565b820191906000526020600020905b81548152906001019060200180831161092557829003601f168201915b50505050509080600301805461095790611c51565b80601f016020809104026020016040519081016040528092919081815260200182805461098390611c51565b80156109d05780601f106109a5576101008083540402835291602001916109d0565b820191906000526020600020905b8154815290600101906020018083116109b357829003601f168201915b5050505050905084565b600260405180606001604052808573ffffffffffffffffffffffffffffffffffffffff1681526020018473ffffffffffffffffffffffffffffffffffffffff16815260200183815250908060018154018082558091505060019003906000526020600020906003020160009091909190915060008201518160000160006101000a81548173ffffffffffffffffffffffffffffffffffffffff021916908373ffffffffffffffffffffffffffffffffffffffff16021790555060208201518160010160006101000a81548173ffffffffffffffffffffffffffffffffffffffff021916908373ffffffffffffffffffffffffffffffffffffffff1602179055506040820151816002019080519060200190610af692919061138f565b505050505050565b606080600060018054905067ffffffffffffffff811115610b2257610b216118a9565b5b604051908082528060200260200182016040528015610b5557816020015b6060815260200190600190039081610b405790505b509050600060018054905067ffffffffffffffff811115610b7957610b786118a9565b5b604051908082528060200260200182016040528015610bac57816020015b6060815260200190600190039081610b975790505b50905060005b600180549050811015610de4578573ffffffffffffffffffffffffffffffffffffffff1660018281548110610bea57610be9611c83565b5b906000526020600020906003020160000160009054906101000a900473ffffffffffffffffffffffffffffffffffffffff1673ffffffffffffffffffffffffffffffffffffffff161415610dd15760018181548110610c4c57610c4b611c83565b5b90600052602060002090600302016001018054610c6890611c51565b80601f0160208091040260200160405190810160405280929190818152602001828054610c9490611c51565b8015610ce15780601f10610cb657610100808354040283529160200191610ce1565b820191906000526020600020905b815481529060010190602001808311610cc457829003601f168201915b5050505050838281518110610cf957610cf8611c83565b5b602002602001018190525060018181548110610d1857610d17611c83565b5b90600052602060002090600302016002018054610d3490611c51565b80601f0160208091040260200160405190810160405280929190818152602001828054610d6090611c51565b8015610dad5780601f10610d8257610100808354040283529160200191610dad565b820191906000526020600020905b815481529060010190602001808311610d9057829003601f168201915b5050505050828281518110610dc557610dc4611c83565b5b60200260200101819052505b8080610ddc90611ce1565b915050610bb2565b508181935093505050915091565b600160405180606001604052808573ffffffffffffffffffffffffffffffffffffffff16815260200184815260200183815250908060018154018082558091505060019003906000526020600020906003020160009091909190915060008201518160000160006101000a81548173ffffffffffffffffffffffffffffffffffffffff021916908373ffffffffffffffffffffffffffffffffffffffff1602179055506020820151816001019080519060200190610eb192919061138f565b506040820151816002019080519060200190610ece92919061138f565b505050505050565b600060405180608001604052808673ffffffffffffffffffffffffffffffffffffffff1681526020018573ffffffffffffffffffffffffffffffffffffffff16815260200184815260200183815250908060018154018082558091505060019003906000526020600020906004020160009091909190915060008201518160000160006101000a81548173ffffffffffffffffffffffffffffffffffffffff021916908373ffffffffffffffffffffffffffffffffffffffff16021790555060208201518160010160006101000a81548173ffffffffffffffffffffffffffffffffffffffff021916908373ffffffffffffffffffffffffffffffffffffffff1602179055506040820151816002019080519060200190610ff892919061138f565b50606082015181600301908051906020019061101592919061138f565b50505050505050565b6002818154811061102e57600080fd5b90600052602060002090600302016000915090508060000160009054906101000a900473ffffffffffffffffffffffffffffffffffffffff16908060010160009054906101000a900473ffffffffffffffffffffffffffffffffffffffff169080600201805461109d90611c51565b80601f01602080910402602001604051908101604052809291908181526020018280546110c990611c51565b80156111165780601f106110eb57610100808354040283529160200191611116565b820191906000526020600020905b8154815290600101906020018083116110f957829003601f168201915b5050505050905083565b600080606060005b600280549050811015611386578473ffffffffffffffffffffffffffffffffffffffff16600282815481106111605761115f611c83565b5b906000526020600020906003020160010160009054906101000a900473ffffffffffffffffffffffffffffffffffffffff1673ffffffffffffffffffffffffffffffffffffffff1614801561122557508573ffffffffffffffffffffffffffffffffffffffff16600282815481106111db576111da611c83565b5b906000526020600020906003020160000160009054906101000a900473ffffffffffffffffffffffffffffffffffffffff1673ffffffffffffffffffffffffffffffffffffffff16145b15611373576002818154811061123e5761123d611c83565b5b906000526020600020906003020160000160009054906101000a900473ffffffffffffffffffffffffffffffffffffffff166002828154811061128457611283611c83565b5b906000526020600020906003020160010160009054906101000a900473ffffffffffffffffffffffffffffffffffffffff16600283815481106112ca576112c9611c83565b5b90600052602060002090600302016002018080546112e790611c51565b80601f016020809104026020016040519081016040528092919081815260200182805461131390611c51565b80156113605780601f1061133557610100808354040283529160200191611360565b820191906000526020600020905b81548152906001019060200180831161134357829003601f168201915b5050505050905093509350935050611388565b808061137e90611ce1565b915050611128565b505b9250925092565b82805461139b90611c51565b90600052602060002090601f0160209004810192826113bd5760008555611404565b82601f106113d657805160ff1916838001178555611404565b82800160010185558215611404579182015b828111156114035782518255916020019190600101906113e8565b5b5090506114119190611415565b5090565b5b8082111561142e576000816000905550600101611416565b5090565b6000604051905090565b600080fd5b600080fd5b6000819050919050565b61145981611446565b811461146457600080fd5b50565b60008135905061147681611450565b92915050565b6000602082840312156114925761149161143c565b5b60006114a084828501611467565b91505092915050565b600073ffffffffffffffffffffffffffffffffffffffff82169050919050565b60006114d4826114a9565b9050919050565b6114e4816114c9565b82525050565b600081519050919050565b600082825260208201905092915050565b60005b83811015611524578082015181840152602081019050611509565b83811115611533576000848401525b50505050565b6000601f19601f8301169050919050565b6000611555826114ea565b61155f81856114f5565b935061156f818560208601611506565b61157881611539565b840191505092915050565b600060608201905061159860008301866114db565b81810360208301526115aa818561154a565b905081810360408301526115be818461154a565b9050949350505050565b6115d1816114c9565b81146115dc57600080fd5b50565b6000813590506115ee816115c8565b92915050565b60006020828403121561160a5761160961143c565b5b6000611618848285016115df565b91505092915050565b600081519050919050565b600082825260208201905092915050565b6000819050602082019050919050565b611656816114c9565b82525050565b6000611668838361164d565b60208301905092915050565b6000602082019050919050565b600061168c82611621565b611696818561162c565b93506116a18361163d565b8060005b838110156116d25781516116b9888261165c565b97506116c483611674565b9250506001810190506116a5565b5085935050505092915050565b600081519050919050565b600082825260208201905092915050565b6000819050602082019050919050565b600082825260208201905092915050565b6000611727826114ea565b611731818561170b565b9350611741818560208601611506565b61174a81611539565b840191505092915050565b6000611761838361171c565b905092915050565b6000602082019050919050565b6000611781826116df565b61178b81856116ea565b93508360208202850161179d856116fb565b8060005b858110156117d957848403895281516117ba8582611755565b94506117c583611769565b925060208a019950506001810190506117a1565b50829750879550505050505092915050565b600060808201905081810360008301526118058187611681565b905081810360208301526118198186611681565b9050818103604083015261182d8185611776565b905081810360608301526118418184611776565b905095945050505050565b600060808201905061186160008301876114db565b61186e60208301866114db565b8181036040830152611880818561154a565b90508181036060830152611894818461154a565b905095945050505050565b600080fd5b600080fd5b7f4e487b7100000000000000000000000000000000000000000000000000000000600052604160045260246000fd5b6118e182611539565b810181811067ffffffffffffffff82111715611900576118ff6118a9565b5b80604052505050565b6000611913611432565b905061191f82826118d8565b919050565b600067ffffffffffffffff82111561193f5761193e6118a9565b5b61194882611539565b9050602081019050919050565b82818337600083830152505050565b600061197761197284611924565b611909565b905082815260208101848484011115611993576119926118a4565b5b61199e848285611955565b509392505050565b600082601f8301126119bb576119ba61189f565b5b81356119cb848260208601611964565b91505092915050565b6000806000606084860312156119ed576119ec61143c565b5b60006119fb868287016115df565b9350506020611a0c868287016115df565b925050604084013567ffffffffffffffff811115611a2d57611a2c611441565b5b611a39868287016119a6565b9150509250925092565b60006040820190508181036000830152611a5d8185611776565b90508181036020830152611a718184611776565b90509392505050565b600080600060608486031215611a9357611a9261143c565b5b6000611aa1868287016115df565b935050602084013567ffffffffffffffff811115611ac257611ac1611441565b5b611ace868287016119a6565b925050604084013567ffffffffffffffff811115611aef57611aee611441565b5b611afb868287016119a6565b9150509250925092565b60008060008060808587031215611b1f57611b1e61143c565b5b6000611b2d878288016115df565b9450506020611b3e878288016115df565b935050604085013567ffffffffffffffff811115611b5f57611b5e611441565b5b611b6b878288016119a6565b925050606085013567ffffffffffffffff811115611b8c57611b8b611441565b5b611b98878288016119a6565b91505092959194509250565b6000606082019050611bb960008301866114db565b611bc660208301856114db565b8181036040830152611bd8818461154a565b9050949350505050565b60008060408385031215611bf957611bf861143c565b5b6000611c07858286016115df565b9250506020611c18858286016115df565b9150509250929050565b7f4e487b7100000000000000000000000000000000000000000000000000000000600052602260045260246000fd5b60006002820490506001821680611c6957607f821691505b60208210811415611c7d57611c7c611c22565b5b50919050565b7f4e487b7100000000000000000000000000000000000000000000000000000000600052603260045260246000fd5b7f4e487b7100000000000000000000000000000000000000000000000000000000600052601160045260246000fd5b6000611cec82611446565b91507fffffffffffffffffffffffffffffffffffffffffffffffffffffffffffffffff821415611d1f57611d1e611cb2565b5b60018201905091905056fea26469706673582212207928d5689544d31d4763b309ae201ae60d06df712b29da9b5ba3be75ac92ae2464736f6c634300080b0033",
  "immutableReferences": {},
  "source": "// SPDX-License-Identifier: MIT\r\npragma solidity >=0.4.22 <0.9.0;\r\n\r\n//Import cc contract cn thit  s dng\r\nimport \"./SmartCV_ListStudent.sol\";\r\nimport \"./SmartCV_ListBusiness.sol\";\r\nimport \"./SmartCV_Apply.sol\";\r\n\r\n//CV dnh cho sinh vin\r\ncontract Student {\r\n\r\n    //Khai contract  import  s dng cc function  contract \r\n    ListStudent listStudent = new ListStudent();\r\n    ListBusiness listBusiness = new ListBusiness();\r\n    ApplyCV applyCV = new ApplyCV();\r\n\r\n    // ======================================\r\n    // ====== Chc nng cho sinh vin =======\r\n    // ======================================\r\n\r\n    // Chc nng thm thng tin sinh vin (ng k)\r\n    function addStudentProfile (\r\n        address _studentOwner,\r\n        string memory _name,\r\n        string memory _birthDay,\r\n        string memory _professionalTitle,\r\n        string memory _email,\r\n        string memory _github,\r\n        string memory _linkedin,\r\n        string memory _password) public {\r\n            listStudent.addSV(_studentOwner, _name, _birthDay, _professionalTitle, _email, _github, _linkedin, _password);\r\n    }\r\n\r\n    //Chc nng ly thng tin ca sinh vin\r\n    function getStudentProfile(address _studentOwner) public view returns(\r\n        address studentOwner, \r\n        string memory name, \r\n        string memory birthDay, \r\n        string memory professionalTitle, \r\n        string memory email, \r\n        string memory github, \r\n        string memory linkedin,\r\n        string memory password){\r\n            return listStudent.getProfile(_studentOwner);\r\n    }\r\n\r\n    // Chc nng kim tra ti khon sinh vin c tn ti hay khng? (ng nhp)\r\n    function checkStudentProfile(\r\n        address _studentOwner, \r\n        string memory _password) public view returns(uint)  {\r\n            return listStudent.checkSV(_studentOwner, _password);\r\n    }\r\n\r\n    //Chc nng thm thng tin k nng ca sinh vin\r\n    function addStudentSkill (\r\n        address _studentOwner,\r\n        string memory _title, \r\n        uint _level) public {\r\n            listStudent.addSkill(_studentOwner, _title, _level);\r\n    }\r\n\r\n    //Chc nng ly thng tin k nng ca sinh vin\r\n    function getListBusiness() public view returns(\r\n        address[] memory, \r\n        string[] memory, \r\n        string[] memory, \r\n        string[] memory,\r\n        string[] memory, \r\n        string[] memory, \r\n        string[] memory,\r\n        string[] memory)  {\r\n            return listBusiness.getListDN();\r\n    }\r\n\r\n    //Chc nng ly danh sch doanh nghip\r\n    function getStudentSkill(address _studentOwner) public view returns(\r\n        string[] memory,\r\n        uint[] memory)  {\r\n        return listStudent.getSkill(_studentOwner);\r\n    }\r\n\r\n    //Chc nng ly thng tin tuyn dng ca doanh nghip\r\n    function getRecruit(address _businessOwner) public view returns(\r\n        string[] memory, \r\n        string[] memory)  {\r\n        return applyCV.getRecruit(_businessOwner);\r\n    }\r\n\r\n    // //Chc nng gi CV ti doanh nghip\r\n    function sendCV(\r\n        address _studentOwner, \r\n        address _businessOwner, \r\n        string memory _jobTitle, \r\n        string memory _coverLetter) public {\r\n            applyCV.addCV(_studentOwner, _businessOwner, _jobTitle, _coverLetter);\r\n    }\r\n\r\n    // Chc nng xem nh gi thc tp ca doanh nghip\r\n    function getReview(\r\n        address _studentOwner, \r\n        address _businessOwner) public view returns(\r\n            address studentOwner, \r\n            address businessOwner, \r\n            string memory content)  {\r\n                return applyCV.getReview(_studentOwner, _businessOwner);\r\n    }\r\n\r\n    // ======================================\r\n    // ===== Chc nng cho doanh nghip =====\r\n    // ======================================\r\n\r\n    // Chc nng thm thng tin doanh nghip (ng k)\r\n    function addBusinessProfile (\r\n        address _businessOwner,\r\n        string memory _name,\r\n        string memory _country,\r\n        string memory _facebook,\r\n        string memory _website,\r\n        string memory _linkedin,\r\n        string memory _focusArea,\r\n        string memory _password) public {\r\n            listBusiness.addDN(_businessOwner, _name, _country, _facebook, _website, _linkedin, _focusArea, _password);\r\n    }\r\n\r\n    //Chc nng ly thng tin ca doanh nghip\r\n    function getBusinessProfile(address _businessOwner) public view returns(\r\n        address businessOwner, \r\n        string memory name, \r\n        string memory country, \r\n        string memory facebook, \r\n        string memory website, \r\n        string memory linkedin, \r\n        string memory focusArea) {\r\n            return listBusiness.getProfile(_businessOwner);\r\n    }\r\n\r\n    // Chc nng kim tra ti khon doanh nghip c tn ti hay khng? (ng nhp)\r\n    function checkBusinessProfile(\r\n        address _businessOwner, \r\n        string memory _password) public view returns(uint)  {\r\n            return listBusiness.checkDN(_businessOwner, _password);\r\n    }\r\n\r\n    // Chc nng ly danh sch CV  np vo doanh nghip\r\n    function getListCV(address _businessOwner) public view returns(\r\n        address[] memory, \r\n        address[] memory, \r\n        string[] memory, \r\n        string[] memory) {\r\n            return applyCV.getCV(_businessOwner);\r\n    }\r\n\r\n    //Chc nng thm thng tin tuyn dng ca doanh nghip\r\n    function addRecruit(\r\n        address _businessOwner,\r\n        string memory _jobTitle,\r\n        string memory _jobDescription) public {\r\n            applyCV.addRecruit(_businessOwner, _jobTitle, _jobDescription);\r\n    }\r\n\r\n    // Chc nng nh gi thc tp cho sinh vin\r\n    function sendReview(\r\n        address _studentOwner, \r\n        address _businessOwner, \r\n        string memory _content) public {\r\n            applyCV.addReview(_studentOwner, _businessOwner, _content);\r\n    }\r\n}",
  "sourcePath": "C:\\Users\\19520\\Documents\\NCKH_Blockchain\\SolidityProgramming\\ProjectResearch\\SmartCV\\SmartContract\\contracts\\SmartCV_Student_Business.sol",
  "compiler": {
    "name": "solc",
    "version": "0.8.11+commit.d7f03943.Emscripten.clang"
  },
  "schemaVersion": "3.4.4",
  "updatedAt": "2022-07-07T15:07:21.098Z",
  "networkType": "ethereum",
  "devdoc": {
    "kind": "dev",
    "methods": {},
    "version": 1
  },
  "userdoc": {
    "kind": "user",
    "methods": {},
    "version": 1
  }
}