{
  "contractName": "Student",
  "abi": [
    {
      "inputs": [],
      "stateMutability": "nonpayable",
      "type": "constructor"
    },
    {
      "inputs": [],
      "name": "getSender",
      "outputs": [
        {
          "internalType": "address",
          "name": "",
          "type": "address"
        }
      ],
      "stateMutability": "view",
      "type": "function",
      "constant": true
    },
    {
      "inputs": [
        {
          "internalType": "address",
          "name": "_studentOwner",
          "type": "address"
        },
        {
          "internalType": "string",
          "name": "_name",
          "type": "string"
        },
        {
          "internalType": "string",
          "name": "_birthDay",
          "type": "string"
        },
        {
          "internalType": "string",
          "name": "_professionalTitle",
          "type": "string"
        },
        {
          "internalType": "string",
          "name": "_email",
          "type": "string"
        },
        {
          "internalType": "string",
          "name": "_github",
          "type": "string"
        },
        {
          "internalType": "string",
          "name": "_linked",
          "type": "string"
        },
        {
          "internalType": "string",
          "name": "_password",
          "type": "string"
        }
      ],
      "name": "addStudentProfile",
      "outputs": [],
      "stateMutability": "nonpayable",
      "type": "function"
    },
    {
      "inputs": [
        {
          "internalType": "address",
          "name": "_studentOwner",
          "type": "address"
        }
      ],
      "name": "getStudentProfile",
      "outputs": [
        {
          "internalType": "address",
          "name": "studentOwner",
          "type": "address"
        },
        {
          "internalType": "string",
          "name": "name",
          "type": "string"
        },
        {
          "internalType": "string",
          "name": "birthDay",
          "type": "string"
        },
        {
          "internalType": "string",
          "name": "professionalTitle",
          "type": "string"
        },
        {
          "internalType": "string",
          "name": "email",
          "type": "string"
        },
        {
          "internalType": "string",
          "name": "github",
          "type": "string"
        },
        {
          "internalType": "string",
          "name": "linkedin",
          "type": "string"
        },
        {
          "internalType": "string",
          "name": "password",
          "type": "string"
        }
      ],
      "stateMutability": "view",
      "type": "function",
      "constant": true
    },
    {
      "inputs": [
        {
          "internalType": "address",
          "name": "_studentOwner",
          "type": "address"
        },
        {
          "internalType": "string",
          "name": "_password",
          "type": "string"
        }
      ],
      "name": "checkStudentProfile",
      "outputs": [
        {
          "internalType": "uint256",
          "name": "",
          "type": "uint256"
        }
      ],
      "stateMutability": "view",
      "type": "function",
      "constant": true
    },
    {
      "inputs": [
        {
          "internalType": "address",
          "name": "_studentOwner",
          "type": "address"
        },
        {
          "internalType": "string",
          "name": "_title",
          "type": "string"
        },
        {
          "internalType": "uint256",
          "name": "_level",
          "type": "uint256"
        }
      ],
      "name": "addStudentSkill",
      "outputs": [],
      "stateMutability": "nonpayable",
      "type": "function"
    },
    {
      "inputs": [
        {
          "internalType": "address",
          "name": "_studentOwner",
          "type": "address"
        }
      ],
      "name": "getStudentSkill",
      "outputs": [
        {
          "internalType": "string[]",
          "name": "",
          "type": "string[]"
        },
        {
          "internalType": "uint256[]",
          "name": "",
          "type": "uint256[]"
        }
      ],
      "stateMutability": "view",
      "type": "function",
      "constant": true
    },
    {
      "inputs": [
        {
          "internalType": "address",
          "name": "_studentOwner",
          "type": "address"
        },
        {
          "internalType": "address",
          "name": "_businessOwner",
          "type": "address"
        }
      ],
      "name": "sendCV",
      "outputs": [],
      "stateMutability": "nonpayable",
      "type": "function"
    },
    {
      "inputs": [
        {
          "internalType": "address",
          "name": "_businessOwner",
          "type": "address"
        },
        {
          "internalType": "string",
          "name": "_name",
          "type": "string"
        },
        {
          "internalType": "string",
          "name": "_country",
          "type": "string"
        },
        {
          "internalType": "string",
          "name": "_facebook",
          "type": "string"
        },
        {
          "internalType": "string",
          "name": "_website",
          "type": "string"
        },
        {
          "internalType": "string",
          "name": "_linkedin",
          "type": "string"
        },
        {
          "internalType": "string",
          "name": "_focusArea",
          "type": "string"
        }
      ],
      "name": "addBusinessProfile",
      "outputs": [],
      "stateMutability": "nonpayable",
      "type": "function"
    },
    {
      "inputs": [
        {
          "internalType": "address",
          "name": "_businessOwner",
          "type": "address"
        }
      ],
      "name": "getBusinessProfile",
      "outputs": [
        {
          "internalType": "address",
          "name": "businessOwner",
          "type": "address"
        },
        {
          "internalType": "string",
          "name": "name",
          "type": "string"
        },
        {
          "internalType": "string",
          "name": "country",
          "type": "string"
        },
        {
          "internalType": "string",
          "name": "facebook",
          "type": "string"
        },
        {
          "internalType": "string",
          "name": "website",
          "type": "string"
        },
        {
          "internalType": "string",
          "name": "linkedin",
          "type": "string"
        },
        {
          "internalType": "string",
          "name": "focusArea",
          "type": "string"
        }
      ],
      "stateMutability": "view",
      "type": "function",
      "constant": true
    },
    {
      "inputs": [
        {
          "internalType": "address",
          "name": "_businessOwner",
          "type": "address"
        }
      ],
      "name": "getListCV",
      "outputs": [
        {
          "internalType": "address[]",
          "name": "",
          "type": "address[]"
        },
        {
          "internalType": "address[]",
          "name": "",
          "type": "address[]"
        }
      ],
      "stateMutability": "view",
      "type": "function",
      "constant": true
    }
  ],
  "bytecode": "0x608060405260405162000012906200019c565b604051809103906000f0801580156200002f573d6000803e3d6000fd5b50600260006101000a81548173ffffffffffffffffffffffffffffffffffffffff021916908373ffffffffffffffffffffffffffffffffffffffff1602179055506040516200007e90620001aa565b604051809103906000f0801580156200009b573d6000803e3d6000fd5b50600360006101000a81548173ffffffffffffffffffffffffffffffffffffffff021916908373ffffffffffffffffffffffffffffffffffffffff160217905550604051620000ea90620001b8565b604051809103906000f08015801562000107573d6000803e3d6000fd5b50600460006101000a81548173ffffffffffffffffffffffffffffffffffffffff021916908373ffffffffffffffffffffffffffffffffffffffff1602179055503480156200015557600080fd5b50336000806101000a81548173ffffffffffffffffffffffffffffffffffffffff021916908373ffffffffffffffffffffffffffffffffffffffff160217905550620001c6565b6129068062001ce783390190565b611c7880620045ed83390190565b61083a806200626583390190565b611b1180620001d66000396000f3fe608060405234801561001057600080fd5b506004361061009e5760003560e01c80639cd32582116100665780639cd3258214610160578063acf6f3fd14610191578063b5d95096146101c1578063e2f43af2146101dd578063fe761783146101f95761009e565b806342f08d4b146100a35780635b288a93146100d95780635e01eb5a146100f557806366b40682146101135780636b4dbb281461012f575b600080fd5b6100bd60048036038101906100b891906108cb565b610230565b6040516100d097969594939291906109a0565b60405180910390f35b6100f360048036038101906100ee9190610b6e565b6102f5565b005b6100fd61039a565b60405161010a9190610ce8565b60405180910390f35b61012d60048036038101906101289190610d03565b6103c3565b005b610149600480360381019061014491906108cb565b610456565b604051610157929190610f17565b60405180910390f35b61017a600480360381019061017591906108cb565b610503565b60405161018892919061100c565b60405180910390f35b6101ab60048036038101906101a69190611043565b6105b0565b6040516101b891906110ae565b60405180910390f35b6101db60048036038101906101d691906110c9565b610658565b005b6101f760048036038101906101f2919061123f565b6106fa565b005b610213600480360381019061020e91906108cb565b610790565b6040516102279897969594939291906112ae565b60405180910390f35b6000606080606080606080600360009054906101000a900473ffffffffffffffffffffffffffffffffffffffff1673ffffffffffffffffffffffffffffffffffffffff16630f53a470896040518263ffffffff1660e01b81526004016102969190610ce8565b600060405180830381865afa1580156102b3573d6000803e3d6000fd5b505050506040513d6000823e3d601f19601f820116820180604052508101906102dc91906113e2565b9650965096509650965096509650919395979092949650565b600260009054906101000a900473ffffffffffffffffffffffffffffffffffffffff1673ffffffffffffffffffffffffffffffffffffffff16639fea8e1089898989898989896040518963ffffffff1660e01b815260040161035e9897969594939291906112ae565b600060405180830381600087803b15801561037857600080fd5b505af115801561038c573d6000803e3d6000fd5b505050505050505050505050565b60008060009054906101000a900473ffffffffffffffffffffffffffffffffffffffff16905090565b600460009054906101000a900473ffffffffffffffffffffffffffffffffffffffff1673ffffffffffffffffffffffffffffffffffffffff16630b88dd5583836040518363ffffffff1660e01b815260040161042092919061152c565b600060405180830381600087803b15801561043a57600080fd5b505af115801561044e573d6000803e3d6000fd5b505050505050565b606080600260009054906101000a900473ffffffffffffffffffffffffffffffffffffffff1673ffffffffffffffffffffffffffffffffffffffff1663ac4b2049846040518263ffffffff1660e01b81526004016104b49190610ce8565b600060405180830381865afa1580156104d1573d6000803e3d6000fd5b505050506040513d6000823e3d601f19601f820116820180604052508101906104fa9190611713565b91509150915091565b606080600460009054906101000a900473ffffffffffffffffffffffffffffffffffffffff1673ffffffffffffffffffffffffffffffffffffffff1663381a3bf7846040518263ffffffff1660e01b81526004016105619190610ce8565b600060405180830381865afa15801561057e573d6000803e3d6000fd5b505050506040513d6000823e3d601f19601f820116820180604052508101906105a7919061184e565b91509150915091565b6000600260009054906101000a900473ffffffffffffffffffffffffffffffffffffffff1673ffffffffffffffffffffffffffffffffffffffff1663174ceeab84846040518363ffffffff1660e01b815260040161060f9291906118c6565b602060405180830381865afa15801561062c573d6000803e3d6000fd5b505050506040513d601f19601f8201168201806040525081019061065091906118f6565b905092915050565b600360009054906101000a900473ffffffffffffffffffffffffffffffffffffffff1673ffffffffffffffffffffffffffffffffffffffff16631ed6aeec888888888888886040518863ffffffff1660e01b81526004016106bf97969594939291906109a0565b600060405180830381600087803b1580156106d957600080fd5b505af11580156106ed573d6000803e3d6000fd5b5050505050505050505050565b600260009054906101000a900473ffffffffffffffffffffffffffffffffffffffff1673ffffffffffffffffffffffffffffffffffffffff166360ccb2048484846040518463ffffffff1660e01b815260040161075993929190611923565b600060405180830381600087803b15801561077357600080fd5b505af1158015610787573d6000803e3d6000fd5b50505050505050565b60006060806060806060806060600260009054906101000a900473ffffffffffffffffffffffffffffffffffffffff1673ffffffffffffffffffffffffffffffffffffffff16630f53a4708a6040518263ffffffff1660e01b81526004016107f89190610ce8565b600060405180830381865afa158015610815573d6000803e3d6000fd5b505050506040513d6000823e3d601f19601f8201168201806040525081019061083e9190611961565b97509750975097509750975097509750919395975091939597565b6000604051905090565b600080fd5b600080fd5b600073ffffffffffffffffffffffffffffffffffffffff82169050919050565b60006108988261086d565b9050919050565b6108a88161088d565b81146108b357600080fd5b50565b6000813590506108c58161089f565b92915050565b6000602082840312156108e1576108e0610863565b5b60006108ef848285016108b6565b91505092915050565b6109018161088d565b82525050565b600081519050919050565b600082825260208201905092915050565b60005b83811015610941578082015181840152602081019050610926565b83811115610950576000848401525b50505050565b6000601f19601f8301169050919050565b600061097282610907565b61097c8185610912565b935061098c818560208601610923565b61099581610956565b840191505092915050565b600060e0820190506109b5600083018a6108f8565b81810360208301526109c78189610967565b905081810360408301526109db8188610967565b905081810360608301526109ef8187610967565b90508181036080830152610a038186610967565b905081810360a0830152610a178185610967565b905081810360c0830152610a2b8184610967565b905098975050505050505050565b600080fd5b600080fd5b7f4e487b7100000000000000000000000000000000000000000000000000000000600052604160045260246000fd5b610a7b82610956565b810181811067ffffffffffffffff82111715610a9a57610a99610a43565b5b80604052505050565b6000610aad610859565b9050610ab98282610a72565b919050565b600067ffffffffffffffff821115610ad957610ad8610a43565b5b610ae282610956565b9050602081019050919050565b82818337600083830152505050565b6000610b11610b0c84610abe565b610aa3565b905082815260208101848484011115610b2d57610b2c610a3e565b5b610b38848285610aef565b509392505050565b600082601f830112610b5557610b54610a39565b5b8135610b65848260208601610afe565b91505092915050565b600080600080600080600080610100898b031215610b8f57610b8e610863565b5b6000610b9d8b828c016108b6565b985050602089013567ffffffffffffffff811115610bbe57610bbd610868565b5b610bca8b828c01610b40565b975050604089013567ffffffffffffffff811115610beb57610bea610868565b5b610bf78b828c01610b40565b965050606089013567ffffffffffffffff811115610c1857610c17610868565b5b610c248b828c01610b40565b955050608089013567ffffffffffffffff811115610c4557610c44610868565b5b610c518b828c01610b40565b94505060a089013567ffffffffffffffff811115610c7257610c71610868565b5b610c7e8b828c01610b40565b93505060c089013567ffffffffffffffff811115610c9f57610c9e610868565b5b610cab8b828c01610b40565b92505060e089013567ffffffffffffffff811115610ccc57610ccb610868565b5b610cd88b828c01610b40565b9150509295985092959890939650565b6000602082019050610cfd60008301846108f8565b92915050565b60008060408385031215610d1a57610d19610863565b5b6000610d28858286016108b6565b9250506020610d39858286016108b6565b9150509250929050565b600081519050919050565b600082825260208201905092915050565b6000819050602082019050919050565b600082825260208201905092915050565b6000610d8b82610907565b610d958185610d6f565b9350610da5818560208601610923565b610dae81610956565b840191505092915050565b6000610dc58383610d80565b905092915050565b6000602082019050919050565b6000610de582610d43565b610def8185610d4e565b935083602082028501610e0185610d5f565b8060005b85811015610e3d5784840389528151610e1e8582610db9565b9450610e2983610dcd565b925060208a01995050600181019050610e05565b50829750879550505050505092915050565b600081519050919050565b600082825260208201905092915050565b6000819050602082019050919050565b6000819050919050565b610e8e81610e7b565b82525050565b6000610ea08383610e85565b60208301905092915050565b6000602082019050919050565b6000610ec482610e4f565b610ece8185610e5a565b9350610ed983610e6b565b8060005b83811015610f0a578151610ef18882610e94565b9750610efc83610eac565b925050600181019050610edd565b5085935050505092915050565b60006040820190508181036000830152610f318185610dda565b90508181036020830152610f458184610eb9565b90509392505050565b600081519050919050565b600082825260208201905092915050565b6000819050602082019050919050565b610f838161088d565b82525050565b6000610f958383610f7a565b60208301905092915050565b6000602082019050919050565b6000610fb982610f4e565b610fc38185610f59565b9350610fce83610f6a565b8060005b83811015610fff578151610fe68882610f89565b9750610ff183610fa1565b925050600181019050610fd2565b5085935050505092915050565b600060408201905081810360008301526110268185610fae565b9050818103602083015261103a8184610fae565b90509392505050565b6000806040838503121561105a57611059610863565b5b6000611068858286016108b6565b925050602083013567ffffffffffffffff81111561108957611088610868565b5b61109585828601610b40565b9150509250929050565b6110a881610e7b565b82525050565b60006020820190506110c3600083018461109f565b92915050565b600080600080600080600060e0888a0312156110e8576110e7610863565b5b60006110f68a828b016108b6565b975050602088013567ffffffffffffffff81111561111757611116610868565b5b6111238a828b01610b40565b965050604088013567ffffffffffffffff81111561114457611143610868565b5b6111508a828b01610b40565b955050606088013567ffffffffffffffff81111561117157611170610868565b5b61117d8a828b01610b40565b945050608088013567ffffffffffffffff81111561119e5761119d610868565b5b6111aa8a828b01610b40565b93505060a088013567ffffffffffffffff8111156111cb576111ca610868565b5b6111d78a828b01610b40565b92505060c088013567ffffffffffffffff8111156111f8576111f7610868565b5b6112048a828b01610b40565b91505092959891949750929550565b61121c81610e7b565b811461122757600080fd5b50565b60008135905061123981611213565b92915050565b60008060006060848603121561125857611257610863565b5b6000611266868287016108b6565b935050602084013567ffffffffffffffff81111561128757611286610868565b5b61129386828701610b40565b92505060406112a48682870161122a565b9150509250925092565b6000610100820190506112c4600083018b6108f8565b81810360208301526112d6818a610967565b905081810360408301526112ea8189610967565b905081810360608301526112fe8188610967565b905081810360808301526113128187610967565b905081810360a08301526113268186610967565b905081810360c083015261133a8185610967565b905081810360e083015261134e8184610967565b90509998505050505050505050565b60008151905061136c8161089f565b92915050565b600061138561138084610abe565b610aa3565b9050828152602081018484840111156113a1576113a0610a3e565b5b6113ac848285610923565b509392505050565b600082601f8301126113c9576113c8610a39565b5b81516113d9848260208601611372565b91505092915050565b600080600080600080600060e0888a03121561140157611400610863565b5b600061140f8a828b0161135d565b975050602088015167ffffffffffffffff8111156114305761142f610868565b5b61143c8a828b016113b4565b965050604088015167ffffffffffffffff81111561145d5761145c610868565b5b6114698a828b016113b4565b955050606088015167ffffffffffffffff81111561148a57611489610868565b5b6114968a828b016113b4565b945050608088015167ffffffffffffffff8111156114b7576114b6610868565b5b6114c38a828b016113b4565b93505060a088015167ffffffffffffffff8111156114e4576114e3610868565b5b6114f08a828b016113b4565b92505060c088015167ffffffffffffffff81111561151157611510610868565b5b61151d8a828b016113b4565b91505092959891949750929550565b600060408201905061154160008301856108f8565b61154e60208301846108f8565b9392505050565b600067ffffffffffffffff8211156115705761156f610a43565b5b602082029050602081019050919050565b600080fd5b600061159961159484611555565b610aa3565b905080838252602082019050602084028301858111156115bc576115bb611581565b5b835b8181101561160357805167ffffffffffffffff8111156115e1576115e0610a39565b5b8086016115ee89826113b4565b855260208501945050506020810190506115be565b5050509392505050565b600082601f83011261162257611621610a39565b5b8151611632848260208601611586565b91505092915050565b600067ffffffffffffffff82111561165657611655610a43565b5b602082029050602081019050919050565b60008151905061167681611213565b92915050565b600061168f61168a8461163b565b610aa3565b905080838252602082019050602084028301858111156116b2576116b1611581565b5b835b818110156116db57806116c78882611667565b8452602084019350506020810190506116b4565b5050509392505050565b600082601f8301126116fa576116f9610a39565b5b815161170a84826020860161167c565b91505092915050565b6000806040838503121561172a57611729610863565b5b600083015167ffffffffffffffff81111561174857611747610868565b5b6117548582860161160d565b925050602083015167ffffffffffffffff81111561177557611774610868565b5b611781858286016116e5565b9150509250929050565b600067ffffffffffffffff8211156117a6576117a5610a43565b5b602082029050602081019050919050565b60006117ca6117c58461178b565b610aa3565b905080838252602082019050602084028301858111156117ed576117ec611581565b5b835b818110156118165780611802888261135d565b8452602084019350506020810190506117ef565b5050509392505050565b600082601f83011261183557611834610a39565b5b81516118458482602086016117b7565b91505092915050565b6000806040838503121561186557611864610863565b5b600083015167ffffffffffffffff81111561188357611882610868565b5b61188f85828601611820565b925050602083015167ffffffffffffffff8111156118b0576118af610868565b5b6118bc85828601611820565b9150509250929050565b60006040820190506118db60008301856108f8565b81810360208301526118ed8184610967565b90509392505050565b60006020828403121561190c5761190b610863565b5b600061191a84828501611667565b91505092915050565b600060608201905061193860008301866108f8565b818103602083015261194a8185610967565b9050611959604083018461109f565b949350505050565b600080600080600080600080610100898b03121561198257611981610863565b5b60006119908b828c0161135d565b985050602089015167ffffffffffffffff8111156119b1576119b0610868565b5b6119bd8b828c016113b4565b975050604089015167ffffffffffffffff8111156119de576119dd610868565b5b6119ea8b828c016113b4565b965050606089015167ffffffffffffffff811115611a0b57611a0a610868565b5b611a178b828c016113b4565b955050608089015167ffffffffffffffff811115611a3857611a37610868565b5b611a448b828c016113b4565b94505060a089015167ffffffffffffffff811115611a6557611a64610868565b5b611a718b828c016113b4565b93505060c089015167ffffffffffffffff811115611a9257611a91610868565b5b611a9e8b828c016113b4565b92505060e089015167ffffffffffffffff811115611abf57611abe610868565b5b611acb8b828c016113b4565b915050929598509295989093965056fea26469706673582212200e0e53bcdecf3ffc7e354880b05be0d21d43301ac6a10963d5a3cc9b2aa5779664736f6c634300080b0033608060405234801561001057600080fd5b506128e6806100206000396000f3fe608060405234801561001057600080fd5b50600436106100885760003560e01c8063670471071161005b57806367047107146101425780639fea8e1014610179578063ac4b204914610195578063d64b6913146101c657610088565b80630f53a4701461008d578063174ceeab146100c45780633aff2cc5146100f457806360ccb20414610126575b600080fd5b6100a760048036038101906100a29190611d48565b6101eb565b6040516100bb989796959493929190611e1d565b60405180910390f35b6100de60048036038101906100d99190612001565b6107d4565b6040516100eb9190612076565b60405180910390f35b61010e600480360381019061010991906120bd565b6108d2565b60405161011d939291906120ea565b60405180910390f35b610140600480360381019061013b9190612128565b6109b4565b005b61015c600480360381019061015791906120bd565b610ad6565b604051610170989796959493929190611e1d565b60405180910390f35b610193600480360381019061018e9190612197565b610f06565b005b6101af60048036038101906101aa9190611d48565b61109f565b6040516101bd9291906124db565b60405180910390f35b6101ce611307565b6040516101e29897969594939291906125d0565b60405180910390f35b6000606080606080606080606060005b6000805490508110156107c7578973ffffffffffffffffffffffffffffffffffffffff166000828154811061023357610232612686565b5b906000526020600020906008020160000160009054906101000a900473ffffffffffffffffffffffffffffffffffffffff1673ffffffffffffffffffffffffffffffffffffffff1614156107b4576000818154811061029557610294612686565b5b906000526020600020906008020160000160009054906101000a900473ffffffffffffffffffffffffffffffffffffffff16600082815481106102db576102da612686565b5b906000526020600020906008020160010160008381548110610300576102ff612686565b5b90600052602060002090600802016002016000848154811061032557610324612686565b5b90600052602060002090600802016003016000858154811061034a57610349612686565b5b90600052602060002090600802016004016000868154811061036f5761036e612686565b5b90600052602060002090600802016005016000878154811061039457610393612686565b5b9060005260206000209060080201600601600088815481106103b9576103b8612686565b5b90600052602060002090600802016007018680546103d6906126e4565b80601f0160208091040260200160405190810160405280929190818152602001828054610402906126e4565b801561044f5780601f106104245761010080835404028352916020019161044f565b820191906000526020600020905b81548152906001019060200180831161043257829003601f168201915b50505050509650858054610462906126e4565b80601f016020809104026020016040519081016040528092919081815260200182805461048e906126e4565b80156104db5780601f106104b0576101008083540402835291602001916104db565b820191906000526020600020905b8154815290600101906020018083116104be57829003601f168201915b505050505095508480546104ee906126e4565b80601f016020809104026020016040519081016040528092919081815260200182805461051a906126e4565b80156105675780601f1061053c57610100808354040283529160200191610567565b820191906000526020600020905b81548152906001019060200180831161054a57829003601f168201915b5050505050945083805461057a906126e4565b80601f01602080910402602001604051908101604052809291908181526020018280546105a6906126e4565b80156105f35780601f106105c8576101008083540402835291602001916105f3565b820191906000526020600020905b8154815290600101906020018083116105d657829003601f168201915b50505050509350828054610606906126e4565b80601f0160208091040260200160405190810160405280929190818152602001828054610632906126e4565b801561067f5780601f106106545761010080835404028352916020019161067f565b820191906000526020600020905b81548152906001019060200180831161066257829003601f168201915b50505050509250818054610692906126e4565b80601f01602080910402602001604051908101604052809291908181526020018280546106be906126e4565b801561070b5780601f106106e05761010080835404028352916020019161070b565b820191906000526020600020905b8154815290600101906020018083116106ee57829003601f168201915b5050505050915080805461071e906126e4565b80601f016020809104026020016040519081016040528092919081815260200182805461074a906126e4565b80156107975780601f1061076c57610100808354040283529160200191610797565b820191906000526020600020905b81548152906001019060200180831161077a57829003601f168201915b5050505050905098509850985098509850985098509850506107c9565b80806107bf90612745565b9150506101fb565b505b919395975091939597565b600080600090505b6000805490508110156108ca578373ffffffffffffffffffffffffffffffffffffffff166000828154811061081457610813612686565b5b906000526020600020906008020160000160009054906101000a900473ffffffffffffffffffffffffffffffffffffffff1673ffffffffffffffffffffffffffffffffffffffff161480156108a857508280519060200120600082815481106108805761087f612686565b5b906000526020600020906008020160070160405161089e919061282d565b6040518091039020145b156108b75760019150506108cc565b80806108c290612745565b9150506107dc565b505b92915050565b600181815481106108e257600080fd5b90600052602060002090600302016000915090508060000160009054906101000a900473ffffffffffffffffffffffffffffffffffffffff169080600101805461092b906126e4565b80601f0160208091040260200160405190810160405280929190818152602001828054610957906126e4565b80156109a45780601f10610979576101008083540402835291602001916109a4565b820191906000526020600020905b81548152906001019060200180831161098757829003601f168201915b5050505050908060020154905083565b600081101580156109c6575060648111155b610a05576040517f08c379a00000000000000000000000000000000000000000000000000000000081526004016109fc90612890565b60405180910390fd5b600160405180606001604052808573ffffffffffffffffffffffffffffffffffffffff16815260200184815260200183815250908060018154018082558091505060019003906000526020600020906003020160009091909190915060008201518160000160006101000a81548173ffffffffffffffffffffffffffffffffffffffff021916908373ffffffffffffffffffffffffffffffffffffffff1602179055506020820151816001019080519060200190610ac4929190611c33565b50604082015181600201555050505050565b60008181548110610ae657600080fd5b90600052602060002090600802016000915090508060000160009054906101000a900473ffffffffffffffffffffffffffffffffffffffff1690806001018054610b2f906126e4565b80601f0160208091040260200160405190810160405280929190818152602001828054610b5b906126e4565b8015610ba85780601f10610b7d57610100808354040283529160200191610ba8565b820191906000526020600020905b815481529060010190602001808311610b8b57829003601f168201915b505050505090806002018054610bbd906126e4565b80601f0160208091040260200160405190810160405280929190818152602001828054610be9906126e4565b8015610c365780601f10610c0b57610100808354040283529160200191610c36565b820191906000526020600020905b815481529060010190602001808311610c1957829003601f168201915b505050505090806003018054610c4b906126e4565b80601f0160208091040260200160405190810160405280929190818152602001828054610c77906126e4565b8015610cc45780601f10610c9957610100808354040283529160200191610cc4565b820191906000526020600020905b815481529060010190602001808311610ca757829003601f168201915b505050505090806004018054610cd9906126e4565b80601f0160208091040260200160405190810160405280929190818152602001828054610d05906126e4565b8015610d525780601f10610d2757610100808354040283529160200191610d52565b820191906000526020600020905b815481529060010190602001808311610d3557829003601f168201915b505050505090806005018054610d67906126e4565b80601f0160208091040260200160405190810160405280929190818152602001828054610d93906126e4565b8015610de05780601f10610db557610100808354040283529160200191610de0565b820191906000526020600020905b815481529060010190602001808311610dc357829003601f168201915b505050505090806006018054610df5906126e4565b80601f0160208091040260200160405190810160405280929190818152602001828054610e21906126e4565b8015610e6e5780601f10610e4357610100808354040283529160200191610e6e565b820191906000526020600020905b815481529060010190602001808311610e5157829003601f168201915b505050505090806007018054610e83906126e4565b80601f0160208091040260200160405190810160405280929190818152602001828054610eaf906126e4565b8015610efc5780601f10610ed157610100808354040283529160200191610efc565b820191906000526020600020905b815481529060010190602001808311610edf57829003601f168201915b5050505050905088565b60006040518061010001604052808a73ffffffffffffffffffffffffffffffffffffffff16815260200189815260200188815260200187815260200186815260200185815260200184815260200183815250908060018154018082558091505060019003906000526020600020906008020160009091909190915060008201518160000160006101000a81548173ffffffffffffffffffffffffffffffffffffffff021916908373ffffffffffffffffffffffffffffffffffffffff1602179055506020820151816001019080519060200190610fe4929190611c33565b506040820151816002019080519060200190611001929190611c33565b50606082015181600301908051906020019061101e929190611c33565b50608082015181600401908051906020019061103b929190611c33565b5060a0820151816005019080519060200190611058929190611c33565b5060c0820151816006019080519060200190611075929190611c33565b5060e0820151816007019080519060200190611092929190611c33565b5050505050505050505050565b606080600060018054905067ffffffffffffffff8111156110c3576110c2611ed6565b5b6040519080825280602002602001820160405280156110f657816020015b60608152602001906001900390816110e15790505b509050600060018054905067ffffffffffffffff81111561111a57611119611ed6565b5b6040519080825280602002602001820160405280156111485781602001602082028036833780820191505090505b50905060005b6001805490508110156112f9578573ffffffffffffffffffffffffffffffffffffffff166001828154811061118657611185612686565b5b906000526020600020906003020160000160009054906101000a900473ffffffffffffffffffffffffffffffffffffffff1673ffffffffffffffffffffffffffffffffffffffff1614156112e657600181815481106111e8576111e7612686565b5b90600052602060002090600302016001018054611204906126e4565b80601f0160208091040260200160405190810160405280929190818152602001828054611230906126e4565b801561127d5780601f106112525761010080835404028352916020019161127d565b820191906000526020600020905b81548152906001019060200180831161126057829003601f168201915b505050505083828151811061129557611294612686565b5b6020026020010181905250600181815481106112b4576112b3612686565b5b9060005260206000209060030201600201548282815181106112d9576112d8612686565b5b6020026020010181815250505b80806112f190612745565b91505061114e565b508181935093505050915091565b6060806060806060806060806000808054905067ffffffffffffffff81111561133357611332611ed6565b5b6040519080825280602002602001820160405280156113615781602001602082028036833780820191505090505b5090506000808054905067ffffffffffffffff81111561138457611383611ed6565b5b6040519080825280602002602001820160405280156113b757816020015b60608152602001906001900390816113a25790505b5090506000808054905067ffffffffffffffff8111156113da576113d9611ed6565b5b60405190808252806020026020018201604052801561140d57816020015b60608152602001906001900390816113f85790505b5090506000808054905067ffffffffffffffff8111156114305761142f611ed6565b5b60405190808252806020026020018201604052801561146357816020015b606081526020019060019003908161144e5790505b5090506000808054905067ffffffffffffffff81111561148657611485611ed6565b5b6040519080825280602002602001820160405280156114b957816020015b60608152602001906001900390816114a45790505b5090506000808054905067ffffffffffffffff8111156114dc576114db611ed6565b5b60405190808252806020026020018201604052801561150f57816020015b60608152602001906001900390816114fa5790505b5090506000808054905067ffffffffffffffff81111561153257611531611ed6565b5b60405190808252806020026020018201604052801561156557816020015b60608152602001906001900390816115505790505b5090506000808054905067ffffffffffffffff81111561158857611587611ed6565b5b6040519080825280602002602001820160405280156115bb57816020015b60608152602001906001900390816115a65790505b50905060005b600080549050811015611c0857600081815481106115e2576115e1612686565b5b906000526020600020906008020160000160009054906101000a900473ffffffffffffffffffffffffffffffffffffffff1689828151811061162757611626612686565b5b602002602001019073ffffffffffffffffffffffffffffffffffffffff16908173ffffffffffffffffffffffffffffffffffffffff16815250506000818154811061167557611674612686565b5b90600052602060002090600802016001018054611691906126e4565b80601f01602080910402602001604051908101604052809291908181526020018280546116bd906126e4565b801561170a5780601f106116df5761010080835404028352916020019161170a565b820191906000526020600020905b8154815290600101906020018083116116ed57829003601f168201915b505050505088828151811061172257611721612686565b5b60200260200101819052506000818154811061174157611740612686565b5b9060005260206000209060080201600201805461175d906126e4565b80601f0160208091040260200160405190810160405280929190818152602001828054611789906126e4565b80156117d65780601f106117ab576101008083540402835291602001916117d6565b820191906000526020600020905b8154815290600101906020018083116117b957829003601f168201915b50505050508782815181106117ee576117ed612686565b5b60200260200101819052506000818154811061180d5761180c612686565b5b90600052602060002090600802016003018054611829906126e4565b80601f0160208091040260200160405190810160405280929190818152602001828054611855906126e4565b80156118a25780601f10611877576101008083540402835291602001916118a2565b820191906000526020600020905b81548152906001019060200180831161188557829003601f168201915b50505050508682815181106118ba576118b9612686565b5b6020026020010181905250600081815481106118d9576118d8612686565b5b906000526020600020906008020160040180546118f5906126e4565b80601f0160208091040260200160405190810160405280929190818152602001828054611921906126e4565b801561196e5780601f106119435761010080835404028352916020019161196e565b820191906000526020600020905b81548152906001019060200180831161195157829003601f168201915b505050505085828151811061198657611985612686565b5b6020026020010181905250600081815481106119a5576119a4612686565b5b906000526020600020906008020160050180546119c1906126e4565b80601f01602080910402602001604051908101604052809291908181526020018280546119ed906126e4565b8015611a3a5780601f10611a0f57610100808354040283529160200191611a3a565b820191906000526020600020905b815481529060010190602001808311611a1d57829003601f168201915b5050505050848281518110611a5257611a51612686565b5b602002602001018190525060008181548110611a7157611a70612686565b5b90600052602060002090600802016006018054611a8d906126e4565b80601f0160208091040260200160405190810160405280929190818152602001828054611ab9906126e4565b8015611b065780601f10611adb57610100808354040283529160200191611b06565b820191906000526020600020905b815481529060010190602001808311611ae957829003601f168201915b5050505050838281518110611b1e57611b1d612686565b5b602002602001018190525060008181548110611b3d57611b3c612686565b5b90600052602060002090600802016007018054611b59906126e4565b80601f0160208091040260200160405190810160405280929190818152602001828054611b85906126e4565b8015611bd25780601f10611ba757610100808354040283529160200191611bd2565b820191906000526020600020905b815481529060010190602001808311611bb557829003601f168201915b5050505050828281518110611bea57611be9612686565b5b60200260200101819052508080611c0090612745565b9150506115c1565b5087878787878787879f509f509f509f509f509f509f509f5050505050505050509091929394959697565b828054611c3f906126e4565b90600052602060002090601f016020900481019282611c615760008555611ca8565b82601f10611c7a57805160ff1916838001178555611ca8565b82800160010185558215611ca8579182015b82811115611ca7578251825591602001919060010190611c8c565b5b509050611cb59190611cb9565b5090565b5b80821115611cd2576000816000905550600101611cba565b5090565b6000604051905090565b600080fd5b600080fd5b600073ffffffffffffffffffffffffffffffffffffffff82169050919050565b6000611d1582611cea565b9050919050565b611d2581611d0a565b8114611d3057600080fd5b50565b600081359050611d4281611d1c565b92915050565b600060208284031215611d5e57611d5d611ce0565b5b6000611d6c84828501611d33565b91505092915050565b611d7e81611d0a565b82525050565b600081519050919050565b600082825260208201905092915050565b60005b83811015611dbe578082015181840152602081019050611da3565b83811115611dcd576000848401525b50505050565b6000601f19601f8301169050919050565b6000611def82611d84565b611df98185611d8f565b9350611e09818560208601611da0565b611e1281611dd3565b840191505092915050565b600061010082019050611e33600083018b611d75565b8181036020830152611e45818a611de4565b90508181036040830152611e598189611de4565b90508181036060830152611e6d8188611de4565b90508181036080830152611e818187611de4565b905081810360a0830152611e958186611de4565b905081810360c0830152611ea98185611de4565b905081810360e0830152611ebd8184611de4565b90509998505050505050505050565b600080fd5b600080fd5b7f4e487b7100000000000000000000000000000000000000000000000000000000600052604160045260246000fd5b611f0e82611dd3565b810181811067ffffffffffffffff82111715611f2d57611f2c611ed6565b5b80604052505050565b6000611f40611cd6565b9050611f4c8282611f05565b919050565b600067ffffffffffffffff821115611f6c57611f6b611ed6565b5b611f7582611dd3565b9050602081019050919050565b82818337600083830152505050565b6000611fa4611f9f84611f51565b611f36565b905082815260208101848484011115611fc057611fbf611ed1565b5b611fcb848285611f82565b509392505050565b600082601f830112611fe857611fe7611ecc565b5b8135611ff8848260208601611f91565b91505092915050565b6000806040838503121561201857612017611ce0565b5b600061202685828601611d33565b925050602083013567ffffffffffffffff81111561204757612046611ce5565b5b61205385828601611fd3565b9150509250929050565b6000819050919050565b6120708161205d565b82525050565b600060208201905061208b6000830184612067565b92915050565b61209a8161205d565b81146120a557600080fd5b50565b6000813590506120b781612091565b92915050565b6000602082840312156120d3576120d2611ce0565b5b60006120e1848285016120a8565b91505092915050565b60006060820190506120ff6000830186611d75565b81810360208301526121118185611de4565b90506121206040830184612067565b949350505050565b60008060006060848603121561214157612140611ce0565b5b600061214f86828701611d33565b935050602084013567ffffffffffffffff8111156121705761216f611ce5565b5b61217c86828701611fd3565b925050604061218d868287016120a8565b9150509250925092565b600080600080600080600080610100898b0312156121b8576121b7611ce0565b5b60006121c68b828c01611d33565b985050602089013567ffffffffffffffff8111156121e7576121e6611ce5565b5b6121f38b828c01611fd3565b975050604089013567ffffffffffffffff81111561221457612213611ce5565b5b6122208b828c01611fd3565b965050606089013567ffffffffffffffff81111561224157612240611ce5565b5b61224d8b828c01611fd3565b955050608089013567ffffffffffffffff81111561226e5761226d611ce5565b5b61227a8b828c01611fd3565b94505060a089013567ffffffffffffffff81111561229b5761229a611ce5565b5b6122a78b828c01611fd3565b93505060c089013567ffffffffffffffff8111156122c8576122c7611ce5565b5b6122d48b828c01611fd3565b92505060e089013567ffffffffffffffff8111156122f5576122f4611ce5565b5b6123018b828c01611fd3565b9150509295985092959890939650565b600081519050919050565b600082825260208201905092915050565b6000819050602082019050919050565b600082825260208201905092915050565b600061235982611d84565b612363818561233d565b9350612373818560208601611da0565b61237c81611dd3565b840191505092915050565b6000612393838361234e565b905092915050565b6000602082019050919050565b60006123b382612311565b6123bd818561231c565b9350836020820285016123cf8561232d565b8060005b8581101561240b57848403895281516123ec8582612387565b94506123f78361239b565b925060208a019950506001810190506123d3565b50829750879550505050505092915050565b600081519050919050565b600082825260208201905092915050565b6000819050602082019050919050565b6124528161205d565b82525050565b60006124648383612449565b60208301905092915050565b6000602082019050919050565b60006124888261241d565b6124928185612428565b935061249d83612439565b8060005b838110156124ce5781516124b58882612458565b97506124c083612470565b9250506001810190506124a1565b5085935050505092915050565b600060408201905081810360008301526124f581856123a8565b90508181036020830152612509818461247d565b90509392505050565b600081519050919050565b600082825260208201905092915050565b6000819050602082019050919050565b61254781611d0a565b82525050565b6000612559838361253e565b60208301905092915050565b6000602082019050919050565b600061257d82612512565b612587818561251d565b93506125928361252e565b8060005b838110156125c35781516125aa888261254d565b97506125b583612565565b925050600181019050612596565b5085935050505092915050565b60006101008201905081810360008301526125eb818b612572565b905081810360208301526125ff818a6123a8565b9050818103604083015261261381896123a8565b9050818103606083015261262781886123a8565b9050818103608083015261263b81876123a8565b905081810360a083015261264f81866123a8565b905081810360c083015261266381856123a8565b905081810360e083015261267781846123a8565b90509998505050505050505050565b7f4e487b7100000000000000000000000000000000000000000000000000000000600052603260045260246000fd5b7f4e487b7100000000000000000000000000000000000000000000000000000000600052602260045260246000fd5b600060028204905060018216806126fc57607f821691505b602082108114156127105761270f6126b5565b5b50919050565b7f4e487b7100000000000000000000000000000000000000000000000000000000600052601160045260246000fd5b60006127508261205d565b91507fffffffffffffffffffffffffffffffffffffffffffffffffffffffffffffffff82141561278357612782612716565b5b600182019050919050565b600081905092915050565b60008190508160005260206000209050919050565b600081546127bb816126e4565b6127c5818661278e565b945060018216600081146127e057600181146127f157612824565b60ff19831686528186019350612824565b6127fa85612799565b60005b8381101561281c578154818901526001820191506020810190506127fd565b838801955050505b50505092915050565b600061283982846127ae565b915081905092915050565b7f4c6576656c206f6620736b696c6c20696e636f72726563742e00000000000000600082015250565b600061287a601983611d8f565b915061288582612844565b602082019050919050565b600060208201905081810360008301526128a98161286d565b905091905056fea2646970667358221220808311d166f01baa148c5a56a97edf694a00673a5f0e2a826571347dbd8a699a64736f6c634300080b0033608060405234801561001057600080fd5b50611c58806100206000396000f3fe608060405234801561001057600080fd5b506004361061004c5760003560e01c80630f53a470146100515780631ed6aeec14610087578063bf44b303146100a3578063cfafbc0c146100d9575b600080fd5b61006b60048036038101906100669190611460565b6100fd565b60405161007e9796959493929190611535565b60405180910390f35b6100a1600480360381019061009c9190611703565b610631565b005b6100bd60048036038101906100b89190611883565b6107a5565b6040516100d09796959493929190611535565b60405180910390f35b6100e1610b47565b6040516100f49796959493929190611a7a565b60405180910390f35b600060608060608060608060005b600080549050811015610624578873ffffffffffffffffffffffffffffffffffffffff166000828154811061014357610142611b1a565b5b906000526020600020906007020160000160009054906101000a900473ffffffffffffffffffffffffffffffffffffffff1673ffffffffffffffffffffffffffffffffffffffff16141561061157600081815481106101a5576101a4611b1a565b5b906000526020600020906007020160000160009054906101000a900473ffffffffffffffffffffffffffffffffffffffff16600082815481106101eb576101ea611b1a565b5b9060005260206000209060070201600101600083815481106102105761020f611b1a565b5b90600052602060002090600702016002016000848154811061023557610234611b1a565b5b90600052602060002090600702016003016000858154811061025a57610259611b1a565b5b90600052602060002090600702016004016000868154811061027f5761027e611b1a565b5b9060005260206000209060070201600501600087815481106102a4576102a3611b1a565b5b90600052602060002090600702016006018580546102c190611b78565b80601f01602080910402602001604051908101604052809291908181526020018280546102ed90611b78565b801561033a5780601f1061030f5761010080835404028352916020019161033a565b820191906000526020600020905b81548152906001019060200180831161031d57829003601f168201915b5050505050955084805461034d90611b78565b80601f016020809104026020016040519081016040528092919081815260200182805461037990611b78565b80156103c65780601f1061039b576101008083540402835291602001916103c6565b820191906000526020600020905b8154815290600101906020018083116103a957829003601f168201915b505050505094508380546103d990611b78565b80601f016020809104026020016040519081016040528092919081815260200182805461040590611b78565b80156104525780601f1061042757610100808354040283529160200191610452565b820191906000526020600020905b81548152906001019060200180831161043557829003601f168201915b5050505050935082805461046590611b78565b80601f016020809104026020016040519081016040528092919081815260200182805461049190611b78565b80156104de5780601f106104b3576101008083540402835291602001916104de565b820191906000526020600020905b8154815290600101906020018083116104c157829003601f168201915b505050505092508180546104f190611b78565b80601f016020809104026020016040519081016040528092919081815260200182805461051d90611b78565b801561056a5780601f1061053f5761010080835404028352916020019161056a565b820191906000526020600020905b81548152906001019060200180831161054d57829003601f168201915b5050505050915080805461057d90611b78565b80601f01602080910402602001604051908101604052809291908181526020018280546105a990611b78565b80156105f65780601f106105cb576101008083540402835291602001916105f6565b820191906000526020600020905b8154815290600101906020018083116105d957829003601f168201915b50505050509050975097509750975097509750975050610626565b808061061c90611bd9565b91505061010b565b505b919395979092949650565b60006040518060e001604052808973ffffffffffffffffffffffffffffffffffffffff16815260200188815260200187815260200186815260200185815260200184815260200183815250908060018154018082558091505060019003906000526020600020906007020160009091909190915060008201518160000160006101000a81548173ffffffffffffffffffffffffffffffffffffffff021916908373ffffffffffffffffffffffffffffffffffffffff160217905550602082015181600101908051906020019061070892919061134b565b50604082015181600201908051906020019061072592919061134b565b50606082015181600301908051906020019061074292919061134b565b50608082015181600401908051906020019061075f92919061134b565b5060a082015181600501908051906020019061077c92919061134b565b5060c082015181600601908051906020019061079992919061134b565b50505050505050505050565b600081815481106107b557600080fd5b90600052602060002090600702016000915090508060000160009054906101000a900473ffffffffffffffffffffffffffffffffffffffff16908060010180546107fe90611b78565b80601f016020809104026020016040519081016040528092919081815260200182805461082a90611b78565b80156108775780601f1061084c57610100808354040283529160200191610877565b820191906000526020600020905b81548152906001019060200180831161085a57829003601f168201915b50505050509080600201805461088c90611b78565b80601f01602080910402602001604051908101604052809291908181526020018280546108b890611b78565b80156109055780601f106108da57610100808354040283529160200191610905565b820191906000526020600020905b8154815290600101906020018083116108e857829003601f168201915b50505050509080600301805461091a90611b78565b80601f016020809104026020016040519081016040528092919081815260200182805461094690611b78565b80156109935780601f1061096857610100808354040283529160200191610993565b820191906000526020600020905b81548152906001019060200180831161097657829003601f168201915b5050505050908060040180546109a890611b78565b80601f01602080910402602001604051908101604052809291908181526020018280546109d490611b78565b8015610a215780601f106109f657610100808354040283529160200191610a21565b820191906000526020600020905b815481529060010190602001808311610a0457829003601f168201915b505050505090806005018054610a3690611b78565b80601f0160208091040260200160405190810160405280929190818152602001828054610a6290611b78565b8015610aaf5780601f10610a8457610100808354040283529160200191610aaf565b820191906000526020600020905b815481529060010190602001808311610a9257829003601f168201915b505050505090806006018054610ac490611b78565b80601f0160208091040260200160405190810160405280929190818152602001828054610af090611b78565b8015610b3d5780601f10610b1257610100808354040283529160200191610b3d565b820191906000526020600020905b815481529060010190602001808311610b2057829003601f168201915b5050505050905087565b60608060608060608060606000808054905067ffffffffffffffff811115610b7257610b716115d8565b5b604051908082528060200260200182016040528015610ba05781602001602082028036833780820191505090505b5090506000808054905067ffffffffffffffff811115610bc357610bc26115d8565b5b604051908082528060200260200182016040528015610bf657816020015b6060815260200190600190039081610be15790505b5090506000808054905067ffffffffffffffff811115610c1957610c186115d8565b5b604051908082528060200260200182016040528015610c4c57816020015b6060815260200190600190039081610c375790505b5090506000808054905067ffffffffffffffff811115610c6f57610c6e6115d8565b5b604051908082528060200260200182016040528015610ca257816020015b6060815260200190600190039081610c8d5790505b5090506000808054905067ffffffffffffffff811115610cc557610cc46115d8565b5b604051908082528060200260200182016040528015610cf857816020015b6060815260200190600190039081610ce35790505b5090506000808054905067ffffffffffffffff811115610d1b57610d1a6115d8565b5b604051908082528060200260200182016040528015610d4e57816020015b6060815260200190600190039081610d395790505b5090506000808054905067ffffffffffffffff811115610d7157610d706115d8565b5b604051908082528060200260200182016040528015610da457816020015b6060815260200190600190039081610d8f5790505b50905060005b6000805490508110156113255760008181548110610dcb57610dca611b1a565b5b906000526020600020906007020160000160009054906101000a900473ffffffffffffffffffffffffffffffffffffffff16888281518110610e1057610e0f611b1a565b5b602002602001019073ffffffffffffffffffffffffffffffffffffffff16908173ffffffffffffffffffffffffffffffffffffffff168152505060008181548110610e5e57610e5d611b1a565b5b90600052602060002090600702016001018054610e7a90611b78565b80601f0160208091040260200160405190810160405280929190818152602001828054610ea690611b78565b8015610ef35780601f10610ec857610100808354040283529160200191610ef3565b820191906000526020600020905b815481529060010190602001808311610ed657829003601f168201915b5050505050878281518110610f0b57610f0a611b1a565b5b602002602001018190525060008181548110610f2a57610f29611b1a565b5b90600052602060002090600702016002018054610f4690611b78565b80601f0160208091040260200160405190810160405280929190818152602001828054610f7290611b78565b8015610fbf5780601f10610f9457610100808354040283529160200191610fbf565b820191906000526020600020905b815481529060010190602001808311610fa257829003601f168201915b5050505050868281518110610fd757610fd6611b1a565b5b602002602001018190525060008181548110610ff657610ff5611b1a565b5b9060005260206000209060070201600301805461101290611b78565b80601f016020809104026020016040519081016040528092919081815260200182805461103e90611b78565b801561108b5780601f106110605761010080835404028352916020019161108b565b820191906000526020600020905b81548152906001019060200180831161106e57829003601f168201915b50505050508582815181106110a3576110a2611b1a565b5b6020026020010181905250600081815481106110c2576110c1611b1a565b5b906000526020600020906007020160040180546110de90611b78565b80601f016020809104026020016040519081016040528092919081815260200182805461110a90611b78565b80156111575780601f1061112c57610100808354040283529160200191611157565b820191906000526020600020905b81548152906001019060200180831161113a57829003601f168201915b505050505084828151811061116f5761116e611b1a565b5b60200260200101819052506000818154811061118e5761118d611b1a565b5b906000526020600020906007020160050180546111aa90611b78565b80601f01602080910402602001604051908101604052809291908181526020018280546111d690611b78565b80156112235780601f106111f857610100808354040283529160200191611223565b820191906000526020600020905b81548152906001019060200180831161120657829003601f168201915b505050505083828151811061123b5761123a611b1a565b5b60200260200101819052506000818154811061125a57611259611b1a565b5b9060005260206000209060070201600601805461127690611b78565b80601f01602080910402602001604051908101604052809291908181526020018280546112a290611b78565b80156112ef5780601f106112c4576101008083540402835291602001916112ef565b820191906000526020600020905b8154815290600101906020018083116112d257829003601f168201915b505050505082828151811061130757611306611b1a565b5b6020026020010181905250808061131d90611bd9565b915050610daa565b50868686868686869d509d509d509d509d509d509d505050505050505090919293949596565b82805461135790611b78565b90600052602060002090601f01602090048101928261137957600085556113c0565b82601f1061139257805160ff19168380011785556113c0565b828001600101855582156113c0579182015b828111156113bf5782518255916020019190600101906113a4565b5b5090506113cd91906113d1565b5090565b5b808211156113ea5760008160009055506001016113d2565b5090565b6000604051905090565b600080fd5b600080fd5b600073ffffffffffffffffffffffffffffffffffffffff82169050919050565b600061142d82611402565b9050919050565b61143d81611422565b811461144857600080fd5b50565b60008135905061145a81611434565b92915050565b600060208284031215611476576114756113f8565b5b60006114848482850161144b565b91505092915050565b61149681611422565b82525050565b600081519050919050565b600082825260208201905092915050565b60005b838110156114d65780820151818401526020810190506114bb565b838111156114e5576000848401525b50505050565b6000601f19601f8301169050919050565b60006115078261149c565b61151181856114a7565b93506115218185602086016114b8565b61152a816114eb565b840191505092915050565b600060e08201905061154a600083018a61148d565b818103602083015261155c81896114fc565b9050818103604083015261157081886114fc565b9050818103606083015261158481876114fc565b9050818103608083015261159881866114fc565b905081810360a08301526115ac81856114fc565b905081810360c08301526115c081846114fc565b905098975050505050505050565b600080fd5b600080fd5b7f4e487b7100000000000000000000000000000000000000000000000000000000600052604160045260246000fd5b611610826114eb565b810181811067ffffffffffffffff8211171561162f5761162e6115d8565b5b80604052505050565b60006116426113ee565b905061164e8282611607565b919050565b600067ffffffffffffffff82111561166e5761166d6115d8565b5b611677826114eb565b9050602081019050919050565b82818337600083830152505050565b60006116a66116a184611653565b611638565b9050828152602081018484840111156116c2576116c16115d3565b5b6116cd848285611684565b509392505050565b600082601f8301126116ea576116e96115ce565b5b81356116fa848260208601611693565b91505092915050565b600080600080600080600060e0888a031215611722576117216113f8565b5b60006117308a828b0161144b565b975050602088013567ffffffffffffffff811115611751576117506113fd565b5b61175d8a828b016116d5565b965050604088013567ffffffffffffffff81111561177e5761177d6113fd565b5b61178a8a828b016116d5565b955050606088013567ffffffffffffffff8111156117ab576117aa6113fd565b5b6117b78a828b016116d5565b945050608088013567ffffffffffffffff8111156117d8576117d76113fd565b5b6117e48a828b016116d5565b93505060a088013567ffffffffffffffff811115611805576118046113fd565b5b6118118a828b016116d5565b92505060c088013567ffffffffffffffff811115611832576118316113fd565b5b61183e8a828b016116d5565b91505092959891949750929550565b6000819050919050565b6118608161184d565b811461186b57600080fd5b50565b60008135905061187d81611857565b92915050565b600060208284031215611899576118986113f8565b5b60006118a78482850161186e565b91505092915050565b600081519050919050565b600082825260208201905092915050565b6000819050602082019050919050565b6118e581611422565b82525050565b60006118f783836118dc565b60208301905092915050565b6000602082019050919050565b600061191b826118b0565b61192581856118bb565b9350611930836118cc565b8060005b8381101561196157815161194888826118eb565b975061195383611903565b925050600181019050611934565b5085935050505092915050565b600081519050919050565b600082825260208201905092915050565b6000819050602082019050919050565b600082825260208201905092915050565b60006119b68261149c565b6119c0818561199a565b93506119d08185602086016114b8565b6119d9816114eb565b840191505092915050565b60006119f083836119ab565b905092915050565b6000602082019050919050565b6000611a108261196e565b611a1a8185611979565b935083602082028501611a2c8561198a565b8060005b85811015611a685784840389528151611a4985826119e4565b9450611a54836119f8565b925060208a01995050600181019050611a30565b50829750879550505050505092915050565b600060e0820190508181036000830152611a94818a611910565b90508181036020830152611aa88189611a05565b90508181036040830152611abc8188611a05565b90508181036060830152611ad08187611a05565b90508181036080830152611ae48186611a05565b905081810360a0830152611af88185611a05565b905081810360c0830152611b0c8184611a05565b905098975050505050505050565b7f4e487b7100000000000000000000000000000000000000000000000000000000600052603260045260246000fd5b7f4e487b7100000000000000000000000000000000000000000000000000000000600052602260045260246000fd5b60006002820490506001821680611b9057607f821691505b60208210811415611ba457611ba3611b49565b5b50919050565b7f4e487b7100000000000000000000000000000000000000000000000000000000600052601160045260246000fd5b6000611be48261184d565b91507fffffffffffffffffffffffffffffffffffffffffffffffffffffffffffffffff821415611c1757611c16611baa565b5b60018201905091905056fea264697066735822122030b136bd9acf33a4554dd9b4b19199c12fb01ef22ef072174e05a66284c10b6364736f6c634300080b0033608060405234801561001057600080fd5b5061081a806100206000396000f3fe608060405234801561001057600080fd5b50600436106100415760003560e01c80630b88dd5514610046578063381a3bf7146100625780637aedcde514610093575b600080fd5b610060600480360381019061005b9190610511565b6100c4565b005b61007c60048036038101906100779190610551565b6101c4565b60405161008a92919061063c565b60405180910390f35b6100ad60048036038101906100a891906106a9565b61043a565b6040516100bb9291906106e5565b60405180910390f35b600060405180604001604052808473ffffffffffffffffffffffffffffffffffffffff1681526020018373ffffffffffffffffffffffffffffffffffffffff16815250908060018154018082558091505060019003906000526020600020906002020160009091909190915060008201518160000160006101000a81548173ffffffffffffffffffffffffffffffffffffffff021916908373ffffffffffffffffffffffffffffffffffffffff16021790555060208201518160010160006101000a81548173ffffffffffffffffffffffffffffffffffffffff021916908373ffffffffffffffffffffffffffffffffffffffff16021790555050505050565b6060806000808054905067ffffffffffffffff8111156101e7576101e661070e565b5b6040519080825280602002602001820160405280156102155781602001602082028036833780820191505090505b5090506000808054905067ffffffffffffffff8111156102385761023761070e565b5b6040519080825280602002602001820160405280156102665781602001602082028036833780820191505090505b50905060005b60008054905081101561042c578573ffffffffffffffffffffffffffffffffffffffff16600082815481106102a4576102a361073d565b5b906000526020600020906002020160010160009054906101000a900473ffffffffffffffffffffffffffffffffffffffff1673ffffffffffffffffffffffffffffffffffffffff16141561041957600081815481106103065761030561073d565b5b906000526020600020906002020160000160009054906101000a900473ffffffffffffffffffffffffffffffffffffffff1683828151811061034b5761034a61073d565b5b602002602001019073ffffffffffffffffffffffffffffffffffffffff16908173ffffffffffffffffffffffffffffffffffffffff1681525050600081815481106103995761039861073d565b5b906000526020600020906002020160010160009054906101000a900473ffffffffffffffffffffffffffffffffffffffff168282815181106103de576103dd61073d565b5b602002602001019073ffffffffffffffffffffffffffffffffffffffff16908173ffffffffffffffffffffffffffffffffffffffff16815250505b80806104249061079b565b91505061026c565b508181935093505050915091565b6000818154811061044a57600080fd5b90600052602060002090600202016000915090508060000160009054906101000a900473ffffffffffffffffffffffffffffffffffffffff16908060010160009054906101000a900473ffffffffffffffffffffffffffffffffffffffff16905082565b600080fd5b600073ffffffffffffffffffffffffffffffffffffffff82169050919050565b60006104de826104b3565b9050919050565b6104ee816104d3565b81146104f957600080fd5b50565b60008135905061050b816104e5565b92915050565b60008060408385031215610528576105276104ae565b5b6000610536858286016104fc565b9250506020610547858286016104fc565b9150509250929050565b600060208284031215610567576105666104ae565b5b6000610575848285016104fc565b91505092915050565b600081519050919050565b600082825260208201905092915050565b6000819050602082019050919050565b6105b3816104d3565b82525050565b60006105c583836105aa565b60208301905092915050565b6000602082019050919050565b60006105e98261057e565b6105f38185610589565b93506105fe8361059a565b8060005b8381101561062f57815161061688826105b9565b9750610621836105d1565b925050600181019050610602565b5085935050505092915050565b6000604082019050818103600083015261065681856105de565b9050818103602083015261066a81846105de565b90509392505050565b6000819050919050565b61068681610673565b811461069157600080fd5b50565b6000813590506106a38161067d565b92915050565b6000602082840312156106bf576106be6104ae565b5b60006106cd84828501610694565b91505092915050565b6106df816104d3565b82525050565b60006040820190506106fa60008301856106d6565b61070760208301846106d6565b9392505050565b7f4e487b7100000000000000000000000000000000000000000000000000000000600052604160045260246000fd5b7f4e487b7100000000000000000000000000000000000000000000000000000000600052603260045260246000fd5b7f4e487b7100000000000000000000000000000000000000000000000000000000600052601160045260246000fd5b60006107a682610673565b91507fffffffffffffffffffffffffffffffffffffffffffffffffffffffffffffffff8214156107d9576107d861076c565b5b60018201905091905056fea26469706673582212201914c2b4b8eeb4a8559abbea39de69718a04f4acd604df6fb7aad5567a98f3d564736f6c634300080b0033",
  "immutableReferences": {},
  "source": "// SPDX-License-Identifier: MIT\r\npragma solidity >=0.4.22 <0.9.0;\r\n\r\nimport \"./SmartCV_ListStudent.sol\";\r\nimport \"./SmartCV_ListBusiness.sol\";\r\nimport \"./SmartCV_Apply.sol\";\r\n\r\n//CV dnh cho sinh vin\r\ncontract Student {\r\n\r\n    //Khai bo bin a ch ngi dng\r\n    address owner;\r\n\r\n    // Khai bo bin s d ca ngi dng\r\n    mapping(address=>uint) balances;\r\n\r\n    //Khai contract  import  s dng cc function  contract \r\n    ListStudent listStudent = new ListStudent();\r\n    ListBusiness listBusiness = new ListBusiness();\r\n    ApplyCV applyCV = new ApplyCV();\r\n\r\n    // Gn a ch cho ngi dng\r\n    constructor () {\r\n        owner =  msg.sender;\r\n    }\r\n\r\n    // Kim tra a ch ngi dng\r\n    function getSender() public view returns (address){\r\n        return owner;\r\n    }\r\n\r\n    // ======================================\r\n    // ======= Student Functions ============\r\n    // ======================================\r\n\r\n    // Thm thng tin sinh vin (ng k)\r\n    function addStudentProfile (\r\n        address _studentOwner,\r\n        string memory _name,\r\n        string memory _birthDay,\r\n        string memory _professionalTitle,\r\n        string memory _email,\r\n        string memory _github,\r\n        string memory _linked,\r\n        string memory _password) public {\r\n            listStudent.addSV(_studentOwner, _name, _birthDay, _professionalTitle, _email, _github, _linked, _password);\r\n    }\r\n\r\n    function getStudentProfile(address _studentOwner) public view returns(\r\n        address studentOwner, \r\n        string memory name, \r\n        string memory birthDay, \r\n        string memory professionalTitle, \r\n        string memory email, \r\n        string memory github, \r\n        string memory linkedin,\r\n        string memory password){\r\n            return listStudent.getProfile(_studentOwner);\r\n    }\r\n    // Kim tra ti khon ngi dng c tn ti hay khng? (ng nhp)\r\n    function checkStudentProfile(address _studentOwner, string memory _password) public view returns(uint)  {\r\n        return listStudent.checkSV(_studentOwner, _password);\r\n    }\r\n\r\n    function addStudentSkill (\r\n        address _studentOwner,\r\n        string memory _title, \r\n        uint _level) public {\r\n            listStudent.addSkill(_studentOwner, _title, _level);\r\n    }\r\n\r\n    function getStudentSkill(address _studentOwner) public view returns(string[] memory,uint[] memory)  {\r\n        return listStudent.getSkill(_studentOwner);\r\n    }\r\n    // //Gi CV\r\n    function sendCV(address _studentOwner, address _businessOwner) public {\r\n        applyCV.addCV(_studentOwner, _businessOwner);\r\n    }\r\n\r\n    // ======================================\r\n    // ======= Business Functions ===========\r\n    // ======================================\r\n\r\n    // Thm thng tin doanh nghip (ng k)\r\n    function addBusinessProfile (\r\n        address _businessOwner,\r\n        string memory _name,\r\n        string memory _country,\r\n        string memory _facebook,\r\n        string memory _website,\r\n        string memory _linkedin,\r\n        string memory _focusArea) public {\r\n            listBusiness.addDN(_businessOwner, _name, _country, _facebook, _website, _linkedin, _focusArea);\r\n    }\r\n\r\n    function getBusinessProfile(address _businessOwner) public view returns(\r\n        address businessOwner, \r\n        string memory name, \r\n        string memory country, \r\n        string memory facebook, \r\n        string memory website, \r\n        string memory linkedin, \r\n        string memory focusArea) {\r\n            return listBusiness.getProfile(_businessOwner);\r\n    }\r\n\r\n    // // Ly danh sch CV np vo cng ty\r\n    function getListCV(address _businessOwner) public view returns(address[] memory, address[] memory)  {\r\n        return applyCV.getCV(_businessOwner);\r\n    }\r\n    \r\n}",
  "sourcePath": "C:\\Users\\19520\\Documents\\NCKH_Blockchain\\SolidityProgramming\\ProjectResearch\\SmartCV\\SmartContract\\contracts\\SmartCV_Student.sol",
  "compiler": {
    "name": "solc",
    "version": "0.8.11+commit.d7f03943.Emscripten.clang"
  },
  "schemaVersion": "3.4.4",
  "updatedAt": "2022-06-27T02:10:40.846Z",
  "networkType": "ethereum",
  "devdoc": {
    "kind": "dev",
    "methods": {},
    "version": 1
  },
  "userdoc": {
    "kind": "user",
    "methods": {},
    "version": 1
  }
}