{
  "contractName": "StudentBusiness",
  "abi": [
    {
      "inputs": [
        {
          "internalType": "address",
          "name": "_studentOwner",
          "type": "address"
        },
        {
          "internalType": "string",
          "name": "_name",
          "type": "string"
        },
        {
          "internalType": "string",
          "name": "_birthDay",
          "type": "string"
        },
        {
          "internalType": "string",
          "name": "_professionalTitle",
          "type": "string"
        },
        {
          "internalType": "string",
          "name": "_email",
          "type": "string"
        },
        {
          "internalType": "string",
          "name": "_github",
          "type": "string"
        },
        {
          "internalType": "string",
          "name": "_linkedin",
          "type": "string"
        },
        {
          "internalType": "string",
          "name": "_password",
          "type": "string"
        }
      ],
      "name": "addStudentProfile",
      "outputs": [],
      "stateMutability": "nonpayable",
      "type": "function"
    },
    {
      "inputs": [
        {
          "internalType": "address",
          "name": "_studentOwner",
          "type": "address"
        }
      ],
      "name": "getStudentProfile",
      "outputs": [
        {
          "internalType": "address",
          "name": "studentOwner",
          "type": "address"
        },
        {
          "internalType": "string",
          "name": "name",
          "type": "string"
        },
        {
          "internalType": "string",
          "name": "birthDay",
          "type": "string"
        },
        {
          "internalType": "string",
          "name": "professionalTitle",
          "type": "string"
        },
        {
          "internalType": "string",
          "name": "email",
          "type": "string"
        },
        {
          "internalType": "string",
          "name": "github",
          "type": "string"
        },
        {
          "internalType": "string",
          "name": "linkedin",
          "type": "string"
        },
        {
          "internalType": "string",
          "name": "password",
          "type": "string"
        }
      ],
      "stateMutability": "view",
      "type": "function"
    },
    {
      "inputs": [
        {
          "internalType": "address",
          "name": "_studentOwner",
          "type": "address"
        },
        {
          "internalType": "string",
          "name": "_password",
          "type": "string"
        }
      ],
      "name": "checkStudentProfile",
      "outputs": [
        {
          "internalType": "uint256",
          "name": "x",
          "type": "uint256"
        }
      ],
      "stateMutability": "view",
      "type": "function"
    },
    {
      "inputs": [
        {
          "internalType": "address",
          "name": "_studentOwner",
          "type": "address"
        }
      ],
      "name": "checkExistStudent",
      "outputs": [
        {
          "internalType": "uint256",
          "name": "x",
          "type": "uint256"
        }
      ],
      "stateMutability": "view",
      "type": "function"
    },
    {
      "inputs": [
        {
          "internalType": "address",
          "name": "_studentOwner",
          "type": "address"
        },
        {
          "internalType": "string",
          "name": "_title",
          "type": "string"
        },
        {
          "internalType": "uint256",
          "name": "_level",
          "type": "uint256"
        }
      ],
      "name": "addStudentSkill",
      "outputs": [],
      "stateMutability": "nonpayable",
      "type": "function"
    },
    {
      "inputs": [
        {
          "internalType": "address",
          "name": "_studentOwner",
          "type": "address"
        },
        {
          "internalType": "string",
          "name": "_title",
          "type": "string"
        }
      ],
      "name": "checkStudentSkill",
      "outputs": [
        {
          "internalType": "uint256",
          "name": "x",
          "type": "uint256"
        }
      ],
      "stateMutability": "view",
      "type": "function"
    },
    {
      "inputs": [
        {
          "internalType": "address",
          "name": "_studentOwner",
          "type": "address"
        }
      ],
      "name": "checkNumStudentSkill",
      "outputs": [
        {
          "internalType": "uint256",
          "name": "x",
          "type": "uint256"
        }
      ],
      "stateMutability": "view",
      "type": "function"
    },
    {
      "inputs": [
        {
          "internalType": "address",
          "name": "_studentOwner",
          "type": "address"
        }
      ],
      "name": "getStudentSkill",
      "outputs": [
        {
          "internalType": "string[]",
          "name": "titles",
          "type": "string[]"
        },
        {
          "internalType": "uint256[]",
          "name": "levels",
          "type": "uint256[]"
        }
      ],
      "stateMutability": "view",
      "type": "function"
    },
    {
      "inputs": [],
      "name": "getListBusiness",
      "outputs": [
        {
          "internalType": "address[]",
          "name": "",
          "type": "address[]"
        },
        {
          "internalType": "string[]",
          "name": "",
          "type": "string[]"
        },
        {
          "internalType": "string[]",
          "name": "",
          "type": "string[]"
        },
        {
          "internalType": "string[]",
          "name": "",
          "type": "string[]"
        },
        {
          "internalType": "string[]",
          "name": "",
          "type": "string[]"
        },
        {
          "internalType": "string[]",
          "name": "",
          "type": "string[]"
        },
        {
          "internalType": "string[]",
          "name": "",
          "type": "string[]"
        },
        {
          "internalType": "string[]",
          "name": "",
          "type": "string[]"
        }
      ],
      "stateMutability": "view",
      "type": "function"
    },
    {
      "inputs": [
        {
          "internalType": "address",
          "name": "_businessOwner",
          "type": "address"
        }
      ],
      "name": "getRecruit",
      "outputs": [
        {
          "internalType": "string[]",
          "name": "",
          "type": "string[]"
        },
        {
          "internalType": "string[]",
          "name": "",
          "type": "string[]"
        }
      ],
      "stateMutability": "view",
      "type": "function"
    },
    {
      "inputs": [
        {
          "internalType": "address",
          "name": "_studentOwner",
          "type": "address"
        },
        {
          "internalType": "address",
          "name": "_businessOwner",
          "type": "address"
        },
        {
          "internalType": "string",
          "name": "_jobTitle",
          "type": "string"
        },
        {
          "internalType": "string",
          "name": "_coverLetter",
          "type": "string"
        }
      ],
      "name": "sendCV",
      "outputs": [],
      "stateMutability": "nonpayable",
      "type": "function"
    },
    {
      "inputs": [
        {
          "internalType": "address",
          "name": "_studentOwner",
          "type": "address"
        },
        {
          "internalType": "address",
          "name": "_businessOwner",
          "type": "address"
        },
        {
          "internalType": "string",
          "name": "_jobTitle",
          "type": "string"
        }
      ],
      "name": "checkCV",
      "outputs": [
        {
          "internalType": "uint256",
          "name": "x",
          "type": "uint256"
        }
      ],
      "stateMutability": "view",
      "type": "function"
    },
    {
      "inputs": [
        {
          "internalType": "address",
          "name": "_studentOwner",
          "type": "address"
        },
        {
          "internalType": "address",
          "name": "_businessOwner",
          "type": "address"
        }
      ],
      "name": "getReview",
      "outputs": [
        {
          "internalType": "address",
          "name": "studentOwner",
          "type": "address"
        },
        {
          "internalType": "address",
          "name": "businessOwner",
          "type": "address"
        },
        {
          "internalType": "string",
          "name": "content",
          "type": "string"
        }
      ],
      "stateMutability": "view",
      "type": "function"
    },
    {
      "inputs": [
        {
          "internalType": "address",
          "name": "_businessOwner",
          "type": "address"
        },
        {
          "internalType": "string",
          "name": "_name",
          "type": "string"
        },
        {
          "internalType": "string",
          "name": "_country",
          "type": "string"
        },
        {
          "internalType": "string",
          "name": "_facebook",
          "type": "string"
        },
        {
          "internalType": "string",
          "name": "_website",
          "type": "string"
        },
        {
          "internalType": "string",
          "name": "_linkedin",
          "type": "string"
        },
        {
          "internalType": "string",
          "name": "_focusArea",
          "type": "string"
        },
        {
          "internalType": "string",
          "name": "_password",
          "type": "string"
        }
      ],
      "name": "addBusinessProfile",
      "outputs": [],
      "stateMutability": "nonpayable",
      "type": "function"
    },
    {
      "inputs": [
        {
          "internalType": "address",
          "name": "_businessOwner",
          "type": "address"
        }
      ],
      "name": "getBusinessProfile",
      "outputs": [
        {
          "internalType": "address",
          "name": "businessOwner",
          "type": "address"
        },
        {
          "internalType": "string",
          "name": "name",
          "type": "string"
        },
        {
          "internalType": "string",
          "name": "country",
          "type": "string"
        },
        {
          "internalType": "string",
          "name": "facebook",
          "type": "string"
        },
        {
          "internalType": "string",
          "name": "website",
          "type": "string"
        },
        {
          "internalType": "string",
          "name": "linkedin",
          "type": "string"
        },
        {
          "internalType": "string",
          "name": "focusArea",
          "type": "string"
        }
      ],
      "stateMutability": "view",
      "type": "function"
    },
    {
      "inputs": [
        {
          "internalType": "address",
          "name": "_businessOwner",
          "type": "address"
        },
        {
          "internalType": "string",
          "name": "_password",
          "type": "string"
        }
      ],
      "name": "checkBusinessProfile",
      "outputs": [
        {
          "internalType": "uint256",
          "name": "",
          "type": "uint256"
        }
      ],
      "stateMutability": "view",
      "type": "function"
    },
    {
      "inputs": [
        {
          "internalType": "address",
          "name": "_businessOwner",
          "type": "address"
        }
      ],
      "name": "checkExistBusiness",
      "outputs": [
        {
          "internalType": "uint256",
          "name": "x",
          "type": "uint256"
        }
      ],
      "stateMutability": "view",
      "type": "function"
    },
    {
      "inputs": [
        {
          "internalType": "address",
          "name": "_businessOwner",
          "type": "address"
        }
      ],
      "name": "getListCV",
      "outputs": [
        {
          "internalType": "address[]",
          "name": "",
          "type": "address[]"
        },
        {
          "internalType": "address[]",
          "name": "",
          "type": "address[]"
        },
        {
          "internalType": "string[]",
          "name": "",
          "type": "string[]"
        },
        {
          "internalType": "string[]",
          "name": "",
          "type": "string[]"
        },
        {
          "internalType": "string[]",
          "name": "",
          "type": "string[]"
        }
      ],
      "stateMutability": "view",
      "type": "function"
    },
    {
      "inputs": [
        {
          "internalType": "address",
          "name": "_studentOwner",
          "type": "address"
        },
        {
          "internalType": "address",
          "name": "_businessOwner",
          "type": "address"
        },
        {
          "internalType": "string",
          "name": "_jobTitle",
          "type": "string"
        },
        {
          "internalType": "string",
          "name": "_statusCV",
          "type": "string"
        }
      ],
      "name": "interviewCV",
      "outputs": [],
      "stateMutability": "nonpayable",
      "type": "function"
    },
    {
      "inputs": [
        {
          "internalType": "address",
          "name": "_studentOwner",
          "type": "address"
        },
        {
          "internalType": "address",
          "name": "_businessOwner",
          "type": "address"
        },
        {
          "internalType": "string",
          "name": "_jobTitle",
          "type": "string"
        },
        {
          "internalType": "string",
          "name": "_statusCV",
          "type": "string"
        }
      ],
      "name": "onboardCV",
      "outputs": [],
      "stateMutability": "nonpayable",
      "type": "function"
    },
    {
      "inputs": [
        {
          "internalType": "address",
          "name": "_businessOwner",
          "type": "address"
        },
        {
          "internalType": "string",
          "name": "_jobTitle",
          "type": "string"
        },
        {
          "internalType": "string",
          "name": "_jobDescription",
          "type": "string"
        }
      ],
      "name": "addRecruit",
      "outputs": [],
      "stateMutability": "nonpayable",
      "type": "function"
    },
    {
      "inputs": [
        {
          "internalType": "address",
          "name": "_studentOwner",
          "type": "address"
        },
        {
          "internalType": "address",
          "name": "_businessOwner",
          "type": "address"
        },
        {
          "internalType": "string",
          "name": "_content",
          "type": "string"
        }
      ],
      "name": "sendReview",
      "outputs": [],
      "stateMutability": "nonpayable",
      "type": "function"
    },
    {
      "inputs": [
        {
          "internalType": "address",
          "name": "_iigOwner",
          "type": "address"
        },
        {
          "internalType": "string",
          "name": "_name",
          "type": "string"
        },
        {
          "internalType": "string",
          "name": "_country",
          "type": "string"
        },
        {
          "internalType": "string",
          "name": "_facebook",
          "type": "string"
        },
        {
          "internalType": "string",
          "name": "_website",
          "type": "string"
        },
        {
          "internalType": "string",
          "name": "_linkedin",
          "type": "string"
        },
        {
          "internalType": "string",
          "name": "_password",
          "type": "string"
        }
      ],
      "name": "addIIGProfile",
      "outputs": [],
      "stateMutability": "nonpayable",
      "type": "function"
    },
    {
      "inputs": [
        {
          "internalType": "address",
          "name": "_iigOwner",
          "type": "address"
        }
      ],
      "name": "getIIGProfile",
      "outputs": [
        {
          "internalType": "address",
          "name": "iigOwner",
          "type": "address"
        },
        {
          "internalType": "string",
          "name": "name",
          "type": "string"
        },
        {
          "internalType": "string",
          "name": "country",
          "type": "string"
        },
        {
          "internalType": "string",
          "name": "facebook",
          "type": "string"
        },
        {
          "internalType": "string",
          "name": "website",
          "type": "string"
        },
        {
          "internalType": "string",
          "name": "linkedin",
          "type": "string"
        }
      ],
      "stateMutability": "view",
      "type": "function"
    },
    {
      "inputs": [
        {
          "internalType": "address",
          "name": "_iigOwner",
          "type": "address"
        },
        {
          "internalType": "string",
          "name": "_password",
          "type": "string"
        }
      ],
      "name": "checkIIGProfile",
      "outputs": [
        {
          "internalType": "uint256",
          "name": "",
          "type": "uint256"
        }
      ],
      "stateMutability": "view",
      "type": "function"
    },
    {
      "inputs": [
        {
          "internalType": "address",
          "name": "_iigOwner",
          "type": "address"
        }
      ],
      "name": "checkExistIIG",
      "outputs": [
        {
          "internalType": "uint256",
          "name": "x",
          "type": "uint256"
        }
      ],
      "stateMutability": "view",
      "type": "function"
    },
    {
      "inputs": [
        {
          "internalType": "address",
          "name": "_iigOwner",
          "type": "address"
        },
        {
          "internalType": "address",
          "name": "_studentOwner",
          "type": "address"
        },
        {
          "internalType": "string",
          "name": "_testDate",
          "type": "string"
        },
        {
          "internalType": "uint256",
          "name": "_listeningScore",
          "type": "uint256"
        },
        {
          "internalType": "uint256",
          "name": "_readingScore",
          "type": "uint256"
        }
      ],
      "name": "addIIGLRResult",
      "outputs": [],
      "stateMutability": "nonpayable",
      "type": "function"
    },
    {
      "inputs": [
        {
          "internalType": "address",
          "name": "_iigOwner",
          "type": "address"
        },
        {
          "internalType": "address",
          "name": "_studentOwner",
          "type": "address"
        },
        {
          "internalType": "string",
          "name": "_testDate",
          "type": "string"
        },
        {
          "internalType": "uint256",
          "name": "_speakingScore",
          "type": "uint256"
        },
        {
          "internalType": "uint256",
          "name": "_writingScore",
          "type": "uint256"
        }
      ],
      "name": "addIIGSWResult",
      "outputs": [],
      "stateMutability": "nonpayable",
      "type": "function"
    },
    {
      "inputs": [
        {
          "internalType": "address",
          "name": "_studentOwner",
          "type": "address"
        }
      ],
      "name": "getIIGRCResult",
      "outputs": [
        {
          "internalType": "address",
          "name": "studentOwners",
          "type": "address"
        },
        {
          "internalType": "uint256",
          "name": "maxScore",
          "type": "uint256"
        }
      ],
      "stateMutability": "view",
      "type": "function"
    },
    {
      "inputs": [
        {
          "internalType": "address",
          "name": "_studentOwner",
          "type": "address"
        }
      ],
      "name": "getIIGSWResult",
      "outputs": [
        {
          "internalType": "address",
          "name": "studentOwners",
          "type": "address"
        },
        {
          "internalType": "uint256",
          "name": "maxScore",
          "type": "uint256"
        }
      ],
      "stateMutability": "view",
      "type": "function"
    }
  ],
  "bytecode": "0x60806040526040516200001290620001c7565b604051809103906000f0801580156200002f573d6000803e3d6000fd5b506000806101000a81548173ffffffffffffffffffffffffffffffffffffffff021916908373ffffffffffffffffffffffffffffffffffffffff1602179055506040516200007d90620001d5565b604051809103906000f0801580156200009a573d6000803e3d6000fd5b50600160006101000a81548173ffffffffffffffffffffffffffffffffffffffff021916908373ffffffffffffffffffffffffffffffffffffffff160217905550604051620000e990620001e3565b604051809103906000f08015801562000106573d6000803e3d6000fd5b50600260006101000a81548173ffffffffffffffffffffffffffffffffffffffff021916908373ffffffffffffffffffffffffffffffffffffffff1602179055506040516200015590620001f1565b604051809103906000f08015801562000172573d6000803e3d6000fd5b50600360006101000a81548173ffffffffffffffffffffffffffffffffffffffff021916908373ffffffffffffffffffffffffffffffffffffffff160217905550348015620001c057600080fd5b50620001ff565b612c7a80620038d383390190565b6122ac806200654d83390190565b613abe80620087f983390190565b6125e9806200c2b783390190565b6136c4806200020f6000396000f3fe608060405234801561001057600080fd5b50600436106101d95760003560e01c80636d53448f11610104578063b567c104116100a2578063e283272111610071578063e283272114610612578063e2f43af21461062e578063e9daa70a1461064a578063fe7617831461067c576101d9565b8063b567c10414610574578063ce1ec5bb14610590578063cee5c7f3146105c1578063d2f9858f146105dd576101d9565b8063873dcd29116100de578063873dcd29146104c457806391b9e6db146104f45780639cd3258214610510578063acf6f3fd14610544576101d9565b80636d53448f1461045b5780637e75802914610477578063844bb460146104a8576101d9565b806335c77f851161017c5780634585864a1161014b5780634585864a146103b857806357824f16146103e95780635b288a931461040e5780636b4dbb281461042a576101d9565b806335c77f85146102f257806339d92c4c1461032257806342f08d4b1461035257806344fd6e2214610388576101d9565b806311345a20116101b857806311345a201461025a578063132e34991461028a5780631632dd98146102a65780632df96bfc146102c2576101d9565b80624e56cf146101de5780630299779f146101fa5780630ac68f371461022a575b600080fd5b6101f860048036038101906101f39190611c26565b6106b3565b005b610214600480360381019061020f9190611cc5565b61074b565b6040516102219190611d4d565b60405180910390f35b610244600480360381019061023f9190611d68565b6107f6565b6040516102519190611d4d565b60405180910390f35b610274600480360381019061026f9190611dc4565b61089d565b6040516102819190611d4d565b60405180910390f35b6102a4600480360381019061029f9190611e1d565b610941565b005b6102c060048036038101906102bb9190611cc5565b6109dd565b005b6102dc60048036038101906102d79190611dc4565b610a73565b6040516102e99190611d4d565b60405180910390f35b61030c60048036038101906103079190611d68565b610b2c565b6040516103199190611d4d565b60405180910390f35b61033c60048036038101906103379190611dc4565b610bd4565b6040516103499190611d4d565b60405180910390f35b61036c60048036038101906103679190611dc4565b610c79565b60405161037f9796959493929190611f4b565b60405180910390f35b6103a2600480360381019061039d9190611dc4565b610d3e565b6040516103af9190611d4d565b60405180910390f35b6103d260048036038101906103cd9190611dc4565b610de3565b6040516103e0929190611fe4565b60405180910390f35b6103f1610e8a565b6040516104059897969594939291906121d7565b60405180910390f35b6104286004803603810190610423919061228d565b610f46565b005b610444600480360381019061043f9190611dc4565b610fe9565b6040516104529291906124c5565b60405180910390f35b6104756004803603810190610470919061228d565b611094565b005b610491600480360381019061048c9190611dc4565b611139565b60405161049f929190611fe4565b60405180910390f35b6104c260048036038101906104bd9190611c26565b6111e0565b005b6104de60048036038101906104d99190611d68565b611279565b6040516104eb9190611d4d565b60405180910390f35b61050e60048036038101906105099190611c26565b611321565b005b61052a60048036038101906105259190611dc4565b6113ba565b60405161053b9594939291906124fc565b60405180910390f35b61055e60048036038101906105599190611d68565b611476565b60405161056b9190611d4d565b60405180910390f35b61058e60048036038101906105899190611e1d565b61151d565b005b6105aa60048036038101906105a59190611dc4565b6115b9565b6040516105b8929190612572565b60405180910390f35b6105db60048036038101906105d691906125a9565b611666565b005b6105f760048036038101906105f29190611dc4565b6116fc565b60405161060996959493929190612634565b60405180910390f35b61062c600480360381019061062791906126b8565b6117bc565b005b61064860048036038101906106439190612802565b61185e565b005b610664600480360381019061065f9190612871565b6118f2565b604051610673939291906128b1565b60405180910390f35b61069660048036038101906106919190611dc4565b6119a7565b6040516106aa9897969594939291906128ef565b60405180910390f35b600360009054906101000a900473ffffffffffffffffffffffffffffffffffffffff1673ffffffffffffffffffffffffffffffffffffffff16624e56cf858585856040518563ffffffff1660e01b8152600401610713949392919061299e565b600060405180830381600087803b15801561072d57600080fd5b505af1158015610741573d6000803e3d6000fd5b5050505050505050565b6000600360009054906101000a900473ffffffffffffffffffffffffffffffffffffffff1673ffffffffffffffffffffffffffffffffffffffff16630299779f8585856040518463ffffffff1660e01b81526004016107ac939291906128b1565b602060405180830381865afa1580156107c9573d6000803e3d6000fd5b505050506040513d601f19601f820116820180604052508101906107ed9190612a06565b90509392505050565b60008060009054906101000a900473ffffffffffffffffffffffffffffffffffffffff1673ffffffffffffffffffffffffffffffffffffffff1663716b5ab484846040518363ffffffff1660e01b8152600401610854929190612a33565b602060405180830381865afa158015610871573d6000803e3d6000fd5b505050506040513d601f19601f820116820180604052508101906108959190612a06565b905092915050565b60008060009054906101000a900473ffffffffffffffffffffffffffffffffffffffff1673ffffffffffffffffffffffffffffffffffffffff1663961ecb5b836040518263ffffffff1660e01b81526004016108f99190612a63565b602060405180830381865afa158015610916573d6000803e3d6000fd5b505050506040513d601f19601f8201168201806040525081019061093a9190612a06565b9050919050565b600260009054906101000a900473ffffffffffffffffffffffffffffffffffffffff1673ffffffffffffffffffffffffffffffffffffffff1663d767573e86868686866040518663ffffffff1660e01b81526004016109a4959493929190612a7e565b600060405180830381600087803b1580156109be57600080fd5b505af11580156109d2573d6000803e3d6000fd5b505050505050505050565b600360009054906101000a900473ffffffffffffffffffffffffffffffffffffffff1673ffffffffffffffffffffffffffffffffffffffff1663ae8f00d38484846040518463ffffffff1660e01b8152600401610a3c939291906128b1565b600060405180830381600087803b158015610a5657600080fd5b505af1158015610a6a573d6000803e3d6000fd5b50505050505050565b60008060008054906101000a900473ffffffffffffffffffffffffffffffffffffffff1673ffffffffffffffffffffffffffffffffffffffff16638e891393846040518263ffffffff1660e01b8152600401610acf9190612a63565b602060405180830381865afa158015610aec573d6000803e3d6000fd5b505050506040513d601f19601f82011682018060405250810190610b109190612a06565b9050600a811115610b25576001915050610b27565b505b919050565b6000600160009054906101000a900473ffffffffffffffffffffffffffffffffffffffff1673ffffffffffffffffffffffffffffffffffffffff1663a7dba18484846040518363ffffffff1660e01b8152600401610b8b929190612a33565b602060405180830381865afa158015610ba8573d6000803e3d6000fd5b505050506040513d601f19601f82011682018060405250810190610bcc9190612a06565b905092915050565b6000600160009054906101000a900473ffffffffffffffffffffffffffffffffffffffff1673ffffffffffffffffffffffffffffffffffffffff1663c6fe410a836040518263ffffffff1660e01b8152600401610c319190612a63565b602060405180830381865afa158015610c4e573d6000803e3d6000fd5b505050506040513d601f19601f82011682018060405250810190610c729190612a06565b9050919050565b6000606080606080606080600160009054906101000a900473ffffffffffffffffffffffffffffffffffffffff1673ffffffffffffffffffffffffffffffffffffffff16630f53a470896040518263ffffffff1660e01b8152600401610cdf9190612a63565b600060405180830381865afa158015610cfc573d6000803e3d6000fd5b505050506040513d6000823e3d601f19601f82011682018060405250810190610d259190612b5d565b9650965096509650965096509650919395979092949650565b6000600260009054906101000a900473ffffffffffffffffffffffffffffffffffffffff1673ffffffffffffffffffffffffffffffffffffffff166344fd6e22836040518263ffffffff1660e01b8152600401610d9b9190612a63565b602060405180830381865afa158015610db8573d6000803e3d6000fd5b505050506040513d601f19601f82011682018060405250810190610ddc9190612a06565b9050919050565b600080600260009054906101000a900473ffffffffffffffffffffffffffffffffffffffff1673ffffffffffffffffffffffffffffffffffffffff16639e8aee6e846040518263ffffffff1660e01b8152600401610e419190612a63565b6040805180830381865afa158015610e5d573d6000803e3d6000fd5b505050506040513d601f19601f82011682018060405250810190610e819190612ca7565b91509150915091565b606080606080606080606080600160009054906101000a900473ffffffffffffffffffffffffffffffffffffffff1673ffffffffffffffffffffffffffffffffffffffff1663cfafbc0c6040518163ffffffff1660e01b8152600401600060405180830381865afa158015610f03573d6000803e3d6000fd5b505050506040513d6000823e3d601f19601f82011682018060405250810190610f2c9190612e90565b975097509750975097509750975097509091929394959697565b60008054906101000a900473ffffffffffffffffffffffffffffffffffffffff1673ffffffffffffffffffffffffffffffffffffffff16639fea8e1089898989898989896040518963ffffffff1660e01b8152600401610fad9897969594939291906128ef565b600060405180830381600087803b158015610fc757600080fd5b505af1158015610fdb573d6000803e3d6000fd5b505050505050505050505050565b60608060008054906101000a900473ffffffffffffffffffffffffffffffffffffffff1673ffffffffffffffffffffffffffffffffffffffff1663ac4b2049846040518263ffffffff1660e01b81526004016110459190612a63565b600060405180830381865afa158015611062573d6000803e3d6000fd5b505050506040513d6000823e3d601f19601f8201168201806040525081019061108b91906130e9565b91509150915091565b600160009054906101000a900473ffffffffffffffffffffffffffffffffffffffff1673ffffffffffffffffffffffffffffffffffffffff1663e045b71089898989898989896040518963ffffffff1660e01b81526004016110fd9897969594939291906128ef565b600060405180830381600087803b15801561111757600080fd5b505af115801561112b573d6000803e3d6000fd5b505050505050505050505050565b600080600260009054906101000a900473ffffffffffffffffffffffffffffffffffffffff1673ffffffffffffffffffffffffffffffffffffffff1663776f1110846040518263ffffffff1660e01b81526004016111979190612a63565b6040805180830381865afa1580156111b3573d6000803e3d6000fd5b505050506040513d601f19601f820116820180604052508101906111d79190612ca7565b91509150915091565b600360009054906101000a900473ffffffffffffffffffffffffffffffffffffffff1673ffffffffffffffffffffffffffffffffffffffff1663844bb460858585856040518563ffffffff1660e01b8152600401611241949392919061299e565b600060405180830381600087803b15801561125b57600080fd5b505af115801561126f573d6000803e3d6000fd5b5050505050505050565b6000600260009054906101000a900473ffffffffffffffffffffffffffffffffffffffff1673ffffffffffffffffffffffffffffffffffffffff166324e6603784846040518363ffffffff1660e01b81526004016112d8929190612a33565b602060405180830381865afa1580156112f5573d6000803e3d6000fd5b505050506040513d601f19601f820116820180604052508101906113199190612a06565b905092915050565b600360009054906101000a900473ffffffffffffffffffffffffffffffffffffffff1673ffffffffffffffffffffffffffffffffffffffff1663dc1e475f858585856040518563ffffffff1660e01b8152600401611382949392919061299e565b600060405180830381600087803b15801561139c57600080fd5b505af11580156113b0573d6000803e3d6000fd5b5050505050505050565b6060806060806060600360009054906101000a900473ffffffffffffffffffffffffffffffffffffffff1673ffffffffffffffffffffffffffffffffffffffff1663381a3bf7876040518263ffffffff1660e01b815260040161141d9190612a63565b600060405180830381865afa15801561143a573d6000803e3d6000fd5b505050506040513d6000823e3d601f19601f820116820180604052508101906114639190613161565b9450945094509450945091939590929450565b60008060009054906101000a900473ffffffffffffffffffffffffffffffffffffffff1673ffffffffffffffffffffffffffffffffffffffff1663174ceeab84846040518363ffffffff1660e01b81526004016114d4929190612a33565b602060405180830381865afa1580156114f1573d6000803e3d6000fd5b505050506040513d601f19601f820116820180604052508101906115159190612a06565b905092915050565b600260009054906101000a900473ffffffffffffffffffffffffffffffffffffffff1673ffffffffffffffffffffffffffffffffffffffff16631ababd2986868686866040518663ffffffff1660e01b8152600401611580959493929190612a7e565b600060405180830381600087803b15801561159a57600080fd5b505af11580156115ae573d6000803e3d6000fd5b505050505050505050565b606080600360009054906101000a900473ffffffffffffffffffffffffffffffffffffffff1673ffffffffffffffffffffffffffffffffffffffff1663ce1ec5bb846040518263ffffffff1660e01b81526004016116179190612a63565b600060405180830381865afa158015611634573d6000803e3d6000fd5b505050506040513d6000823e3d601f19601f8201168201806040525081019061165d9190613268565b91509150915091565b600360009054906101000a900473ffffffffffffffffffffffffffffffffffffffff1673ffffffffffffffffffffffffffffffffffffffff1663cee5c7f38484846040518463ffffffff1660e01b81526004016116c5939291906132e0565b600060405180830381600087803b1580156116df57600080fd5b505af11580156116f3573d6000803e3d6000fd5b50505050505050565b60006060806060806060600260009054906101000a900473ffffffffffffffffffffffffffffffffffffffff1673ffffffffffffffffffffffffffffffffffffffff16630f53a470886040518263ffffffff1660e01b81526004016117619190612a63565b600060405180830381865afa15801561177e573d6000803e3d6000fd5b505050506040513d6000823e3d601f19601f820116820180604052508101906117a79190613325565b95509550955095509550955091939550919395565b600260009054906101000a900473ffffffffffffffffffffffffffffffffffffffff1673ffffffffffffffffffffffffffffffffffffffff1663dd8f3edc888888888888886040518863ffffffff1660e01b81526004016118239796959493929190611f4b565b600060405180830381600087803b15801561183d57600080fd5b505af1158015611851573d6000803e3d6000fd5b5050505050505050505050565b60008054906101000a900473ffffffffffffffffffffffffffffffffffffffff1673ffffffffffffffffffffffffffffffffffffffff166360ccb2048484846040518463ffffffff1660e01b81526004016118bb9392919061343e565b600060405180830381600087803b1580156118d557600080fd5b505af11580156118e9573d6000803e3d6000fd5b50505050505050565b6000806060600360009054906101000a900473ffffffffffffffffffffffffffffffffffffffff1673ffffffffffffffffffffffffffffffffffffffff1663e9daa70a86866040518363ffffffff1660e01b815260040161195492919061347c565b600060405180830381865afa158015611971573d6000803e3d6000fd5b505050506040513d6000823e3d601f19601f8201168201806040525081019061199a91906134a5565b9250925092509250925092565b6000606080606080606080606060008054906101000a900473ffffffffffffffffffffffffffffffffffffffff1673ffffffffffffffffffffffffffffffffffffffff16630f53a4708a6040518263ffffffff1660e01b8152600401611a0d9190612a63565b600060405180830381865afa158015611a2a573d6000803e3d6000fd5b505050506040513d6000823e3d601f19601f82011682018060405250810190611a539190613514565b97509750975097509750975097509750919395975091939597565b6000604051905090565b600080fd5b600080fd5b600073ffffffffffffffffffffffffffffffffffffffff82169050919050565b6000611aad82611a82565b9050919050565b611abd81611aa2565b8114611ac857600080fd5b50565b600081359050611ada81611ab4565b92915050565b600080fd5b600080fd5b6000601f19601f8301169050919050565b7f4e487b7100000000000000000000000000000000000000000000000000000000600052604160045260246000fd5b611b3382611aea565b810181811067ffffffffffffffff82111715611b5257611b51611afb565b5b80604052505050565b6000611b65611a6e565b9050611b718282611b2a565b919050565b600067ffffffffffffffff821115611b9157611b90611afb565b5b611b9a82611aea565b9050602081019050919050565b82818337600083830152505050565b6000611bc9611bc484611b76565b611b5b565b905082815260208101848484011115611be557611be4611ae5565b5b611bf0848285611ba7565b509392505050565b600082601f830112611c0d57611c0c611ae0565b5b8135611c1d848260208601611bb6565b91505092915050565b60008060008060808587031215611c4057611c3f611a78565b5b6000611c4e87828801611acb565b9450506020611c5f87828801611acb565b935050604085013567ffffffffffffffff811115611c8057611c7f611a7d565b5b611c8c87828801611bf8565b925050606085013567ffffffffffffffff811115611cad57611cac611a7d565b5b611cb987828801611bf8565b91505092959194509250565b600080600060608486031215611cde57611cdd611a78565b5b6000611cec86828701611acb565b9350506020611cfd86828701611acb565b925050604084013567ffffffffffffffff811115611d1e57611d1d611a7d565b5b611d2a86828701611bf8565b9150509250925092565b6000819050919050565b611d4781611d34565b82525050565b6000602082019050611d626000830184611d3e565b92915050565b60008060408385031215611d7f57611d7e611a78565b5b6000611d8d85828601611acb565b925050602083013567ffffffffffffffff811115611dae57611dad611a7d565b5b611dba85828601611bf8565b9150509250929050565b600060208284031215611dda57611dd9611a78565b5b6000611de884828501611acb565b91505092915050565b611dfa81611d34565b8114611e0557600080fd5b50565b600081359050611e1781611df1565b92915050565b600080600080600060a08688031215611e3957611e38611a78565b5b6000611e4788828901611acb565b9550506020611e5888828901611acb565b945050604086013567ffffffffffffffff811115611e7957611e78611a7d565b5b611e8588828901611bf8565b9350506060611e9688828901611e08565b9250506080611ea788828901611e08565b9150509295509295909350565b611ebd81611aa2565b82525050565b600081519050919050565b600082825260208201905092915050565b60005b83811015611efd578082015181840152602081019050611ee2565b83811115611f0c576000848401525b50505050565b6000611f1d82611ec3565b611f278185611ece565b9350611f37818560208601611edf565b611f4081611aea565b840191505092915050565b600060e082019050611f60600083018a611eb4565b8181036020830152611f728189611f12565b90508181036040830152611f868188611f12565b90508181036060830152611f9a8187611f12565b90508181036080830152611fae8186611f12565b905081810360a0830152611fc28185611f12565b905081810360c0830152611fd68184611f12565b905098975050505050505050565b6000604082019050611ff96000830185611eb4565b6120066020830184611d3e565b9392505050565b600081519050919050565b600082825260208201905092915050565b6000819050602082019050919050565b61204281611aa2565b82525050565b60006120548383612039565b60208301905092915050565b6000602082019050919050565b60006120788261200d565b6120828185612018565b935061208d83612029565b8060005b838110156120be5781516120a58882612048565b97506120b083612060565b925050600181019050612091565b5085935050505092915050565b600081519050919050565b600082825260208201905092915050565b6000819050602082019050919050565b600082825260208201905092915050565b600061211382611ec3565b61211d81856120f7565b935061212d818560208601611edf565b61213681611aea565b840191505092915050565b600061214d8383612108565b905092915050565b6000602082019050919050565b600061216d826120cb565b61217781856120d6565b935083602082028501612189856120e7565b8060005b858110156121c557848403895281516121a68582612141565b94506121b183612155565b925060208a0199505060018101905061218d565b50829750879550505050505092915050565b60006101008201905081810360008301526121f2818b61206d565b90508181036020830152612206818a612162565b9050818103604083015261221a8189612162565b9050818103606083015261222e8188612162565b905081810360808301526122428187612162565b905081810360a08301526122568186612162565b905081810360c083015261226a8185612162565b905081810360e083015261227e8184612162565b90509998505050505050505050565b600080600080600080600080610100898b0312156122ae576122ad611a78565b5b60006122bc8b828c01611acb565b985050602089013567ffffffffffffffff8111156122dd576122dc611a7d565b5b6122e98b828c01611bf8565b975050604089013567ffffffffffffffff81111561230a57612309611a7d565b5b6123168b828c01611bf8565b965050606089013567ffffffffffffffff81111561233757612336611a7d565b5b6123438b828c01611bf8565b955050608089013567ffffffffffffffff81111561236457612363611a7d565b5b6123708b828c01611bf8565b94505060a089013567ffffffffffffffff81111561239157612390611a7d565b5b61239d8b828c01611bf8565b93505060c089013567ffffffffffffffff8111156123be576123bd611a7d565b5b6123ca8b828c01611bf8565b92505060e089013567ffffffffffffffff8111156123eb576123ea611a7d565b5b6123f78b828c01611bf8565b9150509295985092959890939650565b600081519050919050565b600082825260208201905092915050565b6000819050602082019050919050565b61243c81611d34565b82525050565b600061244e8383612433565b60208301905092915050565b6000602082019050919050565b600061247282612407565b61247c8185612412565b935061248783612423565b8060005b838110156124b857815161249f8882612442565b97506124aa8361245a565b92505060018101905061248b565b5085935050505092915050565b600060408201905081810360008301526124df8185612162565b905081810360208301526124f38184612467565b90509392505050565b600060a0820190508181036000830152612516818861206d565b9050818103602083015261252a818761206d565b9050818103604083015261253e8186612162565b905081810360608301526125528185612162565b905081810360808301526125668184612162565b90509695505050505050565b6000604082019050818103600083015261258c8185612162565b905081810360208301526125a08184612162565b90509392505050565b6000806000606084860312156125c2576125c1611a78565b5b60006125d086828701611acb565b935050602084013567ffffffffffffffff8111156125f1576125f0611a7d565b5b6125fd86828701611bf8565b925050604084013567ffffffffffffffff81111561261e5761261d611a7d565b5b61262a86828701611bf8565b9150509250925092565b600060c0820190506126496000830189611eb4565b818103602083015261265b8188611f12565b9050818103604083015261266f8187611f12565b905081810360608301526126838186611f12565b905081810360808301526126978185611f12565b905081810360a08301526126ab8184611f12565b9050979650505050505050565b600080600080600080600060e0888a0312156126d7576126d6611a78565b5b60006126e58a828b01611acb565b975050602088013567ffffffffffffffff81111561270657612705611a7d565b5b6127128a828b01611bf8565b965050604088013567ffffffffffffffff81111561273357612732611a7d565b5b61273f8a828b01611bf8565b955050606088013567ffffffffffffffff8111156127605761275f611a7d565b5b61276c8a828b01611bf8565b945050608088013567ffffffffffffffff81111561278d5761278c611a7d565b5b6127998a828b01611bf8565b93505060a088013567ffffffffffffffff8111156127ba576127b9611a7d565b5b6127c68a828b01611bf8565b92505060c088013567ffffffffffffffff8111156127e7576127e6611a7d565b5b6127f38a828b01611bf8565b91505092959891949750929550565b60008060006060848603121561281b5761281a611a78565b5b600061282986828701611acb565b935050602084013567ffffffffffffffff81111561284a57612849611a7d565b5b61285686828701611bf8565b925050604061286786828701611e08565b9150509250925092565b6000806040838503121561288857612887611a78565b5b600061289685828601611acb565b92505060206128a785828601611acb565b9150509250929050565b60006060820190506128c66000830186611eb4565b6128d36020830185611eb4565b81810360408301526128e58184611f12565b9050949350505050565b600061010082019050612905600083018b611eb4565b8181036020830152612917818a611f12565b9050818103604083015261292b8189611f12565b9050818103606083015261293f8188611f12565b905081810360808301526129538187611f12565b905081810360a08301526129678186611f12565b905081810360c083015261297b8185611f12565b905081810360e083015261298f8184611f12565b90509998505050505050505050565b60006080820190506129b36000830187611eb4565b6129c06020830186611eb4565b81810360408301526129d28185611f12565b905081810360608301526129e68184611f12565b905095945050505050565b600081519050612a0081611df1565b92915050565b600060208284031215612a1c57612a1b611a78565b5b6000612a2a848285016129f1565b91505092915050565b6000604082019050612a486000830185611eb4565b8181036020830152612a5a8184611f12565b90509392505050565b6000602082019050612a786000830184611eb4565b92915050565b600060a082019050612a936000830188611eb4565b612aa06020830187611eb4565b8181036040830152612ab28186611f12565b9050612ac16060830185611d3e565b612ace6080830184611d3e565b9695505050505050565b600081519050612ae781611ab4565b92915050565b6000612b00612afb84611b76565b611b5b565b905082815260208101848484011115612b1c57612b1b611ae5565b5b612b27848285611edf565b509392505050565b600082601f830112612b4457612b43611ae0565b5b8151612b54848260208601612aed565b91505092915050565b600080600080600080600060e0888a031215612b7c57612b7b611a78565b5b6000612b8a8a828b01612ad8565b975050602088015167ffffffffffffffff811115612bab57612baa611a7d565b5b612bb78a828b01612b2f565b965050604088015167ffffffffffffffff811115612bd857612bd7611a7d565b5b612be48a828b01612b2f565b955050606088015167ffffffffffffffff811115612c0557612c04611a7d565b5b612c118a828b01612b2f565b945050608088015167ffffffffffffffff811115612c3257612c31611a7d565b5b612c3e8a828b01612b2f565b93505060a088015167ffffffffffffffff811115612c5f57612c5e611a7d565b5b612c6b8a828b01612b2f565b92505060c088015167ffffffffffffffff811115612c8c57612c8b611a7d565b5b612c988a828b01612b2f565b91505092959891949750929550565b60008060408385031215612cbe57612cbd611a78565b5b6000612ccc85828601612ad8565b9250506020612cdd858286016129f1565b9150509250929050565b600067ffffffffffffffff821115612d0257612d01611afb565b5b602082029050602081019050919050565b600080fd5b6000612d2b612d2684612ce7565b611b5b565b90508083825260208201905060208402830185811115612d4e57612d4d612d13565b5b835b81811015612d775780612d638882612ad8565b845260208401935050602081019050612d50565b5050509392505050565b600082601f830112612d9657612d95611ae0565b5b8151612da6848260208601612d18565b91505092915050565b600067ffffffffffffffff821115612dca57612dc9611afb565b5b602082029050602081019050919050565b6000612dee612de984612daf565b611b5b565b90508083825260208201905060208402830185811115612e1157612e10612d13565b5b835b81811015612e5857805167ffffffffffffffff811115612e3657612e35611ae0565b5b808601612e438982612b2f565b85526020850194505050602081019050612e13565b5050509392505050565b600082601f830112612e7757612e76611ae0565b5b8151612e87848260208601612ddb565b91505092915050565b600080600080600080600080610100898b031215612eb157612eb0611a78565b5b600089015167ffffffffffffffff811115612ecf57612ece611a7d565b5b612edb8b828c01612d81565b985050602089015167ffffffffffffffff811115612efc57612efb611a7d565b5b612f088b828c01612e62565b975050604089015167ffffffffffffffff811115612f2957612f28611a7d565b5b612f358b828c01612e62565b965050606089015167ffffffffffffffff811115612f5657612f55611a7d565b5b612f628b828c01612e62565b955050608089015167ffffffffffffffff811115612f8357612f82611a7d565b5b612f8f8b828c01612e62565b94505060a089015167ffffffffffffffff811115612fb057612faf611a7d565b5b612fbc8b828c01612e62565b93505060c089015167ffffffffffffffff811115612fdd57612fdc611a7d565b5b612fe98b828c01612e62565b92505060e089015167ffffffffffffffff81111561300a57613009611a7d565b5b6130168b828c01612e62565b9150509295985092959890939650565b600067ffffffffffffffff82111561304157613040611afb565b5b602082029050602081019050919050565b600061306561306084613026565b611b5b565b9050808382526020820190506020840283018581111561308857613087612d13565b5b835b818110156130b1578061309d88826129f1565b84526020840193505060208101905061308a565b5050509392505050565b600082601f8301126130d0576130cf611ae0565b5b81516130e0848260208601613052565b91505092915050565b60008060408385031215613100576130ff611a78565b5b600083015167ffffffffffffffff81111561311e5761311d611a7d565b5b61312a85828601612e62565b925050602083015167ffffffffffffffff81111561314b5761314a611a7d565b5b613157858286016130bb565b9150509250929050565b600080600080600060a0868803121561317d5761317c611a78565b5b600086015167ffffffffffffffff81111561319b5761319a611a7d565b5b6131a788828901612d81565b955050602086015167ffffffffffffffff8111156131c8576131c7611a7d565b5b6131d488828901612d81565b945050604086015167ffffffffffffffff8111156131f5576131f4611a7d565b5b61320188828901612e62565b935050606086015167ffffffffffffffff81111561322257613221611a7d565b5b61322e88828901612e62565b925050608086015167ffffffffffffffff81111561324f5761324e611a7d565b5b61325b88828901612e62565b9150509295509295909350565b6000806040838503121561327f5761327e611a78565b5b600083015167ffffffffffffffff81111561329d5761329c611a7d565b5b6132a985828601612e62565b925050602083015167ffffffffffffffff8111156132ca576132c9611a7d565b5b6132d685828601612e62565b9150509250929050565b60006060820190506132f56000830186611eb4565b81810360208301526133078185611f12565b9050818103604083015261331b8184611f12565b9050949350505050565b60008060008060008060c0878903121561334257613341611a78565b5b600061335089828a01612ad8565b965050602087015167ffffffffffffffff81111561337157613370611a7d565b5b61337d89828a01612b2f565b955050604087015167ffffffffffffffff81111561339e5761339d611a7d565b5b6133aa89828a01612b2f565b945050606087015167ffffffffffffffff8111156133cb576133ca611a7d565b5b6133d789828a01612b2f565b935050608087015167ffffffffffffffff8111156133f8576133f7611a7d565b5b61340489828a01612b2f565b92505060a087015167ffffffffffffffff81111561342557613424611a7d565b5b61343189828a01612b2f565b9150509295509295509295565b60006060820190506134536000830186611eb4565b81810360208301526134658185611f12565b90506134746040830184611d3e565b949350505050565b60006040820190506134916000830185611eb4565b61349e6020830184611eb4565b9392505050565b6000806000606084860312156134be576134bd611a78565b5b60006134cc86828701612ad8565b93505060206134dd86828701612ad8565b925050604084015167ffffffffffffffff8111156134fe576134fd611a7d565b5b61350a86828701612b2f565b9150509250925092565b600080600080600080600080610100898b03121561353557613534611a78565b5b60006135438b828c01612ad8565b985050602089015167ffffffffffffffff81111561356457613563611a7d565b5b6135708b828c01612b2f565b975050604089015167ffffffffffffffff81111561359157613590611a7d565b5b61359d8b828c01612b2f565b965050606089015167ffffffffffffffff8111156135be576135bd611a7d565b5b6135ca8b828c01612b2f565b955050608089015167ffffffffffffffff8111156135eb576135ea611a7d565b5b6135f78b828c01612b2f565b94505060a089015167ffffffffffffffff81111561361857613617611a7d565b5b6136248b828c01612b2f565b93505060c089015167ffffffffffffffff81111561364557613644611a7d565b5b6136518b828c01612b2f565b92505060e089015167ffffffffffffffff81111561367257613671611a7d565b5b61367e8b828c01612b2f565b915050929598509295989093965056fea264697066735822122096330663d0b824b0b18090034a67d1fc9bd06f77de8e5622767c8c4a285038d564736f6c634300080b0033608060405234801561001057600080fd5b50612c5a806100206000396000f3fe608060405234801561001057600080fd5b50600436106100a95760003560e01c8063716b5ab411610071578063716b5ab41461019a5780638e891393146101ca578063961ecb5b146101fa5780639fea8e101461022a578063ac4b204914610246578063d64b691314610277576100a9565b80630f53a470146100ae578063174ceeab146100e55780633aff2cc51461011557806360ccb204146101475780636704710714610163575b600080fd5b6100c860048036038101906100c39190612066565b61029c565b6040516100dc98979695949392919061213b565b60405180910390f35b6100ff60048036038101906100fa919061231f565b610885565b60405161010c9190612394565b60405180910390f35b61012f600480360381019061012a91906123db565b610983565b60405161013e93929190612408565b60405180910390f35b610161600480360381019061015c9190612446565b610a65565b005b61017d600480360381019061017891906123db565b610b87565b60405161019198979695949392919061213b565b60405180910390f35b6101b460048036038101906101af919061231f565b610fb7565b6040516101c19190612394565b60405180910390f35b6101e460048036038101906101df9190612066565b6110b5565b6040516101f19190612394565b60405180910390f35b610214600480360381019061020f9190612066565b611172565b6040516102219190612394565b60405180910390f35b610244600480360381019061023f91906124b5565b611224565b005b610260600480360381019061025b9190612066565b6113bd565b60405161026e9291906127f9565b60405180910390f35b61027f611625565b6040516102939897969594939291906128ee565b60405180910390f35b6000606080606080606080606060005b600080549050811015610878578973ffffffffffffffffffffffffffffffffffffffff16600082815481106102e4576102e36129a4565b5b906000526020600020906008020160000160009054906101000a900473ffffffffffffffffffffffffffffffffffffffff1673ffffffffffffffffffffffffffffffffffffffff1614156108655760008181548110610346576103456129a4565b5b906000526020600020906008020160000160009054906101000a900473ffffffffffffffffffffffffffffffffffffffff166000828154811061038c5761038b6129a4565b5b9060005260206000209060080201600101600083815481106103b1576103b06129a4565b5b9060005260206000209060080201600201600084815481106103d6576103d56129a4565b5b9060005260206000209060080201600301600085815481106103fb576103fa6129a4565b5b9060005260206000209060080201600401600086815481106104205761041f6129a4565b5b906000526020600020906008020160050160008781548110610445576104446129a4565b5b90600052602060002090600802016006016000888154811061046a576104696129a4565b5b906000526020600020906008020160070186805461048790612a02565b80601f01602080910402602001604051908101604052809291908181526020018280546104b390612a02565b80156105005780601f106104d557610100808354040283529160200191610500565b820191906000526020600020905b8154815290600101906020018083116104e357829003601f168201915b5050505050965085805461051390612a02565b80601f016020809104026020016040519081016040528092919081815260200182805461053f90612a02565b801561058c5780601f106105615761010080835404028352916020019161058c565b820191906000526020600020905b81548152906001019060200180831161056f57829003601f168201915b5050505050955084805461059f90612a02565b80601f01602080910402602001604051908101604052809291908181526020018280546105cb90612a02565b80156106185780601f106105ed57610100808354040283529160200191610618565b820191906000526020600020905b8154815290600101906020018083116105fb57829003601f168201915b5050505050945083805461062b90612a02565b80601f016020809104026020016040519081016040528092919081815260200182805461065790612a02565b80156106a45780601f10610679576101008083540402835291602001916106a4565b820191906000526020600020905b81548152906001019060200180831161068757829003601f168201915b505050505093508280546106b790612a02565b80601f01602080910402602001604051908101604052809291908181526020018280546106e390612a02565b80156107305780601f1061070557610100808354040283529160200191610730565b820191906000526020600020905b81548152906001019060200180831161071357829003601f168201915b5050505050925081805461074390612a02565b80601f016020809104026020016040519081016040528092919081815260200182805461076f90612a02565b80156107bc5780601f10610791576101008083540402835291602001916107bc565b820191906000526020600020905b81548152906001019060200180831161079f57829003601f168201915b505050505091508080546107cf90612a02565b80601f01602080910402602001604051908101604052809291908181526020018280546107fb90612a02565b80156108485780601f1061081d57610100808354040283529160200191610848565b820191906000526020600020905b81548152906001019060200180831161082b57829003601f168201915b50505050509050985098509850985098509850985098505061087a565b808061087090612a63565b9150506102ac565b505b919395975091939597565b600080600090505b60008054905081101561097b578373ffffffffffffffffffffffffffffffffffffffff16600082815481106108c5576108c46129a4565b5b906000526020600020906008020160000160009054906101000a900473ffffffffffffffffffffffffffffffffffffffff1673ffffffffffffffffffffffffffffffffffffffff161480156109595750828051906020012060008281548110610931576109306129a4565b5b906000526020600020906008020160070160405161094f9190612b4b565b6040518091039020145b1561096857600191505061097d565b808061097390612a63565b91505061088d565b505b92915050565b6001818154811061099357600080fd5b90600052602060002090600302016000915090508060000160009054906101000a900473ffffffffffffffffffffffffffffffffffffffff16908060010180546109dc90612a02565b80601f0160208091040260200160405190810160405280929190818152602001828054610a0890612a02565b8015610a555780601f10610a2a57610100808354040283529160200191610a55565b820191906000526020600020905b815481529060010190602001808311610a3857829003601f168201915b5050505050908060020154905083565b60008110158015610a77575060648111155b610ab6576040517f08c379a0000000000000000000000000000000000000000000000000000000008152600401610aad90612bae565b60405180910390fd5b600160405180606001604052808573ffffffffffffffffffffffffffffffffffffffff16815260200184815260200183815250908060018154018082558091505060019003906000526020600020906003020160009091909190915060008201518160000160006101000a81548173ffffffffffffffffffffffffffffffffffffffff021916908373ffffffffffffffffffffffffffffffffffffffff1602179055506020820151816001019080519060200190610b75929190611f51565b50604082015181600201555050505050565b60008181548110610b9757600080fd5b90600052602060002090600802016000915090508060000160009054906101000a900473ffffffffffffffffffffffffffffffffffffffff1690806001018054610be090612a02565b80601f0160208091040260200160405190810160405280929190818152602001828054610c0c90612a02565b8015610c595780601f10610c2e57610100808354040283529160200191610c59565b820191906000526020600020905b815481529060010190602001808311610c3c57829003601f168201915b505050505090806002018054610c6e90612a02565b80601f0160208091040260200160405190810160405280929190818152602001828054610c9a90612a02565b8015610ce75780601f10610cbc57610100808354040283529160200191610ce7565b820191906000526020600020905b815481529060010190602001808311610cca57829003601f168201915b505050505090806003018054610cfc90612a02565b80601f0160208091040260200160405190810160405280929190818152602001828054610d2890612a02565b8015610d755780601f10610d4a57610100808354040283529160200191610d75565b820191906000526020600020905b815481529060010190602001808311610d5857829003601f168201915b505050505090806004018054610d8a90612a02565b80601f0160208091040260200160405190810160405280929190818152602001828054610db690612a02565b8015610e035780601f10610dd857610100808354040283529160200191610e03565b820191906000526020600020905b815481529060010190602001808311610de657829003601f168201915b505050505090806005018054610e1890612a02565b80601f0160208091040260200160405190810160405280929190818152602001828054610e4490612a02565b8015610e915780601f10610e6657610100808354040283529160200191610e91565b820191906000526020600020905b815481529060010190602001808311610e7457829003601f168201915b505050505090806006018054610ea690612a02565b80601f0160208091040260200160405190810160405280929190818152602001828054610ed290612a02565b8015610f1f5780601f10610ef457610100808354040283529160200191610f1f565b820191906000526020600020905b815481529060010190602001808311610f0257829003601f168201915b505050505090806007018054610f3490612a02565b80601f0160208091040260200160405190810160405280929190818152602001828054610f6090612a02565b8015610fad5780601f10610f8257610100808354040283529160200191610fad565b820191906000526020600020905b815481529060010190602001808311610f9057829003601f168201915b5050505050905088565b600080600090505b6001805490508110156110ad578373ffffffffffffffffffffffffffffffffffffffff1660018281548110610ff757610ff66129a4565b5b906000526020600020906003020160000160009054906101000a900473ffffffffffffffffffffffffffffffffffffffff1673ffffffffffffffffffffffffffffffffffffffff1614801561108b5750828051906020012060018281548110611063576110626129a4565b5b90600052602060002090600302016001016040516110819190612b4b565b6040518091039020145b1561109a5760019150506110af565b80806110a590612a63565b915050610fbf565b505b92915050565b6000806000905060005b600180549050811015611168578373ffffffffffffffffffffffffffffffffffffffff16600182815481106110f7576110f66129a4565b5b906000526020600020906003020160000160009054906101000a900473ffffffffffffffffffffffffffffffffffffffff1673ffffffffffffffffffffffffffffffffffffffff161415611155576001826111529190612bce565b91505b808061116090612a63565b9150506110bf565b5080915050919050565b600080600090505b60008054905081101561121d578273ffffffffffffffffffffffffffffffffffffffff16600082815481106111b2576111b16129a4565b5b906000526020600020906008020160000160009054906101000a900473ffffffffffffffffffffffffffffffffffffffff1673ffffffffffffffffffffffffffffffffffffffff16141561120a57600191505061121f565b808061121590612a63565b91505061117a565b505b919050565b60006040518061010001604052808a73ffffffffffffffffffffffffffffffffffffffff16815260200189815260200188815260200187815260200186815260200185815260200184815260200183815250908060018154018082558091505060019003906000526020600020906008020160009091909190915060008201518160000160006101000a81548173ffffffffffffffffffffffffffffffffffffffff021916908373ffffffffffffffffffffffffffffffffffffffff1602179055506020820151816001019080519060200190611302929190611f51565b50604082015181600201908051906020019061131f929190611f51565b50606082015181600301908051906020019061133c929190611f51565b506080820151816004019080519060200190611359929190611f51565b5060a0820151816005019080519060200190611376929190611f51565b5060c0820151816006019080519060200190611393929190611f51565b5060e08201518160070190805190602001906113b0929190611f51565b5050505050505050505050565b606080600060018054905067ffffffffffffffff8111156113e1576113e06121f4565b5b60405190808252806020026020018201604052801561141457816020015b60608152602001906001900390816113ff5790505b509050600060018054905067ffffffffffffffff811115611438576114376121f4565b5b6040519080825280602002602001820160405280156114665781602001602082028036833780820191505090505b50905060005b600180549050811015611617578573ffffffffffffffffffffffffffffffffffffffff16600182815481106114a4576114a36129a4565b5b906000526020600020906003020160000160009054906101000a900473ffffffffffffffffffffffffffffffffffffffff1673ffffffffffffffffffffffffffffffffffffffff1614156116045760018181548110611506576115056129a4565b5b9060005260206000209060030201600101805461152290612a02565b80601f016020809104026020016040519081016040528092919081815260200182805461154e90612a02565b801561159b5780601f106115705761010080835404028352916020019161159b565b820191906000526020600020905b81548152906001019060200180831161157e57829003601f168201915b50505050508382815181106115b3576115b26129a4565b5b6020026020010181905250600181815481106115d2576115d16129a4565b5b9060005260206000209060030201600201548282815181106115f7576115f66129a4565b5b6020026020010181815250505b808061160f90612a63565b91505061146c565b508181935093505050915091565b6060806060806060806060806000808054905067ffffffffffffffff811115611651576116506121f4565b5b60405190808252806020026020018201604052801561167f5781602001602082028036833780820191505090505b5090506000808054905067ffffffffffffffff8111156116a2576116a16121f4565b5b6040519080825280602002602001820160405280156116d557816020015b60608152602001906001900390816116c05790505b5090506000808054905067ffffffffffffffff8111156116f8576116f76121f4565b5b60405190808252806020026020018201604052801561172b57816020015b60608152602001906001900390816117165790505b5090506000808054905067ffffffffffffffff81111561174e5761174d6121f4565b5b60405190808252806020026020018201604052801561178157816020015b606081526020019060019003908161176c5790505b5090506000808054905067ffffffffffffffff8111156117a4576117a36121f4565b5b6040519080825280602002602001820160405280156117d757816020015b60608152602001906001900390816117c25790505b5090506000808054905067ffffffffffffffff8111156117fa576117f96121f4565b5b60405190808252806020026020018201604052801561182d57816020015b60608152602001906001900390816118185790505b5090506000808054905067ffffffffffffffff8111156118505761184f6121f4565b5b60405190808252806020026020018201604052801561188357816020015b606081526020019060019003908161186e5790505b5090506000808054905067ffffffffffffffff8111156118a6576118a56121f4565b5b6040519080825280602002602001820160405280156118d957816020015b60608152602001906001900390816118c45790505b50905060005b600080549050811015611f265760008181548110611900576118ff6129a4565b5b906000526020600020906008020160000160009054906101000a900473ffffffffffffffffffffffffffffffffffffffff16898281518110611945576119446129a4565b5b602002602001019073ffffffffffffffffffffffffffffffffffffffff16908173ffffffffffffffffffffffffffffffffffffffff168152505060008181548110611993576119926129a4565b5b906000526020600020906008020160010180546119af90612a02565b80601f01602080910402602001604051908101604052809291908181526020018280546119db90612a02565b8015611a285780601f106119fd57610100808354040283529160200191611a28565b820191906000526020600020905b815481529060010190602001808311611a0b57829003601f168201915b5050505050888281518110611a4057611a3f6129a4565b5b602002602001018190525060008181548110611a5f57611a5e6129a4565b5b90600052602060002090600802016002018054611a7b90612a02565b80601f0160208091040260200160405190810160405280929190818152602001828054611aa790612a02565b8015611af45780601f10611ac957610100808354040283529160200191611af4565b820191906000526020600020905b815481529060010190602001808311611ad757829003601f168201915b5050505050878281518110611b0c57611b0b6129a4565b5b602002602001018190525060008181548110611b2b57611b2a6129a4565b5b90600052602060002090600802016003018054611b4790612a02565b80601f0160208091040260200160405190810160405280929190818152602001828054611b7390612a02565b8015611bc05780601f10611b9557610100808354040283529160200191611bc0565b820191906000526020600020905b815481529060010190602001808311611ba357829003601f168201915b5050505050868281518110611bd857611bd76129a4565b5b602002602001018190525060008181548110611bf757611bf66129a4565b5b90600052602060002090600802016004018054611c1390612a02565b80601f0160208091040260200160405190810160405280929190818152602001828054611c3f90612a02565b8015611c8c5780601f10611c6157610100808354040283529160200191611c8c565b820191906000526020600020905b815481529060010190602001808311611c6f57829003601f168201915b5050505050858281518110611ca457611ca36129a4565b5b602002602001018190525060008181548110611cc357611cc26129a4565b5b90600052602060002090600802016005018054611cdf90612a02565b80601f0160208091040260200160405190810160405280929190818152602001828054611d0b90612a02565b8015611d585780601f10611d2d57610100808354040283529160200191611d58565b820191906000526020600020905b815481529060010190602001808311611d3b57829003601f168201915b5050505050848281518110611d7057611d6f6129a4565b5b602002602001018190525060008181548110611d8f57611d8e6129a4565b5b90600052602060002090600802016006018054611dab90612a02565b80601f0160208091040260200160405190810160405280929190818152602001828054611dd790612a02565b8015611e245780601f10611df957610100808354040283529160200191611e24565b820191906000526020600020905b815481529060010190602001808311611e0757829003601f168201915b5050505050838281518110611e3c57611e3b6129a4565b5b602002602001018190525060008181548110611e5b57611e5a6129a4565b5b90600052602060002090600802016007018054611e7790612a02565b80601f0160208091040260200160405190810160405280929190818152602001828054611ea390612a02565b8015611ef05780601f10611ec557610100808354040283529160200191611ef0565b820191906000526020600020905b815481529060010190602001808311611ed357829003601f168201915b5050505050828281518110611f0857611f076129a4565b5b60200260200101819052508080611f1e90612a63565b9150506118df565b5087878787878787879f509f509f509f509f509f509f509f5050505050505050509091929394959697565b828054611f5d90612a02565b90600052602060002090601f016020900481019282611f7f5760008555611fc6565b82601f10611f9857805160ff1916838001178555611fc6565b82800160010185558215611fc6579182015b82811115611fc5578251825591602001919060010190611faa565b5b509050611fd39190611fd7565b5090565b5b80821115611ff0576000816000905550600101611fd8565b5090565b6000604051905090565b600080fd5b600080fd5b600073ffffffffffffffffffffffffffffffffffffffff82169050919050565b600061203382612008565b9050919050565b61204381612028565b811461204e57600080fd5b50565b6000813590506120608161203a565b92915050565b60006020828403121561207c5761207b611ffe565b5b600061208a84828501612051565b91505092915050565b61209c81612028565b82525050565b600081519050919050565b600082825260208201905092915050565b60005b838110156120dc5780820151818401526020810190506120c1565b838111156120eb576000848401525b50505050565b6000601f19601f8301169050919050565b600061210d826120a2565b61211781856120ad565b93506121278185602086016120be565b612130816120f1565b840191505092915050565b600061010082019050612151600083018b612093565b8181036020830152612163818a612102565b905081810360408301526121778189612102565b9050818103606083015261218b8188612102565b9050818103608083015261219f8187612102565b905081810360a08301526121b38186612102565b905081810360c08301526121c78185612102565b905081810360e08301526121db8184612102565b90509998505050505050505050565b600080fd5b600080fd5b7f4e487b7100000000000000000000000000000000000000000000000000000000600052604160045260246000fd5b61222c826120f1565b810181811067ffffffffffffffff8211171561224b5761224a6121f4565b5b80604052505050565b600061225e611ff4565b905061226a8282612223565b919050565b600067ffffffffffffffff82111561228a576122896121f4565b5b612293826120f1565b9050602081019050919050565b82818337600083830152505050565b60006122c26122bd8461226f565b612254565b9050828152602081018484840111156122de576122dd6121ef565b5b6122e98482856122a0565b509392505050565b600082601f830112612306576123056121ea565b5b81356123168482602086016122af565b91505092915050565b6000806040838503121561233657612335611ffe565b5b600061234485828601612051565b925050602083013567ffffffffffffffff81111561236557612364612003565b5b612371858286016122f1565b9150509250929050565b6000819050919050565b61238e8161237b565b82525050565b60006020820190506123a96000830184612385565b92915050565b6123b88161237b565b81146123c357600080fd5b50565b6000813590506123d5816123af565b92915050565b6000602082840312156123f1576123f0611ffe565b5b60006123ff848285016123c6565b91505092915050565b600060608201905061241d6000830186612093565b818103602083015261242f8185612102565b905061243e6040830184612385565b949350505050565b60008060006060848603121561245f5761245e611ffe565b5b600061246d86828701612051565b935050602084013567ffffffffffffffff81111561248e5761248d612003565b5b61249a868287016122f1565b92505060406124ab868287016123c6565b9150509250925092565b600080600080600080600080610100898b0312156124d6576124d5611ffe565b5b60006124e48b828c01612051565b985050602089013567ffffffffffffffff81111561250557612504612003565b5b6125118b828c016122f1565b975050604089013567ffffffffffffffff81111561253257612531612003565b5b61253e8b828c016122f1565b965050606089013567ffffffffffffffff81111561255f5761255e612003565b5b61256b8b828c016122f1565b955050608089013567ffffffffffffffff81111561258c5761258b612003565b5b6125988b828c016122f1565b94505060a089013567ffffffffffffffff8111156125b9576125b8612003565b5b6125c58b828c016122f1565b93505060c089013567ffffffffffffffff8111156125e6576125e5612003565b5b6125f28b828c016122f1565b92505060e089013567ffffffffffffffff81111561261357612612612003565b5b61261f8b828c016122f1565b9150509295985092959890939650565b600081519050919050565b600082825260208201905092915050565b6000819050602082019050919050565b600082825260208201905092915050565b6000612677826120a2565b612681818561265b565b93506126918185602086016120be565b61269a816120f1565b840191505092915050565b60006126b1838361266c565b905092915050565b6000602082019050919050565b60006126d18261262f565b6126db818561263a565b9350836020820285016126ed8561264b565b8060005b85811015612729578484038952815161270a85826126a5565b9450612715836126b9565b925060208a019950506001810190506126f1565b50829750879550505050505092915050565b600081519050919050565b600082825260208201905092915050565b6000819050602082019050919050565b6127708161237b565b82525050565b60006127828383612767565b60208301905092915050565b6000602082019050919050565b60006127a68261273b565b6127b08185612746565b93506127bb83612757565b8060005b838110156127ec5781516127d38882612776565b97506127de8361278e565b9250506001810190506127bf565b5085935050505092915050565b6000604082019050818103600083015261281381856126c6565b90508181036020830152612827818461279b565b90509392505050565b600081519050919050565b600082825260208201905092915050565b6000819050602082019050919050565b61286581612028565b82525050565b6000612877838361285c565b60208301905092915050565b6000602082019050919050565b600061289b82612830565b6128a5818561283b565b93506128b08361284c565b8060005b838110156128e15781516128c8888261286b565b97506128d383612883565b9250506001810190506128b4565b5085935050505092915050565b6000610100820190508181036000830152612909818b612890565b9050818103602083015261291d818a6126c6565b9050818103604083015261293181896126c6565b9050818103606083015261294581886126c6565b9050818103608083015261295981876126c6565b905081810360a083015261296d81866126c6565b905081810360c083015261298181856126c6565b905081810360e083015261299581846126c6565b90509998505050505050505050565b7f4e487b7100000000000000000000000000000000000000000000000000000000600052603260045260246000fd5b7f4e487b7100000000000000000000000000000000000000000000000000000000600052602260045260246000fd5b60006002820490506001821680612a1a57607f821691505b60208210811415612a2e57612a2d6129d3565b5b50919050565b7f4e487b7100000000000000000000000000000000000000000000000000000000600052601160045260246000fd5b6000612a6e8261237b565b91507fffffffffffffffffffffffffffffffffffffffffffffffffffffffffffffffff821415612aa157612aa0612a34565b5b600182019050919050565b600081905092915050565b60008190508160005260206000209050919050565b60008154612ad981612a02565b612ae38186612aac565b94506001821660008114612afe5760018114612b0f57612b42565b60ff19831686528186019350612b42565b612b1885612ab7565b60005b83811015612b3a57815481890152600182019150602081019050612b1b565b838801955050505b50505092915050565b6000612b578284612acc565b915081905092915050565b7f4c6576656c206f6620736b696c6c20696e636f72726563742e00000000000000600082015250565b6000612b986019836120ad565b9150612ba382612b62565b602082019050919050565b60006020820190508181036000830152612bc781612b8b565b9050919050565b6000612bd98261237b565b9150612be48361237b565b9250827fffffffffffffffffffffffffffffffffffffffffffffffffffffffffffffffff03821115612c1957612c18612a34565b5b82820190509291505056fea26469706673582212205b4ba4b72f765c63c94636c48eb316972c83d58b82d105f0efa9a2ddc2d66e2b64736f6c634300080b0033608060405234801561001057600080fd5b5061228c806100206000396000f3fe608060405234801561001057600080fd5b50600436106100625760003560e01c80630f53a47014610067578063a7dba1841461009d578063bf44b303146100cd578063c6fe410a14610104578063cfafbc0c14610134578063e045b71014610159575b600080fd5b610081600480360381019061007c9190611863565b610175565b6040516100949796959493929190611938565b60405180910390f35b6100b760048036038101906100b29190611b06565b6106a9565b6040516100c49190611b7b565b60405180910390f35b6100e760048036038101906100e29190611bc2565b6107a7565b6040516100fb989796959493929190611bef565b60405180910390f35b61011e60048036038101906101199190611863565b610bd7565b60405161012b9190611b7b565b60405180910390f35b61013c610c89565b604051610150989796959493929190611e68565b60405180910390f35b610173600480360381019061016e9190611f1e565b6115b5565b005b600060608060608060608060005b60008054905081101561069c578873ffffffffffffffffffffffffffffffffffffffff16600082815481106101bb576101ba612098565b5b906000526020600020906008020160000160009054906101000a900473ffffffffffffffffffffffffffffffffffffffff1673ffffffffffffffffffffffffffffffffffffffff161415610689576000818154811061021d5761021c612098565b5b906000526020600020906008020160000160009054906101000a900473ffffffffffffffffffffffffffffffffffffffff166000828154811061026357610262612098565b5b90600052602060002090600802016001016000838154811061028857610287612098565b5b9060005260206000209060080201600201600084815481106102ad576102ac612098565b5b9060005260206000209060080201600301600085815481106102d2576102d1612098565b5b9060005260206000209060080201600401600086815481106102f7576102f6612098565b5b90600052602060002090600802016005016000878154811061031c5761031b612098565b5b9060005260206000209060080201600601858054610339906120f6565b80601f0160208091040260200160405190810160405280929190818152602001828054610365906120f6565b80156103b25780601f10610387576101008083540402835291602001916103b2565b820191906000526020600020905b81548152906001019060200180831161039557829003601f168201915b505050505095508480546103c5906120f6565b80601f01602080910402602001604051908101604052809291908181526020018280546103f1906120f6565b801561043e5780601f106104135761010080835404028352916020019161043e565b820191906000526020600020905b81548152906001019060200180831161042157829003601f168201915b50505050509450838054610451906120f6565b80601f016020809104026020016040519081016040528092919081815260200182805461047d906120f6565b80156104ca5780601f1061049f576101008083540402835291602001916104ca565b820191906000526020600020905b8154815290600101906020018083116104ad57829003601f168201915b505050505093508280546104dd906120f6565b80601f0160208091040260200160405190810160405280929190818152602001828054610509906120f6565b80156105565780601f1061052b57610100808354040283529160200191610556565b820191906000526020600020905b81548152906001019060200180831161053957829003601f168201915b50505050509250818054610569906120f6565b80601f0160208091040260200160405190810160405280929190818152602001828054610595906120f6565b80156105e25780601f106105b7576101008083540402835291602001916105e2565b820191906000526020600020905b8154815290600101906020018083116105c557829003601f168201915b505050505091508080546105f5906120f6565b80601f0160208091040260200160405190810160405280929190818152602001828054610621906120f6565b801561066e5780601f106106435761010080835404028352916020019161066e565b820191906000526020600020905b81548152906001019060200180831161065157829003601f168201915b5050505050905097509750975097509750975097505061069e565b808061069490612157565b915050610183565b505b919395979092949650565b600080600090505b60008054905081101561079f578373ffffffffffffffffffffffffffffffffffffffff16600082815481106106e9576106e8612098565b5b906000526020600020906008020160000160009054906101000a900473ffffffffffffffffffffffffffffffffffffffff1673ffffffffffffffffffffffffffffffffffffffff1614801561077d575082805190602001206000828154811061075557610754612098565b5b9060005260206000209060080201600701604051610773919061223f565b6040518091039020145b1561078c5760019150506107a1565b808061079790612157565b9150506106b1565b505b92915050565b600081815481106107b757600080fd5b90600052602060002090600802016000915090508060000160009054906101000a900473ffffffffffffffffffffffffffffffffffffffff1690806001018054610800906120f6565b80601f016020809104026020016040519081016040528092919081815260200182805461082c906120f6565b80156108795780601f1061084e57610100808354040283529160200191610879565b820191906000526020600020905b81548152906001019060200180831161085c57829003601f168201915b50505050509080600201805461088e906120f6565b80601f01602080910402602001604051908101604052809291908181526020018280546108ba906120f6565b80156109075780601f106108dc57610100808354040283529160200191610907565b820191906000526020600020905b8154815290600101906020018083116108ea57829003601f168201915b50505050509080600301805461091c906120f6565b80601f0160208091040260200160405190810160405280929190818152602001828054610948906120f6565b80156109955780601f1061096a57610100808354040283529160200191610995565b820191906000526020600020905b81548152906001019060200180831161097857829003601f168201915b5050505050908060040180546109aa906120f6565b80601f01602080910402602001604051908101604052809291908181526020018280546109d6906120f6565b8015610a235780601f106109f857610100808354040283529160200191610a23565b820191906000526020600020905b815481529060010190602001808311610a0657829003601f168201915b505050505090806005018054610a38906120f6565b80601f0160208091040260200160405190810160405280929190818152602001828054610a64906120f6565b8015610ab15780601f10610a8657610100808354040283529160200191610ab1565b820191906000526020600020905b815481529060010190602001808311610a9457829003601f168201915b505050505090806006018054610ac6906120f6565b80601f0160208091040260200160405190810160405280929190818152602001828054610af2906120f6565b8015610b3f5780601f10610b1457610100808354040283529160200191610b3f565b820191906000526020600020905b815481529060010190602001808311610b2257829003601f168201915b505050505090806007018054610b54906120f6565b80601f0160208091040260200160405190810160405280929190818152602001828054610b80906120f6565b8015610bcd5780601f10610ba257610100808354040283529160200191610bcd565b820191906000526020600020905b815481529060010190602001808311610bb057829003601f168201915b5050505050905088565b600080600090505b600080549050811015610c82578273ffffffffffffffffffffffffffffffffffffffff1660008281548110610c1757610c16612098565b5b906000526020600020906008020160000160009054906101000a900473ffffffffffffffffffffffffffffffffffffffff1673ffffffffffffffffffffffffffffffffffffffff161415610c6f576001915050610c84565b8080610c7a90612157565b915050610bdf565b505b919050565b6060806060806060806060806000808054905067ffffffffffffffff811115610cb557610cb46119db565b5b604051908082528060200260200182016040528015610ce35781602001602082028036833780820191505090505b5090506000808054905067ffffffffffffffff811115610d0657610d056119db565b5b604051908082528060200260200182016040528015610d3957816020015b6060815260200190600190039081610d245790505b5090506000808054905067ffffffffffffffff811115610d5c57610d5b6119db565b5b604051908082528060200260200182016040528015610d8f57816020015b6060815260200190600190039081610d7a5790505b5090506000808054905067ffffffffffffffff811115610db257610db16119db565b5b604051908082528060200260200182016040528015610de557816020015b6060815260200190600190039081610dd05790505b5090506000808054905067ffffffffffffffff811115610e0857610e076119db565b5b604051908082528060200260200182016040528015610e3b57816020015b6060815260200190600190039081610e265790505b5090506000808054905067ffffffffffffffff811115610e5e57610e5d6119db565b5b604051908082528060200260200182016040528015610e9157816020015b6060815260200190600190039081610e7c5790505b5090506000808054905067ffffffffffffffff811115610eb457610eb36119db565b5b604051908082528060200260200182016040528015610ee757816020015b6060815260200190600190039081610ed25790505b5090506000808054905067ffffffffffffffff811115610f0a57610f096119db565b5b604051908082528060200260200182016040528015610f3d57816020015b6060815260200190600190039081610f285790505b50905060005b60008054905081101561158a5760008181548110610f6457610f63612098565b5b906000526020600020906008020160000160009054906101000a900473ffffffffffffffffffffffffffffffffffffffff16898281518110610fa957610fa8612098565b5b602002602001019073ffffffffffffffffffffffffffffffffffffffff16908173ffffffffffffffffffffffffffffffffffffffff168152505060008181548110610ff757610ff6612098565b5b90600052602060002090600802016001018054611013906120f6565b80601f016020809104026020016040519081016040528092919081815260200182805461103f906120f6565b801561108c5780601f106110615761010080835404028352916020019161108c565b820191906000526020600020905b81548152906001019060200180831161106f57829003601f168201915b50505050508882815181106110a4576110a3612098565b5b6020026020010181905250600081815481106110c3576110c2612098565b5b906000526020600020906008020160020180546110df906120f6565b80601f016020809104026020016040519081016040528092919081815260200182805461110b906120f6565b80156111585780601f1061112d57610100808354040283529160200191611158565b820191906000526020600020905b81548152906001019060200180831161113b57829003601f168201915b50505050508782815181106111705761116f612098565b5b60200260200101819052506000818154811061118f5761118e612098565b5b906000526020600020906008020160030180546111ab906120f6565b80601f01602080910402602001604051908101604052809291908181526020018280546111d7906120f6565b80156112245780601f106111f957610100808354040283529160200191611224565b820191906000526020600020905b81548152906001019060200180831161120757829003601f168201915b505050505086828151811061123c5761123b612098565b5b60200260200101819052506000818154811061125b5761125a612098565b5b90600052602060002090600802016004018054611277906120f6565b80601f01602080910402602001604051908101604052809291908181526020018280546112a3906120f6565b80156112f05780601f106112c5576101008083540402835291602001916112f0565b820191906000526020600020905b8154815290600101906020018083116112d357829003601f168201915b505050505085828151811061130857611307612098565b5b60200260200101819052506000818154811061132757611326612098565b5b90600052602060002090600802016005018054611343906120f6565b80601f016020809104026020016040519081016040528092919081815260200182805461136f906120f6565b80156113bc5780601f10611391576101008083540402835291602001916113bc565b820191906000526020600020905b81548152906001019060200180831161139f57829003601f168201915b50505050508482815181106113d4576113d3612098565b5b6020026020010181905250600081815481106113f3576113f2612098565b5b9060005260206000209060080201600601805461140f906120f6565b80601f016020809104026020016040519081016040528092919081815260200182805461143b906120f6565b80156114885780601f1061145d57610100808354040283529160200191611488565b820191906000526020600020905b81548152906001019060200180831161146b57829003601f168201915b50505050508382815181106114a05761149f612098565b5b6020026020010181905250600081815481106114bf576114be612098565b5b906000526020600020906008020160070180546114db906120f6565b80601f0160208091040260200160405190810160405280929190818152602001828054611507906120f6565b80156115545780601f1061152957610100808354040283529160200191611554565b820191906000526020600020905b81548152906001019060200180831161153757829003601f168201915b505050505082828151811061156c5761156b612098565b5b6020026020010181905250808061158290612157565b915050610f43565b5087878787878787879f509f509f509f509f509f509f509f5050505050505050509091929394959697565b60006040518061010001604052808a73ffffffffffffffffffffffffffffffffffffffff16815260200189815260200188815260200187815260200186815260200185815260200184815260200183815250908060018154018082558091505060019003906000526020600020906008020160009091909190915060008201518160000160006101000a81548173ffffffffffffffffffffffffffffffffffffffff021916908373ffffffffffffffffffffffffffffffffffffffff160217905550602082015181600101908051906020019061169392919061174e565b5060408201518160020190805190602001906116b092919061174e565b5060608201518160030190805190602001906116cd92919061174e565b5060808201518160040190805190602001906116ea92919061174e565b5060a082015181600501908051906020019061170792919061174e565b5060c082015181600601908051906020019061172492919061174e565b5060e082015181600701908051906020019061174192919061174e565b5050505050505050505050565b82805461175a906120f6565b90600052602060002090601f01602090048101928261177c57600085556117c3565b82601f1061179557805160ff19168380011785556117c3565b828001600101855582156117c3579182015b828111156117c25782518255916020019190600101906117a7565b5b5090506117d091906117d4565b5090565b5b808211156117ed5760008160009055506001016117d5565b5090565b6000604051905090565b600080fd5b600080fd5b600073ffffffffffffffffffffffffffffffffffffffff82169050919050565b600061183082611805565b9050919050565b61184081611825565b811461184b57600080fd5b50565b60008135905061185d81611837565b92915050565b600060208284031215611879576118786117fb565b5b60006118878482850161184e565b91505092915050565b61189981611825565b82525050565b600081519050919050565b600082825260208201905092915050565b60005b838110156118d95780820151818401526020810190506118be565b838111156118e8576000848401525b50505050565b6000601f19601f8301169050919050565b600061190a8261189f565b61191481856118aa565b93506119248185602086016118bb565b61192d816118ee565b840191505092915050565b600060e08201905061194d600083018a611890565b818103602083015261195f81896118ff565b9050818103604083015261197381886118ff565b9050818103606083015261198781876118ff565b9050818103608083015261199b81866118ff565b905081810360a08301526119af81856118ff565b905081810360c08301526119c381846118ff565b905098975050505050505050565b600080fd5b600080fd5b7f4e487b7100000000000000000000000000000000000000000000000000000000600052604160045260246000fd5b611a13826118ee565b810181811067ffffffffffffffff82111715611a3257611a316119db565b5b80604052505050565b6000611a456117f1565b9050611a518282611a0a565b919050565b600067ffffffffffffffff821115611a7157611a706119db565b5b611a7a826118ee565b9050602081019050919050565b82818337600083830152505050565b6000611aa9611aa484611a56565b611a3b565b905082815260208101848484011115611ac557611ac46119d6565b5b611ad0848285611a87565b509392505050565b600082601f830112611aed57611aec6119d1565b5b8135611afd848260208601611a96565b91505092915050565b60008060408385031215611b1d57611b1c6117fb565b5b6000611b2b8582860161184e565b925050602083013567ffffffffffffffff811115611b4c57611b4b611800565b5b611b5885828601611ad8565b9150509250929050565b6000819050919050565b611b7581611b62565b82525050565b6000602082019050611b906000830184611b6c565b92915050565b611b9f81611b62565b8114611baa57600080fd5b50565b600081359050611bbc81611b96565b92915050565b600060208284031215611bd857611bd76117fb565b5b6000611be684828501611bad565b91505092915050565b600061010082019050611c05600083018b611890565b8181036020830152611c17818a6118ff565b90508181036040830152611c2b81896118ff565b90508181036060830152611c3f81886118ff565b90508181036080830152611c5381876118ff565b905081810360a0830152611c6781866118ff565b905081810360c0830152611c7b81856118ff565b905081810360e0830152611c8f81846118ff565b90509998505050505050505050565b600081519050919050565b600082825260208201905092915050565b6000819050602082019050919050565b611cd381611825565b82525050565b6000611ce58383611cca565b60208301905092915050565b6000602082019050919050565b6000611d0982611c9e565b611d138185611ca9565b9350611d1e83611cba565b8060005b83811015611d4f578151611d368882611cd9565b9750611d4183611cf1565b925050600181019050611d22565b5085935050505092915050565b600081519050919050565b600082825260208201905092915050565b6000819050602082019050919050565b600082825260208201905092915050565b6000611da48261189f565b611dae8185611d88565b9350611dbe8185602086016118bb565b611dc7816118ee565b840191505092915050565b6000611dde8383611d99565b905092915050565b6000602082019050919050565b6000611dfe82611d5c565b611e088185611d67565b935083602082028501611e1a85611d78565b8060005b85811015611e565784840389528151611e378582611dd2565b9450611e4283611de6565b925060208a01995050600181019050611e1e565b50829750879550505050505092915050565b6000610100820190508181036000830152611e83818b611cfe565b90508181036020830152611e97818a611df3565b90508181036040830152611eab8189611df3565b90508181036060830152611ebf8188611df3565b90508181036080830152611ed38187611df3565b905081810360a0830152611ee78186611df3565b905081810360c0830152611efb8185611df3565b905081810360e0830152611f0f8184611df3565b90509998505050505050505050565b600080600080600080600080610100898b031215611f3f57611f3e6117fb565b5b6000611f4d8b828c0161184e565b985050602089013567ffffffffffffffff811115611f6e57611f6d611800565b5b611f7a8b828c01611ad8565b975050604089013567ffffffffffffffff811115611f9b57611f9a611800565b5b611fa78b828c01611ad8565b965050606089013567ffffffffffffffff811115611fc857611fc7611800565b5b611fd48b828c01611ad8565b955050608089013567ffffffffffffffff811115611ff557611ff4611800565b5b6120018b828c01611ad8565b94505060a089013567ffffffffffffffff81111561202257612021611800565b5b61202e8b828c01611ad8565b93505060c089013567ffffffffffffffff81111561204f5761204e611800565b5b61205b8b828c01611ad8565b92505060e089013567ffffffffffffffff81111561207c5761207b611800565b5b6120888b828c01611ad8565b9150509295985092959890939650565b7f4e487b7100000000000000000000000000000000000000000000000000000000600052603260045260246000fd5b7f4e487b7100000000000000000000000000000000000000000000000000000000600052602260045260246000fd5b6000600282049050600182168061210e57607f821691505b60208210811415612122576121216120c7565b5b50919050565b7f4e487b7100000000000000000000000000000000000000000000000000000000600052601160045260246000fd5b600061216282611b62565b91507fffffffffffffffffffffffffffffffffffffffffffffffffffffffffffffffff82141561219557612194612128565b5b600182019050919050565b600081905092915050565b60008190508160005260206000209050919050565b600081546121cd816120f6565b6121d781866121a0565b945060018216600081146121f2576001811461220357612236565b60ff19831686528186019350612236565b61220c856121ab565b60005b8381101561222e5781548189015260018201915060208101905061220f565b838801955050505b50505092915050565b600061224b82846121c0565b91508190509291505056fea2646970667358221220be6d5762a3d6676b2fbb685084471402619cfef237f88042f05bb755a7490a5b64736f6c634300080b0033608060405234801561001057600080fd5b50613a9e806100206000396000f3fe608060405234801561001057600080fd5b50600436106100ea5760003560e01c8063776f11101161008c5780639e8aee6e116100665780639e8aee6e146102ca578063a9846eb0146102fb578063d767573e14610330578063dd8f3edc1461034c576100ea565b8063776f11101461024057806384ae9131146102715780638f8724a914610295576100ea565b806324e66037116100c857806324e660371461017657806344fd6e22146101a657806349f47a55146101d6578063508580eb1461020b576100ea565b806309bef62a146100ef5780630f53a470146101255780631ababd291461015a575b600080fd5b61010960048036038101906101049190612c47565b610368565b60405161011c9796959493929190612d4e565b60405180910390f35b61013f600480360381019061013a9190612e13565b61070a565b60405161015196959493929190612e40565b60405180910390f35b610174600480360381019061016f9190612ff9565b610b88565b005b610190600480360381019061018b9190613090565b610d8b565b60405161019d91906130fb565b60405180910390f35b6101c060048036038101906101bb9190612e13565b610e89565b6040516101cd91906130fb565b60405180910390f35b6101f060048036038101906101eb9190612c47565b610f3b565b60405161020296959493929190613116565b60405180910390f35b61022560048036038101906102209190612e13565b61104f565b60405161023796959493929190613406565b60405180910390f35b61025a60048036038101906102559190612e13565b6115c9565b604051610268929190613491565b60405180910390f35b61027961178c565b60405161028c97969594939291906134ba565b60405180910390f35b6102af60048036038101906102aa9190612e13565b611f90565b6040516102c196959493929190613406565b60405180910390f35b6102e460048036038101906102df9190612e13565b61250a565b6040516102f2929190613491565b60405180910390f35b61031560048036038101906103109190612c47565b6126cd565b60405161032796959493929190613116565b60405180910390f35b61034a60048036038101906103459190612ff9565b6127e1565b005b6103666004803603810190610361919061355a565b6129e6565b005b6000818154811061037857600080fd5b90600052602060002090600702016000915090508060000160009054906101000a900473ffffffffffffffffffffffffffffffffffffffff16908060010180546103c1906136d3565b80601f01602080910402602001604051908101604052809291908181526020018280546103ed906136d3565b801561043a5780601f1061040f5761010080835404028352916020019161043a565b820191906000526020600020905b81548152906001019060200180831161041d57829003601f168201915b50505050509080600201805461044f906136d3565b80601f016020809104026020016040519081016040528092919081815260200182805461047b906136d3565b80156104c85780601f1061049d576101008083540402835291602001916104c8565b820191906000526020600020905b8154815290600101906020018083116104ab57829003601f168201915b5050505050908060030180546104dd906136d3565b80601f0160208091040260200160405190810160405280929190818152602001828054610509906136d3565b80156105565780601f1061052b57610100808354040283529160200191610556565b820191906000526020600020905b81548152906001019060200180831161053957829003601f168201915b50505050509080600401805461056b906136d3565b80601f0160208091040260200160405190810160405280929190818152602001828054610597906136d3565b80156105e45780601f106105b9576101008083540402835291602001916105e4565b820191906000526020600020905b8154815290600101906020018083116105c757829003601f168201915b5050505050908060050180546105f9906136d3565b80601f0160208091040260200160405190810160405280929190818152602001828054610625906136d3565b80156106725780601f1061064757610100808354040283529160200191610672565b820191906000526020600020905b81548152906001019060200180831161065557829003601f168201915b505050505090806006018054610687906136d3565b80601f01602080910402602001604051908101604052809291908181526020018280546106b3906136d3565b80156107005780601f106106d557610100808354040283529160200191610700565b820191906000526020600020905b8154815290600101906020018083116106e357829003601f168201915b5050505050905087565b6000606080606080606060005b600080549050811015610b7d578773ffffffffffffffffffffffffffffffffffffffff166000828154811061074f5761074e613705565b5b906000526020600020906007020160000160009054906101000a900473ffffffffffffffffffffffffffffffffffffffff1673ffffffffffffffffffffffffffffffffffffffff161415610b6a57600081815481106107b1576107b0613705565b5b906000526020600020906007020160000160009054906101000a900473ffffffffffffffffffffffffffffffffffffffff16600082815481106107f7576107f6613705565b5b90600052602060002090600702016001016000838154811061081c5761081b613705565b5b90600052602060002090600702016002016000848154811061084157610840613705565b5b90600052602060002090600702016003016000858154811061086657610865613705565b5b90600052602060002090600702016004016000868154811061088b5761088a613705565b5b90600052602060002090600702016005018480546108a8906136d3565b80601f01602080910402602001604051908101604052809291908181526020018280546108d4906136d3565b80156109215780601f106108f657610100808354040283529160200191610921565b820191906000526020600020905b81548152906001019060200180831161090457829003601f168201915b50505050509450838054610934906136d3565b80601f0160208091040260200160405190810160405280929190818152602001828054610960906136d3565b80156109ad5780601f10610982576101008083540402835291602001916109ad565b820191906000526020600020905b81548152906001019060200180831161099057829003601f168201915b505050505093508280546109c0906136d3565b80601f01602080910402602001604051908101604052809291908181526020018280546109ec906136d3565b8015610a395780601f10610a0e57610100808354040283529160200191610a39565b820191906000526020600020905b815481529060010190602001808311610a1c57829003601f168201915b50505050509250818054610a4c906136d3565b80601f0160208091040260200160405190810160405280929190818152602001828054610a78906136d3565b8015610ac55780601f10610a9a57610100808354040283529160200191610ac5565b820191906000526020600020905b815481529060010190602001808311610aa857829003601f168201915b50505050509150808054610ad8906136d3565b80601f0160208091040260200160405190810160405280929190818152602001828054610b04906136d3565b8015610b515780601f10610b2657610100808354040283529160200191610b51565b820191906000526020600020905b815481529060010190602001808311610b3457829003601f168201915b5050505050905096509650965096509650965050610b7f565b8080610b7590613763565b915050610717565b505b91939550919395565b60008210158015610b9a575060c88211155b610bd9576040517f08c379a0000000000000000000000000000000000000000000000000000000008152600401610bd0906137f8565b60405180910390fd5b60008110158015610beb575060c88111155b610c2a576040517f08c379a0000000000000000000000000000000000000000000000000000000008152600401610c2190613864565b60405180910390fd5b60026040518060c001604052808773ffffffffffffffffffffffffffffffffffffffff1681526020018673ffffffffffffffffffffffffffffffffffffffff1681526020018581526020018481526020018381526020018385610c8d9190613884565b815250908060018154018082558091505060019003906000526020600020906006020160009091909190915060008201518160000160006101000a81548173ffffffffffffffffffffffffffffffffffffffff021916908373ffffffffffffffffffffffffffffffffffffffff16021790555060208201518160010160006101000a81548173ffffffffffffffffffffffffffffffffffffffff021916908373ffffffffffffffffffffffffffffffffffffffff1602179055506040820151816002019080519060200190610d63929190612b5a565b50606082015181600301556080820151816004015560a0820151816005015550505050505050565b600080600090505b600080549050811015610e81578373ffffffffffffffffffffffffffffffffffffffff1660008281548110610dcb57610dca613705565b5b906000526020600020906007020160000160009054906101000a900473ffffffffffffffffffffffffffffffffffffffff1673ffffffffffffffffffffffffffffffffffffffff16148015610e5f5750828051906020012060008281548110610e3757610e36613705565b5b9060005260206000209060070201600601604051610e559190613979565b6040518091039020145b15610e6e576001915050610e83565b8080610e7990613763565b915050610d93565b505b92915050565b600080600090505b600080549050811015610f34578273ffffffffffffffffffffffffffffffffffffffff1660008281548110610ec957610ec8613705565b5b906000526020600020906007020160000160009054906101000a900473ffffffffffffffffffffffffffffffffffffffff1673ffffffffffffffffffffffffffffffffffffffff161415610f21576001915050610f36565b8080610f2c90613763565b915050610e91565b505b919050565b60028181548110610f4b57600080fd5b90600052602060002090600602016000915090508060000160009054906101000a900473ffffffffffffffffffffffffffffffffffffffff16908060010160009054906101000a900473ffffffffffffffffffffffffffffffffffffffff1690806002018054610fba906136d3565b80601f0160208091040260200160405190810160405280929190818152602001828054610fe6906136d3565b80156110335780601f1061100857610100808354040283529160200191611033565b820191906000526020600020905b81548152906001019060200180831161101657829003601f168201915b5050505050908060030154908060040154908060050154905086565b606080606080606080600060018054905067ffffffffffffffff81111561107957611078612ece565b5b6040519080825280602002602001820160405280156110a75781602001602082028036833780820191505090505b509050600060018054905067ffffffffffffffff8111156110cb576110ca612ece565b5b6040519080825280602002602001820160405280156110f95781602001602082028036833780820191505090505b509050600060018054905067ffffffffffffffff81111561111d5761111c612ece565b5b60405190808252806020026020018201604052801561115057816020015b606081526020019060019003908161113b5790505b509050600060018054905067ffffffffffffffff81111561117457611173612ece565b5b6040519080825280602002602001820160405280156111a25781602001602082028036833780820191505090505b509050600060018054905067ffffffffffffffff8111156111c6576111c5612ece565b5b6040519080825280602002602001820160405280156111f45781602001602082028036833780820191505090505b509050600060018054905067ffffffffffffffff81111561121857611217612ece565b5b6040519080825280602002602001820160405280156112465781602001602082028036833780820191505090505b50905060005b6001805490508110156115a7578d73ffffffffffffffffffffffffffffffffffffffff166001828154811061128457611283613705565b5b906000526020600020906006020160000160009054906101000a900473ffffffffffffffffffffffffffffffffffffffff1673ffffffffffffffffffffffffffffffffffffffff16141561159457600181815481106112e6576112e5613705565b5b906000526020600020906006020160000160009054906101000a900473ffffffffffffffffffffffffffffffffffffffff1687828151811061132b5761132a613705565b5b602002602001019073ffffffffffffffffffffffffffffffffffffffff16908173ffffffffffffffffffffffffffffffffffffffff16815250506001818154811061137957611378613705565b5b906000526020600020906006020160010160009054906101000a900473ffffffffffffffffffffffffffffffffffffffff168682815181106113be576113bd613705565b5b602002602001019073ffffffffffffffffffffffffffffffffffffffff16908173ffffffffffffffffffffffffffffffffffffffff16815250506001818154811061140c5761140b613705565b5b90600052602060002090600602016002018054611428906136d3565b80601f0160208091040260200160405190810160405280929190818152602001828054611454906136d3565b80156114a15780601f10611476576101008083540402835291602001916114a1565b820191906000526020600020905b81548152906001019060200180831161148457829003601f168201915b50505050508582815181106114b9576114b8613705565b5b6020026020010181905250600181815481106114d8576114d7613705565b5b9060005260206000209060060201600301548482815181106114fd576114fc613705565b5b6020026020010181815250506001818154811061151d5761151c613705565b5b90600052602060002090600602016004015483828151811061154257611541613705565b5b6020026020010181815250506001818154811061156257611561613705565b5b90600052602060002090600602016005015482828151811061158757611586613705565b5b6020026020010181815250505b808061159f90613763565b91505061124c565b508585858585859b509b509b509b509b509b5050505050505091939550919395565b600080600060018054905067ffffffffffffffff8111156115ed576115ec612ece565b5b60405190808252806020026020018201604052801561161b5781602001602082028036833780820191505090505b50905060005b600180549050811015611700578473ffffffffffffffffffffffffffffffffffffffff166001828154811061165957611658613705565b5b906000526020600020906006020160010160009054906101000a900473ffffffffffffffffffffffffffffffffffffffff1673ffffffffffffffffffffffffffffffffffffffff1614156116ed57600181815481106116bb576116ba613705565b5b9060005260206000209060060201600501548282815181106116e0576116df613705565b5b6020026020010181815250505b80806116f890613763565b915050611621565b508060008151811061171557611714613705565b5b602002602001015191506000600190505b81518110156117825781818151811061174257611741613705565b5b602002602001015183101561176f5781818151811061176457611763613705565b5b602002602001015192505b808061177a90613763565b915050611726565b5083925050915091565b60608060608060608060606000808054905067ffffffffffffffff8111156117b7576117b6612ece565b5b6040519080825280602002602001820160405280156117e55781602001602082028036833780820191505090505b5090506000808054905067ffffffffffffffff81111561180857611807612ece565b5b60405190808252806020026020018201604052801561183b57816020015b60608152602001906001900390816118265790505b5090506000808054905067ffffffffffffffff81111561185e5761185d612ece565b5b60405190808252806020026020018201604052801561189157816020015b606081526020019060019003908161187c5790505b5090506000808054905067ffffffffffffffff8111156118b4576118b3612ece565b5b6040519080825280602002602001820160405280156118e757816020015b60608152602001906001900390816118d25790505b5090506000808054905067ffffffffffffffff81111561190a57611909612ece565b5b60405190808252806020026020018201604052801561193d57816020015b60608152602001906001900390816119285790505b5090506000808054905067ffffffffffffffff8111156119605761195f612ece565b5b60405190808252806020026020018201604052801561199357816020015b606081526020019060019003908161197e5790505b5090506000808054905067ffffffffffffffff8111156119b6576119b5612ece565b5b6040519080825280602002602001820160405280156119e957816020015b60608152602001906001900390816119d45790505b50905060005b600080549050811015611f6a5760008181548110611a1057611a0f613705565b5b906000526020600020906007020160000160009054906101000a900473ffffffffffffffffffffffffffffffffffffffff16888281518110611a5557611a54613705565b5b602002602001019073ffffffffffffffffffffffffffffffffffffffff16908173ffffffffffffffffffffffffffffffffffffffff168152505060008181548110611aa357611aa2613705565b5b90600052602060002090600702016001018054611abf906136d3565b80601f0160208091040260200160405190810160405280929190818152602001828054611aeb906136d3565b8015611b385780601f10611b0d57610100808354040283529160200191611b38565b820191906000526020600020905b815481529060010190602001808311611b1b57829003601f168201915b5050505050878281518110611b5057611b4f613705565b5b602002602001018190525060008181548110611b6f57611b6e613705565b5b90600052602060002090600702016002018054611b8b906136d3565b80601f0160208091040260200160405190810160405280929190818152602001828054611bb7906136d3565b8015611c045780601f10611bd957610100808354040283529160200191611c04565b820191906000526020600020905b815481529060010190602001808311611be757829003601f168201915b5050505050868281518110611c1c57611c1b613705565b5b602002602001018190525060008181548110611c3b57611c3a613705565b5b90600052602060002090600702016003018054611c57906136d3565b80601f0160208091040260200160405190810160405280929190818152602001828054611c83906136d3565b8015611cd05780601f10611ca557610100808354040283529160200191611cd0565b820191906000526020600020905b815481529060010190602001808311611cb357829003601f168201915b5050505050858281518110611ce857611ce7613705565b5b602002602001018190525060008181548110611d0757611d06613705565b5b90600052602060002090600702016004018054611d23906136d3565b80601f0160208091040260200160405190810160405280929190818152602001828054611d4f906136d3565b8015611d9c5780601f10611d7157610100808354040283529160200191611d9c565b820191906000526020600020905b815481529060010190602001808311611d7f57829003601f168201915b5050505050848281518110611db457611db3613705565b5b602002602001018190525060008181548110611dd357611dd2613705565b5b90600052602060002090600702016005018054611def906136d3565b80601f0160208091040260200160405190810160405280929190818152602001828054611e1b906136d3565b8015611e685780601f10611e3d57610100808354040283529160200191611e68565b820191906000526020600020905b815481529060010190602001808311611e4b57829003601f168201915b5050505050838281518110611e8057611e7f613705565b5b602002602001018190525060008181548110611e9f57611e9e613705565b5b90600052602060002090600702016006018054611ebb906136d3565b80601f0160208091040260200160405190810160405280929190818152602001828054611ee7906136d3565b8015611f345780601f10611f0957610100808354040283529160200191611f34565b820191906000526020600020905b815481529060010190602001808311611f1757829003601f168201915b5050505050828281518110611f4c57611f4b613705565b5b60200260200101819052508080611f6290613763565b9150506119ef565b50868686868686869d509d509d509d509d509d509d505050505050505090919293949596565b606080606080606080600060028054905067ffffffffffffffff811115611fba57611fb9612ece565b5b604051908082528060200260200182016040528015611fe85781602001602082028036833780820191505090505b509050600060028054905067ffffffffffffffff81111561200c5761200b612ece565b5b60405190808252806020026020018201604052801561203a5781602001602082028036833780820191505090505b509050600060028054905067ffffffffffffffff81111561205e5761205d612ece565b5b60405190808252806020026020018201604052801561209157816020015b606081526020019060019003908161207c5790505b509050600060028054905067ffffffffffffffff8111156120b5576120b4612ece565b5b6040519080825280602002602001820160405280156120e35781602001602082028036833780820191505090505b509050600060028054905067ffffffffffffffff81111561210757612106612ece565b5b6040519080825280602002602001820160405280156121355781602001602082028036833780820191505090505b509050600060028054905067ffffffffffffffff81111561215957612158612ece565b5b6040519080825280602002602001820160405280156121875781602001602082028036833780820191505090505b50905060005b6002805490508110156124e8578d73ffffffffffffffffffffffffffffffffffffffff16600282815481106121c5576121c4613705565b5b906000526020600020906006020160000160009054906101000a900473ffffffffffffffffffffffffffffffffffffffff1673ffffffffffffffffffffffffffffffffffffffff1614156124d5576002818154811061222757612226613705565b5b906000526020600020906006020160000160009054906101000a900473ffffffffffffffffffffffffffffffffffffffff1687828151811061226c5761226b613705565b5b602002602001019073ffffffffffffffffffffffffffffffffffffffff16908173ffffffffffffffffffffffffffffffffffffffff1681525050600281815481106122ba576122b9613705565b5b906000526020600020906006020160010160009054906101000a900473ffffffffffffffffffffffffffffffffffffffff168682815181106122ff576122fe613705565b5b602002602001019073ffffffffffffffffffffffffffffffffffffffff16908173ffffffffffffffffffffffffffffffffffffffff16815250506002818154811061234d5761234c613705565b5b90600052602060002090600602016002018054612369906136d3565b80601f0160208091040260200160405190810160405280929190818152602001828054612395906136d3565b80156123e25780601f106123b7576101008083540402835291602001916123e2565b820191906000526020600020905b8154815290600101906020018083116123c557829003601f168201915b50505050508582815181106123fa576123f9613705565b5b60200260200101819052506002818154811061241957612418613705565b5b90600052602060002090600602016003015484828151811061243e5761243d613705565b5b6020026020010181815250506002818154811061245e5761245d613705565b5b90600052602060002090600602016004015483828151811061248357612482613705565b5b602002602001018181525050600281815481106124a3576124a2613705565b5b9060005260206000209060060201600501548282815181106124c8576124c7613705565b5b6020026020010181815250505b80806124e090613763565b91505061218d565b508585858585859b509b509b509b509b509b5050505050505091939550919395565b600080600060028054905067ffffffffffffffff81111561252e5761252d612ece565b5b60405190808252806020026020018201604052801561255c5781602001602082028036833780820191505090505b50905060005b600280549050811015612641578473ffffffffffffffffffffffffffffffffffffffff166002828154811061259a57612599613705565b5b906000526020600020906006020160010160009054906101000a900473ffffffffffffffffffffffffffffffffffffffff1673ffffffffffffffffffffffffffffffffffffffff16141561262e57600281815481106125fc576125fb613705565b5b90600052602060002090600602016005015482828151811061262157612620613705565b5b6020026020010181815250505b808061263990613763565b915050612562565b508060008151811061265657612655613705565b5b602002602001015191506000600190505b81518110156126c35781818151811061268357612682613705565b5b60200260200101518310156126b0578181815181106126a5576126a4613705565b5b602002602001015192505b80806126bb90613763565b915050612667565b5083925050915091565b600181815481106126dd57600080fd5b90600052602060002090600602016000915090508060000160009054906101000a900473ffffffffffffffffffffffffffffffffffffffff16908060010160009054906101000a900473ffffffffffffffffffffffffffffffffffffffff169080600201805461274c906136d3565b80601f0160208091040260200160405190810160405280929190818152602001828054612778906136d3565b80156127c55780601f1061279a576101008083540402835291602001916127c5565b820191906000526020600020905b8154815290600101906020018083116127a857829003601f168201915b5050505050908060030154908060040154908060050154905086565b600082101580156127f457506101ef8211155b612833576040517f08c379a000000000000000000000000000000000000000000000000000000000815260040161282a906139dc565b60405180910390fd5b6000811015801561284657506101ef8111155b612885576040517f08c379a000000000000000000000000000000000000000000000000000000000815260040161287c90613a48565b60405180910390fd5b60016040518060c001604052808773ffffffffffffffffffffffffffffffffffffffff1681526020018673ffffffffffffffffffffffffffffffffffffffff16815260200185815260200184815260200183815260200183856128e89190613884565b815250908060018154018082558091505060019003906000526020600020906006020160009091909190915060008201518160000160006101000a81548173ffffffffffffffffffffffffffffffffffffffff021916908373ffffffffffffffffffffffffffffffffffffffff16021790555060208201518160010160006101000a81548173ffffffffffffffffffffffffffffffffffffffff021916908373ffffffffffffffffffffffffffffffffffffffff16021790555060408201518160020190805190602001906129be929190612b5a565b50606082015181600301556080820151816004015560a0820151816005015550505050505050565b60006040518060e001604052808973ffffffffffffffffffffffffffffffffffffffff16815260200188815260200187815260200186815260200185815260200184815260200183815250908060018154018082558091505060019003906000526020600020906007020160009091909190915060008201518160000160006101000a81548173ffffffffffffffffffffffffffffffffffffffff021916908373ffffffffffffffffffffffffffffffffffffffff1602179055506020820151816001019080519060200190612abd929190612b5a565b506040820151816002019080519060200190612ada929190612b5a565b506060820151816003019080519060200190612af7929190612b5a565b506080820151816004019080519060200190612b14929190612b5a565b5060a0820151816005019080519060200190612b31929190612b5a565b5060c0820151816006019080519060200190612b4e929190612b5a565b50505050505050505050565b828054612b66906136d3565b90600052602060002090601f016020900481019282612b885760008555612bcf565b82601f10612ba157805160ff1916838001178555612bcf565b82800160010185558215612bcf579182015b82811115612bce578251825591602001919060010190612bb3565b5b509050612bdc9190612be0565b5090565b5b80821115612bf9576000816000905550600101612be1565b5090565b6000604051905090565b600080fd5b600080fd5b6000819050919050565b612c2481612c11565b8114612c2f57600080fd5b50565b600081359050612c4181612c1b565b92915050565b600060208284031215612c5d57612c5c612c07565b5b6000612c6b84828501612c32565b91505092915050565b600073ffffffffffffffffffffffffffffffffffffffff82169050919050565b6000612c9f82612c74565b9050919050565b612caf81612c94565b82525050565b600081519050919050565b600082825260208201905092915050565b60005b83811015612cef578082015181840152602081019050612cd4565b83811115612cfe576000848401525b50505050565b6000601f19601f8301169050919050565b6000612d2082612cb5565b612d2a8185612cc0565b9350612d3a818560208601612cd1565b612d4381612d04565b840191505092915050565b600060e082019050612d63600083018a612ca6565b8181036020830152612d758189612d15565b90508181036040830152612d898188612d15565b90508181036060830152612d9d8187612d15565b90508181036080830152612db18186612d15565b905081810360a0830152612dc58185612d15565b905081810360c0830152612dd98184612d15565b905098975050505050505050565b612df081612c94565b8114612dfb57600080fd5b50565b600081359050612e0d81612de7565b92915050565b600060208284031215612e2957612e28612c07565b5b6000612e3784828501612dfe565b91505092915050565b600060c082019050612e556000830189612ca6565b8181036020830152612e678188612d15565b90508181036040830152612e7b8187612d15565b90508181036060830152612e8f8186612d15565b90508181036080830152612ea38185612d15565b905081810360a0830152612eb78184612d15565b9050979650505050505050565b600080fd5b600080fd5b7f4e487b7100000000000000000000000000000000000000000000000000000000600052604160045260246000fd5b612f0682612d04565b810181811067ffffffffffffffff82111715612f2557612f24612ece565b5b80604052505050565b6000612f38612bfd565b9050612f448282612efd565b919050565b600067ffffffffffffffff821115612f6457612f63612ece565b5b612f6d82612d04565b9050602081019050919050565b82818337600083830152505050565b6000612f9c612f9784612f49565b612f2e565b905082815260208101848484011115612fb857612fb7612ec9565b5b612fc3848285612f7a565b509392505050565b600082601f830112612fe057612fdf612ec4565b5b8135612ff0848260208601612f89565b91505092915050565b600080600080600060a0868803121561301557613014612c07565b5b600061302388828901612dfe565b955050602061303488828901612dfe565b945050604086013567ffffffffffffffff81111561305557613054612c0c565b5b61306188828901612fcb565b935050606061307288828901612c32565b925050608061308388828901612c32565b9150509295509295909350565b600080604083850312156130a7576130a6612c07565b5b60006130b585828601612dfe565b925050602083013567ffffffffffffffff8111156130d6576130d5612c0c565b5b6130e285828601612fcb565b9150509250929050565b6130f581612c11565b82525050565b600060208201905061311060008301846130ec565b92915050565b600060c08201905061312b6000830189612ca6565b6131386020830188612ca6565b818103604083015261314a8187612d15565b905061315960608301866130ec565b61316660808301856130ec565b61317360a08301846130ec565b979650505050505050565b600081519050919050565b600082825260208201905092915050565b6000819050602082019050919050565b6131b381612c94565b82525050565b60006131c583836131aa565b60208301905092915050565b6000602082019050919050565b60006131e98261317e565b6131f38185613189565b93506131fe8361319a565b8060005b8381101561322f57815161321688826131b9565b9750613221836131d1565b925050600181019050613202565b5085935050505092915050565b600081519050919050565b600082825260208201905092915050565b6000819050602082019050919050565b600082825260208201905092915050565b600061328482612cb5565b61328e8185613268565b935061329e818560208601612cd1565b6132a781612d04565b840191505092915050565b60006132be8383613279565b905092915050565b6000602082019050919050565b60006132de8261323c565b6132e88185613247565b9350836020820285016132fa85613258565b8060005b85811015613336578484038952815161331785826132b2565b9450613322836132c6565b925060208a019950506001810190506132fe565b50829750879550505050505092915050565b600081519050919050565b600082825260208201905092915050565b6000819050602082019050919050565b61337d81612c11565b82525050565b600061338f8383613374565b60208301905092915050565b6000602082019050919050565b60006133b382613348565b6133bd8185613353565b93506133c883613364565b8060005b838110156133f95781516133e08882613383565b97506133eb8361339b565b9250506001810190506133cc565b5085935050505092915050565b600060c082019050818103600083015261342081896131de565b9050818103602083015261343481886131de565b9050818103604083015261344881876132d3565b9050818103606083015261345c81866133a8565b9050818103608083015261347081856133a8565b905081810360a083015261348481846133a8565b9050979650505050505050565b60006040820190506134a66000830185612ca6565b6134b360208301846130ec565b9392505050565b600060e08201905081810360008301526134d4818a6131de565b905081810360208301526134e881896132d3565b905081810360408301526134fc81886132d3565b9050818103606083015261351081876132d3565b9050818103608083015261352481866132d3565b905081810360a083015261353881856132d3565b905081810360c083015261354c81846132d3565b905098975050505050505050565b600080600080600080600060e0888a03121561357957613578612c07565b5b60006135878a828b01612dfe565b975050602088013567ffffffffffffffff8111156135a8576135a7612c0c565b5b6135b48a828b01612fcb565b965050604088013567ffffffffffffffff8111156135d5576135d4612c0c565b5b6135e18a828b01612fcb565b955050606088013567ffffffffffffffff81111561360257613601612c0c565b5b61360e8a828b01612fcb565b945050608088013567ffffffffffffffff81111561362f5761362e612c0c565b5b61363b8a828b01612fcb565b93505060a088013567ffffffffffffffff81111561365c5761365b612c0c565b5b6136688a828b01612fcb565b92505060c088013567ffffffffffffffff81111561368957613688612c0c565b5b6136958a828b01612fcb565b91505092959891949750929550565b7f4e487b7100000000000000000000000000000000000000000000000000000000600052602260045260246000fd5b600060028204905060018216806136eb57607f821691505b602082108114156136ff576136fe6136a4565b5b50919050565b7f4e487b7100000000000000000000000000000000000000000000000000000000600052603260045260246000fd5b7f4e487b7100000000000000000000000000000000000000000000000000000000600052601160045260246000fd5b600061376e82612c11565b91507fffffffffffffffffffffffffffffffffffffffffffffffffffffffffffffffff8214156137a1576137a0613734565b5b600182019050919050565b7f537065616b696e672053636f726520696e636f72726563742e00000000000000600082015250565b60006137e2601983612cc0565b91506137ed826137ac565b602082019050919050565b60006020820190508181036000830152613811816137d5565b9050919050565b7f57726974696e672053636f726520696e636f72726563742e0000000000000000600082015250565b600061384e601883612cc0565b915061385982613818565b602082019050919050565b6000602082019050818103600083015261387d81613841565b9050919050565b600061388f82612c11565b915061389a83612c11565b9250827fffffffffffffffffffffffffffffffffffffffffffffffffffffffffffffffff038211156138cf576138ce613734565b5b828201905092915050565b600081905092915050565b60008190508160005260206000209050919050565b60008154613907816136d3565b61391181866138da565b9450600182166000811461392c576001811461393d57613970565b60ff19831686528186019350613970565b613946856138e5565b60005b8381101561396857815481890152600182019150602081019050613949565b838801955050505b50505092915050565b600061398582846138fa565b915081905092915050565b7f4c697374656e696e672053636f726520696e636f72726563742e000000000000600082015250565b60006139c6601a83612cc0565b91506139d182613990565b602082019050919050565b600060208201905081810360008301526139f5816139b9565b9050919050565b7f52656164696e672053636f726520696e636f72726563742e0000000000000000600082015250565b6000613a32601883612cc0565b9150613a3d826139fc565b602082019050919050565b60006020820190508181036000830152613a6181613a25565b905091905056fea26469706673582212202ed07102382b2d8e4b56ce6b736b51052ced8a5f155b0aa5297935dd7bede27264736f6c634300080b0033608060405234801561001057600080fd5b506125c9806100206000396000f3fe608060405234801561001057600080fd5b50600436106100b35760003560e01c8063ae8f00d311610071578063ae8f00d3146101ba578063ce1ec5bb146101d6578063cee5c7f314610207578063dc1e475f14610223578063e83ddcea1461023f578063e9daa70a14610271576100b3565b80624e56cf146100b85780630299779f146100d45780630b5e50ed14610104578063381a3bf7146101365780637aedcde51461016a578063844bb4601461019e575b600080fd5b6100d260048036038101906100cd9190611d49565b6102a3565b005b6100ee60048036038101906100e99190611de8565b610448565b6040516100fb9190611e70565b60405180910390f35b61011e60048036038101906101199190611eb7565b6105c3565b60405161012d93929190611f7b565b60405180910390f35b610150600480360381019061014b9190611fc0565b61072d565b6040516101619594939291906121b7565b60405180910390f35b610184600480360381019061017f9190611eb7565b610d1e565b60405161019595949392919061222d565b60405180910390f35b6101b860048036038101906101b39190611d49565b610f3c565b005b6101d460048036038101906101cf9190611de8565b6110e1565b005b6101f060048036038101906101eb9190611fc0565b611205565b6040516101fe929190612295565b60405180910390f35b610221600480360381019061021c91906122cc565b6114f9565b005b61023d60048036038101906102389190611d49565b6115dd565b005b61025960048036038101906102549190611eb7565b61177d565b60405161026893929190612357565b60405180910390f35b61028b60048036038101906102869190612395565b61187f565b60405161029a93929190612357565b60405180910390f35b60005b600080549050811015610441578473ffffffffffffffffffffffffffffffffffffffff16600082815481106102de576102dd6123d5565b5b906000526020600020906005020160000160009054906101000a900473ffffffffffffffffffffffffffffffffffffffff1673ffffffffffffffffffffffffffffffffffffffff161480156103a357508373ffffffffffffffffffffffffffffffffffffffff1660008281548110610359576103586123d5565b5b906000526020600020906005020160010160009054906101000a900473ffffffffffffffffffffffffffffffffffffffff1673ffffffffffffffffffffffffffffffffffffffff16145b80156103ee57508280519060200120600082815481106103c6576103c56123d5565b5b90600052602060002090600502016002016040516103e49190612504565b6040518091039020145b1561042e578160008281548110610408576104076123d5565b5b9060005260206000209060050201600401908051906020019061042c929190611aee565b505b80806104399061254a565b9150506102a6565b5050505050565b600080600090505b6000805490508110156105ba578473ffffffffffffffffffffffffffffffffffffffff1660008281548110610488576104876123d5565b5b906000526020600020906005020160000160009054906101000a900473ffffffffffffffffffffffffffffffffffffffff1673ffffffffffffffffffffffffffffffffffffffff1614801561054d57508373ffffffffffffffffffffffffffffffffffffffff1660008281548110610503576105026123d5565b5b906000526020600020906005020160010160009054906101000a900473ffffffffffffffffffffffffffffffffffffffff1673ffffffffffffffffffffffffffffffffffffffff16145b801561059857508280519060200120600082815481106105705761056f6123d5565b5b906000526020600020906005020160020160405161058e9190612504565b6040518091039020145b156105a75760019150506105bc565b80806105b29061254a565b915050610450565b505b9392505050565b600181815481106105d357600080fd5b90600052602060002090600302016000915090508060000160009054906101000a900473ffffffffffffffffffffffffffffffffffffffff169080600101805461061c90612433565b80601f016020809104026020016040519081016040528092919081815260200182805461064890612433565b80156106955780601f1061066a57610100808354040283529160200191610695565b820191906000526020600020905b81548152906001019060200180831161067857829003601f168201915b5050505050908060020180546106aa90612433565b80601f01602080910402602001604051908101604052809291908181526020018280546106d690612433565b80156107235780601f106106f857610100808354040283529160200191610723565b820191906000526020600020905b81548152906001019060200180831161070657829003601f168201915b5050505050905083565b60608060608060606000808054905067ffffffffffffffff81111561075557610754611c1e565b5b6040519080825280602002602001820160405280156107835781602001602082028036833780820191505090505b5090506000808054905067ffffffffffffffff8111156107a6576107a5611c1e565b5b6040519080825280602002602001820160405280156107d45781602001602082028036833780820191505090505b5090506000808054905067ffffffffffffffff8111156107f7576107f6611c1e565b5b60405190808252806020026020018201604052801561082a57816020015b60608152602001906001900390816108155790505b5090506000808054905067ffffffffffffffff81111561084d5761084c611c1e565b5b60405190808252806020026020018201604052801561088057816020015b606081526020019060019003908161086b5790505b5090506000808054905067ffffffffffffffff8111156108a3576108a2611c1e565b5b6040519080825280602002602001820160405280156108d657816020015b60608152602001906001900390816108c15790505b50905060005b600080549050811015610d00578b73ffffffffffffffffffffffffffffffffffffffff1660008281548110610914576109136123d5565b5b906000526020600020906005020160010160009054906101000a900473ffffffffffffffffffffffffffffffffffffffff1673ffffffffffffffffffffffffffffffffffffffff161415610ced5760008181548110610976576109756123d5565b5b906000526020600020906005020160000160009054906101000a900473ffffffffffffffffffffffffffffffffffffffff168682815181106109bb576109ba6123d5565b5b602002602001019073ffffffffffffffffffffffffffffffffffffffff16908173ffffffffffffffffffffffffffffffffffffffff168152505060008181548110610a0957610a086123d5565b5b906000526020600020906005020160010160009054906101000a900473ffffffffffffffffffffffffffffffffffffffff16858281518110610a4e57610a4d6123d5565b5b602002602001019073ffffffffffffffffffffffffffffffffffffffff16908173ffffffffffffffffffffffffffffffffffffffff168152505060008181548110610a9c57610a9b6123d5565b5b90600052602060002090600502016002018054610ab890612433565b80601f0160208091040260200160405190810160405280929190818152602001828054610ae490612433565b8015610b315780601f10610b0657610100808354040283529160200191610b31565b820191906000526020600020905b815481529060010190602001808311610b1457829003601f168201915b5050505050848281518110610b4957610b486123d5565b5b602002602001018190525060008181548110610b6857610b676123d5565b5b90600052602060002090600502016003018054610b8490612433565b80601f0160208091040260200160405190810160405280929190818152602001828054610bb090612433565b8015610bfd5780601f10610bd257610100808354040283529160200191610bfd565b820191906000526020600020905b815481529060010190602001808311610be057829003601f168201915b5050505050838281518110610c1557610c146123d5565b5b602002602001018190525060008181548110610c3457610c336123d5565b5b90600052602060002090600502016004018054610c5090612433565b80601f0160208091040260200160405190810160405280929190818152602001828054610c7c90612433565b8015610cc95780601f10610c9e57610100808354040283529160200191610cc9565b820191906000526020600020905b815481529060010190602001808311610cac57829003601f168201915b5050505050828281518110610ce157610ce06123d5565b5b60200260200101819052505b8080610cf89061254a565b9150506108dc565b50848484848499509950995099509950505050505091939590929450565b60008181548110610d2e57600080fd5b90600052602060002090600502016000915090508060000160009054906101000a900473ffffffffffffffffffffffffffffffffffffffff16908060010160009054906101000a900473ffffffffffffffffffffffffffffffffffffffff1690806002018054610d9d90612433565b80601f0160208091040260200160405190810160405280929190818152602001828054610dc990612433565b8015610e165780601f10610deb57610100808354040283529160200191610e16565b820191906000526020600020905b815481529060010190602001808311610df957829003601f168201915b505050505090806003018054610e2b90612433565b80601f0160208091040260200160405190810160405280929190818152602001828054610e5790612433565b8015610ea45780601f10610e7957610100808354040283529160200191610ea4565b820191906000526020600020905b815481529060010190602001808311610e8757829003601f168201915b505050505090806004018054610eb990612433565b80601f0160208091040260200160405190810160405280929190818152602001828054610ee590612433565b8015610f325780601f10610f0757610100808354040283529160200191610f32565b820191906000526020600020905b815481529060010190602001808311610f1557829003601f168201915b5050505050905085565b60005b6000805490508110156110da578473ffffffffffffffffffffffffffffffffffffffff1660008281548110610f7757610f766123d5565b5b906000526020600020906005020160000160009054906101000a900473ffffffffffffffffffffffffffffffffffffffff1673ffffffffffffffffffffffffffffffffffffffff1614801561103c57508373ffffffffffffffffffffffffffffffffffffffff1660008281548110610ff257610ff16123d5565b5b906000526020600020906005020160010160009054906101000a900473ffffffffffffffffffffffffffffffffffffffff1673ffffffffffffffffffffffffffffffffffffffff16145b8015611087575082805190602001206000828154811061105f5761105e6123d5565b5b906000526020600020906005020160020160405161107d9190612504565b6040518091039020145b156110c75781600082815481106110a1576110a06123d5565b5b906000526020600020906005020160040190805190602001906110c5929190611aee565b505b80806110d29061254a565b915050610f3f565b5050505050565b600260405180606001604052808573ffffffffffffffffffffffffffffffffffffffff1681526020018473ffffffffffffffffffffffffffffffffffffffff16815260200183815250908060018154018082558091505060019003906000526020600020906003020160009091909190915060008201518160000160006101000a81548173ffffffffffffffffffffffffffffffffffffffff021916908373ffffffffffffffffffffffffffffffffffffffff16021790555060208201518160010160006101000a81548173ffffffffffffffffffffffffffffffffffffffff021916908373ffffffffffffffffffffffffffffffffffffffff16021790555060408201518160020190805190602001906111fd929190611aee565b505050505050565b606080600060018054905067ffffffffffffffff81111561122957611228611c1e565b5b60405190808252806020026020018201604052801561125c57816020015b60608152602001906001900390816112475790505b509050600060018054905067ffffffffffffffff8111156112805761127f611c1e565b5b6040519080825280602002602001820160405280156112b357816020015b606081526020019060019003908161129e5790505b50905060005b6001805490508110156114eb578573ffffffffffffffffffffffffffffffffffffffff16600182815481106112f1576112f06123d5565b5b906000526020600020906003020160000160009054906101000a900473ffffffffffffffffffffffffffffffffffffffff1673ffffffffffffffffffffffffffffffffffffffff1614156114d85760018181548110611353576113526123d5565b5b9060005260206000209060030201600101805461136f90612433565b80601f016020809104026020016040519081016040528092919081815260200182805461139b90612433565b80156113e85780601f106113bd576101008083540402835291602001916113e8565b820191906000526020600020905b8154815290600101906020018083116113cb57829003601f168201915b5050505050838281518110611400576113ff6123d5565b5b60200260200101819052506001818154811061141f5761141e6123d5565b5b9060005260206000209060030201600201805461143b90612433565b80601f016020809104026020016040519081016040528092919081815260200182805461146790612433565b80156114b45780601f10611489576101008083540402835291602001916114b4565b820191906000526020600020905b81548152906001019060200180831161149757829003601f168201915b50505050508282815181106114cc576114cb6123d5565b5b60200260200101819052505b80806114e39061254a565b9150506112b9565b508181935093505050915091565b600160405180606001604052808573ffffffffffffffffffffffffffffffffffffffff16815260200184815260200183815250908060018154018082558091505060019003906000526020600020906003020160009091909190915060008201518160000160006101000a81548173ffffffffffffffffffffffffffffffffffffffff021916908373ffffffffffffffffffffffffffffffffffffffff16021790555060208201518160010190805190602001906115b8929190611aee565b5060408201518160020190805190602001906115d5929190611aee565b505050505050565b60006040518060a001604052808673ffffffffffffffffffffffffffffffffffffffff1681526020018573ffffffffffffffffffffffffffffffffffffffff1681526020018481526020018381526020016040518060400160405280600981526020017f53637265656e696e670000000000000000000000000000000000000000000000815250815250908060018154018082558091505060019003906000526020600020906005020160009091909190915060008201518160000160006101000a81548173ffffffffffffffffffffffffffffffffffffffff021916908373ffffffffffffffffffffffffffffffffffffffff16021790555060208201518160010160006101000a81548173ffffffffffffffffffffffffffffffffffffffff021916908373ffffffffffffffffffffffffffffffffffffffff160217905550604082015181600201908051906020019061173a929190611aee565b506060820151816003019080519060200190611757929190611aee565b506080820151816004019080519060200190611774929190611aee565b50505050505050565b6002818154811061178d57600080fd5b90600052602060002090600302016000915090508060000160009054906101000a900473ffffffffffffffffffffffffffffffffffffffff16908060010160009054906101000a900473ffffffffffffffffffffffffffffffffffffffff16908060020180546117fc90612433565b80601f016020809104026020016040519081016040528092919081815260200182805461182890612433565b80156118755780601f1061184a57610100808354040283529160200191611875565b820191906000526020600020905b81548152906001019060200180831161185857829003601f168201915b5050505050905083565b600080606060005b600280549050811015611ae5578473ffffffffffffffffffffffffffffffffffffffff16600282815481106118bf576118be6123d5565b5b906000526020600020906003020160010160009054906101000a900473ffffffffffffffffffffffffffffffffffffffff1673ffffffffffffffffffffffffffffffffffffffff1614801561198457508573ffffffffffffffffffffffffffffffffffffffff166002828154811061193a576119396123d5565b5b906000526020600020906003020160000160009054906101000a900473ffffffffffffffffffffffffffffffffffffffff1673ffffffffffffffffffffffffffffffffffffffff16145b15611ad2576002818154811061199d5761199c6123d5565b5b906000526020600020906003020160000160009054906101000a900473ffffffffffffffffffffffffffffffffffffffff16600282815481106119e3576119e26123d5565b5b906000526020600020906003020160010160009054906101000a900473ffffffffffffffffffffffffffffffffffffffff1660028381548110611a2957611a286123d5565b5b9060005260206000209060030201600201808054611a4690612433565b80601f0160208091040260200160405190810160405280929190818152602001828054611a7290612433565b8015611abf5780601f10611a9457610100808354040283529160200191611abf565b820191906000526020600020905b815481529060010190602001808311611aa257829003601f168201915b5050505050905093509350935050611ae7565b8080611add9061254a565b915050611887565b505b9250925092565b828054611afa90612433565b90600052602060002090601f016020900481019282611b1c5760008555611b63565b82601f10611b3557805160ff1916838001178555611b63565b82800160010185558215611b63579182015b82811115611b62578251825591602001919060010190611b47565b5b509050611b709190611b74565b5090565b5b80821115611b8d576000816000905550600101611b75565b5090565b6000604051905090565b600080fd5b600080fd5b600073ffffffffffffffffffffffffffffffffffffffff82169050919050565b6000611bd082611ba5565b9050919050565b611be081611bc5565b8114611beb57600080fd5b50565b600081359050611bfd81611bd7565b92915050565b600080fd5b600080fd5b6000601f19601f8301169050919050565b7f4e487b7100000000000000000000000000000000000000000000000000000000600052604160045260246000fd5b611c5682611c0d565b810181811067ffffffffffffffff82111715611c7557611c74611c1e565b5b80604052505050565b6000611c88611b91565b9050611c948282611c4d565b919050565b600067ffffffffffffffff821115611cb457611cb3611c1e565b5b611cbd82611c0d565b9050602081019050919050565b82818337600083830152505050565b6000611cec611ce784611c99565b611c7e565b905082815260208101848484011115611d0857611d07611c08565b5b611d13848285611cca565b509392505050565b600082601f830112611d3057611d2f611c03565b5b8135611d40848260208601611cd9565b91505092915050565b60008060008060808587031215611d6357611d62611b9b565b5b6000611d7187828801611bee565b9450506020611d8287828801611bee565b935050604085013567ffffffffffffffff811115611da357611da2611ba0565b5b611daf87828801611d1b565b925050606085013567ffffffffffffffff811115611dd057611dcf611ba0565b5b611ddc87828801611d1b565b91505092959194509250565b600080600060608486031215611e0157611e00611b9b565b5b6000611e0f86828701611bee565b9350506020611e2086828701611bee565b925050604084013567ffffffffffffffff811115611e4157611e40611ba0565b5b611e4d86828701611d1b565b9150509250925092565b6000819050919050565b611e6a81611e57565b82525050565b6000602082019050611e856000830184611e61565b92915050565b611e9481611e57565b8114611e9f57600080fd5b50565b600081359050611eb181611e8b565b92915050565b600060208284031215611ecd57611ecc611b9b565b5b6000611edb84828501611ea2565b91505092915050565b611eed81611bc5565b82525050565b600081519050919050565b600082825260208201905092915050565b60005b83811015611f2d578082015181840152602081019050611f12565b83811115611f3c576000848401525b50505050565b6000611f4d82611ef3565b611f578185611efe565b9350611f67818560208601611f0f565b611f7081611c0d565b840191505092915050565b6000606082019050611f906000830186611ee4565b8181036020830152611fa28185611f42565b90508181036040830152611fb68184611f42565b9050949350505050565b600060208284031215611fd657611fd5611b9b565b5b6000611fe484828501611bee565b91505092915050565b600081519050919050565b600082825260208201905092915050565b6000819050602082019050919050565b61202281611bc5565b82525050565b60006120348383612019565b60208301905092915050565b6000602082019050919050565b600061205882611fed565b6120628185611ff8565b935061206d83612009565b8060005b8381101561209e5781516120858882612028565b975061209083612040565b925050600181019050612071565b5085935050505092915050565b600081519050919050565b600082825260208201905092915050565b6000819050602082019050919050565b600082825260208201905092915050565b60006120f382611ef3565b6120fd81856120d7565b935061210d818560208601611f0f565b61211681611c0d565b840191505092915050565b600061212d83836120e8565b905092915050565b6000602082019050919050565b600061214d826120ab565b61215781856120b6565b935083602082028501612169856120c7565b8060005b858110156121a557848403895281516121868582612121565b945061219183612135565b925060208a0199505060018101905061216d565b50829750879550505050505092915050565b600060a08201905081810360008301526121d1818861204d565b905081810360208301526121e5818761204d565b905081810360408301526121f98186612142565b9050818103606083015261220d8185612142565b905081810360808301526122218184612142565b90509695505050505050565b600060a0820190506122426000830188611ee4565b61224f6020830187611ee4565b81810360408301526122618186611f42565b905081810360608301526122758185611f42565b905081810360808301526122898184611f42565b90509695505050505050565b600060408201905081810360008301526122af8185612142565b905081810360208301526122c38184612142565b90509392505050565b6000806000606084860312156122e5576122e4611b9b565b5b60006122f386828701611bee565b935050602084013567ffffffffffffffff81111561231457612313611ba0565b5b61232086828701611d1b565b925050604084013567ffffffffffffffff81111561234157612340611ba0565b5b61234d86828701611d1b565b9150509250925092565b600060608201905061236c6000830186611ee4565b6123796020830185611ee4565b818103604083015261238b8184611f42565b9050949350505050565b600080604083850312156123ac576123ab611b9b565b5b60006123ba85828601611bee565b92505060206123cb85828601611bee565b9150509250929050565b7f4e487b7100000000000000000000000000000000000000000000000000000000600052603260045260246000fd5b7f4e487b7100000000000000000000000000000000000000000000000000000000600052602260045260246000fd5b6000600282049050600182168061244b57607f821691505b6020821081141561245f5761245e612404565b5b50919050565b600081905092915050565b60008190508160005260206000209050919050565b6000815461249281612433565b61249c8186612465565b945060018216600081146124b757600181146124c8576124fb565b60ff198316865281860193506124fb565b6124d185612470565b60005b838110156124f3578154818901526001820191506020810190506124d4565b838801955050505b50505092915050565b60006125108284612485565b915081905092915050565b7f4e487b7100000000000000000000000000000000000000000000000000000000600052601160045260246000fd5b600061255582611e57565b91507fffffffffffffffffffffffffffffffffffffffffffffffffffffffffffffffff8214156125885761258761251b565b5b60018201905091905056fea264697066735822122046e760f855caaea8b54ff025a4727c983a0e576b9e122beae6840f21c74cfbb264736f6c634300080b0033",
  "immutableReferences": {},
  "source": "// SPDX-License-Identifier: MIT\r\npragma solidity >=0.4.22 <0.9.0;\r\n\r\n// Import cc contract cn thit  s dng\r\nimport \"./SmartCV_ListStudent.sol\";\r\nimport \"./SmartCV_ListBusiness.sol\";\r\nimport \"./SmartCV_ListIIG.sol\";\r\nimport \"./SmartCV_Apply.sol\";\r\n\r\n// CV dnh cho sinh vin\r\ncontract StudentBusiness {\r\n\r\n    // Khai contract  import  s dng cc function  contract \r\n    ListStudent listStudent = new ListStudent();\r\n    ListBusiness listBusiness = new ListBusiness();\r\n    ListIIG listIIG = new ListIIG();\r\n    ApplyCV applyCV = new ApplyCV();\r\n\r\n    // ======================================\r\n    // ====== Chc nng cho sinh vin =======\r\n    // ======================================\r\n\r\n    // Chc nng thm thng tin sinh vin (ng k)\r\n    function addStudentProfile (\r\n        address _studentOwner,\r\n        string memory _name,\r\n        string memory _birthDay,\r\n        string memory _professionalTitle,\r\n        string memory _email,\r\n        string memory _github,\r\n        string memory _linkedin,\r\n        string memory _password) public {\r\n            listStudent.addSV(_studentOwner, _name, _birthDay, _professionalTitle, _email, _github, _linkedin, _password);\r\n    }\r\n\r\n    // Chc nng ly thng tin ca sinh vin\r\n    function getStudentProfile(address _studentOwner) public view returns(\r\n        address studentOwner, \r\n        string memory name, \r\n        string memory birthDay, \r\n        string memory professionalTitle, \r\n        string memory email, \r\n        string memory github, \r\n        string memory linkedin,\r\n        string memory password) {\r\n            return listStudent.getProfile(_studentOwner);\r\n    }\r\n\r\n    // Chc nng kim tra ti khon sinh vin c tn ti hay khng? (ng nhp)\r\n    function checkStudentProfile(\r\n        address _studentOwner, \r\n        string memory _password) public view returns(uint x) {\r\n            return listStudent.checkSV(_studentOwner, _password);\r\n    }\r\n\r\n    // Chc nng kim tra a ch sinh vin c tn ti hay khng?\r\n    function checkExistStudent(address _studentOwner) public view returns(uint x) {\r\n            return listStudent.checkExistSV(_studentOwner);\r\n    }\r\n\r\n    // Chc nng thm thng tin k nng ca sinh vin\r\n    function addStudentSkill(\r\n        address _studentOwner,\r\n        string memory _title, \r\n        uint _level) public {\r\n            listStudent.addSkill(_studentOwner, _title, _level);\r\n    }\r\n\r\n    // Chc nng kim tra k nng ca sinh vin c tn ti hay khng?\r\n    function checkStudentSkill(\r\n        address _studentOwner,\r\n        string memory _title) public view returns(uint x) {\r\n            return listStudent.checkSkill(_studentOwner, _title);\r\n    }\r\n\r\n    // Chc nng kim tra s lng k nng ca sinh vin\r\n    function checkNumStudentSkill(\r\n        address _studentOwner) public view returns(uint x) {\r\n            uint _count = listStudent.checkNumSkill(_studentOwner);\r\n            if(_count > 10){\r\n                return 1;\r\n            }\r\n    }\r\n\r\n    // Chc nng ly thng tin k nng ca sinh vin\r\n    function getStudentSkill(address _studentOwner) public view returns(\r\n        string[] memory titles,\r\n        uint[] memory levels) {\r\n        return listStudent.getSkill(_studentOwner);\r\n    }\r\n\r\n    // Chc nng ly danh sch doanh nghip\r\n    function getListBusiness() public view returns(\r\n        address[] memory,\r\n        string[] memory,\r\n        string[] memory,\r\n        string[] memory,\r\n        string[] memory,\r\n        string[] memory,\r\n        string[] memory,\r\n        string[] memory) {\r\n        return listBusiness.getListDN();\r\n    }\r\n\r\n    // Chc nng ly thng tin tuyn dng ca doanh nghip\r\n    function getRecruit(address _businessOwner) public view returns(\r\n        string[] memory,\r\n        string[] memory) {\r\n        return applyCV.getRecruit(_businessOwner);\r\n    }\r\n\r\n    // Chc nng gi CV ti doanh nghip\r\n    function sendCV(\r\n        address _studentOwner, \r\n        address _businessOwner, \r\n        string memory _jobTitle, \r\n        string memory _coverLetter) public {\r\n            applyCV.addCV(_studentOwner, _businessOwner, _jobTitle, _coverLetter);\r\n    }\r\n\r\n    // Chc nng kim tra sinh vin  np CV cha?\r\n    function checkCV(\r\n        address _studentOwner, \r\n        address _businessOwner, \r\n        string memory _jobTitle) public view returns(uint x) {\r\n            return applyCV.checkCV(_studentOwner, _businessOwner, _jobTitle);\r\n    }\r\n\r\n    // Chc nng xem nh gi thc tp ca doanh nghip\r\n    function getReview(\r\n        address _studentOwner, \r\n        address _businessOwner) public view returns(\r\n            address studentOwner, \r\n            address businessOwner, \r\n            string memory content) {\r\n                return applyCV.getReview(_studentOwner, _businessOwner);\r\n    }\r\n\r\n    // ======================================\r\n    // ===== Chc nng cho doanh nghip =====\r\n    // ======================================\r\n\r\n    // Chc nng thm thng tin doanh nghip (ng k)\r\n    function addBusinessProfile(\r\n        address _businessOwner,\r\n        string memory _name,\r\n        string memory _country,\r\n        string memory _facebook,\r\n        string memory _website,\r\n        string memory _linkedin,\r\n        string memory _focusArea,\r\n        string memory _password) public {\r\n            listBusiness.addDN(_businessOwner, _name, _country, _facebook, _website, _linkedin, _focusArea, _password);\r\n    }\r\n\r\n    // Chc nng ly thng tin ca doanh nghip\r\n    function getBusinessProfile(address _businessOwner) public view returns(\r\n        address businessOwner, \r\n        string memory name, \r\n        string memory country, \r\n        string memory facebook, \r\n        string memory website, \r\n        string memory linkedin, \r\n        string memory focusArea) {\r\n            return listBusiness.getProfile(_businessOwner);\r\n    }\r\n\r\n    // Chc nng kim tra ti khon doanh nghip c tn ti hay khng? (ng nhp)\r\n    function checkBusinessProfile(\r\n        address _businessOwner, \r\n        string memory _password) public view returns(uint) {\r\n            return listBusiness.checkDN(_businessOwner, _password);\r\n    }\r\n\r\n    // Chc nng kim tra a ch doanh nghip c tn ti hay khng?\r\n    function checkExistBusiness(address _businessOwner) public view returns(uint x) {\r\n            return listBusiness.checkExistDN(_businessOwner);\r\n    }\r\n\r\n    // Chc nng ly danh sch CV  np vo doanh nghip\r\n    function getListCV(address _businessOwner) public view returns(\r\n        address[] memory, \r\n        address[] memory, \r\n        string[] memory, \r\n        string[] memory,\r\n        string[] memory) {\r\n            return applyCV.getCV(_businessOwner);\r\n    }\r\n    \r\n    //Chc nng duyt CV vo vng interview\r\n    function interviewCV(\r\n        address _studentOwner, \r\n        address _businessOwner, \r\n        string memory _jobTitle,\r\n        string memory _statusCV) public {\r\n            applyCV.interviewCV(_studentOwner, _businessOwner, _jobTitle, _statusCV);\r\n    }\r\n\r\n    //Chc nng duyt CV vo vng onboard\r\n    function onboardCV(\r\n        address _studentOwner, \r\n        address _businessOwner, \r\n        string memory _jobTitle,\r\n        string memory _statusCV) public {\r\n            applyCV.onboardCV(_studentOwner, _businessOwner, _jobTitle, _statusCV);\r\n    }\r\n\r\n    // Chc nng thm thng tin tuyn dng ca doanh nghip\r\n    function addRecruit(\r\n        address _businessOwner,\r\n        string memory _jobTitle,\r\n        string memory _jobDescription) public {\r\n            applyCV.addRecruit(_businessOwner, _jobTitle, _jobDescription);\r\n    }\r\n\r\n    // Chc nng nh gi thc tp cho sinh vin\r\n    function sendReview(\r\n        address _studentOwner, \r\n        address _businessOwner, \r\n        string memory _content) public {\r\n            applyCV.addReview(_studentOwner, _businessOwner, _content);\r\n    }\r\n\r\n    // ======================================\r\n    // ========= Chc nng cho IIG ==========\r\n    // ======================================\r\n\r\n    // Chc nng thm thng tin IIG (ng k)\r\n    function addIIGProfile(\r\n        address _iigOwner,\r\n        string memory _name,\r\n        string memory _country,\r\n        string memory _facebook,\r\n        string memory _website,\r\n        string memory _linkedin,\r\n        string memory _password) public {\r\n            listIIG.addIIG(_iigOwner, _name, _country, _facebook, _website, _linkedin, _password);\r\n    }\r\n\r\n    // Chc nng ly thng tin ca IIG\r\n    function getIIGProfile(address _iigOwner) public view returns(\r\n        address iigOwner, \r\n        string memory name, \r\n        string memory country, \r\n        string memory facebook, \r\n        string memory website, \r\n        string memory linkedin) {\r\n            return listIIG.getProfile(_iigOwner);\r\n    }\r\n\r\n    // Chc nng kim tra ti khon IIG c tn ti hay khng? (ng nhp)\r\n    function checkIIGProfile(\r\n        address _iigOwner, \r\n        string memory _password) public view returns(uint) {\r\n            return listIIG.checkIIG(_iigOwner, _password);\r\n    }\r\n\r\n    // Chc nng kim tra a ch IIG c tn ti hay khng?\r\n    function checkExistIIG(address _iigOwner) public view returns(uint x) {\r\n            return listIIG.checkExistIIG(_iigOwner);\r\n    }\r\n\r\n    // Chc nng nhp thng tin im thi Listening - Reading\r\n    function addIIGLRResult (\r\n        address _iigOwner,\r\n        address _studentOwner,\r\n        string memory _testDate,\r\n        uint _listeningScore,\r\n        uint _readingScore) public {\r\n            listIIG.addLRResult(_iigOwner, _studentOwner, _testDate, _listeningScore, _readingScore);\r\n    }\r\n\r\n    // Chc nng nhp thng tin im thi Speaking - Writing\r\n    function addIIGSWResult (\r\n        address _iigOwner,\r\n        address _studentOwner,\r\n        string memory _testDate,\r\n        uint _speakingScore,\r\n        uint _writingScore) public {\r\n            listIIG.addSWResult(_iigOwner, _studentOwner, _testDate, _speakingScore, _writingScore);\r\n    }\r\n\r\n    // Chc nng ly thng tin im thi Listening - Reading\r\n    function getIIGRCResult(address _studentOwner) public view returns(\r\n        address studentOwners,\r\n        uint maxScore) {\r\n            return listIIG.getRCResult(_studentOwner);\r\n    }\r\n\r\n    // Chc nng ly thng tin im thi Speaking - Writing\r\n    function getIIGSWResult(address _studentOwner) public view returns(\r\n        address studentOwners,\r\n        uint maxScore) {\r\n            return listIIG.getSWResult(_studentOwner);\r\n    }\r\n}",
  "sourcePath": "C:\\Users\\19520\\Documents\\NCKH_Blockchain\\SolidityProgramming\\ProjectResearch\\SmartCV\\SmartContract\\contracts\\SmartCV_StudentBusiness.sol",
  "compiler": {
    "name": "solc",
    "version": "0.8.11+commit.d7f03943.Emscripten.clang"
  },
  "schemaVersion": "3.4.4",
  "updatedAt": "2022-07-19T02:01:42.617Z",
  "devdoc": {
    "kind": "dev",
    "methods": {},
    "version": 1
  },
  "userdoc": {
    "kind": "user",
    "methods": {},
    "version": 1
  }
}