{
  "contractName": "StudentBusiness",
  "abi": [
    {
      "inputs": [
        {
          "internalType": "address",
          "name": "_studentOwner",
          "type": "address"
        },
        {
          "internalType": "string",
          "name": "_name",
          "type": "string"
        },
        {
          "internalType": "string",
          "name": "_birthDay",
          "type": "string"
        },
        {
          "internalType": "string",
          "name": "_professionalTitle",
          "type": "string"
        },
        {
          "internalType": "string",
          "name": "_email",
          "type": "string"
        },
        {
          "internalType": "string",
          "name": "_github",
          "type": "string"
        },
        {
          "internalType": "string",
          "name": "_linkedin",
          "type": "string"
        },
        {
          "internalType": "string",
          "name": "_password",
          "type": "string"
        }
      ],
      "name": "addStudentProfile",
      "outputs": [],
      "stateMutability": "nonpayable",
      "type": "function"
    },
    {
      "inputs": [
        {
          "internalType": "address",
          "name": "_studentOwner",
          "type": "address"
        }
      ],
      "name": "getStudentProfile",
      "outputs": [
        {
          "internalType": "address",
          "name": "studentOwner",
          "type": "address"
        },
        {
          "internalType": "string",
          "name": "name",
          "type": "string"
        },
        {
          "internalType": "string",
          "name": "birthDay",
          "type": "string"
        },
        {
          "internalType": "string",
          "name": "professionalTitle",
          "type": "string"
        },
        {
          "internalType": "string",
          "name": "email",
          "type": "string"
        },
        {
          "internalType": "string",
          "name": "github",
          "type": "string"
        },
        {
          "internalType": "string",
          "name": "linkedin",
          "type": "string"
        },
        {
          "internalType": "string",
          "name": "password",
          "type": "string"
        }
      ],
      "stateMutability": "view",
      "type": "function",
      "constant": true
    },
    {
      "inputs": [
        {
          "internalType": "address",
          "name": "_studentOwner",
          "type": "address"
        },
        {
          "internalType": "string",
          "name": "_password",
          "type": "string"
        }
      ],
      "name": "checkStudentProfile",
      "outputs": [
        {
          "internalType": "uint256",
          "name": "x",
          "type": "uint256"
        }
      ],
      "stateMutability": "view",
      "type": "function",
      "constant": true
    },
    {
      "inputs": [
        {
          "internalType": "address",
          "name": "_studentOwner",
          "type": "address"
        }
      ],
      "name": "checkExistStudent",
      "outputs": [
        {
          "internalType": "uint256",
          "name": "x",
          "type": "uint256"
        }
      ],
      "stateMutability": "view",
      "type": "function",
      "constant": true
    },
    {
      "inputs": [
        {
          "internalType": "address",
          "name": "_studentOwner",
          "type": "address"
        },
        {
          "internalType": "string",
          "name": "_title",
          "type": "string"
        },
        {
          "internalType": "uint256",
          "name": "_level",
          "type": "uint256"
        }
      ],
      "name": "addStudentSkill",
      "outputs": [],
      "stateMutability": "nonpayable",
      "type": "function"
    },
    {
      "inputs": [
        {
          "internalType": "address",
          "name": "_studentOwner",
          "type": "address"
        },
        {
          "internalType": "string",
          "name": "_title",
          "type": "string"
        }
      ],
      "name": "checkStudentSkilll",
      "outputs": [
        {
          "internalType": "uint256",
          "name": "x",
          "type": "uint256"
        }
      ],
      "stateMutability": "view",
      "type": "function",
      "constant": true
    },
    {
      "inputs": [
        {
          "internalType": "address",
          "name": "_studentOwner",
          "type": "address"
        }
      ],
      "name": "checkNumStudentSkilll",
      "outputs": [
        {
          "internalType": "uint256",
          "name": "x",
          "type": "uint256"
        }
      ],
      "stateMutability": "view",
      "type": "function",
      "constant": true
    },
    {
      "inputs": [
        {
          "internalType": "address",
          "name": "_studentOwner",
          "type": "address"
        }
      ],
      "name": "getStudentSkill",
      "outputs": [
        {
          "internalType": "string[]",
          "name": "titles",
          "type": "string[]"
        },
        {
          "internalType": "uint256[]",
          "name": "levels",
          "type": "uint256[]"
        }
      ],
      "stateMutability": "view",
      "type": "function",
      "constant": true
    },
    {
      "inputs": [],
      "name": "getListBusiness",
      "outputs": [
        {
          "internalType": "address[]",
          "name": "",
          "type": "address[]"
        },
        {
          "internalType": "string[]",
          "name": "",
          "type": "string[]"
        },
        {
          "internalType": "string[]",
          "name": "",
          "type": "string[]"
        },
        {
          "internalType": "string[]",
          "name": "",
          "type": "string[]"
        },
        {
          "internalType": "string[]",
          "name": "",
          "type": "string[]"
        },
        {
          "internalType": "string[]",
          "name": "",
          "type": "string[]"
        },
        {
          "internalType": "string[]",
          "name": "",
          "type": "string[]"
        },
        {
          "internalType": "string[]",
          "name": "",
          "type": "string[]"
        }
      ],
      "stateMutability": "view",
      "type": "function",
      "constant": true
    },
    {
      "inputs": [
        {
          "internalType": "address",
          "name": "_businessOwner",
          "type": "address"
        }
      ],
      "name": "getRecruit",
      "outputs": [
        {
          "internalType": "string[]",
          "name": "",
          "type": "string[]"
        },
        {
          "internalType": "string[]",
          "name": "",
          "type": "string[]"
        }
      ],
      "stateMutability": "view",
      "type": "function",
      "constant": true
    },
    {
      "inputs": [
        {
          "internalType": "address",
          "name": "_studentOwner",
          "type": "address"
        },
        {
          "internalType": "address",
          "name": "_businessOwner",
          "type": "address"
        },
        {
          "internalType": "string",
          "name": "_jobTitle",
          "type": "string"
        },
        {
          "internalType": "string",
          "name": "_coverLetter",
          "type": "string"
        }
      ],
      "name": "sendCV",
      "outputs": [],
      "stateMutability": "nonpayable",
      "type": "function"
    },
    {
      "inputs": [
        {
          "internalType": "address",
          "name": "_studentOwner",
          "type": "address"
        },
        {
          "internalType": "address",
          "name": "_businessOwner",
          "type": "address"
        },
        {
          "internalType": "string",
          "name": "_jobTitle",
          "type": "string"
        }
      ],
      "name": "checkCV",
      "outputs": [
        {
          "internalType": "uint256",
          "name": "x",
          "type": "uint256"
        }
      ],
      "stateMutability": "view",
      "type": "function",
      "constant": true
    },
    {
      "inputs": [
        {
          "internalType": "address",
          "name": "_studentOwner",
          "type": "address"
        },
        {
          "internalType": "address",
          "name": "_businessOwner",
          "type": "address"
        }
      ],
      "name": "getReview",
      "outputs": [
        {
          "internalType": "address",
          "name": "studentOwner",
          "type": "address"
        },
        {
          "internalType": "address",
          "name": "businessOwner",
          "type": "address"
        },
        {
          "internalType": "string",
          "name": "content",
          "type": "string"
        }
      ],
      "stateMutability": "view",
      "type": "function",
      "constant": true
    },
    {
      "inputs": [
        {
          "internalType": "address",
          "name": "_businessOwner",
          "type": "address"
        },
        {
          "internalType": "string",
          "name": "_name",
          "type": "string"
        },
        {
          "internalType": "string",
          "name": "_country",
          "type": "string"
        },
        {
          "internalType": "string",
          "name": "_facebook",
          "type": "string"
        },
        {
          "internalType": "string",
          "name": "_website",
          "type": "string"
        },
        {
          "internalType": "string",
          "name": "_linkedin",
          "type": "string"
        },
        {
          "internalType": "string",
          "name": "_focusArea",
          "type": "string"
        },
        {
          "internalType": "string",
          "name": "_password",
          "type": "string"
        }
      ],
      "name": "addBusinessProfile",
      "outputs": [],
      "stateMutability": "nonpayable",
      "type": "function"
    },
    {
      "inputs": [
        {
          "internalType": "address",
          "name": "_businessOwner",
          "type": "address"
        }
      ],
      "name": "getBusinessProfile",
      "outputs": [
        {
          "internalType": "address",
          "name": "businessOwner",
          "type": "address"
        },
        {
          "internalType": "string",
          "name": "name",
          "type": "string"
        },
        {
          "internalType": "string",
          "name": "country",
          "type": "string"
        },
        {
          "internalType": "string",
          "name": "facebook",
          "type": "string"
        },
        {
          "internalType": "string",
          "name": "website",
          "type": "string"
        },
        {
          "internalType": "string",
          "name": "linkedin",
          "type": "string"
        },
        {
          "internalType": "string",
          "name": "focusArea",
          "type": "string"
        }
      ],
      "stateMutability": "view",
      "type": "function",
      "constant": true
    },
    {
      "inputs": [
        {
          "internalType": "address",
          "name": "_businessOwner",
          "type": "address"
        },
        {
          "internalType": "string",
          "name": "_password",
          "type": "string"
        }
      ],
      "name": "checkBusinessProfile",
      "outputs": [
        {
          "internalType": "uint256",
          "name": "",
          "type": "uint256"
        }
      ],
      "stateMutability": "view",
      "type": "function",
      "constant": true
    },
    {
      "inputs": [
        {
          "internalType": "address",
          "name": "_businessOwner",
          "type": "address"
        }
      ],
      "name": "checkExistBusiness",
      "outputs": [
        {
          "internalType": "uint256",
          "name": "x",
          "type": "uint256"
        }
      ],
      "stateMutability": "view",
      "type": "function",
      "constant": true
    },
    {
      "inputs": [
        {
          "internalType": "address",
          "name": "_businessOwner",
          "type": "address"
        }
      ],
      "name": "getListCV",
      "outputs": [
        {
          "internalType": "address[]",
          "name": "",
          "type": "address[]"
        },
        {
          "internalType": "address[]",
          "name": "",
          "type": "address[]"
        },
        {
          "internalType": "string[]",
          "name": "",
          "type": "string[]"
        },
        {
          "internalType": "string[]",
          "name": "",
          "type": "string[]"
        },
        {
          "internalType": "string[]",
          "name": "",
          "type": "string[]"
        }
      ],
      "stateMutability": "view",
      "type": "function",
      "constant": true
    },
    {
      "inputs": [
        {
          "internalType": "address",
          "name": "_studentOwner",
          "type": "address"
        },
        {
          "internalType": "address",
          "name": "_businessOwner",
          "type": "address"
        },
        {
          "internalType": "string",
          "name": "_jobTitle",
          "type": "string"
        },
        {
          "internalType": "string",
          "name": "_statusCV",
          "type": "string"
        }
      ],
      "name": "interviewCV",
      "outputs": [],
      "stateMutability": "nonpayable",
      "type": "function"
    },
    {
      "inputs": [
        {
          "internalType": "address",
          "name": "_studentOwner",
          "type": "address"
        },
        {
          "internalType": "address",
          "name": "_businessOwner",
          "type": "address"
        },
        {
          "internalType": "string",
          "name": "_jobTitle",
          "type": "string"
        },
        {
          "internalType": "string",
          "name": "_statusCV",
          "type": "string"
        }
      ],
      "name": "onboardCV",
      "outputs": [],
      "stateMutability": "nonpayable",
      "type": "function"
    },
    {
      "inputs": [
        {
          "internalType": "address",
          "name": "_businessOwner",
          "type": "address"
        },
        {
          "internalType": "string",
          "name": "_jobTitle",
          "type": "string"
        },
        {
          "internalType": "string",
          "name": "_jobDescription",
          "type": "string"
        }
      ],
      "name": "addRecruit",
      "outputs": [],
      "stateMutability": "nonpayable",
      "type": "function"
    },
    {
      "inputs": [
        {
          "internalType": "address",
          "name": "_studentOwner",
          "type": "address"
        },
        {
          "internalType": "address",
          "name": "_businessOwner",
          "type": "address"
        },
        {
          "internalType": "string",
          "name": "_content",
          "type": "string"
        }
      ],
      "name": "sendReview",
      "outputs": [],
      "stateMutability": "nonpayable",
      "type": "function"
    }
  ],
  "bytecode": "0x608060405260405162000012906200015b565b604051809103906000f0801580156200002f573d6000803e3d6000fd5b506000806101000a81548173ffffffffffffffffffffffffffffffffffffffff021916908373ffffffffffffffffffffffffffffffffffffffff1602179055506040516200007d9062000169565b604051809103906000f0801580156200009a573d6000803e3d6000fd5b50600160006101000a81548173ffffffffffffffffffffffffffffffffffffffff021916908373ffffffffffffffffffffffffffffffffffffffff160217905550604051620000e99062000177565b604051809103906000f08015801562000106573d6000803e3d6000fd5b50600260006101000a81548173ffffffffffffffffffffffffffffffffffffffff021916908373ffffffffffffffffffffffffffffffffffffffff1602179055503480156200015457600080fd5b5062000185565b612c7a8062002d0083390190565b6122ac806200597a83390190565b6125e98062007c2683390190565b612b6b80620001956000396000f3fe608060405234801561001057600080fd5b50600436106101415760003560e01c80636d53448f116100b8578063ce1ec5bb1161007c578063ce1ec5bb146103ce578063cee5c7f3146103ff578063e2f43af21461041b578063e9daa70a14610437578063ed1386c414610469578063fe7617831461049957610141565b80636d53448f14610316578063844bb4601461033257806391b9e6db1461034e5780639cd325821461036a578063acf6f3fd1461039e57610141565b806339d92c4c1161010a57806339d92c4c1461020e57806342f08d4b1461023e578063435e716d1461027457806357824f16146102a45780635b288a93146102c95780636b4dbb28146102e557610141565b80624e56cf146101465780630299779f1461016257806311345a20146101925780631632dd98146101c257806335c77f85146101de575b600080fd5b610160600480360381019061015b919061150e565b6104d0565b005b61017c600480360381019061017791906115ad565b610568565b6040516101899190611635565b60405180910390f35b6101ac60048036038101906101a79190611650565b610613565b6040516101b99190611635565b60405180910390f35b6101dc60048036038101906101d791906115ad565b6106b7565b005b6101f860048036038101906101f3919061167d565b61074d565b6040516102059190611635565b60405180910390f35b61022860048036038101906102239190611650565b6107f5565b6040516102359190611635565b60405180910390f35b61025860048036038101906102539190611650565b61089a565b60405161026b9796959493929190611770565b60405180910390f35b61028e6004803603810190610289919061167d565b61095f565b60405161029b9190611635565b60405180910390f35b6102ac610a06565b6040516102c09897969594939291906119d3565b60405180910390f35b6102e360048036038101906102de9190611a89565b610ac2565b005b6102ff60048036038101906102fa9190611650565b610b65565b60405161030d929190611cc1565b60405180910390f35b610330600480360381019061032b9190611a89565b610c10565b005b61034c6004803603810190610347919061150e565b610cb5565b005b6103686004803603810190610363919061150e565b610d4e565b005b610384600480360381019061037f9190611650565b610de7565b604051610395959493929190611cf8565b60405180910390f35b6103b860048036038101906103b3919061167d565b610ea3565b6040516103c59190611635565b60405180910390f35b6103e860048036038101906103e39190611650565b610f4a565b6040516103f6929190611d6e565b60405180910390f35b61041960048036038101906104149190611da5565b610ff7565b005b61043560048036038101906104309190611e5c565b61108d565b005b610451600480360381019061044c9190611ecb565b611121565b60405161046093929190611f0b565b60405180910390f35b610483600480360381019061047e9190611650565b6111d6565b6040516104909190611635565b60405180910390f35b6104b360048036038101906104ae9190611650565b61128f565b6040516104c7989796959493929190611f49565b60405180910390f35b600260009054906101000a900473ffffffffffffffffffffffffffffffffffffffff1673ffffffffffffffffffffffffffffffffffffffff16624e56cf858585856040518563ffffffff1660e01b81526004016105309493929190611ff8565b600060405180830381600087803b15801561054a57600080fd5b505af115801561055e573d6000803e3d6000fd5b5050505050505050565b6000600260009054906101000a900473ffffffffffffffffffffffffffffffffffffffff1673ffffffffffffffffffffffffffffffffffffffff16630299779f8585856040518463ffffffff1660e01b81526004016105c993929190611f0b565b602060405180830381865afa1580156105e6573d6000803e3d6000fd5b505050506040513d601f19601f8201168201806040525081019061060a9190612060565b90509392505050565b60008060009054906101000a900473ffffffffffffffffffffffffffffffffffffffff1673ffffffffffffffffffffffffffffffffffffffff1663961ecb5b836040518263ffffffff1660e01b815260040161066f919061208d565b602060405180830381865afa15801561068c573d6000803e3d6000fd5b505050506040513d601f19601f820116820180604052508101906106b09190612060565b9050919050565b600260009054906101000a900473ffffffffffffffffffffffffffffffffffffffff1673ffffffffffffffffffffffffffffffffffffffff1663ae8f00d38484846040518463ffffffff1660e01b815260040161071693929190611f0b565b600060405180830381600087803b15801561073057600080fd5b505af1158015610744573d6000803e3d6000fd5b50505050505050565b6000600160009054906101000a900473ffffffffffffffffffffffffffffffffffffffff1673ffffffffffffffffffffffffffffffffffffffff1663a7dba18484846040518363ffffffff1660e01b81526004016107ac9291906120a8565b602060405180830381865afa1580156107c9573d6000803e3d6000fd5b505050506040513d601f19601f820116820180604052508101906107ed9190612060565b905092915050565b6000600160009054906101000a900473ffffffffffffffffffffffffffffffffffffffff1673ffffffffffffffffffffffffffffffffffffffff1663c6fe410a836040518263ffffffff1660e01b8152600401610852919061208d565b602060405180830381865afa15801561086f573d6000803e3d6000fd5b505050506040513d601f19601f820116820180604052508101906108939190612060565b9050919050565b6000606080606080606080600160009054906101000a900473ffffffffffffffffffffffffffffffffffffffff1673ffffffffffffffffffffffffffffffffffffffff16630f53a470896040518263ffffffff1660e01b8152600401610900919061208d565b600060405180830381865afa15801561091d573d6000803e3d6000fd5b505050506040513d6000823e3d601f19601f82011682018060405250810190610946919061215d565b9650965096509650965096509650919395979092949650565b60008060009054906101000a900473ffffffffffffffffffffffffffffffffffffffff1673ffffffffffffffffffffffffffffffffffffffff1663716b5ab484846040518363ffffffff1660e01b81526004016109bd9291906120a8565b602060405180830381865afa1580156109da573d6000803e3d6000fd5b505050506040513d601f19601f820116820180604052508101906109fe9190612060565b905092915050565b606080606080606080606080600160009054906101000a900473ffffffffffffffffffffffffffffffffffffffff1673ffffffffffffffffffffffffffffffffffffffff1663cfafbc0c6040518163ffffffff1660e01b8152600401600060405180830381865afa158015610a7f573d6000803e3d6000fd5b505050506040513d6000823e3d601f19601f82011682018060405250810190610aa89190612450565b975097509750975097509750975097509091929394959697565b60008054906101000a900473ffffffffffffffffffffffffffffffffffffffff1673ffffffffffffffffffffffffffffffffffffffff16639fea8e1089898989898989896040518963ffffffff1660e01b8152600401610b29989796959493929190611f49565b600060405180830381600087803b158015610b4357600080fd5b505af1158015610b57573d6000803e3d6000fd5b505050505050505050505050565b60608060008054906101000a900473ffffffffffffffffffffffffffffffffffffffff1673ffffffffffffffffffffffffffffffffffffffff1663ac4b2049846040518263ffffffff1660e01b8152600401610bc1919061208d565b600060405180830381865afa158015610bde573d6000803e3d6000fd5b505050506040513d6000823e3d601f19601f82011682018060405250810190610c0791906126a9565b91509150915091565b600160009054906101000a900473ffffffffffffffffffffffffffffffffffffffff1673ffffffffffffffffffffffffffffffffffffffff1663e045b71089898989898989896040518963ffffffff1660e01b8152600401610c79989796959493929190611f49565b600060405180830381600087803b158015610c9357600080fd5b505af1158015610ca7573d6000803e3d6000fd5b505050505050505050505050565b600260009054906101000a900473ffffffffffffffffffffffffffffffffffffffff1673ffffffffffffffffffffffffffffffffffffffff1663844bb460858585856040518563ffffffff1660e01b8152600401610d169493929190611ff8565b600060405180830381600087803b158015610d3057600080fd5b505af1158015610d44573d6000803e3d6000fd5b5050505050505050565b600260009054906101000a900473ffffffffffffffffffffffffffffffffffffffff1673ffffffffffffffffffffffffffffffffffffffff1663dc1e475f858585856040518563ffffffff1660e01b8152600401610daf9493929190611ff8565b600060405180830381600087803b158015610dc957600080fd5b505af1158015610ddd573d6000803e3d6000fd5b5050505050505050565b6060806060806060600260009054906101000a900473ffffffffffffffffffffffffffffffffffffffff1673ffffffffffffffffffffffffffffffffffffffff1663381a3bf7876040518263ffffffff1660e01b8152600401610e4a919061208d565b600060405180830381865afa158015610e67573d6000803e3d6000fd5b505050506040513d6000823e3d601f19601f82011682018060405250810190610e909190612721565b9450945094509450945091939590929450565b60008060009054906101000a900473ffffffffffffffffffffffffffffffffffffffff1673ffffffffffffffffffffffffffffffffffffffff1663174ceeab84846040518363ffffffff1660e01b8152600401610f019291906120a8565b602060405180830381865afa158015610f1e573d6000803e3d6000fd5b505050506040513d601f19601f82011682018060405250810190610f429190612060565b905092915050565b606080600260009054906101000a900473ffffffffffffffffffffffffffffffffffffffff1673ffffffffffffffffffffffffffffffffffffffff1663ce1ec5bb846040518263ffffffff1660e01b8152600401610fa8919061208d565b600060405180830381865afa158015610fc5573d6000803e3d6000fd5b505050506040513d6000823e3d601f19601f82011682018060405250810190610fee9190612828565b91509150915091565b600260009054906101000a900473ffffffffffffffffffffffffffffffffffffffff1673ffffffffffffffffffffffffffffffffffffffff1663cee5c7f38484846040518463ffffffff1660e01b8152600401611056939291906128a0565b600060405180830381600087803b15801561107057600080fd5b505af1158015611084573d6000803e3d6000fd5b50505050505050565b60008054906101000a900473ffffffffffffffffffffffffffffffffffffffff1673ffffffffffffffffffffffffffffffffffffffff166360ccb2048484846040518463ffffffff1660e01b81526004016110ea939291906128e5565b600060405180830381600087803b15801561110457600080fd5b505af1158015611118573d6000803e3d6000fd5b50505050505050565b6000806060600260009054906101000a900473ffffffffffffffffffffffffffffffffffffffff1673ffffffffffffffffffffffffffffffffffffffff1663e9daa70a86866040518363ffffffff1660e01b8152600401611183929190612923565b600060405180830381865afa1580156111a0573d6000803e3d6000fd5b505050506040513d6000823e3d601f19601f820116820180604052508101906111c9919061294c565b9250925092509250925092565b60008060008054906101000a900473ffffffffffffffffffffffffffffffffffffffff1673ffffffffffffffffffffffffffffffffffffffff16638e891393846040518263ffffffff1660e01b8152600401611232919061208d565b602060405180830381865afa15801561124f573d6000803e3d6000fd5b505050506040513d601f19601f820116820180604052508101906112739190612060565b9050600a81111561128857600191505061128a565b505b919050565b6000606080606080606080606060008054906101000a900473ffffffffffffffffffffffffffffffffffffffff1673ffffffffffffffffffffffffffffffffffffffff16630f53a4708a6040518263ffffffff1660e01b81526004016112f5919061208d565b600060405180830381865afa158015611312573d6000803e3d6000fd5b505050506040513d6000823e3d601f19601f8201168201806040525081019061133b91906129bb565b97509750975097509750975097509750919395975091939597565b6000604051905090565b600080fd5b600080fd5b600073ffffffffffffffffffffffffffffffffffffffff82169050919050565b60006113958261136a565b9050919050565b6113a58161138a565b81146113b057600080fd5b50565b6000813590506113c28161139c565b92915050565b600080fd5b600080fd5b6000601f19601f8301169050919050565b7f4e487b7100000000000000000000000000000000000000000000000000000000600052604160045260246000fd5b61141b826113d2565b810181811067ffffffffffffffff8211171561143a576114396113e3565b5b80604052505050565b600061144d611356565b90506114598282611412565b919050565b600067ffffffffffffffff821115611479576114786113e3565b5b611482826113d2565b9050602081019050919050565b82818337600083830152505050565b60006114b16114ac8461145e565b611443565b9050828152602081018484840111156114cd576114cc6113cd565b5b6114d884828561148f565b509392505050565b600082601f8301126114f5576114f46113c8565b5b813561150584826020860161149e565b91505092915050565b6000806000806080858703121561152857611527611360565b5b6000611536878288016113b3565b9450506020611547878288016113b3565b935050604085013567ffffffffffffffff81111561156857611567611365565b5b611574878288016114e0565b925050606085013567ffffffffffffffff81111561159557611594611365565b5b6115a1878288016114e0565b91505092959194509250565b6000806000606084860312156115c6576115c5611360565b5b60006115d4868287016113b3565b93505060206115e5868287016113b3565b925050604084013567ffffffffffffffff81111561160657611605611365565b5b611612868287016114e0565b9150509250925092565b6000819050919050565b61162f8161161c565b82525050565b600060208201905061164a6000830184611626565b92915050565b60006020828403121561166657611665611360565b5b6000611674848285016113b3565b91505092915050565b6000806040838503121561169457611693611360565b5b60006116a2858286016113b3565b925050602083013567ffffffffffffffff8111156116c3576116c2611365565b5b6116cf858286016114e0565b9150509250929050565b6116e28161138a565b82525050565b600081519050919050565b600082825260208201905092915050565b60005b83811015611722578082015181840152602081019050611707565b83811115611731576000848401525b50505050565b6000611742826116e8565b61174c81856116f3565b935061175c818560208601611704565b611765816113d2565b840191505092915050565b600060e082019050611785600083018a6116d9565b81810360208301526117978189611737565b905081810360408301526117ab8188611737565b905081810360608301526117bf8187611737565b905081810360808301526117d38186611737565b905081810360a08301526117e78185611737565b905081810360c08301526117fb8184611737565b905098975050505050505050565b600081519050919050565b600082825260208201905092915050565b6000819050602082019050919050565b61183e8161138a565b82525050565b60006118508383611835565b60208301905092915050565b6000602082019050919050565b600061187482611809565b61187e8185611814565b935061188983611825565b8060005b838110156118ba5781516118a18882611844565b97506118ac8361185c565b92505060018101905061188d565b5085935050505092915050565b600081519050919050565b600082825260208201905092915050565b6000819050602082019050919050565b600082825260208201905092915050565b600061190f826116e8565b61191981856118f3565b9350611929818560208601611704565b611932816113d2565b840191505092915050565b60006119498383611904565b905092915050565b6000602082019050919050565b6000611969826118c7565b61197381856118d2565b935083602082028501611985856118e3565b8060005b858110156119c157848403895281516119a2858261193d565b94506119ad83611951565b925060208a01995050600181019050611989565b50829750879550505050505092915050565b60006101008201905081810360008301526119ee818b611869565b90508181036020830152611a02818a61195e565b90508181036040830152611a16818961195e565b90508181036060830152611a2a818861195e565b90508181036080830152611a3e818761195e565b905081810360a0830152611a52818661195e565b905081810360c0830152611a66818561195e565b905081810360e0830152611a7a818461195e565b90509998505050505050505050565b600080600080600080600080610100898b031215611aaa57611aa9611360565b5b6000611ab88b828c016113b3565b985050602089013567ffffffffffffffff811115611ad957611ad8611365565b5b611ae58b828c016114e0565b975050604089013567ffffffffffffffff811115611b0657611b05611365565b5b611b128b828c016114e0565b965050606089013567ffffffffffffffff811115611b3357611b32611365565b5b611b3f8b828c016114e0565b955050608089013567ffffffffffffffff811115611b6057611b5f611365565b5b611b6c8b828c016114e0565b94505060a089013567ffffffffffffffff811115611b8d57611b8c611365565b5b611b998b828c016114e0565b93505060c089013567ffffffffffffffff811115611bba57611bb9611365565b5b611bc68b828c016114e0565b92505060e089013567ffffffffffffffff811115611be757611be6611365565b5b611bf38b828c016114e0565b9150509295985092959890939650565b600081519050919050565b600082825260208201905092915050565b6000819050602082019050919050565b611c388161161c565b82525050565b6000611c4a8383611c2f565b60208301905092915050565b6000602082019050919050565b6000611c6e82611c03565b611c788185611c0e565b9350611c8383611c1f565b8060005b83811015611cb4578151611c9b8882611c3e565b9750611ca683611c56565b925050600181019050611c87565b5085935050505092915050565b60006040820190508181036000830152611cdb818561195e565b90508181036020830152611cef8184611c63565b90509392505050565b600060a0820190508181036000830152611d128188611869565b90508181036020830152611d268187611869565b90508181036040830152611d3a818661195e565b90508181036060830152611d4e818561195e565b90508181036080830152611d62818461195e565b90509695505050505050565b60006040820190508181036000830152611d88818561195e565b90508181036020830152611d9c818461195e565b90509392505050565b600080600060608486031215611dbe57611dbd611360565b5b6000611dcc868287016113b3565b935050602084013567ffffffffffffffff811115611ded57611dec611365565b5b611df9868287016114e0565b925050604084013567ffffffffffffffff811115611e1a57611e19611365565b5b611e26868287016114e0565b9150509250925092565b611e398161161c565b8114611e4457600080fd5b50565b600081359050611e5681611e30565b92915050565b600080600060608486031215611e7557611e74611360565b5b6000611e83868287016113b3565b935050602084013567ffffffffffffffff811115611ea457611ea3611365565b5b611eb0868287016114e0565b9250506040611ec186828701611e47565b9150509250925092565b60008060408385031215611ee257611ee1611360565b5b6000611ef0858286016113b3565b9250506020611f01858286016113b3565b9150509250929050565b6000606082019050611f2060008301866116d9565b611f2d60208301856116d9565b8181036040830152611f3f8184611737565b9050949350505050565b600061010082019050611f5f600083018b6116d9565b8181036020830152611f71818a611737565b90508181036040830152611f858189611737565b90508181036060830152611f998188611737565b90508181036080830152611fad8187611737565b905081810360a0830152611fc18186611737565b905081810360c0830152611fd58185611737565b905081810360e0830152611fe98184611737565b90509998505050505050505050565b600060808201905061200d60008301876116d9565b61201a60208301866116d9565b818103604083015261202c8185611737565b905081810360608301526120408184611737565b905095945050505050565b60008151905061205a81611e30565b92915050565b60006020828403121561207657612075611360565b5b60006120848482850161204b565b91505092915050565b60006020820190506120a260008301846116d9565b92915050565b60006040820190506120bd60008301856116d9565b81810360208301526120cf8184611737565b90509392505050565b6000815190506120e78161139c565b92915050565b60006121006120fb8461145e565b611443565b90508281526020810184848401111561211c5761211b6113cd565b5b612127848285611704565b509392505050565b600082601f830112612144576121436113c8565b5b81516121548482602086016120ed565b91505092915050565b600080600080600080600060e0888a03121561217c5761217b611360565b5b600061218a8a828b016120d8565b975050602088015167ffffffffffffffff8111156121ab576121aa611365565b5b6121b78a828b0161212f565b965050604088015167ffffffffffffffff8111156121d8576121d7611365565b5b6121e48a828b0161212f565b955050606088015167ffffffffffffffff81111561220557612204611365565b5b6122118a828b0161212f565b945050608088015167ffffffffffffffff81111561223257612231611365565b5b61223e8a828b0161212f565b93505060a088015167ffffffffffffffff81111561225f5761225e611365565b5b61226b8a828b0161212f565b92505060c088015167ffffffffffffffff81111561228c5761228b611365565b5b6122988a828b0161212f565b91505092959891949750929550565b600067ffffffffffffffff8211156122c2576122c16113e3565b5b602082029050602081019050919050565b600080fd5b60006122eb6122e6846122a7565b611443565b9050808382526020820190506020840283018581111561230e5761230d6122d3565b5b835b81811015612337578061232388826120d8565b845260208401935050602081019050612310565b5050509392505050565b600082601f830112612356576123556113c8565b5b81516123668482602086016122d8565b91505092915050565b600067ffffffffffffffff82111561238a576123896113e3565b5b602082029050602081019050919050565b60006123ae6123a98461236f565b611443565b905080838252602082019050602084028301858111156123d1576123d06122d3565b5b835b8181101561241857805167ffffffffffffffff8111156123f6576123f56113c8565b5b808601612403898261212f565b855260208501945050506020810190506123d3565b5050509392505050565b600082601f830112612437576124366113c8565b5b815161244784826020860161239b565b91505092915050565b600080600080600080600080610100898b03121561247157612470611360565b5b600089015167ffffffffffffffff81111561248f5761248e611365565b5b61249b8b828c01612341565b985050602089015167ffffffffffffffff8111156124bc576124bb611365565b5b6124c88b828c01612422565b975050604089015167ffffffffffffffff8111156124e9576124e8611365565b5b6124f58b828c01612422565b965050606089015167ffffffffffffffff81111561251657612515611365565b5b6125228b828c01612422565b955050608089015167ffffffffffffffff81111561254357612542611365565b5b61254f8b828c01612422565b94505060a089015167ffffffffffffffff8111156125705761256f611365565b5b61257c8b828c01612422565b93505060c089015167ffffffffffffffff81111561259d5761259c611365565b5b6125a98b828c01612422565b92505060e089015167ffffffffffffffff8111156125ca576125c9611365565b5b6125d68b828c01612422565b9150509295985092959890939650565b600067ffffffffffffffff821115612601576126006113e3565b5b602082029050602081019050919050565b6000612625612620846125e6565b611443565b90508083825260208201905060208402830185811115612648576126476122d3565b5b835b81811015612671578061265d888261204b565b84526020840193505060208101905061264a565b5050509392505050565b600082601f8301126126905761268f6113c8565b5b81516126a0848260208601612612565b91505092915050565b600080604083850312156126c0576126bf611360565b5b600083015167ffffffffffffffff8111156126de576126dd611365565b5b6126ea85828601612422565b925050602083015167ffffffffffffffff81111561270b5761270a611365565b5b6127178582860161267b565b9150509250929050565b600080600080600060a0868803121561273d5761273c611360565b5b600086015167ffffffffffffffff81111561275b5761275a611365565b5b61276788828901612341565b955050602086015167ffffffffffffffff81111561278857612787611365565b5b61279488828901612341565b945050604086015167ffffffffffffffff8111156127b5576127b4611365565b5b6127c188828901612422565b935050606086015167ffffffffffffffff8111156127e2576127e1611365565b5b6127ee88828901612422565b925050608086015167ffffffffffffffff81111561280f5761280e611365565b5b61281b88828901612422565b9150509295509295909350565b6000806040838503121561283f5761283e611360565b5b600083015167ffffffffffffffff81111561285d5761285c611365565b5b61286985828601612422565b925050602083015167ffffffffffffffff81111561288a57612889611365565b5b61289685828601612422565b9150509250929050565b60006060820190506128b560008301866116d9565b81810360208301526128c78185611737565b905081810360408301526128db8184611737565b9050949350505050565b60006060820190506128fa60008301866116d9565b818103602083015261290c8185611737565b905061291b6040830184611626565b949350505050565b600060408201905061293860008301856116d9565b61294560208301846116d9565b9392505050565b60008060006060848603121561296557612964611360565b5b6000612973868287016120d8565b9350506020612984868287016120d8565b925050604084015167ffffffffffffffff8111156129a5576129a4611365565b5b6129b18682870161212f565b9150509250925092565b600080600080600080600080610100898b0312156129dc576129db611360565b5b60006129ea8b828c016120d8565b985050602089015167ffffffffffffffff811115612a0b57612a0a611365565b5b612a178b828c0161212f565b975050604089015167ffffffffffffffff811115612a3857612a37611365565b5b612a448b828c0161212f565b965050606089015167ffffffffffffffff811115612a6557612a64611365565b5b612a718b828c0161212f565b955050608089015167ffffffffffffffff811115612a9257612a91611365565b5b612a9e8b828c0161212f565b94505060a089015167ffffffffffffffff811115612abf57612abe611365565b5b612acb8b828c0161212f565b93505060c089015167ffffffffffffffff811115612aec57612aeb611365565b5b612af88b828c0161212f565b92505060e089015167ffffffffffffffff811115612b1957612b18611365565b5b612b258b828c0161212f565b915050929598509295989093965056fea26469706673582212206ad754c2cb1fa5f3cb3c913cf86d566df377f30935b67d3c1f9563b9e155028e64736f6c634300080b0033608060405234801561001057600080fd5b50612c5a806100206000396000f3fe608060405234801561001057600080fd5b50600436106100a95760003560e01c8063716b5ab411610071578063716b5ab41461019a5780638e891393146101ca578063961ecb5b146101fa5780639fea8e101461022a578063ac4b204914610246578063d64b691314610277576100a9565b80630f53a470146100ae578063174ceeab146100e55780633aff2cc51461011557806360ccb204146101475780636704710714610163575b600080fd5b6100c860048036038101906100c39190612066565b61029c565b6040516100dc98979695949392919061213b565b60405180910390f35b6100ff60048036038101906100fa919061231f565b610885565b60405161010c9190612394565b60405180910390f35b61012f600480360381019061012a91906123db565b610983565b60405161013e93929190612408565b60405180910390f35b610161600480360381019061015c9190612446565b610a65565b005b61017d600480360381019061017891906123db565b610b87565b60405161019198979695949392919061213b565b60405180910390f35b6101b460048036038101906101af919061231f565b610fb7565b6040516101c19190612394565b60405180910390f35b6101e460048036038101906101df9190612066565b6110b5565b6040516101f19190612394565b60405180910390f35b610214600480360381019061020f9190612066565b611172565b6040516102219190612394565b60405180910390f35b610244600480360381019061023f91906124b5565b611224565b005b610260600480360381019061025b9190612066565b6113bd565b60405161026e9291906127f9565b60405180910390f35b61027f611625565b6040516102939897969594939291906128ee565b60405180910390f35b6000606080606080606080606060005b600080549050811015610878578973ffffffffffffffffffffffffffffffffffffffff16600082815481106102e4576102e36129a4565b5b906000526020600020906008020160000160009054906101000a900473ffffffffffffffffffffffffffffffffffffffff1673ffffffffffffffffffffffffffffffffffffffff1614156108655760008181548110610346576103456129a4565b5b906000526020600020906008020160000160009054906101000a900473ffffffffffffffffffffffffffffffffffffffff166000828154811061038c5761038b6129a4565b5b9060005260206000209060080201600101600083815481106103b1576103b06129a4565b5b9060005260206000209060080201600201600084815481106103d6576103d56129a4565b5b9060005260206000209060080201600301600085815481106103fb576103fa6129a4565b5b9060005260206000209060080201600401600086815481106104205761041f6129a4565b5b906000526020600020906008020160050160008781548110610445576104446129a4565b5b90600052602060002090600802016006016000888154811061046a576104696129a4565b5b906000526020600020906008020160070186805461048790612a02565b80601f01602080910402602001604051908101604052809291908181526020018280546104b390612a02565b80156105005780601f106104d557610100808354040283529160200191610500565b820191906000526020600020905b8154815290600101906020018083116104e357829003601f168201915b5050505050965085805461051390612a02565b80601f016020809104026020016040519081016040528092919081815260200182805461053f90612a02565b801561058c5780601f106105615761010080835404028352916020019161058c565b820191906000526020600020905b81548152906001019060200180831161056f57829003601f168201915b5050505050955084805461059f90612a02565b80601f01602080910402602001604051908101604052809291908181526020018280546105cb90612a02565b80156106185780601f106105ed57610100808354040283529160200191610618565b820191906000526020600020905b8154815290600101906020018083116105fb57829003601f168201915b5050505050945083805461062b90612a02565b80601f016020809104026020016040519081016040528092919081815260200182805461065790612a02565b80156106a45780601f10610679576101008083540402835291602001916106a4565b820191906000526020600020905b81548152906001019060200180831161068757829003601f168201915b505050505093508280546106b790612a02565b80601f01602080910402602001604051908101604052809291908181526020018280546106e390612a02565b80156107305780601f1061070557610100808354040283529160200191610730565b820191906000526020600020905b81548152906001019060200180831161071357829003601f168201915b5050505050925081805461074390612a02565b80601f016020809104026020016040519081016040528092919081815260200182805461076f90612a02565b80156107bc5780601f10610791576101008083540402835291602001916107bc565b820191906000526020600020905b81548152906001019060200180831161079f57829003601f168201915b505050505091508080546107cf90612a02565b80601f01602080910402602001604051908101604052809291908181526020018280546107fb90612a02565b80156108485780601f1061081d57610100808354040283529160200191610848565b820191906000526020600020905b81548152906001019060200180831161082b57829003601f168201915b50505050509050985098509850985098509850985098505061087a565b808061087090612a63565b9150506102ac565b505b919395975091939597565b600080600090505b60008054905081101561097b578373ffffffffffffffffffffffffffffffffffffffff16600082815481106108c5576108c46129a4565b5b906000526020600020906008020160000160009054906101000a900473ffffffffffffffffffffffffffffffffffffffff1673ffffffffffffffffffffffffffffffffffffffff161480156109595750828051906020012060008281548110610931576109306129a4565b5b906000526020600020906008020160070160405161094f9190612b4b565b6040518091039020145b1561096857600191505061097d565b808061097390612a63565b91505061088d565b505b92915050565b6001818154811061099357600080fd5b90600052602060002090600302016000915090508060000160009054906101000a900473ffffffffffffffffffffffffffffffffffffffff16908060010180546109dc90612a02565b80601f0160208091040260200160405190810160405280929190818152602001828054610a0890612a02565b8015610a555780601f10610a2a57610100808354040283529160200191610a55565b820191906000526020600020905b815481529060010190602001808311610a3857829003601f168201915b5050505050908060020154905083565b60008110158015610a77575060648111155b610ab6576040517f08c379a0000000000000000000000000000000000000000000000000000000008152600401610aad90612bae565b60405180910390fd5b600160405180606001604052808573ffffffffffffffffffffffffffffffffffffffff16815260200184815260200183815250908060018154018082558091505060019003906000526020600020906003020160009091909190915060008201518160000160006101000a81548173ffffffffffffffffffffffffffffffffffffffff021916908373ffffffffffffffffffffffffffffffffffffffff1602179055506020820151816001019080519060200190610b75929190611f51565b50604082015181600201555050505050565b60008181548110610b9757600080fd5b90600052602060002090600802016000915090508060000160009054906101000a900473ffffffffffffffffffffffffffffffffffffffff1690806001018054610be090612a02565b80601f0160208091040260200160405190810160405280929190818152602001828054610c0c90612a02565b8015610c595780601f10610c2e57610100808354040283529160200191610c59565b820191906000526020600020905b815481529060010190602001808311610c3c57829003601f168201915b505050505090806002018054610c6e90612a02565b80601f0160208091040260200160405190810160405280929190818152602001828054610c9a90612a02565b8015610ce75780601f10610cbc57610100808354040283529160200191610ce7565b820191906000526020600020905b815481529060010190602001808311610cca57829003601f168201915b505050505090806003018054610cfc90612a02565b80601f0160208091040260200160405190810160405280929190818152602001828054610d2890612a02565b8015610d755780601f10610d4a57610100808354040283529160200191610d75565b820191906000526020600020905b815481529060010190602001808311610d5857829003601f168201915b505050505090806004018054610d8a90612a02565b80601f0160208091040260200160405190810160405280929190818152602001828054610db690612a02565b8015610e035780601f10610dd857610100808354040283529160200191610e03565b820191906000526020600020905b815481529060010190602001808311610de657829003601f168201915b505050505090806005018054610e1890612a02565b80601f0160208091040260200160405190810160405280929190818152602001828054610e4490612a02565b8015610e915780601f10610e6657610100808354040283529160200191610e91565b820191906000526020600020905b815481529060010190602001808311610e7457829003601f168201915b505050505090806006018054610ea690612a02565b80601f0160208091040260200160405190810160405280929190818152602001828054610ed290612a02565b8015610f1f5780601f10610ef457610100808354040283529160200191610f1f565b820191906000526020600020905b815481529060010190602001808311610f0257829003601f168201915b505050505090806007018054610f3490612a02565b80601f0160208091040260200160405190810160405280929190818152602001828054610f6090612a02565b8015610fad5780601f10610f8257610100808354040283529160200191610fad565b820191906000526020600020905b815481529060010190602001808311610f9057829003601f168201915b5050505050905088565b600080600090505b6001805490508110156110ad578373ffffffffffffffffffffffffffffffffffffffff1660018281548110610ff757610ff66129a4565b5b906000526020600020906003020160000160009054906101000a900473ffffffffffffffffffffffffffffffffffffffff1673ffffffffffffffffffffffffffffffffffffffff1614801561108b5750828051906020012060018281548110611063576110626129a4565b5b90600052602060002090600302016001016040516110819190612b4b565b6040518091039020145b1561109a5760019150506110af565b80806110a590612a63565b915050610fbf565b505b92915050565b6000806000905060005b600180549050811015611168578373ffffffffffffffffffffffffffffffffffffffff16600182815481106110f7576110f66129a4565b5b906000526020600020906003020160000160009054906101000a900473ffffffffffffffffffffffffffffffffffffffff1673ffffffffffffffffffffffffffffffffffffffff161415611155576001826111529190612bce565b91505b808061116090612a63565b9150506110bf565b5080915050919050565b600080600090505b60008054905081101561121d578273ffffffffffffffffffffffffffffffffffffffff16600082815481106111b2576111b16129a4565b5b906000526020600020906008020160000160009054906101000a900473ffffffffffffffffffffffffffffffffffffffff1673ffffffffffffffffffffffffffffffffffffffff16141561120a57600191505061121f565b808061121590612a63565b91505061117a565b505b919050565b60006040518061010001604052808a73ffffffffffffffffffffffffffffffffffffffff16815260200189815260200188815260200187815260200186815260200185815260200184815260200183815250908060018154018082558091505060019003906000526020600020906008020160009091909190915060008201518160000160006101000a81548173ffffffffffffffffffffffffffffffffffffffff021916908373ffffffffffffffffffffffffffffffffffffffff1602179055506020820151816001019080519060200190611302929190611f51565b50604082015181600201908051906020019061131f929190611f51565b50606082015181600301908051906020019061133c929190611f51565b506080820151816004019080519060200190611359929190611f51565b5060a0820151816005019080519060200190611376929190611f51565b5060c0820151816006019080519060200190611393929190611f51565b5060e08201518160070190805190602001906113b0929190611f51565b5050505050505050505050565b606080600060018054905067ffffffffffffffff8111156113e1576113e06121f4565b5b60405190808252806020026020018201604052801561141457816020015b60608152602001906001900390816113ff5790505b509050600060018054905067ffffffffffffffff811115611438576114376121f4565b5b6040519080825280602002602001820160405280156114665781602001602082028036833780820191505090505b50905060005b600180549050811015611617578573ffffffffffffffffffffffffffffffffffffffff16600182815481106114a4576114a36129a4565b5b906000526020600020906003020160000160009054906101000a900473ffffffffffffffffffffffffffffffffffffffff1673ffffffffffffffffffffffffffffffffffffffff1614156116045760018181548110611506576115056129a4565b5b9060005260206000209060030201600101805461152290612a02565b80601f016020809104026020016040519081016040528092919081815260200182805461154e90612a02565b801561159b5780601f106115705761010080835404028352916020019161159b565b820191906000526020600020905b81548152906001019060200180831161157e57829003601f168201915b50505050508382815181106115b3576115b26129a4565b5b6020026020010181905250600181815481106115d2576115d16129a4565b5b9060005260206000209060030201600201548282815181106115f7576115f66129a4565b5b6020026020010181815250505b808061160f90612a63565b91505061146c565b508181935093505050915091565b6060806060806060806060806000808054905067ffffffffffffffff811115611651576116506121f4565b5b60405190808252806020026020018201604052801561167f5781602001602082028036833780820191505090505b5090506000808054905067ffffffffffffffff8111156116a2576116a16121f4565b5b6040519080825280602002602001820160405280156116d557816020015b60608152602001906001900390816116c05790505b5090506000808054905067ffffffffffffffff8111156116f8576116f76121f4565b5b60405190808252806020026020018201604052801561172b57816020015b60608152602001906001900390816117165790505b5090506000808054905067ffffffffffffffff81111561174e5761174d6121f4565b5b60405190808252806020026020018201604052801561178157816020015b606081526020019060019003908161176c5790505b5090506000808054905067ffffffffffffffff8111156117a4576117a36121f4565b5b6040519080825280602002602001820160405280156117d757816020015b60608152602001906001900390816117c25790505b5090506000808054905067ffffffffffffffff8111156117fa576117f96121f4565b5b60405190808252806020026020018201604052801561182d57816020015b60608152602001906001900390816118185790505b5090506000808054905067ffffffffffffffff8111156118505761184f6121f4565b5b60405190808252806020026020018201604052801561188357816020015b606081526020019060019003908161186e5790505b5090506000808054905067ffffffffffffffff8111156118a6576118a56121f4565b5b6040519080825280602002602001820160405280156118d957816020015b60608152602001906001900390816118c45790505b50905060005b600080549050811015611f265760008181548110611900576118ff6129a4565b5b906000526020600020906008020160000160009054906101000a900473ffffffffffffffffffffffffffffffffffffffff16898281518110611945576119446129a4565b5b602002602001019073ffffffffffffffffffffffffffffffffffffffff16908173ffffffffffffffffffffffffffffffffffffffff168152505060008181548110611993576119926129a4565b5b906000526020600020906008020160010180546119af90612a02565b80601f01602080910402602001604051908101604052809291908181526020018280546119db90612a02565b8015611a285780601f106119fd57610100808354040283529160200191611a28565b820191906000526020600020905b815481529060010190602001808311611a0b57829003601f168201915b5050505050888281518110611a4057611a3f6129a4565b5b602002602001018190525060008181548110611a5f57611a5e6129a4565b5b90600052602060002090600802016002018054611a7b90612a02565b80601f0160208091040260200160405190810160405280929190818152602001828054611aa790612a02565b8015611af45780601f10611ac957610100808354040283529160200191611af4565b820191906000526020600020905b815481529060010190602001808311611ad757829003601f168201915b5050505050878281518110611b0c57611b0b6129a4565b5b602002602001018190525060008181548110611b2b57611b2a6129a4565b5b90600052602060002090600802016003018054611b4790612a02565b80601f0160208091040260200160405190810160405280929190818152602001828054611b7390612a02565b8015611bc05780601f10611b9557610100808354040283529160200191611bc0565b820191906000526020600020905b815481529060010190602001808311611ba357829003601f168201915b5050505050868281518110611bd857611bd76129a4565b5b602002602001018190525060008181548110611bf757611bf66129a4565b5b90600052602060002090600802016004018054611c1390612a02565b80601f0160208091040260200160405190810160405280929190818152602001828054611c3f90612a02565b8015611c8c5780601f10611c6157610100808354040283529160200191611c8c565b820191906000526020600020905b815481529060010190602001808311611c6f57829003601f168201915b5050505050858281518110611ca457611ca36129a4565b5b602002602001018190525060008181548110611cc357611cc26129a4565b5b90600052602060002090600802016005018054611cdf90612a02565b80601f0160208091040260200160405190810160405280929190818152602001828054611d0b90612a02565b8015611d585780601f10611d2d57610100808354040283529160200191611d58565b820191906000526020600020905b815481529060010190602001808311611d3b57829003601f168201915b5050505050848281518110611d7057611d6f6129a4565b5b602002602001018190525060008181548110611d8f57611d8e6129a4565b5b90600052602060002090600802016006018054611dab90612a02565b80601f0160208091040260200160405190810160405280929190818152602001828054611dd790612a02565b8015611e245780601f10611df957610100808354040283529160200191611e24565b820191906000526020600020905b815481529060010190602001808311611e0757829003601f168201915b5050505050838281518110611e3c57611e3b6129a4565b5b602002602001018190525060008181548110611e5b57611e5a6129a4565b5b90600052602060002090600802016007018054611e7790612a02565b80601f0160208091040260200160405190810160405280929190818152602001828054611ea390612a02565b8015611ef05780601f10611ec557610100808354040283529160200191611ef0565b820191906000526020600020905b815481529060010190602001808311611ed357829003601f168201915b5050505050828281518110611f0857611f076129a4565b5b60200260200101819052508080611f1e90612a63565b9150506118df565b5087878787878787879f509f509f509f509f509f509f509f5050505050505050509091929394959697565b828054611f5d90612a02565b90600052602060002090601f016020900481019282611f7f5760008555611fc6565b82601f10611f9857805160ff1916838001178555611fc6565b82800160010185558215611fc6579182015b82811115611fc5578251825591602001919060010190611faa565b5b509050611fd39190611fd7565b5090565b5b80821115611ff0576000816000905550600101611fd8565b5090565b6000604051905090565b600080fd5b600080fd5b600073ffffffffffffffffffffffffffffffffffffffff82169050919050565b600061203382612008565b9050919050565b61204381612028565b811461204e57600080fd5b50565b6000813590506120608161203a565b92915050565b60006020828403121561207c5761207b611ffe565b5b600061208a84828501612051565b91505092915050565b61209c81612028565b82525050565b600081519050919050565b600082825260208201905092915050565b60005b838110156120dc5780820151818401526020810190506120c1565b838111156120eb576000848401525b50505050565b6000601f19601f8301169050919050565b600061210d826120a2565b61211781856120ad565b93506121278185602086016120be565b612130816120f1565b840191505092915050565b600061010082019050612151600083018b612093565b8181036020830152612163818a612102565b905081810360408301526121778189612102565b9050818103606083015261218b8188612102565b9050818103608083015261219f8187612102565b905081810360a08301526121b38186612102565b905081810360c08301526121c78185612102565b905081810360e08301526121db8184612102565b90509998505050505050505050565b600080fd5b600080fd5b7f4e487b7100000000000000000000000000000000000000000000000000000000600052604160045260246000fd5b61222c826120f1565b810181811067ffffffffffffffff8211171561224b5761224a6121f4565b5b80604052505050565b600061225e611ff4565b905061226a8282612223565b919050565b600067ffffffffffffffff82111561228a576122896121f4565b5b612293826120f1565b9050602081019050919050565b82818337600083830152505050565b60006122c26122bd8461226f565b612254565b9050828152602081018484840111156122de576122dd6121ef565b5b6122e98482856122a0565b509392505050565b600082601f830112612306576123056121ea565b5b81356123168482602086016122af565b91505092915050565b6000806040838503121561233657612335611ffe565b5b600061234485828601612051565b925050602083013567ffffffffffffffff81111561236557612364612003565b5b612371858286016122f1565b9150509250929050565b6000819050919050565b61238e8161237b565b82525050565b60006020820190506123a96000830184612385565b92915050565b6123b88161237b565b81146123c357600080fd5b50565b6000813590506123d5816123af565b92915050565b6000602082840312156123f1576123f0611ffe565b5b60006123ff848285016123c6565b91505092915050565b600060608201905061241d6000830186612093565b818103602083015261242f8185612102565b905061243e6040830184612385565b949350505050565b60008060006060848603121561245f5761245e611ffe565b5b600061246d86828701612051565b935050602084013567ffffffffffffffff81111561248e5761248d612003565b5b61249a868287016122f1565b92505060406124ab868287016123c6565b9150509250925092565b600080600080600080600080610100898b0312156124d6576124d5611ffe565b5b60006124e48b828c01612051565b985050602089013567ffffffffffffffff81111561250557612504612003565b5b6125118b828c016122f1565b975050604089013567ffffffffffffffff81111561253257612531612003565b5b61253e8b828c016122f1565b965050606089013567ffffffffffffffff81111561255f5761255e612003565b5b61256b8b828c016122f1565b955050608089013567ffffffffffffffff81111561258c5761258b612003565b5b6125988b828c016122f1565b94505060a089013567ffffffffffffffff8111156125b9576125b8612003565b5b6125c58b828c016122f1565b93505060c089013567ffffffffffffffff8111156125e6576125e5612003565b5b6125f28b828c016122f1565b92505060e089013567ffffffffffffffff81111561261357612612612003565b5b61261f8b828c016122f1565b9150509295985092959890939650565b600081519050919050565b600082825260208201905092915050565b6000819050602082019050919050565b600082825260208201905092915050565b6000612677826120a2565b612681818561265b565b93506126918185602086016120be565b61269a816120f1565b840191505092915050565b60006126b1838361266c565b905092915050565b6000602082019050919050565b60006126d18261262f565b6126db818561263a565b9350836020820285016126ed8561264b565b8060005b85811015612729578484038952815161270a85826126a5565b9450612715836126b9565b925060208a019950506001810190506126f1565b50829750879550505050505092915050565b600081519050919050565b600082825260208201905092915050565b6000819050602082019050919050565b6127708161237b565b82525050565b60006127828383612767565b60208301905092915050565b6000602082019050919050565b60006127a68261273b565b6127b08185612746565b93506127bb83612757565b8060005b838110156127ec5781516127d38882612776565b97506127de8361278e565b9250506001810190506127bf565b5085935050505092915050565b6000604082019050818103600083015261281381856126c6565b90508181036020830152612827818461279b565b90509392505050565b600081519050919050565b600082825260208201905092915050565b6000819050602082019050919050565b61286581612028565b82525050565b6000612877838361285c565b60208301905092915050565b6000602082019050919050565b600061289b82612830565b6128a5818561283b565b93506128b08361284c565b8060005b838110156128e15781516128c8888261286b565b97506128d383612883565b9250506001810190506128b4565b5085935050505092915050565b6000610100820190508181036000830152612909818b612890565b9050818103602083015261291d818a6126c6565b9050818103604083015261293181896126c6565b9050818103606083015261294581886126c6565b9050818103608083015261295981876126c6565b905081810360a083015261296d81866126c6565b905081810360c083015261298181856126c6565b905081810360e083015261299581846126c6565b90509998505050505050505050565b7f4e487b7100000000000000000000000000000000000000000000000000000000600052603260045260246000fd5b7f4e487b7100000000000000000000000000000000000000000000000000000000600052602260045260246000fd5b60006002820490506001821680612a1a57607f821691505b60208210811415612a2e57612a2d6129d3565b5b50919050565b7f4e487b7100000000000000000000000000000000000000000000000000000000600052601160045260246000fd5b6000612a6e8261237b565b91507fffffffffffffffffffffffffffffffffffffffffffffffffffffffffffffffff821415612aa157612aa0612a34565b5b600182019050919050565b600081905092915050565b60008190508160005260206000209050919050565b60008154612ad981612a02565b612ae38186612aac565b94506001821660008114612afe5760018114612b0f57612b42565b60ff19831686528186019350612b42565b612b1885612ab7565b60005b83811015612b3a57815481890152600182019150602081019050612b1b565b838801955050505b50505092915050565b6000612b578284612acc565b915081905092915050565b7f4c6576656c206f6620736b696c6c20696e636f72726563742e00000000000000600082015250565b6000612b986019836120ad565b9150612ba382612b62565b602082019050919050565b60006020820190508181036000830152612bc781612b8b565b9050919050565b6000612bd98261237b565b9150612be48361237b565b9250827fffffffffffffffffffffffffffffffffffffffffffffffffffffffffffffffff03821115612c1957612c18612a34565b5b82820190509291505056fea26469706673582212205b4ba4b72f765c63c94636c48eb316972c83d58b82d105f0efa9a2ddc2d66e2b64736f6c634300080b0033608060405234801561001057600080fd5b5061228c806100206000396000f3fe608060405234801561001057600080fd5b50600436106100625760003560e01c80630f53a47014610067578063a7dba1841461009d578063bf44b303146100cd578063c6fe410a14610104578063cfafbc0c14610134578063e045b71014610159575b600080fd5b610081600480360381019061007c9190611863565b610175565b6040516100949796959493929190611938565b60405180910390f35b6100b760048036038101906100b29190611b06565b6106a9565b6040516100c49190611b7b565b60405180910390f35b6100e760048036038101906100e29190611bc2565b6107a7565b6040516100fb989796959493929190611bef565b60405180910390f35b61011e60048036038101906101199190611863565b610bd7565b60405161012b9190611b7b565b60405180910390f35b61013c610c89565b604051610150989796959493929190611e68565b60405180910390f35b610173600480360381019061016e9190611f1e565b6115b5565b005b600060608060608060608060005b60008054905081101561069c578873ffffffffffffffffffffffffffffffffffffffff16600082815481106101bb576101ba612098565b5b906000526020600020906008020160000160009054906101000a900473ffffffffffffffffffffffffffffffffffffffff1673ffffffffffffffffffffffffffffffffffffffff161415610689576000818154811061021d5761021c612098565b5b906000526020600020906008020160000160009054906101000a900473ffffffffffffffffffffffffffffffffffffffff166000828154811061026357610262612098565b5b90600052602060002090600802016001016000838154811061028857610287612098565b5b9060005260206000209060080201600201600084815481106102ad576102ac612098565b5b9060005260206000209060080201600301600085815481106102d2576102d1612098565b5b9060005260206000209060080201600401600086815481106102f7576102f6612098565b5b90600052602060002090600802016005016000878154811061031c5761031b612098565b5b9060005260206000209060080201600601858054610339906120f6565b80601f0160208091040260200160405190810160405280929190818152602001828054610365906120f6565b80156103b25780601f10610387576101008083540402835291602001916103b2565b820191906000526020600020905b81548152906001019060200180831161039557829003601f168201915b505050505095508480546103c5906120f6565b80601f01602080910402602001604051908101604052809291908181526020018280546103f1906120f6565b801561043e5780601f106104135761010080835404028352916020019161043e565b820191906000526020600020905b81548152906001019060200180831161042157829003601f168201915b50505050509450838054610451906120f6565b80601f016020809104026020016040519081016040528092919081815260200182805461047d906120f6565b80156104ca5780601f1061049f576101008083540402835291602001916104ca565b820191906000526020600020905b8154815290600101906020018083116104ad57829003601f168201915b505050505093508280546104dd906120f6565b80601f0160208091040260200160405190810160405280929190818152602001828054610509906120f6565b80156105565780601f1061052b57610100808354040283529160200191610556565b820191906000526020600020905b81548152906001019060200180831161053957829003601f168201915b50505050509250818054610569906120f6565b80601f0160208091040260200160405190810160405280929190818152602001828054610595906120f6565b80156105e25780601f106105b7576101008083540402835291602001916105e2565b820191906000526020600020905b8154815290600101906020018083116105c557829003601f168201915b505050505091508080546105f5906120f6565b80601f0160208091040260200160405190810160405280929190818152602001828054610621906120f6565b801561066e5780601f106106435761010080835404028352916020019161066e565b820191906000526020600020905b81548152906001019060200180831161065157829003601f168201915b5050505050905097509750975097509750975097505061069e565b808061069490612157565b915050610183565b505b919395979092949650565b600080600090505b60008054905081101561079f578373ffffffffffffffffffffffffffffffffffffffff16600082815481106106e9576106e8612098565b5b906000526020600020906008020160000160009054906101000a900473ffffffffffffffffffffffffffffffffffffffff1673ffffffffffffffffffffffffffffffffffffffff1614801561077d575082805190602001206000828154811061075557610754612098565b5b9060005260206000209060080201600701604051610773919061223f565b6040518091039020145b1561078c5760019150506107a1565b808061079790612157565b9150506106b1565b505b92915050565b600081815481106107b757600080fd5b90600052602060002090600802016000915090508060000160009054906101000a900473ffffffffffffffffffffffffffffffffffffffff1690806001018054610800906120f6565b80601f016020809104026020016040519081016040528092919081815260200182805461082c906120f6565b80156108795780601f1061084e57610100808354040283529160200191610879565b820191906000526020600020905b81548152906001019060200180831161085c57829003601f168201915b50505050509080600201805461088e906120f6565b80601f01602080910402602001604051908101604052809291908181526020018280546108ba906120f6565b80156109075780601f106108dc57610100808354040283529160200191610907565b820191906000526020600020905b8154815290600101906020018083116108ea57829003601f168201915b50505050509080600301805461091c906120f6565b80601f0160208091040260200160405190810160405280929190818152602001828054610948906120f6565b80156109955780601f1061096a57610100808354040283529160200191610995565b820191906000526020600020905b81548152906001019060200180831161097857829003601f168201915b5050505050908060040180546109aa906120f6565b80601f01602080910402602001604051908101604052809291908181526020018280546109d6906120f6565b8015610a235780601f106109f857610100808354040283529160200191610a23565b820191906000526020600020905b815481529060010190602001808311610a0657829003601f168201915b505050505090806005018054610a38906120f6565b80601f0160208091040260200160405190810160405280929190818152602001828054610a64906120f6565b8015610ab15780601f10610a8657610100808354040283529160200191610ab1565b820191906000526020600020905b815481529060010190602001808311610a9457829003601f168201915b505050505090806006018054610ac6906120f6565b80601f0160208091040260200160405190810160405280929190818152602001828054610af2906120f6565b8015610b3f5780601f10610b1457610100808354040283529160200191610b3f565b820191906000526020600020905b815481529060010190602001808311610b2257829003601f168201915b505050505090806007018054610b54906120f6565b80601f0160208091040260200160405190810160405280929190818152602001828054610b80906120f6565b8015610bcd5780601f10610ba257610100808354040283529160200191610bcd565b820191906000526020600020905b815481529060010190602001808311610bb057829003601f168201915b5050505050905088565b600080600090505b600080549050811015610c82578273ffffffffffffffffffffffffffffffffffffffff1660008281548110610c1757610c16612098565b5b906000526020600020906008020160000160009054906101000a900473ffffffffffffffffffffffffffffffffffffffff1673ffffffffffffffffffffffffffffffffffffffff161415610c6f576001915050610c84565b8080610c7a90612157565b915050610bdf565b505b919050565b6060806060806060806060806000808054905067ffffffffffffffff811115610cb557610cb46119db565b5b604051908082528060200260200182016040528015610ce35781602001602082028036833780820191505090505b5090506000808054905067ffffffffffffffff811115610d0657610d056119db565b5b604051908082528060200260200182016040528015610d3957816020015b6060815260200190600190039081610d245790505b5090506000808054905067ffffffffffffffff811115610d5c57610d5b6119db565b5b604051908082528060200260200182016040528015610d8f57816020015b6060815260200190600190039081610d7a5790505b5090506000808054905067ffffffffffffffff811115610db257610db16119db565b5b604051908082528060200260200182016040528015610de557816020015b6060815260200190600190039081610dd05790505b5090506000808054905067ffffffffffffffff811115610e0857610e076119db565b5b604051908082528060200260200182016040528015610e3b57816020015b6060815260200190600190039081610e265790505b5090506000808054905067ffffffffffffffff811115610e5e57610e5d6119db565b5b604051908082528060200260200182016040528015610e9157816020015b6060815260200190600190039081610e7c5790505b5090506000808054905067ffffffffffffffff811115610eb457610eb36119db565b5b604051908082528060200260200182016040528015610ee757816020015b6060815260200190600190039081610ed25790505b5090506000808054905067ffffffffffffffff811115610f0a57610f096119db565b5b604051908082528060200260200182016040528015610f3d57816020015b6060815260200190600190039081610f285790505b50905060005b60008054905081101561158a5760008181548110610f6457610f63612098565b5b906000526020600020906008020160000160009054906101000a900473ffffffffffffffffffffffffffffffffffffffff16898281518110610fa957610fa8612098565b5b602002602001019073ffffffffffffffffffffffffffffffffffffffff16908173ffffffffffffffffffffffffffffffffffffffff168152505060008181548110610ff757610ff6612098565b5b90600052602060002090600802016001018054611013906120f6565b80601f016020809104026020016040519081016040528092919081815260200182805461103f906120f6565b801561108c5780601f106110615761010080835404028352916020019161108c565b820191906000526020600020905b81548152906001019060200180831161106f57829003601f168201915b50505050508882815181106110a4576110a3612098565b5b6020026020010181905250600081815481106110c3576110c2612098565b5b906000526020600020906008020160020180546110df906120f6565b80601f016020809104026020016040519081016040528092919081815260200182805461110b906120f6565b80156111585780601f1061112d57610100808354040283529160200191611158565b820191906000526020600020905b81548152906001019060200180831161113b57829003601f168201915b50505050508782815181106111705761116f612098565b5b60200260200101819052506000818154811061118f5761118e612098565b5b906000526020600020906008020160030180546111ab906120f6565b80601f01602080910402602001604051908101604052809291908181526020018280546111d7906120f6565b80156112245780601f106111f957610100808354040283529160200191611224565b820191906000526020600020905b81548152906001019060200180831161120757829003601f168201915b505050505086828151811061123c5761123b612098565b5b60200260200101819052506000818154811061125b5761125a612098565b5b90600052602060002090600802016004018054611277906120f6565b80601f01602080910402602001604051908101604052809291908181526020018280546112a3906120f6565b80156112f05780601f106112c5576101008083540402835291602001916112f0565b820191906000526020600020905b8154815290600101906020018083116112d357829003601f168201915b505050505085828151811061130857611307612098565b5b60200260200101819052506000818154811061132757611326612098565b5b90600052602060002090600802016005018054611343906120f6565b80601f016020809104026020016040519081016040528092919081815260200182805461136f906120f6565b80156113bc5780601f10611391576101008083540402835291602001916113bc565b820191906000526020600020905b81548152906001019060200180831161139f57829003601f168201915b50505050508482815181106113d4576113d3612098565b5b6020026020010181905250600081815481106113f3576113f2612098565b5b9060005260206000209060080201600601805461140f906120f6565b80601f016020809104026020016040519081016040528092919081815260200182805461143b906120f6565b80156114885780601f1061145d57610100808354040283529160200191611488565b820191906000526020600020905b81548152906001019060200180831161146b57829003601f168201915b50505050508382815181106114a05761149f612098565b5b6020026020010181905250600081815481106114bf576114be612098565b5b906000526020600020906008020160070180546114db906120f6565b80601f0160208091040260200160405190810160405280929190818152602001828054611507906120f6565b80156115545780601f1061152957610100808354040283529160200191611554565b820191906000526020600020905b81548152906001019060200180831161153757829003601f168201915b505050505082828151811061156c5761156b612098565b5b6020026020010181905250808061158290612157565b915050610f43565b5087878787878787879f509f509f509f509f509f509f509f5050505050505050509091929394959697565b60006040518061010001604052808a73ffffffffffffffffffffffffffffffffffffffff16815260200189815260200188815260200187815260200186815260200185815260200184815260200183815250908060018154018082558091505060019003906000526020600020906008020160009091909190915060008201518160000160006101000a81548173ffffffffffffffffffffffffffffffffffffffff021916908373ffffffffffffffffffffffffffffffffffffffff160217905550602082015181600101908051906020019061169392919061174e565b5060408201518160020190805190602001906116b092919061174e565b5060608201518160030190805190602001906116cd92919061174e565b5060808201518160040190805190602001906116ea92919061174e565b5060a082015181600501908051906020019061170792919061174e565b5060c082015181600601908051906020019061172492919061174e565b5060e082015181600701908051906020019061174192919061174e565b5050505050505050505050565b82805461175a906120f6565b90600052602060002090601f01602090048101928261177c57600085556117c3565b82601f1061179557805160ff19168380011785556117c3565b828001600101855582156117c3579182015b828111156117c25782518255916020019190600101906117a7565b5b5090506117d091906117d4565b5090565b5b808211156117ed5760008160009055506001016117d5565b5090565b6000604051905090565b600080fd5b600080fd5b600073ffffffffffffffffffffffffffffffffffffffff82169050919050565b600061183082611805565b9050919050565b61184081611825565b811461184b57600080fd5b50565b60008135905061185d81611837565b92915050565b600060208284031215611879576118786117fb565b5b60006118878482850161184e565b91505092915050565b61189981611825565b82525050565b600081519050919050565b600082825260208201905092915050565b60005b838110156118d95780820151818401526020810190506118be565b838111156118e8576000848401525b50505050565b6000601f19601f8301169050919050565b600061190a8261189f565b61191481856118aa565b93506119248185602086016118bb565b61192d816118ee565b840191505092915050565b600060e08201905061194d600083018a611890565b818103602083015261195f81896118ff565b9050818103604083015261197381886118ff565b9050818103606083015261198781876118ff565b9050818103608083015261199b81866118ff565b905081810360a08301526119af81856118ff565b905081810360c08301526119c381846118ff565b905098975050505050505050565b600080fd5b600080fd5b7f4e487b7100000000000000000000000000000000000000000000000000000000600052604160045260246000fd5b611a13826118ee565b810181811067ffffffffffffffff82111715611a3257611a316119db565b5b80604052505050565b6000611a456117f1565b9050611a518282611a0a565b919050565b600067ffffffffffffffff821115611a7157611a706119db565b5b611a7a826118ee565b9050602081019050919050565b82818337600083830152505050565b6000611aa9611aa484611a56565b611a3b565b905082815260208101848484011115611ac557611ac46119d6565b5b611ad0848285611a87565b509392505050565b600082601f830112611aed57611aec6119d1565b5b8135611afd848260208601611a96565b91505092915050565b60008060408385031215611b1d57611b1c6117fb565b5b6000611b2b8582860161184e565b925050602083013567ffffffffffffffff811115611b4c57611b4b611800565b5b611b5885828601611ad8565b9150509250929050565b6000819050919050565b611b7581611b62565b82525050565b6000602082019050611b906000830184611b6c565b92915050565b611b9f81611b62565b8114611baa57600080fd5b50565b600081359050611bbc81611b96565b92915050565b600060208284031215611bd857611bd76117fb565b5b6000611be684828501611bad565b91505092915050565b600061010082019050611c05600083018b611890565b8181036020830152611c17818a6118ff565b90508181036040830152611c2b81896118ff565b90508181036060830152611c3f81886118ff565b90508181036080830152611c5381876118ff565b905081810360a0830152611c6781866118ff565b905081810360c0830152611c7b81856118ff565b905081810360e0830152611c8f81846118ff565b90509998505050505050505050565b600081519050919050565b600082825260208201905092915050565b6000819050602082019050919050565b611cd381611825565b82525050565b6000611ce58383611cca565b60208301905092915050565b6000602082019050919050565b6000611d0982611c9e565b611d138185611ca9565b9350611d1e83611cba565b8060005b83811015611d4f578151611d368882611cd9565b9750611d4183611cf1565b925050600181019050611d22565b5085935050505092915050565b600081519050919050565b600082825260208201905092915050565b6000819050602082019050919050565b600082825260208201905092915050565b6000611da48261189f565b611dae8185611d88565b9350611dbe8185602086016118bb565b611dc7816118ee565b840191505092915050565b6000611dde8383611d99565b905092915050565b6000602082019050919050565b6000611dfe82611d5c565b611e088185611d67565b935083602082028501611e1a85611d78565b8060005b85811015611e565784840389528151611e378582611dd2565b9450611e4283611de6565b925060208a01995050600181019050611e1e565b50829750879550505050505092915050565b6000610100820190508181036000830152611e83818b611cfe565b90508181036020830152611e97818a611df3565b90508181036040830152611eab8189611df3565b90508181036060830152611ebf8188611df3565b90508181036080830152611ed38187611df3565b905081810360a0830152611ee78186611df3565b905081810360c0830152611efb8185611df3565b905081810360e0830152611f0f8184611df3565b90509998505050505050505050565b600080600080600080600080610100898b031215611f3f57611f3e6117fb565b5b6000611f4d8b828c0161184e565b985050602089013567ffffffffffffffff811115611f6e57611f6d611800565b5b611f7a8b828c01611ad8565b975050604089013567ffffffffffffffff811115611f9b57611f9a611800565b5b611fa78b828c01611ad8565b965050606089013567ffffffffffffffff811115611fc857611fc7611800565b5b611fd48b828c01611ad8565b955050608089013567ffffffffffffffff811115611ff557611ff4611800565b5b6120018b828c01611ad8565b94505060a089013567ffffffffffffffff81111561202257612021611800565b5b61202e8b828c01611ad8565b93505060c089013567ffffffffffffffff81111561204f5761204e611800565b5b61205b8b828c01611ad8565b92505060e089013567ffffffffffffffff81111561207c5761207b611800565b5b6120888b828c01611ad8565b9150509295985092959890939650565b7f4e487b7100000000000000000000000000000000000000000000000000000000600052603260045260246000fd5b7f4e487b7100000000000000000000000000000000000000000000000000000000600052602260045260246000fd5b6000600282049050600182168061210e57607f821691505b60208210811415612122576121216120c7565b5b50919050565b7f4e487b7100000000000000000000000000000000000000000000000000000000600052601160045260246000fd5b600061216282611b62565b91507fffffffffffffffffffffffffffffffffffffffffffffffffffffffffffffffff82141561219557612194612128565b5b600182019050919050565b600081905092915050565b60008190508160005260206000209050919050565b600081546121cd816120f6565b6121d781866121a0565b945060018216600081146121f2576001811461220357612236565b60ff19831686528186019350612236565b61220c856121ab565b60005b8381101561222e5781548189015260018201915060208101905061220f565b838801955050505b50505092915050565b600061224b82846121c0565b91508190509291505056fea2646970667358221220be6d5762a3d6676b2fbb685084471402619cfef237f88042f05bb755a7490a5b64736f6c634300080b0033608060405234801561001057600080fd5b506125c9806100206000396000f3fe608060405234801561001057600080fd5b50600436106100b35760003560e01c8063ae8f00d311610071578063ae8f00d3146101ba578063ce1ec5bb146101d6578063cee5c7f314610207578063dc1e475f14610223578063e83ddcea1461023f578063e9daa70a14610271576100b3565b80624e56cf146100b85780630299779f146100d45780630b5e50ed14610104578063381a3bf7146101365780637aedcde51461016a578063844bb4601461019e575b600080fd5b6100d260048036038101906100cd9190611d49565b6102a3565b005b6100ee60048036038101906100e99190611de8565b610448565b6040516100fb9190611e70565b60405180910390f35b61011e60048036038101906101199190611eb7565b6105c3565b60405161012d93929190611f7b565b60405180910390f35b610150600480360381019061014b9190611fc0565b61072d565b6040516101619594939291906121b7565b60405180910390f35b610184600480360381019061017f9190611eb7565b610d1e565b60405161019595949392919061222d565b60405180910390f35b6101b860048036038101906101b39190611d49565b610f3c565b005b6101d460048036038101906101cf9190611de8565b6110e1565b005b6101f060048036038101906101eb9190611fc0565b611205565b6040516101fe929190612295565b60405180910390f35b610221600480360381019061021c91906122cc565b6114f9565b005b61023d60048036038101906102389190611d49565b6115dd565b005b61025960048036038101906102549190611eb7565b61177d565b60405161026893929190612357565b60405180910390f35b61028b60048036038101906102869190612395565b61187f565b60405161029a93929190612357565b60405180910390f35b60005b600080549050811015610441578473ffffffffffffffffffffffffffffffffffffffff16600082815481106102de576102dd6123d5565b5b906000526020600020906005020160000160009054906101000a900473ffffffffffffffffffffffffffffffffffffffff1673ffffffffffffffffffffffffffffffffffffffff161480156103a357508373ffffffffffffffffffffffffffffffffffffffff1660008281548110610359576103586123d5565b5b906000526020600020906005020160010160009054906101000a900473ffffffffffffffffffffffffffffffffffffffff1673ffffffffffffffffffffffffffffffffffffffff16145b80156103ee57508280519060200120600082815481106103c6576103c56123d5565b5b90600052602060002090600502016002016040516103e49190612504565b6040518091039020145b1561042e578160008281548110610408576104076123d5565b5b9060005260206000209060050201600401908051906020019061042c929190611aee565b505b80806104399061254a565b9150506102a6565b5050505050565b600080600090505b6000805490508110156105ba578473ffffffffffffffffffffffffffffffffffffffff1660008281548110610488576104876123d5565b5b906000526020600020906005020160000160009054906101000a900473ffffffffffffffffffffffffffffffffffffffff1673ffffffffffffffffffffffffffffffffffffffff1614801561054d57508373ffffffffffffffffffffffffffffffffffffffff1660008281548110610503576105026123d5565b5b906000526020600020906005020160010160009054906101000a900473ffffffffffffffffffffffffffffffffffffffff1673ffffffffffffffffffffffffffffffffffffffff16145b801561059857508280519060200120600082815481106105705761056f6123d5565b5b906000526020600020906005020160020160405161058e9190612504565b6040518091039020145b156105a75760019150506105bc565b80806105b29061254a565b915050610450565b505b9392505050565b600181815481106105d357600080fd5b90600052602060002090600302016000915090508060000160009054906101000a900473ffffffffffffffffffffffffffffffffffffffff169080600101805461061c90612433565b80601f016020809104026020016040519081016040528092919081815260200182805461064890612433565b80156106955780601f1061066a57610100808354040283529160200191610695565b820191906000526020600020905b81548152906001019060200180831161067857829003601f168201915b5050505050908060020180546106aa90612433565b80601f01602080910402602001604051908101604052809291908181526020018280546106d690612433565b80156107235780601f106106f857610100808354040283529160200191610723565b820191906000526020600020905b81548152906001019060200180831161070657829003601f168201915b5050505050905083565b60608060608060606000808054905067ffffffffffffffff81111561075557610754611c1e565b5b6040519080825280602002602001820160405280156107835781602001602082028036833780820191505090505b5090506000808054905067ffffffffffffffff8111156107a6576107a5611c1e565b5b6040519080825280602002602001820160405280156107d45781602001602082028036833780820191505090505b5090506000808054905067ffffffffffffffff8111156107f7576107f6611c1e565b5b60405190808252806020026020018201604052801561082a57816020015b60608152602001906001900390816108155790505b5090506000808054905067ffffffffffffffff81111561084d5761084c611c1e565b5b60405190808252806020026020018201604052801561088057816020015b606081526020019060019003908161086b5790505b5090506000808054905067ffffffffffffffff8111156108a3576108a2611c1e565b5b6040519080825280602002602001820160405280156108d657816020015b60608152602001906001900390816108c15790505b50905060005b600080549050811015610d00578b73ffffffffffffffffffffffffffffffffffffffff1660008281548110610914576109136123d5565b5b906000526020600020906005020160010160009054906101000a900473ffffffffffffffffffffffffffffffffffffffff1673ffffffffffffffffffffffffffffffffffffffff161415610ced5760008181548110610976576109756123d5565b5b906000526020600020906005020160000160009054906101000a900473ffffffffffffffffffffffffffffffffffffffff168682815181106109bb576109ba6123d5565b5b602002602001019073ffffffffffffffffffffffffffffffffffffffff16908173ffffffffffffffffffffffffffffffffffffffff168152505060008181548110610a0957610a086123d5565b5b906000526020600020906005020160010160009054906101000a900473ffffffffffffffffffffffffffffffffffffffff16858281518110610a4e57610a4d6123d5565b5b602002602001019073ffffffffffffffffffffffffffffffffffffffff16908173ffffffffffffffffffffffffffffffffffffffff168152505060008181548110610a9c57610a9b6123d5565b5b90600052602060002090600502016002018054610ab890612433565b80601f0160208091040260200160405190810160405280929190818152602001828054610ae490612433565b8015610b315780601f10610b0657610100808354040283529160200191610b31565b820191906000526020600020905b815481529060010190602001808311610b1457829003601f168201915b5050505050848281518110610b4957610b486123d5565b5b602002602001018190525060008181548110610b6857610b676123d5565b5b90600052602060002090600502016003018054610b8490612433565b80601f0160208091040260200160405190810160405280929190818152602001828054610bb090612433565b8015610bfd5780601f10610bd257610100808354040283529160200191610bfd565b820191906000526020600020905b815481529060010190602001808311610be057829003601f168201915b5050505050838281518110610c1557610c146123d5565b5b602002602001018190525060008181548110610c3457610c336123d5565b5b90600052602060002090600502016004018054610c5090612433565b80601f0160208091040260200160405190810160405280929190818152602001828054610c7c90612433565b8015610cc95780601f10610c9e57610100808354040283529160200191610cc9565b820191906000526020600020905b815481529060010190602001808311610cac57829003601f168201915b5050505050828281518110610ce157610ce06123d5565b5b60200260200101819052505b8080610cf89061254a565b9150506108dc565b50848484848499509950995099509950505050505091939590929450565b60008181548110610d2e57600080fd5b90600052602060002090600502016000915090508060000160009054906101000a900473ffffffffffffffffffffffffffffffffffffffff16908060010160009054906101000a900473ffffffffffffffffffffffffffffffffffffffff1690806002018054610d9d90612433565b80601f0160208091040260200160405190810160405280929190818152602001828054610dc990612433565b8015610e165780601f10610deb57610100808354040283529160200191610e16565b820191906000526020600020905b815481529060010190602001808311610df957829003601f168201915b505050505090806003018054610e2b90612433565b80601f0160208091040260200160405190810160405280929190818152602001828054610e5790612433565b8015610ea45780601f10610e7957610100808354040283529160200191610ea4565b820191906000526020600020905b815481529060010190602001808311610e8757829003601f168201915b505050505090806004018054610eb990612433565b80601f0160208091040260200160405190810160405280929190818152602001828054610ee590612433565b8015610f325780601f10610f0757610100808354040283529160200191610f32565b820191906000526020600020905b815481529060010190602001808311610f1557829003601f168201915b5050505050905085565b60005b6000805490508110156110da578473ffffffffffffffffffffffffffffffffffffffff1660008281548110610f7757610f766123d5565b5b906000526020600020906005020160000160009054906101000a900473ffffffffffffffffffffffffffffffffffffffff1673ffffffffffffffffffffffffffffffffffffffff1614801561103c57508373ffffffffffffffffffffffffffffffffffffffff1660008281548110610ff257610ff16123d5565b5b906000526020600020906005020160010160009054906101000a900473ffffffffffffffffffffffffffffffffffffffff1673ffffffffffffffffffffffffffffffffffffffff16145b8015611087575082805190602001206000828154811061105f5761105e6123d5565b5b906000526020600020906005020160020160405161107d9190612504565b6040518091039020145b156110c75781600082815481106110a1576110a06123d5565b5b906000526020600020906005020160040190805190602001906110c5929190611aee565b505b80806110d29061254a565b915050610f3f565b5050505050565b600260405180606001604052808573ffffffffffffffffffffffffffffffffffffffff1681526020018473ffffffffffffffffffffffffffffffffffffffff16815260200183815250908060018154018082558091505060019003906000526020600020906003020160009091909190915060008201518160000160006101000a81548173ffffffffffffffffffffffffffffffffffffffff021916908373ffffffffffffffffffffffffffffffffffffffff16021790555060208201518160010160006101000a81548173ffffffffffffffffffffffffffffffffffffffff021916908373ffffffffffffffffffffffffffffffffffffffff16021790555060408201518160020190805190602001906111fd929190611aee565b505050505050565b606080600060018054905067ffffffffffffffff81111561122957611228611c1e565b5b60405190808252806020026020018201604052801561125c57816020015b60608152602001906001900390816112475790505b509050600060018054905067ffffffffffffffff8111156112805761127f611c1e565b5b6040519080825280602002602001820160405280156112b357816020015b606081526020019060019003908161129e5790505b50905060005b6001805490508110156114eb578573ffffffffffffffffffffffffffffffffffffffff16600182815481106112f1576112f06123d5565b5b906000526020600020906003020160000160009054906101000a900473ffffffffffffffffffffffffffffffffffffffff1673ffffffffffffffffffffffffffffffffffffffff1614156114d85760018181548110611353576113526123d5565b5b9060005260206000209060030201600101805461136f90612433565b80601f016020809104026020016040519081016040528092919081815260200182805461139b90612433565b80156113e85780601f106113bd576101008083540402835291602001916113e8565b820191906000526020600020905b8154815290600101906020018083116113cb57829003601f168201915b5050505050838281518110611400576113ff6123d5565b5b60200260200101819052506001818154811061141f5761141e6123d5565b5b9060005260206000209060030201600201805461143b90612433565b80601f016020809104026020016040519081016040528092919081815260200182805461146790612433565b80156114b45780601f10611489576101008083540402835291602001916114b4565b820191906000526020600020905b81548152906001019060200180831161149757829003601f168201915b50505050508282815181106114cc576114cb6123d5565b5b60200260200101819052505b80806114e39061254a565b9150506112b9565b508181935093505050915091565b600160405180606001604052808573ffffffffffffffffffffffffffffffffffffffff16815260200184815260200183815250908060018154018082558091505060019003906000526020600020906003020160009091909190915060008201518160000160006101000a81548173ffffffffffffffffffffffffffffffffffffffff021916908373ffffffffffffffffffffffffffffffffffffffff16021790555060208201518160010190805190602001906115b8929190611aee565b5060408201518160020190805190602001906115d5929190611aee565b505050505050565b60006040518060a001604052808673ffffffffffffffffffffffffffffffffffffffff1681526020018573ffffffffffffffffffffffffffffffffffffffff1681526020018481526020018381526020016040518060400160405280600981526020017f53637265656e696e670000000000000000000000000000000000000000000000815250815250908060018154018082558091505060019003906000526020600020906005020160009091909190915060008201518160000160006101000a81548173ffffffffffffffffffffffffffffffffffffffff021916908373ffffffffffffffffffffffffffffffffffffffff16021790555060208201518160010160006101000a81548173ffffffffffffffffffffffffffffffffffffffff021916908373ffffffffffffffffffffffffffffffffffffffff160217905550604082015181600201908051906020019061173a929190611aee565b506060820151816003019080519060200190611757929190611aee565b506080820151816004019080519060200190611774929190611aee565b50505050505050565b6002818154811061178d57600080fd5b90600052602060002090600302016000915090508060000160009054906101000a900473ffffffffffffffffffffffffffffffffffffffff16908060010160009054906101000a900473ffffffffffffffffffffffffffffffffffffffff16908060020180546117fc90612433565b80601f016020809104026020016040519081016040528092919081815260200182805461182890612433565b80156118755780601f1061184a57610100808354040283529160200191611875565b820191906000526020600020905b81548152906001019060200180831161185857829003601f168201915b5050505050905083565b600080606060005b600280549050811015611ae5578473ffffffffffffffffffffffffffffffffffffffff16600282815481106118bf576118be6123d5565b5b906000526020600020906003020160010160009054906101000a900473ffffffffffffffffffffffffffffffffffffffff1673ffffffffffffffffffffffffffffffffffffffff1614801561198457508573ffffffffffffffffffffffffffffffffffffffff166002828154811061193a576119396123d5565b5b906000526020600020906003020160000160009054906101000a900473ffffffffffffffffffffffffffffffffffffffff1673ffffffffffffffffffffffffffffffffffffffff16145b15611ad2576002818154811061199d5761199c6123d5565b5b906000526020600020906003020160000160009054906101000a900473ffffffffffffffffffffffffffffffffffffffff16600282815481106119e3576119e26123d5565b5b906000526020600020906003020160010160009054906101000a900473ffffffffffffffffffffffffffffffffffffffff1660028381548110611a2957611a286123d5565b5b9060005260206000209060030201600201808054611a4690612433565b80601f0160208091040260200160405190810160405280929190818152602001828054611a7290612433565b8015611abf5780601f10611a9457610100808354040283529160200191611abf565b820191906000526020600020905b815481529060010190602001808311611aa257829003601f168201915b5050505050905093509350935050611ae7565b8080611add9061254a565b915050611887565b505b9250925092565b828054611afa90612433565b90600052602060002090601f016020900481019282611b1c5760008555611b63565b82601f10611b3557805160ff1916838001178555611b63565b82800160010185558215611b63579182015b82811115611b62578251825591602001919060010190611b47565b5b509050611b709190611b74565b5090565b5b80821115611b8d576000816000905550600101611b75565b5090565b6000604051905090565b600080fd5b600080fd5b600073ffffffffffffffffffffffffffffffffffffffff82169050919050565b6000611bd082611ba5565b9050919050565b611be081611bc5565b8114611beb57600080fd5b50565b600081359050611bfd81611bd7565b92915050565b600080fd5b600080fd5b6000601f19601f8301169050919050565b7f4e487b7100000000000000000000000000000000000000000000000000000000600052604160045260246000fd5b611c5682611c0d565b810181811067ffffffffffffffff82111715611c7557611c74611c1e565b5b80604052505050565b6000611c88611b91565b9050611c948282611c4d565b919050565b600067ffffffffffffffff821115611cb457611cb3611c1e565b5b611cbd82611c0d565b9050602081019050919050565b82818337600083830152505050565b6000611cec611ce784611c99565b611c7e565b905082815260208101848484011115611d0857611d07611c08565b5b611d13848285611cca565b509392505050565b600082601f830112611d3057611d2f611c03565b5b8135611d40848260208601611cd9565b91505092915050565b60008060008060808587031215611d6357611d62611b9b565b5b6000611d7187828801611bee565b9450506020611d8287828801611bee565b935050604085013567ffffffffffffffff811115611da357611da2611ba0565b5b611daf87828801611d1b565b925050606085013567ffffffffffffffff811115611dd057611dcf611ba0565b5b611ddc87828801611d1b565b91505092959194509250565b600080600060608486031215611e0157611e00611b9b565b5b6000611e0f86828701611bee565b9350506020611e2086828701611bee565b925050604084013567ffffffffffffffff811115611e4157611e40611ba0565b5b611e4d86828701611d1b565b9150509250925092565b6000819050919050565b611e6a81611e57565b82525050565b6000602082019050611e856000830184611e61565b92915050565b611e9481611e57565b8114611e9f57600080fd5b50565b600081359050611eb181611e8b565b92915050565b600060208284031215611ecd57611ecc611b9b565b5b6000611edb84828501611ea2565b91505092915050565b611eed81611bc5565b82525050565b600081519050919050565b600082825260208201905092915050565b60005b83811015611f2d578082015181840152602081019050611f12565b83811115611f3c576000848401525b50505050565b6000611f4d82611ef3565b611f578185611efe565b9350611f67818560208601611f0f565b611f7081611c0d565b840191505092915050565b6000606082019050611f906000830186611ee4565b8181036020830152611fa28185611f42565b90508181036040830152611fb68184611f42565b9050949350505050565b600060208284031215611fd657611fd5611b9b565b5b6000611fe484828501611bee565b91505092915050565b600081519050919050565b600082825260208201905092915050565b6000819050602082019050919050565b61202281611bc5565b82525050565b60006120348383612019565b60208301905092915050565b6000602082019050919050565b600061205882611fed565b6120628185611ff8565b935061206d83612009565b8060005b8381101561209e5781516120858882612028565b975061209083612040565b925050600181019050612071565b5085935050505092915050565b600081519050919050565b600082825260208201905092915050565b6000819050602082019050919050565b600082825260208201905092915050565b60006120f382611ef3565b6120fd81856120d7565b935061210d818560208601611f0f565b61211681611c0d565b840191505092915050565b600061212d83836120e8565b905092915050565b6000602082019050919050565b600061214d826120ab565b61215781856120b6565b935083602082028501612169856120c7565b8060005b858110156121a557848403895281516121868582612121565b945061219183612135565b925060208a0199505060018101905061216d565b50829750879550505050505092915050565b600060a08201905081810360008301526121d1818861204d565b905081810360208301526121e5818761204d565b905081810360408301526121f98186612142565b9050818103606083015261220d8185612142565b905081810360808301526122218184612142565b90509695505050505050565b600060a0820190506122426000830188611ee4565b61224f6020830187611ee4565b81810360408301526122618186611f42565b905081810360608301526122758185611f42565b905081810360808301526122898184611f42565b90509695505050505050565b600060408201905081810360008301526122af8185612142565b905081810360208301526122c38184612142565b90509392505050565b6000806000606084860312156122e5576122e4611b9b565b5b60006122f386828701611bee565b935050602084013567ffffffffffffffff81111561231457612313611ba0565b5b61232086828701611d1b565b925050604084013567ffffffffffffffff81111561234157612340611ba0565b5b61234d86828701611d1b565b9150509250925092565b600060608201905061236c6000830186611ee4565b6123796020830185611ee4565b818103604083015261238b8184611f42565b9050949350505050565b600080604083850312156123ac576123ab611b9b565b5b60006123ba85828601611bee565b92505060206123cb85828601611bee565b9150509250929050565b7f4e487b7100000000000000000000000000000000000000000000000000000000600052603260045260246000fd5b7f4e487b7100000000000000000000000000000000000000000000000000000000600052602260045260246000fd5b6000600282049050600182168061244b57607f821691505b6020821081141561245f5761245e612404565b5b50919050565b600081905092915050565b60008190508160005260206000209050919050565b6000815461249281612433565b61249c8186612465565b945060018216600081146124b757600181146124c8576124fb565b60ff198316865281860193506124fb565b6124d185612470565b60005b838110156124f3578154818901526001820191506020810190506124d4565b838801955050505b50505092915050565b60006125108284612485565b915081905092915050565b7f4e487b7100000000000000000000000000000000000000000000000000000000600052601160045260246000fd5b600061255582611e57565b91507fffffffffffffffffffffffffffffffffffffffffffffffffffffffffffffffff8214156125885761258761251b565b5b60018201905091905056fea264697066735822122046e760f855caaea8b54ff025a4727c983a0e576b9e122beae6840f21c74cfbb264736f6c634300080b0033",
  "immutableReferences": {},
  "source": "// SPDX-License-Identifier: MIT\r\npragma solidity >=0.4.22 <0.9.0;\r\n\r\n// Import cc contract cn thit  s dng\r\nimport \"./SmartCV_ListStudent.sol\";\r\nimport \"./SmartCV_ListBusiness.sol\";\r\nimport \"./SmartCV_Apply.sol\";\r\n\r\n// CV dnh cho sinh vin\r\ncontract StudentBusiness {\r\n\r\n    // Khai contract  import  s dng cc function  contract \r\n    ListStudent listStudent = new ListStudent();\r\n    ListBusiness listBusiness = new ListBusiness();\r\n    ApplyCV applyCV = new ApplyCV();\r\n\r\n    // ======================================\r\n    // ====== Chc nng cho sinh vin =======\r\n    // ======================================\r\n\r\n    // Chc nng thm thng tin sinh vin (ng k)\r\n    function addStudentProfile (\r\n        address _studentOwner,\r\n        string memory _name,\r\n        string memory _birthDay,\r\n        string memory _professionalTitle,\r\n        string memory _email,\r\n        string memory _github,\r\n        string memory _linkedin,\r\n        string memory _password) public {\r\n            listStudent.addSV(_studentOwner, _name, _birthDay, _professionalTitle, _email, _github, _linkedin, _password);\r\n    }\r\n\r\n    // Chc nng ly thng tin ca sinh vin\r\n    function getStudentProfile(address _studentOwner) public view returns(\r\n        address studentOwner, \r\n        string memory name, \r\n        string memory birthDay, \r\n        string memory professionalTitle, \r\n        string memory email, \r\n        string memory github, \r\n        string memory linkedin,\r\n        string memory password) {\r\n            return listStudent.getProfile(_studentOwner);\r\n    }\r\n\r\n    // Chc nng kim tra ti khon sinh vin c tn ti hay khng? (ng nhp)\r\n    function checkStudentProfile(\r\n        address _studentOwner, \r\n        string memory _password) public view returns(uint x) {\r\n            return listStudent.checkSV(_studentOwner, _password);\r\n    }\r\n\r\n    // Chc nng kim tra a ch sinh vin c tn ti hay khng?\r\n    function checkExistStudent(address _studentOwner) public view returns(uint x) {\r\n            return listStudent.checkExistSV(_studentOwner);\r\n    }\r\n\r\n    // Chc nng thm thng tin k nng ca sinh vin\r\n    function addStudentSkill (\r\n        address _studentOwner,\r\n        string memory _title, \r\n        uint _level) public {\r\n            listStudent.addSkill(_studentOwner, _title, _level);\r\n    }\r\n\r\n    // Chc nng kim tra k nng ca sinh vin c tn ti hay khng?\r\n    function checkStudentSkilll(\r\n        address _studentOwner, \r\n        string memory _title) public view returns(uint x) {\r\n            return listStudent.checkSkill(_studentOwner, _title);\r\n    }\r\n\r\n    // Chc nng kim tra s lng k nng ca sinh vin\r\n    function checkNumStudentSkilll(\r\n        address _studentOwner) public view returns(uint x) {\r\n            uint _count = listStudent.checkNumSkill(_studentOwner);\r\n            if(_count > 10){\r\n                return 1;\r\n            }\r\n    }\r\n\r\n    // Chc nng ly thng tin k nng ca sinh vin\r\n    function getStudentSkill(address _studentOwner) public view returns(\r\n        string[] memory titles,\r\n        uint[] memory levels) {\r\n        return listStudent.getSkill(_studentOwner);\r\n    }\r\n\r\n    // Chc nng ly danh sch doanh nghip\r\n    function getListBusiness() public view returns(\r\n        address[] memory,\r\n        string[] memory,\r\n        string[] memory,\r\n        string[] memory,\r\n        string[] memory,\r\n        string[] memory,\r\n        string[] memory,\r\n        string[] memory) {\r\n        return listBusiness.getListDN();\r\n    }\r\n\r\n    // Chc nng ly thng tin tuyn dng ca doanh nghip\r\n    function getRecruit(address _businessOwner) public view returns(\r\n        string[] memory,\r\n        string[] memory) {\r\n        return applyCV.getRecruit(_businessOwner);\r\n    }\r\n\r\n    // Chc nng gi CV ti doanh nghip\r\n    function sendCV(\r\n        address _studentOwner, \r\n        address _businessOwner, \r\n        string memory _jobTitle, \r\n        string memory _coverLetter) public {\r\n            applyCV.addCV(_studentOwner, _businessOwner, _jobTitle, _coverLetter);\r\n    }\r\n\r\n    // Chc nng kim tra sinh vin  np CV cha?\r\n    function checkCV(\r\n        address _studentOwner, \r\n        address _businessOwner, \r\n        string memory _jobTitle) public view returns(uint x) {\r\n            return applyCV.checkCV(_studentOwner, _businessOwner, _jobTitle);\r\n    }\r\n\r\n    // Chc nng xem nh gi thc tp ca doanh nghip\r\n    function getReview(\r\n        address _studentOwner, \r\n        address _businessOwner) public view returns(\r\n            address studentOwner, \r\n            address businessOwner, \r\n            string memory content) {\r\n                return applyCV.getReview(_studentOwner, _businessOwner);\r\n    }\r\n\r\n    // ======================================\r\n    // ===== Chc nng cho doanh nghip =====\r\n    // ======================================\r\n\r\n    // Chc nng thm thng tin doanh nghip (ng k)\r\n    function addBusinessProfile (\r\n        address _businessOwner,\r\n        string memory _name,\r\n        string memory _country,\r\n        string memory _facebook,\r\n        string memory _website,\r\n        string memory _linkedin,\r\n        string memory _focusArea,\r\n        string memory _password) public {\r\n            listBusiness.addDN(_businessOwner, _name, _country, _facebook, _website, _linkedin, _focusArea, _password);\r\n    }\r\n\r\n    // Chc nng ly thng tin ca doanh nghip\r\n    function getBusinessProfile(address _businessOwner) public view returns(\r\n        address businessOwner, \r\n        string memory name, \r\n        string memory country, \r\n        string memory facebook, \r\n        string memory website, \r\n        string memory linkedin, \r\n        string memory focusArea) {\r\n            return listBusiness.getProfile(_businessOwner);\r\n    }\r\n\r\n    // Chc nng kim tra ti khon doanh nghip c tn ti hay khng? (ng nhp)\r\n    function checkBusinessProfile(\r\n        address _businessOwner, \r\n        string memory _password) public view returns(uint) {\r\n            return listBusiness.checkDN(_businessOwner, _password);\r\n    }\r\n\r\n    // Chc nng kim tra a ch doanh nghip c tn ti hay khng?\r\n    function checkExistBusiness(address _businessOwner) public view returns(uint x) {\r\n            return listBusiness.checkExistDN(_businessOwner);\r\n    }\r\n\r\n    // Chc nng ly danh sch CV  np vo doanh nghip\r\n    function getListCV(address _businessOwner) public view returns(\r\n        address[] memory, \r\n        address[] memory, \r\n        string[] memory, \r\n        string[] memory,\r\n        string[] memory) {\r\n            return applyCV.getCV(_businessOwner);\r\n    }\r\n    \r\n    //Chc nng duyt CV vo vng interview\r\n    function interviewCV(\r\n        address _studentOwner, \r\n        address _businessOwner, \r\n        string memory _jobTitle,\r\n        string memory _statusCV) public {\r\n            applyCV.interviewCV(_studentOwner, _businessOwner, _jobTitle, _statusCV);\r\n    }\r\n\r\n    //Chc nng duyt CV vo vng onboard\r\n    function onboardCV(\r\n        address _studentOwner, \r\n        address _businessOwner, \r\n        string memory _jobTitle,\r\n        string memory _statusCV) public {\r\n            applyCV.onboardCV(_studentOwner, _businessOwner, _jobTitle, _statusCV);\r\n    }\r\n\r\n    // Chc nng thm thng tin tuyn dng ca doanh nghip\r\n    function addRecruit(\r\n        address _businessOwner,\r\n        string memory _jobTitle,\r\n        string memory _jobDescription) public {\r\n            applyCV.addRecruit(_businessOwner, _jobTitle, _jobDescription);\r\n    }\r\n\r\n    // Chc nng nh gi thc tp cho sinh vin\r\n    function sendReview(\r\n        address _studentOwner, \r\n        address _businessOwner, \r\n        string memory _content) public {\r\n            applyCV.addReview(_studentOwner, _businessOwner, _content);\r\n    }\r\n}",
  "sourcePath": "C:\\Users\\19520\\Documents\\NCKH_Blockchain\\SolidityProgramming\\ProjectResearch\\SmartCV\\SmartContract\\contracts\\SmartCV_StudentBusiness.sol",
  "compiler": {
    "name": "solc",
    "version": "0.8.11+commit.d7f03943.Emscripten.clang"
  },
  "schemaVersion": "3.4.4",
  "updatedAt": "2022-07-17T08:55:41.798Z",
  "networkType": "ethereum",
  "devdoc": {
    "kind": "dev",
    "methods": {},
    "version": 1
  },
  "userdoc": {
    "kind": "user",
    "methods": {},
    "version": 1
  }
}