{
  "contractName": "StudentBusiness",
  "abi": [
    {
      "inputs": [
        {
          "internalType": "address",
          "name": "_studentOwner",
          "type": "address"
        },
        {
          "internalType": "string",
          "name": "_name",
          "type": "string"
        },
        {
          "internalType": "string",
          "name": "_phoneNumber",
          "type": "string"
        },
        {
          "internalType": "string",
          "name": "_professionalTitle",
          "type": "string"
        },
        {
          "internalType": "string",
          "name": "_email",
          "type": "string"
        },
        {
          "internalType": "string",
          "name": "_github",
          "type": "string"
        },
        {
          "internalType": "string",
          "name": "_linkedin",
          "type": "string"
        },
        {
          "internalType": "string",
          "name": "_sourceImage",
          "type": "string"
        },
        {
          "internalType": "string",
          "name": "_password",
          "type": "string"
        }
      ],
      "name": "addStudentProfile",
      "outputs": [],
      "stateMutability": "nonpayable",
      "type": "function"
    },
    {
      "inputs": [
        {
          "internalType": "address",
          "name": "_studentOwner",
          "type": "address"
        },
        {
          "internalType": "string",
          "name": "_name",
          "type": "string"
        },
        {
          "internalType": "string",
          "name": "_phoneNumber",
          "type": "string"
        },
        {
          "internalType": "string",
          "name": "_professionalTitle",
          "type": "string"
        },
        {
          "internalType": "string",
          "name": "_email",
          "type": "string"
        },
        {
          "internalType": "string",
          "name": "_github",
          "type": "string"
        },
        {
          "internalType": "string",
          "name": "_linkedin",
          "type": "string"
        },
        {
          "internalType": "string",
          "name": "_sourceImage",
          "type": "string"
        }
      ],
      "name": "editStudentProfile",
      "outputs": [],
      "stateMutability": "nonpayable",
      "type": "function"
    },
    {
      "inputs": [
        {
          "internalType": "address",
          "name": "_studentOwner",
          "type": "address"
        }
      ],
      "name": "getStudentProfile",
      "outputs": [
        {
          "internalType": "address",
          "name": "studentOwner",
          "type": "address"
        },
        {
          "internalType": "string",
          "name": "name",
          "type": "string"
        },
        {
          "internalType": "string",
          "name": "phoneNumber",
          "type": "string"
        },
        {
          "internalType": "string",
          "name": "professionalTitle",
          "type": "string"
        },
        {
          "internalType": "string",
          "name": "email",
          "type": "string"
        },
        {
          "internalType": "string",
          "name": "github",
          "type": "string"
        },
        {
          "internalType": "string",
          "name": "linkedin",
          "type": "string"
        },
        {
          "internalType": "string",
          "name": "sourceImage",
          "type": "string"
        },
        {
          "internalType": "string",
          "name": "password",
          "type": "string"
        }
      ],
      "stateMutability": "view",
      "type": "function"
    },
    {
      "inputs": [
        {
          "internalType": "address",
          "name": "_studentOwner",
          "type": "address"
        },
        {
          "internalType": "string",
          "name": "_password",
          "type": "string"
        }
      ],
      "name": "checkStudentProfile",
      "outputs": [
        {
          "internalType": "uint256",
          "name": "x",
          "type": "uint256"
        }
      ],
      "stateMutability": "view",
      "type": "function"
    },
    {
      "inputs": [
        {
          "internalType": "address",
          "name": "_studentOwner",
          "type": "address"
        }
      ],
      "name": "checkExistStudent",
      "outputs": [
        {
          "internalType": "uint256",
          "name": "x",
          "type": "uint256"
        }
      ],
      "stateMutability": "view",
      "type": "function"
    },
    {
      "inputs": [
        {
          "internalType": "address",
          "name": "_studentOwner",
          "type": "address"
        },
        {
          "internalType": "string",
          "name": "_title",
          "type": "string"
        },
        {
          "internalType": "uint256",
          "name": "_level",
          "type": "uint256"
        }
      ],
      "name": "addStudentSkill",
      "outputs": [],
      "stateMutability": "nonpayable",
      "type": "function"
    },
    {
      "inputs": [
        {
          "internalType": "address",
          "name": "_studentOwner",
          "type": "address"
        },
        {
          "internalType": "string",
          "name": "_title",
          "type": "string"
        },
        {
          "internalType": "uint256",
          "name": "_level",
          "type": "uint256"
        }
      ],
      "name": "editStudentSkill",
      "outputs": [],
      "stateMutability": "nonpayable",
      "type": "function"
    },
    {
      "inputs": [
        {
          "internalType": "address",
          "name": "_studentOwner",
          "type": "address"
        },
        {
          "internalType": "string",
          "name": "_title",
          "type": "string"
        }
      ],
      "name": "checkStudentSkill",
      "outputs": [
        {
          "internalType": "uint256",
          "name": "x",
          "type": "uint256"
        }
      ],
      "stateMutability": "view",
      "type": "function"
    },
    {
      "inputs": [
        {
          "internalType": "address",
          "name": "_studentOwner",
          "type": "address"
        }
      ],
      "name": "checkNumStudentSkill",
      "outputs": [
        {
          "internalType": "uint256",
          "name": "x",
          "type": "uint256"
        }
      ],
      "stateMutability": "view",
      "type": "function"
    },
    {
      "inputs": [
        {
          "internalType": "address",
          "name": "_studentOwner",
          "type": "address"
        }
      ],
      "name": "getStudentSkill",
      "outputs": [
        {
          "internalType": "string[]",
          "name": "titles",
          "type": "string[]"
        },
        {
          "internalType": "uint256[]",
          "name": "levels",
          "type": "uint256[]"
        }
      ],
      "stateMutability": "view",
      "type": "function"
    },
    {
      "inputs": [
        {
          "internalType": "address",
          "name": "_studentOwner",
          "type": "address"
        },
        {
          "internalType": "string",
          "name": "_institution",
          "type": "string"
        },
        {
          "internalType": "string",
          "name": "_focusArea",
          "type": "string"
        },
        {
          "internalType": "string",
          "name": "_startTime",
          "type": "string"
        },
        {
          "internalType": "string",
          "name": "_finishTime",
          "type": "string"
        },
        {
          "internalType": "string",
          "name": "_gpa",
          "type": "string"
        }
      ],
      "name": "addStudentEducation",
      "outputs": [],
      "stateMutability": "nonpayable",
      "type": "function"
    },
    {
      "inputs": [
        {
          "internalType": "address",
          "name": "_studentOwner",
          "type": "address"
        },
        {
          "internalType": "string",
          "name": "_institution",
          "type": "string"
        },
        {
          "internalType": "string",
          "name": "_focusArea",
          "type": "string"
        },
        {
          "internalType": "string",
          "name": "_startTime",
          "type": "string"
        },
        {
          "internalType": "string",
          "name": "_finishTime",
          "type": "string"
        },
        {
          "internalType": "string",
          "name": "_gpa",
          "type": "string"
        }
      ],
      "name": "editStudentEducation",
      "outputs": [],
      "stateMutability": "nonpayable",
      "type": "function"
    },
    {
      "inputs": [
        {
          "internalType": "address",
          "name": "_studentOwner",
          "type": "address"
        },
        {
          "internalType": "string",
          "name": "_institution",
          "type": "string"
        },
        {
          "internalType": "string",
          "name": "_focusArea",
          "type": "string"
        }
      ],
      "name": "checkStudentEducation",
      "outputs": [
        {
          "internalType": "uint256",
          "name": "x",
          "type": "uint256"
        }
      ],
      "stateMutability": "view",
      "type": "function"
    },
    {
      "inputs": [
        {
          "internalType": "address",
          "name": "_studentOwner",
          "type": "address"
        }
      ],
      "name": "getStudentEducation",
      "outputs": [
        {
          "internalType": "string[]",
          "name": "",
          "type": "string[]"
        },
        {
          "internalType": "string[]",
          "name": "",
          "type": "string[]"
        },
        {
          "internalType": "string[]",
          "name": "",
          "type": "string[]"
        },
        {
          "internalType": "string[]",
          "name": "",
          "type": "string[]"
        },
        {
          "internalType": "string[]",
          "name": "",
          "type": "string[]"
        }
      ],
      "stateMutability": "view",
      "type": "function"
    },
    {
      "inputs": [],
      "name": "getListBusiness",
      "outputs": [
        {
          "internalType": "address[]",
          "name": "",
          "type": "address[]"
        },
        {
          "internalType": "string[]",
          "name": "",
          "type": "string[]"
        },
        {
          "internalType": "string[]",
          "name": "",
          "type": "string[]"
        },
        {
          "internalType": "string[]",
          "name": "",
          "type": "string[]"
        },
        {
          "internalType": "string[]",
          "name": "",
          "type": "string[]"
        },
        {
          "internalType": "string[]",
          "name": "",
          "type": "string[]"
        },
        {
          "internalType": "string[]",
          "name": "",
          "type": "string[]"
        },
        {
          "internalType": "string[]",
          "name": "",
          "type": "string[]"
        }
      ],
      "stateMutability": "view",
      "type": "function"
    },
    {
      "inputs": [
        {
          "internalType": "address",
          "name": "_businessOwner",
          "type": "address"
        }
      ],
      "name": "getRecruit",
      "outputs": [
        {
          "internalType": "bytes32[]",
          "name": "",
          "type": "bytes32[]"
        },
        {
          "internalType": "string[]",
          "name": "",
          "type": "string[]"
        },
        {
          "internalType": "string[]",
          "name": "",
          "type": "string[]"
        },
        {
          "internalType": "string[]",
          "name": "",
          "type": "string[]"
        },
        {
          "internalType": "uint256[]",
          "name": "",
          "type": "uint256[]"
        }
      ],
      "stateMutability": "view",
      "type": "function"
    },
    {
      "inputs": [
        {
          "internalType": "address",
          "name": "_studentOwner",
          "type": "address"
        },
        {
          "internalType": "address",
          "name": "_businessOwner",
          "type": "address"
        },
        {
          "internalType": "string",
          "name": "_jobTitle",
          "type": "string"
        },
        {
          "internalType": "string",
          "name": "_coverLetter",
          "type": "string"
        }
      ],
      "name": "sendCV",
      "outputs": [],
      "stateMutability": "nonpayable",
      "type": "function"
    },
    {
      "inputs": [
        {
          "internalType": "address",
          "name": "_studentOwner",
          "type": "address"
        },
        {
          "internalType": "address",
          "name": "_businessOwner",
          "type": "address"
        },
        {
          "internalType": "string",
          "name": "_jobTitle",
          "type": "string"
        }
      ],
      "name": "checkCV",
      "outputs": [
        {
          "internalType": "uint256",
          "name": "x",
          "type": "uint256"
        }
      ],
      "stateMutability": "view",
      "type": "function"
    },
    {
      "inputs": [
        {
          "internalType": "address",
          "name": "_studentOwner",
          "type": "address"
        },
        {
          "internalType": "address",
          "name": "_businessOwner",
          "type": "address"
        }
      ],
      "name": "getReview",
      "outputs": [
        {
          "internalType": "address",
          "name": "studentOwner",
          "type": "address"
        },
        {
          "internalType": "address",
          "name": "businessOwner",
          "type": "address"
        },
        {
          "internalType": "string",
          "name": "content",
          "type": "string"
        }
      ],
      "stateMutability": "view",
      "type": "function"
    },
    {
      "inputs": [
        {
          "internalType": "address",
          "name": "_businessOwner",
          "type": "address"
        },
        {
          "internalType": "string",
          "name": "_name",
          "type": "string"
        },
        {
          "internalType": "string",
          "name": "_country",
          "type": "string"
        },
        {
          "internalType": "string",
          "name": "_facebook",
          "type": "string"
        },
        {
          "internalType": "string",
          "name": "_website",
          "type": "string"
        },
        {
          "internalType": "string",
          "name": "_linkedin",
          "type": "string"
        },
        {
          "internalType": "string",
          "name": "_focusArea",
          "type": "string"
        },
        {
          "internalType": "string",
          "name": "_password",
          "type": "string"
        }
      ],
      "name": "addBusinessProfile",
      "outputs": [],
      "stateMutability": "nonpayable",
      "type": "function"
    },
    {
      "inputs": [
        {
          "internalType": "address",
          "name": "_businessOwner",
          "type": "address"
        },
        {
          "internalType": "string",
          "name": "_name",
          "type": "string"
        },
        {
          "internalType": "string",
          "name": "_country",
          "type": "string"
        },
        {
          "internalType": "string",
          "name": "_facebook",
          "type": "string"
        },
        {
          "internalType": "string",
          "name": "_website",
          "type": "string"
        },
        {
          "internalType": "string",
          "name": "_linkedin",
          "type": "string"
        },
        {
          "internalType": "string",
          "name": "_focusArea",
          "type": "string"
        }
      ],
      "name": "editBusinessProfile",
      "outputs": [],
      "stateMutability": "nonpayable",
      "type": "function"
    },
    {
      "inputs": [
        {
          "internalType": "address",
          "name": "_businessOwner",
          "type": "address"
        }
      ],
      "name": "getBusinessProfile",
      "outputs": [
        {
          "internalType": "address",
          "name": "businessOwner",
          "type": "address"
        },
        {
          "internalType": "string",
          "name": "name",
          "type": "string"
        },
        {
          "internalType": "string",
          "name": "country",
          "type": "string"
        },
        {
          "internalType": "string",
          "name": "facebook",
          "type": "string"
        },
        {
          "internalType": "string",
          "name": "website",
          "type": "string"
        },
        {
          "internalType": "string",
          "name": "linkedin",
          "type": "string"
        },
        {
          "internalType": "string",
          "name": "focusArea",
          "type": "string"
        }
      ],
      "stateMutability": "view",
      "type": "function"
    },
    {
      "inputs": [
        {
          "internalType": "address",
          "name": "_businessOwner",
          "type": "address"
        },
        {
          "internalType": "string",
          "name": "_password",
          "type": "string"
        }
      ],
      "name": "checkBusinessProfile",
      "outputs": [
        {
          "internalType": "uint256",
          "name": "",
          "type": "uint256"
        }
      ],
      "stateMutability": "view",
      "type": "function"
    },
    {
      "inputs": [
        {
          "internalType": "address",
          "name": "_businessOwner",
          "type": "address"
        }
      ],
      "name": "checkExistBusiness",
      "outputs": [
        {
          "internalType": "uint256",
          "name": "x",
          "type": "uint256"
        }
      ],
      "stateMutability": "view",
      "type": "function"
    },
    {
      "inputs": [
        {
          "internalType": "address",
          "name": "_businessOwner",
          "type": "address"
        }
      ],
      "name": "getListCV",
      "outputs": [
        {
          "internalType": "address[]",
          "name": "",
          "type": "address[]"
        },
        {
          "internalType": "address[]",
          "name": "",
          "type": "address[]"
        },
        {
          "internalType": "string[]",
          "name": "",
          "type": "string[]"
        },
        {
          "internalType": "string[]",
          "name": "",
          "type": "string[]"
        },
        {
          "internalType": "string[]",
          "name": "",
          "type": "string[]"
        }
      ],
      "stateMutability": "view",
      "type": "function"
    },
    {
      "inputs": [
        {
          "internalType": "address",
          "name": "_studentOwner",
          "type": "address"
        },
        {
          "internalType": "address",
          "name": "_businessOwner",
          "type": "address"
        },
        {
          "internalType": "string",
          "name": "_jobTitle",
          "type": "string"
        },
        {
          "internalType": "string",
          "name": "_statusCV",
          "type": "string"
        }
      ],
      "name": "interviewCV",
      "outputs": [],
      "stateMutability": "nonpayable",
      "type": "function"
    },
    {
      "inputs": [
        {
          "internalType": "address",
          "name": "_studentOwner",
          "type": "address"
        },
        {
          "internalType": "address",
          "name": "_businessOwner",
          "type": "address"
        },
        {
          "internalType": "string",
          "name": "_jobTitle",
          "type": "string"
        },
        {
          "internalType": "string",
          "name": "_statusCV",
          "type": "string"
        }
      ],
      "name": "onboardCV",
      "outputs": [],
      "stateMutability": "nonpayable",
      "type": "function"
    },
    {
      "inputs": [
        {
          "internalType": "address",
          "name": "_businessOwner",
          "type": "address"
        },
        {
          "internalType": "string",
          "name": "_jobTitle",
          "type": "string"
        },
        {
          "internalType": "string",
          "name": "_jobDescription",
          "type": "string"
        },
        {
          "internalType": "string",
          "name": "_recruitDate",
          "type": "string"
        },
        {
          "internalType": "uint256",
          "name": "_amount",
          "type": "uint256"
        }
      ],
      "name": "addRecruit",
      "outputs": [],
      "stateMutability": "nonpayable",
      "type": "function"
    },
    {
      "inputs": [
        {
          "internalType": "address",
          "name": "_businessOwner",
          "type": "address"
        },
        {
          "internalType": "string",
          "name": "_jobTitle",
          "type": "string"
        },
        {
          "internalType": "string",
          "name": "_recruitDate",
          "type": "string"
        }
      ],
      "name": "checkAmountBusinessRecruit",
      "outputs": [
        {
          "internalType": "uint256",
          "name": "x",
          "type": "uint256"
        }
      ],
      "stateMutability": "view",
      "type": "function"
    },
    {
      "inputs": [
        {
          "internalType": "address",
          "name": "_studentOwner",
          "type": "address"
        },
        {
          "internalType": "address",
          "name": "_businessOwner",
          "type": "address"
        },
        {
          "internalType": "string",
          "name": "_content",
          "type": "string"
        }
      ],
      "name": "sendReview",
      "outputs": [],
      "stateMutability": "nonpayable",
      "type": "function"
    },
    {
      "inputs": [
        {
          "internalType": "address",
          "name": "_iigOwner",
          "type": "address"
        },
        {
          "internalType": "string",
          "name": "_name",
          "type": "string"
        },
        {
          "internalType": "string",
          "name": "_country",
          "type": "string"
        },
        {
          "internalType": "string",
          "name": "_facebook",
          "type": "string"
        },
        {
          "internalType": "string",
          "name": "_website",
          "type": "string"
        },
        {
          "internalType": "string",
          "name": "_linkedin",
          "type": "string"
        },
        {
          "internalType": "string",
          "name": "_password",
          "type": "string"
        }
      ],
      "name": "addIIGProfile",
      "outputs": [],
      "stateMutability": "nonpayable",
      "type": "function"
    },
    {
      "inputs": [
        {
          "internalType": "address",
          "name": "_iigOwner",
          "type": "address"
        },
        {
          "internalType": "string",
          "name": "_name",
          "type": "string"
        },
        {
          "internalType": "string",
          "name": "_country",
          "type": "string"
        },
        {
          "internalType": "string",
          "name": "_facebook",
          "type": "string"
        },
        {
          "internalType": "string",
          "name": "_website",
          "type": "string"
        },
        {
          "internalType": "string",
          "name": "_linkedin",
          "type": "string"
        }
      ],
      "name": "editIIGProfile",
      "outputs": [],
      "stateMutability": "nonpayable",
      "type": "function"
    },
    {
      "inputs": [],
      "name": "getListIIG",
      "outputs": [
        {
          "internalType": "address[]",
          "name": "",
          "type": "address[]"
        },
        {
          "internalType": "string[]",
          "name": "",
          "type": "string[]"
        },
        {
          "internalType": "string[]",
          "name": "",
          "type": "string[]"
        },
        {
          "internalType": "string[]",
          "name": "",
          "type": "string[]"
        },
        {
          "internalType": "string[]",
          "name": "",
          "type": "string[]"
        },
        {
          "internalType": "string[]",
          "name": "",
          "type": "string[]"
        },
        {
          "internalType": "string[]",
          "name": "",
          "type": "string[]"
        }
      ],
      "stateMutability": "view",
      "type": "function"
    },
    {
      "inputs": [
        {
          "internalType": "address",
          "name": "_iigOwner",
          "type": "address"
        }
      ],
      "name": "getIIGProfile",
      "outputs": [
        {
          "internalType": "address",
          "name": "iigOwner",
          "type": "address"
        },
        {
          "internalType": "string",
          "name": "name",
          "type": "string"
        },
        {
          "internalType": "string",
          "name": "country",
          "type": "string"
        },
        {
          "internalType": "string",
          "name": "facebook",
          "type": "string"
        },
        {
          "internalType": "string",
          "name": "website",
          "type": "string"
        },
        {
          "internalType": "string",
          "name": "linkedin",
          "type": "string"
        }
      ],
      "stateMutability": "view",
      "type": "function"
    },
    {
      "inputs": [
        {
          "internalType": "address",
          "name": "_iigOwner",
          "type": "address"
        },
        {
          "internalType": "string",
          "name": "_password",
          "type": "string"
        }
      ],
      "name": "checkIIGProfile",
      "outputs": [
        {
          "internalType": "uint256",
          "name": "",
          "type": "uint256"
        }
      ],
      "stateMutability": "view",
      "type": "function"
    },
    {
      "inputs": [
        {
          "internalType": "address",
          "name": "_iigOwner",
          "type": "address"
        }
      ],
      "name": "checkExistIIG",
      "outputs": [
        {
          "internalType": "uint256",
          "name": "x",
          "type": "uint256"
        }
      ],
      "stateMutability": "view",
      "type": "function"
    },
    {
      "inputs": [
        {
          "internalType": "address",
          "name": "_studentOwner",
          "type": "address"
        },
        {
          "internalType": "address",
          "name": "_iigOwner",
          "type": "address"
        },
        {
          "internalType": "string",
          "name": "_identityCard",
          "type": "string"
        },
        {
          "internalType": "string",
          "name": "_requestDate",
          "type": "string"
        }
      ],
      "name": "sendIIGRequest",
      "outputs": [],
      "stateMutability": "nonpayable",
      "type": "function"
    },
    {
      "inputs": [
        {
          "internalType": "address",
          "name": "_iigOwner",
          "type": "address"
        }
      ],
      "name": "getListIIGRequest",
      "outputs": [
        {
          "internalType": "bytes32[]",
          "name": "",
          "type": "bytes32[]"
        },
        {
          "internalType": "address[]",
          "name": "",
          "type": "address[]"
        },
        {
          "internalType": "address[]",
          "name": "",
          "type": "address[]"
        },
        {
          "internalType": "string[]",
          "name": "",
          "type": "string[]"
        },
        {
          "internalType": "string[]",
          "name": "",
          "type": "string[]"
        },
        {
          "internalType": "string[]",
          "name": "",
          "type": "string[]"
        }
      ],
      "stateMutability": "view",
      "type": "function"
    },
    {
      "inputs": [
        {
          "internalType": "address",
          "name": "_iigOwner",
          "type": "address"
        },
        {
          "internalType": "address",
          "name": "_studentOwner",
          "type": "address"
        }
      ],
      "name": "getListIIGRequestStudent",
      "outputs": [
        {
          "internalType": "bytes32[]",
          "name": "",
          "type": "bytes32[]"
        },
        {
          "internalType": "address[]",
          "name": "",
          "type": "address[]"
        },
        {
          "internalType": "address[]",
          "name": "",
          "type": "address[]"
        },
        {
          "internalType": "string[]",
          "name": "",
          "type": "string[]"
        },
        {
          "internalType": "string[]",
          "name": "",
          "type": "string[]"
        },
        {
          "internalType": "string[]",
          "name": "",
          "type": "string[]"
        }
      ],
      "stateMutability": "view",
      "type": "function"
    },
    {
      "inputs": [
        {
          "internalType": "address",
          "name": "_studentOwner",
          "type": "address"
        },
        {
          "internalType": "address",
          "name": "_iigOwner",
          "type": "address"
        },
        {
          "internalType": "bytes32",
          "name": "_codeRequest",
          "type": "bytes32"
        }
      ],
      "name": "confirmIIGRequest",
      "outputs": [],
      "stateMutability": "nonpayable",
      "type": "function"
    },
    {
      "inputs": [
        {
          "internalType": "address",
          "name": "_studentOwner",
          "type": "address"
        },
        {
          "internalType": "address",
          "name": "_iigOwner",
          "type": "address"
        },
        {
          "internalType": "bytes32",
          "name": "_codeRequest",
          "type": "bytes32"
        }
      ],
      "name": "declineIIGRequest",
      "outputs": [],
      "stateMutability": "nonpayable",
      "type": "function"
    },
    {
      "inputs": [
        {
          "internalType": "address",
          "name": "_iigOwner",
          "type": "address"
        },
        {
          "internalType": "address",
          "name": "_studentOwner",
          "type": "address"
        },
        {
          "internalType": "string",
          "name": "_testDate",
          "type": "string"
        },
        {
          "internalType": "string",
          "name": "_shiftTest",
          "type": "string"
        },
        {
          "internalType": "string",
          "name": "_expireDate",
          "type": "string"
        },
        {
          "internalType": "uint256",
          "name": "_listeningScore",
          "type": "uint256"
        },
        {
          "internalType": "uint256",
          "name": "_readingScore",
          "type": "uint256"
        }
      ],
      "name": "addIIGLRResult",
      "outputs": [],
      "stateMutability": "nonpayable",
      "type": "function"
    },
    {
      "inputs": [
        {
          "internalType": "address",
          "name": "_iigOwner",
          "type": "address"
        },
        {
          "internalType": "address",
          "name": "_studentOwner",
          "type": "address"
        },
        {
          "internalType": "string",
          "name": "_testDate",
          "type": "string"
        },
        {
          "internalType": "string",
          "name": "_shiftTest",
          "type": "string"
        },
        {
          "internalType": "string",
          "name": "_expireDate",
          "type": "string"
        },
        {
          "internalType": "uint256",
          "name": "_speakingScore",
          "type": "uint256"
        },
        {
          "internalType": "uint256",
          "name": "_writingScore",
          "type": "uint256"
        }
      ],
      "name": "addIIGSWResult",
      "outputs": [],
      "stateMutability": "nonpayable",
      "type": "function"
    },
    {
      "inputs": [
        {
          "internalType": "address",
          "name": "_iigOwner",
          "type": "address"
        },
        {
          "internalType": "address",
          "name": "_studentOwner",
          "type": "address"
        }
      ],
      "name": "getListIIGLRResult",
      "outputs": [
        {
          "internalType": "string[]",
          "name": "",
          "type": "string[]"
        },
        {
          "internalType": "string[]",
          "name": "",
          "type": "string[]"
        },
        {
          "internalType": "string[]",
          "name": "",
          "type": "string[]"
        },
        {
          "internalType": "uint256[]",
          "name": "",
          "type": "uint256[]"
        },
        {
          "internalType": "uint256[]",
          "name": "",
          "type": "uint256[]"
        },
        {
          "internalType": "uint256[]",
          "name": "",
          "type": "uint256[]"
        }
      ],
      "stateMutability": "view",
      "type": "function"
    },
    {
      "inputs": [
        {
          "internalType": "address",
          "name": "_iigOwner",
          "type": "address"
        },
        {
          "internalType": "address",
          "name": "_studentOwner",
          "type": "address"
        }
      ],
      "name": "getListIIGSWResult",
      "outputs": [
        {
          "internalType": "string[]",
          "name": "",
          "type": "string[]"
        },
        {
          "internalType": "string[]",
          "name": "",
          "type": "string[]"
        },
        {
          "internalType": "string[]",
          "name": "",
          "type": "string[]"
        },
        {
          "internalType": "uint256[]",
          "name": "",
          "type": "uint256[]"
        },
        {
          "internalType": "uint256[]",
          "name": "",
          "type": "uint256[]"
        },
        {
          "internalType": "uint256[]",
          "name": "",
          "type": "uint256[]"
        }
      ],
      "stateMutability": "view",
      "type": "function"
    },
    {
      "inputs": [
        {
          "internalType": "address",
          "name": "_iigOwner",
          "type": "address"
        },
        {
          "internalType": "address",
          "name": "_studentOwner",
          "type": "address"
        },
        {
          "internalType": "string",
          "name": "_testDate",
          "type": "string"
        },
        {
          "internalType": "string",
          "name": "_shiftTest",
          "type": "string"
        }
      ],
      "name": "getIIGLRResult",
      "outputs": [
        {
          "internalType": "string",
          "name": "testDate",
          "type": "string"
        },
        {
          "internalType": "string",
          "name": "shiftTest",
          "type": "string"
        },
        {
          "internalType": "string",
          "name": "expireDate",
          "type": "string"
        },
        {
          "internalType": "uint256",
          "name": "listeningScore",
          "type": "uint256"
        },
        {
          "internalType": "uint256",
          "name": "readingScore",
          "type": "uint256"
        },
        {
          "internalType": "uint256",
          "name": "totalScore",
          "type": "uint256"
        }
      ],
      "stateMutability": "view",
      "type": "function"
    },
    {
      "inputs": [
        {
          "internalType": "address",
          "name": "_iigOwner",
          "type": "address"
        },
        {
          "internalType": "address",
          "name": "_studentOwner",
          "type": "address"
        },
        {
          "internalType": "string",
          "name": "_testDate",
          "type": "string"
        },
        {
          "internalType": "string",
          "name": "_shiftTest",
          "type": "string"
        }
      ],
      "name": "getIIGSWResult",
      "outputs": [
        {
          "internalType": "string",
          "name": "testDate",
          "type": "string"
        },
        {
          "internalType": "string",
          "name": "shiftTest",
          "type": "string"
        },
        {
          "internalType": "string",
          "name": "expireDate",
          "type": "string"
        },
        {
          "internalType": "uint256",
          "name": "speakingScore",
          "type": "uint256"
        },
        {
          "internalType": "uint256",
          "name": "writingScore",
          "type": "uint256"
        },
        {
          "internalType": "uint256",
          "name": "totalScore",
          "type": "uint256"
        }
      ],
      "stateMutability": "view",
      "type": "function"
    },
    {
      "inputs": [
        {
          "internalType": "address",
          "name": "_studentOwner",
          "type": "address"
        },
        {
          "internalType": "string",
          "name": "_testDate",
          "type": "string"
        },
        {
          "internalType": "string",
          "name": "_shiftTest",
          "type": "string"
        }
      ],
      "name": "checkExistIIGLRResult",
      "outputs": [
        {
          "internalType": "uint256",
          "name": "x",
          "type": "uint256"
        }
      ],
      "stateMutability": "view",
      "type": "function"
    },
    {
      "inputs": [
        {
          "internalType": "address",
          "name": "_studentOwner",
          "type": "address"
        },
        {
          "internalType": "string",
          "name": "_testDate",
          "type": "string"
        },
        {
          "internalType": "string",
          "name": "_shiftTest",
          "type": "string"
        }
      ],
      "name": "checkExistIIGSWResult",
      "outputs": [
        {
          "internalType": "uint256",
          "name": "x",
          "type": "uint256"
        }
      ],
      "stateMutability": "view",
      "type": "function"
    }
  ],
  "bytecode": "0x60806040526040516200001290620001c7565b604051809103906000f0801580156200002f573d6000803e3d6000fd5b506000806101000a81548173ffffffffffffffffffffffffffffffffffffffff021916908373ffffffffffffffffffffffffffffffffffffffff1602179055506040516200007d90620001d5565b604051809103906000f0801580156200009a573d6000803e3d6000fd5b50600160006101000a81548173ffffffffffffffffffffffffffffffffffffffff021916908373ffffffffffffffffffffffffffffffffffffffff160217905550604051620000e990620001e3565b604051809103906000f08015801562000106573d6000803e3d6000fd5b50600260006101000a81548173ffffffffffffffffffffffffffffffffffffffff021916908373ffffffffffffffffffffffffffffffffffffffff1602179055506040516200015590620001f1565b604051809103906000f08015801562000172573d6000803e3d6000fd5b50600360006101000a81548173ffffffffffffffffffffffffffffffffffffffff021916908373ffffffffffffffffffffffffffffffffffffffff160217905550348015620001c057600080fd5b50620001ff565b6145ae8062005b0283390190565b612630806200a0b083390190565b6165c6806200c6e083390190565b612f698062012ca683390190565b6158f3806200020f6000396000f3fe608060405234801561001057600080fd5b50600436106102ba5760003560e01c8063798fc53b11610182578063bc10454b116100e9578063e70c789c116100a2578063f4b7ec971161007c578063f4b7ec97146109e8578063f7a7394c14610a18578063f7a7b83d14610a34578063fe76178314610a50576102ba565b8063e70c789c14610965578063e9daa70a1461099a578063f1eb2431146109cc576102ba565b8063bc10454b14610864578063ce1ec5bb14610894578063ce4dd73f146108c8578063d2f9858f146108f8578063e28327211461092d578063e2f43af214610949576102ba565b806391b9e6db1161013b57806391b9e6db1461075e5780639cd325821461077a578063a2e47239146107ae578063a3e7ae28146107e3578063acf6f3fd14610818578063b9b91c4e14610848576102ba565b8063798fc53b146106865780637e211fc5146106a257806381f690ee146106be578063844bb460146106ee57806384ae91311461070a578063873dcd291461072e576102ba565b8063415db95511610226578063638f64f5116101df578063638f64f5146105975780636b4dbb28146105cc5780636d53448f146105fd5780636f57524c1461061957806372329e231461063557806376a9409f14610651576102ba565b8063415db955146104a057806342f08d4b146104d457806344fd6e221461050a5780634e1f4f821461053a57806357824f1614610556578063638972161461057b576102ba565b806319ad872f1161027857806319ad872f146103bc57806324c5f368146103d85780632df96bfc146103f4578063313604e71461042457806335c77f851461044057806339d92c4c14610470576102ba565b80624e56cf146102bf5780630299779f146102db5780630ac68f371461030b5780630e966efd1461033b57806311345a20146103705780631632dd98146103a0575b600080fd5b6102d960048036038101906102d49190612db9565b610a88565b005b6102f560048036038101906102f09190612e58565b610b20565b6040516103029190612ee0565b60405180910390f35b61032560048036038101906103209190612efb565b610bcb565b6040516103329190612ee0565b60405180910390f35b61035560048036038101906103509190612f57565b610c72565b60405161036796959493929190613254565b60405180910390f35b61038a60048036038101906103859190612f57565b610d31565b6040516103979190612ee0565b60405180910390f35b6103ba60048036038101906103b59190612e58565b610dd5565b005b6103d660048036038101906103d1919061330b565b610e6b565b005b6103f260048036038101906103ed9190613401565b610f0c565b005b61040e60048036038101906104099190612f57565b610fab565b60405161041b9190612ee0565b60405180910390f35b61043e60048036038101906104399190613401565b611064565b005b61045a60048036038101906104559190612efb565b611101565b6040516104679190612ee0565b60405180910390f35b61048a60048036038101906104859190612f57565b6111a9565b6040516104979190612ee0565b60405180910390f35b6104ba60048036038101906104b59190612f57565b61124e565b6040516104cb95949392919061351a565b60405180910390f35b6104ee60048036038101906104e99190612f57565b611308565b60405161050197969594939291906135e9565b60405180910390f35b610524600480360381019061051f9190612f57565b6113cd565b6040516105319190612ee0565b60405180910390f35b610554600480360381019061054f9190612db9565b611472565b005b61055e61150b565b604051610572989796959493929190613682565b60405180910390f35b61059560048036038101906105909190613738565b6115c7565b005b6105b160048036038101906105ac9190612db9565b61166a565b6040516105c3969594939291906138b2565b60405180910390f35b6105e660048036038101906105e19190612f57565b611734565b6040516105f49291906139e6565b60405180910390f35b61061760048036038101906106129190613738565b6117df565b005b610633600480360381019061062e9190613a1d565b611884565b005b61064f600480360381019061064a9190613b93565b611926565b005b61066b60048036038101906106669190613be6565b6119bc565b60405161067d96959493929190613c26565b60405180910390f35b6106a0600480360381019061069b9190613401565b611a7e565b005b6106bc60048036038101906106b7919061330b565b611b1b565b005b6106d860048036038101906106d39190613cb1565b611bbd565b6040516106e59190612ee0565b60405180910390f35b61070860048036038101906107039190612db9565b611c68565b005b610712611d01565b6040516107259796959493929190613d3c565b60405180910390f35b61074860048036038101906107439190612efb565b611db9565b6040516107559190612ee0565b60405180910390f35b61077860048036038101906107739190612db9565b611e61565b005b610794600480360381019061078f9190612f57565b611efa565b6040516107a5959493929190613ddc565b60405180910390f35b6107c860048036038101906107c39190612db9565b611fb6565b6040516107da969594939291906138b2565b60405180910390f35b6107fd60048036038101906107f89190613be6565b612080565b60405161080f96959493929190613254565b60405180910390f35b610832600480360381019061082d9190612efb565b612142565b60405161083f9190612ee0565b60405180910390f35b610862600480360381019061085d9190613b93565b6121e9565b005b61087e60048036038101906108799190613cb1565b61227f565b60405161088b9190612ee0565b60405180910390f35b6108ae60048036038101906108a99190612f57565b612329565b6040516108bf959493929190613e52565b60405180910390f35b6108e260048036038101906108dd9190613cb1565b6123e5565b6040516108ef9190612ee0565b60405180910390f35b610912600480360381019061090d9190612f57565b612490565b60405161092496959493929190613ec8565b60405180910390f35b61094760048036038101906109429190613a1d565b612550565b005b610963600480360381019061095e9190613f4c565b6125f2565b005b61097f600480360381019061097a9190613be6565b612686565b60405161099196959493929190613c26565b60405180910390f35b6109b460048036038101906109af9190613be6565b612748565b6040516109c393929190613fbb565b60405180910390f35b6109e660048036038101906109e19190613f4c565b6127fd565b005b610a0260048036038101906109fd9190613cb1565b612891565b604051610a0f9190612ee0565b60405180910390f35b610a326004803603810190610a2d9190613ff9565b6129f3565b005b610a4e6004803603810190610a4991906141a3565b612a99565b005b610a6a6004803603810190610a659190612f57565b612b35565b604051610a7f99989796959493929190614272565b60405180910390f35b600360009054906101000a900473ffffffffffffffffffffffffffffffffffffffff1673ffffffffffffffffffffffffffffffffffffffff16624e56cf858585856040518563ffffffff1660e01b8152600401610ae89493929190614337565b600060405180830381600087803b158015610b0257600080fd5b505af1158015610b16573d6000803e3d6000fd5b5050505050505050565b6000600360009054906101000a900473ffffffffffffffffffffffffffffffffffffffff1673ffffffffffffffffffffffffffffffffffffffff16630299779f8585856040518463ffffffff1660e01b8152600401610b8193929190613fbb565b602060405180830381865afa158015610b9e573d6000803e3d6000fd5b505050506040513d601f19601f82011682018060405250810190610bc2919061439f565b90509392505050565b60008060009054906101000a900473ffffffffffffffffffffffffffffffffffffffff1673ffffffffffffffffffffffffffffffffffffffff1663716b5ab484846040518363ffffffff1660e01b8152600401610c299291906143cc565b602060405180830381865afa158015610c46573d6000803e3d6000fd5b505050506040513d601f19601f82011682018060405250810190610c6a919061439f565b905092915050565b606080606080606080600260009054906101000a900473ffffffffffffffffffffffffffffffffffffffff1673ffffffffffffffffffffffffffffffffffffffff16639fa7247a886040518263ffffffff1660e01b8152600401610cd691906143fc565b600060405180830381865afa158015610cf3573d6000803e3d6000fd5b505050506040513d6000823e3d601f19601f82011682018060405250810190610d1c919061471d565b95509550955095509550955091939550919395565b60008060009054906101000a900473ffffffffffffffffffffffffffffffffffffffff1673ffffffffffffffffffffffffffffffffffffffff1663961ecb5b836040518263ffffffff1660e01b8152600401610d8d91906143fc565b602060405180830381865afa158015610daa573d6000803e3d6000fd5b505050506040513d601f19601f82011682018060405250810190610dce919061439f565b9050919050565b600360009054906101000a900473ffffffffffffffffffffffffffffffffffffffff1673ffffffffffffffffffffffffffffffffffffffff1663ae8f00d38484846040518463ffffffff1660e01b8152600401610e3493929190613fbb565b600060405180830381600087803b158015610e4e57600080fd5b505af1158015610e62573d6000803e3d6000fd5b50505050505050565b600260009054906101000a900473ffffffffffffffffffffffffffffffffffffffff1673ffffffffffffffffffffffffffffffffffffffff1662220cf7888888888888886040518863ffffffff1660e01b8152600401610ed19796959493929190614852565b600060405180830381600087803b158015610eeb57600080fd5b505af1158015610eff573d6000803e3d6000fd5b5050505050505050505050565b600260009054906101000a900473ffffffffffffffffffffffffffffffffffffffff1673ffffffffffffffffffffffffffffffffffffffff16636cf871df8787878787876040518763ffffffff1660e01b8152600401610f7196959493929190613ec8565b600060405180830381600087803b158015610f8b57600080fd5b505af1158015610f9f573d6000803e3d6000fd5b50505050505050505050565b60008060008054906101000a900473ffffffffffffffffffffffffffffffffffffffff1673ffffffffffffffffffffffffffffffffffffffff16638e891393846040518263ffffffff1660e01b815260040161100791906143fc565b602060405180830381865afa158015611024573d6000803e3d6000fd5b505050506040513d601f19601f82011682018060405250810190611048919061439f565b9050600a81111561105d57600191505061105f565b505b919050565b60008054906101000a900473ffffffffffffffffffffffffffffffffffffffff1673ffffffffffffffffffffffffffffffffffffffff1663dcc453528787878787876040518763ffffffff1660e01b81526004016110c796959493929190613ec8565b600060405180830381600087803b1580156110e157600080fd5b505af11580156110f5573d6000803e3d6000fd5b50505050505050505050565b6000600160009054906101000a900473ffffffffffffffffffffffffffffffffffffffff1673ffffffffffffffffffffffffffffffffffffffff1663a7dba18484846040518363ffffffff1660e01b81526004016111609291906143cc565b602060405180830381865afa15801561117d573d6000803e3d6000fd5b505050506040513d601f19601f820116820180604052508101906111a1919061439f565b905092915050565b6000600160009054906101000a900473ffffffffffffffffffffffffffffffffffffffff1673ffffffffffffffffffffffffffffffffffffffff1663c6fe410a836040518263ffffffff1660e01b815260040161120691906143fc565b602060405180830381865afa158015611223573d6000803e3d6000fd5b505050506040513d601f19601f82011682018060405250810190611247919061439f565b9050919050565b606080606080606060008054906101000a900473ffffffffffffffffffffffffffffffffffffffff1673ffffffffffffffffffffffffffffffffffffffff16638ce211bc876040518263ffffffff1660e01b81526004016112af91906143fc565b600060405180830381865afa1580156112cc573d6000803e3d6000fd5b505050506040513d6000823e3d601f19601f820116820180604052508101906112f591906148d6565b9450945094509450945091939590929450565b6000606080606080606080600160009054906101000a900473ffffffffffffffffffffffffffffffffffffffff1673ffffffffffffffffffffffffffffffffffffffff16630f53a470896040518263ffffffff1660e01b815260040161136e91906143fc565b600060405180830381865afa15801561138b573d6000803e3d6000fd5b505050506040513d6000823e3d601f19601f820116820180604052508101906113b491906149dd565b9650965096509650965096509650919395979092949650565b6000600260009054906101000a900473ffffffffffffffffffffffffffffffffffffffff1673ffffffffffffffffffffffffffffffffffffffff166344fd6e22836040518263ffffffff1660e01b815260040161142a91906143fc565b602060405180830381865afa158015611447573d6000803e3d6000fd5b505050506040513d601f19601f8201168201806040525081019061146b919061439f565b9050919050565b600260009054906101000a900473ffffffffffffffffffffffffffffffffffffffff1673ffffffffffffffffffffffffffffffffffffffff1663948195ed858585856040518563ffffffff1660e01b81526004016114d39493929190614337565b600060405180830381600087803b1580156114ed57600080fd5b505af1158015611501573d6000803e3d6000fd5b5050505050505050565b606080606080606080606080600160009054906101000a900473ffffffffffffffffffffffffffffffffffffffff1673ffffffffffffffffffffffffffffffffffffffff1663cfafbc0c6040518163ffffffff1660e01b8152600401600060405180830381865afa158015611584573d6000803e3d6000fd5b505050506040513d6000823e3d601f19601f820116820180604052508101906115ad9190614b27565b975097509750975097509750975097509091929394959697565b60008054906101000a900473ffffffffffffffffffffffffffffffffffffffff1673ffffffffffffffffffffffffffffffffffffffff1663b24f701689898989898989896040518963ffffffff1660e01b815260040161162e989796959493929190614cbd565b600060405180830381600087803b15801561164857600080fd5b505af115801561165c573d6000803e3d6000fd5b505050505050505050505050565b60608060606000806000600260009054906101000a900473ffffffffffffffffffffffffffffffffffffffff1673ffffffffffffffffffffffffffffffffffffffff1663ac97812f8b8b8b8b6040518563ffffffff1660e01b81526004016116d59493929190614337565b600060405180830381865afa1580156116f2573d6000803e3d6000fd5b505050506040513d6000823e3d601f19601f8201168201806040525081019061171b9190614d6c565b9550955095509550955095509499939850945094509450565b60608060008054906101000a900473ffffffffffffffffffffffffffffffffffffffff1673ffffffffffffffffffffffffffffffffffffffff1663ac4b2049846040518263ffffffff1660e01b815260040161179091906143fc565b600060405180830381865afa1580156117ad573d6000803e3d6000fd5b505050506040513d6000823e3d601f19601f820116820180604052508101906117d69190614f10565b91509150915091565b600160009054906101000a900473ffffffffffffffffffffffffffffffffffffffff1673ffffffffffffffffffffffffffffffffffffffff1663e045b71089898989898989896040518963ffffffff1660e01b8152600401611848989796959493929190614cbd565b600060405180830381600087803b15801561186257600080fd5b505af1158015611876573d6000803e3d6000fd5b505050505050505050505050565b600160009054906101000a900473ffffffffffffffffffffffffffffffffffffffff1673ffffffffffffffffffffffffffffffffffffffff166323b6d993888888888888886040518863ffffffff1660e01b81526004016118eb97969594939291906135e9565b600060405180830381600087803b15801561190557600080fd5b505af1158015611919573d6000803e3d6000fd5b5050505050505050505050565b600260009054906101000a900473ffffffffffffffffffffffffffffffffffffffff1673ffffffffffffffffffffffffffffffffffffffff16637082941e8484846040518463ffffffff1660e01b815260040161198593929190614f97565b600060405180830381600087803b15801561199f57600080fd5b505af11580156119b3573d6000803e3d6000fd5b50505050505050565b606080606080606080600260009054906101000a900473ffffffffffffffffffffffffffffffffffffffff1673ffffffffffffffffffffffffffffffffffffffff1663bc72af7d89896040518363ffffffff1660e01b8152600401611a22929190614fce565b600060405180830381865afa158015611a3f573d6000803e3d6000fd5b505050506040513d6000823e3d601f19601f82011682018060405250810190611a689190614ff7565b9550955095509550955095509295509295509295565b60008054906101000a900473ffffffffffffffffffffffffffffffffffffffff1673ffffffffffffffffffffffffffffffffffffffff16633d746f0a8787878787876040518763ffffffff1660e01b8152600401611ae196959493929190613ec8565b600060405180830381600087803b158015611afb57600080fd5b505af1158015611b0f573d6000803e3d6000fd5b50505050505050505050565b600260009054906101000a900473ffffffffffffffffffffffffffffffffffffffff1673ffffffffffffffffffffffffffffffffffffffff1663d23a4ee1888888888888886040518863ffffffff1660e01b8152600401611b829796959493929190614852565b600060405180830381600087803b158015611b9c57600080fd5b505af1158015611bb0573d6000803e3d6000fd5b5050505050505050505050565b6000600260009054906101000a900473ffffffffffffffffffffffffffffffffffffffff1673ffffffffffffffffffffffffffffffffffffffff16630265275c8585856040518463ffffffff1660e01b8152600401611c1e9392919061512c565b602060405180830381865afa158015611c3b573d6000803e3d6000fd5b505050506040513d601f19601f82011682018060405250810190611c5f919061439f565b90509392505050565b600360009054906101000a900473ffffffffffffffffffffffffffffffffffffffff1673ffffffffffffffffffffffffffffffffffffffff1663844bb460858585856040518563ffffffff1660e01b8152600401611cc99493929190614337565b600060405180830381600087803b158015611ce357600080fd5b505af1158015611cf7573d6000803e3d6000fd5b5050505050505050565b6060806060806060806060600260009054906101000a900473ffffffffffffffffffffffffffffffffffffffff1673ffffffffffffffffffffffffffffffffffffffff166384ae91316040518163ffffffff1660e01b8152600401600060405180830381865afa158015611d79573d6000803e3d6000fd5b505050506040513d6000823e3d601f19601f82011682018060405250810190611da29190615171565b965096509650965096509650965090919293949596565b6000600260009054906101000a900473ffffffffffffffffffffffffffffffffffffffff1673ffffffffffffffffffffffffffffffffffffffff166324e6603784846040518363ffffffff1660e01b8152600401611e189291906143cc565b602060405180830381865afa158015611e35573d6000803e3d6000fd5b505050506040513d601f19601f82011682018060405250810190611e59919061439f565b905092915050565b600360009054906101000a900473ffffffffffffffffffffffffffffffffffffffff1673ffffffffffffffffffffffffffffffffffffffff1663dc1e475f858585856040518563ffffffff1660e01b8152600401611ec29493929190614337565b600060405180830381600087803b158015611edc57600080fd5b505af1158015611ef0573d6000803e3d6000fd5b5050505050505050565b6060806060806060600360009054906101000a900473ffffffffffffffffffffffffffffffffffffffff1673ffffffffffffffffffffffffffffffffffffffff1663381a3bf7876040518263ffffffff1660e01b8152600401611f5d91906143fc565b600060405180830381865afa158015611f7a573d6000803e3d6000fd5b505050506040513d6000823e3d601f19601f82011682018060405250810190611fa391906152d7565b9450945094509450945091939590929450565b60608060606000806000600260009054906101000a900473ffffffffffffffffffffffffffffffffffffffff1673ffffffffffffffffffffffffffffffffffffffff16634b38f2db8b8b8b8b6040518563ffffffff1660e01b81526004016120219493929190614337565b600060405180830381865afa15801561203e573d6000803e3d6000fd5b505050506040513d6000823e3d601f19601f820116820180604052508101906120679190614d6c565b9550955095509550955095509499939850945094509450565b606080606080606080600260009054906101000a900473ffffffffffffffffffffffffffffffffffffffff1673ffffffffffffffffffffffffffffffffffffffff16630c3f988289896040518363ffffffff1660e01b81526004016120e6929190614fce565b600060405180830381865afa158015612103573d6000803e3d6000fd5b505050506040513d6000823e3d601f19601f8201168201806040525081019061212c919061471d565b9550955095509550955095509295509295509295565b60008060009054906101000a900473ffffffffffffffffffffffffffffffffffffffff1673ffffffffffffffffffffffffffffffffffffffff1663174ceeab84846040518363ffffffff1660e01b81526004016121a09291906143cc565b602060405180830381865afa1580156121bd573d6000803e3d6000fd5b505050506040513d601f19601f820116820180604052508101906121e1919061439f565b905092915050565b600260009054906101000a900473ffffffffffffffffffffffffffffffffffffffff1673ffffffffffffffffffffffffffffffffffffffff16632954ab108484846040518463ffffffff1660e01b815260040161224893929190614f97565b600060405180830381600087803b15801561226257600080fd5b505af1158015612276573d6000803e3d6000fd5b50505050505050565b60008060009054906101000a900473ffffffffffffffffffffffffffffffffffffffff1673ffffffffffffffffffffffffffffffffffffffff1663390363fe8585856040518463ffffffff1660e01b81526004016122df9392919061512c565b602060405180830381865afa1580156122fc573d6000803e3d6000fd5b505050506040513d601f19601f82011682018060405250810190612320919061439f565b90509392505050565b6060806060806060600360009054906101000a900473ffffffffffffffffffffffffffffffffffffffff1673ffffffffffffffffffffffffffffffffffffffff1663ce1ec5bb876040518263ffffffff1660e01b815260040161238c91906143fc565b600060405180830381865afa1580156123a9573d6000803e3d6000fd5b505050506040513d6000823e3d601f19601f820116820180604052508101906123d291906153de565b9450945094509450945091939590929450565b6000600260009054906101000a900473ffffffffffffffffffffffffffffffffffffffff1673ffffffffffffffffffffffffffffffffffffffff16637829b41e8585856040518463ffffffff1660e01b81526004016124469392919061512c565b602060405180830381865afa158015612463573d6000803e3d6000fd5b505050506040513d601f19601f82011682018060405250810190612487919061439f565b90509392505050565b60006060806060806060600260009054906101000a900473ffffffffffffffffffffffffffffffffffffffff1673ffffffffffffffffffffffffffffffffffffffff16630f53a470886040518263ffffffff1660e01b81526004016124f591906143fc565b600060405180830381865afa158015612512573d6000803e3d6000fd5b505050506040513d6000823e3d601f19601f8201168201806040525081019061253b91906154e5565b95509550955095509550955091939550919395565b600260009054906101000a900473ffffffffffffffffffffffffffffffffffffffff1673ffffffffffffffffffffffffffffffffffffffff1663dd8f3edc888888888888886040518863ffffffff1660e01b81526004016125b797969594939291906135e9565b600060405180830381600087803b1580156125d157600080fd5b505af11580156125e5573d6000803e3d6000fd5b5050505050505050505050565b60008054906101000a900473ffffffffffffffffffffffffffffffffffffffff1673ffffffffffffffffffffffffffffffffffffffff166360ccb2048484846040518463ffffffff1660e01b815260040161264f939291906155fe565b600060405180830381600087803b15801561266957600080fd5b505af115801561267d573d6000803e3d6000fd5b50505050505050565b606080606080606080600260009054906101000a900473ffffffffffffffffffffffffffffffffffffffff1673ffffffffffffffffffffffffffffffffffffffff166306ed1e8989896040518363ffffffff1660e01b81526004016126ec929190614fce565b600060405180830381865afa158015612709573d6000803e3d6000fd5b505050506040513d6000823e3d601f19601f820116820180604052508101906127329190614ff7565b9550955095509550955095509295509295509295565b6000806060600360009054906101000a900473ffffffffffffffffffffffffffffffffffffffff1673ffffffffffffffffffffffffffffffffffffffff1663e9daa70a86866040518363ffffffff1660e01b81526004016127aa929190614fce565b600060405180830381865afa1580156127c7573d6000803e3d6000fd5b505050506040513d6000823e3d601f19601f820116820180604052508101906127f0919061563c565b9250925092509250925092565b60008054906101000a900473ffffffffffffffffffffffffffffffffffffffff1673ffffffffffffffffffffffffffffffffffffffff1663a06b883d8484846040518463ffffffff1660e01b815260040161285a939291906155fe565b600060405180830381600087803b15801561287457600080fd5b505af1158015612888573d6000803e3d6000fd5b50505050505050565b600080600360009054906101000a900473ffffffffffffffffffffffffffffffffffffffff1673ffffffffffffffffffffffffffffffffffffffff1663dae7debd866040518263ffffffff1660e01b81526004016128ef91906143fc565b602060405180830381865afa15801561290c573d6000803e3d6000fd5b505050506040513d601f19601f82011682018060405250810190612930919061439f565b90506000600360009054906101000a900473ffffffffffffffffffffffffffffffffffffffff1673ffffffffffffffffffffffffffffffffffffffff166386b87ba28787876040518463ffffffff1660e01b81526004016129939392919061512c565b602060405180830381865afa1580156129b0573d6000803e3d6000fd5b505050506040513d601f19601f820116820180604052508101906129d4919061439f565b9050808211156129e9576001925050506129ec565b50505b9392505050565b60008054906101000a900473ffffffffffffffffffffffffffffffffffffffff1673ffffffffffffffffffffffffffffffffffffffff1663804fcf138a8a8a8a8a8a8a8a8a6040518a63ffffffff1660e01b8152600401612a5c99989796959493929190614272565b600060405180830381600087803b158015612a7657600080fd5b505af1158015612a8a573d6000803e3d6000fd5b50505050505050505050505050565b600360009054906101000a900473ffffffffffffffffffffffffffffffffffffffff1673ffffffffffffffffffffffffffffffffffffffff1663f7a7b83d86868686866040518663ffffffff1660e01b8152600401612afc9594939291906156ab565b600060405180830381600087803b158015612b1657600080fd5b505af1158015612b2a573d6000803e3d6000fd5b505050505050505050565b600060608060608060608060608060008054906101000a900473ffffffffffffffffffffffffffffffffffffffff1673ffffffffffffffffffffffffffffffffffffffff16630f53a4708b6040518263ffffffff1660e01b8152600401612b9c91906143fc565b600060405180830381865afa158015612bb9573d6000803e3d6000fd5b505050506040513d6000823e3d601f19601f82011682018060405250810190612be29190615713565b9850985098509850985098509850985098509193959799909294969850565b6000604051905090565b600080fd5b600080fd5b600073ffffffffffffffffffffffffffffffffffffffff82169050919050565b6000612c4082612c15565b9050919050565b612c5081612c35565b8114612c5b57600080fd5b50565b600081359050612c6d81612c47565b92915050565b600080fd5b600080fd5b6000601f19601f8301169050919050565b7f4e487b7100000000000000000000000000000000000000000000000000000000600052604160045260246000fd5b612cc682612c7d565b810181811067ffffffffffffffff82111715612ce557612ce4612c8e565b5b80604052505050565b6000612cf8612c01565b9050612d048282612cbd565b919050565b600067ffffffffffffffff821115612d2457612d23612c8e565b5b612d2d82612c7d565b9050602081019050919050565b82818337600083830152505050565b6000612d5c612d5784612d09565b612cee565b905082815260208101848484011115612d7857612d77612c78565b5b612d83848285612d3a565b509392505050565b600082601f830112612da057612d9f612c73565b5b8135612db0848260208601612d49565b91505092915050565b60008060008060808587031215612dd357612dd2612c0b565b5b6000612de187828801612c5e565b9450506020612df287828801612c5e565b935050604085013567ffffffffffffffff811115612e1357612e12612c10565b5b612e1f87828801612d8b565b925050606085013567ffffffffffffffff811115612e4057612e3f612c10565b5b612e4c87828801612d8b565b91505092959194509250565b600080600060608486031215612e7157612e70612c0b565b5b6000612e7f86828701612c5e565b9350506020612e9086828701612c5e565b925050604084013567ffffffffffffffff811115612eb157612eb0612c10565b5b612ebd86828701612d8b565b9150509250925092565b6000819050919050565b612eda81612ec7565b82525050565b6000602082019050612ef56000830184612ed1565b92915050565b60008060408385031215612f1257612f11612c0b565b5b6000612f2085828601612c5e565b925050602083013567ffffffffffffffff811115612f4157612f40612c10565b5b612f4d85828601612d8b565b9150509250929050565b600060208284031215612f6d57612f6c612c0b565b5b6000612f7b84828501612c5e565b91505092915050565b600081519050919050565b600082825260208201905092915050565b6000819050602082019050919050565b6000819050919050565b612fc381612fb0565b82525050565b6000612fd58383612fba565b60208301905092915050565b6000602082019050919050565b6000612ff982612f84565b6130038185612f8f565b935061300e83612fa0565b8060005b8381101561303f5781516130268882612fc9565b975061303183612fe1565b925050600181019050613012565b5085935050505092915050565b600081519050919050565b600082825260208201905092915050565b6000819050602082019050919050565b61308181612c35565b82525050565b60006130938383613078565b60208301905092915050565b6000602082019050919050565b60006130b78261304c565b6130c18185613057565b93506130cc83613068565b8060005b838110156130fd5781516130e48882613087565b97506130ef8361309f565b9250506001810190506130d0565b5085935050505092915050565b600081519050919050565b600082825260208201905092915050565b6000819050602082019050919050565b600081519050919050565b600082825260208201905092915050565b60005b83811015613170578082015181840152602081019050613155565b8381111561317f576000848401525b50505050565b600061319082613136565b61319a8185613141565b93506131aa818560208601613152565b6131b381612c7d565b840191505092915050565b60006131ca8383613185565b905092915050565b6000602082019050919050565b60006131ea8261310a565b6131f48185613115565b93508360208202850161320685613126565b8060005b85811015613242578484038952815161322385826131be565b945061322e836131d2565b925060208a0199505060018101905061320a565b50829750879550505050505092915050565b600060c082019050818103600083015261326e8189612fee565b9050818103602083015261328281886130ac565b9050818103604083015261329681876130ac565b905081810360608301526132aa81866131df565b905081810360808301526132be81856131df565b905081810360a08301526132d281846131df565b9050979650505050505050565b6132e881612ec7565b81146132f357600080fd5b50565b600081359050613305816132df565b92915050565b600080600080600080600060e0888a03121561332a57613329612c0b565b5b60006133388a828b01612c5e565b97505060206133498a828b01612c5e565b965050604088013567ffffffffffffffff81111561336a57613369612c10565b5b6133768a828b01612d8b565b955050606088013567ffffffffffffffff81111561339757613396612c10565b5b6133a38a828b01612d8b565b945050608088013567ffffffffffffffff8111156133c4576133c3612c10565b5b6133d08a828b01612d8b565b93505060a06133e18a828b016132f6565b92505060c06133f28a828b016132f6565b91505092959891949750929550565b60008060008060008060c0878903121561341e5761341d612c0b565b5b600061342c89828a01612c5e565b965050602087013567ffffffffffffffff81111561344d5761344c612c10565b5b61345989828a01612d8b565b955050604087013567ffffffffffffffff81111561347a57613479612c10565b5b61348689828a01612d8b565b945050606087013567ffffffffffffffff8111156134a7576134a6612c10565b5b6134b389828a01612d8b565b935050608087013567ffffffffffffffff8111156134d4576134d3612c10565b5b6134e089828a01612d8b565b92505060a087013567ffffffffffffffff81111561350157613500612c10565b5b61350d89828a01612d8b565b9150509295509295509295565b600060a082019050818103600083015261353481886131df565b9050818103602083015261354881876131df565b9050818103604083015261355c81866131df565b9050818103606083015261357081856131df565b9050818103608083015261358481846131df565b90509695505050505050565b61359981612c35565b82525050565b600082825260208201905092915050565b60006135bb82613136565b6135c5818561359f565b93506135d5818560208601613152565b6135de81612c7d565b840191505092915050565b600060e0820190506135fe600083018a613590565b818103602083015261361081896135b0565b9050818103604083015261362481886135b0565b9050818103606083015261363881876135b0565b9050818103608083015261364c81866135b0565b905081810360a083015261366081856135b0565b905081810360c083015261367481846135b0565b905098975050505050505050565b600061010082019050818103600083015261369d818b6130ac565b905081810360208301526136b1818a6131df565b905081810360408301526136c581896131df565b905081810360608301526136d981886131df565b905081810360808301526136ed81876131df565b905081810360a083015261370181866131df565b905081810360c083015261371581856131df565b905081810360e083015261372981846131df565b90509998505050505050505050565b600080600080600080600080610100898b03121561375957613758612c0b565b5b60006137678b828c01612c5e565b985050602089013567ffffffffffffffff81111561378857613787612c10565b5b6137948b828c01612d8b565b975050604089013567ffffffffffffffff8111156137b5576137b4612c10565b5b6137c18b828c01612d8b565b965050606089013567ffffffffffffffff8111156137e2576137e1612c10565b5b6137ee8b828c01612d8b565b955050608089013567ffffffffffffffff81111561380f5761380e612c10565b5b61381b8b828c01612d8b565b94505060a089013567ffffffffffffffff81111561383c5761383b612c10565b5b6138488b828c01612d8b565b93505060c089013567ffffffffffffffff81111561386957613868612c10565b5b6138758b828c01612d8b565b92505060e089013567ffffffffffffffff81111561389657613895612c10565b5b6138a28b828c01612d8b565b9150509295985092959890939650565b600060c08201905081810360008301526138cc81896135b0565b905081810360208301526138e081886135b0565b905081810360408301526138f481876135b0565b90506139036060830186612ed1565b6139106080830185612ed1565b61391d60a0830184612ed1565b979650505050505050565b600081519050919050565b600082825260208201905092915050565b6000819050602082019050919050565b61395d81612ec7565b82525050565b600061396f8383613954565b60208301905092915050565b6000602082019050919050565b600061399382613928565b61399d8185613933565b93506139a883613944565b8060005b838110156139d95781516139c08882613963565b97506139cb8361397b565b9250506001810190506139ac565b5085935050505092915050565b60006040820190508181036000830152613a0081856131df565b90508181036020830152613a148184613988565b90509392505050565b600080600080600080600060e0888a031215613a3c57613a3b612c0b565b5b6000613a4a8a828b01612c5e565b975050602088013567ffffffffffffffff811115613a6b57613a6a612c10565b5b613a778a828b01612d8b565b965050604088013567ffffffffffffffff811115613a9857613a97612c10565b5b613aa48a828b01612d8b565b955050606088013567ffffffffffffffff811115613ac557613ac4612c10565b5b613ad18a828b01612d8b565b945050608088013567ffffffffffffffff811115613af257613af1612c10565b5b613afe8a828b01612d8b565b93505060a088013567ffffffffffffffff811115613b1f57613b1e612c10565b5b613b2b8a828b01612d8b565b92505060c088013567ffffffffffffffff811115613b4c57613b4b612c10565b5b613b588a828b01612d8b565b91505092959891949750929550565b613b7081612fb0565b8114613b7b57600080fd5b50565b600081359050613b8d81613b67565b92915050565b600080600060608486031215613bac57613bab612c0b565b5b6000613bba86828701612c5e565b9350506020613bcb86828701612c5e565b9250506040613bdc86828701613b7e565b9150509250925092565b60008060408385031215613bfd57613bfc612c0b565b5b6000613c0b85828601612c5e565b9250506020613c1c85828601612c5e565b9150509250929050565b600060c0820190508181036000830152613c4081896131df565b90508181036020830152613c5481886131df565b90508181036040830152613c6881876131df565b90508181036060830152613c7c8186613988565b90508181036080830152613c908185613988565b905081810360a0830152613ca48184613988565b9050979650505050505050565b600080600060608486031215613cca57613cc9612c0b565b5b6000613cd886828701612c5e565b935050602084013567ffffffffffffffff811115613cf957613cf8612c10565b5b613d0586828701612d8b565b925050604084013567ffffffffffffffff811115613d2657613d25612c10565b5b613d3286828701612d8b565b9150509250925092565b600060e0820190508181036000830152613d56818a6130ac565b90508181036020830152613d6a81896131df565b90508181036040830152613d7e81886131df565b90508181036060830152613d9281876131df565b90508181036080830152613da681866131df565b905081810360a0830152613dba81856131df565b905081810360c0830152613dce81846131df565b905098975050505050505050565b600060a0820190508181036000830152613df681886130ac565b90508181036020830152613e0a81876130ac565b90508181036040830152613e1e81866131df565b90508181036060830152613e3281856131df565b90508181036080830152613e4681846131df565b90509695505050505050565b600060a0820190508181036000830152613e6c8188612fee565b90508181036020830152613e8081876131df565b90508181036040830152613e9481866131df565b90508181036060830152613ea881856131df565b90508181036080830152613ebc8184613988565b90509695505050505050565b600060c082019050613edd6000830189613590565b8181036020830152613eef81886135b0565b90508181036040830152613f0381876135b0565b90508181036060830152613f1781866135b0565b90508181036080830152613f2b81856135b0565b905081810360a0830152613f3f81846135b0565b9050979650505050505050565b600080600060608486031215613f6557613f64612c0b565b5b6000613f7386828701612c5e565b935050602084013567ffffffffffffffff811115613f9457613f93612c10565b5b613fa086828701612d8b565b9250506040613fb1868287016132f6565b9150509250925092565b6000606082019050613fd06000830186613590565b613fdd6020830185613590565b8181036040830152613fef81846135b0565b9050949350505050565b60008060008060008060008060006101208a8c03121561401c5761401b612c0b565b5b600061402a8c828d01612c5e565b99505060208a013567ffffffffffffffff81111561404b5761404a612c10565b5b6140578c828d01612d8b565b98505060408a013567ffffffffffffffff81111561407857614077612c10565b5b6140848c828d01612d8b565b97505060608a013567ffffffffffffffff8111156140a5576140a4612c10565b5b6140b18c828d01612d8b565b96505060808a013567ffffffffffffffff8111156140d2576140d1612c10565b5b6140de8c828d01612d8b565b95505060a08a013567ffffffffffffffff8111156140ff576140fe612c10565b5b61410b8c828d01612d8b565b94505060c08a013567ffffffffffffffff81111561412c5761412b612c10565b5b6141388c828d01612d8b565b93505060e08a013567ffffffffffffffff81111561415957614158612c10565b5b6141658c828d01612d8b565b9250506101008a013567ffffffffffffffff81111561418757614186612c10565b5b6141938c828d01612d8b565b9150509295985092959850929598565b600080600080600060a086880312156141bf576141be612c0b565b5b60006141cd88828901612c5e565b955050602086013567ffffffffffffffff8111156141ee576141ed612c10565b5b6141fa88828901612d8b565b945050604086013567ffffffffffffffff81111561421b5761421a612c10565b5b61422788828901612d8b565b935050606086013567ffffffffffffffff81111561424857614247612c10565b5b61425488828901612d8b565b9250506080614265888289016132f6565b9150509295509295909350565b600061012082019050614288600083018c613590565b818103602083015261429a818b6135b0565b905081810360408301526142ae818a6135b0565b905081810360608301526142c281896135b0565b905081810360808301526142d681886135b0565b905081810360a08301526142ea81876135b0565b905081810360c08301526142fe81866135b0565b905081810360e083015261431281856135b0565b905081810361010083015261432781846135b0565b90509a9950505050505050505050565b600060808201905061434c6000830187613590565b6143596020830186613590565b818103604083015261436b81856135b0565b9050818103606083015261437f81846135b0565b905095945050505050565b600081519050614399816132df565b92915050565b6000602082840312156143b5576143b4612c0b565b5b60006143c38482850161438a565b91505092915050565b60006040820190506143e16000830185613590565b81810360208301526143f381846135b0565b90509392505050565b60006020820190506144116000830184613590565b92915050565b600067ffffffffffffffff82111561443257614431612c8e565b5b602082029050602081019050919050565b600080fd5b60008151905061445781613b67565b92915050565b600061447061446b84614417565b612cee565b9050808382526020820190506020840283018581111561449357614492614443565b5b835b818110156144bc57806144a88882614448565b845260208401935050602081019050614495565b5050509392505050565b600082601f8301126144db576144da612c73565b5b81516144eb84826020860161445d565b91505092915050565b600067ffffffffffffffff82111561450f5761450e612c8e565b5b602082029050602081019050919050565b60008151905061452f81612c47565b92915050565b6000614548614543846144f4565b612cee565b9050808382526020820190506020840283018581111561456b5761456a614443565b5b835b8181101561459457806145808882614520565b84526020840193505060208101905061456d565b5050509392505050565b600082601f8301126145b3576145b2612c73565b5b81516145c3848260208601614535565b91505092915050565b600067ffffffffffffffff8211156145e7576145e6612c8e565b5b602082029050602081019050919050565b600061460b61460684612d09565b612cee565b90508281526020810184848401111561462757614626612c78565b5b614632848285613152565b509392505050565b600082601f83011261464f5761464e612c73565b5b815161465f8482602086016145f8565b91505092915050565b600061467b614676846145cc565b612cee565b9050808382526020820190506020840283018581111561469e5761469d614443565b5b835b818110156146e557805167ffffffffffffffff8111156146c3576146c2612c73565b5b8086016146d0898261463a565b855260208501945050506020810190506146a0565b5050509392505050565b600082601f83011261470457614703612c73565b5b8151614714848260208601614668565b91505092915050565b60008060008060008060c0878903121561473a57614739612c0b565b5b600087015167ffffffffffffffff81111561475857614757612c10565b5b61476489828a016144c6565b965050602087015167ffffffffffffffff81111561478557614784612c10565b5b61479189828a0161459e565b955050604087015167ffffffffffffffff8111156147b2576147b1612c10565b5b6147be89828a0161459e565b945050606087015167ffffffffffffffff8111156147df576147de612c10565b5b6147eb89828a016146ef565b935050608087015167ffffffffffffffff81111561480c5761480b612c10565b5b61481889828a016146ef565b92505060a087015167ffffffffffffffff81111561483957614838612c10565b5b61484589828a016146ef565b9150509295509295509295565b600060e082019050614867600083018a613590565b6148746020830189613590565b818103604083015261488681886135b0565b9050818103606083015261489a81876135b0565b905081810360808301526148ae81866135b0565b90506148bd60a0830185612ed1565b6148ca60c0830184612ed1565b98975050505050505050565b600080600080600060a086880312156148f2576148f1612c0b565b5b600086015167ffffffffffffffff8111156149105761490f612c10565b5b61491c888289016146ef565b955050602086015167ffffffffffffffff81111561493d5761493c612c10565b5b614949888289016146ef565b945050604086015167ffffffffffffffff81111561496a57614969612c10565b5b614976888289016146ef565b935050606086015167ffffffffffffffff81111561499757614996612c10565b5b6149a3888289016146ef565b925050608086015167ffffffffffffffff8111156149c4576149c3612c10565b5b6149d0888289016146ef565b9150509295509295909350565b600080600080600080600060e0888a0312156149fc576149fb612c0b565b5b6000614a0a8a828b01614520565b975050602088015167ffffffffffffffff811115614a2b57614a2a612c10565b5b614a378a828b0161463a565b965050604088015167ffffffffffffffff811115614a5857614a57612c10565b5b614a648a828b0161463a565b955050606088015167ffffffffffffffff811115614a8557614a84612c10565b5b614a918a828b0161463a565b945050608088015167ffffffffffffffff811115614ab257614ab1612c10565b5b614abe8a828b0161463a565b93505060a088015167ffffffffffffffff811115614adf57614ade612c10565b5b614aeb8a828b0161463a565b92505060c088015167ffffffffffffffff811115614b0c57614b0b612c10565b5b614b188a828b0161463a565b91505092959891949750929550565b600080600080600080600080610100898b031215614b4857614b47612c0b565b5b600089015167ffffffffffffffff811115614b6657614b65612c10565b5b614b728b828c0161459e565b985050602089015167ffffffffffffffff811115614b9357614b92612c10565b5b614b9f8b828c016146ef565b975050604089015167ffffffffffffffff811115614bc057614bbf612c10565b5b614bcc8b828c016146ef565b965050606089015167ffffffffffffffff811115614bed57614bec612c10565b5b614bf98b828c016146ef565b955050608089015167ffffffffffffffff811115614c1a57614c19612c10565b5b614c268b828c016146ef565b94505060a089015167ffffffffffffffff811115614c4757614c46612c10565b5b614c538b828c016146ef565b93505060c089015167ffffffffffffffff811115614c7457614c73612c10565b5b614c808b828c016146ef565b92505060e089015167ffffffffffffffff811115614ca157614ca0612c10565b5b614cad8b828c016146ef565b9150509295985092959890939650565b600061010082019050614cd3600083018b613590565b8181036020830152614ce5818a6135b0565b90508181036040830152614cf981896135b0565b90508181036060830152614d0d81886135b0565b90508181036080830152614d2181876135b0565b905081810360a0830152614d3581866135b0565b905081810360c0830152614d4981856135b0565b905081810360e0830152614d5d81846135b0565b90509998505050505050505050565b60008060008060008060c08789031215614d8957614d88612c0b565b5b600087015167ffffffffffffffff811115614da757614da6612c10565b5b614db389828a0161463a565b965050602087015167ffffffffffffffff811115614dd457614dd3612c10565b5b614de089828a0161463a565b955050604087015167ffffffffffffffff811115614e0157614e00612c10565b5b614e0d89828a0161463a565b9450506060614e1e89828a0161438a565b9350506080614e2f89828a0161438a565b92505060a0614e4089828a0161438a565b9150509295509295509295565b600067ffffffffffffffff821115614e6857614e67612c8e565b5b602082029050602081019050919050565b6000614e8c614e8784614e4d565b612cee565b90508083825260208201905060208402830185811115614eaf57614eae614443565b5b835b81811015614ed85780614ec4888261438a565b845260208401935050602081019050614eb1565b5050509392505050565b600082601f830112614ef757614ef6612c73565b5b8151614f07848260208601614e79565b91505092915050565b60008060408385031215614f2757614f26612c0b565b5b600083015167ffffffffffffffff811115614f4557614f44612c10565b5b614f51858286016146ef565b925050602083015167ffffffffffffffff811115614f7257614f71612c10565b5b614f7e85828601614ee2565b9150509250929050565b614f9181612fb0565b82525050565b6000606082019050614fac6000830186613590565b614fb96020830185613590565b614fc66040830184614f88565b949350505050565b6000604082019050614fe36000830185613590565b614ff06020830184613590565b9392505050565b60008060008060008060c0878903121561501457615013612c0b565b5b600087015167ffffffffffffffff81111561503257615031612c10565b5b61503e89828a016146ef565b965050602087015167ffffffffffffffff81111561505f5761505e612c10565b5b61506b89828a016146ef565b955050604087015167ffffffffffffffff81111561508c5761508b612c10565b5b61509889828a016146ef565b945050606087015167ffffffffffffffff8111156150b9576150b8612c10565b5b6150c589828a01614ee2565b935050608087015167ffffffffffffffff8111156150e6576150e5612c10565b5b6150f289828a01614ee2565b92505060a087015167ffffffffffffffff81111561511357615112612c10565b5b61511f89828a01614ee2565b9150509295509295509295565b60006060820190506151416000830186613590565b818103602083015261515381856135b0565b9050818103604083015261516781846135b0565b9050949350505050565b600080600080600080600060e0888a0312156151905761518f612c0b565b5b600088015167ffffffffffffffff8111156151ae576151ad612c10565b5b6151ba8a828b0161459e565b975050602088015167ffffffffffffffff8111156151db576151da612c10565b5b6151e78a828b016146ef565b965050604088015167ffffffffffffffff81111561520857615207612c10565b5b6152148a828b016146ef565b955050606088015167ffffffffffffffff81111561523557615234612c10565b5b6152418a828b016146ef565b945050608088015167ffffffffffffffff81111561526257615261612c10565b5b61526e8a828b016146ef565b93505060a088015167ffffffffffffffff81111561528f5761528e612c10565b5b61529b8a828b016146ef565b92505060c088015167ffffffffffffffff8111156152bc576152bb612c10565b5b6152c88a828b016146ef565b91505092959891949750929550565b600080600080600060a086880312156152f3576152f2612c0b565b5b600086015167ffffffffffffffff81111561531157615310612c10565b5b61531d8882890161459e565b955050602086015167ffffffffffffffff81111561533e5761533d612c10565b5b61534a8882890161459e565b945050604086015167ffffffffffffffff81111561536b5761536a612c10565b5b615377888289016146ef565b935050606086015167ffffffffffffffff81111561539857615397612c10565b5b6153a4888289016146ef565b925050608086015167ffffffffffffffff8111156153c5576153c4612c10565b5b6153d1888289016146ef565b9150509295509295909350565b600080600080600060a086880312156153fa576153f9612c0b565b5b600086015167ffffffffffffffff81111561541857615417612c10565b5b615424888289016144c6565b955050602086015167ffffffffffffffff81111561544557615444612c10565b5b615451888289016146ef565b945050604086015167ffffffffffffffff81111561547257615471612c10565b5b61547e888289016146ef565b935050606086015167ffffffffffffffff81111561549f5761549e612c10565b5b6154ab888289016146ef565b925050608086015167ffffffffffffffff8111156154cc576154cb612c10565b5b6154d888828901614ee2565b9150509295509295909350565b60008060008060008060c0878903121561550257615501612c0b565b5b600061551089828a01614520565b965050602087015167ffffffffffffffff81111561553157615530612c10565b5b61553d89828a0161463a565b955050604087015167ffffffffffffffff81111561555e5761555d612c10565b5b61556a89828a0161463a565b945050606087015167ffffffffffffffff81111561558b5761558a612c10565b5b61559789828a0161463a565b935050608087015167ffffffffffffffff8111156155b8576155b7612c10565b5b6155c489828a0161463a565b92505060a087015167ffffffffffffffff8111156155e5576155e4612c10565b5b6155f189828a0161463a565b9150509295509295509295565b60006060820190506156136000830186613590565b818103602083015261562581856135b0565b90506156346040830184612ed1565b949350505050565b60008060006060848603121561565557615654612c0b565b5b600061566386828701614520565b935050602061567486828701614520565b925050604084015167ffffffffffffffff81111561569557615694612c10565b5b6156a18682870161463a565b9150509250925092565b600060a0820190506156c06000830188613590565b81810360208301526156d281876135b0565b905081810360408301526156e681866135b0565b905081810360608301526156fa81856135b0565b90506157096080830184612ed1565b9695505050505050565b60008060008060008060008060006101208a8c03121561573657615735612c0b565b5b60006157448c828d01614520565b99505060208a015167ffffffffffffffff81111561576557615764612c10565b5b6157718c828d0161463a565b98505060408a015167ffffffffffffffff81111561579257615791612c10565b5b61579e8c828d0161463a565b97505060608a015167ffffffffffffffff8111156157bf576157be612c10565b5b6157cb8c828d0161463a565b96505060808a015167ffffffffffffffff8111156157ec576157eb612c10565b5b6157f88c828d0161463a565b95505060a08a015167ffffffffffffffff81111561581957615818612c10565b5b6158258c828d0161463a565b94505060c08a015167ffffffffffffffff81111561584657615845612c10565b5b6158528c828d0161463a565b93505060e08a015167ffffffffffffffff81111561587357615872612c10565b5b61587f8c828d0161463a565b9250506101008a015167ffffffffffffffff8111156158a1576158a0612c10565b5b6158ad8c828d0161463a565b915050929598509295985092959856fea264697066735822122076bc61bc0bfec5575207f56f4d85261d58ce00dce7a4c25e1a6ea9b30130d19064736f6c634300080b0033608060405234801561001057600080fd5b5061458e806100206000396000f3fe608060405234801561001057600080fd5b50600436106101165760003560e01c8063804fcf13116100a2578063a06b883d11610071578063a06b883d1461036a578063ac4b204914610386578063b24f7016146103b7578063d64b6913146103d3578063dcc45352146103f857610116565b8063804fcf13146102ba5780638ce211bc146102d65780638e8913931461030a578063961ecb5b1461033a57610116565b80633aff2cc5116100e95780633aff2cc5146101e85780633d746f0a1461021a57806360ccb204146102365780636704710714610252578063716b5ab41461028a57610116565b80630f53a4701461011b578063174ceeab146101535780632a631a5414610183578063390363fe146101b8575b600080fd5b6101356004803603810190610130919061353c565b610414565b60405161014a99989796959493929190613611565b60405180910390f35b61016d6004803603810190610168919061380b565b610ab3565b60405161017a9190613880565b60405180910390f35b61019d600480360381019061019891906138c7565b610bb1565b6040516101af969594939291906138f4565b60405180910390f35b6101d260048036038101906101cd9190613978565b610ec5565b6040516101df9190613880565b60405180910390f35b61020260048036038101906101fd91906138c7565b61100f565b60405161021193929190613a03565b60405180910390f35b610234600480360381019061022f9190613a41565b6110f1565b005b610250600480360381019061024b9190613b5a565b61131d565b005b61026c600480360381019061026791906138c7565b61143f565b60405161028199989796959493929190613611565b60405180910390f35b6102a4600480360381019061029f919061380b565b6118fd565b6040516102b19190613880565b60405180910390f35b6102d460048036038101906102cf9190613bc9565b6119fb565b005b6102f060048036038101906102eb919061353c565b611bb9565b604051610301959493929190613e7f565b60405180910390f35b610324600480360381019061031f919061353c565b61222b565b6040516103319190613880565b60405180910390f35b610354600480360381019061034f919061353c565b6122e8565b6040516103619190613880565b60405180910390f35b610384600480360381019061037f9190613b5a565b61239a565b005b6103a0600480360381019061039b919061353c565b612505565b6040516103ae929190613fb3565b60405180910390f35b6103d160048036038101906103cc9190613fea565b61276d565b005b6103db6129ab565b6040516103ef989796959493929190614222565b60405180910390f35b610412600480360381019061040d9190613a41565b6132d7565b005b600060608060608060608060608060005b600080549050811015610aa4578a73ffffffffffffffffffffffffffffffffffffffff166000828154811061045d5761045c6142d8565b5b906000526020600020906009020160000160009054906101000a900473ffffffffffffffffffffffffffffffffffffffff1673ffffffffffffffffffffffffffffffffffffffff161415610a9157600081815481106104bf576104be6142d8565b5b906000526020600020906009020160000160009054906101000a900473ffffffffffffffffffffffffffffffffffffffff1660008281548110610505576105046142d8565b5b90600052602060002090600902016001016000838154811061052a576105296142d8565b5b90600052602060002090600902016002016000848154811061054f5761054e6142d8565b5b906000526020600020906009020160030160008581548110610574576105736142d8565b5b906000526020600020906009020160040160008681548110610599576105986142d8565b5b9060005260206000209060090201600501600087815481106105be576105bd6142d8565b5b9060005260206000209060090201600601600088815481106105e3576105e26142d8565b5b906000526020600020906009020160070160008981548110610608576106076142d8565b5b906000526020600020906009020160080187805461062590614336565b80601f016020809104026020016040519081016040528092919081815260200182805461065190614336565b801561069e5780601f106106735761010080835404028352916020019161069e565b820191906000526020600020905b81548152906001019060200180831161068157829003601f168201915b505050505097508680546106b190614336565b80601f01602080910402602001604051908101604052809291908181526020018280546106dd90614336565b801561072a5780601f106106ff5761010080835404028352916020019161072a565b820191906000526020600020905b81548152906001019060200180831161070d57829003601f168201915b5050505050965085805461073d90614336565b80601f016020809104026020016040519081016040528092919081815260200182805461076990614336565b80156107b65780601f1061078b576101008083540402835291602001916107b6565b820191906000526020600020905b81548152906001019060200180831161079957829003601f168201915b505050505095508480546107c990614336565b80601f01602080910402602001604051908101604052809291908181526020018280546107f590614336565b80156108425780601f1061081757610100808354040283529160200191610842565b820191906000526020600020905b81548152906001019060200180831161082557829003601f168201915b5050505050945083805461085590614336565b80601f016020809104026020016040519081016040528092919081815260200182805461088190614336565b80156108ce5780601f106108a3576101008083540402835291602001916108ce565b820191906000526020600020905b8154815290600101906020018083116108b157829003601f168201915b505050505093508280546108e190614336565b80601f016020809104026020016040519081016040528092919081815260200182805461090d90614336565b801561095a5780601f1061092f5761010080835404028352916020019161095a565b820191906000526020600020905b81548152906001019060200180831161093d57829003601f168201915b5050505050925081805461096d90614336565b80601f016020809104026020016040519081016040528092919081815260200182805461099990614336565b80156109e65780601f106109bb576101008083540402835291602001916109e6565b820191906000526020600020905b8154815290600101906020018083116109c957829003601f168201915b505050505091508080546109f990614336565b80601f0160208091040260200160405190810160405280929190818152602001828054610a2590614336565b8015610a725780601f10610a4757610100808354040283529160200191610a72565b820191906000526020600020905b815481529060010190602001808311610a5557829003601f168201915b5050505050905099509950995099509950995099509950995050610aa6565b8080610a9c90614397565b915050610425565b505b9193959799909294969850565b600080600090505b600080549050811015610ba9578373ffffffffffffffffffffffffffffffffffffffff1660008281548110610af357610af26142d8565b5b906000526020600020906009020160000160009054906101000a900473ffffffffffffffffffffffffffffffffffffffff1673ffffffffffffffffffffffffffffffffffffffff16148015610b875750828051906020012060008281548110610b5f57610b5e6142d8565b5b9060005260206000209060090201600801604051610b7d919061447f565b6040518091039020145b15610b96576001915050610bab565b8080610ba190614397565b915050610abb565b505b92915050565b60028181548110610bc157600080fd5b90600052602060002090600602016000915090508060000160009054906101000a900473ffffffffffffffffffffffffffffffffffffffff1690806001018054610c0a90614336565b80601f0160208091040260200160405190810160405280929190818152602001828054610c3690614336565b8015610c835780601f10610c5857610100808354040283529160200191610c83565b820191906000526020600020905b815481529060010190602001808311610c6657829003601f168201915b505050505090806002018054610c9890614336565b80601f0160208091040260200160405190810160405280929190818152602001828054610cc490614336565b8015610d115780601f10610ce657610100808354040283529160200191610d11565b820191906000526020600020905b815481529060010190602001808311610cf457829003601f168201915b505050505090806003018054610d2690614336565b80601f0160208091040260200160405190810160405280929190818152602001828054610d5290614336565b8015610d9f5780601f10610d7457610100808354040283529160200191610d9f565b820191906000526020600020905b815481529060010190602001808311610d8257829003601f168201915b505050505090806004018054610db490614336565b80601f0160208091040260200160405190810160405280929190818152602001828054610de090614336565b8015610e2d5780601f10610e0257610100808354040283529160200191610e2d565b820191906000526020600020905b815481529060010190602001808311610e1057829003601f168201915b505050505090806005018054610e4290614336565b80601f0160208091040260200160405190810160405280929190818152602001828054610e6e90614336565b8015610ebb5780601f10610e9057610100808354040283529160200191610ebb565b820191906000526020600020905b815481529060010190602001808311610e9e57829003601f168201915b5050505050905086565b600080600090505b600280549050811015611006578473ffffffffffffffffffffffffffffffffffffffff1660028281548110610f0557610f046142d8565b5b906000526020600020906006020160000160009054906101000a900473ffffffffffffffffffffffffffffffffffffffff1673ffffffffffffffffffffffffffffffffffffffff16148015610f995750838051906020012060028281548110610f7157610f706142d8565b5b9060005260206000209060060201600101604051610f8f919061447f565b6040518091039020145b8015610fe45750828051906020012060028281548110610fbc57610fbb6142d8565b5b9060005260206000209060060201600201604051610fda919061447f565b6040518091039020145b15610ff3576001915050611008565b8080610ffe90614397565b915050610ecd565b505b9392505050565b6001818154811061101f57600080fd5b90600052602060002090600302016000915090508060000160009054906101000a900473ffffffffffffffffffffffffffffffffffffffff169080600101805461106890614336565b80601f016020809104026020016040519081016040528092919081815260200182805461109490614336565b80156110e15780601f106110b6576101008083540402835291602001916110e1565b820191906000526020600020905b8154815290600101906020018083116110c457829003601f168201915b5050505050908060020154905083565b60005b600280549050811015611314578673ffffffffffffffffffffffffffffffffffffffff166002828154811061112c5761112b6142d8565b5b906000526020600020906006020160000160009054906101000a900473ffffffffffffffffffffffffffffffffffffffff1673ffffffffffffffffffffffffffffffffffffffff16141561130157866002828154811061118f5761118e6142d8565b5b906000526020600020906006020160000160006101000a81548173ffffffffffffffffffffffffffffffffffffffff021916908373ffffffffffffffffffffffffffffffffffffffff16021790555085600282815481106111f3576111f26142d8565b5b90600052602060002090600602016001019080519060200190611217929190613427565b50846002828154811061122d5761122c6142d8565b5b90600052602060002090600602016002019080519060200190611251929190613427565b508360028281548110611267576112666142d8565b5b9060005260206000209060060201600301908051906020019061128b929190613427565b5082600282815481106112a1576112a06142d8565b5b906000526020600020906006020160040190805190602001906112c5929190613427565b5081600282815481106112db576112da6142d8565b5b906000526020600020906006020160050190805190602001906112ff929190613427565b505b808061130c90614397565b9150506110f4565b50505050505050565b6000811015801561132f575060648111155b61136e576040517f08c379a0000000000000000000000000000000000000000000000000000000008152600401611365906144e2565b60405180910390fd5b600160405180606001604052808573ffffffffffffffffffffffffffffffffffffffff16815260200184815260200183815250908060018154018082558091505060019003906000526020600020906003020160009091909190915060008201518160000160006101000a81548173ffffffffffffffffffffffffffffffffffffffff021916908373ffffffffffffffffffffffffffffffffffffffff160217905550602082015181600101908051906020019061142d929190613427565b50604082015181600201555050505050565b6000818154811061144f57600080fd5b90600052602060002090600902016000915090508060000160009054906101000a900473ffffffffffffffffffffffffffffffffffffffff169080600101805461149890614336565b80601f01602080910402602001604051908101604052809291908181526020018280546114c490614336565b80156115115780601f106114e657610100808354040283529160200191611511565b820191906000526020600020905b8154815290600101906020018083116114f457829003601f168201915b50505050509080600201805461152690614336565b80601f016020809104026020016040519081016040528092919081815260200182805461155290614336565b801561159f5780601f106115745761010080835404028352916020019161159f565b820191906000526020600020905b81548152906001019060200180831161158257829003601f168201915b5050505050908060030180546115b490614336565b80601f01602080910402602001604051908101604052809291908181526020018280546115e090614336565b801561162d5780601f106116025761010080835404028352916020019161162d565b820191906000526020600020905b81548152906001019060200180831161161057829003601f168201915b50505050509080600401805461164290614336565b80601f016020809104026020016040519081016040528092919081815260200182805461166e90614336565b80156116bb5780601f10611690576101008083540402835291602001916116bb565b820191906000526020600020905b81548152906001019060200180831161169e57829003601f168201915b5050505050908060050180546116d090614336565b80601f01602080910402602001604051908101604052809291908181526020018280546116fc90614336565b80156117495780601f1061171e57610100808354040283529160200191611749565b820191906000526020600020905b81548152906001019060200180831161172c57829003601f168201915b50505050509080600601805461175e90614336565b80601f016020809104026020016040519081016040528092919081815260200182805461178a90614336565b80156117d75780601f106117ac576101008083540402835291602001916117d7565b820191906000526020600020905b8154815290600101906020018083116117ba57829003601f168201915b5050505050908060070180546117ec90614336565b80601f016020809104026020016040519081016040528092919081815260200182805461181890614336565b80156118655780601f1061183a57610100808354040283529160200191611865565b820191906000526020600020905b81548152906001019060200180831161184857829003601f168201915b50505050509080600801805461187a90614336565b80601f01602080910402602001604051908101604052809291908181526020018280546118a690614336565b80156118f35780601f106118c8576101008083540402835291602001916118f3565b820191906000526020600020905b8154815290600101906020018083116118d657829003601f168201915b5050505050905089565b600080600090505b6001805490508110156119f3578373ffffffffffffffffffffffffffffffffffffffff166001828154811061193d5761193c6142d8565b5b906000526020600020906003020160000160009054906101000a900473ffffffffffffffffffffffffffffffffffffffff1673ffffffffffffffffffffffffffffffffffffffff161480156119d157508280519060200120600182815481106119a9576119a86142d8565b5b90600052602060002090600302016001016040516119c7919061447f565b6040518091039020145b156119e05760019150506119f5565b80806119eb90614397565b915050611905565b505b92915050565b60006040518061012001604052808b73ffffffffffffffffffffffffffffffffffffffff1681526020018a815260200189815260200188815260200187815260200186815260200185815260200184815260200183815250908060018154018082558091505060019003906000526020600020906009020160009091909190915060008201518160000160006101000a81548173ffffffffffffffffffffffffffffffffffffffff021916908373ffffffffffffffffffffffffffffffffffffffff1602179055506020820151816001019080519060200190611adf929190613427565b506040820151816002019080519060200190611afc929190613427565b506060820151816003019080519060200190611b19929190613427565b506080820151816004019080519060200190611b36929190613427565b5060a0820151816005019080519060200190611b53929190613427565b5060c0820151816006019080519060200190611b70929190613427565b5060e0820151816007019080519060200190611b8d929190613427565b50610100820151816008019080519060200190611bab929190613427565b505050505050505050505050565b6060806060806060600060028054905067ffffffffffffffff811115611be257611be16136e0565b5b604051908082528060200260200182016040528015611c1557816020015b6060815260200190600190039081611c005790505b509050600060028054905067ffffffffffffffff811115611c3957611c386136e0565b5b604051908082528060200260200182016040528015611c6c57816020015b6060815260200190600190039081611c575790505b509050600060028054905067ffffffffffffffff811115611c9057611c8f6136e0565b5b604051908082528060200260200182016040528015611cc357816020015b6060815260200190600190039081611cae5790505b509050600060028054905067ffffffffffffffff811115611ce757611ce66136e0565b5b604051908082528060200260200182016040528015611d1a57816020015b6060815260200190600190039081611d055790505b509050600060028054905067ffffffffffffffff811115611d3e57611d3d6136e0565b5b604051908082528060200260200182016040528015611d7157816020015b6060815260200190600190039081611d5c5790505b50905060005b60028054905081101561220d578b73ffffffffffffffffffffffffffffffffffffffff1660028281548110611daf57611dae6142d8565b5b906000526020600020906006020160000160009054906101000a900473ffffffffffffffffffffffffffffffffffffffff1673ffffffffffffffffffffffffffffffffffffffff1614156121fa5760028181548110611e1157611e106142d8565b5b90600052602060002090600602016001018054611e2d90614336565b80601f0160208091040260200160405190810160405280929190818152602001828054611e5990614336565b8015611ea65780601f10611e7b57610100808354040283529160200191611ea6565b820191906000526020600020905b815481529060010190602001808311611e8957829003601f168201915b5050505050868281518110611ebe57611ebd6142d8565b5b602002602001018190525060028181548110611edd57611edc6142d8565b5b90600052602060002090600602016002018054611ef990614336565b80601f0160208091040260200160405190810160405280929190818152602001828054611f2590614336565b8015611f725780601f10611f4757610100808354040283529160200191611f72565b820191906000526020600020905b815481529060010190602001808311611f5557829003601f168201915b5050505050858281518110611f8a57611f896142d8565b5b602002602001018190525060028181548110611fa957611fa86142d8565b5b90600052602060002090600602016003018054611fc590614336565b80601f0160208091040260200160405190810160405280929190818152602001828054611ff190614336565b801561203e5780601f106120135761010080835404028352916020019161203e565b820191906000526020600020905b81548152906001019060200180831161202157829003601f168201915b5050505050848281518110612056576120556142d8565b5b602002602001018190525060028181548110612075576120746142d8565b5b9060005260206000209060060201600401805461209190614336565b80601f01602080910402602001604051908101604052809291908181526020018280546120bd90614336565b801561210a5780601f106120df5761010080835404028352916020019161210a565b820191906000526020600020905b8154815290600101906020018083116120ed57829003601f168201915b5050505050838281518110612122576121216142d8565b5b602002602001018190525060028181548110612141576121406142d8565b5b9060005260206000209060060201600501805461215d90614336565b80601f016020809104026020016040519081016040528092919081815260200182805461218990614336565b80156121d65780601f106121ab576101008083540402835291602001916121d6565b820191906000526020600020905b8154815290600101906020018083116121b957829003601f168201915b50505050508282815181106121ee576121ed6142d8565b5b60200260200101819052505b808061220590614397565b915050611d77565b50848484848499509950995099509950505050505091939590929450565b6000806000905060005b6001805490508110156122de578373ffffffffffffffffffffffffffffffffffffffff166001828154811061226d5761226c6142d8565b5b906000526020600020906003020160000160009054906101000a900473ffffffffffffffffffffffffffffffffffffffff1673ffffffffffffffffffffffffffffffffffffffff1614156122cb576001826122c89190614502565b91505b80806122d690614397565b915050612235565b5080915050919050565b600080600090505b600080549050811015612393578273ffffffffffffffffffffffffffffffffffffffff1660008281548110612328576123276142d8565b5b906000526020600020906009020160000160009054906101000a900473ffffffffffffffffffffffffffffffffffffffff1673ffffffffffffffffffffffffffffffffffffffff161415612380576001915050612395565b808061238b90614397565b9150506122f0565b505b919050565b60005b6001805490508110156124ff578373ffffffffffffffffffffffffffffffffffffffff16600182815481106123d5576123d46142d8565b5b906000526020600020906003020160000160009054906101000a900473ffffffffffffffffffffffffffffffffffffffff1673ffffffffffffffffffffffffffffffffffffffff1614156124ec578360018281548110612438576124376142d8565b5b906000526020600020906003020160000160006101000a81548173ffffffffffffffffffffffffffffffffffffffff021916908373ffffffffffffffffffffffffffffffffffffffff160217905550826001828154811061249c5761249b6142d8565b5b906000526020600020906003020160010190805190602001906124c0929190613427565b5081600182815481106124d6576124d56142d8565b5b9060005260206000209060030201600201819055505b80806124f790614397565b91505061239d565b50505050565b606080600060018054905067ffffffffffffffff811115612529576125286136e0565b5b60405190808252806020026020018201604052801561255c57816020015b60608152602001906001900390816125475790505b509050600060018054905067ffffffffffffffff8111156125805761257f6136e0565b5b6040519080825280602002602001820160405280156125ae5781602001602082028036833780820191505090505b50905060005b60018054905081101561275f578573ffffffffffffffffffffffffffffffffffffffff16600182815481106125ec576125eb6142d8565b5b906000526020600020906003020160000160009054906101000a900473ffffffffffffffffffffffffffffffffffffffff1673ffffffffffffffffffffffffffffffffffffffff16141561274c576001818154811061264e5761264d6142d8565b5b9060005260206000209060030201600101805461266a90614336565b80601f016020809104026020016040519081016040528092919081815260200182805461269690614336565b80156126e35780601f106126b8576101008083540402835291602001916126e3565b820191906000526020600020905b8154815290600101906020018083116126c657829003601f168201915b50505050508382815181106126fb576126fa6142d8565b5b60200260200101819052506001818154811061271a576127196142d8565b5b90600052602060002090600302016002015482828151811061273f5761273e6142d8565b5b6020026020010181815250505b808061275790614397565b9150506125b4565b508181935093505050915091565b60005b6000805490508110156129a0578873ffffffffffffffffffffffffffffffffffffffff16600082815481106127a8576127a76142d8565b5b906000526020600020906009020160000160009054906101000a900473ffffffffffffffffffffffffffffffffffffffff1673ffffffffffffffffffffffffffffffffffffffff16141561298d57876000828154811061280b5761280a6142d8565b5b9060005260206000209060090201600101908051906020019061282f929190613427565b508660008281548110612845576128446142d8565b5b90600052602060002090600902016002019080519060200190612869929190613427565b50856000828154811061287f5761287e6142d8565b5b906000526020600020906009020160030190805190602001906128a3929190613427565b5084600082815481106128b9576128b86142d8565b5b906000526020600020906009020160040190805190602001906128dd929190613427565b5083600082815481106128f3576128f26142d8565b5b90600052602060002090600902016005019080519060200190612917929190613427565b50826000828154811061292d5761292c6142d8565b5b90600052602060002090600902016006019080519060200190612951929190613427565b508160008281548110612967576129666142d8565b5b9060005260206000209060090201600701908051906020019061298b929190613427565b505b808061299890614397565b915050612770565b505050505050505050565b6060806060806060806060806000808054905067ffffffffffffffff8111156129d7576129d66136e0565b5b604051908082528060200260200182016040528015612a055781602001602082028036833780820191505090505b5090506000808054905067ffffffffffffffff811115612a2857612a276136e0565b5b604051908082528060200260200182016040528015612a5b57816020015b6060815260200190600190039081612a465790505b5090506000808054905067ffffffffffffffff811115612a7e57612a7d6136e0565b5b604051908082528060200260200182016040528015612ab157816020015b6060815260200190600190039081612a9c5790505b5090506000808054905067ffffffffffffffff811115612ad457612ad36136e0565b5b604051908082528060200260200182016040528015612b0757816020015b6060815260200190600190039081612af25790505b5090506000808054905067ffffffffffffffff811115612b2a57612b296136e0565b5b604051908082528060200260200182016040528015612b5d57816020015b6060815260200190600190039081612b485790505b5090506000808054905067ffffffffffffffff811115612b8057612b7f6136e0565b5b604051908082528060200260200182016040528015612bb357816020015b6060815260200190600190039081612b9e5790505b5090506000808054905067ffffffffffffffff811115612bd657612bd56136e0565b5b604051908082528060200260200182016040528015612c0957816020015b6060815260200190600190039081612bf45790505b5090506000808054905067ffffffffffffffff811115612c2c57612c2b6136e0565b5b604051908082528060200260200182016040528015612c5f57816020015b6060815260200190600190039081612c4a5790505b50905060005b6000805490508110156132ac5760008181548110612c8657612c856142d8565b5b906000526020600020906009020160000160009054906101000a900473ffffffffffffffffffffffffffffffffffffffff16898281518110612ccb57612cca6142d8565b5b602002602001019073ffffffffffffffffffffffffffffffffffffffff16908173ffffffffffffffffffffffffffffffffffffffff168152505060008181548110612d1957612d186142d8565b5b90600052602060002090600902016001018054612d3590614336565b80601f0160208091040260200160405190810160405280929190818152602001828054612d6190614336565b8015612dae5780601f10612d8357610100808354040283529160200191612dae565b820191906000526020600020905b815481529060010190602001808311612d9157829003601f168201915b5050505050888281518110612dc657612dc56142d8565b5b602002602001018190525060008181548110612de557612de46142d8565b5b90600052602060002090600902016002018054612e0190614336565b80601f0160208091040260200160405190810160405280929190818152602001828054612e2d90614336565b8015612e7a5780601f10612e4f57610100808354040283529160200191612e7a565b820191906000526020600020905b815481529060010190602001808311612e5d57829003601f168201915b5050505050878281518110612e9257612e916142d8565b5b602002602001018190525060008181548110612eb157612eb06142d8565b5b90600052602060002090600902016003018054612ecd90614336565b80601f0160208091040260200160405190810160405280929190818152602001828054612ef990614336565b8015612f465780601f10612f1b57610100808354040283529160200191612f46565b820191906000526020600020905b815481529060010190602001808311612f2957829003601f168201915b5050505050868281518110612f5e57612f5d6142d8565b5b602002602001018190525060008181548110612f7d57612f7c6142d8565b5b90600052602060002090600902016004018054612f9990614336565b80601f0160208091040260200160405190810160405280929190818152602001828054612fc590614336565b80156130125780601f10612fe757610100808354040283529160200191613012565b820191906000526020600020905b815481529060010190602001808311612ff557829003601f168201915b505050505085828151811061302a576130296142d8565b5b602002602001018190525060008181548110613049576130486142d8565b5b9060005260206000209060090201600501805461306590614336565b80601f016020809104026020016040519081016040528092919081815260200182805461309190614336565b80156130de5780601f106130b3576101008083540402835291602001916130de565b820191906000526020600020905b8154815290600101906020018083116130c157829003601f168201915b50505050508482815181106130f6576130f56142d8565b5b602002602001018190525060008181548110613115576131146142d8565b5b9060005260206000209060090201600601805461313190614336565b80601f016020809104026020016040519081016040528092919081815260200182805461315d90614336565b80156131aa5780601f1061317f576101008083540402835291602001916131aa565b820191906000526020600020905b81548152906001019060200180831161318d57829003601f168201915b50505050508382815181106131c2576131c16142d8565b5b6020026020010181905250600081815481106131e1576131e06142d8565b5b906000526020600020906009020160070180546131fd90614336565b80601f016020809104026020016040519081016040528092919081815260200182805461322990614336565b80156132765780601f1061324b57610100808354040283529160200191613276565b820191906000526020600020905b81548152906001019060200180831161325957829003601f168201915b505050505082828151811061328e5761328d6142d8565b5b602002602001018190525080806132a490614397565b915050612c65565b5087878787878787879f509f509f509f509f509f509f509f5050505050505050509091929394959697565b60026040518060c001604052808873ffffffffffffffffffffffffffffffffffffffff16815260200187815260200186815260200185815260200184815260200183815250908060018154018082558091505060019003906000526020600020906006020160009091909190915060008201518160000160006101000a81548173ffffffffffffffffffffffffffffffffffffffff021916908373ffffffffffffffffffffffffffffffffffffffff16021790555060208201518160010190805190602001906133a8929190613427565b5060408201518160020190805190602001906133c5929190613427565b5060608201518160030190805190602001906133e2929190613427565b5060808201518160040190805190602001906133ff929190613427565b5060a082015181600501908051906020019061341c929190613427565b505050505050505050565b82805461343390614336565b90600052602060002090601f016020900481019282613455576000855561349c565b82601f1061346e57805160ff191683800117855561349c565b8280016001018555821561349c579182015b8281111561349b578251825591602001919060010190613480565b5b5090506134a991906134ad565b5090565b5b808211156134c65760008160009055506001016134ae565b5090565b6000604051905090565b600080fd5b600080fd5b600073ffffffffffffffffffffffffffffffffffffffff82169050919050565b6000613509826134de565b9050919050565b613519816134fe565b811461352457600080fd5b50565b60008135905061353681613510565b92915050565b600060208284031215613552576135516134d4565b5b600061356084828501613527565b91505092915050565b613572816134fe565b82525050565b600081519050919050565b600082825260208201905092915050565b60005b838110156135b2578082015181840152602081019050613597565b838111156135c1576000848401525b50505050565b6000601f19601f8301169050919050565b60006135e382613578565b6135ed8185613583565b93506135fd818560208601613594565b613606816135c7565b840191505092915050565b600061012082019050613627600083018c613569565b8181036020830152613639818b6135d8565b9050818103604083015261364d818a6135d8565b9050818103606083015261366181896135d8565b9050818103608083015261367581886135d8565b905081810360a083015261368981876135d8565b905081810360c083015261369d81866135d8565b905081810360e08301526136b181856135d8565b90508181036101008301526136c681846135d8565b90509a9950505050505050505050565b600080fd5b600080fd5b7f4e487b7100000000000000000000000000000000000000000000000000000000600052604160045260246000fd5b613718826135c7565b810181811067ffffffffffffffff82111715613737576137366136e0565b5b80604052505050565b600061374a6134ca565b9050613756828261370f565b919050565b600067ffffffffffffffff821115613776576137756136e0565b5b61377f826135c7565b9050602081019050919050565b82818337600083830152505050565b60006137ae6137a98461375b565b613740565b9050828152602081018484840111156137ca576137c96136db565b5b6137d584828561378c565b509392505050565b600082601f8301126137f2576137f16136d6565b5b813561380284826020860161379b565b91505092915050565b60008060408385031215613822576138216134d4565b5b600061383085828601613527565b925050602083013567ffffffffffffffff811115613851576138506134d9565b5b61385d858286016137dd565b9150509250929050565b6000819050919050565b61387a81613867565b82525050565b60006020820190506138956000830184613871565b92915050565b6138a481613867565b81146138af57600080fd5b50565b6000813590506138c18161389b565b92915050565b6000602082840312156138dd576138dc6134d4565b5b60006138eb848285016138b2565b91505092915050565b600060c0820190506139096000830189613569565b818103602083015261391b81886135d8565b9050818103604083015261392f81876135d8565b9050818103606083015261394381866135d8565b9050818103608083015261395781856135d8565b905081810360a083015261396b81846135d8565b9050979650505050505050565b600080600060608486031215613991576139906134d4565b5b600061399f86828701613527565b935050602084013567ffffffffffffffff8111156139c0576139bf6134d9565b5b6139cc868287016137dd565b925050604084013567ffffffffffffffff8111156139ed576139ec6134d9565b5b6139f9868287016137dd565b9150509250925092565b6000606082019050613a186000830186613569565b8181036020830152613a2a81856135d8565b9050613a396040830184613871565b949350505050565b60008060008060008060c08789031215613a5e57613a5d6134d4565b5b6000613a6c89828a01613527565b965050602087013567ffffffffffffffff811115613a8d57613a8c6134d9565b5b613a9989828a016137dd565b955050604087013567ffffffffffffffff811115613aba57613ab96134d9565b5b613ac689828a016137dd565b945050606087013567ffffffffffffffff811115613ae757613ae66134d9565b5b613af389828a016137dd565b935050608087013567ffffffffffffffff811115613b1457613b136134d9565b5b613b2089828a016137dd565b92505060a087013567ffffffffffffffff811115613b4157613b406134d9565b5b613b4d89828a016137dd565b9150509295509295509295565b600080600060608486031215613b7357613b726134d4565b5b6000613b8186828701613527565b935050602084013567ffffffffffffffff811115613ba257613ba16134d9565b5b613bae868287016137dd565b9250506040613bbf868287016138b2565b9150509250925092565b60008060008060008060008060006101208a8c031215613bec57613beb6134d4565b5b6000613bfa8c828d01613527565b99505060208a013567ffffffffffffffff811115613c1b57613c1a6134d9565b5b613c278c828d016137dd565b98505060408a013567ffffffffffffffff811115613c4857613c476134d9565b5b613c548c828d016137dd565b97505060608a013567ffffffffffffffff811115613c7557613c746134d9565b5b613c818c828d016137dd565b96505060808a013567ffffffffffffffff811115613ca257613ca16134d9565b5b613cae8c828d016137dd565b95505060a08a013567ffffffffffffffff811115613ccf57613cce6134d9565b5b613cdb8c828d016137dd565b94505060c08a013567ffffffffffffffff811115613cfc57613cfb6134d9565b5b613d088c828d016137dd565b93505060e08a013567ffffffffffffffff811115613d2957613d286134d9565b5b613d358c828d016137dd565b9250506101008a013567ffffffffffffffff811115613d5757613d566134d9565b5b613d638c828d016137dd565b9150509295985092959850929598565b600081519050919050565b600082825260208201905092915050565b6000819050602082019050919050565b600082825260208201905092915050565b6000613dbb82613578565b613dc58185613d9f565b9350613dd5818560208601613594565b613dde816135c7565b840191505092915050565b6000613df58383613db0565b905092915050565b6000602082019050919050565b6000613e1582613d73565b613e1f8185613d7e565b935083602082028501613e3185613d8f565b8060005b85811015613e6d5784840389528151613e4e8582613de9565b9450613e5983613dfd565b925060208a01995050600181019050613e35565b50829750879550505050505092915050565b600060a0820190508181036000830152613e998188613e0a565b90508181036020830152613ead8187613e0a565b90508181036040830152613ec18186613e0a565b90508181036060830152613ed58185613e0a565b90508181036080830152613ee98184613e0a565b90509695505050505050565b600081519050919050565b600082825260208201905092915050565b6000819050602082019050919050565b613f2a81613867565b82525050565b6000613f3c8383613f21565b60208301905092915050565b6000602082019050919050565b6000613f6082613ef5565b613f6a8185613f00565b9350613f7583613f11565b8060005b83811015613fa6578151613f8d8882613f30565b9750613f9883613f48565b925050600181019050613f79565b5085935050505092915050565b60006040820190508181036000830152613fcd8185613e0a565b90508181036020830152613fe18184613f55565b90509392505050565b600080600080600080600080610100898b03121561400b5761400a6134d4565b5b60006140198b828c01613527565b985050602089013567ffffffffffffffff81111561403a576140396134d9565b5b6140468b828c016137dd565b975050604089013567ffffffffffffffff811115614067576140666134d9565b5b6140738b828c016137dd565b965050606089013567ffffffffffffffff811115614094576140936134d9565b5b6140a08b828c016137dd565b955050608089013567ffffffffffffffff8111156140c1576140c06134d9565b5b6140cd8b828c016137dd565b94505060a089013567ffffffffffffffff8111156140ee576140ed6134d9565b5b6140fa8b828c016137dd565b93505060c089013567ffffffffffffffff81111561411b5761411a6134d9565b5b6141278b828c016137dd565b92505060e089013567ffffffffffffffff811115614148576141476134d9565b5b6141548b828c016137dd565b9150509295985092959890939650565b600081519050919050565b600082825260208201905092915050565b6000819050602082019050919050565b614199816134fe565b82525050565b60006141ab8383614190565b60208301905092915050565b6000602082019050919050565b60006141cf82614164565b6141d9818561416f565b93506141e483614180565b8060005b838110156142155781516141fc888261419f565b9750614207836141b7565b9250506001810190506141e8565b5085935050505092915050565b600061010082019050818103600083015261423d818b6141c4565b90508181036020830152614251818a613e0a565b905081810360408301526142658189613e0a565b905081810360608301526142798188613e0a565b9050818103608083015261428d8187613e0a565b905081810360a08301526142a18186613e0a565b905081810360c08301526142b58185613e0a565b905081810360e08301526142c98184613e0a565b90509998505050505050505050565b7f4e487b7100000000000000000000000000000000000000000000000000000000600052603260045260246000fd5b7f4e487b7100000000000000000000000000000000000000000000000000000000600052602260045260246000fd5b6000600282049050600182168061434e57607f821691505b6020821081141561436257614361614307565b5b50919050565b7f4e487b7100000000000000000000000000000000000000000000000000000000600052601160045260246000fd5b60006143a282613867565b91507fffffffffffffffffffffffffffffffffffffffffffffffffffffffffffffffff8214156143d5576143d4614368565b5b600182019050919050565b600081905092915050565b60008190508160005260206000209050919050565b6000815461440d81614336565b61441781866143e0565b94506001821660008114614432576001811461444357614476565b60ff19831686528186019350614476565b61444c856143eb565b60005b8381101561446e5781548189015260018201915060208101905061444f565b838801955050505b50505092915050565b600061448b8284614400565b915081905092915050565b7f4c6576656c206f6620736b696c6c20696e636f72726563742e00000000000000600082015250565b60006144cc601983613583565b91506144d782614496565b602082019050919050565b600060208201905081810360008301526144fb816144bf565b9050919050565b600061450d82613867565b915061451883613867565b9250827fffffffffffffffffffffffffffffffffffffffffffffffffffffffffffffffff0382111561454d5761454c614368565b5b82820190509291505056fea2646970667358221220364325b3b0a3cecf6eee645b6ba8e2a799e5c7bdfb4a9015bb10015ae686faec64736f6c634300080b0033608060405234801561001057600080fd5b50612610806100206000396000f3fe608060405234801561001057600080fd5b506004361061007d5760003560e01c8063bf44b3031161005b578063bf44b30314610104578063c6fe410a1461013b578063cfafbc0c1461016b578063e045b710146101905761007d565b80630f53a4701461008257806323b6d993146100b8578063a7dba184146100d4575b600080fd5b61009c60048036038101906100979190611a9d565b6101ac565b6040516100af9796959493929190611b72565b60405180910390f35b6100d260048036038101906100cd9190611d40565b6106e0565b005b6100ee60048036038101906100e99190611e8a565b6108e3565b6040516100fb9190611eff565b60405180910390f35b61011e60048036038101906101199190611f46565b6109e1565b604051610132989796959493929190611f73565b60405180910390f35b61015560048036038101906101509190611a9d565b610e11565b6040516101629190611eff565b60405180910390f35b610173610ec3565b6040516101879897969594939291906121ec565b60405180910390f35b6101aa60048036038101906101a591906122a2565b6117ef565b005b600060608060608060608060005b6000805490508110156106d3578873ffffffffffffffffffffffffffffffffffffffff16600082815481106101f2576101f161241c565b5b906000526020600020906008020160000160009054906101000a900473ffffffffffffffffffffffffffffffffffffffff1673ffffffffffffffffffffffffffffffffffffffff1614156106c057600081815481106102545761025361241c565b5b906000526020600020906008020160000160009054906101000a900473ffffffffffffffffffffffffffffffffffffffff166000828154811061029a5761029961241c565b5b9060005260206000209060080201600101600083815481106102bf576102be61241c565b5b9060005260206000209060080201600201600084815481106102e4576102e361241c565b5b9060005260206000209060080201600301600085815481106103095761030861241c565b5b90600052602060002090600802016004016000868154811061032e5761032d61241c565b5b9060005260206000209060080201600501600087815481106103535761035261241c565b5b90600052602060002090600802016006018580546103709061247a565b80601f016020809104026020016040519081016040528092919081815260200182805461039c9061247a565b80156103e95780601f106103be576101008083540402835291602001916103e9565b820191906000526020600020905b8154815290600101906020018083116103cc57829003601f168201915b505050505095508480546103fc9061247a565b80601f01602080910402602001604051908101604052809291908181526020018280546104289061247a565b80156104755780601f1061044a57610100808354040283529160200191610475565b820191906000526020600020905b81548152906001019060200180831161045857829003601f168201915b505050505094508380546104889061247a565b80601f01602080910402602001604051908101604052809291908181526020018280546104b49061247a565b80156105015780601f106104d657610100808354040283529160200191610501565b820191906000526020600020905b8154815290600101906020018083116104e457829003601f168201915b505050505093508280546105149061247a565b80601f01602080910402602001604051908101604052809291908181526020018280546105409061247a565b801561058d5780601f106105625761010080835404028352916020019161058d565b820191906000526020600020905b81548152906001019060200180831161057057829003601f168201915b505050505092508180546105a09061247a565b80601f01602080910402602001604051908101604052809291908181526020018280546105cc9061247a565b80156106195780601f106105ee57610100808354040283529160200191610619565b820191906000526020600020905b8154815290600101906020018083116105fc57829003601f168201915b5050505050915080805461062c9061247a565b80601f01602080910402602001604051908101604052809291908181526020018280546106589061247a565b80156106a55780601f1061067a576101008083540402835291602001916106a5565b820191906000526020600020905b81548152906001019060200180831161068857829003601f168201915b505050505090509750975097509750975097509750506106d5565b80806106cb906124db565b9150506101ba565b505b919395979092949650565b60005b6000805490508110156108d9578773ffffffffffffffffffffffffffffffffffffffff166000828154811061071b5761071a61241c565b5b906000526020600020906008020160000160009054906101000a900473ffffffffffffffffffffffffffffffffffffffff1673ffffffffffffffffffffffffffffffffffffffff1614156108c657866000828154811061077e5761077d61241c565b5b906000526020600020906008020160010190805190602001906107a2929190611988565b5085600082815481106107b8576107b761241c565b5b906000526020600020906008020160020190805190602001906107dc929190611988565b5084600082815481106107f2576107f161241c565b5b90600052602060002090600802016003019080519060200190610816929190611988565b50836000828154811061082c5761082b61241c565b5b90600052602060002090600802016004019080519060200190610850929190611988565b5082600082815481106108665761086561241c565b5b9060005260206000209060080201600501908051906020019061088a929190611988565b5081600082815481106108a05761089f61241c565b5b906000526020600020906008020160060190805190602001906108c4929190611988565b505b80806108d1906124db565b9150506106e3565b5050505050505050565b600080600090505b6000805490508110156109d9578373ffffffffffffffffffffffffffffffffffffffff16600082815481106109235761092261241c565b5b906000526020600020906008020160000160009054906101000a900473ffffffffffffffffffffffffffffffffffffffff1673ffffffffffffffffffffffffffffffffffffffff161480156109b7575082805190602001206000828154811061098f5761098e61241c565b5b90600052602060002090600802016007016040516109ad91906125c3565b6040518091039020145b156109c65760019150506109db565b80806109d1906124db565b9150506108eb565b505b92915050565b600081815481106109f157600080fd5b90600052602060002090600802016000915090508060000160009054906101000a900473ffffffffffffffffffffffffffffffffffffffff1690806001018054610a3a9061247a565b80601f0160208091040260200160405190810160405280929190818152602001828054610a669061247a565b8015610ab35780601f10610a8857610100808354040283529160200191610ab3565b820191906000526020600020905b815481529060010190602001808311610a9657829003601f168201915b505050505090806002018054610ac89061247a565b80601f0160208091040260200160405190810160405280929190818152602001828054610af49061247a565b8015610b415780601f10610b1657610100808354040283529160200191610b41565b820191906000526020600020905b815481529060010190602001808311610b2457829003601f168201915b505050505090806003018054610b569061247a565b80601f0160208091040260200160405190810160405280929190818152602001828054610b829061247a565b8015610bcf5780601f10610ba457610100808354040283529160200191610bcf565b820191906000526020600020905b815481529060010190602001808311610bb257829003601f168201915b505050505090806004018054610be49061247a565b80601f0160208091040260200160405190810160405280929190818152602001828054610c109061247a565b8015610c5d5780601f10610c3257610100808354040283529160200191610c5d565b820191906000526020600020905b815481529060010190602001808311610c4057829003601f168201915b505050505090806005018054610c729061247a565b80601f0160208091040260200160405190810160405280929190818152602001828054610c9e9061247a565b8015610ceb5780601f10610cc057610100808354040283529160200191610ceb565b820191906000526020600020905b815481529060010190602001808311610cce57829003601f168201915b505050505090806006018054610d009061247a565b80601f0160208091040260200160405190810160405280929190818152602001828054610d2c9061247a565b8015610d795780601f10610d4e57610100808354040283529160200191610d79565b820191906000526020600020905b815481529060010190602001808311610d5c57829003601f168201915b505050505090806007018054610d8e9061247a565b80601f0160208091040260200160405190810160405280929190818152602001828054610dba9061247a565b8015610e075780601f10610ddc57610100808354040283529160200191610e07565b820191906000526020600020905b815481529060010190602001808311610dea57829003601f168201915b5050505050905088565b600080600090505b600080549050811015610ebc578273ffffffffffffffffffffffffffffffffffffffff1660008281548110610e5157610e5061241c565b5b906000526020600020906008020160000160009054906101000a900473ffffffffffffffffffffffffffffffffffffffff1673ffffffffffffffffffffffffffffffffffffffff161415610ea9576001915050610ebe565b8080610eb4906124db565b915050610e19565b505b919050565b6060806060806060806060806000808054905067ffffffffffffffff811115610eef57610eee611c15565b5b604051908082528060200260200182016040528015610f1d5781602001602082028036833780820191505090505b5090506000808054905067ffffffffffffffff811115610f4057610f3f611c15565b5b604051908082528060200260200182016040528015610f7357816020015b6060815260200190600190039081610f5e5790505b5090506000808054905067ffffffffffffffff811115610f9657610f95611c15565b5b604051908082528060200260200182016040528015610fc957816020015b6060815260200190600190039081610fb45790505b5090506000808054905067ffffffffffffffff811115610fec57610feb611c15565b5b60405190808252806020026020018201604052801561101f57816020015b606081526020019060019003908161100a5790505b5090506000808054905067ffffffffffffffff81111561104257611041611c15565b5b60405190808252806020026020018201604052801561107557816020015b60608152602001906001900390816110605790505b5090506000808054905067ffffffffffffffff81111561109857611097611c15565b5b6040519080825280602002602001820160405280156110cb57816020015b60608152602001906001900390816110b65790505b5090506000808054905067ffffffffffffffff8111156110ee576110ed611c15565b5b60405190808252806020026020018201604052801561112157816020015b606081526020019060019003908161110c5790505b5090506000808054905067ffffffffffffffff81111561114457611143611c15565b5b60405190808252806020026020018201604052801561117757816020015b60608152602001906001900390816111625790505b50905060005b6000805490508110156117c4576000818154811061119e5761119d61241c565b5b906000526020600020906008020160000160009054906101000a900473ffffffffffffffffffffffffffffffffffffffff168982815181106111e3576111e261241c565b5b602002602001019073ffffffffffffffffffffffffffffffffffffffff16908173ffffffffffffffffffffffffffffffffffffffff1681525050600081815481106112315761123061241c565b5b9060005260206000209060080201600101805461124d9061247a565b80601f01602080910402602001604051908101604052809291908181526020018280546112799061247a565b80156112c65780601f1061129b576101008083540402835291602001916112c6565b820191906000526020600020905b8154815290600101906020018083116112a957829003601f168201915b50505050508882815181106112de576112dd61241c565b5b6020026020010181905250600081815481106112fd576112fc61241c565b5b906000526020600020906008020160020180546113199061247a565b80601f01602080910402602001604051908101604052809291908181526020018280546113459061247a565b80156113925780601f1061136757610100808354040283529160200191611392565b820191906000526020600020905b81548152906001019060200180831161137557829003601f168201915b50505050508782815181106113aa576113a961241c565b5b6020026020010181905250600081815481106113c9576113c861241c565b5b906000526020600020906008020160030180546113e59061247a565b80601f01602080910402602001604051908101604052809291908181526020018280546114119061247a565b801561145e5780601f106114335761010080835404028352916020019161145e565b820191906000526020600020905b81548152906001019060200180831161144157829003601f168201915b50505050508682815181106114765761147561241c565b5b6020026020010181905250600081815481106114955761149461241c565b5b906000526020600020906008020160040180546114b19061247a565b80601f01602080910402602001604051908101604052809291908181526020018280546114dd9061247a565b801561152a5780601f106114ff5761010080835404028352916020019161152a565b820191906000526020600020905b81548152906001019060200180831161150d57829003601f168201915b50505050508582815181106115425761154161241c565b5b6020026020010181905250600081815481106115615761156061241c565b5b9060005260206000209060080201600501805461157d9061247a565b80601f01602080910402602001604051908101604052809291908181526020018280546115a99061247a565b80156115f65780601f106115cb576101008083540402835291602001916115f6565b820191906000526020600020905b8154815290600101906020018083116115d957829003601f168201915b505050505084828151811061160e5761160d61241c565b5b60200260200101819052506000818154811061162d5761162c61241c565b5b906000526020600020906008020160060180546116499061247a565b80601f01602080910402602001604051908101604052809291908181526020018280546116759061247a565b80156116c25780601f10611697576101008083540402835291602001916116c2565b820191906000526020600020905b8154815290600101906020018083116116a557829003601f168201915b50505050508382815181106116da576116d961241c565b5b6020026020010181905250600081815481106116f9576116f861241c565b5b906000526020600020906008020160070180546117159061247a565b80601f01602080910402602001604051908101604052809291908181526020018280546117419061247a565b801561178e5780601f106117635761010080835404028352916020019161178e565b820191906000526020600020905b81548152906001019060200180831161177157829003601f168201915b50505050508282815181106117a6576117a561241c565b5b602002602001018190525080806117bc906124db565b91505061117d565b5087878787878787879f509f509f509f509f509f509f509f5050505050505050509091929394959697565b60006040518061010001604052808a73ffffffffffffffffffffffffffffffffffffffff16815260200189815260200188815260200187815260200186815260200185815260200184815260200183815250908060018154018082558091505060019003906000526020600020906008020160009091909190915060008201518160000160006101000a81548173ffffffffffffffffffffffffffffffffffffffff021916908373ffffffffffffffffffffffffffffffffffffffff16021790555060208201518160010190805190602001906118cd929190611988565b5060408201518160020190805190602001906118ea929190611988565b506060820151816003019080519060200190611907929190611988565b506080820151816004019080519060200190611924929190611988565b5060a0820151816005019080519060200190611941929190611988565b5060c082015181600601908051906020019061195e929190611988565b5060e082015181600701908051906020019061197b929190611988565b5050505050505050505050565b8280546119949061247a565b90600052602060002090601f0160209004810192826119b657600085556119fd565b82601f106119cf57805160ff19168380011785556119fd565b828001600101855582156119fd579182015b828111156119fc5782518255916020019190600101906119e1565b5b509050611a0a9190611a0e565b5090565b5b80821115611a27576000816000905550600101611a0f565b5090565b6000604051905090565b600080fd5b600080fd5b600073ffffffffffffffffffffffffffffffffffffffff82169050919050565b6000611a6a82611a3f565b9050919050565b611a7a81611a5f565b8114611a8557600080fd5b50565b600081359050611a9781611a71565b92915050565b600060208284031215611ab357611ab2611a35565b5b6000611ac184828501611a88565b91505092915050565b611ad381611a5f565b82525050565b600081519050919050565b600082825260208201905092915050565b60005b83811015611b13578082015181840152602081019050611af8565b83811115611b22576000848401525b50505050565b6000601f19601f8301169050919050565b6000611b4482611ad9565b611b4e8185611ae4565b9350611b5e818560208601611af5565b611b6781611b28565b840191505092915050565b600060e082019050611b87600083018a611aca565b8181036020830152611b998189611b39565b90508181036040830152611bad8188611b39565b90508181036060830152611bc18187611b39565b90508181036080830152611bd58186611b39565b905081810360a0830152611be98185611b39565b905081810360c0830152611bfd8184611b39565b905098975050505050505050565b600080fd5b600080fd5b7f4e487b7100000000000000000000000000000000000000000000000000000000600052604160045260246000fd5b611c4d82611b28565b810181811067ffffffffffffffff82111715611c6c57611c6b611c15565b5b80604052505050565b6000611c7f611a2b565b9050611c8b8282611c44565b919050565b600067ffffffffffffffff821115611cab57611caa611c15565b5b611cb482611b28565b9050602081019050919050565b82818337600083830152505050565b6000611ce3611cde84611c90565b611c75565b905082815260208101848484011115611cff57611cfe611c10565b5b611d0a848285611cc1565b509392505050565b600082601f830112611d2757611d26611c0b565b5b8135611d37848260208601611cd0565b91505092915050565b600080600080600080600060e0888a031215611d5f57611d5e611a35565b5b6000611d6d8a828b01611a88565b975050602088013567ffffffffffffffff811115611d8e57611d8d611a3a565b5b611d9a8a828b01611d12565b965050604088013567ffffffffffffffff811115611dbb57611dba611a3a565b5b611dc78a828b01611d12565b955050606088013567ffffffffffffffff811115611de857611de7611a3a565b5b611df48a828b01611d12565b945050608088013567ffffffffffffffff811115611e1557611e14611a3a565b5b611e218a828b01611d12565b93505060a088013567ffffffffffffffff811115611e4257611e41611a3a565b5b611e4e8a828b01611d12565b92505060c088013567ffffffffffffffff811115611e6f57611e6e611a3a565b5b611e7b8a828b01611d12565b91505092959891949750929550565b60008060408385031215611ea157611ea0611a35565b5b6000611eaf85828601611a88565b925050602083013567ffffffffffffffff811115611ed057611ecf611a3a565b5b611edc85828601611d12565b9150509250929050565b6000819050919050565b611ef981611ee6565b82525050565b6000602082019050611f146000830184611ef0565b92915050565b611f2381611ee6565b8114611f2e57600080fd5b50565b600081359050611f4081611f1a565b92915050565b600060208284031215611f5c57611f5b611a35565b5b6000611f6a84828501611f31565b91505092915050565b600061010082019050611f89600083018b611aca565b8181036020830152611f9b818a611b39565b90508181036040830152611faf8189611b39565b90508181036060830152611fc38188611b39565b90508181036080830152611fd78187611b39565b905081810360a0830152611feb8186611b39565b905081810360c0830152611fff8185611b39565b905081810360e08301526120138184611b39565b90509998505050505050505050565b600081519050919050565b600082825260208201905092915050565b6000819050602082019050919050565b61205781611a5f565b82525050565b6000612069838361204e565b60208301905092915050565b6000602082019050919050565b600061208d82612022565b612097818561202d565b93506120a28361203e565b8060005b838110156120d35781516120ba888261205d565b97506120c583612075565b9250506001810190506120a6565b5085935050505092915050565b600081519050919050565b600082825260208201905092915050565b6000819050602082019050919050565b600082825260208201905092915050565b600061212882611ad9565b612132818561210c565b9350612142818560208601611af5565b61214b81611b28565b840191505092915050565b6000612162838361211d565b905092915050565b6000602082019050919050565b6000612182826120e0565b61218c81856120eb565b93508360208202850161219e856120fc565b8060005b858110156121da57848403895281516121bb8582612156565b94506121c68361216a565b925060208a019950506001810190506121a2565b50829750879550505050505092915050565b6000610100820190508181036000830152612207818b612082565b9050818103602083015261221b818a612177565b9050818103604083015261222f8189612177565b905081810360608301526122438188612177565b905081810360808301526122578187612177565b905081810360a083015261226b8186612177565b905081810360c083015261227f8185612177565b905081810360e08301526122938184612177565b90509998505050505050505050565b600080600080600080600080610100898b0312156122c3576122c2611a35565b5b60006122d18b828c01611a88565b985050602089013567ffffffffffffffff8111156122f2576122f1611a3a565b5b6122fe8b828c01611d12565b975050604089013567ffffffffffffffff81111561231f5761231e611a3a565b5b61232b8b828c01611d12565b965050606089013567ffffffffffffffff81111561234c5761234b611a3a565b5b6123588b828c01611d12565b955050608089013567ffffffffffffffff81111561237957612378611a3a565b5b6123858b828c01611d12565b94505060a089013567ffffffffffffffff8111156123a6576123a5611a3a565b5b6123b28b828c01611d12565b93505060c089013567ffffffffffffffff8111156123d3576123d2611a3a565b5b6123df8b828c01611d12565b92505060e089013567ffffffffffffffff811115612400576123ff611a3a565b5b61240c8b828c01611d12565b9150509295985092959890939650565b7f4e487b7100000000000000000000000000000000000000000000000000000000600052603260045260246000fd5b7f4e487b7100000000000000000000000000000000000000000000000000000000600052602260045260246000fd5b6000600282049050600182168061249257607f821691505b602082108114156124a6576124a561244b565b5b50919050565b7f4e487b7100000000000000000000000000000000000000000000000000000000600052601160045260246000fd5b60006124e682611ee6565b91507fffffffffffffffffffffffffffffffffffffffffffffffffffffffffffffffff821415612519576125186124ac565b5b600182019050919050565b600081905092915050565b60008190508160005260206000209050919050565b600081546125518161247a565b61255b8186612524565b945060018216600081146125765760018114612587576125ba565b60ff198316865281860193506125ba565b6125908561252f565b60005b838110156125b257815481890152600182019150602081019050612593565b838801955050505b50505092915050565b60006125cf8284612544565b91508190509291505056fea2646970667358221220bc344b17e35ab615f1464e8a2f8cd70376b6cfe866c70beed898b4f45670644d64736f6c634300080b0033608060405234801561001057600080fd5b506165a580620000216000396000f3fe608060405234801561001057600080fd5b506004361061014c5760003560e01c80634b38f2db116100c35780639fa7247a1161007c5780639fa7247a14610438578063a9846eb01461046d578063ac97812f146104a5578063bc72af7d146104da578063d23a4ee11461050f578063dd8f3edc1461052b5761014c565b80634b38f2db1461035b5780636cf871df146103905780637082941e146103ac5780637829b41e146103c857806384ae9131146103f8578063948195ed1461041c5761014c565b80630f53a470116101155780630f53a4701461023d57806324e66037146102725780632954ab10146102a2578063323cc7c5146102be57806344fd6e22146102f357806349f47a55146103235761014c565b8062220cf7146101515780630265275c1461016d57806306ed1e891461019d57806309bef62a146101d25780630c3f988214610208575b600080fd5b61016b600480360381019061016691906152bb565b610547565b005b610187600480360381019061018291906153b1565b6107ce565b604051610194919061544b565b60405180910390f35b6101b760048036038101906101b29190615466565b6108da565b6040516101c9969594939291906156ae565b60405180910390f35b6101ec60048036038101906101e79190615739565b610f4d565b6040516101ff97969594939291906157bf565b60405180910390f35b610222600480360381019061021d9190615466565b6112ef565b604051610234969594939291906159de565b60405180910390f35b61025760048036038101906102529190615a69565b6119fe565b60405161026996959493929190615a96565b60405180910390f35b61028c60048036038101906102879190615b1a565b611e7c565b604051610299919061544b565b60405180910390f35b6102bc60048036038101906102b79190615ba2565b611f7a565b005b6102d860048036038101906102d39190615739565b612138565b6040516102ea96959493929190615c04565b60405180910390f35b61030d60048036038101906103089190615a69565b61235c565b60405161031a919061544b565b60405180910390f35b61033d60048036038101906103389190615739565b61240e565b60405161035299989796959493929190615c7a565b60405180910390f35b61037560048036038101906103709190615d1c565b612644565b60405161038796959493929190615dbb565b60405180910390f35b6103aa60048036038101906103a59190615e31565b612a67565b005b6103c660048036038101906103c19190615ba2565b612c2f565b005b6103e260048036038101906103dd91906153b1565b612ded565b6040516103ef919061544b565b60405180910390f35b610400612ef9565b6040516104139796959493929190615f4a565b60405180910390f35b61043660048036038101906104319190615d1c565b6136fd565b005b610452600480360381019061044d9190615a69565b6138d3565b604051610464969594939291906159de565b60405180910390f35b61048760048036038101906104829190615739565b613f65565b60405161049c99989796959493929190615c7a565b60405180910390f35b6104bf60048036038101906104ba9190615d1c565b61419b565b6040516104d196959493929190615dbb565b60405180910390f35b6104f460048036038101906104ef9190615466565b6145be565b604051610506969594939291906156ae565b60405180910390f35b610529600480360381019061052491906152bb565b614c31565b005b61054560048036038101906105409190615fea565b614eb6565b005b6000821015801561055a57506101ef8211155b610599576040517f08c379a000000000000000000000000000000000000000000000000000000000815260040161059090616180565b60405180910390fd5b600081101580156105ac57506101ef8111155b6105eb576040517f08c379a00000000000000000000000000000000000000000000000000000000081526004016105e2906161ec565b60405180910390fd5b6002604051806101200160405280878760405160200161060c929190616248565b6040516020818303038152906040528051906020012081526020018973ffffffffffffffffffffffffffffffffffffffff1681526020018873ffffffffffffffffffffffffffffffffffffffff1681526020018781526020018681526020018581526020018481526020018381526020018385610689919061629b565b81525090806001815401808255809150506001900390600052602060002090600902016000909190919091506000820151816000015560208201518160010160006101000a81548173ffffffffffffffffffffffffffffffffffffffff021916908373ffffffffffffffffffffffffffffffffffffffff16021790555060408201518160020160006101000a81548173ffffffffffffffffffffffffffffffffffffffff021916908373ffffffffffffffffffffffffffffffffffffffff160217905550606082015181600301908051906020019061076992919061502a565b50608082015181600401908051906020019061078692919061502a565b5060a08201518160050190805190602001906107a392919061502a565b5060c0820151816006015560e082015181600701556101008201518160080155505050505050505050565b600080600090505b6002805490508110156108d1578473ffffffffffffffffffffffffffffffffffffffff166002828154811061080e5761080d6162f1565b5b906000526020600020906009020160020160009054906101000a900473ffffffffffffffffffffffffffffffffffffffff1673ffffffffffffffffffffffffffffffffffffffff161480156108af57508383604051602001610871929190616248565b604051602081830303815290604052805190602001206002828154811061089b5761089a6162f1565b5b906000526020600020906009020160000154145b156108be5760019150506108d3565b80806108c990616320565b9150506107d6565b505b9392505050565b606080606080606080600060038054905067ffffffffffffffff8111156109045761090361515a565b5b60405190808252806020026020018201604052801561093757816020015b60608152602001906001900390816109225790505b509050600060038054905067ffffffffffffffff81111561095b5761095a61515a565b5b60405190808252806020026020018201604052801561098e57816020015b60608152602001906001900390816109795790505b509050600060038054905067ffffffffffffffff8111156109b2576109b161515a565b5b6040519080825280602002602001820160405280156109e557816020015b60608152602001906001900390816109d05790505b509050600060038054905067ffffffffffffffff811115610a0957610a0861515a565b5b604051908082528060200260200182016040528015610a375781602001602082028036833780820191505090505b509050600060038054905067ffffffffffffffff811115610a5b57610a5a61515a565b5b604051908082528060200260200182016040528015610a895781602001602082028036833780820191505090505b509050600060038054905067ffffffffffffffff811115610aad57610aac61515a565b5b604051908082528060200260200182016040528015610adb5781602001602082028036833780820191505090505b50905060005b600380549050811015610f2a578e73ffffffffffffffffffffffffffffffffffffffff1660028281548110610b1957610b186162f1565b5b906000526020600020906009020160010160009054906101000a900473ffffffffffffffffffffffffffffffffffffffff1673ffffffffffffffffffffffffffffffffffffffff16148015610bde57508d73ffffffffffffffffffffffffffffffffffffffff1660028281548110610b9457610b936162f1565b5b906000526020600020906009020160020160009054906101000a900473ffffffffffffffffffffffffffffffffffffffff1673ffffffffffffffffffffffffffffffffffffffff16145b15610f175760038181548110610bf757610bf66162f1565b5b90600052602060002090600902016003018054610c1390616398565b80601f0160208091040260200160405190810160405280929190818152602001828054610c3f90616398565b8015610c8c5780601f10610c6157610100808354040283529160200191610c8c565b820191906000526020600020905b815481529060010190602001808311610c6f57829003601f168201915b5050505050878281518110610ca457610ca36162f1565b5b602002602001018190525060038181548110610cc357610cc26162f1565b5b90600052602060002090600902016004018054610cdf90616398565b80601f0160208091040260200160405190810160405280929190818152602001828054610d0b90616398565b8015610d585780601f10610d2d57610100808354040283529160200191610d58565b820191906000526020600020905b815481529060010190602001808311610d3b57829003601f168201915b5050505050868281518110610d7057610d6f6162f1565b5b602002602001018190525060038181548110610d8f57610d8e6162f1565b5b90600052602060002090600902016005018054610dab90616398565b80601f0160208091040260200160405190810160405280929190818152602001828054610dd790616398565b8015610e245780601f10610df957610100808354040283529160200191610e24565b820191906000526020600020905b815481529060010190602001808311610e0757829003601f168201915b5050505050858281518110610e3c57610e3b6162f1565b5b602002602001018190525060038181548110610e5b57610e5a6162f1565b5b906000526020600020906009020160060154848281518110610e8057610e7f6162f1565b5b60200260200101818152505060038181548110610ea057610e9f6162f1565b5b906000526020600020906009020160070154838281518110610ec557610ec46162f1565b5b60200260200101818152505060038181548110610ee557610ee46162f1565b5b906000526020600020906009020160080154828281518110610f0a57610f096162f1565b5b6020026020010181815250505b8080610f2290616320565b915050610ae1565b508585858585859b509b509b509b509b509b505050505050509295509295509295565b60008181548110610f5d57600080fd5b90600052602060002090600702016000915090508060000160009054906101000a900473ffffffffffffffffffffffffffffffffffffffff1690806001018054610fa690616398565b80601f0160208091040260200160405190810160405280929190818152602001828054610fd290616398565b801561101f5780601f10610ff45761010080835404028352916020019161101f565b820191906000526020600020905b81548152906001019060200180831161100257829003601f168201915b50505050509080600201805461103490616398565b80601f016020809104026020016040519081016040528092919081815260200182805461106090616398565b80156110ad5780601f10611082576101008083540402835291602001916110ad565b820191906000526020600020905b81548152906001019060200180831161109057829003601f168201915b5050505050908060030180546110c290616398565b80601f01602080910402602001604051908101604052809291908181526020018280546110ee90616398565b801561113b5780601f106111105761010080835404028352916020019161113b565b820191906000526020600020905b81548152906001019060200180831161111e57829003601f168201915b50505050509080600401805461115090616398565b80601f016020809104026020016040519081016040528092919081815260200182805461117c90616398565b80156111c95780601f1061119e576101008083540402835291602001916111c9565b820191906000526020600020905b8154815290600101906020018083116111ac57829003601f168201915b5050505050908060050180546111de90616398565b80601f016020809104026020016040519081016040528092919081815260200182805461120a90616398565b80156112575780601f1061122c57610100808354040283529160200191611257565b820191906000526020600020905b81548152906001019060200180831161123a57829003601f168201915b50505050509080600601805461126c90616398565b80601f016020809104026020016040519081016040528092919081815260200182805461129890616398565b80156112e55780601f106112ba576101008083540402835291602001916112e5565b820191906000526020600020905b8154815290600101906020018083116112c857829003601f168201915b5050505050905087565b606080606080606080600060018054905067ffffffffffffffff8111156113195761131861515a565b5b6040519080825280602002602001820160405280156113475781602001602082028036833780820191505090505b509050600060018054905067ffffffffffffffff81111561136b5761136a61515a565b5b6040519080825280602002602001820160405280156113995781602001602082028036833780820191505090505b509050600060018054905067ffffffffffffffff8111156113bd576113bc61515a565b5b6040519080825280602002602001820160405280156113eb5781602001602082028036833780820191505090505b509050600060018054905067ffffffffffffffff81111561140f5761140e61515a565b5b60405190808252806020026020018201604052801561144257816020015b606081526020019060019003908161142d5790505b509050600060018054905067ffffffffffffffff8111156114665761146561515a565b5b60405190808252806020026020018201604052801561149957816020015b60608152602001906001900390816114845790505b509050600060018054905067ffffffffffffffff8111156114bd576114bc61515a565b5b6040519080825280602002602001820160405280156114f057816020015b60608152602001906001900390816114db5790505b50905060005b6001805490508110156119db578e73ffffffffffffffffffffffffffffffffffffffff166001828154811061152e5761152d6162f1565b5b906000526020600020906006020160020160009054906101000a900473ffffffffffffffffffffffffffffffffffffffff1673ffffffffffffffffffffffffffffffffffffffff161480156115f357508d73ffffffffffffffffffffffffffffffffffffffff16600182815481106115a9576115a86162f1565b5b906000526020600020906006020160010160009054906101000a900473ffffffffffffffffffffffffffffffffffffffff1673ffffffffffffffffffffffffffffffffffffffff16145b156119c8576001818154811061160c5761160b6162f1565b5b906000526020600020906006020160000154878281518110611631576116306162f1565b5b60200260200101818152505060018181548110611651576116506162f1565b5b906000526020600020906006020160010160009054906101000a900473ffffffffffffffffffffffffffffffffffffffff16868281518110611696576116956162f1565b5b602002602001019073ffffffffffffffffffffffffffffffffffffffff16908173ffffffffffffffffffffffffffffffffffffffff1681525050600181815481106116e4576116e36162f1565b5b906000526020600020906006020160020160009054906101000a900473ffffffffffffffffffffffffffffffffffffffff16858281518110611729576117286162f1565b5b602002602001019073ffffffffffffffffffffffffffffffffffffffff16908173ffffffffffffffffffffffffffffffffffffffff168152505060018181548110611777576117766162f1565b5b9060005260206000209060060201600301805461179390616398565b80601f01602080910402602001604051908101604052809291908181526020018280546117bf90616398565b801561180c5780601f106117e15761010080835404028352916020019161180c565b820191906000526020600020905b8154815290600101906020018083116117ef57829003601f168201915b5050505050848281518110611824576118236162f1565b5b602002602001018190525060018181548110611843576118426162f1565b5b9060005260206000209060060201600401805461185f90616398565b80601f016020809104026020016040519081016040528092919081815260200182805461188b90616398565b80156118d85780601f106118ad576101008083540402835291602001916118d8565b820191906000526020600020905b8154815290600101906020018083116118bb57829003601f168201915b50505050508382815181106118f0576118ef6162f1565b5b60200260200101819052506001818154811061190f5761190e6162f1565b5b9060005260206000209060060201600501805461192b90616398565b80601f016020809104026020016040519081016040528092919081815260200182805461195790616398565b80156119a45780601f10611979576101008083540402835291602001916119a4565b820191906000526020600020905b81548152906001019060200180831161198757829003601f168201915b50505050508282815181106119bc576119bb6162f1565b5b60200260200101819052505b80806119d390616320565b9150506114f6565b508585858585859b509b509b509b509b509b505050505050509295509295509295565b6000606080606080606060005b600080549050811015611e71578773ffffffffffffffffffffffffffffffffffffffff1660008281548110611a4357611a426162f1565b5b906000526020600020906007020160000160009054906101000a900473ffffffffffffffffffffffffffffffffffffffff1673ffffffffffffffffffffffffffffffffffffffff161415611e5e5760008181548110611aa557611aa46162f1565b5b906000526020600020906007020160000160009054906101000a900473ffffffffffffffffffffffffffffffffffffffff1660008281548110611aeb57611aea6162f1565b5b906000526020600020906007020160010160008381548110611b1057611b0f6162f1565b5b906000526020600020906007020160020160008481548110611b3557611b346162f1565b5b906000526020600020906007020160030160008581548110611b5a57611b596162f1565b5b906000526020600020906007020160040160008681548110611b7f57611b7e6162f1565b5b9060005260206000209060070201600501848054611b9c90616398565b80601f0160208091040260200160405190810160405280929190818152602001828054611bc890616398565b8015611c155780601f10611bea57610100808354040283529160200191611c15565b820191906000526020600020905b815481529060010190602001808311611bf857829003601f168201915b50505050509450838054611c2890616398565b80601f0160208091040260200160405190810160405280929190818152602001828054611c5490616398565b8015611ca15780601f10611c7657610100808354040283529160200191611ca1565b820191906000526020600020905b815481529060010190602001808311611c8457829003601f168201915b50505050509350828054611cb490616398565b80601f0160208091040260200160405190810160405280929190818152602001828054611ce090616398565b8015611d2d5780601f10611d0257610100808354040283529160200191611d2d565b820191906000526020600020905b815481529060010190602001808311611d1057829003601f168201915b50505050509250818054611d4090616398565b80601f0160208091040260200160405190810160405280929190818152602001828054611d6c90616398565b8015611db95780601f10611d8e57610100808354040283529160200191611db9565b820191906000526020600020905b815481529060010190602001808311611d9c57829003601f168201915b50505050509150808054611dcc90616398565b80601f0160208091040260200160405190810160405280929190818152602001828054611df890616398565b8015611e455780601f10611e1a57610100808354040283529160200191611e45565b820191906000526020600020905b815481529060010190602001808311611e2857829003601f168201915b5050505050905096509650965096509650965050611e73565b8080611e6990616320565b915050611a0b565b505b91939550919395565b600080600090505b600080549050811015611f72578373ffffffffffffffffffffffffffffffffffffffff1660008281548110611ebc57611ebb6162f1565b5b906000526020600020906007020160000160009054906101000a900473ffffffffffffffffffffffffffffffffffffffff1673ffffffffffffffffffffffffffffffffffffffff16148015611f505750828051906020012060008281548110611f2857611f276162f1565b5b9060005260206000209060070201600601604051611f469190616469565b6040518091039020145b15611f5f576001915050611f74565b8080611f6a90616320565b915050611e84565b505b92915050565b60005b600180549050811015612132578373ffffffffffffffffffffffffffffffffffffffff1660018281548110611fb557611fb46162f1565b5b906000526020600020906006020160010160009054906101000a900473ffffffffffffffffffffffffffffffffffffffff1673ffffffffffffffffffffffffffffffffffffffff1614801561207a57508273ffffffffffffffffffffffffffffffffffffffff16600182815481106120305761202f6162f1565b5b906000526020600020906006020160020160009054906101000a900473ffffffffffffffffffffffffffffffffffffffff1673ffffffffffffffffffffffffffffffffffffffff16145b80156120aa57508160018281548110612096576120956162f1565b5b906000526020600020906006020160000154145b1561211f576040518060400160405280600681526020017f4163636570740000000000000000000000000000000000000000000000000000815250600182815481106120f9576120f86162f1565b5b9060005260206000209060060201600501908051906020019061211d92919061502a565b505b808061212a90616320565b915050611f7d565b50505050565b6001818154811061214857600080fd5b90600052602060002090600602016000915090508060000154908060010160009054906101000a900473ffffffffffffffffffffffffffffffffffffffff16908060020160009054906101000a900473ffffffffffffffffffffffffffffffffffffffff16908060030180546121bd90616398565b80601f01602080910402602001604051908101604052809291908181526020018280546121e990616398565b80156122365780601f1061220b57610100808354040283529160200191612236565b820191906000526020600020905b81548152906001019060200180831161221957829003601f168201915b50505050509080600401805461224b90616398565b80601f016020809104026020016040519081016040528092919081815260200182805461227790616398565b80156122c45780601f10612299576101008083540402835291602001916122c4565b820191906000526020600020905b8154815290600101906020018083116122a757829003601f168201915b5050505050908060050180546122d990616398565b80601f016020809104026020016040519081016040528092919081815260200182805461230590616398565b80156123525780601f1061232757610100808354040283529160200191612352565b820191906000526020600020905b81548152906001019060200180831161233557829003601f168201915b5050505050905086565b600080600090505b600080549050811015612407578273ffffffffffffffffffffffffffffffffffffffff166000828154811061239c5761239b6162f1565b5b906000526020600020906007020160000160009054906101000a900473ffffffffffffffffffffffffffffffffffffffff1673ffffffffffffffffffffffffffffffffffffffff1614156123f4576001915050612409565b80806123ff90616320565b915050612364565b505b919050565b6003818154811061241e57600080fd5b90600052602060002090600902016000915090508060000154908060010160009054906101000a900473ffffffffffffffffffffffffffffffffffffffff16908060020160009054906101000a900473ffffffffffffffffffffffffffffffffffffffff169080600301805461249390616398565b80601f01602080910402602001604051908101604052809291908181526020018280546124bf90616398565b801561250c5780601f106124e15761010080835404028352916020019161250c565b820191906000526020600020905b8154815290600101906020018083116124ef57829003601f168201915b50505050509080600401805461252190616398565b80601f016020809104026020016040519081016040528092919081815260200182805461254d90616398565b801561259a5780601f1061256f5761010080835404028352916020019161259a565b820191906000526020600020905b81548152906001019060200180831161257d57829003601f168201915b5050505050908060050180546125af90616398565b80601f01602080910402602001604051908101604052809291908181526020018280546125db90616398565b80156126285780601f106125fd57610100808354040283529160200191612628565b820191906000526020600020905b81548152906001019060200180831161260b57829003601f168201915b5050505050908060060154908060070154908060080154905089565b6060806060600080600080600090505b600380549050811015612a58578a73ffffffffffffffffffffffffffffffffffffffff166003828154811061268c5761268b6162f1565b5b906000526020600020906009020160010160009054906101000a900473ffffffffffffffffffffffffffffffffffffffff1673ffffffffffffffffffffffffffffffffffffffff1614801561275157508973ffffffffffffffffffffffffffffffffffffffff1660038281548110612707576127066162f1565b5b906000526020600020906009020160020160009054906101000a900473ffffffffffffffffffffffffffffffffffffffff1673ffffffffffffffffffffffffffffffffffffffff16145b80156127a95750888860405160200161276b929190616248565b6040516020818303038152906040528051906020012060038281548110612795576127946162f1565b5b906000526020600020906009020160000154145b15612a4557600381815481106127c2576127c16162f1565b5b9060005260206000209060090201600301600382815481106127e7576127e66162f1565b5b90600052602060002090600902016004016003838154811061280c5761280b6162f1565b5b906000526020600020906009020160050160038481548110612831576128306162f1565b5b90600052602060002090600902016006015460038581548110612857576128566162f1565b5b9060005260206000209060090201600701546003868154811061287d5761287c6162f1565b5b90600052602060002090600902016008015485805461289b90616398565b80601f01602080910402602001604051908101604052809291908181526020018280546128c790616398565b80156129145780601f106128e957610100808354040283529160200191612914565b820191906000526020600020905b8154815290600101906020018083116128f757829003601f168201915b5050505050955084805461292790616398565b80601f016020809104026020016040519081016040528092919081815260200182805461295390616398565b80156129a05780601f10612975576101008083540402835291602001916129a0565b820191906000526020600020905b81548152906001019060200180831161298357829003601f168201915b505050505094508380546129b390616398565b80601f01602080910402602001604051908101604052809291908181526020018280546129df90616398565b8015612a2c5780601f10612a0157610100808354040283529160200191612a2c565b820191906000526020600020905b815481529060010190602001808311612a0f57829003601f168201915b5050505050935096509650965096509650965050612a5a565b8080612a5090616320565b915050612654565b505b9499939850945094509450565b60005b600080549050811015612c26578673ffffffffffffffffffffffffffffffffffffffff1660008281548110612aa257612aa16162f1565b5b906000526020600020906007020160000160009054906101000a900473ffffffffffffffffffffffffffffffffffffffff1673ffffffffffffffffffffffffffffffffffffffff161415612c13578560008281548110612b0557612b046162f1565b5b90600052602060002090600702016001019080519060200190612b2992919061502a565b508460008281548110612b3f57612b3e6162f1565b5b90600052602060002090600702016002019080519060200190612b6392919061502a565b508360008281548110612b7957612b786162f1565b5b90600052602060002090600702016003019080519060200190612b9d92919061502a565b508260008281548110612bb357612bb26162f1565b5b90600052602060002090600702016004019080519060200190612bd792919061502a565b508160008281548110612bed57612bec6162f1565b5b90600052602060002090600702016005019080519060200190612c1192919061502a565b505b8080612c1e90616320565b915050612a6a565b50505050505050565b60005b600180549050811015612de7578373ffffffffffffffffffffffffffffffffffffffff1660018281548110612c6a57612c696162f1565b5b906000526020600020906006020160010160009054906101000a900473ffffffffffffffffffffffffffffffffffffffff1673ffffffffffffffffffffffffffffffffffffffff16148015612d2f57508273ffffffffffffffffffffffffffffffffffffffff1660018281548110612ce557612ce46162f1565b5b906000526020600020906006020160020160009054906101000a900473ffffffffffffffffffffffffffffffffffffffff1673ffffffffffffffffffffffffffffffffffffffff16145b8015612d5f57508160018281548110612d4b57612d4a6162f1565b5b906000526020600020906006020160000154145b15612dd4576040518060400160405280600781526020017f4465636c696e650000000000000000000000000000000000000000000000000081525060018281548110612dae57612dad6162f1565b5b90600052602060002090600602016005019080519060200190612dd292919061502a565b505b8080612ddf90616320565b915050612c32565b50505050565b600080600090505b600380549050811015612ef0578473ffffffffffffffffffffffffffffffffffffffff1660028281548110612e2d57612e2c6162f1565b5b906000526020600020906009020160020160009054906101000a900473ffffffffffffffffffffffffffffffffffffffff1673ffffffffffffffffffffffffffffffffffffffff16148015612ece57508383604051602001612e90929190616248565b6040516020818303038152906040528051906020012060028281548110612eba57612eb96162f1565b5b906000526020600020906009020160000154145b15612edd576001915050612ef2565b8080612ee890616320565b915050612df5565b505b9392505050565b60608060608060608060606000808054905067ffffffffffffffff811115612f2457612f2361515a565b5b604051908082528060200260200182016040528015612f525781602001602082028036833780820191505090505b5090506000808054905067ffffffffffffffff811115612f7557612f7461515a565b5b604051908082528060200260200182016040528015612fa857816020015b6060815260200190600190039081612f935790505b5090506000808054905067ffffffffffffffff811115612fcb57612fca61515a565b5b604051908082528060200260200182016040528015612ffe57816020015b6060815260200190600190039081612fe95790505b5090506000808054905067ffffffffffffffff8111156130215761302061515a565b5b60405190808252806020026020018201604052801561305457816020015b606081526020019060019003908161303f5790505b5090506000808054905067ffffffffffffffff8111156130775761307661515a565b5b6040519080825280602002602001820160405280156130aa57816020015b60608152602001906001900390816130955790505b5090506000808054905067ffffffffffffffff8111156130cd576130cc61515a565b5b60405190808252806020026020018201604052801561310057816020015b60608152602001906001900390816130eb5790505b5090506000808054905067ffffffffffffffff8111156131235761312261515a565b5b60405190808252806020026020018201604052801561315657816020015b60608152602001906001900390816131415790505b50905060005b6000805490508110156136d7576000818154811061317d5761317c6162f1565b5b906000526020600020906007020160000160009054906101000a900473ffffffffffffffffffffffffffffffffffffffff168882815181106131c2576131c16162f1565b5b602002602001019073ffffffffffffffffffffffffffffffffffffffff16908173ffffffffffffffffffffffffffffffffffffffff1681525050600081815481106132105761320f6162f1565b5b9060005260206000209060070201600101805461322c90616398565b80601f016020809104026020016040519081016040528092919081815260200182805461325890616398565b80156132a55780601f1061327a576101008083540402835291602001916132a5565b820191906000526020600020905b81548152906001019060200180831161328857829003601f168201915b50505050508782815181106132bd576132bc6162f1565b5b6020026020010181905250600081815481106132dc576132db6162f1565b5b906000526020600020906007020160020180546132f890616398565b80601f016020809104026020016040519081016040528092919081815260200182805461332490616398565b80156133715780601f1061334657610100808354040283529160200191613371565b820191906000526020600020905b81548152906001019060200180831161335457829003601f168201915b5050505050868281518110613389576133886162f1565b5b6020026020010181905250600081815481106133a8576133a76162f1565b5b906000526020600020906007020160030180546133c490616398565b80601f01602080910402602001604051908101604052809291908181526020018280546133f090616398565b801561343d5780601f106134125761010080835404028352916020019161343d565b820191906000526020600020905b81548152906001019060200180831161342057829003601f168201915b5050505050858281518110613455576134546162f1565b5b602002602001018190525060008181548110613474576134736162f1565b5b9060005260206000209060070201600401805461349090616398565b80601f01602080910402602001604051908101604052809291908181526020018280546134bc90616398565b80156135095780601f106134de57610100808354040283529160200191613509565b820191906000526020600020905b8154815290600101906020018083116134ec57829003601f168201915b5050505050848281518110613521576135206162f1565b5b6020026020010181905250600081815481106135405761353f6162f1565b5b9060005260206000209060070201600501805461355c90616398565b80601f016020809104026020016040519081016040528092919081815260200182805461358890616398565b80156135d55780601f106135aa576101008083540402835291602001916135d5565b820191906000526020600020905b8154815290600101906020018083116135b857829003601f168201915b50505050508382815181106135ed576135ec6162f1565b5b60200260200101819052506000818154811061360c5761360b6162f1565b5b9060005260206000209060070201600601805461362890616398565b80601f016020809104026020016040519081016040528092919081815260200182805461365490616398565b80156136a15780601f10613676576101008083540402835291602001916136a1565b820191906000526020600020905b81548152906001019060200180831161368457829003601f168201915b50505050508282815181106136b9576136b86162f1565b5b602002602001018190525080806136cf90616320565b91505061315c565b50868686868686869d509d509d509d509d509d509d505050505050505090919293949596565b60016040518060c001604052808360405160200161371b9190616480565b6040516020818303038152906040528051906020012081526020018673ffffffffffffffffffffffffffffffffffffffff1681526020018573ffffffffffffffffffffffffffffffffffffffff1681526020018481526020018381526020016040518060400160405280600781526020017f57616974696e670000000000000000000000000000000000000000000000000081525081525090806001815401808255809150506001900390600052602060002090600602016000909190919091506000820151816000015560208201518160010160006101000a81548173ffffffffffffffffffffffffffffffffffffffff021916908373ffffffffffffffffffffffffffffffffffffffff16021790555060408201518160020160006101000a81548173ffffffffffffffffffffffffffffffffffffffff021916908373ffffffffffffffffffffffffffffffffffffffff160217905550606082015181600301908051906020019061389092919061502a565b5060808201518160040190805190602001906138ad92919061502a565b5060a08201518160050190805190602001906138ca92919061502a565b50505050505050565b606080606080606080600060018054905067ffffffffffffffff8111156138fd576138fc61515a565b5b60405190808252806020026020018201604052801561392b5781602001602082028036833780820191505090505b509050600060018054905067ffffffffffffffff81111561394f5761394e61515a565b5b60405190808252806020026020018201604052801561397d5781602001602082028036833780820191505090505b509050600060018054905067ffffffffffffffff8111156139a1576139a061515a565b5b6040519080825280602002602001820160405280156139cf5781602001602082028036833780820191505090505b509050600060018054905067ffffffffffffffff8111156139f3576139f261515a565b5b604051908082528060200260200182016040528015613a2657816020015b6060815260200190600190039081613a115790505b509050600060018054905067ffffffffffffffff811115613a4a57613a4961515a565b5b604051908082528060200260200182016040528015613a7d57816020015b6060815260200190600190039081613a685790505b509050600060018054905067ffffffffffffffff811115613aa157613aa061515a565b5b604051908082528060200260200182016040528015613ad457816020015b6060815260200190600190039081613abf5790505b50905060005b600180549050811015613f43578d73ffffffffffffffffffffffffffffffffffffffff1660018281548110613b1257613b116162f1565b5b906000526020600020906006020160020160009054906101000a900473ffffffffffffffffffffffffffffffffffffffff1673ffffffffffffffffffffffffffffffffffffffff161415613f305760018181548110613b7457613b736162f1565b5b906000526020600020906006020160000154878281518110613b9957613b986162f1565b5b60200260200101818152505060018181548110613bb957613bb86162f1565b5b906000526020600020906006020160010160009054906101000a900473ffffffffffffffffffffffffffffffffffffffff16868281518110613bfe57613bfd6162f1565b5b602002602001019073ffffffffffffffffffffffffffffffffffffffff16908173ffffffffffffffffffffffffffffffffffffffff168152505060018181548110613c4c57613c4b6162f1565b5b906000526020600020906006020160020160009054906101000a900473ffffffffffffffffffffffffffffffffffffffff16858281518110613c9157613c906162f1565b5b602002602001019073ffffffffffffffffffffffffffffffffffffffff16908173ffffffffffffffffffffffffffffffffffffffff168152505060018181548110613cdf57613cde6162f1565b5b90600052602060002090600602016003018054613cfb90616398565b80601f0160208091040260200160405190810160405280929190818152602001828054613d2790616398565b8015613d745780601f10613d4957610100808354040283529160200191613d74565b820191906000526020600020905b815481529060010190602001808311613d5757829003601f168201915b5050505050848281518110613d8c57613d8b6162f1565b5b602002602001018190525060018181548110613dab57613daa6162f1565b5b90600052602060002090600602016004018054613dc790616398565b80601f0160208091040260200160405190810160405280929190818152602001828054613df390616398565b8015613e405780601f10613e1557610100808354040283529160200191613e40565b820191906000526020600020905b815481529060010190602001808311613e2357829003601f168201915b5050505050838281518110613e5857613e576162f1565b5b602002602001018190525060018181548110613e7757613e766162f1565b5b90600052602060002090600602016005018054613e9390616398565b80601f0160208091040260200160405190810160405280929190818152602001828054613ebf90616398565b8015613f0c5780601f10613ee157610100808354040283529160200191613f0c565b820191906000526020600020905b815481529060010190602001808311613eef57829003601f168201915b5050505050828281518110613f2457613f236162f1565b5b60200260200101819052505b8080613f3b90616320565b915050613ada565b508585858585859b509b509b509b509b509b5050505050505091939550919395565b60028181548110613f7557600080fd5b90600052602060002090600902016000915090508060000154908060010160009054906101000a900473ffffffffffffffffffffffffffffffffffffffff16908060020160009054906101000a900473ffffffffffffffffffffffffffffffffffffffff1690806003018054613fea90616398565b80601f016020809104026020016040519081016040528092919081815260200182805461401690616398565b80156140635780601f1061403857610100808354040283529160200191614063565b820191906000526020600020905b81548152906001019060200180831161404657829003601f168201915b50505050509080600401805461407890616398565b80601f01602080910402602001604051908101604052809291908181526020018280546140a490616398565b80156140f15780601f106140c6576101008083540402835291602001916140f1565b820191906000526020600020905b8154815290600101906020018083116140d457829003601f168201915b50505050509080600501805461410690616398565b80601f016020809104026020016040519081016040528092919081815260200182805461413290616398565b801561417f5780601f106141545761010080835404028352916020019161417f565b820191906000526020600020905b81548152906001019060200180831161416257829003601f168201915b5050505050908060060154908060070154908060080154905089565b6060806060600080600080600090505b6002805490508110156145af578a73ffffffffffffffffffffffffffffffffffffffff16600282815481106141e3576141e26162f1565b5b906000526020600020906009020160010160009054906101000a900473ffffffffffffffffffffffffffffffffffffffff1673ffffffffffffffffffffffffffffffffffffffff161480156142a857508973ffffffffffffffffffffffffffffffffffffffff166002828154811061425e5761425d6162f1565b5b906000526020600020906009020160020160009054906101000a900473ffffffffffffffffffffffffffffffffffffffff1673ffffffffffffffffffffffffffffffffffffffff16145b8015614300575088886040516020016142c2929190616248565b60405160208183030381529060405280519060200120600282815481106142ec576142eb6162f1565b5b906000526020600020906009020160000154145b1561459c5760028181548110614319576143186162f1565b5b90600052602060002090600902016003016002828154811061433e5761433d6162f1565b5b906000526020600020906009020160040160028381548110614363576143626162f1565b5b906000526020600020906009020160050160028481548110614388576143876162f1565b5b906000526020600020906009020160060154600285815481106143ae576143ad6162f1565b5b906000526020600020906009020160070154600286815481106143d4576143d36162f1565b5b9060005260206000209060090201600801548580546143f290616398565b80601f016020809104026020016040519081016040528092919081815260200182805461441e90616398565b801561446b5780601f106144405761010080835404028352916020019161446b565b820191906000526020600020905b81548152906001019060200180831161444e57829003601f168201915b5050505050955084805461447e90616398565b80601f01602080910402602001604051908101604052809291908181526020018280546144aa90616398565b80156144f75780601f106144cc576101008083540402835291602001916144f7565b820191906000526020600020905b8154815290600101906020018083116144da57829003601f168201915b5050505050945083805461450a90616398565b80601f016020809104026020016040519081016040528092919081815260200182805461453690616398565b80156145835780601f1061455857610100808354040283529160200191614583565b820191906000526020600020905b81548152906001019060200180831161456657829003601f168201915b50505050509350965096509650965096509650506145b1565b80806145a790616320565b9150506141ab565b505b9499939850945094509450565b606080606080606080600060028054905067ffffffffffffffff8111156145e8576145e761515a565b5b60405190808252806020026020018201604052801561461b57816020015b60608152602001906001900390816146065790505b509050600060028054905067ffffffffffffffff81111561463f5761463e61515a565b5b60405190808252806020026020018201604052801561467257816020015b606081526020019060019003908161465d5790505b509050600060028054905067ffffffffffffffff8111156146965761469561515a565b5b6040519080825280602002602001820160405280156146c957816020015b60608152602001906001900390816146b45790505b509050600060028054905067ffffffffffffffff8111156146ed576146ec61515a565b5b60405190808252806020026020018201604052801561471b5781602001602082028036833780820191505090505b509050600060028054905067ffffffffffffffff81111561473f5761473e61515a565b5b60405190808252806020026020018201604052801561476d5781602001602082028036833780820191505090505b509050600060028054905067ffffffffffffffff8111156147915761479061515a565b5b6040519080825280602002602001820160405280156147bf5781602001602082028036833780820191505090505b50905060005b600280549050811015614c0e578e73ffffffffffffffffffffffffffffffffffffffff16600282815481106147fd576147fc6162f1565b5b906000526020600020906009020160010160009054906101000a900473ffffffffffffffffffffffffffffffffffffffff1673ffffffffffffffffffffffffffffffffffffffff161480156148c257508d73ffffffffffffffffffffffffffffffffffffffff1660028281548110614878576148776162f1565b5b906000526020600020906009020160020160009054906101000a900473ffffffffffffffffffffffffffffffffffffffff1673ffffffffffffffffffffffffffffffffffffffff16145b15614bfb57600281815481106148db576148da6162f1565b5b906000526020600020906009020160030180546148f790616398565b80601f016020809104026020016040519081016040528092919081815260200182805461492390616398565b80156149705780601f1061494557610100808354040283529160200191614970565b820191906000526020600020905b81548152906001019060200180831161495357829003601f168201915b5050505050878281518110614988576149876162f1565b5b6020026020010181905250600281815481106149a7576149a66162f1565b5b906000526020600020906009020160040180546149c390616398565b80601f01602080910402602001604051908101604052809291908181526020018280546149ef90616398565b8015614a3c5780601f10614a1157610100808354040283529160200191614a3c565b820191906000526020600020905b815481529060010190602001808311614a1f57829003601f168201915b5050505050868281518110614a5457614a536162f1565b5b602002602001018190525060028181548110614a7357614a726162f1565b5b90600052602060002090600902016005018054614a8f90616398565b80601f0160208091040260200160405190810160405280929190818152602001828054614abb90616398565b8015614b085780601f10614add57610100808354040283529160200191614b08565b820191906000526020600020905b815481529060010190602001808311614aeb57829003601f168201915b5050505050858281518110614b2057614b1f6162f1565b5b602002602001018190525060028181548110614b3f57614b3e6162f1565b5b906000526020600020906009020160060154848281518110614b6457614b636162f1565b5b60200260200101818152505060028181548110614b8457614b836162f1565b5b906000526020600020906009020160070154838281518110614ba957614ba86162f1565b5b60200260200101818152505060028181548110614bc957614bc86162f1565b5b906000526020600020906009020160080154828281518110614bee57614bed6162f1565b5b6020026020010181815250505b8080614c0690616320565b9150506147c5565b508585858585859b509b509b509b509b509b505050505050509295509295509295565b60008210158015614c43575060c88211155b614c82576040517f08c379a0000000000000000000000000000000000000000000000000000000008152600401614c79906164e3565b60405180910390fd5b60008110158015614c94575060c88111155b614cd3576040517f08c379a0000000000000000000000000000000000000000000000000000000008152600401614cca9061654f565b60405180910390fd5b60036040518061012001604052808787604051602001614cf4929190616248565b6040516020818303038152906040528051906020012081526020018973ffffffffffffffffffffffffffffffffffffffff1681526020018873ffffffffffffffffffffffffffffffffffffffff1681526020018781526020018681526020018581526020018481526020018381526020018385614d71919061629b565b81525090806001815401808255809150506001900390600052602060002090600902016000909190919091506000820151816000015560208201518160010160006101000a81548173ffffffffffffffffffffffffffffffffffffffff021916908373ffffffffffffffffffffffffffffffffffffffff16021790555060408201518160020160006101000a81548173ffffffffffffffffffffffffffffffffffffffff021916908373ffffffffffffffffffffffffffffffffffffffff1602179055506060820151816003019080519060200190614e5192919061502a565b506080820151816004019080519060200190614e6e92919061502a565b5060a0820151816005019080519060200190614e8b92919061502a565b5060c0820151816006015560e082015181600701556101008201518160080155505050505050505050565b60006040518060e001604052808973ffffffffffffffffffffffffffffffffffffffff16815260200188815260200187815260200186815260200185815260200184815260200183815250908060018154018082558091505060019003906000526020600020906007020160009091909190915060008201518160000160006101000a81548173ffffffffffffffffffffffffffffffffffffffff021916908373ffffffffffffffffffffffffffffffffffffffff1602179055506020820151816001019080519060200190614f8d92919061502a565b506040820151816002019080519060200190614faa92919061502a565b506060820151816003019080519060200190614fc792919061502a565b506080820151816004019080519060200190614fe492919061502a565b5060a082015181600501908051906020019061500192919061502a565b5060c082015181600601908051906020019061501e92919061502a565b50505050505050505050565b82805461503690616398565b90600052602060002090601f016020900481019282615058576000855561509f565b82601f1061507157805160ff191683800117855561509f565b8280016001018555821561509f579182015b8281111561509e578251825591602001919060010190615083565b5b5090506150ac91906150b0565b5090565b5b808211156150c95760008160009055506001016150b1565b5090565b6000604051905090565b600080fd5b600080fd5b600073ffffffffffffffffffffffffffffffffffffffff82169050919050565b600061510c826150e1565b9050919050565b61511c81615101565b811461512757600080fd5b50565b60008135905061513981615113565b92915050565b600080fd5b600080fd5b6000601f19601f8301169050919050565b7f4e487b7100000000000000000000000000000000000000000000000000000000600052604160045260246000fd5b61519282615149565b810181811067ffffffffffffffff821117156151b1576151b061515a565b5b80604052505050565b60006151c46150cd565b90506151d08282615189565b919050565b600067ffffffffffffffff8211156151f0576151ef61515a565b5b6151f982615149565b9050602081019050919050565b82818337600083830152505050565b6000615228615223846151d5565b6151ba565b90508281526020810184848401111561524457615243615144565b5b61524f848285615206565b509392505050565b600082601f83011261526c5761526b61513f565b5b813561527c848260208601615215565b91505092915050565b6000819050919050565b61529881615285565b81146152a357600080fd5b50565b6000813590506152b58161528f565b92915050565b600080600080600080600060e0888a0312156152da576152d96150d7565b5b60006152e88a828b0161512a565b97505060206152f98a828b0161512a565b965050604088013567ffffffffffffffff81111561531a576153196150dc565b5b6153268a828b01615257565b955050606088013567ffffffffffffffff811115615347576153466150dc565b5b6153538a828b01615257565b945050608088013567ffffffffffffffff811115615374576153736150dc565b5b6153808a828b01615257565b93505060a06153918a828b016152a6565b92505060c06153a28a828b016152a6565b91505092959891949750929550565b6000806000606084860312156153ca576153c96150d7565b5b60006153d88682870161512a565b935050602084013567ffffffffffffffff8111156153f9576153f86150dc565b5b61540586828701615257565b925050604084013567ffffffffffffffff811115615426576154256150dc565b5b61543286828701615257565b9150509250925092565b61544581615285565b82525050565b6000602082019050615460600083018461543c565b92915050565b6000806040838503121561547d5761547c6150d7565b5b600061548b8582860161512a565b925050602061549c8582860161512a565b9150509250929050565b600081519050919050565b600082825260208201905092915050565b6000819050602082019050919050565b600081519050919050565b600082825260208201905092915050565b60005b8381101561550c5780820151818401526020810190506154f1565b8381111561551b576000848401525b50505050565b600061552c826154d2565b61553681856154dd565b93506155468185602086016154ee565b61554f81615149565b840191505092915050565b60006155668383615521565b905092915050565b6000602082019050919050565b6000615586826154a6565b61559081856154b1565b9350836020820285016155a2856154c2565b8060005b858110156155de57848403895281516155bf858261555a565b94506155ca8361556e565b925060208a019950506001810190506155a6565b50829750879550505050505092915050565b600081519050919050565b600082825260208201905092915050565b6000819050602082019050919050565b61562581615285565b82525050565b6000615637838361561c565b60208301905092915050565b6000602082019050919050565b600061565b826155f0565b61566581856155fb565b93506156708361560c565b8060005b838110156156a1578151615688888261562b565b975061569383615643565b925050600181019050615674565b5085935050505092915050565b600060c08201905081810360008301526156c8818961557b565b905081810360208301526156dc818861557b565b905081810360408301526156f0818761557b565b905081810360608301526157048186615650565b905081810360808301526157188185615650565b905081810360a083015261572c8184615650565b9050979650505050505050565b60006020828403121561574f5761574e6150d7565b5b600061575d848285016152a6565b91505092915050565b61576f81615101565b82525050565b600082825260208201905092915050565b6000615791826154d2565b61579b8185615775565b93506157ab8185602086016154ee565b6157b481615149565b840191505092915050565b600060e0820190506157d4600083018a615766565b81810360208301526157e68189615786565b905081810360408301526157fa8188615786565b9050818103606083015261580e8187615786565b905081810360808301526158228186615786565b905081810360a08301526158368185615786565b905081810360c083015261584a8184615786565b905098975050505050505050565b600081519050919050565b600082825260208201905092915050565b6000819050602082019050919050565b6000819050919050565b61589781615884565b82525050565b60006158a9838361588e565b60208301905092915050565b6000602082019050919050565b60006158cd82615858565b6158d78185615863565b93506158e283615874565b8060005b838110156159135781516158fa888261589d565b9750615905836158b5565b9250506001810190506158e6565b5085935050505092915050565b600081519050919050565b600082825260208201905092915050565b6000819050602082019050919050565b61595581615101565b82525050565b6000615967838361594c565b60208301905092915050565b6000602082019050919050565b600061598b82615920565b615995818561592b565b93506159a08361593c565b8060005b838110156159d15781516159b8888261595b565b97506159c383615973565b9250506001810190506159a4565b5085935050505092915050565b600060c08201905081810360008301526159f881896158c2565b90508181036020830152615a0c8188615980565b90508181036040830152615a208187615980565b90508181036060830152615a34818661557b565b90508181036080830152615a48818561557b565b905081810360a0830152615a5c818461557b565b9050979650505050505050565b600060208284031215615a7f57615a7e6150d7565b5b6000615a8d8482850161512a565b91505092915050565b600060c082019050615aab6000830189615766565b8181036020830152615abd8188615786565b90508181036040830152615ad18187615786565b90508181036060830152615ae58186615786565b90508181036080830152615af98185615786565b905081810360a0830152615b0d8184615786565b9050979650505050505050565b60008060408385031215615b3157615b306150d7565b5b6000615b3f8582860161512a565b925050602083013567ffffffffffffffff811115615b6057615b5f6150dc565b5b615b6c85828601615257565b9150509250929050565b615b7f81615884565b8114615b8a57600080fd5b50565b600081359050615b9c81615b76565b92915050565b600080600060608486031215615bbb57615bba6150d7565b5b6000615bc98682870161512a565b9350506020615bda8682870161512a565b9250506040615beb86828701615b8d565b9150509250925092565b615bfe81615884565b82525050565b600060c082019050615c196000830189615bf5565b615c266020830188615766565b615c336040830187615766565b8181036060830152615c458186615786565b90508181036080830152615c598185615786565b905081810360a0830152615c6d8184615786565b9050979650505050505050565b600061012082019050615c90600083018c615bf5565b615c9d602083018b615766565b615caa604083018a615766565b8181036060830152615cbc8189615786565b90508181036080830152615cd08188615786565b905081810360a0830152615ce48187615786565b9050615cf360c083018661543c565b615d0060e083018561543c565b615d0e61010083018461543c565b9a9950505050505050505050565b60008060008060808587031215615d3657615d356150d7565b5b6000615d448782880161512a565b9450506020615d558782880161512a565b935050604085013567ffffffffffffffff811115615d7657615d756150dc565b5b615d8287828801615257565b925050606085013567ffffffffffffffff811115615da357615da26150dc565b5b615daf87828801615257565b91505092959194509250565b600060c0820190508181036000830152615dd58189615786565b90508181036020830152615de98188615786565b90508181036040830152615dfd8187615786565b9050615e0c606083018661543c565b615e19608083018561543c565b615e2660a083018461543c565b979650505050505050565b60008060008060008060c08789031215615e4e57615e4d6150d7565b5b6000615e5c89828a0161512a565b965050602087013567ffffffffffffffff811115615e7d57615e7c6150dc565b5b615e8989828a01615257565b955050604087013567ffffffffffffffff811115615eaa57615ea96150dc565b5b615eb689828a01615257565b945050606087013567ffffffffffffffff811115615ed757615ed66150dc565b5b615ee389828a01615257565b935050608087013567ffffffffffffffff811115615f0457615f036150dc565b5b615f1089828a01615257565b92505060a087013567ffffffffffffffff811115615f3157615f306150dc565b5b615f3d89828a01615257565b9150509295509295509295565b600060e0820190508181036000830152615f64818a615980565b90508181036020830152615f78818961557b565b90508181036040830152615f8c818861557b565b90508181036060830152615fa0818761557b565b90508181036080830152615fb4818661557b565b905081810360a0830152615fc8818561557b565b905081810360c0830152615fdc818461557b565b905098975050505050505050565b600080600080600080600060e0888a031215616009576160086150d7565b5b60006160178a828b0161512a565b975050602088013567ffffffffffffffff811115616038576160376150dc565b5b6160448a828b01615257565b965050604088013567ffffffffffffffff811115616065576160646150dc565b5b6160718a828b01615257565b955050606088013567ffffffffffffffff811115616092576160916150dc565b5b61609e8a828b01615257565b945050608088013567ffffffffffffffff8111156160bf576160be6150dc565b5b6160cb8a828b01615257565b93505060a088013567ffffffffffffffff8111156160ec576160eb6150dc565b5b6160f88a828b01615257565b92505060c088013567ffffffffffffffff811115616119576161186150dc565b5b6161258a828b01615257565b91505092959891949750929550565b7f4c697374656e696e672053636f726520696e636f72726563742e000000000000600082015250565b600061616a601a83615775565b915061617582616134565b602082019050919050565b600060208201905081810360008301526161998161615d565b9050919050565b7f52656164696e672053636f726520696e636f72726563742e0000000000000000600082015250565b60006161d6601883615775565b91506161e1826161a0565b602082019050919050565b60006020820190508181036000830152616205816161c9565b9050919050565b600081905092915050565b6000616222826154d2565b61622c818561620c565b935061623c8185602086016154ee565b80840191505092915050565b60006162548285616217565b91506162608284616217565b91508190509392505050565b7f4e487b7100000000000000000000000000000000000000000000000000000000600052601160045260246000fd5b60006162a682615285565b91506162b183615285565b9250827fffffffffffffffffffffffffffffffffffffffffffffffffffffffffffffffff038211156162e6576162e561626c565b5b828201905092915050565b7f4e487b7100000000000000000000000000000000000000000000000000000000600052603260045260246000fd5b600061632b82615285565b91507fffffffffffffffffffffffffffffffffffffffffffffffffffffffffffffffff82141561635e5761635d61626c565b5b600182019050919050565b7f4e487b7100000000000000000000000000000000000000000000000000000000600052602260045260246000fd5b600060028204905060018216806163b057607f821691505b602082108114156163c4576163c3616369565b5b50919050565b600081905092915050565b60008190508160005260206000209050919050565b600081546163f781616398565b61640181866163ca565b9450600182166000811461641c576001811461642d57616460565b60ff19831686528186019350616460565b616436856163d5565b60005b8381101561645857815481890152600182019150602081019050616439565b838801955050505b50505092915050565b600061647582846163ea565b915081905092915050565b600061648c8284616217565b915081905092915050565b7f537065616b696e672053636f726520696e636f72726563742e00000000000000600082015250565b60006164cd601983615775565b91506164d882616497565b602082019050919050565b600060208201905081810360008301526164fc816164c0565b9050919050565b7f57726974696e672053636f726520696e636f72726563742e0000000000000000600082015250565b6000616539601883615775565b915061654482616503565b602082019050919050565b600060208201905081810360008301526165688161652c565b905091905056fea26469706673582212208541efcbfce69aaf1efe11ace8a9e1234b72efd389b16382edb54bc2a136ed8164736f6c634300080b0033608060405234801561001057600080fd5b50612f49806100206000396000f3fe608060405234801561001057600080fd5b50600436106100e95760003560e01c8063ae8f00d31161008c578063dc1e475f11610066578063dc1e475f146102a3578063e83ddcea146102bf578063e9daa70a146102f1578063f7a7b83d14610323576100e9565b8063ae8f00d314610223578063ce1ec5bb1461023f578063dae7debd14610273576100e9565b8063381a3bf7116100c8578063381a3bf71461016f5780637aedcde5146101a3578063844bb460146101d757806386b87ba2146101f3576100e9565b80624e56cf146100ee5780630299779f1461010a5780630b5e50ed1461013a575b600080fd5b6101086004803603810190610103919061233f565b61033f565b005b610124600480360381019061011f91906123de565b6104e4565b6040516101319190612466565b60405180910390f35b610154600480360381019061014f91906124ad565b61065f565b6040516101669695949392919061258a565b60405180910390f35b61018960048036038101906101849190612600565b610863565b60405161019a9594939291906127f7565b60405180910390f35b6101bd60048036038101906101b891906124ad565b610e54565b6040516101ce95949392919061286d565b60405180910390f35b6101f160048036038101906101ec919061233f565b611072565b005b61020d600480360381019061020891906128d5565b611217565b60405161021a9190612466565b60405180910390f35b61023d600480360381019061023891906123de565b611347565b005b61025960048036038101906102549190612600565b61146b565b60405161026a959493929190612adc565b60405180910390f35b61028d60048036038101906102889190612600565b6119c5565b60405161029a9190612466565b60405180910390f35b6102bd60048036038101906102b8919061233f565b611a82565b005b6102d960048036038101906102d491906124ad565b611c22565b6040516102e893929190612b52565b60405180910390f35b61030b60048036038101906103069190612b90565b611d24565b60405161031a93929190612b52565b60405180910390f35b61033d60048036038101906103389190612bd0565b611f93565b005b60005b6000805490508110156104dd578473ffffffffffffffffffffffffffffffffffffffff166000828154811061037a57610379612c9f565b5b906000526020600020906005020160000160009054906101000a900473ffffffffffffffffffffffffffffffffffffffff1673ffffffffffffffffffffffffffffffffffffffff1614801561043f57508373ffffffffffffffffffffffffffffffffffffffff16600082815481106103f5576103f4612c9f565b5b906000526020600020906005020160010160009054906101000a900473ffffffffffffffffffffffffffffffffffffffff1673ffffffffffffffffffffffffffffffffffffffff16145b801561048a575082805190602001206000828154811061046257610461612c9f565b5b90600052602060002090600502016002016040516104809190612dce565b6040518091039020145b156104ca5781600082815481106104a4576104a3612c9f565b5b906000526020600020906005020160040190805190602001906104c89291906120e4565b505b80806104d590612e14565b915050610342565b5050505050565b600080600090505b600080549050811015610656578473ffffffffffffffffffffffffffffffffffffffff166000828154811061052457610523612c9f565b5b906000526020600020906005020160000160009054906101000a900473ffffffffffffffffffffffffffffffffffffffff1673ffffffffffffffffffffffffffffffffffffffff161480156105e957508373ffffffffffffffffffffffffffffffffffffffff166000828154811061059f5761059e612c9f565b5b906000526020600020906005020160010160009054906101000a900473ffffffffffffffffffffffffffffffffffffffff1673ffffffffffffffffffffffffffffffffffffffff16145b8015610634575082805190602001206000828154811061060c5761060b612c9f565b5b906000526020600020906005020160020160405161062a9190612dce565b6040518091039020145b15610643576001915050610658565b808061064e90612e14565b9150506104ec565b505b9392505050565b6001818154811061066f57600080fd5b90600052602060002090600602016000915090508060000160009054906101000a900473ffffffffffffffffffffffffffffffffffffffff16908060010154908060020180546106be90612cfd565b80601f01602080910402602001604051908101604052809291908181526020018280546106ea90612cfd565b80156107375780601f1061070c57610100808354040283529160200191610737565b820191906000526020600020905b81548152906001019060200180831161071a57829003601f168201915b50505050509080600301805461074c90612cfd565b80601f016020809104026020016040519081016040528092919081815260200182805461077890612cfd565b80156107c55780601f1061079a576101008083540402835291602001916107c5565b820191906000526020600020905b8154815290600101906020018083116107a857829003601f168201915b5050505050908060040180546107da90612cfd565b80601f016020809104026020016040519081016040528092919081815260200182805461080690612cfd565b80156108535780601f1061082857610100808354040283529160200191610853565b820191906000526020600020905b81548152906001019060200180831161083657829003601f168201915b5050505050908060050154905086565b60608060608060606000808054905067ffffffffffffffff81111561088b5761088a612214565b5b6040519080825280602002602001820160405280156108b95781602001602082028036833780820191505090505b5090506000808054905067ffffffffffffffff8111156108dc576108db612214565b5b60405190808252806020026020018201604052801561090a5781602001602082028036833780820191505090505b5090506000808054905067ffffffffffffffff81111561092d5761092c612214565b5b60405190808252806020026020018201604052801561096057816020015b606081526020019060019003908161094b5790505b5090506000808054905067ffffffffffffffff81111561098357610982612214565b5b6040519080825280602002602001820160405280156109b657816020015b60608152602001906001900390816109a15790505b5090506000808054905067ffffffffffffffff8111156109d9576109d8612214565b5b604051908082528060200260200182016040528015610a0c57816020015b60608152602001906001900390816109f75790505b50905060005b600080549050811015610e36578b73ffffffffffffffffffffffffffffffffffffffff1660008281548110610a4a57610a49612c9f565b5b906000526020600020906005020160010160009054906101000a900473ffffffffffffffffffffffffffffffffffffffff1673ffffffffffffffffffffffffffffffffffffffff161415610e235760008181548110610aac57610aab612c9f565b5b906000526020600020906005020160000160009054906101000a900473ffffffffffffffffffffffffffffffffffffffff16868281518110610af157610af0612c9f565b5b602002602001019073ffffffffffffffffffffffffffffffffffffffff16908173ffffffffffffffffffffffffffffffffffffffff168152505060008181548110610b3f57610b3e612c9f565b5b906000526020600020906005020160010160009054906101000a900473ffffffffffffffffffffffffffffffffffffffff16858281518110610b8457610b83612c9f565b5b602002602001019073ffffffffffffffffffffffffffffffffffffffff16908173ffffffffffffffffffffffffffffffffffffffff168152505060008181548110610bd257610bd1612c9f565b5b90600052602060002090600502016002018054610bee90612cfd565b80601f0160208091040260200160405190810160405280929190818152602001828054610c1a90612cfd565b8015610c675780601f10610c3c57610100808354040283529160200191610c67565b820191906000526020600020905b815481529060010190602001808311610c4a57829003601f168201915b5050505050848281518110610c7f57610c7e612c9f565b5b602002602001018190525060008181548110610c9e57610c9d612c9f565b5b90600052602060002090600502016003018054610cba90612cfd565b80601f0160208091040260200160405190810160405280929190818152602001828054610ce690612cfd565b8015610d335780601f10610d0857610100808354040283529160200191610d33565b820191906000526020600020905b815481529060010190602001808311610d1657829003601f168201915b5050505050838281518110610d4b57610d4a612c9f565b5b602002602001018190525060008181548110610d6a57610d69612c9f565b5b90600052602060002090600502016004018054610d8690612cfd565b80601f0160208091040260200160405190810160405280929190818152602001828054610db290612cfd565b8015610dff5780601f10610dd457610100808354040283529160200191610dff565b820191906000526020600020905b815481529060010190602001808311610de257829003601f168201915b5050505050828281518110610e1757610e16612c9f565b5b60200260200101819052505b8080610e2e90612e14565b915050610a12565b50848484848499509950995099509950505050505091939590929450565b60008181548110610e6457600080fd5b90600052602060002090600502016000915090508060000160009054906101000a900473ffffffffffffffffffffffffffffffffffffffff16908060010160009054906101000a900473ffffffffffffffffffffffffffffffffffffffff1690806002018054610ed390612cfd565b80601f0160208091040260200160405190810160405280929190818152602001828054610eff90612cfd565b8015610f4c5780601f10610f2157610100808354040283529160200191610f4c565b820191906000526020600020905b815481529060010190602001808311610f2f57829003601f168201915b505050505090806003018054610f6190612cfd565b80601f0160208091040260200160405190810160405280929190818152602001828054610f8d90612cfd565b8015610fda5780601f10610faf57610100808354040283529160200191610fda565b820191906000526020600020905b815481529060010190602001808311610fbd57829003601f168201915b505050505090806004018054610fef90612cfd565b80601f016020809104026020016040519081016040528092919081815260200182805461101b90612cfd565b80156110685780601f1061103d57610100808354040283529160200191611068565b820191906000526020600020905b81548152906001019060200180831161104b57829003601f168201915b5050505050905085565b60005b600080549050811015611210578473ffffffffffffffffffffffffffffffffffffffff16600082815481106110ad576110ac612c9f565b5b906000526020600020906005020160000160009054906101000a900473ffffffffffffffffffffffffffffffffffffffff1673ffffffffffffffffffffffffffffffffffffffff1614801561117257508373ffffffffffffffffffffffffffffffffffffffff166000828154811061112857611127612c9f565b5b906000526020600020906005020160010160009054906101000a900473ffffffffffffffffffffffffffffffffffffffff1673ffffffffffffffffffffffffffffffffffffffff16145b80156111bd575082805190602001206000828154811061119557611194612c9f565b5b90600052602060002090600502016002016040516111b39190612dce565b6040518091039020145b156111fd5781600082815481106111d7576111d6612c9f565b5b906000526020600020906005020160040190805190602001906111fb9291906120e4565b505b808061120890612e14565b915050611075565b5050505050565b600080600090505b60018054905081101561133e578473ffffffffffffffffffffffffffffffffffffffff166001828154811061125757611256612c9f565b5b906000526020600020906006020160000160009054906101000a900473ffffffffffffffffffffffffffffffffffffffff1673ffffffffffffffffffffffffffffffffffffffff161480156112f8575083836040516020016112ba929190612e99565b60405160208183030381529060405280519060200120600182815481106112e4576112e3612c9f565b5b906000526020600020906006020160010154145b1561132b576001818154811061131157611310612c9f565b5b906000526020600020906006020160050154915050611340565b808061133690612e14565b91505061121f565b505b9392505050565b600260405180606001604052808573ffffffffffffffffffffffffffffffffffffffff1681526020018473ffffffffffffffffffffffffffffffffffffffff16815260200183815250908060018154018082558091505060019003906000526020600020906003020160009091909190915060008201518160000160006101000a81548173ffffffffffffffffffffffffffffffffffffffff021916908373ffffffffffffffffffffffffffffffffffffffff16021790555060208201518160010160006101000a81548173ffffffffffffffffffffffffffffffffffffffff021916908373ffffffffffffffffffffffffffffffffffffffff16021790555060408201518160020190805190602001906114639291906120e4565b505050505050565b6060806060806060600060018054905067ffffffffffffffff81111561149457611493612214565b5b6040519080825280602002602001820160405280156114c25781602001602082028036833780820191505090505b509050600060018054905067ffffffffffffffff8111156114e6576114e5612214565b5b60405190808252806020026020018201604052801561151957816020015b60608152602001906001900390816115045790505b509050600060018054905067ffffffffffffffff81111561153d5761153c612214565b5b60405190808252806020026020018201604052801561157057816020015b606081526020019060019003908161155b5790505b509050600060018054905067ffffffffffffffff81111561159457611593612214565b5b6040519080825280602002602001820160405280156115c757816020015b60608152602001906001900390816115b25790505b509050600060018054905067ffffffffffffffff8111156115eb576115ea612214565b5b6040519080825280602002602001820160405280156116195781602001602082028036833780820191505090505b50905060005b6001805490508110156119a7578b73ffffffffffffffffffffffffffffffffffffffff166001828154811061165757611656612c9f565b5b906000526020600020906006020160000160009054906101000a900473ffffffffffffffffffffffffffffffffffffffff1673ffffffffffffffffffffffffffffffffffffffff16141561199457600181815481106116b9576116b8612c9f565b5b9060005260206000209060060201600101548682815181106116de576116dd612c9f565b5b602002602001018181525050600181815481106116fe576116fd612c9f565b5b9060005260206000209060060201600201805461171a90612cfd565b80601f016020809104026020016040519081016040528092919081815260200182805461174690612cfd565b80156117935780601f1061176857610100808354040283529160200191611793565b820191906000526020600020905b81548152906001019060200180831161177657829003601f168201915b50505050508582815181106117ab576117aa612c9f565b5b6020026020010181905250600181815481106117ca576117c9612c9f565b5b906000526020600020906006020160030180546117e690612cfd565b80601f016020809104026020016040519081016040528092919081815260200182805461181290612cfd565b801561185f5780601f106118345761010080835404028352916020019161185f565b820191906000526020600020905b81548152906001019060200180831161184257829003601f168201915b505050505084828151811061187757611876612c9f565b5b60200260200101819052506001818154811061189657611895612c9f565b5b906000526020600020906006020160040180546118b290612cfd565b80601f01602080910402602001604051908101604052809291908181526020018280546118de90612cfd565b801561192b5780601f106119005761010080835404028352916020019161192b565b820191906000526020600020905b81548152906001019060200180831161190e57829003601f168201915b505050505083828151811061194357611942612c9f565b5b60200260200101819052506001818154811061196257611961612c9f565b5b90600052602060002090600602016005015482828151811061198757611986612c9f565b5b6020026020010181815250505b808061199f90612e14565b91505061161f565b50848484848499509950995099509950505050505091939590929450565b6000806000905060005b600080549050811015611a78578373ffffffffffffffffffffffffffffffffffffffff1660008281548110611a0757611a06612c9f565b5b906000526020600020906005020160010160009054906101000a900473ffffffffffffffffffffffffffffffffffffffff1673ffffffffffffffffffffffffffffffffffffffff161415611a6557600182611a629190612ebd565b91505b8080611a7090612e14565b9150506119cf565b5080915050919050565b60006040518060a001604052808673ffffffffffffffffffffffffffffffffffffffff1681526020018573ffffffffffffffffffffffffffffffffffffffff1681526020018481526020018381526020016040518060400160405280600981526020017f53637265656e696e670000000000000000000000000000000000000000000000815250815250908060018154018082558091505060019003906000526020600020906005020160009091909190915060008201518160000160006101000a81548173ffffffffffffffffffffffffffffffffffffffff021916908373ffffffffffffffffffffffffffffffffffffffff16021790555060208201518160010160006101000a81548173ffffffffffffffffffffffffffffffffffffffff021916908373ffffffffffffffffffffffffffffffffffffffff1602179055506040820151816002019080519060200190611bdf9291906120e4565b506060820151816003019080519060200190611bfc9291906120e4565b506080820151816004019080519060200190611c199291906120e4565b50505050505050565b60028181548110611c3257600080fd5b90600052602060002090600302016000915090508060000160009054906101000a900473ffffffffffffffffffffffffffffffffffffffff16908060010160009054906101000a900473ffffffffffffffffffffffffffffffffffffffff1690806002018054611ca190612cfd565b80601f0160208091040260200160405190810160405280929190818152602001828054611ccd90612cfd565b8015611d1a5780601f10611cef57610100808354040283529160200191611d1a565b820191906000526020600020905b815481529060010190602001808311611cfd57829003601f168201915b5050505050905083565b600080606060005b600280549050811015611f8a578473ffffffffffffffffffffffffffffffffffffffff1660028281548110611d6457611d63612c9f565b5b906000526020600020906003020160010160009054906101000a900473ffffffffffffffffffffffffffffffffffffffff1673ffffffffffffffffffffffffffffffffffffffff16148015611e2957508573ffffffffffffffffffffffffffffffffffffffff1660028281548110611ddf57611dde612c9f565b5b906000526020600020906003020160000160009054906101000a900473ffffffffffffffffffffffffffffffffffffffff1673ffffffffffffffffffffffffffffffffffffffff16145b15611f775760028181548110611e4257611e41612c9f565b5b906000526020600020906003020160000160009054906101000a900473ffffffffffffffffffffffffffffffffffffffff1660028281548110611e8857611e87612c9f565b5b906000526020600020906003020160010160009054906101000a900473ffffffffffffffffffffffffffffffffffffffff1660028381548110611ece57611ecd612c9f565b5b9060005260206000209060030201600201808054611eeb90612cfd565b80601f0160208091040260200160405190810160405280929190818152602001828054611f1790612cfd565b8015611f645780601f10611f3957610100808354040283529160200191611f64565b820191906000526020600020905b815481529060010190602001808311611f4757829003601f168201915b5050505050905093509350935050611f8c565b8080611f8290612e14565b915050611d2c565b505b9250925092565b60016040518060c001604052808773ffffffffffffffffffffffffffffffffffffffff1681526020018685604051602001611fcf929190612e99565b60405160208183030381529060405280519060200120815260200186815260200185815260200184815260200183815250908060018154018082558091505060019003906000526020600020906006020160009091909190915060008201518160000160006101000a81548173ffffffffffffffffffffffffffffffffffffffff021916908373ffffffffffffffffffffffffffffffffffffffff1602179055506020820151816001015560408201518160020190805190602001906120969291906120e4565b5060608201518160030190805190602001906120b39291906120e4565b5060808201518160040190805190602001906120d09291906120e4565b5060a0820151816005015550505050505050565b8280546120f090612cfd565b90600052602060002090601f0160209004810192826121125760008555612159565b82601f1061212b57805160ff1916838001178555612159565b82800160010185558215612159579182015b8281111561215857825182559160200191906001019061213d565b5b509050612166919061216a565b5090565b5b8082111561218357600081600090555060010161216b565b5090565b6000604051905090565b600080fd5b600080fd5b600073ffffffffffffffffffffffffffffffffffffffff82169050919050565b60006121c68261219b565b9050919050565b6121d6816121bb565b81146121e157600080fd5b50565b6000813590506121f3816121cd565b92915050565b600080fd5b600080fd5b6000601f19601f8301169050919050565b7f4e487b7100000000000000000000000000000000000000000000000000000000600052604160045260246000fd5b61224c82612203565b810181811067ffffffffffffffff8211171561226b5761226a612214565b5b80604052505050565b600061227e612187565b905061228a8282612243565b919050565b600067ffffffffffffffff8211156122aa576122a9612214565b5b6122b382612203565b9050602081019050919050565b82818337600083830152505050565b60006122e26122dd8461228f565b612274565b9050828152602081018484840111156122fe576122fd6121fe565b5b6123098482856122c0565b509392505050565b600082601f830112612326576123256121f9565b5b81356123368482602086016122cf565b91505092915050565b6000806000806080858703121561235957612358612191565b5b6000612367878288016121e4565b9450506020612378878288016121e4565b935050604085013567ffffffffffffffff81111561239957612398612196565b5b6123a587828801612311565b925050606085013567ffffffffffffffff8111156123c6576123c5612196565b5b6123d287828801612311565b91505092959194509250565b6000806000606084860312156123f7576123f6612191565b5b6000612405868287016121e4565b9350506020612416868287016121e4565b925050604084013567ffffffffffffffff81111561243757612436612196565b5b61244386828701612311565b9150509250925092565b6000819050919050565b6124608161244d565b82525050565b600060208201905061247b6000830184612457565b92915050565b61248a8161244d565b811461249557600080fd5b50565b6000813590506124a781612481565b92915050565b6000602082840312156124c3576124c2612191565b5b60006124d184828501612498565b91505092915050565b6124e3816121bb565b82525050565b6000819050919050565b6124fc816124e9565b82525050565b600081519050919050565b600082825260208201905092915050565b60005b8381101561253c578082015181840152602081019050612521565b8381111561254b576000848401525b50505050565b600061255c82612502565b612566818561250d565b935061257681856020860161251e565b61257f81612203565b840191505092915050565b600060c08201905061259f60008301896124da565b6125ac60208301886124f3565b81810360408301526125be8187612551565b905081810360608301526125d28186612551565b905081810360808301526125e68185612551565b90506125f560a0830184612457565b979650505050505050565b60006020828403121561261657612615612191565b5b6000612624848285016121e4565b91505092915050565b600081519050919050565b600082825260208201905092915050565b6000819050602082019050919050565b612662816121bb565b82525050565b60006126748383612659565b60208301905092915050565b6000602082019050919050565b60006126988261262d565b6126a28185612638565b93506126ad83612649565b8060005b838110156126de5781516126c58882612668565b97506126d083612680565b9250506001810190506126b1565b5085935050505092915050565b600081519050919050565b600082825260208201905092915050565b6000819050602082019050919050565b600082825260208201905092915050565b600061273382612502565b61273d8185612717565b935061274d81856020860161251e565b61275681612203565b840191505092915050565b600061276d8383612728565b905092915050565b6000602082019050919050565b600061278d826126eb565b61279781856126f6565b9350836020820285016127a985612707565b8060005b858110156127e557848403895281516127c68582612761565b94506127d183612775565b925060208a019950506001810190506127ad565b50829750879550505050505092915050565b600060a0820190508181036000830152612811818861268d565b90508181036020830152612825818761268d565b905081810360408301526128398186612782565b9050818103606083015261284d8185612782565b905081810360808301526128618184612782565b90509695505050505050565b600060a08201905061288260008301886124da565b61288f60208301876124da565b81810360408301526128a18186612551565b905081810360608301526128b58185612551565b905081810360808301526128c98184612551565b90509695505050505050565b6000806000606084860312156128ee576128ed612191565b5b60006128fc868287016121e4565b935050602084013567ffffffffffffffff81111561291d5761291c612196565b5b61292986828701612311565b925050604084013567ffffffffffffffff81111561294a57612949612196565b5b61295686828701612311565b9150509250925092565b600081519050919050565b600082825260208201905092915050565b6000819050602082019050919050565b612995816124e9565b82525050565b60006129a7838361298c565b60208301905092915050565b6000602082019050919050565b60006129cb82612960565b6129d5818561296b565b93506129e08361297c565b8060005b83811015612a115781516129f8888261299b565b9750612a03836129b3565b9250506001810190506129e4565b5085935050505092915050565b600081519050919050565b600082825260208201905092915050565b6000819050602082019050919050565b612a538161244d565b82525050565b6000612a658383612a4a565b60208301905092915050565b6000602082019050919050565b6000612a8982612a1e565b612a938185612a29565b9350612a9e83612a3a565b8060005b83811015612acf578151612ab68882612a59565b9750612ac183612a71565b925050600181019050612aa2565b5085935050505092915050565b600060a0820190508181036000830152612af681886129c0565b90508181036020830152612b0a8187612782565b90508181036040830152612b1e8186612782565b90508181036060830152612b328185612782565b90508181036080830152612b468184612a7e565b90509695505050505050565b6000606082019050612b6760008301866124da565b612b7460208301856124da565b8181036040830152612b868184612551565b9050949350505050565b60008060408385031215612ba757612ba6612191565b5b6000612bb5858286016121e4565b9250506020612bc6858286016121e4565b9150509250929050565b600080600080600060a08688031215612bec57612beb612191565b5b6000612bfa888289016121e4565b955050602086013567ffffffffffffffff811115612c1b57612c1a612196565b5b612c2788828901612311565b945050604086013567ffffffffffffffff811115612c4857612c47612196565b5b612c5488828901612311565b935050606086013567ffffffffffffffff811115612c7557612c74612196565b5b612c8188828901612311565b9250506080612c9288828901612498565b9150509295509295909350565b7f4e487b7100000000000000000000000000000000000000000000000000000000600052603260045260246000fd5b7f4e487b7100000000000000000000000000000000000000000000000000000000600052602260045260246000fd5b60006002820490506001821680612d1557607f821691505b60208210811415612d2957612d28612cce565b5b50919050565b600081905092915050565b60008190508160005260206000209050919050565b60008154612d5c81612cfd565b612d668186612d2f565b94506001821660008114612d815760018114612d9257612dc5565b60ff19831686528186019350612dc5565b612d9b85612d3a565b60005b83811015612dbd57815481890152600182019150602081019050612d9e565b838801955050505b50505092915050565b6000612dda8284612d4f565b915081905092915050565b7f4e487b7100000000000000000000000000000000000000000000000000000000600052601160045260246000fd5b6000612e1f8261244d565b91507fffffffffffffffffffffffffffffffffffffffffffffffffffffffffffffffff821415612e5257612e51612de5565b5b600182019050919050565b600081905092915050565b6000612e7382612502565b612e7d8185612e5d565b9350612e8d81856020860161251e565b80840191505092915050565b6000612ea58285612e68565b9150612eb18284612e68565b91508190509392505050565b6000612ec88261244d565b9150612ed38361244d565b9250827fffffffffffffffffffffffffffffffffffffffffffffffffffffffffffffffff03821115612f0857612f07612de5565b5b82820190509291505056fea264697066735822122068aa446e0a6dd2f15e350182de69e7b934713a4462984fc4897ac8e5ea6347b864736f6c634300080b0033",
  "immutableReferences": {},
  "source": "// SPDX-License-Identifier: MIT\r\npragma solidity >=0.4.22 <0.9.0;\r\n\r\n// Import cc contract cn thit  s dng\r\nimport \"./SmartCV_ListStudent.sol\";\r\nimport \"./SmartCV_ListBusiness.sol\";\r\nimport \"./SmartCV_ListIIG.sol\";\r\nimport \"./SmartCV_Apply.sol\";\r\n\r\n// CV dnh cho sinh vin\r\ncontract StudentBusiness {\r\n\r\n    // Khai contract  import  s dng cc function  contract \r\n    ListStudent listStudent = new ListStudent();\r\n    ListBusiness listBusiness = new ListBusiness();\r\n    ListIIG listIIG = new ListIIG();\r\n    ApplyCV applyCV = new ApplyCV();\r\n\r\n    // ======================================\r\n    // ====== Chc nng cho sinh vin =======\r\n    // ======================================\r\n\r\n    // Chc nng thm thng tin sinh vin (ng k)\r\n    function addStudentProfile (\r\n        address _studentOwner,\r\n        string memory _name,\r\n        string memory _phoneNumber,\r\n        string memory _professionalTitle,\r\n        string memory _email,\r\n        string memory _github,\r\n        string memory _linkedin,\r\n        string memory _sourceImage,\r\n        string memory _password) public {\r\n            listStudent.addSV(_studentOwner, \r\n                                _name, \r\n                                _phoneNumber, \r\n                                _professionalTitle, \r\n                                _email, \r\n                                _github, \r\n                                _linkedin,\r\n                                _sourceImage,\r\n                                _password);\r\n    }\r\n\r\n    // Chc nng chnh thng tin sinh vin\r\n    function editStudentProfile (\r\n        address _studentOwner,\r\n        string memory _name,\r\n        string memory _phoneNumber,\r\n        string memory _professionalTitle,\r\n        string memory _email,\r\n        string memory _github,\r\n        string memory _linkedin,\r\n        string memory _sourceImage) public {\r\n            listStudent.editSV(_studentOwner,\r\n                                _name, \r\n                                _phoneNumber, \r\n                                _professionalTitle, \r\n                                _email, \r\n                                _github, \r\n                                _linkedin,\r\n                                _sourceImage);\r\n    }\r\n\r\n    // Chc nng ly thng tin ca sinh vin\r\n    function getStudentProfile(address _studentOwner) public view returns(\r\n        address studentOwner, \r\n        string memory name, \r\n        string memory phoneNumber, \r\n        string memory professionalTitle, \r\n        string memory email, \r\n        string memory github, \r\n        string memory linkedin,\r\n        string memory sourceImage,\r\n        string memory password) {\r\n            return listStudent.getProfile(_studentOwner);\r\n    }\r\n\r\n    // Chc nng kim tra ti khon sinh vin c tn ti hay khng? (ng nhp)\r\n    function checkStudentProfile(\r\n        address _studentOwner, \r\n        string memory _password) public view returns(uint x) {\r\n            return listStudent.checkSV(_studentOwner, _password);\r\n    }\r\n\r\n    // Chc nng kim tra a ch sinh vin c tn ti hay khng?\r\n    function checkExistStudent(address _studentOwner) public view returns(uint x) {\r\n            return listStudent.checkExistSV(_studentOwner);\r\n    }\r\n\r\n    // Chc nng thm thng tin k nng ca sinh vin\r\n    function addStudentSkill(\r\n        address _studentOwner,\r\n        string memory _title, \r\n        uint _level) public {\r\n            listStudent.addSkill(_studentOwner, \r\n                                _title, \r\n                                _level);\r\n    }\r\n\r\n    // Chc nng chnh sa thng tin k nng ca sinh vin\r\n    function editStudentSkill(\r\n        address _studentOwner,\r\n        string memory _title, \r\n        uint _level) public {\r\n            listStudent.editSkill(_studentOwner, \r\n                                _title, \r\n                                _level);\r\n    }\r\n\r\n    // Chc nng kim tra k nng ca sinh vin c tn ti hay khng?\r\n    function checkStudentSkill(\r\n        address _studentOwner,\r\n        string memory _title) public view returns(uint x) {\r\n            return listStudent.checkSkill(_studentOwner, _title);\r\n    }\r\n\r\n    // Chc nng kim tra s lng k nng ca sinh vin\r\n    function checkNumStudentSkill(address _studentOwner) public view returns(uint x) {\r\n            uint _count = listStudent.checkNumSkill(_studentOwner);\r\n            if(_count > 10){\r\n                return 1;\r\n            }\r\n    }\r\n\r\n    // Chc nng ly thng tin k nng ca sinh vin\r\n    function getStudentSkill(address _studentOwner) public view returns(\r\n        string[] memory titles,\r\n        uint[] memory levels) {\r\n        return listStudent.getSkill(_studentOwner);\r\n    }\r\n\r\n    // Chc nng thm thng tin hc vn ca sinh vin\r\n    function addStudentEducation(\r\n        address _studentOwner,\r\n        string memory _institution,\r\n        string memory _focusArea, \r\n        string memory _startTime,\r\n        string memory _finishTime,\r\n        string memory _gpa) public {\r\n            listStudent.addEducation(_studentOwner, \r\n                                    _institution, \r\n                                    _focusArea,\r\n                                    _startTime,\r\n                                    _finishTime,\r\n                                    _gpa);\r\n    }\r\n\r\n    // Chc nng chnh sa thng tin hc vn ca sinh vin\r\n    function editStudentEducation(\r\n        address _studentOwner,\r\n        string memory _institution,\r\n        string memory _focusArea, \r\n        string memory _startTime,\r\n        string memory _finishTime,\r\n        string memory _gpa) public {\r\n            listStudent.editEducation(_studentOwner, \r\n                                    _institution, \r\n                                    _focusArea,\r\n                                    _startTime,\r\n                                    _finishTime,\r\n                                    _gpa);\r\n    }\r\n\r\n    // Chc nng kim tra sinh vin  thm hc vn  hay cha?\r\n    function checkStudentEducation(\r\n        address _studentOwner, \r\n        string memory _institution,\r\n        string memory _focusArea) public view returns(uint x) {\r\n            return listStudent.checkEducation(_studentOwner,\r\n                                            _institution,\r\n                                            _focusArea);\r\n    }\r\n\r\n    // Chc nng ly thng tin hc vn ca sinh vin\r\n    function getStudentEducation(address _studentOwner) public view returns(\r\n        string[] memory,\r\n        string[] memory,\r\n        string[] memory,\r\n        string[] memory,\r\n        string[] memory) {\r\n            return listStudent.getEducation(_studentOwner);\r\n    }\r\n\r\n    // Chc nng ly danh sch doanh nghip\r\n    function getListBusiness() public view returns(\r\n        address[] memory,\r\n        string[] memory,\r\n        string[] memory,\r\n        string[] memory,\r\n        string[] memory,\r\n        string[] memory,\r\n        string[] memory,\r\n        string[] memory) {\r\n        return listBusiness.getListDN();\r\n    }\r\n\r\n    // Chc nng ly thng tin tuyn dng ca doanh nghip\r\n    function getRecruit(address _businessOwner) public view returns(\r\n        bytes32[] memory,\r\n        string[] memory,\r\n        string[] memory,\r\n        string[] memory,\r\n        uint[] memory) {\r\n        return applyCV.getRecruit(_businessOwner);\r\n    }\r\n\r\n    // Chc nng gi CV ti doanh nghip\r\n    function sendCV(\r\n        address _studentOwner, \r\n        address _businessOwner, \r\n        string memory _jobTitle, \r\n        string memory _coverLetter) public {\r\n            applyCV.addCV(_studentOwner, \r\n                        _businessOwner, \r\n                        _jobTitle, \r\n                        _coverLetter);\r\n    }\r\n\r\n    // Chc nng kim tra sinh vin  np CV cha?\r\n    function checkCV(\r\n        address _studentOwner, \r\n        address _businessOwner, \r\n        string memory _jobTitle) public view returns(uint x) {\r\n            return applyCV.checkCV(_studentOwner, \r\n                                    _businessOwner, \r\n                                    _jobTitle);\r\n    }\r\n\r\n    // Chc nng xem nh gi thc tp ca doanh nghip\r\n    function getReview(\r\n        address _studentOwner, \r\n        address _businessOwner) public view returns(\r\n            address studentOwner, \r\n            address businessOwner, \r\n            string memory content) {\r\n                return applyCV.getReview(_studentOwner, _businessOwner);\r\n    }\r\n\r\n    // ======================================\r\n    // ===== Chc nng cho doanh nghip =====\r\n    // ======================================\r\n\r\n    // Chc nng thm thng tin doanh nghip (ng k)\r\n    function addBusinessProfile(\r\n        address _businessOwner,\r\n        string memory _name,\r\n        string memory _country,\r\n        string memory _facebook,\r\n        string memory _website,\r\n        string memory _linkedin,\r\n        string memory _focusArea,\r\n        string memory _password) public {\r\n            listBusiness.addDN(_businessOwner, \r\n                                _name, \r\n                                _country, \r\n                                _facebook, \r\n                                _website, \r\n                                _linkedin, \r\n                                _focusArea, \r\n                                _password);\r\n    }\r\n\r\n    // Chc nng chnh sa thng tin doanh nghip\r\n    function editBusinessProfile(\r\n        address _businessOwner,\r\n        string memory _name,\r\n        string memory _country,\r\n        string memory _facebook,\r\n        string memory _website,\r\n        string memory _linkedin,\r\n        string memory _focusArea) public {\r\n            listBusiness.editDN(_businessOwner, \r\n                                _name, \r\n                                _country, \r\n                                _facebook, \r\n                                _website, \r\n                                _linkedin, \r\n                                _focusArea);\r\n    }\r\n\r\n    // Chc nng ly thng tin ca doanh nghip\r\n    function getBusinessProfile(address _businessOwner) public view returns(\r\n        address businessOwner, \r\n        string memory name, \r\n        string memory country, \r\n        string memory facebook, \r\n        string memory website, \r\n        string memory linkedin, \r\n        string memory focusArea) {\r\n            return listBusiness.getProfile(_businessOwner);\r\n    }\r\n\r\n    // Chc nng kim tra ti khon doanh nghip c tn ti hay khng? (ng nhp)\r\n    function checkBusinessProfile(\r\n        address _businessOwner, \r\n        string memory _password) public view returns(uint) {\r\n            return listBusiness.checkDN(_businessOwner, _password);\r\n    }\r\n\r\n    // Chc nng kim tra a ch doanh nghip c tn ti hay khng?\r\n    function checkExistBusiness(address _businessOwner) public view returns(uint x) {\r\n            return listBusiness.checkExistDN(_businessOwner);\r\n    }\r\n\r\n    // Chc nng ly danh sch CV  np vo doanh nghip\r\n    function getListCV(address _businessOwner) public view returns(\r\n        address[] memory, \r\n        address[] memory, \r\n        string[] memory, \r\n        string[] memory,\r\n        string[] memory) {\r\n            return applyCV.getCV(_businessOwner);\r\n    }\r\n    \r\n    //Chc nng duyt CV vo vng interview\r\n    function interviewCV(\r\n        address _studentOwner, \r\n        address _businessOwner, \r\n        string memory _jobTitle,\r\n        string memory _statusCV) public {\r\n            applyCV.interviewCV(_studentOwner, \r\n                                _businessOwner, \r\n                                _jobTitle, \r\n                                _statusCV);\r\n    }\r\n\r\n    //Chc nng duyt CV vo vng onboard\r\n    function onboardCV(\r\n        address _studentOwner, \r\n        address _businessOwner, \r\n        string memory _jobTitle,\r\n        string memory _statusCV) public {\r\n            applyCV.onboardCV(_studentOwner, \r\n                            _businessOwner, \r\n                            _jobTitle, \r\n                            _statusCV);\r\n    }\r\n\r\n    // Chc nng thm thng tin tuyn dng ca doanh nghip\r\n    function addRecruit(\r\n        address _businessOwner,\r\n        string memory _jobTitle,\r\n        string memory _jobDescription,\r\n        string memory _recruitDate,\r\n        uint _amount) public {\r\n            applyCV.addRecruit(_businessOwner, \r\n                                _jobTitle, \r\n                                _jobDescription,\r\n                                _recruitDate,\r\n                                _amount);\r\n    }\r\n\r\n    // Chc nng kim tra s lng tuyn dng   hay cha?\r\n    function checkAmountBusinessRecruit(\r\n        address _businessOwner,\r\n        string memory _jobTitle,\r\n        string memory _recruitDate) public view returns(uint x) {\r\n            uint numCV = applyCV.checkNumCV(_businessOwner);\r\n            uint amountRecuit = applyCV.checkAmountRecruit(_businessOwner, _jobTitle, _recruitDate);\r\n            if(numCV > amountRecuit){\r\n                return 1;\r\n            }\r\n    }\r\n\r\n    // Chc nng nh gi thc tp cho sinh vin\r\n    function sendReview(\r\n        address _studentOwner, \r\n        address _businessOwner, \r\n        string memory _content) public {\r\n            applyCV.addReview(_studentOwner, \r\n                            _businessOwner, \r\n                            _content);\r\n    }\r\n\r\n    // ======================================\r\n    // ========= Chc nng cho IIG ==========\r\n    // ======================================\r\n\r\n    // Chc nng thm thng tin IIG (ng k)\r\n    function addIIGProfile(\r\n        address _iigOwner,\r\n        string memory _name,\r\n        string memory _country,\r\n        string memory _facebook,\r\n        string memory _website,\r\n        string memory _linkedin,\r\n        string memory _password) public {\r\n            listIIG.addIIG(_iigOwner, \r\n                            _name, \r\n                            _country, \r\n                            _facebook, \r\n                            _website, \r\n                            _linkedin, \r\n                            _password);\r\n    }\r\n\r\n    // Chc nng chnh sa thng tin IIG\r\n    function editIIGProfile(\r\n        address _iigOwner,\r\n        string memory _name,\r\n        string memory _country,\r\n        string memory _facebook,\r\n        string memory _website,\r\n        string memory _linkedin) public {\r\n            listIIG.editIIG(_iigOwner, \r\n                            _name, \r\n                            _country, \r\n                            _facebook, \r\n                            _website, \r\n                            _linkedin);\r\n    }\r\n\r\n    // Chc nng ly danh sch IIG\r\n    function getListIIG() public view returns(\r\n        address[] memory,\r\n        string[] memory,\r\n        string[] memory,\r\n        string[] memory,\r\n        string[] memory,\r\n        string[] memory,\r\n        string[] memory) {\r\n            return listIIG.getListIIG();\r\n    }\r\n\r\n    // Chc nng ly thng tin ca IIG\r\n    function getIIGProfile(address _iigOwner) public view returns(\r\n        address iigOwner,\r\n        string memory name,\r\n        string memory country,\r\n        string memory facebook,\r\n        string memory website,\r\n        string memory linkedin) {\r\n            return listIIG.getProfile(_iigOwner);\r\n    }\r\n\r\n    // Chc nng kim tra ti khon IIG c tn ti hay khng? (ng nhp)\r\n    function checkIIGProfile(\r\n        address _iigOwner, \r\n        string memory _password) public view returns(uint) {\r\n            return listIIG.checkIIG(_iigOwner, _password);\r\n    }\r\n\r\n    // Chc nng kim tra a ch IIG c tn ti hay khng?\r\n    function checkExistIIG(address _iigOwner) public view returns(uint x) {\r\n            return listIIG.checkExistIIG(_iigOwner);\r\n    }\r\n\r\n    // Chc nng gi thng tin yu cu chng ch IIG\r\n    function sendIIGRequest (\r\n        address _studentOwner,\r\n        address _iigOwner,\r\n        string memory _identityCard,\r\n        string memory _requestDate) public {\r\n            listIIG.addRequest(_studentOwner, \r\n                            _iigOwner,\r\n                            _identityCard,\r\n                            _requestDate);\r\n    }\r\n\r\n    // Chc nng ly danh sch yu cu chng ch IIG\r\n    function getListIIGRequest(address _iigOwner) public view returns(\r\n        bytes32[] memory,\r\n        address[] memory, \r\n        address[] memory, \r\n        string[] memory,\r\n        string[] memory,\r\n        string[] memory) {\r\n            return listIIG.getListRequest(_iigOwner);\r\n    }\r\n\r\n    // Chc nng ly danh sch yu cu chng ch IIG theo sinh vin\r\n    function getListIIGRequestStudent(address _iigOwner, address _studentOwner) public view returns(\r\n        bytes32[] memory,\r\n        address[] memory, \r\n        address[] memory,\r\n        string[] memory,\r\n        string[] memory,\r\n        string[] memory) {\r\n            return listIIG.getListRequestStudent(_iigOwner, _studentOwner);\r\n    }\r\n\r\n    //Chc nng duyt yu cu chng ch IIG\r\n    function confirmIIGRequest(\r\n        address _studentOwner, \r\n        address _iigOwner, \r\n        bytes32 _codeRequest) public {\r\n            listIIG.confirmRequest(_studentOwner,\r\n                                    _iigOwner,\r\n                                    _codeRequest);\r\n    }\r\n\r\n    //Chc nng t chi yu cu chng ch IIG\r\n    function declineIIGRequest(\r\n        address _studentOwner, \r\n        address _iigOwner, \r\n        bytes32 _codeRequest) public {\r\n            listIIG.declineRequest(_studentOwner,\r\n                                    _iigOwner,\r\n                                    _codeRequest);\r\n    }\r\n\r\n    // Chc nng nhp thng tin im thi Listening - Reading\r\n    function addIIGLRResult (\r\n        address _iigOwner,\r\n        address _studentOwner,\r\n        string memory _testDate,\r\n        string memory _shiftTest,\r\n        string memory _expireDate,\r\n        uint _listeningScore,\r\n        uint _readingScore) public {\r\n            listIIG.addLRResult(_iigOwner, \r\n                                _studentOwner, \r\n                                _testDate,\r\n                                _shiftTest, \r\n                                _expireDate, \r\n                                _listeningScore, \r\n                                _readingScore);\r\n    }\r\n\r\n    // Chc nng nhp thng tin im thi Speaking - Writing\r\n    function addIIGSWResult (\r\n        address _iigOwner,\r\n        address _studentOwner,\r\n        string memory _testDate,\r\n        string memory _shiftTest,\r\n        string memory _expireDate,\r\n        uint _speakingScore,\r\n        uint _writingScore) public {\r\n            listIIG.addSWResult(_iigOwner, \r\n                                _studentOwner, \r\n                                _testDate,\r\n                                _shiftTest,\r\n                                _expireDate, \r\n                                _speakingScore, \r\n                                _writingScore);\r\n    }\r\n\r\n    //Chc nng ly thng tin im thi Listening - Reading\r\n    function getListIIGLRResult(address _iigOwner, address _studentOwner) public view returns(\r\n        string[] memory,\r\n        string[] memory,\r\n        string[] memory,\r\n        uint[] memory,\r\n        uint[] memory,\r\n        uint[] memory) {\r\n            return listIIG.getListLRResult(_iigOwner, _studentOwner);\r\n    }\r\n\r\n    //Chc nng ly thng tin im thi Speaking - Writing\r\n    function getListIIGSWResult(address _iigOwner, address _studentOwner) public view returns(\r\n        string[] memory,\r\n        string[] memory,\r\n        string[] memory,\r\n        uint[] memory,\r\n        uint[] memory,\r\n        uint[] memory) {\r\n            return listIIG.getListSWResult(_iigOwner, _studentOwner);\r\n    }\r\n\r\n    // Chc nng ly im thi Listening - Reading ca sinh vin\r\n    function getIIGLRResult(\r\n        address _iigOwner, \r\n        address _studentOwner,\r\n        string memory _testDate,\r\n        string memory _shiftTest) public view returns(\r\n            string memory testDate,\r\n            string memory shiftTest,\r\n            string memory expireDate,\r\n            uint listeningScore,\r\n            uint readingScore,\r\n            uint totalScore) {\r\n                return listIIG.getLRResult(_iigOwner,\r\n                                            _studentOwner,\r\n                                            _testDate,\r\n                                            _shiftTest);\r\n    }\r\n\r\n    // Chc nng ly im thi Speaking - Writing ca sinh vin\r\n    function getIIGSWResult(\r\n        address _iigOwner, \r\n        address _studentOwner,\r\n        string memory _testDate,\r\n        string memory _shiftTest) public view returns(\r\n            string memory testDate,\r\n            string memory shiftTest,\r\n            string memory expireDate,\r\n            uint speakingScore,\r\n            uint writingScore,\r\n            uint totalScore) {\r\n                return listIIG.getSWResult(_iigOwner,\r\n                                            _studentOwner,\r\n                                            _testDate,\r\n                                            _shiftTest);\r\n    }\r\n\r\n    // Chc nng kim tra kt qu ngy thi Listening - Reading ca sinh vin  tn ti hay cha?\r\n    function checkExistIIGLRResult(\r\n        address _studentOwner,\r\n        string memory _testDate,\r\n        string memory _shiftTest) public view returns(uint x) {\r\n            return listIIG.checkExistLRResult(_studentOwner, \r\n                                            _testDate, \r\n                                            _shiftTest);\r\n    }\r\n\r\n    // Chc nng kim tra kt qu ngy thi Speaking - Writing ca sinh vin  tn ti hay cha?\r\n    function checkExistIIGSWResult(\r\n        address _studentOwner,\r\n        string memory _testDate,\r\n        string memory _shiftTest) public view returns(uint x) {\r\n            return listIIG.checkExistSWResult(_studentOwner, \r\n                                            _testDate, \r\n                                            _shiftTest);\r\n    }\r\n}",
  "sourcePath": "C:\\Users\\19520\\Documents\\NCKH_Blockchain\\SolidityProgramming\\ProjectResearch\\SmartCV\\SmartContract\\contracts\\SmartCV_StudentBusiness.sol",
  "compiler": {
    "name": "solc",
    "version": "0.8.11+commit.d7f03943.Emscripten.clang"
  },
  "schemaVersion": "3.4.4",
  "updatedAt": "2022-07-28T14:56:24.477Z",
  "devdoc": {
    "kind": "dev",
    "methods": {},
    "version": 1
  },
  "userdoc": {
    "kind": "user",
    "methods": {},
    "version": 1
  }
}