{
  "contractName": "StudentBusiness",
  "abi": [
    {
      "inputs": [
        {
          "internalType": "address",
          "name": "_studentOwner",
          "type": "address"
        },
        {
          "internalType": "string",
          "name": "_name",
          "type": "string"
        },
        {
          "internalType": "string",
          "name": "_birthDay",
          "type": "string"
        },
        {
          "internalType": "string",
          "name": "_professionalTitle",
          "type": "string"
        },
        {
          "internalType": "string",
          "name": "_email",
          "type": "string"
        },
        {
          "internalType": "string",
          "name": "_github",
          "type": "string"
        },
        {
          "internalType": "string",
          "name": "_linkedin",
          "type": "string"
        },
        {
          "internalType": "string",
          "name": "_password",
          "type": "string"
        }
      ],
      "name": "addStudentProfile",
      "outputs": [],
      "stateMutability": "nonpayable",
      "type": "function"
    },
    {
      "inputs": [
        {
          "internalType": "address",
          "name": "_studentOwner",
          "type": "address"
        }
      ],
      "name": "getStudentProfile",
      "outputs": [
        {
          "internalType": "address",
          "name": "studentOwner",
          "type": "address"
        },
        {
          "internalType": "string",
          "name": "name",
          "type": "string"
        },
        {
          "internalType": "string",
          "name": "birthDay",
          "type": "string"
        },
        {
          "internalType": "string",
          "name": "professionalTitle",
          "type": "string"
        },
        {
          "internalType": "string",
          "name": "email",
          "type": "string"
        },
        {
          "internalType": "string",
          "name": "github",
          "type": "string"
        },
        {
          "internalType": "string",
          "name": "linkedin",
          "type": "string"
        },
        {
          "internalType": "string",
          "name": "password",
          "type": "string"
        }
      ],
      "stateMutability": "view",
      "type": "function"
    },
    {
      "inputs": [
        {
          "internalType": "address",
          "name": "_studentOwner",
          "type": "address"
        },
        {
          "internalType": "string",
          "name": "_password",
          "type": "string"
        }
      ],
      "name": "checkStudentProfile",
      "outputs": [
        {
          "internalType": "uint256",
          "name": "x",
          "type": "uint256"
        }
      ],
      "stateMutability": "view",
      "type": "function"
    },
    {
      "inputs": [
        {
          "internalType": "address",
          "name": "_studentOwner",
          "type": "address"
        }
      ],
      "name": "checkExistStudent",
      "outputs": [
        {
          "internalType": "uint256",
          "name": "x",
          "type": "uint256"
        }
      ],
      "stateMutability": "view",
      "type": "function"
    },
    {
      "inputs": [
        {
          "internalType": "address",
          "name": "_studentOwner",
          "type": "address"
        },
        {
          "internalType": "string",
          "name": "_title",
          "type": "string"
        },
        {
          "internalType": "uint256",
          "name": "_level",
          "type": "uint256"
        }
      ],
      "name": "addStudentSkill",
      "outputs": [],
      "stateMutability": "nonpayable",
      "type": "function"
    },
    {
      "inputs": [
        {
          "internalType": "address",
          "name": "_studentOwner",
          "type": "address"
        },
        {
          "internalType": "string",
          "name": "_title",
          "type": "string"
        }
      ],
      "name": "checkStudentSkill",
      "outputs": [
        {
          "internalType": "uint256",
          "name": "x",
          "type": "uint256"
        }
      ],
      "stateMutability": "view",
      "type": "function"
    },
    {
      "inputs": [
        {
          "internalType": "address",
          "name": "_studentOwner",
          "type": "address"
        }
      ],
      "name": "checkNumStudentSkill",
      "outputs": [
        {
          "internalType": "uint256",
          "name": "x",
          "type": "uint256"
        }
      ],
      "stateMutability": "view",
      "type": "function"
    },
    {
      "inputs": [
        {
          "internalType": "address",
          "name": "_studentOwner",
          "type": "address"
        }
      ],
      "name": "getStudentSkill",
      "outputs": [
        {
          "internalType": "string[]",
          "name": "titles",
          "type": "string[]"
        },
        {
          "internalType": "uint256[]",
          "name": "levels",
          "type": "uint256[]"
        }
      ],
      "stateMutability": "view",
      "type": "function"
    },
    {
      "inputs": [],
      "name": "getListBusiness",
      "outputs": [
        {
          "internalType": "address[]",
          "name": "",
          "type": "address[]"
        },
        {
          "internalType": "string[]",
          "name": "",
          "type": "string[]"
        },
        {
          "internalType": "string[]",
          "name": "",
          "type": "string[]"
        },
        {
          "internalType": "string[]",
          "name": "",
          "type": "string[]"
        },
        {
          "internalType": "string[]",
          "name": "",
          "type": "string[]"
        },
        {
          "internalType": "string[]",
          "name": "",
          "type": "string[]"
        },
        {
          "internalType": "string[]",
          "name": "",
          "type": "string[]"
        },
        {
          "internalType": "string[]",
          "name": "",
          "type": "string[]"
        }
      ],
      "stateMutability": "view",
      "type": "function"
    },
    {
      "inputs": [
        {
          "internalType": "address",
          "name": "_businessOwner",
          "type": "address"
        }
      ],
      "name": "getRecruit",
      "outputs": [
        {
          "internalType": "string[]",
          "name": "",
          "type": "string[]"
        },
        {
          "internalType": "string[]",
          "name": "",
          "type": "string[]"
        }
      ],
      "stateMutability": "view",
      "type": "function"
    },
    {
      "inputs": [
        {
          "internalType": "address",
          "name": "_studentOwner",
          "type": "address"
        },
        {
          "internalType": "address",
          "name": "_businessOwner",
          "type": "address"
        },
        {
          "internalType": "string",
          "name": "_jobTitle",
          "type": "string"
        },
        {
          "internalType": "string",
          "name": "_coverLetter",
          "type": "string"
        }
      ],
      "name": "sendCV",
      "outputs": [],
      "stateMutability": "nonpayable",
      "type": "function"
    },
    {
      "inputs": [
        {
          "internalType": "address",
          "name": "_studentOwner",
          "type": "address"
        },
        {
          "internalType": "address",
          "name": "_businessOwner",
          "type": "address"
        },
        {
          "internalType": "string",
          "name": "_jobTitle",
          "type": "string"
        }
      ],
      "name": "checkCV",
      "outputs": [
        {
          "internalType": "uint256",
          "name": "x",
          "type": "uint256"
        }
      ],
      "stateMutability": "view",
      "type": "function"
    },
    {
      "inputs": [
        {
          "internalType": "address",
          "name": "_studentOwner",
          "type": "address"
        },
        {
          "internalType": "address",
          "name": "_businessOwner",
          "type": "address"
        }
      ],
      "name": "getReview",
      "outputs": [
        {
          "internalType": "address",
          "name": "studentOwner",
          "type": "address"
        },
        {
          "internalType": "address",
          "name": "businessOwner",
          "type": "address"
        },
        {
          "internalType": "string",
          "name": "content",
          "type": "string"
        }
      ],
      "stateMutability": "view",
      "type": "function"
    },
    {
      "inputs": [
        {
          "internalType": "address",
          "name": "_businessOwner",
          "type": "address"
        },
        {
          "internalType": "string",
          "name": "_name",
          "type": "string"
        },
        {
          "internalType": "string",
          "name": "_country",
          "type": "string"
        },
        {
          "internalType": "string",
          "name": "_facebook",
          "type": "string"
        },
        {
          "internalType": "string",
          "name": "_website",
          "type": "string"
        },
        {
          "internalType": "string",
          "name": "_linkedin",
          "type": "string"
        },
        {
          "internalType": "string",
          "name": "_focusArea",
          "type": "string"
        },
        {
          "internalType": "string",
          "name": "_password",
          "type": "string"
        }
      ],
      "name": "addBusinessProfile",
      "outputs": [],
      "stateMutability": "nonpayable",
      "type": "function"
    },
    {
      "inputs": [
        {
          "internalType": "address",
          "name": "_businessOwner",
          "type": "address"
        }
      ],
      "name": "getBusinessProfile",
      "outputs": [
        {
          "internalType": "address",
          "name": "businessOwner",
          "type": "address"
        },
        {
          "internalType": "string",
          "name": "name",
          "type": "string"
        },
        {
          "internalType": "string",
          "name": "country",
          "type": "string"
        },
        {
          "internalType": "string",
          "name": "facebook",
          "type": "string"
        },
        {
          "internalType": "string",
          "name": "website",
          "type": "string"
        },
        {
          "internalType": "string",
          "name": "linkedin",
          "type": "string"
        },
        {
          "internalType": "string",
          "name": "focusArea",
          "type": "string"
        }
      ],
      "stateMutability": "view",
      "type": "function"
    },
    {
      "inputs": [
        {
          "internalType": "address",
          "name": "_businessOwner",
          "type": "address"
        },
        {
          "internalType": "string",
          "name": "_password",
          "type": "string"
        }
      ],
      "name": "checkBusinessProfile",
      "outputs": [
        {
          "internalType": "uint256",
          "name": "",
          "type": "uint256"
        }
      ],
      "stateMutability": "view",
      "type": "function"
    },
    {
      "inputs": [
        {
          "internalType": "address",
          "name": "_businessOwner",
          "type": "address"
        }
      ],
      "name": "checkExistBusiness",
      "outputs": [
        {
          "internalType": "uint256",
          "name": "x",
          "type": "uint256"
        }
      ],
      "stateMutability": "view",
      "type": "function"
    },
    {
      "inputs": [
        {
          "internalType": "address",
          "name": "_businessOwner",
          "type": "address"
        }
      ],
      "name": "getListCV",
      "outputs": [
        {
          "internalType": "address[]",
          "name": "",
          "type": "address[]"
        },
        {
          "internalType": "address[]",
          "name": "",
          "type": "address[]"
        },
        {
          "internalType": "string[]",
          "name": "",
          "type": "string[]"
        },
        {
          "internalType": "string[]",
          "name": "",
          "type": "string[]"
        },
        {
          "internalType": "string[]",
          "name": "",
          "type": "string[]"
        }
      ],
      "stateMutability": "view",
      "type": "function"
    },
    {
      "inputs": [
        {
          "internalType": "address",
          "name": "_studentOwner",
          "type": "address"
        },
        {
          "internalType": "address",
          "name": "_businessOwner",
          "type": "address"
        },
        {
          "internalType": "string",
          "name": "_jobTitle",
          "type": "string"
        },
        {
          "internalType": "string",
          "name": "_statusCV",
          "type": "string"
        }
      ],
      "name": "interviewCV",
      "outputs": [],
      "stateMutability": "nonpayable",
      "type": "function"
    },
    {
      "inputs": [
        {
          "internalType": "address",
          "name": "_studentOwner",
          "type": "address"
        },
        {
          "internalType": "address",
          "name": "_businessOwner",
          "type": "address"
        },
        {
          "internalType": "string",
          "name": "_jobTitle",
          "type": "string"
        },
        {
          "internalType": "string",
          "name": "_statusCV",
          "type": "string"
        }
      ],
      "name": "onboardCV",
      "outputs": [],
      "stateMutability": "nonpayable",
      "type": "function"
    },
    {
      "inputs": [
        {
          "internalType": "address",
          "name": "_businessOwner",
          "type": "address"
        },
        {
          "internalType": "string",
          "name": "_jobTitle",
          "type": "string"
        },
        {
          "internalType": "string",
          "name": "_jobDescription",
          "type": "string"
        }
      ],
      "name": "addRecruit",
      "outputs": [],
      "stateMutability": "nonpayable",
      "type": "function"
    },
    {
      "inputs": [
        {
          "internalType": "address",
          "name": "_studentOwner",
          "type": "address"
        },
        {
          "internalType": "address",
          "name": "_businessOwner",
          "type": "address"
        },
        {
          "internalType": "string",
          "name": "_content",
          "type": "string"
        }
      ],
      "name": "sendReview",
      "outputs": [],
      "stateMutability": "nonpayable",
      "type": "function"
    },
    {
      "inputs": [
        {
          "internalType": "address",
          "name": "_iigOwner",
          "type": "address"
        },
        {
          "internalType": "string",
          "name": "_name",
          "type": "string"
        },
        {
          "internalType": "string",
          "name": "_country",
          "type": "string"
        },
        {
          "internalType": "string",
          "name": "_facebook",
          "type": "string"
        },
        {
          "internalType": "string",
          "name": "_website",
          "type": "string"
        },
        {
          "internalType": "string",
          "name": "_linkedin",
          "type": "string"
        },
        {
          "internalType": "string",
          "name": "_password",
          "type": "string"
        }
      ],
      "name": "addIIGProfile",
      "outputs": [],
      "stateMutability": "nonpayable",
      "type": "function"
    },
    {
      "inputs": [
        {
          "internalType": "address",
          "name": "_iigOwner",
          "type": "address"
        }
      ],
      "name": "getIIGProfile",
      "outputs": [
        {
          "internalType": "address",
          "name": "iigOwner",
          "type": "address"
        },
        {
          "internalType": "string",
          "name": "name",
          "type": "string"
        },
        {
          "internalType": "string",
          "name": "country",
          "type": "string"
        },
        {
          "internalType": "string",
          "name": "facebook",
          "type": "string"
        },
        {
          "internalType": "string",
          "name": "website",
          "type": "string"
        },
        {
          "internalType": "string",
          "name": "linkedin",
          "type": "string"
        }
      ],
      "stateMutability": "view",
      "type": "function"
    },
    {
      "inputs": [
        {
          "internalType": "address",
          "name": "_iigOwner",
          "type": "address"
        },
        {
          "internalType": "string",
          "name": "_password",
          "type": "string"
        }
      ],
      "name": "checkIIGProfile",
      "outputs": [
        {
          "internalType": "uint256",
          "name": "",
          "type": "uint256"
        }
      ],
      "stateMutability": "view",
      "type": "function"
    },
    {
      "inputs": [
        {
          "internalType": "address",
          "name": "_iigOwner",
          "type": "address"
        }
      ],
      "name": "checkExistIIG",
      "outputs": [
        {
          "internalType": "uint256",
          "name": "x",
          "type": "uint256"
        }
      ],
      "stateMutability": "view",
      "type": "function"
    },
    {
      "inputs": [
        {
          "internalType": "address",
          "name": "_iigOwner",
          "type": "address"
        },
        {
          "internalType": "address",
          "name": "_studentOwner",
          "type": "address"
        },
        {
          "internalType": "string",
          "name": "_testDate",
          "type": "string"
        },
        {
          "internalType": "uint256",
          "name": "_listeningScore",
          "type": "uint256"
        },
        {
          "internalType": "uint256",
          "name": "_readingScore",
          "type": "uint256"
        }
      ],
      "name": "addIIGLRResult",
      "outputs": [],
      "stateMutability": "nonpayable",
      "type": "function"
    },
    {
      "inputs": [
        {
          "internalType": "address",
          "name": "_iigOwner",
          "type": "address"
        },
        {
          "internalType": "address",
          "name": "_studentOwner",
          "type": "address"
        },
        {
          "internalType": "string",
          "name": "_testDate",
          "type": "string"
        },
        {
          "internalType": "uint256",
          "name": "_speakingScore",
          "type": "uint256"
        },
        {
          "internalType": "uint256",
          "name": "_writingScore",
          "type": "uint256"
        }
      ],
      "name": "addIIGSWResult",
      "outputs": [],
      "stateMutability": "nonpayable",
      "type": "function"
    },
    {
      "inputs": [
        {
          "internalType": "address",
          "name": "_studentOwner",
          "type": "address"
        }
      ],
      "name": "getIIGRCResult",
      "outputs": [
        {
          "internalType": "address",
          "name": "studentOwners",
          "type": "address"
        },
        {
          "internalType": "uint256",
          "name": "maxScore",
          "type": "uint256"
        }
      ],
      "stateMutability": "view",
      "type": "function"
    },
    {
      "inputs": [
        {
          "internalType": "address",
          "name": "_studentOwner",
          "type": "address"
        }
      ],
      "name": "getIIGSWResult",
      "outputs": [
        {
          "internalType": "address",
          "name": "studentOwners",
          "type": "address"
        },
        {
          "internalType": "uint256",
          "name": "maxScore",
          "type": "uint256"
        }
      ],
      "stateMutability": "view",
      "type": "function"
    },
    {
      "inputs": [
        {
          "internalType": "address",
          "name": "_studentOwner",
          "type": "address"
        },
        {
          "internalType": "string",
          "name": "_testDate",
          "type": "string"
        }
      ],
      "name": "checkExistIIGLRResult",
      "outputs": [
        {
          "internalType": "uint256",
          "name": "x",
          "type": "uint256"
        }
      ],
      "stateMutability": "view",
      "type": "function"
    },
    {
      "inputs": [
        {
          "internalType": "address",
          "name": "_studentOwner",
          "type": "address"
        },
        {
          "internalType": "string",
          "name": "_testDate",
          "type": "string"
        }
      ],
      "name": "checkExistIIGSWResult",
      "outputs": [
        {
          "internalType": "uint256",
          "name": "x",
          "type": "uint256"
        }
      ],
      "stateMutability": "view",
      "type": "function"
    }
  ],
  "bytecode": "0x60806040526040516200001290620001c7565b604051809103906000f0801580156200002f573d6000803e3d6000fd5b506000806101000a81548173ffffffffffffffffffffffffffffffffffffffff021916908373ffffffffffffffffffffffffffffffffffffffff1602179055506040516200007d90620001d5565b604051809103906000f0801580156200009a573d6000803e3d6000fd5b50600160006101000a81548173ffffffffffffffffffffffffffffffffffffffff021916908373ffffffffffffffffffffffffffffffffffffffff160217905550604051620000e990620001e3565b604051809103906000f08015801562000106573d6000803e3d6000fd5b50600260006101000a81548173ffffffffffffffffffffffffffffffffffffffff021916908373ffffffffffffffffffffffffffffffffffffffff1602179055506040516200015590620001f1565b604051809103906000f08015801562000172573d6000803e3d6000fd5b50600360006101000a81548173ffffffffffffffffffffffffffffffffffffffff021916908373ffffffffffffffffffffffffffffffffffffffff160217905550348015620001c057600080fd5b50620001ff565b612c7a8062003a9983390190565b6122ac806200671383390190565b613d3080620089bf83390190565b6125e9806200c6ef83390190565b61388a806200020f6000396000f3fe608060405234801561001057600080fd5b50600436106101ef5760003560e01c80636b4dbb281161010f578063b567c104116100a2578063e283272111610071578063e283272114610688578063e2f43af2146106a4578063e9daa70a146106c0578063fe761783146106f2576101ef565b8063b567c104146105ea578063ce1ec5bb14610606578063cee5c7f314610637578063d2f9858f14610653576101ef565b8063873dcd29116100de578063873dcd291461053a57806391b9e6db1461056a5780639cd3258214610586578063acf6f3fd146105ba576101ef565b80636b4dbb28146104a05780636d53448f146104d15780637e758029146104ed578063844bb4601461051e576101ef565b806335c77f85116101875780634585864a116101565780634585864a146103fe57806357824f161461042f5780635b288a9314610454578063665607c714610470576101ef565b806335c77f851461033857806339d92c4c1461036857806342f08d4b1461039857806344fd6e22146103ce576101ef565b806311345a20116101c357806311345a20146102a0578063132e3499146102d05780631632dd98146102ec5780632df96bfc14610308576101ef565b80624e56cf146101f45780630299779f14610210578063055819a5146102405780630ac68f3714610270575b600080fd5b61020e60048036038101906102099190611dec565b610729565b005b61022a60048036038101906102259190611e8b565b6107c1565b6040516102379190611f13565b60405180910390f35b61025a60048036038101906102559190611f2e565b61086c565b6040516102679190611f13565b60405180910390f35b61028a60048036038101906102859190611f2e565b610914565b6040516102979190611f13565b60405180910390f35b6102ba60048036038101906102b59190611f8a565b6109bb565b6040516102c79190611f13565b60405180910390f35b6102ea60048036038101906102e59190611fe3565b610a5f565b005b61030660048036038101906103019190611e8b565b610afb565b005b610322600480360381019061031d9190611f8a565b610b91565b60405161032f9190611f13565b60405180910390f35b610352600480360381019061034d9190611f2e565b610c4a565b60405161035f9190611f13565b60405180910390f35b610382600480360381019061037d9190611f8a565b610cf2565b60405161038f9190611f13565b60405180910390f35b6103b260048036038101906103ad9190611f8a565b610d97565b6040516103c59796959493929190612111565b60405180910390f35b6103e860048036038101906103e39190611f8a565b610e5c565b6040516103f59190611f13565b60405180910390f35b61041860048036038101906104139190611f8a565b610f01565b6040516104269291906121aa565b60405180910390f35b610437610fa8565b60405161044b98979695949392919061239d565b60405180910390f35b61046e60048036038101906104699190612453565b611064565b005b61048a60048036038101906104859190611f2e565b611107565b6040516104979190611f13565b60405180910390f35b6104ba60048036038101906104b59190611f8a565b6111af565b6040516104c892919061268b565b60405180910390f35b6104eb60048036038101906104e69190612453565b61125a565b005b61050760048036038101906105029190611f8a565b6112ff565b6040516105159291906121aa565b60405180910390f35b61053860048036038101906105339190611dec565b6113a6565b005b610554600480360381019061054f9190611f2e565b61143f565b6040516105619190611f13565b60405180910390f35b610584600480360381019061057f9190611dec565b6114e7565b005b6105a0600480360381019061059b9190611f8a565b611580565b6040516105b19594939291906126c2565b60405180910390f35b6105d460048036038101906105cf9190611f2e565b61163c565b6040516105e19190611f13565b60405180910390f35b61060460048036038101906105ff9190611fe3565b6116e3565b005b610620600480360381019061061b9190611f8a565b61177f565b60405161062e929190612738565b60405180910390f35b610651600480360381019061064c919061276f565b61182c565b005b61066d60048036038101906106689190611f8a565b6118c2565b60405161067f969594939291906127fa565b60405180910390f35b6106a2600480360381019061069d919061287e565b611982565b005b6106be60048036038101906106b991906129c8565b611a24565b005b6106da60048036038101906106d59190612a37565b611ab8565b6040516106e993929190612a77565b60405180910390f35b61070c60048036038101906107079190611f8a565b611b6d565b604051610720989796959493929190612ab5565b60405180910390f35b600360009054906101000a900473ffffffffffffffffffffffffffffffffffffffff1673ffffffffffffffffffffffffffffffffffffffff16624e56cf858585856040518563ffffffff1660e01b81526004016107899493929190612b64565b600060405180830381600087803b1580156107a357600080fd5b505af11580156107b7573d6000803e3d6000fd5b5050505050505050565b6000600360009054906101000a900473ffffffffffffffffffffffffffffffffffffffff1673ffffffffffffffffffffffffffffffffffffffff16630299779f8585856040518463ffffffff1660e01b815260040161082293929190612a77565b602060405180830381865afa15801561083f573d6000803e3d6000fd5b505050506040513d601f19601f820116820180604052508101906108639190612bcc565b90509392505050565b6000600260009054906101000a900473ffffffffffffffffffffffffffffffffffffffff1673ffffffffffffffffffffffffffffffffffffffff1663e9dfbf6f84846040518363ffffffff1660e01b81526004016108cb929190612bf9565b602060405180830381865afa1580156108e8573d6000803e3d6000fd5b505050506040513d601f19601f8201168201806040525081019061090c9190612bcc565b905092915050565b60008060009054906101000a900473ffffffffffffffffffffffffffffffffffffffff1673ffffffffffffffffffffffffffffffffffffffff1663716b5ab484846040518363ffffffff1660e01b8152600401610972929190612bf9565b602060405180830381865afa15801561098f573d6000803e3d6000fd5b505050506040513d601f19601f820116820180604052508101906109b39190612bcc565b905092915050565b60008060009054906101000a900473ffffffffffffffffffffffffffffffffffffffff1673ffffffffffffffffffffffffffffffffffffffff1663961ecb5b836040518263ffffffff1660e01b8152600401610a179190612c29565b602060405180830381865afa158015610a34573d6000803e3d6000fd5b505050506040513d601f19601f82011682018060405250810190610a589190612bcc565b9050919050565b600260009054906101000a900473ffffffffffffffffffffffffffffffffffffffff1673ffffffffffffffffffffffffffffffffffffffff1663d767573e86868686866040518663ffffffff1660e01b8152600401610ac2959493929190612c44565b600060405180830381600087803b158015610adc57600080fd5b505af1158015610af0573d6000803e3d6000fd5b505050505050505050565b600360009054906101000a900473ffffffffffffffffffffffffffffffffffffffff1673ffffffffffffffffffffffffffffffffffffffff1663ae8f00d38484846040518463ffffffff1660e01b8152600401610b5a93929190612a77565b600060405180830381600087803b158015610b7457600080fd5b505af1158015610b88573d6000803e3d6000fd5b50505050505050565b60008060008054906101000a900473ffffffffffffffffffffffffffffffffffffffff1673ffffffffffffffffffffffffffffffffffffffff16638e891393846040518263ffffffff1660e01b8152600401610bed9190612c29565b602060405180830381865afa158015610c0a573d6000803e3d6000fd5b505050506040513d601f19601f82011682018060405250810190610c2e9190612bcc565b9050600a811115610c43576001915050610c45565b505b919050565b6000600160009054906101000a900473ffffffffffffffffffffffffffffffffffffffff1673ffffffffffffffffffffffffffffffffffffffff1663a7dba18484846040518363ffffffff1660e01b8152600401610ca9929190612bf9565b602060405180830381865afa158015610cc6573d6000803e3d6000fd5b505050506040513d601f19601f82011682018060405250810190610cea9190612bcc565b905092915050565b6000600160009054906101000a900473ffffffffffffffffffffffffffffffffffffffff1673ffffffffffffffffffffffffffffffffffffffff1663c6fe410a836040518263ffffffff1660e01b8152600401610d4f9190612c29565b602060405180830381865afa158015610d6c573d6000803e3d6000fd5b505050506040513d601f19601f82011682018060405250810190610d909190612bcc565b9050919050565b6000606080606080606080600160009054906101000a900473ffffffffffffffffffffffffffffffffffffffff1673ffffffffffffffffffffffffffffffffffffffff16630f53a470896040518263ffffffff1660e01b8152600401610dfd9190612c29565b600060405180830381865afa158015610e1a573d6000803e3d6000fd5b505050506040513d6000823e3d601f19601f82011682018060405250810190610e439190612d23565b9650965096509650965096509650919395979092949650565b6000600260009054906101000a900473ffffffffffffffffffffffffffffffffffffffff1673ffffffffffffffffffffffffffffffffffffffff166344fd6e22836040518263ffffffff1660e01b8152600401610eb99190612c29565b602060405180830381865afa158015610ed6573d6000803e3d6000fd5b505050506040513d601f19601f82011682018060405250810190610efa9190612bcc565b9050919050565b600080600260009054906101000a900473ffffffffffffffffffffffffffffffffffffffff1673ffffffffffffffffffffffffffffffffffffffff16639e8aee6e846040518263ffffffff1660e01b8152600401610f5f9190612c29565b6040805180830381865afa158015610f7b573d6000803e3d6000fd5b505050506040513d601f19601f82011682018060405250810190610f9f9190612e6d565b91509150915091565b606080606080606080606080600160009054906101000a900473ffffffffffffffffffffffffffffffffffffffff1673ffffffffffffffffffffffffffffffffffffffff1663cfafbc0c6040518163ffffffff1660e01b8152600401600060405180830381865afa158015611021573d6000803e3d6000fd5b505050506040513d6000823e3d601f19601f8201168201806040525081019061104a9190613056565b975097509750975097509750975097509091929394959697565b60008054906101000a900473ffffffffffffffffffffffffffffffffffffffff1673ffffffffffffffffffffffffffffffffffffffff16639fea8e1089898989898989896040518963ffffffff1660e01b81526004016110cb989796959493929190612ab5565b600060405180830381600087803b1580156110e557600080fd5b505af11580156110f9573d6000803e3d6000fd5b505050505050505050505050565b6000600260009054906101000a900473ffffffffffffffffffffffffffffffffffffffff1673ffffffffffffffffffffffffffffffffffffffff1663ea10ada084846040518363ffffffff1660e01b8152600401611166929190612bf9565b602060405180830381865afa158015611183573d6000803e3d6000fd5b505050506040513d601f19601f820116820180604052508101906111a79190612bcc565b905092915050565b60608060008054906101000a900473ffffffffffffffffffffffffffffffffffffffff1673ffffffffffffffffffffffffffffffffffffffff1663ac4b2049846040518263ffffffff1660e01b815260040161120b9190612c29565b600060405180830381865afa158015611228573d6000803e3d6000fd5b505050506040513d6000823e3d601f19601f8201168201806040525081019061125191906132af565b91509150915091565b600160009054906101000a900473ffffffffffffffffffffffffffffffffffffffff1673ffffffffffffffffffffffffffffffffffffffff1663e045b71089898989898989896040518963ffffffff1660e01b81526004016112c3989796959493929190612ab5565b600060405180830381600087803b1580156112dd57600080fd5b505af11580156112f1573d6000803e3d6000fd5b505050505050505050505050565b600080600260009054906101000a900473ffffffffffffffffffffffffffffffffffffffff1673ffffffffffffffffffffffffffffffffffffffff1663d18db3f2846040518263ffffffff1660e01b815260040161135d9190612c29565b6040805180830381865afa158015611379573d6000803e3d6000fd5b505050506040513d601f19601f8201168201806040525081019061139d9190612e6d565b91509150915091565b600360009054906101000a900473ffffffffffffffffffffffffffffffffffffffff1673ffffffffffffffffffffffffffffffffffffffff1663844bb460858585856040518563ffffffff1660e01b81526004016114079493929190612b64565b600060405180830381600087803b15801561142157600080fd5b505af1158015611435573d6000803e3d6000fd5b5050505050505050565b6000600260009054906101000a900473ffffffffffffffffffffffffffffffffffffffff1673ffffffffffffffffffffffffffffffffffffffff166324e6603784846040518363ffffffff1660e01b815260040161149e929190612bf9565b602060405180830381865afa1580156114bb573d6000803e3d6000fd5b505050506040513d601f19601f820116820180604052508101906114df9190612bcc565b905092915050565b600360009054906101000a900473ffffffffffffffffffffffffffffffffffffffff1673ffffffffffffffffffffffffffffffffffffffff1663dc1e475f858585856040518563ffffffff1660e01b81526004016115489493929190612b64565b600060405180830381600087803b15801561156257600080fd5b505af1158015611576573d6000803e3d6000fd5b5050505050505050565b6060806060806060600360009054906101000a900473ffffffffffffffffffffffffffffffffffffffff1673ffffffffffffffffffffffffffffffffffffffff1663381a3bf7876040518263ffffffff1660e01b81526004016115e39190612c29565b600060405180830381865afa158015611600573d6000803e3d6000fd5b505050506040513d6000823e3d601f19601f820116820180604052508101906116299190613327565b9450945094509450945091939590929450565b60008060009054906101000a900473ffffffffffffffffffffffffffffffffffffffff1673ffffffffffffffffffffffffffffffffffffffff1663174ceeab84846040518363ffffffff1660e01b815260040161169a929190612bf9565b602060405180830381865afa1580156116b7573d6000803e3d6000fd5b505050506040513d601f19601f820116820180604052508101906116db9190612bcc565b905092915050565b600260009054906101000a900473ffffffffffffffffffffffffffffffffffffffff1673ffffffffffffffffffffffffffffffffffffffff16631ababd2986868686866040518663ffffffff1660e01b8152600401611746959493929190612c44565b600060405180830381600087803b15801561176057600080fd5b505af1158015611774573d6000803e3d6000fd5b505050505050505050565b606080600360009054906101000a900473ffffffffffffffffffffffffffffffffffffffff1673ffffffffffffffffffffffffffffffffffffffff1663ce1ec5bb846040518263ffffffff1660e01b81526004016117dd9190612c29565b600060405180830381865afa1580156117fa573d6000803e3d6000fd5b505050506040513d6000823e3d601f19601f82011682018060405250810190611823919061342e565b91509150915091565b600360009054906101000a900473ffffffffffffffffffffffffffffffffffffffff1673ffffffffffffffffffffffffffffffffffffffff1663cee5c7f38484846040518463ffffffff1660e01b815260040161188b939291906134a6565b600060405180830381600087803b1580156118a557600080fd5b505af11580156118b9573d6000803e3d6000fd5b50505050505050565b60006060806060806060600260009054906101000a900473ffffffffffffffffffffffffffffffffffffffff1673ffffffffffffffffffffffffffffffffffffffff16630f53a470886040518263ffffffff1660e01b81526004016119279190612c29565b600060405180830381865afa158015611944573d6000803e3d6000fd5b505050506040513d6000823e3d601f19601f8201168201806040525081019061196d91906134eb565b95509550955095509550955091939550919395565b600260009054906101000a900473ffffffffffffffffffffffffffffffffffffffff1673ffffffffffffffffffffffffffffffffffffffff1663dd8f3edc888888888888886040518863ffffffff1660e01b81526004016119e99796959493929190612111565b600060405180830381600087803b158015611a0357600080fd5b505af1158015611a17573d6000803e3d6000fd5b5050505050505050505050565b60008054906101000a900473ffffffffffffffffffffffffffffffffffffffff1673ffffffffffffffffffffffffffffffffffffffff166360ccb2048484846040518463ffffffff1660e01b8152600401611a8193929190613604565b600060405180830381600087803b158015611a9b57600080fd5b505af1158015611aaf573d6000803e3d6000fd5b50505050505050565b6000806060600360009054906101000a900473ffffffffffffffffffffffffffffffffffffffff1673ffffffffffffffffffffffffffffffffffffffff1663e9daa70a86866040518363ffffffff1660e01b8152600401611b1a929190613642565b600060405180830381865afa158015611b37573d6000803e3d6000fd5b505050506040513d6000823e3d601f19601f82011682018060405250810190611b60919061366b565b9250925092509250925092565b6000606080606080606080606060008054906101000a900473ffffffffffffffffffffffffffffffffffffffff1673ffffffffffffffffffffffffffffffffffffffff16630f53a4708a6040518263ffffffff1660e01b8152600401611bd39190612c29565b600060405180830381865afa158015611bf0573d6000803e3d6000fd5b505050506040513d6000823e3d601f19601f82011682018060405250810190611c1991906136da565b97509750975097509750975097509750919395975091939597565b6000604051905090565b600080fd5b600080fd5b600073ffffffffffffffffffffffffffffffffffffffff82169050919050565b6000611c7382611c48565b9050919050565b611c8381611c68565b8114611c8e57600080fd5b50565b600081359050611ca081611c7a565b92915050565b600080fd5b600080fd5b6000601f19601f8301169050919050565b7f4e487b7100000000000000000000000000000000000000000000000000000000600052604160045260246000fd5b611cf982611cb0565b810181811067ffffffffffffffff82111715611d1857611d17611cc1565b5b80604052505050565b6000611d2b611c34565b9050611d378282611cf0565b919050565b600067ffffffffffffffff821115611d5757611d56611cc1565b5b611d6082611cb0565b9050602081019050919050565b82818337600083830152505050565b6000611d8f611d8a84611d3c565b611d21565b905082815260208101848484011115611dab57611daa611cab565b5b611db6848285611d6d565b509392505050565b600082601f830112611dd357611dd2611ca6565b5b8135611de3848260208601611d7c565b91505092915050565b60008060008060808587031215611e0657611e05611c3e565b5b6000611e1487828801611c91565b9450506020611e2587828801611c91565b935050604085013567ffffffffffffffff811115611e4657611e45611c43565b5b611e5287828801611dbe565b925050606085013567ffffffffffffffff811115611e7357611e72611c43565b5b611e7f87828801611dbe565b91505092959194509250565b600080600060608486031215611ea457611ea3611c3e565b5b6000611eb286828701611c91565b9350506020611ec386828701611c91565b925050604084013567ffffffffffffffff811115611ee457611ee3611c43565b5b611ef086828701611dbe565b9150509250925092565b6000819050919050565b611f0d81611efa565b82525050565b6000602082019050611f286000830184611f04565b92915050565b60008060408385031215611f4557611f44611c3e565b5b6000611f5385828601611c91565b925050602083013567ffffffffffffffff811115611f7457611f73611c43565b5b611f8085828601611dbe565b9150509250929050565b600060208284031215611fa057611f9f611c3e565b5b6000611fae84828501611c91565b91505092915050565b611fc081611efa565b8114611fcb57600080fd5b50565b600081359050611fdd81611fb7565b92915050565b600080600080600060a08688031215611fff57611ffe611c3e565b5b600061200d88828901611c91565b955050602061201e88828901611c91565b945050604086013567ffffffffffffffff81111561203f5761203e611c43565b5b61204b88828901611dbe565b935050606061205c88828901611fce565b925050608061206d88828901611fce565b9150509295509295909350565b61208381611c68565b82525050565b600081519050919050565b600082825260208201905092915050565b60005b838110156120c35780820151818401526020810190506120a8565b838111156120d2576000848401525b50505050565b60006120e382612089565b6120ed8185612094565b93506120fd8185602086016120a5565b61210681611cb0565b840191505092915050565b600060e082019050612126600083018a61207a565b818103602083015261213881896120d8565b9050818103604083015261214c81886120d8565b9050818103606083015261216081876120d8565b9050818103608083015261217481866120d8565b905081810360a083015261218881856120d8565b905081810360c083015261219c81846120d8565b905098975050505050505050565b60006040820190506121bf600083018561207a565b6121cc6020830184611f04565b9392505050565b600081519050919050565b600082825260208201905092915050565b6000819050602082019050919050565b61220881611c68565b82525050565b600061221a83836121ff565b60208301905092915050565b6000602082019050919050565b600061223e826121d3565b61224881856121de565b9350612253836121ef565b8060005b8381101561228457815161226b888261220e565b975061227683612226565b925050600181019050612257565b5085935050505092915050565b600081519050919050565b600082825260208201905092915050565b6000819050602082019050919050565b600082825260208201905092915050565b60006122d982612089565b6122e381856122bd565b93506122f38185602086016120a5565b6122fc81611cb0565b840191505092915050565b600061231383836122ce565b905092915050565b6000602082019050919050565b600061233382612291565b61233d818561229c565b93508360208202850161234f856122ad565b8060005b8581101561238b578484038952815161236c8582612307565b94506123778361231b565b925060208a01995050600181019050612353565b50829750879550505050505092915050565b60006101008201905081810360008301526123b8818b612233565b905081810360208301526123cc818a612328565b905081810360408301526123e08189612328565b905081810360608301526123f48188612328565b905081810360808301526124088187612328565b905081810360a083015261241c8186612328565b905081810360c08301526124308185612328565b905081810360e08301526124448184612328565b90509998505050505050505050565b600080600080600080600080610100898b03121561247457612473611c3e565b5b60006124828b828c01611c91565b985050602089013567ffffffffffffffff8111156124a3576124a2611c43565b5b6124af8b828c01611dbe565b975050604089013567ffffffffffffffff8111156124d0576124cf611c43565b5b6124dc8b828c01611dbe565b965050606089013567ffffffffffffffff8111156124fd576124fc611c43565b5b6125098b828c01611dbe565b955050608089013567ffffffffffffffff81111561252a57612529611c43565b5b6125368b828c01611dbe565b94505060a089013567ffffffffffffffff81111561255757612556611c43565b5b6125638b828c01611dbe565b93505060c089013567ffffffffffffffff81111561258457612583611c43565b5b6125908b828c01611dbe565b92505060e089013567ffffffffffffffff8111156125b1576125b0611c43565b5b6125bd8b828c01611dbe565b9150509295985092959890939650565b600081519050919050565b600082825260208201905092915050565b6000819050602082019050919050565b61260281611efa565b82525050565b600061261483836125f9565b60208301905092915050565b6000602082019050919050565b6000612638826125cd565b61264281856125d8565b935061264d836125e9565b8060005b8381101561267e5781516126658882612608565b975061267083612620565b925050600181019050612651565b5085935050505092915050565b600060408201905081810360008301526126a58185612328565b905081810360208301526126b9818461262d565b90509392505050565b600060a08201905081810360008301526126dc8188612233565b905081810360208301526126f08187612233565b905081810360408301526127048186612328565b905081810360608301526127188185612328565b9050818103608083015261272c8184612328565b90509695505050505050565b600060408201905081810360008301526127528185612328565b905081810360208301526127668184612328565b90509392505050565b60008060006060848603121561278857612787611c3e565b5b600061279686828701611c91565b935050602084013567ffffffffffffffff8111156127b7576127b6611c43565b5b6127c386828701611dbe565b925050604084013567ffffffffffffffff8111156127e4576127e3611c43565b5b6127f086828701611dbe565b9150509250925092565b600060c08201905061280f600083018961207a565b818103602083015261282181886120d8565b9050818103604083015261283581876120d8565b9050818103606083015261284981866120d8565b9050818103608083015261285d81856120d8565b905081810360a083015261287181846120d8565b9050979650505050505050565b600080600080600080600060e0888a03121561289d5761289c611c3e565b5b60006128ab8a828b01611c91565b975050602088013567ffffffffffffffff8111156128cc576128cb611c43565b5b6128d88a828b01611dbe565b965050604088013567ffffffffffffffff8111156128f9576128f8611c43565b5b6129058a828b01611dbe565b955050606088013567ffffffffffffffff81111561292657612925611c43565b5b6129328a828b01611dbe565b945050608088013567ffffffffffffffff81111561295357612952611c43565b5b61295f8a828b01611dbe565b93505060a088013567ffffffffffffffff8111156129805761297f611c43565b5b61298c8a828b01611dbe565b92505060c088013567ffffffffffffffff8111156129ad576129ac611c43565b5b6129b98a828b01611dbe565b91505092959891949750929550565b6000806000606084860312156129e1576129e0611c3e565b5b60006129ef86828701611c91565b935050602084013567ffffffffffffffff811115612a1057612a0f611c43565b5b612a1c86828701611dbe565b9250506040612a2d86828701611fce565b9150509250925092565b60008060408385031215612a4e57612a4d611c3e565b5b6000612a5c85828601611c91565b9250506020612a6d85828601611c91565b9150509250929050565b6000606082019050612a8c600083018661207a565b612a99602083018561207a565b8181036040830152612aab81846120d8565b9050949350505050565b600061010082019050612acb600083018b61207a565b8181036020830152612add818a6120d8565b90508181036040830152612af181896120d8565b90508181036060830152612b0581886120d8565b90508181036080830152612b1981876120d8565b905081810360a0830152612b2d81866120d8565b905081810360c0830152612b4181856120d8565b905081810360e0830152612b5581846120d8565b90509998505050505050505050565b6000608082019050612b79600083018761207a565b612b86602083018661207a565b8181036040830152612b9881856120d8565b90508181036060830152612bac81846120d8565b905095945050505050565b600081519050612bc681611fb7565b92915050565b600060208284031215612be257612be1611c3e565b5b6000612bf084828501612bb7565b91505092915050565b6000604082019050612c0e600083018561207a565b8181036020830152612c2081846120d8565b90509392505050565b6000602082019050612c3e600083018461207a565b92915050565b600060a082019050612c59600083018861207a565b612c66602083018761207a565b8181036040830152612c7881866120d8565b9050612c876060830185611f04565b612c946080830184611f04565b9695505050505050565b600081519050612cad81611c7a565b92915050565b6000612cc6612cc184611d3c565b611d21565b905082815260208101848484011115612ce257612ce1611cab565b5b612ced8482856120a5565b509392505050565b600082601f830112612d0a57612d09611ca6565b5b8151612d1a848260208601612cb3565b91505092915050565b600080600080600080600060e0888a031215612d4257612d41611c3e565b5b6000612d508a828b01612c9e565b975050602088015167ffffffffffffffff811115612d7157612d70611c43565b5b612d7d8a828b01612cf5565b965050604088015167ffffffffffffffff811115612d9e57612d9d611c43565b5b612daa8a828b01612cf5565b955050606088015167ffffffffffffffff811115612dcb57612dca611c43565b5b612dd78a828b01612cf5565b945050608088015167ffffffffffffffff811115612df857612df7611c43565b5b612e048a828b01612cf5565b93505060a088015167ffffffffffffffff811115612e2557612e24611c43565b5b612e318a828b01612cf5565b92505060c088015167ffffffffffffffff811115612e5257612e51611c43565b5b612e5e8a828b01612cf5565b91505092959891949750929550565b60008060408385031215612e8457612e83611c3e565b5b6000612e9285828601612c9e565b9250506020612ea385828601612bb7565b9150509250929050565b600067ffffffffffffffff821115612ec857612ec7611cc1565b5b602082029050602081019050919050565b600080fd5b6000612ef1612eec84612ead565b611d21565b90508083825260208201905060208402830185811115612f1457612f13612ed9565b5b835b81811015612f3d5780612f298882612c9e565b845260208401935050602081019050612f16565b5050509392505050565b600082601f830112612f5c57612f5b611ca6565b5b8151612f6c848260208601612ede565b91505092915050565b600067ffffffffffffffff821115612f9057612f8f611cc1565b5b602082029050602081019050919050565b6000612fb4612faf84612f75565b611d21565b90508083825260208201905060208402830185811115612fd757612fd6612ed9565b5b835b8181101561301e57805167ffffffffffffffff811115612ffc57612ffb611ca6565b5b8086016130098982612cf5565b85526020850194505050602081019050612fd9565b5050509392505050565b600082601f83011261303d5761303c611ca6565b5b815161304d848260208601612fa1565b91505092915050565b600080600080600080600080610100898b03121561307757613076611c3e565b5b600089015167ffffffffffffffff81111561309557613094611c43565b5b6130a18b828c01612f47565b985050602089015167ffffffffffffffff8111156130c2576130c1611c43565b5b6130ce8b828c01613028565b975050604089015167ffffffffffffffff8111156130ef576130ee611c43565b5b6130fb8b828c01613028565b965050606089015167ffffffffffffffff81111561311c5761311b611c43565b5b6131288b828c01613028565b955050608089015167ffffffffffffffff81111561314957613148611c43565b5b6131558b828c01613028565b94505060a089015167ffffffffffffffff81111561317657613175611c43565b5b6131828b828c01613028565b93505060c089015167ffffffffffffffff8111156131a3576131a2611c43565b5b6131af8b828c01613028565b92505060e089015167ffffffffffffffff8111156131d0576131cf611c43565b5b6131dc8b828c01613028565b9150509295985092959890939650565b600067ffffffffffffffff82111561320757613206611cc1565b5b602082029050602081019050919050565b600061322b613226846131ec565b611d21565b9050808382526020820190506020840283018581111561324e5761324d612ed9565b5b835b8181101561327757806132638882612bb7565b845260208401935050602081019050613250565b5050509392505050565b600082601f83011261329657613295611ca6565b5b81516132a6848260208601613218565b91505092915050565b600080604083850312156132c6576132c5611c3e565b5b600083015167ffffffffffffffff8111156132e4576132e3611c43565b5b6132f085828601613028565b925050602083015167ffffffffffffffff81111561331157613310611c43565b5b61331d85828601613281565b9150509250929050565b600080600080600060a0868803121561334357613342611c3e565b5b600086015167ffffffffffffffff81111561336157613360611c43565b5b61336d88828901612f47565b955050602086015167ffffffffffffffff81111561338e5761338d611c43565b5b61339a88828901612f47565b945050604086015167ffffffffffffffff8111156133bb576133ba611c43565b5b6133c788828901613028565b935050606086015167ffffffffffffffff8111156133e8576133e7611c43565b5b6133f488828901613028565b925050608086015167ffffffffffffffff81111561341557613414611c43565b5b61342188828901613028565b9150509295509295909350565b6000806040838503121561344557613444611c3e565b5b600083015167ffffffffffffffff81111561346357613462611c43565b5b61346f85828601613028565b925050602083015167ffffffffffffffff8111156134905761348f611c43565b5b61349c85828601613028565b9150509250929050565b60006060820190506134bb600083018661207a565b81810360208301526134cd81856120d8565b905081810360408301526134e181846120d8565b9050949350505050565b60008060008060008060c0878903121561350857613507611c3e565b5b600061351689828a01612c9e565b965050602087015167ffffffffffffffff81111561353757613536611c43565b5b61354389828a01612cf5565b955050604087015167ffffffffffffffff81111561356457613563611c43565b5b61357089828a01612cf5565b945050606087015167ffffffffffffffff81111561359157613590611c43565b5b61359d89828a01612cf5565b935050608087015167ffffffffffffffff8111156135be576135bd611c43565b5b6135ca89828a01612cf5565b92505060a087015167ffffffffffffffff8111156135eb576135ea611c43565b5b6135f789828a01612cf5565b9150509295509295509295565b6000606082019050613619600083018661207a565b818103602083015261362b81856120d8565b905061363a6040830184611f04565b949350505050565b6000604082019050613657600083018561207a565b613664602083018461207a565b9392505050565b60008060006060848603121561368457613683611c3e565b5b600061369286828701612c9e565b93505060206136a386828701612c9e565b925050604084015167ffffffffffffffff8111156136c4576136c3611c43565b5b6136d086828701612cf5565b9150509250925092565b600080600080600080600080610100898b0312156136fb576136fa611c3e565b5b60006137098b828c01612c9e565b985050602089015167ffffffffffffffff81111561372a57613729611c43565b5b6137368b828c01612cf5565b975050604089015167ffffffffffffffff81111561375757613756611c43565b5b6137638b828c01612cf5565b965050606089015167ffffffffffffffff81111561378457613783611c43565b5b6137908b828c01612cf5565b955050608089015167ffffffffffffffff8111156137b1576137b0611c43565b5b6137bd8b828c01612cf5565b94505060a089015167ffffffffffffffff8111156137de576137dd611c43565b5b6137ea8b828c01612cf5565b93505060c089015167ffffffffffffffff81111561380b5761380a611c43565b5b6138178b828c01612cf5565b92505060e089015167ffffffffffffffff81111561383857613837611c43565b5b6138448b828c01612cf5565b915050929598509295989093965056fea2646970667358221220c5260da488fbcb017ddb56abb770e991086b5b0e24c392a51a69a197783a43df64736f6c634300080b0033608060405234801561001057600080fd5b50612c5a806100206000396000f3fe608060405234801561001057600080fd5b50600436106100a95760003560e01c8063716b5ab411610071578063716b5ab41461019a5780638e891393146101ca578063961ecb5b146101fa5780639fea8e101461022a578063ac4b204914610246578063d64b691314610277576100a9565b80630f53a470146100ae578063174ceeab146100e55780633aff2cc51461011557806360ccb204146101475780636704710714610163575b600080fd5b6100c860048036038101906100c39190612066565b61029c565b6040516100dc98979695949392919061213b565b60405180910390f35b6100ff60048036038101906100fa919061231f565b610885565b60405161010c9190612394565b60405180910390f35b61012f600480360381019061012a91906123db565b610983565b60405161013e93929190612408565b60405180910390f35b610161600480360381019061015c9190612446565b610a65565b005b61017d600480360381019061017891906123db565b610b87565b60405161019198979695949392919061213b565b60405180910390f35b6101b460048036038101906101af919061231f565b610fb7565b6040516101c19190612394565b60405180910390f35b6101e460048036038101906101df9190612066565b6110b5565b6040516101f19190612394565b60405180910390f35b610214600480360381019061020f9190612066565b611172565b6040516102219190612394565b60405180910390f35b610244600480360381019061023f91906124b5565b611224565b005b610260600480360381019061025b9190612066565b6113bd565b60405161026e9291906127f9565b60405180910390f35b61027f611625565b6040516102939897969594939291906128ee565b60405180910390f35b6000606080606080606080606060005b600080549050811015610878578973ffffffffffffffffffffffffffffffffffffffff16600082815481106102e4576102e36129a4565b5b906000526020600020906008020160000160009054906101000a900473ffffffffffffffffffffffffffffffffffffffff1673ffffffffffffffffffffffffffffffffffffffff1614156108655760008181548110610346576103456129a4565b5b906000526020600020906008020160000160009054906101000a900473ffffffffffffffffffffffffffffffffffffffff166000828154811061038c5761038b6129a4565b5b9060005260206000209060080201600101600083815481106103b1576103b06129a4565b5b9060005260206000209060080201600201600084815481106103d6576103d56129a4565b5b9060005260206000209060080201600301600085815481106103fb576103fa6129a4565b5b9060005260206000209060080201600401600086815481106104205761041f6129a4565b5b906000526020600020906008020160050160008781548110610445576104446129a4565b5b90600052602060002090600802016006016000888154811061046a576104696129a4565b5b906000526020600020906008020160070186805461048790612a02565b80601f01602080910402602001604051908101604052809291908181526020018280546104b390612a02565b80156105005780601f106104d557610100808354040283529160200191610500565b820191906000526020600020905b8154815290600101906020018083116104e357829003601f168201915b5050505050965085805461051390612a02565b80601f016020809104026020016040519081016040528092919081815260200182805461053f90612a02565b801561058c5780601f106105615761010080835404028352916020019161058c565b820191906000526020600020905b81548152906001019060200180831161056f57829003601f168201915b5050505050955084805461059f90612a02565b80601f01602080910402602001604051908101604052809291908181526020018280546105cb90612a02565b80156106185780601f106105ed57610100808354040283529160200191610618565b820191906000526020600020905b8154815290600101906020018083116105fb57829003601f168201915b5050505050945083805461062b90612a02565b80601f016020809104026020016040519081016040528092919081815260200182805461065790612a02565b80156106a45780601f10610679576101008083540402835291602001916106a4565b820191906000526020600020905b81548152906001019060200180831161068757829003601f168201915b505050505093508280546106b790612a02565b80601f01602080910402602001604051908101604052809291908181526020018280546106e390612a02565b80156107305780601f1061070557610100808354040283529160200191610730565b820191906000526020600020905b81548152906001019060200180831161071357829003601f168201915b5050505050925081805461074390612a02565b80601f016020809104026020016040519081016040528092919081815260200182805461076f90612a02565b80156107bc5780601f10610791576101008083540402835291602001916107bc565b820191906000526020600020905b81548152906001019060200180831161079f57829003601f168201915b505050505091508080546107cf90612a02565b80601f01602080910402602001604051908101604052809291908181526020018280546107fb90612a02565b80156108485780601f1061081d57610100808354040283529160200191610848565b820191906000526020600020905b81548152906001019060200180831161082b57829003601f168201915b50505050509050985098509850985098509850985098505061087a565b808061087090612a63565b9150506102ac565b505b919395975091939597565b600080600090505b60008054905081101561097b578373ffffffffffffffffffffffffffffffffffffffff16600082815481106108c5576108c46129a4565b5b906000526020600020906008020160000160009054906101000a900473ffffffffffffffffffffffffffffffffffffffff1673ffffffffffffffffffffffffffffffffffffffff161480156109595750828051906020012060008281548110610931576109306129a4565b5b906000526020600020906008020160070160405161094f9190612b4b565b6040518091039020145b1561096857600191505061097d565b808061097390612a63565b91505061088d565b505b92915050565b6001818154811061099357600080fd5b90600052602060002090600302016000915090508060000160009054906101000a900473ffffffffffffffffffffffffffffffffffffffff16908060010180546109dc90612a02565b80601f0160208091040260200160405190810160405280929190818152602001828054610a0890612a02565b8015610a555780601f10610a2a57610100808354040283529160200191610a55565b820191906000526020600020905b815481529060010190602001808311610a3857829003601f168201915b5050505050908060020154905083565b60008110158015610a77575060648111155b610ab6576040517f08c379a0000000000000000000000000000000000000000000000000000000008152600401610aad90612bae565b60405180910390fd5b600160405180606001604052808573ffffffffffffffffffffffffffffffffffffffff16815260200184815260200183815250908060018154018082558091505060019003906000526020600020906003020160009091909190915060008201518160000160006101000a81548173ffffffffffffffffffffffffffffffffffffffff021916908373ffffffffffffffffffffffffffffffffffffffff1602179055506020820151816001019080519060200190610b75929190611f51565b50604082015181600201555050505050565b60008181548110610b9757600080fd5b90600052602060002090600802016000915090508060000160009054906101000a900473ffffffffffffffffffffffffffffffffffffffff1690806001018054610be090612a02565b80601f0160208091040260200160405190810160405280929190818152602001828054610c0c90612a02565b8015610c595780601f10610c2e57610100808354040283529160200191610c59565b820191906000526020600020905b815481529060010190602001808311610c3c57829003601f168201915b505050505090806002018054610c6e90612a02565b80601f0160208091040260200160405190810160405280929190818152602001828054610c9a90612a02565b8015610ce75780601f10610cbc57610100808354040283529160200191610ce7565b820191906000526020600020905b815481529060010190602001808311610cca57829003601f168201915b505050505090806003018054610cfc90612a02565b80601f0160208091040260200160405190810160405280929190818152602001828054610d2890612a02565b8015610d755780601f10610d4a57610100808354040283529160200191610d75565b820191906000526020600020905b815481529060010190602001808311610d5857829003601f168201915b505050505090806004018054610d8a90612a02565b80601f0160208091040260200160405190810160405280929190818152602001828054610db690612a02565b8015610e035780601f10610dd857610100808354040283529160200191610e03565b820191906000526020600020905b815481529060010190602001808311610de657829003601f168201915b505050505090806005018054610e1890612a02565b80601f0160208091040260200160405190810160405280929190818152602001828054610e4490612a02565b8015610e915780601f10610e6657610100808354040283529160200191610e91565b820191906000526020600020905b815481529060010190602001808311610e7457829003601f168201915b505050505090806006018054610ea690612a02565b80601f0160208091040260200160405190810160405280929190818152602001828054610ed290612a02565b8015610f1f5780601f10610ef457610100808354040283529160200191610f1f565b820191906000526020600020905b815481529060010190602001808311610f0257829003601f168201915b505050505090806007018054610f3490612a02565b80601f0160208091040260200160405190810160405280929190818152602001828054610f6090612a02565b8015610fad5780601f10610f8257610100808354040283529160200191610fad565b820191906000526020600020905b815481529060010190602001808311610f9057829003601f168201915b5050505050905088565b600080600090505b6001805490508110156110ad578373ffffffffffffffffffffffffffffffffffffffff1660018281548110610ff757610ff66129a4565b5b906000526020600020906003020160000160009054906101000a900473ffffffffffffffffffffffffffffffffffffffff1673ffffffffffffffffffffffffffffffffffffffff1614801561108b5750828051906020012060018281548110611063576110626129a4565b5b90600052602060002090600302016001016040516110819190612b4b565b6040518091039020145b1561109a5760019150506110af565b80806110a590612a63565b915050610fbf565b505b92915050565b6000806000905060005b600180549050811015611168578373ffffffffffffffffffffffffffffffffffffffff16600182815481106110f7576110f66129a4565b5b906000526020600020906003020160000160009054906101000a900473ffffffffffffffffffffffffffffffffffffffff1673ffffffffffffffffffffffffffffffffffffffff161415611155576001826111529190612bce565b91505b808061116090612a63565b9150506110bf565b5080915050919050565b600080600090505b60008054905081101561121d578273ffffffffffffffffffffffffffffffffffffffff16600082815481106111b2576111b16129a4565b5b906000526020600020906008020160000160009054906101000a900473ffffffffffffffffffffffffffffffffffffffff1673ffffffffffffffffffffffffffffffffffffffff16141561120a57600191505061121f565b808061121590612a63565b91505061117a565b505b919050565b60006040518061010001604052808a73ffffffffffffffffffffffffffffffffffffffff16815260200189815260200188815260200187815260200186815260200185815260200184815260200183815250908060018154018082558091505060019003906000526020600020906008020160009091909190915060008201518160000160006101000a81548173ffffffffffffffffffffffffffffffffffffffff021916908373ffffffffffffffffffffffffffffffffffffffff1602179055506020820151816001019080519060200190611302929190611f51565b50604082015181600201908051906020019061131f929190611f51565b50606082015181600301908051906020019061133c929190611f51565b506080820151816004019080519060200190611359929190611f51565b5060a0820151816005019080519060200190611376929190611f51565b5060c0820151816006019080519060200190611393929190611f51565b5060e08201518160070190805190602001906113b0929190611f51565b5050505050505050505050565b606080600060018054905067ffffffffffffffff8111156113e1576113e06121f4565b5b60405190808252806020026020018201604052801561141457816020015b60608152602001906001900390816113ff5790505b509050600060018054905067ffffffffffffffff811115611438576114376121f4565b5b6040519080825280602002602001820160405280156114665781602001602082028036833780820191505090505b50905060005b600180549050811015611617578573ffffffffffffffffffffffffffffffffffffffff16600182815481106114a4576114a36129a4565b5b906000526020600020906003020160000160009054906101000a900473ffffffffffffffffffffffffffffffffffffffff1673ffffffffffffffffffffffffffffffffffffffff1614156116045760018181548110611506576115056129a4565b5b9060005260206000209060030201600101805461152290612a02565b80601f016020809104026020016040519081016040528092919081815260200182805461154e90612a02565b801561159b5780601f106115705761010080835404028352916020019161159b565b820191906000526020600020905b81548152906001019060200180831161157e57829003601f168201915b50505050508382815181106115b3576115b26129a4565b5b6020026020010181905250600181815481106115d2576115d16129a4565b5b9060005260206000209060030201600201548282815181106115f7576115f66129a4565b5b6020026020010181815250505b808061160f90612a63565b91505061146c565b508181935093505050915091565b6060806060806060806060806000808054905067ffffffffffffffff811115611651576116506121f4565b5b60405190808252806020026020018201604052801561167f5781602001602082028036833780820191505090505b5090506000808054905067ffffffffffffffff8111156116a2576116a16121f4565b5b6040519080825280602002602001820160405280156116d557816020015b60608152602001906001900390816116c05790505b5090506000808054905067ffffffffffffffff8111156116f8576116f76121f4565b5b60405190808252806020026020018201604052801561172b57816020015b60608152602001906001900390816117165790505b5090506000808054905067ffffffffffffffff81111561174e5761174d6121f4565b5b60405190808252806020026020018201604052801561178157816020015b606081526020019060019003908161176c5790505b5090506000808054905067ffffffffffffffff8111156117a4576117a36121f4565b5b6040519080825280602002602001820160405280156117d757816020015b60608152602001906001900390816117c25790505b5090506000808054905067ffffffffffffffff8111156117fa576117f96121f4565b5b60405190808252806020026020018201604052801561182d57816020015b60608152602001906001900390816118185790505b5090506000808054905067ffffffffffffffff8111156118505761184f6121f4565b5b60405190808252806020026020018201604052801561188357816020015b606081526020019060019003908161186e5790505b5090506000808054905067ffffffffffffffff8111156118a6576118a56121f4565b5b6040519080825280602002602001820160405280156118d957816020015b60608152602001906001900390816118c45790505b50905060005b600080549050811015611f265760008181548110611900576118ff6129a4565b5b906000526020600020906008020160000160009054906101000a900473ffffffffffffffffffffffffffffffffffffffff16898281518110611945576119446129a4565b5b602002602001019073ffffffffffffffffffffffffffffffffffffffff16908173ffffffffffffffffffffffffffffffffffffffff168152505060008181548110611993576119926129a4565b5b906000526020600020906008020160010180546119af90612a02565b80601f01602080910402602001604051908101604052809291908181526020018280546119db90612a02565b8015611a285780601f106119fd57610100808354040283529160200191611a28565b820191906000526020600020905b815481529060010190602001808311611a0b57829003601f168201915b5050505050888281518110611a4057611a3f6129a4565b5b602002602001018190525060008181548110611a5f57611a5e6129a4565b5b90600052602060002090600802016002018054611a7b90612a02565b80601f0160208091040260200160405190810160405280929190818152602001828054611aa790612a02565b8015611af45780601f10611ac957610100808354040283529160200191611af4565b820191906000526020600020905b815481529060010190602001808311611ad757829003601f168201915b5050505050878281518110611b0c57611b0b6129a4565b5b602002602001018190525060008181548110611b2b57611b2a6129a4565b5b90600052602060002090600802016003018054611b4790612a02565b80601f0160208091040260200160405190810160405280929190818152602001828054611b7390612a02565b8015611bc05780601f10611b9557610100808354040283529160200191611bc0565b820191906000526020600020905b815481529060010190602001808311611ba357829003601f168201915b5050505050868281518110611bd857611bd76129a4565b5b602002602001018190525060008181548110611bf757611bf66129a4565b5b90600052602060002090600802016004018054611c1390612a02565b80601f0160208091040260200160405190810160405280929190818152602001828054611c3f90612a02565b8015611c8c5780601f10611c6157610100808354040283529160200191611c8c565b820191906000526020600020905b815481529060010190602001808311611c6f57829003601f168201915b5050505050858281518110611ca457611ca36129a4565b5b602002602001018190525060008181548110611cc357611cc26129a4565b5b90600052602060002090600802016005018054611cdf90612a02565b80601f0160208091040260200160405190810160405280929190818152602001828054611d0b90612a02565b8015611d585780601f10611d2d57610100808354040283529160200191611d58565b820191906000526020600020905b815481529060010190602001808311611d3b57829003601f168201915b5050505050848281518110611d7057611d6f6129a4565b5b602002602001018190525060008181548110611d8f57611d8e6129a4565b5b90600052602060002090600802016006018054611dab90612a02565b80601f0160208091040260200160405190810160405280929190818152602001828054611dd790612a02565b8015611e245780601f10611df957610100808354040283529160200191611e24565b820191906000526020600020905b815481529060010190602001808311611e0757829003601f168201915b5050505050838281518110611e3c57611e3b6129a4565b5b602002602001018190525060008181548110611e5b57611e5a6129a4565b5b90600052602060002090600802016007018054611e7790612a02565b80601f0160208091040260200160405190810160405280929190818152602001828054611ea390612a02565b8015611ef05780601f10611ec557610100808354040283529160200191611ef0565b820191906000526020600020905b815481529060010190602001808311611ed357829003601f168201915b5050505050828281518110611f0857611f076129a4565b5b60200260200101819052508080611f1e90612a63565b9150506118df565b5087878787878787879f509f509f509f509f509f509f509f5050505050505050509091929394959697565b828054611f5d90612a02565b90600052602060002090601f016020900481019282611f7f5760008555611fc6565b82601f10611f9857805160ff1916838001178555611fc6565b82800160010185558215611fc6579182015b82811115611fc5578251825591602001919060010190611faa565b5b509050611fd39190611fd7565b5090565b5b80821115611ff0576000816000905550600101611fd8565b5090565b6000604051905090565b600080fd5b600080fd5b600073ffffffffffffffffffffffffffffffffffffffff82169050919050565b600061203382612008565b9050919050565b61204381612028565b811461204e57600080fd5b50565b6000813590506120608161203a565b92915050565b60006020828403121561207c5761207b611ffe565b5b600061208a84828501612051565b91505092915050565b61209c81612028565b82525050565b600081519050919050565b600082825260208201905092915050565b60005b838110156120dc5780820151818401526020810190506120c1565b838111156120eb576000848401525b50505050565b6000601f19601f8301169050919050565b600061210d826120a2565b61211781856120ad565b93506121278185602086016120be565b612130816120f1565b840191505092915050565b600061010082019050612151600083018b612093565b8181036020830152612163818a612102565b905081810360408301526121778189612102565b9050818103606083015261218b8188612102565b9050818103608083015261219f8187612102565b905081810360a08301526121b38186612102565b905081810360c08301526121c78185612102565b905081810360e08301526121db8184612102565b90509998505050505050505050565b600080fd5b600080fd5b7f4e487b7100000000000000000000000000000000000000000000000000000000600052604160045260246000fd5b61222c826120f1565b810181811067ffffffffffffffff8211171561224b5761224a6121f4565b5b80604052505050565b600061225e611ff4565b905061226a8282612223565b919050565b600067ffffffffffffffff82111561228a576122896121f4565b5b612293826120f1565b9050602081019050919050565b82818337600083830152505050565b60006122c26122bd8461226f565b612254565b9050828152602081018484840111156122de576122dd6121ef565b5b6122e98482856122a0565b509392505050565b600082601f830112612306576123056121ea565b5b81356123168482602086016122af565b91505092915050565b6000806040838503121561233657612335611ffe565b5b600061234485828601612051565b925050602083013567ffffffffffffffff81111561236557612364612003565b5b612371858286016122f1565b9150509250929050565b6000819050919050565b61238e8161237b565b82525050565b60006020820190506123a96000830184612385565b92915050565b6123b88161237b565b81146123c357600080fd5b50565b6000813590506123d5816123af565b92915050565b6000602082840312156123f1576123f0611ffe565b5b60006123ff848285016123c6565b91505092915050565b600060608201905061241d6000830186612093565b818103602083015261242f8185612102565b905061243e6040830184612385565b949350505050565b60008060006060848603121561245f5761245e611ffe565b5b600061246d86828701612051565b935050602084013567ffffffffffffffff81111561248e5761248d612003565b5b61249a868287016122f1565b92505060406124ab868287016123c6565b9150509250925092565b600080600080600080600080610100898b0312156124d6576124d5611ffe565b5b60006124e48b828c01612051565b985050602089013567ffffffffffffffff81111561250557612504612003565b5b6125118b828c016122f1565b975050604089013567ffffffffffffffff81111561253257612531612003565b5b61253e8b828c016122f1565b965050606089013567ffffffffffffffff81111561255f5761255e612003565b5b61256b8b828c016122f1565b955050608089013567ffffffffffffffff81111561258c5761258b612003565b5b6125988b828c016122f1565b94505060a089013567ffffffffffffffff8111156125b9576125b8612003565b5b6125c58b828c016122f1565b93505060c089013567ffffffffffffffff8111156125e6576125e5612003565b5b6125f28b828c016122f1565b92505060e089013567ffffffffffffffff81111561261357612612612003565b5b61261f8b828c016122f1565b9150509295985092959890939650565b600081519050919050565b600082825260208201905092915050565b6000819050602082019050919050565b600082825260208201905092915050565b6000612677826120a2565b612681818561265b565b93506126918185602086016120be565b61269a816120f1565b840191505092915050565b60006126b1838361266c565b905092915050565b6000602082019050919050565b60006126d18261262f565b6126db818561263a565b9350836020820285016126ed8561264b565b8060005b85811015612729578484038952815161270a85826126a5565b9450612715836126b9565b925060208a019950506001810190506126f1565b50829750879550505050505092915050565b600081519050919050565b600082825260208201905092915050565b6000819050602082019050919050565b6127708161237b565b82525050565b60006127828383612767565b60208301905092915050565b6000602082019050919050565b60006127a68261273b565b6127b08185612746565b93506127bb83612757565b8060005b838110156127ec5781516127d38882612776565b97506127de8361278e565b9250506001810190506127bf565b5085935050505092915050565b6000604082019050818103600083015261281381856126c6565b90508181036020830152612827818461279b565b90509392505050565b600081519050919050565b600082825260208201905092915050565b6000819050602082019050919050565b61286581612028565b82525050565b6000612877838361285c565b60208301905092915050565b6000602082019050919050565b600061289b82612830565b6128a5818561283b565b93506128b08361284c565b8060005b838110156128e15781516128c8888261286b565b97506128d383612883565b9250506001810190506128b4565b5085935050505092915050565b6000610100820190508181036000830152612909818b612890565b9050818103602083015261291d818a6126c6565b9050818103604083015261293181896126c6565b9050818103606083015261294581886126c6565b9050818103608083015261295981876126c6565b905081810360a083015261296d81866126c6565b905081810360c083015261298181856126c6565b905081810360e083015261299581846126c6565b90509998505050505050505050565b7f4e487b7100000000000000000000000000000000000000000000000000000000600052603260045260246000fd5b7f4e487b7100000000000000000000000000000000000000000000000000000000600052602260045260246000fd5b60006002820490506001821680612a1a57607f821691505b60208210811415612a2e57612a2d6129d3565b5b50919050565b7f4e487b7100000000000000000000000000000000000000000000000000000000600052601160045260246000fd5b6000612a6e8261237b565b91507fffffffffffffffffffffffffffffffffffffffffffffffffffffffffffffffff821415612aa157612aa0612a34565b5b600182019050919050565b600081905092915050565b60008190508160005260206000209050919050565b60008154612ad981612a02565b612ae38186612aac565b94506001821660008114612afe5760018114612b0f57612b42565b60ff19831686528186019350612b42565b612b1885612ab7565b60005b83811015612b3a57815481890152600182019150602081019050612b1b565b838801955050505b50505092915050565b6000612b578284612acc565b915081905092915050565b7f4c6576656c206f6620736b696c6c20696e636f72726563742e00000000000000600082015250565b6000612b986019836120ad565b9150612ba382612b62565b602082019050919050565b60006020820190508181036000830152612bc781612b8b565b9050919050565b6000612bd98261237b565b9150612be48361237b565b9250827fffffffffffffffffffffffffffffffffffffffffffffffffffffffffffffffff03821115612c1957612c18612a34565b5b82820190509291505056fea26469706673582212205b4ba4b72f765c63c94636c48eb316972c83d58b82d105f0efa9a2ddc2d66e2b64736f6c634300080b0033608060405234801561001057600080fd5b5061228c806100206000396000f3fe608060405234801561001057600080fd5b50600436106100625760003560e01c80630f53a47014610067578063a7dba1841461009d578063bf44b303146100cd578063c6fe410a14610104578063cfafbc0c14610134578063e045b71014610159575b600080fd5b610081600480360381019061007c9190611863565b610175565b6040516100949796959493929190611938565b60405180910390f35b6100b760048036038101906100b29190611b06565b6106a9565b6040516100c49190611b7b565b60405180910390f35b6100e760048036038101906100e29190611bc2565b6107a7565b6040516100fb989796959493929190611bef565b60405180910390f35b61011e60048036038101906101199190611863565b610bd7565b60405161012b9190611b7b565b60405180910390f35b61013c610c89565b604051610150989796959493929190611e68565b60405180910390f35b610173600480360381019061016e9190611f1e565b6115b5565b005b600060608060608060608060005b60008054905081101561069c578873ffffffffffffffffffffffffffffffffffffffff16600082815481106101bb576101ba612098565b5b906000526020600020906008020160000160009054906101000a900473ffffffffffffffffffffffffffffffffffffffff1673ffffffffffffffffffffffffffffffffffffffff161415610689576000818154811061021d5761021c612098565b5b906000526020600020906008020160000160009054906101000a900473ffffffffffffffffffffffffffffffffffffffff166000828154811061026357610262612098565b5b90600052602060002090600802016001016000838154811061028857610287612098565b5b9060005260206000209060080201600201600084815481106102ad576102ac612098565b5b9060005260206000209060080201600301600085815481106102d2576102d1612098565b5b9060005260206000209060080201600401600086815481106102f7576102f6612098565b5b90600052602060002090600802016005016000878154811061031c5761031b612098565b5b9060005260206000209060080201600601858054610339906120f6565b80601f0160208091040260200160405190810160405280929190818152602001828054610365906120f6565b80156103b25780601f10610387576101008083540402835291602001916103b2565b820191906000526020600020905b81548152906001019060200180831161039557829003601f168201915b505050505095508480546103c5906120f6565b80601f01602080910402602001604051908101604052809291908181526020018280546103f1906120f6565b801561043e5780601f106104135761010080835404028352916020019161043e565b820191906000526020600020905b81548152906001019060200180831161042157829003601f168201915b50505050509450838054610451906120f6565b80601f016020809104026020016040519081016040528092919081815260200182805461047d906120f6565b80156104ca5780601f1061049f576101008083540402835291602001916104ca565b820191906000526020600020905b8154815290600101906020018083116104ad57829003601f168201915b505050505093508280546104dd906120f6565b80601f0160208091040260200160405190810160405280929190818152602001828054610509906120f6565b80156105565780601f1061052b57610100808354040283529160200191610556565b820191906000526020600020905b81548152906001019060200180831161053957829003601f168201915b50505050509250818054610569906120f6565b80601f0160208091040260200160405190810160405280929190818152602001828054610595906120f6565b80156105e25780601f106105b7576101008083540402835291602001916105e2565b820191906000526020600020905b8154815290600101906020018083116105c557829003601f168201915b505050505091508080546105f5906120f6565b80601f0160208091040260200160405190810160405280929190818152602001828054610621906120f6565b801561066e5780601f106106435761010080835404028352916020019161066e565b820191906000526020600020905b81548152906001019060200180831161065157829003601f168201915b5050505050905097509750975097509750975097505061069e565b808061069490612157565b915050610183565b505b919395979092949650565b600080600090505b60008054905081101561079f578373ffffffffffffffffffffffffffffffffffffffff16600082815481106106e9576106e8612098565b5b906000526020600020906008020160000160009054906101000a900473ffffffffffffffffffffffffffffffffffffffff1673ffffffffffffffffffffffffffffffffffffffff1614801561077d575082805190602001206000828154811061075557610754612098565b5b9060005260206000209060080201600701604051610773919061223f565b6040518091039020145b1561078c5760019150506107a1565b808061079790612157565b9150506106b1565b505b92915050565b600081815481106107b757600080fd5b90600052602060002090600802016000915090508060000160009054906101000a900473ffffffffffffffffffffffffffffffffffffffff1690806001018054610800906120f6565b80601f016020809104026020016040519081016040528092919081815260200182805461082c906120f6565b80156108795780601f1061084e57610100808354040283529160200191610879565b820191906000526020600020905b81548152906001019060200180831161085c57829003601f168201915b50505050509080600201805461088e906120f6565b80601f01602080910402602001604051908101604052809291908181526020018280546108ba906120f6565b80156109075780601f106108dc57610100808354040283529160200191610907565b820191906000526020600020905b8154815290600101906020018083116108ea57829003601f168201915b50505050509080600301805461091c906120f6565b80601f0160208091040260200160405190810160405280929190818152602001828054610948906120f6565b80156109955780601f1061096a57610100808354040283529160200191610995565b820191906000526020600020905b81548152906001019060200180831161097857829003601f168201915b5050505050908060040180546109aa906120f6565b80601f01602080910402602001604051908101604052809291908181526020018280546109d6906120f6565b8015610a235780601f106109f857610100808354040283529160200191610a23565b820191906000526020600020905b815481529060010190602001808311610a0657829003601f168201915b505050505090806005018054610a38906120f6565b80601f0160208091040260200160405190810160405280929190818152602001828054610a64906120f6565b8015610ab15780601f10610a8657610100808354040283529160200191610ab1565b820191906000526020600020905b815481529060010190602001808311610a9457829003601f168201915b505050505090806006018054610ac6906120f6565b80601f0160208091040260200160405190810160405280929190818152602001828054610af2906120f6565b8015610b3f5780601f10610b1457610100808354040283529160200191610b3f565b820191906000526020600020905b815481529060010190602001808311610b2257829003601f168201915b505050505090806007018054610b54906120f6565b80601f0160208091040260200160405190810160405280929190818152602001828054610b80906120f6565b8015610bcd5780601f10610ba257610100808354040283529160200191610bcd565b820191906000526020600020905b815481529060010190602001808311610bb057829003601f168201915b5050505050905088565b600080600090505b600080549050811015610c82578273ffffffffffffffffffffffffffffffffffffffff1660008281548110610c1757610c16612098565b5b906000526020600020906008020160000160009054906101000a900473ffffffffffffffffffffffffffffffffffffffff1673ffffffffffffffffffffffffffffffffffffffff161415610c6f576001915050610c84565b8080610c7a90612157565b915050610bdf565b505b919050565b6060806060806060806060806000808054905067ffffffffffffffff811115610cb557610cb46119db565b5b604051908082528060200260200182016040528015610ce35781602001602082028036833780820191505090505b5090506000808054905067ffffffffffffffff811115610d0657610d056119db565b5b604051908082528060200260200182016040528015610d3957816020015b6060815260200190600190039081610d245790505b5090506000808054905067ffffffffffffffff811115610d5c57610d5b6119db565b5b604051908082528060200260200182016040528015610d8f57816020015b6060815260200190600190039081610d7a5790505b5090506000808054905067ffffffffffffffff811115610db257610db16119db565b5b604051908082528060200260200182016040528015610de557816020015b6060815260200190600190039081610dd05790505b5090506000808054905067ffffffffffffffff811115610e0857610e076119db565b5b604051908082528060200260200182016040528015610e3b57816020015b6060815260200190600190039081610e265790505b5090506000808054905067ffffffffffffffff811115610e5e57610e5d6119db565b5b604051908082528060200260200182016040528015610e9157816020015b6060815260200190600190039081610e7c5790505b5090506000808054905067ffffffffffffffff811115610eb457610eb36119db565b5b604051908082528060200260200182016040528015610ee757816020015b6060815260200190600190039081610ed25790505b5090506000808054905067ffffffffffffffff811115610f0a57610f096119db565b5b604051908082528060200260200182016040528015610f3d57816020015b6060815260200190600190039081610f285790505b50905060005b60008054905081101561158a5760008181548110610f6457610f63612098565b5b906000526020600020906008020160000160009054906101000a900473ffffffffffffffffffffffffffffffffffffffff16898281518110610fa957610fa8612098565b5b602002602001019073ffffffffffffffffffffffffffffffffffffffff16908173ffffffffffffffffffffffffffffffffffffffff168152505060008181548110610ff757610ff6612098565b5b90600052602060002090600802016001018054611013906120f6565b80601f016020809104026020016040519081016040528092919081815260200182805461103f906120f6565b801561108c5780601f106110615761010080835404028352916020019161108c565b820191906000526020600020905b81548152906001019060200180831161106f57829003601f168201915b50505050508882815181106110a4576110a3612098565b5b6020026020010181905250600081815481106110c3576110c2612098565b5b906000526020600020906008020160020180546110df906120f6565b80601f016020809104026020016040519081016040528092919081815260200182805461110b906120f6565b80156111585780601f1061112d57610100808354040283529160200191611158565b820191906000526020600020905b81548152906001019060200180831161113b57829003601f168201915b50505050508782815181106111705761116f612098565b5b60200260200101819052506000818154811061118f5761118e612098565b5b906000526020600020906008020160030180546111ab906120f6565b80601f01602080910402602001604051908101604052809291908181526020018280546111d7906120f6565b80156112245780601f106111f957610100808354040283529160200191611224565b820191906000526020600020905b81548152906001019060200180831161120757829003601f168201915b505050505086828151811061123c5761123b612098565b5b60200260200101819052506000818154811061125b5761125a612098565b5b90600052602060002090600802016004018054611277906120f6565b80601f01602080910402602001604051908101604052809291908181526020018280546112a3906120f6565b80156112f05780601f106112c5576101008083540402835291602001916112f0565b820191906000526020600020905b8154815290600101906020018083116112d357829003601f168201915b505050505085828151811061130857611307612098565b5b60200260200101819052506000818154811061132757611326612098565b5b90600052602060002090600802016005018054611343906120f6565b80601f016020809104026020016040519081016040528092919081815260200182805461136f906120f6565b80156113bc5780601f10611391576101008083540402835291602001916113bc565b820191906000526020600020905b81548152906001019060200180831161139f57829003601f168201915b50505050508482815181106113d4576113d3612098565b5b6020026020010181905250600081815481106113f3576113f2612098565b5b9060005260206000209060080201600601805461140f906120f6565b80601f016020809104026020016040519081016040528092919081815260200182805461143b906120f6565b80156114885780601f1061145d57610100808354040283529160200191611488565b820191906000526020600020905b81548152906001019060200180831161146b57829003601f168201915b50505050508382815181106114a05761149f612098565b5b6020026020010181905250600081815481106114bf576114be612098565b5b906000526020600020906008020160070180546114db906120f6565b80601f0160208091040260200160405190810160405280929190818152602001828054611507906120f6565b80156115545780601f1061152957610100808354040283529160200191611554565b820191906000526020600020905b81548152906001019060200180831161153757829003601f168201915b505050505082828151811061156c5761156b612098565b5b6020026020010181905250808061158290612157565b915050610f43565b5087878787878787879f509f509f509f509f509f509f509f5050505050505050509091929394959697565b60006040518061010001604052808a73ffffffffffffffffffffffffffffffffffffffff16815260200189815260200188815260200187815260200186815260200185815260200184815260200183815250908060018154018082558091505060019003906000526020600020906008020160009091909190915060008201518160000160006101000a81548173ffffffffffffffffffffffffffffffffffffffff021916908373ffffffffffffffffffffffffffffffffffffffff160217905550602082015181600101908051906020019061169392919061174e565b5060408201518160020190805190602001906116b092919061174e565b5060608201518160030190805190602001906116cd92919061174e565b5060808201518160040190805190602001906116ea92919061174e565b5060a082015181600501908051906020019061170792919061174e565b5060c082015181600601908051906020019061172492919061174e565b5060e082015181600701908051906020019061174192919061174e565b5050505050505050505050565b82805461175a906120f6565b90600052602060002090601f01602090048101928261177c57600085556117c3565b82601f1061179557805160ff19168380011785556117c3565b828001600101855582156117c3579182015b828111156117c25782518255916020019190600101906117a7565b5b5090506117d091906117d4565b5090565b5b808211156117ed5760008160009055506001016117d5565b5090565b6000604051905090565b600080fd5b600080fd5b600073ffffffffffffffffffffffffffffffffffffffff82169050919050565b600061183082611805565b9050919050565b61184081611825565b811461184b57600080fd5b50565b60008135905061185d81611837565b92915050565b600060208284031215611879576118786117fb565b5b60006118878482850161184e565b91505092915050565b61189981611825565b82525050565b600081519050919050565b600082825260208201905092915050565b60005b838110156118d95780820151818401526020810190506118be565b838111156118e8576000848401525b50505050565b6000601f19601f8301169050919050565b600061190a8261189f565b61191481856118aa565b93506119248185602086016118bb565b61192d816118ee565b840191505092915050565b600060e08201905061194d600083018a611890565b818103602083015261195f81896118ff565b9050818103604083015261197381886118ff565b9050818103606083015261198781876118ff565b9050818103608083015261199b81866118ff565b905081810360a08301526119af81856118ff565b905081810360c08301526119c381846118ff565b905098975050505050505050565b600080fd5b600080fd5b7f4e487b7100000000000000000000000000000000000000000000000000000000600052604160045260246000fd5b611a13826118ee565b810181811067ffffffffffffffff82111715611a3257611a316119db565b5b80604052505050565b6000611a456117f1565b9050611a518282611a0a565b919050565b600067ffffffffffffffff821115611a7157611a706119db565b5b611a7a826118ee565b9050602081019050919050565b82818337600083830152505050565b6000611aa9611aa484611a56565b611a3b565b905082815260208101848484011115611ac557611ac46119d6565b5b611ad0848285611a87565b509392505050565b600082601f830112611aed57611aec6119d1565b5b8135611afd848260208601611a96565b91505092915050565b60008060408385031215611b1d57611b1c6117fb565b5b6000611b2b8582860161184e565b925050602083013567ffffffffffffffff811115611b4c57611b4b611800565b5b611b5885828601611ad8565b9150509250929050565b6000819050919050565b611b7581611b62565b82525050565b6000602082019050611b906000830184611b6c565b92915050565b611b9f81611b62565b8114611baa57600080fd5b50565b600081359050611bbc81611b96565b92915050565b600060208284031215611bd857611bd76117fb565b5b6000611be684828501611bad565b91505092915050565b600061010082019050611c05600083018b611890565b8181036020830152611c17818a6118ff565b90508181036040830152611c2b81896118ff565b90508181036060830152611c3f81886118ff565b90508181036080830152611c5381876118ff565b905081810360a0830152611c6781866118ff565b905081810360c0830152611c7b81856118ff565b905081810360e0830152611c8f81846118ff565b90509998505050505050505050565b600081519050919050565b600082825260208201905092915050565b6000819050602082019050919050565b611cd381611825565b82525050565b6000611ce58383611cca565b60208301905092915050565b6000602082019050919050565b6000611d0982611c9e565b611d138185611ca9565b9350611d1e83611cba565b8060005b83811015611d4f578151611d368882611cd9565b9750611d4183611cf1565b925050600181019050611d22565b5085935050505092915050565b600081519050919050565b600082825260208201905092915050565b6000819050602082019050919050565b600082825260208201905092915050565b6000611da48261189f565b611dae8185611d88565b9350611dbe8185602086016118bb565b611dc7816118ee565b840191505092915050565b6000611dde8383611d99565b905092915050565b6000602082019050919050565b6000611dfe82611d5c565b611e088185611d67565b935083602082028501611e1a85611d78565b8060005b85811015611e565784840389528151611e378582611dd2565b9450611e4283611de6565b925060208a01995050600181019050611e1e565b50829750879550505050505092915050565b6000610100820190508181036000830152611e83818b611cfe565b90508181036020830152611e97818a611df3565b90508181036040830152611eab8189611df3565b90508181036060830152611ebf8188611df3565b90508181036080830152611ed38187611df3565b905081810360a0830152611ee78186611df3565b905081810360c0830152611efb8185611df3565b905081810360e0830152611f0f8184611df3565b90509998505050505050505050565b600080600080600080600080610100898b031215611f3f57611f3e6117fb565b5b6000611f4d8b828c0161184e565b985050602089013567ffffffffffffffff811115611f6e57611f6d611800565b5b611f7a8b828c01611ad8565b975050604089013567ffffffffffffffff811115611f9b57611f9a611800565b5b611fa78b828c01611ad8565b965050606089013567ffffffffffffffff811115611fc857611fc7611800565b5b611fd48b828c01611ad8565b955050608089013567ffffffffffffffff811115611ff557611ff4611800565b5b6120018b828c01611ad8565b94505060a089013567ffffffffffffffff81111561202257612021611800565b5b61202e8b828c01611ad8565b93505060c089013567ffffffffffffffff81111561204f5761204e611800565b5b61205b8b828c01611ad8565b92505060e089013567ffffffffffffffff81111561207c5761207b611800565b5b6120888b828c01611ad8565b9150509295985092959890939650565b7f4e487b7100000000000000000000000000000000000000000000000000000000600052603260045260246000fd5b7f4e487b7100000000000000000000000000000000000000000000000000000000600052602260045260246000fd5b6000600282049050600182168061210e57607f821691505b60208210811415612122576121216120c7565b5b50919050565b7f4e487b7100000000000000000000000000000000000000000000000000000000600052601160045260246000fd5b600061216282611b62565b91507fffffffffffffffffffffffffffffffffffffffffffffffffffffffffffffffff82141561219557612194612128565b5b600182019050919050565b600081905092915050565b60008190508160005260206000209050919050565b600081546121cd816120f6565b6121d781866121a0565b945060018216600081146121f2576001811461220357612236565b60ff19831686528186019350612236565b61220c856121ab565b60005b8381101561222e5781548189015260018201915060208101905061220f565b838801955050505b50505092915050565b600061224b82846121c0565b91508190509291505056fea2646970667358221220be6d5762a3d6676b2fbb685084471402619cfef237f88042f05bb755a7490a5b64736f6c634300080b0033608060405234801561001057600080fd5b50613d10806100206000396000f3fe608060405234801561001057600080fd5b50600436106101005760003560e01c80638f8724a911610097578063d767573e11610066578063d767573e14610346578063dd8f3edc14610362578063e9dfbf6f1461037e578063ea10ada0146103ae57610100565b80638f8724a91461027a5780639e8aee6e146102af578063a9846eb0146102e0578063d18db3f21461031557610100565b806344fd6e22116100d357806344fd6e22146101bc57806349f47a55146101ec578063508580eb1461022157806384ae91311461025657610100565b806309bef62a146101055780630f53a4701461013b5780631ababd291461017057806324e660371461018c575b600080fd5b61011f600480360381019061011a9190612eb9565b6103de565b6040516101329796959493929190612fc0565b60405180910390f35b61015560048036038101906101509190613085565b610780565b604051610167969594939291906130b2565b60405180910390f35b61018a6004803603810190610185919061326b565b610bfe565b005b6101a660048036038101906101a19190613302565b610e01565b6040516101b3919061336d565b60405180910390f35b6101d660048036038101906101d19190613085565b610eff565b6040516101e3919061336d565b60405180910390f35b61020660048036038101906102019190612eb9565b610fb1565b60405161021896959493929190613388565b60405180910390f35b61023b60048036038101906102369190613085565b6110c5565b60405161024d96959493929190613678565b60405180910390f35b61025e61163f565b6040516102719796959493929190613703565b60405180910390f35b610294600480360381019061028f9190613085565b611e43565b6040516102a696959493929190613678565b60405180910390f35b6102c960048036038101906102c49190613085565b6123bd565b6040516102d79291906137a3565b60405180910390f35b6102fa60048036038101906102f59190612eb9565b612580565b60405161030c96959493929190613388565b60405180910390f35b61032f600480360381019061032a9190613085565b612694565b60405161033d9291906137a3565b60405180910390f35b610360600480360381019061035b919061326b565b612857565b005b61037c600480360381019061037791906137cc565b612a5c565b005b61039860048036038101906103939190613302565b612bd0565b6040516103a5919061336d565b60405180910390f35b6103c860048036038101906103c39190613302565b612cce565b6040516103d5919061336d565b60405180910390f35b600081815481106103ee57600080fd5b90600052602060002090600702016000915090508060000160009054906101000a900473ffffffffffffffffffffffffffffffffffffffff169080600101805461043790613945565b80601f016020809104026020016040519081016040528092919081815260200182805461046390613945565b80156104b05780601f10610485576101008083540402835291602001916104b0565b820191906000526020600020905b81548152906001019060200180831161049357829003601f168201915b5050505050908060020180546104c590613945565b80601f01602080910402602001604051908101604052809291908181526020018280546104f190613945565b801561053e5780601f106105135761010080835404028352916020019161053e565b820191906000526020600020905b81548152906001019060200180831161052157829003601f168201915b50505050509080600301805461055390613945565b80601f016020809104026020016040519081016040528092919081815260200182805461057f90613945565b80156105cc5780601f106105a1576101008083540402835291602001916105cc565b820191906000526020600020905b8154815290600101906020018083116105af57829003601f168201915b5050505050908060040180546105e190613945565b80601f016020809104026020016040519081016040528092919081815260200182805461060d90613945565b801561065a5780601f1061062f5761010080835404028352916020019161065a565b820191906000526020600020905b81548152906001019060200180831161063d57829003601f168201915b50505050509080600501805461066f90613945565b80601f016020809104026020016040519081016040528092919081815260200182805461069b90613945565b80156106e85780601f106106bd576101008083540402835291602001916106e8565b820191906000526020600020905b8154815290600101906020018083116106cb57829003601f168201915b5050505050908060060180546106fd90613945565b80601f016020809104026020016040519081016040528092919081815260200182805461072990613945565b80156107765780601f1061074b57610100808354040283529160200191610776565b820191906000526020600020905b81548152906001019060200180831161075957829003601f168201915b5050505050905087565b6000606080606080606060005b600080549050811015610bf3578773ffffffffffffffffffffffffffffffffffffffff16600082815481106107c5576107c4613977565b5b906000526020600020906007020160000160009054906101000a900473ffffffffffffffffffffffffffffffffffffffff1673ffffffffffffffffffffffffffffffffffffffff161415610be0576000818154811061082757610826613977565b5b906000526020600020906007020160000160009054906101000a900473ffffffffffffffffffffffffffffffffffffffff166000828154811061086d5761086c613977565b5b90600052602060002090600702016001016000838154811061089257610891613977565b5b9060005260206000209060070201600201600084815481106108b7576108b6613977565b5b9060005260206000209060070201600301600085815481106108dc576108db613977565b5b90600052602060002090600702016004016000868154811061090157610900613977565b5b906000526020600020906007020160050184805461091e90613945565b80601f016020809104026020016040519081016040528092919081815260200182805461094a90613945565b80156109975780601f1061096c57610100808354040283529160200191610997565b820191906000526020600020905b81548152906001019060200180831161097a57829003601f168201915b505050505094508380546109aa90613945565b80601f01602080910402602001604051908101604052809291908181526020018280546109d690613945565b8015610a235780601f106109f857610100808354040283529160200191610a23565b820191906000526020600020905b815481529060010190602001808311610a0657829003601f168201915b50505050509350828054610a3690613945565b80601f0160208091040260200160405190810160405280929190818152602001828054610a6290613945565b8015610aaf5780601f10610a8457610100808354040283529160200191610aaf565b820191906000526020600020905b815481529060010190602001808311610a9257829003601f168201915b50505050509250818054610ac290613945565b80601f0160208091040260200160405190810160405280929190818152602001828054610aee90613945565b8015610b3b5780601f10610b1057610100808354040283529160200191610b3b565b820191906000526020600020905b815481529060010190602001808311610b1e57829003601f168201915b50505050509150808054610b4e90613945565b80601f0160208091040260200160405190810160405280929190818152602001828054610b7a90613945565b8015610bc75780601f10610b9c57610100808354040283529160200191610bc7565b820191906000526020600020905b815481529060010190602001808311610baa57829003601f168201915b5050505050905096509650965096509650965050610bf5565b8080610beb906139d5565b91505061078d565b505b91939550919395565b60008210158015610c10575060c88211155b610c4f576040517f08c379a0000000000000000000000000000000000000000000000000000000008152600401610c4690613a6a565b60405180910390fd5b60008110158015610c61575060c88111155b610ca0576040517f08c379a0000000000000000000000000000000000000000000000000000000008152600401610c9790613ad6565b60405180910390fd5b60026040518060c001604052808773ffffffffffffffffffffffffffffffffffffffff1681526020018673ffffffffffffffffffffffffffffffffffffffff1681526020018581526020018481526020018381526020018385610d039190613af6565b815250908060018154018082558091505060019003906000526020600020906006020160009091909190915060008201518160000160006101000a81548173ffffffffffffffffffffffffffffffffffffffff021916908373ffffffffffffffffffffffffffffffffffffffff16021790555060208201518160010160006101000a81548173ffffffffffffffffffffffffffffffffffffffff021916908373ffffffffffffffffffffffffffffffffffffffff1602179055506040820151816002019080519060200190610dd9929190612dcc565b50606082015181600301556080820151816004015560a0820151816005015550505050505050565b600080600090505b600080549050811015610ef7578373ffffffffffffffffffffffffffffffffffffffff1660008281548110610e4157610e40613977565b5b906000526020600020906007020160000160009054906101000a900473ffffffffffffffffffffffffffffffffffffffff1673ffffffffffffffffffffffffffffffffffffffff16148015610ed55750828051906020012060008281548110610ead57610eac613977565b5b9060005260206000209060070201600601604051610ecb9190613beb565b6040518091039020145b15610ee4576001915050610ef9565b8080610eef906139d5565b915050610e09565b505b92915050565b600080600090505b600080549050811015610faa578273ffffffffffffffffffffffffffffffffffffffff1660008281548110610f3f57610f3e613977565b5b906000526020600020906007020160000160009054906101000a900473ffffffffffffffffffffffffffffffffffffffff1673ffffffffffffffffffffffffffffffffffffffff161415610f97576001915050610fac565b8080610fa2906139d5565b915050610f07565b505b919050565b60028181548110610fc157600080fd5b90600052602060002090600602016000915090508060000160009054906101000a900473ffffffffffffffffffffffffffffffffffffffff16908060010160009054906101000a900473ffffffffffffffffffffffffffffffffffffffff169080600201805461103090613945565b80601f016020809104026020016040519081016040528092919081815260200182805461105c90613945565b80156110a95780601f1061107e576101008083540402835291602001916110a9565b820191906000526020600020905b81548152906001019060200180831161108c57829003601f168201915b5050505050908060030154908060040154908060050154905086565b606080606080606080600060018054905067ffffffffffffffff8111156110ef576110ee613140565b5b60405190808252806020026020018201604052801561111d5781602001602082028036833780820191505090505b509050600060018054905067ffffffffffffffff81111561114157611140613140565b5b60405190808252806020026020018201604052801561116f5781602001602082028036833780820191505090505b509050600060018054905067ffffffffffffffff81111561119357611192613140565b5b6040519080825280602002602001820160405280156111c657816020015b60608152602001906001900390816111b15790505b509050600060018054905067ffffffffffffffff8111156111ea576111e9613140565b5b6040519080825280602002602001820160405280156112185781602001602082028036833780820191505090505b509050600060018054905067ffffffffffffffff81111561123c5761123b613140565b5b60405190808252806020026020018201604052801561126a5781602001602082028036833780820191505090505b509050600060018054905067ffffffffffffffff81111561128e5761128d613140565b5b6040519080825280602002602001820160405280156112bc5781602001602082028036833780820191505090505b50905060005b60018054905081101561161d578d73ffffffffffffffffffffffffffffffffffffffff16600182815481106112fa576112f9613977565b5b906000526020600020906006020160000160009054906101000a900473ffffffffffffffffffffffffffffffffffffffff1673ffffffffffffffffffffffffffffffffffffffff16141561160a576001818154811061135c5761135b613977565b5b906000526020600020906006020160000160009054906101000a900473ffffffffffffffffffffffffffffffffffffffff168782815181106113a1576113a0613977565b5b602002602001019073ffffffffffffffffffffffffffffffffffffffff16908173ffffffffffffffffffffffffffffffffffffffff1681525050600181815481106113ef576113ee613977565b5b906000526020600020906006020160010160009054906101000a900473ffffffffffffffffffffffffffffffffffffffff1686828151811061143457611433613977565b5b602002602001019073ffffffffffffffffffffffffffffffffffffffff16908173ffffffffffffffffffffffffffffffffffffffff16815250506001818154811061148257611481613977565b5b9060005260206000209060060201600201805461149e90613945565b80601f01602080910402602001604051908101604052809291908181526020018280546114ca90613945565b80156115175780601f106114ec57610100808354040283529160200191611517565b820191906000526020600020905b8154815290600101906020018083116114fa57829003601f168201915b505050505085828151811061152f5761152e613977565b5b60200260200101819052506001818154811061154e5761154d613977565b5b90600052602060002090600602016003015484828151811061157357611572613977565b5b6020026020010181815250506001818154811061159357611592613977565b5b9060005260206000209060060201600401548382815181106115b8576115b7613977565b5b602002602001018181525050600181815481106115d8576115d7613977565b5b9060005260206000209060060201600501548282815181106115fd576115fc613977565b5b6020026020010181815250505b8080611615906139d5565b9150506112c2565b508585858585859b509b509b509b509b509b5050505050505091939550919395565b60608060608060608060606000808054905067ffffffffffffffff81111561166a57611669613140565b5b6040519080825280602002602001820160405280156116985781602001602082028036833780820191505090505b5090506000808054905067ffffffffffffffff8111156116bb576116ba613140565b5b6040519080825280602002602001820160405280156116ee57816020015b60608152602001906001900390816116d95790505b5090506000808054905067ffffffffffffffff81111561171157611710613140565b5b60405190808252806020026020018201604052801561174457816020015b606081526020019060019003908161172f5790505b5090506000808054905067ffffffffffffffff81111561176757611766613140565b5b60405190808252806020026020018201604052801561179a57816020015b60608152602001906001900390816117855790505b5090506000808054905067ffffffffffffffff8111156117bd576117bc613140565b5b6040519080825280602002602001820160405280156117f057816020015b60608152602001906001900390816117db5790505b5090506000808054905067ffffffffffffffff81111561181357611812613140565b5b60405190808252806020026020018201604052801561184657816020015b60608152602001906001900390816118315790505b5090506000808054905067ffffffffffffffff81111561186957611868613140565b5b60405190808252806020026020018201604052801561189c57816020015b60608152602001906001900390816118875790505b50905060005b600080549050811015611e1d57600081815481106118c3576118c2613977565b5b906000526020600020906007020160000160009054906101000a900473ffffffffffffffffffffffffffffffffffffffff1688828151811061190857611907613977565b5b602002602001019073ffffffffffffffffffffffffffffffffffffffff16908173ffffffffffffffffffffffffffffffffffffffff16815250506000818154811061195657611955613977565b5b9060005260206000209060070201600101805461197290613945565b80601f016020809104026020016040519081016040528092919081815260200182805461199e90613945565b80156119eb5780601f106119c0576101008083540402835291602001916119eb565b820191906000526020600020905b8154815290600101906020018083116119ce57829003601f168201915b5050505050878281518110611a0357611a02613977565b5b602002602001018190525060008181548110611a2257611a21613977565b5b90600052602060002090600702016002018054611a3e90613945565b80601f0160208091040260200160405190810160405280929190818152602001828054611a6a90613945565b8015611ab75780601f10611a8c57610100808354040283529160200191611ab7565b820191906000526020600020905b815481529060010190602001808311611a9a57829003601f168201915b5050505050868281518110611acf57611ace613977565b5b602002602001018190525060008181548110611aee57611aed613977565b5b90600052602060002090600702016003018054611b0a90613945565b80601f0160208091040260200160405190810160405280929190818152602001828054611b3690613945565b8015611b835780601f10611b5857610100808354040283529160200191611b83565b820191906000526020600020905b815481529060010190602001808311611b6657829003601f168201915b5050505050858281518110611b9b57611b9a613977565b5b602002602001018190525060008181548110611bba57611bb9613977565b5b90600052602060002090600702016004018054611bd690613945565b80601f0160208091040260200160405190810160405280929190818152602001828054611c0290613945565b8015611c4f5780601f10611c2457610100808354040283529160200191611c4f565b820191906000526020600020905b815481529060010190602001808311611c3257829003601f168201915b5050505050848281518110611c6757611c66613977565b5b602002602001018190525060008181548110611c8657611c85613977565b5b90600052602060002090600702016005018054611ca290613945565b80601f0160208091040260200160405190810160405280929190818152602001828054611cce90613945565b8015611d1b5780601f10611cf057610100808354040283529160200191611d1b565b820191906000526020600020905b815481529060010190602001808311611cfe57829003601f168201915b5050505050838281518110611d3357611d32613977565b5b602002602001018190525060008181548110611d5257611d51613977565b5b90600052602060002090600702016006018054611d6e90613945565b80601f0160208091040260200160405190810160405280929190818152602001828054611d9a90613945565b8015611de75780601f10611dbc57610100808354040283529160200191611de7565b820191906000526020600020905b815481529060010190602001808311611dca57829003601f168201915b5050505050828281518110611dff57611dfe613977565b5b60200260200101819052508080611e15906139d5565b9150506118a2565b50868686868686869d509d509d509d509d509d509d505050505050505090919293949596565b606080606080606080600060028054905067ffffffffffffffff811115611e6d57611e6c613140565b5b604051908082528060200260200182016040528015611e9b5781602001602082028036833780820191505090505b509050600060028054905067ffffffffffffffff811115611ebf57611ebe613140565b5b604051908082528060200260200182016040528015611eed5781602001602082028036833780820191505090505b509050600060028054905067ffffffffffffffff811115611f1157611f10613140565b5b604051908082528060200260200182016040528015611f4457816020015b6060815260200190600190039081611f2f5790505b509050600060028054905067ffffffffffffffff811115611f6857611f67613140565b5b604051908082528060200260200182016040528015611f965781602001602082028036833780820191505090505b509050600060028054905067ffffffffffffffff811115611fba57611fb9613140565b5b604051908082528060200260200182016040528015611fe85781602001602082028036833780820191505090505b509050600060028054905067ffffffffffffffff81111561200c5761200b613140565b5b60405190808252806020026020018201604052801561203a5781602001602082028036833780820191505090505b50905060005b60028054905081101561239b578d73ffffffffffffffffffffffffffffffffffffffff166002828154811061207857612077613977565b5b906000526020600020906006020160000160009054906101000a900473ffffffffffffffffffffffffffffffffffffffff1673ffffffffffffffffffffffffffffffffffffffff16141561238857600281815481106120da576120d9613977565b5b906000526020600020906006020160000160009054906101000a900473ffffffffffffffffffffffffffffffffffffffff1687828151811061211f5761211e613977565b5b602002602001019073ffffffffffffffffffffffffffffffffffffffff16908173ffffffffffffffffffffffffffffffffffffffff16815250506002818154811061216d5761216c613977565b5b906000526020600020906006020160010160009054906101000a900473ffffffffffffffffffffffffffffffffffffffff168682815181106121b2576121b1613977565b5b602002602001019073ffffffffffffffffffffffffffffffffffffffff16908173ffffffffffffffffffffffffffffffffffffffff168152505060028181548110612200576121ff613977565b5b9060005260206000209060060201600201805461221c90613945565b80601f016020809104026020016040519081016040528092919081815260200182805461224890613945565b80156122955780601f1061226a57610100808354040283529160200191612295565b820191906000526020600020905b81548152906001019060200180831161227857829003601f168201915b50505050508582815181106122ad576122ac613977565b5b6020026020010181905250600281815481106122cc576122cb613977565b5b9060005260206000209060060201600301548482815181106122f1576122f0613977565b5b6020026020010181815250506002818154811061231157612310613977565b5b90600052602060002090600602016004015483828151811061233657612335613977565b5b6020026020010181815250506002818154811061235657612355613977565b5b90600052602060002090600602016005015482828151811061237b5761237a613977565b5b6020026020010181815250505b8080612393906139d5565b915050612040565b508585858585859b509b509b509b509b509b5050505050505091939550919395565b600080600060028054905067ffffffffffffffff8111156123e1576123e0613140565b5b60405190808252806020026020018201604052801561240f5781602001602082028036833780820191505090505b50905060005b6002805490508110156124f4578473ffffffffffffffffffffffffffffffffffffffff166002828154811061244d5761244c613977565b5b906000526020600020906006020160010160009054906101000a900473ffffffffffffffffffffffffffffffffffffffff1673ffffffffffffffffffffffffffffffffffffffff1614156124e157600281815481106124af576124ae613977565b5b9060005260206000209060060201600501548282815181106124d4576124d3613977565b5b6020026020010181815250505b80806124ec906139d5565b915050612415565b508060008151811061250957612508613977565b5b602002602001015191506000600190505b81518110156125765781818151811061253657612535613977565b5b60200260200101518310156125635781818151811061255857612557613977565b5b602002602001015192505b808061256e906139d5565b91505061251a565b5083925050915091565b6001818154811061259057600080fd5b90600052602060002090600602016000915090508060000160009054906101000a900473ffffffffffffffffffffffffffffffffffffffff16908060010160009054906101000a900473ffffffffffffffffffffffffffffffffffffffff16908060020180546125ff90613945565b80601f016020809104026020016040519081016040528092919081815260200182805461262b90613945565b80156126785780601f1061264d57610100808354040283529160200191612678565b820191906000526020600020905b81548152906001019060200180831161265b57829003601f168201915b5050505050908060030154908060040154908060050154905086565b600080600060018054905067ffffffffffffffff8111156126b8576126b7613140565b5b6040519080825280602002602001820160405280156126e65781602001602082028036833780820191505090505b50905060005b6001805490508110156127cb578473ffffffffffffffffffffffffffffffffffffffff166001828154811061272457612723613977565b5b906000526020600020906006020160010160009054906101000a900473ffffffffffffffffffffffffffffffffffffffff1673ffffffffffffffffffffffffffffffffffffffff1614156127b8576001818154811061278657612785613977565b5b9060005260206000209060060201600501548282815181106127ab576127aa613977565b5b6020026020010181815250505b80806127c3906139d5565b9150506126ec565b50806000815181106127e0576127df613977565b5b602002602001015191506000600190505b815181101561284d5781818151811061280d5761280c613977565b5b602002602001015183101561283a5781818151811061282f5761282e613977565b5b602002602001015192505b8080612845906139d5565b9150506127f1565b5083925050915091565b6000821015801561286a57506101ef8211155b6128a9576040517f08c379a00000000000000000000000000000000000000000000000000000000081526004016128a090613c4e565b60405180910390fd5b600081101580156128bc57506101ef8111155b6128fb576040517f08c379a00000000000000000000000000000000000000000000000000000000081526004016128f290613cba565b60405180910390fd5b60016040518060c001604052808773ffffffffffffffffffffffffffffffffffffffff1681526020018673ffffffffffffffffffffffffffffffffffffffff168152602001858152602001848152602001838152602001838561295e9190613af6565b815250908060018154018082558091505060019003906000526020600020906006020160009091909190915060008201518160000160006101000a81548173ffffffffffffffffffffffffffffffffffffffff021916908373ffffffffffffffffffffffffffffffffffffffff16021790555060208201518160010160006101000a81548173ffffffffffffffffffffffffffffffffffffffff021916908373ffffffffffffffffffffffffffffffffffffffff1602179055506040820151816002019080519060200190612a34929190612dcc565b50606082015181600301556080820151816004015560a0820151816005015550505050505050565b60006040518060e001604052808973ffffffffffffffffffffffffffffffffffffffff16815260200188815260200187815260200186815260200185815260200184815260200183815250908060018154018082558091505060019003906000526020600020906007020160009091909190915060008201518160000160006101000a81548173ffffffffffffffffffffffffffffffffffffffff021916908373ffffffffffffffffffffffffffffffffffffffff1602179055506020820151816001019080519060200190612b33929190612dcc565b506040820151816002019080519060200190612b50929190612dcc565b506060820151816003019080519060200190612b6d929190612dcc565b506080820151816004019080519060200190612b8a929190612dcc565b5060a0820151816005019080519060200190612ba7929190612dcc565b5060c0820151816006019080519060200190612bc4929190612dcc565b50505050505050505050565b600080600090505b600180549050811015612cc6578373ffffffffffffffffffffffffffffffffffffffff1660018281548110612c1057612c0f613977565b5b906000526020600020906006020160010160009054906101000a900473ffffffffffffffffffffffffffffffffffffffff1673ffffffffffffffffffffffffffffffffffffffff16148015612ca45750828051906020012060018281548110612c7c57612c7b613977565b5b9060005260206000209060060201600201604051612c9a9190613beb565b6040518091039020145b15612cb3576001915050612cc8565b8080612cbe906139d5565b915050612bd8565b505b92915050565b600080600090505b600280549050811015612dc4578373ffffffffffffffffffffffffffffffffffffffff1660028281548110612d0e57612d0d613977565b5b906000526020600020906006020160010160009054906101000a900473ffffffffffffffffffffffffffffffffffffffff1673ffffffffffffffffffffffffffffffffffffffff16148015612da25750828051906020012060028281548110612d7a57612d79613977565b5b9060005260206000209060060201600201604051612d989190613beb565b6040518091039020145b15612db1576001915050612dc6565b8080612dbc906139d5565b915050612cd6565b505b92915050565b828054612dd890613945565b90600052602060002090601f016020900481019282612dfa5760008555612e41565b82601f10612e1357805160ff1916838001178555612e41565b82800160010185558215612e41579182015b82811115612e40578251825591602001919060010190612e25565b5b509050612e4e9190612e52565b5090565b5b80821115612e6b576000816000905550600101612e53565b5090565b6000604051905090565b600080fd5b600080fd5b6000819050919050565b612e9681612e83565b8114612ea157600080fd5b50565b600081359050612eb381612e8d565b92915050565b600060208284031215612ecf57612ece612e79565b5b6000612edd84828501612ea4565b91505092915050565b600073ffffffffffffffffffffffffffffffffffffffff82169050919050565b6000612f1182612ee6565b9050919050565b612f2181612f06565b82525050565b600081519050919050565b600082825260208201905092915050565b60005b83811015612f61578082015181840152602081019050612f46565b83811115612f70576000848401525b50505050565b6000601f19601f8301169050919050565b6000612f9282612f27565b612f9c8185612f32565b9350612fac818560208601612f43565b612fb581612f76565b840191505092915050565b600060e082019050612fd5600083018a612f18565b8181036020830152612fe78189612f87565b90508181036040830152612ffb8188612f87565b9050818103606083015261300f8187612f87565b905081810360808301526130238186612f87565b905081810360a08301526130378185612f87565b905081810360c083015261304b8184612f87565b905098975050505050505050565b61306281612f06565b811461306d57600080fd5b50565b60008135905061307f81613059565b92915050565b60006020828403121561309b5761309a612e79565b5b60006130a984828501613070565b91505092915050565b600060c0820190506130c76000830189612f18565b81810360208301526130d98188612f87565b905081810360408301526130ed8187612f87565b905081810360608301526131018186612f87565b905081810360808301526131158185612f87565b905081810360a08301526131298184612f87565b9050979650505050505050565b600080fd5b600080fd5b7f4e487b7100000000000000000000000000000000000000000000000000000000600052604160045260246000fd5b61317882612f76565b810181811067ffffffffffffffff8211171561319757613196613140565b5b80604052505050565b60006131aa612e6f565b90506131b6828261316f565b919050565b600067ffffffffffffffff8211156131d6576131d5613140565b5b6131df82612f76565b9050602081019050919050565b82818337600083830152505050565b600061320e613209846131bb565b6131a0565b90508281526020810184848401111561322a5761322961313b565b5b6132358482856131ec565b509392505050565b600082601f83011261325257613251613136565b5b81356132628482602086016131fb565b91505092915050565b600080600080600060a0868803121561328757613286612e79565b5b600061329588828901613070565b95505060206132a688828901613070565b945050604086013567ffffffffffffffff8111156132c7576132c6612e7e565b5b6132d38882890161323d565b93505060606132e488828901612ea4565b92505060806132f588828901612ea4565b9150509295509295909350565b6000806040838503121561331957613318612e79565b5b600061332785828601613070565b925050602083013567ffffffffffffffff81111561334857613347612e7e565b5b6133548582860161323d565b9150509250929050565b61336781612e83565b82525050565b6000602082019050613382600083018461335e565b92915050565b600060c08201905061339d6000830189612f18565b6133aa6020830188612f18565b81810360408301526133bc8187612f87565b90506133cb606083018661335e565b6133d8608083018561335e565b6133e560a083018461335e565b979650505050505050565b600081519050919050565b600082825260208201905092915050565b6000819050602082019050919050565b61342581612f06565b82525050565b6000613437838361341c565b60208301905092915050565b6000602082019050919050565b600061345b826133f0565b61346581856133fb565b93506134708361340c565b8060005b838110156134a1578151613488888261342b565b975061349383613443565b925050600181019050613474565b5085935050505092915050565b600081519050919050565b600082825260208201905092915050565b6000819050602082019050919050565b600082825260208201905092915050565b60006134f682612f27565b61350081856134da565b9350613510818560208601612f43565b61351981612f76565b840191505092915050565b600061353083836134eb565b905092915050565b6000602082019050919050565b6000613550826134ae565b61355a81856134b9565b93508360208202850161356c856134ca565b8060005b858110156135a857848403895281516135898582613524565b945061359483613538565b925060208a01995050600181019050613570565b50829750879550505050505092915050565b600081519050919050565b600082825260208201905092915050565b6000819050602082019050919050565b6135ef81612e83565b82525050565b600061360183836135e6565b60208301905092915050565b6000602082019050919050565b6000613625826135ba565b61362f81856135c5565b935061363a836135d6565b8060005b8381101561366b57815161365288826135f5565b975061365d8361360d565b92505060018101905061363e565b5085935050505092915050565b600060c08201905081810360008301526136928189613450565b905081810360208301526136a68188613450565b905081810360408301526136ba8187613545565b905081810360608301526136ce818661361a565b905081810360808301526136e2818561361a565b905081810360a08301526136f6818461361a565b9050979650505050505050565b600060e082019050818103600083015261371d818a613450565b905081810360208301526137318189613545565b905081810360408301526137458188613545565b905081810360608301526137598187613545565b9050818103608083015261376d8186613545565b905081810360a08301526137818185613545565b905081810360c08301526137958184613545565b905098975050505050505050565b60006040820190506137b86000830185612f18565b6137c5602083018461335e565b9392505050565b600080600080600080600060e0888a0312156137eb576137ea612e79565b5b60006137f98a828b01613070565b975050602088013567ffffffffffffffff81111561381a57613819612e7e565b5b6138268a828b0161323d565b965050604088013567ffffffffffffffff81111561384757613846612e7e565b5b6138538a828b0161323d565b955050606088013567ffffffffffffffff81111561387457613873612e7e565b5b6138808a828b0161323d565b945050608088013567ffffffffffffffff8111156138a1576138a0612e7e565b5b6138ad8a828b0161323d565b93505060a088013567ffffffffffffffff8111156138ce576138cd612e7e565b5b6138da8a828b0161323d565b92505060c088013567ffffffffffffffff8111156138fb576138fa612e7e565b5b6139078a828b0161323d565b91505092959891949750929550565b7f4e487b7100000000000000000000000000000000000000000000000000000000600052602260045260246000fd5b6000600282049050600182168061395d57607f821691505b6020821081141561397157613970613916565b5b50919050565b7f4e487b7100000000000000000000000000000000000000000000000000000000600052603260045260246000fd5b7f4e487b7100000000000000000000000000000000000000000000000000000000600052601160045260246000fd5b60006139e082612e83565b91507fffffffffffffffffffffffffffffffffffffffffffffffffffffffffffffffff821415613a1357613a126139a6565b5b600182019050919050565b7f537065616b696e672053636f726520696e636f72726563742e00000000000000600082015250565b6000613a54601983612f32565b9150613a5f82613a1e565b602082019050919050565b60006020820190508181036000830152613a8381613a47565b9050919050565b7f57726974696e672053636f726520696e636f72726563742e0000000000000000600082015250565b6000613ac0601883612f32565b9150613acb82613a8a565b602082019050919050565b60006020820190508181036000830152613aef81613ab3565b9050919050565b6000613b0182612e83565b9150613b0c83612e83565b9250827fffffffffffffffffffffffffffffffffffffffffffffffffffffffffffffffff03821115613b4157613b406139a6565b5b828201905092915050565b600081905092915050565b60008190508160005260206000209050919050565b60008154613b7981613945565b613b838186613b4c565b94506001821660008114613b9e5760018114613baf57613be2565b60ff19831686528186019350613be2565b613bb885613b57565b60005b83811015613bda57815481890152600182019150602081019050613bbb565b838801955050505b50505092915050565b6000613bf78284613b6c565b915081905092915050565b7f4c697374656e696e672053636f726520696e636f72726563742e000000000000600082015250565b6000613c38601a83612f32565b9150613c4382613c02565b602082019050919050565b60006020820190508181036000830152613c6781613c2b565b9050919050565b7f52656164696e672053636f726520696e636f72726563742e0000000000000000600082015250565b6000613ca4601883612f32565b9150613caf82613c6e565b602082019050919050565b60006020820190508181036000830152613cd381613c97565b905091905056fea26469706673582212206122729b2a98ca2b9d8885b009736917c8e145364ea64b13ec7b72a7b2ff57dc64736f6c634300080b0033608060405234801561001057600080fd5b506125c9806100206000396000f3fe608060405234801561001057600080fd5b50600436106100b35760003560e01c8063ae8f00d311610071578063ae8f00d3146101ba578063ce1ec5bb146101d6578063cee5c7f314610207578063dc1e475f14610223578063e83ddcea1461023f578063e9daa70a14610271576100b3565b80624e56cf146100b85780630299779f146100d45780630b5e50ed14610104578063381a3bf7146101365780637aedcde51461016a578063844bb4601461019e575b600080fd5b6100d260048036038101906100cd9190611d49565b6102a3565b005b6100ee60048036038101906100e99190611de8565b610448565b6040516100fb9190611e70565b60405180910390f35b61011e60048036038101906101199190611eb7565b6105c3565b60405161012d93929190611f7b565b60405180910390f35b610150600480360381019061014b9190611fc0565b61072d565b6040516101619594939291906121b7565b60405180910390f35b610184600480360381019061017f9190611eb7565b610d1e565b60405161019595949392919061222d565b60405180910390f35b6101b860048036038101906101b39190611d49565b610f3c565b005b6101d460048036038101906101cf9190611de8565b6110e1565b005b6101f060048036038101906101eb9190611fc0565b611205565b6040516101fe929190612295565b60405180910390f35b610221600480360381019061021c91906122cc565b6114f9565b005b61023d60048036038101906102389190611d49565b6115dd565b005b61025960048036038101906102549190611eb7565b61177d565b60405161026893929190612357565b60405180910390f35b61028b60048036038101906102869190612395565b61187f565b60405161029a93929190612357565b60405180910390f35b60005b600080549050811015610441578473ffffffffffffffffffffffffffffffffffffffff16600082815481106102de576102dd6123d5565b5b906000526020600020906005020160000160009054906101000a900473ffffffffffffffffffffffffffffffffffffffff1673ffffffffffffffffffffffffffffffffffffffff161480156103a357508373ffffffffffffffffffffffffffffffffffffffff1660008281548110610359576103586123d5565b5b906000526020600020906005020160010160009054906101000a900473ffffffffffffffffffffffffffffffffffffffff1673ffffffffffffffffffffffffffffffffffffffff16145b80156103ee57508280519060200120600082815481106103c6576103c56123d5565b5b90600052602060002090600502016002016040516103e49190612504565b6040518091039020145b1561042e578160008281548110610408576104076123d5565b5b9060005260206000209060050201600401908051906020019061042c929190611aee565b505b80806104399061254a565b9150506102a6565b5050505050565b600080600090505b6000805490508110156105ba578473ffffffffffffffffffffffffffffffffffffffff1660008281548110610488576104876123d5565b5b906000526020600020906005020160000160009054906101000a900473ffffffffffffffffffffffffffffffffffffffff1673ffffffffffffffffffffffffffffffffffffffff1614801561054d57508373ffffffffffffffffffffffffffffffffffffffff1660008281548110610503576105026123d5565b5b906000526020600020906005020160010160009054906101000a900473ffffffffffffffffffffffffffffffffffffffff1673ffffffffffffffffffffffffffffffffffffffff16145b801561059857508280519060200120600082815481106105705761056f6123d5565b5b906000526020600020906005020160020160405161058e9190612504565b6040518091039020145b156105a75760019150506105bc565b80806105b29061254a565b915050610450565b505b9392505050565b600181815481106105d357600080fd5b90600052602060002090600302016000915090508060000160009054906101000a900473ffffffffffffffffffffffffffffffffffffffff169080600101805461061c90612433565b80601f016020809104026020016040519081016040528092919081815260200182805461064890612433565b80156106955780601f1061066a57610100808354040283529160200191610695565b820191906000526020600020905b81548152906001019060200180831161067857829003601f168201915b5050505050908060020180546106aa90612433565b80601f01602080910402602001604051908101604052809291908181526020018280546106d690612433565b80156107235780601f106106f857610100808354040283529160200191610723565b820191906000526020600020905b81548152906001019060200180831161070657829003601f168201915b5050505050905083565b60608060608060606000808054905067ffffffffffffffff81111561075557610754611c1e565b5b6040519080825280602002602001820160405280156107835781602001602082028036833780820191505090505b5090506000808054905067ffffffffffffffff8111156107a6576107a5611c1e565b5b6040519080825280602002602001820160405280156107d45781602001602082028036833780820191505090505b5090506000808054905067ffffffffffffffff8111156107f7576107f6611c1e565b5b60405190808252806020026020018201604052801561082a57816020015b60608152602001906001900390816108155790505b5090506000808054905067ffffffffffffffff81111561084d5761084c611c1e565b5b60405190808252806020026020018201604052801561088057816020015b606081526020019060019003908161086b5790505b5090506000808054905067ffffffffffffffff8111156108a3576108a2611c1e565b5b6040519080825280602002602001820160405280156108d657816020015b60608152602001906001900390816108c15790505b50905060005b600080549050811015610d00578b73ffffffffffffffffffffffffffffffffffffffff1660008281548110610914576109136123d5565b5b906000526020600020906005020160010160009054906101000a900473ffffffffffffffffffffffffffffffffffffffff1673ffffffffffffffffffffffffffffffffffffffff161415610ced5760008181548110610976576109756123d5565b5b906000526020600020906005020160000160009054906101000a900473ffffffffffffffffffffffffffffffffffffffff168682815181106109bb576109ba6123d5565b5b602002602001019073ffffffffffffffffffffffffffffffffffffffff16908173ffffffffffffffffffffffffffffffffffffffff168152505060008181548110610a0957610a086123d5565b5b906000526020600020906005020160010160009054906101000a900473ffffffffffffffffffffffffffffffffffffffff16858281518110610a4e57610a4d6123d5565b5b602002602001019073ffffffffffffffffffffffffffffffffffffffff16908173ffffffffffffffffffffffffffffffffffffffff168152505060008181548110610a9c57610a9b6123d5565b5b90600052602060002090600502016002018054610ab890612433565b80601f0160208091040260200160405190810160405280929190818152602001828054610ae490612433565b8015610b315780601f10610b0657610100808354040283529160200191610b31565b820191906000526020600020905b815481529060010190602001808311610b1457829003601f168201915b5050505050848281518110610b4957610b486123d5565b5b602002602001018190525060008181548110610b6857610b676123d5565b5b90600052602060002090600502016003018054610b8490612433565b80601f0160208091040260200160405190810160405280929190818152602001828054610bb090612433565b8015610bfd5780601f10610bd257610100808354040283529160200191610bfd565b820191906000526020600020905b815481529060010190602001808311610be057829003601f168201915b5050505050838281518110610c1557610c146123d5565b5b602002602001018190525060008181548110610c3457610c336123d5565b5b90600052602060002090600502016004018054610c5090612433565b80601f0160208091040260200160405190810160405280929190818152602001828054610c7c90612433565b8015610cc95780601f10610c9e57610100808354040283529160200191610cc9565b820191906000526020600020905b815481529060010190602001808311610cac57829003601f168201915b5050505050828281518110610ce157610ce06123d5565b5b60200260200101819052505b8080610cf89061254a565b9150506108dc565b50848484848499509950995099509950505050505091939590929450565b60008181548110610d2e57600080fd5b90600052602060002090600502016000915090508060000160009054906101000a900473ffffffffffffffffffffffffffffffffffffffff16908060010160009054906101000a900473ffffffffffffffffffffffffffffffffffffffff1690806002018054610d9d90612433565b80601f0160208091040260200160405190810160405280929190818152602001828054610dc990612433565b8015610e165780601f10610deb57610100808354040283529160200191610e16565b820191906000526020600020905b815481529060010190602001808311610df957829003601f168201915b505050505090806003018054610e2b90612433565b80601f0160208091040260200160405190810160405280929190818152602001828054610e5790612433565b8015610ea45780601f10610e7957610100808354040283529160200191610ea4565b820191906000526020600020905b815481529060010190602001808311610e8757829003601f168201915b505050505090806004018054610eb990612433565b80601f0160208091040260200160405190810160405280929190818152602001828054610ee590612433565b8015610f325780601f10610f0757610100808354040283529160200191610f32565b820191906000526020600020905b815481529060010190602001808311610f1557829003601f168201915b5050505050905085565b60005b6000805490508110156110da578473ffffffffffffffffffffffffffffffffffffffff1660008281548110610f7757610f766123d5565b5b906000526020600020906005020160000160009054906101000a900473ffffffffffffffffffffffffffffffffffffffff1673ffffffffffffffffffffffffffffffffffffffff1614801561103c57508373ffffffffffffffffffffffffffffffffffffffff1660008281548110610ff257610ff16123d5565b5b906000526020600020906005020160010160009054906101000a900473ffffffffffffffffffffffffffffffffffffffff1673ffffffffffffffffffffffffffffffffffffffff16145b8015611087575082805190602001206000828154811061105f5761105e6123d5565b5b906000526020600020906005020160020160405161107d9190612504565b6040518091039020145b156110c75781600082815481106110a1576110a06123d5565b5b906000526020600020906005020160040190805190602001906110c5929190611aee565b505b80806110d29061254a565b915050610f3f565b5050505050565b600260405180606001604052808573ffffffffffffffffffffffffffffffffffffffff1681526020018473ffffffffffffffffffffffffffffffffffffffff16815260200183815250908060018154018082558091505060019003906000526020600020906003020160009091909190915060008201518160000160006101000a81548173ffffffffffffffffffffffffffffffffffffffff021916908373ffffffffffffffffffffffffffffffffffffffff16021790555060208201518160010160006101000a81548173ffffffffffffffffffffffffffffffffffffffff021916908373ffffffffffffffffffffffffffffffffffffffff16021790555060408201518160020190805190602001906111fd929190611aee565b505050505050565b606080600060018054905067ffffffffffffffff81111561122957611228611c1e565b5b60405190808252806020026020018201604052801561125c57816020015b60608152602001906001900390816112475790505b509050600060018054905067ffffffffffffffff8111156112805761127f611c1e565b5b6040519080825280602002602001820160405280156112b357816020015b606081526020019060019003908161129e5790505b50905060005b6001805490508110156114eb578573ffffffffffffffffffffffffffffffffffffffff16600182815481106112f1576112f06123d5565b5b906000526020600020906003020160000160009054906101000a900473ffffffffffffffffffffffffffffffffffffffff1673ffffffffffffffffffffffffffffffffffffffff1614156114d85760018181548110611353576113526123d5565b5b9060005260206000209060030201600101805461136f90612433565b80601f016020809104026020016040519081016040528092919081815260200182805461139b90612433565b80156113e85780601f106113bd576101008083540402835291602001916113e8565b820191906000526020600020905b8154815290600101906020018083116113cb57829003601f168201915b5050505050838281518110611400576113ff6123d5565b5b60200260200101819052506001818154811061141f5761141e6123d5565b5b9060005260206000209060030201600201805461143b90612433565b80601f016020809104026020016040519081016040528092919081815260200182805461146790612433565b80156114b45780601f10611489576101008083540402835291602001916114b4565b820191906000526020600020905b81548152906001019060200180831161149757829003601f168201915b50505050508282815181106114cc576114cb6123d5565b5b60200260200101819052505b80806114e39061254a565b9150506112b9565b508181935093505050915091565b600160405180606001604052808573ffffffffffffffffffffffffffffffffffffffff16815260200184815260200183815250908060018154018082558091505060019003906000526020600020906003020160009091909190915060008201518160000160006101000a81548173ffffffffffffffffffffffffffffffffffffffff021916908373ffffffffffffffffffffffffffffffffffffffff16021790555060208201518160010190805190602001906115b8929190611aee565b5060408201518160020190805190602001906115d5929190611aee565b505050505050565b60006040518060a001604052808673ffffffffffffffffffffffffffffffffffffffff1681526020018573ffffffffffffffffffffffffffffffffffffffff1681526020018481526020018381526020016040518060400160405280600981526020017f53637265656e696e670000000000000000000000000000000000000000000000815250815250908060018154018082558091505060019003906000526020600020906005020160009091909190915060008201518160000160006101000a81548173ffffffffffffffffffffffffffffffffffffffff021916908373ffffffffffffffffffffffffffffffffffffffff16021790555060208201518160010160006101000a81548173ffffffffffffffffffffffffffffffffffffffff021916908373ffffffffffffffffffffffffffffffffffffffff160217905550604082015181600201908051906020019061173a929190611aee565b506060820151816003019080519060200190611757929190611aee565b506080820151816004019080519060200190611774929190611aee565b50505050505050565b6002818154811061178d57600080fd5b90600052602060002090600302016000915090508060000160009054906101000a900473ffffffffffffffffffffffffffffffffffffffff16908060010160009054906101000a900473ffffffffffffffffffffffffffffffffffffffff16908060020180546117fc90612433565b80601f016020809104026020016040519081016040528092919081815260200182805461182890612433565b80156118755780601f1061184a57610100808354040283529160200191611875565b820191906000526020600020905b81548152906001019060200180831161185857829003601f168201915b5050505050905083565b600080606060005b600280549050811015611ae5578473ffffffffffffffffffffffffffffffffffffffff16600282815481106118bf576118be6123d5565b5b906000526020600020906003020160010160009054906101000a900473ffffffffffffffffffffffffffffffffffffffff1673ffffffffffffffffffffffffffffffffffffffff1614801561198457508573ffffffffffffffffffffffffffffffffffffffff166002828154811061193a576119396123d5565b5b906000526020600020906003020160000160009054906101000a900473ffffffffffffffffffffffffffffffffffffffff1673ffffffffffffffffffffffffffffffffffffffff16145b15611ad2576002818154811061199d5761199c6123d5565b5b906000526020600020906003020160000160009054906101000a900473ffffffffffffffffffffffffffffffffffffffff16600282815481106119e3576119e26123d5565b5b906000526020600020906003020160010160009054906101000a900473ffffffffffffffffffffffffffffffffffffffff1660028381548110611a2957611a286123d5565b5b9060005260206000209060030201600201808054611a4690612433565b80601f0160208091040260200160405190810160405280929190818152602001828054611a7290612433565b8015611abf5780601f10611a9457610100808354040283529160200191611abf565b820191906000526020600020905b815481529060010190602001808311611aa257829003601f168201915b5050505050905093509350935050611ae7565b8080611add9061254a565b915050611887565b505b9250925092565b828054611afa90612433565b90600052602060002090601f016020900481019282611b1c5760008555611b63565b82601f10611b3557805160ff1916838001178555611b63565b82800160010185558215611b63579182015b82811115611b62578251825591602001919060010190611b47565b5b509050611b709190611b74565b5090565b5b80821115611b8d576000816000905550600101611b75565b5090565b6000604051905090565b600080fd5b600080fd5b600073ffffffffffffffffffffffffffffffffffffffff82169050919050565b6000611bd082611ba5565b9050919050565b611be081611bc5565b8114611beb57600080fd5b50565b600081359050611bfd81611bd7565b92915050565b600080fd5b600080fd5b6000601f19601f8301169050919050565b7f4e487b7100000000000000000000000000000000000000000000000000000000600052604160045260246000fd5b611c5682611c0d565b810181811067ffffffffffffffff82111715611c7557611c74611c1e565b5b80604052505050565b6000611c88611b91565b9050611c948282611c4d565b919050565b600067ffffffffffffffff821115611cb457611cb3611c1e565b5b611cbd82611c0d565b9050602081019050919050565b82818337600083830152505050565b6000611cec611ce784611c99565b611c7e565b905082815260208101848484011115611d0857611d07611c08565b5b611d13848285611cca565b509392505050565b600082601f830112611d3057611d2f611c03565b5b8135611d40848260208601611cd9565b91505092915050565b60008060008060808587031215611d6357611d62611b9b565b5b6000611d7187828801611bee565b9450506020611d8287828801611bee565b935050604085013567ffffffffffffffff811115611da357611da2611ba0565b5b611daf87828801611d1b565b925050606085013567ffffffffffffffff811115611dd057611dcf611ba0565b5b611ddc87828801611d1b565b91505092959194509250565b600080600060608486031215611e0157611e00611b9b565b5b6000611e0f86828701611bee565b9350506020611e2086828701611bee565b925050604084013567ffffffffffffffff811115611e4157611e40611ba0565b5b611e4d86828701611d1b565b9150509250925092565b6000819050919050565b611e6a81611e57565b82525050565b6000602082019050611e856000830184611e61565b92915050565b611e9481611e57565b8114611e9f57600080fd5b50565b600081359050611eb181611e8b565b92915050565b600060208284031215611ecd57611ecc611b9b565b5b6000611edb84828501611ea2565b91505092915050565b611eed81611bc5565b82525050565b600081519050919050565b600082825260208201905092915050565b60005b83811015611f2d578082015181840152602081019050611f12565b83811115611f3c576000848401525b50505050565b6000611f4d82611ef3565b611f578185611efe565b9350611f67818560208601611f0f565b611f7081611c0d565b840191505092915050565b6000606082019050611f906000830186611ee4565b8181036020830152611fa28185611f42565b90508181036040830152611fb68184611f42565b9050949350505050565b600060208284031215611fd657611fd5611b9b565b5b6000611fe484828501611bee565b91505092915050565b600081519050919050565b600082825260208201905092915050565b6000819050602082019050919050565b61202281611bc5565b82525050565b60006120348383612019565b60208301905092915050565b6000602082019050919050565b600061205882611fed565b6120628185611ff8565b935061206d83612009565b8060005b8381101561209e5781516120858882612028565b975061209083612040565b925050600181019050612071565b5085935050505092915050565b600081519050919050565b600082825260208201905092915050565b6000819050602082019050919050565b600082825260208201905092915050565b60006120f382611ef3565b6120fd81856120d7565b935061210d818560208601611f0f565b61211681611c0d565b840191505092915050565b600061212d83836120e8565b905092915050565b6000602082019050919050565b600061214d826120ab565b61215781856120b6565b935083602082028501612169856120c7565b8060005b858110156121a557848403895281516121868582612121565b945061219183612135565b925060208a0199505060018101905061216d565b50829750879550505050505092915050565b600060a08201905081810360008301526121d1818861204d565b905081810360208301526121e5818761204d565b905081810360408301526121f98186612142565b9050818103606083015261220d8185612142565b905081810360808301526122218184612142565b90509695505050505050565b600060a0820190506122426000830188611ee4565b61224f6020830187611ee4565b81810360408301526122618186611f42565b905081810360608301526122758185611f42565b905081810360808301526122898184611f42565b90509695505050505050565b600060408201905081810360008301526122af8185612142565b905081810360208301526122c38184612142565b90509392505050565b6000806000606084860312156122e5576122e4611b9b565b5b60006122f386828701611bee565b935050602084013567ffffffffffffffff81111561231457612313611ba0565b5b61232086828701611d1b565b925050604084013567ffffffffffffffff81111561234157612340611ba0565b5b61234d86828701611d1b565b9150509250925092565b600060608201905061236c6000830186611ee4565b6123796020830185611ee4565b818103604083015261238b8184611f42565b9050949350505050565b600080604083850312156123ac576123ab611b9b565b5b60006123ba85828601611bee565b92505060206123cb85828601611bee565b9150509250929050565b7f4e487b7100000000000000000000000000000000000000000000000000000000600052603260045260246000fd5b7f4e487b7100000000000000000000000000000000000000000000000000000000600052602260045260246000fd5b6000600282049050600182168061244b57607f821691505b6020821081141561245f5761245e612404565b5b50919050565b600081905092915050565b60008190508160005260206000209050919050565b6000815461249281612433565b61249c8186612465565b945060018216600081146124b757600181146124c8576124fb565b60ff198316865281860193506124fb565b6124d185612470565b60005b838110156124f3578154818901526001820191506020810190506124d4565b838801955050505b50505092915050565b60006125108284612485565b915081905092915050565b7f4e487b7100000000000000000000000000000000000000000000000000000000600052601160045260246000fd5b600061255582611e57565b91507fffffffffffffffffffffffffffffffffffffffffffffffffffffffffffffffff8214156125885761258761251b565b5b60018201905091905056fea264697066735822122046e760f855caaea8b54ff025a4727c983a0e576b9e122beae6840f21c74cfbb264736f6c634300080b0033",
  "immutableReferences": {},
  "source": "// SPDX-License-Identifier: MIT\r\npragma solidity >=0.4.22 <0.9.0;\r\n\r\n// Import cc contract cn thit  s dng\r\nimport \"./SmartCV_ListStudent.sol\";\r\nimport \"./SmartCV_ListBusiness.sol\";\r\nimport \"./SmartCV_ListIIG.sol\";\r\nimport \"./SmartCV_Apply.sol\";\r\n\r\n// CV dnh cho sinh vin\r\ncontract StudentBusiness {\r\n\r\n    // Khai contract  import  s dng cc function  contract \r\n    ListStudent listStudent = new ListStudent();\r\n    ListBusiness listBusiness = new ListBusiness();\r\n    ListIIG listIIG = new ListIIG();\r\n    ApplyCV applyCV = new ApplyCV();\r\n\r\n    // ======================================\r\n    // ====== Chc nng cho sinh vin =======\r\n    // ======================================\r\n\r\n    // Chc nng thm thng tin sinh vin (ng k)\r\n    function addStudentProfile (\r\n        address _studentOwner,\r\n        string memory _name,\r\n        string memory _birthDay,\r\n        string memory _professionalTitle,\r\n        string memory _email,\r\n        string memory _github,\r\n        string memory _linkedin,\r\n        string memory _password) public {\r\n            listStudent.addSV(_studentOwner, _name, _birthDay, _professionalTitle, _email, _github, _linkedin, _password);\r\n    }\r\n\r\n    // Chc nng ly thng tin ca sinh vin\r\n    function getStudentProfile(address _studentOwner) public view returns(\r\n        address studentOwner, \r\n        string memory name, \r\n        string memory birthDay, \r\n        string memory professionalTitle, \r\n        string memory email, \r\n        string memory github, \r\n        string memory linkedin,\r\n        string memory password) {\r\n            return listStudent.getProfile(_studentOwner);\r\n    }\r\n\r\n    // Chc nng kim tra ti khon sinh vin c tn ti hay khng? (ng nhp)\r\n    function checkStudentProfile(\r\n        address _studentOwner, \r\n        string memory _password) public view returns(uint x) {\r\n            return listStudent.checkSV(_studentOwner, _password);\r\n    }\r\n\r\n    // Chc nng kim tra a ch sinh vin c tn ti hay khng?\r\n    function checkExistStudent(address _studentOwner) public view returns(uint x) {\r\n            return listStudent.checkExistSV(_studentOwner);\r\n    }\r\n\r\n    // Chc nng thm thng tin k nng ca sinh vin\r\n    function addStudentSkill(\r\n        address _studentOwner,\r\n        string memory _title, \r\n        uint _level) public {\r\n            listStudent.addSkill(_studentOwner, _title, _level);\r\n    }\r\n\r\n    // Chc nng kim tra k nng ca sinh vin c tn ti hay khng?\r\n    function checkStudentSkill(\r\n        address _studentOwner,\r\n        string memory _title) public view returns(uint x) {\r\n            return listStudent.checkSkill(_studentOwner, _title);\r\n    }\r\n\r\n    // Chc nng kim tra s lng k nng ca sinh vin\r\n    function checkNumStudentSkill(\r\n        address _studentOwner) public view returns(uint x) {\r\n            uint _count = listStudent.checkNumSkill(_studentOwner);\r\n            if(_count > 10){\r\n                return 1;\r\n            }\r\n    }\r\n\r\n    // Chc nng ly thng tin k nng ca sinh vin\r\n    function getStudentSkill(address _studentOwner) public view returns(\r\n        string[] memory titles,\r\n        uint[] memory levels) {\r\n        return listStudent.getSkill(_studentOwner);\r\n    }\r\n\r\n    // Chc nng ly danh sch doanh nghip\r\n    function getListBusiness() public view returns(\r\n        address[] memory,\r\n        string[] memory,\r\n        string[] memory,\r\n        string[] memory,\r\n        string[] memory,\r\n        string[] memory,\r\n        string[] memory,\r\n        string[] memory) {\r\n        return listBusiness.getListDN();\r\n    }\r\n\r\n    // Chc nng ly thng tin tuyn dng ca doanh nghip\r\n    function getRecruit(address _businessOwner) public view returns(\r\n        string[] memory,\r\n        string[] memory) {\r\n        return applyCV.getRecruit(_businessOwner);\r\n    }\r\n\r\n    // Chc nng gi CV ti doanh nghip\r\n    function sendCV(\r\n        address _studentOwner, \r\n        address _businessOwner, \r\n        string memory _jobTitle, \r\n        string memory _coverLetter) public {\r\n            applyCV.addCV(_studentOwner, _businessOwner, _jobTitle, _coverLetter);\r\n    }\r\n\r\n    // Chc nng kim tra sinh vin  np CV cha?\r\n    function checkCV(\r\n        address _studentOwner, \r\n        address _businessOwner, \r\n        string memory _jobTitle) public view returns(uint x) {\r\n            return applyCV.checkCV(_studentOwner, _businessOwner, _jobTitle);\r\n    }\r\n\r\n    // Chc nng xem nh gi thc tp ca doanh nghip\r\n    function getReview(\r\n        address _studentOwner, \r\n        address _businessOwner) public view returns(\r\n            address studentOwner, \r\n            address businessOwner, \r\n            string memory content) {\r\n                return applyCV.getReview(_studentOwner, _businessOwner);\r\n    }\r\n\r\n    // ======================================\r\n    // ===== Chc nng cho doanh nghip =====\r\n    // ======================================\r\n\r\n    // Chc nng thm thng tin doanh nghip (ng k)\r\n    function addBusinessProfile(\r\n        address _businessOwner,\r\n        string memory _name,\r\n        string memory _country,\r\n        string memory _facebook,\r\n        string memory _website,\r\n        string memory _linkedin,\r\n        string memory _focusArea,\r\n        string memory _password) public {\r\n            listBusiness.addDN(_businessOwner, _name, _country, _facebook, _website, _linkedin, _focusArea, _password);\r\n    }\r\n\r\n    // Chc nng ly thng tin ca doanh nghip\r\n    function getBusinessProfile(address _businessOwner) public view returns(\r\n        address businessOwner, \r\n        string memory name, \r\n        string memory country, \r\n        string memory facebook, \r\n        string memory website, \r\n        string memory linkedin, \r\n        string memory focusArea) {\r\n            return listBusiness.getProfile(_businessOwner);\r\n    }\r\n\r\n    // Chc nng kim tra ti khon doanh nghip c tn ti hay khng? (ng nhp)\r\n    function checkBusinessProfile(\r\n        address _businessOwner, \r\n        string memory _password) public view returns(uint) {\r\n            return listBusiness.checkDN(_businessOwner, _password);\r\n    }\r\n\r\n    // Chc nng kim tra a ch doanh nghip c tn ti hay khng?\r\n    function checkExistBusiness(address _businessOwner) public view returns(uint x) {\r\n            return listBusiness.checkExistDN(_businessOwner);\r\n    }\r\n\r\n    // Chc nng ly danh sch CV  np vo doanh nghip\r\n    function getListCV(address _businessOwner) public view returns(\r\n        address[] memory, \r\n        address[] memory, \r\n        string[] memory, \r\n        string[] memory,\r\n        string[] memory) {\r\n            return applyCV.getCV(_businessOwner);\r\n    }\r\n    \r\n    //Chc nng duyt CV vo vng interview\r\n    function interviewCV(\r\n        address _studentOwner, \r\n        address _businessOwner, \r\n        string memory _jobTitle,\r\n        string memory _statusCV) public {\r\n            applyCV.interviewCV(_studentOwner, _businessOwner, _jobTitle, _statusCV);\r\n    }\r\n\r\n    //Chc nng duyt CV vo vng onboard\r\n    function onboardCV(\r\n        address _studentOwner, \r\n        address _businessOwner, \r\n        string memory _jobTitle,\r\n        string memory _statusCV) public {\r\n            applyCV.onboardCV(_studentOwner, _businessOwner, _jobTitle, _statusCV);\r\n    }\r\n\r\n    // Chc nng thm thng tin tuyn dng ca doanh nghip\r\n    function addRecruit(\r\n        address _businessOwner,\r\n        string memory _jobTitle,\r\n        string memory _jobDescription) public {\r\n            applyCV.addRecruit(_businessOwner, _jobTitle, _jobDescription);\r\n    }\r\n\r\n    // Chc nng nh gi thc tp cho sinh vin\r\n    function sendReview(\r\n        address _studentOwner, \r\n        address _businessOwner, \r\n        string memory _content) public {\r\n            applyCV.addReview(_studentOwner, _businessOwner, _content);\r\n    }\r\n\r\n    // ======================================\r\n    // ========= Chc nng cho IIG ==========\r\n    // ======================================\r\n\r\n    // Chc nng thm thng tin IIG (ng k)\r\n    function addIIGProfile(\r\n        address _iigOwner,\r\n        string memory _name,\r\n        string memory _country,\r\n        string memory _facebook,\r\n        string memory _website,\r\n        string memory _linkedin,\r\n        string memory _password) public {\r\n            listIIG.addIIG(_iigOwner, _name, _country, _facebook, _website, _linkedin, _password);\r\n    }\r\n\r\n    // Chc nng ly thng tin ca IIG\r\n    function getIIGProfile(address _iigOwner) public view returns(\r\n        address iigOwner, \r\n        string memory name, \r\n        string memory country, \r\n        string memory facebook, \r\n        string memory website, \r\n        string memory linkedin) {\r\n            return listIIG.getProfile(_iigOwner);\r\n    }\r\n\r\n    // Chc nng kim tra ti khon IIG c tn ti hay khng? (ng nhp)\r\n    function checkIIGProfile(\r\n        address _iigOwner, \r\n        string memory _password) public view returns(uint) {\r\n            return listIIG.checkIIG(_iigOwner, _password);\r\n    }\r\n\r\n    // Chc nng kim tra a ch IIG c tn ti hay khng?\r\n    function checkExistIIG(address _iigOwner) public view returns(uint x) {\r\n            return listIIG.checkExistIIG(_iigOwner);\r\n    }\r\n\r\n    // Chc nng nhp thng tin im thi Listening - Reading\r\n    function addIIGLRResult (\r\n        address _iigOwner,\r\n        address _studentOwner,\r\n        string memory _testDate,\r\n        uint _listeningScore,\r\n        uint _readingScore) public {\r\n            listIIG.addLRResult(_iigOwner, _studentOwner, _testDate, _listeningScore, _readingScore);\r\n    }\r\n\r\n    // Chc nng nhp thng tin im thi Speaking - Writing\r\n    function addIIGSWResult (\r\n        address _iigOwner,\r\n        address _studentOwner,\r\n        string memory _testDate,\r\n        uint _speakingScore,\r\n        uint _writingScore) public {\r\n            listIIG.addSWResult(_iigOwner, _studentOwner, _testDate, _speakingScore, _writingScore);\r\n    }\r\n\r\n    // Chc nng ly thng tin im thi Listening - Reading\r\n    function getIIGRCResult(address _studentOwner) public view returns(\r\n        address studentOwners,\r\n        uint maxScore) {\r\n            return listIIG.getLRResult(_studentOwner);\r\n    }\r\n\r\n    // Chc nng ly thng tin im thi Speaking - Writing\r\n    function getIIGSWResult(address _studentOwner) public view returns(\r\n        address studentOwners,\r\n        uint maxScore) {\r\n            return listIIG.getSWResult(_studentOwner);\r\n    }\r\n\r\n    // Chc nng kim tra kt qu ngy thi Listening - Reading ca sinh vin  tn ti hay cha?\r\n    function checkExistIIGLRResult(\r\n        address _studentOwner,\r\n        string memory _testDate) public view returns(uint x) {\r\n            return listIIG.checkExistLRResult(_studentOwner, _testDate);\r\n    }\r\n\r\n    // Chc nng kim tra kt qu ngy thi Speaking - Writing ca sinh vin  tn ti hay cha?\r\n    function checkExistIIGSWResult(\r\n        address _studentOwner,\r\n        string memory _testDate) public view returns(uint x) {\r\n            return listIIG.checkExistSWResult(_studentOwner, _testDate);\r\n    }\r\n}",
  "sourcePath": "C:\\Users\\19520\\Documents\\NCKH_Blockchain\\SolidityProgramming\\ProjectResearch\\SmartCV\\SmartContract\\contracts\\SmartCV_StudentBusiness.sol",
  "compiler": {
    "name": "solc",
    "version": "0.8.11+commit.d7f03943.Emscripten.clang"
  },
  "schemaVersion": "3.4.4",
  "updatedAt": "2022-07-19T04:18:50.490Z",
  "devdoc": {
    "kind": "dev",
    "methods": {},
    "version": 1
  },
  "userdoc": {
    "kind": "user",
    "methods": {},
    "version": 1
  }
}