{
  "contractName": "StudentBusiness",
  "abi": [
    {
      "inputs": [
        {
          "internalType": "address",
          "name": "_studentOwner",
          "type": "address"
        },
        {
          "internalType": "string",
          "name": "_name",
          "type": "string"
        },
        {
          "internalType": "string",
          "name": "_phoneNumber",
          "type": "string"
        },
        {
          "internalType": "string",
          "name": "_professionalTitle",
          "type": "string"
        },
        {
          "internalType": "string",
          "name": "_email",
          "type": "string"
        },
        {
          "internalType": "string",
          "name": "_github",
          "type": "string"
        },
        {
          "internalType": "string",
          "name": "_linkedin",
          "type": "string"
        },
        {
          "internalType": "string",
          "name": "_sourceImage",
          "type": "string"
        },
        {
          "internalType": "string",
          "name": "_password",
          "type": "string"
        }
      ],
      "name": "addStudentProfile",
      "outputs": [],
      "stateMutability": "nonpayable",
      "type": "function"
    },
    {
      "inputs": [
        {
          "internalType": "address",
          "name": "_studentOwner",
          "type": "address"
        },
        {
          "internalType": "string",
          "name": "_name",
          "type": "string"
        },
        {
          "internalType": "string",
          "name": "_phoneNumber",
          "type": "string"
        },
        {
          "internalType": "string",
          "name": "_professionalTitle",
          "type": "string"
        },
        {
          "internalType": "string",
          "name": "_email",
          "type": "string"
        },
        {
          "internalType": "string",
          "name": "_github",
          "type": "string"
        },
        {
          "internalType": "string",
          "name": "_linkedin",
          "type": "string"
        },
        {
          "internalType": "string",
          "name": "_sourceImage",
          "type": "string"
        }
      ],
      "name": "editStudentProfile",
      "outputs": [],
      "stateMutability": "nonpayable",
      "type": "function"
    },
    {
      "inputs": [
        {
          "internalType": "address",
          "name": "_studentOwner",
          "type": "address"
        }
      ],
      "name": "getStudentProfile",
      "outputs": [
        {
          "internalType": "address",
          "name": "studentOwner",
          "type": "address"
        },
        {
          "internalType": "string",
          "name": "name",
          "type": "string"
        },
        {
          "internalType": "string",
          "name": "phoneNumber",
          "type": "string"
        },
        {
          "internalType": "string",
          "name": "professionalTitle",
          "type": "string"
        },
        {
          "internalType": "string",
          "name": "email",
          "type": "string"
        },
        {
          "internalType": "string",
          "name": "github",
          "type": "string"
        },
        {
          "internalType": "string",
          "name": "linkedin",
          "type": "string"
        },
        {
          "internalType": "string",
          "name": "sourceImage",
          "type": "string"
        },
        {
          "internalType": "string",
          "name": "password",
          "type": "string"
        }
      ],
      "stateMutability": "view",
      "type": "function"
    },
    {
      "inputs": [
        {
          "internalType": "address",
          "name": "_studentOwner",
          "type": "address"
        },
        {
          "internalType": "string",
          "name": "_password",
          "type": "string"
        }
      ],
      "name": "checkStudentProfile",
      "outputs": [
        {
          "internalType": "uint256",
          "name": "x",
          "type": "uint256"
        }
      ],
      "stateMutability": "view",
      "type": "function"
    },
    {
      "inputs": [
        {
          "internalType": "address",
          "name": "_studentOwner",
          "type": "address"
        }
      ],
      "name": "checkExistStudent",
      "outputs": [
        {
          "internalType": "uint256",
          "name": "x",
          "type": "uint256"
        }
      ],
      "stateMutability": "view",
      "type": "function"
    },
    {
      "inputs": [
        {
          "internalType": "address",
          "name": "_studentOwner",
          "type": "address"
        },
        {
          "internalType": "string",
          "name": "_title",
          "type": "string"
        },
        {
          "internalType": "uint256",
          "name": "_level",
          "type": "uint256"
        }
      ],
      "name": "addStudentSkill",
      "outputs": [],
      "stateMutability": "nonpayable",
      "type": "function"
    },
    {
      "inputs": [
        {
          "internalType": "address",
          "name": "_studentOwner",
          "type": "address"
        },
        {
          "internalType": "string",
          "name": "_title",
          "type": "string"
        },
        {
          "internalType": "uint256",
          "name": "_level",
          "type": "uint256"
        }
      ],
      "name": "editStudentSkill",
      "outputs": [],
      "stateMutability": "nonpayable",
      "type": "function"
    },
    {
      "inputs": [
        {
          "internalType": "address",
          "name": "_studentOwner",
          "type": "address"
        },
        {
          "internalType": "string",
          "name": "_title",
          "type": "string"
        }
      ],
      "name": "checkStudentSkill",
      "outputs": [
        {
          "internalType": "uint256",
          "name": "x",
          "type": "uint256"
        }
      ],
      "stateMutability": "view",
      "type": "function"
    },
    {
      "inputs": [
        {
          "internalType": "address",
          "name": "_studentOwner",
          "type": "address"
        }
      ],
      "name": "checkNumStudentSkill",
      "outputs": [
        {
          "internalType": "uint256",
          "name": "x",
          "type": "uint256"
        }
      ],
      "stateMutability": "view",
      "type": "function"
    },
    {
      "inputs": [
        {
          "internalType": "address",
          "name": "_studentOwner",
          "type": "address"
        }
      ],
      "name": "getStudentSkill",
      "outputs": [
        {
          "internalType": "string[]",
          "name": "titles",
          "type": "string[]"
        },
        {
          "internalType": "uint256[]",
          "name": "levels",
          "type": "uint256[]"
        }
      ],
      "stateMutability": "view",
      "type": "function"
    },
    {
      "inputs": [
        {
          "internalType": "address",
          "name": "_studentOwner",
          "type": "address"
        },
        {
          "internalType": "string",
          "name": "_institution",
          "type": "string"
        },
        {
          "internalType": "string",
          "name": "_focusArea",
          "type": "string"
        },
        {
          "internalType": "string",
          "name": "_startTime",
          "type": "string"
        },
        {
          "internalType": "string",
          "name": "_finishTime",
          "type": "string"
        },
        {
          "internalType": "string",
          "name": "_gpa",
          "type": "string"
        }
      ],
      "name": "addStudentEducation",
      "outputs": [],
      "stateMutability": "nonpayable",
      "type": "function"
    },
    {
      "inputs": [
        {
          "internalType": "address",
          "name": "_studentOwner",
          "type": "address"
        },
        {
          "internalType": "string",
          "name": "_institution",
          "type": "string"
        },
        {
          "internalType": "string",
          "name": "_focusArea",
          "type": "string"
        },
        {
          "internalType": "string",
          "name": "_startTime",
          "type": "string"
        },
        {
          "internalType": "string",
          "name": "_finishTime",
          "type": "string"
        },
        {
          "internalType": "string",
          "name": "_gpa",
          "type": "string"
        }
      ],
      "name": "editStudentEducation",
      "outputs": [],
      "stateMutability": "nonpayable",
      "type": "function"
    },
    {
      "inputs": [
        {
          "internalType": "address",
          "name": "_studentOwner",
          "type": "address"
        },
        {
          "internalType": "string",
          "name": "_institution",
          "type": "string"
        },
        {
          "internalType": "string",
          "name": "_focusArea",
          "type": "string"
        }
      ],
      "name": "checkStudentEducation",
      "outputs": [
        {
          "internalType": "uint256",
          "name": "x",
          "type": "uint256"
        }
      ],
      "stateMutability": "view",
      "type": "function"
    },
    {
      "inputs": [
        {
          "internalType": "address",
          "name": "_studentOwner",
          "type": "address"
        }
      ],
      "name": "getStudentEducation",
      "outputs": [
        {
          "internalType": "string[]",
          "name": "",
          "type": "string[]"
        },
        {
          "internalType": "string[]",
          "name": "",
          "type": "string[]"
        },
        {
          "internalType": "string[]",
          "name": "",
          "type": "string[]"
        },
        {
          "internalType": "string[]",
          "name": "",
          "type": "string[]"
        },
        {
          "internalType": "string[]",
          "name": "",
          "type": "string[]"
        }
      ],
      "stateMutability": "view",
      "type": "function"
    },
    {
      "inputs": [],
      "name": "getListBusiness",
      "outputs": [
        {
          "internalType": "address[]",
          "name": "",
          "type": "address[]"
        },
        {
          "internalType": "string[]",
          "name": "",
          "type": "string[]"
        },
        {
          "internalType": "string[]",
          "name": "",
          "type": "string[]"
        },
        {
          "internalType": "string[]",
          "name": "",
          "type": "string[]"
        },
        {
          "internalType": "string[]",
          "name": "",
          "type": "string[]"
        },
        {
          "internalType": "string[]",
          "name": "",
          "type": "string[]"
        },
        {
          "internalType": "string[]",
          "name": "",
          "type": "string[]"
        },
        {
          "internalType": "string[]",
          "name": "",
          "type": "string[]"
        }
      ],
      "stateMutability": "view",
      "type": "function"
    },
    {
      "inputs": [
        {
          "internalType": "address",
          "name": "_businessOwner",
          "type": "address"
        }
      ],
      "name": "getRecruit",
      "outputs": [
        {
          "internalType": "bytes32[]",
          "name": "",
          "type": "bytes32[]"
        },
        {
          "internalType": "string[]",
          "name": "",
          "type": "string[]"
        },
        {
          "internalType": "string[]",
          "name": "",
          "type": "string[]"
        },
        {
          "internalType": "string[]",
          "name": "",
          "type": "string[]"
        },
        {
          "internalType": "uint256[]",
          "name": "",
          "type": "uint256[]"
        }
      ],
      "stateMutability": "view",
      "type": "function"
    },
    {
      "inputs": [
        {
          "internalType": "address",
          "name": "_studentOwner",
          "type": "address"
        },
        {
          "internalType": "address",
          "name": "_businessOwner",
          "type": "address"
        },
        {
          "internalType": "string",
          "name": "_jobTitle",
          "type": "string"
        },
        {
          "internalType": "string",
          "name": "_coverLetter",
          "type": "string"
        }
      ],
      "name": "sendCV",
      "outputs": [],
      "stateMutability": "nonpayable",
      "type": "function"
    },
    {
      "inputs": [
        {
          "internalType": "address",
          "name": "_studentOwner",
          "type": "address"
        },
        {
          "internalType": "address",
          "name": "_businessOwner",
          "type": "address"
        },
        {
          "internalType": "string",
          "name": "_jobTitle",
          "type": "string"
        }
      ],
      "name": "checkCV",
      "outputs": [
        {
          "internalType": "uint256",
          "name": "x",
          "type": "uint256"
        }
      ],
      "stateMutability": "view",
      "type": "function"
    },
    {
      "inputs": [
        {
          "internalType": "address",
          "name": "_studentOwner",
          "type": "address"
        },
        {
          "internalType": "address",
          "name": "_businessOwner",
          "type": "address"
        }
      ],
      "name": "getReview",
      "outputs": [
        {
          "internalType": "address",
          "name": "studentOwner",
          "type": "address"
        },
        {
          "internalType": "address",
          "name": "businessOwner",
          "type": "address"
        },
        {
          "internalType": "string",
          "name": "content",
          "type": "string"
        }
      ],
      "stateMutability": "view",
      "type": "function"
    },
    {
      "inputs": [
        {
          "internalType": "address",
          "name": "_businessOwner",
          "type": "address"
        },
        {
          "internalType": "string",
          "name": "_name",
          "type": "string"
        },
        {
          "internalType": "string",
          "name": "_country",
          "type": "string"
        },
        {
          "internalType": "string",
          "name": "_facebook",
          "type": "string"
        },
        {
          "internalType": "string",
          "name": "_website",
          "type": "string"
        },
        {
          "internalType": "string",
          "name": "_linkedin",
          "type": "string"
        },
        {
          "internalType": "string",
          "name": "_focusArea",
          "type": "string"
        },
        {
          "internalType": "string",
          "name": "_password",
          "type": "string"
        }
      ],
      "name": "addBusinessProfile",
      "outputs": [],
      "stateMutability": "nonpayable",
      "type": "function"
    },
    {
      "inputs": [
        {
          "internalType": "address",
          "name": "_businessOwner",
          "type": "address"
        },
        {
          "internalType": "string",
          "name": "_name",
          "type": "string"
        },
        {
          "internalType": "string",
          "name": "_country",
          "type": "string"
        },
        {
          "internalType": "string",
          "name": "_facebook",
          "type": "string"
        },
        {
          "internalType": "string",
          "name": "_website",
          "type": "string"
        },
        {
          "internalType": "string",
          "name": "_linkedin",
          "type": "string"
        },
        {
          "internalType": "string",
          "name": "_focusArea",
          "type": "string"
        }
      ],
      "name": "editBusinessProfile",
      "outputs": [],
      "stateMutability": "nonpayable",
      "type": "function"
    },
    {
      "inputs": [
        {
          "internalType": "address",
          "name": "_businessOwner",
          "type": "address"
        }
      ],
      "name": "getBusinessProfile",
      "outputs": [
        {
          "internalType": "address",
          "name": "businessOwner",
          "type": "address"
        },
        {
          "internalType": "string",
          "name": "name",
          "type": "string"
        },
        {
          "internalType": "string",
          "name": "country",
          "type": "string"
        },
        {
          "internalType": "string",
          "name": "facebook",
          "type": "string"
        },
        {
          "internalType": "string",
          "name": "website",
          "type": "string"
        },
        {
          "internalType": "string",
          "name": "linkedin",
          "type": "string"
        },
        {
          "internalType": "string",
          "name": "focusArea",
          "type": "string"
        }
      ],
      "stateMutability": "view",
      "type": "function"
    },
    {
      "inputs": [
        {
          "internalType": "address",
          "name": "_businessOwner",
          "type": "address"
        },
        {
          "internalType": "string",
          "name": "_password",
          "type": "string"
        }
      ],
      "name": "checkBusinessProfile",
      "outputs": [
        {
          "internalType": "uint256",
          "name": "",
          "type": "uint256"
        }
      ],
      "stateMutability": "view",
      "type": "function"
    },
    {
      "inputs": [
        {
          "internalType": "address",
          "name": "_businessOwner",
          "type": "address"
        }
      ],
      "name": "checkExistBusiness",
      "outputs": [
        {
          "internalType": "uint256",
          "name": "x",
          "type": "uint256"
        }
      ],
      "stateMutability": "view",
      "type": "function"
    },
    {
      "inputs": [
        {
          "internalType": "address",
          "name": "_businessOwner",
          "type": "address"
        }
      ],
      "name": "getListCV",
      "outputs": [
        {
          "internalType": "address[]",
          "name": "",
          "type": "address[]"
        },
        {
          "internalType": "address[]",
          "name": "",
          "type": "address[]"
        },
        {
          "internalType": "string[]",
          "name": "",
          "type": "string[]"
        },
        {
          "internalType": "string[]",
          "name": "",
          "type": "string[]"
        },
        {
          "internalType": "string[]",
          "name": "",
          "type": "string[]"
        }
      ],
      "stateMutability": "view",
      "type": "function"
    },
    {
      "inputs": [
        {
          "internalType": "address",
          "name": "_studentOwner",
          "type": "address"
        },
        {
          "internalType": "address",
          "name": "_businessOwner",
          "type": "address"
        },
        {
          "internalType": "string",
          "name": "_jobTitle",
          "type": "string"
        },
        {
          "internalType": "string",
          "name": "_statusCV",
          "type": "string"
        }
      ],
      "name": "interviewCV",
      "outputs": [],
      "stateMutability": "nonpayable",
      "type": "function"
    },
    {
      "inputs": [
        {
          "internalType": "address",
          "name": "_studentOwner",
          "type": "address"
        },
        {
          "internalType": "address",
          "name": "_businessOwner",
          "type": "address"
        },
        {
          "internalType": "string",
          "name": "_jobTitle",
          "type": "string"
        },
        {
          "internalType": "string",
          "name": "_statusCV",
          "type": "string"
        }
      ],
      "name": "onboardCV",
      "outputs": [],
      "stateMutability": "nonpayable",
      "type": "function"
    },
    {
      "inputs": [
        {
          "internalType": "address",
          "name": "_businessOwner",
          "type": "address"
        },
        {
          "internalType": "string",
          "name": "_jobTitle",
          "type": "string"
        },
        {
          "internalType": "string",
          "name": "_jobDescription",
          "type": "string"
        },
        {
          "internalType": "string",
          "name": "_recruitDate",
          "type": "string"
        },
        {
          "internalType": "uint256",
          "name": "_amount",
          "type": "uint256"
        }
      ],
      "name": "addRecruit",
      "outputs": [],
      "stateMutability": "nonpayable",
      "type": "function"
    },
    {
      "inputs": [
        {
          "internalType": "address",
          "name": "_businessOwner",
          "type": "address"
        },
        {
          "internalType": "string",
          "name": "_jobTitle",
          "type": "string"
        },
        {
          "internalType": "string",
          "name": "_recruitDate",
          "type": "string"
        }
      ],
      "name": "checkAmountBusinessRecruit",
      "outputs": [
        {
          "internalType": "uint256",
          "name": "x",
          "type": "uint256"
        }
      ],
      "stateMutability": "view",
      "type": "function"
    },
    {
      "inputs": [
        {
          "internalType": "address",
          "name": "_studentOwner",
          "type": "address"
        },
        {
          "internalType": "address",
          "name": "_businessOwner",
          "type": "address"
        },
        {
          "internalType": "string",
          "name": "_content",
          "type": "string"
        }
      ],
      "name": "sendReview",
      "outputs": [],
      "stateMutability": "nonpayable",
      "type": "function"
    },
    {
      "inputs": [
        {
          "internalType": "address",
          "name": "_iigOwner",
          "type": "address"
        },
        {
          "internalType": "string",
          "name": "_name",
          "type": "string"
        },
        {
          "internalType": "string",
          "name": "_country",
          "type": "string"
        },
        {
          "internalType": "string",
          "name": "_facebook",
          "type": "string"
        },
        {
          "internalType": "string",
          "name": "_website",
          "type": "string"
        },
        {
          "internalType": "string",
          "name": "_linkedin",
          "type": "string"
        },
        {
          "internalType": "string",
          "name": "_password",
          "type": "string"
        }
      ],
      "name": "addIIGProfile",
      "outputs": [],
      "stateMutability": "nonpayable",
      "type": "function"
    },
    {
      "inputs": [
        {
          "internalType": "address",
          "name": "_iigOwner",
          "type": "address"
        },
        {
          "internalType": "string",
          "name": "_name",
          "type": "string"
        },
        {
          "internalType": "string",
          "name": "_country",
          "type": "string"
        },
        {
          "internalType": "string",
          "name": "_facebook",
          "type": "string"
        },
        {
          "internalType": "string",
          "name": "_website",
          "type": "string"
        },
        {
          "internalType": "string",
          "name": "_linkedin",
          "type": "string"
        }
      ],
      "name": "editIIGProfile",
      "outputs": [],
      "stateMutability": "nonpayable",
      "type": "function"
    },
    {
      "inputs": [],
      "name": "getListIIG",
      "outputs": [
        {
          "internalType": "address[]",
          "name": "",
          "type": "address[]"
        },
        {
          "internalType": "string[]",
          "name": "",
          "type": "string[]"
        },
        {
          "internalType": "string[]",
          "name": "",
          "type": "string[]"
        },
        {
          "internalType": "string[]",
          "name": "",
          "type": "string[]"
        },
        {
          "internalType": "string[]",
          "name": "",
          "type": "string[]"
        },
        {
          "internalType": "string[]",
          "name": "",
          "type": "string[]"
        },
        {
          "internalType": "string[]",
          "name": "",
          "type": "string[]"
        }
      ],
      "stateMutability": "view",
      "type": "function"
    },
    {
      "inputs": [
        {
          "internalType": "address",
          "name": "_iigOwner",
          "type": "address"
        }
      ],
      "name": "getIIGProfile",
      "outputs": [
        {
          "internalType": "address",
          "name": "iigOwner",
          "type": "address"
        },
        {
          "internalType": "string",
          "name": "name",
          "type": "string"
        },
        {
          "internalType": "string",
          "name": "country",
          "type": "string"
        },
        {
          "internalType": "string",
          "name": "facebook",
          "type": "string"
        },
        {
          "internalType": "string",
          "name": "website",
          "type": "string"
        },
        {
          "internalType": "string",
          "name": "linkedin",
          "type": "string"
        }
      ],
      "stateMutability": "view",
      "type": "function"
    },
    {
      "inputs": [
        {
          "internalType": "address",
          "name": "_iigOwner",
          "type": "address"
        },
        {
          "internalType": "string",
          "name": "_password",
          "type": "string"
        }
      ],
      "name": "checkIIGProfile",
      "outputs": [
        {
          "internalType": "uint256",
          "name": "",
          "type": "uint256"
        }
      ],
      "stateMutability": "view",
      "type": "function"
    },
    {
      "inputs": [
        {
          "internalType": "address",
          "name": "_iigOwner",
          "type": "address"
        }
      ],
      "name": "checkExistIIG",
      "outputs": [
        {
          "internalType": "uint256",
          "name": "x",
          "type": "uint256"
        }
      ],
      "stateMutability": "view",
      "type": "function"
    },
    {
      "inputs": [
        {
          "internalType": "address",
          "name": "_studentOwner",
          "type": "address"
        },
        {
          "internalType": "address",
          "name": "_iigOwner",
          "type": "address"
        },
        {
          "internalType": "string",
          "name": "_identityCard",
          "type": "string"
        },
        {
          "internalType": "string",
          "name": "_requestDate",
          "type": "string"
        }
      ],
      "name": "sendIIGRequest",
      "outputs": [],
      "stateMutability": "nonpayable",
      "type": "function"
    },
    {
      "inputs": [
        {
          "internalType": "address",
          "name": "_iigOwner",
          "type": "address"
        }
      ],
      "name": "getListIIGRequest",
      "outputs": [
        {
          "internalType": "bytes4[]",
          "name": "",
          "type": "bytes4[]"
        },
        {
          "internalType": "address[]",
          "name": "",
          "type": "address[]"
        },
        {
          "internalType": "address[]",
          "name": "",
          "type": "address[]"
        },
        {
          "internalType": "string[]",
          "name": "",
          "type": "string[]"
        },
        {
          "internalType": "string[]",
          "name": "",
          "type": "string[]"
        },
        {
          "internalType": "string[]",
          "name": "",
          "type": "string[]"
        }
      ],
      "stateMutability": "view",
      "type": "function"
    },
    {
      "inputs": [
        {
          "internalType": "address",
          "name": "_iigOwner",
          "type": "address"
        },
        {
          "internalType": "address",
          "name": "_studentOwner",
          "type": "address"
        }
      ],
      "name": "getListIIGRequestStudent",
      "outputs": [
        {
          "internalType": "bytes4[]",
          "name": "",
          "type": "bytes4[]"
        },
        {
          "internalType": "address[]",
          "name": "",
          "type": "address[]"
        },
        {
          "internalType": "address[]",
          "name": "",
          "type": "address[]"
        },
        {
          "internalType": "string[]",
          "name": "",
          "type": "string[]"
        },
        {
          "internalType": "string[]",
          "name": "",
          "type": "string[]"
        },
        {
          "internalType": "string[]",
          "name": "",
          "type": "string[]"
        }
      ],
      "stateMutability": "view",
      "type": "function"
    },
    {
      "inputs": [
        {
          "internalType": "address",
          "name": "_studentOwner",
          "type": "address"
        },
        {
          "internalType": "address",
          "name": "_iigOwner",
          "type": "address"
        },
        {
          "internalType": "bytes4",
          "name": "_codeRequest",
          "type": "bytes4"
        },
        {
          "internalType": "string",
          "name": "_statusRequest",
          "type": "string"
        }
      ],
      "name": "confirmIIGRequest",
      "outputs": [],
      "stateMutability": "nonpayable",
      "type": "function"
    },
    {
      "inputs": [
        {
          "internalType": "address",
          "name": "_studentOwner",
          "type": "address"
        },
        {
          "internalType": "string",
          "name": "_testDate",
          "type": "string"
        },
        {
          "internalType": "string",
          "name": "_shiftTest",
          "type": "string"
        },
        {
          "internalType": "string",
          "name": "_expireDate",
          "type": "string"
        },
        {
          "internalType": "uint256",
          "name": "_listeningScore",
          "type": "uint256"
        },
        {
          "internalType": "uint256",
          "name": "_readingScore",
          "type": "uint256"
        }
      ],
      "name": "addIIGLRResult",
      "outputs": [],
      "stateMutability": "nonpayable",
      "type": "function"
    },
    {
      "inputs": [
        {
          "internalType": "address",
          "name": "_studentOwner",
          "type": "address"
        },
        {
          "internalType": "string",
          "name": "_testDate",
          "type": "string"
        },
        {
          "internalType": "string",
          "name": "_shiftTest",
          "type": "string"
        },
        {
          "internalType": "string",
          "name": "_expireDate",
          "type": "string"
        },
        {
          "internalType": "uint256",
          "name": "_speakingScore",
          "type": "uint256"
        },
        {
          "internalType": "uint256",
          "name": "_writingScore",
          "type": "uint256"
        }
      ],
      "name": "addIIGSWResult",
      "outputs": [],
      "stateMutability": "nonpayable",
      "type": "function"
    },
    {
      "inputs": [
        {
          "internalType": "address",
          "name": "_iigOwner",
          "type": "address"
        },
        {
          "internalType": "address",
          "name": "_studentOwner",
          "type": "address"
        }
      ],
      "name": "getListIIGLRResult",
      "outputs": [
        {
          "internalType": "string[]",
          "name": "",
          "type": "string[]"
        },
        {
          "internalType": "string[]",
          "name": "",
          "type": "string[]"
        },
        {
          "internalType": "string[]",
          "name": "",
          "type": "string[]"
        },
        {
          "internalType": "uint256[]",
          "name": "",
          "type": "uint256[]"
        },
        {
          "internalType": "uint256[]",
          "name": "",
          "type": "uint256[]"
        },
        {
          "internalType": "uint256[]",
          "name": "",
          "type": "uint256[]"
        }
      ],
      "stateMutability": "view",
      "type": "function"
    },
    {
      "inputs": [
        {
          "internalType": "address",
          "name": "_iigOwner",
          "type": "address"
        },
        {
          "internalType": "address",
          "name": "_studentOwner",
          "type": "address"
        }
      ],
      "name": "getListIIGSWResult",
      "outputs": [
        {
          "internalType": "string[]",
          "name": "",
          "type": "string[]"
        },
        {
          "internalType": "string[]",
          "name": "",
          "type": "string[]"
        },
        {
          "internalType": "string[]",
          "name": "",
          "type": "string[]"
        },
        {
          "internalType": "uint256[]",
          "name": "",
          "type": "uint256[]"
        },
        {
          "internalType": "uint256[]",
          "name": "",
          "type": "uint256[]"
        },
        {
          "internalType": "uint256[]",
          "name": "",
          "type": "uint256[]"
        }
      ],
      "stateMutability": "view",
      "type": "function"
    },
    {
      "inputs": [
        {
          "internalType": "address",
          "name": "_iigOwner",
          "type": "address"
        },
        {
          "internalType": "address",
          "name": "_studentOwner",
          "type": "address"
        },
        {
          "internalType": "string",
          "name": "_testDate",
          "type": "string"
        },
        {
          "internalType": "string",
          "name": "_shiftTest",
          "type": "string"
        }
      ],
      "name": "getIIGLRResult",
      "outputs": [
        {
          "internalType": "string",
          "name": "testDate",
          "type": "string"
        },
        {
          "internalType": "string",
          "name": "shiftTest",
          "type": "string"
        },
        {
          "internalType": "string",
          "name": "expireDate",
          "type": "string"
        },
        {
          "internalType": "uint256",
          "name": "listeningScore",
          "type": "uint256"
        },
        {
          "internalType": "uint256",
          "name": "readingScore",
          "type": "uint256"
        },
        {
          "internalType": "uint256",
          "name": "totalScore",
          "type": "uint256"
        }
      ],
      "stateMutability": "view",
      "type": "function"
    },
    {
      "inputs": [
        {
          "internalType": "address",
          "name": "_iigOwner",
          "type": "address"
        },
        {
          "internalType": "address",
          "name": "_studentOwner",
          "type": "address"
        },
        {
          "internalType": "string",
          "name": "_testDate",
          "type": "string"
        },
        {
          "internalType": "string",
          "name": "_shiftTest",
          "type": "string"
        }
      ],
      "name": "getIIGSWResult",
      "outputs": [
        {
          "internalType": "string",
          "name": "testDate",
          "type": "string"
        },
        {
          "internalType": "string",
          "name": "shiftTest",
          "type": "string"
        },
        {
          "internalType": "string",
          "name": "expireDate",
          "type": "string"
        },
        {
          "internalType": "uint256",
          "name": "speakingScore",
          "type": "uint256"
        },
        {
          "internalType": "uint256",
          "name": "writingScore",
          "type": "uint256"
        },
        {
          "internalType": "uint256",
          "name": "totalScore",
          "type": "uint256"
        }
      ],
      "stateMutability": "view",
      "type": "function"
    }
  ],
  "bytecode": "0x60806040526040516200001290620001c7565b604051809103906000f0801580156200002f573d6000803e3d6000fd5b506000806101000a81548173ffffffffffffffffffffffffffffffffffffffff021916908373ffffffffffffffffffffffffffffffffffffffff1602179055506040516200007d90620001d5565b604051809103906000f0801580156200009a573d6000803e3d6000fd5b50600160006101000a81548173ffffffffffffffffffffffffffffffffffffffff021916908373ffffffffffffffffffffffffffffffffffffffff160217905550604051620000e990620001e3565b604051809103906000f08015801562000106573d6000803e3d6000fd5b50600260006101000a81548173ffffffffffffffffffffffffffffffffffffffff021916908373ffffffffffffffffffffffffffffffffffffffff1602179055506040516200015590620001f1565b604051809103906000f08015801562000172573d6000803e3d6000fd5b50600360006101000a81548173ffffffffffffffffffffffffffffffffffffffff021916908373ffffffffffffffffffffffffffffffffffffffff160217905550348015620001c057600080fd5b50620001ff565b6145ae8062005a6283390190565b612630806200a01083390190565b616cb0806200c64083390190565b612f6980620132f083390190565b615853806200020f6000396000f3fe608060405234801561001057600080fd5b50600436106102895760003560e01c80636f57524c1161015c578063bc10454b116100ce578063e9daa70a11610087578063e9daa70a146108ed578063f1eb24311461091f578063f4b7ec971461093b578063f7a7394c1461096b578063f7a7b83d14610987578063fe761783146109a357610289565b8063bc10454b146107e7578063ce1ec5bb14610817578063d2f9858f1461084b578063e283272114610880578063e2f43af21461089c578063e70c789c146108b857610289565b8063873dcd2911610120578063873dcd29146106cd57806391b9e6db146106fd5780639cd3258214610719578063a2e472391461074d578063a3e7ae2814610782578063acf6f3fd146107b757610289565b80636f57524c1461062057806376a9409f1461063c578063798fc53b14610671578063844bb4601461068d57806384ae9131146106a957610289565b806335c77f85116102005780634e1f4f82116101b95780634e1f4f821461054157806357824f161461055d5780636389721614610582578063638f64f51461059e5780636b4dbb28146105d35780636d53448f1461060457610289565b806335c77f851461042b5780633763aa191461045b57806339d92c4c14610477578063415db955146104a757806342f08d4b146104db57806344fd6e221461051157610289565b806311b440291161025257806311b440291461036f5780631632dd981461038b578063241c67a9146103a757806324c5f368146103c35780632df96bfc146103df578063313604e71461040f57610289565b80624e56cf1461028e5780630299779f146102aa5780630ac68f37146102da5780630e966efd1461030a57806311345a201461033f575b600080fd5b6102a860048036038101906102a39190612b1e565b6109db565b005b6102c460048036038101906102bf9190612bbd565b610a73565b6040516102d19190612c45565b60405180910390f35b6102f460048036038101906102ef9190612c60565b610b1e565b6040516103019190612c45565b60405180910390f35b610324600480360381019061031f9190612cbc565b610bc5565b60405161033696959493929190612fdb565b60405180910390f35b61035960048036038101906103549190612cbc565b610c84565b6040516103669190612c45565b60405180910390f35b61038960048036038101906103849190613092565b610d28565b005b6103a560048036038101906103a09190612bbd565b610dc7565b005b6103c160048036038101906103bc919061319f565b610e5d565b005b6103dd60048036038101906103d89190613222565b610ef6565b005b6103f960048036038101906103f49190612cbc565b610f95565b6040516104069190612c45565b60405180910390f35b61042960048036038101906104249190613222565b61104e565b005b61044560048036038101906104409190612c60565b6110eb565b6040516104529190612c45565b60405180910390f35b61047560048036038101906104709190613092565b611193565b005b610491600480360381019061048c9190612cbc565b611232565b60405161049e9190612c45565b60405180910390f35b6104c160048036038101906104bc9190612cbc565b6112d7565b6040516104d295949392919061333b565b60405180910390f35b6104f560048036038101906104f09190612cbc565b611391565b604051610508979695949392919061340a565b60405180910390f35b61052b60048036038101906105269190612cbc565b611456565b6040516105389190612c45565b60405180910390f35b61055b60048036038101906105569190612b1e565b6114fb565b005b610565611594565b6040516105799897969594939291906134a3565b60405180910390f35b61059c60048036038101906105979190613559565b611650565b005b6105b860048036038101906105b39190612b1e565b6116f3565b6040516105ca969594939291906136d3565b60405180910390f35b6105ed60048036038101906105e89190612cbc565b6117bd565b6040516105fb929190613807565b60405180910390f35b61061e60048036038101906106199190613559565b611868565b005b61063a6004803603810190610635919061383e565b61190d565b005b61065660048036038101906106519190613988565b6119af565b604051610668969594939291906139c8565b60405180910390f35b61068b60048036038101906106869190613222565b611a71565b005b6106a760048036038101906106a29190612b1e565b611b0e565b005b6106b1611ba7565b6040516106c49796959493929190613a53565b60405180910390f35b6106e760048036038101906106e29190612c60565b611c5f565b6040516106f49190612c45565b60405180910390f35b61071760048036038101906107129190612b1e565b611d07565b005b610733600480360381019061072e9190612cbc565b611da0565b604051610744959493929190613af3565b60405180910390f35b61076760048036038101906107629190612b1e565b611e5c565b604051610779969594939291906136d3565b60405180910390f35b61079c60048036038101906107979190613988565b611f26565b6040516107ae96959493929190612fdb565b60405180910390f35b6107d160048036038101906107cc9190612c60565b611fe8565b6040516107de9190612c45565b60405180910390f35b61080160048036038101906107fc9190613b69565b61208f565b60405161080e9190612c45565b60405180910390f35b610831600480360381019061082c9190612cbc565b612139565b604051610842959493929190613cbc565b60405180910390f35b61086560048036038101906108609190612cbc565b6121f5565b60405161087796959493929190613d32565b60405180910390f35b61089a6004803603810190610895919061383e565b6122b5565b005b6108b660048036038101906108b19190613db6565b612357565b005b6108d260048036038101906108cd9190613988565b6123eb565b6040516108e4969594939291906139c8565b60405180910390f35b61090760048036038101906109029190613988565b6124ad565b60405161091693929190613e25565b60405180910390f35b61093960048036038101906109349190613db6565b612562565b005b61095560048036038101906109509190613b69565b6125f6565b6040516109629190612c45565b60405180910390f35b61098560048036038101906109809190613e63565b612758565b005b6109a1600480360381019061099c919061400d565b6127fe565b005b6109bd60048036038101906109b89190612cbc565b61289a565b6040516109d2999897969594939291906140dc565b60405180910390f35b600360009054906101000a900473ffffffffffffffffffffffffffffffffffffffff1673ffffffffffffffffffffffffffffffffffffffff16624e56cf858585856040518563ffffffff1660e01b8152600401610a3b94939291906141a1565b600060405180830381600087803b158015610a5557600080fd5b505af1158015610a69573d6000803e3d6000fd5b5050505050505050565b6000600360009054906101000a900473ffffffffffffffffffffffffffffffffffffffff1673ffffffffffffffffffffffffffffffffffffffff16630299779f8585856040518463ffffffff1660e01b8152600401610ad493929190613e25565b602060405180830381865afa158015610af1573d6000803e3d6000fd5b505050506040513d601f19601f82011682018060405250810190610b159190614209565b90509392505050565b60008060009054906101000a900473ffffffffffffffffffffffffffffffffffffffff1673ffffffffffffffffffffffffffffffffffffffff1663716b5ab484846040518363ffffffff1660e01b8152600401610b7c929190614236565b602060405180830381865afa158015610b99573d6000803e3d6000fd5b505050506040513d601f19601f82011682018060405250810190610bbd9190614209565b905092915050565b606080606080606080600260009054906101000a900473ffffffffffffffffffffffffffffffffffffffff1673ffffffffffffffffffffffffffffffffffffffff16639fa7247a886040518263ffffffff1660e01b8152600401610c299190614266565b600060405180830381865afa158015610c46573d6000803e3d6000fd5b505050506040513d6000823e3d601f19601f82011682018060405250810190610c6f9190614587565b95509550955095509550955091939550919395565b60008060009054906101000a900473ffffffffffffffffffffffffffffffffffffffff1673ffffffffffffffffffffffffffffffffffffffff1663961ecb5b836040518263ffffffff1660e01b8152600401610ce09190614266565b602060405180830381865afa158015610cfd573d6000803e3d6000fd5b505050506040513d601f19601f82011682018060405250810190610d219190614209565b9050919050565b600260009054906101000a900473ffffffffffffffffffffffffffffffffffffffff1673ffffffffffffffffffffffffffffffffffffffff16630b59f5b78787878787876040518763ffffffff1660e01b8152600401610d8d969594939291906146bc565b600060405180830381600087803b158015610da757600080fd5b505af1158015610dbb573d6000803e3d6000fd5b50505050505050505050565b600360009054906101000a900473ffffffffffffffffffffffffffffffffffffffff1673ffffffffffffffffffffffffffffffffffffffff1663ae8f00d38484846040518463ffffffff1660e01b8152600401610e2693929190613e25565b600060405180830381600087803b158015610e4057600080fd5b505af1158015610e54573d6000803e3d6000fd5b50505050505050565b600260009054906101000a900473ffffffffffffffffffffffffffffffffffffffff1673ffffffffffffffffffffffffffffffffffffffff1663b351d176858585856040518563ffffffff1660e01b8152600401610ebe9493929190614741565b600060405180830381600087803b158015610ed857600080fd5b505af1158015610eec573d6000803e3d6000fd5b5050505050505050565b600260009054906101000a900473ffffffffffffffffffffffffffffffffffffffff1673ffffffffffffffffffffffffffffffffffffffff16636cf871df8787878787876040518763ffffffff1660e01b8152600401610f5b96959493929190613d32565b600060405180830381600087803b158015610f7557600080fd5b505af1158015610f89573d6000803e3d6000fd5b50505050505050505050565b60008060008054906101000a900473ffffffffffffffffffffffffffffffffffffffff1673ffffffffffffffffffffffffffffffffffffffff16638e891393846040518263ffffffff1660e01b8152600401610ff19190614266565b602060405180830381865afa15801561100e573d6000803e3d6000fd5b505050506040513d601f19601f820116820180604052508101906110329190614209565b9050600a811115611047576001915050611049565b505b919050565b60008054906101000a900473ffffffffffffffffffffffffffffffffffffffff1673ffffffffffffffffffffffffffffffffffffffff1663dcc453528787878787876040518763ffffffff1660e01b81526004016110b196959493929190613d32565b600060405180830381600087803b1580156110cb57600080fd5b505af11580156110df573d6000803e3d6000fd5b50505050505050505050565b6000600160009054906101000a900473ffffffffffffffffffffffffffffffffffffffff1673ffffffffffffffffffffffffffffffffffffffff1663a7dba18484846040518363ffffffff1660e01b815260040161114a929190614236565b602060405180830381865afa158015611167573d6000803e3d6000fd5b505050506040513d601f19601f8201168201806040525081019061118b9190614209565b905092915050565b600260009054906101000a900473ffffffffffffffffffffffffffffffffffffffff1673ffffffffffffffffffffffffffffffffffffffff1663d72392058787878787876040518763ffffffff1660e01b81526004016111f8969594939291906146bc565b600060405180830381600087803b15801561121257600080fd5b505af1158015611226573d6000803e3d6000fd5b50505050505050505050565b6000600160009054906101000a900473ffffffffffffffffffffffffffffffffffffffff1673ffffffffffffffffffffffffffffffffffffffff1663c6fe410a836040518263ffffffff1660e01b815260040161128f9190614266565b602060405180830381865afa1580156112ac573d6000803e3d6000fd5b505050506040513d601f19601f820116820180604052508101906112d09190614209565b9050919050565b606080606080606060008054906101000a900473ffffffffffffffffffffffffffffffffffffffff1673ffffffffffffffffffffffffffffffffffffffff16638ce211bc876040518263ffffffff1660e01b81526004016113389190614266565b600060405180830381865afa158015611355573d6000803e3d6000fd5b505050506040513d6000823e3d601f19601f8201168201806040525081019061137e919061478d565b9450945094509450945091939590929450565b6000606080606080606080600160009054906101000a900473ffffffffffffffffffffffffffffffffffffffff1673ffffffffffffffffffffffffffffffffffffffff16630f53a470896040518263ffffffff1660e01b81526004016113f79190614266565b600060405180830381865afa158015611414573d6000803e3d6000fd5b505050506040513d6000823e3d601f19601f8201168201806040525081019061143d9190614894565b9650965096509650965096509650919395979092949650565b6000600260009054906101000a900473ffffffffffffffffffffffffffffffffffffffff1673ffffffffffffffffffffffffffffffffffffffff166344fd6e22836040518263ffffffff1660e01b81526004016114b39190614266565b602060405180830381865afa1580156114d0573d6000803e3d6000fd5b505050506040513d601f19601f820116820180604052508101906114f49190614209565b9050919050565b600260009054906101000a900473ffffffffffffffffffffffffffffffffffffffff1673ffffffffffffffffffffffffffffffffffffffff1663948195ed858585856040518563ffffffff1660e01b815260040161155c94939291906141a1565b600060405180830381600087803b15801561157657600080fd5b505af115801561158a573d6000803e3d6000fd5b5050505050505050565b606080606080606080606080600160009054906101000a900473ffffffffffffffffffffffffffffffffffffffff1673ffffffffffffffffffffffffffffffffffffffff1663cfafbc0c6040518163ffffffff1660e01b8152600401600060405180830381865afa15801561160d573d6000803e3d6000fd5b505050506040513d6000823e3d601f19601f8201168201806040525081019061163691906149de565b975097509750975097509750975097509091929394959697565b60008054906101000a900473ffffffffffffffffffffffffffffffffffffffff1673ffffffffffffffffffffffffffffffffffffffff1663b24f701689898989898989896040518963ffffffff1660e01b81526004016116b7989796959493929190614b74565b600060405180830381600087803b1580156116d157600080fd5b505af11580156116e5573d6000803e3d6000fd5b505050505050505050505050565b60608060606000806000600260009054906101000a900473ffffffffffffffffffffffffffffffffffffffff1673ffffffffffffffffffffffffffffffffffffffff1663ac97812f8b8b8b8b6040518563ffffffff1660e01b815260040161175e94939291906141a1565b600060405180830381865afa15801561177b573d6000803e3d6000fd5b505050506040513d6000823e3d601f19601f820116820180604052508101906117a49190614c23565b9550955095509550955095509499939850945094509450565b60608060008054906101000a900473ffffffffffffffffffffffffffffffffffffffff1673ffffffffffffffffffffffffffffffffffffffff1663ac4b2049846040518263ffffffff1660e01b81526004016118199190614266565b600060405180830381865afa158015611836573d6000803e3d6000fd5b505050506040513d6000823e3d601f19601f8201168201806040525081019061185f9190614dc7565b91509150915091565b600160009054906101000a900473ffffffffffffffffffffffffffffffffffffffff1673ffffffffffffffffffffffffffffffffffffffff1663e045b71089898989898989896040518963ffffffff1660e01b81526004016118d1989796959493929190614b74565b600060405180830381600087803b1580156118eb57600080fd5b505af11580156118ff573d6000803e3d6000fd5b505050505050505050505050565b600160009054906101000a900473ffffffffffffffffffffffffffffffffffffffff1673ffffffffffffffffffffffffffffffffffffffff166323b6d993888888888888886040518863ffffffff1660e01b8152600401611974979695949392919061340a565b600060405180830381600087803b15801561198e57600080fd5b505af11580156119a2573d6000803e3d6000fd5b5050505050505050505050565b606080606080606080600260009054906101000a900473ffffffffffffffffffffffffffffffffffffffff1673ffffffffffffffffffffffffffffffffffffffff1663bc72af7d89896040518363ffffffff1660e01b8152600401611a15929190614e3f565b600060405180830381865afa158015611a32573d6000803e3d6000fd5b505050506040513d6000823e3d601f19601f82011682018060405250810190611a5b9190614e68565b9550955095509550955095509295509295509295565b60008054906101000a900473ffffffffffffffffffffffffffffffffffffffff1673ffffffffffffffffffffffffffffffffffffffff16633d746f0a8787878787876040518763ffffffff1660e01b8152600401611ad496959493929190613d32565b600060405180830381600087803b158015611aee57600080fd5b505af1158015611b02573d6000803e3d6000fd5b50505050505050505050565b600360009054906101000a900473ffffffffffffffffffffffffffffffffffffffff1673ffffffffffffffffffffffffffffffffffffffff1663844bb460858585856040518563ffffffff1660e01b8152600401611b6f94939291906141a1565b600060405180830381600087803b158015611b8957600080fd5b505af1158015611b9d573d6000803e3d6000fd5b5050505050505050565b6060806060806060806060600260009054906101000a900473ffffffffffffffffffffffffffffffffffffffff1673ffffffffffffffffffffffffffffffffffffffff166384ae91316040518163ffffffff1660e01b8152600401600060405180830381865afa158015611c1f573d6000803e3d6000fd5b505050506040513d6000823e3d601f19601f82011682018060405250810190611c489190614f9d565b965096509650965096509650965090919293949596565b6000600260009054906101000a900473ffffffffffffffffffffffffffffffffffffffff1673ffffffffffffffffffffffffffffffffffffffff166324e6603784846040518363ffffffff1660e01b8152600401611cbe929190614236565b602060405180830381865afa158015611cdb573d6000803e3d6000fd5b505050506040513d601f19601f82011682018060405250810190611cff9190614209565b905092915050565b600360009054906101000a900473ffffffffffffffffffffffffffffffffffffffff1673ffffffffffffffffffffffffffffffffffffffff1663dc1e475f858585856040518563ffffffff1660e01b8152600401611d6894939291906141a1565b600060405180830381600087803b158015611d8257600080fd5b505af1158015611d96573d6000803e3d6000fd5b5050505050505050565b6060806060806060600360009054906101000a900473ffffffffffffffffffffffffffffffffffffffff1673ffffffffffffffffffffffffffffffffffffffff1663381a3bf7876040518263ffffffff1660e01b8152600401611e039190614266565b600060405180830381865afa158015611e20573d6000803e3d6000fd5b505050506040513d6000823e3d601f19601f82011682018060405250810190611e499190615103565b9450945094509450945091939590929450565b60608060606000806000600260009054906101000a900473ffffffffffffffffffffffffffffffffffffffff1673ffffffffffffffffffffffffffffffffffffffff16634b38f2db8b8b8b8b6040518563ffffffff1660e01b8152600401611ec794939291906141a1565b600060405180830381865afa158015611ee4573d6000803e3d6000fd5b505050506040513d6000823e3d601f19601f82011682018060405250810190611f0d9190614c23565b9550955095509550955095509499939850945094509450565b606080606080606080600260009054906101000a900473ffffffffffffffffffffffffffffffffffffffff1673ffffffffffffffffffffffffffffffffffffffff16630c3f988289896040518363ffffffff1660e01b8152600401611f8c929190614e3f565b600060405180830381865afa158015611fa9573d6000803e3d6000fd5b505050506040513d6000823e3d601f19601f82011682018060405250810190611fd29190614587565b9550955095509550955095509295509295509295565b60008060009054906101000a900473ffffffffffffffffffffffffffffffffffffffff1673ffffffffffffffffffffffffffffffffffffffff1663174ceeab84846040518363ffffffff1660e01b8152600401612046929190614236565b602060405180830381865afa158015612063573d6000803e3d6000fd5b505050506040513d601f19601f820116820180604052508101906120879190614209565b905092915050565b60008060009054906101000a900473ffffffffffffffffffffffffffffffffffffffff1673ffffffffffffffffffffffffffffffffffffffff1663390363fe8585856040518463ffffffff1660e01b81526004016120ef9392919061520a565b602060405180830381865afa15801561210c573d6000803e3d6000fd5b505050506040513d601f19601f820116820180604052508101906121309190614209565b90509392505050565b6060806060806060600360009054906101000a900473ffffffffffffffffffffffffffffffffffffffff1673ffffffffffffffffffffffffffffffffffffffff1663ce1ec5bb876040518263ffffffff1660e01b815260040161219c9190614266565b600060405180830381865afa1580156121b9573d6000803e3d6000fd5b505050506040513d6000823e3d601f19601f820116820180604052508101906121e2919061533e565b9450945094509450945091939590929450565b60006060806060806060600260009054906101000a900473ffffffffffffffffffffffffffffffffffffffff1673ffffffffffffffffffffffffffffffffffffffff16630f53a470886040518263ffffffff1660e01b815260040161225a9190614266565b600060405180830381865afa158015612277573d6000803e3d6000fd5b505050506040513d6000823e3d601f19601f820116820180604052508101906122a09190615445565b95509550955095509550955091939550919395565b600260009054906101000a900473ffffffffffffffffffffffffffffffffffffffff1673ffffffffffffffffffffffffffffffffffffffff1663dd8f3edc888888888888886040518863ffffffff1660e01b815260040161231c979695949392919061340a565b600060405180830381600087803b15801561233657600080fd5b505af115801561234a573d6000803e3d6000fd5b5050505050505050505050565b60008054906101000a900473ffffffffffffffffffffffffffffffffffffffff1673ffffffffffffffffffffffffffffffffffffffff166360ccb2048484846040518463ffffffff1660e01b81526004016123b49392919061555e565b600060405180830381600087803b1580156123ce57600080fd5b505af11580156123e2573d6000803e3d6000fd5b50505050505050565b606080606080606080600260009054906101000a900473ffffffffffffffffffffffffffffffffffffffff1673ffffffffffffffffffffffffffffffffffffffff166306ed1e8989896040518363ffffffff1660e01b8152600401612451929190614e3f565b600060405180830381865afa15801561246e573d6000803e3d6000fd5b505050506040513d6000823e3d601f19601f820116820180604052508101906124979190614e68565b9550955095509550955095509295509295509295565b6000806060600360009054906101000a900473ffffffffffffffffffffffffffffffffffffffff1673ffffffffffffffffffffffffffffffffffffffff1663e9daa70a86866040518363ffffffff1660e01b815260040161250f929190614e3f565b600060405180830381865afa15801561252c573d6000803e3d6000fd5b505050506040513d6000823e3d601f19601f82011682018060405250810190612555919061559c565b9250925092509250925092565b60008054906101000a900473ffffffffffffffffffffffffffffffffffffffff1673ffffffffffffffffffffffffffffffffffffffff1663a06b883d8484846040518463ffffffff1660e01b81526004016125bf9392919061555e565b600060405180830381600087803b1580156125d957600080fd5b505af11580156125ed573d6000803e3d6000fd5b50505050505050565b600080600360009054906101000a900473ffffffffffffffffffffffffffffffffffffffff1673ffffffffffffffffffffffffffffffffffffffff1663dae7debd866040518263ffffffff1660e01b81526004016126549190614266565b602060405180830381865afa158015612671573d6000803e3d6000fd5b505050506040513d601f19601f820116820180604052508101906126959190614209565b90506000600360009054906101000a900473ffffffffffffffffffffffffffffffffffffffff1673ffffffffffffffffffffffffffffffffffffffff166386b87ba28787876040518463ffffffff1660e01b81526004016126f89392919061520a565b602060405180830381865afa158015612715573d6000803e3d6000fd5b505050506040513d601f19601f820116820180604052508101906127399190614209565b90508082111561274e57600192505050612751565b50505b9392505050565b60008054906101000a900473ffffffffffffffffffffffffffffffffffffffff1673ffffffffffffffffffffffffffffffffffffffff1663804fcf138a8a8a8a8a8a8a8a8a6040518a63ffffffff1660e01b81526004016127c1999897969594939291906140dc565b600060405180830381600087803b1580156127db57600080fd5b505af11580156127ef573d6000803e3d6000fd5b50505050505050505050505050565b600360009054906101000a900473ffffffffffffffffffffffffffffffffffffffff1673ffffffffffffffffffffffffffffffffffffffff1663f7a7b83d86868686866040518663ffffffff1660e01b815260040161286195949392919061560b565b600060405180830381600087803b15801561287b57600080fd5b505af115801561288f573d6000803e3d6000fd5b505050505050505050565b600060608060608060608060608060008054906101000a900473ffffffffffffffffffffffffffffffffffffffff1673ffffffffffffffffffffffffffffffffffffffff16630f53a4708b6040518263ffffffff1660e01b81526004016129019190614266565b600060405180830381865afa15801561291e573d6000803e3d6000fd5b505050506040513d6000823e3d601f19601f820116820180604052508101906129479190615673565b9850985098509850985098509850985098509193959799909294969850565b6000604051905090565b600080fd5b600080fd5b600073ffffffffffffffffffffffffffffffffffffffff82169050919050565b60006129a58261297a565b9050919050565b6129b58161299a565b81146129c057600080fd5b50565b6000813590506129d2816129ac565b92915050565b600080fd5b600080fd5b6000601f19601f8301169050919050565b7f4e487b7100000000000000000000000000000000000000000000000000000000600052604160045260246000fd5b612a2b826129e2565b810181811067ffffffffffffffff82111715612a4a57612a496129f3565b5b80604052505050565b6000612a5d612966565b9050612a698282612a22565b919050565b600067ffffffffffffffff821115612a8957612a886129f3565b5b612a92826129e2565b9050602081019050919050565b82818337600083830152505050565b6000612ac1612abc84612a6e565b612a53565b905082815260208101848484011115612add57612adc6129dd565b5b612ae8848285612a9f565b509392505050565b600082601f830112612b0557612b046129d8565b5b8135612b15848260208601612aae565b91505092915050565b60008060008060808587031215612b3857612b37612970565b5b6000612b46878288016129c3565b9450506020612b57878288016129c3565b935050604085013567ffffffffffffffff811115612b7857612b77612975565b5b612b8487828801612af0565b925050606085013567ffffffffffffffff811115612ba557612ba4612975565b5b612bb187828801612af0565b91505092959194509250565b600080600060608486031215612bd657612bd5612970565b5b6000612be4868287016129c3565b9350506020612bf5868287016129c3565b925050604084013567ffffffffffffffff811115612c1657612c15612975565b5b612c2286828701612af0565b9150509250925092565b6000819050919050565b612c3f81612c2c565b82525050565b6000602082019050612c5a6000830184612c36565b92915050565b60008060408385031215612c7757612c76612970565b5b6000612c85858286016129c3565b925050602083013567ffffffffffffffff811115612ca657612ca5612975565b5b612cb285828601612af0565b9150509250929050565b600060208284031215612cd257612cd1612970565b5b6000612ce0848285016129c3565b91505092915050565b600081519050919050565b600082825260208201905092915050565b6000819050602082019050919050565b60007fffffffff0000000000000000000000000000000000000000000000000000000082169050919050565b612d4a81612d15565b82525050565b6000612d5c8383612d41565b60208301905092915050565b6000602082019050919050565b6000612d8082612ce9565b612d8a8185612cf4565b9350612d9583612d05565b8060005b83811015612dc6578151612dad8882612d50565b9750612db883612d68565b925050600181019050612d99565b5085935050505092915050565b600081519050919050565b600082825260208201905092915050565b6000819050602082019050919050565b612e088161299a565b82525050565b6000612e1a8383612dff565b60208301905092915050565b6000602082019050919050565b6000612e3e82612dd3565b612e488185612dde565b9350612e5383612def565b8060005b83811015612e84578151612e6b8882612e0e565b9750612e7683612e26565b925050600181019050612e57565b5085935050505092915050565b600081519050919050565b600082825260208201905092915050565b6000819050602082019050919050565b600081519050919050565b600082825260208201905092915050565b60005b83811015612ef7578082015181840152602081019050612edc565b83811115612f06576000848401525b50505050565b6000612f1782612ebd565b612f218185612ec8565b9350612f31818560208601612ed9565b612f3a816129e2565b840191505092915050565b6000612f518383612f0c565b905092915050565b6000602082019050919050565b6000612f7182612e91565b612f7b8185612e9c565b935083602082028501612f8d85612ead565b8060005b85811015612fc95784840389528151612faa8582612f45565b9450612fb583612f59565b925060208a01995050600181019050612f91565b50829750879550505050505092915050565b600060c0820190508181036000830152612ff58189612d75565b905081810360208301526130098188612e33565b9050818103604083015261301d8187612e33565b905081810360608301526130318186612f66565b905081810360808301526130458185612f66565b905081810360a08301526130598184612f66565b9050979650505050505050565b61306f81612c2c565b811461307a57600080fd5b50565b60008135905061308c81613066565b92915050565b60008060008060008060c087890312156130af576130ae612970565b5b60006130bd89828a016129c3565b965050602087013567ffffffffffffffff8111156130de576130dd612975565b5b6130ea89828a01612af0565b955050604087013567ffffffffffffffff81111561310b5761310a612975565b5b61311789828a01612af0565b945050606087013567ffffffffffffffff81111561313857613137612975565b5b61314489828a01612af0565b935050608061315589828a0161307d565b92505060a061316689828a0161307d565b9150509295509295509295565b61317c81612d15565b811461318757600080fd5b50565b60008135905061319981613173565b92915050565b600080600080608085870312156131b9576131b8612970565b5b60006131c7878288016129c3565b94505060206131d8878288016129c3565b93505060406131e98782880161318a565b925050606085013567ffffffffffffffff81111561320a57613209612975565b5b61321687828801612af0565b91505092959194509250565b60008060008060008060c0878903121561323f5761323e612970565b5b600061324d89828a016129c3565b965050602087013567ffffffffffffffff81111561326e5761326d612975565b5b61327a89828a01612af0565b955050604087013567ffffffffffffffff81111561329b5761329a612975565b5b6132a789828a01612af0565b945050606087013567ffffffffffffffff8111156132c8576132c7612975565b5b6132d489828a01612af0565b935050608087013567ffffffffffffffff8111156132f5576132f4612975565b5b61330189828a01612af0565b92505060a087013567ffffffffffffffff81111561332257613321612975565b5b61332e89828a01612af0565b9150509295509295509295565b600060a08201905081810360008301526133558188612f66565b905081810360208301526133698187612f66565b9050818103604083015261337d8186612f66565b905081810360608301526133918185612f66565b905081810360808301526133a58184612f66565b90509695505050505050565b6133ba8161299a565b82525050565b600082825260208201905092915050565b60006133dc82612ebd565b6133e681856133c0565b93506133f6818560208601612ed9565b6133ff816129e2565b840191505092915050565b600060e08201905061341f600083018a6133b1565b818103602083015261343181896133d1565b9050818103604083015261344581886133d1565b9050818103606083015261345981876133d1565b9050818103608083015261346d81866133d1565b905081810360a083015261348181856133d1565b905081810360c083015261349581846133d1565b905098975050505050505050565b60006101008201905081810360008301526134be818b612e33565b905081810360208301526134d2818a612f66565b905081810360408301526134e68189612f66565b905081810360608301526134fa8188612f66565b9050818103608083015261350e8187612f66565b905081810360a08301526135228186612f66565b905081810360c08301526135368185612f66565b905081810360e083015261354a8184612f66565b90509998505050505050505050565b600080600080600080600080610100898b03121561357a57613579612970565b5b60006135888b828c016129c3565b985050602089013567ffffffffffffffff8111156135a9576135a8612975565b5b6135b58b828c01612af0565b975050604089013567ffffffffffffffff8111156135d6576135d5612975565b5b6135e28b828c01612af0565b965050606089013567ffffffffffffffff81111561360357613602612975565b5b61360f8b828c01612af0565b955050608089013567ffffffffffffffff8111156136305761362f612975565b5b61363c8b828c01612af0565b94505060a089013567ffffffffffffffff81111561365d5761365c612975565b5b6136698b828c01612af0565b93505060c089013567ffffffffffffffff81111561368a57613689612975565b5b6136968b828c01612af0565b92505060e089013567ffffffffffffffff8111156136b7576136b6612975565b5b6136c38b828c01612af0565b9150509295985092959890939650565b600060c08201905081810360008301526136ed81896133d1565b9050818103602083015261370181886133d1565b9050818103604083015261371581876133d1565b90506137246060830186612c36565b6137316080830185612c36565b61373e60a0830184612c36565b979650505050505050565b600081519050919050565b600082825260208201905092915050565b6000819050602082019050919050565b61377e81612c2c565b82525050565b60006137908383613775565b60208301905092915050565b6000602082019050919050565b60006137b482613749565b6137be8185613754565b93506137c983613765565b8060005b838110156137fa5781516137e18882613784565b97506137ec8361379c565b9250506001810190506137cd565b5085935050505092915050565b600060408201905081810360008301526138218185612f66565b9050818103602083015261383581846137a9565b90509392505050565b600080600080600080600060e0888a03121561385d5761385c612970565b5b600061386b8a828b016129c3565b975050602088013567ffffffffffffffff81111561388c5761388b612975565b5b6138988a828b01612af0565b965050604088013567ffffffffffffffff8111156138b9576138b8612975565b5b6138c58a828b01612af0565b955050606088013567ffffffffffffffff8111156138e6576138e5612975565b5b6138f28a828b01612af0565b945050608088013567ffffffffffffffff81111561391357613912612975565b5b61391f8a828b01612af0565b93505060a088013567ffffffffffffffff8111156139405761393f612975565b5b61394c8a828b01612af0565b92505060c088013567ffffffffffffffff81111561396d5761396c612975565b5b6139798a828b01612af0565b91505092959891949750929550565b6000806040838503121561399f5761399e612970565b5b60006139ad858286016129c3565b92505060206139be858286016129c3565b9150509250929050565b600060c08201905081810360008301526139e28189612f66565b905081810360208301526139f68188612f66565b90508181036040830152613a0a8187612f66565b90508181036060830152613a1e81866137a9565b90508181036080830152613a3281856137a9565b905081810360a0830152613a4681846137a9565b9050979650505050505050565b600060e0820190508181036000830152613a6d818a612e33565b90508181036020830152613a818189612f66565b90508181036040830152613a958188612f66565b90508181036060830152613aa98187612f66565b90508181036080830152613abd8186612f66565b905081810360a0830152613ad18185612f66565b905081810360c0830152613ae58184612f66565b905098975050505050505050565b600060a0820190508181036000830152613b0d8188612e33565b90508181036020830152613b218187612e33565b90508181036040830152613b358186612f66565b90508181036060830152613b498185612f66565b90508181036080830152613b5d8184612f66565b90509695505050505050565b600080600060608486031215613b8257613b81612970565b5b6000613b90868287016129c3565b935050602084013567ffffffffffffffff811115613bb157613bb0612975565b5b613bbd86828701612af0565b925050604084013567ffffffffffffffff811115613bde57613bdd612975565b5b613bea86828701612af0565b9150509250925092565b600081519050919050565b600082825260208201905092915050565b6000819050602082019050919050565b6000819050919050565b613c3381613c20565b82525050565b6000613c458383613c2a565b60208301905092915050565b6000602082019050919050565b6000613c6982613bf4565b613c738185613bff565b9350613c7e83613c10565b8060005b83811015613caf578151613c968882613c39565b9750613ca183613c51565b925050600181019050613c82565b5085935050505092915050565b600060a0820190508181036000830152613cd68188613c5e565b90508181036020830152613cea8187612f66565b90508181036040830152613cfe8186612f66565b90508181036060830152613d128185612f66565b90508181036080830152613d2681846137a9565b90509695505050505050565b600060c082019050613d4760008301896133b1565b8181036020830152613d5981886133d1565b90508181036040830152613d6d81876133d1565b90508181036060830152613d8181866133d1565b90508181036080830152613d9581856133d1565b905081810360a0830152613da981846133d1565b9050979650505050505050565b600080600060608486031215613dcf57613dce612970565b5b6000613ddd868287016129c3565b935050602084013567ffffffffffffffff811115613dfe57613dfd612975565b5b613e0a86828701612af0565b9250506040613e1b8682870161307d565b9150509250925092565b6000606082019050613e3a60008301866133b1565b613e4760208301856133b1565b8181036040830152613e5981846133d1565b9050949350505050565b60008060008060008060008060006101208a8c031215613e8657613e85612970565b5b6000613e948c828d016129c3565b99505060208a013567ffffffffffffffff811115613eb557613eb4612975565b5b613ec18c828d01612af0565b98505060408a013567ffffffffffffffff811115613ee257613ee1612975565b5b613eee8c828d01612af0565b97505060608a013567ffffffffffffffff811115613f0f57613f0e612975565b5b613f1b8c828d01612af0565b96505060808a013567ffffffffffffffff811115613f3c57613f3b612975565b5b613f488c828d01612af0565b95505060a08a013567ffffffffffffffff811115613f6957613f68612975565b5b613f758c828d01612af0565b94505060c08a013567ffffffffffffffff811115613f9657613f95612975565b5b613fa28c828d01612af0565b93505060e08a013567ffffffffffffffff811115613fc357613fc2612975565b5b613fcf8c828d01612af0565b9250506101008a013567ffffffffffffffff811115613ff157613ff0612975565b5b613ffd8c828d01612af0565b9150509295985092959850929598565b600080600080600060a0868803121561402957614028612970565b5b6000614037888289016129c3565b955050602086013567ffffffffffffffff81111561405857614057612975565b5b61406488828901612af0565b945050604086013567ffffffffffffffff81111561408557614084612975565b5b61409188828901612af0565b935050606086013567ffffffffffffffff8111156140b2576140b1612975565b5b6140be88828901612af0565b92505060806140cf8882890161307d565b9150509295509295909350565b6000610120820190506140f2600083018c6133b1565b8181036020830152614104818b6133d1565b90508181036040830152614118818a6133d1565b9050818103606083015261412c81896133d1565b9050818103608083015261414081886133d1565b905081810360a083015261415481876133d1565b905081810360c083015261416881866133d1565b905081810360e083015261417c81856133d1565b905081810361010083015261419181846133d1565b90509a9950505050505050505050565b60006080820190506141b660008301876133b1565b6141c360208301866133b1565b81810360408301526141d581856133d1565b905081810360608301526141e981846133d1565b905095945050505050565b60008151905061420381613066565b92915050565b60006020828403121561421f5761421e612970565b5b600061422d848285016141f4565b91505092915050565b600060408201905061424b60008301856133b1565b818103602083015261425d81846133d1565b90509392505050565b600060208201905061427b60008301846133b1565b92915050565b600067ffffffffffffffff82111561429c5761429b6129f3565b5b602082029050602081019050919050565b600080fd5b6000815190506142c181613173565b92915050565b60006142da6142d584614281565b612a53565b905080838252602082019050602084028301858111156142fd576142fc6142ad565b5b835b81811015614326578061431288826142b2565b8452602084019350506020810190506142ff565b5050509392505050565b600082601f830112614345576143446129d8565b5b81516143558482602086016142c7565b91505092915050565b600067ffffffffffffffff821115614379576143786129f3565b5b602082029050602081019050919050565b600081519050614399816129ac565b92915050565b60006143b26143ad8461435e565b612a53565b905080838252602082019050602084028301858111156143d5576143d46142ad565b5b835b818110156143fe57806143ea888261438a565b8452602084019350506020810190506143d7565b5050509392505050565b600082601f83011261441d5761441c6129d8565b5b815161442d84826020860161439f565b91505092915050565b600067ffffffffffffffff821115614451576144506129f3565b5b602082029050602081019050919050565b600061447561447084612a6e565b612a53565b905082815260208101848484011115614491576144906129dd565b5b61449c848285612ed9565b509392505050565b600082601f8301126144b9576144b86129d8565b5b81516144c9848260208601614462565b91505092915050565b60006144e56144e084614436565b612a53565b90508083825260208201905060208402830185811115614508576145076142ad565b5b835b8181101561454f57805167ffffffffffffffff81111561452d5761452c6129d8565b5b80860161453a89826144a4565b8552602085019450505060208101905061450a565b5050509392505050565b600082601f83011261456e5761456d6129d8565b5b815161457e8482602086016144d2565b91505092915050565b60008060008060008060c087890312156145a4576145a3612970565b5b600087015167ffffffffffffffff8111156145c2576145c1612975565b5b6145ce89828a01614330565b965050602087015167ffffffffffffffff8111156145ef576145ee612975565b5b6145fb89828a01614408565b955050604087015167ffffffffffffffff81111561461c5761461b612975565b5b61462889828a01614408565b945050606087015167ffffffffffffffff81111561464957614648612975565b5b61465589828a01614559565b935050608087015167ffffffffffffffff81111561467657614675612975565b5b61468289828a01614559565b92505060a087015167ffffffffffffffff8111156146a3576146a2612975565b5b6146af89828a01614559565b9150509295509295509295565b600060c0820190506146d160008301896133b1565b81810360208301526146e381886133d1565b905081810360408301526146f781876133d1565b9050818103606083015261470b81866133d1565b905061471a6080830185612c36565b61472760a0830184612c36565b979650505050505050565b61473b81612d15565b82525050565b600060808201905061475660008301876133b1565b61476360208301866133b1565b6147706040830185614732565b818103606083015261478281846133d1565b905095945050505050565b600080600080600060a086880312156147a9576147a8612970565b5b600086015167ffffffffffffffff8111156147c7576147c6612975565b5b6147d388828901614559565b955050602086015167ffffffffffffffff8111156147f4576147f3612975565b5b61480088828901614559565b945050604086015167ffffffffffffffff81111561482157614820612975565b5b61482d88828901614559565b935050606086015167ffffffffffffffff81111561484e5761484d612975565b5b61485a88828901614559565b925050608086015167ffffffffffffffff81111561487b5761487a612975565b5b61488788828901614559565b9150509295509295909350565b600080600080600080600060e0888a0312156148b3576148b2612970565b5b60006148c18a828b0161438a565b975050602088015167ffffffffffffffff8111156148e2576148e1612975565b5b6148ee8a828b016144a4565b965050604088015167ffffffffffffffff81111561490f5761490e612975565b5b61491b8a828b016144a4565b955050606088015167ffffffffffffffff81111561493c5761493b612975565b5b6149488a828b016144a4565b945050608088015167ffffffffffffffff81111561496957614968612975565b5b6149758a828b016144a4565b93505060a088015167ffffffffffffffff81111561499657614995612975565b5b6149a28a828b016144a4565b92505060c088015167ffffffffffffffff8111156149c3576149c2612975565b5b6149cf8a828b016144a4565b91505092959891949750929550565b600080600080600080600080610100898b0312156149ff576149fe612970565b5b600089015167ffffffffffffffff811115614a1d57614a1c612975565b5b614a298b828c01614408565b985050602089015167ffffffffffffffff811115614a4a57614a49612975565b5b614a568b828c01614559565b975050604089015167ffffffffffffffff811115614a7757614a76612975565b5b614a838b828c01614559565b965050606089015167ffffffffffffffff811115614aa457614aa3612975565b5b614ab08b828c01614559565b955050608089015167ffffffffffffffff811115614ad157614ad0612975565b5b614add8b828c01614559565b94505060a089015167ffffffffffffffff811115614afe57614afd612975565b5b614b0a8b828c01614559565b93505060c089015167ffffffffffffffff811115614b2b57614b2a612975565b5b614b378b828c01614559565b92505060e089015167ffffffffffffffff811115614b5857614b57612975565b5b614b648b828c01614559565b9150509295985092959890939650565b600061010082019050614b8a600083018b6133b1565b8181036020830152614b9c818a6133d1565b90508181036040830152614bb081896133d1565b90508181036060830152614bc481886133d1565b90508181036080830152614bd881876133d1565b905081810360a0830152614bec81866133d1565b905081810360c0830152614c0081856133d1565b905081810360e0830152614c1481846133d1565b90509998505050505050505050565b60008060008060008060c08789031215614c4057614c3f612970565b5b600087015167ffffffffffffffff811115614c5e57614c5d612975565b5b614c6a89828a016144a4565b965050602087015167ffffffffffffffff811115614c8b57614c8a612975565b5b614c9789828a016144a4565b955050604087015167ffffffffffffffff811115614cb857614cb7612975565b5b614cc489828a016144a4565b9450506060614cd589828a016141f4565b9350506080614ce689828a016141f4565b92505060a0614cf789828a016141f4565b9150509295509295509295565b600067ffffffffffffffff821115614d1f57614d1e6129f3565b5b602082029050602081019050919050565b6000614d43614d3e84614d04565b612a53565b90508083825260208201905060208402830185811115614d6657614d656142ad565b5b835b81811015614d8f5780614d7b88826141f4565b845260208401935050602081019050614d68565b5050509392505050565b600082601f830112614dae57614dad6129d8565b5b8151614dbe848260208601614d30565b91505092915050565b60008060408385031215614dde57614ddd612970565b5b600083015167ffffffffffffffff811115614dfc57614dfb612975565b5b614e0885828601614559565b925050602083015167ffffffffffffffff811115614e2957614e28612975565b5b614e3585828601614d99565b9150509250929050565b6000604082019050614e5460008301856133b1565b614e6160208301846133b1565b9392505050565b60008060008060008060c08789031215614e8557614e84612970565b5b600087015167ffffffffffffffff811115614ea357614ea2612975565b5b614eaf89828a01614559565b965050602087015167ffffffffffffffff811115614ed057614ecf612975565b5b614edc89828a01614559565b955050604087015167ffffffffffffffff811115614efd57614efc612975565b5b614f0989828a01614559565b945050606087015167ffffffffffffffff811115614f2a57614f29612975565b5b614f3689828a01614d99565b935050608087015167ffffffffffffffff811115614f5757614f56612975565b5b614f6389828a01614d99565b92505060a087015167ffffffffffffffff811115614f8457614f83612975565b5b614f9089828a01614d99565b9150509295509295509295565b600080600080600080600060e0888a031215614fbc57614fbb612970565b5b600088015167ffffffffffffffff811115614fda57614fd9612975565b5b614fe68a828b01614408565b975050602088015167ffffffffffffffff81111561500757615006612975565b5b6150138a828b01614559565b965050604088015167ffffffffffffffff81111561503457615033612975565b5b6150408a828b01614559565b955050606088015167ffffffffffffffff81111561506157615060612975565b5b61506d8a828b01614559565b945050608088015167ffffffffffffffff81111561508e5761508d612975565b5b61509a8a828b01614559565b93505060a088015167ffffffffffffffff8111156150bb576150ba612975565b5b6150c78a828b01614559565b92505060c088015167ffffffffffffffff8111156150e8576150e7612975565b5b6150f48a828b01614559565b91505092959891949750929550565b600080600080600060a0868803121561511f5761511e612970565b5b600086015167ffffffffffffffff81111561513d5761513c612975565b5b61514988828901614408565b955050602086015167ffffffffffffffff81111561516a57615169612975565b5b61517688828901614408565b945050604086015167ffffffffffffffff81111561519757615196612975565b5b6151a388828901614559565b935050606086015167ffffffffffffffff8111156151c4576151c3612975565b5b6151d088828901614559565b925050608086015167ffffffffffffffff8111156151f1576151f0612975565b5b6151fd88828901614559565b9150509295509295909350565b600060608201905061521f60008301866133b1565b818103602083015261523181856133d1565b9050818103604083015261524581846133d1565b9050949350505050565b600067ffffffffffffffff82111561526a576152696129f3565b5b602082029050602081019050919050565b61528481613c20565b811461528f57600080fd5b50565b6000815190506152a18161527b565b92915050565b60006152ba6152b58461524f565b612a53565b905080838252602082019050602084028301858111156152dd576152dc6142ad565b5b835b8181101561530657806152f28882615292565b8452602084019350506020810190506152df565b5050509392505050565b600082601f830112615325576153246129d8565b5b81516153358482602086016152a7565b91505092915050565b600080600080600060a0868803121561535a57615359612970565b5b600086015167ffffffffffffffff81111561537857615377612975565b5b61538488828901615310565b955050602086015167ffffffffffffffff8111156153a5576153a4612975565b5b6153b188828901614559565b945050604086015167ffffffffffffffff8111156153d2576153d1612975565b5b6153de88828901614559565b935050606086015167ffffffffffffffff8111156153ff576153fe612975565b5b61540b88828901614559565b925050608086015167ffffffffffffffff81111561542c5761542b612975565b5b61543888828901614d99565b9150509295509295909350565b60008060008060008060c0878903121561546257615461612970565b5b600061547089828a0161438a565b965050602087015167ffffffffffffffff81111561549157615490612975565b5b61549d89828a016144a4565b955050604087015167ffffffffffffffff8111156154be576154bd612975565b5b6154ca89828a016144a4565b945050606087015167ffffffffffffffff8111156154eb576154ea612975565b5b6154f789828a016144a4565b935050608087015167ffffffffffffffff81111561551857615517612975565b5b61552489828a016144a4565b92505060a087015167ffffffffffffffff81111561554557615544612975565b5b61555189828a016144a4565b9150509295509295509295565b600060608201905061557360008301866133b1565b818103602083015261558581856133d1565b90506155946040830184612c36565b949350505050565b6000806000606084860312156155b5576155b4612970565b5b60006155c38682870161438a565b93505060206155d48682870161438a565b925050604084015167ffffffffffffffff8111156155f5576155f4612975565b5b615601868287016144a4565b9150509250925092565b600060a08201905061562060008301886133b1565b818103602083015261563281876133d1565b9050818103604083015261564681866133d1565b9050818103606083015261565a81856133d1565b90506156696080830184612c36565b9695505050505050565b60008060008060008060008060006101208a8c03121561569657615695612970565b5b60006156a48c828d0161438a565b99505060208a015167ffffffffffffffff8111156156c5576156c4612975565b5b6156d18c828d016144a4565b98505060408a015167ffffffffffffffff8111156156f2576156f1612975565b5b6156fe8c828d016144a4565b97505060608a015167ffffffffffffffff81111561571f5761571e612975565b5b61572b8c828d016144a4565b96505060808a015167ffffffffffffffff81111561574c5761574b612975565b5b6157588c828d016144a4565b95505060a08a015167ffffffffffffffff81111561577957615778612975565b5b6157858c828d016144a4565b94505060c08a015167ffffffffffffffff8111156157a6576157a5612975565b5b6157b28c828d016144a4565b93505060e08a015167ffffffffffffffff8111156157d3576157d2612975565b5b6157df8c828d016144a4565b9250506101008a015167ffffffffffffffff81111561580157615800612975565b5b61580d8c828d016144a4565b915050929598509295985092959856fea2646970667358221220188cead8a17ff90687e1fa7e3437a1b7a4fb52bb578caf45f963ea216c665c2964736f6c634300080b0033608060405234801561001057600080fd5b5061458e806100206000396000f3fe608060405234801561001057600080fd5b50600436106101165760003560e01c8063804fcf13116100a2578063a06b883d11610071578063a06b883d1461036a578063ac4b204914610386578063b24f7016146103b7578063d64b6913146103d3578063dcc45352146103f857610116565b8063804fcf13146102ba5780638ce211bc146102d65780638e8913931461030a578063961ecb5b1461033a57610116565b80633aff2cc5116100e95780633aff2cc5146101e85780633d746f0a1461021a57806360ccb204146102365780636704710714610252578063716b5ab41461028a57610116565b80630f53a4701461011b578063174ceeab146101535780632a631a5414610183578063390363fe146101b8575b600080fd5b6101356004803603810190610130919061353c565b610414565b60405161014a99989796959493929190613611565b60405180910390f35b61016d6004803603810190610168919061380b565b610ab3565b60405161017a9190613880565b60405180910390f35b61019d600480360381019061019891906138c7565b610bb1565b6040516101af969594939291906138f4565b60405180910390f35b6101d260048036038101906101cd9190613978565b610ec5565b6040516101df9190613880565b60405180910390f35b61020260048036038101906101fd91906138c7565b61100f565b60405161021193929190613a03565b60405180910390f35b610234600480360381019061022f9190613a41565b6110f1565b005b610250600480360381019061024b9190613b5a565b61131d565b005b61026c600480360381019061026791906138c7565b61143f565b60405161028199989796959493929190613611565b60405180910390f35b6102a4600480360381019061029f919061380b565b6118fd565b6040516102b19190613880565b60405180910390f35b6102d460048036038101906102cf9190613bc9565b6119fb565b005b6102f060048036038101906102eb919061353c565b611bb9565b604051610301959493929190613e7f565b60405180910390f35b610324600480360381019061031f919061353c565b61222b565b6040516103319190613880565b60405180910390f35b610354600480360381019061034f919061353c565b6122e8565b6040516103619190613880565b60405180910390f35b610384600480360381019061037f9190613b5a565b61239a565b005b6103a0600480360381019061039b919061353c565b612505565b6040516103ae929190613fb3565b60405180910390f35b6103d160048036038101906103cc9190613fea565b61276d565b005b6103db6129ab565b6040516103ef989796959493929190614222565b60405180910390f35b610412600480360381019061040d9190613a41565b6132d7565b005b600060608060608060608060608060005b600080549050811015610aa4578a73ffffffffffffffffffffffffffffffffffffffff166000828154811061045d5761045c6142d8565b5b906000526020600020906009020160000160009054906101000a900473ffffffffffffffffffffffffffffffffffffffff1673ffffffffffffffffffffffffffffffffffffffff161415610a9157600081815481106104bf576104be6142d8565b5b906000526020600020906009020160000160009054906101000a900473ffffffffffffffffffffffffffffffffffffffff1660008281548110610505576105046142d8565b5b90600052602060002090600902016001016000838154811061052a576105296142d8565b5b90600052602060002090600902016002016000848154811061054f5761054e6142d8565b5b906000526020600020906009020160030160008581548110610574576105736142d8565b5b906000526020600020906009020160040160008681548110610599576105986142d8565b5b9060005260206000209060090201600501600087815481106105be576105bd6142d8565b5b9060005260206000209060090201600601600088815481106105e3576105e26142d8565b5b906000526020600020906009020160070160008981548110610608576106076142d8565b5b906000526020600020906009020160080187805461062590614336565b80601f016020809104026020016040519081016040528092919081815260200182805461065190614336565b801561069e5780601f106106735761010080835404028352916020019161069e565b820191906000526020600020905b81548152906001019060200180831161068157829003601f168201915b505050505097508680546106b190614336565b80601f01602080910402602001604051908101604052809291908181526020018280546106dd90614336565b801561072a5780601f106106ff5761010080835404028352916020019161072a565b820191906000526020600020905b81548152906001019060200180831161070d57829003601f168201915b5050505050965085805461073d90614336565b80601f016020809104026020016040519081016040528092919081815260200182805461076990614336565b80156107b65780601f1061078b576101008083540402835291602001916107b6565b820191906000526020600020905b81548152906001019060200180831161079957829003601f168201915b505050505095508480546107c990614336565b80601f01602080910402602001604051908101604052809291908181526020018280546107f590614336565b80156108425780601f1061081757610100808354040283529160200191610842565b820191906000526020600020905b81548152906001019060200180831161082557829003601f168201915b5050505050945083805461085590614336565b80601f016020809104026020016040519081016040528092919081815260200182805461088190614336565b80156108ce5780601f106108a3576101008083540402835291602001916108ce565b820191906000526020600020905b8154815290600101906020018083116108b157829003601f168201915b505050505093508280546108e190614336565b80601f016020809104026020016040519081016040528092919081815260200182805461090d90614336565b801561095a5780601f1061092f5761010080835404028352916020019161095a565b820191906000526020600020905b81548152906001019060200180831161093d57829003601f168201915b5050505050925081805461096d90614336565b80601f016020809104026020016040519081016040528092919081815260200182805461099990614336565b80156109e65780601f106109bb576101008083540402835291602001916109e6565b820191906000526020600020905b8154815290600101906020018083116109c957829003601f168201915b505050505091508080546109f990614336565b80601f0160208091040260200160405190810160405280929190818152602001828054610a2590614336565b8015610a725780601f10610a4757610100808354040283529160200191610a72565b820191906000526020600020905b815481529060010190602001808311610a5557829003601f168201915b5050505050905099509950995099509950995099509950995050610aa6565b8080610a9c90614397565b915050610425565b505b9193959799909294969850565b600080600090505b600080549050811015610ba9578373ffffffffffffffffffffffffffffffffffffffff1660008281548110610af357610af26142d8565b5b906000526020600020906009020160000160009054906101000a900473ffffffffffffffffffffffffffffffffffffffff1673ffffffffffffffffffffffffffffffffffffffff16148015610b875750828051906020012060008281548110610b5f57610b5e6142d8565b5b9060005260206000209060090201600801604051610b7d919061447f565b6040518091039020145b15610b96576001915050610bab565b8080610ba190614397565b915050610abb565b505b92915050565b60028181548110610bc157600080fd5b90600052602060002090600602016000915090508060000160009054906101000a900473ffffffffffffffffffffffffffffffffffffffff1690806001018054610c0a90614336565b80601f0160208091040260200160405190810160405280929190818152602001828054610c3690614336565b8015610c835780601f10610c5857610100808354040283529160200191610c83565b820191906000526020600020905b815481529060010190602001808311610c6657829003601f168201915b505050505090806002018054610c9890614336565b80601f0160208091040260200160405190810160405280929190818152602001828054610cc490614336565b8015610d115780601f10610ce657610100808354040283529160200191610d11565b820191906000526020600020905b815481529060010190602001808311610cf457829003601f168201915b505050505090806003018054610d2690614336565b80601f0160208091040260200160405190810160405280929190818152602001828054610d5290614336565b8015610d9f5780601f10610d7457610100808354040283529160200191610d9f565b820191906000526020600020905b815481529060010190602001808311610d8257829003601f168201915b505050505090806004018054610db490614336565b80601f0160208091040260200160405190810160405280929190818152602001828054610de090614336565b8015610e2d5780601f10610e0257610100808354040283529160200191610e2d565b820191906000526020600020905b815481529060010190602001808311610e1057829003601f168201915b505050505090806005018054610e4290614336565b80601f0160208091040260200160405190810160405280929190818152602001828054610e6e90614336565b8015610ebb5780601f10610e9057610100808354040283529160200191610ebb565b820191906000526020600020905b815481529060010190602001808311610e9e57829003601f168201915b5050505050905086565b600080600090505b600280549050811015611006578473ffffffffffffffffffffffffffffffffffffffff1660028281548110610f0557610f046142d8565b5b906000526020600020906006020160000160009054906101000a900473ffffffffffffffffffffffffffffffffffffffff1673ffffffffffffffffffffffffffffffffffffffff16148015610f995750838051906020012060028281548110610f7157610f706142d8565b5b9060005260206000209060060201600101604051610f8f919061447f565b6040518091039020145b8015610fe45750828051906020012060028281548110610fbc57610fbb6142d8565b5b9060005260206000209060060201600201604051610fda919061447f565b6040518091039020145b15610ff3576001915050611008565b8080610ffe90614397565b915050610ecd565b505b9392505050565b6001818154811061101f57600080fd5b90600052602060002090600302016000915090508060000160009054906101000a900473ffffffffffffffffffffffffffffffffffffffff169080600101805461106890614336565b80601f016020809104026020016040519081016040528092919081815260200182805461109490614336565b80156110e15780601f106110b6576101008083540402835291602001916110e1565b820191906000526020600020905b8154815290600101906020018083116110c457829003601f168201915b5050505050908060020154905083565b60005b600280549050811015611314578673ffffffffffffffffffffffffffffffffffffffff166002828154811061112c5761112b6142d8565b5b906000526020600020906006020160000160009054906101000a900473ffffffffffffffffffffffffffffffffffffffff1673ffffffffffffffffffffffffffffffffffffffff16141561130157866002828154811061118f5761118e6142d8565b5b906000526020600020906006020160000160006101000a81548173ffffffffffffffffffffffffffffffffffffffff021916908373ffffffffffffffffffffffffffffffffffffffff16021790555085600282815481106111f3576111f26142d8565b5b90600052602060002090600602016001019080519060200190611217929190613427565b50846002828154811061122d5761122c6142d8565b5b90600052602060002090600602016002019080519060200190611251929190613427565b508360028281548110611267576112666142d8565b5b9060005260206000209060060201600301908051906020019061128b929190613427565b5082600282815481106112a1576112a06142d8565b5b906000526020600020906006020160040190805190602001906112c5929190613427565b5081600282815481106112db576112da6142d8565b5b906000526020600020906006020160050190805190602001906112ff929190613427565b505b808061130c90614397565b9150506110f4565b50505050505050565b6000811015801561132f575060648111155b61136e576040517f08c379a0000000000000000000000000000000000000000000000000000000008152600401611365906144e2565b60405180910390fd5b600160405180606001604052808573ffffffffffffffffffffffffffffffffffffffff16815260200184815260200183815250908060018154018082558091505060019003906000526020600020906003020160009091909190915060008201518160000160006101000a81548173ffffffffffffffffffffffffffffffffffffffff021916908373ffffffffffffffffffffffffffffffffffffffff160217905550602082015181600101908051906020019061142d929190613427565b50604082015181600201555050505050565b6000818154811061144f57600080fd5b90600052602060002090600902016000915090508060000160009054906101000a900473ffffffffffffffffffffffffffffffffffffffff169080600101805461149890614336565b80601f01602080910402602001604051908101604052809291908181526020018280546114c490614336565b80156115115780601f106114e657610100808354040283529160200191611511565b820191906000526020600020905b8154815290600101906020018083116114f457829003601f168201915b50505050509080600201805461152690614336565b80601f016020809104026020016040519081016040528092919081815260200182805461155290614336565b801561159f5780601f106115745761010080835404028352916020019161159f565b820191906000526020600020905b81548152906001019060200180831161158257829003601f168201915b5050505050908060030180546115b490614336565b80601f01602080910402602001604051908101604052809291908181526020018280546115e090614336565b801561162d5780601f106116025761010080835404028352916020019161162d565b820191906000526020600020905b81548152906001019060200180831161161057829003601f168201915b50505050509080600401805461164290614336565b80601f016020809104026020016040519081016040528092919081815260200182805461166e90614336565b80156116bb5780601f10611690576101008083540402835291602001916116bb565b820191906000526020600020905b81548152906001019060200180831161169e57829003601f168201915b5050505050908060050180546116d090614336565b80601f01602080910402602001604051908101604052809291908181526020018280546116fc90614336565b80156117495780601f1061171e57610100808354040283529160200191611749565b820191906000526020600020905b81548152906001019060200180831161172c57829003601f168201915b50505050509080600601805461175e90614336565b80601f016020809104026020016040519081016040528092919081815260200182805461178a90614336565b80156117d75780601f106117ac576101008083540402835291602001916117d7565b820191906000526020600020905b8154815290600101906020018083116117ba57829003601f168201915b5050505050908060070180546117ec90614336565b80601f016020809104026020016040519081016040528092919081815260200182805461181890614336565b80156118655780601f1061183a57610100808354040283529160200191611865565b820191906000526020600020905b81548152906001019060200180831161184857829003601f168201915b50505050509080600801805461187a90614336565b80601f01602080910402602001604051908101604052809291908181526020018280546118a690614336565b80156118f35780601f106118c8576101008083540402835291602001916118f3565b820191906000526020600020905b8154815290600101906020018083116118d657829003601f168201915b5050505050905089565b600080600090505b6001805490508110156119f3578373ffffffffffffffffffffffffffffffffffffffff166001828154811061193d5761193c6142d8565b5b906000526020600020906003020160000160009054906101000a900473ffffffffffffffffffffffffffffffffffffffff1673ffffffffffffffffffffffffffffffffffffffff161480156119d157508280519060200120600182815481106119a9576119a86142d8565b5b90600052602060002090600302016001016040516119c7919061447f565b6040518091039020145b156119e05760019150506119f5565b80806119eb90614397565b915050611905565b505b92915050565b60006040518061012001604052808b73ffffffffffffffffffffffffffffffffffffffff1681526020018a815260200189815260200188815260200187815260200186815260200185815260200184815260200183815250908060018154018082558091505060019003906000526020600020906009020160009091909190915060008201518160000160006101000a81548173ffffffffffffffffffffffffffffffffffffffff021916908373ffffffffffffffffffffffffffffffffffffffff1602179055506020820151816001019080519060200190611adf929190613427565b506040820151816002019080519060200190611afc929190613427565b506060820151816003019080519060200190611b19929190613427565b506080820151816004019080519060200190611b36929190613427565b5060a0820151816005019080519060200190611b53929190613427565b5060c0820151816006019080519060200190611b70929190613427565b5060e0820151816007019080519060200190611b8d929190613427565b50610100820151816008019080519060200190611bab929190613427565b505050505050505050505050565b6060806060806060600060028054905067ffffffffffffffff811115611be257611be16136e0565b5b604051908082528060200260200182016040528015611c1557816020015b6060815260200190600190039081611c005790505b509050600060028054905067ffffffffffffffff811115611c3957611c386136e0565b5b604051908082528060200260200182016040528015611c6c57816020015b6060815260200190600190039081611c575790505b509050600060028054905067ffffffffffffffff811115611c9057611c8f6136e0565b5b604051908082528060200260200182016040528015611cc357816020015b6060815260200190600190039081611cae5790505b509050600060028054905067ffffffffffffffff811115611ce757611ce66136e0565b5b604051908082528060200260200182016040528015611d1a57816020015b6060815260200190600190039081611d055790505b509050600060028054905067ffffffffffffffff811115611d3e57611d3d6136e0565b5b604051908082528060200260200182016040528015611d7157816020015b6060815260200190600190039081611d5c5790505b50905060005b60028054905081101561220d578b73ffffffffffffffffffffffffffffffffffffffff1660028281548110611daf57611dae6142d8565b5b906000526020600020906006020160000160009054906101000a900473ffffffffffffffffffffffffffffffffffffffff1673ffffffffffffffffffffffffffffffffffffffff1614156121fa5760028181548110611e1157611e106142d8565b5b90600052602060002090600602016001018054611e2d90614336565b80601f0160208091040260200160405190810160405280929190818152602001828054611e5990614336565b8015611ea65780601f10611e7b57610100808354040283529160200191611ea6565b820191906000526020600020905b815481529060010190602001808311611e8957829003601f168201915b5050505050868281518110611ebe57611ebd6142d8565b5b602002602001018190525060028181548110611edd57611edc6142d8565b5b90600052602060002090600602016002018054611ef990614336565b80601f0160208091040260200160405190810160405280929190818152602001828054611f2590614336565b8015611f725780601f10611f4757610100808354040283529160200191611f72565b820191906000526020600020905b815481529060010190602001808311611f5557829003601f168201915b5050505050858281518110611f8a57611f896142d8565b5b602002602001018190525060028181548110611fa957611fa86142d8565b5b90600052602060002090600602016003018054611fc590614336565b80601f0160208091040260200160405190810160405280929190818152602001828054611ff190614336565b801561203e5780601f106120135761010080835404028352916020019161203e565b820191906000526020600020905b81548152906001019060200180831161202157829003601f168201915b5050505050848281518110612056576120556142d8565b5b602002602001018190525060028181548110612075576120746142d8565b5b9060005260206000209060060201600401805461209190614336565b80601f01602080910402602001604051908101604052809291908181526020018280546120bd90614336565b801561210a5780601f106120df5761010080835404028352916020019161210a565b820191906000526020600020905b8154815290600101906020018083116120ed57829003601f168201915b5050505050838281518110612122576121216142d8565b5b602002602001018190525060028181548110612141576121406142d8565b5b9060005260206000209060060201600501805461215d90614336565b80601f016020809104026020016040519081016040528092919081815260200182805461218990614336565b80156121d65780601f106121ab576101008083540402835291602001916121d6565b820191906000526020600020905b8154815290600101906020018083116121b957829003601f168201915b50505050508282815181106121ee576121ed6142d8565b5b60200260200101819052505b808061220590614397565b915050611d77565b50848484848499509950995099509950505050505091939590929450565b6000806000905060005b6001805490508110156122de578373ffffffffffffffffffffffffffffffffffffffff166001828154811061226d5761226c6142d8565b5b906000526020600020906003020160000160009054906101000a900473ffffffffffffffffffffffffffffffffffffffff1673ffffffffffffffffffffffffffffffffffffffff1614156122cb576001826122c89190614502565b91505b80806122d690614397565b915050612235565b5080915050919050565b600080600090505b600080549050811015612393578273ffffffffffffffffffffffffffffffffffffffff1660008281548110612328576123276142d8565b5b906000526020600020906009020160000160009054906101000a900473ffffffffffffffffffffffffffffffffffffffff1673ffffffffffffffffffffffffffffffffffffffff161415612380576001915050612395565b808061238b90614397565b9150506122f0565b505b919050565b60005b6001805490508110156124ff578373ffffffffffffffffffffffffffffffffffffffff16600182815481106123d5576123d46142d8565b5b906000526020600020906003020160000160009054906101000a900473ffffffffffffffffffffffffffffffffffffffff1673ffffffffffffffffffffffffffffffffffffffff1614156124ec578360018281548110612438576124376142d8565b5b906000526020600020906003020160000160006101000a81548173ffffffffffffffffffffffffffffffffffffffff021916908373ffffffffffffffffffffffffffffffffffffffff160217905550826001828154811061249c5761249b6142d8565b5b906000526020600020906003020160010190805190602001906124c0929190613427565b5081600182815481106124d6576124d56142d8565b5b9060005260206000209060030201600201819055505b80806124f790614397565b91505061239d565b50505050565b606080600060018054905067ffffffffffffffff811115612529576125286136e0565b5b60405190808252806020026020018201604052801561255c57816020015b60608152602001906001900390816125475790505b509050600060018054905067ffffffffffffffff8111156125805761257f6136e0565b5b6040519080825280602002602001820160405280156125ae5781602001602082028036833780820191505090505b50905060005b60018054905081101561275f578573ffffffffffffffffffffffffffffffffffffffff16600182815481106125ec576125eb6142d8565b5b906000526020600020906003020160000160009054906101000a900473ffffffffffffffffffffffffffffffffffffffff1673ffffffffffffffffffffffffffffffffffffffff16141561274c576001818154811061264e5761264d6142d8565b5b9060005260206000209060030201600101805461266a90614336565b80601f016020809104026020016040519081016040528092919081815260200182805461269690614336565b80156126e35780601f106126b8576101008083540402835291602001916126e3565b820191906000526020600020905b8154815290600101906020018083116126c657829003601f168201915b50505050508382815181106126fb576126fa6142d8565b5b60200260200101819052506001818154811061271a576127196142d8565b5b90600052602060002090600302016002015482828151811061273f5761273e6142d8565b5b6020026020010181815250505b808061275790614397565b9150506125b4565b508181935093505050915091565b60005b6000805490508110156129a0578873ffffffffffffffffffffffffffffffffffffffff16600082815481106127a8576127a76142d8565b5b906000526020600020906009020160000160009054906101000a900473ffffffffffffffffffffffffffffffffffffffff1673ffffffffffffffffffffffffffffffffffffffff16141561298d57876000828154811061280b5761280a6142d8565b5b9060005260206000209060090201600101908051906020019061282f929190613427565b508660008281548110612845576128446142d8565b5b90600052602060002090600902016002019080519060200190612869929190613427565b50856000828154811061287f5761287e6142d8565b5b906000526020600020906009020160030190805190602001906128a3929190613427565b5084600082815481106128b9576128b86142d8565b5b906000526020600020906009020160040190805190602001906128dd929190613427565b5083600082815481106128f3576128f26142d8565b5b90600052602060002090600902016005019080519060200190612917929190613427565b50826000828154811061292d5761292c6142d8565b5b90600052602060002090600902016006019080519060200190612951929190613427565b508160008281548110612967576129666142d8565b5b9060005260206000209060090201600701908051906020019061298b929190613427565b505b808061299890614397565b915050612770565b505050505050505050565b6060806060806060806060806000808054905067ffffffffffffffff8111156129d7576129d66136e0565b5b604051908082528060200260200182016040528015612a055781602001602082028036833780820191505090505b5090506000808054905067ffffffffffffffff811115612a2857612a276136e0565b5b604051908082528060200260200182016040528015612a5b57816020015b6060815260200190600190039081612a465790505b5090506000808054905067ffffffffffffffff811115612a7e57612a7d6136e0565b5b604051908082528060200260200182016040528015612ab157816020015b6060815260200190600190039081612a9c5790505b5090506000808054905067ffffffffffffffff811115612ad457612ad36136e0565b5b604051908082528060200260200182016040528015612b0757816020015b6060815260200190600190039081612af25790505b5090506000808054905067ffffffffffffffff811115612b2a57612b296136e0565b5b604051908082528060200260200182016040528015612b5d57816020015b6060815260200190600190039081612b485790505b5090506000808054905067ffffffffffffffff811115612b8057612b7f6136e0565b5b604051908082528060200260200182016040528015612bb357816020015b6060815260200190600190039081612b9e5790505b5090506000808054905067ffffffffffffffff811115612bd657612bd56136e0565b5b604051908082528060200260200182016040528015612c0957816020015b6060815260200190600190039081612bf45790505b5090506000808054905067ffffffffffffffff811115612c2c57612c2b6136e0565b5b604051908082528060200260200182016040528015612c5f57816020015b6060815260200190600190039081612c4a5790505b50905060005b6000805490508110156132ac5760008181548110612c8657612c856142d8565b5b906000526020600020906009020160000160009054906101000a900473ffffffffffffffffffffffffffffffffffffffff16898281518110612ccb57612cca6142d8565b5b602002602001019073ffffffffffffffffffffffffffffffffffffffff16908173ffffffffffffffffffffffffffffffffffffffff168152505060008181548110612d1957612d186142d8565b5b90600052602060002090600902016001018054612d3590614336565b80601f0160208091040260200160405190810160405280929190818152602001828054612d6190614336565b8015612dae5780601f10612d8357610100808354040283529160200191612dae565b820191906000526020600020905b815481529060010190602001808311612d9157829003601f168201915b5050505050888281518110612dc657612dc56142d8565b5b602002602001018190525060008181548110612de557612de46142d8565b5b90600052602060002090600902016002018054612e0190614336565b80601f0160208091040260200160405190810160405280929190818152602001828054612e2d90614336565b8015612e7a5780601f10612e4f57610100808354040283529160200191612e7a565b820191906000526020600020905b815481529060010190602001808311612e5d57829003601f168201915b5050505050878281518110612e9257612e916142d8565b5b602002602001018190525060008181548110612eb157612eb06142d8565b5b90600052602060002090600902016003018054612ecd90614336565b80601f0160208091040260200160405190810160405280929190818152602001828054612ef990614336565b8015612f465780601f10612f1b57610100808354040283529160200191612f46565b820191906000526020600020905b815481529060010190602001808311612f2957829003601f168201915b5050505050868281518110612f5e57612f5d6142d8565b5b602002602001018190525060008181548110612f7d57612f7c6142d8565b5b90600052602060002090600902016004018054612f9990614336565b80601f0160208091040260200160405190810160405280929190818152602001828054612fc590614336565b80156130125780601f10612fe757610100808354040283529160200191613012565b820191906000526020600020905b815481529060010190602001808311612ff557829003601f168201915b505050505085828151811061302a576130296142d8565b5b602002602001018190525060008181548110613049576130486142d8565b5b9060005260206000209060090201600501805461306590614336565b80601f016020809104026020016040519081016040528092919081815260200182805461309190614336565b80156130de5780601f106130b3576101008083540402835291602001916130de565b820191906000526020600020905b8154815290600101906020018083116130c157829003601f168201915b50505050508482815181106130f6576130f56142d8565b5b602002602001018190525060008181548110613115576131146142d8565b5b9060005260206000209060090201600601805461313190614336565b80601f016020809104026020016040519081016040528092919081815260200182805461315d90614336565b80156131aa5780601f1061317f576101008083540402835291602001916131aa565b820191906000526020600020905b81548152906001019060200180831161318d57829003601f168201915b50505050508382815181106131c2576131c16142d8565b5b6020026020010181905250600081815481106131e1576131e06142d8565b5b906000526020600020906009020160070180546131fd90614336565b80601f016020809104026020016040519081016040528092919081815260200182805461322990614336565b80156132765780601f1061324b57610100808354040283529160200191613276565b820191906000526020600020905b81548152906001019060200180831161325957829003601f168201915b505050505082828151811061328e5761328d6142d8565b5b602002602001018190525080806132a490614397565b915050612c65565b5087878787878787879f509f509f509f509f509f509f509f5050505050505050509091929394959697565b60026040518060c001604052808873ffffffffffffffffffffffffffffffffffffffff16815260200187815260200186815260200185815260200184815260200183815250908060018154018082558091505060019003906000526020600020906006020160009091909190915060008201518160000160006101000a81548173ffffffffffffffffffffffffffffffffffffffff021916908373ffffffffffffffffffffffffffffffffffffffff16021790555060208201518160010190805190602001906133a8929190613427565b5060408201518160020190805190602001906133c5929190613427565b5060608201518160030190805190602001906133e2929190613427565b5060808201518160040190805190602001906133ff929190613427565b5060a082015181600501908051906020019061341c929190613427565b505050505050505050565b82805461343390614336565b90600052602060002090601f016020900481019282613455576000855561349c565b82601f1061346e57805160ff191683800117855561349c565b8280016001018555821561349c579182015b8281111561349b578251825591602001919060010190613480565b5b5090506134a991906134ad565b5090565b5b808211156134c65760008160009055506001016134ae565b5090565b6000604051905090565b600080fd5b600080fd5b600073ffffffffffffffffffffffffffffffffffffffff82169050919050565b6000613509826134de565b9050919050565b613519816134fe565b811461352457600080fd5b50565b60008135905061353681613510565b92915050565b600060208284031215613552576135516134d4565b5b600061356084828501613527565b91505092915050565b613572816134fe565b82525050565b600081519050919050565b600082825260208201905092915050565b60005b838110156135b2578082015181840152602081019050613597565b838111156135c1576000848401525b50505050565b6000601f19601f8301169050919050565b60006135e382613578565b6135ed8185613583565b93506135fd818560208601613594565b613606816135c7565b840191505092915050565b600061012082019050613627600083018c613569565b8181036020830152613639818b6135d8565b9050818103604083015261364d818a6135d8565b9050818103606083015261366181896135d8565b9050818103608083015261367581886135d8565b905081810360a083015261368981876135d8565b905081810360c083015261369d81866135d8565b905081810360e08301526136b181856135d8565b90508181036101008301526136c681846135d8565b90509a9950505050505050505050565b600080fd5b600080fd5b7f4e487b7100000000000000000000000000000000000000000000000000000000600052604160045260246000fd5b613718826135c7565b810181811067ffffffffffffffff82111715613737576137366136e0565b5b80604052505050565b600061374a6134ca565b9050613756828261370f565b919050565b600067ffffffffffffffff821115613776576137756136e0565b5b61377f826135c7565b9050602081019050919050565b82818337600083830152505050565b60006137ae6137a98461375b565b613740565b9050828152602081018484840111156137ca576137c96136db565b5b6137d584828561378c565b509392505050565b600082601f8301126137f2576137f16136d6565b5b813561380284826020860161379b565b91505092915050565b60008060408385031215613822576138216134d4565b5b600061383085828601613527565b925050602083013567ffffffffffffffff811115613851576138506134d9565b5b61385d858286016137dd565b9150509250929050565b6000819050919050565b61387a81613867565b82525050565b60006020820190506138956000830184613871565b92915050565b6138a481613867565b81146138af57600080fd5b50565b6000813590506138c18161389b565b92915050565b6000602082840312156138dd576138dc6134d4565b5b60006138eb848285016138b2565b91505092915050565b600060c0820190506139096000830189613569565b818103602083015261391b81886135d8565b9050818103604083015261392f81876135d8565b9050818103606083015261394381866135d8565b9050818103608083015261395781856135d8565b905081810360a083015261396b81846135d8565b9050979650505050505050565b600080600060608486031215613991576139906134d4565b5b600061399f86828701613527565b935050602084013567ffffffffffffffff8111156139c0576139bf6134d9565b5b6139cc868287016137dd565b925050604084013567ffffffffffffffff8111156139ed576139ec6134d9565b5b6139f9868287016137dd565b9150509250925092565b6000606082019050613a186000830186613569565b8181036020830152613a2a81856135d8565b9050613a396040830184613871565b949350505050565b60008060008060008060c08789031215613a5e57613a5d6134d4565b5b6000613a6c89828a01613527565b965050602087013567ffffffffffffffff811115613a8d57613a8c6134d9565b5b613a9989828a016137dd565b955050604087013567ffffffffffffffff811115613aba57613ab96134d9565b5b613ac689828a016137dd565b945050606087013567ffffffffffffffff811115613ae757613ae66134d9565b5b613af389828a016137dd565b935050608087013567ffffffffffffffff811115613b1457613b136134d9565b5b613b2089828a016137dd565b92505060a087013567ffffffffffffffff811115613b4157613b406134d9565b5b613b4d89828a016137dd565b9150509295509295509295565b600080600060608486031215613b7357613b726134d4565b5b6000613b8186828701613527565b935050602084013567ffffffffffffffff811115613ba257613ba16134d9565b5b613bae868287016137dd565b9250506040613bbf868287016138b2565b9150509250925092565b60008060008060008060008060006101208a8c031215613bec57613beb6134d4565b5b6000613bfa8c828d01613527565b99505060208a013567ffffffffffffffff811115613c1b57613c1a6134d9565b5b613c278c828d016137dd565b98505060408a013567ffffffffffffffff811115613c4857613c476134d9565b5b613c548c828d016137dd565b97505060608a013567ffffffffffffffff811115613c7557613c746134d9565b5b613c818c828d016137dd565b96505060808a013567ffffffffffffffff811115613ca257613ca16134d9565b5b613cae8c828d016137dd565b95505060a08a013567ffffffffffffffff811115613ccf57613cce6134d9565b5b613cdb8c828d016137dd565b94505060c08a013567ffffffffffffffff811115613cfc57613cfb6134d9565b5b613d088c828d016137dd565b93505060e08a013567ffffffffffffffff811115613d2957613d286134d9565b5b613d358c828d016137dd565b9250506101008a013567ffffffffffffffff811115613d5757613d566134d9565b5b613d638c828d016137dd565b9150509295985092959850929598565b600081519050919050565b600082825260208201905092915050565b6000819050602082019050919050565b600082825260208201905092915050565b6000613dbb82613578565b613dc58185613d9f565b9350613dd5818560208601613594565b613dde816135c7565b840191505092915050565b6000613df58383613db0565b905092915050565b6000602082019050919050565b6000613e1582613d73565b613e1f8185613d7e565b935083602082028501613e3185613d8f565b8060005b85811015613e6d5784840389528151613e4e8582613de9565b9450613e5983613dfd565b925060208a01995050600181019050613e35565b50829750879550505050505092915050565b600060a0820190508181036000830152613e998188613e0a565b90508181036020830152613ead8187613e0a565b90508181036040830152613ec18186613e0a565b90508181036060830152613ed58185613e0a565b90508181036080830152613ee98184613e0a565b90509695505050505050565b600081519050919050565b600082825260208201905092915050565b6000819050602082019050919050565b613f2a81613867565b82525050565b6000613f3c8383613f21565b60208301905092915050565b6000602082019050919050565b6000613f6082613ef5565b613f6a8185613f00565b9350613f7583613f11565b8060005b83811015613fa6578151613f8d8882613f30565b9750613f9883613f48565b925050600181019050613f79565b5085935050505092915050565b60006040820190508181036000830152613fcd8185613e0a565b90508181036020830152613fe18184613f55565b90509392505050565b600080600080600080600080610100898b03121561400b5761400a6134d4565b5b60006140198b828c01613527565b985050602089013567ffffffffffffffff81111561403a576140396134d9565b5b6140468b828c016137dd565b975050604089013567ffffffffffffffff811115614067576140666134d9565b5b6140738b828c016137dd565b965050606089013567ffffffffffffffff811115614094576140936134d9565b5b6140a08b828c016137dd565b955050608089013567ffffffffffffffff8111156140c1576140c06134d9565b5b6140cd8b828c016137dd565b94505060a089013567ffffffffffffffff8111156140ee576140ed6134d9565b5b6140fa8b828c016137dd565b93505060c089013567ffffffffffffffff81111561411b5761411a6134d9565b5b6141278b828c016137dd565b92505060e089013567ffffffffffffffff811115614148576141476134d9565b5b6141548b828c016137dd565b9150509295985092959890939650565b600081519050919050565b600082825260208201905092915050565b6000819050602082019050919050565b614199816134fe565b82525050565b60006141ab8383614190565b60208301905092915050565b6000602082019050919050565b60006141cf82614164565b6141d9818561416f565b93506141e483614180565b8060005b838110156142155781516141fc888261419f565b9750614207836141b7565b9250506001810190506141e8565b5085935050505092915050565b600061010082019050818103600083015261423d818b6141c4565b90508181036020830152614251818a613e0a565b905081810360408301526142658189613e0a565b905081810360608301526142798188613e0a565b9050818103608083015261428d8187613e0a565b905081810360a08301526142a18186613e0a565b905081810360c08301526142b58185613e0a565b905081810360e08301526142c98184613e0a565b90509998505050505050505050565b7f4e487b7100000000000000000000000000000000000000000000000000000000600052603260045260246000fd5b7f4e487b7100000000000000000000000000000000000000000000000000000000600052602260045260246000fd5b6000600282049050600182168061434e57607f821691505b6020821081141561436257614361614307565b5b50919050565b7f4e487b7100000000000000000000000000000000000000000000000000000000600052601160045260246000fd5b60006143a282613867565b91507fffffffffffffffffffffffffffffffffffffffffffffffffffffffffffffffff8214156143d5576143d4614368565b5b600182019050919050565b600081905092915050565b60008190508160005260206000209050919050565b6000815461440d81614336565b61441781866143e0565b94506001821660008114614432576001811461444357614476565b60ff19831686528186019350614476565b61444c856143eb565b60005b8381101561446e5781548189015260018201915060208101905061444f565b838801955050505b50505092915050565b600061448b8284614400565b915081905092915050565b7f4c6576656c206f6620736b696c6c20696e636f72726563742e00000000000000600082015250565b60006144cc601983613583565b91506144d782614496565b602082019050919050565b600060208201905081810360008301526144fb816144bf565b9050919050565b600061450d82613867565b915061451883613867565b9250827fffffffffffffffffffffffffffffffffffffffffffffffffffffffffffffffff0382111561454d5761454c614368565b5b82820190509291505056fea2646970667358221220364325b3b0a3cecf6eee645b6ba8e2a799e5c7bdfb4a9015bb10015ae686faec64736f6c634300080b0033608060405234801561001057600080fd5b50612610806100206000396000f3fe608060405234801561001057600080fd5b506004361061007d5760003560e01c8063bf44b3031161005b578063bf44b30314610104578063c6fe410a1461013b578063cfafbc0c1461016b578063e045b710146101905761007d565b80630f53a4701461008257806323b6d993146100b8578063a7dba184146100d4575b600080fd5b61009c60048036038101906100979190611a9d565b6101ac565b6040516100af9796959493929190611b72565b60405180910390f35b6100d260048036038101906100cd9190611d40565b6106e0565b005b6100ee60048036038101906100e99190611e8a565b6108e3565b6040516100fb9190611eff565b60405180910390f35b61011e60048036038101906101199190611f46565b6109e1565b604051610132989796959493929190611f73565b60405180910390f35b61015560048036038101906101509190611a9d565b610e11565b6040516101629190611eff565b60405180910390f35b610173610ec3565b6040516101879897969594939291906121ec565b60405180910390f35b6101aa60048036038101906101a591906122a2565b6117ef565b005b600060608060608060608060005b6000805490508110156106d3578873ffffffffffffffffffffffffffffffffffffffff16600082815481106101f2576101f161241c565b5b906000526020600020906008020160000160009054906101000a900473ffffffffffffffffffffffffffffffffffffffff1673ffffffffffffffffffffffffffffffffffffffff1614156106c057600081815481106102545761025361241c565b5b906000526020600020906008020160000160009054906101000a900473ffffffffffffffffffffffffffffffffffffffff166000828154811061029a5761029961241c565b5b9060005260206000209060080201600101600083815481106102bf576102be61241c565b5b9060005260206000209060080201600201600084815481106102e4576102e361241c565b5b9060005260206000209060080201600301600085815481106103095761030861241c565b5b90600052602060002090600802016004016000868154811061032e5761032d61241c565b5b9060005260206000209060080201600501600087815481106103535761035261241c565b5b90600052602060002090600802016006018580546103709061247a565b80601f016020809104026020016040519081016040528092919081815260200182805461039c9061247a565b80156103e95780601f106103be576101008083540402835291602001916103e9565b820191906000526020600020905b8154815290600101906020018083116103cc57829003601f168201915b505050505095508480546103fc9061247a565b80601f01602080910402602001604051908101604052809291908181526020018280546104289061247a565b80156104755780601f1061044a57610100808354040283529160200191610475565b820191906000526020600020905b81548152906001019060200180831161045857829003601f168201915b505050505094508380546104889061247a565b80601f01602080910402602001604051908101604052809291908181526020018280546104b49061247a565b80156105015780601f106104d657610100808354040283529160200191610501565b820191906000526020600020905b8154815290600101906020018083116104e457829003601f168201915b505050505093508280546105149061247a565b80601f01602080910402602001604051908101604052809291908181526020018280546105409061247a565b801561058d5780601f106105625761010080835404028352916020019161058d565b820191906000526020600020905b81548152906001019060200180831161057057829003601f168201915b505050505092508180546105a09061247a565b80601f01602080910402602001604051908101604052809291908181526020018280546105cc9061247a565b80156106195780601f106105ee57610100808354040283529160200191610619565b820191906000526020600020905b8154815290600101906020018083116105fc57829003601f168201915b5050505050915080805461062c9061247a565b80601f01602080910402602001604051908101604052809291908181526020018280546106589061247a565b80156106a55780601f1061067a576101008083540402835291602001916106a5565b820191906000526020600020905b81548152906001019060200180831161068857829003601f168201915b505050505090509750975097509750975097509750506106d5565b80806106cb906124db565b9150506101ba565b505b919395979092949650565b60005b6000805490508110156108d9578773ffffffffffffffffffffffffffffffffffffffff166000828154811061071b5761071a61241c565b5b906000526020600020906008020160000160009054906101000a900473ffffffffffffffffffffffffffffffffffffffff1673ffffffffffffffffffffffffffffffffffffffff1614156108c657866000828154811061077e5761077d61241c565b5b906000526020600020906008020160010190805190602001906107a2929190611988565b5085600082815481106107b8576107b761241c565b5b906000526020600020906008020160020190805190602001906107dc929190611988565b5084600082815481106107f2576107f161241c565b5b90600052602060002090600802016003019080519060200190610816929190611988565b50836000828154811061082c5761082b61241c565b5b90600052602060002090600802016004019080519060200190610850929190611988565b5082600082815481106108665761086561241c565b5b9060005260206000209060080201600501908051906020019061088a929190611988565b5081600082815481106108a05761089f61241c565b5b906000526020600020906008020160060190805190602001906108c4929190611988565b505b80806108d1906124db565b9150506106e3565b5050505050505050565b600080600090505b6000805490508110156109d9578373ffffffffffffffffffffffffffffffffffffffff16600082815481106109235761092261241c565b5b906000526020600020906008020160000160009054906101000a900473ffffffffffffffffffffffffffffffffffffffff1673ffffffffffffffffffffffffffffffffffffffff161480156109b7575082805190602001206000828154811061098f5761098e61241c565b5b90600052602060002090600802016007016040516109ad91906125c3565b6040518091039020145b156109c65760019150506109db565b80806109d1906124db565b9150506108eb565b505b92915050565b600081815481106109f157600080fd5b90600052602060002090600802016000915090508060000160009054906101000a900473ffffffffffffffffffffffffffffffffffffffff1690806001018054610a3a9061247a565b80601f0160208091040260200160405190810160405280929190818152602001828054610a669061247a565b8015610ab35780601f10610a8857610100808354040283529160200191610ab3565b820191906000526020600020905b815481529060010190602001808311610a9657829003601f168201915b505050505090806002018054610ac89061247a565b80601f0160208091040260200160405190810160405280929190818152602001828054610af49061247a565b8015610b415780601f10610b1657610100808354040283529160200191610b41565b820191906000526020600020905b815481529060010190602001808311610b2457829003601f168201915b505050505090806003018054610b569061247a565b80601f0160208091040260200160405190810160405280929190818152602001828054610b829061247a565b8015610bcf5780601f10610ba457610100808354040283529160200191610bcf565b820191906000526020600020905b815481529060010190602001808311610bb257829003601f168201915b505050505090806004018054610be49061247a565b80601f0160208091040260200160405190810160405280929190818152602001828054610c109061247a565b8015610c5d5780601f10610c3257610100808354040283529160200191610c5d565b820191906000526020600020905b815481529060010190602001808311610c4057829003601f168201915b505050505090806005018054610c729061247a565b80601f0160208091040260200160405190810160405280929190818152602001828054610c9e9061247a565b8015610ceb5780601f10610cc057610100808354040283529160200191610ceb565b820191906000526020600020905b815481529060010190602001808311610cce57829003601f168201915b505050505090806006018054610d009061247a565b80601f0160208091040260200160405190810160405280929190818152602001828054610d2c9061247a565b8015610d795780601f10610d4e57610100808354040283529160200191610d79565b820191906000526020600020905b815481529060010190602001808311610d5c57829003601f168201915b505050505090806007018054610d8e9061247a565b80601f0160208091040260200160405190810160405280929190818152602001828054610dba9061247a565b8015610e075780601f10610ddc57610100808354040283529160200191610e07565b820191906000526020600020905b815481529060010190602001808311610dea57829003601f168201915b5050505050905088565b600080600090505b600080549050811015610ebc578273ffffffffffffffffffffffffffffffffffffffff1660008281548110610e5157610e5061241c565b5b906000526020600020906008020160000160009054906101000a900473ffffffffffffffffffffffffffffffffffffffff1673ffffffffffffffffffffffffffffffffffffffff161415610ea9576001915050610ebe565b8080610eb4906124db565b915050610e19565b505b919050565b6060806060806060806060806000808054905067ffffffffffffffff811115610eef57610eee611c15565b5b604051908082528060200260200182016040528015610f1d5781602001602082028036833780820191505090505b5090506000808054905067ffffffffffffffff811115610f4057610f3f611c15565b5b604051908082528060200260200182016040528015610f7357816020015b6060815260200190600190039081610f5e5790505b5090506000808054905067ffffffffffffffff811115610f9657610f95611c15565b5b604051908082528060200260200182016040528015610fc957816020015b6060815260200190600190039081610fb45790505b5090506000808054905067ffffffffffffffff811115610fec57610feb611c15565b5b60405190808252806020026020018201604052801561101f57816020015b606081526020019060019003908161100a5790505b5090506000808054905067ffffffffffffffff81111561104257611041611c15565b5b60405190808252806020026020018201604052801561107557816020015b60608152602001906001900390816110605790505b5090506000808054905067ffffffffffffffff81111561109857611097611c15565b5b6040519080825280602002602001820160405280156110cb57816020015b60608152602001906001900390816110b65790505b5090506000808054905067ffffffffffffffff8111156110ee576110ed611c15565b5b60405190808252806020026020018201604052801561112157816020015b606081526020019060019003908161110c5790505b5090506000808054905067ffffffffffffffff81111561114457611143611c15565b5b60405190808252806020026020018201604052801561117757816020015b60608152602001906001900390816111625790505b50905060005b6000805490508110156117c4576000818154811061119e5761119d61241c565b5b906000526020600020906008020160000160009054906101000a900473ffffffffffffffffffffffffffffffffffffffff168982815181106111e3576111e261241c565b5b602002602001019073ffffffffffffffffffffffffffffffffffffffff16908173ffffffffffffffffffffffffffffffffffffffff1681525050600081815481106112315761123061241c565b5b9060005260206000209060080201600101805461124d9061247a565b80601f01602080910402602001604051908101604052809291908181526020018280546112799061247a565b80156112c65780601f1061129b576101008083540402835291602001916112c6565b820191906000526020600020905b8154815290600101906020018083116112a957829003601f168201915b50505050508882815181106112de576112dd61241c565b5b6020026020010181905250600081815481106112fd576112fc61241c565b5b906000526020600020906008020160020180546113199061247a565b80601f01602080910402602001604051908101604052809291908181526020018280546113459061247a565b80156113925780601f1061136757610100808354040283529160200191611392565b820191906000526020600020905b81548152906001019060200180831161137557829003601f168201915b50505050508782815181106113aa576113a961241c565b5b6020026020010181905250600081815481106113c9576113c861241c565b5b906000526020600020906008020160030180546113e59061247a565b80601f01602080910402602001604051908101604052809291908181526020018280546114119061247a565b801561145e5780601f106114335761010080835404028352916020019161145e565b820191906000526020600020905b81548152906001019060200180831161144157829003601f168201915b50505050508682815181106114765761147561241c565b5b6020026020010181905250600081815481106114955761149461241c565b5b906000526020600020906008020160040180546114b19061247a565b80601f01602080910402602001604051908101604052809291908181526020018280546114dd9061247a565b801561152a5780601f106114ff5761010080835404028352916020019161152a565b820191906000526020600020905b81548152906001019060200180831161150d57829003601f168201915b50505050508582815181106115425761154161241c565b5b6020026020010181905250600081815481106115615761156061241c565b5b9060005260206000209060080201600501805461157d9061247a565b80601f01602080910402602001604051908101604052809291908181526020018280546115a99061247a565b80156115f65780601f106115cb576101008083540402835291602001916115f6565b820191906000526020600020905b8154815290600101906020018083116115d957829003601f168201915b505050505084828151811061160e5761160d61241c565b5b60200260200101819052506000818154811061162d5761162c61241c565b5b906000526020600020906008020160060180546116499061247a565b80601f01602080910402602001604051908101604052809291908181526020018280546116759061247a565b80156116c25780601f10611697576101008083540402835291602001916116c2565b820191906000526020600020905b8154815290600101906020018083116116a557829003601f168201915b50505050508382815181106116da576116d961241c565b5b6020026020010181905250600081815481106116f9576116f861241c565b5b906000526020600020906008020160070180546117159061247a565b80601f01602080910402602001604051908101604052809291908181526020018280546117419061247a565b801561178e5780601f106117635761010080835404028352916020019161178e565b820191906000526020600020905b81548152906001019060200180831161177157829003601f168201915b50505050508282815181106117a6576117a561241c565b5b602002602001018190525080806117bc906124db565b91505061117d565b5087878787878787879f509f509f509f509f509f509f509f5050505050505050509091929394959697565b60006040518061010001604052808a73ffffffffffffffffffffffffffffffffffffffff16815260200189815260200188815260200187815260200186815260200185815260200184815260200183815250908060018154018082558091505060019003906000526020600020906008020160009091909190915060008201518160000160006101000a81548173ffffffffffffffffffffffffffffffffffffffff021916908373ffffffffffffffffffffffffffffffffffffffff16021790555060208201518160010190805190602001906118cd929190611988565b5060408201518160020190805190602001906118ea929190611988565b506060820151816003019080519060200190611907929190611988565b506080820151816004019080519060200190611924929190611988565b5060a0820151816005019080519060200190611941929190611988565b5060c082015181600601908051906020019061195e929190611988565b5060e082015181600701908051906020019061197b929190611988565b5050505050505050505050565b8280546119949061247a565b90600052602060002090601f0160209004810192826119b657600085556119fd565b82601f106119cf57805160ff19168380011785556119fd565b828001600101855582156119fd579182015b828111156119fc5782518255916020019190600101906119e1565b5b509050611a0a9190611a0e565b5090565b5b80821115611a27576000816000905550600101611a0f565b5090565b6000604051905090565b600080fd5b600080fd5b600073ffffffffffffffffffffffffffffffffffffffff82169050919050565b6000611a6a82611a3f565b9050919050565b611a7a81611a5f565b8114611a8557600080fd5b50565b600081359050611a9781611a71565b92915050565b600060208284031215611ab357611ab2611a35565b5b6000611ac184828501611a88565b91505092915050565b611ad381611a5f565b82525050565b600081519050919050565b600082825260208201905092915050565b60005b83811015611b13578082015181840152602081019050611af8565b83811115611b22576000848401525b50505050565b6000601f19601f8301169050919050565b6000611b4482611ad9565b611b4e8185611ae4565b9350611b5e818560208601611af5565b611b6781611b28565b840191505092915050565b600060e082019050611b87600083018a611aca565b8181036020830152611b998189611b39565b90508181036040830152611bad8188611b39565b90508181036060830152611bc18187611b39565b90508181036080830152611bd58186611b39565b905081810360a0830152611be98185611b39565b905081810360c0830152611bfd8184611b39565b905098975050505050505050565b600080fd5b600080fd5b7f4e487b7100000000000000000000000000000000000000000000000000000000600052604160045260246000fd5b611c4d82611b28565b810181811067ffffffffffffffff82111715611c6c57611c6b611c15565b5b80604052505050565b6000611c7f611a2b565b9050611c8b8282611c44565b919050565b600067ffffffffffffffff821115611cab57611caa611c15565b5b611cb482611b28565b9050602081019050919050565b82818337600083830152505050565b6000611ce3611cde84611c90565b611c75565b905082815260208101848484011115611cff57611cfe611c10565b5b611d0a848285611cc1565b509392505050565b600082601f830112611d2757611d26611c0b565b5b8135611d37848260208601611cd0565b91505092915050565b600080600080600080600060e0888a031215611d5f57611d5e611a35565b5b6000611d6d8a828b01611a88565b975050602088013567ffffffffffffffff811115611d8e57611d8d611a3a565b5b611d9a8a828b01611d12565b965050604088013567ffffffffffffffff811115611dbb57611dba611a3a565b5b611dc78a828b01611d12565b955050606088013567ffffffffffffffff811115611de857611de7611a3a565b5b611df48a828b01611d12565b945050608088013567ffffffffffffffff811115611e1557611e14611a3a565b5b611e218a828b01611d12565b93505060a088013567ffffffffffffffff811115611e4257611e41611a3a565b5b611e4e8a828b01611d12565b92505060c088013567ffffffffffffffff811115611e6f57611e6e611a3a565b5b611e7b8a828b01611d12565b91505092959891949750929550565b60008060408385031215611ea157611ea0611a35565b5b6000611eaf85828601611a88565b925050602083013567ffffffffffffffff811115611ed057611ecf611a3a565b5b611edc85828601611d12565b9150509250929050565b6000819050919050565b611ef981611ee6565b82525050565b6000602082019050611f146000830184611ef0565b92915050565b611f2381611ee6565b8114611f2e57600080fd5b50565b600081359050611f4081611f1a565b92915050565b600060208284031215611f5c57611f5b611a35565b5b6000611f6a84828501611f31565b91505092915050565b600061010082019050611f89600083018b611aca565b8181036020830152611f9b818a611b39565b90508181036040830152611faf8189611b39565b90508181036060830152611fc38188611b39565b90508181036080830152611fd78187611b39565b905081810360a0830152611feb8186611b39565b905081810360c0830152611fff8185611b39565b905081810360e08301526120138184611b39565b90509998505050505050505050565b600081519050919050565b600082825260208201905092915050565b6000819050602082019050919050565b61205781611a5f565b82525050565b6000612069838361204e565b60208301905092915050565b6000602082019050919050565b600061208d82612022565b612097818561202d565b93506120a28361203e565b8060005b838110156120d35781516120ba888261205d565b97506120c583612075565b9250506001810190506120a6565b5085935050505092915050565b600081519050919050565b600082825260208201905092915050565b6000819050602082019050919050565b600082825260208201905092915050565b600061212882611ad9565b612132818561210c565b9350612142818560208601611af5565b61214b81611b28565b840191505092915050565b6000612162838361211d565b905092915050565b6000602082019050919050565b6000612182826120e0565b61218c81856120eb565b93508360208202850161219e856120fc565b8060005b858110156121da57848403895281516121bb8582612156565b94506121c68361216a565b925060208a019950506001810190506121a2565b50829750879550505050505092915050565b6000610100820190508181036000830152612207818b612082565b9050818103602083015261221b818a612177565b9050818103604083015261222f8189612177565b905081810360608301526122438188612177565b905081810360808301526122578187612177565b905081810360a083015261226b8186612177565b905081810360c083015261227f8185612177565b905081810360e08301526122938184612177565b90509998505050505050505050565b600080600080600080600080610100898b0312156122c3576122c2611a35565b5b60006122d18b828c01611a88565b985050602089013567ffffffffffffffff8111156122f2576122f1611a3a565b5b6122fe8b828c01611d12565b975050604089013567ffffffffffffffff81111561231f5761231e611a3a565b5b61232b8b828c01611d12565b965050606089013567ffffffffffffffff81111561234c5761234b611a3a565b5b6123588b828c01611d12565b955050608089013567ffffffffffffffff81111561237957612378611a3a565b5b6123858b828c01611d12565b94505060a089013567ffffffffffffffff8111156123a6576123a5611a3a565b5b6123b28b828c01611d12565b93505060c089013567ffffffffffffffff8111156123d3576123d2611a3a565b5b6123df8b828c01611d12565b92505060e089013567ffffffffffffffff811115612400576123ff611a3a565b5b61240c8b828c01611d12565b9150509295985092959890939650565b7f4e487b7100000000000000000000000000000000000000000000000000000000600052603260045260246000fd5b7f4e487b7100000000000000000000000000000000000000000000000000000000600052602260045260246000fd5b6000600282049050600182168061249257607f821691505b602082108114156124a6576124a561244b565b5b50919050565b7f4e487b7100000000000000000000000000000000000000000000000000000000600052601160045260246000fd5b60006124e682611ee6565b91507fffffffffffffffffffffffffffffffffffffffffffffffffffffffffffffffff821415612519576125186124ac565b5b600182019050919050565b600081905092915050565b60008190508160005260206000209050919050565b600081546125518161247a565b61255b8186612524565b945060018216600081146125765760018114612587576125ba565b60ff198316865281860193506125ba565b6125908561252f565b60005b838110156125b257815481890152600182019150602081019050612593565b838801955050505b50505092915050565b60006125cf8284612544565b91508190509291505056fea2646970667358221220bc344b17e35ab615f1464e8a2f8cd70376b6cfe866c70beed898b4f45670644d64736f6c634300080b0033608060405234801561001057600080fd5b50616c8f80620000216000396000f3fe608060405234801561001057600080fd5b506004361061014d5760003560e01c80634b38f2db116100c3578063a9846eb01161007c578063a9846eb014610466578063ac97812f1461049e578063b351d176146104d3578063bc72af7d146104ef578063d723920514610524578063dd8f3edc146105405761014d565b80634b38f2db146103705780636cf871df146103a55780637829b41e146103c157806384ae9131146103f1578063948195ed146104155780639fa7247a146104315761014d565b80630c3f9882116101155780630c3f9882146102395780630f53a4701461026e57806324e66037146102a3578063323cc7c5146102d357806344fd6e221461030857806349f47a55146103385761014d565b8063018d934a146101525780630265275c1461018257806306ed1e89146101b257806309bef62a146101e75780630b59f5b71461021d575b600080fd5b61016c600480360381019061016791906155d0565b61055c565b6040516101799190615629565b60405180910390f35b61019c6004803603810190610197919061578a565b61070b565b6040516101a99190615629565b60405180910390f35b6101cc60048036038101906101c791906155d0565b610843565b6040516101de96959493929190615a1d565b60405180910390f35b61020160048036038101906101fc9190615ad4565b610eb6565b6040516102149796959493929190615b5a565b60405180910390f35b61023760048036038101906102329190615bf3565b611258565b005b610253600480360381019061024e91906155d0565b6115b5565b60405161026596959493929190615e7c565b60405180910390f35b61028860048036038101906102839190615f07565b611d11565b60405161029a96959493929190615f34565b60405180910390f35b6102bd60048036038101906102b89190615fb8565b61218f565b6040516102ca9190615629565b60405180910390f35b6102ed60048036038101906102e89190615ad4565b61228d565b6040516102ff96959493929190616023565b60405180910390f35b610322600480360381019061031d9190615f07565b6124be565b60405161032f9190615629565b60405180910390f35b610352600480360381019061034d9190615ad4565b612570565b60405161036799989796959493929190616099565b60405180910390f35b61038a6004803603810190610385919061613b565b6127b3565b60405161039c969594939291906161da565b60405180910390f35b6103bf60048036038101906103ba9190616250565b612c02565b005b6103db60048036038101906103d6919061578a565b612dca565b6040516103e89190615629565b60405180910390f35b6103f9612f02565b60405161040c9796959493929190616369565b60405180910390f35b61042f600480360381019061042a919061613b565b613706565b005b61044b60048036038101906104469190615f07565b613961565b60405161045d96959493929190615e7c565b60405180910390f35b610480600480360381019061047b9190615ad4565b614040565b60405161049599989796959493929190616099565b60405180910390f35b6104b860048036038101906104b3919061613b565b614283565b6040516104ca969594939291906161da565b60405180910390f35b6104ed60048036038101906104e89190616435565b6146d2565b005b610509600480360381019061050491906155d0565b614979565b60405161051b96959493929190615a1d565b60405180910390f35b61053e60048036038101906105399190615bf3565b614fec565b005b61055a600480360381019061055591906164b8565b615347565b005b600080600090505b600180549050811015610703578373ffffffffffffffffffffffffffffffffffffffff166001828154811061059c5761059b616602565b5b906000526020600020906005020160000160049054906101000a900473ffffffffffffffffffffffffffffffffffffffff1673ffffffffffffffffffffffffffffffffffffffff1614801561066157508273ffffffffffffffffffffffffffffffffffffffff166001828154811061061757610616616602565b5b906000526020600020906005020160010160009054906101000a900473ffffffffffffffffffffffffffffffffffffffff1673ffffffffffffffffffffffffffffffffffffffff16145b80156106e157506040518060400160405280600781526020017f57616974696e670000000000000000000000000000000000000000000000000081525080519060200120600182815481106106b9576106b8616602565b5b90600052602060002090600502016004016040516106d79190616731565b6040518091039020145b156106f0576001915050610705565b80806106fb90616777565b915050610564565b505b92915050565b600080600090505b60028054905081101561083a578473ffffffffffffffffffffffffffffffffffffffff166002828154811061074b5761074a616602565b5b906000526020600020906008020160010160009054906101000a900473ffffffffffffffffffffffffffffffffffffffff1673ffffffffffffffffffffffffffffffffffffffff16148015610818575083836040516020016107ae9291906167fc565b60405160208183030381529060405280519060200120600282815481106107d8576107d7616602565b5b906000526020600020906008020160000160009054906101000a900460e01b7bffffffffffffffffffffffffffffffffffffffffffffffffffffffff1916145b1561082757600191505061083c565b808061083290616777565b915050610713565b505b9392505050565b606080606080606080600060038054905067ffffffffffffffff81111561086d5761086c61565f565b5b6040519080825280602002602001820160405280156108a057816020015b606081526020019060019003908161088b5790505b509050600060038054905067ffffffffffffffff8111156108c4576108c361565f565b5b6040519080825280602002602001820160405280156108f757816020015b60608152602001906001900390816108e25790505b509050600060038054905067ffffffffffffffff81111561091b5761091a61565f565b5b60405190808252806020026020018201604052801561094e57816020015b60608152602001906001900390816109395790505b509050600060038054905067ffffffffffffffff8111156109725761097161565f565b5b6040519080825280602002602001820160405280156109a05781602001602082028036833780820191505090505b509050600060038054905067ffffffffffffffff8111156109c4576109c361565f565b5b6040519080825280602002602001820160405280156109f25781602001602082028036833780820191505090505b509050600060038054905067ffffffffffffffff811115610a1657610a1561565f565b5b604051908082528060200260200182016040528015610a445781602001602082028036833780820191505090505b50905060005b600380549050811015610e93578e73ffffffffffffffffffffffffffffffffffffffff1660028281548110610a8257610a81616602565b5b906000526020600020906008020160000160049054906101000a900473ffffffffffffffffffffffffffffffffffffffff1673ffffffffffffffffffffffffffffffffffffffff16148015610b4757508d73ffffffffffffffffffffffffffffffffffffffff1660028281548110610afd57610afc616602565b5b906000526020600020906008020160010160009054906101000a900473ffffffffffffffffffffffffffffffffffffffff1673ffffffffffffffffffffffffffffffffffffffff16145b15610e805760038181548110610b6057610b5f616602565b5b90600052602060002090600802016002018054610b7c90616660565b80601f0160208091040260200160405190810160405280929190818152602001828054610ba890616660565b8015610bf55780601f10610bca57610100808354040283529160200191610bf5565b820191906000526020600020905b815481529060010190602001808311610bd857829003601f168201915b5050505050878281518110610c0d57610c0c616602565b5b602002602001018190525060038181548110610c2c57610c2b616602565b5b90600052602060002090600802016003018054610c4890616660565b80601f0160208091040260200160405190810160405280929190818152602001828054610c7490616660565b8015610cc15780601f10610c9657610100808354040283529160200191610cc1565b820191906000526020600020905b815481529060010190602001808311610ca457829003601f168201915b5050505050868281518110610cd957610cd8616602565b5b602002602001018190525060038181548110610cf857610cf7616602565b5b90600052602060002090600802016004018054610d1490616660565b80601f0160208091040260200160405190810160405280929190818152602001828054610d4090616660565b8015610d8d5780601f10610d6257610100808354040283529160200191610d8d565b820191906000526020600020905b815481529060010190602001808311610d7057829003601f168201915b5050505050858281518110610da557610da4616602565b5b602002602001018190525060038181548110610dc457610dc3616602565b5b906000526020600020906008020160050154848281518110610de957610de8616602565b5b60200260200101818152505060038181548110610e0957610e08616602565b5b906000526020600020906008020160060154838281518110610e2e57610e2d616602565b5b60200260200101818152505060038181548110610e4e57610e4d616602565b5b906000526020600020906008020160070154828281518110610e7357610e72616602565b5b6020026020010181815250505b8080610e8b90616777565b915050610a4a565b508585858585859b509b509b509b509b509b505050505050509295509295509295565b60008181548110610ec657600080fd5b90600052602060002090600702016000915090508060000160009054906101000a900473ffffffffffffffffffffffffffffffffffffffff1690806001018054610f0f90616660565b80601f0160208091040260200160405190810160405280929190818152602001828054610f3b90616660565b8015610f885780601f10610f5d57610100808354040283529160200191610f88565b820191906000526020600020905b815481529060010190602001808311610f6b57829003601f168201915b505050505090806002018054610f9d90616660565b80601f0160208091040260200160405190810160405280929190818152602001828054610fc990616660565b80156110165780601f10610feb57610100808354040283529160200191611016565b820191906000526020600020905b815481529060010190602001808311610ff957829003601f168201915b50505050509080600301805461102b90616660565b80601f016020809104026020016040519081016040528092919081815260200182805461105790616660565b80156110a45780601f10611079576101008083540402835291602001916110a4565b820191906000526020600020905b81548152906001019060200180831161108757829003601f168201915b5050505050908060040180546110b990616660565b80601f01602080910402602001604051908101604052809291908181526020018280546110e590616660565b80156111325780601f1061110757610100808354040283529160200191611132565b820191906000526020600020905b81548152906001019060200180831161111557829003601f168201915b50505050509080600501805461114790616660565b80601f016020809104026020016040519081016040528092919081815260200182805461117390616660565b80156111c05780601f10611195576101008083540402835291602001916111c0565b820191906000526020600020905b8154815290600101906020018083116111a357829003601f168201915b5050505050908060060180546111d590616660565b80601f016020809104026020016040519081016040528092919081815260200182805461120190616660565b801561124e5780601f106112235761010080835404028352916020019161124e565b820191906000526020600020905b81548152906001019060200180831161123157829003601f168201915b5050505050905087565b60003390506001611268826124be565b146112a8576040517f08c379a000000000000000000000000000000000000000000000000000000000815260040161129f9061686c565b60405180910390fd5b60006112b588888861070b565b146112f5576040517f08c379a00000000000000000000000000000000000000000000000000000000081526004016112ec906168d8565b60405180910390fd5b6000831015801561130857506101ef8311155b611347576040517f08c379a000000000000000000000000000000000000000000000000000000000815260040161133e90616944565b60405180910390fd5b6000821015801561135a57506101ef8211155b611399576040517f08c379a0000000000000000000000000000000000000000000000000000000008152600401611390906169b0565b60405180910390fd5b600260405180610120016040528088886040516020016113ba9291906167fc565b604051602081830303815290604052805190602001207bffffffffffffffffffffffffffffffffffffffffffffffffffffffff191681526020018373ffffffffffffffffffffffffffffffffffffffff1681526020018973ffffffffffffffffffffffffffffffffffffffff168152602001888152602001878152602001868152602001858152602001848152602001848661145691906169d0565b815250908060018154018082558091505060019003906000526020600020906008020160009091909190915060008201518160000160006101000a81548163ffffffff021916908360e01c021790555060208201518160000160046101000a81548173ffffffffffffffffffffffffffffffffffffffff021916908373ffffffffffffffffffffffffffffffffffffffff16021790555060408201518160010160006101000a81548173ffffffffffffffffffffffffffffffffffffffff021916908373ffffffffffffffffffffffffffffffffffffffff16021790555060608201518160020190805190602001906115509291906154bb565b50608082015181600301908051906020019061156d9291906154bb565b5060a082015181600401908051906020019061158a9291906154bb565b5060c0820151816005015560e082015181600601556101008201518160070155505050505050505050565b606080606080606080600060018054905067ffffffffffffffff8111156115df576115de61565f565b5b60405190808252806020026020018201604052801561160d5781602001602082028036833780820191505090505b509050600060018054905067ffffffffffffffff8111156116315761163061565f565b5b60405190808252806020026020018201604052801561165f5781602001602082028036833780820191505090505b509050600060018054905067ffffffffffffffff8111156116835761168261565f565b5b6040519080825280602002602001820160405280156116b15781602001602082028036833780820191505090505b509050600060018054905067ffffffffffffffff8111156116d5576116d461565f565b5b60405190808252806020026020018201604052801561170857816020015b60608152602001906001900390816116f35790505b509050600060018054905067ffffffffffffffff81111561172c5761172b61565f565b5b60405190808252806020026020018201604052801561175f57816020015b606081526020019060019003908161174a5790505b509050600060018054905067ffffffffffffffff8111156117835761178261565f565b5b6040519080825280602002602001820160405280156117b657816020015b60608152602001906001900390816117a15790505b50905060005b600180549050811015611cee578e73ffffffffffffffffffffffffffffffffffffffff16600182815481106117f4576117f3616602565b5b906000526020600020906005020160010160009054906101000a900473ffffffffffffffffffffffffffffffffffffffff1673ffffffffffffffffffffffffffffffffffffffff161480156118b957508d73ffffffffffffffffffffffffffffffffffffffff166001828154811061186f5761186e616602565b5b906000526020600020906005020160000160049054906101000a900473ffffffffffffffffffffffffffffffffffffffff1673ffffffffffffffffffffffffffffffffffffffff16145b15611cdb57600181815481106118d2576118d1616602565b5b906000526020600020906005020160000160009054906101000a900460e01b87828151811061190457611903616602565b5b60200260200101907bffffffffffffffffffffffffffffffffffffffffffffffffffffffff191690817bffffffffffffffffffffffffffffffffffffffffffffffffffffffff1916815250506001818154811061196457611963616602565b5b906000526020600020906005020160000160049054906101000a900473ffffffffffffffffffffffffffffffffffffffff168682815181106119a9576119a8616602565b5b602002602001019073ffffffffffffffffffffffffffffffffffffffff16908173ffffffffffffffffffffffffffffffffffffffff1681525050600181815481106119f7576119f6616602565b5b906000526020600020906005020160010160009054906101000a900473ffffffffffffffffffffffffffffffffffffffff16858281518110611a3c57611a3b616602565b5b602002602001019073ffffffffffffffffffffffffffffffffffffffff16908173ffffffffffffffffffffffffffffffffffffffff168152505060018181548110611a8a57611a89616602565b5b90600052602060002090600502016002018054611aa690616660565b80601f0160208091040260200160405190810160405280929190818152602001828054611ad290616660565b8015611b1f5780601f10611af457610100808354040283529160200191611b1f565b820191906000526020600020905b815481529060010190602001808311611b0257829003601f168201915b5050505050848281518110611b3757611b36616602565b5b602002602001018190525060018181548110611b5657611b55616602565b5b90600052602060002090600502016003018054611b7290616660565b80601f0160208091040260200160405190810160405280929190818152602001828054611b9e90616660565b8015611beb5780601f10611bc057610100808354040283529160200191611beb565b820191906000526020600020905b815481529060010190602001808311611bce57829003601f168201915b5050505050838281518110611c0357611c02616602565b5b602002602001018190525060018181548110611c2257611c21616602565b5b90600052602060002090600502016004018054611c3e90616660565b80601f0160208091040260200160405190810160405280929190818152602001828054611c6a90616660565b8015611cb75780601f10611c8c57610100808354040283529160200191611cb7565b820191906000526020600020905b815481529060010190602001808311611c9a57829003601f168201915b5050505050828281518110611ccf57611cce616602565b5b60200260200101819052505b8080611ce690616777565b9150506117bc565b508585858585859b509b509b509b509b509b505050505050509295509295509295565b6000606080606080606060005b600080549050811015612184578773ffffffffffffffffffffffffffffffffffffffff1660008281548110611d5657611d55616602565b5b906000526020600020906007020160000160009054906101000a900473ffffffffffffffffffffffffffffffffffffffff1673ffffffffffffffffffffffffffffffffffffffff1614156121715760008181548110611db857611db7616602565b5b906000526020600020906007020160000160009054906101000a900473ffffffffffffffffffffffffffffffffffffffff1660008281548110611dfe57611dfd616602565b5b906000526020600020906007020160010160008381548110611e2357611e22616602565b5b906000526020600020906007020160020160008481548110611e4857611e47616602565b5b906000526020600020906007020160030160008581548110611e6d57611e6c616602565b5b906000526020600020906007020160040160008681548110611e9257611e91616602565b5b9060005260206000209060070201600501848054611eaf90616660565b80601f0160208091040260200160405190810160405280929190818152602001828054611edb90616660565b8015611f285780601f10611efd57610100808354040283529160200191611f28565b820191906000526020600020905b815481529060010190602001808311611f0b57829003601f168201915b50505050509450838054611f3b90616660565b80601f0160208091040260200160405190810160405280929190818152602001828054611f6790616660565b8015611fb45780601f10611f8957610100808354040283529160200191611fb4565b820191906000526020600020905b815481529060010190602001808311611f9757829003601f168201915b50505050509350828054611fc790616660565b80601f0160208091040260200160405190810160405280929190818152602001828054611ff390616660565b80156120405780601f1061201557610100808354040283529160200191612040565b820191906000526020600020905b81548152906001019060200180831161202357829003601f168201915b5050505050925081805461205390616660565b80601f016020809104026020016040519081016040528092919081815260200182805461207f90616660565b80156120cc5780601f106120a1576101008083540402835291602001916120cc565b820191906000526020600020905b8154815290600101906020018083116120af57829003601f168201915b505050505091508080546120df90616660565b80601f016020809104026020016040519081016040528092919081815260200182805461210b90616660565b80156121585780601f1061212d57610100808354040283529160200191612158565b820191906000526020600020905b81548152906001019060200180831161213b57829003601f168201915b5050505050905096509650965096509650965050612186565b808061217c90616777565b915050611d1e565b505b91939550919395565b600080600090505b600080549050811015612285578373ffffffffffffffffffffffffffffffffffffffff16600082815481106121cf576121ce616602565b5b906000526020600020906007020160000160009054906101000a900473ffffffffffffffffffffffffffffffffffffffff1673ffffffffffffffffffffffffffffffffffffffff16148015612263575082805190602001206000828154811061223b5761223a616602565b5b90600052602060002090600702016006016040516122599190616731565b6040518091039020145b15612272576001915050612287565b808061227d90616777565b915050612197565b505b92915050565b6001818154811061229d57600080fd5b90600052602060002090600502016000915090508060000160009054906101000a900460e01b908060000160049054906101000a900473ffffffffffffffffffffffffffffffffffffffff16908060010160009054906101000a900473ffffffffffffffffffffffffffffffffffffffff169080600201805461231f90616660565b80601f016020809104026020016040519081016040528092919081815260200182805461234b90616660565b80156123985780601f1061236d57610100808354040283529160200191612398565b820191906000526020600020905b81548152906001019060200180831161237b57829003601f168201915b5050505050908060030180546123ad90616660565b80601f01602080910402602001604051908101604052809291908181526020018280546123d990616660565b80156124265780601f106123fb57610100808354040283529160200191612426565b820191906000526020600020905b81548152906001019060200180831161240957829003601f168201915b50505050509080600401805461243b90616660565b80601f016020809104026020016040519081016040528092919081815260200182805461246790616660565b80156124b45780601f10612489576101008083540402835291602001916124b4565b820191906000526020600020905b81548152906001019060200180831161249757829003601f168201915b5050505050905086565b600080600090505b600080549050811015612569578273ffffffffffffffffffffffffffffffffffffffff16600082815481106124fe576124fd616602565b5b906000526020600020906007020160000160009054906101000a900473ffffffffffffffffffffffffffffffffffffffff1673ffffffffffffffffffffffffffffffffffffffff16141561255657600191505061256b565b808061256190616777565b9150506124c6565b505b919050565b6003818154811061258057600080fd5b90600052602060002090600802016000915090508060000160009054906101000a900460e01b908060000160049054906101000a900473ffffffffffffffffffffffffffffffffffffffff16908060010160009054906101000a900473ffffffffffffffffffffffffffffffffffffffff169080600201805461260290616660565b80601f016020809104026020016040519081016040528092919081815260200182805461262e90616660565b801561267b5780601f106126505761010080835404028352916020019161267b565b820191906000526020600020905b81548152906001019060200180831161265e57829003601f168201915b50505050509080600301805461269090616660565b80601f01602080910402602001604051908101604052809291908181526020018280546126bc90616660565b80156127095780601f106126de57610100808354040283529160200191612709565b820191906000526020600020905b8154815290600101906020018083116126ec57829003601f168201915b50505050509080600401805461271e90616660565b80601f016020809104026020016040519081016040528092919081815260200182805461274a90616660565b80156127975780601f1061276c57610100808354040283529160200191612797565b820191906000526020600020905b81548152906001019060200180831161277a57829003601f168201915b5050505050908060050154908060060154908060070154905089565b6060806060600080600080600090505b600380549050811015612bf3578a73ffffffffffffffffffffffffffffffffffffffff16600382815481106127fb576127fa616602565b5b906000526020600020906008020160000160049054906101000a900473ffffffffffffffffffffffffffffffffffffffff1673ffffffffffffffffffffffffffffffffffffffff161480156128c057508973ffffffffffffffffffffffffffffffffffffffff166003828154811061287657612875616602565b5b906000526020600020906008020160010160009054906101000a900473ffffffffffffffffffffffffffffffffffffffff1673ffffffffffffffffffffffffffffffffffffffff16145b8015612944575088886040516020016128da9291906167fc565b604051602081830303815290604052805190602001206003828154811061290457612903616602565b5b906000526020600020906008020160000160009054906101000a900460e01b7bffffffffffffffffffffffffffffffffffffffffffffffffffffffff1916145b15612be0576003818154811061295d5761295c616602565b5b90600052602060002090600802016002016003828154811061298257612981616602565b5b9060005260206000209060080201600301600383815481106129a7576129a6616602565b5b9060005260206000209060080201600401600384815481106129cc576129cb616602565b5b906000526020600020906008020160050154600385815481106129f2576129f1616602565b5b90600052602060002090600802016006015460038681548110612a1857612a17616602565b5b906000526020600020906008020160070154858054612a3690616660565b80601f0160208091040260200160405190810160405280929190818152602001828054612a6290616660565b8015612aaf5780601f10612a8457610100808354040283529160200191612aaf565b820191906000526020600020905b815481529060010190602001808311612a9257829003601f168201915b50505050509550848054612ac290616660565b80601f0160208091040260200160405190810160405280929190818152602001828054612aee90616660565b8015612b3b5780601f10612b1057610100808354040283529160200191612b3b565b820191906000526020600020905b815481529060010190602001808311612b1e57829003601f168201915b50505050509450838054612b4e90616660565b80601f0160208091040260200160405190810160405280929190818152602001828054612b7a90616660565b8015612bc75780601f10612b9c57610100808354040283529160200191612bc7565b820191906000526020600020905b815481529060010190602001808311612baa57829003601f168201915b5050505050935096509650965096509650965050612bf5565b8080612beb90616777565b9150506127c3565b505b9499939850945094509450565b60005b600080549050811015612dc1578673ffffffffffffffffffffffffffffffffffffffff1660008281548110612c3d57612c3c616602565b5b906000526020600020906007020160000160009054906101000a900473ffffffffffffffffffffffffffffffffffffffff1673ffffffffffffffffffffffffffffffffffffffff161415612dae578560008281548110612ca057612c9f616602565b5b90600052602060002090600702016001019080519060200190612cc49291906154bb565b508460008281548110612cda57612cd9616602565b5b90600052602060002090600702016002019080519060200190612cfe9291906154bb565b508360008281548110612d1457612d13616602565b5b90600052602060002090600702016003019080519060200190612d389291906154bb565b508260008281548110612d4e57612d4d616602565b5b90600052602060002090600702016004019080519060200190612d729291906154bb565b508160008281548110612d8857612d87616602565b5b90600052602060002090600702016005019080519060200190612dac9291906154bb565b505b8080612db990616777565b915050612c05565b50505050505050565b600080600090505b600380549050811015612ef9578473ffffffffffffffffffffffffffffffffffffffff1660028281548110612e0a57612e09616602565b5b906000526020600020906008020160010160009054906101000a900473ffffffffffffffffffffffffffffffffffffffff1673ffffffffffffffffffffffffffffffffffffffff16148015612ed757508383604051602001612e6d9291906167fc565b6040516020818303038152906040528051906020012060028281548110612e9757612e96616602565b5b906000526020600020906008020160000160009054906101000a900460e01b7bffffffffffffffffffffffffffffffffffffffffffffffffffffffff1916145b15612ee6576001915050612efb565b8080612ef190616777565b915050612dd2565b505b9392505050565b60608060608060608060606000808054905067ffffffffffffffff811115612f2d57612f2c61565f565b5b604051908082528060200260200182016040528015612f5b5781602001602082028036833780820191505090505b5090506000808054905067ffffffffffffffff811115612f7e57612f7d61565f565b5b604051908082528060200260200182016040528015612fb157816020015b6060815260200190600190039081612f9c5790505b5090506000808054905067ffffffffffffffff811115612fd457612fd361565f565b5b60405190808252806020026020018201604052801561300757816020015b6060815260200190600190039081612ff25790505b5090506000808054905067ffffffffffffffff81111561302a5761302961565f565b5b60405190808252806020026020018201604052801561305d57816020015b60608152602001906001900390816130485790505b5090506000808054905067ffffffffffffffff8111156130805761307f61565f565b5b6040519080825280602002602001820160405280156130b357816020015b606081526020019060019003908161309e5790505b5090506000808054905067ffffffffffffffff8111156130d6576130d561565f565b5b60405190808252806020026020018201604052801561310957816020015b60608152602001906001900390816130f45790505b5090506000808054905067ffffffffffffffff81111561312c5761312b61565f565b5b60405190808252806020026020018201604052801561315f57816020015b606081526020019060019003908161314a5790505b50905060005b6000805490508110156136e0576000818154811061318657613185616602565b5b906000526020600020906007020160000160009054906101000a900473ffffffffffffffffffffffffffffffffffffffff168882815181106131cb576131ca616602565b5b602002602001019073ffffffffffffffffffffffffffffffffffffffff16908173ffffffffffffffffffffffffffffffffffffffff16815250506000818154811061321957613218616602565b5b9060005260206000209060070201600101805461323590616660565b80601f016020809104026020016040519081016040528092919081815260200182805461326190616660565b80156132ae5780601f10613283576101008083540402835291602001916132ae565b820191906000526020600020905b81548152906001019060200180831161329157829003601f168201915b50505050508782815181106132c6576132c5616602565b5b6020026020010181905250600081815481106132e5576132e4616602565b5b9060005260206000209060070201600201805461330190616660565b80601f016020809104026020016040519081016040528092919081815260200182805461332d90616660565b801561337a5780601f1061334f5761010080835404028352916020019161337a565b820191906000526020600020905b81548152906001019060200180831161335d57829003601f168201915b505050505086828151811061339257613391616602565b5b6020026020010181905250600081815481106133b1576133b0616602565b5b906000526020600020906007020160030180546133cd90616660565b80601f01602080910402602001604051908101604052809291908181526020018280546133f990616660565b80156134465780601f1061341b57610100808354040283529160200191613446565b820191906000526020600020905b81548152906001019060200180831161342957829003601f168201915b505050505085828151811061345e5761345d616602565b5b60200260200101819052506000818154811061347d5761347c616602565b5b9060005260206000209060070201600401805461349990616660565b80601f01602080910402602001604051908101604052809291908181526020018280546134c590616660565b80156135125780601f106134e757610100808354040283529160200191613512565b820191906000526020600020905b8154815290600101906020018083116134f557829003601f168201915b505050505084828151811061352a57613529616602565b5b60200260200101819052506000818154811061354957613548616602565b5b9060005260206000209060070201600501805461356590616660565b80601f016020809104026020016040519081016040528092919081815260200182805461359190616660565b80156135de5780601f106135b3576101008083540402835291602001916135de565b820191906000526020600020905b8154815290600101906020018083116135c157829003601f168201915b50505050508382815181106135f6576135f5616602565b5b60200260200101819052506000818154811061361557613614616602565b5b9060005260206000209060070201600601805461363190616660565b80601f016020809104026020016040519081016040528092919081815260200182805461365d90616660565b80156136aa5780601f1061367f576101008083540402835291602001916136aa565b820191906000526020600020905b81548152906001019060200180831161368d57829003601f168201915b50505050508282815181106136c2576136c1616602565b5b602002602001018190525080806136d890616777565b915050613165565b50868686868686869d509d509d509d509d509d509d505050505050505090919293949596565b6000613712858561055c565b14613752576040517f08c379a000000000000000000000000000000000000000000000000000000000815260040161374990616a72565b60405180910390fd5b60016040518060c00160405280836040516020016137709190616a92565b604051602081830303815290604052805190602001207bffffffffffffffffffffffffffffffffffffffffffffffffffffffff191681526020018673ffffffffffffffffffffffffffffffffffffffff1681526020018573ffffffffffffffffffffffffffffffffffffffff1681526020018481526020018381526020016040518060400160405280600781526020017f57616974696e6700000000000000000000000000000000000000000000000000815250815250908060018154018082558091505060019003906000526020600020906005020160009091909190915060008201518160000160006101000a81548163ffffffff021916908360e01c021790555060208201518160000160046101000a81548173ffffffffffffffffffffffffffffffffffffffff021916908373ffffffffffffffffffffffffffffffffffffffff16021790555060408201518160010160006101000a81548173ffffffffffffffffffffffffffffffffffffffff021916908373ffffffffffffffffffffffffffffffffffffffff160217905550606082015181600201908051906020019061391e9291906154bb565b50608082015181600301908051906020019061393b9291906154bb565b5060a08201518160040190805190602001906139589291906154bb565b50505050505050565b606080606080606080600060018054905067ffffffffffffffff81111561398b5761398a61565f565b5b6040519080825280602002602001820160405280156139b95781602001602082028036833780820191505090505b509050600060018054905067ffffffffffffffff8111156139dd576139dc61565f565b5b604051908082528060200260200182016040528015613a0b5781602001602082028036833780820191505090505b509050600060018054905067ffffffffffffffff811115613a2f57613a2e61565f565b5b604051908082528060200260200182016040528015613a5d5781602001602082028036833780820191505090505b509050600060018054905067ffffffffffffffff811115613a8157613a8061565f565b5b604051908082528060200260200182016040528015613ab457816020015b6060815260200190600190039081613a9f5790505b509050600060018054905067ffffffffffffffff811115613ad857613ad761565f565b5b604051908082528060200260200182016040528015613b0b57816020015b6060815260200190600190039081613af65790505b509050600060018054905067ffffffffffffffff811115613b2f57613b2e61565f565b5b604051908082528060200260200182016040528015613b6257816020015b6060815260200190600190039081613b4d5790505b50905060005b60018054905081101561401e578d73ffffffffffffffffffffffffffffffffffffffff1660018281548110613ba057613b9f616602565b5b906000526020600020906005020160010160009054906101000a900473ffffffffffffffffffffffffffffffffffffffff1673ffffffffffffffffffffffffffffffffffffffff16141561400b5760018181548110613c0257613c01616602565b5b906000526020600020906005020160000160009054906101000a900460e01b878281518110613c3457613c33616602565b5b60200260200101907bffffffffffffffffffffffffffffffffffffffffffffffffffffffff191690817bffffffffffffffffffffffffffffffffffffffffffffffffffffffff19168152505060018181548110613c9457613c93616602565b5b906000526020600020906005020160000160049054906101000a900473ffffffffffffffffffffffffffffffffffffffff16868281518110613cd957613cd8616602565b5b602002602001019073ffffffffffffffffffffffffffffffffffffffff16908173ffffffffffffffffffffffffffffffffffffffff168152505060018181548110613d2757613d26616602565b5b906000526020600020906005020160010160009054906101000a900473ffffffffffffffffffffffffffffffffffffffff16858281518110613d6c57613d6b616602565b5b602002602001019073ffffffffffffffffffffffffffffffffffffffff16908173ffffffffffffffffffffffffffffffffffffffff168152505060018181548110613dba57613db9616602565b5b90600052602060002090600502016002018054613dd690616660565b80601f0160208091040260200160405190810160405280929190818152602001828054613e0290616660565b8015613e4f5780601f10613e2457610100808354040283529160200191613e4f565b820191906000526020600020905b815481529060010190602001808311613e3257829003601f168201915b5050505050848281518110613e6757613e66616602565b5b602002602001018190525060018181548110613e8657613e85616602565b5b90600052602060002090600502016003018054613ea290616660565b80601f0160208091040260200160405190810160405280929190818152602001828054613ece90616660565b8015613f1b5780601f10613ef057610100808354040283529160200191613f1b565b820191906000526020600020905b815481529060010190602001808311613efe57829003601f168201915b5050505050838281518110613f3357613f32616602565b5b602002602001018190525060018181548110613f5257613f51616602565b5b90600052602060002090600502016004018054613f6e90616660565b80601f0160208091040260200160405190810160405280929190818152602001828054613f9a90616660565b8015613fe75780601f10613fbc57610100808354040283529160200191613fe7565b820191906000526020600020905b815481529060010190602001808311613fca57829003601f168201915b5050505050828281518110613fff57613ffe616602565b5b60200260200101819052505b808061401690616777565b915050613b68565b508585858585859b509b509b509b509b509b5050505050505091939550919395565b6002818154811061405057600080fd5b90600052602060002090600802016000915090508060000160009054906101000a900460e01b908060000160049054906101000a900473ffffffffffffffffffffffffffffffffffffffff16908060010160009054906101000a900473ffffffffffffffffffffffffffffffffffffffff16908060020180546140d290616660565b80601f01602080910402602001604051908101604052809291908181526020018280546140fe90616660565b801561414b5780601f106141205761010080835404028352916020019161414b565b820191906000526020600020905b81548152906001019060200180831161412e57829003601f168201915b50505050509080600301805461416090616660565b80601f016020809104026020016040519081016040528092919081815260200182805461418c90616660565b80156141d95780601f106141ae576101008083540402835291602001916141d9565b820191906000526020600020905b8154815290600101906020018083116141bc57829003601f168201915b5050505050908060040180546141ee90616660565b80601f016020809104026020016040519081016040528092919081815260200182805461421a90616660565b80156142675780601f1061423c57610100808354040283529160200191614267565b820191906000526020600020905b81548152906001019060200180831161424a57829003601f168201915b5050505050908060050154908060060154908060070154905089565b6060806060600080600080600090505b6002805490508110156146c3578a73ffffffffffffffffffffffffffffffffffffffff16600282815481106142cb576142ca616602565b5b906000526020600020906008020160000160049054906101000a900473ffffffffffffffffffffffffffffffffffffffff1673ffffffffffffffffffffffffffffffffffffffff1614801561439057508973ffffffffffffffffffffffffffffffffffffffff166002828154811061434657614345616602565b5b906000526020600020906008020160010160009054906101000a900473ffffffffffffffffffffffffffffffffffffffff1673ffffffffffffffffffffffffffffffffffffffff16145b8015614414575088886040516020016143aa9291906167fc565b60405160208183030381529060405280519060200120600282815481106143d4576143d3616602565b5b906000526020600020906008020160000160009054906101000a900460e01b7bffffffffffffffffffffffffffffffffffffffffffffffffffffffff1916145b156146b0576002818154811061442d5761442c616602565b5b90600052602060002090600802016002016002828154811061445257614451616602565b5b90600052602060002090600802016003016002838154811061447757614476616602565b5b90600052602060002090600802016004016002848154811061449c5761449b616602565b5b906000526020600020906008020160050154600285815481106144c2576144c1616602565b5b906000526020600020906008020160060154600286815481106144e8576144e7616602565b5b90600052602060002090600802016007015485805461450690616660565b80601f016020809104026020016040519081016040528092919081815260200182805461453290616660565b801561457f5780601f106145545761010080835404028352916020019161457f565b820191906000526020600020905b81548152906001019060200180831161456257829003601f168201915b5050505050955084805461459290616660565b80601f01602080910402602001604051908101604052809291908181526020018280546145be90616660565b801561460b5780601f106145e05761010080835404028352916020019161460b565b820191906000526020600020905b8154815290600101906020018083116145ee57829003601f168201915b5050505050945083805461461e90616660565b80601f016020809104026020016040519081016040528092919081815260200182805461464a90616660565b80156146975780601f1061466c57610100808354040283529160200191614697565b820191906000526020600020905b81548152906001019060200180831161467a57829003601f168201915b50505050509350965096509650965096509650506146c5565b80806146bb90616777565b915050614293565b505b9499939850945094509450565b6040518060400160405280600881526020017f4163636570746564000000000000000000000000000000000000000000000000815250805190602001208180519060200120148061476557506040518060400160405280600881526020017f4465636c696e6564000000000000000000000000000000000000000000000000815250805190602001208180519060200120145b6147a4576040517f08c379a000000000000000000000000000000000000000000000000000000000815260040161479b90616af5565b60405180910390fd5b60005b600180549050811015614972578473ffffffffffffffffffffffffffffffffffffffff16600182815481106147df576147de616602565b5b906000526020600020906005020160000160049054906101000a900473ffffffffffffffffffffffffffffffffffffffff1673ffffffffffffffffffffffffffffffffffffffff161480156148a457508373ffffffffffffffffffffffffffffffffffffffff166001828154811061485a57614859616602565b5b906000526020600020906005020160010160009054906101000a900473ffffffffffffffffffffffffffffffffffffffff1673ffffffffffffffffffffffffffffffffffffffff16145b801561491f5750827bffffffffffffffffffffffffffffffffffffffffffffffffffffffff1916600182815481106148df576148de616602565b5b906000526020600020906005020160000160009054906101000a900460e01b7bffffffffffffffffffffffffffffffffffffffffffffffffffffffff1916145b1561495f57816001828154811061493957614938616602565b5b9060005260206000209060050201600401908051906020019061495d9291906154bb565b505b808061496a90616777565b9150506147a7565b5050505050565b606080606080606080600060028054905067ffffffffffffffff8111156149a3576149a261565f565b5b6040519080825280602002602001820160405280156149d657816020015b60608152602001906001900390816149c15790505b509050600060028054905067ffffffffffffffff8111156149fa576149f961565f565b5b604051908082528060200260200182016040528015614a2d57816020015b6060815260200190600190039081614a185790505b509050600060028054905067ffffffffffffffff811115614a5157614a5061565f565b5b604051908082528060200260200182016040528015614a8457816020015b6060815260200190600190039081614a6f5790505b509050600060028054905067ffffffffffffffff811115614aa857614aa761565f565b5b604051908082528060200260200182016040528015614ad65781602001602082028036833780820191505090505b509050600060028054905067ffffffffffffffff811115614afa57614af961565f565b5b604051908082528060200260200182016040528015614b285781602001602082028036833780820191505090505b509050600060028054905067ffffffffffffffff811115614b4c57614b4b61565f565b5b604051908082528060200260200182016040528015614b7a5781602001602082028036833780820191505090505b50905060005b600280549050811015614fc9578e73ffffffffffffffffffffffffffffffffffffffff1660028281548110614bb857614bb7616602565b5b906000526020600020906008020160000160049054906101000a900473ffffffffffffffffffffffffffffffffffffffff1673ffffffffffffffffffffffffffffffffffffffff16148015614c7d57508d73ffffffffffffffffffffffffffffffffffffffff1660028281548110614c3357614c32616602565b5b906000526020600020906008020160010160009054906101000a900473ffffffffffffffffffffffffffffffffffffffff1673ffffffffffffffffffffffffffffffffffffffff16145b15614fb65760028181548110614c9657614c95616602565b5b90600052602060002090600802016002018054614cb290616660565b80601f0160208091040260200160405190810160405280929190818152602001828054614cde90616660565b8015614d2b5780601f10614d0057610100808354040283529160200191614d2b565b820191906000526020600020905b815481529060010190602001808311614d0e57829003601f168201915b5050505050878281518110614d4357614d42616602565b5b602002602001018190525060028181548110614d6257614d61616602565b5b90600052602060002090600802016003018054614d7e90616660565b80601f0160208091040260200160405190810160405280929190818152602001828054614daa90616660565b8015614df75780601f10614dcc57610100808354040283529160200191614df7565b820191906000526020600020905b815481529060010190602001808311614dda57829003601f168201915b5050505050868281518110614e0f57614e0e616602565b5b602002602001018190525060028181548110614e2e57614e2d616602565b5b90600052602060002090600802016004018054614e4a90616660565b80601f0160208091040260200160405190810160405280929190818152602001828054614e7690616660565b8015614ec35780601f10614e9857610100808354040283529160200191614ec3565b820191906000526020600020905b815481529060010190602001808311614ea657829003601f168201915b5050505050858281518110614edb57614eda616602565b5b602002602001018190525060028181548110614efa57614ef9616602565b5b906000526020600020906008020160050154848281518110614f1f57614f1e616602565b5b60200260200101818152505060028181548110614f3f57614f3e616602565b5b906000526020600020906008020160060154838281518110614f6457614f63616602565b5b60200260200101818152505060028181548110614f8457614f83616602565b5b906000526020600020906008020160070154828281518110614fa957614fa8616602565b5b6020026020010181815250505b8080614fc190616777565b915050614b80565b508585858585859b509b509b509b509b509b505050505050509295509295509295565b60003390506001614ffc826124be565b1461503c576040517f08c379a00000000000000000000000000000000000000000000000000000000081526004016150339061686c565b60405180910390fd5b600061504988888861070b565b14615089576040517f08c379a000000000000000000000000000000000000000000000000000000000815260040161508090616b61565b60405180910390fd5b6000831015801561509b575060c88311155b6150da576040517f08c379a00000000000000000000000000000000000000000000000000000000081526004016150d190616bcd565b60405180910390fd5b600082101580156150ec575060c88211155b61512b576040517f08c379a000000000000000000000000000000000000000000000000000000000815260040161512290616c39565b60405180910390fd5b6003604051806101200160405280888860405160200161514c9291906167fc565b604051602081830303815290604052805190602001207bffffffffffffffffffffffffffffffffffffffffffffffffffffffff191681526020018373ffffffffffffffffffffffffffffffffffffffff1681526020018973ffffffffffffffffffffffffffffffffffffffff16815260200188815260200187815260200186815260200185815260200184815260200184866151e891906169d0565b815250908060018154018082558091505060019003906000526020600020906008020160009091909190915060008201518160000160006101000a81548163ffffffff021916908360e01c021790555060208201518160000160046101000a81548173ffffffffffffffffffffffffffffffffffffffff021916908373ffffffffffffffffffffffffffffffffffffffff16021790555060408201518160010160006101000a81548173ffffffffffffffffffffffffffffffffffffffff021916908373ffffffffffffffffffffffffffffffffffffffff16021790555060608201518160020190805190602001906152e29291906154bb565b5060808201518160030190805190602001906152ff9291906154bb565b5060a082015181600401908051906020019061531c9291906154bb565b5060c0820151816005015560e082015181600601556101008201518160070155505050505050505050565b60006040518060e001604052808973ffffffffffffffffffffffffffffffffffffffff16815260200188815260200187815260200186815260200185815260200184815260200183815250908060018154018082558091505060019003906000526020600020906007020160009091909190915060008201518160000160006101000a81548173ffffffffffffffffffffffffffffffffffffffff021916908373ffffffffffffffffffffffffffffffffffffffff160217905550602082015181600101908051906020019061541e9291906154bb565b50604082015181600201908051906020019061543b9291906154bb565b5060608201518160030190805190602001906154589291906154bb565b5060808201518160040190805190602001906154759291906154bb565b5060a08201518160050190805190602001906154929291906154bb565b5060c08201518160060190805190602001906154af9291906154bb565b50505050505050505050565b8280546154c790616660565b90600052602060002090601f0160209004810192826154e95760008555615530565b82601f1061550257805160ff1916838001178555615530565b82800160010185558215615530579182015b8281111561552f578251825591602001919060010190615514565b5b50905061553d9190615541565b5090565b5b8082111561555a576000816000905550600101615542565b5090565b6000604051905090565b600080fd5b600080fd5b600073ffffffffffffffffffffffffffffffffffffffff82169050919050565b600061559d82615572565b9050919050565b6155ad81615592565b81146155b857600080fd5b50565b6000813590506155ca816155a4565b92915050565b600080604083850312156155e7576155e6615568565b5b60006155f5858286016155bb565b9250506020615606858286016155bb565b9150509250929050565b6000819050919050565b61562381615610565b82525050565b600060208201905061563e600083018461561a565b92915050565b600080fd5b600080fd5b6000601f19601f8301169050919050565b7f4e487b7100000000000000000000000000000000000000000000000000000000600052604160045260246000fd5b6156978261564e565b810181811067ffffffffffffffff821117156156b6576156b561565f565b5b80604052505050565b60006156c961555e565b90506156d5828261568e565b919050565b600067ffffffffffffffff8211156156f5576156f461565f565b5b6156fe8261564e565b9050602081019050919050565b82818337600083830152505050565b600061572d615728846156da565b6156bf565b90508281526020810184848401111561574957615748615649565b5b61575484828561570b565b509392505050565b600082601f83011261577157615770615644565b5b813561578184826020860161571a565b91505092915050565b6000806000606084860312156157a3576157a2615568565b5b60006157b1868287016155bb565b935050602084013567ffffffffffffffff8111156157d2576157d161556d565b5b6157de8682870161575c565b925050604084013567ffffffffffffffff8111156157ff576157fe61556d565b5b61580b8682870161575c565b9150509250925092565b600081519050919050565b600082825260208201905092915050565b6000819050602082019050919050565b600081519050919050565b600082825260208201905092915050565b60005b8381101561587b578082015181840152602081019050615860565b8381111561588a576000848401525b50505050565b600061589b82615841565b6158a5818561584c565b93506158b581856020860161585d565b6158be8161564e565b840191505092915050565b60006158d58383615890565b905092915050565b6000602082019050919050565b60006158f582615815565b6158ff8185615820565b93508360208202850161591185615831565b8060005b8581101561594d578484038952815161592e85826158c9565b9450615939836158dd565b925060208a01995050600181019050615915565b50829750879550505050505092915050565b600081519050919050565b600082825260208201905092915050565b6000819050602082019050919050565b61599481615610565b82525050565b60006159a6838361598b565b60208301905092915050565b6000602082019050919050565b60006159ca8261595f565b6159d4818561596a565b93506159df8361597b565b8060005b83811015615a105781516159f7888261599a565b9750615a02836159b2565b9250506001810190506159e3565b5085935050505092915050565b600060c0820190508181036000830152615a3781896158ea565b90508181036020830152615a4b81886158ea565b90508181036040830152615a5f81876158ea565b90508181036060830152615a7381866159bf565b90508181036080830152615a8781856159bf565b905081810360a0830152615a9b81846159bf565b9050979650505050505050565b615ab181615610565b8114615abc57600080fd5b50565b600081359050615ace81615aa8565b92915050565b600060208284031215615aea57615ae9615568565b5b6000615af884828501615abf565b91505092915050565b615b0a81615592565b82525050565b600082825260208201905092915050565b6000615b2c82615841565b615b368185615b10565b9350615b4681856020860161585d565b615b4f8161564e565b840191505092915050565b600060e082019050615b6f600083018a615b01565b8181036020830152615b818189615b21565b90508181036040830152615b958188615b21565b90508181036060830152615ba98187615b21565b90508181036080830152615bbd8186615b21565b905081810360a0830152615bd18185615b21565b905081810360c0830152615be58184615b21565b905098975050505050505050565b60008060008060008060c08789031215615c1057615c0f615568565b5b6000615c1e89828a016155bb565b965050602087013567ffffffffffffffff811115615c3f57615c3e61556d565b5b615c4b89828a0161575c565b955050604087013567ffffffffffffffff811115615c6c57615c6b61556d565b5b615c7889828a0161575c565b945050606087013567ffffffffffffffff811115615c9957615c9861556d565b5b615ca589828a0161575c565b9350506080615cb689828a01615abf565b92505060a0615cc789828a01615abf565b9150509295509295509295565b600081519050919050565b600082825260208201905092915050565b6000819050602082019050919050565b60007fffffffff0000000000000000000000000000000000000000000000000000000082169050919050565b615d3581615d00565b82525050565b6000615d478383615d2c565b60208301905092915050565b6000602082019050919050565b6000615d6b82615cd4565b615d758185615cdf565b9350615d8083615cf0565b8060005b83811015615db1578151615d988882615d3b565b9750615da383615d53565b925050600181019050615d84565b5085935050505092915050565b600081519050919050565b600082825260208201905092915050565b6000819050602082019050919050565b615df381615592565b82525050565b6000615e058383615dea565b60208301905092915050565b6000602082019050919050565b6000615e2982615dbe565b615e338185615dc9565b9350615e3e83615dda565b8060005b83811015615e6f578151615e568882615df9565b9750615e6183615e11565b925050600181019050615e42565b5085935050505092915050565b600060c0820190508181036000830152615e968189615d60565b90508181036020830152615eaa8188615e1e565b90508181036040830152615ebe8187615e1e565b90508181036060830152615ed281866158ea565b90508181036080830152615ee681856158ea565b905081810360a0830152615efa81846158ea565b9050979650505050505050565b600060208284031215615f1d57615f1c615568565b5b6000615f2b848285016155bb565b91505092915050565b600060c082019050615f496000830189615b01565b8181036020830152615f5b8188615b21565b90508181036040830152615f6f8187615b21565b90508181036060830152615f838186615b21565b90508181036080830152615f978185615b21565b905081810360a0830152615fab8184615b21565b9050979650505050505050565b60008060408385031215615fcf57615fce615568565b5b6000615fdd858286016155bb565b925050602083013567ffffffffffffffff811115615ffe57615ffd61556d565b5b61600a8582860161575c565b9150509250929050565b61601d81615d00565b82525050565b600060c0820190506160386000830189616014565b6160456020830188615b01565b6160526040830187615b01565b81810360608301526160648186615b21565b905081810360808301526160788185615b21565b905081810360a083015261608c8184615b21565b9050979650505050505050565b6000610120820190506160af600083018c616014565b6160bc602083018b615b01565b6160c9604083018a615b01565b81810360608301526160db8189615b21565b905081810360808301526160ef8188615b21565b905081810360a08301526161038187615b21565b905061611260c083018661561a565b61611f60e083018561561a565b61612d61010083018461561a565b9a9950505050505050505050565b6000806000806080858703121561615557616154615568565b5b6000616163878288016155bb565b9450506020616174878288016155bb565b935050604085013567ffffffffffffffff8111156161955761619461556d565b5b6161a18782880161575c565b925050606085013567ffffffffffffffff8111156161c2576161c161556d565b5b6161ce8782880161575c565b91505092959194509250565b600060c08201905081810360008301526161f48189615b21565b905081810360208301526162088188615b21565b9050818103604083015261621c8187615b21565b905061622b606083018661561a565b616238608083018561561a565b61624560a083018461561a565b979650505050505050565b60008060008060008060c0878903121561626d5761626c615568565b5b600061627b89828a016155bb565b965050602087013567ffffffffffffffff81111561629c5761629b61556d565b5b6162a889828a0161575c565b955050604087013567ffffffffffffffff8111156162c9576162c861556d565b5b6162d589828a0161575c565b945050606087013567ffffffffffffffff8111156162f6576162f561556d565b5b61630289828a0161575c565b935050608087013567ffffffffffffffff8111156163235761632261556d565b5b61632f89828a0161575c565b92505060a087013567ffffffffffffffff8111156163505761634f61556d565b5b61635c89828a0161575c565b9150509295509295509295565b600060e0820190508181036000830152616383818a615e1e565b9050818103602083015261639781896158ea565b905081810360408301526163ab81886158ea565b905081810360608301526163bf81876158ea565b905081810360808301526163d381866158ea565b905081810360a08301526163e781856158ea565b905081810360c08301526163fb81846158ea565b905098975050505050505050565b61641281615d00565b811461641d57600080fd5b50565b60008135905061642f81616409565b92915050565b6000806000806080858703121561644f5761644e615568565b5b600061645d878288016155bb565b945050602061646e878288016155bb565b935050604061647f87828801616420565b925050606085013567ffffffffffffffff8111156164a05761649f61556d565b5b6164ac8782880161575c565b91505092959194509250565b600080600080600080600060e0888a0312156164d7576164d6615568565b5b60006164e58a828b016155bb565b975050602088013567ffffffffffffffff8111156165065761650561556d565b5b6165128a828b0161575c565b965050604088013567ffffffffffffffff8111156165335761653261556d565b5b61653f8a828b0161575c565b955050606088013567ffffffffffffffff8111156165605761655f61556d565b5b61656c8a828b0161575c565b945050608088013567ffffffffffffffff81111561658d5761658c61556d565b5b6165998a828b0161575c565b93505060a088013567ffffffffffffffff8111156165ba576165b961556d565b5b6165c68a828b0161575c565b92505060c088013567ffffffffffffffff8111156165e7576165e661556d565b5b6165f38a828b0161575c565b91505092959891949750929550565b7f4e487b7100000000000000000000000000000000000000000000000000000000600052603260045260246000fd5b7f4e487b7100000000000000000000000000000000000000000000000000000000600052602260045260246000fd5b6000600282049050600182168061667857607f821691505b6020821081141561668c5761668b616631565b5b50919050565b600081905092915050565b60008190508160005260206000209050919050565b600081546166bf81616660565b6166c98186616692565b945060018216600081146166e457600181146166f557616728565b60ff19831686528186019350616728565b6166fe8561669d565b60005b8381101561672057815481890152600182019150602081019050616701565b838801955050505b50505092915050565b600061673d82846166b2565b915081905092915050565b7f4e487b7100000000000000000000000000000000000000000000000000000000600052601160045260246000fd5b600061678282615610565b91507fffffffffffffffffffffffffffffffffffffffffffffffffffffffffffffffff8214156167b5576167b4616748565b5b600182019050919050565b600081905092915050565b60006167d682615841565b6167e081856167c0565b93506167f081856020860161585d565b80840191505092915050565b600061680882856167cb565b915061681482846167cb565b91508190509392505050565b7f4e6f7420666f756e64206f776e65722e00000000000000000000000000000000600082015250565b6000616856601083615b10565b915061686182616820565b602082019050919050565b6000602082019050818103600083015261688581616849565b9050919050565b7f4475706c6963617465204c5220526573756c742e000000000000000000000000600082015250565b60006168c2601483615b10565b91506168cd8261688c565b602082019050919050565b600060208201905081810360008301526168f1816168b5565b9050919050565b7f4c697374656e696e672053636f726520696e636f72726563742e000000000000600082015250565b600061692e601a83615b10565b9150616939826168f8565b602082019050919050565b6000602082019050818103600083015261695d81616921565b9050919050565b7f52656164696e672053636f726520696e636f72726563742e0000000000000000600082015250565b600061699a601883615b10565b91506169a582616964565b602082019050919050565b600060208201905081810360008301526169c98161698d565b9050919050565b60006169db82615610565b91506169e683615610565b9250827fffffffffffffffffffffffffffffffffffffffffffffffffffffffffffffffff03821115616a1b57616a1a616748565b5b828201905092915050565b7f57616974696e6720666f7220636f6e6669726d6174696f6e2e00000000000000600082015250565b6000616a5c601983615b10565b9150616a6782616a26565b602082019050919050565b60006020820190508181036000830152616a8b81616a4f565b9050919050565b6000616a9e82846167cb565b915081905092915050565b7f537461747573205265717565737420696e636f72726563742e00000000000000600082015250565b6000616adf601983615b10565b9150616aea82616aa9565b602082019050919050565b60006020820190508181036000830152616b0e81616ad2565b9050919050565b7f4475706c696361746520535720526573756c742e000000000000000000000000600082015250565b6000616b4b601483615b10565b9150616b5682616b15565b602082019050919050565b60006020820190508181036000830152616b7a81616b3e565b9050919050565b7f537065616b696e672053636f726520696e636f72726563742e00000000000000600082015250565b6000616bb7601983615b10565b9150616bc282616b81565b602082019050919050565b60006020820190508181036000830152616be681616baa565b9050919050565b7f57726974696e672053636f726520696e636f72726563742e0000000000000000600082015250565b6000616c23601883615b10565b9150616c2e82616bed565b602082019050919050565b60006020820190508181036000830152616c5281616c16565b905091905056fea26469706673582212205f836658af1132eaa4847738a11ab6b3c1fcdfa2d1279e5a3927acb07105bd8b64736f6c634300080b0033608060405234801561001057600080fd5b50612f49806100206000396000f3fe608060405234801561001057600080fd5b50600436106100e95760003560e01c8063ae8f00d31161008c578063dc1e475f11610066578063dc1e475f146102a3578063e83ddcea146102bf578063e9daa70a146102f1578063f7a7b83d14610323576100e9565b8063ae8f00d314610223578063ce1ec5bb1461023f578063dae7debd14610273576100e9565b8063381a3bf7116100c8578063381a3bf71461016f5780637aedcde5146101a3578063844bb460146101d757806386b87ba2146101f3576100e9565b80624e56cf146100ee5780630299779f1461010a5780630b5e50ed1461013a575b600080fd5b6101086004803603810190610103919061233f565b61033f565b005b610124600480360381019061011f91906123de565b6104e4565b6040516101319190612466565b60405180910390f35b610154600480360381019061014f91906124ad565b61065f565b6040516101669695949392919061258a565b60405180910390f35b61018960048036038101906101849190612600565b610863565b60405161019a9594939291906127f7565b60405180910390f35b6101bd60048036038101906101b891906124ad565b610e54565b6040516101ce95949392919061286d565b60405180910390f35b6101f160048036038101906101ec919061233f565b611072565b005b61020d600480360381019061020891906128d5565b611217565b60405161021a9190612466565b60405180910390f35b61023d600480360381019061023891906123de565b611347565b005b61025960048036038101906102549190612600565b61146b565b60405161026a959493929190612adc565b60405180910390f35b61028d60048036038101906102889190612600565b6119c5565b60405161029a9190612466565b60405180910390f35b6102bd60048036038101906102b8919061233f565b611a82565b005b6102d960048036038101906102d491906124ad565b611c22565b6040516102e893929190612b52565b60405180910390f35b61030b60048036038101906103069190612b90565b611d24565b60405161031a93929190612b52565b60405180910390f35b61033d60048036038101906103389190612bd0565b611f93565b005b60005b6000805490508110156104dd578473ffffffffffffffffffffffffffffffffffffffff166000828154811061037a57610379612c9f565b5b906000526020600020906005020160000160009054906101000a900473ffffffffffffffffffffffffffffffffffffffff1673ffffffffffffffffffffffffffffffffffffffff1614801561043f57508373ffffffffffffffffffffffffffffffffffffffff16600082815481106103f5576103f4612c9f565b5b906000526020600020906005020160010160009054906101000a900473ffffffffffffffffffffffffffffffffffffffff1673ffffffffffffffffffffffffffffffffffffffff16145b801561048a575082805190602001206000828154811061046257610461612c9f565b5b90600052602060002090600502016002016040516104809190612dce565b6040518091039020145b156104ca5781600082815481106104a4576104a3612c9f565b5b906000526020600020906005020160040190805190602001906104c89291906120e4565b505b80806104d590612e14565b915050610342565b5050505050565b600080600090505b600080549050811015610656578473ffffffffffffffffffffffffffffffffffffffff166000828154811061052457610523612c9f565b5b906000526020600020906005020160000160009054906101000a900473ffffffffffffffffffffffffffffffffffffffff1673ffffffffffffffffffffffffffffffffffffffff161480156105e957508373ffffffffffffffffffffffffffffffffffffffff166000828154811061059f5761059e612c9f565b5b906000526020600020906005020160010160009054906101000a900473ffffffffffffffffffffffffffffffffffffffff1673ffffffffffffffffffffffffffffffffffffffff16145b8015610634575082805190602001206000828154811061060c5761060b612c9f565b5b906000526020600020906005020160020160405161062a9190612dce565b6040518091039020145b15610643576001915050610658565b808061064e90612e14565b9150506104ec565b505b9392505050565b6001818154811061066f57600080fd5b90600052602060002090600602016000915090508060000160009054906101000a900473ffffffffffffffffffffffffffffffffffffffff16908060010154908060020180546106be90612cfd565b80601f01602080910402602001604051908101604052809291908181526020018280546106ea90612cfd565b80156107375780601f1061070c57610100808354040283529160200191610737565b820191906000526020600020905b81548152906001019060200180831161071a57829003601f168201915b50505050509080600301805461074c90612cfd565b80601f016020809104026020016040519081016040528092919081815260200182805461077890612cfd565b80156107c55780601f1061079a576101008083540402835291602001916107c5565b820191906000526020600020905b8154815290600101906020018083116107a857829003601f168201915b5050505050908060040180546107da90612cfd565b80601f016020809104026020016040519081016040528092919081815260200182805461080690612cfd565b80156108535780601f1061082857610100808354040283529160200191610853565b820191906000526020600020905b81548152906001019060200180831161083657829003601f168201915b5050505050908060050154905086565b60608060608060606000808054905067ffffffffffffffff81111561088b5761088a612214565b5b6040519080825280602002602001820160405280156108b95781602001602082028036833780820191505090505b5090506000808054905067ffffffffffffffff8111156108dc576108db612214565b5b60405190808252806020026020018201604052801561090a5781602001602082028036833780820191505090505b5090506000808054905067ffffffffffffffff81111561092d5761092c612214565b5b60405190808252806020026020018201604052801561096057816020015b606081526020019060019003908161094b5790505b5090506000808054905067ffffffffffffffff81111561098357610982612214565b5b6040519080825280602002602001820160405280156109b657816020015b60608152602001906001900390816109a15790505b5090506000808054905067ffffffffffffffff8111156109d9576109d8612214565b5b604051908082528060200260200182016040528015610a0c57816020015b60608152602001906001900390816109f75790505b50905060005b600080549050811015610e36578b73ffffffffffffffffffffffffffffffffffffffff1660008281548110610a4a57610a49612c9f565b5b906000526020600020906005020160010160009054906101000a900473ffffffffffffffffffffffffffffffffffffffff1673ffffffffffffffffffffffffffffffffffffffff161415610e235760008181548110610aac57610aab612c9f565b5b906000526020600020906005020160000160009054906101000a900473ffffffffffffffffffffffffffffffffffffffff16868281518110610af157610af0612c9f565b5b602002602001019073ffffffffffffffffffffffffffffffffffffffff16908173ffffffffffffffffffffffffffffffffffffffff168152505060008181548110610b3f57610b3e612c9f565b5b906000526020600020906005020160010160009054906101000a900473ffffffffffffffffffffffffffffffffffffffff16858281518110610b8457610b83612c9f565b5b602002602001019073ffffffffffffffffffffffffffffffffffffffff16908173ffffffffffffffffffffffffffffffffffffffff168152505060008181548110610bd257610bd1612c9f565b5b90600052602060002090600502016002018054610bee90612cfd565b80601f0160208091040260200160405190810160405280929190818152602001828054610c1a90612cfd565b8015610c675780601f10610c3c57610100808354040283529160200191610c67565b820191906000526020600020905b815481529060010190602001808311610c4a57829003601f168201915b5050505050848281518110610c7f57610c7e612c9f565b5b602002602001018190525060008181548110610c9e57610c9d612c9f565b5b90600052602060002090600502016003018054610cba90612cfd565b80601f0160208091040260200160405190810160405280929190818152602001828054610ce690612cfd565b8015610d335780601f10610d0857610100808354040283529160200191610d33565b820191906000526020600020905b815481529060010190602001808311610d1657829003601f168201915b5050505050838281518110610d4b57610d4a612c9f565b5b602002602001018190525060008181548110610d6a57610d69612c9f565b5b90600052602060002090600502016004018054610d8690612cfd565b80601f0160208091040260200160405190810160405280929190818152602001828054610db290612cfd565b8015610dff5780601f10610dd457610100808354040283529160200191610dff565b820191906000526020600020905b815481529060010190602001808311610de257829003601f168201915b5050505050828281518110610e1757610e16612c9f565b5b60200260200101819052505b8080610e2e90612e14565b915050610a12565b50848484848499509950995099509950505050505091939590929450565b60008181548110610e6457600080fd5b90600052602060002090600502016000915090508060000160009054906101000a900473ffffffffffffffffffffffffffffffffffffffff16908060010160009054906101000a900473ffffffffffffffffffffffffffffffffffffffff1690806002018054610ed390612cfd565b80601f0160208091040260200160405190810160405280929190818152602001828054610eff90612cfd565b8015610f4c5780601f10610f2157610100808354040283529160200191610f4c565b820191906000526020600020905b815481529060010190602001808311610f2f57829003601f168201915b505050505090806003018054610f6190612cfd565b80601f0160208091040260200160405190810160405280929190818152602001828054610f8d90612cfd565b8015610fda5780601f10610faf57610100808354040283529160200191610fda565b820191906000526020600020905b815481529060010190602001808311610fbd57829003601f168201915b505050505090806004018054610fef90612cfd565b80601f016020809104026020016040519081016040528092919081815260200182805461101b90612cfd565b80156110685780601f1061103d57610100808354040283529160200191611068565b820191906000526020600020905b81548152906001019060200180831161104b57829003601f168201915b5050505050905085565b60005b600080549050811015611210578473ffffffffffffffffffffffffffffffffffffffff16600082815481106110ad576110ac612c9f565b5b906000526020600020906005020160000160009054906101000a900473ffffffffffffffffffffffffffffffffffffffff1673ffffffffffffffffffffffffffffffffffffffff1614801561117257508373ffffffffffffffffffffffffffffffffffffffff166000828154811061112857611127612c9f565b5b906000526020600020906005020160010160009054906101000a900473ffffffffffffffffffffffffffffffffffffffff1673ffffffffffffffffffffffffffffffffffffffff16145b80156111bd575082805190602001206000828154811061119557611194612c9f565b5b90600052602060002090600502016002016040516111b39190612dce565b6040518091039020145b156111fd5781600082815481106111d7576111d6612c9f565b5b906000526020600020906005020160040190805190602001906111fb9291906120e4565b505b808061120890612e14565b915050611075565b5050505050565b600080600090505b60018054905081101561133e578473ffffffffffffffffffffffffffffffffffffffff166001828154811061125757611256612c9f565b5b906000526020600020906006020160000160009054906101000a900473ffffffffffffffffffffffffffffffffffffffff1673ffffffffffffffffffffffffffffffffffffffff161480156112f8575083836040516020016112ba929190612e99565b60405160208183030381529060405280519060200120600182815481106112e4576112e3612c9f565b5b906000526020600020906006020160010154145b1561132b576001818154811061131157611310612c9f565b5b906000526020600020906006020160050154915050611340565b808061133690612e14565b91505061121f565b505b9392505050565b600260405180606001604052808573ffffffffffffffffffffffffffffffffffffffff1681526020018473ffffffffffffffffffffffffffffffffffffffff16815260200183815250908060018154018082558091505060019003906000526020600020906003020160009091909190915060008201518160000160006101000a81548173ffffffffffffffffffffffffffffffffffffffff021916908373ffffffffffffffffffffffffffffffffffffffff16021790555060208201518160010160006101000a81548173ffffffffffffffffffffffffffffffffffffffff021916908373ffffffffffffffffffffffffffffffffffffffff16021790555060408201518160020190805190602001906114639291906120e4565b505050505050565b6060806060806060600060018054905067ffffffffffffffff81111561149457611493612214565b5b6040519080825280602002602001820160405280156114c25781602001602082028036833780820191505090505b509050600060018054905067ffffffffffffffff8111156114e6576114e5612214565b5b60405190808252806020026020018201604052801561151957816020015b60608152602001906001900390816115045790505b509050600060018054905067ffffffffffffffff81111561153d5761153c612214565b5b60405190808252806020026020018201604052801561157057816020015b606081526020019060019003908161155b5790505b509050600060018054905067ffffffffffffffff81111561159457611593612214565b5b6040519080825280602002602001820160405280156115c757816020015b60608152602001906001900390816115b25790505b509050600060018054905067ffffffffffffffff8111156115eb576115ea612214565b5b6040519080825280602002602001820160405280156116195781602001602082028036833780820191505090505b50905060005b6001805490508110156119a7578b73ffffffffffffffffffffffffffffffffffffffff166001828154811061165757611656612c9f565b5b906000526020600020906006020160000160009054906101000a900473ffffffffffffffffffffffffffffffffffffffff1673ffffffffffffffffffffffffffffffffffffffff16141561199457600181815481106116b9576116b8612c9f565b5b9060005260206000209060060201600101548682815181106116de576116dd612c9f565b5b602002602001018181525050600181815481106116fe576116fd612c9f565b5b9060005260206000209060060201600201805461171a90612cfd565b80601f016020809104026020016040519081016040528092919081815260200182805461174690612cfd565b80156117935780601f1061176857610100808354040283529160200191611793565b820191906000526020600020905b81548152906001019060200180831161177657829003601f168201915b50505050508582815181106117ab576117aa612c9f565b5b6020026020010181905250600181815481106117ca576117c9612c9f565b5b906000526020600020906006020160030180546117e690612cfd565b80601f016020809104026020016040519081016040528092919081815260200182805461181290612cfd565b801561185f5780601f106118345761010080835404028352916020019161185f565b820191906000526020600020905b81548152906001019060200180831161184257829003601f168201915b505050505084828151811061187757611876612c9f565b5b60200260200101819052506001818154811061189657611895612c9f565b5b906000526020600020906006020160040180546118b290612cfd565b80601f01602080910402602001604051908101604052809291908181526020018280546118de90612cfd565b801561192b5780601f106119005761010080835404028352916020019161192b565b820191906000526020600020905b81548152906001019060200180831161190e57829003601f168201915b505050505083828151811061194357611942612c9f565b5b60200260200101819052506001818154811061196257611961612c9f565b5b90600052602060002090600602016005015482828151811061198757611986612c9f565b5b6020026020010181815250505b808061199f90612e14565b91505061161f565b50848484848499509950995099509950505050505091939590929450565b6000806000905060005b600080549050811015611a78578373ffffffffffffffffffffffffffffffffffffffff1660008281548110611a0757611a06612c9f565b5b906000526020600020906005020160010160009054906101000a900473ffffffffffffffffffffffffffffffffffffffff1673ffffffffffffffffffffffffffffffffffffffff161415611a6557600182611a629190612ebd565b91505b8080611a7090612e14565b9150506119cf565b5080915050919050565b60006040518060a001604052808673ffffffffffffffffffffffffffffffffffffffff1681526020018573ffffffffffffffffffffffffffffffffffffffff1681526020018481526020018381526020016040518060400160405280600981526020017f53637265656e696e670000000000000000000000000000000000000000000000815250815250908060018154018082558091505060019003906000526020600020906005020160009091909190915060008201518160000160006101000a81548173ffffffffffffffffffffffffffffffffffffffff021916908373ffffffffffffffffffffffffffffffffffffffff16021790555060208201518160010160006101000a81548173ffffffffffffffffffffffffffffffffffffffff021916908373ffffffffffffffffffffffffffffffffffffffff1602179055506040820151816002019080519060200190611bdf9291906120e4565b506060820151816003019080519060200190611bfc9291906120e4565b506080820151816004019080519060200190611c199291906120e4565b50505050505050565b60028181548110611c3257600080fd5b90600052602060002090600302016000915090508060000160009054906101000a900473ffffffffffffffffffffffffffffffffffffffff16908060010160009054906101000a900473ffffffffffffffffffffffffffffffffffffffff1690806002018054611ca190612cfd565b80601f0160208091040260200160405190810160405280929190818152602001828054611ccd90612cfd565b8015611d1a5780601f10611cef57610100808354040283529160200191611d1a565b820191906000526020600020905b815481529060010190602001808311611cfd57829003601f168201915b5050505050905083565b600080606060005b600280549050811015611f8a578473ffffffffffffffffffffffffffffffffffffffff1660028281548110611d6457611d63612c9f565b5b906000526020600020906003020160010160009054906101000a900473ffffffffffffffffffffffffffffffffffffffff1673ffffffffffffffffffffffffffffffffffffffff16148015611e2957508573ffffffffffffffffffffffffffffffffffffffff1660028281548110611ddf57611dde612c9f565b5b906000526020600020906003020160000160009054906101000a900473ffffffffffffffffffffffffffffffffffffffff1673ffffffffffffffffffffffffffffffffffffffff16145b15611f775760028181548110611e4257611e41612c9f565b5b906000526020600020906003020160000160009054906101000a900473ffffffffffffffffffffffffffffffffffffffff1660028281548110611e8857611e87612c9f565b5b906000526020600020906003020160010160009054906101000a900473ffffffffffffffffffffffffffffffffffffffff1660028381548110611ece57611ecd612c9f565b5b9060005260206000209060030201600201808054611eeb90612cfd565b80601f0160208091040260200160405190810160405280929190818152602001828054611f1790612cfd565b8015611f645780601f10611f3957610100808354040283529160200191611f64565b820191906000526020600020905b815481529060010190602001808311611f4757829003601f168201915b5050505050905093509350935050611f8c565b8080611f8290612e14565b915050611d2c565b505b9250925092565b60016040518060c001604052808773ffffffffffffffffffffffffffffffffffffffff1681526020018685604051602001611fcf929190612e99565b60405160208183030381529060405280519060200120815260200186815260200185815260200184815260200183815250908060018154018082558091505060019003906000526020600020906006020160009091909190915060008201518160000160006101000a81548173ffffffffffffffffffffffffffffffffffffffff021916908373ffffffffffffffffffffffffffffffffffffffff1602179055506020820151816001015560408201518160020190805190602001906120969291906120e4565b5060608201518160030190805190602001906120b39291906120e4565b5060808201518160040190805190602001906120d09291906120e4565b5060a0820151816005015550505050505050565b8280546120f090612cfd565b90600052602060002090601f0160209004810192826121125760008555612159565b82601f1061212b57805160ff1916838001178555612159565b82800160010185558215612159579182015b8281111561215857825182559160200191906001019061213d565b5b509050612166919061216a565b5090565b5b8082111561218357600081600090555060010161216b565b5090565b6000604051905090565b600080fd5b600080fd5b600073ffffffffffffffffffffffffffffffffffffffff82169050919050565b60006121c68261219b565b9050919050565b6121d6816121bb565b81146121e157600080fd5b50565b6000813590506121f3816121cd565b92915050565b600080fd5b600080fd5b6000601f19601f8301169050919050565b7f4e487b7100000000000000000000000000000000000000000000000000000000600052604160045260246000fd5b61224c82612203565b810181811067ffffffffffffffff8211171561226b5761226a612214565b5b80604052505050565b600061227e612187565b905061228a8282612243565b919050565b600067ffffffffffffffff8211156122aa576122a9612214565b5b6122b382612203565b9050602081019050919050565b82818337600083830152505050565b60006122e26122dd8461228f565b612274565b9050828152602081018484840111156122fe576122fd6121fe565b5b6123098482856122c0565b509392505050565b600082601f830112612326576123256121f9565b5b81356123368482602086016122cf565b91505092915050565b6000806000806080858703121561235957612358612191565b5b6000612367878288016121e4565b9450506020612378878288016121e4565b935050604085013567ffffffffffffffff81111561239957612398612196565b5b6123a587828801612311565b925050606085013567ffffffffffffffff8111156123c6576123c5612196565b5b6123d287828801612311565b91505092959194509250565b6000806000606084860312156123f7576123f6612191565b5b6000612405868287016121e4565b9350506020612416868287016121e4565b925050604084013567ffffffffffffffff81111561243757612436612196565b5b61244386828701612311565b9150509250925092565b6000819050919050565b6124608161244d565b82525050565b600060208201905061247b6000830184612457565b92915050565b61248a8161244d565b811461249557600080fd5b50565b6000813590506124a781612481565b92915050565b6000602082840312156124c3576124c2612191565b5b60006124d184828501612498565b91505092915050565b6124e3816121bb565b82525050565b6000819050919050565b6124fc816124e9565b82525050565b600081519050919050565b600082825260208201905092915050565b60005b8381101561253c578082015181840152602081019050612521565b8381111561254b576000848401525b50505050565b600061255c82612502565b612566818561250d565b935061257681856020860161251e565b61257f81612203565b840191505092915050565b600060c08201905061259f60008301896124da565b6125ac60208301886124f3565b81810360408301526125be8187612551565b905081810360608301526125d28186612551565b905081810360808301526125e68185612551565b90506125f560a0830184612457565b979650505050505050565b60006020828403121561261657612615612191565b5b6000612624848285016121e4565b91505092915050565b600081519050919050565b600082825260208201905092915050565b6000819050602082019050919050565b612662816121bb565b82525050565b60006126748383612659565b60208301905092915050565b6000602082019050919050565b60006126988261262d565b6126a28185612638565b93506126ad83612649565b8060005b838110156126de5781516126c58882612668565b97506126d083612680565b9250506001810190506126b1565b5085935050505092915050565b600081519050919050565b600082825260208201905092915050565b6000819050602082019050919050565b600082825260208201905092915050565b600061273382612502565b61273d8185612717565b935061274d81856020860161251e565b61275681612203565b840191505092915050565b600061276d8383612728565b905092915050565b6000602082019050919050565b600061278d826126eb565b61279781856126f6565b9350836020820285016127a985612707565b8060005b858110156127e557848403895281516127c68582612761565b94506127d183612775565b925060208a019950506001810190506127ad565b50829750879550505050505092915050565b600060a0820190508181036000830152612811818861268d565b90508181036020830152612825818761268d565b905081810360408301526128398186612782565b9050818103606083015261284d8185612782565b905081810360808301526128618184612782565b90509695505050505050565b600060a08201905061288260008301886124da565b61288f60208301876124da565b81810360408301526128a18186612551565b905081810360608301526128b58185612551565b905081810360808301526128c98184612551565b90509695505050505050565b6000806000606084860312156128ee576128ed612191565b5b60006128fc868287016121e4565b935050602084013567ffffffffffffffff81111561291d5761291c612196565b5b61292986828701612311565b925050604084013567ffffffffffffffff81111561294a57612949612196565b5b61295686828701612311565b9150509250925092565b600081519050919050565b600082825260208201905092915050565b6000819050602082019050919050565b612995816124e9565b82525050565b60006129a7838361298c565b60208301905092915050565b6000602082019050919050565b60006129cb82612960565b6129d5818561296b565b93506129e08361297c565b8060005b83811015612a115781516129f8888261299b565b9750612a03836129b3565b9250506001810190506129e4565b5085935050505092915050565b600081519050919050565b600082825260208201905092915050565b6000819050602082019050919050565b612a538161244d565b82525050565b6000612a658383612a4a565b60208301905092915050565b6000602082019050919050565b6000612a8982612a1e565b612a938185612a29565b9350612a9e83612a3a565b8060005b83811015612acf578151612ab68882612a59565b9750612ac183612a71565b925050600181019050612aa2565b5085935050505092915050565b600060a0820190508181036000830152612af681886129c0565b90508181036020830152612b0a8187612782565b90508181036040830152612b1e8186612782565b90508181036060830152612b328185612782565b90508181036080830152612b468184612a7e565b90509695505050505050565b6000606082019050612b6760008301866124da565b612b7460208301856124da565b8181036040830152612b868184612551565b9050949350505050565b60008060408385031215612ba757612ba6612191565b5b6000612bb5858286016121e4565b9250506020612bc6858286016121e4565b9150509250929050565b600080600080600060a08688031215612bec57612beb612191565b5b6000612bfa888289016121e4565b955050602086013567ffffffffffffffff811115612c1b57612c1a612196565b5b612c2788828901612311565b945050604086013567ffffffffffffffff811115612c4857612c47612196565b5b612c5488828901612311565b935050606086013567ffffffffffffffff811115612c7557612c74612196565b5b612c8188828901612311565b9250506080612c9288828901612498565b9150509295509295909350565b7f4e487b7100000000000000000000000000000000000000000000000000000000600052603260045260246000fd5b7f4e487b7100000000000000000000000000000000000000000000000000000000600052602260045260246000fd5b60006002820490506001821680612d1557607f821691505b60208210811415612d2957612d28612cce565b5b50919050565b600081905092915050565b60008190508160005260206000209050919050565b60008154612d5c81612cfd565b612d668186612d2f565b94506001821660008114612d815760018114612d9257612dc5565b60ff19831686528186019350612dc5565b612d9b85612d3a565b60005b83811015612dbd57815481890152600182019150602081019050612d9e565b838801955050505b50505092915050565b6000612dda8284612d4f565b915081905092915050565b7f4e487b7100000000000000000000000000000000000000000000000000000000600052601160045260246000fd5b6000612e1f8261244d565b91507fffffffffffffffffffffffffffffffffffffffffffffffffffffffffffffffff821415612e5257612e51612de5565b5b600182019050919050565b600081905092915050565b6000612e7382612502565b612e7d8185612e5d565b9350612e8d81856020860161251e565b80840191505092915050565b6000612ea58285612e68565b9150612eb18284612e68565b91508190509392505050565b6000612ec88261244d565b9150612ed38361244d565b9250827fffffffffffffffffffffffffffffffffffffffffffffffffffffffffffffffff03821115612f0857612f07612de5565b5b82820190509291505056fea264697066735822122068aa446e0a6dd2f15e350182de69e7b934713a4462984fc4897ac8e5ea6347b864736f6c634300080b0033",
  "immutableReferences": {},
  "source": "// SPDX-License-Identifier: MIT\r\npragma solidity >=0.4.22 <0.9.0;\r\n\r\n// Import cc contract cn thit  s dng\r\nimport \"./SmartCV_ListStudent.sol\";\r\nimport \"./SmartCV_ListBusiness.sol\";\r\nimport \"./SmartCV_ListIIG.sol\";\r\nimport \"./SmartCV_Apply.sol\";\r\n\r\n// CV dnh cho sinh vin\r\ncontract StudentBusiness {\r\n\r\n    // Khai contract  import  s dng cc function  contract \r\n    ListStudent listStudent = new ListStudent();\r\n    ListBusiness listBusiness = new ListBusiness();\r\n    ListIIG listIIG = new ListIIG();\r\n    ApplyCV applyCV = new ApplyCV();\r\n\r\n    // ======================================\r\n    // ====== Chc nng cho sinh vin =======\r\n    // ======================================\r\n\r\n    // Chc nng thm thng tin sinh vin (ng k)\r\n    function addStudentProfile (\r\n        address _studentOwner,\r\n        string memory _name,\r\n        string memory _phoneNumber,\r\n        string memory _professionalTitle,\r\n        string memory _email,\r\n        string memory _github,\r\n        string memory _linkedin,\r\n        string memory _sourceImage,\r\n        string memory _password) public {\r\n            listStudent.addSV(_studentOwner, \r\n                                _name, \r\n                                _phoneNumber, \r\n                                _professionalTitle, \r\n                                _email, \r\n                                _github, \r\n                                _linkedin,\r\n                                _sourceImage,\r\n                                _password);\r\n    }\r\n\r\n    // Chc nng chnh thng tin sinh vin\r\n    function editStudentProfile (\r\n        address _studentOwner,\r\n        string memory _name,\r\n        string memory _phoneNumber,\r\n        string memory _professionalTitle,\r\n        string memory _email,\r\n        string memory _github,\r\n        string memory _linkedin,\r\n        string memory _sourceImage) public {\r\n            listStudent.editSV(_studentOwner,\r\n                                _name, \r\n                                _phoneNumber, \r\n                                _professionalTitle, \r\n                                _email, \r\n                                _github, \r\n                                _linkedin,\r\n                                _sourceImage);\r\n    }\r\n\r\n    // Chc nng ly thng tin ca sinh vin\r\n    function getStudentProfile(address _studentOwner) public view returns(\r\n        address studentOwner, \r\n        string memory name, \r\n        string memory phoneNumber, \r\n        string memory professionalTitle, \r\n        string memory email, \r\n        string memory github, \r\n        string memory linkedin,\r\n        string memory sourceImage,\r\n        string memory password) {\r\n            return listStudent.getProfile(_studentOwner);\r\n    }\r\n\r\n    // Chc nng kim tra ti khon sinh vin c tn ti hay khng? (ng nhp)\r\n    function checkStudentProfile(\r\n        address _studentOwner, \r\n        string memory _password) public view returns(uint x) {\r\n            return listStudent.checkSV(_studentOwner, _password);\r\n    }\r\n\r\n    // Chc nng kim tra a ch sinh vin c tn ti hay khng?\r\n    function checkExistStudent(address _studentOwner) public view returns(uint x) {\r\n            return listStudent.checkExistSV(_studentOwner);\r\n    }\r\n\r\n    // Chc nng thm thng tin k nng ca sinh vin\r\n    function addStudentSkill(\r\n        address _studentOwner,\r\n        string memory _title, \r\n        uint _level) public {\r\n            listStudent.addSkill(_studentOwner, \r\n                                _title, \r\n                                _level);\r\n    }\r\n\r\n    // Chc nng chnh sa thng tin k nng ca sinh vin\r\n    function editStudentSkill(\r\n        address _studentOwner,\r\n        string memory _title, \r\n        uint _level) public {\r\n            listStudent.editSkill(_studentOwner, \r\n                                _title, \r\n                                _level);\r\n    }\r\n\r\n    // Chc nng kim tra k nng ca sinh vin c tn ti hay khng?\r\n    function checkStudentSkill(\r\n        address _studentOwner,\r\n        string memory _title) public view returns(uint x) {\r\n            return listStudent.checkSkill(_studentOwner, _title);\r\n    }\r\n\r\n    // Chc nng kim tra s lng k nng ca sinh vin\r\n    function checkNumStudentSkill(address _studentOwner) public view returns(uint x) {\r\n            uint _count = listStudent.checkNumSkill(_studentOwner);\r\n            if(_count > 10){\r\n                return 1;\r\n            }\r\n    }\r\n\r\n    // Chc nng ly thng tin k nng ca sinh vin\r\n    function getStudentSkill(address _studentOwner) public view returns(\r\n        string[] memory titles,\r\n        uint[] memory levels) {\r\n        return listStudent.getSkill(_studentOwner);\r\n    }\r\n\r\n    // Chc nng thm thng tin hc vn ca sinh vin\r\n    function addStudentEducation(\r\n        address _studentOwner,\r\n        string memory _institution,\r\n        string memory _focusArea, \r\n        string memory _startTime,\r\n        string memory _finishTime,\r\n        string memory _gpa) public {\r\n            listStudent.addEducation(_studentOwner, \r\n                                    _institution, \r\n                                    _focusArea,\r\n                                    _startTime,\r\n                                    _finishTime,\r\n                                    _gpa);\r\n    }\r\n\r\n    // Chc nng chnh sa thng tin hc vn ca sinh vin\r\n    function editStudentEducation(\r\n        address _studentOwner,\r\n        string memory _institution,\r\n        string memory _focusArea, \r\n        string memory _startTime,\r\n        string memory _finishTime,\r\n        string memory _gpa) public {\r\n            listStudent.editEducation(_studentOwner, \r\n                                    _institution, \r\n                                    _focusArea,\r\n                                    _startTime,\r\n                                    _finishTime,\r\n                                    _gpa);\r\n    }\r\n\r\n    // Chc nng kim tra sinh vin  thm hc vn  hay cha?\r\n    function checkStudentEducation(\r\n        address _studentOwner, \r\n        string memory _institution,\r\n        string memory _focusArea) public view returns(uint x) {\r\n            return listStudent.checkEducation(_studentOwner,\r\n                                            _institution,\r\n                                            _focusArea);\r\n    }\r\n\r\n    // Chc nng ly thng tin hc vn ca sinh vin\r\n    function getStudentEducation(address _studentOwner) public view returns(\r\n        string[] memory,\r\n        string[] memory,\r\n        string[] memory,\r\n        string[] memory,\r\n        string[] memory) {\r\n            return listStudent.getEducation(_studentOwner);\r\n    }\r\n\r\n    // Chc nng ly danh sch doanh nghip\r\n    function getListBusiness() public view returns(\r\n        address[] memory,\r\n        string[] memory,\r\n        string[] memory,\r\n        string[] memory,\r\n        string[] memory,\r\n        string[] memory,\r\n        string[] memory,\r\n        string[] memory) {\r\n        return listBusiness.getListDN();\r\n    }\r\n\r\n    // Chc nng ly thng tin tuyn dng ca doanh nghip\r\n    function getRecruit(address _businessOwner) public view returns(\r\n        bytes32[] memory,\r\n        string[] memory,\r\n        string[] memory,\r\n        string[] memory,\r\n        uint[] memory) {\r\n        return applyCV.getRecruit(_businessOwner);\r\n    }\r\n\r\n    // Chc nng gi CV ti doanh nghip\r\n    function sendCV(\r\n        address _studentOwner, \r\n        address _businessOwner, \r\n        string memory _jobTitle, \r\n        string memory _coverLetter) public {\r\n            applyCV.addCV(_studentOwner, \r\n                        _businessOwner, \r\n                        _jobTitle, \r\n                        _coverLetter);\r\n    }\r\n\r\n    // Chc nng kim tra sinh vin  np CV cha?\r\n    function checkCV(\r\n        address _studentOwner, \r\n        address _businessOwner, \r\n        string memory _jobTitle) public view returns(uint x) {\r\n            return applyCV.checkCV(_studentOwner, \r\n                                    _businessOwner, \r\n                                    _jobTitle);\r\n    }\r\n\r\n    // Chc nng xem nh gi thc tp ca doanh nghip\r\n    function getReview(\r\n        address _studentOwner, \r\n        address _businessOwner) public view returns(\r\n            address studentOwner, \r\n            address businessOwner, \r\n            string memory content) {\r\n                return applyCV.getReview(_studentOwner, _businessOwner);\r\n    }\r\n\r\n    // ======================================\r\n    // ===== Chc nng cho doanh nghip =====\r\n    // ======================================\r\n\r\n    // Chc nng thm thng tin doanh nghip (ng k)\r\n    function addBusinessProfile(\r\n        address _businessOwner,\r\n        string memory _name,\r\n        string memory _country,\r\n        string memory _facebook,\r\n        string memory _website,\r\n        string memory _linkedin,\r\n        string memory _focusArea,\r\n        string memory _password) public {\r\n            listBusiness.addDN(_businessOwner, \r\n                                _name, \r\n                                _country, \r\n                                _facebook, \r\n                                _website, \r\n                                _linkedin, \r\n                                _focusArea, \r\n                                _password);\r\n    }\r\n\r\n    // Chc nng chnh sa thng tin doanh nghip\r\n    function editBusinessProfile(\r\n        address _businessOwner,\r\n        string memory _name,\r\n        string memory _country,\r\n        string memory _facebook,\r\n        string memory _website,\r\n        string memory _linkedin,\r\n        string memory _focusArea) public {\r\n            listBusiness.editDN(_businessOwner, \r\n                                _name, \r\n                                _country, \r\n                                _facebook, \r\n                                _website, \r\n                                _linkedin, \r\n                                _focusArea);\r\n    }\r\n\r\n    // Chc nng ly thng tin ca doanh nghip\r\n    function getBusinessProfile(address _businessOwner) public view returns(\r\n        address businessOwner, \r\n        string memory name, \r\n        string memory country, \r\n        string memory facebook, \r\n        string memory website, \r\n        string memory linkedin, \r\n        string memory focusArea) {\r\n            return listBusiness.getProfile(_businessOwner);\r\n    }\r\n\r\n    // Chc nng kim tra ti khon doanh nghip c tn ti hay khng? (ng nhp)\r\n    function checkBusinessProfile(\r\n        address _businessOwner, \r\n        string memory _password) public view returns(uint) {\r\n            return listBusiness.checkDN(_businessOwner, _password);\r\n    }\r\n\r\n    // Chc nng kim tra a ch doanh nghip c tn ti hay khng?\r\n    function checkExistBusiness(address _businessOwner) public view returns(uint x) {\r\n            return listBusiness.checkExistDN(_businessOwner);\r\n    }\r\n\r\n    // Chc nng ly danh sch CV  np vo doanh nghip\r\n    function getListCV(address _businessOwner) public view returns(\r\n        address[] memory, \r\n        address[] memory, \r\n        string[] memory, \r\n        string[] memory,\r\n        string[] memory) {\r\n            return applyCV.getCV(_businessOwner);\r\n    }\r\n    \r\n    //Chc nng duyt CV vo vng interview\r\n    function interviewCV(\r\n        address _studentOwner, \r\n        address _businessOwner, \r\n        string memory _jobTitle,\r\n        string memory _statusCV) public {\r\n            applyCV.interviewCV(_studentOwner, \r\n                                _businessOwner, \r\n                                _jobTitle, \r\n                                _statusCV);\r\n    }\r\n\r\n    //Chc nng duyt CV vo vng onboard\r\n    function onboardCV(\r\n        address _studentOwner, \r\n        address _businessOwner, \r\n        string memory _jobTitle,\r\n        string memory _statusCV) public {\r\n            applyCV.onboardCV(_studentOwner, \r\n                            _businessOwner, \r\n                            _jobTitle, \r\n                            _statusCV);\r\n    }\r\n\r\n    // Chc nng thm thng tin tuyn dng ca doanh nghip\r\n    function addRecruit(\r\n        address _businessOwner,\r\n        string memory _jobTitle,\r\n        string memory _jobDescription,\r\n        string memory _recruitDate,\r\n        uint _amount) public {\r\n            applyCV.addRecruit(_businessOwner, \r\n                                _jobTitle, \r\n                                _jobDescription,\r\n                                _recruitDate,\r\n                                _amount);\r\n    }\r\n\r\n    // Chc nng kim tra s lng tuyn dng   hay cha?\r\n    function checkAmountBusinessRecruit(\r\n        address _businessOwner,\r\n        string memory _jobTitle,\r\n        string memory _recruitDate) public view returns(uint x) {\r\n            uint numCV = applyCV.checkNumCV(_businessOwner);\r\n            uint amountRecuit = applyCV.checkAmountRecruit(_businessOwner, _jobTitle, _recruitDate);\r\n            if(numCV > amountRecuit){\r\n                return 1;\r\n            }\r\n    }\r\n\r\n    // Chc nng nh gi thc tp cho sinh vin\r\n    function sendReview(\r\n        address _studentOwner, \r\n        address _businessOwner, \r\n        string memory _content) public {\r\n            applyCV.addReview(_studentOwner, \r\n                            _businessOwner, \r\n                            _content);\r\n    }\r\n\r\n    // ======================================\r\n    // ========= Chc nng cho IIG ==========\r\n    // ======================================\r\n\r\n    // Chc nng thm thng tin IIG (ng k)\r\n    function addIIGProfile(\r\n        address _iigOwner,\r\n        string memory _name,\r\n        string memory _country,\r\n        string memory _facebook,\r\n        string memory _website,\r\n        string memory _linkedin,\r\n        string memory _password) public {\r\n            listIIG.addIIG(_iigOwner, \r\n                            _name, \r\n                            _country, \r\n                            _facebook, \r\n                            _website, \r\n                            _linkedin, \r\n                            _password);\r\n    }\r\n\r\n    // Chc nng chnh sa thng tin IIG\r\n    function editIIGProfile(\r\n        address _iigOwner,\r\n        string memory _name,\r\n        string memory _country,\r\n        string memory _facebook,\r\n        string memory _website,\r\n        string memory _linkedin) public {\r\n            listIIG.editIIG(_iigOwner, \r\n                            _name, \r\n                            _country, \r\n                            _facebook, \r\n                            _website, \r\n                            _linkedin);\r\n    }\r\n\r\n    // Chc nng ly danh sch IIG\r\n    function getListIIG() public view returns(\r\n        address[] memory,\r\n        string[] memory,\r\n        string[] memory,\r\n        string[] memory,\r\n        string[] memory,\r\n        string[] memory,\r\n        string[] memory) {\r\n            return listIIG.getListIIG();\r\n    }\r\n\r\n    // Chc nng ly thng tin ca IIG\r\n    function getIIGProfile(address _iigOwner) public view returns(\r\n        address iigOwner,\r\n        string memory name,\r\n        string memory country,\r\n        string memory facebook,\r\n        string memory website,\r\n        string memory linkedin) {\r\n            return listIIG.getProfile(_iigOwner);\r\n    }\r\n\r\n    // Chc nng kim tra ti khon IIG c tn ti hay khng? (ng nhp)\r\n    function checkIIGProfile(\r\n        address _iigOwner, \r\n        string memory _password) public view returns(uint) {\r\n            return listIIG.checkIIG(_iigOwner, _password);\r\n    }\r\n\r\n    // Chc nng kim tra a ch IIG c tn ti hay khng?\r\n    function checkExistIIG(address _iigOwner) public view returns(uint x) {\r\n            return listIIG.checkExistIIG(_iigOwner);\r\n    }\r\n\r\n    // Chc nng gi thng tin yu cu chng ch IIG\r\n    function sendIIGRequest (\r\n        address _studentOwner,\r\n        address _iigOwner,\r\n        string memory _identityCard,\r\n        string memory _requestDate) public {\r\n            listIIG.addRequest(_studentOwner, \r\n                            _iigOwner,\r\n                            _identityCard,\r\n                            _requestDate);\r\n    }\r\n\r\n    // Chc nng ly danh sch yu cu chng ch IIG\r\n    function getListIIGRequest(address _iigOwner) public view returns(\r\n        bytes4[] memory,\r\n        address[] memory, \r\n        address[] memory, \r\n        string[] memory,\r\n        string[] memory,\r\n        string[] memory) {\r\n            return listIIG.getListRequest(_iigOwner);\r\n    }\r\n\r\n    // Chc nng ly danh sch yu cu chng ch IIG theo sinh vin\r\n    function getListIIGRequestStudent(address _iigOwner, address _studentOwner) public view returns(\r\n        bytes4[] memory,\r\n        address[] memory, \r\n        address[] memory,\r\n        string[] memory,\r\n        string[] memory,\r\n        string[] memory) {\r\n            return listIIG.getListRequestStudent(_iigOwner, _studentOwner);\r\n    }\r\n\r\n    //Chc nng duyt yu cu chng ch IIG\r\n    function confirmIIGRequest(\r\n        address _studentOwner, \r\n        address _iigOwner, \r\n        bytes4 _codeRequest,\r\n        string memory _statusRequest) public {\r\n            listIIG.confirmRequest(_studentOwner,\r\n                                    _iigOwner,\r\n                                    _codeRequest,\r\n                                    _statusRequest);\r\n    }\r\n\r\n    // Chc nng nhp thng tin im thi Listening - Reading\r\n    function addIIGLRResult (\r\n        address _studentOwner,\r\n        string memory _testDate,\r\n        string memory _shiftTest,\r\n        string memory _expireDate,\r\n        uint _listeningScore,\r\n        uint _readingScore) public {\r\n            listIIG.addLRResult(_studentOwner, \r\n                                _testDate,\r\n                                _shiftTest, \r\n                                _expireDate, \r\n                                _listeningScore, \r\n                                _readingScore);\r\n    }\r\n\r\n    // Chc nng nhp thng tin im thi Speaking - Writing\r\n    function addIIGSWResult (\r\n        address _studentOwner,\r\n        string memory _testDate,\r\n        string memory _shiftTest,\r\n        string memory _expireDate,\r\n        uint _speakingScore,\r\n        uint _writingScore) public {\r\n            listIIG.addSWResult(_studentOwner, \r\n                                _testDate,\r\n                                _shiftTest,\r\n                                _expireDate, \r\n                                _speakingScore, \r\n                                _writingScore);\r\n    }\r\n\r\n    //Chc nng ly thng tin im thi Listening - Reading\r\n    function getListIIGLRResult(address _iigOwner, address _studentOwner) public view returns(\r\n        string[] memory,\r\n        string[] memory,\r\n        string[] memory,\r\n        uint[] memory,\r\n        uint[] memory,\r\n        uint[] memory) {\r\n            return listIIG.getListLRResult(_iigOwner, _studentOwner);\r\n    }\r\n\r\n    //Chc nng ly thng tin im thi Speaking - Writing\r\n    function getListIIGSWResult(address _iigOwner, address _studentOwner) public view returns(\r\n        string[] memory,\r\n        string[] memory,\r\n        string[] memory,\r\n        uint[] memory,\r\n        uint[] memory,\r\n        uint[] memory) {\r\n            return listIIG.getListSWResult(_iigOwner, _studentOwner);\r\n    }\r\n\r\n    // Chc nng ly im thi Listening - Reading ca sinh vin\r\n    function getIIGLRResult(\r\n        address _iigOwner, \r\n        address _studentOwner,\r\n        string memory _testDate,\r\n        string memory _shiftTest) public view returns(\r\n            string memory testDate,\r\n            string memory shiftTest,\r\n            string memory expireDate,\r\n            uint listeningScore,\r\n            uint readingScore,\r\n            uint totalScore) {\r\n                return listIIG.getLRResult(_iigOwner,\r\n                                            _studentOwner,\r\n                                            _testDate,\r\n                                            _shiftTest);\r\n    }\r\n\r\n    // Chc nng ly im thi Speaking - Writing ca sinh vin\r\n    function getIIGSWResult(\r\n        address _iigOwner, \r\n        address _studentOwner,\r\n        string memory _testDate,\r\n        string memory _shiftTest) public view returns(\r\n            string memory testDate,\r\n            string memory shiftTest,\r\n            string memory expireDate,\r\n            uint speakingScore,\r\n            uint writingScore,\r\n            uint totalScore) {\r\n                return listIIG.getSWResult(_iigOwner,\r\n                                            _studentOwner,\r\n                                            _testDate,\r\n                                            _shiftTest);\r\n    }\r\n}",
  "sourcePath": "C:\\Users\\19520\\Documents\\NCKH_Blockchain\\SolidityProgramming\\ProjectResearch\\SmartCV\\SmartContract\\contracts\\SmartCV_StudentBusiness.sol",
  "compiler": {
    "name": "solc",
    "version": "0.8.11+commit.d7f03943.Emscripten.clang"
  },
  "schemaVersion": "3.4.4",
  "updatedAt": "2022-07-30T05:15:23.273Z",
  "devdoc": {
    "kind": "dev",
    "methods": {},
    "version": 1
  },
  "userdoc": {
    "kind": "user",
    "methods": {},
    "version": 1
  }
}