{
  "contractName": "StudentBusiness",
  "abi": [
    {
      "inputs": [
        {
          "internalType": "address",
          "name": "_studentOwner",
          "type": "address"
        },
        {
          "internalType": "string",
          "name": "_name",
          "type": "string"
        },
        {
          "internalType": "string",
          "name": "_phoneNumber",
          "type": "string"
        },
        {
          "internalType": "string",
          "name": "_professionalTitle",
          "type": "string"
        },
        {
          "internalType": "string",
          "name": "_email",
          "type": "string"
        },
        {
          "internalType": "string",
          "name": "_github",
          "type": "string"
        },
        {
          "internalType": "string",
          "name": "_linkedin",
          "type": "string"
        },
        {
          "internalType": "string",
          "name": "_sourceImage",
          "type": "string"
        },
        {
          "internalType": "string",
          "name": "_password",
          "type": "string"
        }
      ],
      "name": "addStudentProfile",
      "outputs": [],
      "stateMutability": "nonpayable",
      "type": "function"
    },
    {
      "inputs": [
        {
          "internalType": "address",
          "name": "_studentOwner",
          "type": "address"
        },
        {
          "internalType": "string",
          "name": "_name",
          "type": "string"
        },
        {
          "internalType": "string",
          "name": "_phoneNumber",
          "type": "string"
        },
        {
          "internalType": "string",
          "name": "_professionalTitle",
          "type": "string"
        },
        {
          "internalType": "string",
          "name": "_email",
          "type": "string"
        },
        {
          "internalType": "string",
          "name": "_github",
          "type": "string"
        },
        {
          "internalType": "string",
          "name": "_linkedin",
          "type": "string"
        },
        {
          "internalType": "string",
          "name": "_sourceImage",
          "type": "string"
        }
      ],
      "name": "editStudentProfile",
      "outputs": [],
      "stateMutability": "nonpayable",
      "type": "function"
    },
    {
      "inputs": [
        {
          "internalType": "address",
          "name": "_studentOwner",
          "type": "address"
        }
      ],
      "name": "getStudentProfile",
      "outputs": [
        {
          "internalType": "address",
          "name": "studentOwner",
          "type": "address"
        },
        {
          "internalType": "string",
          "name": "name",
          "type": "string"
        },
        {
          "internalType": "string",
          "name": "phoneNumber",
          "type": "string"
        },
        {
          "internalType": "string",
          "name": "professionalTitle",
          "type": "string"
        },
        {
          "internalType": "string",
          "name": "email",
          "type": "string"
        },
        {
          "internalType": "string",
          "name": "github",
          "type": "string"
        },
        {
          "internalType": "string",
          "name": "linkedin",
          "type": "string"
        },
        {
          "internalType": "string",
          "name": "sourceImage",
          "type": "string"
        },
        {
          "internalType": "string",
          "name": "password",
          "type": "string"
        }
      ],
      "stateMutability": "view",
      "type": "function"
    },
    {
      "inputs": [
        {
          "internalType": "address",
          "name": "_studentOwner",
          "type": "address"
        },
        {
          "internalType": "string",
          "name": "_password",
          "type": "string"
        }
      ],
      "name": "checkStudentProfile",
      "outputs": [
        {
          "internalType": "uint256",
          "name": "x",
          "type": "uint256"
        }
      ],
      "stateMutability": "view",
      "type": "function"
    },
    {
      "inputs": [
        {
          "internalType": "address",
          "name": "_studentOwner",
          "type": "address"
        }
      ],
      "name": "checkExistStudent",
      "outputs": [
        {
          "internalType": "uint256",
          "name": "x",
          "type": "uint256"
        }
      ],
      "stateMutability": "view",
      "type": "function"
    },
    {
      "inputs": [
        {
          "internalType": "address",
          "name": "_studentOwner",
          "type": "address"
        },
        {
          "internalType": "string",
          "name": "_title",
          "type": "string"
        },
        {
          "internalType": "uint256",
          "name": "_level",
          "type": "uint256"
        }
      ],
      "name": "addStudentSkill",
      "outputs": [],
      "stateMutability": "nonpayable",
      "type": "function"
    },
    {
      "inputs": [
        {
          "internalType": "address",
          "name": "_studentOwner",
          "type": "address"
        },
        {
          "internalType": "string",
          "name": "_title",
          "type": "string"
        },
        {
          "internalType": "uint256",
          "name": "_level",
          "type": "uint256"
        }
      ],
      "name": "editStudentSkill",
      "outputs": [],
      "stateMutability": "nonpayable",
      "type": "function"
    },
    {
      "inputs": [
        {
          "internalType": "address",
          "name": "_studentOwner",
          "type": "address"
        },
        {
          "internalType": "string",
          "name": "_title",
          "type": "string"
        }
      ],
      "name": "checkStudentSkill",
      "outputs": [
        {
          "internalType": "uint256",
          "name": "x",
          "type": "uint256"
        }
      ],
      "stateMutability": "view",
      "type": "function"
    },
    {
      "inputs": [
        {
          "internalType": "address",
          "name": "_studentOwner",
          "type": "address"
        }
      ],
      "name": "checkNumStudentSkill",
      "outputs": [
        {
          "internalType": "uint256",
          "name": "x",
          "type": "uint256"
        }
      ],
      "stateMutability": "view",
      "type": "function"
    },
    {
      "inputs": [
        {
          "internalType": "address",
          "name": "_studentOwner",
          "type": "address"
        }
      ],
      "name": "getStudentSkill",
      "outputs": [
        {
          "internalType": "string[]",
          "name": "titles",
          "type": "string[]"
        },
        {
          "internalType": "uint256[]",
          "name": "levels",
          "type": "uint256[]"
        }
      ],
      "stateMutability": "view",
      "type": "function"
    },
    {
      "inputs": [
        {
          "internalType": "address",
          "name": "_studentOwner",
          "type": "address"
        },
        {
          "internalType": "string",
          "name": "_institution",
          "type": "string"
        },
        {
          "internalType": "string",
          "name": "_focusArea",
          "type": "string"
        },
        {
          "internalType": "string",
          "name": "_startTime",
          "type": "string"
        },
        {
          "internalType": "string",
          "name": "_finishTime",
          "type": "string"
        },
        {
          "internalType": "string",
          "name": "_gpa",
          "type": "string"
        }
      ],
      "name": "addStudentEducation",
      "outputs": [],
      "stateMutability": "nonpayable",
      "type": "function"
    },
    {
      "inputs": [
        {
          "internalType": "address",
          "name": "_studentOwner",
          "type": "address"
        },
        {
          "internalType": "string",
          "name": "_institution",
          "type": "string"
        },
        {
          "internalType": "string",
          "name": "_focusArea",
          "type": "string"
        },
        {
          "internalType": "string",
          "name": "_startTime",
          "type": "string"
        },
        {
          "internalType": "string",
          "name": "_finishTime",
          "type": "string"
        },
        {
          "internalType": "string",
          "name": "_gpa",
          "type": "string"
        }
      ],
      "name": "editStudentEducation",
      "outputs": [],
      "stateMutability": "nonpayable",
      "type": "function"
    },
    {
      "inputs": [
        {
          "internalType": "address",
          "name": "_studentOwner",
          "type": "address"
        },
        {
          "internalType": "string",
          "name": "_institution",
          "type": "string"
        },
        {
          "internalType": "string",
          "name": "_focusArea",
          "type": "string"
        }
      ],
      "name": "checkStudentEducation",
      "outputs": [
        {
          "internalType": "uint256",
          "name": "x",
          "type": "uint256"
        }
      ],
      "stateMutability": "view",
      "type": "function"
    },
    {
      "inputs": [
        {
          "internalType": "address",
          "name": "_studentOwner",
          "type": "address"
        }
      ],
      "name": "getStudentEducation",
      "outputs": [
        {
          "internalType": "string[]",
          "name": "",
          "type": "string[]"
        },
        {
          "internalType": "string[]",
          "name": "",
          "type": "string[]"
        },
        {
          "internalType": "string[]",
          "name": "",
          "type": "string[]"
        },
        {
          "internalType": "string[]",
          "name": "",
          "type": "string[]"
        },
        {
          "internalType": "string[]",
          "name": "",
          "type": "string[]"
        }
      ],
      "stateMutability": "view",
      "type": "function"
    },
    {
      "inputs": [],
      "name": "getListBusiness",
      "outputs": [
        {
          "internalType": "address[]",
          "name": "",
          "type": "address[]"
        },
        {
          "internalType": "string[]",
          "name": "",
          "type": "string[]"
        },
        {
          "internalType": "string[]",
          "name": "",
          "type": "string[]"
        },
        {
          "internalType": "string[]",
          "name": "",
          "type": "string[]"
        },
        {
          "internalType": "string[]",
          "name": "",
          "type": "string[]"
        },
        {
          "internalType": "string[]",
          "name": "",
          "type": "string[]"
        },
        {
          "internalType": "string[]",
          "name": "",
          "type": "string[]"
        },
        {
          "internalType": "string[]",
          "name": "",
          "type": "string[]"
        }
      ],
      "stateMutability": "view",
      "type": "function"
    },
    {
      "inputs": [
        {
          "internalType": "address",
          "name": "_businessOwner",
          "type": "address"
        }
      ],
      "name": "getRecruit",
      "outputs": [
        {
          "internalType": "bytes32[]",
          "name": "",
          "type": "bytes32[]"
        },
        {
          "internalType": "string[]",
          "name": "",
          "type": "string[]"
        },
        {
          "internalType": "string[]",
          "name": "",
          "type": "string[]"
        },
        {
          "internalType": "string[]",
          "name": "",
          "type": "string[]"
        },
        {
          "internalType": "uint256[]",
          "name": "",
          "type": "uint256[]"
        }
      ],
      "stateMutability": "view",
      "type": "function"
    },
    {
      "inputs": [
        {
          "internalType": "address",
          "name": "_studentOwner",
          "type": "address"
        },
        {
          "internalType": "address",
          "name": "_businessOwner",
          "type": "address"
        },
        {
          "internalType": "string",
          "name": "_jobTitle",
          "type": "string"
        },
        {
          "internalType": "string",
          "name": "_coverLetter",
          "type": "string"
        }
      ],
      "name": "sendCV",
      "outputs": [],
      "stateMutability": "nonpayable",
      "type": "function"
    },
    {
      "inputs": [
        {
          "internalType": "address",
          "name": "_studentOwner",
          "type": "address"
        },
        {
          "internalType": "address",
          "name": "_businessOwner",
          "type": "address"
        },
        {
          "internalType": "string",
          "name": "_jobTitle",
          "type": "string"
        }
      ],
      "name": "checkCV",
      "outputs": [
        {
          "internalType": "uint256",
          "name": "x",
          "type": "uint256"
        }
      ],
      "stateMutability": "view",
      "type": "function"
    },
    {
      "inputs": [
        {
          "internalType": "address",
          "name": "_studentOwner",
          "type": "address"
        },
        {
          "internalType": "address",
          "name": "_businessOwner",
          "type": "address"
        }
      ],
      "name": "getReview",
      "outputs": [
        {
          "internalType": "address",
          "name": "studentOwner",
          "type": "address"
        },
        {
          "internalType": "address",
          "name": "businessOwner",
          "type": "address"
        },
        {
          "internalType": "string",
          "name": "content",
          "type": "string"
        }
      ],
      "stateMutability": "view",
      "type": "function"
    },
    {
      "inputs": [
        {
          "internalType": "address",
          "name": "_businessOwner",
          "type": "address"
        },
        {
          "internalType": "string",
          "name": "_name",
          "type": "string"
        },
        {
          "internalType": "string",
          "name": "_country",
          "type": "string"
        },
        {
          "internalType": "string",
          "name": "_facebook",
          "type": "string"
        },
        {
          "internalType": "string",
          "name": "_website",
          "type": "string"
        },
        {
          "internalType": "string",
          "name": "_linkedin",
          "type": "string"
        },
        {
          "internalType": "string",
          "name": "_focusArea",
          "type": "string"
        },
        {
          "internalType": "string",
          "name": "_password",
          "type": "string"
        }
      ],
      "name": "addBusinessProfile",
      "outputs": [],
      "stateMutability": "nonpayable",
      "type": "function"
    },
    {
      "inputs": [
        {
          "internalType": "address",
          "name": "_businessOwner",
          "type": "address"
        },
        {
          "internalType": "string",
          "name": "_name",
          "type": "string"
        },
        {
          "internalType": "string",
          "name": "_country",
          "type": "string"
        },
        {
          "internalType": "string",
          "name": "_facebook",
          "type": "string"
        },
        {
          "internalType": "string",
          "name": "_website",
          "type": "string"
        },
        {
          "internalType": "string",
          "name": "_linkedin",
          "type": "string"
        },
        {
          "internalType": "string",
          "name": "_focusArea",
          "type": "string"
        }
      ],
      "name": "editBusinessProfile",
      "outputs": [],
      "stateMutability": "nonpayable",
      "type": "function"
    },
    {
      "inputs": [
        {
          "internalType": "address",
          "name": "_businessOwner",
          "type": "address"
        }
      ],
      "name": "getBusinessProfile",
      "outputs": [
        {
          "internalType": "address",
          "name": "businessOwner",
          "type": "address"
        },
        {
          "internalType": "string",
          "name": "name",
          "type": "string"
        },
        {
          "internalType": "string",
          "name": "country",
          "type": "string"
        },
        {
          "internalType": "string",
          "name": "facebook",
          "type": "string"
        },
        {
          "internalType": "string",
          "name": "website",
          "type": "string"
        },
        {
          "internalType": "string",
          "name": "linkedin",
          "type": "string"
        },
        {
          "internalType": "string",
          "name": "focusArea",
          "type": "string"
        }
      ],
      "stateMutability": "view",
      "type": "function"
    },
    {
      "inputs": [
        {
          "internalType": "address",
          "name": "_businessOwner",
          "type": "address"
        },
        {
          "internalType": "string",
          "name": "_password",
          "type": "string"
        }
      ],
      "name": "checkBusinessProfile",
      "outputs": [
        {
          "internalType": "uint256",
          "name": "",
          "type": "uint256"
        }
      ],
      "stateMutability": "view",
      "type": "function"
    },
    {
      "inputs": [
        {
          "internalType": "address",
          "name": "_businessOwner",
          "type": "address"
        }
      ],
      "name": "checkExistBusiness",
      "outputs": [
        {
          "internalType": "uint256",
          "name": "x",
          "type": "uint256"
        }
      ],
      "stateMutability": "view",
      "type": "function"
    },
    {
      "inputs": [
        {
          "internalType": "address",
          "name": "_businessOwner",
          "type": "address"
        }
      ],
      "name": "getListCV",
      "outputs": [
        {
          "internalType": "address[]",
          "name": "",
          "type": "address[]"
        },
        {
          "internalType": "address[]",
          "name": "",
          "type": "address[]"
        },
        {
          "internalType": "string[]",
          "name": "",
          "type": "string[]"
        },
        {
          "internalType": "string[]",
          "name": "",
          "type": "string[]"
        },
        {
          "internalType": "string[]",
          "name": "",
          "type": "string[]"
        }
      ],
      "stateMutability": "view",
      "type": "function"
    },
    {
      "inputs": [
        {
          "internalType": "address",
          "name": "_studentOwner",
          "type": "address"
        },
        {
          "internalType": "address",
          "name": "_businessOwner",
          "type": "address"
        },
        {
          "internalType": "string",
          "name": "_jobTitle",
          "type": "string"
        },
        {
          "internalType": "string",
          "name": "_statusCV",
          "type": "string"
        }
      ],
      "name": "interviewCV",
      "outputs": [],
      "stateMutability": "nonpayable",
      "type": "function"
    },
    {
      "inputs": [
        {
          "internalType": "address",
          "name": "_studentOwner",
          "type": "address"
        },
        {
          "internalType": "address",
          "name": "_businessOwner",
          "type": "address"
        },
        {
          "internalType": "string",
          "name": "_jobTitle",
          "type": "string"
        },
        {
          "internalType": "string",
          "name": "_statusCV",
          "type": "string"
        }
      ],
      "name": "onboardCV",
      "outputs": [],
      "stateMutability": "nonpayable",
      "type": "function"
    },
    {
      "inputs": [
        {
          "internalType": "address",
          "name": "_businessOwner",
          "type": "address"
        },
        {
          "internalType": "string",
          "name": "_jobTitle",
          "type": "string"
        },
        {
          "internalType": "string",
          "name": "_jobDescription",
          "type": "string"
        },
        {
          "internalType": "string",
          "name": "_recruitDate",
          "type": "string"
        },
        {
          "internalType": "uint256",
          "name": "_amount",
          "type": "uint256"
        }
      ],
      "name": "addRecruit",
      "outputs": [],
      "stateMutability": "nonpayable",
      "type": "function"
    },
    {
      "inputs": [
        {
          "internalType": "address",
          "name": "_businessOwner",
          "type": "address"
        },
        {
          "internalType": "string",
          "name": "_jobTitle",
          "type": "string"
        },
        {
          "internalType": "string",
          "name": "_recruitDate",
          "type": "string"
        }
      ],
      "name": "checkAmountBusinessRecruit",
      "outputs": [
        {
          "internalType": "uint256",
          "name": "x",
          "type": "uint256"
        }
      ],
      "stateMutability": "view",
      "type": "function"
    },
    {
      "inputs": [
        {
          "internalType": "address",
          "name": "_studentOwner",
          "type": "address"
        },
        {
          "internalType": "address",
          "name": "_businessOwner",
          "type": "address"
        },
        {
          "internalType": "string",
          "name": "_content",
          "type": "string"
        }
      ],
      "name": "sendReview",
      "outputs": [],
      "stateMutability": "nonpayable",
      "type": "function"
    },
    {
      "inputs": [
        {
          "internalType": "address",
          "name": "_iigOwner",
          "type": "address"
        },
        {
          "internalType": "string",
          "name": "_name",
          "type": "string"
        },
        {
          "internalType": "string",
          "name": "_country",
          "type": "string"
        },
        {
          "internalType": "string",
          "name": "_facebook",
          "type": "string"
        },
        {
          "internalType": "string",
          "name": "_website",
          "type": "string"
        },
        {
          "internalType": "string",
          "name": "_linkedin",
          "type": "string"
        },
        {
          "internalType": "string",
          "name": "_password",
          "type": "string"
        }
      ],
      "name": "addIIGProfile",
      "outputs": [],
      "stateMutability": "nonpayable",
      "type": "function"
    },
    {
      "inputs": [
        {
          "internalType": "address",
          "name": "_iigOwner",
          "type": "address"
        },
        {
          "internalType": "string",
          "name": "_name",
          "type": "string"
        },
        {
          "internalType": "string",
          "name": "_country",
          "type": "string"
        },
        {
          "internalType": "string",
          "name": "_facebook",
          "type": "string"
        },
        {
          "internalType": "string",
          "name": "_website",
          "type": "string"
        },
        {
          "internalType": "string",
          "name": "_linkedin",
          "type": "string"
        }
      ],
      "name": "editIIGProfile",
      "outputs": [],
      "stateMutability": "nonpayable",
      "type": "function"
    },
    {
      "inputs": [],
      "name": "getListIIG",
      "outputs": [
        {
          "internalType": "address[]",
          "name": "",
          "type": "address[]"
        },
        {
          "internalType": "string[]",
          "name": "",
          "type": "string[]"
        },
        {
          "internalType": "string[]",
          "name": "",
          "type": "string[]"
        },
        {
          "internalType": "string[]",
          "name": "",
          "type": "string[]"
        },
        {
          "internalType": "string[]",
          "name": "",
          "type": "string[]"
        },
        {
          "internalType": "string[]",
          "name": "",
          "type": "string[]"
        },
        {
          "internalType": "string[]",
          "name": "",
          "type": "string[]"
        }
      ],
      "stateMutability": "view",
      "type": "function"
    },
    {
      "inputs": [
        {
          "internalType": "address",
          "name": "_iigOwner",
          "type": "address"
        }
      ],
      "name": "getIIGProfile",
      "outputs": [
        {
          "internalType": "address",
          "name": "iigOwner",
          "type": "address"
        },
        {
          "internalType": "string",
          "name": "name",
          "type": "string"
        },
        {
          "internalType": "string",
          "name": "country",
          "type": "string"
        },
        {
          "internalType": "string",
          "name": "facebook",
          "type": "string"
        },
        {
          "internalType": "string",
          "name": "website",
          "type": "string"
        },
        {
          "internalType": "string",
          "name": "linkedin",
          "type": "string"
        }
      ],
      "stateMutability": "view",
      "type": "function"
    },
    {
      "inputs": [
        {
          "internalType": "address",
          "name": "_iigOwner",
          "type": "address"
        },
        {
          "internalType": "string",
          "name": "_password",
          "type": "string"
        }
      ],
      "name": "checkIIGProfile",
      "outputs": [
        {
          "internalType": "uint256",
          "name": "",
          "type": "uint256"
        }
      ],
      "stateMutability": "view",
      "type": "function"
    },
    {
      "inputs": [
        {
          "internalType": "address",
          "name": "_iigOwner",
          "type": "address"
        }
      ],
      "name": "checkExistIIG",
      "outputs": [
        {
          "internalType": "uint256",
          "name": "x",
          "type": "uint256"
        }
      ],
      "stateMutability": "view",
      "type": "function"
    },
    {
      "inputs": [
        {
          "internalType": "address",
          "name": "_studentOwner",
          "type": "address"
        },
        {
          "internalType": "address",
          "name": "_iigOwner",
          "type": "address"
        },
        {
          "internalType": "string",
          "name": "_identityCard",
          "type": "string"
        },
        {
          "internalType": "string",
          "name": "_requestDate",
          "type": "string"
        }
      ],
      "name": "sendIIGRequest",
      "outputs": [],
      "stateMutability": "nonpayable",
      "type": "function"
    },
    {
      "inputs": [
        {
          "internalType": "address",
          "name": "_iigOwner",
          "type": "address"
        }
      ],
      "name": "getListIIGRequest",
      "outputs": [
        {
          "internalType": "bytes4[]",
          "name": "",
          "type": "bytes4[]"
        },
        {
          "internalType": "address[]",
          "name": "",
          "type": "address[]"
        },
        {
          "internalType": "address[]",
          "name": "",
          "type": "address[]"
        },
        {
          "internalType": "string[]",
          "name": "",
          "type": "string[]"
        },
        {
          "internalType": "string[]",
          "name": "",
          "type": "string[]"
        },
        {
          "internalType": "string[]",
          "name": "",
          "type": "string[]"
        }
      ],
      "stateMutability": "view",
      "type": "function"
    },
    {
      "inputs": [
        {
          "internalType": "address",
          "name": "_iigOwner",
          "type": "address"
        },
        {
          "internalType": "address",
          "name": "_studentOwner",
          "type": "address"
        }
      ],
      "name": "getListIIGRequestStudent",
      "outputs": [
        {
          "internalType": "bytes4[]",
          "name": "",
          "type": "bytes4[]"
        },
        {
          "internalType": "address[]",
          "name": "",
          "type": "address[]"
        },
        {
          "internalType": "address[]",
          "name": "",
          "type": "address[]"
        },
        {
          "internalType": "string[]",
          "name": "",
          "type": "string[]"
        },
        {
          "internalType": "string[]",
          "name": "",
          "type": "string[]"
        },
        {
          "internalType": "string[]",
          "name": "",
          "type": "string[]"
        }
      ],
      "stateMutability": "view",
      "type": "function"
    },
    {
      "inputs": [
        {
          "internalType": "address",
          "name": "_studentOwner",
          "type": "address"
        },
        {
          "internalType": "address",
          "name": "_iigOwner",
          "type": "address"
        },
        {
          "internalType": "bytes4",
          "name": "_codeRequest",
          "type": "bytes4"
        },
        {
          "internalType": "string",
          "name": "_statusRequest",
          "type": "string"
        }
      ],
      "name": "confirmIIGRequest",
      "outputs": [],
      "stateMutability": "nonpayable",
      "type": "function"
    },
    {
      "inputs": [
        {
          "internalType": "address",
          "name": "_studentOwner",
          "type": "address"
        },
        {
          "internalType": "string",
          "name": "_testDate",
          "type": "string"
        },
        {
          "internalType": "uint256",
          "name": "_shiftTest",
          "type": "uint256"
        },
        {
          "internalType": "string",
          "name": "_expireDate",
          "type": "string"
        },
        {
          "internalType": "uint256",
          "name": "_listeningScore",
          "type": "uint256"
        },
        {
          "internalType": "uint256",
          "name": "_readingScore",
          "type": "uint256"
        }
      ],
      "name": "addIIGLRResult",
      "outputs": [],
      "stateMutability": "nonpayable",
      "type": "function"
    },
    {
      "inputs": [
        {
          "internalType": "address",
          "name": "_studentOwner",
          "type": "address"
        },
        {
          "internalType": "string",
          "name": "_testDate",
          "type": "string"
        },
        {
          "internalType": "uint256",
          "name": "_shiftTest",
          "type": "uint256"
        },
        {
          "internalType": "string",
          "name": "_expireDate",
          "type": "string"
        },
        {
          "internalType": "uint256",
          "name": "_speakingScore",
          "type": "uint256"
        },
        {
          "internalType": "uint256",
          "name": "_writingScore",
          "type": "uint256"
        }
      ],
      "name": "addIIGSWResult",
      "outputs": [],
      "stateMutability": "nonpayable",
      "type": "function"
    },
    {
      "inputs": [
        {
          "internalType": "address",
          "name": "_iigOwner",
          "type": "address"
        },
        {
          "internalType": "address",
          "name": "_studentOwner",
          "type": "address"
        }
      ],
      "name": "getListIIGLRResult",
      "outputs": [
        {
          "internalType": "string[]",
          "name": "",
          "type": "string[]"
        },
        {
          "internalType": "uint256[]",
          "name": "",
          "type": "uint256[]"
        },
        {
          "internalType": "string[]",
          "name": "",
          "type": "string[]"
        },
        {
          "internalType": "uint256[]",
          "name": "",
          "type": "uint256[]"
        },
        {
          "internalType": "uint256[]",
          "name": "",
          "type": "uint256[]"
        },
        {
          "internalType": "uint256[]",
          "name": "",
          "type": "uint256[]"
        }
      ],
      "stateMutability": "view",
      "type": "function"
    },
    {
      "inputs": [
        {
          "internalType": "address",
          "name": "_iigOwner",
          "type": "address"
        },
        {
          "internalType": "address",
          "name": "_studentOwner",
          "type": "address"
        }
      ],
      "name": "getListIIGSWResult",
      "outputs": [
        {
          "internalType": "string[]",
          "name": "",
          "type": "string[]"
        },
        {
          "internalType": "uint256[]",
          "name": "",
          "type": "uint256[]"
        },
        {
          "internalType": "string[]",
          "name": "",
          "type": "string[]"
        },
        {
          "internalType": "uint256[]",
          "name": "",
          "type": "uint256[]"
        },
        {
          "internalType": "uint256[]",
          "name": "",
          "type": "uint256[]"
        },
        {
          "internalType": "uint256[]",
          "name": "",
          "type": "uint256[]"
        }
      ],
      "stateMutability": "view",
      "type": "function"
    },
    {
      "inputs": [
        {
          "internalType": "address",
          "name": "_iigOwner",
          "type": "address"
        },
        {
          "internalType": "address",
          "name": "_studentOwner",
          "type": "address"
        },
        {
          "internalType": "string",
          "name": "_testDate",
          "type": "string"
        },
        {
          "internalType": "uint256",
          "name": "_shiftTest",
          "type": "uint256"
        }
      ],
      "name": "getIIGLRResult",
      "outputs": [
        {
          "internalType": "string",
          "name": "testDate",
          "type": "string"
        },
        {
          "internalType": "uint256",
          "name": "shiftTest",
          "type": "uint256"
        },
        {
          "internalType": "string",
          "name": "expireDate",
          "type": "string"
        },
        {
          "internalType": "uint256",
          "name": "listeningScore",
          "type": "uint256"
        },
        {
          "internalType": "uint256",
          "name": "readingScore",
          "type": "uint256"
        },
        {
          "internalType": "uint256",
          "name": "totalScore",
          "type": "uint256"
        }
      ],
      "stateMutability": "view",
      "type": "function"
    },
    {
      "inputs": [
        {
          "internalType": "address",
          "name": "_iigOwner",
          "type": "address"
        },
        {
          "internalType": "address",
          "name": "_studentOwner",
          "type": "address"
        },
        {
          "internalType": "string",
          "name": "_testDate",
          "type": "string"
        },
        {
          "internalType": "uint256",
          "name": "_shiftTest",
          "type": "uint256"
        }
      ],
      "name": "getIIGSWResult",
      "outputs": [
        {
          "internalType": "string",
          "name": "testDate",
          "type": "string"
        },
        {
          "internalType": "uint256",
          "name": "shiftTest",
          "type": "uint256"
        },
        {
          "internalType": "string",
          "name": "expireDate",
          "type": "string"
        },
        {
          "internalType": "uint256",
          "name": "speakingScore",
          "type": "uint256"
        },
        {
          "internalType": "uint256",
          "name": "writingScore",
          "type": "uint256"
        },
        {
          "internalType": "uint256",
          "name": "totalScore",
          "type": "uint256"
        }
      ],
      "stateMutability": "view",
      "type": "function"
    }
  ],
  "bytecode": "0x60806040526040516200001290620001c7565b604051809103906000f0801580156200002f573d6000803e3d6000fd5b506000806101000a81548173ffffffffffffffffffffffffffffffffffffffff021916908373ffffffffffffffffffffffffffffffffffffffff1602179055506040516200007d90620001d5565b604051809103906000f0801580156200009a573d6000803e3d6000fd5b50600160006101000a81548173ffffffffffffffffffffffffffffffffffffffff021916908373ffffffffffffffffffffffffffffffffffffffff160217905550604051620000e990620001e3565b604051809103906000f08015801562000106573d6000803e3d6000fd5b50600260006101000a81548173ffffffffffffffffffffffffffffffffffffffff021916908373ffffffffffffffffffffffffffffffffffffffff1602179055506040516200015590620001f1565b604051809103906000f08015801562000172573d6000803e3d6000fd5b50600360006101000a81548173ffffffffffffffffffffffffffffffffffffffff021916908373ffffffffffffffffffffffffffffffffffffffff160217905550348015620001c057600080fd5b50620001ff565b6145ae8062005b0b83390190565b612630806200a0b983390190565b616aef806200c6e983390190565b612f6980620131d883390190565b6158fc806200020f6000396000f3fe608060405234801561001057600080fd5b50600436106102895760003560e01c80636f57524c1161015c578063ce1ec5bb116100ce578063e9daa70a11610087578063e9daa70a146108ed578063f1eb24311461091f578063f4b7ec971461093b578063f7a7394c1461096b578063f7a7b83d14610987578063fe761783146109a357610289565b8063ce1ec5bb146107e2578063d2f9858f14610816578063e28327211461084b578063e2f43af214610867578063e57c4af314610883578063e70c789c146108b857610289565b8063873dcd2911610120578063873dcd29146106cd57806391b9e6db146106fd5780639cd3258214610719578063a3e7ae281461074d578063acf6f3fd14610782578063bc10454b146107b257610289565b80636f57524c1461062057806376a9409f1461063c578063798fc53b14610671578063844bb4601461068d57806384ae9131146106a957610289565b8063313604e71161020057806345914c5d116101b957806345914c5d146105415780634e1f4f821461057657806357824f161461059257806363897216146105b75780636b4dbb28146105d35780636d53448f1461060457610289565b8063313604e71461042b57806335c77f851461044757806339d92c4c14610477578063415db955146104a757806342f08d4b146104db57806344fd6e221461051157610289565b806311345a201161025257806311345a201461035b5780631632dd981461038b5780631e9c3b5f146103a7578063241c67a9146103c357806324c5f368146103df5780632df96bfc146103fb57610289565b80624e56cf1461028e5780630299779f146102aa5780630ac68f37146102da5780630e966efd1461030a5780630f0156ed1461033f575b600080fd5b6102a860048036038101906102a39190612b30565b6109db565b005b6102c460048036038101906102bf9190612bcf565b610a73565b6040516102d19190612c57565b60405180910390f35b6102f460048036038101906102ef9190612c72565b610b1e565b6040516103019190612c57565b60405180910390f35b610324600480360381019061031f9190612cce565b610bc5565b60405161033696959493929190612fed565b60405180910390f35b610359600480360381019061035491906130a4565b610c84565b005b61037560048036038101906103709190612cce565b610d2b565b6040516103829190612c57565b60405180910390f35b6103a560048036038101906103a09190612bcf565b610dcf565b005b6103c160048036038101906103bc91906130a4565b610e65565b005b6103dd60048036038101906103d89190613195565b610f0c565b005b6103f960048036038101906103f49190613218565b610fa5565b005b61041560048036038101906104109190612cce565b611044565b6040516104229190612c57565b60405180910390f35b61044560048036038101906104409190613218565b6110fd565b005b610461600480360381019061045c9190612c72565b61119a565b60405161046e9190612c57565b60405180910390f35b610491600480360381019061048c9190612cce565b611242565b60405161049e9190612c57565b60405180910390f35b6104c160048036038101906104bc9190612cce565b6112e7565b6040516104d2959493929190613331565b60405180910390f35b6104f560048036038101906104f09190612cce565b6113a1565b6040516105089796959493929190613400565b60405180910390f35b61052b60048036038101906105269190612cce565b611466565b6040516105389190612c57565b60405180910390f35b61055b60048036038101906105569190613499565b61150b565b60405161056d9695949392919061351c565b60405180910390f35b610590600480360381019061058b9190612b30565b6115d6565b005b61059a61166f565b6040516105ae98979695949392919061358b565b60405180910390f35b6105d160048036038101906105cc9190613641565b61172b565b005b6105ed60048036038101906105e89190612cce565b6117ce565b6040516105fb929190613879565b60405180910390f35b61061e60048036038101906106199190613641565b611879565b005b61063a600480360381019061063591906138b0565b61191e565b005b610656600480360381019061065191906139fa565b6119c0565b60405161066896959493929190613a3a565b60405180910390f35b61068b60048036038101906106869190613218565b611a82565b005b6106a760048036038101906106a29190612b30565b611b1f565b005b6106b1611bb8565b6040516106c49796959493929190613ac5565b60405180910390f35b6106e760048036038101906106e29190612c72565b611c70565b6040516106f49190612c57565b60405180910390f35b61071760048036038101906107129190612b30565b611d18565b005b610733600480360381019061072e9190612cce565b611db1565b604051610744959493929190613b65565b60405180910390f35b610767600480360381019061076291906139fa565b611e6d565b60405161077996959493929190612fed565b60405180910390f35b61079c60048036038101906107979190612c72565b611f2f565b6040516107a99190612c57565b60405180910390f35b6107cc60048036038101906107c79190613bdb565b611fd6565b6040516107d99190612c57565b60405180910390f35b6107fc60048036038101906107f79190612cce565b612080565b60405161080d959493929190613d2e565b60405180910390f35b610830600480360381019061082b9190612cce565b61213c565b60405161084296959493929190613da4565b60405180910390f35b610865600480360381019061086091906138b0565b6121fc565b005b610881600480360381019061087c9190613e28565b61229e565b005b61089d60048036038101906108989190613499565b612332565b6040516108af9695949392919061351c565b60405180910390f35b6108d260048036038101906108cd91906139fa565b6123fd565b6040516108e496959493929190613a3a565b60405180910390f35b610907600480360381019061090291906139fa565b6124bf565b60405161091693929190613e97565b60405180910390f35b61093960048036038101906109349190613e28565b612574565b005b61095560048036038101906109509190613bdb565b612608565b6040516109629190612c57565b60405180910390f35b61098560048036038101906109809190613ed5565b61276a565b005b6109a1600480360381019061099c919061407f565b612810565b005b6109bd60048036038101906109b89190612cce565b6128ac565b6040516109d29998979695949392919061414e565b60405180910390f35b600360009054906101000a900473ffffffffffffffffffffffffffffffffffffffff1673ffffffffffffffffffffffffffffffffffffffff16624e56cf858585856040518563ffffffff1660e01b8152600401610a3b9493929190614213565b600060405180830381600087803b158015610a5557600080fd5b505af1158015610a69573d6000803e3d6000fd5b5050505050505050565b6000600360009054906101000a900473ffffffffffffffffffffffffffffffffffffffff1673ffffffffffffffffffffffffffffffffffffffff16630299779f8585856040518463ffffffff1660e01b8152600401610ad493929190613e97565b602060405180830381865afa158015610af1573d6000803e3d6000fd5b505050506040513d601f19601f82011682018060405250810190610b15919061427b565b90509392505050565b60008060009054906101000a900473ffffffffffffffffffffffffffffffffffffffff1673ffffffffffffffffffffffffffffffffffffffff1663716b5ab484846040518363ffffffff1660e01b8152600401610b7c9291906142a8565b602060405180830381865afa158015610b99573d6000803e3d6000fd5b505050506040513d601f19601f82011682018060405250810190610bbd919061427b565b905092915050565b606080606080606080600260009054906101000a900473ffffffffffffffffffffffffffffffffffffffff1673ffffffffffffffffffffffffffffffffffffffff16639fa7247a886040518263ffffffff1660e01b8152600401610c2991906142d8565b600060405180830381865afa158015610c46573d6000803e3d6000fd5b505050506040513d6000823e3d601f19601f82011682018060405250810190610c6f91906145f9565b95509550955095509550955091939550919395565b6000339050600260009054906101000a900473ffffffffffffffffffffffffffffffffffffffff1673ffffffffffffffffffffffffffffffffffffffff1663fe933225828989898989896040518863ffffffff1660e01b8152600401610cf0979695949392919061472e565b600060405180830381600087803b158015610d0a57600080fd5b505af1158015610d1e573d6000803e3d6000fd5b5050505050505050505050565b60008060009054906101000a900473ffffffffffffffffffffffffffffffffffffffff1673ffffffffffffffffffffffffffffffffffffffff1663961ecb5b836040518263ffffffff1660e01b8152600401610d8791906142d8565b602060405180830381865afa158015610da4573d6000803e3d6000fd5b505050506040513d601f19601f82011682018060405250810190610dc8919061427b565b9050919050565b600360009054906101000a900473ffffffffffffffffffffffffffffffffffffffff1673ffffffffffffffffffffffffffffffffffffffff1663ae8f00d38484846040518463ffffffff1660e01b8152600401610e2e93929190613e97565b600060405180830381600087803b158015610e4857600080fd5b505af1158015610e5c573d6000803e3d6000fd5b50505050505050565b6000339050600260009054906101000a900473ffffffffffffffffffffffffffffffffffffffff1673ffffffffffffffffffffffffffffffffffffffff16638a8f1d05828989898989896040518863ffffffff1660e01b8152600401610ed1979695949392919061472e565b600060405180830381600087803b158015610eeb57600080fd5b505af1158015610eff573d6000803e3d6000fd5b5050505050505050505050565b600260009054906101000a900473ffffffffffffffffffffffffffffffffffffffff1673ffffffffffffffffffffffffffffffffffffffff1663b351d176858585856040518563ffffffff1660e01b8152600401610f6d94939291906147ba565b600060405180830381600087803b158015610f8757600080fd5b505af1158015610f9b573d6000803e3d6000fd5b5050505050505050565b600260009054906101000a900473ffffffffffffffffffffffffffffffffffffffff1673ffffffffffffffffffffffffffffffffffffffff16636cf871df8787878787876040518763ffffffff1660e01b815260040161100a96959493929190613da4565b600060405180830381600087803b15801561102457600080fd5b505af1158015611038573d6000803e3d6000fd5b50505050505050505050565b60008060008054906101000a900473ffffffffffffffffffffffffffffffffffffffff1673ffffffffffffffffffffffffffffffffffffffff16638e891393846040518263ffffffff1660e01b81526004016110a091906142d8565b602060405180830381865afa1580156110bd573d6000803e3d6000fd5b505050506040513d601f19601f820116820180604052508101906110e1919061427b565b9050600a8111156110f65760019150506110f8565b505b919050565b60008054906101000a900473ffffffffffffffffffffffffffffffffffffffff1673ffffffffffffffffffffffffffffffffffffffff1663dcc453528787878787876040518763ffffffff1660e01b815260040161116096959493929190613da4565b600060405180830381600087803b15801561117a57600080fd5b505af115801561118e573d6000803e3d6000fd5b50505050505050505050565b6000600160009054906101000a900473ffffffffffffffffffffffffffffffffffffffff1673ffffffffffffffffffffffffffffffffffffffff1663a7dba18484846040518363ffffffff1660e01b81526004016111f99291906142a8565b602060405180830381865afa158015611216573d6000803e3d6000fd5b505050506040513d601f19601f8201168201806040525081019061123a919061427b565b905092915050565b6000600160009054906101000a900473ffffffffffffffffffffffffffffffffffffffff1673ffffffffffffffffffffffffffffffffffffffff1663c6fe410a836040518263ffffffff1660e01b815260040161129f91906142d8565b602060405180830381865afa1580156112bc573d6000803e3d6000fd5b505050506040513d601f19601f820116820180604052508101906112e0919061427b565b9050919050565b606080606080606060008054906101000a900473ffffffffffffffffffffffffffffffffffffffff1673ffffffffffffffffffffffffffffffffffffffff16638ce211bc876040518263ffffffff1660e01b815260040161134891906142d8565b600060405180830381865afa158015611365573d6000803e3d6000fd5b505050506040513d6000823e3d601f19601f8201168201806040525081019061138e9190614806565b9450945094509450945091939590929450565b6000606080606080606080600160009054906101000a900473ffffffffffffffffffffffffffffffffffffffff1673ffffffffffffffffffffffffffffffffffffffff16630f53a470896040518263ffffffff1660e01b815260040161140791906142d8565b600060405180830381865afa158015611424573d6000803e3d6000fd5b505050506040513d6000823e3d601f19601f8201168201806040525081019061144d919061490d565b9650965096509650965096509650919395979092949650565b6000600260009054906101000a900473ffffffffffffffffffffffffffffffffffffffff1673ffffffffffffffffffffffffffffffffffffffff166344fd6e22836040518263ffffffff1660e01b81526004016114c391906142d8565b602060405180830381865afa1580156114e0573d6000803e3d6000fd5b505050506040513d601f19601f82011682018060405250810190611504919061427b565b9050919050565b6060600060606000806000600260009054906101000a900473ffffffffffffffffffffffffffffffffffffffff1673ffffffffffffffffffffffffffffffffffffffff1663a76d25798b8b8b8b6040518563ffffffff1660e01b81526004016115779493929190614a57565b600060405180830381865afa158015611594573d6000803e3d6000fd5b505050506040513d6000823e3d601f19601f820116820180604052508101906115bd9190614aa3565b9550955095509550955095509499939850945094509450565b600260009054906101000a900473ffffffffffffffffffffffffffffffffffffffff1673ffffffffffffffffffffffffffffffffffffffff1663948195ed858585856040518563ffffffff1660e01b81526004016116379493929190614213565b600060405180830381600087803b15801561165157600080fd5b505af1158015611665573d6000803e3d6000fd5b5050505050505050565b606080606080606080606080600160009054906101000a900473ffffffffffffffffffffffffffffffffffffffff1673ffffffffffffffffffffffffffffffffffffffff1663cfafbc0c6040518163ffffffff1660e01b8152600401600060405180830381865afa1580156116e8573d6000803e3d6000fd5b505050506040513d6000823e3d601f19601f820116820180604052508101906117119190614b68565b975097509750975097509750975097509091929394959697565b60008054906101000a900473ffffffffffffffffffffffffffffffffffffffff1673ffffffffffffffffffffffffffffffffffffffff1663b24f701689898989898989896040518963ffffffff1660e01b8152600401611792989796959493929190614cfe565b600060405180830381600087803b1580156117ac57600080fd5b505af11580156117c0573d6000803e3d6000fd5b505050505050505050505050565b60608060008054906101000a900473ffffffffffffffffffffffffffffffffffffffff1673ffffffffffffffffffffffffffffffffffffffff1663ac4b2049846040518263ffffffff1660e01b815260040161182a91906142d8565b600060405180830381865afa158015611847573d6000803e3d6000fd5b505050506040513d6000823e3d601f19601f820116820180604052508101906118709190614e70565b91509150915091565b600160009054906101000a900473ffffffffffffffffffffffffffffffffffffffff1673ffffffffffffffffffffffffffffffffffffffff1663e045b71089898989898989896040518963ffffffff1660e01b81526004016118e2989796959493929190614cfe565b600060405180830381600087803b1580156118fc57600080fd5b505af1158015611910573d6000803e3d6000fd5b505050505050505050505050565b600160009054906101000a900473ffffffffffffffffffffffffffffffffffffffff1673ffffffffffffffffffffffffffffffffffffffff166323b6d993888888888888886040518863ffffffff1660e01b81526004016119859796959493929190613400565b600060405180830381600087803b15801561199f57600080fd5b505af11580156119b3573d6000803e3d6000fd5b5050505050505050505050565b606080606080606080600260009054906101000a900473ffffffffffffffffffffffffffffffffffffffff1673ffffffffffffffffffffffffffffffffffffffff1663bc72af7d89896040518363ffffffff1660e01b8152600401611a26929190614ee8565b600060405180830381865afa158015611a43573d6000803e3d6000fd5b505050506040513d6000823e3d601f19601f82011682018060405250810190611a6c9190614f11565b9550955095509550955095509295509295509295565b60008054906101000a900473ffffffffffffffffffffffffffffffffffffffff1673ffffffffffffffffffffffffffffffffffffffff16633d746f0a8787878787876040518763ffffffff1660e01b8152600401611ae596959493929190613da4565b600060405180830381600087803b158015611aff57600080fd5b505af1158015611b13573d6000803e3d6000fd5b50505050505050505050565b600360009054906101000a900473ffffffffffffffffffffffffffffffffffffffff1673ffffffffffffffffffffffffffffffffffffffff1663844bb460858585856040518563ffffffff1660e01b8152600401611b809493929190614213565b600060405180830381600087803b158015611b9a57600080fd5b505af1158015611bae573d6000803e3d6000fd5b5050505050505050565b6060806060806060806060600260009054906101000a900473ffffffffffffffffffffffffffffffffffffffff1673ffffffffffffffffffffffffffffffffffffffff166384ae91316040518163ffffffff1660e01b8152600401600060405180830381865afa158015611c30573d6000803e3d6000fd5b505050506040513d6000823e3d601f19601f82011682018060405250810190611c599190615046565b965096509650965096509650965090919293949596565b6000600260009054906101000a900473ffffffffffffffffffffffffffffffffffffffff1673ffffffffffffffffffffffffffffffffffffffff166324e6603784846040518363ffffffff1660e01b8152600401611ccf9291906142a8565b602060405180830381865afa158015611cec573d6000803e3d6000fd5b505050506040513d601f19601f82011682018060405250810190611d10919061427b565b905092915050565b600360009054906101000a900473ffffffffffffffffffffffffffffffffffffffff1673ffffffffffffffffffffffffffffffffffffffff1663dc1e475f858585856040518563ffffffff1660e01b8152600401611d799493929190614213565b600060405180830381600087803b158015611d9357600080fd5b505af1158015611da7573d6000803e3d6000fd5b5050505050505050565b6060806060806060600360009054906101000a900473ffffffffffffffffffffffffffffffffffffffff1673ffffffffffffffffffffffffffffffffffffffff1663381a3bf7876040518263ffffffff1660e01b8152600401611e1491906142d8565b600060405180830381865afa158015611e31573d6000803e3d6000fd5b505050506040513d6000823e3d601f19601f82011682018060405250810190611e5a91906151ac565b9450945094509450945091939590929450565b606080606080606080600260009054906101000a900473ffffffffffffffffffffffffffffffffffffffff1673ffffffffffffffffffffffffffffffffffffffff16630c3f988289896040518363ffffffff1660e01b8152600401611ed3929190614ee8565b600060405180830381865afa158015611ef0573d6000803e3d6000fd5b505050506040513d6000823e3d601f19601f82011682018060405250810190611f1991906145f9565b9550955095509550955095509295509295509295565b60008060009054906101000a900473ffffffffffffffffffffffffffffffffffffffff1673ffffffffffffffffffffffffffffffffffffffff1663174ceeab84846040518363ffffffff1660e01b8152600401611f8d9291906142a8565b602060405180830381865afa158015611faa573d6000803e3d6000fd5b505050506040513d601f19601f82011682018060405250810190611fce919061427b565b905092915050565b60008060009054906101000a900473ffffffffffffffffffffffffffffffffffffffff1673ffffffffffffffffffffffffffffffffffffffff1663390363fe8585856040518463ffffffff1660e01b8152600401612036939291906152b3565b602060405180830381865afa158015612053573d6000803e3d6000fd5b505050506040513d601f19601f82011682018060405250810190612077919061427b565b90509392505050565b6060806060806060600360009054906101000a900473ffffffffffffffffffffffffffffffffffffffff1673ffffffffffffffffffffffffffffffffffffffff1663ce1ec5bb876040518263ffffffff1660e01b81526004016120e391906142d8565b600060405180830381865afa158015612100573d6000803e3d6000fd5b505050506040513d6000823e3d601f19601f8201168201806040525081019061212991906153e7565b9450945094509450945091939590929450565b60006060806060806060600260009054906101000a900473ffffffffffffffffffffffffffffffffffffffff1673ffffffffffffffffffffffffffffffffffffffff16630f53a470886040518263ffffffff1660e01b81526004016121a191906142d8565b600060405180830381865afa1580156121be573d6000803e3d6000fd5b505050506040513d6000823e3d601f19601f820116820180604052508101906121e791906154ee565b95509550955095509550955091939550919395565b600260009054906101000a900473ffffffffffffffffffffffffffffffffffffffff1673ffffffffffffffffffffffffffffffffffffffff1663dd8f3edc888888888888886040518863ffffffff1660e01b81526004016122639796959493929190613400565b600060405180830381600087803b15801561227d57600080fd5b505af1158015612291573d6000803e3d6000fd5b5050505050505050505050565b60008054906101000a900473ffffffffffffffffffffffffffffffffffffffff1673ffffffffffffffffffffffffffffffffffffffff166360ccb2048484846040518463ffffffff1660e01b81526004016122fb93929190615607565b600060405180830381600087803b15801561231557600080fd5b505af1158015612329573d6000803e3d6000fd5b50505050505050565b6060600060606000806000600260009054906101000a900473ffffffffffffffffffffffffffffffffffffffff1673ffffffffffffffffffffffffffffffffffffffff16630381b0138b8b8b8b6040518563ffffffff1660e01b815260040161239e9493929190614a57565b600060405180830381865afa1580156123bb573d6000803e3d6000fd5b505050506040513d6000823e3d601f19601f820116820180604052508101906123e49190614aa3565b9550955095509550955095509499939850945094509450565b606080606080606080600260009054906101000a900473ffffffffffffffffffffffffffffffffffffffff1673ffffffffffffffffffffffffffffffffffffffff166306ed1e8989896040518363ffffffff1660e01b8152600401612463929190614ee8565b600060405180830381865afa158015612480573d6000803e3d6000fd5b505050506040513d6000823e3d601f19601f820116820180604052508101906124a99190614f11565b9550955095509550955095509295509295509295565b6000806060600360009054906101000a900473ffffffffffffffffffffffffffffffffffffffff1673ffffffffffffffffffffffffffffffffffffffff1663e9daa70a86866040518363ffffffff1660e01b8152600401612521929190614ee8565b600060405180830381865afa15801561253e573d6000803e3d6000fd5b505050506040513d6000823e3d601f19601f820116820180604052508101906125679190615645565b9250925092509250925092565b60008054906101000a900473ffffffffffffffffffffffffffffffffffffffff1673ffffffffffffffffffffffffffffffffffffffff1663a06b883d8484846040518463ffffffff1660e01b81526004016125d193929190615607565b600060405180830381600087803b1580156125eb57600080fd5b505af11580156125ff573d6000803e3d6000fd5b50505050505050565b600080600360009054906101000a900473ffffffffffffffffffffffffffffffffffffffff1673ffffffffffffffffffffffffffffffffffffffff1663dae7debd866040518263ffffffff1660e01b815260040161266691906142d8565b602060405180830381865afa158015612683573d6000803e3d6000fd5b505050506040513d601f19601f820116820180604052508101906126a7919061427b565b90506000600360009054906101000a900473ffffffffffffffffffffffffffffffffffffffff1673ffffffffffffffffffffffffffffffffffffffff166386b87ba28787876040518463ffffffff1660e01b815260040161270a939291906152b3565b602060405180830381865afa158015612727573d6000803e3d6000fd5b505050506040513d601f19601f8201168201806040525081019061274b919061427b565b90508082111561276057600192505050612763565b50505b9392505050565b60008054906101000a900473ffffffffffffffffffffffffffffffffffffffff1673ffffffffffffffffffffffffffffffffffffffff1663804fcf138a8a8a8a8a8a8a8a8a6040518a63ffffffff1660e01b81526004016127d39998979695949392919061414e565b600060405180830381600087803b1580156127ed57600080fd5b505af1158015612801573d6000803e3d6000fd5b50505050505050505050505050565b600360009054906101000a900473ffffffffffffffffffffffffffffffffffffffff1673ffffffffffffffffffffffffffffffffffffffff1663f7a7b83d86868686866040518663ffffffff1660e01b81526004016128739594939291906156b4565b600060405180830381600087803b15801561288d57600080fd5b505af11580156128a1573d6000803e3d6000fd5b505050505050505050565b600060608060608060608060608060008054906101000a900473ffffffffffffffffffffffffffffffffffffffff1673ffffffffffffffffffffffffffffffffffffffff16630f53a4708b6040518263ffffffff1660e01b815260040161291391906142d8565b600060405180830381865afa158015612930573d6000803e3d6000fd5b505050506040513d6000823e3d601f19601f82011682018060405250810190612959919061571c565b9850985098509850985098509850985098509193959799909294969850565b6000604051905090565b600080fd5b600080fd5b600073ffffffffffffffffffffffffffffffffffffffff82169050919050565b60006129b78261298c565b9050919050565b6129c7816129ac565b81146129d257600080fd5b50565b6000813590506129e4816129be565b92915050565b600080fd5b600080fd5b6000601f19601f8301169050919050565b7f4e487b7100000000000000000000000000000000000000000000000000000000600052604160045260246000fd5b612a3d826129f4565b810181811067ffffffffffffffff82111715612a5c57612a5b612a05565b5b80604052505050565b6000612a6f612978565b9050612a7b8282612a34565b919050565b600067ffffffffffffffff821115612a9b57612a9a612a05565b5b612aa4826129f4565b9050602081019050919050565b82818337600083830152505050565b6000612ad3612ace84612a80565b612a65565b905082815260208101848484011115612aef57612aee6129ef565b5b612afa848285612ab1565b509392505050565b600082601f830112612b1757612b166129ea565b5b8135612b27848260208601612ac0565b91505092915050565b60008060008060808587031215612b4a57612b49612982565b5b6000612b58878288016129d5565b9450506020612b69878288016129d5565b935050604085013567ffffffffffffffff811115612b8a57612b89612987565b5b612b9687828801612b02565b925050606085013567ffffffffffffffff811115612bb757612bb6612987565b5b612bc387828801612b02565b91505092959194509250565b600080600060608486031215612be857612be7612982565b5b6000612bf6868287016129d5565b9350506020612c07868287016129d5565b925050604084013567ffffffffffffffff811115612c2857612c27612987565b5b612c3486828701612b02565b9150509250925092565b6000819050919050565b612c5181612c3e565b82525050565b6000602082019050612c6c6000830184612c48565b92915050565b60008060408385031215612c8957612c88612982565b5b6000612c97858286016129d5565b925050602083013567ffffffffffffffff811115612cb857612cb7612987565b5b612cc485828601612b02565b9150509250929050565b600060208284031215612ce457612ce3612982565b5b6000612cf2848285016129d5565b91505092915050565b600081519050919050565b600082825260208201905092915050565b6000819050602082019050919050565b60007fffffffff0000000000000000000000000000000000000000000000000000000082169050919050565b612d5c81612d27565b82525050565b6000612d6e8383612d53565b60208301905092915050565b6000602082019050919050565b6000612d9282612cfb565b612d9c8185612d06565b9350612da783612d17565b8060005b83811015612dd8578151612dbf8882612d62565b9750612dca83612d7a565b925050600181019050612dab565b5085935050505092915050565b600081519050919050565b600082825260208201905092915050565b6000819050602082019050919050565b612e1a816129ac565b82525050565b6000612e2c8383612e11565b60208301905092915050565b6000602082019050919050565b6000612e5082612de5565b612e5a8185612df0565b9350612e6583612e01565b8060005b83811015612e96578151612e7d8882612e20565b9750612e8883612e38565b925050600181019050612e69565b5085935050505092915050565b600081519050919050565b600082825260208201905092915050565b6000819050602082019050919050565b600081519050919050565b600082825260208201905092915050565b60005b83811015612f09578082015181840152602081019050612eee565b83811115612f18576000848401525b50505050565b6000612f2982612ecf565b612f338185612eda565b9350612f43818560208601612eeb565b612f4c816129f4565b840191505092915050565b6000612f638383612f1e565b905092915050565b6000602082019050919050565b6000612f8382612ea3565b612f8d8185612eae565b935083602082028501612f9f85612ebf565b8060005b85811015612fdb5784840389528151612fbc8582612f57565b9450612fc783612f6b565b925060208a01995050600181019050612fa3565b50829750879550505050505092915050565b600060c08201905081810360008301526130078189612d87565b9050818103602083015261301b8188612e45565b9050818103604083015261302f8187612e45565b905081810360608301526130438186612f78565b905081810360808301526130578185612f78565b905081810360a083015261306b8184612f78565b9050979650505050505050565b61308181612c3e565b811461308c57600080fd5b50565b60008135905061309e81613078565b92915050565b60008060008060008060c087890312156130c1576130c0612982565b5b60006130cf89828a016129d5565b965050602087013567ffffffffffffffff8111156130f0576130ef612987565b5b6130fc89828a01612b02565b955050604061310d89828a0161308f565b945050606087013567ffffffffffffffff81111561312e5761312d612987565b5b61313a89828a01612b02565b935050608061314b89828a0161308f565b92505060a061315c89828a0161308f565b9150509295509295509295565b61317281612d27565b811461317d57600080fd5b50565b60008135905061318f81613169565b92915050565b600080600080608085870312156131af576131ae612982565b5b60006131bd878288016129d5565b94505060206131ce878288016129d5565b93505060406131df87828801613180565b925050606085013567ffffffffffffffff811115613200576131ff612987565b5b61320c87828801612b02565b91505092959194509250565b60008060008060008060c0878903121561323557613234612982565b5b600061324389828a016129d5565b965050602087013567ffffffffffffffff81111561326457613263612987565b5b61327089828a01612b02565b955050604087013567ffffffffffffffff81111561329157613290612987565b5b61329d89828a01612b02565b945050606087013567ffffffffffffffff8111156132be576132bd612987565b5b6132ca89828a01612b02565b935050608087013567ffffffffffffffff8111156132eb576132ea612987565b5b6132f789828a01612b02565b92505060a087013567ffffffffffffffff81111561331857613317612987565b5b61332489828a01612b02565b9150509295509295509295565b600060a082019050818103600083015261334b8188612f78565b9050818103602083015261335f8187612f78565b905081810360408301526133738186612f78565b905081810360608301526133878185612f78565b9050818103608083015261339b8184612f78565b90509695505050505050565b6133b0816129ac565b82525050565b600082825260208201905092915050565b60006133d282612ecf565b6133dc81856133b6565b93506133ec818560208601612eeb565b6133f5816129f4565b840191505092915050565b600060e082019050613415600083018a6133a7565b818103602083015261342781896133c7565b9050818103604083015261343b81886133c7565b9050818103606083015261344f81876133c7565b9050818103608083015261346381866133c7565b905081810360a083015261347781856133c7565b905081810360c083015261348b81846133c7565b905098975050505050505050565b600080600080608085870312156134b3576134b2612982565b5b60006134c1878288016129d5565b94505060206134d2878288016129d5565b935050604085013567ffffffffffffffff8111156134f3576134f2612987565b5b6134ff87828801612b02565b92505060606135108782880161308f565b91505092959194509250565b600060c082019050818103600083015261353681896133c7565b90506135456020830188612c48565b818103604083015261355781876133c7565b90506135666060830186612c48565b6135736080830185612c48565b61358060a0830184612c48565b979650505050505050565b60006101008201905081810360008301526135a6818b612e45565b905081810360208301526135ba818a612f78565b905081810360408301526135ce8189612f78565b905081810360608301526135e28188612f78565b905081810360808301526135f68187612f78565b905081810360a083015261360a8186612f78565b905081810360c083015261361e8185612f78565b905081810360e08301526136328184612f78565b90509998505050505050505050565b600080600080600080600080610100898b03121561366257613661612982565b5b60006136708b828c016129d5565b985050602089013567ffffffffffffffff81111561369157613690612987565b5b61369d8b828c01612b02565b975050604089013567ffffffffffffffff8111156136be576136bd612987565b5b6136ca8b828c01612b02565b965050606089013567ffffffffffffffff8111156136eb576136ea612987565b5b6136f78b828c01612b02565b955050608089013567ffffffffffffffff81111561371857613717612987565b5b6137248b828c01612b02565b94505060a089013567ffffffffffffffff81111561374557613744612987565b5b6137518b828c01612b02565b93505060c089013567ffffffffffffffff81111561377257613771612987565b5b61377e8b828c01612b02565b92505060e089013567ffffffffffffffff81111561379f5761379e612987565b5b6137ab8b828c01612b02565b9150509295985092959890939650565b600081519050919050565b600082825260208201905092915050565b6000819050602082019050919050565b6137f081612c3e565b82525050565b600061380283836137e7565b60208301905092915050565b6000602082019050919050565b6000613826826137bb565b61383081856137c6565b935061383b836137d7565b8060005b8381101561386c57815161385388826137f6565b975061385e8361380e565b92505060018101905061383f565b5085935050505092915050565b600060408201905081810360008301526138938185612f78565b905081810360208301526138a7818461381b565b90509392505050565b600080600080600080600060e0888a0312156138cf576138ce612982565b5b60006138dd8a828b016129d5565b975050602088013567ffffffffffffffff8111156138fe576138fd612987565b5b61390a8a828b01612b02565b965050604088013567ffffffffffffffff81111561392b5761392a612987565b5b6139378a828b01612b02565b955050606088013567ffffffffffffffff81111561395857613957612987565b5b6139648a828b01612b02565b945050608088013567ffffffffffffffff81111561398557613984612987565b5b6139918a828b01612b02565b93505060a088013567ffffffffffffffff8111156139b2576139b1612987565b5b6139be8a828b01612b02565b92505060c088013567ffffffffffffffff8111156139df576139de612987565b5b6139eb8a828b01612b02565b91505092959891949750929550565b60008060408385031215613a1157613a10612982565b5b6000613a1f858286016129d5565b9250506020613a30858286016129d5565b9150509250929050565b600060c0820190508181036000830152613a548189612f78565b90508181036020830152613a68818861381b565b90508181036040830152613a7c8187612f78565b90508181036060830152613a90818661381b565b90508181036080830152613aa4818561381b565b905081810360a0830152613ab8818461381b565b9050979650505050505050565b600060e0820190508181036000830152613adf818a612e45565b90508181036020830152613af38189612f78565b90508181036040830152613b078188612f78565b90508181036060830152613b1b8187612f78565b90508181036080830152613b2f8186612f78565b905081810360a0830152613b438185612f78565b905081810360c0830152613b578184612f78565b905098975050505050505050565b600060a0820190508181036000830152613b7f8188612e45565b90508181036020830152613b938187612e45565b90508181036040830152613ba78186612f78565b90508181036060830152613bbb8185612f78565b90508181036080830152613bcf8184612f78565b90509695505050505050565b600080600060608486031215613bf457613bf3612982565b5b6000613c02868287016129d5565b935050602084013567ffffffffffffffff811115613c2357613c22612987565b5b613c2f86828701612b02565b925050604084013567ffffffffffffffff811115613c5057613c4f612987565b5b613c5c86828701612b02565b9150509250925092565b600081519050919050565b600082825260208201905092915050565b6000819050602082019050919050565b6000819050919050565b613ca581613c92565b82525050565b6000613cb78383613c9c565b60208301905092915050565b6000602082019050919050565b6000613cdb82613c66565b613ce58185613c71565b9350613cf083613c82565b8060005b83811015613d21578151613d088882613cab565b9750613d1383613cc3565b925050600181019050613cf4565b5085935050505092915050565b600060a0820190508181036000830152613d488188613cd0565b90508181036020830152613d5c8187612f78565b90508181036040830152613d708186612f78565b90508181036060830152613d848185612f78565b90508181036080830152613d98818461381b565b90509695505050505050565b600060c082019050613db960008301896133a7565b8181036020830152613dcb81886133c7565b90508181036040830152613ddf81876133c7565b90508181036060830152613df381866133c7565b90508181036080830152613e0781856133c7565b905081810360a0830152613e1b81846133c7565b9050979650505050505050565b600080600060608486031215613e4157613e40612982565b5b6000613e4f868287016129d5565b935050602084013567ffffffffffffffff811115613e7057613e6f612987565b5b613e7c86828701612b02565b9250506040613e8d8682870161308f565b9150509250925092565b6000606082019050613eac60008301866133a7565b613eb960208301856133a7565b8181036040830152613ecb81846133c7565b9050949350505050565b60008060008060008060008060006101208a8c031215613ef857613ef7612982565b5b6000613f068c828d016129d5565b99505060208a013567ffffffffffffffff811115613f2757613f26612987565b5b613f338c828d01612b02565b98505060408a013567ffffffffffffffff811115613f5457613f53612987565b5b613f608c828d01612b02565b97505060608a013567ffffffffffffffff811115613f8157613f80612987565b5b613f8d8c828d01612b02565b96505060808a013567ffffffffffffffff811115613fae57613fad612987565b5b613fba8c828d01612b02565b95505060a08a013567ffffffffffffffff811115613fdb57613fda612987565b5b613fe78c828d01612b02565b94505060c08a013567ffffffffffffffff81111561400857614007612987565b5b6140148c828d01612b02565b93505060e08a013567ffffffffffffffff81111561403557614034612987565b5b6140418c828d01612b02565b9250506101008a013567ffffffffffffffff81111561406357614062612987565b5b61406f8c828d01612b02565b9150509295985092959850929598565b600080600080600060a0868803121561409b5761409a612982565b5b60006140a9888289016129d5565b955050602086013567ffffffffffffffff8111156140ca576140c9612987565b5b6140d688828901612b02565b945050604086013567ffffffffffffffff8111156140f7576140f6612987565b5b61410388828901612b02565b935050606086013567ffffffffffffffff81111561412457614123612987565b5b61413088828901612b02565b92505060806141418882890161308f565b9150509295509295909350565b600061012082019050614164600083018c6133a7565b8181036020830152614176818b6133c7565b9050818103604083015261418a818a6133c7565b9050818103606083015261419e81896133c7565b905081810360808301526141b281886133c7565b905081810360a08301526141c681876133c7565b905081810360c08301526141da81866133c7565b905081810360e08301526141ee81856133c7565b905081810361010083015261420381846133c7565b90509a9950505050505050505050565b600060808201905061422860008301876133a7565b61423560208301866133a7565b818103604083015261424781856133c7565b9050818103606083015261425b81846133c7565b905095945050505050565b60008151905061427581613078565b92915050565b60006020828403121561429157614290612982565b5b600061429f84828501614266565b91505092915050565b60006040820190506142bd60008301856133a7565b81810360208301526142cf81846133c7565b90509392505050565b60006020820190506142ed60008301846133a7565b92915050565b600067ffffffffffffffff82111561430e5761430d612a05565b5b602082029050602081019050919050565b600080fd5b60008151905061433381613169565b92915050565b600061434c614347846142f3565b612a65565b9050808382526020820190506020840283018581111561436f5761436e61431f565b5b835b8181101561439857806143848882614324565b845260208401935050602081019050614371565b5050509392505050565b600082601f8301126143b7576143b66129ea565b5b81516143c7848260208601614339565b91505092915050565b600067ffffffffffffffff8211156143eb576143ea612a05565b5b602082029050602081019050919050565b60008151905061440b816129be565b92915050565b600061442461441f846143d0565b612a65565b905080838252602082019050602084028301858111156144475761444661431f565b5b835b81811015614470578061445c88826143fc565b845260208401935050602081019050614449565b5050509392505050565b600082601f83011261448f5761448e6129ea565b5b815161449f848260208601614411565b91505092915050565b600067ffffffffffffffff8211156144c3576144c2612a05565b5b602082029050602081019050919050565b60006144e76144e284612a80565b612a65565b905082815260208101848484011115614503576145026129ef565b5b61450e848285612eeb565b509392505050565b600082601f83011261452b5761452a6129ea565b5b815161453b8482602086016144d4565b91505092915050565b6000614557614552846144a8565b612a65565b9050808382526020820190506020840283018581111561457a5761457961431f565b5b835b818110156145c157805167ffffffffffffffff81111561459f5761459e6129ea565b5b8086016145ac8982614516565b8552602085019450505060208101905061457c565b5050509392505050565b600082601f8301126145e0576145df6129ea565b5b81516145f0848260208601614544565b91505092915050565b60008060008060008060c0878903121561461657614615612982565b5b600087015167ffffffffffffffff81111561463457614633612987565b5b61464089828a016143a2565b965050602087015167ffffffffffffffff81111561466157614660612987565b5b61466d89828a0161447a565b955050604087015167ffffffffffffffff81111561468e5761468d612987565b5b61469a89828a0161447a565b945050606087015167ffffffffffffffff8111156146bb576146ba612987565b5b6146c789828a016145cb565b935050608087015167ffffffffffffffff8111156146e8576146e7612987565b5b6146f489828a016145cb565b92505060a087015167ffffffffffffffff81111561471557614714612987565b5b61472189828a016145cb565b9150509295509295509295565b600060e082019050614743600083018a6133a7565b61475060208301896133a7565b818103604083015261476281886133c7565b90506147716060830187612c48565b818103608083015261478381866133c7565b905061479260a0830185612c48565b61479f60c0830184612c48565b98975050505050505050565b6147b481612d27565b82525050565b60006080820190506147cf60008301876133a7565b6147dc60208301866133a7565b6147e960408301856147ab565b81810360608301526147fb81846133c7565b905095945050505050565b600080600080600060a0868803121561482257614821612982565b5b600086015167ffffffffffffffff8111156148405761483f612987565b5b61484c888289016145cb565b955050602086015167ffffffffffffffff81111561486d5761486c612987565b5b614879888289016145cb565b945050604086015167ffffffffffffffff81111561489a57614899612987565b5b6148a6888289016145cb565b935050606086015167ffffffffffffffff8111156148c7576148c6612987565b5b6148d3888289016145cb565b925050608086015167ffffffffffffffff8111156148f4576148f3612987565b5b614900888289016145cb565b9150509295509295909350565b600080600080600080600060e0888a03121561492c5761492b612982565b5b600061493a8a828b016143fc565b975050602088015167ffffffffffffffff81111561495b5761495a612987565b5b6149678a828b01614516565b965050604088015167ffffffffffffffff81111561498857614987612987565b5b6149948a828b01614516565b955050606088015167ffffffffffffffff8111156149b5576149b4612987565b5b6149c18a828b01614516565b945050608088015167ffffffffffffffff8111156149e2576149e1612987565b5b6149ee8a828b01614516565b93505060a088015167ffffffffffffffff811115614a0f57614a0e612987565b5b614a1b8a828b01614516565b92505060c088015167ffffffffffffffff811115614a3c57614a3b612987565b5b614a488a828b01614516565b91505092959891949750929550565b6000608082019050614a6c60008301876133a7565b614a7960208301866133a7565b8181036040830152614a8b81856133c7565b9050614a9a6060830184612c48565b95945050505050565b60008060008060008060c08789031215614ac057614abf612982565b5b600087015167ffffffffffffffff811115614ade57614add612987565b5b614aea89828a01614516565b9650506020614afb89828a01614266565b955050604087015167ffffffffffffffff811115614b1c57614b1b612987565b5b614b2889828a01614516565b9450506060614b3989828a01614266565b9350506080614b4a89828a01614266565b92505060a0614b5b89828a01614266565b9150509295509295509295565b600080600080600080600080610100898b031215614b8957614b88612982565b5b600089015167ffffffffffffffff811115614ba757614ba6612987565b5b614bb38b828c0161447a565b985050602089015167ffffffffffffffff811115614bd457614bd3612987565b5b614be08b828c016145cb565b975050604089015167ffffffffffffffff811115614c0157614c00612987565b5b614c0d8b828c016145cb565b965050606089015167ffffffffffffffff811115614c2e57614c2d612987565b5b614c3a8b828c016145cb565b955050608089015167ffffffffffffffff811115614c5b57614c5a612987565b5b614c678b828c016145cb565b94505060a089015167ffffffffffffffff811115614c8857614c87612987565b5b614c948b828c016145cb565b93505060c089015167ffffffffffffffff811115614cb557614cb4612987565b5b614cc18b828c016145cb565b92505060e089015167ffffffffffffffff811115614ce257614ce1612987565b5b614cee8b828c016145cb565b9150509295985092959890939650565b600061010082019050614d14600083018b6133a7565b8181036020830152614d26818a6133c7565b90508181036040830152614d3a81896133c7565b90508181036060830152614d4e81886133c7565b90508181036080830152614d6281876133c7565b905081810360a0830152614d7681866133c7565b905081810360c0830152614d8a81856133c7565b905081810360e0830152614d9e81846133c7565b90509998505050505050505050565b600067ffffffffffffffff821115614dc857614dc7612a05565b5b602082029050602081019050919050565b6000614dec614de784614dad565b612a65565b90508083825260208201905060208402830185811115614e0f57614e0e61431f565b5b835b81811015614e385780614e248882614266565b845260208401935050602081019050614e11565b5050509392505050565b600082601f830112614e5757614e566129ea565b5b8151614e67848260208601614dd9565b91505092915050565b60008060408385031215614e8757614e86612982565b5b600083015167ffffffffffffffff811115614ea557614ea4612987565b5b614eb1858286016145cb565b925050602083015167ffffffffffffffff811115614ed257614ed1612987565b5b614ede85828601614e42565b9150509250929050565b6000604082019050614efd60008301856133a7565b614f0a60208301846133a7565b9392505050565b60008060008060008060c08789031215614f2e57614f2d612982565b5b600087015167ffffffffffffffff811115614f4c57614f4b612987565b5b614f5889828a016145cb565b965050602087015167ffffffffffffffff811115614f7957614f78612987565b5b614f8589828a01614e42565b955050604087015167ffffffffffffffff811115614fa657614fa5612987565b5b614fb289828a016145cb565b945050606087015167ffffffffffffffff811115614fd357614fd2612987565b5b614fdf89828a01614e42565b935050608087015167ffffffffffffffff81111561500057614fff612987565b5b61500c89828a01614e42565b92505060a087015167ffffffffffffffff81111561502d5761502c612987565b5b61503989828a01614e42565b9150509295509295509295565b600080600080600080600060e0888a03121561506557615064612982565b5b600088015167ffffffffffffffff81111561508357615082612987565b5b61508f8a828b0161447a565b975050602088015167ffffffffffffffff8111156150b0576150af612987565b5b6150bc8a828b016145cb565b965050604088015167ffffffffffffffff8111156150dd576150dc612987565b5b6150e98a828b016145cb565b955050606088015167ffffffffffffffff81111561510a57615109612987565b5b6151168a828b016145cb565b945050608088015167ffffffffffffffff81111561513757615136612987565b5b6151438a828b016145cb565b93505060a088015167ffffffffffffffff81111561516457615163612987565b5b6151708a828b016145cb565b92505060c088015167ffffffffffffffff81111561519157615190612987565b5b61519d8a828b016145cb565b91505092959891949750929550565b600080600080600060a086880312156151c8576151c7612982565b5b600086015167ffffffffffffffff8111156151e6576151e5612987565b5b6151f28882890161447a565b955050602086015167ffffffffffffffff81111561521357615212612987565b5b61521f8882890161447a565b945050604086015167ffffffffffffffff8111156152405761523f612987565b5b61524c888289016145cb565b935050606086015167ffffffffffffffff81111561526d5761526c612987565b5b615279888289016145cb565b925050608086015167ffffffffffffffff81111561529a57615299612987565b5b6152a6888289016145cb565b9150509295509295909350565b60006060820190506152c860008301866133a7565b81810360208301526152da81856133c7565b905081810360408301526152ee81846133c7565b9050949350505050565b600067ffffffffffffffff82111561531357615312612a05565b5b602082029050602081019050919050565b61532d81613c92565b811461533857600080fd5b50565b60008151905061534a81615324565b92915050565b600061536361535e846152f8565b612a65565b905080838252602082019050602084028301858111156153865761538561431f565b5b835b818110156153af578061539b888261533b565b845260208401935050602081019050615388565b5050509392505050565b600082601f8301126153ce576153cd6129ea565b5b81516153de848260208601615350565b91505092915050565b600080600080600060a0868803121561540357615402612982565b5b600086015167ffffffffffffffff81111561542157615420612987565b5b61542d888289016153b9565b955050602086015167ffffffffffffffff81111561544e5761544d612987565b5b61545a888289016145cb565b945050604086015167ffffffffffffffff81111561547b5761547a612987565b5b615487888289016145cb565b935050606086015167ffffffffffffffff8111156154a8576154a7612987565b5b6154b4888289016145cb565b925050608086015167ffffffffffffffff8111156154d5576154d4612987565b5b6154e188828901614e42565b9150509295509295909350565b60008060008060008060c0878903121561550b5761550a612982565b5b600061551989828a016143fc565b965050602087015167ffffffffffffffff81111561553a57615539612987565b5b61554689828a01614516565b955050604087015167ffffffffffffffff81111561556757615566612987565b5b61557389828a01614516565b945050606087015167ffffffffffffffff81111561559457615593612987565b5b6155a089828a01614516565b935050608087015167ffffffffffffffff8111156155c1576155c0612987565b5b6155cd89828a01614516565b92505060a087015167ffffffffffffffff8111156155ee576155ed612987565b5b6155fa89828a01614516565b9150509295509295509295565b600060608201905061561c60008301866133a7565b818103602083015261562e81856133c7565b905061563d6040830184612c48565b949350505050565b60008060006060848603121561565e5761565d612982565b5b600061566c868287016143fc565b935050602061567d868287016143fc565b925050604084015167ffffffffffffffff81111561569e5761569d612987565b5b6156aa86828701614516565b9150509250925092565b600060a0820190506156c960008301886133a7565b81810360208301526156db81876133c7565b905081810360408301526156ef81866133c7565b9050818103606083015261570381856133c7565b90506157126080830184612c48565b9695505050505050565b60008060008060008060008060006101208a8c03121561573f5761573e612982565b5b600061574d8c828d016143fc565b99505060208a015167ffffffffffffffff81111561576e5761576d612987565b5b61577a8c828d01614516565b98505060408a015167ffffffffffffffff81111561579b5761579a612987565b5b6157a78c828d01614516565b97505060608a015167ffffffffffffffff8111156157c8576157c7612987565b5b6157d48c828d01614516565b96505060808a015167ffffffffffffffff8111156157f5576157f4612987565b5b6158018c828d01614516565b95505060a08a015167ffffffffffffffff81111561582257615821612987565b5b61582e8c828d01614516565b94505060c08a015167ffffffffffffffff81111561584f5761584e612987565b5b61585b8c828d01614516565b93505060e08a015167ffffffffffffffff81111561587c5761587b612987565b5b6158888c828d01614516565b9250506101008a015167ffffffffffffffff8111156158aa576158a9612987565b5b6158b68c828d01614516565b915050929598509295985092959856fea26469706673582212205fe13eddf61aa2854f1e72d5a4a63513e1a814afa3a19fcb40253166eb72578b64736f6c634300080b0033608060405234801561001057600080fd5b5061458e806100206000396000f3fe608060405234801561001057600080fd5b50600436106101165760003560e01c8063804fcf13116100a2578063a06b883d11610071578063a06b883d1461036a578063ac4b204914610386578063b24f7016146103b7578063d64b6913146103d3578063dcc45352146103f857610116565b8063804fcf13146102ba5780638ce211bc146102d65780638e8913931461030a578063961ecb5b1461033a57610116565b80633aff2cc5116100e95780633aff2cc5146101e85780633d746f0a1461021a57806360ccb204146102365780636704710714610252578063716b5ab41461028a57610116565b80630f53a4701461011b578063174ceeab146101535780632a631a5414610183578063390363fe146101b8575b600080fd5b6101356004803603810190610130919061353c565b610414565b60405161014a99989796959493929190613611565b60405180910390f35b61016d6004803603810190610168919061380b565b610ab3565b60405161017a9190613880565b60405180910390f35b61019d600480360381019061019891906138c7565b610bb1565b6040516101af969594939291906138f4565b60405180910390f35b6101d260048036038101906101cd9190613978565b610ec5565b6040516101df9190613880565b60405180910390f35b61020260048036038101906101fd91906138c7565b61100f565b60405161021193929190613a03565b60405180910390f35b610234600480360381019061022f9190613a41565b6110f1565b005b610250600480360381019061024b9190613b5a565b61131d565b005b61026c600480360381019061026791906138c7565b61143f565b60405161028199989796959493929190613611565b60405180910390f35b6102a4600480360381019061029f919061380b565b6118fd565b6040516102b19190613880565b60405180910390f35b6102d460048036038101906102cf9190613bc9565b6119fb565b005b6102f060048036038101906102eb919061353c565b611bb9565b604051610301959493929190613e7f565b60405180910390f35b610324600480360381019061031f919061353c565b61222b565b6040516103319190613880565b60405180910390f35b610354600480360381019061034f919061353c565b6122e8565b6040516103619190613880565b60405180910390f35b610384600480360381019061037f9190613b5a565b61239a565b005b6103a0600480360381019061039b919061353c565b612505565b6040516103ae929190613fb3565b60405180910390f35b6103d160048036038101906103cc9190613fea565b61276d565b005b6103db6129ab565b6040516103ef989796959493929190614222565b60405180910390f35b610412600480360381019061040d9190613a41565b6132d7565b005b600060608060608060608060608060005b600080549050811015610aa4578a73ffffffffffffffffffffffffffffffffffffffff166000828154811061045d5761045c6142d8565b5b906000526020600020906009020160000160009054906101000a900473ffffffffffffffffffffffffffffffffffffffff1673ffffffffffffffffffffffffffffffffffffffff161415610a9157600081815481106104bf576104be6142d8565b5b906000526020600020906009020160000160009054906101000a900473ffffffffffffffffffffffffffffffffffffffff1660008281548110610505576105046142d8565b5b90600052602060002090600902016001016000838154811061052a576105296142d8565b5b90600052602060002090600902016002016000848154811061054f5761054e6142d8565b5b906000526020600020906009020160030160008581548110610574576105736142d8565b5b906000526020600020906009020160040160008681548110610599576105986142d8565b5b9060005260206000209060090201600501600087815481106105be576105bd6142d8565b5b9060005260206000209060090201600601600088815481106105e3576105e26142d8565b5b906000526020600020906009020160070160008981548110610608576106076142d8565b5b906000526020600020906009020160080187805461062590614336565b80601f016020809104026020016040519081016040528092919081815260200182805461065190614336565b801561069e5780601f106106735761010080835404028352916020019161069e565b820191906000526020600020905b81548152906001019060200180831161068157829003601f168201915b505050505097508680546106b190614336565b80601f01602080910402602001604051908101604052809291908181526020018280546106dd90614336565b801561072a5780601f106106ff5761010080835404028352916020019161072a565b820191906000526020600020905b81548152906001019060200180831161070d57829003601f168201915b5050505050965085805461073d90614336565b80601f016020809104026020016040519081016040528092919081815260200182805461076990614336565b80156107b65780601f1061078b576101008083540402835291602001916107b6565b820191906000526020600020905b81548152906001019060200180831161079957829003601f168201915b505050505095508480546107c990614336565b80601f01602080910402602001604051908101604052809291908181526020018280546107f590614336565b80156108425780601f1061081757610100808354040283529160200191610842565b820191906000526020600020905b81548152906001019060200180831161082557829003601f168201915b5050505050945083805461085590614336565b80601f016020809104026020016040519081016040528092919081815260200182805461088190614336565b80156108ce5780601f106108a3576101008083540402835291602001916108ce565b820191906000526020600020905b8154815290600101906020018083116108b157829003601f168201915b505050505093508280546108e190614336565b80601f016020809104026020016040519081016040528092919081815260200182805461090d90614336565b801561095a5780601f1061092f5761010080835404028352916020019161095a565b820191906000526020600020905b81548152906001019060200180831161093d57829003601f168201915b5050505050925081805461096d90614336565b80601f016020809104026020016040519081016040528092919081815260200182805461099990614336565b80156109e65780601f106109bb576101008083540402835291602001916109e6565b820191906000526020600020905b8154815290600101906020018083116109c957829003601f168201915b505050505091508080546109f990614336565b80601f0160208091040260200160405190810160405280929190818152602001828054610a2590614336565b8015610a725780601f10610a4757610100808354040283529160200191610a72565b820191906000526020600020905b815481529060010190602001808311610a5557829003601f168201915b5050505050905099509950995099509950995099509950995050610aa6565b8080610a9c90614397565b915050610425565b505b9193959799909294969850565b600080600090505b600080549050811015610ba9578373ffffffffffffffffffffffffffffffffffffffff1660008281548110610af357610af26142d8565b5b906000526020600020906009020160000160009054906101000a900473ffffffffffffffffffffffffffffffffffffffff1673ffffffffffffffffffffffffffffffffffffffff16148015610b875750828051906020012060008281548110610b5f57610b5e6142d8565b5b9060005260206000209060090201600801604051610b7d919061447f565b6040518091039020145b15610b96576001915050610bab565b8080610ba190614397565b915050610abb565b505b92915050565b60028181548110610bc157600080fd5b90600052602060002090600602016000915090508060000160009054906101000a900473ffffffffffffffffffffffffffffffffffffffff1690806001018054610c0a90614336565b80601f0160208091040260200160405190810160405280929190818152602001828054610c3690614336565b8015610c835780601f10610c5857610100808354040283529160200191610c83565b820191906000526020600020905b815481529060010190602001808311610c6657829003601f168201915b505050505090806002018054610c9890614336565b80601f0160208091040260200160405190810160405280929190818152602001828054610cc490614336565b8015610d115780601f10610ce657610100808354040283529160200191610d11565b820191906000526020600020905b815481529060010190602001808311610cf457829003601f168201915b505050505090806003018054610d2690614336565b80601f0160208091040260200160405190810160405280929190818152602001828054610d5290614336565b8015610d9f5780601f10610d7457610100808354040283529160200191610d9f565b820191906000526020600020905b815481529060010190602001808311610d8257829003601f168201915b505050505090806004018054610db490614336565b80601f0160208091040260200160405190810160405280929190818152602001828054610de090614336565b8015610e2d5780601f10610e0257610100808354040283529160200191610e2d565b820191906000526020600020905b815481529060010190602001808311610e1057829003601f168201915b505050505090806005018054610e4290614336565b80601f0160208091040260200160405190810160405280929190818152602001828054610e6e90614336565b8015610ebb5780601f10610e9057610100808354040283529160200191610ebb565b820191906000526020600020905b815481529060010190602001808311610e9e57829003601f168201915b5050505050905086565b600080600090505b600280549050811015611006578473ffffffffffffffffffffffffffffffffffffffff1660028281548110610f0557610f046142d8565b5b906000526020600020906006020160000160009054906101000a900473ffffffffffffffffffffffffffffffffffffffff1673ffffffffffffffffffffffffffffffffffffffff16148015610f995750838051906020012060028281548110610f7157610f706142d8565b5b9060005260206000209060060201600101604051610f8f919061447f565b6040518091039020145b8015610fe45750828051906020012060028281548110610fbc57610fbb6142d8565b5b9060005260206000209060060201600201604051610fda919061447f565b6040518091039020145b15610ff3576001915050611008565b8080610ffe90614397565b915050610ecd565b505b9392505050565b6001818154811061101f57600080fd5b90600052602060002090600302016000915090508060000160009054906101000a900473ffffffffffffffffffffffffffffffffffffffff169080600101805461106890614336565b80601f016020809104026020016040519081016040528092919081815260200182805461109490614336565b80156110e15780601f106110b6576101008083540402835291602001916110e1565b820191906000526020600020905b8154815290600101906020018083116110c457829003601f168201915b5050505050908060020154905083565b60005b600280549050811015611314578673ffffffffffffffffffffffffffffffffffffffff166002828154811061112c5761112b6142d8565b5b906000526020600020906006020160000160009054906101000a900473ffffffffffffffffffffffffffffffffffffffff1673ffffffffffffffffffffffffffffffffffffffff16141561130157866002828154811061118f5761118e6142d8565b5b906000526020600020906006020160000160006101000a81548173ffffffffffffffffffffffffffffffffffffffff021916908373ffffffffffffffffffffffffffffffffffffffff16021790555085600282815481106111f3576111f26142d8565b5b90600052602060002090600602016001019080519060200190611217929190613427565b50846002828154811061122d5761122c6142d8565b5b90600052602060002090600602016002019080519060200190611251929190613427565b508360028281548110611267576112666142d8565b5b9060005260206000209060060201600301908051906020019061128b929190613427565b5082600282815481106112a1576112a06142d8565b5b906000526020600020906006020160040190805190602001906112c5929190613427565b5081600282815481106112db576112da6142d8565b5b906000526020600020906006020160050190805190602001906112ff929190613427565b505b808061130c90614397565b9150506110f4565b50505050505050565b6000811015801561132f575060648111155b61136e576040517f08c379a0000000000000000000000000000000000000000000000000000000008152600401611365906144e2565b60405180910390fd5b600160405180606001604052808573ffffffffffffffffffffffffffffffffffffffff16815260200184815260200183815250908060018154018082558091505060019003906000526020600020906003020160009091909190915060008201518160000160006101000a81548173ffffffffffffffffffffffffffffffffffffffff021916908373ffffffffffffffffffffffffffffffffffffffff160217905550602082015181600101908051906020019061142d929190613427565b50604082015181600201555050505050565b6000818154811061144f57600080fd5b90600052602060002090600902016000915090508060000160009054906101000a900473ffffffffffffffffffffffffffffffffffffffff169080600101805461149890614336565b80601f01602080910402602001604051908101604052809291908181526020018280546114c490614336565b80156115115780601f106114e657610100808354040283529160200191611511565b820191906000526020600020905b8154815290600101906020018083116114f457829003601f168201915b50505050509080600201805461152690614336565b80601f016020809104026020016040519081016040528092919081815260200182805461155290614336565b801561159f5780601f106115745761010080835404028352916020019161159f565b820191906000526020600020905b81548152906001019060200180831161158257829003601f168201915b5050505050908060030180546115b490614336565b80601f01602080910402602001604051908101604052809291908181526020018280546115e090614336565b801561162d5780601f106116025761010080835404028352916020019161162d565b820191906000526020600020905b81548152906001019060200180831161161057829003601f168201915b50505050509080600401805461164290614336565b80601f016020809104026020016040519081016040528092919081815260200182805461166e90614336565b80156116bb5780601f10611690576101008083540402835291602001916116bb565b820191906000526020600020905b81548152906001019060200180831161169e57829003601f168201915b5050505050908060050180546116d090614336565b80601f01602080910402602001604051908101604052809291908181526020018280546116fc90614336565b80156117495780601f1061171e57610100808354040283529160200191611749565b820191906000526020600020905b81548152906001019060200180831161172c57829003601f168201915b50505050509080600601805461175e90614336565b80601f016020809104026020016040519081016040528092919081815260200182805461178a90614336565b80156117d75780601f106117ac576101008083540402835291602001916117d7565b820191906000526020600020905b8154815290600101906020018083116117ba57829003601f168201915b5050505050908060070180546117ec90614336565b80601f016020809104026020016040519081016040528092919081815260200182805461181890614336565b80156118655780601f1061183a57610100808354040283529160200191611865565b820191906000526020600020905b81548152906001019060200180831161184857829003601f168201915b50505050509080600801805461187a90614336565b80601f01602080910402602001604051908101604052809291908181526020018280546118a690614336565b80156118f35780601f106118c8576101008083540402835291602001916118f3565b820191906000526020600020905b8154815290600101906020018083116118d657829003601f168201915b5050505050905089565b600080600090505b6001805490508110156119f3578373ffffffffffffffffffffffffffffffffffffffff166001828154811061193d5761193c6142d8565b5b906000526020600020906003020160000160009054906101000a900473ffffffffffffffffffffffffffffffffffffffff1673ffffffffffffffffffffffffffffffffffffffff161480156119d157508280519060200120600182815481106119a9576119a86142d8565b5b90600052602060002090600302016001016040516119c7919061447f565b6040518091039020145b156119e05760019150506119f5565b80806119eb90614397565b915050611905565b505b92915050565b60006040518061012001604052808b73ffffffffffffffffffffffffffffffffffffffff1681526020018a815260200189815260200188815260200187815260200186815260200185815260200184815260200183815250908060018154018082558091505060019003906000526020600020906009020160009091909190915060008201518160000160006101000a81548173ffffffffffffffffffffffffffffffffffffffff021916908373ffffffffffffffffffffffffffffffffffffffff1602179055506020820151816001019080519060200190611adf929190613427565b506040820151816002019080519060200190611afc929190613427565b506060820151816003019080519060200190611b19929190613427565b506080820151816004019080519060200190611b36929190613427565b5060a0820151816005019080519060200190611b53929190613427565b5060c0820151816006019080519060200190611b70929190613427565b5060e0820151816007019080519060200190611b8d929190613427565b50610100820151816008019080519060200190611bab929190613427565b505050505050505050505050565b6060806060806060600060028054905067ffffffffffffffff811115611be257611be16136e0565b5b604051908082528060200260200182016040528015611c1557816020015b6060815260200190600190039081611c005790505b509050600060028054905067ffffffffffffffff811115611c3957611c386136e0565b5b604051908082528060200260200182016040528015611c6c57816020015b6060815260200190600190039081611c575790505b509050600060028054905067ffffffffffffffff811115611c9057611c8f6136e0565b5b604051908082528060200260200182016040528015611cc357816020015b6060815260200190600190039081611cae5790505b509050600060028054905067ffffffffffffffff811115611ce757611ce66136e0565b5b604051908082528060200260200182016040528015611d1a57816020015b6060815260200190600190039081611d055790505b509050600060028054905067ffffffffffffffff811115611d3e57611d3d6136e0565b5b604051908082528060200260200182016040528015611d7157816020015b6060815260200190600190039081611d5c5790505b50905060005b60028054905081101561220d578b73ffffffffffffffffffffffffffffffffffffffff1660028281548110611daf57611dae6142d8565b5b906000526020600020906006020160000160009054906101000a900473ffffffffffffffffffffffffffffffffffffffff1673ffffffffffffffffffffffffffffffffffffffff1614156121fa5760028181548110611e1157611e106142d8565b5b90600052602060002090600602016001018054611e2d90614336565b80601f0160208091040260200160405190810160405280929190818152602001828054611e5990614336565b8015611ea65780601f10611e7b57610100808354040283529160200191611ea6565b820191906000526020600020905b815481529060010190602001808311611e8957829003601f168201915b5050505050868281518110611ebe57611ebd6142d8565b5b602002602001018190525060028181548110611edd57611edc6142d8565b5b90600052602060002090600602016002018054611ef990614336565b80601f0160208091040260200160405190810160405280929190818152602001828054611f2590614336565b8015611f725780601f10611f4757610100808354040283529160200191611f72565b820191906000526020600020905b815481529060010190602001808311611f5557829003601f168201915b5050505050858281518110611f8a57611f896142d8565b5b602002602001018190525060028181548110611fa957611fa86142d8565b5b90600052602060002090600602016003018054611fc590614336565b80601f0160208091040260200160405190810160405280929190818152602001828054611ff190614336565b801561203e5780601f106120135761010080835404028352916020019161203e565b820191906000526020600020905b81548152906001019060200180831161202157829003601f168201915b5050505050848281518110612056576120556142d8565b5b602002602001018190525060028181548110612075576120746142d8565b5b9060005260206000209060060201600401805461209190614336565b80601f01602080910402602001604051908101604052809291908181526020018280546120bd90614336565b801561210a5780601f106120df5761010080835404028352916020019161210a565b820191906000526020600020905b8154815290600101906020018083116120ed57829003601f168201915b5050505050838281518110612122576121216142d8565b5b602002602001018190525060028181548110612141576121406142d8565b5b9060005260206000209060060201600501805461215d90614336565b80601f016020809104026020016040519081016040528092919081815260200182805461218990614336565b80156121d65780601f106121ab576101008083540402835291602001916121d6565b820191906000526020600020905b8154815290600101906020018083116121b957829003601f168201915b50505050508282815181106121ee576121ed6142d8565b5b60200260200101819052505b808061220590614397565b915050611d77565b50848484848499509950995099509950505050505091939590929450565b6000806000905060005b6001805490508110156122de578373ffffffffffffffffffffffffffffffffffffffff166001828154811061226d5761226c6142d8565b5b906000526020600020906003020160000160009054906101000a900473ffffffffffffffffffffffffffffffffffffffff1673ffffffffffffffffffffffffffffffffffffffff1614156122cb576001826122c89190614502565b91505b80806122d690614397565b915050612235565b5080915050919050565b600080600090505b600080549050811015612393578273ffffffffffffffffffffffffffffffffffffffff1660008281548110612328576123276142d8565b5b906000526020600020906009020160000160009054906101000a900473ffffffffffffffffffffffffffffffffffffffff1673ffffffffffffffffffffffffffffffffffffffff161415612380576001915050612395565b808061238b90614397565b9150506122f0565b505b919050565b60005b6001805490508110156124ff578373ffffffffffffffffffffffffffffffffffffffff16600182815481106123d5576123d46142d8565b5b906000526020600020906003020160000160009054906101000a900473ffffffffffffffffffffffffffffffffffffffff1673ffffffffffffffffffffffffffffffffffffffff1614156124ec578360018281548110612438576124376142d8565b5b906000526020600020906003020160000160006101000a81548173ffffffffffffffffffffffffffffffffffffffff021916908373ffffffffffffffffffffffffffffffffffffffff160217905550826001828154811061249c5761249b6142d8565b5b906000526020600020906003020160010190805190602001906124c0929190613427565b5081600182815481106124d6576124d56142d8565b5b9060005260206000209060030201600201819055505b80806124f790614397565b91505061239d565b50505050565b606080600060018054905067ffffffffffffffff811115612529576125286136e0565b5b60405190808252806020026020018201604052801561255c57816020015b60608152602001906001900390816125475790505b509050600060018054905067ffffffffffffffff8111156125805761257f6136e0565b5b6040519080825280602002602001820160405280156125ae5781602001602082028036833780820191505090505b50905060005b60018054905081101561275f578573ffffffffffffffffffffffffffffffffffffffff16600182815481106125ec576125eb6142d8565b5b906000526020600020906003020160000160009054906101000a900473ffffffffffffffffffffffffffffffffffffffff1673ffffffffffffffffffffffffffffffffffffffff16141561274c576001818154811061264e5761264d6142d8565b5b9060005260206000209060030201600101805461266a90614336565b80601f016020809104026020016040519081016040528092919081815260200182805461269690614336565b80156126e35780601f106126b8576101008083540402835291602001916126e3565b820191906000526020600020905b8154815290600101906020018083116126c657829003601f168201915b50505050508382815181106126fb576126fa6142d8565b5b60200260200101819052506001818154811061271a576127196142d8565b5b90600052602060002090600302016002015482828151811061273f5761273e6142d8565b5b6020026020010181815250505b808061275790614397565b9150506125b4565b508181935093505050915091565b60005b6000805490508110156129a0578873ffffffffffffffffffffffffffffffffffffffff16600082815481106127a8576127a76142d8565b5b906000526020600020906009020160000160009054906101000a900473ffffffffffffffffffffffffffffffffffffffff1673ffffffffffffffffffffffffffffffffffffffff16141561298d57876000828154811061280b5761280a6142d8565b5b9060005260206000209060090201600101908051906020019061282f929190613427565b508660008281548110612845576128446142d8565b5b90600052602060002090600902016002019080519060200190612869929190613427565b50856000828154811061287f5761287e6142d8565b5b906000526020600020906009020160030190805190602001906128a3929190613427565b5084600082815481106128b9576128b86142d8565b5b906000526020600020906009020160040190805190602001906128dd929190613427565b5083600082815481106128f3576128f26142d8565b5b90600052602060002090600902016005019080519060200190612917929190613427565b50826000828154811061292d5761292c6142d8565b5b90600052602060002090600902016006019080519060200190612951929190613427565b508160008281548110612967576129666142d8565b5b9060005260206000209060090201600701908051906020019061298b929190613427565b505b808061299890614397565b915050612770565b505050505050505050565b6060806060806060806060806000808054905067ffffffffffffffff8111156129d7576129d66136e0565b5b604051908082528060200260200182016040528015612a055781602001602082028036833780820191505090505b5090506000808054905067ffffffffffffffff811115612a2857612a276136e0565b5b604051908082528060200260200182016040528015612a5b57816020015b6060815260200190600190039081612a465790505b5090506000808054905067ffffffffffffffff811115612a7e57612a7d6136e0565b5b604051908082528060200260200182016040528015612ab157816020015b6060815260200190600190039081612a9c5790505b5090506000808054905067ffffffffffffffff811115612ad457612ad36136e0565b5b604051908082528060200260200182016040528015612b0757816020015b6060815260200190600190039081612af25790505b5090506000808054905067ffffffffffffffff811115612b2a57612b296136e0565b5b604051908082528060200260200182016040528015612b5d57816020015b6060815260200190600190039081612b485790505b5090506000808054905067ffffffffffffffff811115612b8057612b7f6136e0565b5b604051908082528060200260200182016040528015612bb357816020015b6060815260200190600190039081612b9e5790505b5090506000808054905067ffffffffffffffff811115612bd657612bd56136e0565b5b604051908082528060200260200182016040528015612c0957816020015b6060815260200190600190039081612bf45790505b5090506000808054905067ffffffffffffffff811115612c2c57612c2b6136e0565b5b604051908082528060200260200182016040528015612c5f57816020015b6060815260200190600190039081612c4a5790505b50905060005b6000805490508110156132ac5760008181548110612c8657612c856142d8565b5b906000526020600020906009020160000160009054906101000a900473ffffffffffffffffffffffffffffffffffffffff16898281518110612ccb57612cca6142d8565b5b602002602001019073ffffffffffffffffffffffffffffffffffffffff16908173ffffffffffffffffffffffffffffffffffffffff168152505060008181548110612d1957612d186142d8565b5b90600052602060002090600902016001018054612d3590614336565b80601f0160208091040260200160405190810160405280929190818152602001828054612d6190614336565b8015612dae5780601f10612d8357610100808354040283529160200191612dae565b820191906000526020600020905b815481529060010190602001808311612d9157829003601f168201915b5050505050888281518110612dc657612dc56142d8565b5b602002602001018190525060008181548110612de557612de46142d8565b5b90600052602060002090600902016002018054612e0190614336565b80601f0160208091040260200160405190810160405280929190818152602001828054612e2d90614336565b8015612e7a5780601f10612e4f57610100808354040283529160200191612e7a565b820191906000526020600020905b815481529060010190602001808311612e5d57829003601f168201915b5050505050878281518110612e9257612e916142d8565b5b602002602001018190525060008181548110612eb157612eb06142d8565b5b90600052602060002090600902016003018054612ecd90614336565b80601f0160208091040260200160405190810160405280929190818152602001828054612ef990614336565b8015612f465780601f10612f1b57610100808354040283529160200191612f46565b820191906000526020600020905b815481529060010190602001808311612f2957829003601f168201915b5050505050868281518110612f5e57612f5d6142d8565b5b602002602001018190525060008181548110612f7d57612f7c6142d8565b5b90600052602060002090600902016004018054612f9990614336565b80601f0160208091040260200160405190810160405280929190818152602001828054612fc590614336565b80156130125780601f10612fe757610100808354040283529160200191613012565b820191906000526020600020905b815481529060010190602001808311612ff557829003601f168201915b505050505085828151811061302a576130296142d8565b5b602002602001018190525060008181548110613049576130486142d8565b5b9060005260206000209060090201600501805461306590614336565b80601f016020809104026020016040519081016040528092919081815260200182805461309190614336565b80156130de5780601f106130b3576101008083540402835291602001916130de565b820191906000526020600020905b8154815290600101906020018083116130c157829003601f168201915b50505050508482815181106130f6576130f56142d8565b5b602002602001018190525060008181548110613115576131146142d8565b5b9060005260206000209060090201600601805461313190614336565b80601f016020809104026020016040519081016040528092919081815260200182805461315d90614336565b80156131aa5780601f1061317f576101008083540402835291602001916131aa565b820191906000526020600020905b81548152906001019060200180831161318d57829003601f168201915b50505050508382815181106131c2576131c16142d8565b5b6020026020010181905250600081815481106131e1576131e06142d8565b5b906000526020600020906009020160070180546131fd90614336565b80601f016020809104026020016040519081016040528092919081815260200182805461322990614336565b80156132765780601f1061324b57610100808354040283529160200191613276565b820191906000526020600020905b81548152906001019060200180831161325957829003601f168201915b505050505082828151811061328e5761328d6142d8565b5b602002602001018190525080806132a490614397565b915050612c65565b5087878787878787879f509f509f509f509f509f509f509f5050505050505050509091929394959697565b60026040518060c001604052808873ffffffffffffffffffffffffffffffffffffffff16815260200187815260200186815260200185815260200184815260200183815250908060018154018082558091505060019003906000526020600020906006020160009091909190915060008201518160000160006101000a81548173ffffffffffffffffffffffffffffffffffffffff021916908373ffffffffffffffffffffffffffffffffffffffff16021790555060208201518160010190805190602001906133a8929190613427565b5060408201518160020190805190602001906133c5929190613427565b5060608201518160030190805190602001906133e2929190613427565b5060808201518160040190805190602001906133ff929190613427565b5060a082015181600501908051906020019061341c929190613427565b505050505050505050565b82805461343390614336565b90600052602060002090601f016020900481019282613455576000855561349c565b82601f1061346e57805160ff191683800117855561349c565b8280016001018555821561349c579182015b8281111561349b578251825591602001919060010190613480565b5b5090506134a991906134ad565b5090565b5b808211156134c65760008160009055506001016134ae565b5090565b6000604051905090565b600080fd5b600080fd5b600073ffffffffffffffffffffffffffffffffffffffff82169050919050565b6000613509826134de565b9050919050565b613519816134fe565b811461352457600080fd5b50565b60008135905061353681613510565b92915050565b600060208284031215613552576135516134d4565b5b600061356084828501613527565b91505092915050565b613572816134fe565b82525050565b600081519050919050565b600082825260208201905092915050565b60005b838110156135b2578082015181840152602081019050613597565b838111156135c1576000848401525b50505050565b6000601f19601f8301169050919050565b60006135e382613578565b6135ed8185613583565b93506135fd818560208601613594565b613606816135c7565b840191505092915050565b600061012082019050613627600083018c613569565b8181036020830152613639818b6135d8565b9050818103604083015261364d818a6135d8565b9050818103606083015261366181896135d8565b9050818103608083015261367581886135d8565b905081810360a083015261368981876135d8565b905081810360c083015261369d81866135d8565b905081810360e08301526136b181856135d8565b90508181036101008301526136c681846135d8565b90509a9950505050505050505050565b600080fd5b600080fd5b7f4e487b7100000000000000000000000000000000000000000000000000000000600052604160045260246000fd5b613718826135c7565b810181811067ffffffffffffffff82111715613737576137366136e0565b5b80604052505050565b600061374a6134ca565b9050613756828261370f565b919050565b600067ffffffffffffffff821115613776576137756136e0565b5b61377f826135c7565b9050602081019050919050565b82818337600083830152505050565b60006137ae6137a98461375b565b613740565b9050828152602081018484840111156137ca576137c96136db565b5b6137d584828561378c565b509392505050565b600082601f8301126137f2576137f16136d6565b5b813561380284826020860161379b565b91505092915050565b60008060408385031215613822576138216134d4565b5b600061383085828601613527565b925050602083013567ffffffffffffffff811115613851576138506134d9565b5b61385d858286016137dd565b9150509250929050565b6000819050919050565b61387a81613867565b82525050565b60006020820190506138956000830184613871565b92915050565b6138a481613867565b81146138af57600080fd5b50565b6000813590506138c18161389b565b92915050565b6000602082840312156138dd576138dc6134d4565b5b60006138eb848285016138b2565b91505092915050565b600060c0820190506139096000830189613569565b818103602083015261391b81886135d8565b9050818103604083015261392f81876135d8565b9050818103606083015261394381866135d8565b9050818103608083015261395781856135d8565b905081810360a083015261396b81846135d8565b9050979650505050505050565b600080600060608486031215613991576139906134d4565b5b600061399f86828701613527565b935050602084013567ffffffffffffffff8111156139c0576139bf6134d9565b5b6139cc868287016137dd565b925050604084013567ffffffffffffffff8111156139ed576139ec6134d9565b5b6139f9868287016137dd565b9150509250925092565b6000606082019050613a186000830186613569565b8181036020830152613a2a81856135d8565b9050613a396040830184613871565b949350505050565b60008060008060008060c08789031215613a5e57613a5d6134d4565b5b6000613a6c89828a01613527565b965050602087013567ffffffffffffffff811115613a8d57613a8c6134d9565b5b613a9989828a016137dd565b955050604087013567ffffffffffffffff811115613aba57613ab96134d9565b5b613ac689828a016137dd565b945050606087013567ffffffffffffffff811115613ae757613ae66134d9565b5b613af389828a016137dd565b935050608087013567ffffffffffffffff811115613b1457613b136134d9565b5b613b2089828a016137dd565b92505060a087013567ffffffffffffffff811115613b4157613b406134d9565b5b613b4d89828a016137dd565b9150509295509295509295565b600080600060608486031215613b7357613b726134d4565b5b6000613b8186828701613527565b935050602084013567ffffffffffffffff811115613ba257613ba16134d9565b5b613bae868287016137dd565b9250506040613bbf868287016138b2565b9150509250925092565b60008060008060008060008060006101208a8c031215613bec57613beb6134d4565b5b6000613bfa8c828d01613527565b99505060208a013567ffffffffffffffff811115613c1b57613c1a6134d9565b5b613c278c828d016137dd565b98505060408a013567ffffffffffffffff811115613c4857613c476134d9565b5b613c548c828d016137dd565b97505060608a013567ffffffffffffffff811115613c7557613c746134d9565b5b613c818c828d016137dd565b96505060808a013567ffffffffffffffff811115613ca257613ca16134d9565b5b613cae8c828d016137dd565b95505060a08a013567ffffffffffffffff811115613ccf57613cce6134d9565b5b613cdb8c828d016137dd565b94505060c08a013567ffffffffffffffff811115613cfc57613cfb6134d9565b5b613d088c828d016137dd565b93505060e08a013567ffffffffffffffff811115613d2957613d286134d9565b5b613d358c828d016137dd565b9250506101008a013567ffffffffffffffff811115613d5757613d566134d9565b5b613d638c828d016137dd565b9150509295985092959850929598565b600081519050919050565b600082825260208201905092915050565b6000819050602082019050919050565b600082825260208201905092915050565b6000613dbb82613578565b613dc58185613d9f565b9350613dd5818560208601613594565b613dde816135c7565b840191505092915050565b6000613df58383613db0565b905092915050565b6000602082019050919050565b6000613e1582613d73565b613e1f8185613d7e565b935083602082028501613e3185613d8f565b8060005b85811015613e6d5784840389528151613e4e8582613de9565b9450613e5983613dfd565b925060208a01995050600181019050613e35565b50829750879550505050505092915050565b600060a0820190508181036000830152613e998188613e0a565b90508181036020830152613ead8187613e0a565b90508181036040830152613ec18186613e0a565b90508181036060830152613ed58185613e0a565b90508181036080830152613ee98184613e0a565b90509695505050505050565b600081519050919050565b600082825260208201905092915050565b6000819050602082019050919050565b613f2a81613867565b82525050565b6000613f3c8383613f21565b60208301905092915050565b6000602082019050919050565b6000613f6082613ef5565b613f6a8185613f00565b9350613f7583613f11565b8060005b83811015613fa6578151613f8d8882613f30565b9750613f9883613f48565b925050600181019050613f79565b5085935050505092915050565b60006040820190508181036000830152613fcd8185613e0a565b90508181036020830152613fe18184613f55565b90509392505050565b600080600080600080600080610100898b03121561400b5761400a6134d4565b5b60006140198b828c01613527565b985050602089013567ffffffffffffffff81111561403a576140396134d9565b5b6140468b828c016137dd565b975050604089013567ffffffffffffffff811115614067576140666134d9565b5b6140738b828c016137dd565b965050606089013567ffffffffffffffff811115614094576140936134d9565b5b6140a08b828c016137dd565b955050608089013567ffffffffffffffff8111156140c1576140c06134d9565b5b6140cd8b828c016137dd565b94505060a089013567ffffffffffffffff8111156140ee576140ed6134d9565b5b6140fa8b828c016137dd565b93505060c089013567ffffffffffffffff81111561411b5761411a6134d9565b5b6141278b828c016137dd565b92505060e089013567ffffffffffffffff811115614148576141476134d9565b5b6141548b828c016137dd565b9150509295985092959890939650565b600081519050919050565b600082825260208201905092915050565b6000819050602082019050919050565b614199816134fe565b82525050565b60006141ab8383614190565b60208301905092915050565b6000602082019050919050565b60006141cf82614164565b6141d9818561416f565b93506141e483614180565b8060005b838110156142155781516141fc888261419f565b9750614207836141b7565b9250506001810190506141e8565b5085935050505092915050565b600061010082019050818103600083015261423d818b6141c4565b90508181036020830152614251818a613e0a565b905081810360408301526142658189613e0a565b905081810360608301526142798188613e0a565b9050818103608083015261428d8187613e0a565b905081810360a08301526142a18186613e0a565b905081810360c08301526142b58185613e0a565b905081810360e08301526142c98184613e0a565b90509998505050505050505050565b7f4e487b7100000000000000000000000000000000000000000000000000000000600052603260045260246000fd5b7f4e487b7100000000000000000000000000000000000000000000000000000000600052602260045260246000fd5b6000600282049050600182168061434e57607f821691505b6020821081141561436257614361614307565b5b50919050565b7f4e487b7100000000000000000000000000000000000000000000000000000000600052601160045260246000fd5b60006143a282613867565b91507fffffffffffffffffffffffffffffffffffffffffffffffffffffffffffffffff8214156143d5576143d4614368565b5b600182019050919050565b600081905092915050565b60008190508160005260206000209050919050565b6000815461440d81614336565b61441781866143e0565b94506001821660008114614432576001811461444357614476565b60ff19831686528186019350614476565b61444c856143eb565b60005b8381101561446e5781548189015260018201915060208101905061444f565b838801955050505b50505092915050565b600061448b8284614400565b915081905092915050565b7f4c6576656c206f6620736b696c6c20696e636f72726563742e00000000000000600082015250565b60006144cc601983613583565b91506144d782614496565b602082019050919050565b600060208201905081810360008301526144fb816144bf565b9050919050565b600061450d82613867565b915061451883613867565b9250827fffffffffffffffffffffffffffffffffffffffffffffffffffffffffffffffff0382111561454d5761454c614368565b5b82820190509291505056fea2646970667358221220364325b3b0a3cecf6eee645b6ba8e2a799e5c7bdfb4a9015bb10015ae686faec64736f6c634300080b0033608060405234801561001057600080fd5b50612610806100206000396000f3fe608060405234801561001057600080fd5b506004361061007d5760003560e01c8063bf44b3031161005b578063bf44b30314610104578063c6fe410a1461013b578063cfafbc0c1461016b578063e045b710146101905761007d565b80630f53a4701461008257806323b6d993146100b8578063a7dba184146100d4575b600080fd5b61009c60048036038101906100979190611a9d565b6101ac565b6040516100af9796959493929190611b72565b60405180910390f35b6100d260048036038101906100cd9190611d40565b6106e0565b005b6100ee60048036038101906100e99190611e8a565b6108e3565b6040516100fb9190611eff565b60405180910390f35b61011e60048036038101906101199190611f46565b6109e1565b604051610132989796959493929190611f73565b60405180910390f35b61015560048036038101906101509190611a9d565b610e11565b6040516101629190611eff565b60405180910390f35b610173610ec3565b6040516101879897969594939291906121ec565b60405180910390f35b6101aa60048036038101906101a591906122a2565b6117ef565b005b600060608060608060608060005b6000805490508110156106d3578873ffffffffffffffffffffffffffffffffffffffff16600082815481106101f2576101f161241c565b5b906000526020600020906008020160000160009054906101000a900473ffffffffffffffffffffffffffffffffffffffff1673ffffffffffffffffffffffffffffffffffffffff1614156106c057600081815481106102545761025361241c565b5b906000526020600020906008020160000160009054906101000a900473ffffffffffffffffffffffffffffffffffffffff166000828154811061029a5761029961241c565b5b9060005260206000209060080201600101600083815481106102bf576102be61241c565b5b9060005260206000209060080201600201600084815481106102e4576102e361241c565b5b9060005260206000209060080201600301600085815481106103095761030861241c565b5b90600052602060002090600802016004016000868154811061032e5761032d61241c565b5b9060005260206000209060080201600501600087815481106103535761035261241c565b5b90600052602060002090600802016006018580546103709061247a565b80601f016020809104026020016040519081016040528092919081815260200182805461039c9061247a565b80156103e95780601f106103be576101008083540402835291602001916103e9565b820191906000526020600020905b8154815290600101906020018083116103cc57829003601f168201915b505050505095508480546103fc9061247a565b80601f01602080910402602001604051908101604052809291908181526020018280546104289061247a565b80156104755780601f1061044a57610100808354040283529160200191610475565b820191906000526020600020905b81548152906001019060200180831161045857829003601f168201915b505050505094508380546104889061247a565b80601f01602080910402602001604051908101604052809291908181526020018280546104b49061247a565b80156105015780601f106104d657610100808354040283529160200191610501565b820191906000526020600020905b8154815290600101906020018083116104e457829003601f168201915b505050505093508280546105149061247a565b80601f01602080910402602001604051908101604052809291908181526020018280546105409061247a565b801561058d5780601f106105625761010080835404028352916020019161058d565b820191906000526020600020905b81548152906001019060200180831161057057829003601f168201915b505050505092508180546105a09061247a565b80601f01602080910402602001604051908101604052809291908181526020018280546105cc9061247a565b80156106195780601f106105ee57610100808354040283529160200191610619565b820191906000526020600020905b8154815290600101906020018083116105fc57829003601f168201915b5050505050915080805461062c9061247a565b80601f01602080910402602001604051908101604052809291908181526020018280546106589061247a565b80156106a55780601f1061067a576101008083540402835291602001916106a5565b820191906000526020600020905b81548152906001019060200180831161068857829003601f168201915b505050505090509750975097509750975097509750506106d5565b80806106cb906124db565b9150506101ba565b505b919395979092949650565b60005b6000805490508110156108d9578773ffffffffffffffffffffffffffffffffffffffff166000828154811061071b5761071a61241c565b5b906000526020600020906008020160000160009054906101000a900473ffffffffffffffffffffffffffffffffffffffff1673ffffffffffffffffffffffffffffffffffffffff1614156108c657866000828154811061077e5761077d61241c565b5b906000526020600020906008020160010190805190602001906107a2929190611988565b5085600082815481106107b8576107b761241c565b5b906000526020600020906008020160020190805190602001906107dc929190611988565b5084600082815481106107f2576107f161241c565b5b90600052602060002090600802016003019080519060200190610816929190611988565b50836000828154811061082c5761082b61241c565b5b90600052602060002090600802016004019080519060200190610850929190611988565b5082600082815481106108665761086561241c565b5b9060005260206000209060080201600501908051906020019061088a929190611988565b5081600082815481106108a05761089f61241c565b5b906000526020600020906008020160060190805190602001906108c4929190611988565b505b80806108d1906124db565b9150506106e3565b5050505050505050565b600080600090505b6000805490508110156109d9578373ffffffffffffffffffffffffffffffffffffffff16600082815481106109235761092261241c565b5b906000526020600020906008020160000160009054906101000a900473ffffffffffffffffffffffffffffffffffffffff1673ffffffffffffffffffffffffffffffffffffffff161480156109b7575082805190602001206000828154811061098f5761098e61241c565b5b90600052602060002090600802016007016040516109ad91906125c3565b6040518091039020145b156109c65760019150506109db565b80806109d1906124db565b9150506108eb565b505b92915050565b600081815481106109f157600080fd5b90600052602060002090600802016000915090508060000160009054906101000a900473ffffffffffffffffffffffffffffffffffffffff1690806001018054610a3a9061247a565b80601f0160208091040260200160405190810160405280929190818152602001828054610a669061247a565b8015610ab35780601f10610a8857610100808354040283529160200191610ab3565b820191906000526020600020905b815481529060010190602001808311610a9657829003601f168201915b505050505090806002018054610ac89061247a565b80601f0160208091040260200160405190810160405280929190818152602001828054610af49061247a565b8015610b415780601f10610b1657610100808354040283529160200191610b41565b820191906000526020600020905b815481529060010190602001808311610b2457829003601f168201915b505050505090806003018054610b569061247a565b80601f0160208091040260200160405190810160405280929190818152602001828054610b829061247a565b8015610bcf5780601f10610ba457610100808354040283529160200191610bcf565b820191906000526020600020905b815481529060010190602001808311610bb257829003601f168201915b505050505090806004018054610be49061247a565b80601f0160208091040260200160405190810160405280929190818152602001828054610c109061247a565b8015610c5d5780601f10610c3257610100808354040283529160200191610c5d565b820191906000526020600020905b815481529060010190602001808311610c4057829003601f168201915b505050505090806005018054610c729061247a565b80601f0160208091040260200160405190810160405280929190818152602001828054610c9e9061247a565b8015610ceb5780601f10610cc057610100808354040283529160200191610ceb565b820191906000526020600020905b815481529060010190602001808311610cce57829003601f168201915b505050505090806006018054610d009061247a565b80601f0160208091040260200160405190810160405280929190818152602001828054610d2c9061247a565b8015610d795780601f10610d4e57610100808354040283529160200191610d79565b820191906000526020600020905b815481529060010190602001808311610d5c57829003601f168201915b505050505090806007018054610d8e9061247a565b80601f0160208091040260200160405190810160405280929190818152602001828054610dba9061247a565b8015610e075780601f10610ddc57610100808354040283529160200191610e07565b820191906000526020600020905b815481529060010190602001808311610dea57829003601f168201915b5050505050905088565b600080600090505b600080549050811015610ebc578273ffffffffffffffffffffffffffffffffffffffff1660008281548110610e5157610e5061241c565b5b906000526020600020906008020160000160009054906101000a900473ffffffffffffffffffffffffffffffffffffffff1673ffffffffffffffffffffffffffffffffffffffff161415610ea9576001915050610ebe565b8080610eb4906124db565b915050610e19565b505b919050565b6060806060806060806060806000808054905067ffffffffffffffff811115610eef57610eee611c15565b5b604051908082528060200260200182016040528015610f1d5781602001602082028036833780820191505090505b5090506000808054905067ffffffffffffffff811115610f4057610f3f611c15565b5b604051908082528060200260200182016040528015610f7357816020015b6060815260200190600190039081610f5e5790505b5090506000808054905067ffffffffffffffff811115610f9657610f95611c15565b5b604051908082528060200260200182016040528015610fc957816020015b6060815260200190600190039081610fb45790505b5090506000808054905067ffffffffffffffff811115610fec57610feb611c15565b5b60405190808252806020026020018201604052801561101f57816020015b606081526020019060019003908161100a5790505b5090506000808054905067ffffffffffffffff81111561104257611041611c15565b5b60405190808252806020026020018201604052801561107557816020015b60608152602001906001900390816110605790505b5090506000808054905067ffffffffffffffff81111561109857611097611c15565b5b6040519080825280602002602001820160405280156110cb57816020015b60608152602001906001900390816110b65790505b5090506000808054905067ffffffffffffffff8111156110ee576110ed611c15565b5b60405190808252806020026020018201604052801561112157816020015b606081526020019060019003908161110c5790505b5090506000808054905067ffffffffffffffff81111561114457611143611c15565b5b60405190808252806020026020018201604052801561117757816020015b60608152602001906001900390816111625790505b50905060005b6000805490508110156117c4576000818154811061119e5761119d61241c565b5b906000526020600020906008020160000160009054906101000a900473ffffffffffffffffffffffffffffffffffffffff168982815181106111e3576111e261241c565b5b602002602001019073ffffffffffffffffffffffffffffffffffffffff16908173ffffffffffffffffffffffffffffffffffffffff1681525050600081815481106112315761123061241c565b5b9060005260206000209060080201600101805461124d9061247a565b80601f01602080910402602001604051908101604052809291908181526020018280546112799061247a565b80156112c65780601f1061129b576101008083540402835291602001916112c6565b820191906000526020600020905b8154815290600101906020018083116112a957829003601f168201915b50505050508882815181106112de576112dd61241c565b5b6020026020010181905250600081815481106112fd576112fc61241c565b5b906000526020600020906008020160020180546113199061247a565b80601f01602080910402602001604051908101604052809291908181526020018280546113459061247a565b80156113925780601f1061136757610100808354040283529160200191611392565b820191906000526020600020905b81548152906001019060200180831161137557829003601f168201915b50505050508782815181106113aa576113a961241c565b5b6020026020010181905250600081815481106113c9576113c861241c565b5b906000526020600020906008020160030180546113e59061247a565b80601f01602080910402602001604051908101604052809291908181526020018280546114119061247a565b801561145e5780601f106114335761010080835404028352916020019161145e565b820191906000526020600020905b81548152906001019060200180831161144157829003601f168201915b50505050508682815181106114765761147561241c565b5b6020026020010181905250600081815481106114955761149461241c565b5b906000526020600020906008020160040180546114b19061247a565b80601f01602080910402602001604051908101604052809291908181526020018280546114dd9061247a565b801561152a5780601f106114ff5761010080835404028352916020019161152a565b820191906000526020600020905b81548152906001019060200180831161150d57829003601f168201915b50505050508582815181106115425761154161241c565b5b6020026020010181905250600081815481106115615761156061241c565b5b9060005260206000209060080201600501805461157d9061247a565b80601f01602080910402602001604051908101604052809291908181526020018280546115a99061247a565b80156115f65780601f106115cb576101008083540402835291602001916115f6565b820191906000526020600020905b8154815290600101906020018083116115d957829003601f168201915b505050505084828151811061160e5761160d61241c565b5b60200260200101819052506000818154811061162d5761162c61241c565b5b906000526020600020906008020160060180546116499061247a565b80601f01602080910402602001604051908101604052809291908181526020018280546116759061247a565b80156116c25780601f10611697576101008083540402835291602001916116c2565b820191906000526020600020905b8154815290600101906020018083116116a557829003601f168201915b50505050508382815181106116da576116d961241c565b5b6020026020010181905250600081815481106116f9576116f861241c565b5b906000526020600020906008020160070180546117159061247a565b80601f01602080910402602001604051908101604052809291908181526020018280546117419061247a565b801561178e5780601f106117635761010080835404028352916020019161178e565b820191906000526020600020905b81548152906001019060200180831161177157829003601f168201915b50505050508282815181106117a6576117a561241c565b5b602002602001018190525080806117bc906124db565b91505061117d565b5087878787878787879f509f509f509f509f509f509f509f5050505050505050509091929394959697565b60006040518061010001604052808a73ffffffffffffffffffffffffffffffffffffffff16815260200189815260200188815260200187815260200186815260200185815260200184815260200183815250908060018154018082558091505060019003906000526020600020906008020160009091909190915060008201518160000160006101000a81548173ffffffffffffffffffffffffffffffffffffffff021916908373ffffffffffffffffffffffffffffffffffffffff16021790555060208201518160010190805190602001906118cd929190611988565b5060408201518160020190805190602001906118ea929190611988565b506060820151816003019080519060200190611907929190611988565b506080820151816004019080519060200190611924929190611988565b5060a0820151816005019080519060200190611941929190611988565b5060c082015181600601908051906020019061195e929190611988565b5060e082015181600701908051906020019061197b929190611988565b5050505050505050505050565b8280546119949061247a565b90600052602060002090601f0160209004810192826119b657600085556119fd565b82601f106119cf57805160ff19168380011785556119fd565b828001600101855582156119fd579182015b828111156119fc5782518255916020019190600101906119e1565b5b509050611a0a9190611a0e565b5090565b5b80821115611a27576000816000905550600101611a0f565b5090565b6000604051905090565b600080fd5b600080fd5b600073ffffffffffffffffffffffffffffffffffffffff82169050919050565b6000611a6a82611a3f565b9050919050565b611a7a81611a5f565b8114611a8557600080fd5b50565b600081359050611a9781611a71565b92915050565b600060208284031215611ab357611ab2611a35565b5b6000611ac184828501611a88565b91505092915050565b611ad381611a5f565b82525050565b600081519050919050565b600082825260208201905092915050565b60005b83811015611b13578082015181840152602081019050611af8565b83811115611b22576000848401525b50505050565b6000601f19601f8301169050919050565b6000611b4482611ad9565b611b4e8185611ae4565b9350611b5e818560208601611af5565b611b6781611b28565b840191505092915050565b600060e082019050611b87600083018a611aca565b8181036020830152611b998189611b39565b90508181036040830152611bad8188611b39565b90508181036060830152611bc18187611b39565b90508181036080830152611bd58186611b39565b905081810360a0830152611be98185611b39565b905081810360c0830152611bfd8184611b39565b905098975050505050505050565b600080fd5b600080fd5b7f4e487b7100000000000000000000000000000000000000000000000000000000600052604160045260246000fd5b611c4d82611b28565b810181811067ffffffffffffffff82111715611c6c57611c6b611c15565b5b80604052505050565b6000611c7f611a2b565b9050611c8b8282611c44565b919050565b600067ffffffffffffffff821115611cab57611caa611c15565b5b611cb482611b28565b9050602081019050919050565b82818337600083830152505050565b6000611ce3611cde84611c90565b611c75565b905082815260208101848484011115611cff57611cfe611c10565b5b611d0a848285611cc1565b509392505050565b600082601f830112611d2757611d26611c0b565b5b8135611d37848260208601611cd0565b91505092915050565b600080600080600080600060e0888a031215611d5f57611d5e611a35565b5b6000611d6d8a828b01611a88565b975050602088013567ffffffffffffffff811115611d8e57611d8d611a3a565b5b611d9a8a828b01611d12565b965050604088013567ffffffffffffffff811115611dbb57611dba611a3a565b5b611dc78a828b01611d12565b955050606088013567ffffffffffffffff811115611de857611de7611a3a565b5b611df48a828b01611d12565b945050608088013567ffffffffffffffff811115611e1557611e14611a3a565b5b611e218a828b01611d12565b93505060a088013567ffffffffffffffff811115611e4257611e41611a3a565b5b611e4e8a828b01611d12565b92505060c088013567ffffffffffffffff811115611e6f57611e6e611a3a565b5b611e7b8a828b01611d12565b91505092959891949750929550565b60008060408385031215611ea157611ea0611a35565b5b6000611eaf85828601611a88565b925050602083013567ffffffffffffffff811115611ed057611ecf611a3a565b5b611edc85828601611d12565b9150509250929050565b6000819050919050565b611ef981611ee6565b82525050565b6000602082019050611f146000830184611ef0565b92915050565b611f2381611ee6565b8114611f2e57600080fd5b50565b600081359050611f4081611f1a565b92915050565b600060208284031215611f5c57611f5b611a35565b5b6000611f6a84828501611f31565b91505092915050565b600061010082019050611f89600083018b611aca565b8181036020830152611f9b818a611b39565b90508181036040830152611faf8189611b39565b90508181036060830152611fc38188611b39565b90508181036080830152611fd78187611b39565b905081810360a0830152611feb8186611b39565b905081810360c0830152611fff8185611b39565b905081810360e08301526120138184611b39565b90509998505050505050505050565b600081519050919050565b600082825260208201905092915050565b6000819050602082019050919050565b61205781611a5f565b82525050565b6000612069838361204e565b60208301905092915050565b6000602082019050919050565b600061208d82612022565b612097818561202d565b93506120a28361203e565b8060005b838110156120d35781516120ba888261205d565b97506120c583612075565b9250506001810190506120a6565b5085935050505092915050565b600081519050919050565b600082825260208201905092915050565b6000819050602082019050919050565b600082825260208201905092915050565b600061212882611ad9565b612132818561210c565b9350612142818560208601611af5565b61214b81611b28565b840191505092915050565b6000612162838361211d565b905092915050565b6000602082019050919050565b6000612182826120e0565b61218c81856120eb565b93508360208202850161219e856120fc565b8060005b858110156121da57848403895281516121bb8582612156565b94506121c68361216a565b925060208a019950506001810190506121a2565b50829750879550505050505092915050565b6000610100820190508181036000830152612207818b612082565b9050818103602083015261221b818a612177565b9050818103604083015261222f8189612177565b905081810360608301526122438188612177565b905081810360808301526122578187612177565b905081810360a083015261226b8186612177565b905081810360c083015261227f8185612177565b905081810360e08301526122938184612177565b90509998505050505050505050565b600080600080600080600080610100898b0312156122c3576122c2611a35565b5b60006122d18b828c01611a88565b985050602089013567ffffffffffffffff8111156122f2576122f1611a3a565b5b6122fe8b828c01611d12565b975050604089013567ffffffffffffffff81111561231f5761231e611a3a565b5b61232b8b828c01611d12565b965050606089013567ffffffffffffffff81111561234c5761234b611a3a565b5b6123588b828c01611d12565b955050608089013567ffffffffffffffff81111561237957612378611a3a565b5b6123858b828c01611d12565b94505060a089013567ffffffffffffffff8111156123a6576123a5611a3a565b5b6123b28b828c01611d12565b93505060c089013567ffffffffffffffff8111156123d3576123d2611a3a565b5b6123df8b828c01611d12565b92505060e089013567ffffffffffffffff811115612400576123ff611a3a565b5b61240c8b828c01611d12565b9150509295985092959890939650565b7f4e487b7100000000000000000000000000000000000000000000000000000000600052603260045260246000fd5b7f4e487b7100000000000000000000000000000000000000000000000000000000600052602260045260246000fd5b6000600282049050600182168061249257607f821691505b602082108114156124a6576124a561244b565b5b50919050565b7f4e487b7100000000000000000000000000000000000000000000000000000000600052601160045260246000fd5b60006124e682611ee6565b91507fffffffffffffffffffffffffffffffffffffffffffffffffffffffffffffffff821415612519576125186124ac565b5b600182019050919050565b600081905092915050565b60008190508160005260206000209050919050565b600081546125518161247a565b61255b8186612524565b945060018216600081146125765760018114612587576125ba565b60ff198316865281860193506125ba565b6125908561252f565b60005b838110156125b257815481890152600182019150602081019050612593565b838801955050505b50505092915050565b60006125cf8284612544565b91508190509291505056fea2646970667358221220bc344b17e35ab615f1464e8a2f8cd70376b6cfe866c70beed898b4f45670644d64736f6c634300080b0033608060405234801561001057600080fd5b50616ace80620000216000396000f3fe608060405234801561001057600080fd5b506004361061014d5760003560e01c806380d95162116100c3578063a9846eb01161007c578063a9846eb01461046b578063b351d176146104a3578063bc72af7d146104bf578063dd8f3edc146104f4578063f1857d2114610510578063fe933225146105405761014d565b806380d951621461037557806384ae9131146103a55780638a8f1d05146103c9578063948195ed146103e55780639fa7247a14610401578063a76d2579146104365761014d565b80630f53a470116101155780630f53a4701461025757806324e660371461028c578063323cc7c5146102bc57806344fd6e22146102f157806349f47a55146103215780636cf871df146103595761014d565b8063018d934a146101525780630381b0131461018257806306ed1e89146101b757806309bef62a146101ec5780630c3f988214610222575b600080fd5b61016c6004803603810190610167919061532c565b61055c565b6040516101799190615385565b60405180910390f35b61019c60048036038101906101979190615512565b61070b565b6040516101ae9695949392919061561d565b60405180910390f35b6101d160048036038101906101cc919061532c565b610ad0565b6040516101e396959493929190615856565b60405180910390f35b610206600480360381019061020191906158e1565b6110b7565b604051610219979695949392919061591d565b60405180910390f35b61023c6004803603810190610237919061532c565b611459565b60405161024e96959493929190615b5e565b60405180910390f35b610271600480360381019061026c9190615be9565b611bb5565b60405161028396959493929190615c16565b60405180910390f35b6102a660048036038101906102a19190615c9a565b612033565b6040516102b39190615385565b60405180910390f35b6102d660048036038101906102d191906158e1565b612131565b6040516102e896959493929190615d05565b60405180910390f35b61030b60048036038101906103069190615be9565b612362565b6040516103189190615385565b60405180910390f35b61033b600480360381019061033691906158e1565b612414565b60405161035099989796959493929190615d7b565b60405180910390f35b610373600480360381019061036e9190615e16565b6125cf565b005b61038f600480360381019061038a9190615f2f565b612797565b60405161039c9190615385565b60405180910390f35b6103ad6128cf565b6040516103c09796959493929190615f9e565b60405180910390f35b6103e360048036038101906103de919061603e565b6130d3565b005b6103ff60048036038101906103fa9190616118565b61347c565b005b61041b60048036038101906104169190615be9565b6136d7565b60405161042d96959493929190615b5e565b60405180910390f35b610450600480360381019061044b9190615512565b613db6565b6040516104629695949392919061561d565b60405180910390f35b610485600480360381019061048091906158e1565b61417b565b60405161049a99989796959493929190615d7b565b60405180910390f35b6104bd60048036038101906104b891906161e3565b614336565b005b6104d960048036038101906104d4919061532c565b6145dd565b6040516104eb96959493929190615856565b60405180910390f35b61050e60048036038101906105099190616266565b614bc4565b005b61052a60048036038101906105259190615f2f565b614d38565b6040516105379190615385565b60405180910390f35b61055a6004803603810190610555919061603e565b614e70565b005b600080600090505b600180549050811015610703578373ffffffffffffffffffffffffffffffffffffffff166001828154811061059c5761059b6163b0565b5b906000526020600020906005020160000160049054906101000a900473ffffffffffffffffffffffffffffffffffffffff1673ffffffffffffffffffffffffffffffffffffffff1614801561066157508273ffffffffffffffffffffffffffffffffffffffff1660018281548110610617576106166163b0565b5b906000526020600020906005020160010160009054906101000a900473ffffffffffffffffffffffffffffffffffffffff1673ffffffffffffffffffffffffffffffffffffffff16145b80156106e157506040518060400160405280600781526020017f57616974696e670000000000000000000000000000000000000000000000000081525080519060200120600182815481106106b9576106b86163b0565b5b90600052602060002090600502016004016040516106d791906164df565b6040518091039020145b156106f0576001915050610705565b80806106fb90616525565b915050610564565b505b92915050565b606060006060600080600080600090505b600280549050811015610ac1578a73ffffffffffffffffffffffffffffffffffffffff1660028281548110610754576107536163b0565b5b906000526020600020906008020160000160049054906101000a900473ffffffffffffffffffffffffffffffffffffffff1673ffffffffffffffffffffffffffffffffffffffff1614801561081957508973ffffffffffffffffffffffffffffffffffffffff16600282815481106107cf576107ce6163b0565b5b906000526020600020906008020160010160009054906101000a900473ffffffffffffffffffffffffffffffffffffffff1673ffffffffffffffffffffffffffffffffffffffff16145b801561089d575088886040516020016108339291906165cb565b604051602081830303815290604052805190602001206002828154811061085d5761085c6163b0565b5b906000526020600020906008020160000160009054906101000a900460e01b7bffffffffffffffffffffffffffffffffffffffffffffffffffffffff1916145b15610aae57600281815481106108b6576108b56163b0565b5b9060005260206000209060080201600201600282815481106108db576108da6163b0565b5b90600052602060002090600802016003015460028381548110610901576109006163b0565b5b906000526020600020906008020160040160028481548110610926576109256163b0565b5b9060005260206000209060080201600501546002858154811061094c5761094b6163b0565b5b90600052602060002090600802016006015460028681548110610972576109716163b0565b5b9060005260206000209060080201600701548580546109909061640e565b80601f01602080910402602001604051908101604052809291908181526020018280546109bc9061640e565b8015610a095780601f106109de57610100808354040283529160200191610a09565b820191906000526020600020905b8154815290600101906020018083116109ec57829003601f168201915b50505050509550838054610a1c9061640e565b80601f0160208091040260200160405190810160405280929190818152602001828054610a489061640e565b8015610a955780601f10610a6a57610100808354040283529160200191610a95565b820191906000526020600020905b815481529060010190602001808311610a7857829003601f168201915b5050505050935096509650965096509650965050610ac3565b8080610ab990616525565b91505061071c565b505b9499939850945094509450565b606080606080606080600060038054905067ffffffffffffffff811115610afa57610af96153bb565b5b604051908082528060200260200182016040528015610b2d57816020015b6060815260200190600190039081610b185790505b509050600060038054905067ffffffffffffffff811115610b5157610b506153bb565b5b604051908082528060200260200182016040528015610b7f5781602001602082028036833780820191505090505b509050600060038054905067ffffffffffffffff811115610ba357610ba26153bb565b5b604051908082528060200260200182016040528015610bd657816020015b6060815260200190600190039081610bc15790505b509050600060038054905067ffffffffffffffff811115610bfa57610bf96153bb565b5b604051908082528060200260200182016040528015610c285781602001602082028036833780820191505090505b509050600060038054905067ffffffffffffffff811115610c4c57610c4b6153bb565b5b604051908082528060200260200182016040528015610c7a5781602001602082028036833780820191505090505b509050600060038054905067ffffffffffffffff811115610c9e57610c9d6153bb565b5b604051908082528060200260200182016040528015610ccc5781602001602082028036833780820191505090505b50905060005b600380549050811015611094578e73ffffffffffffffffffffffffffffffffffffffff1660028281548110610d0a57610d096163b0565b5b906000526020600020906008020160000160049054906101000a900473ffffffffffffffffffffffffffffffffffffffff1673ffffffffffffffffffffffffffffffffffffffff16148015610dcf57508d73ffffffffffffffffffffffffffffffffffffffff1660028281548110610d8557610d846163b0565b5b906000526020600020906008020160010160009054906101000a900473ffffffffffffffffffffffffffffffffffffffff1673ffffffffffffffffffffffffffffffffffffffff16145b156110815760038181548110610de857610de76163b0565b5b90600052602060002090600802016002018054610e049061640e565b80601f0160208091040260200160405190810160405280929190818152602001828054610e309061640e565b8015610e7d5780601f10610e5257610100808354040283529160200191610e7d565b820191906000526020600020905b815481529060010190602001808311610e6057829003601f168201915b5050505050878281518110610e9557610e946163b0565b5b602002602001018190525060038181548110610eb457610eb36163b0565b5b906000526020600020906008020160030154868281518110610ed957610ed86163b0565b5b60200260200101818152505060038181548110610ef957610ef86163b0565b5b90600052602060002090600802016004018054610f159061640e565b80601f0160208091040260200160405190810160405280929190818152602001828054610f419061640e565b8015610f8e5780601f10610f6357610100808354040283529160200191610f8e565b820191906000526020600020905b815481529060010190602001808311610f7157829003601f168201915b5050505050858281518110610fa657610fa56163b0565b5b602002602001018190525060038181548110610fc557610fc46163b0565b5b906000526020600020906008020160050154848281518110610fea57610fe96163b0565b5b6020026020010181815250506003818154811061100a576110096163b0565b5b90600052602060002090600802016006015483828151811061102f5761102e6163b0565b5b6020026020010181815250506003818154811061104f5761104e6163b0565b5b906000526020600020906008020160070154828281518110611074576110736163b0565b5b6020026020010181815250505b808061108c90616525565b915050610cd2565b508585858585859b509b509b509b509b509b505050505050509295509295509295565b600081815481106110c757600080fd5b90600052602060002090600702016000915090508060000160009054906101000a900473ffffffffffffffffffffffffffffffffffffffff16908060010180546111109061640e565b80601f016020809104026020016040519081016040528092919081815260200182805461113c9061640e565b80156111895780601f1061115e57610100808354040283529160200191611189565b820191906000526020600020905b81548152906001019060200180831161116c57829003601f168201915b50505050509080600201805461119e9061640e565b80601f01602080910402602001604051908101604052809291908181526020018280546111ca9061640e565b80156112175780601f106111ec57610100808354040283529160200191611217565b820191906000526020600020905b8154815290600101906020018083116111fa57829003601f168201915b50505050509080600301805461122c9061640e565b80601f01602080910402602001604051908101604052809291908181526020018280546112589061640e565b80156112a55780601f1061127a576101008083540402835291602001916112a5565b820191906000526020600020905b81548152906001019060200180831161128857829003601f168201915b5050505050908060040180546112ba9061640e565b80601f01602080910402602001604051908101604052809291908181526020018280546112e69061640e565b80156113335780601f1061130857610100808354040283529160200191611333565b820191906000526020600020905b81548152906001019060200180831161131657829003601f168201915b5050505050908060050180546113489061640e565b80601f01602080910402602001604051908101604052809291908181526020018280546113749061640e565b80156113c15780601f10611396576101008083540402835291602001916113c1565b820191906000526020600020905b8154815290600101906020018083116113a457829003601f168201915b5050505050908060060180546113d69061640e565b80601f01602080910402602001604051908101604052809291908181526020018280546114029061640e565b801561144f5780601f106114245761010080835404028352916020019161144f565b820191906000526020600020905b81548152906001019060200180831161143257829003601f168201915b5050505050905087565b606080606080606080600060018054905067ffffffffffffffff811115611483576114826153bb565b5b6040519080825280602002602001820160405280156114b15781602001602082028036833780820191505090505b509050600060018054905067ffffffffffffffff8111156114d5576114d46153bb565b5b6040519080825280602002602001820160405280156115035781602001602082028036833780820191505090505b509050600060018054905067ffffffffffffffff811115611527576115266153bb565b5b6040519080825280602002602001820160405280156115555781602001602082028036833780820191505090505b509050600060018054905067ffffffffffffffff811115611579576115786153bb565b5b6040519080825280602002602001820160405280156115ac57816020015b60608152602001906001900390816115975790505b509050600060018054905067ffffffffffffffff8111156115d0576115cf6153bb565b5b60405190808252806020026020018201604052801561160357816020015b60608152602001906001900390816115ee5790505b509050600060018054905067ffffffffffffffff811115611627576116266153bb565b5b60405190808252806020026020018201604052801561165a57816020015b60608152602001906001900390816116455790505b50905060005b600180549050811015611b92578e73ffffffffffffffffffffffffffffffffffffffff1660018281548110611698576116976163b0565b5b906000526020600020906005020160010160009054906101000a900473ffffffffffffffffffffffffffffffffffffffff1673ffffffffffffffffffffffffffffffffffffffff1614801561175d57508d73ffffffffffffffffffffffffffffffffffffffff1660018281548110611713576117126163b0565b5b906000526020600020906005020160000160049054906101000a900473ffffffffffffffffffffffffffffffffffffffff1673ffffffffffffffffffffffffffffffffffffffff16145b15611b7f5760018181548110611776576117756163b0565b5b906000526020600020906005020160000160009054906101000a900460e01b8782815181106117a8576117a76163b0565b5b60200260200101907bffffffffffffffffffffffffffffffffffffffffffffffffffffffff191690817bffffffffffffffffffffffffffffffffffffffffffffffffffffffff19168152505060018181548110611808576118076163b0565b5b906000526020600020906005020160000160049054906101000a900473ffffffffffffffffffffffffffffffffffffffff1686828151811061184d5761184c6163b0565b5b602002602001019073ffffffffffffffffffffffffffffffffffffffff16908173ffffffffffffffffffffffffffffffffffffffff16815250506001818154811061189b5761189a6163b0565b5b906000526020600020906005020160010160009054906101000a900473ffffffffffffffffffffffffffffffffffffffff168582815181106118e0576118df6163b0565b5b602002602001019073ffffffffffffffffffffffffffffffffffffffff16908173ffffffffffffffffffffffffffffffffffffffff16815250506001818154811061192e5761192d6163b0565b5b9060005260206000209060050201600201805461194a9061640e565b80601f01602080910402602001604051908101604052809291908181526020018280546119769061640e565b80156119c35780601f10611998576101008083540402835291602001916119c3565b820191906000526020600020905b8154815290600101906020018083116119a657829003601f168201915b50505050508482815181106119db576119da6163b0565b5b6020026020010181905250600181815481106119fa576119f96163b0565b5b90600052602060002090600502016003018054611a169061640e565b80601f0160208091040260200160405190810160405280929190818152602001828054611a429061640e565b8015611a8f5780601f10611a6457610100808354040283529160200191611a8f565b820191906000526020600020905b815481529060010190602001808311611a7257829003601f168201915b5050505050838281518110611aa757611aa66163b0565b5b602002602001018190525060018181548110611ac657611ac56163b0565b5b90600052602060002090600502016004018054611ae29061640e565b80601f0160208091040260200160405190810160405280929190818152602001828054611b0e9061640e565b8015611b5b5780601f10611b3057610100808354040283529160200191611b5b565b820191906000526020600020905b815481529060010190602001808311611b3e57829003601f168201915b5050505050828281518110611b7357611b726163b0565b5b60200260200101819052505b8080611b8a90616525565b915050611660565b508585858585859b509b509b509b509b509b505050505050509295509295509295565b6000606080606080606060005b600080549050811015612028578773ffffffffffffffffffffffffffffffffffffffff1660008281548110611bfa57611bf96163b0565b5b906000526020600020906007020160000160009054906101000a900473ffffffffffffffffffffffffffffffffffffffff1673ffffffffffffffffffffffffffffffffffffffff1614156120155760008181548110611c5c57611c5b6163b0565b5b906000526020600020906007020160000160009054906101000a900473ffffffffffffffffffffffffffffffffffffffff1660008281548110611ca257611ca16163b0565b5b906000526020600020906007020160010160008381548110611cc757611cc66163b0565b5b906000526020600020906007020160020160008481548110611cec57611ceb6163b0565b5b906000526020600020906007020160030160008581548110611d1157611d106163b0565b5b906000526020600020906007020160040160008681548110611d3657611d356163b0565b5b9060005260206000209060070201600501848054611d539061640e565b80601f0160208091040260200160405190810160405280929190818152602001828054611d7f9061640e565b8015611dcc5780601f10611da157610100808354040283529160200191611dcc565b820191906000526020600020905b815481529060010190602001808311611daf57829003601f168201915b50505050509450838054611ddf9061640e565b80601f0160208091040260200160405190810160405280929190818152602001828054611e0b9061640e565b8015611e585780601f10611e2d57610100808354040283529160200191611e58565b820191906000526020600020905b815481529060010190602001808311611e3b57829003601f168201915b50505050509350828054611e6b9061640e565b80601f0160208091040260200160405190810160405280929190818152602001828054611e979061640e565b8015611ee45780601f10611eb957610100808354040283529160200191611ee4565b820191906000526020600020905b815481529060010190602001808311611ec757829003601f168201915b50505050509250818054611ef79061640e565b80601f0160208091040260200160405190810160405280929190818152602001828054611f239061640e565b8015611f705780601f10611f4557610100808354040283529160200191611f70565b820191906000526020600020905b815481529060010190602001808311611f5357829003601f168201915b50505050509150808054611f839061640e565b80601f0160208091040260200160405190810160405280929190818152602001828054611faf9061640e565b8015611ffc5780601f10611fd157610100808354040283529160200191611ffc565b820191906000526020600020905b815481529060010190602001808311611fdf57829003601f168201915b505050505090509650965096509650965096505061202a565b808061202090616525565b915050611bc2565b505b91939550919395565b600080600090505b600080549050811015612129578373ffffffffffffffffffffffffffffffffffffffff1660008281548110612073576120726163b0565b5b906000526020600020906007020160000160009054906101000a900473ffffffffffffffffffffffffffffffffffffffff1673ffffffffffffffffffffffffffffffffffffffff1614801561210757508280519060200120600082815481106120df576120de6163b0565b5b90600052602060002090600702016006016040516120fd91906164df565b6040518091039020145b1561211657600191505061212b565b808061212190616525565b91505061203b565b505b92915050565b6001818154811061214157600080fd5b90600052602060002090600502016000915090508060000160009054906101000a900460e01b908060000160049054906101000a900473ffffffffffffffffffffffffffffffffffffffff16908060010160009054906101000a900473ffffffffffffffffffffffffffffffffffffffff16908060020180546121c39061640e565b80601f01602080910402602001604051908101604052809291908181526020018280546121ef9061640e565b801561223c5780601f106122115761010080835404028352916020019161223c565b820191906000526020600020905b81548152906001019060200180831161221f57829003601f168201915b5050505050908060030180546122519061640e565b80601f016020809104026020016040519081016040528092919081815260200182805461227d9061640e565b80156122ca5780601f1061229f576101008083540402835291602001916122ca565b820191906000526020600020905b8154815290600101906020018083116122ad57829003601f168201915b5050505050908060040180546122df9061640e565b80601f016020809104026020016040519081016040528092919081815260200182805461230b9061640e565b80156123585780601f1061232d57610100808354040283529160200191612358565b820191906000526020600020905b81548152906001019060200180831161233b57829003601f168201915b5050505050905086565b600080600090505b60008054905081101561240d578273ffffffffffffffffffffffffffffffffffffffff16600082815481106123a2576123a16163b0565b5b906000526020600020906007020160000160009054906101000a900473ffffffffffffffffffffffffffffffffffffffff1673ffffffffffffffffffffffffffffffffffffffff1614156123fa57600191505061240f565b808061240590616525565b91505061236a565b505b919050565b6003818154811061242457600080fd5b90600052602060002090600802016000915090508060000160009054906101000a900460e01b908060000160049054906101000a900473ffffffffffffffffffffffffffffffffffffffff16908060010160009054906101000a900473ffffffffffffffffffffffffffffffffffffffff16908060020180546124a69061640e565b80601f01602080910402602001604051908101604052809291908181526020018280546124d29061640e565b801561251f5780601f106124f45761010080835404028352916020019161251f565b820191906000526020600020905b81548152906001019060200180831161250257829003601f168201915b50505050509080600301549080600401805461253a9061640e565b80601f01602080910402602001604051908101604052809291908181526020018280546125669061640e565b80156125b35780601f10612588576101008083540402835291602001916125b3565b820191906000526020600020905b81548152906001019060200180831161259657829003601f168201915b5050505050908060050154908060060154908060070154905089565b60005b60008054905081101561278e578673ffffffffffffffffffffffffffffffffffffffff166000828154811061260a576126096163b0565b5b906000526020600020906007020160000160009054906101000a900473ffffffffffffffffffffffffffffffffffffffff1673ffffffffffffffffffffffffffffffffffffffff16141561277b57856000828154811061266d5761266c6163b0565b5b90600052602060002090600702016001019080519060200190612691929190615217565b5084600082815481106126a7576126a66163b0565b5b906000526020600020906007020160020190805190602001906126cb929190615217565b5083600082815481106126e1576126e06163b0565b5b90600052602060002090600702016003019080519060200190612705929190615217565b50826000828154811061271b5761271a6163b0565b5b9060005260206000209060070201600401908051906020019061273f929190615217565b508160008281548110612755576127546163b0565b5b90600052602060002090600702016005019080519060200190612779929190615217565b505b808061278690616525565b9150506125d2565b50505050505050565b600080600090505b6002805490508110156128c6578473ffffffffffffffffffffffffffffffffffffffff16600282815481106127d7576127d66163b0565b5b906000526020600020906008020160010160009054906101000a900473ffffffffffffffffffffffffffffffffffffffff1673ffffffffffffffffffffffffffffffffffffffff161480156128a45750838360405160200161283a9291906165cb565b6040516020818303038152906040528051906020012060028281548110612864576128636163b0565b5b906000526020600020906008020160000160009054906101000a900460e01b7bffffffffffffffffffffffffffffffffffffffffffffffffffffffff1916145b156128b35760019150506128c8565b80806128be90616525565b91505061279f565b505b9392505050565b60608060608060608060606000808054905067ffffffffffffffff8111156128fa576128f96153bb565b5b6040519080825280602002602001820160405280156129285781602001602082028036833780820191505090505b5090506000808054905067ffffffffffffffff81111561294b5761294a6153bb565b5b60405190808252806020026020018201604052801561297e57816020015b60608152602001906001900390816129695790505b5090506000808054905067ffffffffffffffff8111156129a1576129a06153bb565b5b6040519080825280602002602001820160405280156129d457816020015b60608152602001906001900390816129bf5790505b5090506000808054905067ffffffffffffffff8111156129f7576129f66153bb565b5b604051908082528060200260200182016040528015612a2a57816020015b6060815260200190600190039081612a155790505b5090506000808054905067ffffffffffffffff811115612a4d57612a4c6153bb565b5b604051908082528060200260200182016040528015612a8057816020015b6060815260200190600190039081612a6b5790505b5090506000808054905067ffffffffffffffff811115612aa357612aa26153bb565b5b604051908082528060200260200182016040528015612ad657816020015b6060815260200190600190039081612ac15790505b5090506000808054905067ffffffffffffffff811115612af957612af86153bb565b5b604051908082528060200260200182016040528015612b2c57816020015b6060815260200190600190039081612b175790505b50905060005b6000805490508110156130ad5760008181548110612b5357612b526163b0565b5b906000526020600020906007020160000160009054906101000a900473ffffffffffffffffffffffffffffffffffffffff16888281518110612b9857612b976163b0565b5b602002602001019073ffffffffffffffffffffffffffffffffffffffff16908173ffffffffffffffffffffffffffffffffffffffff168152505060008181548110612be657612be56163b0565b5b90600052602060002090600702016001018054612c029061640e565b80601f0160208091040260200160405190810160405280929190818152602001828054612c2e9061640e565b8015612c7b5780601f10612c5057610100808354040283529160200191612c7b565b820191906000526020600020905b815481529060010190602001808311612c5e57829003601f168201915b5050505050878281518110612c9357612c926163b0565b5b602002602001018190525060008181548110612cb257612cb16163b0565b5b90600052602060002090600702016002018054612cce9061640e565b80601f0160208091040260200160405190810160405280929190818152602001828054612cfa9061640e565b8015612d475780601f10612d1c57610100808354040283529160200191612d47565b820191906000526020600020905b815481529060010190602001808311612d2a57829003601f168201915b5050505050868281518110612d5f57612d5e6163b0565b5b602002602001018190525060008181548110612d7e57612d7d6163b0565b5b90600052602060002090600702016003018054612d9a9061640e565b80601f0160208091040260200160405190810160405280929190818152602001828054612dc69061640e565b8015612e135780601f10612de857610100808354040283529160200191612e13565b820191906000526020600020905b815481529060010190602001808311612df657829003601f168201915b5050505050858281518110612e2b57612e2a6163b0565b5b602002602001018190525060008181548110612e4a57612e496163b0565b5b90600052602060002090600702016004018054612e669061640e565b80601f0160208091040260200160405190810160405280929190818152602001828054612e929061640e565b8015612edf5780601f10612eb457610100808354040283529160200191612edf565b820191906000526020600020905b815481529060010190602001808311612ec257829003601f168201915b5050505050848281518110612ef757612ef66163b0565b5b602002602001018190525060008181548110612f1657612f156163b0565b5b90600052602060002090600702016005018054612f329061640e565b80601f0160208091040260200160405190810160405280929190818152602001828054612f5e9061640e565b8015612fab5780601f10612f8057610100808354040283529160200191612fab565b820191906000526020600020905b815481529060010190602001808311612f8e57829003601f168201915b5050505050838281518110612fc357612fc26163b0565b5b602002602001018190525060008181548110612fe257612fe16163b0565b5b90600052602060002090600702016006018054612ffe9061640e565b80601f016020809104026020016040519081016040528092919081815260200182805461302a9061640e565b80156130775780601f1061304c57610100808354040283529160200191613077565b820191906000526020600020905b81548152906001019060200180831161305a57829003601f168201915b505050505082828151811061308f5761308e6163b0565b5b602002602001018190525080806130a590616525565b915050612b32565b50868686868686869d509d509d509d509d509d509d505050505050505090919293949596565b60016130de88612362565b1461311e576040517f08c379a00000000000000000000000000000000000000000000000000000000081526004016131159061663f565b60405180910390fd5b600061312b878787612797565b1461316b576040517f08c379a0000000000000000000000000000000000000000000000000000000008152600401613162906166ab565b60405180910390fd5b600184148061317a5750600284145b806131855750600384145b806131905750600484145b6131cf576040517f08c379a00000000000000000000000000000000000000000000000000000000081526004016131c690616717565b60405180910390fd5b600082101580156131e257506101ef8211155b613221576040517f08c379a000000000000000000000000000000000000000000000000000000000815260040161321890616783565b60405180910390fd5b6000811015801561323457506101ef8111155b613273576040517f08c379a000000000000000000000000000000000000000000000000000000000815260040161326a906167ef565b60405180910390fd5b600260405180610120016040528087876040516020016132949291906165cb565b604051602081830303815290604052805190602001207bffffffffffffffffffffffffffffffffffffffffffffffffffffffff191681526020018973ffffffffffffffffffffffffffffffffffffffff1681526020018873ffffffffffffffffffffffffffffffffffffffff1681526020018781526020018681526020018581526020018481526020018381526020018385613330919061680f565b815250908060018154018082558091505060019003906000526020600020906008020160009091909190915060008201518160000160006101000a81548163ffffffff021916908360e01c021790555060208201518160000160046101000a81548173ffffffffffffffffffffffffffffffffffffffff021916908373ffffffffffffffffffffffffffffffffffffffff16021790555060408201518160010160006101000a81548173ffffffffffffffffffffffffffffffffffffffff021916908373ffffffffffffffffffffffffffffffffffffffff160217905550606082015181600201908051906020019061342a929190615217565b506080820151816003015560a0820151816004019080519060200190613451929190615217565b5060c0820151816005015560e082015181600601556101008201518160070155505050505050505050565b6000613488858561055c565b146134c8576040517f08c379a00000000000000000000000000000000000000000000000000000000081526004016134bf906168b1565b60405180910390fd5b60016040518060c00160405280836040516020016134e691906168d1565b604051602081830303815290604052805190602001207bffffffffffffffffffffffffffffffffffffffffffffffffffffffff191681526020018673ffffffffffffffffffffffffffffffffffffffff1681526020018573ffffffffffffffffffffffffffffffffffffffff1681526020018481526020018381526020016040518060400160405280600781526020017f57616974696e6700000000000000000000000000000000000000000000000000815250815250908060018154018082558091505060019003906000526020600020906005020160009091909190915060008201518160000160006101000a81548163ffffffff021916908360e01c021790555060208201518160000160046101000a81548173ffffffffffffffffffffffffffffffffffffffff021916908373ffffffffffffffffffffffffffffffffffffffff16021790555060408201518160010160006101000a81548173ffffffffffffffffffffffffffffffffffffffff021916908373ffffffffffffffffffffffffffffffffffffffff1602179055506060820151816002019080519060200190613694929190615217565b5060808201518160030190805190602001906136b1929190615217565b5060a08201518160040190805190602001906136ce929190615217565b50505050505050565b606080606080606080600060018054905067ffffffffffffffff811115613701576137006153bb565b5b60405190808252806020026020018201604052801561372f5781602001602082028036833780820191505090505b509050600060018054905067ffffffffffffffff811115613753576137526153bb565b5b6040519080825280602002602001820160405280156137815781602001602082028036833780820191505090505b509050600060018054905067ffffffffffffffff8111156137a5576137a46153bb565b5b6040519080825280602002602001820160405280156137d35781602001602082028036833780820191505090505b509050600060018054905067ffffffffffffffff8111156137f7576137f66153bb565b5b60405190808252806020026020018201604052801561382a57816020015b60608152602001906001900390816138155790505b509050600060018054905067ffffffffffffffff81111561384e5761384d6153bb565b5b60405190808252806020026020018201604052801561388157816020015b606081526020019060019003908161386c5790505b509050600060018054905067ffffffffffffffff8111156138a5576138a46153bb565b5b6040519080825280602002602001820160405280156138d857816020015b60608152602001906001900390816138c35790505b50905060005b600180549050811015613d94578d73ffffffffffffffffffffffffffffffffffffffff1660018281548110613916576139156163b0565b5b906000526020600020906005020160010160009054906101000a900473ffffffffffffffffffffffffffffffffffffffff1673ffffffffffffffffffffffffffffffffffffffff161415613d815760018181548110613978576139776163b0565b5b906000526020600020906005020160000160009054906101000a900460e01b8782815181106139aa576139a96163b0565b5b60200260200101907bffffffffffffffffffffffffffffffffffffffffffffffffffffffff191690817bffffffffffffffffffffffffffffffffffffffffffffffffffffffff19168152505060018181548110613a0a57613a096163b0565b5b906000526020600020906005020160000160049054906101000a900473ffffffffffffffffffffffffffffffffffffffff16868281518110613a4f57613a4e6163b0565b5b602002602001019073ffffffffffffffffffffffffffffffffffffffff16908173ffffffffffffffffffffffffffffffffffffffff168152505060018181548110613a9d57613a9c6163b0565b5b906000526020600020906005020160010160009054906101000a900473ffffffffffffffffffffffffffffffffffffffff16858281518110613ae257613ae16163b0565b5b602002602001019073ffffffffffffffffffffffffffffffffffffffff16908173ffffffffffffffffffffffffffffffffffffffff168152505060018181548110613b3057613b2f6163b0565b5b90600052602060002090600502016002018054613b4c9061640e565b80601f0160208091040260200160405190810160405280929190818152602001828054613b789061640e565b8015613bc55780601f10613b9a57610100808354040283529160200191613bc5565b820191906000526020600020905b815481529060010190602001808311613ba857829003601f168201915b5050505050848281518110613bdd57613bdc6163b0565b5b602002602001018190525060018181548110613bfc57613bfb6163b0565b5b90600052602060002090600502016003018054613c189061640e565b80601f0160208091040260200160405190810160405280929190818152602001828054613c449061640e565b8015613c915780601f10613c6657610100808354040283529160200191613c91565b820191906000526020600020905b815481529060010190602001808311613c7457829003601f168201915b5050505050838281518110613ca957613ca86163b0565b5b602002602001018190525060018181548110613cc857613cc76163b0565b5b90600052602060002090600502016004018054613ce49061640e565b80601f0160208091040260200160405190810160405280929190818152602001828054613d109061640e565b8015613d5d5780601f10613d3257610100808354040283529160200191613d5d565b820191906000526020600020905b815481529060010190602001808311613d4057829003601f168201915b5050505050828281518110613d7557613d746163b0565b5b60200260200101819052505b8080613d8c90616525565b9150506138de565b508585858585859b509b509b509b509b509b5050505050505091939550919395565b606060006060600080600080600090505b60038054905081101561416c578a73ffffffffffffffffffffffffffffffffffffffff1660038281548110613dff57613dfe6163b0565b5b906000526020600020906008020160000160049054906101000a900473ffffffffffffffffffffffffffffffffffffffff1673ffffffffffffffffffffffffffffffffffffffff16148015613ec457508973ffffffffffffffffffffffffffffffffffffffff1660038281548110613e7a57613e796163b0565b5b906000526020600020906008020160010160009054906101000a900473ffffffffffffffffffffffffffffffffffffffff1673ffffffffffffffffffffffffffffffffffffffff16145b8015613f4857508888604051602001613ede9291906165cb565b6040516020818303038152906040528051906020012060038281548110613f0857613f076163b0565b5b906000526020600020906008020160000160009054906101000a900460e01b7bffffffffffffffffffffffffffffffffffffffffffffffffffffffff1916145b156141595760038181548110613f6157613f606163b0565b5b906000526020600020906008020160020160038281548110613f8657613f856163b0565b5b90600052602060002090600802016003015460038381548110613fac57613fab6163b0565b5b906000526020600020906008020160040160038481548110613fd157613fd06163b0565b5b90600052602060002090600802016005015460038581548110613ff757613ff66163b0565b5b9060005260206000209060080201600601546003868154811061401d5761401c6163b0565b5b90600052602060002090600802016007015485805461403b9061640e565b80601f01602080910402602001604051908101604052809291908181526020018280546140679061640e565b80156140b45780601f10614089576101008083540402835291602001916140b4565b820191906000526020600020905b81548152906001019060200180831161409757829003601f168201915b505050505095508380546140c79061640e565b80601f01602080910402602001604051908101604052809291908181526020018280546140f39061640e565b80156141405780601f1061411557610100808354040283529160200191614140565b820191906000526020600020905b81548152906001019060200180831161412357829003601f168201915b505050505093509650965096509650965096505061416e565b808061416490616525565b915050613dc7565b505b9499939850945094509450565b6002818154811061418b57600080fd5b90600052602060002090600802016000915090508060000160009054906101000a900460e01b908060000160049054906101000a900473ffffffffffffffffffffffffffffffffffffffff16908060010160009054906101000a900473ffffffffffffffffffffffffffffffffffffffff169080600201805461420d9061640e565b80601f01602080910402602001604051908101604052809291908181526020018280546142399061640e565b80156142865780601f1061425b57610100808354040283529160200191614286565b820191906000526020600020905b81548152906001019060200180831161426957829003601f168201915b5050505050908060030154908060040180546142a19061640e565b80601f01602080910402602001604051908101604052809291908181526020018280546142cd9061640e565b801561431a5780601f106142ef5761010080835404028352916020019161431a565b820191906000526020600020905b8154815290600101906020018083116142fd57829003601f168201915b5050505050908060050154908060060154908060070154905089565b6040518060400160405280600881526020017f416363657074656400000000000000000000000000000000000000000000000081525080519060200120818051906020012014806143c957506040518060400160405280600881526020017f4465636c696e6564000000000000000000000000000000000000000000000000815250805190602001208180519060200120145b614408576040517f08c379a00000000000000000000000000000000000000000000000000000000081526004016143ff90616934565b60405180910390fd5b60005b6001805490508110156145d6578473ffffffffffffffffffffffffffffffffffffffff1660018281548110614443576144426163b0565b5b906000526020600020906005020160000160049054906101000a900473ffffffffffffffffffffffffffffffffffffffff1673ffffffffffffffffffffffffffffffffffffffff1614801561450857508373ffffffffffffffffffffffffffffffffffffffff16600182815481106144be576144bd6163b0565b5b906000526020600020906005020160010160009054906101000a900473ffffffffffffffffffffffffffffffffffffffff1673ffffffffffffffffffffffffffffffffffffffff16145b80156145835750827bffffffffffffffffffffffffffffffffffffffffffffffffffffffff191660018281548110614543576145426163b0565b5b906000526020600020906005020160000160009054906101000a900460e01b7bffffffffffffffffffffffffffffffffffffffffffffffffffffffff1916145b156145c357816001828154811061459d5761459c6163b0565b5b906000526020600020906005020160040190805190602001906145c1929190615217565b505b80806145ce90616525565b91505061440b565b5050505050565b606080606080606080600060028054905067ffffffffffffffff811115614607576146066153bb565b5b60405190808252806020026020018201604052801561463a57816020015b60608152602001906001900390816146255790505b509050600060028054905067ffffffffffffffff81111561465e5761465d6153bb565b5b60405190808252806020026020018201604052801561468c5781602001602082028036833780820191505090505b509050600060028054905067ffffffffffffffff8111156146b0576146af6153bb565b5b6040519080825280602002602001820160405280156146e357816020015b60608152602001906001900390816146ce5790505b509050600060028054905067ffffffffffffffff811115614707576147066153bb565b5b6040519080825280602002602001820160405280156147355781602001602082028036833780820191505090505b509050600060028054905067ffffffffffffffff811115614759576147586153bb565b5b6040519080825280602002602001820160405280156147875781602001602082028036833780820191505090505b509050600060028054905067ffffffffffffffff8111156147ab576147aa6153bb565b5b6040519080825280602002602001820160405280156147d95781602001602082028036833780820191505090505b50905060005b600280549050811015614ba1578e73ffffffffffffffffffffffffffffffffffffffff1660028281548110614817576148166163b0565b5b906000526020600020906008020160000160049054906101000a900473ffffffffffffffffffffffffffffffffffffffff1673ffffffffffffffffffffffffffffffffffffffff161480156148dc57508d73ffffffffffffffffffffffffffffffffffffffff1660028281548110614892576148916163b0565b5b906000526020600020906008020160010160009054906101000a900473ffffffffffffffffffffffffffffffffffffffff1673ffffffffffffffffffffffffffffffffffffffff16145b15614b8e57600281815481106148f5576148f46163b0565b5b906000526020600020906008020160020180546149119061640e565b80601f016020809104026020016040519081016040528092919081815260200182805461493d9061640e565b801561498a5780601f1061495f5761010080835404028352916020019161498a565b820191906000526020600020905b81548152906001019060200180831161496d57829003601f168201915b50505050508782815181106149a2576149a16163b0565b5b6020026020010181905250600281815481106149c1576149c06163b0565b5b9060005260206000209060080201600301548682815181106149e6576149e56163b0565b5b60200260200101818152505060028181548110614a0657614a056163b0565b5b90600052602060002090600802016004018054614a229061640e565b80601f0160208091040260200160405190810160405280929190818152602001828054614a4e9061640e565b8015614a9b5780601f10614a7057610100808354040283529160200191614a9b565b820191906000526020600020905b815481529060010190602001808311614a7e57829003601f168201915b5050505050858281518110614ab357614ab26163b0565b5b602002602001018190525060028181548110614ad257614ad16163b0565b5b906000526020600020906008020160050154848281518110614af757614af66163b0565b5b60200260200101818152505060028181548110614b1757614b166163b0565b5b906000526020600020906008020160060154838281518110614b3c57614b3b6163b0565b5b60200260200101818152505060028181548110614b5c57614b5b6163b0565b5b906000526020600020906008020160070154828281518110614b8157614b806163b0565b5b6020026020010181815250505b8080614b9990616525565b9150506147df565b508585858585859b509b509b509b509b509b505050505050509295509295509295565b60006040518060e001604052808973ffffffffffffffffffffffffffffffffffffffff16815260200188815260200187815260200186815260200185815260200184815260200183815250908060018154018082558091505060019003906000526020600020906007020160009091909190915060008201518160000160006101000a81548173ffffffffffffffffffffffffffffffffffffffff021916908373ffffffffffffffffffffffffffffffffffffffff1602179055506020820151816001019080519060200190614c9b929190615217565b506040820151816002019080519060200190614cb8929190615217565b506060820151816003019080519060200190614cd5929190615217565b506080820151816004019080519060200190614cf2929190615217565b5060a0820151816005019080519060200190614d0f929190615217565b5060c0820151816006019080519060200190614d2c929190615217565b50505050505050505050565b600080600090505b600380549050811015614e67578473ffffffffffffffffffffffffffffffffffffffff1660028281548110614d7857614d776163b0565b5b906000526020600020906008020160010160009054906101000a900473ffffffffffffffffffffffffffffffffffffffff1673ffffffffffffffffffffffffffffffffffffffff16148015614e4557508383604051602001614ddb9291906165cb565b6040516020818303038152906040528051906020012060028281548110614e0557614e046163b0565b5b906000526020600020906008020160000160009054906101000a900460e01b7bffffffffffffffffffffffffffffffffffffffffffffffffffffffff1916145b15614e54576001915050614e69565b8080614e5f90616525565b915050614d40565b505b9392505050565b6001614e7b88612362565b14614ebb576040517f08c379a0000000000000000000000000000000000000000000000000000000008152600401614eb29061663f565b60405180910390fd5b6000614ec8878787614d38565b14614f08576040517f08c379a0000000000000000000000000000000000000000000000000000000008152600401614eff906169a0565b60405180910390fd5b6001841480614f175750600284145b80614f225750600384145b80614f2d5750600484145b614f6c576040517f08c379a0000000000000000000000000000000000000000000000000000000008152600401614f6390616717565b60405180910390fd5b60008210158015614f7e575060c88211155b614fbd576040517f08c379a0000000000000000000000000000000000000000000000000000000008152600401614fb490616a0c565b60405180910390fd5b60008110158015614fcf575060c88111155b61500e576040517f08c379a000000000000000000000000000000000000000000000000000000000815260040161500590616a78565b60405180910390fd5b6003604051806101200160405280878760405160200161502f9291906165cb565b604051602081830303815290604052805190602001207bffffffffffffffffffffffffffffffffffffffffffffffffffffffff191681526020018973ffffffffffffffffffffffffffffffffffffffff1681526020018873ffffffffffffffffffffffffffffffffffffffff16815260200187815260200186815260200185815260200184815260200183815260200183856150cb919061680f565b815250908060018154018082558091505060019003906000526020600020906008020160009091909190915060008201518160000160006101000a81548163ffffffff021916908360e01c021790555060208201518160000160046101000a81548173ffffffffffffffffffffffffffffffffffffffff021916908373ffffffffffffffffffffffffffffffffffffffff16021790555060408201518160010160006101000a81548173ffffffffffffffffffffffffffffffffffffffff021916908373ffffffffffffffffffffffffffffffffffffffff16021790555060608201518160020190805190602001906151c5929190615217565b506080820151816003015560a08201518160040190805190602001906151ec929190615217565b5060c0820151816005015560e082015181600601556101008201518160070155505050505050505050565b8280546152239061640e565b90600052602060002090601f016020900481019282615245576000855561528c565b82601f1061525e57805160ff191683800117855561528c565b8280016001018555821561528c579182015b8281111561528b578251825591602001919060010190615270565b5b509050615299919061529d565b5090565b5b808211156152b657600081600090555060010161529e565b5090565b6000604051905090565b600080fd5b600080fd5b600073ffffffffffffffffffffffffffffffffffffffff82169050919050565b60006152f9826152ce565b9050919050565b615309816152ee565b811461531457600080fd5b50565b60008135905061532681615300565b92915050565b60008060408385031215615343576153426152c4565b5b600061535185828601615317565b925050602061536285828601615317565b9150509250929050565b6000819050919050565b61537f8161536c565b82525050565b600060208201905061539a6000830184615376565b92915050565b600080fd5b600080fd5b6000601f19601f8301169050919050565b7f4e487b7100000000000000000000000000000000000000000000000000000000600052604160045260246000fd5b6153f3826153aa565b810181811067ffffffffffffffff82111715615412576154116153bb565b5b80604052505050565b60006154256152ba565b905061543182826153ea565b919050565b600067ffffffffffffffff821115615451576154506153bb565b5b61545a826153aa565b9050602081019050919050565b82818337600083830152505050565b600061548961548484615436565b61541b565b9050828152602081018484840111156154a5576154a46153a5565b5b6154b0848285615467565b509392505050565b600082601f8301126154cd576154cc6153a0565b5b81356154dd848260208601615476565b91505092915050565b6154ef8161536c565b81146154fa57600080fd5b50565b60008135905061550c816154e6565b92915050565b6000806000806080858703121561552c5761552b6152c4565b5b600061553a87828801615317565b945050602061554b87828801615317565b935050604085013567ffffffffffffffff81111561556c5761556b6152c9565b5b615578878288016154b8565b9250506060615589878288016154fd565b91505092959194509250565b600081519050919050565b600082825260208201905092915050565b60005b838110156155cf5780820151818401526020810190506155b4565b838111156155de576000848401525b50505050565b60006155ef82615595565b6155f981856155a0565b93506156098185602086016155b1565b615612816153aa565b840191505092915050565b600060c082019050818103600083015261563781896155e4565b90506156466020830188615376565b818103604083015261565881876155e4565b90506156676060830186615376565b6156746080830185615376565b61568160a0830184615376565b979650505050505050565b600081519050919050565b600082825260208201905092915050565b6000819050602082019050919050565b600082825260208201905092915050565b60006156d482615595565b6156de81856156b8565b93506156ee8185602086016155b1565b6156f7816153aa565b840191505092915050565b600061570e83836156c9565b905092915050565b6000602082019050919050565b600061572e8261568c565b6157388185615697565b93508360208202850161574a856156a8565b8060005b8581101561578657848403895281516157678582615702565b945061577283615716565b925060208a0199505060018101905061574e565b50829750879550505050505092915050565b600081519050919050565b600082825260208201905092915050565b6000819050602082019050919050565b6157cd8161536c565b82525050565b60006157df83836157c4565b60208301905092915050565b6000602082019050919050565b600061580382615798565b61580d81856157a3565b9350615818836157b4565b8060005b8381101561584957815161583088826157d3565b975061583b836157eb565b92505060018101905061581c565b5085935050505092915050565b600060c08201905081810360008301526158708189615723565b9050818103602083015261588481886157f8565b905081810360408301526158988187615723565b905081810360608301526158ac81866157f8565b905081810360808301526158c081856157f8565b905081810360a08301526158d481846157f8565b9050979650505050505050565b6000602082840312156158f7576158f66152c4565b5b6000615905848285016154fd565b91505092915050565b615917816152ee565b82525050565b600060e082019050615932600083018a61590e565b818103602083015261594481896155e4565b9050818103604083015261595881886155e4565b9050818103606083015261596c81876155e4565b9050818103608083015261598081866155e4565b905081810360a083015261599481856155e4565b905081810360c08301526159a881846155e4565b905098975050505050505050565b600081519050919050565b600082825260208201905092915050565b6000819050602082019050919050565b60007fffffffff0000000000000000000000000000000000000000000000000000000082169050919050565b615a17816159e2565b82525050565b6000615a298383615a0e565b60208301905092915050565b6000602082019050919050565b6000615a4d826159b6565b615a5781856159c1565b9350615a62836159d2565b8060005b83811015615a93578151615a7a8882615a1d565b9750615a8583615a35565b925050600181019050615a66565b5085935050505092915050565b600081519050919050565b600082825260208201905092915050565b6000819050602082019050919050565b615ad5816152ee565b82525050565b6000615ae78383615acc565b60208301905092915050565b6000602082019050919050565b6000615b0b82615aa0565b615b158185615aab565b9350615b2083615abc565b8060005b83811015615b51578151615b388882615adb565b9750615b4383615af3565b925050600181019050615b24565b5085935050505092915050565b600060c0820190508181036000830152615b788189615a42565b90508181036020830152615b8c8188615b00565b90508181036040830152615ba08187615b00565b90508181036060830152615bb48186615723565b90508181036080830152615bc88185615723565b905081810360a0830152615bdc8184615723565b9050979650505050505050565b600060208284031215615bff57615bfe6152c4565b5b6000615c0d84828501615317565b91505092915050565b600060c082019050615c2b600083018961590e565b8181036020830152615c3d81886155e4565b90508181036040830152615c5181876155e4565b90508181036060830152615c6581866155e4565b90508181036080830152615c7981856155e4565b905081810360a0830152615c8d81846155e4565b9050979650505050505050565b60008060408385031215615cb157615cb06152c4565b5b6000615cbf85828601615317565b925050602083013567ffffffffffffffff811115615ce057615cdf6152c9565b5b615cec858286016154b8565b9150509250929050565b615cff816159e2565b82525050565b600060c082019050615d1a6000830189615cf6565b615d27602083018861590e565b615d34604083018761590e565b8181036060830152615d4681866155e4565b90508181036080830152615d5a81856155e4565b905081810360a0830152615d6e81846155e4565b9050979650505050505050565b600061012082019050615d91600083018c615cf6565b615d9e602083018b61590e565b615dab604083018a61590e565b8181036060830152615dbd81896155e4565b9050615dcc6080830188615376565b81810360a0830152615dde81876155e4565b9050615ded60c0830186615376565b615dfa60e0830185615376565b615e08610100830184615376565b9a9950505050505050505050565b60008060008060008060c08789031215615e3357615e326152c4565b5b6000615e4189828a01615317565b965050602087013567ffffffffffffffff811115615e6257615e616152c9565b5b615e6e89828a016154b8565b955050604087013567ffffffffffffffff811115615e8f57615e8e6152c9565b5b615e9b89828a016154b8565b945050606087013567ffffffffffffffff811115615ebc57615ebb6152c9565b5b615ec889828a016154b8565b935050608087013567ffffffffffffffff811115615ee957615ee86152c9565b5b615ef589828a016154b8565b92505060a087013567ffffffffffffffff811115615f1657615f156152c9565b5b615f2289828a016154b8565b9150509295509295509295565b600080600060608486031215615f4857615f476152c4565b5b6000615f5686828701615317565b935050602084013567ffffffffffffffff811115615f7757615f766152c9565b5b615f83868287016154b8565b9250506040615f94868287016154fd565b9150509250925092565b600060e0820190508181036000830152615fb8818a615b00565b90508181036020830152615fcc8189615723565b90508181036040830152615fe08188615723565b90508181036060830152615ff48187615723565b905081810360808301526160088186615723565b905081810360a083015261601c8185615723565b905081810360c08301526160308184615723565b905098975050505050505050565b600080600080600080600060e0888a03121561605d5761605c6152c4565b5b600061606b8a828b01615317565b975050602061607c8a828b01615317565b965050604088013567ffffffffffffffff81111561609d5761609c6152c9565b5b6160a98a828b016154b8565b95505060606160ba8a828b016154fd565b945050608088013567ffffffffffffffff8111156160db576160da6152c9565b5b6160e78a828b016154b8565b93505060a06160f88a828b016154fd565b92505060c06161098a828b016154fd565b91505092959891949750929550565b60008060008060808587031215616132576161316152c4565b5b600061614087828801615317565b945050602061615187828801615317565b935050604085013567ffffffffffffffff811115616172576161716152c9565b5b61617e878288016154b8565b925050606085013567ffffffffffffffff81111561619f5761619e6152c9565b5b6161ab878288016154b8565b91505092959194509250565b6161c0816159e2565b81146161cb57600080fd5b50565b6000813590506161dd816161b7565b92915050565b600080600080608085870312156161fd576161fc6152c4565b5b600061620b87828801615317565b945050602061621c87828801615317565b935050604061622d878288016161ce565b925050606085013567ffffffffffffffff81111561624e5761624d6152c9565b5b61625a878288016154b8565b91505092959194509250565b600080600080600080600060e0888a031215616285576162846152c4565b5b60006162938a828b01615317565b975050602088013567ffffffffffffffff8111156162b4576162b36152c9565b5b6162c08a828b016154b8565b965050604088013567ffffffffffffffff8111156162e1576162e06152c9565b5b6162ed8a828b016154b8565b955050606088013567ffffffffffffffff81111561630e5761630d6152c9565b5b61631a8a828b016154b8565b945050608088013567ffffffffffffffff81111561633b5761633a6152c9565b5b6163478a828b016154b8565b93505060a088013567ffffffffffffffff811115616368576163676152c9565b5b6163748a828b016154b8565b92505060c088013567ffffffffffffffff811115616395576163946152c9565b5b6163a18a828b016154b8565b91505092959891949750929550565b7f4e487b7100000000000000000000000000000000000000000000000000000000600052603260045260246000fd5b7f4e487b7100000000000000000000000000000000000000000000000000000000600052602260045260246000fd5b6000600282049050600182168061642657607f821691505b6020821081141561643a576164396163df565b5b50919050565b600081905092915050565b60008190508160005260206000209050919050565b6000815461646d8161640e565b6164778186616440565b9450600182166000811461649257600181146164a3576164d6565b60ff198316865281860193506164d6565b6164ac8561644b565b60005b838110156164ce578154818901526001820191506020810190506164af565b838801955050505b50505092915050565b60006164eb8284616460565b915081905092915050565b7f4e487b7100000000000000000000000000000000000000000000000000000000600052601160045260246000fd5b60006165308261536c565b91507fffffffffffffffffffffffffffffffffffffffffffffffffffffffffffffffff821415616563576165626164f6565b5b600182019050919050565b600081905092915050565b600061658482615595565b61658e818561656e565b935061659e8185602086016155b1565b80840191505092915050565b6000819050919050565b6165c56165c08261536c565b6165aa565b82525050565b60006165d78285616579565b91506165e382846165b4565b6020820191508190509392505050565b7f4e6f7420666f756e64206f776e65722e00000000000000000000000000000000600082015250565b60006166296010836155a0565b9150616634826165f3565b602082019050919050565b600060208201905081810360008301526166588161661c565b9050919050565b7f4475706c6963617465204c5220526573756c742e000000000000000000000000600082015250565b60006166956014836155a0565b91506166a08261665f565b602082019050919050565b600060208201905081810360008301526166c481616688565b9050919050565b7f5368696674205465737420696e636f72726563742e0000000000000000000000600082015250565b60006167016015836155a0565b915061670c826166cb565b602082019050919050565b60006020820190508181036000830152616730816166f4565b9050919050565b7f4c697374656e696e672053636f726520696e636f72726563742e000000000000600082015250565b600061676d601a836155a0565b915061677882616737565b602082019050919050565b6000602082019050818103600083015261679c81616760565b9050919050565b7f52656164696e672053636f726520696e636f72726563742e0000000000000000600082015250565b60006167d96018836155a0565b91506167e4826167a3565b602082019050919050565b60006020820190508181036000830152616808816167cc565b9050919050565b600061681a8261536c565b91506168258361536c565b9250827fffffffffffffffffffffffffffffffffffffffffffffffffffffffffffffffff0382111561685a576168596164f6565b5b828201905092915050565b7f57616974696e6720666f7220636f6e6669726d6174696f6e2e00000000000000600082015250565b600061689b6019836155a0565b91506168a682616865565b602082019050919050565b600060208201905081810360008301526168ca8161688e565b9050919050565b60006168dd8284616579565b915081905092915050565b7f537461747573205265717565737420696e636f72726563742e00000000000000600082015250565b600061691e6019836155a0565b9150616929826168e8565b602082019050919050565b6000602082019050818103600083015261694d81616911565b9050919050565b7f4475706c696361746520535720526573756c742e000000000000000000000000600082015250565b600061698a6014836155a0565b915061699582616954565b602082019050919050565b600060208201905081810360008301526169b98161697d565b9050919050565b7f537065616b696e672053636f726520696e636f72726563742e00000000000000600082015250565b60006169f66019836155a0565b9150616a01826169c0565b602082019050919050565b60006020820190508181036000830152616a25816169e9565b9050919050565b7f57726974696e672053636f726520696e636f72726563742e0000000000000000600082015250565b6000616a626018836155a0565b9150616a6d82616a2c565b602082019050919050565b60006020820190508181036000830152616a9181616a55565b905091905056fea2646970667358221220f138d85a9748853b4915bc3c039c9674ab5fd1887177effadba569f4e91953b464736f6c634300080b0033608060405234801561001057600080fd5b50612f49806100206000396000f3fe608060405234801561001057600080fd5b50600436106100e95760003560e01c8063ae8f00d31161008c578063dc1e475f11610066578063dc1e475f146102a3578063e83ddcea146102bf578063e9daa70a146102f1578063f7a7b83d14610323576100e9565b8063ae8f00d314610223578063ce1ec5bb1461023f578063dae7debd14610273576100e9565b8063381a3bf7116100c8578063381a3bf71461016f5780637aedcde5146101a3578063844bb460146101d757806386b87ba2146101f3576100e9565b80624e56cf146100ee5780630299779f1461010a5780630b5e50ed1461013a575b600080fd5b6101086004803603810190610103919061233f565b61033f565b005b610124600480360381019061011f91906123de565b6104e4565b6040516101319190612466565b60405180910390f35b610154600480360381019061014f91906124ad565b61065f565b6040516101669695949392919061258a565b60405180910390f35b61018960048036038101906101849190612600565b610863565b60405161019a9594939291906127f7565b60405180910390f35b6101bd60048036038101906101b891906124ad565b610e54565b6040516101ce95949392919061286d565b60405180910390f35b6101f160048036038101906101ec919061233f565b611072565b005b61020d600480360381019061020891906128d5565b611217565b60405161021a9190612466565b60405180910390f35b61023d600480360381019061023891906123de565b611347565b005b61025960048036038101906102549190612600565b61146b565b60405161026a959493929190612adc565b60405180910390f35b61028d60048036038101906102889190612600565b6119c5565b60405161029a9190612466565b60405180910390f35b6102bd60048036038101906102b8919061233f565b611a82565b005b6102d960048036038101906102d491906124ad565b611c22565b6040516102e893929190612b52565b60405180910390f35b61030b60048036038101906103069190612b90565b611d24565b60405161031a93929190612b52565b60405180910390f35b61033d60048036038101906103389190612bd0565b611f93565b005b60005b6000805490508110156104dd578473ffffffffffffffffffffffffffffffffffffffff166000828154811061037a57610379612c9f565b5b906000526020600020906005020160000160009054906101000a900473ffffffffffffffffffffffffffffffffffffffff1673ffffffffffffffffffffffffffffffffffffffff1614801561043f57508373ffffffffffffffffffffffffffffffffffffffff16600082815481106103f5576103f4612c9f565b5b906000526020600020906005020160010160009054906101000a900473ffffffffffffffffffffffffffffffffffffffff1673ffffffffffffffffffffffffffffffffffffffff16145b801561048a575082805190602001206000828154811061046257610461612c9f565b5b90600052602060002090600502016002016040516104809190612dce565b6040518091039020145b156104ca5781600082815481106104a4576104a3612c9f565b5b906000526020600020906005020160040190805190602001906104c89291906120e4565b505b80806104d590612e14565b915050610342565b5050505050565b600080600090505b600080549050811015610656578473ffffffffffffffffffffffffffffffffffffffff166000828154811061052457610523612c9f565b5b906000526020600020906005020160000160009054906101000a900473ffffffffffffffffffffffffffffffffffffffff1673ffffffffffffffffffffffffffffffffffffffff161480156105e957508373ffffffffffffffffffffffffffffffffffffffff166000828154811061059f5761059e612c9f565b5b906000526020600020906005020160010160009054906101000a900473ffffffffffffffffffffffffffffffffffffffff1673ffffffffffffffffffffffffffffffffffffffff16145b8015610634575082805190602001206000828154811061060c5761060b612c9f565b5b906000526020600020906005020160020160405161062a9190612dce565b6040518091039020145b15610643576001915050610658565b808061064e90612e14565b9150506104ec565b505b9392505050565b6001818154811061066f57600080fd5b90600052602060002090600602016000915090508060000160009054906101000a900473ffffffffffffffffffffffffffffffffffffffff16908060010154908060020180546106be90612cfd565b80601f01602080910402602001604051908101604052809291908181526020018280546106ea90612cfd565b80156107375780601f1061070c57610100808354040283529160200191610737565b820191906000526020600020905b81548152906001019060200180831161071a57829003601f168201915b50505050509080600301805461074c90612cfd565b80601f016020809104026020016040519081016040528092919081815260200182805461077890612cfd565b80156107c55780601f1061079a576101008083540402835291602001916107c5565b820191906000526020600020905b8154815290600101906020018083116107a857829003601f168201915b5050505050908060040180546107da90612cfd565b80601f016020809104026020016040519081016040528092919081815260200182805461080690612cfd565b80156108535780601f1061082857610100808354040283529160200191610853565b820191906000526020600020905b81548152906001019060200180831161083657829003601f168201915b5050505050908060050154905086565b60608060608060606000808054905067ffffffffffffffff81111561088b5761088a612214565b5b6040519080825280602002602001820160405280156108b95781602001602082028036833780820191505090505b5090506000808054905067ffffffffffffffff8111156108dc576108db612214565b5b60405190808252806020026020018201604052801561090a5781602001602082028036833780820191505090505b5090506000808054905067ffffffffffffffff81111561092d5761092c612214565b5b60405190808252806020026020018201604052801561096057816020015b606081526020019060019003908161094b5790505b5090506000808054905067ffffffffffffffff81111561098357610982612214565b5b6040519080825280602002602001820160405280156109b657816020015b60608152602001906001900390816109a15790505b5090506000808054905067ffffffffffffffff8111156109d9576109d8612214565b5b604051908082528060200260200182016040528015610a0c57816020015b60608152602001906001900390816109f75790505b50905060005b600080549050811015610e36578b73ffffffffffffffffffffffffffffffffffffffff1660008281548110610a4a57610a49612c9f565b5b906000526020600020906005020160010160009054906101000a900473ffffffffffffffffffffffffffffffffffffffff1673ffffffffffffffffffffffffffffffffffffffff161415610e235760008181548110610aac57610aab612c9f565b5b906000526020600020906005020160000160009054906101000a900473ffffffffffffffffffffffffffffffffffffffff16868281518110610af157610af0612c9f565b5b602002602001019073ffffffffffffffffffffffffffffffffffffffff16908173ffffffffffffffffffffffffffffffffffffffff168152505060008181548110610b3f57610b3e612c9f565b5b906000526020600020906005020160010160009054906101000a900473ffffffffffffffffffffffffffffffffffffffff16858281518110610b8457610b83612c9f565b5b602002602001019073ffffffffffffffffffffffffffffffffffffffff16908173ffffffffffffffffffffffffffffffffffffffff168152505060008181548110610bd257610bd1612c9f565b5b90600052602060002090600502016002018054610bee90612cfd565b80601f0160208091040260200160405190810160405280929190818152602001828054610c1a90612cfd565b8015610c675780601f10610c3c57610100808354040283529160200191610c67565b820191906000526020600020905b815481529060010190602001808311610c4a57829003601f168201915b5050505050848281518110610c7f57610c7e612c9f565b5b602002602001018190525060008181548110610c9e57610c9d612c9f565b5b90600052602060002090600502016003018054610cba90612cfd565b80601f0160208091040260200160405190810160405280929190818152602001828054610ce690612cfd565b8015610d335780601f10610d0857610100808354040283529160200191610d33565b820191906000526020600020905b815481529060010190602001808311610d1657829003601f168201915b5050505050838281518110610d4b57610d4a612c9f565b5b602002602001018190525060008181548110610d6a57610d69612c9f565b5b90600052602060002090600502016004018054610d8690612cfd565b80601f0160208091040260200160405190810160405280929190818152602001828054610db290612cfd565b8015610dff5780601f10610dd457610100808354040283529160200191610dff565b820191906000526020600020905b815481529060010190602001808311610de257829003601f168201915b5050505050828281518110610e1757610e16612c9f565b5b60200260200101819052505b8080610e2e90612e14565b915050610a12565b50848484848499509950995099509950505050505091939590929450565b60008181548110610e6457600080fd5b90600052602060002090600502016000915090508060000160009054906101000a900473ffffffffffffffffffffffffffffffffffffffff16908060010160009054906101000a900473ffffffffffffffffffffffffffffffffffffffff1690806002018054610ed390612cfd565b80601f0160208091040260200160405190810160405280929190818152602001828054610eff90612cfd565b8015610f4c5780601f10610f2157610100808354040283529160200191610f4c565b820191906000526020600020905b815481529060010190602001808311610f2f57829003601f168201915b505050505090806003018054610f6190612cfd565b80601f0160208091040260200160405190810160405280929190818152602001828054610f8d90612cfd565b8015610fda5780601f10610faf57610100808354040283529160200191610fda565b820191906000526020600020905b815481529060010190602001808311610fbd57829003601f168201915b505050505090806004018054610fef90612cfd565b80601f016020809104026020016040519081016040528092919081815260200182805461101b90612cfd565b80156110685780601f1061103d57610100808354040283529160200191611068565b820191906000526020600020905b81548152906001019060200180831161104b57829003601f168201915b5050505050905085565b60005b600080549050811015611210578473ffffffffffffffffffffffffffffffffffffffff16600082815481106110ad576110ac612c9f565b5b906000526020600020906005020160000160009054906101000a900473ffffffffffffffffffffffffffffffffffffffff1673ffffffffffffffffffffffffffffffffffffffff1614801561117257508373ffffffffffffffffffffffffffffffffffffffff166000828154811061112857611127612c9f565b5b906000526020600020906005020160010160009054906101000a900473ffffffffffffffffffffffffffffffffffffffff1673ffffffffffffffffffffffffffffffffffffffff16145b80156111bd575082805190602001206000828154811061119557611194612c9f565b5b90600052602060002090600502016002016040516111b39190612dce565b6040518091039020145b156111fd5781600082815481106111d7576111d6612c9f565b5b906000526020600020906005020160040190805190602001906111fb9291906120e4565b505b808061120890612e14565b915050611075565b5050505050565b600080600090505b60018054905081101561133e578473ffffffffffffffffffffffffffffffffffffffff166001828154811061125757611256612c9f565b5b906000526020600020906006020160000160009054906101000a900473ffffffffffffffffffffffffffffffffffffffff1673ffffffffffffffffffffffffffffffffffffffff161480156112f8575083836040516020016112ba929190612e99565b60405160208183030381529060405280519060200120600182815481106112e4576112e3612c9f565b5b906000526020600020906006020160010154145b1561132b576001818154811061131157611310612c9f565b5b906000526020600020906006020160050154915050611340565b808061133690612e14565b91505061121f565b505b9392505050565b600260405180606001604052808573ffffffffffffffffffffffffffffffffffffffff1681526020018473ffffffffffffffffffffffffffffffffffffffff16815260200183815250908060018154018082558091505060019003906000526020600020906003020160009091909190915060008201518160000160006101000a81548173ffffffffffffffffffffffffffffffffffffffff021916908373ffffffffffffffffffffffffffffffffffffffff16021790555060208201518160010160006101000a81548173ffffffffffffffffffffffffffffffffffffffff021916908373ffffffffffffffffffffffffffffffffffffffff16021790555060408201518160020190805190602001906114639291906120e4565b505050505050565b6060806060806060600060018054905067ffffffffffffffff81111561149457611493612214565b5b6040519080825280602002602001820160405280156114c25781602001602082028036833780820191505090505b509050600060018054905067ffffffffffffffff8111156114e6576114e5612214565b5b60405190808252806020026020018201604052801561151957816020015b60608152602001906001900390816115045790505b509050600060018054905067ffffffffffffffff81111561153d5761153c612214565b5b60405190808252806020026020018201604052801561157057816020015b606081526020019060019003908161155b5790505b509050600060018054905067ffffffffffffffff81111561159457611593612214565b5b6040519080825280602002602001820160405280156115c757816020015b60608152602001906001900390816115b25790505b509050600060018054905067ffffffffffffffff8111156115eb576115ea612214565b5b6040519080825280602002602001820160405280156116195781602001602082028036833780820191505090505b50905060005b6001805490508110156119a7578b73ffffffffffffffffffffffffffffffffffffffff166001828154811061165757611656612c9f565b5b906000526020600020906006020160000160009054906101000a900473ffffffffffffffffffffffffffffffffffffffff1673ffffffffffffffffffffffffffffffffffffffff16141561199457600181815481106116b9576116b8612c9f565b5b9060005260206000209060060201600101548682815181106116de576116dd612c9f565b5b602002602001018181525050600181815481106116fe576116fd612c9f565b5b9060005260206000209060060201600201805461171a90612cfd565b80601f016020809104026020016040519081016040528092919081815260200182805461174690612cfd565b80156117935780601f1061176857610100808354040283529160200191611793565b820191906000526020600020905b81548152906001019060200180831161177657829003601f168201915b50505050508582815181106117ab576117aa612c9f565b5b6020026020010181905250600181815481106117ca576117c9612c9f565b5b906000526020600020906006020160030180546117e690612cfd565b80601f016020809104026020016040519081016040528092919081815260200182805461181290612cfd565b801561185f5780601f106118345761010080835404028352916020019161185f565b820191906000526020600020905b81548152906001019060200180831161184257829003601f168201915b505050505084828151811061187757611876612c9f565b5b60200260200101819052506001818154811061189657611895612c9f565b5b906000526020600020906006020160040180546118b290612cfd565b80601f01602080910402602001604051908101604052809291908181526020018280546118de90612cfd565b801561192b5780601f106119005761010080835404028352916020019161192b565b820191906000526020600020905b81548152906001019060200180831161190e57829003601f168201915b505050505083828151811061194357611942612c9f565b5b60200260200101819052506001818154811061196257611961612c9f565b5b90600052602060002090600602016005015482828151811061198757611986612c9f565b5b6020026020010181815250505b808061199f90612e14565b91505061161f565b50848484848499509950995099509950505050505091939590929450565b6000806000905060005b600080549050811015611a78578373ffffffffffffffffffffffffffffffffffffffff1660008281548110611a0757611a06612c9f565b5b906000526020600020906005020160010160009054906101000a900473ffffffffffffffffffffffffffffffffffffffff1673ffffffffffffffffffffffffffffffffffffffff161415611a6557600182611a629190612ebd565b91505b8080611a7090612e14565b9150506119cf565b5080915050919050565b60006040518060a001604052808673ffffffffffffffffffffffffffffffffffffffff1681526020018573ffffffffffffffffffffffffffffffffffffffff1681526020018481526020018381526020016040518060400160405280600981526020017f53637265656e696e670000000000000000000000000000000000000000000000815250815250908060018154018082558091505060019003906000526020600020906005020160009091909190915060008201518160000160006101000a81548173ffffffffffffffffffffffffffffffffffffffff021916908373ffffffffffffffffffffffffffffffffffffffff16021790555060208201518160010160006101000a81548173ffffffffffffffffffffffffffffffffffffffff021916908373ffffffffffffffffffffffffffffffffffffffff1602179055506040820151816002019080519060200190611bdf9291906120e4565b506060820151816003019080519060200190611bfc9291906120e4565b506080820151816004019080519060200190611c199291906120e4565b50505050505050565b60028181548110611c3257600080fd5b90600052602060002090600302016000915090508060000160009054906101000a900473ffffffffffffffffffffffffffffffffffffffff16908060010160009054906101000a900473ffffffffffffffffffffffffffffffffffffffff1690806002018054611ca190612cfd565b80601f0160208091040260200160405190810160405280929190818152602001828054611ccd90612cfd565b8015611d1a5780601f10611cef57610100808354040283529160200191611d1a565b820191906000526020600020905b815481529060010190602001808311611cfd57829003601f168201915b5050505050905083565b600080606060005b600280549050811015611f8a578473ffffffffffffffffffffffffffffffffffffffff1660028281548110611d6457611d63612c9f565b5b906000526020600020906003020160010160009054906101000a900473ffffffffffffffffffffffffffffffffffffffff1673ffffffffffffffffffffffffffffffffffffffff16148015611e2957508573ffffffffffffffffffffffffffffffffffffffff1660028281548110611ddf57611dde612c9f565b5b906000526020600020906003020160000160009054906101000a900473ffffffffffffffffffffffffffffffffffffffff1673ffffffffffffffffffffffffffffffffffffffff16145b15611f775760028181548110611e4257611e41612c9f565b5b906000526020600020906003020160000160009054906101000a900473ffffffffffffffffffffffffffffffffffffffff1660028281548110611e8857611e87612c9f565b5b906000526020600020906003020160010160009054906101000a900473ffffffffffffffffffffffffffffffffffffffff1660028381548110611ece57611ecd612c9f565b5b9060005260206000209060030201600201808054611eeb90612cfd565b80601f0160208091040260200160405190810160405280929190818152602001828054611f1790612cfd565b8015611f645780601f10611f3957610100808354040283529160200191611f64565b820191906000526020600020905b815481529060010190602001808311611f4757829003601f168201915b5050505050905093509350935050611f8c565b8080611f8290612e14565b915050611d2c565b505b9250925092565b60016040518060c001604052808773ffffffffffffffffffffffffffffffffffffffff1681526020018685604051602001611fcf929190612e99565b60405160208183030381529060405280519060200120815260200186815260200185815260200184815260200183815250908060018154018082558091505060019003906000526020600020906006020160009091909190915060008201518160000160006101000a81548173ffffffffffffffffffffffffffffffffffffffff021916908373ffffffffffffffffffffffffffffffffffffffff1602179055506020820151816001015560408201518160020190805190602001906120969291906120e4565b5060608201518160030190805190602001906120b39291906120e4565b5060808201518160040190805190602001906120d09291906120e4565b5060a0820151816005015550505050505050565b8280546120f090612cfd565b90600052602060002090601f0160209004810192826121125760008555612159565b82601f1061212b57805160ff1916838001178555612159565b82800160010185558215612159579182015b8281111561215857825182559160200191906001019061213d565b5b509050612166919061216a565b5090565b5b8082111561218357600081600090555060010161216b565b5090565b6000604051905090565b600080fd5b600080fd5b600073ffffffffffffffffffffffffffffffffffffffff82169050919050565b60006121c68261219b565b9050919050565b6121d6816121bb565b81146121e157600080fd5b50565b6000813590506121f3816121cd565b92915050565b600080fd5b600080fd5b6000601f19601f8301169050919050565b7f4e487b7100000000000000000000000000000000000000000000000000000000600052604160045260246000fd5b61224c82612203565b810181811067ffffffffffffffff8211171561226b5761226a612214565b5b80604052505050565b600061227e612187565b905061228a8282612243565b919050565b600067ffffffffffffffff8211156122aa576122a9612214565b5b6122b382612203565b9050602081019050919050565b82818337600083830152505050565b60006122e26122dd8461228f565b612274565b9050828152602081018484840111156122fe576122fd6121fe565b5b6123098482856122c0565b509392505050565b600082601f830112612326576123256121f9565b5b81356123368482602086016122cf565b91505092915050565b6000806000806080858703121561235957612358612191565b5b6000612367878288016121e4565b9450506020612378878288016121e4565b935050604085013567ffffffffffffffff81111561239957612398612196565b5b6123a587828801612311565b925050606085013567ffffffffffffffff8111156123c6576123c5612196565b5b6123d287828801612311565b91505092959194509250565b6000806000606084860312156123f7576123f6612191565b5b6000612405868287016121e4565b9350506020612416868287016121e4565b925050604084013567ffffffffffffffff81111561243757612436612196565b5b61244386828701612311565b9150509250925092565b6000819050919050565b6124608161244d565b82525050565b600060208201905061247b6000830184612457565b92915050565b61248a8161244d565b811461249557600080fd5b50565b6000813590506124a781612481565b92915050565b6000602082840312156124c3576124c2612191565b5b60006124d184828501612498565b91505092915050565b6124e3816121bb565b82525050565b6000819050919050565b6124fc816124e9565b82525050565b600081519050919050565b600082825260208201905092915050565b60005b8381101561253c578082015181840152602081019050612521565b8381111561254b576000848401525b50505050565b600061255c82612502565b612566818561250d565b935061257681856020860161251e565b61257f81612203565b840191505092915050565b600060c08201905061259f60008301896124da565b6125ac60208301886124f3565b81810360408301526125be8187612551565b905081810360608301526125d28186612551565b905081810360808301526125e68185612551565b90506125f560a0830184612457565b979650505050505050565b60006020828403121561261657612615612191565b5b6000612624848285016121e4565b91505092915050565b600081519050919050565b600082825260208201905092915050565b6000819050602082019050919050565b612662816121bb565b82525050565b60006126748383612659565b60208301905092915050565b6000602082019050919050565b60006126988261262d565b6126a28185612638565b93506126ad83612649565b8060005b838110156126de5781516126c58882612668565b97506126d083612680565b9250506001810190506126b1565b5085935050505092915050565b600081519050919050565b600082825260208201905092915050565b6000819050602082019050919050565b600082825260208201905092915050565b600061273382612502565b61273d8185612717565b935061274d81856020860161251e565b61275681612203565b840191505092915050565b600061276d8383612728565b905092915050565b6000602082019050919050565b600061278d826126eb565b61279781856126f6565b9350836020820285016127a985612707565b8060005b858110156127e557848403895281516127c68582612761565b94506127d183612775565b925060208a019950506001810190506127ad565b50829750879550505050505092915050565b600060a0820190508181036000830152612811818861268d565b90508181036020830152612825818761268d565b905081810360408301526128398186612782565b9050818103606083015261284d8185612782565b905081810360808301526128618184612782565b90509695505050505050565b600060a08201905061288260008301886124da565b61288f60208301876124da565b81810360408301526128a18186612551565b905081810360608301526128b58185612551565b905081810360808301526128c98184612551565b90509695505050505050565b6000806000606084860312156128ee576128ed612191565b5b60006128fc868287016121e4565b935050602084013567ffffffffffffffff81111561291d5761291c612196565b5b61292986828701612311565b925050604084013567ffffffffffffffff81111561294a57612949612196565b5b61295686828701612311565b9150509250925092565b600081519050919050565b600082825260208201905092915050565b6000819050602082019050919050565b612995816124e9565b82525050565b60006129a7838361298c565b60208301905092915050565b6000602082019050919050565b60006129cb82612960565b6129d5818561296b565b93506129e08361297c565b8060005b83811015612a115781516129f8888261299b565b9750612a03836129b3565b9250506001810190506129e4565b5085935050505092915050565b600081519050919050565b600082825260208201905092915050565b6000819050602082019050919050565b612a538161244d565b82525050565b6000612a658383612a4a565b60208301905092915050565b6000602082019050919050565b6000612a8982612a1e565b612a938185612a29565b9350612a9e83612a3a565b8060005b83811015612acf578151612ab68882612a59565b9750612ac183612a71565b925050600181019050612aa2565b5085935050505092915050565b600060a0820190508181036000830152612af681886129c0565b90508181036020830152612b0a8187612782565b90508181036040830152612b1e8186612782565b90508181036060830152612b328185612782565b90508181036080830152612b468184612a7e565b90509695505050505050565b6000606082019050612b6760008301866124da565b612b7460208301856124da565b8181036040830152612b868184612551565b9050949350505050565b60008060408385031215612ba757612ba6612191565b5b6000612bb5858286016121e4565b9250506020612bc6858286016121e4565b9150509250929050565b600080600080600060a08688031215612bec57612beb612191565b5b6000612bfa888289016121e4565b955050602086013567ffffffffffffffff811115612c1b57612c1a612196565b5b612c2788828901612311565b945050604086013567ffffffffffffffff811115612c4857612c47612196565b5b612c5488828901612311565b935050606086013567ffffffffffffffff811115612c7557612c74612196565b5b612c8188828901612311565b9250506080612c9288828901612498565b9150509295509295909350565b7f4e487b7100000000000000000000000000000000000000000000000000000000600052603260045260246000fd5b7f4e487b7100000000000000000000000000000000000000000000000000000000600052602260045260246000fd5b60006002820490506001821680612d1557607f821691505b60208210811415612d2957612d28612cce565b5b50919050565b600081905092915050565b60008190508160005260206000209050919050565b60008154612d5c81612cfd565b612d668186612d2f565b94506001821660008114612d815760018114612d9257612dc5565b60ff19831686528186019350612dc5565b612d9b85612d3a565b60005b83811015612dbd57815481890152600182019150602081019050612d9e565b838801955050505b50505092915050565b6000612dda8284612d4f565b915081905092915050565b7f4e487b7100000000000000000000000000000000000000000000000000000000600052601160045260246000fd5b6000612e1f8261244d565b91507fffffffffffffffffffffffffffffffffffffffffffffffffffffffffffffffff821415612e5257612e51612de5565b5b600182019050919050565b600081905092915050565b6000612e7382612502565b612e7d8185612e5d565b9350612e8d81856020860161251e565b80840191505092915050565b6000612ea58285612e68565b9150612eb18284612e68565b91508190509392505050565b6000612ec88261244d565b9150612ed38361244d565b9250827fffffffffffffffffffffffffffffffffffffffffffffffffffffffffffffffff03821115612f0857612f07612de5565b5b82820190509291505056fea264697066735822122068aa446e0a6dd2f15e350182de69e7b934713a4462984fc4897ac8e5ea6347b864736f6c634300080b0033",
  "immutableReferences": {},
  "source": "// SPDX-License-Identifier: MIT\r\npragma solidity >=0.4.22 <0.9.0;\r\n\r\n// Import cc contract cn thit  s dng\r\nimport \"./SmartCV_ListStudent.sol\";\r\nimport \"./SmartCV_ListBusiness.sol\";\r\nimport \"./SmartCV_ListIIG.sol\";\r\nimport \"./SmartCV_Apply.sol\";\r\n\r\n// CV dnh cho sinh vin\r\ncontract StudentBusiness {\r\n\r\n    // Khai contract  import  s dng cc function  contract \r\n    ListStudent listStudent = new ListStudent();\r\n    ListBusiness listBusiness = new ListBusiness();\r\n    ListIIG listIIG = new ListIIG();\r\n    ApplyCV applyCV = new ApplyCV();\r\n\r\n    // ======================================\r\n    // ====== Chc nng cho sinh vin =======\r\n    // ======================================\r\n\r\n    // Chc nng thm thng tin sinh vin (ng k)\r\n    function addStudentProfile (\r\n        address _studentOwner,\r\n        string memory _name,\r\n        string memory _phoneNumber,\r\n        string memory _professionalTitle,\r\n        string memory _email,\r\n        string memory _github,\r\n        string memory _linkedin,\r\n        string memory _sourceImage,\r\n        string memory _password) public {\r\n            listStudent.addSV(_studentOwner, \r\n                                _name, \r\n                                _phoneNumber, \r\n                                _professionalTitle, \r\n                                _email, \r\n                                _github, \r\n                                _linkedin,\r\n                                _sourceImage,\r\n                                _password);\r\n    }\r\n\r\n    // Chc nng chnh thng tin sinh vin\r\n    function editStudentProfile (\r\n        address _studentOwner,\r\n        string memory _name,\r\n        string memory _phoneNumber,\r\n        string memory _professionalTitle,\r\n        string memory _email,\r\n        string memory _github,\r\n        string memory _linkedin,\r\n        string memory _sourceImage) public {\r\n            listStudent.editSV(_studentOwner,\r\n                                _name, \r\n                                _phoneNumber, \r\n                                _professionalTitle, \r\n                                _email, \r\n                                _github, \r\n                                _linkedin,\r\n                                _sourceImage);\r\n    }\r\n\r\n    // Chc nng ly thng tin ca sinh vin\r\n    function getStudentProfile(address _studentOwner) public view returns(\r\n        address studentOwner, \r\n        string memory name, \r\n        string memory phoneNumber, \r\n        string memory professionalTitle, \r\n        string memory email, \r\n        string memory github, \r\n        string memory linkedin,\r\n        string memory sourceImage,\r\n        string memory password) {\r\n            return listStudent.getProfile(_studentOwner);\r\n    }\r\n\r\n    // Chc nng kim tra ti khon sinh vin c tn ti hay khng? (ng nhp)\r\n    function checkStudentProfile(\r\n        address _studentOwner, \r\n        string memory _password) public view returns(uint x) {\r\n            return listStudent.checkSV(_studentOwner, _password);\r\n    }\r\n\r\n    // Chc nng kim tra a ch sinh vin c tn ti hay khng?\r\n    function checkExistStudent(address _studentOwner) public view returns(uint x) {\r\n            return listStudent.checkExistSV(_studentOwner);\r\n    }\r\n\r\n    // Chc nng thm thng tin k nng ca sinh vin\r\n    function addStudentSkill(\r\n        address _studentOwner,\r\n        string memory _title, \r\n        uint _level) public {\r\n            listStudent.addSkill(_studentOwner, \r\n                                _title, \r\n                                _level);\r\n    }\r\n\r\n    // Chc nng chnh sa thng tin k nng ca sinh vin\r\n    function editStudentSkill(\r\n        address _studentOwner,\r\n        string memory _title, \r\n        uint _level) public {\r\n            listStudent.editSkill(_studentOwner, \r\n                                _title, \r\n                                _level);\r\n    }\r\n\r\n    // Chc nng kim tra k nng ca sinh vin c tn ti hay khng?\r\n    function checkStudentSkill(\r\n        address _studentOwner,\r\n        string memory _title) public view returns(uint x) {\r\n            return listStudent.checkSkill(_studentOwner, _title);\r\n    }\r\n\r\n    // Chc nng kim tra s lng k nng ca sinh vin\r\n    function checkNumStudentSkill(address _studentOwner) public view returns(uint x) {\r\n            uint _count = listStudent.checkNumSkill(_studentOwner);\r\n            if(_count > 10){\r\n                return 1;\r\n            }\r\n    }\r\n\r\n    // Chc nng ly thng tin k nng ca sinh vin\r\n    function getStudentSkill(address _studentOwner) public view returns(\r\n        string[] memory titles,\r\n        uint[] memory levels) {\r\n        return listStudent.getSkill(_studentOwner);\r\n    }\r\n\r\n    // Chc nng thm thng tin hc vn ca sinh vin\r\n    function addStudentEducation(\r\n        address _studentOwner,\r\n        string memory _institution,\r\n        string memory _focusArea, \r\n        string memory _startTime,\r\n        string memory _finishTime,\r\n        string memory _gpa) public {\r\n            listStudent.addEducation(_studentOwner, \r\n                                    _institution, \r\n                                    _focusArea,\r\n                                    _startTime,\r\n                                    _finishTime,\r\n                                    _gpa);\r\n    }\r\n\r\n    // Chc nng chnh sa thng tin hc vn ca sinh vin\r\n    function editStudentEducation(\r\n        address _studentOwner,\r\n        string memory _institution,\r\n        string memory _focusArea, \r\n        string memory _startTime,\r\n        string memory _finishTime,\r\n        string memory _gpa) public {\r\n            listStudent.editEducation(_studentOwner, \r\n                                    _institution, \r\n                                    _focusArea,\r\n                                    _startTime,\r\n                                    _finishTime,\r\n                                    _gpa);\r\n    }\r\n\r\n    // Chc nng kim tra sinh vin  thm hc vn  hay cha?\r\n    function checkStudentEducation(\r\n        address _studentOwner, \r\n        string memory _institution,\r\n        string memory _focusArea) public view returns(uint x) {\r\n            return listStudent.checkEducation(_studentOwner,\r\n                                            _institution,\r\n                                            _focusArea);\r\n    }\r\n\r\n    // Chc nng ly thng tin hc vn ca sinh vin\r\n    function getStudentEducation(address _studentOwner) public view returns(\r\n        string[] memory,\r\n        string[] memory,\r\n        string[] memory,\r\n        string[] memory,\r\n        string[] memory) {\r\n            return listStudent.getEducation(_studentOwner);\r\n    }\r\n\r\n    // Chc nng ly danh sch doanh nghip\r\n    function getListBusiness() public view returns(\r\n        address[] memory,\r\n        string[] memory,\r\n        string[] memory,\r\n        string[] memory,\r\n        string[] memory,\r\n        string[] memory,\r\n        string[] memory,\r\n        string[] memory) {\r\n        return listBusiness.getListDN();\r\n    }\r\n\r\n    // Chc nng ly thng tin tuyn dng ca doanh nghip\r\n    function getRecruit(address _businessOwner) public view returns(\r\n        bytes32[] memory,\r\n        string[] memory,\r\n        string[] memory,\r\n        string[] memory,\r\n        uint[] memory) {\r\n        return applyCV.getRecruit(_businessOwner);\r\n    }\r\n\r\n    // Chc nng gi CV ti doanh nghip\r\n    function sendCV(\r\n        address _studentOwner, \r\n        address _businessOwner, \r\n        string memory _jobTitle, \r\n        string memory _coverLetter) public {\r\n            applyCV.addCV(_studentOwner, \r\n                        _businessOwner, \r\n                        _jobTitle, \r\n                        _coverLetter);\r\n    }\r\n\r\n    // Chc nng kim tra sinh vin  np CV cha?\r\n    function checkCV(\r\n        address _studentOwner, \r\n        address _businessOwner, \r\n        string memory _jobTitle) public view returns(uint x) {\r\n            return applyCV.checkCV(_studentOwner, \r\n                                    _businessOwner, \r\n                                    _jobTitle);\r\n    }\r\n\r\n    // Chc nng xem nh gi thc tp ca doanh nghip\r\n    function getReview(\r\n        address _studentOwner, \r\n        address _businessOwner) public view returns(\r\n            address studentOwner, \r\n            address businessOwner, \r\n            string memory content) {\r\n                return applyCV.getReview(_studentOwner, _businessOwner);\r\n    }\r\n\r\n    // ======================================\r\n    // ===== Chc nng cho doanh nghip =====\r\n    // ======================================\r\n\r\n    // Chc nng thm thng tin doanh nghip (ng k)\r\n    function addBusinessProfile(\r\n        address _businessOwner,\r\n        string memory _name,\r\n        string memory _country,\r\n        string memory _facebook,\r\n        string memory _website,\r\n        string memory _linkedin,\r\n        string memory _focusArea,\r\n        string memory _password) public {\r\n            listBusiness.addDN(_businessOwner, \r\n                                _name, \r\n                                _country, \r\n                                _facebook, \r\n                                _website, \r\n                                _linkedin, \r\n                                _focusArea, \r\n                                _password);\r\n    }\r\n\r\n    // Chc nng chnh sa thng tin doanh nghip\r\n    function editBusinessProfile(\r\n        address _businessOwner,\r\n        string memory _name,\r\n        string memory _country,\r\n        string memory _facebook,\r\n        string memory _website,\r\n        string memory _linkedin,\r\n        string memory _focusArea) public {\r\n            listBusiness.editDN(_businessOwner, \r\n                                _name, \r\n                                _country, \r\n                                _facebook, \r\n                                _website, \r\n                                _linkedin, \r\n                                _focusArea);\r\n    }\r\n\r\n    // Chc nng ly thng tin ca doanh nghip\r\n    function getBusinessProfile(address _businessOwner) public view returns(\r\n        address businessOwner, \r\n        string memory name, \r\n        string memory country, \r\n        string memory facebook, \r\n        string memory website, \r\n        string memory linkedin, \r\n        string memory focusArea) {\r\n            return listBusiness.getProfile(_businessOwner);\r\n    }\r\n\r\n    // Chc nng kim tra ti khon doanh nghip c tn ti hay khng? (ng nhp)\r\n    function checkBusinessProfile(\r\n        address _businessOwner, \r\n        string memory _password) public view returns(uint) {\r\n            return listBusiness.checkDN(_businessOwner, _password);\r\n    }\r\n\r\n    // Chc nng kim tra a ch doanh nghip c tn ti hay khng?\r\n    function checkExistBusiness(address _businessOwner) public view returns(uint x) {\r\n            return listBusiness.checkExistDN(_businessOwner);\r\n    }\r\n\r\n    // Chc nng ly danh sch CV  np vo doanh nghip\r\n    function getListCV(address _businessOwner) public view returns(\r\n        address[] memory, \r\n        address[] memory, \r\n        string[] memory, \r\n        string[] memory,\r\n        string[] memory) {\r\n            return applyCV.getCV(_businessOwner);\r\n    }\r\n    \r\n    //Chc nng duyt CV vo vng interview\r\n    function interviewCV(\r\n        address _studentOwner, \r\n        address _businessOwner, \r\n        string memory _jobTitle,\r\n        string memory _statusCV) public {\r\n            applyCV.interviewCV(_studentOwner, \r\n                                _businessOwner, \r\n                                _jobTitle, \r\n                                _statusCV);\r\n    }\r\n\r\n    //Chc nng duyt CV vo vng onboard\r\n    function onboardCV(\r\n        address _studentOwner, \r\n        address _businessOwner, \r\n        string memory _jobTitle,\r\n        string memory _statusCV) public {\r\n            applyCV.onboardCV(_studentOwner, \r\n                            _businessOwner, \r\n                            _jobTitle, \r\n                            _statusCV);\r\n    }\r\n\r\n    // Chc nng thm thng tin tuyn dng ca doanh nghip\r\n    function addRecruit(\r\n        address _businessOwner,\r\n        string memory _jobTitle,\r\n        string memory _jobDescription,\r\n        string memory _recruitDate,\r\n        uint _amount) public {\r\n            applyCV.addRecruit(_businessOwner, \r\n                                _jobTitle, \r\n                                _jobDescription,\r\n                                _recruitDate,\r\n                                _amount);\r\n    }\r\n\r\n    // Chc nng kim tra s lng tuyn dng   hay cha?\r\n    function checkAmountBusinessRecruit(\r\n        address _businessOwner,\r\n        string memory _jobTitle,\r\n        string memory _recruitDate) public view returns(uint x) {\r\n            uint numCV = applyCV.checkNumCV(_businessOwner);\r\n            uint amountRecuit = applyCV.checkAmountRecruit(_businessOwner, _jobTitle, _recruitDate);\r\n            if(numCV > amountRecuit){\r\n                return 1;\r\n            }\r\n    }\r\n\r\n    // Chc nng nh gi thc tp cho sinh vin\r\n    function sendReview(\r\n        address _studentOwner, \r\n        address _businessOwner, \r\n        string memory _content) public {\r\n            applyCV.addReview(_studentOwner, \r\n                            _businessOwner, \r\n                            _content);\r\n    }\r\n\r\n    // ======================================\r\n    // ========= Chc nng cho IIG ==========\r\n    // ======================================\r\n\r\n    // Chc nng thm thng tin IIG (ng k)\r\n    function addIIGProfile(\r\n        address _iigOwner,\r\n        string memory _name,\r\n        string memory _country,\r\n        string memory _facebook,\r\n        string memory _website,\r\n        string memory _linkedin,\r\n        string memory _password) public {\r\n            listIIG.addIIG(_iigOwner, \r\n                            _name, \r\n                            _country, \r\n                            _facebook, \r\n                            _website, \r\n                            _linkedin, \r\n                            _password);\r\n    }\r\n\r\n    // Chc nng chnh sa thng tin IIG\r\n    function editIIGProfile(\r\n        address _iigOwner,\r\n        string memory _name,\r\n        string memory _country,\r\n        string memory _facebook,\r\n        string memory _website,\r\n        string memory _linkedin) public {\r\n            listIIG.editIIG(_iigOwner, \r\n                            _name, \r\n                            _country, \r\n                            _facebook, \r\n                            _website, \r\n                            _linkedin);\r\n    }\r\n\r\n    // Chc nng ly danh sch IIG\r\n    function getListIIG() public view returns(\r\n        address[] memory,\r\n        string[] memory,\r\n        string[] memory,\r\n        string[] memory,\r\n        string[] memory,\r\n        string[] memory,\r\n        string[] memory) {\r\n            return listIIG.getListIIG();\r\n    }\r\n\r\n    // Chc nng ly thng tin ca IIG\r\n    function getIIGProfile(address _iigOwner) public view returns(\r\n        address iigOwner,\r\n        string memory name,\r\n        string memory country,\r\n        string memory facebook,\r\n        string memory website,\r\n        string memory linkedin) {\r\n            return listIIG.getProfile(_iigOwner);\r\n    }\r\n\r\n    // Chc nng kim tra ti khon IIG c tn ti hay khng? (ng nhp)\r\n    function checkIIGProfile(\r\n        address _iigOwner, \r\n        string memory _password) public view returns(uint) {\r\n            return listIIG.checkIIG(_iigOwner, _password);\r\n    }\r\n\r\n    // Chc nng kim tra a ch IIG c tn ti hay khng?\r\n    function checkExistIIG(address _iigOwner) public view returns(uint x) {\r\n            return listIIG.checkExistIIG(_iigOwner);\r\n    }\r\n\r\n    // Chc nng gi thng tin yu cu chng ch IIG\r\n    function sendIIGRequest (\r\n        address _studentOwner,\r\n        address _iigOwner,\r\n        string memory _identityCard,\r\n        string memory _requestDate) public {\r\n            listIIG.addRequest(_studentOwner, \r\n                            _iigOwner,\r\n                            _identityCard,\r\n                            _requestDate);\r\n    }\r\n\r\n    // Chc nng ly danh sch yu cu chng ch IIG\r\n    function getListIIGRequest(address _iigOwner) public view returns(\r\n        bytes4[] memory,\r\n        address[] memory, \r\n        address[] memory, \r\n        string[] memory,\r\n        string[] memory,\r\n        string[] memory) {\r\n            return listIIG.getListRequest(_iigOwner);\r\n    }\r\n\r\n    // Chc nng ly danh sch yu cu chng ch IIG theo sinh vin\r\n    function getListIIGRequestStudent(address _iigOwner, address _studentOwner) public view returns(\r\n        bytes4[] memory,\r\n        address[] memory, \r\n        address[] memory,\r\n        string[] memory,\r\n        string[] memory,\r\n        string[] memory) {\r\n            return listIIG.getListRequestStudent(_iigOwner, _studentOwner);\r\n    }\r\n\r\n    //Chc nng duyt yu cu chng ch IIG\r\n    function confirmIIGRequest(\r\n        address _studentOwner, \r\n        address _iigOwner, \r\n        bytes4 _codeRequest,\r\n        string memory _statusRequest) public {\r\n            listIIG.confirmRequest(_studentOwner,\r\n                                    _iigOwner,\r\n                                    _codeRequest,\r\n                                    _statusRequest);\r\n    }\r\n\r\n    // Chc nng nhp thng tin im thi Listening - Reading\r\n    function addIIGLRResult (\r\n        address _studentOwner,\r\n        string memory _testDate,\r\n        uint _shiftTest,\r\n        string memory _expireDate,\r\n        uint _listeningScore,\r\n        uint _readingScore) public {\r\n            address _iigOwner = msg.sender;\r\n            listIIG.addLRResult(_iigOwner,\r\n                                _studentOwner, \r\n                                _testDate,\r\n                                _shiftTest, \r\n                                _expireDate, \r\n                                _listeningScore, \r\n                                _readingScore);\r\n    }\r\n\r\n    // Chc nng nhp thng tin im thi Speaking - Writing\r\n    function addIIGSWResult (\r\n        address _studentOwner,\r\n        string memory _testDate,\r\n        uint _shiftTest,\r\n        string memory _expireDate,\r\n        uint _speakingScore,\r\n        uint _writingScore) public {\r\n            address _iigOwner = msg.sender;\r\n            listIIG.addSWResult(_iigOwner,\r\n                                _studentOwner, \r\n                                _testDate,\r\n                                _shiftTest,\r\n                                _expireDate, \r\n                                _speakingScore, \r\n                                _writingScore);\r\n    }\r\n\r\n    //Chc nng ly thng tin im thi Listening - Reading\r\n    function getListIIGLRResult(address _iigOwner, address _studentOwner) public view returns(\r\n        string[] memory,\r\n        uint[] memory,\r\n        string[] memory,\r\n        uint[] memory,\r\n        uint[] memory,\r\n        uint[] memory) {\r\n            return listIIG.getListLRResult(_iigOwner, _studentOwner);\r\n    }\r\n\r\n    //Chc nng ly thng tin im thi Speaking - Writing\r\n    function getListIIGSWResult(address _iigOwner, address _studentOwner) public view returns(\r\n        string[] memory,\r\n        uint[] memory,\r\n        string[] memory,\r\n        uint[] memory,\r\n        uint[] memory,\r\n        uint[] memory) {\r\n            return listIIG.getListSWResult(_iigOwner, _studentOwner);\r\n    }\r\n\r\n    // Chc nng ly im thi Listening - Reading ca sinh vin\r\n    function getIIGLRResult(\r\n        address _iigOwner, \r\n        address _studentOwner,\r\n        string memory _testDate,\r\n        uint _shiftTest) public view returns(\r\n            string memory testDate,\r\n            uint shiftTest,\r\n            string memory expireDate,\r\n            uint listeningScore,\r\n            uint readingScore,\r\n            uint totalScore) {\r\n                return listIIG.getLRResult(_iigOwner,\r\n                                            _studentOwner,\r\n                                            _testDate,\r\n                                            _shiftTest);\r\n    }\r\n\r\n    // Chc nng ly im thi Speaking - Writing ca sinh vin\r\n    function getIIGSWResult(\r\n        address _iigOwner, \r\n        address _studentOwner,\r\n        string memory _testDate,\r\n        uint _shiftTest) public view returns(\r\n            string memory testDate,\r\n            uint shiftTest,\r\n            string memory expireDate,\r\n            uint speakingScore,\r\n            uint writingScore,\r\n            uint totalScore) {\r\n                return listIIG.getSWResult(_iigOwner,\r\n                                            _studentOwner,\r\n                                            _testDate,\r\n                                            _shiftTest);\r\n    }\r\n}",
  "sourcePath": "C:\\Users\\19520\\Documents\\NCKH_Blockchain\\SolidityProgramming\\ProjectResearch\\SmartCV\\SmartContract\\contracts\\SmartCV_StudentBusiness.sol",
  "compiler": {
    "name": "solc",
    "version": "0.8.11+commit.d7f03943.Emscripten.clang"
  },
  "schemaVersion": "3.4.4",
  "updatedAt": "2022-07-30T16:10:33.459Z",
  "devdoc": {
    "kind": "dev",
    "methods": {},
    "version": 1
  },
  "userdoc": {
    "kind": "user",
    "methods": {},
    "version": 1
  }
}