{
  "contractName": "StudentBusiness",
  "abi": [
    {
      "inputs": [
        {
          "internalType": "address",
          "name": "_studentOwner",
          "type": "address"
        },
        {
          "internalType": "string",
          "name": "_name",
          "type": "string"
        },
        {
          "internalType": "string",
          "name": "_birthDay",
          "type": "string"
        },
        {
          "internalType": "string",
          "name": "_professionalTitle",
          "type": "string"
        },
        {
          "internalType": "string",
          "name": "_email",
          "type": "string"
        },
        {
          "internalType": "string",
          "name": "_github",
          "type": "string"
        },
        {
          "internalType": "string",
          "name": "_linkedin",
          "type": "string"
        },
        {
          "internalType": "string",
          "name": "_password",
          "type": "string"
        }
      ],
      "name": "addStudentProfile",
      "outputs": [],
      "stateMutability": "nonpayable",
      "type": "function"
    },
    {
      "inputs": [
        {
          "internalType": "address",
          "name": "_studentOwner",
          "type": "address"
        }
      ],
      "name": "getStudentProfile",
      "outputs": [
        {
          "internalType": "address",
          "name": "studentOwner",
          "type": "address"
        },
        {
          "internalType": "string",
          "name": "name",
          "type": "string"
        },
        {
          "internalType": "string",
          "name": "birthDay",
          "type": "string"
        },
        {
          "internalType": "string",
          "name": "professionalTitle",
          "type": "string"
        },
        {
          "internalType": "string",
          "name": "email",
          "type": "string"
        },
        {
          "internalType": "string",
          "name": "github",
          "type": "string"
        },
        {
          "internalType": "string",
          "name": "linkedin",
          "type": "string"
        },
        {
          "internalType": "string",
          "name": "password",
          "type": "string"
        }
      ],
      "stateMutability": "view",
      "type": "function",
      "constant": true
    },
    {
      "inputs": [
        {
          "internalType": "address",
          "name": "_studentOwner",
          "type": "address"
        },
        {
          "internalType": "string",
          "name": "_password",
          "type": "string"
        }
      ],
      "name": "checkStudentProfile",
      "outputs": [
        {
          "internalType": "uint256",
          "name": "x",
          "type": "uint256"
        }
      ],
      "stateMutability": "view",
      "type": "function",
      "constant": true
    },
    {
      "inputs": [
        {
          "internalType": "address",
          "name": "_studentOwner",
          "type": "address"
        },
        {
          "internalType": "string",
          "name": "_title",
          "type": "string"
        },
        {
          "internalType": "uint256",
          "name": "_level",
          "type": "uint256"
        }
      ],
      "name": "addStudentSkill",
      "outputs": [],
      "stateMutability": "nonpayable",
      "type": "function"
    },
    {
      "inputs": [
        {
          "internalType": "address",
          "name": "_studentOwner",
          "type": "address"
        },
        {
          "internalType": "string",
          "name": "_title",
          "type": "string"
        }
      ],
      "name": "checkStudentSkilll",
      "outputs": [
        {
          "internalType": "uint256",
          "name": "x",
          "type": "uint256"
        }
      ],
      "stateMutability": "view",
      "type": "function",
      "constant": true
    },
    {
      "inputs": [
        {
          "internalType": "address",
          "name": "_studentOwner",
          "type": "address"
        }
      ],
      "name": "checkNumStudentSkilll",
      "outputs": [
        {
          "internalType": "uint256",
          "name": "x",
          "type": "uint256"
        }
      ],
      "stateMutability": "view",
      "type": "function",
      "constant": true
    },
    {
      "inputs": [
        {
          "internalType": "address",
          "name": "_studentOwner",
          "type": "address"
        }
      ],
      "name": "getStudentSkill",
      "outputs": [
        {
          "internalType": "string[]",
          "name": "titles",
          "type": "string[]"
        },
        {
          "internalType": "uint256[]",
          "name": "levels",
          "type": "uint256[]"
        }
      ],
      "stateMutability": "view",
      "type": "function",
      "constant": true
    },
    {
      "inputs": [],
      "name": "getListBusiness",
      "outputs": [
        {
          "internalType": "address[]",
          "name": "",
          "type": "address[]"
        },
        {
          "internalType": "string[]",
          "name": "",
          "type": "string[]"
        },
        {
          "internalType": "string[]",
          "name": "",
          "type": "string[]"
        },
        {
          "internalType": "string[]",
          "name": "",
          "type": "string[]"
        },
        {
          "internalType": "string[]",
          "name": "",
          "type": "string[]"
        },
        {
          "internalType": "string[]",
          "name": "",
          "type": "string[]"
        },
        {
          "internalType": "string[]",
          "name": "",
          "type": "string[]"
        },
        {
          "internalType": "string[]",
          "name": "",
          "type": "string[]"
        }
      ],
      "stateMutability": "view",
      "type": "function",
      "constant": true
    },
    {
      "inputs": [
        {
          "internalType": "address",
          "name": "_businessOwner",
          "type": "address"
        }
      ],
      "name": "getRecruit",
      "outputs": [
        {
          "internalType": "string[]",
          "name": "",
          "type": "string[]"
        },
        {
          "internalType": "string[]",
          "name": "",
          "type": "string[]"
        }
      ],
      "stateMutability": "view",
      "type": "function",
      "constant": true
    },
    {
      "inputs": [
        {
          "internalType": "address",
          "name": "_studentOwner",
          "type": "address"
        },
        {
          "internalType": "address",
          "name": "_businessOwner",
          "type": "address"
        },
        {
          "internalType": "string",
          "name": "_jobTitle",
          "type": "string"
        },
        {
          "internalType": "string",
          "name": "_coverLetter",
          "type": "string"
        }
      ],
      "name": "sendCV",
      "outputs": [],
      "stateMutability": "nonpayable",
      "type": "function"
    },
    {
      "inputs": [
        {
          "internalType": "address",
          "name": "_studentOwner",
          "type": "address"
        },
        {
          "internalType": "address",
          "name": "_businessOwner",
          "type": "address"
        },
        {
          "internalType": "string",
          "name": "_jobTitle",
          "type": "string"
        }
      ],
      "name": "checkCV",
      "outputs": [
        {
          "internalType": "uint256",
          "name": "x",
          "type": "uint256"
        }
      ],
      "stateMutability": "view",
      "type": "function",
      "constant": true
    },
    {
      "inputs": [
        {
          "internalType": "address",
          "name": "_studentOwner",
          "type": "address"
        },
        {
          "internalType": "address",
          "name": "_businessOwner",
          "type": "address"
        }
      ],
      "name": "getReview",
      "outputs": [
        {
          "internalType": "address",
          "name": "studentOwner",
          "type": "address"
        },
        {
          "internalType": "address",
          "name": "businessOwner",
          "type": "address"
        },
        {
          "internalType": "string",
          "name": "content",
          "type": "string"
        }
      ],
      "stateMutability": "view",
      "type": "function",
      "constant": true
    },
    {
      "inputs": [
        {
          "internalType": "address",
          "name": "_businessOwner",
          "type": "address"
        },
        {
          "internalType": "string",
          "name": "_name",
          "type": "string"
        },
        {
          "internalType": "string",
          "name": "_country",
          "type": "string"
        },
        {
          "internalType": "string",
          "name": "_facebook",
          "type": "string"
        },
        {
          "internalType": "string",
          "name": "_website",
          "type": "string"
        },
        {
          "internalType": "string",
          "name": "_linkedin",
          "type": "string"
        },
        {
          "internalType": "string",
          "name": "_focusArea",
          "type": "string"
        },
        {
          "internalType": "string",
          "name": "_password",
          "type": "string"
        }
      ],
      "name": "addBusinessProfile",
      "outputs": [],
      "stateMutability": "nonpayable",
      "type": "function"
    },
    {
      "inputs": [
        {
          "internalType": "address",
          "name": "_businessOwner",
          "type": "address"
        }
      ],
      "name": "getBusinessProfile",
      "outputs": [
        {
          "internalType": "address",
          "name": "businessOwner",
          "type": "address"
        },
        {
          "internalType": "string",
          "name": "name",
          "type": "string"
        },
        {
          "internalType": "string",
          "name": "country",
          "type": "string"
        },
        {
          "internalType": "string",
          "name": "facebook",
          "type": "string"
        },
        {
          "internalType": "string",
          "name": "website",
          "type": "string"
        },
        {
          "internalType": "string",
          "name": "linkedin",
          "type": "string"
        },
        {
          "internalType": "string",
          "name": "focusArea",
          "type": "string"
        }
      ],
      "stateMutability": "view",
      "type": "function",
      "constant": true
    },
    {
      "inputs": [
        {
          "internalType": "address",
          "name": "_businessOwner",
          "type": "address"
        },
        {
          "internalType": "string",
          "name": "_password",
          "type": "string"
        }
      ],
      "name": "checkBusinessProfile",
      "outputs": [
        {
          "internalType": "uint256",
          "name": "",
          "type": "uint256"
        }
      ],
      "stateMutability": "view",
      "type": "function",
      "constant": true
    },
    {
      "inputs": [
        {
          "internalType": "address",
          "name": "_businessOwner",
          "type": "address"
        }
      ],
      "name": "getListCV",
      "outputs": [
        {
          "internalType": "address[]",
          "name": "",
          "type": "address[]"
        },
        {
          "internalType": "address[]",
          "name": "",
          "type": "address[]"
        },
        {
          "internalType": "string[]",
          "name": "",
          "type": "string[]"
        },
        {
          "internalType": "string[]",
          "name": "",
          "type": "string[]"
        },
        {
          "internalType": "string[]",
          "name": "",
          "type": "string[]"
        }
      ],
      "stateMutability": "view",
      "type": "function",
      "constant": true
    },
    {
      "inputs": [
        {
          "internalType": "address",
          "name": "_studentOwner",
          "type": "address"
        },
        {
          "internalType": "address",
          "name": "_businessOwner",
          "type": "address"
        },
        {
          "internalType": "string",
          "name": "_jobTitle",
          "type": "string"
        },
        {
          "internalType": "string",
          "name": "_statusCV",
          "type": "string"
        }
      ],
      "name": "interviewCV",
      "outputs": [],
      "stateMutability": "nonpayable",
      "type": "function"
    },
    {
      "inputs": [
        {
          "internalType": "address",
          "name": "_studentOwner",
          "type": "address"
        },
        {
          "internalType": "address",
          "name": "_businessOwner",
          "type": "address"
        },
        {
          "internalType": "string",
          "name": "_jobTitle",
          "type": "string"
        },
        {
          "internalType": "string",
          "name": "_statusCV",
          "type": "string"
        }
      ],
      "name": "onboardCV",
      "outputs": [],
      "stateMutability": "nonpayable",
      "type": "function"
    },
    {
      "inputs": [
        {
          "internalType": "address",
          "name": "_businessOwner",
          "type": "address"
        },
        {
          "internalType": "string",
          "name": "_jobTitle",
          "type": "string"
        },
        {
          "internalType": "string",
          "name": "_jobDescription",
          "type": "string"
        }
      ],
      "name": "addRecruit",
      "outputs": [],
      "stateMutability": "nonpayable",
      "type": "function"
    },
    {
      "inputs": [
        {
          "internalType": "address",
          "name": "_studentOwner",
          "type": "address"
        },
        {
          "internalType": "address",
          "name": "_businessOwner",
          "type": "address"
        },
        {
          "internalType": "string",
          "name": "_content",
          "type": "string"
        }
      ],
      "name": "sendReview",
      "outputs": [],
      "stateMutability": "nonpayable",
      "type": "function"
    }
  ],
  "bytecode": "0x608060405260405162000012906200015b565b604051809103906000f0801580156200002f573d6000803e3d6000fd5b506000806101000a81548173ffffffffffffffffffffffffffffffffffffffff021916908373ffffffffffffffffffffffffffffffffffffffff1602179055506040516200007d9062000169565b604051809103906000f0801580156200009a573d6000803e3d6000fd5b50600160006101000a81548173ffffffffffffffffffffffffffffffffffffffff021916908373ffffffffffffffffffffffffffffffffffffffff160217905550604051620000e99062000177565b604051809103906000f08015801562000106573d6000803e3d6000fd5b50600260006101000a81548173ffffffffffffffffffffffffffffffffffffffff021916908373ffffffffffffffffffffffffffffffffffffffff1602179055503480156200015457600080fd5b5062000185565b612b8d8062002b4183390190565b6121bf80620056ce83390190565b6125e9806200788d83390190565b6129ac80620001956000396000f3fe608060405234801561001057600080fd5b506004361061012b5760003560e01c8063844bb460116100ad578063cee5c7f311610071578063cee5c7f314610389578063e2f43af2146103a5578063e9daa70a146103c1578063ed1386c4146103f3578063fe761783146104235761012b565b8063844bb460146102bc57806391b9e6db146102d85780639cd32582146102f4578063acf6f3fd14610328578063ce1ec5bb146103585761012b565b8063435e716d116100f4578063435e716d146101fe57806357824f161461022e5780635b288a93146102535780636b4dbb281461026f5780636d53448f146102a05761012b565b80624e56cf146101305780630299779f1461014c5780631632dd981461017c57806335c77f851461019857806342f08d4b146101c8575b600080fd5b61014a6004803603810190610145919061134f565b61045a565b005b610166600480360381019061016191906113ee565b6104f2565b6040516101739190611476565b60405180910390f35b610196600480360381019061019191906113ee565b61059d565b005b6101b260048036038101906101ad9190611491565b610633565b6040516101bf9190611476565b60405180910390f35b6101e260048036038101906101dd91906114ed565b6106db565b6040516101f597969594939291906115b1565b60405180910390f35b61021860048036038101906102139190611491565b6107a0565b6040516102259190611476565b60405180910390f35b610236610847565b60405161024a989796959493929190611814565b60405180910390f35b61026d600480360381019061026891906118ca565b610903565b005b610289600480360381019061028491906114ed565b6109a6565b604051610297929190611b02565b60405180910390f35b6102ba60048036038101906102b591906118ca565b610a51565b005b6102d660048036038101906102d1919061134f565b610af6565b005b6102f260048036038101906102ed919061134f565b610b8f565b005b61030e600480360381019061030991906114ed565b610c28565b60405161031f959493929190611b39565b60405180910390f35b610342600480360381019061033d9190611491565b610ce4565b60405161034f9190611476565b60405180910390f35b610372600480360381019061036d91906114ed565b610d8b565b604051610380929190611baf565b60405180910390f35b6103a3600480360381019061039e9190611be6565b610e38565b005b6103bf60048036038101906103ba9190611c9d565b610ece565b005b6103db60048036038101906103d69190611d0c565b610f62565b6040516103ea93929190611d4c565b60405180910390f35b61040d600480360381019061040891906114ed565b611017565b60405161041a9190611476565b60405180910390f35b61043d600480360381019061043891906114ed565b6110d0565b604051610451989796959493929190611d8a565b60405180910390f35b600260009054906101000a900473ffffffffffffffffffffffffffffffffffffffff1673ffffffffffffffffffffffffffffffffffffffff16624e56cf858585856040518563ffffffff1660e01b81526004016104ba9493929190611e39565b600060405180830381600087803b1580156104d457600080fd5b505af11580156104e8573d6000803e3d6000fd5b5050505050505050565b6000600260009054906101000a900473ffffffffffffffffffffffffffffffffffffffff1673ffffffffffffffffffffffffffffffffffffffff16630299779f8585856040518463ffffffff1660e01b815260040161055393929190611d4c565b602060405180830381865afa158015610570573d6000803e3d6000fd5b505050506040513d601f19601f820116820180604052508101906105949190611ea1565b90509392505050565b600260009054906101000a900473ffffffffffffffffffffffffffffffffffffffff1673ffffffffffffffffffffffffffffffffffffffff1663ae8f00d38484846040518463ffffffff1660e01b81526004016105fc93929190611d4c565b600060405180830381600087803b15801561061657600080fd5b505af115801561062a573d6000803e3d6000fd5b50505050505050565b6000600160009054906101000a900473ffffffffffffffffffffffffffffffffffffffff1673ffffffffffffffffffffffffffffffffffffffff1663a7dba18484846040518363ffffffff1660e01b8152600401610692929190611ece565b602060405180830381865afa1580156106af573d6000803e3d6000fd5b505050506040513d601f19601f820116820180604052508101906106d39190611ea1565b905092915050565b6000606080606080606080600160009054906101000a900473ffffffffffffffffffffffffffffffffffffffff1673ffffffffffffffffffffffffffffffffffffffff16630f53a470896040518263ffffffff1660e01b81526004016107419190611efe565b600060405180830381865afa15801561075e573d6000803e3d6000fd5b505050506040513d6000823e3d601f19601f820116820180604052508101906107879190611f9e565b9650965096509650965096509650919395979092949650565b60008060009054906101000a900473ffffffffffffffffffffffffffffffffffffffff1673ffffffffffffffffffffffffffffffffffffffff1663716b5ab484846040518363ffffffff1660e01b81526004016107fe929190611ece565b602060405180830381865afa15801561081b573d6000803e3d6000fd5b505050506040513d601f19601f8201168201806040525081019061083f9190611ea1565b905092915050565b606080606080606080606080600160009054906101000a900473ffffffffffffffffffffffffffffffffffffffff1673ffffffffffffffffffffffffffffffffffffffff1663cfafbc0c6040518163ffffffff1660e01b8152600401600060405180830381865afa1580156108c0573d6000803e3d6000fd5b505050506040513d6000823e3d601f19601f820116820180604052508101906108e99190612291565b975097509750975097509750975097509091929394959697565b60008054906101000a900473ffffffffffffffffffffffffffffffffffffffff1673ffffffffffffffffffffffffffffffffffffffff16639fea8e1089898989898989896040518963ffffffff1660e01b815260040161096a989796959493929190611d8a565b600060405180830381600087803b15801561098457600080fd5b505af1158015610998573d6000803e3d6000fd5b505050505050505050505050565b60608060008054906101000a900473ffffffffffffffffffffffffffffffffffffffff1673ffffffffffffffffffffffffffffffffffffffff1663ac4b2049846040518263ffffffff1660e01b8152600401610a029190611efe565b600060405180830381865afa158015610a1f573d6000803e3d6000fd5b505050506040513d6000823e3d601f19601f82011682018060405250810190610a4891906124ea565b91509150915091565b600160009054906101000a900473ffffffffffffffffffffffffffffffffffffffff1673ffffffffffffffffffffffffffffffffffffffff1663e045b71089898989898989896040518963ffffffff1660e01b8152600401610aba989796959493929190611d8a565b600060405180830381600087803b158015610ad457600080fd5b505af1158015610ae8573d6000803e3d6000fd5b505050505050505050505050565b600260009054906101000a900473ffffffffffffffffffffffffffffffffffffffff1673ffffffffffffffffffffffffffffffffffffffff1663844bb460858585856040518563ffffffff1660e01b8152600401610b579493929190611e39565b600060405180830381600087803b158015610b7157600080fd5b505af1158015610b85573d6000803e3d6000fd5b5050505050505050565b600260009054906101000a900473ffffffffffffffffffffffffffffffffffffffff1673ffffffffffffffffffffffffffffffffffffffff1663dc1e475f858585856040518563ffffffff1660e01b8152600401610bf09493929190611e39565b600060405180830381600087803b158015610c0a57600080fd5b505af1158015610c1e573d6000803e3d6000fd5b5050505050505050565b6060806060806060600260009054906101000a900473ffffffffffffffffffffffffffffffffffffffff1673ffffffffffffffffffffffffffffffffffffffff1663381a3bf7876040518263ffffffff1660e01b8152600401610c8b9190611efe565b600060405180830381865afa158015610ca8573d6000803e3d6000fd5b505050506040513d6000823e3d601f19601f82011682018060405250810190610cd19190612562565b9450945094509450945091939590929450565b60008060009054906101000a900473ffffffffffffffffffffffffffffffffffffffff1673ffffffffffffffffffffffffffffffffffffffff1663174ceeab84846040518363ffffffff1660e01b8152600401610d42929190611ece565b602060405180830381865afa158015610d5f573d6000803e3d6000fd5b505050506040513d601f19601f82011682018060405250810190610d839190611ea1565b905092915050565b606080600260009054906101000a900473ffffffffffffffffffffffffffffffffffffffff1673ffffffffffffffffffffffffffffffffffffffff1663ce1ec5bb846040518263ffffffff1660e01b8152600401610de99190611efe565b600060405180830381865afa158015610e06573d6000803e3d6000fd5b505050506040513d6000823e3d601f19601f82011682018060405250810190610e2f9190612669565b91509150915091565b600260009054906101000a900473ffffffffffffffffffffffffffffffffffffffff1673ffffffffffffffffffffffffffffffffffffffff1663cee5c7f38484846040518463ffffffff1660e01b8152600401610e97939291906126e1565b600060405180830381600087803b158015610eb157600080fd5b505af1158015610ec5573d6000803e3d6000fd5b50505050505050565b60008054906101000a900473ffffffffffffffffffffffffffffffffffffffff1673ffffffffffffffffffffffffffffffffffffffff166360ccb2048484846040518463ffffffff1660e01b8152600401610f2b93929190612726565b600060405180830381600087803b158015610f4557600080fd5b505af1158015610f59573d6000803e3d6000fd5b50505050505050565b6000806060600260009054906101000a900473ffffffffffffffffffffffffffffffffffffffff1673ffffffffffffffffffffffffffffffffffffffff1663e9daa70a86866040518363ffffffff1660e01b8152600401610fc4929190612764565b600060405180830381865afa158015610fe1573d6000803e3d6000fd5b505050506040513d6000823e3d601f19601f8201168201806040525081019061100a919061278d565b9250925092509250925092565b60008060008054906101000a900473ffffffffffffffffffffffffffffffffffffffff1673ffffffffffffffffffffffffffffffffffffffff16638e891393846040518263ffffffff1660e01b81526004016110739190611efe565b602060405180830381865afa158015611090573d6000803e3d6000fd5b505050506040513d601f19601f820116820180604052508101906110b49190611ea1565b9050600a8111156110c95760019150506110cb565b505b919050565b6000606080606080606080606060008054906101000a900473ffffffffffffffffffffffffffffffffffffffff1673ffffffffffffffffffffffffffffffffffffffff16630f53a4708a6040518263ffffffff1660e01b81526004016111369190611efe565b600060405180830381865afa158015611153573d6000803e3d6000fd5b505050506040513d6000823e3d601f19601f8201168201806040525081019061117c91906127fc565b97509750975097509750975097509750919395975091939597565b6000604051905090565b600080fd5b600080fd5b600073ffffffffffffffffffffffffffffffffffffffff82169050919050565b60006111d6826111ab565b9050919050565b6111e6816111cb565b81146111f157600080fd5b50565b600081359050611203816111dd565b92915050565b600080fd5b600080fd5b6000601f19601f8301169050919050565b7f4e487b7100000000000000000000000000000000000000000000000000000000600052604160045260246000fd5b61125c82611213565b810181811067ffffffffffffffff8211171561127b5761127a611224565b5b80604052505050565b600061128e611197565b905061129a8282611253565b919050565b600067ffffffffffffffff8211156112ba576112b9611224565b5b6112c382611213565b9050602081019050919050565b82818337600083830152505050565b60006112f26112ed8461129f565b611284565b90508281526020810184848401111561130e5761130d61120e565b5b6113198482856112d0565b509392505050565b600082601f83011261133657611335611209565b5b81356113468482602086016112df565b91505092915050565b60008060008060808587031215611369576113686111a1565b5b6000611377878288016111f4565b9450506020611388878288016111f4565b935050604085013567ffffffffffffffff8111156113a9576113a86111a6565b5b6113b587828801611321565b925050606085013567ffffffffffffffff8111156113d6576113d56111a6565b5b6113e287828801611321565b91505092959194509250565b600080600060608486031215611407576114066111a1565b5b6000611415868287016111f4565b9350506020611426868287016111f4565b925050604084013567ffffffffffffffff811115611447576114466111a6565b5b61145386828701611321565b9150509250925092565b6000819050919050565b6114708161145d565b82525050565b600060208201905061148b6000830184611467565b92915050565b600080604083850312156114a8576114a76111a1565b5b60006114b6858286016111f4565b925050602083013567ffffffffffffffff8111156114d7576114d66111a6565b5b6114e385828601611321565b9150509250929050565b600060208284031215611503576115026111a1565b5b6000611511848285016111f4565b91505092915050565b611523816111cb565b82525050565b600081519050919050565b600082825260208201905092915050565b60005b83811015611563578082015181840152602081019050611548565b83811115611572576000848401525b50505050565b600061158382611529565b61158d8185611534565b935061159d818560208601611545565b6115a681611213565b840191505092915050565b600060e0820190506115c6600083018a61151a565b81810360208301526115d88189611578565b905081810360408301526115ec8188611578565b905081810360608301526116008187611578565b905081810360808301526116148186611578565b905081810360a08301526116288185611578565b905081810360c083015261163c8184611578565b905098975050505050505050565b600081519050919050565b600082825260208201905092915050565b6000819050602082019050919050565b61167f816111cb565b82525050565b60006116918383611676565b60208301905092915050565b6000602082019050919050565b60006116b58261164a565b6116bf8185611655565b93506116ca83611666565b8060005b838110156116fb5781516116e28882611685565b97506116ed8361169d565b9250506001810190506116ce565b5085935050505092915050565b600081519050919050565b600082825260208201905092915050565b6000819050602082019050919050565b600082825260208201905092915050565b600061175082611529565b61175a8185611734565b935061176a818560208601611545565b61177381611213565b840191505092915050565b600061178a8383611745565b905092915050565b6000602082019050919050565b60006117aa82611708565b6117b48185611713565b9350836020820285016117c685611724565b8060005b8581101561180257848403895281516117e3858261177e565b94506117ee83611792565b925060208a019950506001810190506117ca565b50829750879550505050505092915050565b600061010082019050818103600083015261182f818b6116aa565b90508181036020830152611843818a61179f565b90508181036040830152611857818961179f565b9050818103606083015261186b818861179f565b9050818103608083015261187f818761179f565b905081810360a0830152611893818661179f565b905081810360c08301526118a7818561179f565b905081810360e08301526118bb818461179f565b90509998505050505050505050565b600080600080600080600080610100898b0312156118eb576118ea6111a1565b5b60006118f98b828c016111f4565b985050602089013567ffffffffffffffff81111561191a576119196111a6565b5b6119268b828c01611321565b975050604089013567ffffffffffffffff811115611947576119466111a6565b5b6119538b828c01611321565b965050606089013567ffffffffffffffff811115611974576119736111a6565b5b6119808b828c01611321565b955050608089013567ffffffffffffffff8111156119a1576119a06111a6565b5b6119ad8b828c01611321565b94505060a089013567ffffffffffffffff8111156119ce576119cd6111a6565b5b6119da8b828c01611321565b93505060c089013567ffffffffffffffff8111156119fb576119fa6111a6565b5b611a078b828c01611321565b92505060e089013567ffffffffffffffff811115611a2857611a276111a6565b5b611a348b828c01611321565b9150509295985092959890939650565b600081519050919050565b600082825260208201905092915050565b6000819050602082019050919050565b611a798161145d565b82525050565b6000611a8b8383611a70565b60208301905092915050565b6000602082019050919050565b6000611aaf82611a44565b611ab98185611a4f565b9350611ac483611a60565b8060005b83811015611af5578151611adc8882611a7f565b9750611ae783611a97565b925050600181019050611ac8565b5085935050505092915050565b60006040820190508181036000830152611b1c818561179f565b90508181036020830152611b308184611aa4565b90509392505050565b600060a0820190508181036000830152611b5381886116aa565b90508181036020830152611b6781876116aa565b90508181036040830152611b7b818661179f565b90508181036060830152611b8f818561179f565b90508181036080830152611ba3818461179f565b90509695505050505050565b60006040820190508181036000830152611bc9818561179f565b90508181036020830152611bdd818461179f565b90509392505050565b600080600060608486031215611bff57611bfe6111a1565b5b6000611c0d868287016111f4565b935050602084013567ffffffffffffffff811115611c2e57611c2d6111a6565b5b611c3a86828701611321565b925050604084013567ffffffffffffffff811115611c5b57611c5a6111a6565b5b611c6786828701611321565b9150509250925092565b611c7a8161145d565b8114611c8557600080fd5b50565b600081359050611c9781611c71565b92915050565b600080600060608486031215611cb657611cb56111a1565b5b6000611cc4868287016111f4565b935050602084013567ffffffffffffffff811115611ce557611ce46111a6565b5b611cf186828701611321565b9250506040611d0286828701611c88565b9150509250925092565b60008060408385031215611d2357611d226111a1565b5b6000611d31858286016111f4565b9250506020611d42858286016111f4565b9150509250929050565b6000606082019050611d61600083018661151a565b611d6e602083018561151a565b8181036040830152611d808184611578565b9050949350505050565b600061010082019050611da0600083018b61151a565b8181036020830152611db2818a611578565b90508181036040830152611dc68189611578565b90508181036060830152611dda8188611578565b90508181036080830152611dee8187611578565b905081810360a0830152611e028186611578565b905081810360c0830152611e168185611578565b905081810360e0830152611e2a8184611578565b90509998505050505050505050565b6000608082019050611e4e600083018761151a565b611e5b602083018661151a565b8181036040830152611e6d8185611578565b90508181036060830152611e818184611578565b905095945050505050565b600081519050611e9b81611c71565b92915050565b600060208284031215611eb757611eb66111a1565b5b6000611ec584828501611e8c565b91505092915050565b6000604082019050611ee3600083018561151a565b8181036020830152611ef58184611578565b90509392505050565b6000602082019050611f13600083018461151a565b92915050565b600081519050611f28816111dd565b92915050565b6000611f41611f3c8461129f565b611284565b905082815260208101848484011115611f5d57611f5c61120e565b5b611f68848285611545565b509392505050565b600082601f830112611f8557611f84611209565b5b8151611f95848260208601611f2e565b91505092915050565b600080600080600080600060e0888a031215611fbd57611fbc6111a1565b5b6000611fcb8a828b01611f19565b975050602088015167ffffffffffffffff811115611fec57611feb6111a6565b5b611ff88a828b01611f70565b965050604088015167ffffffffffffffff811115612019576120186111a6565b5b6120258a828b01611f70565b955050606088015167ffffffffffffffff811115612046576120456111a6565b5b6120528a828b01611f70565b945050608088015167ffffffffffffffff811115612073576120726111a6565b5b61207f8a828b01611f70565b93505060a088015167ffffffffffffffff8111156120a05761209f6111a6565b5b6120ac8a828b01611f70565b92505060c088015167ffffffffffffffff8111156120cd576120cc6111a6565b5b6120d98a828b01611f70565b91505092959891949750929550565b600067ffffffffffffffff82111561210357612102611224565b5b602082029050602081019050919050565b600080fd5b600061212c612127846120e8565b611284565b9050808382526020820190506020840283018581111561214f5761214e612114565b5b835b8181101561217857806121648882611f19565b845260208401935050602081019050612151565b5050509392505050565b600082601f83011261219757612196611209565b5b81516121a7848260208601612119565b91505092915050565b600067ffffffffffffffff8211156121cb576121ca611224565b5b602082029050602081019050919050565b60006121ef6121ea846121b0565b611284565b9050808382526020820190506020840283018581111561221257612211612114565b5b835b8181101561225957805167ffffffffffffffff81111561223757612236611209565b5b8086016122448982611f70565b85526020850194505050602081019050612214565b5050509392505050565b600082601f83011261227857612277611209565b5b81516122888482602086016121dc565b91505092915050565b600080600080600080600080610100898b0312156122b2576122b16111a1565b5b600089015167ffffffffffffffff8111156122d0576122cf6111a6565b5b6122dc8b828c01612182565b985050602089015167ffffffffffffffff8111156122fd576122fc6111a6565b5b6123098b828c01612263565b975050604089015167ffffffffffffffff81111561232a576123296111a6565b5b6123368b828c01612263565b965050606089015167ffffffffffffffff811115612357576123566111a6565b5b6123638b828c01612263565b955050608089015167ffffffffffffffff811115612384576123836111a6565b5b6123908b828c01612263565b94505060a089015167ffffffffffffffff8111156123b1576123b06111a6565b5b6123bd8b828c01612263565b93505060c089015167ffffffffffffffff8111156123de576123dd6111a6565b5b6123ea8b828c01612263565b92505060e089015167ffffffffffffffff81111561240b5761240a6111a6565b5b6124178b828c01612263565b9150509295985092959890939650565b600067ffffffffffffffff82111561244257612441611224565b5b602082029050602081019050919050565b600061246661246184612427565b611284565b9050808382526020820190506020840283018581111561248957612488612114565b5b835b818110156124b2578061249e8882611e8c565b84526020840193505060208101905061248b565b5050509392505050565b600082601f8301126124d1576124d0611209565b5b81516124e1848260208601612453565b91505092915050565b60008060408385031215612501576125006111a1565b5b600083015167ffffffffffffffff81111561251f5761251e6111a6565b5b61252b85828601612263565b925050602083015167ffffffffffffffff81111561254c5761254b6111a6565b5b612558858286016124bc565b9150509250929050565b600080600080600060a0868803121561257e5761257d6111a1565b5b600086015167ffffffffffffffff81111561259c5761259b6111a6565b5b6125a888828901612182565b955050602086015167ffffffffffffffff8111156125c9576125c86111a6565b5b6125d588828901612182565b945050604086015167ffffffffffffffff8111156125f6576125f56111a6565b5b61260288828901612263565b935050606086015167ffffffffffffffff811115612623576126226111a6565b5b61262f88828901612263565b925050608086015167ffffffffffffffff8111156126505761264f6111a6565b5b61265c88828901612263565b9150509295509295909350565b600080604083850312156126805761267f6111a1565b5b600083015167ffffffffffffffff81111561269e5761269d6111a6565b5b6126aa85828601612263565b925050602083015167ffffffffffffffff8111156126cb576126ca6111a6565b5b6126d785828601612263565b9150509250929050565b60006060820190506126f6600083018661151a565b81810360208301526127088185611578565b9050818103604083015261271c8184611578565b9050949350505050565b600060608201905061273b600083018661151a565b818103602083015261274d8185611578565b905061275c6040830184611467565b949350505050565b6000604082019050612779600083018561151a565b612786602083018461151a565b9392505050565b6000806000606084860312156127a6576127a56111a1565b5b60006127b486828701611f19565b93505060206127c586828701611f19565b925050604084015167ffffffffffffffff8111156127e6576127e56111a6565b5b6127f286828701611f70565b9150509250925092565b600080600080600080600080610100898b03121561281d5761281c6111a1565b5b600061282b8b828c01611f19565b985050602089015167ffffffffffffffff81111561284c5761284b6111a6565b5b6128588b828c01611f70565b975050604089015167ffffffffffffffff811115612879576128786111a6565b5b6128858b828c01611f70565b965050606089015167ffffffffffffffff8111156128a6576128a56111a6565b5b6128b28b828c01611f70565b955050608089015167ffffffffffffffff8111156128d3576128d26111a6565b5b6128df8b828c01611f70565b94505060a089015167ffffffffffffffff811115612900576128ff6111a6565b5b61290c8b828c01611f70565b93505060c089015167ffffffffffffffff81111561292d5761292c6111a6565b5b6129398b828c01611f70565b92505060e089015167ffffffffffffffff81111561295a576129596111a6565b5b6129668b828c01611f70565b915050929598509295989093965056fea26469706673582212208fc84be8401a1fc257dfff9dfe3a557a4dd413c3e2930a1400ad9f60ab7dd3dd64736f6c634300080b0033608060405234801561001057600080fd5b50612b6d806100206000396000f3fe608060405234801561001057600080fd5b506004361061009e5760003560e01c8063716b5ab411610066578063716b5ab41461018f5780638e891393146101bf5780639fea8e10146101ef578063ac4b20491461020b578063d64b69131461023c5761009e565b80630f53a470146100a3578063174ceeab146100da5780633aff2cc51461010a57806360ccb2041461013c5780636704710714610158575b600080fd5b6100bd60048036038101906100b89190611f79565b610261565b6040516100d198979695949392919061204e565b60405180910390f35b6100f460048036038101906100ef9190612232565b61084a565b60405161010191906122a7565b60405180910390f35b610124600480360381019061011f91906122ee565b610948565b6040516101339392919061231b565b60405180910390f35b61015660048036038101906101519190612359565b610a2a565b005b610172600480360381019061016d91906122ee565b610b4c565b60405161018698979695949392919061204e565b60405180910390f35b6101a960048036038101906101a49190612232565b610f7c565b6040516101b691906122a7565b60405180910390f35b6101d960048036038101906101d49190611f79565b61107a565b6040516101e691906122a7565b60405180910390f35b610209600480360381019061020491906123c8565b611137565b005b61022560048036038101906102209190611f79565b6112d0565b60405161023392919061270c565b60405180910390f35b610244611538565b604051610258989796959493929190612801565b60405180910390f35b6000606080606080606080606060005b60008054905081101561083d578973ffffffffffffffffffffffffffffffffffffffff16600082815481106102a9576102a86128b7565b5b906000526020600020906008020160000160009054906101000a900473ffffffffffffffffffffffffffffffffffffffff1673ffffffffffffffffffffffffffffffffffffffff16141561082a576000818154811061030b5761030a6128b7565b5b906000526020600020906008020160000160009054906101000a900473ffffffffffffffffffffffffffffffffffffffff1660008281548110610351576103506128b7565b5b906000526020600020906008020160010160008381548110610376576103756128b7565b5b90600052602060002090600802016002016000848154811061039b5761039a6128b7565b5b9060005260206000209060080201600301600085815481106103c0576103bf6128b7565b5b9060005260206000209060080201600401600086815481106103e5576103e46128b7565b5b90600052602060002090600802016005016000878154811061040a576104096128b7565b5b90600052602060002090600802016006016000888154811061042f5761042e6128b7565b5b906000526020600020906008020160070186805461044c90612915565b80601f016020809104026020016040519081016040528092919081815260200182805461047890612915565b80156104c55780601f1061049a576101008083540402835291602001916104c5565b820191906000526020600020905b8154815290600101906020018083116104a857829003601f168201915b505050505096508580546104d890612915565b80601f016020809104026020016040519081016040528092919081815260200182805461050490612915565b80156105515780601f1061052657610100808354040283529160200191610551565b820191906000526020600020905b81548152906001019060200180831161053457829003601f168201915b5050505050955084805461056490612915565b80601f016020809104026020016040519081016040528092919081815260200182805461059090612915565b80156105dd5780601f106105b2576101008083540402835291602001916105dd565b820191906000526020600020905b8154815290600101906020018083116105c057829003601f168201915b505050505094508380546105f090612915565b80601f016020809104026020016040519081016040528092919081815260200182805461061c90612915565b80156106695780601f1061063e57610100808354040283529160200191610669565b820191906000526020600020905b81548152906001019060200180831161064c57829003601f168201915b5050505050935082805461067c90612915565b80601f01602080910402602001604051908101604052809291908181526020018280546106a890612915565b80156106f55780601f106106ca576101008083540402835291602001916106f5565b820191906000526020600020905b8154815290600101906020018083116106d857829003601f168201915b5050505050925081805461070890612915565b80601f016020809104026020016040519081016040528092919081815260200182805461073490612915565b80156107815780601f1061075657610100808354040283529160200191610781565b820191906000526020600020905b81548152906001019060200180831161076457829003601f168201915b5050505050915080805461079490612915565b80601f01602080910402602001604051908101604052809291908181526020018280546107c090612915565b801561080d5780601f106107e25761010080835404028352916020019161080d565b820191906000526020600020905b8154815290600101906020018083116107f057829003601f168201915b50505050509050985098509850985098509850985098505061083f565b808061083590612976565b915050610271565b505b919395975091939597565b600080600090505b600080549050811015610940578373ffffffffffffffffffffffffffffffffffffffff166000828154811061088a576108896128b7565b5b906000526020600020906008020160000160009054906101000a900473ffffffffffffffffffffffffffffffffffffffff1673ffffffffffffffffffffffffffffffffffffffff1614801561091e57508280519060200120600082815481106108f6576108f56128b7565b5b90600052602060002090600802016007016040516109149190612a5e565b6040518091039020145b1561092d576001915050610942565b808061093890612976565b915050610852565b505b92915050565b6001818154811061095857600080fd5b90600052602060002090600302016000915090508060000160009054906101000a900473ffffffffffffffffffffffffffffffffffffffff16908060010180546109a190612915565b80601f01602080910402602001604051908101604052809291908181526020018280546109cd90612915565b8015610a1a5780601f106109ef57610100808354040283529160200191610a1a565b820191906000526020600020905b8154815290600101906020018083116109fd57829003601f168201915b5050505050908060020154905083565b60008110158015610a3c575060648111155b610a7b576040517f08c379a0000000000000000000000000000000000000000000000000000000008152600401610a7290612ac1565b60405180910390fd5b600160405180606001604052808573ffffffffffffffffffffffffffffffffffffffff16815260200184815260200183815250908060018154018082558091505060019003906000526020600020906003020160009091909190915060008201518160000160006101000a81548173ffffffffffffffffffffffffffffffffffffffff021916908373ffffffffffffffffffffffffffffffffffffffff1602179055506020820151816001019080519060200190610b3a929190611e64565b50604082015181600201555050505050565b60008181548110610b5c57600080fd5b90600052602060002090600802016000915090508060000160009054906101000a900473ffffffffffffffffffffffffffffffffffffffff1690806001018054610ba590612915565b80601f0160208091040260200160405190810160405280929190818152602001828054610bd190612915565b8015610c1e5780601f10610bf357610100808354040283529160200191610c1e565b820191906000526020600020905b815481529060010190602001808311610c0157829003601f168201915b505050505090806002018054610c3390612915565b80601f0160208091040260200160405190810160405280929190818152602001828054610c5f90612915565b8015610cac5780601f10610c8157610100808354040283529160200191610cac565b820191906000526020600020905b815481529060010190602001808311610c8f57829003601f168201915b505050505090806003018054610cc190612915565b80601f0160208091040260200160405190810160405280929190818152602001828054610ced90612915565b8015610d3a5780601f10610d0f57610100808354040283529160200191610d3a565b820191906000526020600020905b815481529060010190602001808311610d1d57829003601f168201915b505050505090806004018054610d4f90612915565b80601f0160208091040260200160405190810160405280929190818152602001828054610d7b90612915565b8015610dc85780601f10610d9d57610100808354040283529160200191610dc8565b820191906000526020600020905b815481529060010190602001808311610dab57829003601f168201915b505050505090806005018054610ddd90612915565b80601f0160208091040260200160405190810160405280929190818152602001828054610e0990612915565b8015610e565780601f10610e2b57610100808354040283529160200191610e56565b820191906000526020600020905b815481529060010190602001808311610e3957829003601f168201915b505050505090806006018054610e6b90612915565b80601f0160208091040260200160405190810160405280929190818152602001828054610e9790612915565b8015610ee45780601f10610eb957610100808354040283529160200191610ee4565b820191906000526020600020905b815481529060010190602001808311610ec757829003601f168201915b505050505090806007018054610ef990612915565b80601f0160208091040260200160405190810160405280929190818152602001828054610f2590612915565b8015610f725780601f10610f4757610100808354040283529160200191610f72565b820191906000526020600020905b815481529060010190602001808311610f5557829003601f168201915b5050505050905088565b600080600090505b600180549050811015611072578373ffffffffffffffffffffffffffffffffffffffff1660018281548110610fbc57610fbb6128b7565b5b906000526020600020906003020160000160009054906101000a900473ffffffffffffffffffffffffffffffffffffffff1673ffffffffffffffffffffffffffffffffffffffff161480156110505750828051906020012060018281548110611028576110276128b7565b5b90600052602060002090600302016001016040516110469190612a5e565b6040518091039020145b1561105f576001915050611074565b808061106a90612976565b915050610f84565b505b92915050565b6000806000905060005b60018054905081101561112d578373ffffffffffffffffffffffffffffffffffffffff16600182815481106110bc576110bb6128b7565b5b906000526020600020906003020160000160009054906101000a900473ffffffffffffffffffffffffffffffffffffffff1673ffffffffffffffffffffffffffffffffffffffff16141561111a576001826111179190612ae1565b91505b808061112590612976565b915050611084565b5080915050919050565b60006040518061010001604052808a73ffffffffffffffffffffffffffffffffffffffff16815260200189815260200188815260200187815260200186815260200185815260200184815260200183815250908060018154018082558091505060019003906000526020600020906008020160009091909190915060008201518160000160006101000a81548173ffffffffffffffffffffffffffffffffffffffff021916908373ffffffffffffffffffffffffffffffffffffffff1602179055506020820151816001019080519060200190611215929190611e64565b506040820151816002019080519060200190611232929190611e64565b50606082015181600301908051906020019061124f929190611e64565b50608082015181600401908051906020019061126c929190611e64565b5060a0820151816005019080519060200190611289929190611e64565b5060c08201518160060190805190602001906112a6929190611e64565b5060e08201518160070190805190602001906112c3929190611e64565b5050505050505050505050565b606080600060018054905067ffffffffffffffff8111156112f4576112f3612107565b5b60405190808252806020026020018201604052801561132757816020015b60608152602001906001900390816113125790505b509050600060018054905067ffffffffffffffff81111561134b5761134a612107565b5b6040519080825280602002602001820160405280156113795781602001602082028036833780820191505090505b50905060005b60018054905081101561152a578573ffffffffffffffffffffffffffffffffffffffff16600182815481106113b7576113b66128b7565b5b906000526020600020906003020160000160009054906101000a900473ffffffffffffffffffffffffffffffffffffffff1673ffffffffffffffffffffffffffffffffffffffff1614156115175760018181548110611419576114186128b7565b5b9060005260206000209060030201600101805461143590612915565b80601f016020809104026020016040519081016040528092919081815260200182805461146190612915565b80156114ae5780601f10611483576101008083540402835291602001916114ae565b820191906000526020600020905b81548152906001019060200180831161149157829003601f168201915b50505050508382815181106114c6576114c56128b7565b5b6020026020010181905250600181815481106114e5576114e46128b7565b5b90600052602060002090600302016002015482828151811061150a576115096128b7565b5b6020026020010181815250505b808061152290612976565b91505061137f565b508181935093505050915091565b6060806060806060806060806000808054905067ffffffffffffffff81111561156457611563612107565b5b6040519080825280602002602001820160405280156115925781602001602082028036833780820191505090505b5090506000808054905067ffffffffffffffff8111156115b5576115b4612107565b5b6040519080825280602002602001820160405280156115e857816020015b60608152602001906001900390816115d35790505b5090506000808054905067ffffffffffffffff81111561160b5761160a612107565b5b60405190808252806020026020018201604052801561163e57816020015b60608152602001906001900390816116295790505b5090506000808054905067ffffffffffffffff81111561166157611660612107565b5b60405190808252806020026020018201604052801561169457816020015b606081526020019060019003908161167f5790505b5090506000808054905067ffffffffffffffff8111156116b7576116b6612107565b5b6040519080825280602002602001820160405280156116ea57816020015b60608152602001906001900390816116d55790505b5090506000808054905067ffffffffffffffff81111561170d5761170c612107565b5b60405190808252806020026020018201604052801561174057816020015b606081526020019060019003908161172b5790505b5090506000808054905067ffffffffffffffff81111561176357611762612107565b5b60405190808252806020026020018201604052801561179657816020015b60608152602001906001900390816117815790505b5090506000808054905067ffffffffffffffff8111156117b9576117b8612107565b5b6040519080825280602002602001820160405280156117ec57816020015b60608152602001906001900390816117d75790505b50905060005b600080549050811015611e395760008181548110611813576118126128b7565b5b906000526020600020906008020160000160009054906101000a900473ffffffffffffffffffffffffffffffffffffffff16898281518110611858576118576128b7565b5b602002602001019073ffffffffffffffffffffffffffffffffffffffff16908173ffffffffffffffffffffffffffffffffffffffff1681525050600081815481106118a6576118a56128b7565b5b906000526020600020906008020160010180546118c290612915565b80601f01602080910402602001604051908101604052809291908181526020018280546118ee90612915565b801561193b5780601f106119105761010080835404028352916020019161193b565b820191906000526020600020905b81548152906001019060200180831161191e57829003601f168201915b5050505050888281518110611953576119526128b7565b5b602002602001018190525060008181548110611972576119716128b7565b5b9060005260206000209060080201600201805461198e90612915565b80601f01602080910402602001604051908101604052809291908181526020018280546119ba90612915565b8015611a075780601f106119dc57610100808354040283529160200191611a07565b820191906000526020600020905b8154815290600101906020018083116119ea57829003601f168201915b5050505050878281518110611a1f57611a1e6128b7565b5b602002602001018190525060008181548110611a3e57611a3d6128b7565b5b90600052602060002090600802016003018054611a5a90612915565b80601f0160208091040260200160405190810160405280929190818152602001828054611a8690612915565b8015611ad35780601f10611aa857610100808354040283529160200191611ad3565b820191906000526020600020905b815481529060010190602001808311611ab657829003601f168201915b5050505050868281518110611aeb57611aea6128b7565b5b602002602001018190525060008181548110611b0a57611b096128b7565b5b90600052602060002090600802016004018054611b2690612915565b80601f0160208091040260200160405190810160405280929190818152602001828054611b5290612915565b8015611b9f5780601f10611b7457610100808354040283529160200191611b9f565b820191906000526020600020905b815481529060010190602001808311611b8257829003601f168201915b5050505050858281518110611bb757611bb66128b7565b5b602002602001018190525060008181548110611bd657611bd56128b7565b5b90600052602060002090600802016005018054611bf290612915565b80601f0160208091040260200160405190810160405280929190818152602001828054611c1e90612915565b8015611c6b5780601f10611c4057610100808354040283529160200191611c6b565b820191906000526020600020905b815481529060010190602001808311611c4e57829003601f168201915b5050505050848281518110611c8357611c826128b7565b5b602002602001018190525060008181548110611ca257611ca16128b7565b5b90600052602060002090600802016006018054611cbe90612915565b80601f0160208091040260200160405190810160405280929190818152602001828054611cea90612915565b8015611d375780601f10611d0c57610100808354040283529160200191611d37565b820191906000526020600020905b815481529060010190602001808311611d1a57829003601f168201915b5050505050838281518110611d4f57611d4e6128b7565b5b602002602001018190525060008181548110611d6e57611d6d6128b7565b5b90600052602060002090600802016007018054611d8a90612915565b80601f0160208091040260200160405190810160405280929190818152602001828054611db690612915565b8015611e035780601f10611dd857610100808354040283529160200191611e03565b820191906000526020600020905b815481529060010190602001808311611de657829003601f168201915b5050505050828281518110611e1b57611e1a6128b7565b5b60200260200101819052508080611e3190612976565b9150506117f2565b5087878787878787879f509f509f509f509f509f509f509f5050505050505050509091929394959697565b828054611e7090612915565b90600052602060002090601f016020900481019282611e925760008555611ed9565b82601f10611eab57805160ff1916838001178555611ed9565b82800160010185558215611ed9579182015b82811115611ed8578251825591602001919060010190611ebd565b5b509050611ee69190611eea565b5090565b5b80821115611f03576000816000905550600101611eeb565b5090565b6000604051905090565b600080fd5b600080fd5b600073ffffffffffffffffffffffffffffffffffffffff82169050919050565b6000611f4682611f1b565b9050919050565b611f5681611f3b565b8114611f6157600080fd5b50565b600081359050611f7381611f4d565b92915050565b600060208284031215611f8f57611f8e611f11565b5b6000611f9d84828501611f64565b91505092915050565b611faf81611f3b565b82525050565b600081519050919050565b600082825260208201905092915050565b60005b83811015611fef578082015181840152602081019050611fd4565b83811115611ffe576000848401525b50505050565b6000601f19601f8301169050919050565b600061202082611fb5565b61202a8185611fc0565b935061203a818560208601611fd1565b61204381612004565b840191505092915050565b600061010082019050612064600083018b611fa6565b8181036020830152612076818a612015565b9050818103604083015261208a8189612015565b9050818103606083015261209e8188612015565b905081810360808301526120b28187612015565b905081810360a08301526120c68186612015565b905081810360c08301526120da8185612015565b905081810360e08301526120ee8184612015565b90509998505050505050505050565b600080fd5b600080fd5b7f4e487b7100000000000000000000000000000000000000000000000000000000600052604160045260246000fd5b61213f82612004565b810181811067ffffffffffffffff8211171561215e5761215d612107565b5b80604052505050565b6000612171611f07565b905061217d8282612136565b919050565b600067ffffffffffffffff82111561219d5761219c612107565b5b6121a682612004565b9050602081019050919050565b82818337600083830152505050565b60006121d56121d084612182565b612167565b9050828152602081018484840111156121f1576121f0612102565b5b6121fc8482856121b3565b509392505050565b600082601f830112612219576122186120fd565b5b81356122298482602086016121c2565b91505092915050565b6000806040838503121561224957612248611f11565b5b600061225785828601611f64565b925050602083013567ffffffffffffffff81111561227857612277611f16565b5b61228485828601612204565b9150509250929050565b6000819050919050565b6122a18161228e565b82525050565b60006020820190506122bc6000830184612298565b92915050565b6122cb8161228e565b81146122d657600080fd5b50565b6000813590506122e8816122c2565b92915050565b60006020828403121561230457612303611f11565b5b6000612312848285016122d9565b91505092915050565b60006060820190506123306000830186611fa6565b81810360208301526123428185612015565b90506123516040830184612298565b949350505050565b60008060006060848603121561237257612371611f11565b5b600061238086828701611f64565b935050602084013567ffffffffffffffff8111156123a1576123a0611f16565b5b6123ad86828701612204565b92505060406123be868287016122d9565b9150509250925092565b600080600080600080600080610100898b0312156123e9576123e8611f11565b5b60006123f78b828c01611f64565b985050602089013567ffffffffffffffff81111561241857612417611f16565b5b6124248b828c01612204565b975050604089013567ffffffffffffffff81111561244557612444611f16565b5b6124518b828c01612204565b965050606089013567ffffffffffffffff81111561247257612471611f16565b5b61247e8b828c01612204565b955050608089013567ffffffffffffffff81111561249f5761249e611f16565b5b6124ab8b828c01612204565b94505060a089013567ffffffffffffffff8111156124cc576124cb611f16565b5b6124d88b828c01612204565b93505060c089013567ffffffffffffffff8111156124f9576124f8611f16565b5b6125058b828c01612204565b92505060e089013567ffffffffffffffff81111561252657612525611f16565b5b6125328b828c01612204565b9150509295985092959890939650565b600081519050919050565b600082825260208201905092915050565b6000819050602082019050919050565b600082825260208201905092915050565b600061258a82611fb5565b612594818561256e565b93506125a4818560208601611fd1565b6125ad81612004565b840191505092915050565b60006125c4838361257f565b905092915050565b6000602082019050919050565b60006125e482612542565b6125ee818561254d565b9350836020820285016126008561255e565b8060005b8581101561263c578484038952815161261d85826125b8565b9450612628836125cc565b925060208a01995050600181019050612604565b50829750879550505050505092915050565b600081519050919050565b600082825260208201905092915050565b6000819050602082019050919050565b6126838161228e565b82525050565b6000612695838361267a565b60208301905092915050565b6000602082019050919050565b60006126b98261264e565b6126c38185612659565b93506126ce8361266a565b8060005b838110156126ff5781516126e68882612689565b97506126f1836126a1565b9250506001810190506126d2565b5085935050505092915050565b6000604082019050818103600083015261272681856125d9565b9050818103602083015261273a81846126ae565b90509392505050565b600081519050919050565b600082825260208201905092915050565b6000819050602082019050919050565b61277881611f3b565b82525050565b600061278a838361276f565b60208301905092915050565b6000602082019050919050565b60006127ae82612743565b6127b8818561274e565b93506127c38361275f565b8060005b838110156127f45781516127db888261277e565b97506127e683612796565b9250506001810190506127c7565b5085935050505092915050565b600061010082019050818103600083015261281c818b6127a3565b90508181036020830152612830818a6125d9565b9050818103604083015261284481896125d9565b9050818103606083015261285881886125d9565b9050818103608083015261286c81876125d9565b905081810360a083015261288081866125d9565b905081810360c083015261289481856125d9565b905081810360e08301526128a881846125d9565b90509998505050505050505050565b7f4e487b7100000000000000000000000000000000000000000000000000000000600052603260045260246000fd5b7f4e487b7100000000000000000000000000000000000000000000000000000000600052602260045260246000fd5b6000600282049050600182168061292d57607f821691505b60208210811415612941576129406128e6565b5b50919050565b7f4e487b7100000000000000000000000000000000000000000000000000000000600052601160045260246000fd5b60006129818261228e565b91507fffffffffffffffffffffffffffffffffffffffffffffffffffffffffffffffff8214156129b4576129b3612947565b5b600182019050919050565b600081905092915050565b60008190508160005260206000209050919050565b600081546129ec81612915565b6129f681866129bf565b94506001821660008114612a115760018114612a2257612a55565b60ff19831686528186019350612a55565b612a2b856129ca565b60005b83811015612a4d57815481890152600182019150602081019050612a2e565b838801955050505b50505092915050565b6000612a6a82846129df565b915081905092915050565b7f4c6576656c206f6620736b696c6c20696e636f72726563742e00000000000000600082015250565b6000612aab601983611fc0565b9150612ab682612a75565b602082019050919050565b60006020820190508181036000830152612ada81612a9e565b9050919050565b6000612aec8261228e565b9150612af78361228e565b9250827fffffffffffffffffffffffffffffffffffffffffffffffffffffffffffffffff03821115612b2c57612b2b612947565b5b82820190509291505056fea26469706673582212202a5c69314d28337ffc89a568693df105e873f5dce80180a6eea1dfa0d97a579d64736f6c634300080b0033608060405234801561001057600080fd5b5061219f806100206000396000f3fe608060405234801561001057600080fd5b50600436106100575760003560e01c80630f53a4701461005c578063a7dba18414610092578063bf44b303146100c2578063cfafbc0c146100f9578063e045b7101461011e575b600080fd5b61007660048036038101906100719190611776565b61013a565b604051610089979695949392919061184b565b60405180910390f35b6100ac60048036038101906100a79190611a19565b61066e565b6040516100b99190611a8e565b60405180910390f35b6100dc60048036038101906100d79190611ad5565b61076c565b6040516100f0989796959493929190611b02565b60405180910390f35b610101610b9c565b604051610115989796959493929190611d7b565b60405180910390f35b61013860048036038101906101339190611e31565b6114c8565b005b600060608060608060608060005b600080549050811015610661578873ffffffffffffffffffffffffffffffffffffffff16600082815481106101805761017f611fab565b5b906000526020600020906008020160000160009054906101000a900473ffffffffffffffffffffffffffffffffffffffff1673ffffffffffffffffffffffffffffffffffffffff16141561064e57600081815481106101e2576101e1611fab565b5b906000526020600020906008020160000160009054906101000a900473ffffffffffffffffffffffffffffffffffffffff166000828154811061022857610227611fab565b5b90600052602060002090600802016001016000838154811061024d5761024c611fab565b5b90600052602060002090600802016002016000848154811061027257610271611fab565b5b90600052602060002090600802016003016000858154811061029757610296611fab565b5b9060005260206000209060080201600401600086815481106102bc576102bb611fab565b5b9060005260206000209060080201600501600087815481106102e1576102e0611fab565b5b90600052602060002090600802016006018580546102fe90612009565b80601f016020809104026020016040519081016040528092919081815260200182805461032a90612009565b80156103775780601f1061034c57610100808354040283529160200191610377565b820191906000526020600020905b81548152906001019060200180831161035a57829003601f168201915b5050505050955084805461038a90612009565b80601f01602080910402602001604051908101604052809291908181526020018280546103b690612009565b80156104035780601f106103d857610100808354040283529160200191610403565b820191906000526020600020905b8154815290600101906020018083116103e657829003601f168201915b5050505050945083805461041690612009565b80601f016020809104026020016040519081016040528092919081815260200182805461044290612009565b801561048f5780601f106104645761010080835404028352916020019161048f565b820191906000526020600020905b81548152906001019060200180831161047257829003601f168201915b505050505093508280546104a290612009565b80601f01602080910402602001604051908101604052809291908181526020018280546104ce90612009565b801561051b5780601f106104f05761010080835404028352916020019161051b565b820191906000526020600020905b8154815290600101906020018083116104fe57829003601f168201915b5050505050925081805461052e90612009565b80601f016020809104026020016040519081016040528092919081815260200182805461055a90612009565b80156105a75780601f1061057c576101008083540402835291602001916105a7565b820191906000526020600020905b81548152906001019060200180831161058a57829003601f168201915b505050505091508080546105ba90612009565b80601f01602080910402602001604051908101604052809291908181526020018280546105e690612009565b80156106335780601f1061060857610100808354040283529160200191610633565b820191906000526020600020905b81548152906001019060200180831161061657829003601f168201915b50505050509050975097509750975097509750975050610663565b80806106599061206a565b915050610148565b505b919395979092949650565b600080600090505b600080549050811015610764578373ffffffffffffffffffffffffffffffffffffffff16600082815481106106ae576106ad611fab565b5b906000526020600020906008020160000160009054906101000a900473ffffffffffffffffffffffffffffffffffffffff1673ffffffffffffffffffffffffffffffffffffffff16148015610742575082805190602001206000828154811061071a57610719611fab565b5b90600052602060002090600802016007016040516107389190612152565b6040518091039020145b15610751576001915050610766565b808061075c9061206a565b915050610676565b505b92915050565b6000818154811061077c57600080fd5b90600052602060002090600802016000915090508060000160009054906101000a900473ffffffffffffffffffffffffffffffffffffffff16908060010180546107c590612009565b80601f01602080910402602001604051908101604052809291908181526020018280546107f190612009565b801561083e5780601f106108135761010080835404028352916020019161083e565b820191906000526020600020905b81548152906001019060200180831161082157829003601f168201915b50505050509080600201805461085390612009565b80601f016020809104026020016040519081016040528092919081815260200182805461087f90612009565b80156108cc5780601f106108a1576101008083540402835291602001916108cc565b820191906000526020600020905b8154815290600101906020018083116108af57829003601f168201915b5050505050908060030180546108e190612009565b80601f016020809104026020016040519081016040528092919081815260200182805461090d90612009565b801561095a5780601f1061092f5761010080835404028352916020019161095a565b820191906000526020600020905b81548152906001019060200180831161093d57829003601f168201915b50505050509080600401805461096f90612009565b80601f016020809104026020016040519081016040528092919081815260200182805461099b90612009565b80156109e85780601f106109bd576101008083540402835291602001916109e8565b820191906000526020600020905b8154815290600101906020018083116109cb57829003601f168201915b5050505050908060050180546109fd90612009565b80601f0160208091040260200160405190810160405280929190818152602001828054610a2990612009565b8015610a765780601f10610a4b57610100808354040283529160200191610a76565b820191906000526020600020905b815481529060010190602001808311610a5957829003601f168201915b505050505090806006018054610a8b90612009565b80601f0160208091040260200160405190810160405280929190818152602001828054610ab790612009565b8015610b045780601f10610ad957610100808354040283529160200191610b04565b820191906000526020600020905b815481529060010190602001808311610ae757829003601f168201915b505050505090806007018054610b1990612009565b80601f0160208091040260200160405190810160405280929190818152602001828054610b4590612009565b8015610b925780601f10610b6757610100808354040283529160200191610b92565b820191906000526020600020905b815481529060010190602001808311610b7557829003601f168201915b5050505050905088565b6060806060806060806060806000808054905067ffffffffffffffff811115610bc857610bc76118ee565b5b604051908082528060200260200182016040528015610bf65781602001602082028036833780820191505090505b5090506000808054905067ffffffffffffffff811115610c1957610c186118ee565b5b604051908082528060200260200182016040528015610c4c57816020015b6060815260200190600190039081610c375790505b5090506000808054905067ffffffffffffffff811115610c6f57610c6e6118ee565b5b604051908082528060200260200182016040528015610ca257816020015b6060815260200190600190039081610c8d5790505b5090506000808054905067ffffffffffffffff811115610cc557610cc46118ee565b5b604051908082528060200260200182016040528015610cf857816020015b6060815260200190600190039081610ce35790505b5090506000808054905067ffffffffffffffff811115610d1b57610d1a6118ee565b5b604051908082528060200260200182016040528015610d4e57816020015b6060815260200190600190039081610d395790505b5090506000808054905067ffffffffffffffff811115610d7157610d706118ee565b5b604051908082528060200260200182016040528015610da457816020015b6060815260200190600190039081610d8f5790505b5090506000808054905067ffffffffffffffff811115610dc757610dc66118ee565b5b604051908082528060200260200182016040528015610dfa57816020015b6060815260200190600190039081610de55790505b5090506000808054905067ffffffffffffffff811115610e1d57610e1c6118ee565b5b604051908082528060200260200182016040528015610e5057816020015b6060815260200190600190039081610e3b5790505b50905060005b60008054905081101561149d5760008181548110610e7757610e76611fab565b5b906000526020600020906008020160000160009054906101000a900473ffffffffffffffffffffffffffffffffffffffff16898281518110610ebc57610ebb611fab565b5b602002602001019073ffffffffffffffffffffffffffffffffffffffff16908173ffffffffffffffffffffffffffffffffffffffff168152505060008181548110610f0a57610f09611fab565b5b90600052602060002090600802016001018054610f2690612009565b80601f0160208091040260200160405190810160405280929190818152602001828054610f5290612009565b8015610f9f5780601f10610f7457610100808354040283529160200191610f9f565b820191906000526020600020905b815481529060010190602001808311610f8257829003601f168201915b5050505050888281518110610fb757610fb6611fab565b5b602002602001018190525060008181548110610fd657610fd5611fab565b5b90600052602060002090600802016002018054610ff290612009565b80601f016020809104026020016040519081016040528092919081815260200182805461101e90612009565b801561106b5780601f106110405761010080835404028352916020019161106b565b820191906000526020600020905b81548152906001019060200180831161104e57829003601f168201915b505050505087828151811061108357611082611fab565b5b6020026020010181905250600081815481106110a2576110a1611fab565b5b906000526020600020906008020160030180546110be90612009565b80601f01602080910402602001604051908101604052809291908181526020018280546110ea90612009565b80156111375780601f1061110c57610100808354040283529160200191611137565b820191906000526020600020905b81548152906001019060200180831161111a57829003601f168201915b505050505086828151811061114f5761114e611fab565b5b60200260200101819052506000818154811061116e5761116d611fab565b5b9060005260206000209060080201600401805461118a90612009565b80601f01602080910402602001604051908101604052809291908181526020018280546111b690612009565b80156112035780601f106111d857610100808354040283529160200191611203565b820191906000526020600020905b8154815290600101906020018083116111e657829003601f168201915b505050505085828151811061121b5761121a611fab565b5b60200260200101819052506000818154811061123a57611239611fab565b5b9060005260206000209060080201600501805461125690612009565b80601f016020809104026020016040519081016040528092919081815260200182805461128290612009565b80156112cf5780601f106112a4576101008083540402835291602001916112cf565b820191906000526020600020905b8154815290600101906020018083116112b257829003601f168201915b50505050508482815181106112e7576112e6611fab565b5b60200260200101819052506000818154811061130657611305611fab565b5b9060005260206000209060080201600601805461132290612009565b80601f016020809104026020016040519081016040528092919081815260200182805461134e90612009565b801561139b5780601f106113705761010080835404028352916020019161139b565b820191906000526020600020905b81548152906001019060200180831161137e57829003601f168201915b50505050508382815181106113b3576113b2611fab565b5b6020026020010181905250600081815481106113d2576113d1611fab565b5b906000526020600020906008020160070180546113ee90612009565b80601f016020809104026020016040519081016040528092919081815260200182805461141a90612009565b80156114675780601f1061143c57610100808354040283529160200191611467565b820191906000526020600020905b81548152906001019060200180831161144a57829003601f168201915b505050505082828151811061147f5761147e611fab565b5b602002602001018190525080806114959061206a565b915050610e56565b5087878787878787879f509f509f509f509f509f509f509f5050505050505050509091929394959697565b60006040518061010001604052808a73ffffffffffffffffffffffffffffffffffffffff16815260200189815260200188815260200187815260200186815260200185815260200184815260200183815250908060018154018082558091505060019003906000526020600020906008020160009091909190915060008201518160000160006101000a81548173ffffffffffffffffffffffffffffffffffffffff021916908373ffffffffffffffffffffffffffffffffffffffff16021790555060208201518160010190805190602001906115a6929190611661565b5060408201518160020190805190602001906115c3929190611661565b5060608201518160030190805190602001906115e0929190611661565b5060808201518160040190805190602001906115fd929190611661565b5060a082015181600501908051906020019061161a929190611661565b5060c0820151816006019080519060200190611637929190611661565b5060e0820151816007019080519060200190611654929190611661565b5050505050505050505050565b82805461166d90612009565b90600052602060002090601f01602090048101928261168f57600085556116d6565b82601f106116a857805160ff19168380011785556116d6565b828001600101855582156116d6579182015b828111156116d55782518255916020019190600101906116ba565b5b5090506116e391906116e7565b5090565b5b808211156117005760008160009055506001016116e8565b5090565b6000604051905090565b600080fd5b600080fd5b600073ffffffffffffffffffffffffffffffffffffffff82169050919050565b600061174382611718565b9050919050565b61175381611738565b811461175e57600080fd5b50565b6000813590506117708161174a565b92915050565b60006020828403121561178c5761178b61170e565b5b600061179a84828501611761565b91505092915050565b6117ac81611738565b82525050565b600081519050919050565b600082825260208201905092915050565b60005b838110156117ec5780820151818401526020810190506117d1565b838111156117fb576000848401525b50505050565b6000601f19601f8301169050919050565b600061181d826117b2565b61182781856117bd565b93506118378185602086016117ce565b61184081611801565b840191505092915050565b600060e082019050611860600083018a6117a3565b81810360208301526118728189611812565b905081810360408301526118868188611812565b9050818103606083015261189a8187611812565b905081810360808301526118ae8186611812565b905081810360a08301526118c28185611812565b905081810360c08301526118d68184611812565b905098975050505050505050565b600080fd5b600080fd5b7f4e487b7100000000000000000000000000000000000000000000000000000000600052604160045260246000fd5b61192682611801565b810181811067ffffffffffffffff82111715611945576119446118ee565b5b80604052505050565b6000611958611704565b9050611964828261191d565b919050565b600067ffffffffffffffff821115611984576119836118ee565b5b61198d82611801565b9050602081019050919050565b82818337600083830152505050565b60006119bc6119b784611969565b61194e565b9050828152602081018484840111156119d8576119d76118e9565b5b6119e384828561199a565b509392505050565b600082601f830112611a00576119ff6118e4565b5b8135611a108482602086016119a9565b91505092915050565b60008060408385031215611a3057611a2f61170e565b5b6000611a3e85828601611761565b925050602083013567ffffffffffffffff811115611a5f57611a5e611713565b5b611a6b858286016119eb565b9150509250929050565b6000819050919050565b611a8881611a75565b82525050565b6000602082019050611aa36000830184611a7f565b92915050565b611ab281611a75565b8114611abd57600080fd5b50565b600081359050611acf81611aa9565b92915050565b600060208284031215611aeb57611aea61170e565b5b6000611af984828501611ac0565b91505092915050565b600061010082019050611b18600083018b6117a3565b8181036020830152611b2a818a611812565b90508181036040830152611b3e8189611812565b90508181036060830152611b528188611812565b90508181036080830152611b668187611812565b905081810360a0830152611b7a8186611812565b905081810360c0830152611b8e8185611812565b905081810360e0830152611ba28184611812565b90509998505050505050505050565b600081519050919050565b600082825260208201905092915050565b6000819050602082019050919050565b611be681611738565b82525050565b6000611bf88383611bdd565b60208301905092915050565b6000602082019050919050565b6000611c1c82611bb1565b611c268185611bbc565b9350611c3183611bcd565b8060005b83811015611c62578151611c498882611bec565b9750611c5483611c04565b925050600181019050611c35565b5085935050505092915050565b600081519050919050565b600082825260208201905092915050565b6000819050602082019050919050565b600082825260208201905092915050565b6000611cb7826117b2565b611cc18185611c9b565b9350611cd18185602086016117ce565b611cda81611801565b840191505092915050565b6000611cf18383611cac565b905092915050565b6000602082019050919050565b6000611d1182611c6f565b611d1b8185611c7a565b935083602082028501611d2d85611c8b565b8060005b85811015611d695784840389528151611d4a8582611ce5565b9450611d5583611cf9565b925060208a01995050600181019050611d31565b50829750879550505050505092915050565b6000610100820190508181036000830152611d96818b611c11565b90508181036020830152611daa818a611d06565b90508181036040830152611dbe8189611d06565b90508181036060830152611dd28188611d06565b90508181036080830152611de68187611d06565b905081810360a0830152611dfa8186611d06565b905081810360c0830152611e0e8185611d06565b905081810360e0830152611e228184611d06565b90509998505050505050505050565b600080600080600080600080610100898b031215611e5257611e5161170e565b5b6000611e608b828c01611761565b985050602089013567ffffffffffffffff811115611e8157611e80611713565b5b611e8d8b828c016119eb565b975050604089013567ffffffffffffffff811115611eae57611ead611713565b5b611eba8b828c016119eb565b965050606089013567ffffffffffffffff811115611edb57611eda611713565b5b611ee78b828c016119eb565b955050608089013567ffffffffffffffff811115611f0857611f07611713565b5b611f148b828c016119eb565b94505060a089013567ffffffffffffffff811115611f3557611f34611713565b5b611f418b828c016119eb565b93505060c089013567ffffffffffffffff811115611f6257611f61611713565b5b611f6e8b828c016119eb565b92505060e089013567ffffffffffffffff811115611f8f57611f8e611713565b5b611f9b8b828c016119eb565b9150509295985092959890939650565b7f4e487b7100000000000000000000000000000000000000000000000000000000600052603260045260246000fd5b7f4e487b7100000000000000000000000000000000000000000000000000000000600052602260045260246000fd5b6000600282049050600182168061202157607f821691505b6020821081141561203557612034611fda565b5b50919050565b7f4e487b7100000000000000000000000000000000000000000000000000000000600052601160045260246000fd5b600061207582611a75565b91507fffffffffffffffffffffffffffffffffffffffffffffffffffffffffffffffff8214156120a8576120a761203b565b5b600182019050919050565b600081905092915050565b60008190508160005260206000209050919050565b600081546120e081612009565b6120ea81866120b3565b94506001821660008114612105576001811461211657612149565b60ff19831686528186019350612149565b61211f856120be565b60005b8381101561214157815481890152600182019150602081019050612122565b838801955050505b50505092915050565b600061215e82846120d3565b91508190509291505056fea2646970667358221220aa31171bac727a7ff3cfae4af91b1011b5cabe4977a50e2a368ef183ea3c43b764736f6c634300080b0033608060405234801561001057600080fd5b506125c9806100206000396000f3fe608060405234801561001057600080fd5b50600436106100b35760003560e01c8063ae8f00d311610071578063ae8f00d3146101ba578063ce1ec5bb146101d6578063cee5c7f314610207578063dc1e475f14610223578063e83ddcea1461023f578063e9daa70a14610271576100b3565b80624e56cf146100b85780630299779f146100d45780630b5e50ed14610104578063381a3bf7146101365780637aedcde51461016a578063844bb4601461019e575b600080fd5b6100d260048036038101906100cd9190611d49565b6102a3565b005b6100ee60048036038101906100e99190611de8565b610448565b6040516100fb9190611e70565b60405180910390f35b61011e60048036038101906101199190611eb7565b6105c3565b60405161012d93929190611f7b565b60405180910390f35b610150600480360381019061014b9190611fc0565b61072d565b6040516101619594939291906121b7565b60405180910390f35b610184600480360381019061017f9190611eb7565b610d1e565b60405161019595949392919061222d565b60405180910390f35b6101b860048036038101906101b39190611d49565b610f3c565b005b6101d460048036038101906101cf9190611de8565b6110e1565b005b6101f060048036038101906101eb9190611fc0565b611205565b6040516101fe929190612295565b60405180910390f35b610221600480360381019061021c91906122cc565b6114f9565b005b61023d60048036038101906102389190611d49565b6115dd565b005b61025960048036038101906102549190611eb7565b61177d565b60405161026893929190612357565b60405180910390f35b61028b60048036038101906102869190612395565b61187f565b60405161029a93929190612357565b60405180910390f35b60005b600080549050811015610441578473ffffffffffffffffffffffffffffffffffffffff16600082815481106102de576102dd6123d5565b5b906000526020600020906005020160000160009054906101000a900473ffffffffffffffffffffffffffffffffffffffff1673ffffffffffffffffffffffffffffffffffffffff161480156103a357508373ffffffffffffffffffffffffffffffffffffffff1660008281548110610359576103586123d5565b5b906000526020600020906005020160010160009054906101000a900473ffffffffffffffffffffffffffffffffffffffff1673ffffffffffffffffffffffffffffffffffffffff16145b80156103ee57508280519060200120600082815481106103c6576103c56123d5565b5b90600052602060002090600502016002016040516103e49190612504565b6040518091039020145b1561042e578160008281548110610408576104076123d5565b5b9060005260206000209060050201600401908051906020019061042c929190611aee565b505b80806104399061254a565b9150506102a6565b5050505050565b600080600090505b6000805490508110156105ba578473ffffffffffffffffffffffffffffffffffffffff1660008281548110610488576104876123d5565b5b906000526020600020906005020160000160009054906101000a900473ffffffffffffffffffffffffffffffffffffffff1673ffffffffffffffffffffffffffffffffffffffff1614801561054d57508373ffffffffffffffffffffffffffffffffffffffff1660008281548110610503576105026123d5565b5b906000526020600020906005020160010160009054906101000a900473ffffffffffffffffffffffffffffffffffffffff1673ffffffffffffffffffffffffffffffffffffffff16145b801561059857508280519060200120600082815481106105705761056f6123d5565b5b906000526020600020906005020160020160405161058e9190612504565b6040518091039020145b156105a75760019150506105bc565b80806105b29061254a565b915050610450565b505b9392505050565b600181815481106105d357600080fd5b90600052602060002090600302016000915090508060000160009054906101000a900473ffffffffffffffffffffffffffffffffffffffff169080600101805461061c90612433565b80601f016020809104026020016040519081016040528092919081815260200182805461064890612433565b80156106955780601f1061066a57610100808354040283529160200191610695565b820191906000526020600020905b81548152906001019060200180831161067857829003601f168201915b5050505050908060020180546106aa90612433565b80601f01602080910402602001604051908101604052809291908181526020018280546106d690612433565b80156107235780601f106106f857610100808354040283529160200191610723565b820191906000526020600020905b81548152906001019060200180831161070657829003601f168201915b5050505050905083565b60608060608060606000808054905067ffffffffffffffff81111561075557610754611c1e565b5b6040519080825280602002602001820160405280156107835781602001602082028036833780820191505090505b5090506000808054905067ffffffffffffffff8111156107a6576107a5611c1e565b5b6040519080825280602002602001820160405280156107d45781602001602082028036833780820191505090505b5090506000808054905067ffffffffffffffff8111156107f7576107f6611c1e565b5b60405190808252806020026020018201604052801561082a57816020015b60608152602001906001900390816108155790505b5090506000808054905067ffffffffffffffff81111561084d5761084c611c1e565b5b60405190808252806020026020018201604052801561088057816020015b606081526020019060019003908161086b5790505b5090506000808054905067ffffffffffffffff8111156108a3576108a2611c1e565b5b6040519080825280602002602001820160405280156108d657816020015b60608152602001906001900390816108c15790505b50905060005b600080549050811015610d00578b73ffffffffffffffffffffffffffffffffffffffff1660008281548110610914576109136123d5565b5b906000526020600020906005020160010160009054906101000a900473ffffffffffffffffffffffffffffffffffffffff1673ffffffffffffffffffffffffffffffffffffffff161415610ced5760008181548110610976576109756123d5565b5b906000526020600020906005020160000160009054906101000a900473ffffffffffffffffffffffffffffffffffffffff168682815181106109bb576109ba6123d5565b5b602002602001019073ffffffffffffffffffffffffffffffffffffffff16908173ffffffffffffffffffffffffffffffffffffffff168152505060008181548110610a0957610a086123d5565b5b906000526020600020906005020160010160009054906101000a900473ffffffffffffffffffffffffffffffffffffffff16858281518110610a4e57610a4d6123d5565b5b602002602001019073ffffffffffffffffffffffffffffffffffffffff16908173ffffffffffffffffffffffffffffffffffffffff168152505060008181548110610a9c57610a9b6123d5565b5b90600052602060002090600502016002018054610ab890612433565b80601f0160208091040260200160405190810160405280929190818152602001828054610ae490612433565b8015610b315780601f10610b0657610100808354040283529160200191610b31565b820191906000526020600020905b815481529060010190602001808311610b1457829003601f168201915b5050505050848281518110610b4957610b486123d5565b5b602002602001018190525060008181548110610b6857610b676123d5565b5b90600052602060002090600502016003018054610b8490612433565b80601f0160208091040260200160405190810160405280929190818152602001828054610bb090612433565b8015610bfd5780601f10610bd257610100808354040283529160200191610bfd565b820191906000526020600020905b815481529060010190602001808311610be057829003601f168201915b5050505050838281518110610c1557610c146123d5565b5b602002602001018190525060008181548110610c3457610c336123d5565b5b90600052602060002090600502016004018054610c5090612433565b80601f0160208091040260200160405190810160405280929190818152602001828054610c7c90612433565b8015610cc95780601f10610c9e57610100808354040283529160200191610cc9565b820191906000526020600020905b815481529060010190602001808311610cac57829003601f168201915b5050505050828281518110610ce157610ce06123d5565b5b60200260200101819052505b8080610cf89061254a565b9150506108dc565b50848484848499509950995099509950505050505091939590929450565b60008181548110610d2e57600080fd5b90600052602060002090600502016000915090508060000160009054906101000a900473ffffffffffffffffffffffffffffffffffffffff16908060010160009054906101000a900473ffffffffffffffffffffffffffffffffffffffff1690806002018054610d9d90612433565b80601f0160208091040260200160405190810160405280929190818152602001828054610dc990612433565b8015610e165780601f10610deb57610100808354040283529160200191610e16565b820191906000526020600020905b815481529060010190602001808311610df957829003601f168201915b505050505090806003018054610e2b90612433565b80601f0160208091040260200160405190810160405280929190818152602001828054610e5790612433565b8015610ea45780601f10610e7957610100808354040283529160200191610ea4565b820191906000526020600020905b815481529060010190602001808311610e8757829003601f168201915b505050505090806004018054610eb990612433565b80601f0160208091040260200160405190810160405280929190818152602001828054610ee590612433565b8015610f325780601f10610f0757610100808354040283529160200191610f32565b820191906000526020600020905b815481529060010190602001808311610f1557829003601f168201915b5050505050905085565b60005b6000805490508110156110da578473ffffffffffffffffffffffffffffffffffffffff1660008281548110610f7757610f766123d5565b5b906000526020600020906005020160000160009054906101000a900473ffffffffffffffffffffffffffffffffffffffff1673ffffffffffffffffffffffffffffffffffffffff1614801561103c57508373ffffffffffffffffffffffffffffffffffffffff1660008281548110610ff257610ff16123d5565b5b906000526020600020906005020160010160009054906101000a900473ffffffffffffffffffffffffffffffffffffffff1673ffffffffffffffffffffffffffffffffffffffff16145b8015611087575082805190602001206000828154811061105f5761105e6123d5565b5b906000526020600020906005020160020160405161107d9190612504565b6040518091039020145b156110c75781600082815481106110a1576110a06123d5565b5b906000526020600020906005020160040190805190602001906110c5929190611aee565b505b80806110d29061254a565b915050610f3f565b5050505050565b600260405180606001604052808573ffffffffffffffffffffffffffffffffffffffff1681526020018473ffffffffffffffffffffffffffffffffffffffff16815260200183815250908060018154018082558091505060019003906000526020600020906003020160009091909190915060008201518160000160006101000a81548173ffffffffffffffffffffffffffffffffffffffff021916908373ffffffffffffffffffffffffffffffffffffffff16021790555060208201518160010160006101000a81548173ffffffffffffffffffffffffffffffffffffffff021916908373ffffffffffffffffffffffffffffffffffffffff16021790555060408201518160020190805190602001906111fd929190611aee565b505050505050565b606080600060018054905067ffffffffffffffff81111561122957611228611c1e565b5b60405190808252806020026020018201604052801561125c57816020015b60608152602001906001900390816112475790505b509050600060018054905067ffffffffffffffff8111156112805761127f611c1e565b5b6040519080825280602002602001820160405280156112b357816020015b606081526020019060019003908161129e5790505b50905060005b6001805490508110156114eb578573ffffffffffffffffffffffffffffffffffffffff16600182815481106112f1576112f06123d5565b5b906000526020600020906003020160000160009054906101000a900473ffffffffffffffffffffffffffffffffffffffff1673ffffffffffffffffffffffffffffffffffffffff1614156114d85760018181548110611353576113526123d5565b5b9060005260206000209060030201600101805461136f90612433565b80601f016020809104026020016040519081016040528092919081815260200182805461139b90612433565b80156113e85780601f106113bd576101008083540402835291602001916113e8565b820191906000526020600020905b8154815290600101906020018083116113cb57829003601f168201915b5050505050838281518110611400576113ff6123d5565b5b60200260200101819052506001818154811061141f5761141e6123d5565b5b9060005260206000209060030201600201805461143b90612433565b80601f016020809104026020016040519081016040528092919081815260200182805461146790612433565b80156114b45780601f10611489576101008083540402835291602001916114b4565b820191906000526020600020905b81548152906001019060200180831161149757829003601f168201915b50505050508282815181106114cc576114cb6123d5565b5b60200260200101819052505b80806114e39061254a565b9150506112b9565b508181935093505050915091565b600160405180606001604052808573ffffffffffffffffffffffffffffffffffffffff16815260200184815260200183815250908060018154018082558091505060019003906000526020600020906003020160009091909190915060008201518160000160006101000a81548173ffffffffffffffffffffffffffffffffffffffff021916908373ffffffffffffffffffffffffffffffffffffffff16021790555060208201518160010190805190602001906115b8929190611aee565b5060408201518160020190805190602001906115d5929190611aee565b505050505050565b60006040518060a001604052808673ffffffffffffffffffffffffffffffffffffffff1681526020018573ffffffffffffffffffffffffffffffffffffffff1681526020018481526020018381526020016040518060400160405280600981526020017f53637265656e696e670000000000000000000000000000000000000000000000815250815250908060018154018082558091505060019003906000526020600020906005020160009091909190915060008201518160000160006101000a81548173ffffffffffffffffffffffffffffffffffffffff021916908373ffffffffffffffffffffffffffffffffffffffff16021790555060208201518160010160006101000a81548173ffffffffffffffffffffffffffffffffffffffff021916908373ffffffffffffffffffffffffffffffffffffffff160217905550604082015181600201908051906020019061173a929190611aee565b506060820151816003019080519060200190611757929190611aee565b506080820151816004019080519060200190611774929190611aee565b50505050505050565b6002818154811061178d57600080fd5b90600052602060002090600302016000915090508060000160009054906101000a900473ffffffffffffffffffffffffffffffffffffffff16908060010160009054906101000a900473ffffffffffffffffffffffffffffffffffffffff16908060020180546117fc90612433565b80601f016020809104026020016040519081016040528092919081815260200182805461182890612433565b80156118755780601f1061184a57610100808354040283529160200191611875565b820191906000526020600020905b81548152906001019060200180831161185857829003601f168201915b5050505050905083565b600080606060005b600280549050811015611ae5578473ffffffffffffffffffffffffffffffffffffffff16600282815481106118bf576118be6123d5565b5b906000526020600020906003020160010160009054906101000a900473ffffffffffffffffffffffffffffffffffffffff1673ffffffffffffffffffffffffffffffffffffffff1614801561198457508573ffffffffffffffffffffffffffffffffffffffff166002828154811061193a576119396123d5565b5b906000526020600020906003020160000160009054906101000a900473ffffffffffffffffffffffffffffffffffffffff1673ffffffffffffffffffffffffffffffffffffffff16145b15611ad2576002818154811061199d5761199c6123d5565b5b906000526020600020906003020160000160009054906101000a900473ffffffffffffffffffffffffffffffffffffffff16600282815481106119e3576119e26123d5565b5b906000526020600020906003020160010160009054906101000a900473ffffffffffffffffffffffffffffffffffffffff1660028381548110611a2957611a286123d5565b5b9060005260206000209060030201600201808054611a4690612433565b80601f0160208091040260200160405190810160405280929190818152602001828054611a7290612433565b8015611abf5780601f10611a9457610100808354040283529160200191611abf565b820191906000526020600020905b815481529060010190602001808311611aa257829003601f168201915b5050505050905093509350935050611ae7565b8080611add9061254a565b915050611887565b505b9250925092565b828054611afa90612433565b90600052602060002090601f016020900481019282611b1c5760008555611b63565b82601f10611b3557805160ff1916838001178555611b63565b82800160010185558215611b63579182015b82811115611b62578251825591602001919060010190611b47565b5b509050611b709190611b74565b5090565b5b80821115611b8d576000816000905550600101611b75565b5090565b6000604051905090565b600080fd5b600080fd5b600073ffffffffffffffffffffffffffffffffffffffff82169050919050565b6000611bd082611ba5565b9050919050565b611be081611bc5565b8114611beb57600080fd5b50565b600081359050611bfd81611bd7565b92915050565b600080fd5b600080fd5b6000601f19601f8301169050919050565b7f4e487b7100000000000000000000000000000000000000000000000000000000600052604160045260246000fd5b611c5682611c0d565b810181811067ffffffffffffffff82111715611c7557611c74611c1e565b5b80604052505050565b6000611c88611b91565b9050611c948282611c4d565b919050565b600067ffffffffffffffff821115611cb457611cb3611c1e565b5b611cbd82611c0d565b9050602081019050919050565b82818337600083830152505050565b6000611cec611ce784611c99565b611c7e565b905082815260208101848484011115611d0857611d07611c08565b5b611d13848285611cca565b509392505050565b600082601f830112611d3057611d2f611c03565b5b8135611d40848260208601611cd9565b91505092915050565b60008060008060808587031215611d6357611d62611b9b565b5b6000611d7187828801611bee565b9450506020611d8287828801611bee565b935050604085013567ffffffffffffffff811115611da357611da2611ba0565b5b611daf87828801611d1b565b925050606085013567ffffffffffffffff811115611dd057611dcf611ba0565b5b611ddc87828801611d1b565b91505092959194509250565b600080600060608486031215611e0157611e00611b9b565b5b6000611e0f86828701611bee565b9350506020611e2086828701611bee565b925050604084013567ffffffffffffffff811115611e4157611e40611ba0565b5b611e4d86828701611d1b565b9150509250925092565b6000819050919050565b611e6a81611e57565b82525050565b6000602082019050611e856000830184611e61565b92915050565b611e9481611e57565b8114611e9f57600080fd5b50565b600081359050611eb181611e8b565b92915050565b600060208284031215611ecd57611ecc611b9b565b5b6000611edb84828501611ea2565b91505092915050565b611eed81611bc5565b82525050565b600081519050919050565b600082825260208201905092915050565b60005b83811015611f2d578082015181840152602081019050611f12565b83811115611f3c576000848401525b50505050565b6000611f4d82611ef3565b611f578185611efe565b9350611f67818560208601611f0f565b611f7081611c0d565b840191505092915050565b6000606082019050611f906000830186611ee4565b8181036020830152611fa28185611f42565b90508181036040830152611fb68184611f42565b9050949350505050565b600060208284031215611fd657611fd5611b9b565b5b6000611fe484828501611bee565b91505092915050565b600081519050919050565b600082825260208201905092915050565b6000819050602082019050919050565b61202281611bc5565b82525050565b60006120348383612019565b60208301905092915050565b6000602082019050919050565b600061205882611fed565b6120628185611ff8565b935061206d83612009565b8060005b8381101561209e5781516120858882612028565b975061209083612040565b925050600181019050612071565b5085935050505092915050565b600081519050919050565b600082825260208201905092915050565b6000819050602082019050919050565b600082825260208201905092915050565b60006120f382611ef3565b6120fd81856120d7565b935061210d818560208601611f0f565b61211681611c0d565b840191505092915050565b600061212d83836120e8565b905092915050565b6000602082019050919050565b600061214d826120ab565b61215781856120b6565b935083602082028501612169856120c7565b8060005b858110156121a557848403895281516121868582612121565b945061219183612135565b925060208a0199505060018101905061216d565b50829750879550505050505092915050565b600060a08201905081810360008301526121d1818861204d565b905081810360208301526121e5818761204d565b905081810360408301526121f98186612142565b9050818103606083015261220d8185612142565b905081810360808301526122218184612142565b90509695505050505050565b600060a0820190506122426000830188611ee4565b61224f6020830187611ee4565b81810360408301526122618186611f42565b905081810360608301526122758185611f42565b905081810360808301526122898184611f42565b90509695505050505050565b600060408201905081810360008301526122af8185612142565b905081810360208301526122c38184612142565b90509392505050565b6000806000606084860312156122e5576122e4611b9b565b5b60006122f386828701611bee565b935050602084013567ffffffffffffffff81111561231457612313611ba0565b5b61232086828701611d1b565b925050604084013567ffffffffffffffff81111561234157612340611ba0565b5b61234d86828701611d1b565b9150509250925092565b600060608201905061236c6000830186611ee4565b6123796020830185611ee4565b818103604083015261238b8184611f42565b9050949350505050565b600080604083850312156123ac576123ab611b9b565b5b60006123ba85828601611bee565b92505060206123cb85828601611bee565b9150509250929050565b7f4e487b7100000000000000000000000000000000000000000000000000000000600052603260045260246000fd5b7f4e487b7100000000000000000000000000000000000000000000000000000000600052602260045260246000fd5b6000600282049050600182168061244b57607f821691505b6020821081141561245f5761245e612404565b5b50919050565b600081905092915050565b60008190508160005260206000209050919050565b6000815461249281612433565b61249c8186612465565b945060018216600081146124b757600181146124c8576124fb565b60ff198316865281860193506124fb565b6124d185612470565b60005b838110156124f3578154818901526001820191506020810190506124d4565b838801955050505b50505092915050565b60006125108284612485565b915081905092915050565b7f4e487b7100000000000000000000000000000000000000000000000000000000600052601160045260246000fd5b600061255582611e57565b91507fffffffffffffffffffffffffffffffffffffffffffffffffffffffffffffffff8214156125885761258761251b565b5b60018201905091905056fea264697066735822122046e760f855caaea8b54ff025a4727c983a0e576b9e122beae6840f21c74cfbb264736f6c634300080b0033",
  "immutableReferences": {},
  "source": "// SPDX-License-Identifier: MIT\r\npragma solidity >=0.4.22 <0.9.0;\r\n\r\n// Import cc contract cn thit  s dng\r\nimport \"./SmartCV_ListStudent.sol\";\r\nimport \"./SmartCV_ListBusiness.sol\";\r\nimport \"./SmartCV_Apply.sol\";\r\n\r\n// CV dnh cho sinh vin\r\ncontract StudentBusiness {\r\n\r\n    // Khai contract  import  s dng cc function  contract \r\n    ListStudent listStudent = new ListStudent();\r\n    ListBusiness listBusiness = new ListBusiness();\r\n    ApplyCV applyCV = new ApplyCV();\r\n\r\n    // ======================================\r\n    // ====== Chc nng cho sinh vin =======\r\n    // ======================================\r\n\r\n    // Chc nng thm thng tin sinh vin (ng k)\r\n    function addStudentProfile (\r\n        address _studentOwner,\r\n        string memory _name,\r\n        string memory _birthDay,\r\n        string memory _professionalTitle,\r\n        string memory _email,\r\n        string memory _github,\r\n        string memory _linkedin,\r\n        string memory _password) public {\r\n            listStudent.addSV(_studentOwner, _name, _birthDay, _professionalTitle, _email, _github, _linkedin, _password);\r\n    }\r\n\r\n    // Chc nng ly thng tin ca sinh vin\r\n    function getStudentProfile(address _studentOwner) public view returns(\r\n        address studentOwner, \r\n        string memory name, \r\n        string memory birthDay, \r\n        string memory professionalTitle, \r\n        string memory email, \r\n        string memory github, \r\n        string memory linkedin,\r\n        string memory password) {\r\n            return listStudent.getProfile(_studentOwner);\r\n    }\r\n\r\n    // Chc nng kim tra ti khon sinh vin c tn ti hay khng? (ng nhp)\r\n    function checkStudentProfile(\r\n        address _studentOwner, \r\n        string memory _password) public view returns(uint x) {\r\n            return listStudent.checkSV(_studentOwner, _password);\r\n    }\r\n\r\n    // Chc nng thm thng tin k nng ca sinh vin\r\n    function addStudentSkill (\r\n        address _studentOwner,\r\n        string memory _title, \r\n        uint _level) public {\r\n            listStudent.addSkill(_studentOwner, _title, _level);\r\n    }\r\n\r\n    // Chc nng kim tra k nng ca sinh vin c tn ti hay khng?\r\n    function checkStudentSkilll(\r\n        address _studentOwner, \r\n        string memory _title) public view returns(uint x) {\r\n            return listStudent.checkSkill(_studentOwner, _title);\r\n    }\r\n\r\n    // Chc nng kim tra s lng k nng ca sinh vin\r\n    function checkNumStudentSkilll(\r\n        address _studentOwner) public view returns(uint x) {\r\n            uint _count = listStudent.checkNumSkill(_studentOwner);\r\n            if(_count > 10){\r\n                return 1;\r\n            }\r\n    }\r\n\r\n    // Chc nng ly thng tin k nng ca sinh vin\r\n    function getStudentSkill(address _studentOwner) public view returns(\r\n        string[] memory titles,\r\n        uint[] memory levels) {\r\n        return listStudent.getSkill(_studentOwner);\r\n    }\r\n\r\n    // Chc nng ly danh sch doanh nghip\r\n    function getListBusiness() public view returns(\r\n        address[] memory,\r\n        string[] memory,\r\n        string[] memory,\r\n        string[] memory,\r\n        string[] memory,\r\n        string[] memory,\r\n        string[] memory,\r\n        string[] memory) {\r\n        return listBusiness.getListDN();\r\n    }\r\n\r\n    // Chc nng ly thng tin tuyn dng ca doanh nghip\r\n    function getRecruit(address _businessOwner) public view returns(\r\n        string[] memory,\r\n        string[] memory) {\r\n        return applyCV.getRecruit(_businessOwner);\r\n    }\r\n\r\n    // Chc nng gi CV ti doanh nghip\r\n    function sendCV(\r\n        address _studentOwner, \r\n        address _businessOwner, \r\n        string memory _jobTitle, \r\n        string memory _coverLetter) public {\r\n            applyCV.addCV(_studentOwner, _businessOwner, _jobTitle, _coverLetter);\r\n    }\r\n\r\n    // Chc nng kim tra sinh vin  np CV cha?\r\n    function checkCV(\r\n        address _studentOwner, \r\n        address _businessOwner, \r\n        string memory _jobTitle) public view returns(uint x) {\r\n            return applyCV.checkCV(_studentOwner, _businessOwner, _jobTitle);\r\n    }\r\n\r\n    // Chc nng xem nh gi thc tp ca doanh nghip\r\n    function getReview(\r\n        address _studentOwner, \r\n        address _businessOwner) public view returns(\r\n            address studentOwner, \r\n            address businessOwner, \r\n            string memory content) {\r\n                return applyCV.getReview(_studentOwner, _businessOwner);\r\n    }\r\n\r\n    // ======================================\r\n    // ===== Chc nng cho doanh nghip =====\r\n    // ======================================\r\n\r\n    // Chc nng thm thng tin doanh nghip (ng k)\r\n    function addBusinessProfile (\r\n        address _businessOwner,\r\n        string memory _name,\r\n        string memory _country,\r\n        string memory _facebook,\r\n        string memory _website,\r\n        string memory _linkedin,\r\n        string memory _focusArea,\r\n        string memory _password) public {\r\n            listBusiness.addDN(_businessOwner, _name, _country, _facebook, _website, _linkedin, _focusArea, _password);\r\n    }\r\n\r\n    // Chc nng ly thng tin ca doanh nghip\r\n    function getBusinessProfile(address _businessOwner) public view returns(\r\n        address businessOwner, \r\n        string memory name, \r\n        string memory country, \r\n        string memory facebook, \r\n        string memory website, \r\n        string memory linkedin, \r\n        string memory focusArea) {\r\n            return listBusiness.getProfile(_businessOwner);\r\n    }\r\n\r\n    // Chc nng kim tra ti khon doanh nghip c tn ti hay khng? (ng nhp)\r\n    function checkBusinessProfile(\r\n        address _businessOwner, \r\n        string memory _password) public view returns(uint) {\r\n            return listBusiness.checkDN(_businessOwner, _password);\r\n    }\r\n\r\n    // Chc nng ly danh sch CV  np vo doanh nghip\r\n    function getListCV(address _businessOwner) public view returns(\r\n        address[] memory, \r\n        address[] memory, \r\n        string[] memory, \r\n        string[] memory,\r\n        string[] memory) {\r\n            return applyCV.getCV(_businessOwner);\r\n    }\r\n    \r\n    //Chc nng duyt CV vo vng interview\r\n    function interviewCV(\r\n        address _studentOwner, \r\n        address _businessOwner, \r\n        string memory _jobTitle,\r\n        string memory _statusCV) public {\r\n            applyCV.interviewCV(_studentOwner, _businessOwner, _jobTitle, _statusCV);\r\n    }\r\n\r\n    //Chc nng duyt CV vo vng onboard\r\n    function onboardCV(\r\n        address _studentOwner, \r\n        address _businessOwner, \r\n        string memory _jobTitle,\r\n        string memory _statusCV) public {\r\n            applyCV.onboardCV(_studentOwner, _businessOwner, _jobTitle, _statusCV);\r\n    }\r\n\r\n    // Chc nng thm thng tin tuyn dng ca doanh nghip\r\n    function addRecruit(\r\n        address _businessOwner,\r\n        string memory _jobTitle,\r\n        string memory _jobDescription) public {\r\n            applyCV.addRecruit(_businessOwner, _jobTitle, _jobDescription);\r\n    }\r\n\r\n    // Chc nng nh gi thc tp cho sinh vin\r\n    function sendReview(\r\n        address _studentOwner, \r\n        address _businessOwner, \r\n        string memory _content) public {\r\n            applyCV.addReview(_studentOwner, _businessOwner, _content);\r\n    }\r\n}",
  "sourcePath": "C:\\Users\\19520\\Documents\\NCKH_Blockchain\\SolidityProgramming\\ProjectResearch\\SmartCV\\SmartContract\\contracts\\SmartCV_StudentBusiness.sol",
  "compiler": {
    "name": "solc",
    "version": "0.8.11+commit.d7f03943.Emscripten.clang"
  },
  "schemaVersion": "3.4.4",
  "updatedAt": "2022-07-10T14:20:51.113Z",
  "networkType": "ethereum",
  "devdoc": {
    "kind": "dev",
    "methods": {},
    "version": 1
  },
  "userdoc": {
    "kind": "user",
    "methods": {},
    "version": 1
  }
}