{
	"data": {
		"bytecode": {
			"linkReferences": {},
			"object": "6080604052600a60005534801561001557600080fd5b506101d7806100256000396000f3fe608060405234801561001057600080fd5b50600436106100365760003560e01c806313227d911461003b578063f81b278714610059575b600080fd5b610043610077565b60405161005091906100da565b60405180910390f35b61006161007d565b60405161006e91906100da565b60405180910390f35b60005481565b600080600090506000805490505b60058111156100c357818061009f90610129565b92505060078114156100b05761008b565b80806100bb906100ff565b91505061008b565b819250505090565b6100d4816100f5565b82525050565b60006020820190506100ef60008301846100cb565b92915050565b6000819050919050565b600061010a826100f5565b9150600082141561011e5761011d610172565b5b600182039050919050565b6000610134826100f5565b91507fffffffffffffffffffffffffffffffffffffffffffffffffffffffffffffffff82141561016757610166610172565b5b600182019050919050565b7f4e487b7100000000000000000000000000000000000000000000000000000000600052601160045260246000fdfea26469706673582212202672e65d40b342e439c04fdd11db47e7261f819ea5b6e3f4fd7c64efd55a466c64736f6c63430008060033",
			"opcodes": "PUSH1 0x80 PUSH1 0x40 MSTORE PUSH1 0xA PUSH1 0x0 SSTORE CALLVALUE DUP1 ISZERO PUSH2 0x15 JUMPI PUSH1 0x0 DUP1 REVERT JUMPDEST POP PUSH2 0x1D7 DUP1 PUSH2 0x25 PUSH1 0x0 CODECOPY PUSH1 0x0 RETURN INVALID PUSH1 0x80 PUSH1 0x40 MSTORE CALLVALUE DUP1 ISZERO PUSH2 0x10 JUMPI PUSH1 0x0 DUP1 REVERT JUMPDEST POP PUSH1 0x4 CALLDATASIZE LT PUSH2 0x36 JUMPI PUSH1 0x0 CALLDATALOAD PUSH1 0xE0 SHR DUP1 PUSH4 0x13227D91 EQ PUSH2 0x3B JUMPI DUP1 PUSH4 0xF81B2787 EQ PUSH2 0x59 JUMPI JUMPDEST PUSH1 0x0 DUP1 REVERT JUMPDEST PUSH2 0x43 PUSH2 0x77 JUMP JUMPDEST PUSH1 0x40 MLOAD PUSH2 0x50 SWAP2 SWAP1 PUSH2 0xDA JUMP JUMPDEST PUSH1 0x40 MLOAD DUP1 SWAP2 SUB SWAP1 RETURN JUMPDEST PUSH2 0x61 PUSH2 0x7D JUMP JUMPDEST PUSH1 0x40 MLOAD PUSH2 0x6E SWAP2 SWAP1 PUSH2 0xDA JUMP JUMPDEST PUSH1 0x40 MLOAD DUP1 SWAP2 SUB SWAP1 RETURN JUMPDEST PUSH1 0x0 SLOAD DUP2 JUMP JUMPDEST PUSH1 0x0 DUP1 PUSH1 0x0 SWAP1 POP PUSH1 0x0 DUP1 SLOAD SWAP1 POP JUMPDEST PUSH1 0x5 DUP2 GT ISZERO PUSH2 0xC3 JUMPI DUP2 DUP1 PUSH2 0x9F SWAP1 PUSH2 0x129 JUMP JUMPDEST SWAP3 POP POP PUSH1 0x7 DUP2 EQ ISZERO PUSH2 0xB0 JUMPI PUSH2 0x8B JUMP JUMPDEST DUP1 DUP1 PUSH2 0xBB SWAP1 PUSH2 0xFF JUMP JUMPDEST SWAP2 POP POP PUSH2 0x8B JUMP JUMPDEST DUP2 SWAP3 POP POP POP SWAP1 JUMP JUMPDEST PUSH2 0xD4 DUP2 PUSH2 0xF5 JUMP JUMPDEST DUP3 MSTORE POP POP JUMP JUMPDEST PUSH1 0x0 PUSH1 0x20 DUP3 ADD SWAP1 POP PUSH2 0xEF PUSH1 0x0 DUP4 ADD DUP5 PUSH2 0xCB JUMP JUMPDEST SWAP3 SWAP2 POP POP JUMP JUMPDEST PUSH1 0x0 DUP2 SWAP1 POP SWAP2 SWAP1 POP JUMP JUMPDEST PUSH1 0x0 PUSH2 0x10A DUP3 PUSH2 0xF5 JUMP JUMPDEST SWAP2 POP PUSH1 0x0 DUP3 EQ ISZERO PUSH2 0x11E JUMPI PUSH2 0x11D PUSH2 0x172 JUMP JUMPDEST JUMPDEST PUSH1 0x1 DUP3 SUB SWAP1 POP SWAP2 SWAP1 POP JUMP JUMPDEST PUSH1 0x0 PUSH2 0x134 DUP3 PUSH2 0xF5 JUMP JUMPDEST SWAP2 POP PUSH32 0xFFFFFFFFFFFFFFFFFFFFFFFFFFFFFFFFFFFFFFFFFFFFFFFFFFFFFFFFFFFFFFFF DUP3 EQ ISZERO PUSH2 0x167 JUMPI PUSH2 0x166 PUSH2 0x172 JUMP JUMPDEST JUMPDEST PUSH1 0x1 DUP3 ADD SWAP1 POP SWAP2 SWAP1 POP JUMP JUMPDEST PUSH32 0x4E487B7100000000000000000000000000000000000000000000000000000000 PUSH1 0x0 MSTORE PUSH1 0x11 PUSH1 0x4 MSTORE PUSH1 0x24 PUSH1 0x0 REVERT INVALID LOG2 PUSH5 0x6970667358 0x22 SLT KECCAK256 0x26 PUSH19 0xE65D40B342E439C04FDD11DB47E7261F819EA5 0xB6 0xE3 DELEGATECALL REVERT PUSH29 0x64EFD55A466C64736F6C63430008060033000000000000000000000000 "
		},
		"gasEstimates": {
			"creation": {
				"codeDepositCost": "94200",
				"executionCost": "22247",
				"totalCost": "116447"
			},
			"external": {
				"getCountLoop()": "infinite",
				"soDem()": "2407"
			}
		},
		"methodIdentifiers": {
			"getCountLoop()": "f81b2787",
			"soDem()": "13227d91"
		}
	},
	"abi": [
		{
			"inputs": [],
			"name": "getCountLoop",
			"outputs": [
				{
					"internalType": "uint256",
					"name": "",
					"type": "uint256"
				}
			],
			"stateMutability": "view",
			"type": "function"
		},
		{
			"inputs": [],
			"name": "soDem",
			"outputs": [
				{
					"internalType": "uint256",
					"name": "",
					"type": "uint256"
				}
			],
			"stateMutability": "view",
			"type": "function"
		}
	]
}