{
	"data": {
		"bytecode": {
			"linkReferences": {},
			"object": "6080604052600a60005534801561001557600080fd5b506101a1806100256000396000f3fe608060405234801561001057600080fd5b50600436106100365760003560e01c806313227d911461003b578063f81b278714610059575b600080fd5b610043610077565b60405161005091906100ce565b60405180910390f35b61006161007d565b60405161006e91906100ce565b60405180910390f35b60005481565b6000806000905060008054905060005b818110156100b65782806100a0906100f3565b93505080806100ae906100f3565b91505061008d565b50819250505090565b6100c8816100e9565b82525050565b60006020820190506100e360008301846100bf565b92915050565b6000819050919050565b60006100fe826100e9565b91507fffffffffffffffffffffffffffffffffffffffffffffffffffffffffffffffff8214156101315761013061013c565b5b600182019050919050565b7f4e487b7100000000000000000000000000000000000000000000000000000000600052601160045260246000fdfea26469706673582212204855e600fa7e88346de79ab670e4d58c5612c0dde3578b583c2bf688cb1ace3564736f6c63430008060033",
			"opcodes": "PUSH1 0x80 PUSH1 0x40 MSTORE PUSH1 0xA PUSH1 0x0 SSTORE CALLVALUE DUP1 ISZERO PUSH2 0x15 JUMPI PUSH1 0x0 DUP1 REVERT JUMPDEST POP PUSH2 0x1A1 DUP1 PUSH2 0x25 PUSH1 0x0 CODECOPY PUSH1 0x0 RETURN INVALID PUSH1 0x80 PUSH1 0x40 MSTORE CALLVALUE DUP1 ISZERO PUSH2 0x10 JUMPI PUSH1 0x0 DUP1 REVERT JUMPDEST POP PUSH1 0x4 CALLDATASIZE LT PUSH2 0x36 JUMPI PUSH1 0x0 CALLDATALOAD PUSH1 0xE0 SHR DUP1 PUSH4 0x13227D91 EQ PUSH2 0x3B JUMPI DUP1 PUSH4 0xF81B2787 EQ PUSH2 0x59 JUMPI JUMPDEST PUSH1 0x0 DUP1 REVERT JUMPDEST PUSH2 0x43 PUSH2 0x77 JUMP JUMPDEST PUSH1 0x40 MLOAD PUSH2 0x50 SWAP2 SWAP1 PUSH2 0xCE JUMP JUMPDEST PUSH1 0x40 MLOAD DUP1 SWAP2 SUB SWAP1 RETURN JUMPDEST PUSH2 0x61 PUSH2 0x7D JUMP JUMPDEST PUSH1 0x40 MLOAD PUSH2 0x6E SWAP2 SWAP1 PUSH2 0xCE JUMP JUMPDEST PUSH1 0x40 MLOAD DUP1 SWAP2 SUB SWAP1 RETURN JUMPDEST PUSH1 0x0 SLOAD DUP2 JUMP JUMPDEST PUSH1 0x0 DUP1 PUSH1 0x0 SWAP1 POP PUSH1 0x0 DUP1 SLOAD SWAP1 POP PUSH1 0x0 JUMPDEST DUP2 DUP2 LT ISZERO PUSH2 0xB6 JUMPI DUP3 DUP1 PUSH2 0xA0 SWAP1 PUSH2 0xF3 JUMP JUMPDEST SWAP4 POP POP DUP1 DUP1 PUSH2 0xAE SWAP1 PUSH2 0xF3 JUMP JUMPDEST SWAP2 POP POP PUSH2 0x8D JUMP JUMPDEST POP DUP2 SWAP3 POP POP POP SWAP1 JUMP JUMPDEST PUSH2 0xC8 DUP2 PUSH2 0xE9 JUMP JUMPDEST DUP3 MSTORE POP POP JUMP JUMPDEST PUSH1 0x0 PUSH1 0x20 DUP3 ADD SWAP1 POP PUSH2 0xE3 PUSH1 0x0 DUP4 ADD DUP5 PUSH2 0xBF JUMP JUMPDEST SWAP3 SWAP2 POP POP JUMP JUMPDEST PUSH1 0x0 DUP2 SWAP1 POP SWAP2 SWAP1 POP JUMP JUMPDEST PUSH1 0x0 PUSH2 0xFE DUP3 PUSH2 0xE9 JUMP JUMPDEST SWAP2 POP PUSH32 0xFFFFFFFFFFFFFFFFFFFFFFFFFFFFFFFFFFFFFFFFFFFFFFFFFFFFFFFFFFFFFFFF DUP3 EQ ISZERO PUSH2 0x131 JUMPI PUSH2 0x130 PUSH2 0x13C JUMP JUMPDEST JUMPDEST PUSH1 0x1 DUP3 ADD SWAP1 POP SWAP2 SWAP1 POP JUMP JUMPDEST PUSH32 0x4E487B7100000000000000000000000000000000000000000000000000000000 PUSH1 0x0 MSTORE PUSH1 0x11 PUSH1 0x4 MSTORE PUSH1 0x24 PUSH1 0x0 REVERT INVALID LOG2 PUSH5 0x6970667358 0x22 SLT KECCAK256 0x48 SSTORE 0xE6 STOP STATICCALL PUSH31 0x88346DE79AB670E4D58C5612C0DDE3578B583C2BF688CB1ACE3564736F6C63 NUMBER STOP ADDMOD MOD STOP CALLER "
		},
		"gasEstimates": {
			"creation": {
				"codeDepositCost": "83400",
				"executionCost": "22241",
				"totalCost": "105641"
			},
			"external": {
				"getCountLoop()": "infinite",
				"soDem()": "2407"
			}
		},
		"methodIdentifiers": {
			"getCountLoop()": "f81b2787",
			"soDem()": "13227d91"
		}
	},
	"abi": [
		{
			"inputs": [],
			"name": "getCountLoop",
			"outputs": [
				{
					"internalType": "uint256",
					"name": "",
					"type": "uint256"
				}
			],
			"stateMutability": "view",
			"type": "function"
		},
		{
			"inputs": [],
			"name": "soDem",
			"outputs": [
				{
					"internalType": "uint256",
					"name": "",
					"type": "uint256"
				}
			],
			"stateMutability": "view",
			"type": "function"
		}
	]
}