{
	"data": {
		"bytecode": {
			"linkReferences": {},
			"object": "60806040523480156200001157600080fd5b5060405180602001604052806000815250600090805190602001906200003992919062000098565b5060405180602001604052806000815250600190805190602001906200006192919062000098565b5060405180602001604052806000815250600290805190602001906200008992919062000098565b506000600381905550620001ad565b828054620000a69062000148565b90600052602060002090601f016020900481019282620000ca576000855562000116565b82601f10620000e557805160ff191683800117855562000116565b8280016001018555821562000116579182015b8281111562000115578251825591602001919060010190620000f8565b5b50905062000125919062000129565b5090565b5b80821115620001445760008160009055506001016200012a565b5090565b600060028204905060018216806200016157607f821691505b602082108114156200017857620001776200017e565b5b50919050565b7f4e487b7100000000000000000000000000000000000000000000000000000000600052602260045260246000fd5b610a3d80620001bd6000396000f3fe608060405234801561001057600080fd5b50600436106100885760003560e01c806386dea4ad1161005b57806386dea4ad14610106578063c0da1e6814610122578063d185d22514610140578063e08bbba11461015c57610088565b806302a93fcc1461008d57806327d78dea146100ab57806333d5828d146100ca5780636cf22ad8146100e8575b600080fd5b61009561017a565b6040516100a291906107e8565b60405180910390f35b6100b3610180565b6040516100c19291906107b8565b60405180910390f35b6100d261019c565b6040516100df9190610796565b60405180910390f35b6100f061022a565b6040516100fd9190610796565b60405180910390f35b610120600480360381019061011b91906105aa565b6102b8565b005b61012a6102d0565b6040516101379190610796565b60405180910390f35b61015a60048036038101906101559190610503565b610303565b005b61016461034d565b6040516101719190610796565b60405180910390f35b60035481565b606060008061018d6102d0565b90508060035492509250509091565b600280546101a9906108e1565b80601f01602080910402602001604051908101604052809291908181526020018280546101d5906108e1565b80156102225780601f106101f757610100808354040283529160200191610222565b820191906000526020600020905b81548152906001019060200180831161020557829003601f168201915b505050505081565b60008054610237906108e1565b80601f0160208091040260200160405190810160405280929190818152602001828054610263906108e1565b80156102b05780601f10610285576101008083540402835291602001916102b0565b820191906000526020600020905b81548152906001019060200180831161029357829003601f168201915b505050505081565b6102c3848484610303565b8060038190555050505050565b6060600080600160026040516020016102eb9392919061074f565b60405160208183030381529060405290508091505090565b82600090805190602001906103199291906103db565b5081600190805190602001906103309291906103db565b5080600290805190602001906103479291906103db565b50505050565b6001805461035a906108e1565b80601f0160208091040260200160405190810160405280929190818152602001828054610386906108e1565b80156103d35780601f106103a8576101008083540402835291602001916103d3565b820191906000526020600020905b8154815290600101906020018083116103b657829003601f168201915b505050505081565b8280546103e7906108e1565b90600052602060002090601f0160209004810192826104095760008555610450565b82601f1061042257805160ff1916838001178555610450565b82800160010185558215610450579182015b8281111561044f578251825591602001919060010190610434565b5b50905061045d9190610461565b5090565b5b8082111561047a576000816000905550600101610462565b5090565b600061049161048c84610828565b610803565b9050828152602081018484840111156104ad576104ac6109a7565b5b6104b884828561089f565b509392505050565b600082601f8301126104d5576104d46109a2565b5b81356104e584826020860161047e565b91505092915050565b6000813590506104fd816109f0565b92915050565b60008060006060848603121561051c5761051b6109b1565b5b600084013567ffffffffffffffff81111561053a576105396109ac565b5b610546868287016104c0565b935050602084013567ffffffffffffffff811115610567576105666109ac565b5b610573868287016104c0565b925050604084013567ffffffffffffffff811115610594576105936109ac565b5b6105a0868287016104c0565b9150509250925092565b600080600080608085870312156105c4576105c36109b1565b5b600085013567ffffffffffffffff8111156105e2576105e16109ac565b5b6105ee878288016104c0565b945050602085013567ffffffffffffffff81111561060f5761060e6109ac565b5b61061b878288016104c0565b935050604085013567ffffffffffffffff81111561063c5761063b6109ac565b5b610648878288016104c0565b9250506060610659878288016104ee565b91505092959194509250565b60006106708261086e565b61067a8185610879565b935061068a8185602086016108ae565b610693816109b6565b840191505092915050565b600081546106ab816108e1565b6106b5818661088a565b945060018216600081146106d057600181146106e157610714565b60ff19831686528186019350610714565b6106ea85610859565b60005b8381101561070c578154818901526001820191506020810190506106ed565b838801955050505b50505092915050565b600061072a60018361088a565b9150610735826109c7565b600182019050919050565b61074981610895565b82525050565b600061075b828661069e565b91506107668261071d565b9150610772828561069e565b915061077d8261071d565b9150610789828461069e565b9150819050949350505050565b600060208201905081810360008301526107b08184610665565b905092915050565b600060408201905081810360008301526107d28185610665565b90506107e16020830184610740565b9392505050565b60006020820190506107fd6000830184610740565b92915050565b600061080d61081e565b90506108198282610913565b919050565b6000604051905090565b600067ffffffffffffffff82111561084357610842610973565b5b61084c826109b6565b9050602081019050919050565b60008190508160005260206000209050919050565b600081519050919050565b600082825260208201905092915050565b600081905092915050565b6000819050919050565b82818337600083830152505050565b60005b838110156108cc5780820151818401526020810190506108b1565b838111156108db576000848401525b50505050565b600060028204905060018216806108f957607f821691505b6020821081141561090d5761090c610944565b5b50919050565b61091c826109b6565b810181811067ffffffffffffffff8211171561093b5761093a610973565b5b80604052505050565b7f4e487b7100000000000000000000000000000000000000000000000000000000600052602260045260246000fd5b7f4e487b7100000000000000000000000000000000000000000000000000000000600052604160045260246000fd5b600080fd5b600080fd5b600080fd5b600080fd5b6000601f19601f8301169050919050565b7f2d00000000000000000000000000000000000000000000000000000000000000600082015250565b6109f981610895565b8114610a0457600080fd5b5056fea26469706673582212205a24ad853ca3f46c71445d2e901846df6cb015e1e5ce20aee896c70a1faab70164736f6c63430008060033",
			"opcodes": "PUSH1 0x80 PUSH1 0x40 MSTORE CALLVALUE DUP1 ISZERO PUSH3 0x11 JUMPI PUSH1 0x0 DUP1 REVERT JUMPDEST POP PUSH1 0x40 MLOAD DUP1 PUSH1 0x20 ADD PUSH1 0x40 MSTORE DUP1 PUSH1 0x0 DUP2 MSTORE POP PUSH1 0x0 SWAP1 DUP1 MLOAD SWAP1 PUSH1 0x20 ADD SWAP1 PUSH3 0x39 SWAP3 SWAP2 SWAP1 PUSH3 0x98 JUMP JUMPDEST POP PUSH1 0x40 MLOAD DUP1 PUSH1 0x20 ADD PUSH1 0x40 MSTORE DUP1 PUSH1 0x0 DUP2 MSTORE POP PUSH1 0x1 SWAP1 DUP1 MLOAD SWAP1 PUSH1 0x20 ADD SWAP1 PUSH3 0x61 SWAP3 SWAP2 SWAP1 PUSH3 0x98 JUMP JUMPDEST POP PUSH1 0x40 MLOAD DUP1 PUSH1 0x20 ADD PUSH1 0x40 MSTORE DUP1 PUSH1 0x0 DUP2 MSTORE POP PUSH1 0x2 SWAP1 DUP1 MLOAD SWAP1 PUSH1 0x20 ADD SWAP1 PUSH3 0x89 SWAP3 SWAP2 SWAP1 PUSH3 0x98 JUMP JUMPDEST POP PUSH1 0x0 PUSH1 0x3 DUP2 SWAP1 SSTORE POP PUSH3 0x1AD JUMP JUMPDEST DUP3 DUP1 SLOAD PUSH3 0xA6 SWAP1 PUSH3 0x148 JUMP JUMPDEST SWAP1 PUSH1 0x0 MSTORE PUSH1 0x20 PUSH1 0x0 KECCAK256 SWAP1 PUSH1 0x1F ADD PUSH1 0x20 SWAP1 DIV DUP2 ADD SWAP3 DUP3 PUSH3 0xCA JUMPI PUSH1 0x0 DUP6 SSTORE PUSH3 0x116 JUMP JUMPDEST DUP3 PUSH1 0x1F LT PUSH3 0xE5 JUMPI DUP1 MLOAD PUSH1 0xFF NOT AND DUP4 DUP1 ADD OR DUP6 SSTORE PUSH3 0x116 JUMP JUMPDEST DUP3 DUP1 ADD PUSH1 0x1 ADD DUP6 SSTORE DUP3 ISZERO PUSH3 0x116 JUMPI SWAP2 DUP3 ADD JUMPDEST DUP3 DUP2 GT ISZERO PUSH3 0x115 JUMPI DUP3 MLOAD DUP3 SSTORE SWAP2 PUSH1 0x20 ADD SWAP2 SWAP1 PUSH1 0x1 ADD SWAP1 PUSH3 0xF8 JUMP JUMPDEST JUMPDEST POP SWAP1 POP PUSH3 0x125 SWAP2 SWAP1 PUSH3 0x129 JUMP JUMPDEST POP SWAP1 JUMP JUMPDEST JUMPDEST DUP1 DUP3 GT ISZERO PUSH3 0x144 JUMPI PUSH1 0x0 DUP2 PUSH1 0x0 SWAP1 SSTORE POP PUSH1 0x1 ADD PUSH3 0x12A JUMP JUMPDEST POP SWAP1 JUMP JUMPDEST PUSH1 0x0 PUSH1 0x2 DUP3 DIV SWAP1 POP PUSH1 0x1 DUP3 AND DUP1 PUSH3 0x161 JUMPI PUSH1 0x7F DUP3 AND SWAP2 POP JUMPDEST PUSH1 0x20 DUP3 LT DUP2 EQ ISZERO PUSH3 0x178 JUMPI PUSH3 0x177 PUSH3 0x17E JUMP JUMPDEST JUMPDEST POP SWAP2 SWAP1 POP JUMP JUMPDEST PUSH32 0x4E487B7100000000000000000000000000000000000000000000000000000000 PUSH1 0x0 MSTORE PUSH1 0x22 PUSH1 0x4 MSTORE PUSH1 0x24 PUSH1 0x0 REVERT JUMPDEST PUSH2 0xA3D DUP1 PUSH3 0x1BD PUSH1 0x0 CODECOPY PUSH1 0x0 RETURN INVALID PUSH1 0x80 PUSH1 0x40 MSTORE CALLVALUE DUP1 ISZERO PUSH2 0x10 JUMPI PUSH1 0x0 DUP1 REVERT JUMPDEST POP PUSH1 0x4 CALLDATASIZE LT PUSH2 0x88 JUMPI PUSH1 0x0 CALLDATALOAD PUSH1 0xE0 SHR DUP1 PUSH4 0x86DEA4AD GT PUSH2 0x5B JUMPI DUP1 PUSH4 0x86DEA4AD EQ PUSH2 0x106 JUMPI DUP1 PUSH4 0xC0DA1E68 EQ PUSH2 0x122 JUMPI DUP1 PUSH4 0xD185D225 EQ PUSH2 0x140 JUMPI DUP1 PUSH4 0xE08BBBA1 EQ PUSH2 0x15C JUMPI PUSH2 0x88 JUMP JUMPDEST DUP1 PUSH4 0x2A93FCC EQ PUSH2 0x8D JUMPI DUP1 PUSH4 0x27D78DEA EQ PUSH2 0xAB JUMPI DUP1 PUSH4 0x33D5828D EQ PUSH2 0xCA JUMPI DUP1 PUSH4 0x6CF22AD8 EQ PUSH2 0xE8 JUMPI JUMPDEST PUSH1 0x0 DUP1 REVERT JUMPDEST PUSH2 0x95 PUSH2 0x17A JUMP JUMPDEST PUSH1 0x40 MLOAD PUSH2 0xA2 SWAP2 SWAP1 PUSH2 0x7E8 JUMP JUMPDEST PUSH1 0x40 MLOAD DUP1 SWAP2 SUB SWAP1 RETURN JUMPDEST PUSH2 0xB3 PUSH2 0x180 JUMP JUMPDEST PUSH1 0x40 MLOAD PUSH2 0xC1 SWAP3 SWAP2 SWAP1 PUSH2 0x7B8 JUMP JUMPDEST PUSH1 0x40 MLOAD DUP1 SWAP2 SUB SWAP1 RETURN JUMPDEST PUSH2 0xD2 PUSH2 0x19C JUMP JUMPDEST PUSH1 0x40 MLOAD PUSH2 0xDF SWAP2 SWAP1 PUSH2 0x796 JUMP JUMPDEST PUSH1 0x40 MLOAD DUP1 SWAP2 SUB SWAP1 RETURN JUMPDEST PUSH2 0xF0 PUSH2 0x22A JUMP JUMPDEST PUSH1 0x40 MLOAD PUSH2 0xFD SWAP2 SWAP1 PUSH2 0x796 JUMP JUMPDEST PUSH1 0x40 MLOAD DUP1 SWAP2 SUB SWAP1 RETURN JUMPDEST PUSH2 0x120 PUSH1 0x4 DUP1 CALLDATASIZE SUB DUP2 ADD SWAP1 PUSH2 0x11B SWAP2 SWAP1 PUSH2 0x5AA JUMP JUMPDEST PUSH2 0x2B8 JUMP JUMPDEST STOP JUMPDEST PUSH2 0x12A PUSH2 0x2D0 JUMP JUMPDEST PUSH1 0x40 MLOAD PUSH2 0x137 SWAP2 SWAP1 PUSH2 0x796 JUMP JUMPDEST PUSH1 0x40 MLOAD DUP1 SWAP2 SUB SWAP1 RETURN JUMPDEST PUSH2 0x15A PUSH1 0x4 DUP1 CALLDATASIZE SUB DUP2 ADD SWAP1 PUSH2 0x155 SWAP2 SWAP1 PUSH2 0x503 JUMP JUMPDEST PUSH2 0x303 JUMP JUMPDEST STOP JUMPDEST PUSH2 0x164 PUSH2 0x34D JUMP JUMPDEST PUSH1 0x40 MLOAD PUSH2 0x171 SWAP2 SWAP1 PUSH2 0x796 JUMP JUMPDEST PUSH1 0x40 MLOAD DUP1 SWAP2 SUB SWAP1 RETURN JUMPDEST PUSH1 0x3 SLOAD DUP2 JUMP JUMPDEST PUSH1 0x60 PUSH1 0x0 DUP1 PUSH2 0x18D PUSH2 0x2D0 JUMP JUMPDEST SWAP1 POP DUP1 PUSH1 0x3 SLOAD SWAP3 POP SWAP3 POP POP SWAP1 SWAP2 JUMP JUMPDEST PUSH1 0x2 DUP1 SLOAD PUSH2 0x1A9 SWAP1 PUSH2 0x8E1 JUMP JUMPDEST DUP1 PUSH1 0x1F ADD PUSH1 0x20 DUP1 SWAP2 DIV MUL PUSH1 0x20 ADD PUSH1 0x40 MLOAD SWAP1 DUP2 ADD PUSH1 0x40 MSTORE DUP1 SWAP3 SWAP2 SWAP1 DUP2 DUP2 MSTORE PUSH1 0x20 ADD DUP3 DUP1 SLOAD PUSH2 0x1D5 SWAP1 PUSH2 0x8E1 JUMP JUMPDEST DUP1 ISZERO PUSH2 0x222 JUMPI DUP1 PUSH1 0x1F LT PUSH2 0x1F7 JUMPI PUSH2 0x100 DUP1 DUP4 SLOAD DIV MUL DUP4 MSTORE SWAP2 PUSH1 0x20 ADD SWAP2 PUSH2 0x222 JUMP JUMPDEST DUP3 ADD SWAP2 SWAP1 PUSH1 0x0 MSTORE PUSH1 0x20 PUSH1 0x0 KECCAK256 SWAP1 JUMPDEST DUP2 SLOAD DUP2 MSTORE SWAP1 PUSH1 0x1 ADD SWAP1 PUSH1 0x20 ADD DUP1 DUP4 GT PUSH2 0x205 JUMPI DUP3 SWAP1 SUB PUSH1 0x1F AND DUP3 ADD SWAP2 JUMPDEST POP POP POP POP POP DUP2 JUMP JUMPDEST PUSH1 0x0 DUP1 SLOAD PUSH2 0x237 SWAP1 PUSH2 0x8E1 JUMP JUMPDEST DUP1 PUSH1 0x1F ADD PUSH1 0x20 DUP1 SWAP2 DIV MUL PUSH1 0x20 ADD PUSH1 0x40 MLOAD SWAP1 DUP2 ADD PUSH1 0x40 MSTORE DUP1 SWAP3 SWAP2 SWAP1 DUP2 DUP2 MSTORE PUSH1 0x20 ADD DUP3 DUP1 SLOAD PUSH2 0x263 SWAP1 PUSH2 0x8E1 JUMP JUMPDEST DUP1 ISZERO PUSH2 0x2B0 JUMPI DUP1 PUSH1 0x1F LT PUSH2 0x285 JUMPI PUSH2 0x100 DUP1 DUP4 SLOAD DIV MUL DUP4 MSTORE SWAP2 PUSH1 0x20 ADD SWAP2 PUSH2 0x2B0 JUMP JUMPDEST DUP3 ADD SWAP2 SWAP1 PUSH1 0x0 MSTORE PUSH1 0x20 PUSH1 0x0 KECCAK256 SWAP1 JUMPDEST DUP2 SLOAD DUP2 MSTORE SWAP1 PUSH1 0x1 ADD SWAP1 PUSH1 0x20 ADD DUP1 DUP4 GT PUSH2 0x293 JUMPI DUP3 SWAP1 SUB PUSH1 0x1F AND DUP3 ADD SWAP2 JUMPDEST POP POP POP POP POP DUP2 JUMP JUMPDEST PUSH2 0x2C3 DUP5 DUP5 DUP5 PUSH2 0x303 JUMP JUMPDEST DUP1 PUSH1 0x3 DUP2 SWAP1 SSTORE POP POP POP POP POP JUMP JUMPDEST PUSH1 0x60 PUSH1 0x0 DUP1 PUSH1 0x1 PUSH1 0x2 PUSH1 0x40 MLOAD PUSH1 0x20 ADD PUSH2 0x2EB SWAP4 SWAP3 SWAP2 SWAP1 PUSH2 0x74F JUMP JUMPDEST PUSH1 0x40 MLOAD PUSH1 0x20 DUP2 DUP4 SUB SUB DUP2 MSTORE SWAP1 PUSH1 0x40 MSTORE SWAP1 POP DUP1 SWAP2 POP POP SWAP1 JUMP JUMPDEST DUP3 PUSH1 0x0 SWAP1 DUP1 MLOAD SWAP1 PUSH1 0x20 ADD SWAP1 PUSH2 0x319 SWAP3 SWAP2 SWAP1 PUSH2 0x3DB JUMP JUMPDEST POP DUP2 PUSH1 0x1 SWAP1 DUP1 MLOAD SWAP1 PUSH1 0x20 ADD SWAP1 PUSH2 0x330 SWAP3 SWAP2 SWAP1 PUSH2 0x3DB JUMP JUMPDEST POP DUP1 PUSH1 0x2 SWAP1 DUP1 MLOAD SWAP1 PUSH1 0x20 ADD SWAP1 PUSH2 0x347 SWAP3 SWAP2 SWAP1 PUSH2 0x3DB JUMP JUMPDEST POP POP POP POP JUMP JUMPDEST PUSH1 0x1 DUP1 SLOAD PUSH2 0x35A SWAP1 PUSH2 0x8E1 JUMP JUMPDEST DUP1 PUSH1 0x1F ADD PUSH1 0x20 DUP1 SWAP2 DIV MUL PUSH1 0x20 ADD PUSH1 0x40 MLOAD SWAP1 DUP2 ADD PUSH1 0x40 MSTORE DUP1 SWAP3 SWAP2 SWAP1 DUP2 DUP2 MSTORE PUSH1 0x20 ADD DUP3 DUP1 SLOAD PUSH2 0x386 SWAP1 PUSH2 0x8E1 JUMP JUMPDEST DUP1 ISZERO PUSH2 0x3D3 JUMPI DUP1 PUSH1 0x1F LT PUSH2 0x3A8 JUMPI PUSH2 0x100 DUP1 DUP4 SLOAD DIV MUL DUP4 MSTORE SWAP2 PUSH1 0x20 ADD SWAP2 PUSH2 0x3D3 JUMP JUMPDEST DUP3 ADD SWAP2 SWAP1 PUSH1 0x0 MSTORE PUSH1 0x20 PUSH1 0x0 KECCAK256 SWAP1 JUMPDEST DUP2 SLOAD DUP2 MSTORE SWAP1 PUSH1 0x1 ADD SWAP1 PUSH1 0x20 ADD DUP1 DUP4 GT PUSH2 0x3B6 JUMPI DUP3 SWAP1 SUB PUSH1 0x1F AND DUP3 ADD SWAP2 JUMPDEST POP POP POP POP POP DUP2 JUMP JUMPDEST DUP3 DUP1 SLOAD PUSH2 0x3E7 SWAP1 PUSH2 0x8E1 JUMP JUMPDEST SWAP1 PUSH1 0x0 MSTORE PUSH1 0x20 PUSH1 0x0 KECCAK256 SWAP1 PUSH1 0x1F ADD PUSH1 0x20 SWAP1 DIV DUP2 ADD SWAP3 DUP3 PUSH2 0x409 JUMPI PUSH1 0x0 DUP6 SSTORE PUSH2 0x450 JUMP JUMPDEST DUP3 PUSH1 0x1F LT PUSH2 0x422 JUMPI DUP1 MLOAD PUSH1 0xFF NOT AND DUP4 DUP1 ADD OR DUP6 SSTORE PUSH2 0x450 JUMP JUMPDEST DUP3 DUP1 ADD PUSH1 0x1 ADD DUP6 SSTORE DUP3 ISZERO PUSH2 0x450 JUMPI SWAP2 DUP3 ADD JUMPDEST DUP3 DUP2 GT ISZERO PUSH2 0x44F JUMPI DUP3 MLOAD DUP3 SSTORE SWAP2 PUSH1 0x20 ADD SWAP2 SWAP1 PUSH1 0x1 ADD SWAP1 PUSH2 0x434 JUMP JUMPDEST JUMPDEST POP SWAP1 POP PUSH2 0x45D SWAP2 SWAP1 PUSH2 0x461 JUMP JUMPDEST POP SWAP1 JUMP JUMPDEST JUMPDEST DUP1 DUP3 GT ISZERO PUSH2 0x47A JUMPI PUSH1 0x0 DUP2 PUSH1 0x0 SWAP1 SSTORE POP PUSH1 0x1 ADD PUSH2 0x462 JUMP JUMPDEST POP SWAP1 JUMP JUMPDEST PUSH1 0x0 PUSH2 0x491 PUSH2 0x48C DUP5 PUSH2 0x828 JUMP JUMPDEST PUSH2 0x803 JUMP JUMPDEST SWAP1 POP DUP3 DUP2 MSTORE PUSH1 0x20 DUP2 ADD DUP5 DUP5 DUP5 ADD GT ISZERO PUSH2 0x4AD JUMPI PUSH2 0x4AC PUSH2 0x9A7 JUMP JUMPDEST JUMPDEST PUSH2 0x4B8 DUP5 DUP3 DUP6 PUSH2 0x89F JUMP JUMPDEST POP SWAP4 SWAP3 POP POP POP JUMP JUMPDEST PUSH1 0x0 DUP3 PUSH1 0x1F DUP4 ADD SLT PUSH2 0x4D5 JUMPI PUSH2 0x4D4 PUSH2 0x9A2 JUMP JUMPDEST JUMPDEST DUP2 CALLDATALOAD PUSH2 0x4E5 DUP5 DUP3 PUSH1 0x20 DUP7 ADD PUSH2 0x47E JUMP JUMPDEST SWAP2 POP POP SWAP3 SWAP2 POP POP JUMP JUMPDEST PUSH1 0x0 DUP2 CALLDATALOAD SWAP1 POP PUSH2 0x4FD DUP2 PUSH2 0x9F0 JUMP JUMPDEST SWAP3 SWAP2 POP POP JUMP JUMPDEST PUSH1 0x0 DUP1 PUSH1 0x0 PUSH1 0x60 DUP5 DUP7 SUB SLT ISZERO PUSH2 0x51C JUMPI PUSH2 0x51B PUSH2 0x9B1 JUMP JUMPDEST JUMPDEST PUSH1 0x0 DUP5 ADD CALLDATALOAD PUSH8 0xFFFFFFFFFFFFFFFF DUP2 GT ISZERO PUSH2 0x53A JUMPI PUSH2 0x539 PUSH2 0x9AC JUMP JUMPDEST JUMPDEST PUSH2 0x546 DUP7 DUP3 DUP8 ADD PUSH2 0x4C0 JUMP JUMPDEST SWAP4 POP POP PUSH1 0x20 DUP5 ADD CALLDATALOAD PUSH8 0xFFFFFFFFFFFFFFFF DUP2 GT ISZERO PUSH2 0x567 JUMPI PUSH2 0x566 PUSH2 0x9AC JUMP JUMPDEST JUMPDEST PUSH2 0x573 DUP7 DUP3 DUP8 ADD PUSH2 0x4C0 JUMP JUMPDEST SWAP3 POP POP PUSH1 0x40 DUP5 ADD CALLDATALOAD PUSH8 0xFFFFFFFFFFFFFFFF DUP2 GT ISZERO PUSH2 0x594 JUMPI PUSH2 0x593 PUSH2 0x9AC JUMP JUMPDEST JUMPDEST PUSH2 0x5A0 DUP7 DUP3 DUP8 ADD PUSH2 0x4C0 JUMP JUMPDEST SWAP2 POP POP SWAP3 POP SWAP3 POP SWAP3 JUMP JUMPDEST PUSH1 0x0 DUP1 PUSH1 0x0 DUP1 PUSH1 0x80 DUP6 DUP8 SUB SLT ISZERO PUSH2 0x5C4 JUMPI PUSH2 0x5C3 PUSH2 0x9B1 JUMP JUMPDEST JUMPDEST PUSH1 0x0 DUP6 ADD CALLDATALOAD PUSH8 0xFFFFFFFFFFFFFFFF DUP2 GT ISZERO PUSH2 0x5E2 JUMPI PUSH2 0x5E1 PUSH2 0x9AC JUMP JUMPDEST JUMPDEST PUSH2 0x5EE DUP8 DUP3 DUP9 ADD PUSH2 0x4C0 JUMP JUMPDEST SWAP5 POP POP PUSH1 0x20 DUP6 ADD CALLDATALOAD PUSH8 0xFFFFFFFFFFFFFFFF DUP2 GT ISZERO PUSH2 0x60F JUMPI PUSH2 0x60E PUSH2 0x9AC JUMP JUMPDEST JUMPDEST PUSH2 0x61B DUP8 DUP3 DUP9 ADD PUSH2 0x4C0 JUMP JUMPDEST SWAP4 POP POP PUSH1 0x40 DUP6 ADD CALLDATALOAD PUSH8 0xFFFFFFFFFFFFFFFF DUP2 GT ISZERO PUSH2 0x63C JUMPI PUSH2 0x63B PUSH2 0x9AC JUMP JUMPDEST JUMPDEST PUSH2 0x648 DUP8 DUP3 DUP9 ADD PUSH2 0x4C0 JUMP JUMPDEST SWAP3 POP POP PUSH1 0x60 PUSH2 0x659 DUP8 DUP3 DUP9 ADD PUSH2 0x4EE JUMP JUMPDEST SWAP2 POP POP SWAP3 SWAP6 SWAP2 SWAP5 POP SWAP3 POP JUMP JUMPDEST PUSH1 0x0 PUSH2 0x670 DUP3 PUSH2 0x86E JUMP JUMPDEST PUSH2 0x67A DUP2 DUP6 PUSH2 0x879 JUMP JUMPDEST SWAP4 POP PUSH2 0x68A DUP2 DUP6 PUSH1 0x20 DUP7 ADD PUSH2 0x8AE JUMP JUMPDEST PUSH2 0x693 DUP2 PUSH2 0x9B6 JUMP JUMPDEST DUP5 ADD SWAP2 POP POP SWAP3 SWAP2 POP POP JUMP JUMPDEST PUSH1 0x0 DUP2 SLOAD PUSH2 0x6AB DUP2 PUSH2 0x8E1 JUMP JUMPDEST PUSH2 0x6B5 DUP2 DUP7 PUSH2 0x88A JUMP JUMPDEST SWAP5 POP PUSH1 0x1 DUP3 AND PUSH1 0x0 DUP2 EQ PUSH2 0x6D0 JUMPI PUSH1 0x1 DUP2 EQ PUSH2 0x6E1 JUMPI PUSH2 0x714 JUMP JUMPDEST PUSH1 0xFF NOT DUP4 AND DUP7 MSTORE DUP2 DUP7 ADD SWAP4 POP PUSH2 0x714 JUMP JUMPDEST PUSH2 0x6EA DUP6 PUSH2 0x859 JUMP JUMPDEST PUSH1 0x0 JUMPDEST DUP4 DUP2 LT ISZERO PUSH2 0x70C JUMPI DUP2 SLOAD DUP2 DUP10 ADD MSTORE PUSH1 0x1 DUP3 ADD SWAP2 POP PUSH1 0x20 DUP2 ADD SWAP1 POP PUSH2 0x6ED JUMP JUMPDEST DUP4 DUP9 ADD SWAP6 POP POP POP JUMPDEST POP POP POP SWAP3 SWAP2 POP POP JUMP JUMPDEST PUSH1 0x0 PUSH2 0x72A PUSH1 0x1 DUP4 PUSH2 0x88A JUMP JUMPDEST SWAP2 POP PUSH2 0x735 DUP3 PUSH2 0x9C7 JUMP JUMPDEST PUSH1 0x1 DUP3 ADD SWAP1 POP SWAP2 SWAP1 POP JUMP JUMPDEST PUSH2 0x749 DUP2 PUSH2 0x895 JUMP JUMPDEST DUP3 MSTORE POP POP JUMP JUMPDEST PUSH1 0x0 PUSH2 0x75B DUP3 DUP7 PUSH2 0x69E JUMP JUMPDEST SWAP2 POP PUSH2 0x766 DUP3 PUSH2 0x71D JUMP JUMPDEST SWAP2 POP PUSH2 0x772 DUP3 DUP6 PUSH2 0x69E JUMP JUMPDEST SWAP2 POP PUSH2 0x77D DUP3 PUSH2 0x71D JUMP JUMPDEST SWAP2 POP PUSH2 0x789 DUP3 DUP5 PUSH2 0x69E JUMP JUMPDEST SWAP2 POP DUP2 SWAP1 POP SWAP5 SWAP4 POP POP POP POP JUMP JUMPDEST PUSH1 0x0 PUSH1 0x20 DUP3 ADD SWAP1 POP DUP2 DUP2 SUB PUSH1 0x0 DUP4 ADD MSTORE PUSH2 0x7B0 DUP2 DUP5 PUSH2 0x665 JUMP JUMPDEST SWAP1 POP SWAP3 SWAP2 POP POP JUMP JUMPDEST PUSH1 0x0 PUSH1 0x40 DUP3 ADD SWAP1 POP DUP2 DUP2 SUB PUSH1 0x0 DUP4 ADD MSTORE PUSH2 0x7D2 DUP2 DUP6 PUSH2 0x665 JUMP JUMPDEST SWAP1 POP PUSH2 0x7E1 PUSH1 0x20 DUP4 ADD DUP5 PUSH2 0x740 JUMP JUMPDEST SWAP4 SWAP3 POP POP POP JUMP JUMPDEST PUSH1 0x0 PUSH1 0x20 DUP3 ADD SWAP1 POP PUSH2 0x7FD PUSH1 0x0 DUP4 ADD DUP5 PUSH2 0x740 JUMP JUMPDEST SWAP3 SWAP2 POP POP JUMP JUMPDEST PUSH1 0x0 PUSH2 0x80D PUSH2 0x81E JUMP JUMPDEST SWAP1 POP PUSH2 0x819 DUP3 DUP3 PUSH2 0x913 JUMP JUMPDEST SWAP2 SWAP1 POP JUMP JUMPDEST PUSH1 0x0 PUSH1 0x40 MLOAD SWAP1 POP SWAP1 JUMP JUMPDEST PUSH1 0x0 PUSH8 0xFFFFFFFFFFFFFFFF DUP3 GT ISZERO PUSH2 0x843 JUMPI PUSH2 0x842 PUSH2 0x973 JUMP JUMPDEST JUMPDEST PUSH2 0x84C DUP3 PUSH2 0x9B6 JUMP JUMPDEST SWAP1 POP PUSH1 0x20 DUP2 ADD SWAP1 POP SWAP2 SWAP1 POP JUMP JUMPDEST PUSH1 0x0 DUP2 SWAP1 POP DUP2 PUSH1 0x0 MSTORE PUSH1 0x20 PUSH1 0x0 KECCAK256 SWAP1 POP SWAP2 SWAP1 POP JUMP JUMPDEST PUSH1 0x0 DUP2 MLOAD SWAP1 POP SWAP2 SWAP1 POP JUMP JUMPDEST PUSH1 0x0 DUP3 DUP3 MSTORE PUSH1 0x20 DUP3 ADD SWAP1 POP SWAP3 SWAP2 POP POP JUMP JUMPDEST PUSH1 0x0 DUP2 SWAP1 POP SWAP3 SWAP2 POP POP JUMP JUMPDEST PUSH1 0x0 DUP2 SWAP1 POP SWAP2 SWAP1 POP JUMP JUMPDEST DUP3 DUP2 DUP4 CALLDATACOPY PUSH1 0x0 DUP4 DUP4 ADD MSTORE POP POP POP JUMP JUMPDEST PUSH1 0x0 JUMPDEST DUP4 DUP2 LT ISZERO PUSH2 0x8CC JUMPI DUP1 DUP3 ADD MLOAD DUP2 DUP5 ADD MSTORE PUSH1 0x20 DUP2 ADD SWAP1 POP PUSH2 0x8B1 JUMP JUMPDEST DUP4 DUP2 GT ISZERO PUSH2 0x8DB JUMPI PUSH1 0x0 DUP5 DUP5 ADD MSTORE JUMPDEST POP POP POP POP JUMP JUMPDEST PUSH1 0x0 PUSH1 0x2 DUP3 DIV SWAP1 POP PUSH1 0x1 DUP3 AND DUP1 PUSH2 0x8F9 JUMPI PUSH1 0x7F DUP3 AND SWAP2 POP JUMPDEST PUSH1 0x20 DUP3 LT DUP2 EQ ISZERO PUSH2 0x90D JUMPI PUSH2 0x90C PUSH2 0x944 JUMP JUMPDEST JUMPDEST POP SWAP2 SWAP1 POP JUMP JUMPDEST PUSH2 0x91C DUP3 PUSH2 0x9B6 JUMP JUMPDEST DUP2 ADD DUP2 DUP2 LT PUSH8 0xFFFFFFFFFFFFFFFF DUP3 GT OR ISZERO PUSH2 0x93B JUMPI PUSH2 0x93A PUSH2 0x973 JUMP JUMPDEST JUMPDEST DUP1 PUSH1 0x40 MSTORE POP POP POP JUMP JUMPDEST PUSH32 0x4E487B7100000000000000000000000000000000000000000000000000000000 PUSH1 0x0 MSTORE PUSH1 0x22 PUSH1 0x4 MSTORE PUSH1 0x24 PUSH1 0x0 REVERT JUMPDEST PUSH32 0x4E487B7100000000000000000000000000000000000000000000000000000000 PUSH1 0x0 MSTORE PUSH1 0x41 PUSH1 0x4 MSTORE PUSH1 0x24 PUSH1 0x0 REVERT JUMPDEST PUSH1 0x0 DUP1 REVERT JUMPDEST PUSH1 0x0 DUP1 REVERT JUMPDEST PUSH1 0x0 DUP1 REVERT JUMPDEST PUSH1 0x0 DUP1 REVERT JUMPDEST PUSH1 0x0 PUSH1 0x1F NOT PUSH1 0x1F DUP4 ADD AND SWAP1 POP SWAP2 SWAP1 POP JUMP JUMPDEST PUSH32 0x2D00000000000000000000000000000000000000000000000000000000000000 PUSH1 0x0 DUP3 ADD MSTORE POP JUMP JUMPDEST PUSH2 0x9F9 DUP2 PUSH2 0x895 JUMP JUMPDEST DUP2 EQ PUSH2 0xA04 JUMPI PUSH1 0x0 DUP1 REVERT JUMPDEST POP JUMP INVALID LOG2 PUSH5 0x6970667358 0x22 SLT KECCAK256 GAS 0x24 0xAD DUP6 EXTCODECOPY LOG3 DELEGATECALL PUSH13 0x71445D2E901846DF6CB015E1E5 0xCE KECCAK256 0xAE 0xE8 SWAP7 0xC7 EXP 0x1F 0xAA 0xB7 ADD PUSH5 0x736F6C6343 STOP ADDMOD MOD STOP CALLER "
		},
		"gasEstimates": {
			"creation": {
				"codeDepositCost": "524200",
				"executionCost": "infinite",
				"totalCost": "infinite"
			},
			"external": {
				"diaChi()": "infinite",
				"getInformation()": "infinite",
				"getInformationHocVienVB2()": "infinite",
				"hoTen()": "infinite",
				"inputInfomation(string,string,string)": "infinite",
				"inputInfomation(string,string,string,uint256)": "infinite",
				"soDienThoai()": "infinite",
				"thoiGianHoc()": "2430"
			}
		},
		"methodIdentifiers": {
			"diaChi()": "e08bbba1",
			"getInformation()": "c0da1e68",
			"getInformationHocVienVB2()": "27d78dea",
			"hoTen()": "6cf22ad8",
			"inputInfomation(string,string,string)": "d185d225",
			"inputInfomation(string,string,string,uint256)": "86dea4ad",
			"soDienThoai()": "33d5828d",
			"thoiGianHoc()": "02a93fcc"
		}
	},
	"abi": [
		{
			"inputs": [],
			"stateMutability": "nonpayable",
			"type": "constructor"
		},
		{
			"inputs": [],
			"name": "diaChi",
			"outputs": [
				{
					"internalType": "string",
					"name": "",
					"type": "string"
				}
			],
			"stateMutability": "view",
			"type": "function"
		},
		{
			"inputs": [],
			"name": "getInformation",
			"outputs": [
				{
					"internalType": "string",
					"name": "",
					"type": "string"
				}
			],
			"stateMutability": "view",
			"type": "function"
		},
		{
			"inputs": [],
			"name": "getInformationHocVienVB2",
			"outputs": [
				{
					"internalType": "string",
					"name": "",
					"type": "string"
				},
				{
					"internalType": "uint256",
					"name": "",
					"type": "uint256"
				}
			],
			"stateMutability": "view",
			"type": "function"
		},
		{
			"inputs": [],
			"name": "hoTen",
			"outputs": [
				{
					"internalType": "string",
					"name": "",
					"type": "string"
				}
			],
			"stateMutability": "view",
			"type": "function"
		},
		{
			"inputs": [
				{
					"internalType": "string",
					"name": "_hoTen",
					"type": "string"
				},
				{
					"internalType": "string",
					"name": "_diaChi",
					"type": "string"
				},
				{
					"internalType": "string",
					"name": "_soDienThoai",
					"type": "string"
				},
				{
					"internalType": "uint256",
					"name": "_thoiGianHoc",
					"type": "uint256"
				}
			],
			"name": "inputInfomation",
			"outputs": [],
			"stateMutability": "nonpayable",
			"type": "function"
		},
		{
			"inputs": [
				{
					"internalType": "string",
					"name": "_hoTen",
					"type": "string"
				},
				{
					"internalType": "string",
					"name": "_diaChi",
					"type": "string"
				},
				{
					"internalType": "string",
					"name": "_soDienThoai",
					"type": "string"
				}
			],
			"name": "inputInfomation",
			"outputs": [],
			"stateMutability": "nonpayable",
			"type": "function"
		},
		{
			"inputs": [],
			"name": "soDienThoai",
			"outputs": [
				{
					"internalType": "string",
					"name": "",
					"type": "string"
				}
			],
			"stateMutability": "view",
			"type": "function"
		},
		{
			"inputs": [],
			"name": "thoiGianHoc",
			"outputs": [
				{
					"internalType": "uint256",
					"name": "",
					"type": "uint256"
				}
			],
			"stateMutability": "view",
			"type": "function"
		}
	]
}