{
	"data": {
		"bytecode": {
			"linkReferences": {},
			"object": "60806040526003600055600460015534801561001a57600080fd5b5061010e8061002a6000396000f3fe6080604052348015600f57600080fd5b5060043610603c5760003560e01c806313141e151460415780631fea7e5214605b5780632e803fb9146075575b600080fd5b6047608f565b6040516052919060b5565b60405180910390f35b60616095565b604051606c919060b5565b60405180910390f35b607b609e565b6040516086919060b5565b60405180910390f35b60015481565b60008054905090565b6000600154905090565b60af8160ce565b82525050565b600060208201905060c8600083018460a8565b92915050565b600081905091905056fea2646970667358221220f97faf5572af3a032341958e0079ffb4b737834ee82c774e2f2d4b6ba1e9eedd64736f6c63430008060033",
			"opcodes": "PUSH1 0x80 PUSH1 0x40 MSTORE PUSH1 0x3 PUSH1 0x0 SSTORE PUSH1 0x4 PUSH1 0x1 SSTORE CALLVALUE DUP1 ISZERO PUSH2 0x1A JUMPI PUSH1 0x0 DUP1 REVERT JUMPDEST POP PUSH2 0x10E DUP1 PUSH2 0x2A PUSH1 0x0 CODECOPY PUSH1 0x0 RETURN INVALID PUSH1 0x80 PUSH1 0x40 MSTORE CALLVALUE DUP1 ISZERO PUSH1 0xF JUMPI PUSH1 0x0 DUP1 REVERT JUMPDEST POP PUSH1 0x4 CALLDATASIZE LT PUSH1 0x3C JUMPI PUSH1 0x0 CALLDATALOAD PUSH1 0xE0 SHR DUP1 PUSH4 0x13141E15 EQ PUSH1 0x41 JUMPI DUP1 PUSH4 0x1FEA7E52 EQ PUSH1 0x5B JUMPI DUP1 PUSH4 0x2E803FB9 EQ PUSH1 0x75 JUMPI JUMPDEST PUSH1 0x0 DUP1 REVERT JUMPDEST PUSH1 0x47 PUSH1 0x8F JUMP JUMPDEST PUSH1 0x40 MLOAD PUSH1 0x52 SWAP2 SWAP1 PUSH1 0xB5 JUMP JUMPDEST PUSH1 0x40 MLOAD DUP1 SWAP2 SUB SWAP1 RETURN JUMPDEST PUSH1 0x61 PUSH1 0x95 JUMP JUMPDEST PUSH1 0x40 MLOAD PUSH1 0x6C SWAP2 SWAP1 PUSH1 0xB5 JUMP JUMPDEST PUSH1 0x40 MLOAD DUP1 SWAP2 SUB SWAP1 RETURN JUMPDEST PUSH1 0x7B PUSH1 0x9E JUMP JUMPDEST PUSH1 0x40 MLOAD PUSH1 0x86 SWAP2 SWAP1 PUSH1 0xB5 JUMP JUMPDEST PUSH1 0x40 MLOAD DUP1 SWAP2 SUB SWAP1 RETURN JUMPDEST PUSH1 0x1 SLOAD DUP2 JUMP JUMPDEST PUSH1 0x0 DUP1 SLOAD SWAP1 POP SWAP1 JUMP JUMPDEST PUSH1 0x0 PUSH1 0x1 SLOAD SWAP1 POP SWAP1 JUMP JUMPDEST PUSH1 0xAF DUP2 PUSH1 0xCE JUMP JUMPDEST DUP3 MSTORE POP POP JUMP JUMPDEST PUSH1 0x0 PUSH1 0x20 DUP3 ADD SWAP1 POP PUSH1 0xC8 PUSH1 0x0 DUP4 ADD DUP5 PUSH1 0xA8 JUMP JUMPDEST SWAP3 SWAP2 POP POP JUMP JUMPDEST PUSH1 0x0 DUP2 SWAP1 POP SWAP2 SWAP1 POP JUMP INVALID LOG2 PUSH5 0x6970667358 0x22 SLT KECCAK256 0xF9 PUSH32 0xAF5572AF3A032341958E0079FFB4B737834EE82C774E2F2D4B6BA1E9EEDD6473 PUSH16 0x6C634300080600330000000000000000 "
		},
		"gasEstimates": {
			"creation": {
				"codeDepositCost": "54000",
				"executionCost": "44317",
				"totalCost": "98317"
			},
			"external": {
				"getNumberPrivate()": "2437",
				"getNumberPublic()": "2459",
				"numberPublic()": "2407"
			}
		},
		"methodIdentifiers": {
			"getNumberPrivate()": "1fea7e52",
			"getNumberPublic()": "2e803fb9",
			"numberPublic()": "13141e15"
		}
	},
	"abi": [
		{
			"inputs": [],
			"name": "getNumberPrivate",
			"outputs": [
				{
					"internalType": "uint256",
					"name": "",
					"type": "uint256"
				}
			],
			"stateMutability": "view",
			"type": "function"
		},
		{
			"inputs": [],
			"name": "getNumberPublic",
			"outputs": [
				{
					"internalType": "uint256",
					"name": "",
					"type": "uint256"
				}
			],
			"stateMutability": "view",
			"type": "function"
		},
		{
			"inputs": [],
			"name": "numberPublic",
			"outputs": [
				{
					"internalType": "uint256",
					"name": "",
					"type": "uint256"
				}
			],
			"stateMutability": "view",
			"type": "function"
		}
	]
}