{
	"data": {
		"bytecode": {
			"linkReferences": {},
			"object": "608060405234801561001057600080fd5b506102b4806100206000396000f3fe608060405260043610610041576000357c0100000000000000000000000000000000000000000000000000000000900463ffffffff1680636722799214610046575b600080fd5b34801561005257600080fd5b5061005b6100c8565b6040518083600560200280838360005b8381101561008657808201518184015260208101905061006b565b5050505090500182600660200280838360005b838110156100b4578082015181840152602081019050610099565b505050509050019250505060405180910390f35b6100d06101dd565b6100d8610200565b6100e06101dd565b60a060405190810160405280603281526020017fffffffffffffffffffffffffffffffffffffffffffffffffffffffffffffffc18152602001604d81526020017fffffffffffffffffffffffffffffffffffffffffffffffffffffffffffffffe48152602001605a815250905060c060405190810160405280600a815260200160148152602001601e81526020016028815260200160328152602001603c8152506000906006610191929190610223565b50806000806006806020026040519081016040528092919082600680156101cd576020028201915b8154815260200190600101908083116101b9575b5050505050905092509250509091565b60a060405190810160405280600590602082028038833980820191505090505090565b60c060405190810160405280600690602082028038833980820191505090505090565b8260068101928215610252579160200282015b82811115610251578251825591602001919060010190610236565b5b50905061025f9190610263565b5090565b61028591905b80821115610281576000816000905550600101610269565b5090565b9056fea165627a7a72305820d94c624d4fc52861f637de8abf1e72997fbec6bff35165167c41471f267bea370029",
			"opcodes": "PUSH1 0x80 PUSH1 0x40 MSTORE CALLVALUE DUP1 ISZERO PUSH2 0x10 JUMPI PUSH1 0x0 DUP1 REVERT JUMPDEST POP PUSH2 0x2B4 DUP1 PUSH2 0x20 PUSH1 0x0 CODECOPY PUSH1 0x0 RETURN INVALID PUSH1 0x80 PUSH1 0x40 MSTORE PUSH1 0x4 CALLDATASIZE LT PUSH2 0x41 JUMPI PUSH1 0x0 CALLDATALOAD PUSH29 0x100000000000000000000000000000000000000000000000000000000 SWAP1 DIV PUSH4 0xFFFFFFFF AND DUP1 PUSH4 0x67227992 EQ PUSH2 0x46 JUMPI JUMPDEST PUSH1 0x0 DUP1 REVERT JUMPDEST CALLVALUE DUP1 ISZERO PUSH2 0x52 JUMPI PUSH1 0x0 DUP1 REVERT JUMPDEST POP PUSH2 0x5B PUSH2 0xC8 JUMP JUMPDEST PUSH1 0x40 MLOAD DUP1 DUP4 PUSH1 0x5 PUSH1 0x20 MUL DUP1 DUP4 DUP4 PUSH1 0x0 JUMPDEST DUP4 DUP2 LT ISZERO PUSH2 0x86 JUMPI DUP1 DUP3 ADD MLOAD DUP2 DUP5 ADD MSTORE PUSH1 0x20 DUP2 ADD SWAP1 POP PUSH2 0x6B JUMP JUMPDEST POP POP POP POP SWAP1 POP ADD DUP3 PUSH1 0x6 PUSH1 0x20 MUL DUP1 DUP4 DUP4 PUSH1 0x0 JUMPDEST DUP4 DUP2 LT ISZERO PUSH2 0xB4 JUMPI DUP1 DUP3 ADD MLOAD DUP2 DUP5 ADD MSTORE PUSH1 0x20 DUP2 ADD SWAP1 POP PUSH2 0x99 JUMP JUMPDEST POP POP POP POP SWAP1 POP ADD SWAP3 POP POP POP PUSH1 0x40 MLOAD DUP1 SWAP2 SUB SWAP1 RETURN JUMPDEST PUSH2 0xD0 PUSH2 0x1DD JUMP JUMPDEST PUSH2 0xD8 PUSH2 0x200 JUMP JUMPDEST PUSH2 0xE0 PUSH2 0x1DD JUMP JUMPDEST PUSH1 0xA0 PUSH1 0x40 MLOAD SWAP1 DUP2 ADD PUSH1 0x40 MSTORE DUP1 PUSH1 0x32 DUP2 MSTORE PUSH1 0x20 ADD PUSH32 0xFFFFFFFFFFFFFFFFFFFFFFFFFFFFFFFFFFFFFFFFFFFFFFFFFFFFFFFFFFFFFFC1 DUP2 MSTORE PUSH1 0x20 ADD PUSH1 0x4D DUP2 MSTORE PUSH1 0x20 ADD PUSH32 0xFFFFFFFFFFFFFFFFFFFFFFFFFFFFFFFFFFFFFFFFFFFFFFFFFFFFFFFFFFFFFFE4 DUP2 MSTORE PUSH1 0x20 ADD PUSH1 0x5A DUP2 MSTORE POP SWAP1 POP PUSH1 0xC0 PUSH1 0x40 MLOAD SWAP1 DUP2 ADD PUSH1 0x40 MSTORE DUP1 PUSH1 0xA DUP2 MSTORE PUSH1 0x20 ADD PUSH1 0x14 DUP2 MSTORE PUSH1 0x20 ADD PUSH1 0x1E DUP2 MSTORE PUSH1 0x20 ADD PUSH1 0x28 DUP2 MSTORE PUSH1 0x20 ADD PUSH1 0x32 DUP2 MSTORE PUSH1 0x20 ADD PUSH1 0x3C DUP2 MSTORE POP PUSH1 0x0 SWAP1 PUSH1 0x6 PUSH2 0x191 SWAP3 SWAP2 SWAP1 PUSH2 0x223 JUMP JUMPDEST POP DUP1 PUSH1 0x0 DUP1 PUSH1 0x6 DUP1 PUSH1 0x20 MUL PUSH1 0x40 MLOAD SWAP1 DUP2 ADD PUSH1 0x40 MSTORE DUP1 SWAP3 SWAP2 SWAP1 DUP3 PUSH1 0x6 DUP1 ISZERO PUSH2 0x1CD JUMPI PUSH1 0x20 MUL DUP3 ADD SWAP2 JUMPDEST DUP2 SLOAD DUP2 MSTORE PUSH1 0x20 ADD SWAP1 PUSH1 0x1 ADD SWAP1 DUP1 DUP4 GT PUSH2 0x1B9 JUMPI JUMPDEST POP POP POP POP POP SWAP1 POP SWAP3 POP SWAP3 POP POP SWAP1 SWAP2 JUMP JUMPDEST PUSH1 0xA0 PUSH1 0x40 MLOAD SWAP1 DUP2 ADD PUSH1 0x40 MSTORE DUP1 PUSH1 0x5 SWAP1 PUSH1 0x20 DUP3 MUL DUP1 CODESIZE DUP4 CODECOPY DUP1 DUP3 ADD SWAP2 POP POP SWAP1 POP POP SWAP1 JUMP JUMPDEST PUSH1 0xC0 PUSH1 0x40 MLOAD SWAP1 DUP2 ADD PUSH1 0x40 MSTORE DUP1 PUSH1 0x6 SWAP1 PUSH1 0x20 DUP3 MUL DUP1 CODESIZE DUP4 CODECOPY DUP1 DUP3 ADD SWAP2 POP POP SWAP1 POP POP SWAP1 JUMP JUMPDEST DUP3 PUSH1 0x6 DUP2 ADD SWAP3 DUP3 ISZERO PUSH2 0x252 JUMPI SWAP2 PUSH1 0x20 MUL DUP3 ADD JUMPDEST DUP3 DUP2 GT ISZERO PUSH2 0x251 JUMPI DUP3 MLOAD DUP3 SSTORE SWAP2 PUSH1 0x20 ADD SWAP2 SWAP1 PUSH1 0x1 ADD SWAP1 PUSH2 0x236 JUMP JUMPDEST JUMPDEST POP SWAP1 POP PUSH2 0x25F SWAP2 SWAP1 PUSH2 0x263 JUMP JUMPDEST POP SWAP1 JUMP JUMPDEST PUSH2 0x285 SWAP2 SWAP1 JUMPDEST DUP1 DUP3 GT ISZERO PUSH2 0x281 JUMPI PUSH1 0x0 DUP2 PUSH1 0x0 SWAP1 SSTORE POP PUSH1 0x1 ADD PUSH2 0x269 JUMP JUMPDEST POP SWAP1 JUMP JUMPDEST SWAP1 JUMP INVALID LOG1 PUSH6 0x627A7A723058 KECCAK256 0xd9 0x4c PUSH3 0x4D4FC5 0x28 PUSH2 0xF637 0xde DUP11 0xbf 0x1e PUSH19 0x997FBEC6BFF35165167C41471F267BEA370029 "
		},
		"gasEstimates": {
			"creation": {
				"codeDepositCost": "138400",
				"executionCost": "183",
				"totalCost": "138583"
			},
			"external": {
				"array_example()": "infinite"
			}
		},
		"methodIdentifiers": {
			"array_example()": "67227992"
		}
	},
	"abi": [
		{
			"constant": false,
			"inputs": [],
			"name": "array_example",
			"outputs": [
				{
					"name": "",
					"type": "int256[5]"
				},
				{
					"name": "",
					"type": "uint256[6]"
				}
			],
			"payable": false,
			"stateMutability": "nonpayable",
			"type": "function"
		}
	]
}